{
	"contracts/Vote.sol": {
		"Vote": {
			"abi": [
				{
					"inputs": [
						{
							"internalType": "string",
							"name": "name",
							"type": "string"
						},
						{
							"internalType": "address",
							"name": "candAddress",
							"type": "address"
						},
						{
							"internalType": "uint256",
							"name": "partyNum",
							"type": "uint256"
						}
					],
					"name": "createCandidate",
					"outputs": [],
					"stateMutability": "nonpayable",
					"type": "function"
				},
				{
					"inputs": [
						{
							"internalType": "uint256",
							"name": "",
							"type": "uint256"
						}
					],
					"name": "party",
					"outputs": [
						{
							"internalType": "string",
							"name": "",
							"type": "string"
						}
					],
					"stateMutability": "view",
					"type": "function"
				}
			],
			"devdoc": {
				"custom:dev-run-script": "./scripts/deploy_with_ethers.ts",
				"details": "Store & retrieve value in a variable",
				"kind": "dev",
				"methods": {
					"createCandidate(string,address,uint256)": {
						"details": "Store value in variable",
						"params": {
							"candAddress": "value for candidate Address",
							"name": "value for candidate name",
							"partyNum": "value for candidate party"
						}
					}
				},
				"title": "Storage",
				"version": 1
			},
			"evm": {
				"assembly": "    /* \"contracts/Vote.sol\":199:1034  contract Vote {... */\n  mstore(0x40, 0x80)\n    /* \"contracts/Vote.sol\":242:295  string [] public party = [\"APC\", \"PDP\", \"LP\", \"NNPP\"] */\n  mload(0x40)\n  dup1\n  0x80\n  add\n  0x40\n  mstore\n  dup1\n  mload(0x40)\n  dup1\n  0x40\n  add\n  0x40\n  mstore\n  dup1\n  0x03\n  dup2\n  mstore\n  0x20\n  add\n  0x4150430000000000000000000000000000000000000000000000000000000000\n  dup2\n  mstore\n  pop\n  dup2\n  mstore\n  0x20\n  add\n  mload(0x40)\n  dup1\n  0x40\n  add\n  0x40\n  mstore\n  dup1\n  0x03\n  dup2\n  mstore\n  0x20\n  add\n  0x5044500000000000000000000000000000000000000000000000000000000000\n  dup2\n  mstore\n  pop\n  dup2\n  mstore\n  0x20\n  add\n  mload(0x40)\n  dup1\n  0x40\n  add\n  0x40\n  mstore\n  dup1\n  0x02\n  dup2\n  mstore\n  0x20\n  add\n  0x4c50000000000000000000000000000000000000000000000000000000000000\n  dup2\n  mstore\n  pop\n  dup2\n  mstore\n  0x20\n  add\n  mload(0x40)\n  dup1\n  0x40\n  add\n  0x40\n  mstore\n  dup1\n  0x04\n  dup2\n  mstore\n  0x20\n  add\n  0x4e4e505000000000000000000000000000000000000000000000000000000000\n  dup2\n  mstore\n  pop\n  dup2\n  mstore\n  pop\n  0x01\n  swap1\n  0x04\n  tag_1\n  swap3\n  swap2\n  swap1\n  tag_2\n  jump\t// in\ntag_1:\n  pop\n    /* \"contracts/Vote.sol\":199:1034  contract Vote {... */\n  callvalue\n  dup1\n  iszero\n  tag_3\n  jumpi\n  0x00\n  dup1\n  revert\ntag_3:\n  pop\n  jump(tag_4)\ntag_2:\n  dup3\n  dup1\n  sload\n  dup3\n  dup3\n  sstore\n  swap1\n  0x00\n  mstore\n  keccak256(0x00, 0x20)\n  swap1\n  dup2\n  add\n  swap3\n  dup3\n  iszero\n  tag_5\n  jumpi\n  swap2\n  0x20\n  mul\n  dup3\n  add\ntag_6:\n  dup3\n  dup2\n  gt\n  iszero\n  tag_7\n  jumpi\n  dup3\n  mload\n  dup3\n  swap1\n  dup1\n  mload\n  swap1\n  0x20\n  add\n  swap1\n  tag_8\n  swap3\n  swap2\n  swap1\n  tag_9\n  jump\t// in\ntag_8:\n  pop\n  swap2\n  0x20\n  add\n  swap2\n  swap1\n  0x01\n  add\n  swap1\n  jump(tag_6)\ntag_7:\ntag_5:\n  pop\n  swap1\n  pop\n  tag_10\n  swap2\n  swap1\n  tag_11\n  jump\t// in\ntag_10:\n  pop\n  swap1\n  jump\t// out\ntag_9:\n  dup3\n  dup1\n  sload\n  tag_12\n  swap1\n  tag_13\n  jump\t// in\ntag_12:\n  swap1\n  0x00\n  mstore\n  keccak256(0x00, 0x20)\n  swap1\n  0x1f\n  add\n  0x20\n  swap1\n  div\n  dup2\n  add\n  swap3\n  dup3\n  tag_15\n  jumpi\n  0x00\n  dup6\n  sstore\n  jump(tag_14)\ntag_15:\n  dup3\n  0x1f\n  lt\n  tag_16\n  jumpi\n  dup1\n  mload\n  not(0xff)\n  and\n  dup4\n  dup1\n  add\n  or\n  dup6\n  sstore\n  jump(tag_14)\ntag_16:\n  dup3\n  dup1\n  add\n  0x01\n  add\n  dup6\n  sstore\n  dup3\n  iszero\n  tag_14\n  jumpi\n  swap2\n  dup3\n  add\ntag_17:\n  dup3\n  dup2\n  gt\n  iszero\n  tag_18\n  jumpi\n  dup3\n  mload\n  dup3\n  sstore\n  swap2\n  0x20\n  add\n  swap2\n  swap1\n  0x01\n  add\n  swap1\n  jump(tag_17)\ntag_18:\ntag_14:\n  pop\n  swap1\n  pop\n  tag_19\n  swap2\n  swap1\n  tag_20\n  jump\t// in\ntag_19:\n  pop\n  swap1\n  jump\t// out\ntag_11:\ntag_21:\n  dup1\n  dup3\n  gt\n  iszero\n  tag_22\n  jumpi\n  0x00\n  dup2\n  dup2\n  tag_23\n  swap2\n  swap1\n  tag_24\n  jump\t// in\ntag_23:\n  pop\n  0x01\n  add\n  jump(tag_21)\ntag_22:\n  pop\n  swap1\n  jump\t// out\ntag_20:\ntag_25:\n  dup1\n  dup3\n  gt\n  iszero\n  tag_26\n  jumpi\n  0x00\n  dup2\n  0x00\n  swap1\n  sstore\n  pop\n  0x01\n  add\n  jump(tag_25)\ntag_26:\n  pop\n  swap1\n  jump\t// out\ntag_24:\n  pop\n  dup1\n  sload\n  tag_27\n  swap1\n  tag_13\n  jump\t// in\ntag_27:\n  0x00\n  dup3\n  sstore\n  dup1\n  0x1f\n  lt\n  tag_29\n  jumpi\n  pop\n  jump(tag_28)\ntag_29:\n  0x1f\n  add\n  0x20\n  swap1\n  div\n  swap1\n  0x00\n  mstore\n  keccak256(0x00, 0x20)\n  swap1\n  dup2\n  add\n  swap1\n  tag_30\n  swap2\n  swap1\n  tag_20\n  jump\t// in\ntag_30:\ntag_28:\n  pop\n  jump\t// out\n    /* \"#utility.yul\":7:327   */\ntag_13:\n    /* \"#utility.yul\":51:57   */\n  0x00\n    /* \"#utility.yul\":88:89   */\n  0x02\n    /* \"#utility.yul\":82:86   */\n  dup3\n    /* \"#utility.yul\":78:90   */\n  div\n    /* \"#utility.yul\":68:90   */\n  swap1\n  pop\n    /* \"#utility.yul\":135:136   */\n  0x01\n    /* \"#utility.yul\":129:133   */\n  dup3\n    /* \"#utility.yul\":125:137   */\n  and\n    /* \"#utility.yul\":156:174   */\n  dup1\n    /* \"#utility.yul\":146:227   */\n  tag_33\n  jumpi\n    /* \"#utility.yul\":212:216   */\n  0x7f\n    /* \"#utility.yul\":204:210   */\n  dup3\n    /* \"#utility.yul\":200:217   */\n  and\n    /* \"#utility.yul\":190:217   */\n  swap2\n  pop\n    /* \"#utility.yul\":146:227   */\ntag_33:\n    /* \"#utility.yul\":274:276   */\n  0x20\n    /* \"#utility.yul\":266:272   */\n  dup3\n    /* \"#utility.yul\":263:277   */\n  lt\n    /* \"#utility.yul\":243:261   */\n  dup2\n    /* \"#utility.yul\":240:278   */\n  eq\n    /* \"#utility.yul\":237:321   */\n  iszero\n  tag_34\n  jumpi\n    /* \"#utility.yul\":293:311   */\n  tag_35\n  tag_36\n  jump\t// in\ntag_35:\n    /* \"#utility.yul\":237:321   */\ntag_34:\n    /* \"#utility.yul\":58:327   */\n  pop\n    /* \"#utility.yul\":7:327   */\n  swap2\n  swap1\n  pop\n  jump\t// out\n    /* \"#utility.yul\":333:513   */\ntag_36:\n    /* \"#utility.yul\":381:458   */\n  0x4e487b7100000000000000000000000000000000000000000000000000000000\n    /* \"#utility.yul\":378:379   */\n  0x00\n    /* \"#utility.yul\":371:459   */\n  mstore\n    /* \"#utility.yul\":478:482   */\n  0x22\n    /* \"#utility.yul\":475:476   */\n  0x04\n    /* \"#utility.yul\":468:483   */\n  mstore\n    /* \"#utility.yul\":502:506   */\n  0x24\n    /* \"#utility.yul\":499:500   */\n  0x00\n    /* \"#utility.yul\":492:507   */\n  revert\n    /* \"contracts/Vote.sol\":199:1034  contract Vote {... */\ntag_4:\n  dataSize(sub_0)\n  dup1\n  dataOffset(sub_0)\n  0x00\n  codecopy\n  0x00\n  return\nstop\n\nsub_0: assembly {\n        /* \"contracts/Vote.sol\":199:1034  contract Vote {... */\n      mstore(0x40, 0x80)\n      callvalue\n      dup1\n      iszero\n      tag_1\n      jumpi\n      0x00\n      dup1\n      revert\n    tag_1:\n      pop\n      jumpi(tag_2, lt(calldatasize, 0x04))\n      shr(0xe0, calldataload(0x00))\n      dup1\n      0x314fd68f\n      eq\n      tag_3\n      jumpi\n      dup1\n      0xd59d2a58\n      eq\n      tag_4\n      jumpi\n    tag_2:\n      0x00\n      dup1\n      revert\n        /* \"contracts/Vote.sol\":242:295  string [] public party = [\"APC\", \"PDP\", \"LP\", \"NNPP\"] */\n    tag_3:\n      tag_5\n      0x04\n      dup1\n      calldatasize\n      sub\n      dup2\n      add\n      swap1\n      tag_6\n      swap2\n      swap1\n      tag_7\n      jump\t// in\n    tag_6:\n      tag_8\n      jump\t// in\n    tag_5:\n      mload(0x40)\n      tag_9\n      swap2\n      swap1\n      tag_10\n      jump\t// in\n    tag_9:\n      mload(0x40)\n      dup1\n      swap2\n      sub\n      swap1\n      return\n        /* \"contracts/Vote.sol\":597:863  function createCandidate(string memory name, address candAddress, uint256 partyNum) public {... */\n    tag_4:\n      tag_11\n      0x04\n      dup1\n      calldatasize\n      sub\n      dup2\n      add\n      swap1\n      tag_12\n      swap2\n      swap1\n      tag_13\n      jump\t// in\n    tag_12:\n      tag_14\n      jump\t// in\n    tag_11:\n      stop\n        /* \"contracts/Vote.sol\":242:295  string [] public party = [\"APC\", \"PDP\", \"LP\", \"NNPP\"] */\n    tag_8:\n      0x01\n      dup2\n      dup2\n      sload\n      dup2\n      lt\n      tag_15\n      jumpi\n      0x00\n      dup1\n      revert\n    tag_15:\n      swap1\n      0x00\n      mstore\n      keccak256(0x00, 0x20)\n      add\n      0x00\n      swap2\n      pop\n      swap1\n      pop\n      dup1\n      sload\n      tag_17\n      swap1\n      tag_18\n      jump\t// in\n    tag_17:\n      dup1\n      0x1f\n      add\n      0x20\n      dup1\n      swap2\n      div\n      mul\n      0x20\n      add\n      mload(0x40)\n      swap1\n      dup2\n      add\n      0x40\n      mstore\n      dup1\n      swap3\n      swap2\n      swap1\n      dup2\n      dup2\n      mstore\n      0x20\n      add\n      dup3\n      dup1\n      sload\n      tag_19\n      swap1\n      tag_18\n      jump\t// in\n    tag_19:\n      dup1\n      iszero\n      tag_20\n      jumpi\n      dup1\n      0x1f\n      lt\n      tag_21\n      jumpi\n      0x0100\n      dup1\n      dup4\n      sload\n      div\n      mul\n      dup4\n      mstore\n      swap2\n      0x20\n      add\n      swap2\n      jump(tag_20)\n    tag_21:\n      dup3\n      add\n      swap2\n      swap1\n      0x00\n      mstore\n      keccak256(0x00, 0x20)\n      swap1\n    tag_22:\n      dup2\n      sload\n      dup2\n      mstore\n      swap1\n      0x01\n      add\n      swap1\n      0x20\n      add\n      dup1\n      dup4\n      gt\n      tag_22\n      jumpi\n      dup3\n      swap1\n      sub\n      0x1f\n      and\n      dup3\n      add\n      swap2\n    tag_20:\n      pop\n      pop\n      pop\n      pop\n      pop\n      dup2\n      jump\t// out\n        /* \"contracts/Vote.sol\":597:863  function createCandidate(string memory name, address candAddress, uint256 partyNum) public {... */\n    tag_14:\n        /* \"contracts/Vote.sol\":698:727  candidate memory NewCandidate */\n      tag_24\n      tag_25\n      jump\t// in\n    tag_24:\n        /* \"contracts/Vote.sol\":757:761  name */\n      dup4\n        /* \"contracts/Vote.sol\":737:749  NewCandidate */\n      dup2\n        /* \"contracts/Vote.sol\":737:754  NewCandidate.name */\n      0x00\n      add\n        /* \"contracts/Vote.sol\":737:761  NewCandidate.name = name */\n      dup2\n      swap1\n      mstore\n      pop\n        /* \"contracts/Vote.sol\":791:802  candAddress */\n      dup3\n        /* \"contracts/Vote.sol\":771:783  NewCandidate */\n      dup2\n        /* \"contracts/Vote.sol\":771:788  NewCandidate.addr */\n      0x20\n      add\n        /* \"contracts/Vote.sol\":771:802  NewCandidate.addr = candAddress */\n      swap1\n      0xffffffffffffffffffffffffffffffffffffffff\n      and\n      swap1\n      dup2\n      0xffffffffffffffffffffffffffffffffffffffff\n      and\n      dup2\n      mstore\n      pop\n      pop\n        /* \"contracts/Vote.sol\":833:838  party */\n      0x01\n        /* \"contracts/Vote.sol\":839:847  partyNum */\n      dup3\n        /* \"contracts/Vote.sol\":833:848  party[partyNum] */\n      dup2\n      sload\n      dup2\n      lt\n      tag_26\n      jumpi\n      tag_27\n      tag_28\n      jump\t// in\n    tag_27:\n    tag_26:\n      swap1\n      0x00\n      mstore\n      keccak256(0x00, 0x20)\n      add\n        /* \"contracts/Vote.sol\":812:848  NewCandidate.party = party[partyNum] */\n      dup1\n      sload\n      tag_30\n      swap1\n      tag_18\n      jump\t// in\n    tag_30:\n      dup1\n      0x1f\n      add\n      0x20\n      dup1\n      swap2\n      div\n      mul\n      0x20\n      add\n      mload(0x40)\n      swap1\n      dup2\n      add\n      0x40\n      mstore\n      dup1\n      swap3\n      swap2\n      swap1\n      dup2\n      dup2\n      mstore\n      0x20\n      add\n      dup3\n      dup1\n      sload\n      tag_31\n      swap1\n      tag_18\n      jump\t// in\n    tag_31:\n      dup1\n      iszero\n      tag_32\n      jumpi\n      dup1\n      0x1f\n      lt\n      tag_33\n      jumpi\n      0x0100\n      dup1\n      dup4\n      sload\n      div\n      mul\n      dup4\n      mstore\n      swap2\n      0x20\n      add\n      swap2\n      jump(tag_32)\n    tag_33:\n      dup3\n      add\n      swap2\n      swap1\n      0x00\n      mstore\n      keccak256(0x00, 0x20)\n      swap1\n    tag_34:\n      dup2\n      sload\n      dup2\n      mstore\n      swap1\n      0x01\n      add\n      swap1\n      0x20\n      add\n      dup1\n      dup4\n      gt\n      tag_34\n      jumpi\n      dup3\n      swap1\n      sub\n      0x1f\n      and\n      dup3\n      add\n      swap2\n    tag_32:\n      pop\n      pop\n      pop\n      pop\n      pop\n        /* \"contracts/Vote.sol\":812:824  NewCandidate */\n      dup2\n        /* \"contracts/Vote.sol\":812:830  NewCandidate.party */\n      0x40\n      add\n        /* \"contracts/Vote.sol\":812:848  NewCandidate.party = party[partyNum] */\n      dup2\n      swap1\n      mstore\n      pop\n        /* \"contracts/Vote.sol\":688:863  {... */\n      pop\n        /* \"contracts/Vote.sol\":597:863  function createCandidate(string memory name, address candAddress, uint256 partyNum) public {... */\n      pop\n      pop\n      pop\n      jump\t// out\n    tag_25:\n      mload(0x40)\n      dup1\n      0x60\n      add\n      0x40\n      mstore\n      dup1\n      0x60\n      dup2\n      mstore\n      0x20\n      add\n      and(0xffffffffffffffffffffffffffffffffffffffff, 0x00)\n      dup2\n      mstore\n      0x20\n      add\n      0x60\n      dup2\n      mstore\n      pop\n      swap1\n      jump\t// out\n        /* \"#utility.yul\":7:419   */\n    tag_36:\n        /* \"#utility.yul\":85:90   */\n      0x00\n        /* \"#utility.yul\":110:176   */\n      tag_38\n        /* \"#utility.yul\":126:175   */\n      tag_39\n        /* \"#utility.yul\":168:174   */\n      dup5\n        /* \"#utility.yul\":126:175   */\n      tag_40\n      jump\t// in\n    tag_39:\n        /* \"#utility.yul\":110:176   */\n      tag_41\n      jump\t// in\n    tag_38:\n        /* \"#utility.yul\":101:176   */\n      swap1\n      pop\n        /* \"#utility.yul\":199:205   */\n      dup3\n        /* \"#utility.yul\":192:197   */\n      dup2\n        /* \"#utility.yul\":185:206   */\n      mstore\n        /* \"#utility.yul\":237:241   */\n      0x20\n        /* \"#utility.yul\":230:235   */\n      dup2\n        /* \"#utility.yul\":226:242   */\n      add\n        /* \"#utility.yul\":275:278   */\n      dup5\n        /* \"#utility.yul\":266:272   */\n      dup5\n        /* \"#utility.yul\":261:264   */\n      dup5\n        /* \"#utility.yul\":257:273   */\n      add\n        /* \"#utility.yul\":254:279   */\n      gt\n        /* \"#utility.yul\":251:363   */\n      iszero\n      tag_42\n      jumpi\n        /* \"#utility.yul\":282:361   */\n      tag_43\n      tag_44\n      jump\t// in\n    tag_43:\n        /* \"#utility.yul\":251:363   */\n    tag_42:\n        /* \"#utility.yul\":372:413   */\n      tag_45\n        /* \"#utility.yul\":406:412   */\n      dup5\n        /* \"#utility.yul\":401:404   */\n      dup3\n        /* \"#utility.yul\":396:399   */\n      dup6\n        /* \"#utility.yul\":372:413   */\n      tag_46\n      jump\t// in\n    tag_45:\n        /* \"#utility.yul\":91:419   */\n      pop\n        /* \"#utility.yul\":7:419   */\n      swap4\n      swap3\n      pop\n      pop\n      pop\n      jump\t// out\n        /* \"#utility.yul\":425:564   */\n    tag_47:\n        /* \"#utility.yul\":471:476   */\n      0x00\n        /* \"#utility.yul\":509:515   */\n      dup2\n        /* \"#utility.yul\":496:516   */\n      calldataload\n        /* \"#utility.yul\":487:516   */\n      swap1\n      pop\n        /* \"#utility.yul\":525:558   */\n      tag_49\n        /* \"#utility.yul\":552:557   */\n      dup2\n        /* \"#utility.yul\":525:558   */\n      tag_50\n      jump\t// in\n    tag_49:\n        /* \"#utility.yul\":425:564   */\n      swap3\n      swap2\n      pop\n      pop\n      jump\t// out\n        /* \"#utility.yul\":584:924   */\n    tag_51:\n        /* \"#utility.yul\":640:645   */\n      0x00\n        /* \"#utility.yul\":689:692   */\n      dup3\n        /* \"#utility.yul\":682:686   */\n      0x1f\n        /* \"#utility.yul\":674:680   */\n      dup4\n        /* \"#utility.yul\":670:687   */\n      add\n        /* \"#utility.yul\":666:693   */\n      slt\n        /* \"#utility.yul\":656:778   */\n      tag_53\n      jumpi\n        /* \"#utility.yul\":697:776   */\n      tag_54\n      tag_55\n      jump\t// in\n    tag_54:\n        /* \"#utility.yul\":656:778   */\n    tag_53:\n        /* \"#utility.yul\":814:820   */\n      dup2\n        /* \"#utility.yul\":801:821   */\n      calldataload\n        /* \"#utility.yul\":839:918   */\n      tag_56\n        /* \"#utility.yul\":914:917   */\n      dup5\n        /* \"#utility.yul\":906:912   */\n      dup3\n        /* \"#utility.yul\":899:903   */\n      0x20\n        /* \"#utility.yul\":891:897   */\n      dup7\n        /* \"#utility.yul\":887:904   */\n      add\n        /* \"#utility.yul\":839:918   */\n      tag_36\n      jump\t// in\n    tag_56:\n        /* \"#utility.yul\":830:918   */\n      swap2\n      pop\n        /* \"#utility.yul\":646:924   */\n      pop\n        /* \"#utility.yul\":584:924   */\n      swap3\n      swap2\n      pop\n      pop\n      jump\t// out\n        /* \"#utility.yul\":930:1069   */\n    tag_57:\n        /* \"#utility.yul\":976:981   */\n      0x00\n        /* \"#utility.yul\":1014:1020   */\n      dup2\n        /* \"#utility.yul\":1001:1021   */\n      calldataload\n        /* \"#utility.yul\":992:1021   */\n      swap1\n      pop\n        /* \"#utility.yul\":1030:1063   */\n      tag_59\n        /* \"#utility.yul\":1057:1062   */\n      dup2\n        /* \"#utility.yul\":1030:1063   */\n      tag_60\n      jump\t// in\n    tag_59:\n        /* \"#utility.yul\":930:1069   */\n      swap3\n      swap2\n      pop\n      pop\n      jump\t// out\n        /* \"#utility.yul\":1075:1874   */\n    tag_13:\n        /* \"#utility.yul\":1162:1168   */\n      0x00\n        /* \"#utility.yul\":1170:1176   */\n      dup1\n        /* \"#utility.yul\":1178:1184   */\n      0x00\n        /* \"#utility.yul\":1227:1229   */\n      0x60\n        /* \"#utility.yul\":1215:1224   */\n      dup5\n        /* \"#utility.yul\":1206:1213   */\n      dup7\n        /* \"#utility.yul\":1202:1225   */\n      sub\n        /* \"#utility.yul\":1198:1230   */\n      slt\n        /* \"#utility.yul\":1195:1314   */\n      iszero\n      tag_62\n      jumpi\n        /* \"#utility.yul\":1233:1312   */\n      tag_63\n      tag_64\n      jump\t// in\n    tag_63:\n        /* \"#utility.yul\":1195:1314   */\n    tag_62:\n        /* \"#utility.yul\":1381:1382   */\n      0x00\n        /* \"#utility.yul\":1370:1379   */\n      dup5\n        /* \"#utility.yul\":1366:1383   */\n      add\n        /* \"#utility.yul\":1353:1384   */\n      calldataload\n        /* \"#utility.yul\":1411:1429   */\n      0xffffffffffffffff\n        /* \"#utility.yul\":1403:1409   */\n      dup2\n        /* \"#utility.yul\":1400:1430   */\n      gt\n        /* \"#utility.yul\":1397:1514   */\n      iszero\n      tag_65\n      jumpi\n        /* \"#utility.yul\":1433:1512   */\n      tag_66\n      tag_67\n      jump\t// in\n    tag_66:\n        /* \"#utility.yul\":1397:1514   */\n    tag_65:\n        /* \"#utility.yul\":1538:1601   */\n      tag_68\n        /* \"#utility.yul\":1593:1600   */\n      dup7\n        /* \"#utility.yul\":1584:1590   */\n      dup3\n        /* \"#utility.yul\":1573:1582   */\n      dup8\n        /* \"#utility.yul\":1569:1591   */\n      add\n        /* \"#utility.yul\":1538:1601   */\n      tag_51\n      jump\t// in\n    tag_68:\n        /* \"#utility.yul\":1528:1601   */\n      swap4\n      pop\n        /* \"#utility.yul\":1324:1611   */\n      pop\n        /* \"#utility.yul\":1650:1652   */\n      0x20\n        /* \"#utility.yul\":1676:1729   */\n      tag_69\n        /* \"#utility.yul\":1721:1728   */\n      dup7\n        /* \"#utility.yul\":1712:1718   */\n      dup3\n        /* \"#utility.yul\":1701:1710   */\n      dup8\n        /* \"#utility.yul\":1697:1719   */\n      add\n        /* \"#utility.yul\":1676:1729   */\n      tag_47\n      jump\t// in\n    tag_69:\n        /* \"#utility.yul\":1666:1729   */\n      swap3\n      pop\n        /* \"#utility.yul\":1621:1739   */\n      pop\n        /* \"#utility.yul\":1778:1780   */\n      0x40\n        /* \"#utility.yul\":1804:1857   */\n      tag_70\n        /* \"#utility.yul\":1849:1856   */\n      dup7\n        /* \"#utility.yul\":1840:1846   */\n      dup3\n        /* \"#utility.yul\":1829:1838   */\n      dup8\n        /* \"#utility.yul\":1825:1847   */\n      add\n        /* \"#utility.yul\":1804:1857   */\n      tag_57\n      jump\t// in\n    tag_70:\n        /* \"#utility.yul\":1794:1857   */\n      swap2\n      pop\n        /* \"#utility.yul\":1749:1867   */\n      pop\n        /* \"#utility.yul\":1075:1874   */\n      swap3\n      pop\n      swap3\n      pop\n      swap3\n      jump\t// out\n        /* \"#utility.yul\":1880:2209   */\n    tag_7:\n        /* \"#utility.yul\":1939:1945   */\n      0x00\n        /* \"#utility.yul\":1988:1990   */\n      0x20\n        /* \"#utility.yul\":1976:1985   */\n      dup3\n        /* \"#utility.yul\":1967:1974   */\n      dup5\n        /* \"#utility.yul\":1963:1986   */\n      sub\n        /* \"#utility.yul\":1959:1991   */\n      slt\n        /* \"#utility.yul\":1956:2075   */\n      iszero\n      tag_72\n      jumpi\n        /* \"#utility.yul\":1994:2073   */\n      tag_73\n      tag_64\n      jump\t// in\n    tag_73:\n        /* \"#utility.yul\":1956:2075   */\n    tag_72:\n        /* \"#utility.yul\":2114:2115   */\n      0x00\n        /* \"#utility.yul\":2139:2192   */\n      tag_74\n        /* \"#utility.yul\":2184:2191   */\n      dup5\n        /* \"#utility.yul\":2175:2181   */\n      dup3\n        /* \"#utility.yul\":2164:2173   */\n      dup6\n        /* \"#utility.yul\":2160:2182   */\n      add\n        /* \"#utility.yul\":2139:2192   */\n      tag_57\n      jump\t// in\n    tag_74:\n        /* \"#utility.yul\":2129:2192   */\n      swap2\n      pop\n        /* \"#utility.yul\":2085:2202   */\n      pop\n        /* \"#utility.yul\":1880:2209   */\n      swap3\n      swap2\n      pop\n      pop\n      jump\t// out\n        /* \"#utility.yul\":2215:2579   */\n    tag_75:\n        /* \"#utility.yul\":2303:2306   */\n      0x00\n        /* \"#utility.yul\":2331:2370   */\n      tag_77\n        /* \"#utility.yul\":2364:2369   */\n      dup3\n        /* \"#utility.yul\":2331:2370   */\n      tag_78\n      jump\t// in\n    tag_77:\n        /* \"#utility.yul\":2386:2457   */\n      tag_79\n        /* \"#utility.yul\":2450:2456   */\n      dup2\n        /* \"#utility.yul\":2445:2448   */\n      dup6\n        /* \"#utility.yul\":2386:2457   */\n      tag_80\n      jump\t// in\n    tag_79:\n        /* \"#utility.yul\":2379:2457   */\n      swap4\n      pop\n        /* \"#utility.yul\":2466:2518   */\n      tag_81\n        /* \"#utility.yul\":2511:2517   */\n      dup2\n        /* \"#utility.yul\":2506:2509   */\n      dup6\n        /* \"#utility.yul\":2499:2503   */\n      0x20\n        /* \"#utility.yul\":2492:2497   */\n      dup7\n        /* \"#utility.yul\":2488:2504   */\n      add\n        /* \"#utility.yul\":2466:2518   */\n      tag_82\n      jump\t// in\n    tag_81:\n        /* \"#utility.yul\":2543:2572   */\n      tag_83\n        /* \"#utility.yul\":2565:2571   */\n      dup2\n        /* \"#utility.yul\":2543:2572   */\n      tag_84\n      jump\t// in\n    tag_83:\n        /* \"#utility.yul\":2538:2541   */\n      dup5\n        /* \"#utility.yul\":2534:2573   */\n      add\n        /* \"#utility.yul\":2527:2573   */\n      swap2\n      pop\n        /* \"#utility.yul\":2307:2579   */\n      pop\n        /* \"#utility.yul\":2215:2579   */\n      swap3\n      swap2\n      pop\n      pop\n      jump\t// out\n        /* \"#utility.yul\":2585:2898   */\n    tag_10:\n        /* \"#utility.yul\":2698:2702   */\n      0x00\n        /* \"#utility.yul\":2736:2738   */\n      0x20\n        /* \"#utility.yul\":2725:2734   */\n      dup3\n        /* \"#utility.yul\":2721:2739   */\n      add\n        /* \"#utility.yul\":2713:2739   */\n      swap1\n      pop\n        /* \"#utility.yul\":2785:2794   */\n      dup2\n        /* \"#utility.yul\":2779:2783   */\n      dup2\n        /* \"#utility.yul\":2775:2795   */\n      sub\n        /* \"#utility.yul\":2771:2772   */\n      0x00\n        /* \"#utility.yul\":2760:2769   */\n      dup4\n        /* \"#utility.yul\":2756:2773   */\n      add\n        /* \"#utility.yul\":2749:2796   */\n      mstore\n        /* \"#utility.yul\":2813:2891   */\n      tag_86\n        /* \"#utility.yul\":2886:2890   */\n      dup2\n        /* \"#utility.yul\":2877:2883   */\n      dup5\n        /* \"#utility.yul\":2813:2891   */\n      tag_75\n      jump\t// in\n    tag_86:\n        /* \"#utility.yul\":2805:2891   */\n      swap1\n      pop\n        /* \"#utility.yul\":2585:2898   */\n      swap3\n      swap2\n      pop\n      pop\n      jump\t// out\n        /* \"#utility.yul\":2904:3033   */\n    tag_41:\n        /* \"#utility.yul\":2938:2944   */\n      0x00\n        /* \"#utility.yul\":2965:2985   */\n      tag_88\n      tag_89\n      jump\t// in\n    tag_88:\n        /* \"#utility.yul\":2955:2985   */\n      swap1\n      pop\n        /* \"#utility.yul\":2994:3027   */\n      tag_90\n        /* \"#utility.yul\":3022:3026   */\n      dup3\n        /* \"#utility.yul\":3014:3020   */\n      dup3\n        /* \"#utility.yul\":2994:3027   */\n      tag_91\n      jump\t// in\n    tag_90:\n        /* \"#utility.yul\":2904:3033   */\n      swap2\n      swap1\n      pop\n      jump\t// out\n        /* \"#utility.yul\":3039:3114   */\n    tag_89:\n        /* \"#utility.yul\":3072:3078   */\n      0x00\n        /* \"#utility.yul\":3105:3107   */\n      0x40\n        /* \"#utility.yul\":3099:3108   */\n      mload\n        /* \"#utility.yul\":3089:3108   */\n      swap1\n      pop\n        /* \"#utility.yul\":3039:3114   */\n      swap1\n      jump\t// out\n        /* \"#utility.yul\":3120:3428   */\n    tag_40:\n        /* \"#utility.yul\":3182:3186   */\n      0x00\n        /* \"#utility.yul\":3272:3290   */\n      0xffffffffffffffff\n        /* \"#utility.yul\":3264:3270   */\n      dup3\n        /* \"#utility.yul\":3261:3291   */\n      gt\n        /* \"#utility.yul\":3258:3314   */\n      iszero\n      tag_94\n      jumpi\n        /* \"#utility.yul\":3294:3312   */\n      tag_95\n      tag_96\n      jump\t// in\n    tag_95:\n        /* \"#utility.yul\":3258:3314   */\n    tag_94:\n        /* \"#utility.yul\":3332:3361   */\n      tag_97\n        /* \"#utility.yul\":3354:3360   */\n      dup3\n        /* \"#utility.yul\":3332:3361   */\n      tag_84\n      jump\t// in\n    tag_97:\n        /* \"#utility.yul\":3324:3361   */\n      swap1\n      pop\n        /* \"#utility.yul\":3416:3420   */\n      0x20\n        /* \"#utility.yul\":3410:3414   */\n      dup2\n        /* \"#utility.yul\":3406:3421   */\n      add\n        /* \"#utility.yul\":3398:3421   */\n      swap1\n      pop\n        /* \"#utility.yul\":3120:3428   */\n      swap2\n      swap1\n      pop\n      jump\t// out\n        /* \"#utility.yul\":3434:3533   */\n    tag_78:\n        /* \"#utility.yul\":3486:3492   */\n      0x00\n        /* \"#utility.yul\":3520:3525   */\n      dup2\n        /* \"#utility.yul\":3514:3526   */\n      mload\n        /* \"#utility.yul\":3504:3526   */\n      swap1\n      pop\n        /* \"#utility.yul\":3434:3533   */\n      swap2\n      swap1\n      pop\n      jump\t// out\n        /* \"#utility.yul\":3539:3708   */\n    tag_80:\n        /* \"#utility.yul\":3623:3634   */\n      0x00\n        /* \"#utility.yul\":3657:3663   */\n      dup3\n        /* \"#utility.yul\":3652:3655   */\n      dup3\n        /* \"#utility.yul\":3645:3664   */\n      mstore\n        /* \"#utility.yul\":3697:3701   */\n      0x20\n        /* \"#utility.yul\":3692:3695   */\n      dup3\n        /* \"#utility.yul\":3688:3702   */\n      add\n        /* \"#utility.yul\":3673:3702   */\n      swap1\n      pop\n        /* \"#utility.yul\":3539:3708   */\n      swap3\n      swap2\n      pop\n      pop\n      jump\t// out\n        /* \"#utility.yul\":3714:3810   */\n    tag_100:\n        /* \"#utility.yul\":3751:3758   */\n      0x00\n        /* \"#utility.yul\":3780:3804   */\n      tag_102\n        /* \"#utility.yul\":3798:3803   */\n      dup3\n        /* \"#utility.yul\":3780:3804   */\n      tag_103\n      jump\t// in\n    tag_102:\n        /* \"#utility.yul\":3769:3804   */\n      swap1\n      pop\n        /* \"#utility.yul\":3714:3810   */\n      swap2\n      swap1\n      pop\n      jump\t// out\n        /* \"#utility.yul\":3816:3942   */\n    tag_103:\n        /* \"#utility.yul\":3853:3860   */\n      0x00\n        /* \"#utility.yul\":3893:3935   */\n      0xffffffffffffffffffffffffffffffffffffffff\n        /* \"#utility.yul\":3886:3891   */\n      dup3\n        /* \"#utility.yul\":3882:3936   */\n      and\n        /* \"#utility.yul\":3871:3936   */\n      swap1\n      pop\n        /* \"#utility.yul\":3816:3942   */\n      swap2\n      swap1\n      pop\n      jump\t// out\n        /* \"#utility.yul\":3948:4025   */\n    tag_105:\n        /* \"#utility.yul\":3985:3992   */\n      0x00\n        /* \"#utility.yul\":4014:4019   */\n      dup2\n        /* \"#utility.yul\":4003:4019   */\n      swap1\n      pop\n        /* \"#utility.yul\":3948:4025   */\n      swap2\n      swap1\n      pop\n      jump\t// out\n        /* \"#utility.yul\":4031:4185   */\n    tag_46:\n        /* \"#utility.yul\":4115:4121   */\n      dup3\n        /* \"#utility.yul\":4110:4113   */\n      dup2\n        /* \"#utility.yul\":4105:4108   */\n      dup4\n        /* \"#utility.yul\":4092:4122   */\n      calldatacopy\n        /* \"#utility.yul\":4177:4178   */\n      0x00\n        /* \"#utility.yul\":4168:4174   */\n      dup4\n        /* \"#utility.yul\":4163:4166   */\n      dup4\n        /* \"#utility.yul\":4159:4175   */\n      add\n        /* \"#utility.yul\":4152:4179   */\n      mstore\n        /* \"#utility.yul\":4031:4185   */\n      pop\n      pop\n      pop\n      jump\t// out\n        /* \"#utility.yul\":4191:4498   */\n    tag_82:\n        /* \"#utility.yul\":4259:4260   */\n      0x00\n        /* \"#utility.yul\":4269:4382   */\n    tag_109:\n        /* \"#utility.yul\":4283:4289   */\n      dup4\n        /* \"#utility.yul\":4280:4281   */\n      dup2\n        /* \"#utility.yul\":4277:4290   */\n      lt\n        /* \"#utility.yul\":4269:4382   */\n      iszero\n      tag_111\n      jumpi\n        /* \"#utility.yul\":4368:4369   */\n      dup1\n        /* \"#utility.yul\":4363:4366   */\n      dup3\n        /* \"#utility.yul\":4359:4370   */\n      add\n        /* \"#utility.yul\":4353:4371   */\n      mload\n        /* \"#utility.yul\":4349:4350   */\n      dup2\n        /* \"#utility.yul\":4344:4347   */\n      dup5\n        /* \"#utility.yul\":4340:4351   */\n      add\n        /* \"#utility.yul\":4333:4372   */\n      mstore\n        /* \"#utility.yul\":4305:4307   */\n      0x20\n        /* \"#utility.yul\":4302:4303   */\n      dup2\n        /* \"#utility.yul\":4298:4308   */\n      add\n        /* \"#utility.yul\":4293:4308   */\n      swap1\n      pop\n        /* \"#utility.yul\":4269:4382   */\n      jump(tag_109)\n    tag_111:\n        /* \"#utility.yul\":4400:4406   */\n      dup4\n        /* \"#utility.yul\":4397:4398   */\n      dup2\n        /* \"#utility.yul\":4394:4407   */\n      gt\n        /* \"#utility.yul\":4391:4492   */\n      iszero\n      tag_112\n      jumpi\n        /* \"#utility.yul\":4480:4481   */\n      0x00\n        /* \"#utility.yul\":4471:4477   */\n      dup5\n        /* \"#utility.yul\":4466:4469   */\n      dup5\n        /* \"#utility.yul\":4462:4478   */\n      add\n        /* \"#utility.yul\":4455:4482   */\n      mstore\n        /* \"#utility.yul\":4391:4492   */\n    tag_112:\n        /* \"#utility.yul\":4240:4498   */\n      pop\n        /* \"#utility.yul\":4191:4498   */\n      pop\n      pop\n      pop\n      jump\t// out\n        /* \"#utility.yul\":4504:4824   */\n    tag_18:\n        /* \"#utility.yul\":4548:4554   */\n      0x00\n        /* \"#utility.yul\":4585:4586   */\n      0x02\n        /* \"#utility.yul\":4579:4583   */\n      dup3\n        /* \"#utility.yul\":4575:4587   */\n      div\n        /* \"#utility.yul\":4565:4587   */\n      swap1\n      pop\n        /* \"#utility.yul\":4632:4633   */\n      0x01\n        /* \"#utility.yul\":4626:4630   */\n      dup3\n        /* \"#utility.yul\":4622:4634   */\n      and\n        /* \"#utility.yul\":4653:4671   */\n      dup1\n        /* \"#utility.yul\":4643:4724   */\n      tag_114\n      jumpi\n        /* \"#utility.yul\":4709:4713   */\n      0x7f\n        /* \"#utility.yul\":4701:4707   */\n      dup3\n        /* \"#utility.yul\":4697:4714   */\n      and\n        /* \"#utility.yul\":4687:4714   */\n      swap2\n      pop\n        /* \"#utility.yul\":4643:4724   */\n    tag_114:\n        /* \"#utility.yul\":4771:4773   */\n      0x20\n        /* \"#utility.yul\":4763:4769   */\n      dup3\n        /* \"#utility.yul\":4760:4774   */\n      lt\n        /* \"#utility.yul\":4740:4758   */\n      dup2\n        /* \"#utility.yul\":4737:4775   */\n      eq\n        /* \"#utility.yul\":4734:4818   */\n      iszero\n      tag_115\n      jumpi\n        /* \"#utility.yul\":4790:4808   */\n      tag_116\n      tag_117\n      jump\t// in\n    tag_116:\n        /* \"#utility.yul\":4734:4818   */\n    tag_115:\n        /* \"#utility.yul\":4555:4824   */\n      pop\n        /* \"#utility.yul\":4504:4824   */\n      swap2\n      swap1\n      pop\n      jump\t// out\n        /* \"#utility.yul\":4830:5111   */\n    tag_91:\n        /* \"#utility.yul\":4913:4940   */\n      tag_119\n        /* \"#utility.yul\":4935:4939   */\n      dup3\n        /* \"#utility.yul\":4913:4940   */\n      tag_84\n      jump\t// in\n    tag_119:\n        /* \"#utility.yul\":4905:4911   */\n      dup2\n        /* \"#utility.yul\":4901:4941   */\n      add\n        /* \"#utility.yul\":5043:5049   */\n      dup2\n        /* \"#utility.yul\":5031:5041   */\n      dup2\n        /* \"#utility.yul\":5028:5050   */\n      lt\n        /* \"#utility.yul\":5007:5025   */\n      0xffffffffffffffff\n        /* \"#utility.yul\":4995:5005   */\n      dup3\n        /* \"#utility.yul\":4992:5026   */\n      gt\n        /* \"#utility.yul\":4989:5051   */\n      or\n        /* \"#utility.yul\":4986:5074   */\n      iszero\n      tag_120\n      jumpi\n        /* \"#utility.yul\":5054:5072   */\n      tag_121\n      tag_96\n      jump\t// in\n    tag_121:\n        /* \"#utility.yul\":4986:5074   */\n    tag_120:\n        /* \"#utility.yul\":5094:5104   */\n      dup1\n        /* \"#utility.yul\":5090:5092   */\n      0x40\n        /* \"#utility.yul\":5083:5105   */\n      mstore\n        /* \"#utility.yul\":4873:5111   */\n      pop\n        /* \"#utility.yul\":4830:5111   */\n      pop\n      pop\n      jump\t// out\n        /* \"#utility.yul\":5117:5297   */\n    tag_117:\n        /* \"#utility.yul\":5165:5242   */\n      0x4e487b7100000000000000000000000000000000000000000000000000000000\n        /* \"#utility.yul\":5162:5163   */\n      0x00\n        /* \"#utility.yul\":5155:5243   */\n      mstore\n        /* \"#utility.yul\":5262:5266   */\n      0x22\n        /* \"#utility.yul\":5259:5260   */\n      0x04\n        /* \"#utility.yul\":5252:5267   */\n      mstore\n        /* \"#utility.yul\":5286:5290   */\n      0x24\n        /* \"#utility.yul\":5283:5284   */\n      0x00\n        /* \"#utility.yul\":5276:5291   */\n      revert\n        /* \"#utility.yul\":5303:5483   */\n    tag_28:\n        /* \"#utility.yul\":5351:5428   */\n      0x4e487b7100000000000000000000000000000000000000000000000000000000\n        /* \"#utility.yul\":5348:5349   */\n      0x00\n        /* \"#utility.yul\":5341:5429   */\n      mstore\n        /* \"#utility.yul\":5448:5452   */\n      0x32\n        /* \"#utility.yul\":5445:5446   */\n      0x04\n        /* \"#utility.yul\":5438:5453   */\n      mstore\n        /* \"#utility.yul\":5472:5476   */\n      0x24\n        /* \"#utility.yul\":5469:5470   */\n      0x00\n        /* \"#utility.yul\":5462:5477   */\n      revert\n        /* \"#utility.yul\":5489:5669   */\n    tag_96:\n        /* \"#utility.yul\":5537:5614   */\n      0x4e487b7100000000000000000000000000000000000000000000000000000000\n        /* \"#utility.yul\":5534:5535   */\n      0x00\n        /* \"#utility.yul\":5527:5615   */\n      mstore\n        /* \"#utility.yul\":5634:5638   */\n      0x41\n        /* \"#utility.yul\":5631:5632   */\n      0x04\n        /* \"#utility.yul\":5624:5639   */\n      mstore\n        /* \"#utility.yul\":5658:5662   */\n      0x24\n        /* \"#utility.yul\":5655:5656   */\n      0x00\n        /* \"#utility.yul\":5648:5663   */\n      revert\n        /* \"#utility.yul\":5675:5792   */\n    tag_55:\n        /* \"#utility.yul\":5784:5785   */\n      0x00\n        /* \"#utility.yul\":5781:5782   */\n      dup1\n        /* \"#utility.yul\":5774:5786   */\n      revert\n        /* \"#utility.yul\":5798:5915   */\n    tag_44:\n        /* \"#utility.yul\":5907:5908   */\n      0x00\n        /* \"#utility.yul\":5904:5905   */\n      dup1\n        /* \"#utility.yul\":5897:5909   */\n      revert\n        /* \"#utility.yul\":5921:6038   */\n    tag_67:\n        /* \"#utility.yul\":6030:6031   */\n      0x00\n        /* \"#utility.yul\":6027:6028   */\n      dup1\n        /* \"#utility.yul\":6020:6032   */\n      revert\n        /* \"#utility.yul\":6044:6161   */\n    tag_64:\n        /* \"#utility.yul\":6153:6154   */\n      0x00\n        /* \"#utility.yul\":6150:6151   */\n      dup1\n        /* \"#utility.yul\":6143:6155   */\n      revert\n        /* \"#utility.yul\":6167:6269   */\n    tag_84:\n        /* \"#utility.yul\":6208:6214   */\n      0x00\n        /* \"#utility.yul\":6259:6261   */\n      0x1f\n        /* \"#utility.yul\":6255:6262   */\n      not\n        /* \"#utility.yul\":6250:6252   */\n      0x1f\n        /* \"#utility.yul\":6243:6248   */\n      dup4\n        /* \"#utility.yul\":6239:6253   */\n      add\n        /* \"#utility.yul\":6235:6263   */\n      and\n        /* \"#utility.yul\":6225:6263   */\n      swap1\n      pop\n        /* \"#utility.yul\":6167:6269   */\n      swap2\n      swap1\n      pop\n      jump\t// out\n        /* \"#utility.yul\":6275:6397   */\n    tag_50:\n        /* \"#utility.yul\":6348:6372   */\n      tag_131\n        /* \"#utility.yul\":6366:6371   */\n      dup2\n        /* \"#utility.yul\":6348:6372   */\n      tag_100\n      jump\t// in\n    tag_131:\n        /* \"#utility.yul\":6341:6346   */\n      dup2\n        /* \"#utility.yul\":6338:6373   */\n      eq\n        /* \"#utility.yul\":6328:6391   */\n      tag_132\n      jumpi\n        /* \"#utility.yul\":6387:6388   */\n      0x00\n        /* \"#utility.yul\":6384:6385   */\n      dup1\n        /* \"#utility.yul\":6377:6389   */\n      revert\n        /* \"#utility.yul\":6328:6391   */\n    tag_132:\n        /* \"#utility.yul\":6275:6397   */\n      pop\n      jump\t// out\n        /* \"#utility.yul\":6403:6525   */\n    tag_60:\n        /* \"#utility.yul\":6476:6500   */\n      tag_134\n        /* \"#utility.yul\":6494:6499   */\n      dup2\n        /* \"#utility.yul\":6476:6500   */\n      tag_105\n      jump\t// in\n    tag_134:\n        /* \"#utility.yul\":6469:6474   */\n      dup2\n        /* \"#utility.yul\":6466:6501   */\n      eq\n        /* \"#utility.yul\":6456:6519   */\n      tag_135\n      jumpi\n        /* \"#utility.yul\":6515:6516   */\n      0x00\n        /* \"#utility.yul\":6512:6513   */\n      dup1\n        /* \"#utility.yul\":6505:6517   */\n      revert\n        /* \"#utility.yul\":6456:6519   */\n    tag_135:\n        /* \"#utility.yul\":6403:6525   */\n      pop\n      jump\t// out\n\n    auxdata: 0xa2646970667358221220053289dcab08e1c6fef66928921108e76bd01a61108a3a727b124e581e2966e564736f6c63430008070033\n}\n",
				"bytecode": {
					"linkReferences": {},
					"object": "608060405260405180608001604052806040518060400160405280600381526020017f415043000000000000000000000000000000000000000000000000000000000081525081526020016040518060400160405280600381526020017f504450000000000000000000000000000000000000000000000000000000000081525081526020016040518060400160405280600281526020017f4c5000000000000000000000000000000000000000000000000000000000000081525081526020016040518060400160405280600481526020017f4e4e505000000000000000000000000000000000000000000000000000000000815250815250600190600461010992919061011c565b5034801561011657600080fd5b506102e4565b82805482825590600052602060002090810192821561016b579160200282015b8281111561016a57825182908051906020019061015a92919061017c565b509160200191906001019061013c565b5b5090506101789190610202565b5090565b82805461018890610283565b90600052602060002090601f0160209004810192826101aa57600085556101f1565b82601f106101c357805160ff19168380011785556101f1565b828001600101855582156101f1579182015b828111156101f05782518255916020019190600101906101d5565b5b5090506101fe9190610226565b5090565b5b8082111561022257600081816102199190610243565b50600101610203565b5090565b5b8082111561023f576000816000905550600101610227565b5090565b50805461024f90610283565b6000825580601f106102615750610280565b601f01602090049060005260206000209081019061027f9190610226565b5b50565b6000600282049050600182168061029b57607f821691505b602082108114156102af576102ae6102b5565b5b50919050565b7f4e487b7100000000000000000000000000000000000000000000000000000000600052602260045260246000fd5b610662806102f36000396000f3fe608060405234801561001057600080fd5b50600436106100365760003560e01c8063314fd68f1461003b578063d59d2a581461006b575b600080fd5b61005560048036038101906100509190610371565b610087565b60405161006291906103d7565b60405180910390f35b61008560048036038101906100809190610302565b610133565b005b6001818154811061009757600080fd5b9060005260206000200160009150905080546100b2906104e9565b80601f01602080910402602001604051908101604052809291908181526020018280546100de906104e9565b801561012b5780601f106101005761010080835404028352916020019161012b565b820191906000526020600020905b81548152906001019060200180831161010e57829003601f168201915b505050505081565b61013b610231565b83816000018190525082816020019073ffffffffffffffffffffffffffffffffffffffff16908173ffffffffffffffffffffffffffffffffffffffff1681525050600182815481106101905761018f61057b565b5b9060005260206000200180546101a5906104e9565b80601f01602080910402602001604051908101604052809291908181526020018280546101d1906104e9565b801561021e5780601f106101f35761010080835404028352916020019161021e565b820191906000526020600020905b81548152906001019060200180831161020157829003601f168201915b5050505050816040018190525050505050565b604051806060016040528060608152602001600073ffffffffffffffffffffffffffffffffffffffff168152602001606081525090565b600061027b6102768461041e565b6103f9565b905082815260208101848484011115610297576102966105de565b5b6102a28482856104a7565b509392505050565b6000813590506102b9816105fe565b92915050565b600082601f8301126102d4576102d36105d9565b5b81356102e4848260208601610268565b91505092915050565b6000813590506102fc81610615565b92915050565b60008060006060848603121561031b5761031a6105e8565b5b600084013567ffffffffffffffff811115610339576103386105e3565b5b610345868287016102bf565b9350506020610356868287016102aa565b9250506040610367868287016102ed565b9150509250925092565b600060208284031215610387576103866105e8565b5b6000610395848285016102ed565b91505092915050565b60006103a98261044f565b6103b3818561045a565b93506103c38185602086016104b6565b6103cc816105ed565b840191505092915050565b600060208201905081810360008301526103f1818461039e565b905092915050565b6000610403610414565b905061040f828261051b565b919050565b6000604051905090565b600067ffffffffffffffff821115610439576104386105aa565b5b610442826105ed565b9050602081019050919050565b600081519050919050565b600082825260208201905092915050565b60006104768261047d565b9050919050565b600073ffffffffffffffffffffffffffffffffffffffff82169050919050565b6000819050919050565b82818337600083830152505050565b60005b838110156104d45780820151818401526020810190506104b9565b838111156104e3576000848401525b50505050565b6000600282049050600182168061050157607f821691505b602082108114156105155761051461054c565b5b50919050565b610524826105ed565b810181811067ffffffffffffffff82111715610543576105426105aa565b5b80604052505050565b7f4e487b7100000000000000000000000000000000000000000000000000000000600052602260045260246000fd5b7f4e487b7100000000000000000000000000000000000000000000000000000000600052603260045260246000fd5b7f4e487b7100000000000000000000000000000000000000000000000000000000600052604160045260246000fd5b600080fd5b600080fd5b600080fd5b600080fd5b6000601f19601f8301169050919050565b6106078161046b565b811461061257600080fd5b50565b61061e8161049d565b811461062957600080fd5b5056fea2646970667358221220053289dcab08e1c6fef66928921108e76bd01a61108a3a727b124e581e2966e564736f6c63430008070033",
					"opcodes": "PUSH1 0x80 PUSH1 0x40 MSTORE PUSH1 0x40 MLOAD DUP1 PUSH1 0x80 ADD PUSH1 0x40 MSTORE DUP1 PUSH1 0x40 MLOAD DUP1 PUSH1 0x40 ADD PUSH1 0x40 MSTORE DUP1 PUSH1 0x3 DUP2 MSTORE PUSH1 0x20 ADD PUSH32 0x4150430000000000000000000000000000000000000000000000000000000000 DUP2 MSTORE POP DUP2 MSTORE PUSH1 0x20 ADD PUSH1 0x40 MLOAD DUP1 PUSH1 0x40 ADD PUSH1 0x40 MSTORE DUP1 PUSH1 0x3 DUP2 MSTORE PUSH1 0x20 ADD PUSH32 0x5044500000000000000000000000000000000000000000000000000000000000 DUP2 MSTORE POP DUP2 MSTORE PUSH1 0x20 ADD PUSH1 0x40 MLOAD DUP1 PUSH1 0x40 ADD PUSH1 0x40 MSTORE DUP1 PUSH1 0x2 DUP2 MSTORE PUSH1 0x20 ADD PUSH32 0x4C50000000000000000000000000000000000000000000000000000000000000 DUP2 MSTORE POP DUP2 MSTORE PUSH1 0x20 ADD PUSH1 0x40 MLOAD DUP1 PUSH1 0x40 ADD PUSH1 0x40 MSTORE DUP1 PUSH1 0x4 DUP2 MSTORE PUSH1 0x20 ADD PUSH32 0x4E4E505000000000000000000000000000000000000000000000000000000000 DUP2 MSTORE POP DUP2 MSTORE POP PUSH1 0x1 SWAP1 PUSH1 0x4 PUSH2 0x109 SWAP3 SWAP2 SWAP1 PUSH2 0x11C JUMP JUMPDEST POP CALLVALUE DUP1 ISZERO PUSH2 0x116 JUMPI PUSH1 0x0 DUP1 REVERT JUMPDEST POP PUSH2 0x2E4 JUMP JUMPDEST DUP3 DUP1 SLOAD DUP3 DUP3 SSTORE SWAP1 PUSH1 0x0 MSTORE PUSH1 0x20 PUSH1 0x0 KECCAK256 SWAP1 DUP2 ADD SWAP3 DUP3 ISZERO PUSH2 0x16B JUMPI SWAP2 PUSH1 0x20 MUL DUP3 ADD JUMPDEST DUP3 DUP2 GT ISZERO PUSH2 0x16A JUMPI DUP3 MLOAD DUP3 SWAP1 DUP1 MLOAD SWAP1 PUSH1 0x20 ADD SWAP1 PUSH2 0x15A SWAP3 SWAP2 SWAP1 PUSH2 0x17C JUMP JUMPDEST POP SWAP2 PUSH1 0x20 ADD SWAP2 SWAP1 PUSH1 0x1 ADD SWAP1 PUSH2 0x13C JUMP JUMPDEST JUMPDEST POP SWAP1 POP PUSH2 0x178 SWAP2 SWAP1 PUSH2 0x202 JUMP JUMPDEST POP SWAP1 JUMP JUMPDEST DUP3 DUP1 SLOAD PUSH2 0x188 SWAP1 PUSH2 0x283 JUMP JUMPDEST SWAP1 PUSH1 0x0 MSTORE PUSH1 0x20 PUSH1 0x0 KECCAK256 SWAP1 PUSH1 0x1F ADD PUSH1 0x20 SWAP1 DIV DUP2 ADD SWAP3 DUP3 PUSH2 0x1AA JUMPI PUSH1 0x0 DUP6 SSTORE PUSH2 0x1F1 JUMP JUMPDEST DUP3 PUSH1 0x1F LT PUSH2 0x1C3 JUMPI DUP1 MLOAD PUSH1 0xFF NOT AND DUP4 DUP1 ADD OR DUP6 SSTORE PUSH2 0x1F1 JUMP JUMPDEST DUP3 DUP1 ADD PUSH1 0x1 ADD DUP6 SSTORE DUP3 ISZERO PUSH2 0x1F1 JUMPI SWAP2 DUP3 ADD JUMPDEST DUP3 DUP2 GT ISZERO PUSH2 0x1F0 JUMPI DUP3 MLOAD DUP3 SSTORE SWAP2 PUSH1 0x20 ADD SWAP2 SWAP1 PUSH1 0x1 ADD SWAP1 PUSH2 0x1D5 JUMP JUMPDEST JUMPDEST POP SWAP1 POP PUSH2 0x1FE SWAP2 SWAP1 PUSH2 0x226 JUMP JUMPDEST POP SWAP1 JUMP JUMPDEST JUMPDEST DUP1 DUP3 GT ISZERO PUSH2 0x222 JUMPI PUSH1 0x0 DUP2 DUP2 PUSH2 0x219 SWAP2 SWAP1 PUSH2 0x243 JUMP JUMPDEST POP PUSH1 0x1 ADD PUSH2 0x203 JUMP JUMPDEST POP SWAP1 JUMP JUMPDEST JUMPDEST DUP1 DUP3 GT ISZERO PUSH2 0x23F JUMPI PUSH1 0x0 DUP2 PUSH1 0x0 SWAP1 SSTORE POP PUSH1 0x1 ADD PUSH2 0x227 JUMP JUMPDEST POP SWAP1 JUMP JUMPDEST POP DUP1 SLOAD PUSH2 0x24F SWAP1 PUSH2 0x283 JUMP JUMPDEST PUSH1 0x0 DUP3 SSTORE DUP1 PUSH1 0x1F LT PUSH2 0x261 JUMPI POP PUSH2 0x280 JUMP JUMPDEST PUSH1 0x1F ADD PUSH1 0x20 SWAP1 DIV SWAP1 PUSH1 0x0 MSTORE PUSH1 0x20 PUSH1 0x0 KECCAK256 SWAP1 DUP2 ADD SWAP1 PUSH2 0x27F SWAP2 SWAP1 PUSH2 0x226 JUMP JUMPDEST JUMPDEST POP JUMP JUMPDEST PUSH1 0x0 PUSH1 0x2 DUP3 DIV SWAP1 POP PUSH1 0x1 DUP3 AND DUP1 PUSH2 0x29B JUMPI PUSH1 0x7F DUP3 AND SWAP2 POP JUMPDEST PUSH1 0x20 DUP3 LT DUP2 EQ ISZERO PUSH2 0x2AF JUMPI PUSH2 0x2AE PUSH2 0x2B5 JUMP JUMPDEST JUMPDEST POP SWAP2 SWAP1 POP JUMP JUMPDEST PUSH32 0x4E487B7100000000000000000000000000000000000000000000000000000000 PUSH1 0x0 MSTORE PUSH1 0x22 PUSH1 0x4 MSTORE PUSH1 0x24 PUSH1 0x0 REVERT JUMPDEST PUSH2 0x662 DUP1 PUSH2 0x2F3 PUSH1 0x0 CODECOPY PUSH1 0x0 RETURN INVALID PUSH1 0x80 PUSH1 0x40 MSTORE CALLVALUE DUP1 ISZERO PUSH2 0x10 JUMPI PUSH1 0x0 DUP1 REVERT JUMPDEST POP PUSH1 0x4 CALLDATASIZE LT PUSH2 0x36 JUMPI PUSH1 0x0 CALLDATALOAD PUSH1 0xE0 SHR DUP1 PUSH4 0x314FD68F EQ PUSH2 0x3B JUMPI DUP1 PUSH4 0xD59D2A58 EQ PUSH2 0x6B JUMPI JUMPDEST PUSH1 0x0 DUP1 REVERT JUMPDEST PUSH2 0x55 PUSH1 0x4 DUP1 CALLDATASIZE SUB DUP2 ADD SWAP1 PUSH2 0x50 SWAP2 SWAP1 PUSH2 0x371 JUMP JUMPDEST PUSH2 0x87 JUMP JUMPDEST PUSH1 0x40 MLOAD PUSH2 0x62 SWAP2 SWAP1 PUSH2 0x3D7 JUMP JUMPDEST PUSH1 0x40 MLOAD DUP1 SWAP2 SUB SWAP1 RETURN JUMPDEST PUSH2 0x85 PUSH1 0x4 DUP1 CALLDATASIZE SUB DUP2 ADD SWAP1 PUSH2 0x80 SWAP2 SWAP1 PUSH2 0x302 JUMP JUMPDEST PUSH2 0x133 JUMP JUMPDEST STOP JUMPDEST PUSH1 0x1 DUP2 DUP2 SLOAD DUP2 LT PUSH2 0x97 JUMPI PUSH1 0x0 DUP1 REVERT JUMPDEST SWAP1 PUSH1 0x0 MSTORE PUSH1 0x20 PUSH1 0x0 KECCAK256 ADD PUSH1 0x0 SWAP2 POP SWAP1 POP DUP1 SLOAD PUSH2 0xB2 SWAP1 PUSH2 0x4E9 JUMP JUMPDEST DUP1 PUSH1 0x1F ADD PUSH1 0x20 DUP1 SWAP2 DIV MUL PUSH1 0x20 ADD PUSH1 0x40 MLOAD SWAP1 DUP2 ADD PUSH1 0x40 MSTORE DUP1 SWAP3 SWAP2 SWAP1 DUP2 DUP2 MSTORE PUSH1 0x20 ADD DUP3 DUP1 SLOAD PUSH2 0xDE SWAP1 PUSH2 0x4E9 JUMP JUMPDEST DUP1 ISZERO PUSH2 0x12B JUMPI DUP1 PUSH1 0x1F LT PUSH2 0x100 JUMPI PUSH2 0x100 DUP1 DUP4 SLOAD DIV MUL DUP4 MSTORE SWAP2 PUSH1 0x20 ADD SWAP2 PUSH2 0x12B JUMP JUMPDEST DUP3 ADD SWAP2 SWAP1 PUSH1 0x0 MSTORE PUSH1 0x20 PUSH1 0x0 KECCAK256 SWAP1 JUMPDEST DUP2 SLOAD DUP2 MSTORE SWAP1 PUSH1 0x1 ADD SWAP1 PUSH1 0x20 ADD DUP1 DUP4 GT PUSH2 0x10E JUMPI DUP3 SWAP1 SUB PUSH1 0x1F AND DUP3 ADD SWAP2 JUMPDEST POP POP POP POP POP DUP2 JUMP JUMPDEST PUSH2 0x13B PUSH2 0x231 JUMP JUMPDEST DUP4 DUP2 PUSH1 0x0 ADD DUP2 SWAP1 MSTORE POP DUP3 DUP2 PUSH1 0x20 ADD SWAP1 PUSH20 0xFFFFFFFFFFFFFFFFFFFFFFFFFFFFFFFFFFFFFFFF AND SWAP1 DUP2 PUSH20 0xFFFFFFFFFFFFFFFFFFFFFFFFFFFFFFFFFFFFFFFF AND DUP2 MSTORE POP POP PUSH1 0x1 DUP3 DUP2 SLOAD DUP2 LT PUSH2 0x190 JUMPI PUSH2 0x18F PUSH2 0x57B JUMP JUMPDEST JUMPDEST SWAP1 PUSH1 0x0 MSTORE PUSH1 0x20 PUSH1 0x0 KECCAK256 ADD DUP1 SLOAD PUSH2 0x1A5 SWAP1 PUSH2 0x4E9 JUMP JUMPDEST DUP1 PUSH1 0x1F ADD PUSH1 0x20 DUP1 SWAP2 DIV MUL PUSH1 0x20 ADD PUSH1 0x40 MLOAD SWAP1 DUP2 ADD PUSH1 0x40 MSTORE DUP1 SWAP3 SWAP2 SWAP1 DUP2 DUP2 MSTORE PUSH1 0x20 ADD DUP3 DUP1 SLOAD PUSH2 0x1D1 SWAP1 PUSH2 0x4E9 JUMP JUMPDEST DUP1 ISZERO PUSH2 0x21E JUMPI DUP1 PUSH1 0x1F LT PUSH2 0x1F3 JUMPI PUSH2 0x100 DUP1 DUP4 SLOAD DIV MUL DUP4 MSTORE SWAP2 PUSH1 0x20 ADD SWAP2 PUSH2 0x21E JUMP JUMPDEST DUP3 ADD SWAP2 SWAP1 PUSH1 0x0 MSTORE PUSH1 0x20 PUSH1 0x0 KECCAK256 SWAP1 JUMPDEST DUP2 SLOAD DUP2 MSTORE SWAP1 PUSH1 0x1 ADD SWAP1 PUSH1 0x20 ADD DUP1 DUP4 GT PUSH2 0x201 JUMPI DUP3 SWAP1 SUB PUSH1 0x1F AND DUP3 ADD SWAP2 JUMPDEST POP POP POP POP POP DUP2 PUSH1 0x40 ADD DUP2 SWAP1 MSTORE POP POP POP POP POP JUMP JUMPDEST PUSH1 0x40 MLOAD DUP1 PUSH1 0x60 ADD PUSH1 0x40 MSTORE DUP1 PUSH1 0x60 DUP2 MSTORE PUSH1 0x20 ADD PUSH1 0x0 PUSH20 0xFFFFFFFFFFFFFFFFFFFFFFFFFFFFFFFFFFFFFFFF AND DUP2 MSTORE PUSH1 0x20 ADD PUSH1 0x60 DUP2 MSTORE POP SWAP1 JUMP JUMPDEST PUSH1 0x0 PUSH2 0x27B PUSH2 0x276 DUP5 PUSH2 0x41E JUMP JUMPDEST PUSH2 0x3F9 JUMP JUMPDEST SWAP1 POP DUP3 DUP2 MSTORE PUSH1 0x20 DUP2 ADD DUP5 DUP5 DUP5 ADD GT ISZERO PUSH2 0x297 JUMPI PUSH2 0x296 PUSH2 0x5DE JUMP JUMPDEST JUMPDEST PUSH2 0x2A2 DUP5 DUP3 DUP6 PUSH2 0x4A7 JUMP JUMPDEST POP SWAP4 SWAP3 POP POP POP JUMP JUMPDEST PUSH1 0x0 DUP2 CALLDATALOAD SWAP1 POP PUSH2 0x2B9 DUP2 PUSH2 0x5FE JUMP JUMPDEST SWAP3 SWAP2 POP POP JUMP JUMPDEST PUSH1 0x0 DUP3 PUSH1 0x1F DUP4 ADD SLT PUSH2 0x2D4 JUMPI PUSH2 0x2D3 PUSH2 0x5D9 JUMP JUMPDEST JUMPDEST DUP2 CALLDATALOAD PUSH2 0x2E4 DUP5 DUP3 PUSH1 0x20 DUP7 ADD PUSH2 0x268 JUMP JUMPDEST SWAP2 POP POP SWAP3 SWAP2 POP POP JUMP JUMPDEST PUSH1 0x0 DUP2 CALLDATALOAD SWAP1 POP PUSH2 0x2FC DUP2 PUSH2 0x615 JUMP JUMPDEST SWAP3 SWAP2 POP POP JUMP JUMPDEST PUSH1 0x0 DUP1 PUSH1 0x0 PUSH1 0x60 DUP5 DUP7 SUB SLT ISZERO PUSH2 0x31B JUMPI PUSH2 0x31A PUSH2 0x5E8 JUMP JUMPDEST JUMPDEST PUSH1 0x0 DUP5 ADD CALLDATALOAD PUSH8 0xFFFFFFFFFFFFFFFF DUP2 GT ISZERO PUSH2 0x339 JUMPI PUSH2 0x338 PUSH2 0x5E3 JUMP JUMPDEST JUMPDEST PUSH2 0x345 DUP7 DUP3 DUP8 ADD PUSH2 0x2BF JUMP JUMPDEST SWAP4 POP POP PUSH1 0x20 PUSH2 0x356 DUP7 DUP3 DUP8 ADD PUSH2 0x2AA JUMP JUMPDEST SWAP3 POP POP PUSH1 0x40 PUSH2 0x367 DUP7 DUP3 DUP8 ADD PUSH2 0x2ED JUMP JUMPDEST SWAP2 POP POP SWAP3 POP SWAP3 POP SWAP3 JUMP JUMPDEST PUSH1 0x0 PUSH1 0x20 DUP3 DUP5 SUB SLT ISZERO PUSH2 0x387 JUMPI PUSH2 0x386 PUSH2 0x5E8 JUMP JUMPDEST JUMPDEST PUSH1 0x0 PUSH2 0x395 DUP5 DUP3 DUP6 ADD PUSH2 0x2ED JUMP JUMPDEST SWAP2 POP POP SWAP3 SWAP2 POP POP JUMP JUMPDEST PUSH1 0x0 PUSH2 0x3A9 DUP3 PUSH2 0x44F JUMP JUMPDEST PUSH2 0x3B3 DUP2 DUP6 PUSH2 0x45A JUMP JUMPDEST SWAP4 POP PUSH2 0x3C3 DUP2 DUP6 PUSH1 0x20 DUP7 ADD PUSH2 0x4B6 JUMP JUMPDEST PUSH2 0x3CC DUP2 PUSH2 0x5ED JUMP JUMPDEST DUP5 ADD SWAP2 POP POP SWAP3 SWAP2 POP POP JUMP JUMPDEST PUSH1 0x0 PUSH1 0x20 DUP3 ADD SWAP1 POP DUP2 DUP2 SUB PUSH1 0x0 DUP4 ADD MSTORE PUSH2 0x3F1 DUP2 DUP5 PUSH2 0x39E JUMP JUMPDEST SWAP1 POP SWAP3 SWAP2 POP POP JUMP JUMPDEST PUSH1 0x0 PUSH2 0x403 PUSH2 0x414 JUMP JUMPDEST SWAP1 POP PUSH2 0x40F DUP3 DUP3 PUSH2 0x51B JUMP JUMPDEST SWAP2 SWAP1 POP JUMP JUMPDEST PUSH1 0x0 PUSH1 0x40 MLOAD SWAP1 POP SWAP1 JUMP JUMPDEST PUSH1 0x0 PUSH8 0xFFFFFFFFFFFFFFFF DUP3 GT ISZERO PUSH2 0x439 JUMPI PUSH2 0x438 PUSH2 0x5AA JUMP JUMPDEST JUMPDEST PUSH2 0x442 DUP3 PUSH2 0x5ED JUMP JUMPDEST SWAP1 POP PUSH1 0x20 DUP2 ADD SWAP1 POP SWAP2 SWAP1 POP JUMP JUMPDEST PUSH1 0x0 DUP2 MLOAD SWAP1 POP SWAP2 SWAP1 POP JUMP JUMPDEST PUSH1 0x0 DUP3 DUP3 MSTORE PUSH1 0x20 DUP3 ADD SWAP1 POP SWAP3 SWAP2 POP POP JUMP JUMPDEST PUSH1 0x0 PUSH2 0x476 DUP3 PUSH2 0x47D JUMP JUMPDEST SWAP1 POP SWAP2 SWAP1 POP JUMP JUMPDEST PUSH1 0x0 PUSH20 0xFFFFFFFFFFFFFFFFFFFFFFFFFFFFFFFFFFFFFFFF DUP3 AND SWAP1 POP SWAP2 SWAP1 POP JUMP JUMPDEST PUSH1 0x0 DUP2 SWAP1 POP SWAP2 SWAP1 POP JUMP JUMPDEST DUP3 DUP2 DUP4 CALLDATACOPY PUSH1 0x0 DUP4 DUP4 ADD MSTORE POP POP POP JUMP JUMPDEST PUSH1 0x0 JUMPDEST DUP4 DUP2 LT ISZERO PUSH2 0x4D4 JUMPI DUP1 DUP3 ADD MLOAD DUP2 DUP5 ADD MSTORE PUSH1 0x20 DUP2 ADD SWAP1 POP PUSH2 0x4B9 JUMP JUMPDEST DUP4 DUP2 GT ISZERO PUSH2 0x4E3 JUMPI PUSH1 0x0 DUP5 DUP5 ADD MSTORE JUMPDEST POP POP POP POP JUMP JUMPDEST PUSH1 0x0 PUSH1 0x2 DUP3 DIV SWAP1 POP PUSH1 0x1 DUP3 AND DUP1 PUSH2 0x501 JUMPI PUSH1 0x7F DUP3 AND SWAP2 POP JUMPDEST PUSH1 0x20 DUP3 LT DUP2 EQ ISZERO PUSH2 0x515 JUMPI PUSH2 0x514 PUSH2 0x54C JUMP JUMPDEST JUMPDEST POP SWAP2 SWAP1 POP JUMP JUMPDEST PUSH2 0x524 DUP3 PUSH2 0x5ED JUMP JUMPDEST DUP2 ADD DUP2 DUP2 LT PUSH8 0xFFFFFFFFFFFFFFFF DUP3 GT OR ISZERO PUSH2 0x543 JUMPI PUSH2 0x542 PUSH2 0x5AA JUMP JUMPDEST JUMPDEST DUP1 PUSH1 0x40 MSTORE POP POP POP JUMP JUMPDEST PUSH32 0x4E487B7100000000000000000000000000000000000000000000000000000000 PUSH1 0x0 MSTORE PUSH1 0x22 PUSH1 0x4 MSTORE PUSH1 0x24 PUSH1 0x0 REVERT JUMPDEST PUSH32 0x4E487B7100000000000000000000000000000000000000000000000000000000 PUSH1 0x0 MSTORE PUSH1 0x32 PUSH1 0x4 MSTORE PUSH1 0x24 PUSH1 0x0 REVERT JUMPDEST PUSH32 0x4E487B7100000000000000000000000000000000000000000000000000000000 PUSH1 0x0 MSTORE PUSH1 0x41 PUSH1 0x4 MSTORE PUSH1 0x24 PUSH1 0x0 REVERT JUMPDEST PUSH1 0x0 DUP1 REVERT JUMPDEST PUSH1 0x0 DUP1 REVERT JUMPDEST PUSH1 0x0 DUP1 REVERT JUMPDEST PUSH1 0x0 DUP1 REVERT JUMPDEST PUSH1 0x0 PUSH1 0x1F NOT PUSH1 0x1F DUP4 ADD AND SWAP1 POP SWAP2 SWAP1 POP JUMP JUMPDEST PUSH2 0x607 DUP2 PUSH2 0x46B JUMP JUMPDEST DUP2 EQ PUSH2 0x612 JUMPI PUSH1 0x0 DUP1 REVERT JUMPDEST POP JUMP JUMPDEST PUSH2 0x61E DUP2 PUSH2 0x49D JUMP JUMPDEST DUP2 EQ PUSH2 0x629 JUMPI PUSH1 0x0 DUP1 REVERT JUMPDEST POP JUMP INVALID LOG2 PUSH5 0x6970667358 0x22 SLT KECCAK256 SDIV ORIGIN DUP10 0xDC 0xAB ADDMOD 0xE1 0xC6 INVALID 0xF6 PUSH10 0x28921108E76BD01A6110 DUP11 GASPRICE PUSH19 0x7B124E581E2966E564736F6C63430008070033 "
				},
				"gasEstimates": {
					"creation": {
						"codeDepositCost": "326800",
						"executionCost": "infinite",
						"totalCost": "infinite"
					},
					"external": {
						"createCandidate(string,address,uint256)": "infinite",
						"party(uint256)": "infinite"
					}
				},
				"methodIdentifiers": {
					"createCandidate(string,address,uint256)": "d59d2a58",
					"party(uint256)": "314fd68f"
				}
			},
			"storageLayout": {
				"storage": [
					{
						"astId": 4,
						"contract": "contracts/Vote.sol:Vote",
						"label": "voteFee",
						"offset": 0,
						"slot": "0",
						"type": "t_uint256"
					},
					{
						"astId": 12,
						"contract": "contracts/Vote.sol:Vote",
						"label": "party",
						"offset": 0,
						"slot": "1",
						"type": "t_array(t_string_storage)dyn_storage"
					}
				],
				"types": {
					"t_array(t_string_storage)dyn_storage": {
						"base": "t_string_storage",
						"encoding": "dynamic_array",
						"label": "string[]",
						"numberOfBytes": "32"
					},
					"t_string_storage": {
						"encoding": "bytes",
						"label": "string",
						"numberOfBytes": "32"
					},
					"t_uint256": {
						"encoding": "inplace",
						"label": "uint256",
						"numberOfBytes": "32"
					}
				}
			},
			"userdoc": {
				"kind": "user",
				"methods": {},
				"version": 1
			}
		}
	}
}