{
	"contracts/Vote.sol": {
		"Vote": {
			"abi": [
				{
					"inputs": [],
					"stateMutability": "nonpayable",
					"type": "constructor"
				},
				{
					"anonymous": false,
					"inputs": [
						{
							"indexed": true,
							"internalType": "address",
							"name": "previousOwner",
							"type": "address"
						},
						{
							"indexed": true,
							"internalType": "address",
							"name": "newOwner",
							"type": "address"
						}
					],
					"name": "OwnershipTransferred",
					"type": "event"
				},
				{
					"anonymous": false,
					"inputs": [
						{
							"indexed": true,
							"internalType": "bytes32",
							"name": "role",
							"type": "bytes32"
						},
						{
							"indexed": true,
							"internalType": "bytes32",
							"name": "previousAdminRole",
							"type": "bytes32"
						},
						{
							"indexed": true,
							"internalType": "bytes32",
							"name": "newAdminRole",
							"type": "bytes32"
						}
					],
					"name": "RoleAdminChanged",
					"type": "event"
				},
				{
					"anonymous": false,
					"inputs": [
						{
							"indexed": true,
							"internalType": "bytes32",
							"name": "role",
							"type": "bytes32"
						},
						{
							"indexed": true,
							"internalType": "address",
							"name": "account",
							"type": "address"
						},
						{
							"indexed": true,
							"internalType": "address",
							"name": "sender",
							"type": "address"
						}
					],
					"name": "RoleGranted",
					"type": "event"
				},
				{
					"anonymous": false,
					"inputs": [
						{
							"indexed": true,
							"internalType": "bytes32",
							"name": "role",
							"type": "bytes32"
						},
						{
							"indexed": true,
							"internalType": "address",
							"name": "account",
							"type": "address"
						},
						{
							"indexed": true,
							"internalType": "address",
							"name": "sender",
							"type": "address"
						}
					],
					"name": "RoleRevoked",
					"type": "event"
				},
				{
					"inputs": [
						{
							"internalType": "uint256",
							"name": "",
							"type": "uint256"
						}
					],
					"name": "Candidates",
					"outputs": [
						{
							"internalType": "string",
							"name": "name",
							"type": "string"
						},
						{
							"internalType": "address",
							"name": "addr",
							"type": "address"
						},
						{
							"internalType": "string",
							"name": "party",
							"type": "string"
						}
					],
					"stateMutability": "view",
					"type": "function"
				},
				{
					"inputs": [],
					"name": "DEFAULT_ADMIN_ROLE",
					"outputs": [
						{
							"internalType": "bytes32",
							"name": "",
							"type": "bytes32"
						}
					],
					"stateMutability": "view",
					"type": "function"
				},
				{
					"inputs": [],
					"name": "INEC_EXEC_ROLE",
					"outputs": [
						{
							"internalType": "bytes32",
							"name": "",
							"type": "bytes32"
						}
					],
					"stateMutability": "view",
					"type": "function"
				},
				{
					"inputs": [],
					"name": "VOTER_ROLE",
					"outputs": [
						{
							"internalType": "bytes32",
							"name": "",
							"type": "bytes32"
						}
					],
					"stateMutability": "view",
					"type": "function"
				},
				{
					"inputs": [
						{
							"internalType": "uint256",
							"name": "",
							"type": "uint256"
						}
					],
					"name": "Voters",
					"outputs": [
						{
							"internalType": "address",
							"name": "addr",
							"type": "address"
						},
						{
							"internalType": "uint256",
							"name": "nin",
							"type": "uint256"
						},
						{
							"internalType": "uint256",
							"name": "partyNum",
							"type": "uint256"
						},
						{
							"internalType": "bool",
							"name": "hasVoted",
							"type": "bool"
						}
					],
					"stateMutability": "view",
					"type": "function"
				},
				{
					"inputs": [
						{
							"internalType": "uint256",
							"name": "partyID",
							"type": "uint256"
						},
						{
							"internalType": "uint256",
							"name": "electionID",
							"type": "uint256"
						}
					],
					"name": "Voting",
					"outputs": [],
					"stateMutability": "nonpayable",
					"type": "function"
				},
				{
					"inputs": [
						{
							"internalType": "string",
							"name": "name",
							"type": "string"
						},
						{
							"internalType": "address",
							"name": "candAddress",
							"type": "address"
						},
						{
							"internalType": "uint256",
							"name": "partyNum",
							"type": "uint256"
						}
					],
					"name": "createCandidate",
					"outputs": [],
					"stateMutability": "nonpayable",
					"type": "function"
				},
				{
					"inputs": [
						{
							"internalType": "address[]",
							"name": "_candidateNum",
							"type": "address[]"
						},
						{
							"internalType": "uint256",
							"name": "_date",
							"type": "uint256"
						},
						{
							"internalType": "uint256",
							"name": "_duration",
							"type": "uint256"
						}
					],
					"name": "createElection",
					"outputs": [],
					"stateMutability": "nonpayable",
					"type": "function"
				},
				{
					"inputs": [
						{
							"internalType": "address",
							"name": "_account",
							"type": "address"
						}
					],
					"name": "createInecExec",
					"outputs": [],
					"stateMutability": "nonpayable",
					"type": "function"
				},
				{
					"inputs": [
						{
							"internalType": "bytes32",
							"name": "role",
							"type": "bytes32"
						}
					],
					"name": "getRoleAdmin",
					"outputs": [
						{
							"internalType": "bytes32",
							"name": "",
							"type": "bytes32"
						}
					],
					"stateMutability": "view",
					"type": "function"
				},
				{
					"inputs": [
						{
							"internalType": "bytes32",
							"name": "role",
							"type": "bytes32"
						},
						{
							"internalType": "address",
							"name": "account",
							"type": "address"
						}
					],
					"name": "grantRole",
					"outputs": [],
					"stateMutability": "nonpayable",
					"type": "function"
				},
				{
					"inputs": [
						{
							"internalType": "bytes32",
							"name": "role",
							"type": "bytes32"
						},
						{
							"internalType": "address",
							"name": "account",
							"type": "address"
						}
					],
					"name": "hasRole",
					"outputs": [
						{
							"internalType": "bool",
							"name": "",
							"type": "bool"
						}
					],
					"stateMutability": "view",
					"type": "function"
				},
				{
					"inputs": [],
					"name": "owner",
					"outputs": [
						{
							"internalType": "address",
							"name": "",
							"type": "address"
						}
					],
					"stateMutability": "view",
					"type": "function"
				},
				{
					"inputs": [
						{
							"internalType": "uint256",
							"name": "",
							"type": "uint256"
						}
					],
					"name": "party",
					"outputs": [
						{
							"internalType": "string",
							"name": "",
							"type": "string"
						}
					],
					"stateMutability": "view",
					"type": "function"
				},
				{
					"inputs": [
						{
							"internalType": "uint256",
							"name": "_nin",
							"type": "uint256"
						}
					],
					"name": "regVoter",
					"outputs": [],
					"stateMutability": "nonpayable",
					"type": "function"
				},
				{
					"inputs": [],
					"name": "renounceOwnership",
					"outputs": [],
					"stateMutability": "nonpayable",
					"type": "function"
				},
				{
					"inputs": [
						{
							"internalType": "bytes32",
							"name": "role",
							"type": "bytes32"
						},
						{
							"internalType": "address",
							"name": "account",
							"type": "address"
						}
					],
					"name": "renounceRole",
					"outputs": [],
					"stateMutability": "nonpayable",
					"type": "function"
				},
				{
					"inputs": [
						{
							"internalType": "bytes32",
							"name": "role",
							"type": "bytes32"
						},
						{
							"internalType": "address",
							"name": "account",
							"type": "address"
						}
					],
					"name": "revokeRole",
					"outputs": [],
					"stateMutability": "nonpayable",
					"type": "function"
				},
				{
					"inputs": [
						{
							"internalType": "bytes4",
							"name": "interfaceId",
							"type": "bytes4"
						}
					],
					"name": "supportsInterface",
					"outputs": [
						{
							"internalType": "bool",
							"name": "",
							"type": "bool"
						}
					],
					"stateMutability": "view",
					"type": "function"
				},
				{
					"inputs": [
						{
							"internalType": "address",
							"name": "newOwner",
							"type": "address"
						}
					],
					"name": "transferOwnership",
					"outputs": [],
					"stateMutability": "nonpayable",
					"type": "function"
				}
			],
			"devdoc": {
				"custom:dev-run-script": "./scripts/deploy_with_ethers.ts",
				"details": "Store & retrieve value in a variable",
				"kind": "dev",
				"methods": {
					"createCandidate(string,address,uint256)": {
						"details": "Store value in variable",
						"params": {
							"candAddress": "value for candidate Address",
							"name": "value for candidate name",
							"partyNum": "value for candidate party"
						}
					},
					"createElection(address[],uint256,uint256)": {
						"details": "registers a voter",
						"params": {
							"_candidateNum": "is an arrat of candidates, _nin is the voters identifier'"
						}
					},
					"createInecExec(address)": {
						"details": "Grant INEC executive role to an address ",
						"params": {
							"_account": "value for the role'"
						}
					},
					"getRoleAdmin(bytes32)": {
						"details": "Returns the admin role that controls `role`. See {grantRole} and {revokeRole}. To change a role's admin, use {_setRoleAdmin}."
					},
					"grantRole(bytes32,address)": {
						"details": "Grants `role` to `account`. If `account` had not been already granted `role`, emits a {RoleGranted} event. Requirements: - the caller must have ``role``'s admin role. May emit a {RoleGranted} event."
					},
					"hasRole(bytes32,address)": {
						"details": "Returns `true` if `account` has been granted `role`."
					},
					"owner()": {
						"details": "Returns the address of the current owner."
					},
					"regVoter(uint256)": {
						"details": "registers a voter",
						"params": {
							"_nin": "is the voters identifier'"
						}
					},
					"renounceOwnership()": {
						"details": "Leaves the contract without owner. It will not be possible to call `onlyOwner` functions anymore. Can only be called by the current owner. NOTE: Renouncing ownership will leave the contract without an owner, thereby removing any functionality that is only available to the owner."
					},
					"renounceRole(bytes32,address)": {
						"details": "Revokes `role` from the calling account. Roles are often managed via {grantRole} and {revokeRole}: this function's purpose is to provide a mechanism for accounts to lose their privileges if they are compromised (such as when a trusted device is misplaced). If the calling account had been revoked `role`, emits a {RoleRevoked} event. Requirements: - the caller must be `account`. May emit a {RoleRevoked} event."
					},
					"revokeRole(bytes32,address)": {
						"details": "Revokes `role` from `account`. If `account` had been granted `role`, emits a {RoleRevoked} event. Requirements: - the caller must have ``role``'s admin role. May emit a {RoleRevoked} event."
					},
					"supportsInterface(bytes4)": {
						"details": "See {IERC165-supportsInterface}."
					},
					"transferOwnership(address)": {
						"details": "Transfers ownership of the contract to a new account (`newOwner`). Can only be called by the current owner."
					}
				},
				"title": "Storage",
				"version": 1
			},
			"evm": {
				"assembly": "    /* \"contracts/Vote.sol\":311:5843  contract Vote is Ownable, AccessControl {... */\n  mstore(0x40, 0x80)\n    /* \"contracts/Vote.sol\":457:510  string [] public party = [\"APC\", \"PDP\", \"LP\", \"NNPP\"] */\n  mload(0x40)\n  dup1\n  0x80\n  add\n  0x40\n  mstore\n  dup1\n  mload(0x40)\n  dup1\n  0x40\n  add\n  0x40\n  mstore\n  dup1\n  0x03\n  dup2\n  mstore\n  0x20\n  add\n  0x4150430000000000000000000000000000000000000000000000000000000000\n  dup2\n  mstore\n  pop\n  dup2\n  mstore\n  0x20\n  add\n  mload(0x40)\n  dup1\n  0x40\n  add\n  0x40\n  mstore\n  dup1\n  0x03\n  dup2\n  mstore\n  0x20\n  add\n  0x5044500000000000000000000000000000000000000000000000000000000000\n  dup2\n  mstore\n  pop\n  dup2\n  mstore\n  0x20\n  add\n  mload(0x40)\n  dup1\n  0x40\n  add\n  0x40\n  mstore\n  dup1\n  0x02\n  dup2\n  mstore\n  0x20\n  add\n  0x4c50000000000000000000000000000000000000000000000000000000000000\n  dup2\n  mstore\n  pop\n  dup2\n  mstore\n  0x20\n  add\n  mload(0x40)\n  dup1\n  0x40\n  add\n  0x40\n  mstore\n  dup1\n  0x04\n  dup2\n  mstore\n  0x20\n  add\n  0x4e4e505000000000000000000000000000000000000000000000000000000000\n  dup2\n  mstore\n  pop\n  dup2\n  mstore\n  pop\n  0x06\n  swap1\n  0x04\n  tag_1\n  swap3\n  swap2\n  swap1\n  tag_2\n  jump\t// in\ntag_1:\n  pop\n    /* \"contracts/Vote.sol\":1719:1912  constructor() {... */\n  callvalue\n  dup1\n  iszero\n  tag_3\n  jumpi\n  0x00\n  dup1\n  revert\ntag_3:\n  pop\n    /* \"@openzeppelin/contracts/access/Ownable.sol\":936:968  _transferOwnership(_msgSender()) */\n  tag_7\n    /* \"@openzeppelin/contracts/access/Ownable.sol\":955:967  _msgSender() */\n  tag_8\n    /* \"@openzeppelin/contracts/access/Ownable.sol\":955:965  _msgSender */\n  shl(0x20, tag_9)\n    /* \"@openzeppelin/contracts/access/Ownable.sol\":955:967  _msgSender() */\n  0x20\n  shr\n  jump\t// in\ntag_8:\n    /* \"@openzeppelin/contracts/access/Ownable.sol\":936:954  _transferOwnership */\n  shl(0x20, tag_10)\n    /* \"@openzeppelin/contracts/access/Ownable.sol\":936:968  _transferOwnership(_msgSender()) */\n  0x20\n  shr\n  jump\t// in\ntag_7:\n    /* \"contracts/Vote.sol\":1863:1905  _setupRole(DEFAULT_ADMIN_ROLE, msg.sender) */\n  tag_12\n    /* \"@openzeppelin/contracts/access/AccessControl.sol\":2072:2076  0x00 */\n  0x00\n    /* \"contracts/Vote.sol\":1874:1892  DEFAULT_ADMIN_ROLE */\n  dup1\n  shl\n    /* \"contracts/Vote.sol\":1894:1904  msg.sender */\n  caller\n    /* \"contracts/Vote.sol\":1863:1873  _setupRole */\n  shl(0x20, tag_13)\n    /* \"contracts/Vote.sol\":1863:1905  _setupRole(DEFAULT_ADMIN_ROLE, msg.sender) */\n  0x20\n  shr\n  jump\t// in\ntag_12:\n    /* \"contracts/Vote.sol\":311:5843  contract Vote is Ownable, AccessControl {... */\n  jump(tag_14)\n    /* \"@openzeppelin/contracts/utils/Context.sol\":640:736  function _msgSender() internal view virtual returns (address) {... */\ntag_9:\n    /* \"@openzeppelin/contracts/utils/Context.sol\":693:700  address */\n  0x00\n    /* \"@openzeppelin/contracts/utils/Context.sol\":719:729  msg.sender */\n  caller\n    /* \"@openzeppelin/contracts/utils/Context.sol\":712:729  return msg.sender */\n  swap1\n  pop\n    /* \"@openzeppelin/contracts/utils/Context.sol\":640:736  function _msgSender() internal view virtual returns (address) {... */\n  swap1\n  jump\t// out\n    /* \"@openzeppelin/contracts/access/Ownable.sol\":2433:2620  function _transferOwnership(address newOwner) internal virtual {... */\ntag_10:\n    /* \"@openzeppelin/contracts/access/Ownable.sol\":2506:2522  address oldOwner */\n  0x00\n    /* \"@openzeppelin/contracts/access/Ownable.sol\":2525:2531  _owner */\n  dup1\n  0x00\n  swap1\n  sload\n  swap1\n  0x0100\n  exp\n  swap1\n  div\n  0xffffffffffffffffffffffffffffffffffffffff\n  and\n    /* \"@openzeppelin/contracts/access/Ownable.sol\":2506:2531  address oldOwner = _owner */\n  swap1\n  pop\n    /* \"@openzeppelin/contracts/access/Ownable.sol\":2550:2558  newOwner */\n  dup2\n    /* \"@openzeppelin/contracts/access/Ownable.sol\":2541:2547  _owner */\n  0x00\n  dup1\n    /* \"@openzeppelin/contracts/access/Ownable.sol\":2541:2558  _owner = newOwner */\n  0x0100\n  exp\n  dup2\n  sload\n  dup2\n  0xffffffffffffffffffffffffffffffffffffffff\n  mul\n  not\n  and\n  swap1\n  dup4\n  0xffffffffffffffffffffffffffffffffffffffff\n  and\n  mul\n  or\n  swap1\n  sstore\n  pop\n    /* \"@openzeppelin/contracts/access/Ownable.sol\":2604:2612  newOwner */\n  dup2\n    /* \"@openzeppelin/contracts/access/Ownable.sol\":2573:2613  OwnershipTransferred(oldOwner, newOwner) */\n  0xffffffffffffffffffffffffffffffffffffffff\n  and\n    /* \"@openzeppelin/contracts/access/Ownable.sol\":2594:2602  oldOwner */\n  dup2\n    /* \"@openzeppelin/contracts/access/Ownable.sol\":2573:2613  OwnershipTransferred(oldOwner, newOwner) */\n  0xffffffffffffffffffffffffffffffffffffffff\n  and\n  0x8be0079c531659141344cd1fd0a4f28419497f9722a3daafe3b4186f6b6457e0\n  mload(0x40)\n  mload(0x40)\n  dup1\n  swap2\n  sub\n  swap1\n  log3\n    /* \"@openzeppelin/contracts/access/Ownable.sol\":2496:2620  {... */\n  pop\n    /* \"@openzeppelin/contracts/access/Ownable.sol\":2433:2620  function _transferOwnership(address newOwner) internal virtual {... */\n  pop\n  jump\t// out\n    /* \"@openzeppelin/contracts/access/AccessControl.sol\":6824:6934  function _setupRole(bytes32 role, address account) internal virtual {... */\ntag_13:\n    /* \"@openzeppelin/contracts/access/AccessControl.sol\":6902:6927  _grantRole(role, account) */\n  tag_18\n    /* \"@openzeppelin/contracts/access/AccessControl.sol\":6913:6917  role */\n  dup3\n    /* \"@openzeppelin/contracts/access/AccessControl.sol\":6919:6926  account */\n  dup3\n    /* \"@openzeppelin/contracts/access/AccessControl.sol\":6902:6912  _grantRole */\n  shl(0x20, tag_19)\n    /* \"@openzeppelin/contracts/access/AccessControl.sol\":6902:6927  _grantRole(role, account) */\n  0x20\n  shr\n  jump\t// in\ntag_18:\n    /* \"@openzeppelin/contracts/access/AccessControl.sol\":6824:6934  function _setupRole(bytes32 role, address account) internal virtual {... */\n  pop\n  pop\n  jump\t// out\n    /* \"@openzeppelin/contracts/access/AccessControl.sol\":7474:7707  function _grantRole(bytes32 role, address account) internal virtual {... */\ntag_19:\n    /* \"@openzeppelin/contracts/access/AccessControl.sol\":7557:7579  hasRole(role, account) */\n  tag_21\n    /* \"@openzeppelin/contracts/access/AccessControl.sol\":7565:7569  role */\n  dup3\n    /* \"@openzeppelin/contracts/access/AccessControl.sol\":7571:7578  account */\n  dup3\n    /* \"@openzeppelin/contracts/access/AccessControl.sol\":7557:7564  hasRole */\n  shl(0x20, tag_22)\n    /* \"@openzeppelin/contracts/access/AccessControl.sol\":7557:7579  hasRole(role, account) */\n  0x20\n  shr\n  jump\t// in\ntag_21:\n    /* \"@openzeppelin/contracts/access/AccessControl.sol\":7552:7701  if (!hasRole(role, account)) {... */\n  tag_23\n  jumpi\n    /* \"@openzeppelin/contracts/access/AccessControl.sol\":7627:7631  true */\n  0x01\n    /* \"@openzeppelin/contracts/access/AccessControl.sol\":7595:7601  _roles */\n  dup1\n    /* \"@openzeppelin/contracts/access/AccessControl.sol\":7595:7607  _roles[role] */\n  0x00\n    /* \"@openzeppelin/contracts/access/AccessControl.sol\":7602:7606  role */\n  dup5\n    /* \"@openzeppelin/contracts/access/AccessControl.sol\":7595:7607  _roles[role] */\n  dup2\n  mstore\n  0x20\n  add\n  swap1\n  dup2\n  mstore\n  0x20\n  add\n  0x00\n  keccak256\n    /* \"@openzeppelin/contracts/access/AccessControl.sol\":7595:7615  _roles[role].members */\n  0x00\n  add\n    /* \"@openzeppelin/contracts/access/AccessControl.sol\":7595:7624  _roles[role].members[account] */\n  0x00\n    /* \"@openzeppelin/contracts/access/AccessControl.sol\":7616:7623  account */\n  dup4\n    /* \"@openzeppelin/contracts/access/AccessControl.sol\":7595:7624  _roles[role].members[account] */\n  0xffffffffffffffffffffffffffffffffffffffff\n  and\n  0xffffffffffffffffffffffffffffffffffffffff\n  and\n  dup2\n  mstore\n  0x20\n  add\n  swap1\n  dup2\n  mstore\n  0x20\n  add\n  0x00\n  keccak256\n  0x00\n    /* \"@openzeppelin/contracts/access/AccessControl.sol\":7595:7631  _roles[role].members[account] = true */\n  0x0100\n  exp\n  dup2\n  sload\n  dup2\n  0xff\n  mul\n  not\n  and\n  swap1\n  dup4\n  iszero\n  iszero\n  mul\n  or\n  swap1\n  sstore\n  pop\n    /* \"@openzeppelin/contracts/access/AccessControl.sol\":7677:7689  _msgSender() */\n  tag_24\n    /* \"@openzeppelin/contracts/access/AccessControl.sol\":7677:7687  _msgSender */\n  shl(0x20, tag_9)\n    /* \"@openzeppelin/contracts/access/AccessControl.sol\":7677:7689  _msgSender() */\n  0x20\n  shr\n  jump\t// in\ntag_24:\n    /* \"@openzeppelin/contracts/access/AccessControl.sol\":7650:7690  RoleGranted(role, account, _msgSender()) */\n  0xffffffffffffffffffffffffffffffffffffffff\n  and\n    /* \"@openzeppelin/contracts/access/AccessControl.sol\":7668:7675  account */\n  dup2\n    /* \"@openzeppelin/contracts/access/AccessControl.sol\":7650:7690  RoleGranted(role, account, _msgSender()) */\n  0xffffffffffffffffffffffffffffffffffffffff\n  and\n    /* \"@openzeppelin/contracts/access/AccessControl.sol\":7662:7666  role */\n  dup4\n    /* \"@openzeppelin/contracts/access/AccessControl.sol\":7650:7690  RoleGranted(role, account, _msgSender()) */\n  0x2f8788117e7eff1d82e926ec794901d17c78024a50270940304540a733656f0d\n  mload(0x40)\n  mload(0x40)\n  dup1\n  swap2\n  sub\n  swap1\n  log4\n    /* \"@openzeppelin/contracts/access/AccessControl.sol\":7552:7701  if (!hasRole(role, account)) {... */\ntag_23:\n    /* \"@openzeppelin/contracts/access/AccessControl.sol\":7474:7707  function _grantRole(bytes32 role, address account) internal virtual {... */\n  pop\n  pop\n  jump\t// out\n    /* \"@openzeppelin/contracts/access/AccessControl.sol\":2895:3040  function hasRole(bytes32 role, address account) public view virtual override returns (bool) {... */\ntag_22:\n    /* \"@openzeppelin/contracts/access/AccessControl.sol\":2981:2985  bool */\n  0x00\n    /* \"@openzeppelin/contracts/access/AccessControl.sol\":3004:3010  _roles */\n  0x01\n    /* \"@openzeppelin/contracts/access/AccessControl.sol\":3004:3016  _roles[role] */\n  0x00\n    /* \"@openzeppelin/contracts/access/AccessControl.sol\":3011:3015  role */\n  dup5\n    /* \"@openzeppelin/contracts/access/AccessControl.sol\":3004:3016  _roles[role] */\n  dup2\n  mstore\n  0x20\n  add\n  swap1\n  dup2\n  mstore\n  0x20\n  add\n  0x00\n  keccak256\n    /* \"@openzeppelin/contracts/access/AccessControl.sol\":3004:3024  _roles[role].members */\n  0x00\n  add\n    /* \"@openzeppelin/contracts/access/AccessControl.sol\":3004:3033  _roles[role].members[account] */\n  0x00\n    /* \"@openzeppelin/contracts/access/AccessControl.sol\":3025:3032  account */\n  dup4\n    /* \"@openzeppelin/contracts/access/AccessControl.sol\":3004:3033  _roles[role].members[account] */\n  0xffffffffffffffffffffffffffffffffffffffff\n  and\n  0xffffffffffffffffffffffffffffffffffffffff\n  and\n  dup2\n  mstore\n  0x20\n  add\n  swap1\n  dup2\n  mstore\n  0x20\n  add\n  0x00\n  keccak256\n  0x00\n  swap1\n  sload\n  swap1\n  0x0100\n  exp\n  swap1\n  div\n  0xff\n  and\n    /* \"@openzeppelin/contracts/access/AccessControl.sol\":2997:3033  return _roles[role].members[account] */\n  swap1\n  pop\n    /* \"@openzeppelin/contracts/access/AccessControl.sol\":2895:3040  function hasRole(bytes32 role, address account) public view virtual override returns (bool) {... */\n  swap3\n  swap2\n  pop\n  pop\n  jump\t// out\n    /* \"contracts/Vote.sol\":311:5843  contract Vote is Ownable, AccessControl {... */\ntag_2:\n  dup3\n  dup1\n  sload\n  dup3\n  dup3\n  sstore\n  swap1\n  0x00\n  mstore\n  keccak256(0x00, 0x20)\n  swap1\n  dup2\n  add\n  swap3\n  dup3\n  iszero\n  tag_26\n  jumpi\n  swap2\n  0x20\n  mul\n  dup3\n  add\ntag_27:\n  dup3\n  dup2\n  gt\n  iszero\n  tag_28\n  jumpi\n  dup3\n  mload\n  dup3\n  swap1\n  dup1\n  mload\n  swap1\n  0x20\n  add\n  swap1\n  tag_29\n  swap3\n  swap2\n  swap1\n  tag_30\n  jump\t// in\ntag_29:\n  pop\n  swap2\n  0x20\n  add\n  swap2\n  swap1\n  0x01\n  add\n  swap1\n  jump(tag_27)\ntag_28:\ntag_26:\n  pop\n  swap1\n  pop\n  tag_31\n  swap2\n  swap1\n  tag_32\n  jump\t// in\ntag_31:\n  pop\n  swap1\n  jump\t// out\ntag_30:\n  dup3\n  dup1\n  sload\n  tag_33\n  swap1\n  tag_34\n  jump\t// in\ntag_33:\n  swap1\n  0x00\n  mstore\n  keccak256(0x00, 0x20)\n  swap1\n  0x1f\n  add\n  0x20\n  swap1\n  div\n  dup2\n  add\n  swap3\n  dup3\n  tag_36\n  jumpi\n  0x00\n  dup6\n  sstore\n  jump(tag_35)\ntag_36:\n  dup3\n  0x1f\n  lt\n  tag_37\n  jumpi\n  dup1\n  mload\n  not(0xff)\n  and\n  dup4\n  dup1\n  add\n  or\n  dup6\n  sstore\n  jump(tag_35)\ntag_37:\n  dup3\n  dup1\n  add\n  0x01\n  add\n  dup6\n  sstore\n  dup3\n  iszero\n  tag_35\n  jumpi\n  swap2\n  dup3\n  add\ntag_38:\n  dup3\n  dup2\n  gt\n  iszero\n  tag_39\n  jumpi\n  dup3\n  mload\n  dup3\n  sstore\n  swap2\n  0x20\n  add\n  swap2\n  swap1\n  0x01\n  add\n  swap1\n  jump(tag_38)\ntag_39:\ntag_35:\n  pop\n  swap1\n  pop\n  tag_40\n  swap2\n  swap1\n  tag_41\n  jump\t// in\ntag_40:\n  pop\n  swap1\n  jump\t// out\ntag_32:\ntag_42:\n  dup1\n  dup3\n  gt\n  iszero\n  tag_43\n  jumpi\n  0x00\n  dup2\n  dup2\n  tag_44\n  swap2\n  swap1\n  tag_45\n  jump\t// in\ntag_44:\n  pop\n  0x01\n  add\n  jump(tag_42)\ntag_43:\n  pop\n  swap1\n  jump\t// out\ntag_41:\ntag_46:\n  dup1\n  dup3\n  gt\n  iszero\n  tag_47\n  jumpi\n  0x00\n  dup2\n  0x00\n  swap1\n  sstore\n  pop\n  0x01\n  add\n  jump(tag_46)\ntag_47:\n  pop\n  swap1\n  jump\t// out\ntag_45:\n  pop\n  dup1\n  sload\n  tag_48\n  swap1\n  tag_34\n  jump\t// in\ntag_48:\n  0x00\n  dup3\n  sstore\n  dup1\n  0x1f\n  lt\n  tag_50\n  jumpi\n  pop\n  jump(tag_49)\ntag_50:\n  0x1f\n  add\n  0x20\n  swap1\n  div\n  swap1\n  0x00\n  mstore\n  keccak256(0x00, 0x20)\n  swap1\n  dup2\n  add\n  swap1\n  tag_51\n  swap2\n  swap1\n  tag_41\n  jump\t// in\ntag_51:\ntag_49:\n  pop\n  jump\t// out\n    /* \"#utility.yul\":7:327   */\ntag_34:\n    /* \"#utility.yul\":51:57   */\n  0x00\n    /* \"#utility.yul\":88:89   */\n  0x02\n    /* \"#utility.yul\":82:86   */\n  dup3\n    /* \"#utility.yul\":78:90   */\n  div\n    /* \"#utility.yul\":68:90   */\n  swap1\n  pop\n    /* \"#utility.yul\":135:136   */\n  0x01\n    /* \"#utility.yul\":129:133   */\n  dup3\n    /* \"#utility.yul\":125:137   */\n  and\n    /* \"#utility.yul\":156:174   */\n  dup1\n    /* \"#utility.yul\":146:227   */\n  tag_54\n  jumpi\n    /* \"#utility.yul\":212:216   */\n  0x7f\n    /* \"#utility.yul\":204:210   */\n  dup3\n    /* \"#utility.yul\":200:217   */\n  and\n    /* \"#utility.yul\":190:217   */\n  swap2\n  pop\n    /* \"#utility.yul\":146:227   */\ntag_54:\n    /* \"#utility.yul\":274:276   */\n  0x20\n    /* \"#utility.yul\":266:272   */\n  dup3\n    /* \"#utility.yul\":263:277   */\n  lt\n    /* \"#utility.yul\":243:261   */\n  dup2\n    /* \"#utility.yul\":240:278   */\n  eq\n    /* \"#utility.yul\":237:321   */\n  iszero\n  tag_55\n  jumpi\n    /* \"#utility.yul\":293:311   */\n  tag_56\n  tag_57\n  jump\t// in\ntag_56:\n    /* \"#utility.yul\":237:321   */\ntag_55:\n    /* \"#utility.yul\":58:327   */\n  pop\n    /* \"#utility.yul\":7:327   */\n  swap2\n  swap1\n  pop\n  jump\t// out\n    /* \"#utility.yul\":333:513   */\ntag_57:\n    /* \"#utility.yul\":381:458   */\n  0x4e487b7100000000000000000000000000000000000000000000000000000000\n    /* \"#utility.yul\":378:379   */\n  0x00\n    /* \"#utility.yul\":371:459   */\n  mstore\n    /* \"#utility.yul\":478:482   */\n  0x22\n    /* \"#utility.yul\":475:476   */\n  0x04\n    /* \"#utility.yul\":468:483   */\n  mstore\n    /* \"#utility.yul\":502:506   */\n  0x24\n    /* \"#utility.yul\":499:500   */\n  0x00\n    /* \"#utility.yul\":492:507   */\n  revert\n    /* \"contracts/Vote.sol\":311:5843  contract Vote is Ownable, AccessControl {... */\ntag_14:\n  dataSize(sub_0)\n  dup1\n  dataOffset(sub_0)\n  0x00\n  codecopy\n  0x00\n  return\nstop\n\nsub_0: assembly {\n        /* \"contracts/Vote.sol\":311:5843  contract Vote is Ownable, AccessControl {... */\n      mstore(0x40, 0x80)\n      callvalue\n      dup1\n      iszero\n      tag_1\n      jumpi\n      0x00\n      dup1\n      revert\n    tag_1:\n      pop\n      jumpi(tag_2, lt(calldatasize, 0x04))\n      shr(0xe0, calldataload(0x00))\n      dup1\n      0x8da5cb5b\n      gt\n      tag_23\n      jumpi\n      dup1\n      0xd547741f\n      gt\n      tag_24\n      jumpi\n      dup1\n      0xd547741f\n      eq\n      tag_18\n      jumpi\n      dup1\n      0xd59d2a58\n      eq\n      tag_19\n      jumpi\n      dup1\n      0xd9d55ba0\n      eq\n      tag_20\n      jumpi\n      dup1\n      0xdfd8459e\n      eq\n      tag_21\n      jumpi\n      dup1\n      0xf2fde38b\n      eq\n      tag_22\n      jumpi\n      jump(tag_2)\n    tag_24:\n      dup1\n      0x8da5cb5b\n      eq\n      tag_13\n      jumpi\n      dup1\n      0x91d14854\n      eq\n      tag_14\n      jumpi\n      dup1\n      0x9c35d98b\n      eq\n      tag_15\n      jumpi\n      dup1\n      0xa217fddf\n      eq\n      tag_16\n      jumpi\n      dup1\n      0xa94015c8\n      eq\n      tag_17\n      jumpi\n      jump(tag_2)\n    tag_23:\n      dup1\n      0x314fd68f\n      gt\n      tag_25\n      jumpi\n      dup1\n      0x314fd68f\n      eq\n      tag_8\n      jumpi\n      dup1\n      0x36568abe\n      eq\n      tag_9\n      jumpi\n      dup1\n      0x3ec9ae35\n      eq\n      tag_10\n      jumpi\n      dup1\n      0x4f05dba8\n      eq\n      tag_11\n      jumpi\n      dup1\n      0x715018a6\n      eq\n      tag_12\n      jumpi\n      jump(tag_2)\n    tag_25:\n      dup1\n      0x01ffc9a7\n      eq\n      tag_3\n      jumpi\n      dup1\n      0x248a9ca3\n      eq\n      tag_4\n      jumpi\n      dup1\n      0x290e9212\n      eq\n      tag_5\n      jumpi\n      dup1\n      0x2e0d37bb\n      eq\n      tag_6\n      jumpi\n      dup1\n      0x2f2ff15d\n      eq\n      tag_7\n      jumpi\n    tag_2:\n      0x00\n      dup1\n      revert\n        /* \"@openzeppelin/contracts/access/AccessControl.sol\":2606:2808  function supportsInterface(bytes4 interfaceId) public view virtual override returns (bool) {... */\n    tag_3:\n      tag_26\n      0x04\n      dup1\n      calldatasize\n      sub\n      dup2\n      add\n      swap1\n      tag_27\n      swap2\n      swap1\n      tag_28\n      jump\t// in\n    tag_27:\n      tag_29\n      jump\t// in\n    tag_26:\n      mload(0x40)\n      tag_30\n      swap2\n      swap1\n      tag_31\n      jump\t// in\n    tag_30:\n      mload(0x40)\n      dup1\n      swap2\n      sub\n      swap1\n      return\n        /* \"@openzeppelin/contracts/access/AccessControl.sol\":4391:4520  function getRoleAdmin(bytes32 role) public view virtual override returns (bytes32) {... */\n    tag_4:\n      tag_32\n      0x04\n      dup1\n      calldatasize\n      sub\n      dup2\n      add\n      swap1\n      tag_33\n      swap2\n      swap1\n      tag_34\n      jump\t// in\n    tag_33:\n      tag_35\n      jump\t// in\n    tag_32:\n      mload(0x40)\n      tag_36\n      swap2\n      swap1\n      tag_37\n      jump\t// in\n    tag_36:\n      mload(0x40)\n      dup1\n      swap2\n      sub\n      swap1\n      return\n        /* \"contracts/Vote.sol\":1103:1133  candidate [] public Candidates */\n    tag_5:\n      tag_38\n      0x04\n      dup1\n      calldatasize\n      sub\n      dup2\n      add\n      swap1\n      tag_39\n      swap2\n      swap1\n      tag_40\n      jump\t// in\n    tag_39:\n      tag_41\n      jump\t// in\n    tag_38:\n      mload(0x40)\n      tag_42\n      swap4\n      swap3\n      swap2\n      swap1\n      tag_43\n      jump\t// in\n    tag_42:\n      mload(0x40)\n      dup1\n      swap2\n      sub\n      swap1\n      return\n        /* \"contracts/Vote.sol\":517:580  bytes32 public constant INEC_EXEC_ROLE = keccak256(\"INEC_EXEC\") */\n    tag_6:\n      tag_44\n      tag_45\n      jump\t// in\n    tag_44:\n      mload(0x40)\n      tag_46\n      swap2\n      swap1\n      tag_37\n      jump\t// in\n    tag_46:\n      mload(0x40)\n      dup1\n      swap2\n      sub\n      swap1\n      return\n        /* \"@openzeppelin/contracts/access/AccessControl.sol\":4816:4961  function grantRole(bytes32 role, address account) public virtual override onlyRole(getRoleAdmin(role)) {... */\n    tag_7:\n      tag_47\n      0x04\n      dup1\n      calldatasize\n      sub\n      dup2\n      add\n      swap1\n      tag_48\n      swap2\n      swap1\n      tag_49\n      jump\t// in\n    tag_48:\n      tag_50\n      jump\t// in\n    tag_47:\n      stop\n        /* \"contracts/Vote.sol\":457:510  string [] public party = [\"APC\", \"PDP\", \"LP\", \"NNPP\"] */\n    tag_8:\n      tag_51\n      0x04\n      dup1\n      calldatasize\n      sub\n      dup2\n      add\n      swap1\n      tag_52\n      swap2\n      swap1\n      tag_40\n      jump\t// in\n    tag_52:\n      tag_53\n      jump\t// in\n    tag_51:\n      mload(0x40)\n      tag_54\n      swap2\n      swap1\n      tag_55\n      jump\t// in\n    tag_54:\n      mload(0x40)\n      dup1\n      swap2\n      sub\n      swap1\n      return\n        /* \"@openzeppelin/contracts/access/AccessControl.sol\":5925:6139  function renounceRole(bytes32 role, address account) public virtual override {... */\n    tag_9:\n      tag_56\n      0x04\n      dup1\n      calldatasize\n      sub\n      dup2\n      add\n      swap1\n      tag_57\n      swap2\n      swap1\n      tag_49\n      jump\t// in\n    tag_57:\n      tag_58\n      jump\t// in\n    tag_56:\n      stop\n        /* \"contracts/Vote.sol\":3474:3605  function Voting(uint256 partyID, uint256 electionID) public isVoter {... */\n    tag_10:\n      tag_59\n      0x04\n      dup1\n      calldatasize\n      sub\n      dup2\n      add\n      swap1\n      tag_60\n      swap2\n      swap1\n      tag_61\n      jump\t// in\n    tag_60:\n      tag_62\n      jump\t// in\n    tag_59:\n      stop\n        /* \"contracts/Vote.sol\":3099:3468  function createElection(address[] memory _candidateNum, uint256 _date, uint256 _duration) public isInecExec {... */\n    tag_11:\n      tag_63\n      0x04\n      dup1\n      calldatasize\n      sub\n      dup2\n      add\n      swap1\n      tag_64\n      swap2\n      swap1\n      tag_65\n      jump\t// in\n    tag_64:\n      tag_66\n      jump\t// in\n    tag_63:\n      stop\n        /* \"@openzeppelin/contracts/access/Ownable.sol\":1831:1932  function renounceOwnership() public virtual onlyOwner {... */\n    tag_12:\n      tag_67\n      tag_68\n      jump\t// in\n    tag_67:\n      stop\n        /* \"@openzeppelin/contracts/access/Ownable.sol\":1201:1286  function owner() public view virtual returns (address) {... */\n    tag_13:\n      tag_69\n      tag_70\n      jump\t// in\n    tag_69:\n      mload(0x40)\n      tag_71\n      swap2\n      swap1\n      tag_72\n      jump\t// in\n    tag_71:\n      mload(0x40)\n      dup1\n      swap2\n      sub\n      swap1\n      return\n        /* \"@openzeppelin/contracts/access/AccessControl.sol\":2895:3040  function hasRole(bytes32 role, address account) public view virtual override returns (bool) {... */\n    tag_14:\n      tag_73\n      0x04\n      dup1\n      calldatasize\n      sub\n      dup2\n      add\n      swap1\n      tag_74\n      swap2\n      swap1\n      tag_49\n      jump\t// in\n    tag_74:\n      tag_75\n      jump\t// in\n    tag_73:\n      mload(0x40)\n      tag_76\n      swap2\n      swap1\n      tag_31\n      jump\t// in\n    tag_76:\n      mload(0x40)\n      dup1\n      swap2\n      sub\n      swap1\n      return\n        /* \"contracts/Vote.sol\":1208:1247  mapping(uint256 => voter) public Voters */\n    tag_15:\n      tag_77\n      0x04\n      dup1\n      calldatasize\n      sub\n      dup2\n      add\n      swap1\n      tag_78\n      swap2\n      swap1\n      tag_40\n      jump\t// in\n    tag_78:\n      tag_79\n      jump\t// in\n    tag_77:\n      mload(0x40)\n      tag_80\n      swap5\n      swap4\n      swap3\n      swap2\n      swap1\n      tag_81\n      jump\t// in\n    tag_80:\n      mload(0x40)\n      dup1\n      swap2\n      sub\n      swap1\n      return\n        /* \"@openzeppelin/contracts/access/AccessControl.sol\":2027:2076  bytes32 public constant DEFAULT_ADMIN_ROLE = 0x00 */\n    tag_16:\n      tag_82\n      tag_83\n      jump\t// in\n    tag_82:\n      mload(0x40)\n      tag_84\n      swap2\n      swap1\n      tag_37\n      jump\t// in\n    tag_84:\n      mload(0x40)\n      dup1\n      swap2\n      sub\n      swap1\n      return\n        /* \"contracts/Vote.sol\":586:641  bytes32 public constant VOTER_ROLE = keccak256(\"VOTER\") */\n    tag_17:\n      tag_85\n      tag_86\n      jump\t// in\n    tag_85:\n      mload(0x40)\n      tag_87\n      swap2\n      swap1\n      tag_37\n      jump\t// in\n    tag_87:\n      mload(0x40)\n      dup1\n      swap2\n      sub\n      swap1\n      return\n        /* \"@openzeppelin/contracts/access/AccessControl.sol\":5241:5388  function revokeRole(bytes32 role, address account) public virtual override onlyRole(getRoleAdmin(role)) {... */\n    tag_18:\n      tag_88\n      0x04\n      dup1\n      calldatasize\n      sub\n      dup2\n      add\n      swap1\n      tag_89\n      swap2\n      swap1\n      tag_49\n      jump\t// in\n    tag_89:\n      tag_90\n      jump\t// in\n    tag_88:\n      stop\n        /* \"contracts/Vote.sol\":2350:2691  function createCandidate(string memory name, address candAddress, uint256 partyNum) public isInecExec {... */\n    tag_19:\n      tag_91\n      0x04\n      dup1\n      calldatasize\n      sub\n      dup2\n      add\n      swap1\n      tag_92\n      swap2\n      swap1\n      tag_93\n      jump\t// in\n    tag_92:\n      tag_94\n      jump\t// in\n    tag_91:\n      stop\n        /* \"contracts/Vote.sol\":2789:2961  function regVoter(uint256 _nin) public {... */\n    tag_20:\n      tag_95\n      0x04\n      dup1\n      calldatasize\n      sub\n      dup2\n      add\n      swap1\n      tag_96\n      swap2\n      swap1\n      tag_40\n      jump\t// in\n    tag_96:\n      tag_97\n      jump\t// in\n    tag_95:\n      stop\n        /* \"contracts/Vote.sol\":2030:2140  function createInecExec(address _account) public onlyOwner{... */\n    tag_21:\n      tag_98\n      0x04\n      dup1\n      calldatasize\n      sub\n      dup2\n      add\n      swap1\n      tag_99\n      swap2\n      swap1\n      tag_100\n      jump\t// in\n    tag_99:\n      tag_101\n      jump\t// in\n    tag_98:\n      stop\n        /* \"@openzeppelin/contracts/access/Ownable.sol\":2081:2279  function transferOwnership(address newOwner) public virtual onlyOwner {... */\n    tag_22:\n      tag_102\n      0x04\n      dup1\n      calldatasize\n      sub\n      dup2\n      add\n      swap1\n      tag_103\n      swap2\n      swap1\n      tag_100\n      jump\t// in\n    tag_103:\n      tag_104\n      jump\t// in\n    tag_102:\n      stop\n        /* \"@openzeppelin/contracts/access/AccessControl.sol\":2606:2808  function supportsInterface(bytes4 interfaceId) public view virtual override returns (bool) {... */\n    tag_29:\n        /* \"@openzeppelin/contracts/access/AccessControl.sol\":2691:2695  bool */\n      0x00\n        /* \"@openzeppelin/contracts/access/AccessControl.sol\":2729:2761  type(IAccessControl).interfaceId */\n      0x7965db0b00000000000000000000000000000000000000000000000000000000\n        /* \"@openzeppelin/contracts/access/AccessControl.sol\":2714:2761  interfaceId == type(IAccessControl).interfaceId */\n      not(0xffffffffffffffffffffffffffffffffffffffffffffffffffffffff)\n      and\n        /* \"@openzeppelin/contracts/access/AccessControl.sol\":2714:2725  interfaceId */\n      dup3\n        /* \"@openzeppelin/contracts/access/AccessControl.sol\":2714:2761  interfaceId == type(IAccessControl).interfaceId */\n      not(0xffffffffffffffffffffffffffffffffffffffffffffffffffffffff)\n      and\n      eq\n        /* \"@openzeppelin/contracts/access/AccessControl.sol\":2714:2801  interfaceId == type(IAccessControl).interfaceId || super.supportsInterface(interfaceId) */\n      dup1\n      tag_106\n      jumpi\n      pop\n        /* \"@openzeppelin/contracts/access/AccessControl.sol\":2765:2801  super.supportsInterface(interfaceId) */\n      tag_107\n        /* \"@openzeppelin/contracts/access/AccessControl.sol\":2789:2800  interfaceId */\n      dup3\n        /* \"@openzeppelin/contracts/access/AccessControl.sol\":2765:2788  super.supportsInterface */\n      tag_108\n        /* \"@openzeppelin/contracts/access/AccessControl.sol\":2765:2801  super.supportsInterface(interfaceId) */\n      jump\t// in\n    tag_107:\n        /* \"@openzeppelin/contracts/access/AccessControl.sol\":2714:2801  interfaceId == type(IAccessControl).interfaceId || super.supportsInterface(interfaceId) */\n    tag_106:\n        /* \"@openzeppelin/contracts/access/AccessControl.sol\":2707:2801  return interfaceId == type(IAccessControl).interfaceId || super.supportsInterface(interfaceId) */\n      swap1\n      pop\n        /* \"@openzeppelin/contracts/access/AccessControl.sol\":2606:2808  function supportsInterface(bytes4 interfaceId) public view virtual override returns (bool) {... */\n      swap2\n      swap1\n      pop\n      jump\t// out\n        /* \"@openzeppelin/contracts/access/AccessControl.sol\":4391:4520  function getRoleAdmin(bytes32 role) public view virtual override returns (bytes32) {... */\n    tag_35:\n        /* \"@openzeppelin/contracts/access/AccessControl.sol\":4465:4472  bytes32 */\n      0x00\n        /* \"@openzeppelin/contracts/access/AccessControl.sol\":4491:4497  _roles */\n      0x01\n        /* \"@openzeppelin/contracts/access/AccessControl.sol\":4491:4503  _roles[role] */\n      0x00\n        /* \"@openzeppelin/contracts/access/AccessControl.sol\":4498:4502  role */\n      dup4\n        /* \"@openzeppelin/contracts/access/AccessControl.sol\":4491:4503  _roles[role] */\n      dup2\n      mstore\n      0x20\n      add\n      swap1\n      dup2\n      mstore\n      0x20\n      add\n      0x00\n      keccak256\n        /* \"@openzeppelin/contracts/access/AccessControl.sol\":4491:4513  _roles[role].adminRole */\n      0x01\n      add\n      sload\n        /* \"@openzeppelin/contracts/access/AccessControl.sol\":4484:4513  return _roles[role].adminRole */\n      swap1\n      pop\n        /* \"@openzeppelin/contracts/access/AccessControl.sol\":4391:4520  function getRoleAdmin(bytes32 role) public view virtual override returns (bytes32) {... */\n      swap2\n      swap1\n      pop\n      jump\t// out\n        /* \"contracts/Vote.sol\":1103:1133  candidate [] public Candidates */\n    tag_41:\n      0x07\n      dup2\n      dup2\n      sload\n      dup2\n      lt\n      tag_110\n      jumpi\n      0x00\n      dup1\n      revert\n    tag_110:\n      swap1\n      0x00\n      mstore\n      keccak256(0x00, 0x20)\n      swap1\n      0x03\n      mul\n      add\n      0x00\n      swap2\n      pop\n      swap1\n      pop\n      dup1\n      0x00\n      add\n      dup1\n      sload\n      tag_112\n      swap1\n      tag_113\n      jump\t// in\n    tag_112:\n      dup1\n      0x1f\n      add\n      0x20\n      dup1\n      swap2\n      div\n      mul\n      0x20\n      add\n      mload(0x40)\n      swap1\n      dup2\n      add\n      0x40\n      mstore\n      dup1\n      swap3\n      swap2\n      swap1\n      dup2\n      dup2\n      mstore\n      0x20\n      add\n      dup3\n      dup1\n      sload\n      tag_114\n      swap1\n      tag_113\n      jump\t// in\n    tag_114:\n      dup1\n      iszero\n      tag_115\n      jumpi\n      dup1\n      0x1f\n      lt\n      tag_116\n      jumpi\n      0x0100\n      dup1\n      dup4\n      sload\n      div\n      mul\n      dup4\n      mstore\n      swap2\n      0x20\n      add\n      swap2\n      jump(tag_115)\n    tag_116:\n      dup3\n      add\n      swap2\n      swap1\n      0x00\n      mstore\n      keccak256(0x00, 0x20)\n      swap1\n    tag_117:\n      dup2\n      sload\n      dup2\n      mstore\n      swap1\n      0x01\n      add\n      swap1\n      0x20\n      add\n      dup1\n      dup4\n      gt\n      tag_117\n      jumpi\n      dup3\n      swap1\n      sub\n      0x1f\n      and\n      dup3\n      add\n      swap2\n    tag_115:\n      pop\n      pop\n      pop\n      pop\n      pop\n      swap1\n      dup1\n      0x01\n      add\n      0x00\n      swap1\n      sload\n      swap1\n      0x0100\n      exp\n      swap1\n      div\n      0xffffffffffffffffffffffffffffffffffffffff\n      and\n      swap1\n      dup1\n      0x02\n      add\n      dup1\n      sload\n      tag_118\n      swap1\n      tag_113\n      jump\t// in\n    tag_118:\n      dup1\n      0x1f\n      add\n      0x20\n      dup1\n      swap2\n      div\n      mul\n      0x20\n      add\n      mload(0x40)\n      swap1\n      dup2\n      add\n      0x40\n      mstore\n      dup1\n      swap3\n      swap2\n      swap1\n      dup2\n      dup2\n      mstore\n      0x20\n      add\n      dup3\n      dup1\n      sload\n      tag_119\n      swap1\n      tag_113\n      jump\t// in\n    tag_119:\n      dup1\n      iszero\n      tag_120\n      jumpi\n      dup1\n      0x1f\n      lt\n      tag_121\n      jumpi\n      0x0100\n      dup1\n      dup4\n      sload\n      div\n      mul\n      dup4\n      mstore\n      swap2\n      0x20\n      add\n      swap2\n      jump(tag_120)\n    tag_121:\n      dup3\n      add\n      swap2\n      swap1\n      0x00\n      mstore\n      keccak256(0x00, 0x20)\n      swap1\n    tag_122:\n      dup2\n      sload\n      dup2\n      mstore\n      swap1\n      0x01\n      add\n      swap1\n      0x20\n      add\n      dup1\n      dup4\n      gt\n      tag_122\n      jumpi\n      dup3\n      swap1\n      sub\n      0x1f\n      and\n      dup3\n      add\n      swap2\n    tag_120:\n      pop\n      pop\n      pop\n      pop\n      pop\n      swap1\n      pop\n      dup4\n      jump\t// out\n        /* \"contracts/Vote.sol\":517:580  bytes32 public constant INEC_EXEC_ROLE = keccak256(\"INEC_EXEC\") */\n    tag_45:\n        /* \"contracts/Vote.sol\":558:580  keccak256(\"INEC_EXEC\") */\n      0x082f6ed76e0352438e6a6e35c77719c3f04bf277fdc8fec7e5ff5f65e001d902\n        /* \"contracts/Vote.sol\":517:580  bytes32 public constant INEC_EXEC_ROLE = keccak256(\"INEC_EXEC\") */\n      dup2\n      jump\t// out\n        /* \"@openzeppelin/contracts/access/AccessControl.sol\":4816:4961  function grantRole(bytes32 role, address account) public virtual override onlyRole(getRoleAdmin(role)) {... */\n    tag_50:\n        /* \"@openzeppelin/contracts/access/AccessControl.sol\":4899:4917  getRoleAdmin(role) */\n      tag_123\n        /* \"@openzeppelin/contracts/access/AccessControl.sol\":4912:4916  role */\n      dup3\n        /* \"@openzeppelin/contracts/access/AccessControl.sol\":4899:4911  getRoleAdmin */\n      tag_35\n        /* \"@openzeppelin/contracts/access/AccessControl.sol\":4899:4917  getRoleAdmin(role) */\n      jump\t// in\n    tag_123:\n        /* \"@openzeppelin/contracts/access/AccessControl.sol\":2505:2521  _checkRole(role) */\n      tag_125\n        /* \"@openzeppelin/contracts/access/AccessControl.sol\":2516:2520  role */\n      dup2\n        /* \"@openzeppelin/contracts/access/AccessControl.sol\":2505:2515  _checkRole */\n      tag_126\n        /* \"@openzeppelin/contracts/access/AccessControl.sol\":2505:2521  _checkRole(role) */\n      jump\t// in\n    tag_125:\n        /* \"@openzeppelin/contracts/access/AccessControl.sol\":4929:4954  _grantRole(role, account) */\n      tag_128\n        /* \"@openzeppelin/contracts/access/AccessControl.sol\":4940:4944  role */\n      dup4\n        /* \"@openzeppelin/contracts/access/AccessControl.sol\":4946:4953  account */\n      dup4\n        /* \"@openzeppelin/contracts/access/AccessControl.sol\":4929:4939  _grantRole */\n      tag_129\n        /* \"@openzeppelin/contracts/access/AccessControl.sol\":4929:4954  _grantRole(role, account) */\n      jump\t// in\n    tag_128:\n        /* \"@openzeppelin/contracts/access/AccessControl.sol\":4816:4961  function grantRole(bytes32 role, address account) public virtual override onlyRole(getRoleAdmin(role)) {... */\n      pop\n      pop\n      pop\n      jump\t// out\n        /* \"contracts/Vote.sol\":457:510  string [] public party = [\"APC\", \"PDP\", \"LP\", \"NNPP\"] */\n    tag_53:\n      0x06\n      dup2\n      dup2\n      sload\n      dup2\n      lt\n      tag_130\n      jumpi\n      0x00\n      dup1\n      revert\n    tag_130:\n      swap1\n      0x00\n      mstore\n      keccak256(0x00, 0x20)\n      add\n      0x00\n      swap2\n      pop\n      swap1\n      pop\n      dup1\n      sload\n      tag_132\n      swap1\n      tag_113\n      jump\t// in\n    tag_132:\n      dup1\n      0x1f\n      add\n      0x20\n      dup1\n      swap2\n      div\n      mul\n      0x20\n      add\n      mload(0x40)\n      swap1\n      dup2\n      add\n      0x40\n      mstore\n      dup1\n      swap3\n      swap2\n      swap1\n      dup2\n      dup2\n      mstore\n      0x20\n      add\n      dup3\n      dup1\n      sload\n      tag_133\n      swap1\n      tag_113\n      jump\t// in\n    tag_133:\n      dup1\n      iszero\n      tag_134\n      jumpi\n      dup1\n      0x1f\n      lt\n      tag_135\n      jumpi\n      0x0100\n      dup1\n      dup4\n      sload\n      div\n      mul\n      dup4\n      mstore\n      swap2\n      0x20\n      add\n      swap2\n      jump(tag_134)\n    tag_135:\n      dup3\n      add\n      swap2\n      swap1\n      0x00\n      mstore\n      keccak256(0x00, 0x20)\n      swap1\n    tag_136:\n      dup2\n      sload\n      dup2\n      mstore\n      swap1\n      0x01\n      add\n      swap1\n      0x20\n      add\n      dup1\n      dup4\n      gt\n      tag_136\n      jumpi\n      dup3\n      swap1\n      sub\n      0x1f\n      and\n      dup3\n      add\n      swap2\n    tag_134:\n      pop\n      pop\n      pop\n      pop\n      pop\n      dup2\n      jump\t// out\n        /* \"@openzeppelin/contracts/access/AccessControl.sol\":5925:6139  function renounceRole(bytes32 role, address account) public virtual override {... */\n    tag_58:\n        /* \"@openzeppelin/contracts/access/AccessControl.sol\":6031:6043  _msgSender() */\n      tag_138\n        /* \"@openzeppelin/contracts/access/AccessControl.sol\":6031:6041  _msgSender */\n      tag_139\n        /* \"@openzeppelin/contracts/access/AccessControl.sol\":6031:6043  _msgSender() */\n      jump\t// in\n    tag_138:\n        /* \"@openzeppelin/contracts/access/AccessControl.sol\":6020:6043  account == _msgSender() */\n      0xffffffffffffffffffffffffffffffffffffffff\n      and\n        /* \"@openzeppelin/contracts/access/AccessControl.sol\":6020:6027  account */\n      dup2\n        /* \"@openzeppelin/contracts/access/AccessControl.sol\":6020:6043  account == _msgSender() */\n      0xffffffffffffffffffffffffffffffffffffffff\n      and\n      eq\n        /* \"@openzeppelin/contracts/access/AccessControl.sol\":6012:6095  require(account == _msgSender(), \"AccessControl: can only renounce roles for self\") */\n      tag_140\n      jumpi\n      mload(0x40)\n      0x08c379a000000000000000000000000000000000000000000000000000000000\n      dup2\n      mstore\n      0x04\n      add\n      tag_141\n      swap1\n      tag_142\n      jump\t// in\n    tag_141:\n      mload(0x40)\n      dup1\n      swap2\n      sub\n      swap1\n      revert\n    tag_140:\n        /* \"@openzeppelin/contracts/access/AccessControl.sol\":6106:6132  _revokeRole(role, account) */\n      tag_143\n        /* \"@openzeppelin/contracts/access/AccessControl.sol\":6118:6122  role */\n      dup3\n        /* \"@openzeppelin/contracts/access/AccessControl.sol\":6124:6131  account */\n      dup3\n        /* \"@openzeppelin/contracts/access/AccessControl.sol\":6106:6117  _revokeRole */\n      tag_144\n        /* \"@openzeppelin/contracts/access/AccessControl.sol\":6106:6132  _revokeRole(role, account) */\n      jump\t// in\n    tag_143:\n        /* \"@openzeppelin/contracts/access/AccessControl.sol\":5925:6139  function renounceRole(bytes32 role, address account) public virtual override {... */\n      pop\n      pop\n      jump\t// out\n        /* \"contracts/Vote.sol\":3474:3605  function Voting(uint256 partyID, uint256 electionID) public isVoter {... */\n    tag_62:\n        /* \"contracts/Vote.sol\":1637:1668  hasRole(VOTER_ROLE, msg.sender) */\n      tag_146\n        /* \"contracts/Vote.sol\":623:641  keccak256(\"VOTER\") */\n      0x15283fd96aa656c9df35ac2fcb112678a5f24f1ca97e591a97d1d16003dbfc9c\n        /* \"contracts/Vote.sol\":1657:1667  msg.sender */\n      caller\n        /* \"contracts/Vote.sol\":1637:1644  hasRole */\n      tag_75\n        /* \"contracts/Vote.sol\":1637:1668  hasRole(VOTER_ROLE, msg.sender) */\n      jump\t// in\n    tag_146:\n        /* \"contracts/Vote.sol\":1629:1694  require(hasRole(VOTER_ROLE, msg.sender), \"Caller is not a Voter\") */\n      tag_147\n      jumpi\n      mload(0x40)\n      0x08c379a000000000000000000000000000000000000000000000000000000000\n      dup2\n      mstore\n      0x04\n      add\n      tag_148\n      swap1\n      tag_149\n      jump\t// in\n    tag_148:\n      mload(0x40)\n      dup1\n      swap2\n      sub\n      swap1\n      revert\n    tag_147:\n        /* \"contracts/Vote.sol\":3552:3561  Elections */\n      0x09\n        /* \"contracts/Vote.sol\":3552:3573  Elections[electionID] */\n      0x00\n        /* \"contracts/Vote.sol\":3562:3572  electionID */\n      dup3\n        /* \"contracts/Vote.sol\":3552:3573  Elections[electionID] */\n      dup2\n      mstore\n      0x20\n      add\n      swap1\n      dup2\n      mstore\n      0x20\n      add\n      0x00\n      keccak256\n        /* \"contracts/Vote.sol\":3552:3587  Elections[electionID].candidateVote */\n      0x01\n      add\n        /* \"contracts/Vote.sol\":3588:3595  partyID */\n      dup3\n        /* \"contracts/Vote.sol\":3552:3596  Elections[electionID].candidateVote[partyID] */\n      0x04\n      dup2\n      lt\n      tag_151\n      jumpi\n      tag_152\n      tag_153\n      jump\t// in\n    tag_152:\n    tag_151:\n      add\n      0x00\n        /* \"contracts/Vote.sol\":3552:3598  Elections[electionID].candidateVote[partyID]++ */\n      dup2\n      sload\n      dup1\n      swap3\n      swap2\n      swap1\n      tag_155\n      swap1\n      tag_156\n      jump\t// in\n    tag_155:\n      swap2\n      swap1\n      pop\n      sstore\n      pop\n        /* \"contracts/Vote.sol\":3474:3605  function Voting(uint256 partyID, uint256 electionID) public isVoter {... */\n      pop\n      pop\n      jump\t// out\n        /* \"contracts/Vote.sol\":3099:3468  function createElection(address[] memory _candidateNum, uint256 _date, uint256 _duration) public isInecExec {... */\n    tag_66:\n        /* \"contracts/Vote.sol\":1504:1539  hasRole(INEC_EXEC_ROLE, msg.sender) */\n      tag_158\n        /* \"contracts/Vote.sol\":558:580  keccak256(\"INEC_EXEC\") */\n      0x082f6ed76e0352438e6a6e35c77719c3f04bf277fdc8fec7e5ff5f65e001d902\n        /* \"contracts/Vote.sol\":1528:1538  msg.sender */\n      caller\n        /* \"contracts/Vote.sol\":1504:1511  hasRole */\n      tag_75\n        /* \"contracts/Vote.sol\":1504:1539  hasRole(INEC_EXEC_ROLE, msg.sender) */\n      jump\t// in\n    tag_158:\n        /* \"contracts/Vote.sol\":1496:1575  require(hasRole(INEC_EXEC_ROLE, msg.sender), \"Caller is not an INEC executive\") */\n      tag_159\n      jumpi\n      mload(0x40)\n      0x08c379a000000000000000000000000000000000000000000000000000000000\n      dup2\n      mstore\n      0x04\n      add\n      tag_160\n      swap1\n      tag_161\n      jump\t// in\n    tag_160:\n      mload(0x40)\n      dup1\n      swap2\n      sub\n      swap1\n      revert\n    tag_159:\n        /* \"contracts/Vote.sol\":3247:3252  _date */\n      dup2\n        /* \"contracts/Vote.sol\":3216:3225  Elections */\n      0x09\n        /* \"contracts/Vote.sol\":3216:3238  Elections[electionNum] */\n      0x00\n        /* \"contracts/Vote.sol\":3226:3237  electionNum */\n      sload(0x05)\n        /* \"contracts/Vote.sol\":3216:3238  Elections[electionNum] */\n      dup2\n      mstore\n      0x20\n      add\n      swap1\n      dup2\n      mstore\n      0x20\n      add\n      0x00\n      keccak256\n        /* \"contracts/Vote.sol\":3216:3244  Elections[electionNum].start */\n      0x05\n      add\n        /* \"contracts/Vote.sol\":3216:3252  Elections[electionNum].start = _date */\n      dup2\n      swap1\n      sstore\n      pop\n        /* \"contracts/Vote.sol\":3295:3304  _duration */\n      dup1\n        /* \"contracts/Vote.sol\":3261:3270  Elections */\n      0x09\n        /* \"contracts/Vote.sol\":3261:3283  Elections[electionNum] */\n      0x00\n        /* \"contracts/Vote.sol\":3271:3282  electionNum */\n      sload(0x05)\n        /* \"contracts/Vote.sol\":3261:3283  Elections[electionNum] */\n      dup2\n      mstore\n      0x20\n      add\n      swap1\n      dup2\n      mstore\n      0x20\n      add\n      0x00\n      keccak256\n        /* \"contracts/Vote.sol\":3261:3292  Elections[electionNum].duration */\n      0x06\n      add\n        /* \"contracts/Vote.sol\":3261:3304  Elections[electionNum].duration = _duration */\n      dup2\n      swap1\n      sstore\n      pop\n        /* \"contracts/Vote.sol\":3318:3324  uint i */\n      0x00\n        /* \"contracts/Vote.sol\":3314:3438  for(uint i = 0; i < _candidateNum.length; i++){... */\n    tag_163:\n        /* \"contracts/Vote.sol\":3334:3347  _candidateNum */\n      dup4\n        /* \"contracts/Vote.sol\":3334:3354  _candidateNum.length */\n      mload\n        /* \"contracts/Vote.sol\":3330:3331  i */\n      dup2\n        /* \"contracts/Vote.sol\":3330:3354  i < _candidateNum.length */\n      lt\n        /* \"contracts/Vote.sol\":3314:3438  for(uint i = 0; i < _candidateNum.length; i++){... */\n      iszero\n      tag_164\n      jumpi\n        /* \"contracts/Vote.sol\":3373:3382  Elections */\n      0x09\n        /* \"contracts/Vote.sol\":3373:3395  Elections[electionNum] */\n      0x00\n        /* \"contracts/Vote.sol\":3383:3394  electionNum */\n      sload(0x05)\n        /* \"contracts/Vote.sol\":3373:3395  Elections[electionNum] */\n      dup2\n      mstore\n      0x20\n      add\n      swap1\n      dup2\n      mstore\n      0x20\n      add\n      0x00\n      keccak256\n        /* \"contracts/Vote.sol\":3373:3405  Elections[electionNum].candidate */\n      0x00\n      add\n        /* \"contracts/Vote.sol\":3411:3424  _candidateNum */\n      dup5\n        /* \"contracts/Vote.sol\":3425:3426  i */\n      dup3\n        /* \"contracts/Vote.sol\":3411:3427  _candidateNum[i] */\n      dup2\n      mload\n      dup2\n      lt\n      tag_166\n      jumpi\n      tag_167\n      tag_153\n      jump\t// in\n    tag_167:\n    tag_166:\n      0x20\n      mul\n      0x20\n      add\n      add\n      mload\n        /* \"contracts/Vote.sol\":3373:3428  Elections[electionNum].candidate.push(_candidateNum[i]) */\n      swap1\n      dup1\n      0x01\n      dup2\n      sload\n      add\n      dup1\n      dup3\n      sstore\n      dup1\n      swap2\n      pop\n      pop\n      0x01\n      swap1\n      sub\n      swap1\n      0x00\n      mstore\n      keccak256(0x00, 0x20)\n      add\n      0x00\n      swap1\n      swap2\n      swap1\n      swap2\n      swap1\n      swap2\n      0x0100\n      exp\n      dup2\n      sload\n      dup2\n      0xffffffffffffffffffffffffffffffffffffffff\n      mul\n      not\n      and\n      swap1\n      dup4\n      0xffffffffffffffffffffffffffffffffffffffff\n      and\n      mul\n      or\n      swap1\n      sstore\n      pop\n        /* \"contracts/Vote.sol\":3356:3359  i++ */\n      dup1\n      dup1\n      tag_169\n      swap1\n      tag_156\n      jump\t// in\n    tag_169:\n      swap2\n      pop\n      pop\n        /* \"contracts/Vote.sol\":3314:3438  for(uint i = 0; i < _candidateNum.length; i++){... */\n      jump(tag_163)\n    tag_164:\n      pop\n        /* \"contracts/Vote.sol\":3447:3458  electionNum */\n      0x05\n      0x00\n        /* \"contracts/Vote.sol\":3447:3461  electionNum ++ */\n      dup2\n      sload\n      dup1\n      swap3\n      swap2\n      swap1\n      tag_170\n      swap1\n      tag_156\n      jump\t// in\n    tag_170:\n      swap2\n      swap1\n      pop\n      sstore\n      pop\n        /* \"contracts/Vote.sol\":3099:3468  function createElection(address[] memory _candidateNum, uint256 _date, uint256 _duration) public isInecExec {... */\n      pop\n      pop\n      pop\n      jump\t// out\n        /* \"@openzeppelin/contracts/access/Ownable.sol\":1831:1932  function renounceOwnership() public virtual onlyOwner {... */\n    tag_68:\n        /* \"@openzeppelin/contracts/access/Ownable.sol\":1094:1107  _checkOwner() */\n      tag_172\n        /* \"@openzeppelin/contracts/access/Ownable.sol\":1094:1105  _checkOwner */\n      tag_173\n        /* \"@openzeppelin/contracts/access/Ownable.sol\":1094:1107  _checkOwner() */\n      jump\t// in\n    tag_172:\n        /* \"@openzeppelin/contracts/access/Ownable.sol\":1895:1925  _transferOwnership(address(0)) */\n      tag_175\n        /* \"@openzeppelin/contracts/access/Ownable.sol\":1922:1923  0 */\n      0x00\n        /* \"@openzeppelin/contracts/access/Ownable.sol\":1895:1913  _transferOwnership */\n      tag_176\n        /* \"@openzeppelin/contracts/access/Ownable.sol\":1895:1925  _transferOwnership(address(0)) */\n      jump\t// in\n    tag_175:\n        /* \"@openzeppelin/contracts/access/Ownable.sol\":1831:1932  function renounceOwnership() public virtual onlyOwner {... */\n      jump\t// out\n        /* \"@openzeppelin/contracts/access/Ownable.sol\":1201:1286  function owner() public view virtual returns (address) {... */\n    tag_70:\n        /* \"@openzeppelin/contracts/access/Ownable.sol\":1247:1254  address */\n      0x00\n        /* \"@openzeppelin/contracts/access/Ownable.sol\":1273:1279  _owner */\n      dup1\n      0x00\n      swap1\n      sload\n      swap1\n      0x0100\n      exp\n      swap1\n      div\n      0xffffffffffffffffffffffffffffffffffffffff\n      and\n        /* \"@openzeppelin/contracts/access/Ownable.sol\":1266:1279  return _owner */\n      swap1\n      pop\n        /* \"@openzeppelin/contracts/access/Ownable.sol\":1201:1286  function owner() public view virtual returns (address) {... */\n      swap1\n      jump\t// out\n        /* \"@openzeppelin/contracts/access/AccessControl.sol\":2895:3040  function hasRole(bytes32 role, address account) public view virtual override returns (bool) {... */\n    tag_75:\n        /* \"@openzeppelin/contracts/access/AccessControl.sol\":2981:2985  bool */\n      0x00\n        /* \"@openzeppelin/contracts/access/AccessControl.sol\":3004:3010  _roles */\n      0x01\n        /* \"@openzeppelin/contracts/access/AccessControl.sol\":3004:3016  _roles[role] */\n      0x00\n        /* \"@openzeppelin/contracts/access/AccessControl.sol\":3011:3015  role */\n      dup5\n        /* \"@openzeppelin/contracts/access/AccessControl.sol\":3004:3016  _roles[role] */\n      dup2\n      mstore\n      0x20\n      add\n      swap1\n      dup2\n      mstore\n      0x20\n      add\n      0x00\n      keccak256\n        /* \"@openzeppelin/contracts/access/AccessControl.sol\":3004:3024  _roles[role].members */\n      0x00\n      add\n        /* \"@openzeppelin/contracts/access/AccessControl.sol\":3004:3033  _roles[role].members[account] */\n      0x00\n        /* \"@openzeppelin/contracts/access/AccessControl.sol\":3025:3032  account */\n      dup4\n        /* \"@openzeppelin/contracts/access/AccessControl.sol\":3004:3033  _roles[role].members[account] */\n      0xffffffffffffffffffffffffffffffffffffffff\n      and\n      0xffffffffffffffffffffffffffffffffffffffff\n      and\n      dup2\n      mstore\n      0x20\n      add\n      swap1\n      dup2\n      mstore\n      0x20\n      add\n      0x00\n      keccak256\n      0x00\n      swap1\n      sload\n      swap1\n      0x0100\n      exp\n      swap1\n      div\n      0xff\n      and\n        /* \"@openzeppelin/contracts/access/AccessControl.sol\":2997:3033  return _roles[role].members[account] */\n      swap1\n      pop\n        /* \"@openzeppelin/contracts/access/AccessControl.sol\":2895:3040  function hasRole(bytes32 role, address account) public view virtual override returns (bool) {... */\n      swap3\n      swap2\n      pop\n      pop\n      jump\t// out\n        /* \"contracts/Vote.sol\":1208:1247  mapping(uint256 => voter) public Voters */\n    tag_79:\n      mstore(0x20, 0x08)\n      dup1\n      0x00\n      mstore\n      keccak256(0x00, 0x40)\n      0x00\n      swap2\n      pop\n      swap1\n      pop\n      dup1\n      0x00\n      add\n      0x00\n      swap1\n      sload\n      swap1\n      0x0100\n      exp\n      swap1\n      div\n      0xffffffffffffffffffffffffffffffffffffffff\n      and\n      swap1\n      dup1\n      0x01\n      add\n      sload\n      swap1\n      dup1\n      0x02\n      add\n      sload\n      swap1\n      dup1\n      0x03\n      add\n      0x00\n      swap1\n      sload\n      swap1\n      0x0100\n      exp\n      swap1\n      div\n      0xff\n      and\n      swap1\n      pop\n      dup5\n      jump\t// out\n        /* \"@openzeppelin/contracts/access/AccessControl.sol\":2027:2076  bytes32 public constant DEFAULT_ADMIN_ROLE = 0x00 */\n    tag_83:\n        /* \"@openzeppelin/contracts/access/AccessControl.sol\":2072:2076  0x00 */\n      0x00\n        /* \"@openzeppelin/contracts/access/AccessControl.sol\":2027:2076  bytes32 public constant DEFAULT_ADMIN_ROLE = 0x00 */\n      dup1\n      shl\n      dup2\n      jump\t// out\n        /* \"contracts/Vote.sol\":586:641  bytes32 public constant VOTER_ROLE = keccak256(\"VOTER\") */\n    tag_86:\n        /* \"contracts/Vote.sol\":623:641  keccak256(\"VOTER\") */\n      0x15283fd96aa656c9df35ac2fcb112678a5f24f1ca97e591a97d1d16003dbfc9c\n        /* \"contracts/Vote.sol\":586:641  bytes32 public constant VOTER_ROLE = keccak256(\"VOTER\") */\n      dup2\n      jump\t// out\n        /* \"@openzeppelin/contracts/access/AccessControl.sol\":5241:5388  function revokeRole(bytes32 role, address account) public virtual override onlyRole(getRoleAdmin(role)) {... */\n    tag_90:\n        /* \"@openzeppelin/contracts/access/AccessControl.sol\":5325:5343  getRoleAdmin(role) */\n      tag_179\n        /* \"@openzeppelin/contracts/access/AccessControl.sol\":5338:5342  role */\n      dup3\n        /* \"@openzeppelin/contracts/access/AccessControl.sol\":5325:5337  getRoleAdmin */\n      tag_35\n        /* \"@openzeppelin/contracts/access/AccessControl.sol\":5325:5343  getRoleAdmin(role) */\n      jump\t// in\n    tag_179:\n        /* \"@openzeppelin/contracts/access/AccessControl.sol\":2505:2521  _checkRole(role) */\n      tag_181\n        /* \"@openzeppelin/contracts/access/AccessControl.sol\":2516:2520  role */\n      dup2\n        /* \"@openzeppelin/contracts/access/AccessControl.sol\":2505:2515  _checkRole */\n      tag_126\n        /* \"@openzeppelin/contracts/access/AccessControl.sol\":2505:2521  _checkRole(role) */\n      jump\t// in\n    tag_181:\n        /* \"@openzeppelin/contracts/access/AccessControl.sol\":5355:5381  _revokeRole(role, account) */\n      tag_183\n        /* \"@openzeppelin/contracts/access/AccessControl.sol\":5367:5371  role */\n      dup4\n        /* \"@openzeppelin/contracts/access/AccessControl.sol\":5373:5380  account */\n      dup4\n        /* \"@openzeppelin/contracts/access/AccessControl.sol\":5355:5366  _revokeRole */\n      tag_144\n        /* \"@openzeppelin/contracts/access/AccessControl.sol\":5355:5381  _revokeRole(role, account) */\n      jump\t// in\n    tag_183:\n        /* \"@openzeppelin/contracts/access/AccessControl.sol\":5241:5388  function revokeRole(bytes32 role, address account) public virtual override onlyRole(getRoleAdmin(role)) {... */\n      pop\n      pop\n      pop\n      jump\t// out\n        /* \"contracts/Vote.sol\":2350:2691  function createCandidate(string memory name, address candAddress, uint256 partyNum) public isInecExec {... */\n    tag_94:\n        /* \"contracts/Vote.sol\":1504:1539  hasRole(INEC_EXEC_ROLE, msg.sender) */\n      tag_185\n        /* \"contracts/Vote.sol\":558:580  keccak256(\"INEC_EXEC\") */\n      0x082f6ed76e0352438e6a6e35c77719c3f04bf277fdc8fec7e5ff5f65e001d902\n        /* \"contracts/Vote.sol\":1528:1538  msg.sender */\n      caller\n        /* \"contracts/Vote.sol\":1504:1511  hasRole */\n      tag_75\n        /* \"contracts/Vote.sol\":1504:1539  hasRole(INEC_EXEC_ROLE, msg.sender) */\n      jump\t// in\n    tag_185:\n        /* \"contracts/Vote.sol\":1496:1575  require(hasRole(INEC_EXEC_ROLE, msg.sender), \"Caller is not an INEC executive\") */\n      tag_186\n      jumpi\n      mload(0x40)\n      0x08c379a000000000000000000000000000000000000000000000000000000000\n      dup2\n      mstore\n      0x04\n      add\n      tag_187\n      swap1\n      tag_161\n      jump\t// in\n    tag_187:\n      mload(0x40)\n      dup1\n      swap2\n      sub\n      swap1\n      revert\n    tag_186:\n        /* \"contracts/Vote.sol\":2462:2491  candidate memory NewCandidate */\n      tag_189\n      tag_190\n      jump\t// in\n    tag_189:\n        /* \"contracts/Vote.sol\":2521:2525  name */\n      dup4\n        /* \"contracts/Vote.sol\":2501:2513  NewCandidate */\n      dup2\n        /* \"contracts/Vote.sol\":2501:2518  NewCandidate.name */\n      0x00\n      add\n        /* \"contracts/Vote.sol\":2501:2525  NewCandidate.name = name */\n      dup2\n      swap1\n      mstore\n      pop\n        /* \"contracts/Vote.sol\":2555:2566  candAddress */\n      dup3\n        /* \"contracts/Vote.sol\":2535:2547  NewCandidate */\n      dup2\n        /* \"contracts/Vote.sol\":2535:2552  NewCandidate.addr */\n      0x20\n      add\n        /* \"contracts/Vote.sol\":2535:2566  NewCandidate.addr = candAddress */\n      swap1\n      0xffffffffffffffffffffffffffffffffffffffff\n      and\n      swap1\n      dup2\n      0xffffffffffffffffffffffffffffffffffffffff\n      and\n      dup2\n      mstore\n      pop\n      pop\n        /* \"contracts/Vote.sol\":2597:2602  party */\n      0x06\n        /* \"contracts/Vote.sol\":2603:2611  partyNum */\n      dup3\n        /* \"contracts/Vote.sol\":2597:2612  party[partyNum] */\n      dup2\n      sload\n      dup2\n      lt\n      tag_191\n      jumpi\n      tag_192\n      tag_153\n      jump\t// in\n    tag_192:\n    tag_191:\n      swap1\n      0x00\n      mstore\n      keccak256(0x00, 0x20)\n      add\n        /* \"contracts/Vote.sol\":2576:2612  NewCandidate.party = party[partyNum] */\n      dup1\n      sload\n      tag_194\n      swap1\n      tag_113\n      jump\t// in\n    tag_194:\n      dup1\n      0x1f\n      add\n      0x20\n      dup1\n      swap2\n      div\n      mul\n      0x20\n      add\n      mload(0x40)\n      swap1\n      dup2\n      add\n      0x40\n      mstore\n      dup1\n      swap3\n      swap2\n      swap1\n      dup2\n      dup2\n      mstore\n      0x20\n      add\n      dup3\n      dup1\n      sload\n      tag_195\n      swap1\n      tag_113\n      jump\t// in\n    tag_195:\n      dup1\n      iszero\n      tag_196\n      jumpi\n      dup1\n      0x1f\n      lt\n      tag_197\n      jumpi\n      0x0100\n      dup1\n      dup4\n      sload\n      div\n      mul\n      dup4\n      mstore\n      swap2\n      0x20\n      add\n      swap2\n      jump(tag_196)\n    tag_197:\n      dup3\n      add\n      swap2\n      swap1\n      0x00\n      mstore\n      keccak256(0x00, 0x20)\n      swap1\n    tag_198:\n      dup2\n      sload\n      dup2\n      mstore\n      swap1\n      0x01\n      add\n      swap1\n      0x20\n      add\n      dup1\n      dup4\n      gt\n      tag_198\n      jumpi\n      dup3\n      swap1\n      sub\n      0x1f\n      and\n      dup3\n      add\n      swap2\n    tag_196:\n      pop\n      pop\n      pop\n      pop\n      pop\n        /* \"contracts/Vote.sol\":2576:2588  NewCandidate */\n      dup2\n        /* \"contracts/Vote.sol\":2576:2594  NewCandidate.party */\n      0x40\n      add\n        /* \"contracts/Vote.sol\":2576:2612  NewCandidate.party = party[partyNum] */\n      dup2\n      swap1\n      mstore\n      pop\n        /* \"contracts/Vote.sol\":2623:2633  Candidates */\n      0x07\n        /* \"contracts/Vote.sol\":2639:2651  NewCandidate */\n      dup2\n        /* \"contracts/Vote.sol\":2623:2652  Candidates.push(NewCandidate) */\n      swap1\n      dup1\n      0x01\n      dup2\n      sload\n      add\n      dup1\n      dup3\n      sstore\n      dup1\n      swap2\n      pop\n      pop\n      0x01\n      swap1\n      sub\n      swap1\n      0x00\n      mstore\n      keccak256(0x00, 0x20)\n      swap1\n      0x03\n      mul\n      add\n      0x00\n      swap1\n      swap2\n      swap1\n      swap2\n      swap1\n      swap2\n      pop\n      0x00\n      dup3\n      add\n      mload\n      dup2\n      0x00\n      add\n      swap1\n      dup1\n      mload\n      swap1\n      0x20\n      add\n      swap1\n      tag_200\n      swap3\n      swap2\n      swap1\n      tag_201\n      jump\t// in\n    tag_200:\n      pop\n      0x20\n      dup3\n      add\n      mload\n      dup2\n      0x01\n      add\n      exp(0x0100, 0x00)\n      dup2\n      sload\n      dup2\n      0xffffffffffffffffffffffffffffffffffffffff\n      mul\n      not\n      and\n      swap1\n      dup4\n      0xffffffffffffffffffffffffffffffffffffffff\n      and\n      mul\n      or\n      swap1\n      sstore\n      pop\n      0x40\n      dup3\n      add\n      mload\n      dup2\n      0x02\n      add\n      swap1\n      dup1\n      mload\n      swap1\n      0x20\n      add\n      swap1\n      tag_202\n      swap3\n      swap2\n      swap1\n      tag_201\n      jump\t// in\n    tag_202:\n      pop\n      pop\n      pop\n        /* \"contracts/Vote.sol\":2663:2675  candidateNum */\n      0x03\n      0x00\n        /* \"contracts/Vote.sol\":2663:2678  candidateNum ++ */\n      dup2\n      sload\n      dup1\n      swap3\n      swap2\n      swap1\n      tag_203\n      swap1\n      tag_156\n      jump\t// in\n    tag_203:\n      swap2\n      swap1\n      pop\n      sstore\n      pop\n        /* \"contracts/Vote.sol\":2452:2691  {... */\n      pop\n        /* \"contracts/Vote.sol\":2350:2691  function createCandidate(string memory name, address candAddress, uint256 partyNum) public isInecExec {... */\n      pop\n      pop\n      pop\n      jump\t// out\n        /* \"contracts/Vote.sol\":2789:2961  function regVoter(uint256 _nin) public {... */\n    tag_97:\n        /* \"contracts/Vote.sol\":2862:2872  msg.sender */\n      caller\n        /* \"contracts/Vote.sol\":2838:2844  Voters */\n      0x08\n        /* \"contracts/Vote.sol\":2838:2854  Voters[voterNum] */\n      0x00\n        /* \"contracts/Vote.sol\":2845:2853  voterNum */\n      sload(0x04)\n        /* \"contracts/Vote.sol\":2838:2854  Voters[voterNum] */\n      dup2\n      mstore\n      0x20\n      add\n      swap1\n      dup2\n      mstore\n      0x20\n      add\n      0x00\n      keccak256\n        /* \"contracts/Vote.sol\":2838:2859  Voters[voterNum].addr */\n      0x00\n      add\n      0x00\n        /* \"contracts/Vote.sol\":2838:2872  Voters[voterNum].addr = msg.sender */\n      0x0100\n      exp\n      dup2\n      sload\n      dup2\n      0xffffffffffffffffffffffffffffffffffffffff\n      mul\n      not\n      and\n      swap1\n      dup4\n      0xffffffffffffffffffffffffffffffffffffffff\n      and\n      mul\n      or\n      swap1\n      sstore\n      pop\n        /* \"contracts/Vote.sol\":2905:2909  _nin */\n      dup1\n        /* \"contracts/Vote.sol\":2882:2888  Voters */\n      0x08\n        /* \"contracts/Vote.sol\":2882:2898  Voters[voterNum] */\n      0x00\n        /* \"contracts/Vote.sol\":2889:2897  voterNum */\n      sload(0x04)\n        /* \"contracts/Vote.sol\":2882:2898  Voters[voterNum] */\n      dup2\n      mstore\n      0x20\n      add\n      swap1\n      dup2\n      mstore\n      0x20\n      add\n      0x00\n      keccak256\n        /* \"contracts/Vote.sol\":2882:2902  Voters[voterNum].nin */\n      0x01\n      add\n        /* \"contracts/Vote.sol\":2882:2909  Voters[voterNum].nin = _nin */\n      dup2\n      swap1\n      sstore\n      pop\n        /* \"contracts/Vote.sol\":2920:2954  _setupRole(VOTER_ROLE, msg.sender) */\n      tag_205\n        /* \"contracts/Vote.sol\":623:641  keccak256(\"VOTER\") */\n      0x15283fd96aa656c9df35ac2fcb112678a5f24f1ca97e591a97d1d16003dbfc9c\n        /* \"contracts/Vote.sol\":2943:2953  msg.sender */\n      caller\n        /* \"contracts/Vote.sol\":2920:2930  _setupRole */\n      tag_206\n        /* \"contracts/Vote.sol\":2920:2954  _setupRole(VOTER_ROLE, msg.sender) */\n      jump\t// in\n    tag_205:\n        /* \"contracts/Vote.sol\":2789:2961  function regVoter(uint256 _nin) public {... */\n      pop\n      jump\t// out\n        /* \"contracts/Vote.sol\":2030:2140  function createInecExec(address _account) public onlyOwner{... */\n    tag_101:\n        /* \"@openzeppelin/contracts/access/Ownable.sol\":1094:1107  _checkOwner() */\n      tag_208\n        /* \"@openzeppelin/contracts/access/Ownable.sol\":1094:1105  _checkOwner */\n      tag_173\n        /* \"@openzeppelin/contracts/access/Ownable.sol\":1094:1107  _checkOwner() */\n      jump\t// in\n    tag_208:\n        /* \"contracts/Vote.sol\":2098:2133  grantRole(INEC_EXEC_ROLE, _account) */\n      tag_210\n        /* \"contracts/Vote.sol\":558:580  keccak256(\"INEC_EXEC\") */\n      0x082f6ed76e0352438e6a6e35c77719c3f04bf277fdc8fec7e5ff5f65e001d902\n        /* \"contracts/Vote.sol\":2124:2132  _account */\n      dup3\n        /* \"contracts/Vote.sol\":2098:2107  grantRole */\n      tag_50\n        /* \"contracts/Vote.sol\":2098:2133  grantRole(INEC_EXEC_ROLE, _account) */\n      jump\t// in\n    tag_210:\n        /* \"contracts/Vote.sol\":2030:2140  function createInecExec(address _account) public onlyOwner{... */\n      pop\n      jump\t// out\n        /* \"@openzeppelin/contracts/access/Ownable.sol\":2081:2279  function transferOwnership(address newOwner) public virtual onlyOwner {... */\n    tag_104:\n        /* \"@openzeppelin/contracts/access/Ownable.sol\":1094:1107  _checkOwner() */\n      tag_212\n        /* \"@openzeppelin/contracts/access/Ownable.sol\":1094:1105  _checkOwner */\n      tag_173\n        /* \"@openzeppelin/contracts/access/Ownable.sol\":1094:1107  _checkOwner() */\n      jump\t// in\n    tag_212:\n        /* \"@openzeppelin/contracts/access/Ownable.sol\":2189:2190  0 */\n      0x00\n        /* \"@openzeppelin/contracts/access/Ownable.sol\":2169:2191  newOwner != address(0) */\n      0xffffffffffffffffffffffffffffffffffffffff\n      and\n        /* \"@openzeppelin/contracts/access/Ownable.sol\":2169:2177  newOwner */\n      dup2\n        /* \"@openzeppelin/contracts/access/Ownable.sol\":2169:2191  newOwner != address(0) */\n      0xffffffffffffffffffffffffffffffffffffffff\n      and\n      eq\n      iszero\n        /* \"@openzeppelin/contracts/access/Ownable.sol\":2161:2234  require(newOwner != address(0), \"Ownable: new owner is the zero address\") */\n      tag_214\n      jumpi\n      mload(0x40)\n      0x08c379a000000000000000000000000000000000000000000000000000000000\n      dup2\n      mstore\n      0x04\n      add\n      tag_215\n      swap1\n      tag_216\n      jump\t// in\n    tag_215:\n      mload(0x40)\n      dup1\n      swap2\n      sub\n      swap1\n      revert\n    tag_214:\n        /* \"@openzeppelin/contracts/access/Ownable.sol\":2244:2272  _transferOwnership(newOwner) */\n      tag_217\n        /* \"@openzeppelin/contracts/access/Ownable.sol\":2263:2271  newOwner */\n      dup2\n        /* \"@openzeppelin/contracts/access/Ownable.sol\":2244:2262  _transferOwnership */\n      tag_176\n        /* \"@openzeppelin/contracts/access/Ownable.sol\":2244:2272  _transferOwnership(newOwner) */\n      jump\t// in\n    tag_217:\n        /* \"@openzeppelin/contracts/access/Ownable.sol\":2081:2279  function transferOwnership(address newOwner) public virtual onlyOwner {... */\n      pop\n      jump\t// out\n        /* \"@openzeppelin/contracts/utils/introspection/ERC165.sol\":829:984  function supportsInterface(bytes4 interfaceId) public view virtual override returns (bool) {... */\n    tag_108:\n        /* \"@openzeppelin/contracts/utils/introspection/ERC165.sol\":914:918  bool */\n      0x00\n        /* \"@openzeppelin/contracts/utils/introspection/ERC165.sol\":952:977  type(IERC165).interfaceId */\n      0x01ffc9a700000000000000000000000000000000000000000000000000000000\n        /* \"@openzeppelin/contracts/utils/introspection/ERC165.sol\":937:977  interfaceId == type(IERC165).interfaceId */\n      not(0xffffffffffffffffffffffffffffffffffffffffffffffffffffffff)\n      and\n        /* \"@openzeppelin/contracts/utils/introspection/ERC165.sol\":937:948  interfaceId */\n      dup3\n        /* \"@openzeppelin/contracts/utils/introspection/ERC165.sol\":937:977  interfaceId == type(IERC165).interfaceId */\n      not(0xffffffffffffffffffffffffffffffffffffffffffffffffffffffff)\n      and\n      eq\n        /* \"@openzeppelin/contracts/utils/introspection/ERC165.sol\":930:977  return interfaceId == type(IERC165).interfaceId */\n      swap1\n      pop\n        /* \"@openzeppelin/contracts/utils/introspection/ERC165.sol\":829:984  function supportsInterface(bytes4 interfaceId) public view virtual override returns (bool) {... */\n      swap2\n      swap1\n      pop\n      jump\t// out\n        /* \"@openzeppelin/contracts/access/AccessControl.sol\":3334:3437  function _checkRole(bytes32 role) internal view virtual {... */\n    tag_126:\n        /* \"@openzeppelin/contracts/access/AccessControl.sol\":3400:3430  _checkRole(role, _msgSender()) */\n      tag_220\n        /* \"@openzeppelin/contracts/access/AccessControl.sol\":3411:3415  role */\n      dup2\n        /* \"@openzeppelin/contracts/access/AccessControl.sol\":3417:3429  _msgSender() */\n      tag_221\n        /* \"@openzeppelin/contracts/access/AccessControl.sol\":3417:3427  _msgSender */\n      tag_139\n        /* \"@openzeppelin/contracts/access/AccessControl.sol\":3417:3429  _msgSender() */\n      jump\t// in\n    tag_221:\n        /* \"@openzeppelin/contracts/access/AccessControl.sol\":3400:3410  _checkRole */\n      tag_222\n        /* \"@openzeppelin/contracts/access/AccessControl.sol\":3400:3430  _checkRole(role, _msgSender()) */\n      jump\t// in\n    tag_220:\n        /* \"@openzeppelin/contracts/access/AccessControl.sol\":3334:3437  function _checkRole(bytes32 role) internal view virtual {... */\n      pop\n      jump\t// out\n        /* \"@openzeppelin/contracts/access/AccessControl.sol\":7474:7707  function _grantRole(bytes32 role, address account) internal virtual {... */\n    tag_129:\n        /* \"@openzeppelin/contracts/access/AccessControl.sol\":7557:7579  hasRole(role, account) */\n      tag_224\n        /* \"@openzeppelin/contracts/access/AccessControl.sol\":7565:7569  role */\n      dup3\n        /* \"@openzeppelin/contracts/access/AccessControl.sol\":7571:7578  account */\n      dup3\n        /* \"@openzeppelin/contracts/access/AccessControl.sol\":7557:7564  hasRole */\n      tag_75\n        /* \"@openzeppelin/contracts/access/AccessControl.sol\":7557:7579  hasRole(role, account) */\n      jump\t// in\n    tag_224:\n        /* \"@openzeppelin/contracts/access/AccessControl.sol\":7552:7701  if (!hasRole(role, account)) {... */\n      tag_225\n      jumpi\n        /* \"@openzeppelin/contracts/access/AccessControl.sol\":7627:7631  true */\n      0x01\n        /* \"@openzeppelin/contracts/access/AccessControl.sol\":7595:7601  _roles */\n      dup1\n        /* \"@openzeppelin/contracts/access/AccessControl.sol\":7595:7607  _roles[role] */\n      0x00\n        /* \"@openzeppelin/contracts/access/AccessControl.sol\":7602:7606  role */\n      dup5\n        /* \"@openzeppelin/contracts/access/AccessControl.sol\":7595:7607  _roles[role] */\n      dup2\n      mstore\n      0x20\n      add\n      swap1\n      dup2\n      mstore\n      0x20\n      add\n      0x00\n      keccak256\n        /* \"@openzeppelin/contracts/access/AccessControl.sol\":7595:7615  _roles[role].members */\n      0x00\n      add\n        /* \"@openzeppelin/contracts/access/AccessControl.sol\":7595:7624  _roles[role].members[account] */\n      0x00\n        /* \"@openzeppelin/contracts/access/AccessControl.sol\":7616:7623  account */\n      dup4\n        /* \"@openzeppelin/contracts/access/AccessControl.sol\":7595:7624  _roles[role].members[account] */\n      0xffffffffffffffffffffffffffffffffffffffff\n      and\n      0xffffffffffffffffffffffffffffffffffffffff\n      and\n      dup2\n      mstore\n      0x20\n      add\n      swap1\n      dup2\n      mstore\n      0x20\n      add\n      0x00\n      keccak256\n      0x00\n        /* \"@openzeppelin/contracts/access/AccessControl.sol\":7595:7631  _roles[role].members[account] = true */\n      0x0100\n      exp\n      dup2\n      sload\n      dup2\n      0xff\n      mul\n      not\n      and\n      swap1\n      dup4\n      iszero\n      iszero\n      mul\n      or\n      swap1\n      sstore\n      pop\n        /* \"@openzeppelin/contracts/access/AccessControl.sol\":7677:7689  _msgSender() */\n      tag_226\n        /* \"@openzeppelin/contracts/access/AccessControl.sol\":7677:7687  _msgSender */\n      tag_139\n        /* \"@openzeppelin/contracts/access/AccessControl.sol\":7677:7689  _msgSender() */\n      jump\t// in\n    tag_226:\n        /* \"@openzeppelin/contracts/access/AccessControl.sol\":7650:7690  RoleGranted(role, account, _msgSender()) */\n      0xffffffffffffffffffffffffffffffffffffffff\n      and\n        /* \"@openzeppelin/contracts/access/AccessControl.sol\":7668:7675  account */\n      dup2\n        /* \"@openzeppelin/contracts/access/AccessControl.sol\":7650:7690  RoleGranted(role, account, _msgSender()) */\n      0xffffffffffffffffffffffffffffffffffffffff\n      and\n        /* \"@openzeppelin/contracts/access/AccessControl.sol\":7662:7666  role */\n      dup4\n        /* \"@openzeppelin/contracts/access/AccessControl.sol\":7650:7690  RoleGranted(role, account, _msgSender()) */\n      0x2f8788117e7eff1d82e926ec794901d17c78024a50270940304540a733656f0d\n      mload(0x40)\n      mload(0x40)\n      dup1\n      swap2\n      sub\n      swap1\n      log4\n        /* \"@openzeppelin/contracts/access/AccessControl.sol\":7552:7701  if (!hasRole(role, account)) {... */\n    tag_225:\n        /* \"@openzeppelin/contracts/access/AccessControl.sol\":7474:7707  function _grantRole(bytes32 role, address account) internal virtual {... */\n      pop\n      pop\n      jump\t// out\n        /* \"@openzeppelin/contracts/utils/Context.sol\":640:736  function _msgSender() internal view virtual returns (address) {... */\n    tag_139:\n        /* \"@openzeppelin/contracts/utils/Context.sol\":693:700  address */\n      0x00\n        /* \"@openzeppelin/contracts/utils/Context.sol\":719:729  msg.sender */\n      caller\n        /* \"@openzeppelin/contracts/utils/Context.sol\":712:729  return msg.sender */\n      swap1\n      pop\n        /* \"@openzeppelin/contracts/utils/Context.sol\":640:736  function _msgSender() internal view virtual returns (address) {... */\n      swap1\n      jump\t// out\n        /* \"@openzeppelin/contracts/access/AccessControl.sol\":7878:8112  function _revokeRole(bytes32 role, address account) internal virtual {... */\n    tag_144:\n        /* \"@openzeppelin/contracts/access/AccessControl.sol\":7961:7983  hasRole(role, account) */\n      tag_229\n        /* \"@openzeppelin/contracts/access/AccessControl.sol\":7969:7973  role */\n      dup3\n        /* \"@openzeppelin/contracts/access/AccessControl.sol\":7975:7982  account */\n      dup3\n        /* \"@openzeppelin/contracts/access/AccessControl.sol\":7961:7968  hasRole */\n      tag_75\n        /* \"@openzeppelin/contracts/access/AccessControl.sol\":7961:7983  hasRole(role, account) */\n      jump\t// in\n    tag_229:\n        /* \"@openzeppelin/contracts/access/AccessControl.sol\":7957:8106  if (hasRole(role, account)) {... */\n      iszero\n      tag_230\n      jumpi\n        /* \"@openzeppelin/contracts/access/AccessControl.sol\":8031:8036  false */\n      0x00\n        /* \"@openzeppelin/contracts/access/AccessControl.sol\":7999:8005  _roles */\n      0x01\n        /* \"@openzeppelin/contracts/access/AccessControl.sol\":7999:8011  _roles[role] */\n      0x00\n        /* \"@openzeppelin/contracts/access/AccessControl.sol\":8006:8010  role */\n      dup5\n        /* \"@openzeppelin/contracts/access/AccessControl.sol\":7999:8011  _roles[role] */\n      dup2\n      mstore\n      0x20\n      add\n      swap1\n      dup2\n      mstore\n      0x20\n      add\n      0x00\n      keccak256\n        /* \"@openzeppelin/contracts/access/AccessControl.sol\":7999:8019  _roles[role].members */\n      0x00\n      add\n        /* \"@openzeppelin/contracts/access/AccessControl.sol\":7999:8028  _roles[role].members[account] */\n      0x00\n        /* \"@openzeppelin/contracts/access/AccessControl.sol\":8020:8027  account */\n      dup4\n        /* \"@openzeppelin/contracts/access/AccessControl.sol\":7999:8028  _roles[role].members[account] */\n      0xffffffffffffffffffffffffffffffffffffffff\n      and\n      0xffffffffffffffffffffffffffffffffffffffff\n      and\n      dup2\n      mstore\n      0x20\n      add\n      swap1\n      dup2\n      mstore\n      0x20\n      add\n      0x00\n      keccak256\n      0x00\n        /* \"@openzeppelin/contracts/access/AccessControl.sol\":7999:8036  _roles[role].members[account] = false */\n      0x0100\n      exp\n      dup2\n      sload\n      dup2\n      0xff\n      mul\n      not\n      and\n      swap1\n      dup4\n      iszero\n      iszero\n      mul\n      or\n      swap1\n      sstore\n      pop\n        /* \"@openzeppelin/contracts/access/AccessControl.sol\":8082:8094  _msgSender() */\n      tag_231\n        /* \"@openzeppelin/contracts/access/AccessControl.sol\":8082:8092  _msgSender */\n      tag_139\n        /* \"@openzeppelin/contracts/access/AccessControl.sol\":8082:8094  _msgSender() */\n      jump\t// in\n    tag_231:\n        /* \"@openzeppelin/contracts/access/AccessControl.sol\":8055:8095  RoleRevoked(role, account, _msgSender()) */\n      0xffffffffffffffffffffffffffffffffffffffff\n      and\n        /* \"@openzeppelin/contracts/access/AccessControl.sol\":8073:8080  account */\n      dup2\n        /* \"@openzeppelin/contracts/access/AccessControl.sol\":8055:8095  RoleRevoked(role, account, _msgSender()) */\n      0xffffffffffffffffffffffffffffffffffffffff\n      and\n        /* \"@openzeppelin/contracts/access/AccessControl.sol\":8067:8071  role */\n      dup4\n        /* \"@openzeppelin/contracts/access/AccessControl.sol\":8055:8095  RoleRevoked(role, account, _msgSender()) */\n      0xf6391f5c32d9c69d2a47ea670b442974b53935d1edc7fd64eb21e047a839171b\n      mload(0x40)\n      mload(0x40)\n      dup1\n      swap2\n      sub\n      swap1\n      log4\n        /* \"@openzeppelin/contracts/access/AccessControl.sol\":7957:8106  if (hasRole(role, account)) {... */\n    tag_230:\n        /* \"@openzeppelin/contracts/access/AccessControl.sol\":7878:8112  function _revokeRole(bytes32 role, address account) internal virtual {... */\n      pop\n      pop\n      jump\t// out\n        /* \"@openzeppelin/contracts/access/Ownable.sol\":1359:1489  function _checkOwner() internal view virtual {... */\n    tag_173:\n        /* \"@openzeppelin/contracts/access/Ownable.sol\":1433:1445  _msgSender() */\n      tag_233\n        /* \"@openzeppelin/contracts/access/Ownable.sol\":1433:1443  _msgSender */\n      tag_139\n        /* \"@openzeppelin/contracts/access/Ownable.sol\":1433:1445  _msgSender() */\n      jump\t// in\n    tag_233:\n        /* \"@openzeppelin/contracts/access/Ownable.sol\":1422:1445  owner() == _msgSender() */\n      0xffffffffffffffffffffffffffffffffffffffff\n      and\n        /* \"@openzeppelin/contracts/access/Ownable.sol\":1422:1429  owner() */\n      tag_234\n        /* \"@openzeppelin/contracts/access/Ownable.sol\":1422:1427  owner */\n      tag_70\n        /* \"@openzeppelin/contracts/access/Ownable.sol\":1422:1429  owner() */\n      jump\t// in\n    tag_234:\n        /* \"@openzeppelin/contracts/access/Ownable.sol\":1422:1445  owner() == _msgSender() */\n      0xffffffffffffffffffffffffffffffffffffffff\n      and\n      eq\n        /* \"@openzeppelin/contracts/access/Ownable.sol\":1414:1482  require(owner() == _msgSender(), \"Ownable: caller is not the owner\") */\n      tag_235\n      jumpi\n      mload(0x40)\n      0x08c379a000000000000000000000000000000000000000000000000000000000\n      dup2\n      mstore\n      0x04\n      add\n      tag_236\n      swap1\n      tag_237\n      jump\t// in\n    tag_236:\n      mload(0x40)\n      dup1\n      swap2\n      sub\n      swap1\n      revert\n    tag_235:\n        /* \"@openzeppelin/contracts/access/Ownable.sol\":1359:1489  function _checkOwner() internal view virtual {... */\n      jump\t// out\n        /* \"@openzeppelin/contracts/access/Ownable.sol\":2433:2620  function _transferOwnership(address newOwner) internal virtual {... */\n    tag_176:\n        /* \"@openzeppelin/contracts/access/Ownable.sol\":2506:2522  address oldOwner */\n      0x00\n        /* \"@openzeppelin/contracts/access/Ownable.sol\":2525:2531  _owner */\n      dup1\n      0x00\n      swap1\n      sload\n      swap1\n      0x0100\n      exp\n      swap1\n      div\n      0xffffffffffffffffffffffffffffffffffffffff\n      and\n        /* \"@openzeppelin/contracts/access/Ownable.sol\":2506:2531  address oldOwner = _owner */\n      swap1\n      pop\n        /* \"@openzeppelin/contracts/access/Ownable.sol\":2550:2558  newOwner */\n      dup2\n        /* \"@openzeppelin/contracts/access/Ownable.sol\":2541:2547  _owner */\n      0x00\n      dup1\n        /* \"@openzeppelin/contracts/access/Ownable.sol\":2541:2558  _owner = newOwner */\n      0x0100\n      exp\n      dup2\n      sload\n      dup2\n      0xffffffffffffffffffffffffffffffffffffffff\n      mul\n      not\n      and\n      swap1\n      dup4\n      0xffffffffffffffffffffffffffffffffffffffff\n      and\n      mul\n      or\n      swap1\n      sstore\n      pop\n        /* \"@openzeppelin/contracts/access/Ownable.sol\":2604:2612  newOwner */\n      dup2\n        /* \"@openzeppelin/contracts/access/Ownable.sol\":2573:2613  OwnershipTransferred(oldOwner, newOwner) */\n      0xffffffffffffffffffffffffffffffffffffffff\n      and\n        /* \"@openzeppelin/contracts/access/Ownable.sol\":2594:2602  oldOwner */\n      dup2\n        /* \"@openzeppelin/contracts/access/Ownable.sol\":2573:2613  OwnershipTransferred(oldOwner, newOwner) */\n      0xffffffffffffffffffffffffffffffffffffffff\n      and\n      0x8be0079c531659141344cd1fd0a4f28419497f9722a3daafe3b4186f6b6457e0\n      mload(0x40)\n      mload(0x40)\n      dup1\n      swap2\n      sub\n      swap1\n      log3\n        /* \"@openzeppelin/contracts/access/Ownable.sol\":2496:2620  {... */\n      pop\n        /* \"@openzeppelin/contracts/access/Ownable.sol\":2433:2620  function _transferOwnership(address newOwner) internal virtual {... */\n      pop\n      jump\t// out\n        /* \"@openzeppelin/contracts/access/AccessControl.sol\":6824:6934  function _setupRole(bytes32 role, address account) internal virtual {... */\n    tag_206:\n        /* \"@openzeppelin/contracts/access/AccessControl.sol\":6902:6927  _grantRole(role, account) */\n      tag_240\n        /* \"@openzeppelin/contracts/access/AccessControl.sol\":6913:6917  role */\n      dup3\n        /* \"@openzeppelin/contracts/access/AccessControl.sol\":6919:6926  account */\n      dup3\n        /* \"@openzeppelin/contracts/access/AccessControl.sol\":6902:6912  _grantRole */\n      tag_129\n        /* \"@openzeppelin/contracts/access/AccessControl.sol\":6902:6927  _grantRole(role, account) */\n      jump\t// in\n    tag_240:\n        /* \"@openzeppelin/contracts/access/AccessControl.sol\":6824:6934  function _setupRole(bytes32 role, address account) internal virtual {... */\n      pop\n      pop\n      jump\t// out\n        /* \"@openzeppelin/contracts/access/AccessControl.sol\":3718:4210  function _checkRole(bytes32 role, address account) internal view virtual {... */\n    tag_222:\n        /* \"@openzeppelin/contracts/access/AccessControl.sol\":3806:3828  hasRole(role, account) */\n      tag_242\n        /* \"@openzeppelin/contracts/access/AccessControl.sol\":3814:3818  role */\n      dup3\n        /* \"@openzeppelin/contracts/access/AccessControl.sol\":3820:3827  account */\n      dup3\n        /* \"@openzeppelin/contracts/access/AccessControl.sol\":3806:3813  hasRole */\n      tag_75\n        /* \"@openzeppelin/contracts/access/AccessControl.sol\":3806:3828  hasRole(role, account) */\n      jump\t// in\n    tag_242:\n        /* \"@openzeppelin/contracts/access/AccessControl.sol\":3801:4204  if (!hasRole(role, account)) {... */\n      tag_243\n      jumpi\n        /* \"@openzeppelin/contracts/access/AccessControl.sol\":3989:4030  Strings.toHexString(uint160(account), 20) */\n      tag_244\n        /* \"@openzeppelin/contracts/access/AccessControl.sol\":4017:4024  account */\n      dup2\n        /* \"@openzeppelin/contracts/access/AccessControl.sol\":3989:4030  Strings.toHexString(uint160(account), 20) */\n      0xffffffffffffffffffffffffffffffffffffffff\n      and\n        /* \"@openzeppelin/contracts/access/AccessControl.sol\":4027:4029  20 */\n      0x14\n        /* \"@openzeppelin/contracts/access/AccessControl.sol\":3989:4008  Strings.toHexString */\n      tag_245\n        /* \"@openzeppelin/contracts/access/AccessControl.sol\":3989:4030  Strings.toHexString(uint160(account), 20) */\n      jump\t// in\n    tag_244:\n        /* \"@openzeppelin/contracts/access/AccessControl.sol\":4101:4139  Strings.toHexString(uint256(role), 32) */\n      tag_246\n        /* \"@openzeppelin/contracts/access/AccessControl.sol\":4129:4133  role */\n      dup4\n        /* \"@openzeppelin/contracts/access/AccessControl.sol\":4121:4134  uint256(role) */\n      0x00\n      shr\n        /* \"@openzeppelin/contracts/access/AccessControl.sol\":4136:4138  32 */\n      0x20\n        /* \"@openzeppelin/contracts/access/AccessControl.sol\":4101:4120  Strings.toHexString */\n      tag_245\n        /* \"@openzeppelin/contracts/access/AccessControl.sol\":4101:4139  Strings.toHexString(uint256(role), 32) */\n      jump\t// in\n    tag_246:\n        /* \"@openzeppelin/contracts/access/AccessControl.sol\":3896:4161  abi.encodePacked(... */\n      add(0x20, mload(0x40))\n      tag_247\n      swap3\n      swap2\n      swap1\n      tag_248\n      jump\t// in\n    tag_247:\n      mload(0x40)\n      0x20\n      dup2\n      dup4\n      sub\n      sub\n      dup2\n      mstore\n      swap1\n      0x40\n      mstore\n        /* \"@openzeppelin/contracts/access/AccessControl.sol\":3844:4193  revert(... */\n      mload(0x40)\n      0x08c379a000000000000000000000000000000000000000000000000000000000\n      dup2\n      mstore\n      0x04\n      add\n      tag_249\n      swap2\n      swap1\n      tag_55\n      jump\t// in\n    tag_249:\n      mload(0x40)\n      dup1\n      swap2\n      sub\n      swap1\n      revert\n        /* \"@openzeppelin/contracts/access/AccessControl.sol\":3801:4204  if (!hasRole(role, account)) {... */\n    tag_243:\n        /* \"@openzeppelin/contracts/access/AccessControl.sol\":3718:4210  function _checkRole(bytes32 role, address account) internal view virtual {... */\n      pop\n      pop\n      jump\t// out\n        /* \"@openzeppelin/contracts/utils/Strings.sol\":1652:2093  function toHexString(uint256 value, uint256 length) internal pure returns (string memory) {... */\n    tag_245:\n        /* \"@openzeppelin/contracts/utils/Strings.sol\":1727:1740  string memory */\n      0x60\n        /* \"@openzeppelin/contracts/utils/Strings.sol\":1752:1771  bytes memory buffer */\n      0x00\n        /* \"@openzeppelin/contracts/utils/Strings.sol\":1797:1798  2 */\n      0x02\n        /* \"@openzeppelin/contracts/utils/Strings.sol\":1788:1794  length */\n      dup4\n        /* \"@openzeppelin/contracts/utils/Strings.sol\":1784:1785  2 */\n      0x02\n        /* \"@openzeppelin/contracts/utils/Strings.sol\":1784:1794  2 * length */\n      tag_251\n      swap2\n      swap1\n      tag_252\n      jump\t// in\n    tag_251:\n        /* \"@openzeppelin/contracts/utils/Strings.sol\":1784:1798  2 * length + 2 */\n      tag_253\n      swap2\n      swap1\n      tag_254\n      jump\t// in\n    tag_253:\n        /* \"@openzeppelin/contracts/utils/Strings.sol\":1774:1799  new bytes(2 * length + 2) */\n      0xffffffffffffffff\n      dup2\n      gt\n      iszero\n      tag_255\n      jumpi\n      tag_256\n      tag_257\n      jump\t// in\n    tag_256:\n    tag_255:\n      mload(0x40)\n      swap1\n      dup1\n      dup3\n      mstore\n      dup1\n      0x1f\n      add\n      not(0x1f)\n      and\n      0x20\n      add\n      dup3\n      add\n      0x40\n      mstore\n      dup1\n      iszero\n      tag_258\n      jumpi\n      dup2\n      0x20\n      add\n      0x01\n      dup3\n      mul\n      dup1\n      calldatasize\n      dup4\n      calldatacopy\n      dup1\n      dup3\n      add\n      swap2\n      pop\n      pop\n      swap1\n      pop\n    tag_258:\n      pop\n        /* \"@openzeppelin/contracts/utils/Strings.sol\":1752:1799  bytes memory buffer = new bytes(2 * length + 2) */\n      swap1\n      pop\n        /* \"@openzeppelin/contracts/utils/Strings.sol\":1809:1824  buffer[0] = \"0\" */\n      0x3000000000000000000000000000000000000000000000000000000000000000\n        /* \"@openzeppelin/contracts/utils/Strings.sol\":1809:1815  buffer */\n      dup2\n        /* \"@openzeppelin/contracts/utils/Strings.sol\":1816:1817  0 */\n      0x00\n        /* \"@openzeppelin/contracts/utils/Strings.sol\":1809:1818  buffer[0] */\n      dup2\n      mload\n      dup2\n      lt\n      tag_259\n      jumpi\n      tag_260\n      tag_153\n      jump\t// in\n    tag_260:\n    tag_259:\n      0x20\n      add\n      add\n        /* \"@openzeppelin/contracts/utils/Strings.sol\":1809:1824  buffer[0] = \"0\" */\n      swap1\n      not(0xffffffffffffffffffffffffffffffffffffffffffffffffffffffffffffff)\n      and\n      swap1\n      dup2\n      0x00\n      byte\n      swap1\n      mstore8\n      pop\n        /* \"@openzeppelin/contracts/utils/Strings.sol\":1834:1849  buffer[1] = \"x\" */\n      0x7800000000000000000000000000000000000000000000000000000000000000\n        /* \"@openzeppelin/contracts/utils/Strings.sol\":1834:1840  buffer */\n      dup2\n        /* \"@openzeppelin/contracts/utils/Strings.sol\":1841:1842  1 */\n      0x01\n        /* \"@openzeppelin/contracts/utils/Strings.sol\":1834:1843  buffer[1] */\n      dup2\n      mload\n      dup2\n      lt\n      tag_261\n      jumpi\n      tag_262\n      tag_153\n      jump\t// in\n    tag_262:\n    tag_261:\n      0x20\n      add\n      add\n        /* \"@openzeppelin/contracts/utils/Strings.sol\":1834:1849  buffer[1] = \"x\" */\n      swap1\n      not(0xffffffffffffffffffffffffffffffffffffffffffffffffffffffffffffff)\n      and\n      swap1\n      dup2\n      0x00\n      byte\n      swap1\n      mstore8\n      pop\n        /* \"@openzeppelin/contracts/utils/Strings.sol\":1864:1873  uint256 i */\n      0x00\n        /* \"@openzeppelin/contracts/utils/Strings.sol\":1889:1890  1 */\n      0x01\n        /* \"@openzeppelin/contracts/utils/Strings.sol\":1880:1886  length */\n      dup5\n        /* \"@openzeppelin/contracts/utils/Strings.sol\":1876:1877  2 */\n      0x02\n        /* \"@openzeppelin/contracts/utils/Strings.sol\":1876:1886  2 * length */\n      tag_266\n      swap2\n      swap1\n      tag_252\n      jump\t// in\n    tag_266:\n        /* \"@openzeppelin/contracts/utils/Strings.sol\":1876:1890  2 * length + 1 */\n      tag_267\n      swap2\n      swap1\n      tag_254\n      jump\t// in\n    tag_267:\n        /* \"@openzeppelin/contracts/utils/Strings.sol\":1864:1890  uint256 i = 2 * length + 1 */\n      swap1\n      pop\n        /* \"@openzeppelin/contracts/utils/Strings.sol\":1859:1991  for (uint256 i = 2 * length + 1; i > 1; --i) {... */\n    tag_263:\n        /* \"@openzeppelin/contracts/utils/Strings.sol\":1896:1897  1 */\n      0x01\n        /* \"@openzeppelin/contracts/utils/Strings.sol\":1892:1893  i */\n      dup2\n        /* \"@openzeppelin/contracts/utils/Strings.sol\":1892:1897  i > 1 */\n      gt\n        /* \"@openzeppelin/contracts/utils/Strings.sol\":1859:1991  for (uint256 i = 2 * length + 1; i > 1; --i) {... */\n      iszero\n      tag_264\n      jumpi\n        /* \"@openzeppelin/contracts/utils/Strings.sol\":1930:1942  _HEX_SYMBOLS */\n      0x3031323334353637383961626364656600000000000000000000000000000000\n        /* \"@openzeppelin/contracts/utils/Strings.sol\":1951:1954  0xf */\n      0x0f\n        /* \"@openzeppelin/contracts/utils/Strings.sol\":1943:1948  value */\n      dup7\n        /* \"@openzeppelin/contracts/utils/Strings.sol\":1943:1954  value & 0xf */\n      and\n        /* \"@openzeppelin/contracts/utils/Strings.sol\":1930:1955  _HEX_SYMBOLS[value & 0xf] */\n      0x10\n      dup2\n      lt\n      tag_268\n      jumpi\n      tag_269\n      tag_153\n      jump\t// in\n    tag_269:\n    tag_268:\n      byte\n      0xf8\n      shl\n        /* \"@openzeppelin/contracts/utils/Strings.sol\":1918:1924  buffer */\n      dup3\n        /* \"@openzeppelin/contracts/utils/Strings.sol\":1925:1926  i */\n      dup3\n        /* \"@openzeppelin/contracts/utils/Strings.sol\":1918:1927  buffer[i] */\n      dup2\n      mload\n      dup2\n      lt\n      tag_270\n      jumpi\n      tag_271\n      tag_153\n      jump\t// in\n    tag_271:\n    tag_270:\n      0x20\n      add\n      add\n        /* \"@openzeppelin/contracts/utils/Strings.sol\":1918:1955  buffer[i] = _HEX_SYMBOLS[value & 0xf] */\n      swap1\n      not(0xffffffffffffffffffffffffffffffffffffffffffffffffffffffffffffff)\n      and\n      swap1\n      dup2\n      0x00\n      byte\n      swap1\n      mstore8\n      pop\n        /* \"@openzeppelin/contracts/utils/Strings.sol\":1979:1980  4 */\n      0x04\n        /* \"@openzeppelin/contracts/utils/Strings.sol\":1969:1980  value >>= 4 */\n      dup6\n      swap1\n      shr\n      swap5\n      pop\n        /* \"@openzeppelin/contracts/utils/Strings.sol\":1899:1902  --i */\n      dup1\n      tag_272\n      swap1\n      tag_273\n      jump\t// in\n    tag_272:\n      swap1\n      pop\n        /* \"@openzeppelin/contracts/utils/Strings.sol\":1859:1991  for (uint256 i = 2 * length + 1; i > 1; --i) {... */\n      jump(tag_263)\n    tag_264:\n      pop\n        /* \"@openzeppelin/contracts/utils/Strings.sol\":2017:2018  0 */\n      0x00\n        /* \"@openzeppelin/contracts/utils/Strings.sol\":2008:2013  value */\n      dup5\n        /* \"@openzeppelin/contracts/utils/Strings.sol\":2008:2018  value == 0 */\n      eq\n        /* \"@openzeppelin/contracts/utils/Strings.sol\":2000:2055  require(value == 0, \"Strings: hex length insufficient\") */\n      tag_274\n      jumpi\n      mload(0x40)\n      0x08c379a000000000000000000000000000000000000000000000000000000000\n      dup2\n      mstore\n      0x04\n      add\n      tag_275\n      swap1\n      tag_276\n      jump\t// in\n    tag_275:\n      mload(0x40)\n      dup1\n      swap2\n      sub\n      swap1\n      revert\n    tag_274:\n        /* \"@openzeppelin/contracts/utils/Strings.sol\":2079:2085  buffer */\n      dup1\n        /* \"@openzeppelin/contracts/utils/Strings.sol\":2065:2086  return string(buffer) */\n      swap2\n      pop\n      pop\n        /* \"@openzeppelin/contracts/utils/Strings.sol\":1652:2093  function toHexString(uint256 value, uint256 length) internal pure returns (string memory) {... */\n      swap3\n      swap2\n      pop\n      pop\n      jump\t// out\n    tag_190:\n      mload(0x40)\n      dup1\n      0x60\n      add\n      0x40\n      mstore\n      dup1\n      0x60\n      dup2\n      mstore\n      0x20\n      add\n      and(0xffffffffffffffffffffffffffffffffffffffff, 0x00)\n      dup2\n      mstore\n      0x20\n      add\n      0x60\n      dup2\n      mstore\n      pop\n      swap1\n      jump\t// out\n    tag_201:\n      dup3\n      dup1\n      sload\n      tag_277\n      swap1\n      tag_113\n      jump\t// in\n    tag_277:\n      swap1\n      0x00\n      mstore\n      keccak256(0x00, 0x20)\n      swap1\n      0x1f\n      add\n      0x20\n      swap1\n      div\n      dup2\n      add\n      swap3\n      dup3\n      tag_279\n      jumpi\n      0x00\n      dup6\n      sstore\n      jump(tag_278)\n    tag_279:\n      dup3\n      0x1f\n      lt\n      tag_280\n      jumpi\n      dup1\n      mload\n      not(0xff)\n      and\n      dup4\n      dup1\n      add\n      or\n      dup6\n      sstore\n      jump(tag_278)\n    tag_280:\n      dup3\n      dup1\n      add\n      0x01\n      add\n      dup6\n      sstore\n      dup3\n      iszero\n      tag_278\n      jumpi\n      swap2\n      dup3\n      add\n    tag_281:\n      dup3\n      dup2\n      gt\n      iszero\n      tag_282\n      jumpi\n      dup3\n      mload\n      dup3\n      sstore\n      swap2\n      0x20\n      add\n      swap2\n      swap1\n      0x01\n      add\n      swap1\n      jump(tag_281)\n    tag_282:\n    tag_278:\n      pop\n      swap1\n      pop\n      tag_283\n      swap2\n      swap1\n      tag_284\n      jump\t// in\n    tag_283:\n      pop\n      swap1\n      jump\t// out\n    tag_284:\n    tag_285:\n      dup1\n      dup3\n      gt\n      iszero\n      tag_286\n      jumpi\n      0x00\n      dup2\n      0x00\n      swap1\n      sstore\n      pop\n      0x01\n      add\n      jump(tag_285)\n    tag_286:\n      pop\n      swap1\n      jump\t// out\n        /* \"#utility.yul\":24:746   */\n    tag_288:\n        /* \"#utility.yul\":120:125   */\n      0x00\n        /* \"#utility.yul\":145:226   */\n      tag_290\n        /* \"#utility.yul\":161:225   */\n      tag_291\n        /* \"#utility.yul\":218:224   */\n      dup5\n        /* \"#utility.yul\":161:225   */\n      tag_292\n      jump\t// in\n    tag_291:\n        /* \"#utility.yul\":145:226   */\n      tag_293\n      jump\t// in\n    tag_290:\n        /* \"#utility.yul\":136:226   */\n      swap1\n      pop\n        /* \"#utility.yul\":246:251   */\n      dup1\n        /* \"#utility.yul\":275:281   */\n      dup4\n        /* \"#utility.yul\":268:273   */\n      dup3\n        /* \"#utility.yul\":261:282   */\n      mstore\n        /* \"#utility.yul\":309:313   */\n      0x20\n        /* \"#utility.yul\":302:307   */\n      dup3\n        /* \"#utility.yul\":298:314   */\n      add\n        /* \"#utility.yul\":291:314   */\n      swap1\n      pop\n        /* \"#utility.yul\":335:341   */\n      dup3\n        /* \"#utility.yul\":385:388   */\n      dup6\n        /* \"#utility.yul\":377:381   */\n      0x20\n        /* \"#utility.yul\":369:375   */\n      dup7\n        /* \"#utility.yul\":365:382   */\n      mul\n        /* \"#utility.yul\":360:363   */\n      dup3\n        /* \"#utility.yul\":356:383   */\n      add\n        /* \"#utility.yul\":353:389   */\n      gt\n        /* \"#utility.yul\":350:493   */\n      iszero\n      tag_294\n      jumpi\n        /* \"#utility.yul\":404:483   */\n      tag_295\n      tag_296\n      jump\t// in\n    tag_295:\n        /* \"#utility.yul\":350:493   */\n    tag_294:\n        /* \"#utility.yul\":517:518   */\n      0x00\n        /* \"#utility.yul\":502:740   */\n    tag_297:\n        /* \"#utility.yul\":527:533   */\n      dup6\n        /* \"#utility.yul\":524:525   */\n      dup2\n        /* \"#utility.yul\":521:534   */\n      lt\n        /* \"#utility.yul\":502:740   */\n      iszero\n      tag_299\n      jumpi\n        /* \"#utility.yul\":595:598   */\n      dup2\n        /* \"#utility.yul\":624:661   */\n      tag_300\n        /* \"#utility.yul\":657:660   */\n      dup9\n        /* \"#utility.yul\":645:655   */\n      dup3\n        /* \"#utility.yul\":624:661   */\n      tag_301\n      jump\t// in\n    tag_300:\n        /* \"#utility.yul\":619:622   */\n      dup5\n        /* \"#utility.yul\":612:662   */\n      mstore\n        /* \"#utility.yul\":691:695   */\n      0x20\n        /* \"#utility.yul\":686:689   */\n      dup5\n        /* \"#utility.yul\":682:696   */\n      add\n        /* \"#utility.yul\":675:696   */\n      swap4\n      pop\n        /* \"#utility.yul\":725:729   */\n      0x20\n        /* \"#utility.yul\":720:723   */\n      dup4\n        /* \"#utility.yul\":716:730   */\n      add\n        /* \"#utility.yul\":709:730   */\n      swap3\n      pop\n        /* \"#utility.yul\":562:740   */\n      pop\n        /* \"#utility.yul\":549:550   */\n      0x01\n        /* \"#utility.yul\":546:547   */\n      dup2\n        /* \"#utility.yul\":542:551   */\n      add\n        /* \"#utility.yul\":537:551   */\n      swap1\n      pop\n        /* \"#utility.yul\":502:740   */\n      jump(tag_297)\n    tag_299:\n        /* \"#utility.yul\":506:520   */\n      pop\n        /* \"#utility.yul\":126:746   */\n      pop\n      pop\n        /* \"#utility.yul\":24:746   */\n      swap4\n      swap3\n      pop\n      pop\n      pop\n      jump\t// out\n        /* \"#utility.yul\":752:1164   */\n    tag_302:\n        /* \"#utility.yul\":830:835   */\n      0x00\n        /* \"#utility.yul\":855:921   */\n      tag_304\n        /* \"#utility.yul\":871:920   */\n      tag_305\n        /* \"#utility.yul\":913:919   */\n      dup5\n        /* \"#utility.yul\":871:920   */\n      tag_306\n      jump\t// in\n    tag_305:\n        /* \"#utility.yul\":855:921   */\n      tag_293\n      jump\t// in\n    tag_304:\n        /* \"#utility.yul\":846:921   */\n      swap1\n      pop\n        /* \"#utility.yul\":944:950   */\n      dup3\n        /* \"#utility.yul\":937:942   */\n      dup2\n        /* \"#utility.yul\":930:951   */\n      mstore\n        /* \"#utility.yul\":982:986   */\n      0x20\n        /* \"#utility.yul\":975:980   */\n      dup2\n        /* \"#utility.yul\":971:987   */\n      add\n        /* \"#utility.yul\":1020:1023   */\n      dup5\n        /* \"#utility.yul\":1011:1017   */\n      dup5\n        /* \"#utility.yul\":1006:1009   */\n      dup5\n        /* \"#utility.yul\":1002:1018   */\n      add\n        /* \"#utility.yul\":999:1024   */\n      gt\n        /* \"#utility.yul\":996:1108   */\n      iszero\n      tag_307\n      jumpi\n        /* \"#utility.yul\":1027:1106   */\n      tag_308\n      tag_309\n      jump\t// in\n    tag_308:\n        /* \"#utility.yul\":996:1108   */\n    tag_307:\n        /* \"#utility.yul\":1117:1158   */\n      tag_310\n        /* \"#utility.yul\":1151:1157   */\n      dup5\n        /* \"#utility.yul\":1146:1149   */\n      dup3\n        /* \"#utility.yul\":1141:1144   */\n      dup6\n        /* \"#utility.yul\":1117:1158   */\n      tag_311\n      jump\t// in\n    tag_310:\n        /* \"#utility.yul\":836:1164   */\n      pop\n        /* \"#utility.yul\":752:1164   */\n      swap4\n      swap3\n      pop\n      pop\n      pop\n      jump\t// out\n        /* \"#utility.yul\":1170:1309   */\n    tag_301:\n        /* \"#utility.yul\":1216:1221   */\n      0x00\n        /* \"#utility.yul\":1254:1260   */\n      dup2\n        /* \"#utility.yul\":1241:1261   */\n      calldataload\n        /* \"#utility.yul\":1232:1261   */\n      swap1\n      pop\n        /* \"#utility.yul\":1270:1303   */\n      tag_313\n        /* \"#utility.yul\":1297:1302   */\n      dup2\n        /* \"#utility.yul\":1270:1303   */\n      tag_314\n      jump\t// in\n    tag_313:\n        /* \"#utility.yul\":1170:1309   */\n      swap3\n      swap2\n      pop\n      pop\n      jump\t// out\n        /* \"#utility.yul\":1332:1702   */\n    tag_315:\n        /* \"#utility.yul\":1403:1408   */\n      0x00\n        /* \"#utility.yul\":1452:1455   */\n      dup3\n        /* \"#utility.yul\":1445:1449   */\n      0x1f\n        /* \"#utility.yul\":1437:1443   */\n      dup4\n        /* \"#utility.yul\":1433:1450   */\n      add\n        /* \"#utility.yul\":1429:1456   */\n      slt\n        /* \"#utility.yul\":1419:1541   */\n      tag_317\n      jumpi\n        /* \"#utility.yul\":1460:1539   */\n      tag_318\n      tag_319\n      jump\t// in\n    tag_318:\n        /* \"#utility.yul\":1419:1541   */\n    tag_317:\n        /* \"#utility.yul\":1577:1583   */\n      dup2\n        /* \"#utility.yul\":1564:1584   */\n      calldataload\n        /* \"#utility.yul\":1602:1696   */\n      tag_320\n        /* \"#utility.yul\":1692:1695   */\n      dup5\n        /* \"#utility.yul\":1684:1690   */\n      dup3\n        /* \"#utility.yul\":1677:1681   */\n      0x20\n        /* \"#utility.yul\":1669:1675   */\n      dup7\n        /* \"#utility.yul\":1665:1682   */\n      add\n        /* \"#utility.yul\":1602:1696   */\n      tag_288\n      jump\t// in\n    tag_320:\n        /* \"#utility.yul\":1593:1696   */\n      swap2\n      pop\n        /* \"#utility.yul\":1409:1702   */\n      pop\n        /* \"#utility.yul\":1332:1702   */\n      swap3\n      swap2\n      pop\n      pop\n      jump\t// out\n        /* \"#utility.yul\":1708:1847   */\n    tag_321:\n        /* \"#utility.yul\":1754:1759   */\n      0x00\n        /* \"#utility.yul\":1792:1798   */\n      dup2\n        /* \"#utility.yul\":1779:1799   */\n      calldataload\n        /* \"#utility.yul\":1770:1799   */\n      swap1\n      pop\n        /* \"#utility.yul\":1808:1841   */\n      tag_323\n        /* \"#utility.yul\":1835:1840   */\n      dup2\n        /* \"#utility.yul\":1808:1841   */\n      tag_324\n      jump\t// in\n    tag_323:\n        /* \"#utility.yul\":1708:1847   */\n      swap3\n      swap2\n      pop\n      pop\n      jump\t// out\n        /* \"#utility.yul\":1853:1990   */\n    tag_325:\n        /* \"#utility.yul\":1898:1903   */\n      0x00\n        /* \"#utility.yul\":1936:1942   */\n      dup2\n        /* \"#utility.yul\":1923:1943   */\n      calldataload\n        /* \"#utility.yul\":1914:1943   */\n      swap1\n      pop\n        /* \"#utility.yul\":1952:1984   */\n      tag_327\n        /* \"#utility.yul\":1978:1983   */\n      dup2\n        /* \"#utility.yul\":1952:1984   */\n      tag_328\n      jump\t// in\n    tag_327:\n        /* \"#utility.yul\":1853:1990   */\n      swap3\n      swap2\n      pop\n      pop\n      jump\t// out\n        /* \"#utility.yul\":2010:2350   */\n    tag_329:\n        /* \"#utility.yul\":2066:2071   */\n      0x00\n        /* \"#utility.yul\":2115:2118   */\n      dup3\n        /* \"#utility.yul\":2108:2112   */\n      0x1f\n        /* \"#utility.yul\":2100:2106   */\n      dup4\n        /* \"#utility.yul\":2096:2113   */\n      add\n        /* \"#utility.yul\":2092:2119   */\n      slt\n        /* \"#utility.yul\":2082:2204   */\n      tag_331\n      jumpi\n        /* \"#utility.yul\":2123:2202   */\n      tag_332\n      tag_319\n      jump\t// in\n    tag_332:\n        /* \"#utility.yul\":2082:2204   */\n    tag_331:\n        /* \"#utility.yul\":2240:2246   */\n      dup2\n        /* \"#utility.yul\":2227:2247   */\n      calldataload\n        /* \"#utility.yul\":2265:2344   */\n      tag_333\n        /* \"#utility.yul\":2340:2343   */\n      dup5\n        /* \"#utility.yul\":2332:2338   */\n      dup3\n        /* \"#utility.yul\":2325:2329   */\n      0x20\n        /* \"#utility.yul\":2317:2323   */\n      dup7\n        /* \"#utility.yul\":2313:2330   */\n      add\n        /* \"#utility.yul\":2265:2344   */\n      tag_302\n      jump\t// in\n    tag_333:\n        /* \"#utility.yul\":2256:2344   */\n      swap2\n      pop\n        /* \"#utility.yul\":2072:2350   */\n      pop\n        /* \"#utility.yul\":2010:2350   */\n      swap3\n      swap2\n      pop\n      pop\n      jump\t// out\n        /* \"#utility.yul\":2356:2495   */\n    tag_334:\n        /* \"#utility.yul\":2402:2407   */\n      0x00\n        /* \"#utility.yul\":2440:2446   */\n      dup2\n        /* \"#utility.yul\":2427:2447   */\n      calldataload\n        /* \"#utility.yul\":2418:2447   */\n      swap1\n      pop\n        /* \"#utility.yul\":2456:2489   */\n      tag_336\n        /* \"#utility.yul\":2483:2488   */\n      dup2\n        /* \"#utility.yul\":2456:2489   */\n      tag_337\n      jump\t// in\n    tag_336:\n        /* \"#utility.yul\":2356:2495   */\n      swap3\n      swap2\n      pop\n      pop\n      jump\t// out\n        /* \"#utility.yul\":2501:2830   */\n    tag_100:\n        /* \"#utility.yul\":2560:2566   */\n      0x00\n        /* \"#utility.yul\":2609:2611   */\n      0x20\n        /* \"#utility.yul\":2597:2606   */\n      dup3\n        /* \"#utility.yul\":2588:2595   */\n      dup5\n        /* \"#utility.yul\":2584:2607   */\n      sub\n        /* \"#utility.yul\":2580:2612   */\n      slt\n        /* \"#utility.yul\":2577:2696   */\n      iszero\n      tag_339\n      jumpi\n        /* \"#utility.yul\":2615:2694   */\n      tag_340\n      tag_341\n      jump\t// in\n    tag_340:\n        /* \"#utility.yul\":2577:2696   */\n    tag_339:\n        /* \"#utility.yul\":2735:2736   */\n      0x00\n        /* \"#utility.yul\":2760:2813   */\n      tag_342\n        /* \"#utility.yul\":2805:2812   */\n      dup5\n        /* \"#utility.yul\":2796:2802   */\n      dup3\n        /* \"#utility.yul\":2785:2794   */\n      dup6\n        /* \"#utility.yul\":2781:2803   */\n      add\n        /* \"#utility.yul\":2760:2813   */\n      tag_301\n      jump\t// in\n    tag_342:\n        /* \"#utility.yul\":2750:2813   */\n      swap2\n      pop\n        /* \"#utility.yul\":2706:2823   */\n      pop\n        /* \"#utility.yul\":2501:2830   */\n      swap3\n      swap2\n      pop\n      pop\n      jump\t// out\n        /* \"#utility.yul\":2836:3665   */\n    tag_65:\n        /* \"#utility.yul\":2938:2944   */\n      0x00\n        /* \"#utility.yul\":2946:2952   */\n      dup1\n        /* \"#utility.yul\":2954:2960   */\n      0x00\n        /* \"#utility.yul\":3003:3005   */\n      0x60\n        /* \"#utility.yul\":2991:3000   */\n      dup5\n        /* \"#utility.yul\":2982:2989   */\n      dup7\n        /* \"#utility.yul\":2978:3001   */\n      sub\n        /* \"#utility.yul\":2974:3006   */\n      slt\n        /* \"#utility.yul\":2971:3090   */\n      iszero\n      tag_344\n      jumpi\n        /* \"#utility.yul\":3009:3088   */\n      tag_345\n      tag_341\n      jump\t// in\n    tag_345:\n        /* \"#utility.yul\":2971:3090   */\n    tag_344:\n        /* \"#utility.yul\":3157:3158   */\n      0x00\n        /* \"#utility.yul\":3146:3155   */\n      dup5\n        /* \"#utility.yul\":3142:3159   */\n      add\n        /* \"#utility.yul\":3129:3160   */\n      calldataload\n        /* \"#utility.yul\":3187:3205   */\n      0xffffffffffffffff\n        /* \"#utility.yul\":3179:3185   */\n      dup2\n        /* \"#utility.yul\":3176:3206   */\n      gt\n        /* \"#utility.yul\":3173:3290   */\n      iszero\n      tag_346\n      jumpi\n        /* \"#utility.yul\":3209:3288   */\n      tag_347\n      tag_348\n      jump\t// in\n    tag_347:\n        /* \"#utility.yul\":3173:3290   */\n    tag_346:\n        /* \"#utility.yul\":3314:3392   */\n      tag_349\n        /* \"#utility.yul\":3384:3391   */\n      dup7\n        /* \"#utility.yul\":3375:3381   */\n      dup3\n        /* \"#utility.yul\":3364:3373   */\n      dup8\n        /* \"#utility.yul\":3360:3382   */\n      add\n        /* \"#utility.yul\":3314:3392   */\n      tag_315\n      jump\t// in\n    tag_349:\n        /* \"#utility.yul\":3304:3392   */\n      swap4\n      pop\n        /* \"#utility.yul\":3100:3402   */\n      pop\n        /* \"#utility.yul\":3441:3443   */\n      0x20\n        /* \"#utility.yul\":3467:3520   */\n      tag_350\n        /* \"#utility.yul\":3512:3519   */\n      dup7\n        /* \"#utility.yul\":3503:3509   */\n      dup3\n        /* \"#utility.yul\":3492:3501   */\n      dup8\n        /* \"#utility.yul\":3488:3510   */\n      add\n        /* \"#utility.yul\":3467:3520   */\n      tag_334\n      jump\t// in\n    tag_350:\n        /* \"#utility.yul\":3457:3520   */\n      swap3\n      pop\n        /* \"#utility.yul\":3412:3530   */\n      pop\n        /* \"#utility.yul\":3569:3571   */\n      0x40\n        /* \"#utility.yul\":3595:3648   */\n      tag_351\n        /* \"#utility.yul\":3640:3647   */\n      dup7\n        /* \"#utility.yul\":3631:3637   */\n      dup3\n        /* \"#utility.yul\":3620:3629   */\n      dup8\n        /* \"#utility.yul\":3616:3638   */\n      add\n        /* \"#utility.yul\":3595:3648   */\n      tag_334\n      jump\t// in\n    tag_351:\n        /* \"#utility.yul\":3585:3648   */\n      swap2\n      pop\n        /* \"#utility.yul\":3540:3658   */\n      pop\n        /* \"#utility.yul\":2836:3665   */\n      swap3\n      pop\n      swap3\n      pop\n      swap3\n      jump\t// out\n        /* \"#utility.yul\":3671:4000   */\n    tag_34:\n        /* \"#utility.yul\":3730:3736   */\n      0x00\n        /* \"#utility.yul\":3779:3781   */\n      0x20\n        /* \"#utility.yul\":3767:3776   */\n      dup3\n        /* \"#utility.yul\":3758:3765   */\n      dup5\n        /* \"#utility.yul\":3754:3777   */\n      sub\n        /* \"#utility.yul\":3750:3782   */\n      slt\n        /* \"#utility.yul\":3747:3866   */\n      iszero\n      tag_353\n      jumpi\n        /* \"#utility.yul\":3785:3864   */\n      tag_354\n      tag_341\n      jump\t// in\n    tag_354:\n        /* \"#utility.yul\":3747:3866   */\n    tag_353:\n        /* \"#utility.yul\":3905:3906   */\n      0x00\n        /* \"#utility.yul\":3930:3983   */\n      tag_355\n        /* \"#utility.yul\":3975:3982   */\n      dup5\n        /* \"#utility.yul\":3966:3972   */\n      dup3\n        /* \"#utility.yul\":3955:3964   */\n      dup6\n        /* \"#utility.yul\":3951:3973   */\n      add\n        /* \"#utility.yul\":3930:3983   */\n      tag_321\n      jump\t// in\n    tag_355:\n        /* \"#utility.yul\":3920:3983   */\n      swap2\n      pop\n        /* \"#utility.yul\":3876:3993   */\n      pop\n        /* \"#utility.yul\":3671:4000   */\n      swap3\n      swap2\n      pop\n      pop\n      jump\t// out\n        /* \"#utility.yul\":4006:4480   */\n    tag_49:\n        /* \"#utility.yul\":4074:4080   */\n      0x00\n        /* \"#utility.yul\":4082:4088   */\n      dup1\n        /* \"#utility.yul\":4131:4133   */\n      0x40\n        /* \"#utility.yul\":4119:4128   */\n      dup4\n        /* \"#utility.yul\":4110:4117   */\n      dup6\n        /* \"#utility.yul\":4106:4129   */\n      sub\n        /* \"#utility.yul\":4102:4134   */\n      slt\n        /* \"#utility.yul\":4099:4218   */\n      iszero\n      tag_357\n      jumpi\n        /* \"#utility.yul\":4137:4216   */\n      tag_358\n      tag_341\n      jump\t// in\n    tag_358:\n        /* \"#utility.yul\":4099:4218   */\n    tag_357:\n        /* \"#utility.yul\":4257:4258   */\n      0x00\n        /* \"#utility.yul\":4282:4335   */\n      tag_359\n        /* \"#utility.yul\":4327:4334   */\n      dup6\n        /* \"#utility.yul\":4318:4324   */\n      dup3\n        /* \"#utility.yul\":4307:4316   */\n      dup7\n        /* \"#utility.yul\":4303:4325   */\n      add\n        /* \"#utility.yul\":4282:4335   */\n      tag_321\n      jump\t// in\n    tag_359:\n        /* \"#utility.yul\":4272:4335   */\n      swap3\n      pop\n        /* \"#utility.yul\":4228:4345   */\n      pop\n        /* \"#utility.yul\":4384:4386   */\n      0x20\n        /* \"#utility.yul\":4410:4463   */\n      tag_360\n        /* \"#utility.yul\":4455:4462   */\n      dup6\n        /* \"#utility.yul\":4446:4452   */\n      dup3\n        /* \"#utility.yul\":4435:4444   */\n      dup7\n        /* \"#utility.yul\":4431:4453   */\n      add\n        /* \"#utility.yul\":4410:4463   */\n      tag_301\n      jump\t// in\n    tag_360:\n        /* \"#utility.yul\":4400:4463   */\n      swap2\n      pop\n        /* \"#utility.yul\":4355:4473   */\n      pop\n        /* \"#utility.yul\":4006:4480   */\n      swap3\n      pop\n      swap3\n      swap1\n      pop\n      jump\t// out\n        /* \"#utility.yul\":4486:4813   */\n    tag_28:\n        /* \"#utility.yul\":4544:4550   */\n      0x00\n        /* \"#utility.yul\":4593:4595   */\n      0x20\n        /* \"#utility.yul\":4581:4590   */\n      dup3\n        /* \"#utility.yul\":4572:4579   */\n      dup5\n        /* \"#utility.yul\":4568:4591   */\n      sub\n        /* \"#utility.yul\":4564:4596   */\n      slt\n        /* \"#utility.yul\":4561:4680   */\n      iszero\n      tag_362\n      jumpi\n        /* \"#utility.yul\":4599:4678   */\n      tag_363\n      tag_341\n      jump\t// in\n    tag_363:\n        /* \"#utility.yul\":4561:4680   */\n    tag_362:\n        /* \"#utility.yul\":4719:4720   */\n      0x00\n        /* \"#utility.yul\":4744:4796   */\n      tag_364\n        /* \"#utility.yul\":4788:4795   */\n      dup5\n        /* \"#utility.yul\":4779:4785   */\n      dup3\n        /* \"#utility.yul\":4768:4777   */\n      dup6\n        /* \"#utility.yul\":4764:4786   */\n      add\n        /* \"#utility.yul\":4744:4796   */\n      tag_325\n      jump\t// in\n    tag_364:\n        /* \"#utility.yul\":4734:4796   */\n      swap2\n      pop\n        /* \"#utility.yul\":4690:4806   */\n      pop\n        /* \"#utility.yul\":4486:4813   */\n      swap3\n      swap2\n      pop\n      pop\n      jump\t// out\n        /* \"#utility.yul\":4819:5618   */\n    tag_93:\n        /* \"#utility.yul\":4906:4912   */\n      0x00\n        /* \"#utility.yul\":4914:4920   */\n      dup1\n        /* \"#utility.yul\":4922:4928   */\n      0x00\n        /* \"#utility.yul\":4971:4973   */\n      0x60\n        /* \"#utility.yul\":4959:4968   */\n      dup5\n        /* \"#utility.yul\":4950:4957   */\n      dup7\n        /* \"#utility.yul\":4946:4969   */\n      sub\n        /* \"#utility.yul\":4942:4974   */\n      slt\n        /* \"#utility.yul\":4939:5058   */\n      iszero\n      tag_366\n      jumpi\n        /* \"#utility.yul\":4977:5056   */\n      tag_367\n      tag_341\n      jump\t// in\n    tag_367:\n        /* \"#utility.yul\":4939:5058   */\n    tag_366:\n        /* \"#utility.yul\":5125:5126   */\n      0x00\n        /* \"#utility.yul\":5114:5123   */\n      dup5\n        /* \"#utility.yul\":5110:5127   */\n      add\n        /* \"#utility.yul\":5097:5128   */\n      calldataload\n        /* \"#utility.yul\":5155:5173   */\n      0xffffffffffffffff\n        /* \"#utility.yul\":5147:5153   */\n      dup2\n        /* \"#utility.yul\":5144:5174   */\n      gt\n        /* \"#utility.yul\":5141:5258   */\n      iszero\n      tag_368\n      jumpi\n        /* \"#utility.yul\":5177:5256   */\n      tag_369\n      tag_348\n      jump\t// in\n    tag_369:\n        /* \"#utility.yul\":5141:5258   */\n    tag_368:\n        /* \"#utility.yul\":5282:5345   */\n      tag_370\n        /* \"#utility.yul\":5337:5344   */\n      dup7\n        /* \"#utility.yul\":5328:5334   */\n      dup3\n        /* \"#utility.yul\":5317:5326   */\n      dup8\n        /* \"#utility.yul\":5313:5335   */\n      add\n        /* \"#utility.yul\":5282:5345   */\n      tag_329\n      jump\t// in\n    tag_370:\n        /* \"#utility.yul\":5272:5345   */\n      swap4\n      pop\n        /* \"#utility.yul\":5068:5355   */\n      pop\n        /* \"#utility.yul\":5394:5396   */\n      0x20\n        /* \"#utility.yul\":5420:5473   */\n      tag_371\n        /* \"#utility.yul\":5465:5472   */\n      dup7\n        /* \"#utility.yul\":5456:5462   */\n      dup3\n        /* \"#utility.yul\":5445:5454   */\n      dup8\n        /* \"#utility.yul\":5441:5463   */\n      add\n        /* \"#utility.yul\":5420:5473   */\n      tag_301\n      jump\t// in\n    tag_371:\n        /* \"#utility.yul\":5410:5473   */\n      swap3\n      pop\n        /* \"#utility.yul\":5365:5483   */\n      pop\n        /* \"#utility.yul\":5522:5524   */\n      0x40\n        /* \"#utility.yul\":5548:5601   */\n      tag_372\n        /* \"#utility.yul\":5593:5600   */\n      dup7\n        /* \"#utility.yul\":5584:5590   */\n      dup3\n        /* \"#utility.yul\":5573:5582   */\n      dup8\n        /* \"#utility.yul\":5569:5591   */\n      add\n        /* \"#utility.yul\":5548:5601   */\n      tag_334\n      jump\t// in\n    tag_372:\n        /* \"#utility.yul\":5538:5601   */\n      swap2\n      pop\n        /* \"#utility.yul\":5493:5611   */\n      pop\n        /* \"#utility.yul\":4819:5618   */\n      swap3\n      pop\n      swap3\n      pop\n      swap3\n      jump\t// out\n        /* \"#utility.yul\":5624:5953   */\n    tag_40:\n        /* \"#utility.yul\":5683:5689   */\n      0x00\n        /* \"#utility.yul\":5732:5734   */\n      0x20\n        /* \"#utility.yul\":5720:5729   */\n      dup3\n        /* \"#utility.yul\":5711:5718   */\n      dup5\n        /* \"#utility.yul\":5707:5730   */\n      sub\n        /* \"#utility.yul\":5703:5735   */\n      slt\n        /* \"#utility.yul\":5700:5819   */\n      iszero\n      tag_374\n      jumpi\n        /* \"#utility.yul\":5738:5817   */\n      tag_375\n      tag_341\n      jump\t// in\n    tag_375:\n        /* \"#utility.yul\":5700:5819   */\n    tag_374:\n        /* \"#utility.yul\":5858:5859   */\n      0x00\n        /* \"#utility.yul\":5883:5936   */\n      tag_376\n        /* \"#utility.yul\":5928:5935   */\n      dup5\n        /* \"#utility.yul\":5919:5925   */\n      dup3\n        /* \"#utility.yul\":5908:5917   */\n      dup6\n        /* \"#utility.yul\":5904:5926   */\n      add\n        /* \"#utility.yul\":5883:5936   */\n      tag_334\n      jump\t// in\n    tag_376:\n        /* \"#utility.yul\":5873:5936   */\n      swap2\n      pop\n        /* \"#utility.yul\":5829:5946   */\n      pop\n        /* \"#utility.yul\":5624:5953   */\n      swap3\n      swap2\n      pop\n      pop\n      jump\t// out\n        /* \"#utility.yul\":5959:6433   */\n    tag_61:\n        /* \"#utility.yul\":6027:6033   */\n      0x00\n        /* \"#utility.yul\":6035:6041   */\n      dup1\n        /* \"#utility.yul\":6084:6086   */\n      0x40\n        /* \"#utility.yul\":6072:6081   */\n      dup4\n        /* \"#utility.yul\":6063:6070   */\n      dup6\n        /* \"#utility.yul\":6059:6082   */\n      sub\n        /* \"#utility.yul\":6055:6087   */\n      slt\n        /* \"#utility.yul\":6052:6171   */\n      iszero\n      tag_378\n      jumpi\n        /* \"#utility.yul\":6090:6169   */\n      tag_379\n      tag_341\n      jump\t// in\n    tag_379:\n        /* \"#utility.yul\":6052:6171   */\n    tag_378:\n        /* \"#utility.yul\":6210:6211   */\n      0x00\n        /* \"#utility.yul\":6235:6288   */\n      tag_380\n        /* \"#utility.yul\":6280:6287   */\n      dup6\n        /* \"#utility.yul\":6271:6277   */\n      dup3\n        /* \"#utility.yul\":6260:6269   */\n      dup7\n        /* \"#utility.yul\":6256:6278   */\n      add\n        /* \"#utility.yul\":6235:6288   */\n      tag_334\n      jump\t// in\n    tag_380:\n        /* \"#utility.yul\":6225:6288   */\n      swap3\n      pop\n        /* \"#utility.yul\":6181:6298   */\n      pop\n        /* \"#utility.yul\":6337:6339   */\n      0x20\n        /* \"#utility.yul\":6363:6416   */\n      tag_381\n        /* \"#utility.yul\":6408:6415   */\n      dup6\n        /* \"#utility.yul\":6399:6405   */\n      dup3\n        /* \"#utility.yul\":6388:6397   */\n      dup7\n        /* \"#utility.yul\":6384:6406   */\n      add\n        /* \"#utility.yul\":6363:6416   */\n      tag_334\n      jump\t// in\n    tag_381:\n        /* \"#utility.yul\":6353:6416   */\n      swap2\n      pop\n        /* \"#utility.yul\":6308:6426   */\n      pop\n        /* \"#utility.yul\":5959:6433   */\n      swap3\n      pop\n      swap3\n      swap1\n      pop\n      jump\t// out\n        /* \"#utility.yul\":6439:6557   */\n    tag_382:\n        /* \"#utility.yul\":6526:6550   */\n      tag_384\n        /* \"#utility.yul\":6544:6549   */\n      dup2\n        /* \"#utility.yul\":6526:6550   */\n      tag_385\n      jump\t// in\n    tag_384:\n        /* \"#utility.yul\":6521:6524   */\n      dup3\n        /* \"#utility.yul\":6514:6551   */\n      mstore\n        /* \"#utility.yul\":6439:6557   */\n      pop\n      pop\n      jump\t// out\n        /* \"#utility.yul\":6563:6672   */\n    tag_386:\n        /* \"#utility.yul\":6644:6665   */\n      tag_388\n        /* \"#utility.yul\":6659:6664   */\n      dup2\n        /* \"#utility.yul\":6644:6665   */\n      tag_389\n      jump\t// in\n    tag_388:\n        /* \"#utility.yul\":6639:6642   */\n      dup3\n        /* \"#utility.yul\":6632:6666   */\n      mstore\n        /* \"#utility.yul\":6563:6672   */\n      pop\n      pop\n      jump\t// out\n        /* \"#utility.yul\":6678:6796   */\n    tag_390:\n        /* \"#utility.yul\":6765:6789   */\n      tag_392\n        /* \"#utility.yul\":6783:6788   */\n      dup2\n        /* \"#utility.yul\":6765:6789   */\n      tag_393\n      jump\t// in\n    tag_392:\n        /* \"#utility.yul\":6760:6763   */\n      dup3\n        /* \"#utility.yul\":6753:6790   */\n      mstore\n        /* \"#utility.yul\":6678:6796   */\n      pop\n      pop\n      jump\t// out\n        /* \"#utility.yul\":6802:7166   */\n    tag_394:\n        /* \"#utility.yul\":6890:6893   */\n      0x00\n        /* \"#utility.yul\":6918:6957   */\n      tag_396\n        /* \"#utility.yul\":6951:6956   */\n      dup3\n        /* \"#utility.yul\":6918:6957   */\n      tag_397\n      jump\t// in\n    tag_396:\n        /* \"#utility.yul\":6973:7044   */\n      tag_398\n        /* \"#utility.yul\":7037:7043   */\n      dup2\n        /* \"#utility.yul\":7032:7035   */\n      dup6\n        /* \"#utility.yul\":6973:7044   */\n      tag_399\n      jump\t// in\n    tag_398:\n        /* \"#utility.yul\":6966:7044   */\n      swap4\n      pop\n        /* \"#utility.yul\":7053:7105   */\n      tag_400\n        /* \"#utility.yul\":7098:7104   */\n      dup2\n        /* \"#utility.yul\":7093:7096   */\n      dup6\n        /* \"#utility.yul\":7086:7090   */\n      0x20\n        /* \"#utility.yul\":7079:7084   */\n      dup7\n        /* \"#utility.yul\":7075:7091   */\n      add\n        /* \"#utility.yul\":7053:7105   */\n      tag_401\n      jump\t// in\n    tag_400:\n        /* \"#utility.yul\":7130:7159   */\n      tag_402\n        /* \"#utility.yul\":7152:7158   */\n      dup2\n        /* \"#utility.yul\":7130:7159   */\n      tag_403\n      jump\t// in\n    tag_402:\n        /* \"#utility.yul\":7125:7128   */\n      dup5\n        /* \"#utility.yul\":7121:7160   */\n      add\n        /* \"#utility.yul\":7114:7160   */\n      swap2\n      pop\n        /* \"#utility.yul\":6894:7166   */\n      pop\n        /* \"#utility.yul\":6802:7166   */\n      swap3\n      swap2\n      pop\n      pop\n      jump\t// out\n        /* \"#utility.yul\":7172:7549   */\n    tag_404:\n        /* \"#utility.yul\":7278:7281   */\n      0x00\n        /* \"#utility.yul\":7306:7345   */\n      tag_406\n        /* \"#utility.yul\":7339:7344   */\n      dup3\n        /* \"#utility.yul\":7306:7345   */\n      tag_397\n      jump\t// in\n    tag_406:\n        /* \"#utility.yul\":7361:7450   */\n      tag_407\n        /* \"#utility.yul\":7443:7449   */\n      dup2\n        /* \"#utility.yul\":7438:7441   */\n      dup6\n        /* \"#utility.yul\":7361:7450   */\n      tag_408\n      jump\t// in\n    tag_407:\n        /* \"#utility.yul\":7354:7450   */\n      swap4\n      pop\n        /* \"#utility.yul\":7459:7511   */\n      tag_409\n        /* \"#utility.yul\":7504:7510   */\n      dup2\n        /* \"#utility.yul\":7499:7502   */\n      dup6\n        /* \"#utility.yul\":7492:7496   */\n      0x20\n        /* \"#utility.yul\":7485:7490   */\n      dup7\n        /* \"#utility.yul\":7481:7497   */\n      add\n        /* \"#utility.yul\":7459:7511   */\n      tag_401\n      jump\t// in\n    tag_409:\n        /* \"#utility.yul\":7536:7542   */\n      dup1\n        /* \"#utility.yul\":7531:7534   */\n      dup5\n        /* \"#utility.yul\":7527:7543   */\n      add\n        /* \"#utility.yul\":7520:7543   */\n      swap2\n      pop\n        /* \"#utility.yul\":7282:7549   */\n      pop\n        /* \"#utility.yul\":7172:7549   */\n      swap3\n      swap2\n      pop\n      pop\n      jump\t// out\n        /* \"#utility.yul\":7555:7921   */\n    tag_410:\n        /* \"#utility.yul\":7697:7700   */\n      0x00\n        /* \"#utility.yul\":7718:7785   */\n      tag_412\n        /* \"#utility.yul\":7782:7784   */\n      0x20\n        /* \"#utility.yul\":7777:7780   */\n      dup4\n        /* \"#utility.yul\":7718:7785   */\n      tag_399\n      jump\t// in\n    tag_412:\n        /* \"#utility.yul\":7711:7785   */\n      swap2\n      pop\n        /* \"#utility.yul\":7794:7887   */\n      tag_413\n        /* \"#utility.yul\":7883:7886   */\n      dup3\n        /* \"#utility.yul\":7794:7887   */\n      tag_414\n      jump\t// in\n    tag_413:\n        /* \"#utility.yul\":7912:7914   */\n      0x20\n        /* \"#utility.yul\":7907:7910   */\n      dup3\n        /* \"#utility.yul\":7903:7915   */\n      add\n        /* \"#utility.yul\":7896:7915   */\n      swap1\n      pop\n        /* \"#utility.yul\":7555:7921   */\n      swap2\n      swap1\n      pop\n      jump\t// out\n        /* \"#utility.yul\":7927:8293   */\n    tag_415:\n        /* \"#utility.yul\":8069:8072   */\n      0x00\n        /* \"#utility.yul\":8090:8157   */\n      tag_417\n        /* \"#utility.yul\":8154:8156   */\n      0x26\n        /* \"#utility.yul\":8149:8152   */\n      dup4\n        /* \"#utility.yul\":8090:8157   */\n      tag_399\n      jump\t// in\n    tag_417:\n        /* \"#utility.yul\":8083:8157   */\n      swap2\n      pop\n        /* \"#utility.yul\":8166:8259   */\n      tag_418\n        /* \"#utility.yul\":8255:8258   */\n      dup3\n        /* \"#utility.yul\":8166:8259   */\n      tag_419\n      jump\t// in\n    tag_418:\n        /* \"#utility.yul\":8284:8286   */\n      0x40\n        /* \"#utility.yul\":8279:8282   */\n      dup3\n        /* \"#utility.yul\":8275:8287   */\n      add\n        /* \"#utility.yul\":8268:8287   */\n      swap1\n      pop\n        /* \"#utility.yul\":7927:8293   */\n      swap2\n      swap1\n      pop\n      jump\t// out\n        /* \"#utility.yul\":8299:8665   */\n    tag_420:\n        /* \"#utility.yul\":8441:8444   */\n      0x00\n        /* \"#utility.yul\":8462:8529   */\n      tag_422\n        /* \"#utility.yul\":8526:8528   */\n      0x1f\n        /* \"#utility.yul\":8521:8524   */\n      dup4\n        /* \"#utility.yul\":8462:8529   */\n      tag_399\n      jump\t// in\n    tag_422:\n        /* \"#utility.yul\":8455:8529   */\n      swap2\n      pop\n        /* \"#utility.yul\":8538:8631   */\n      tag_423\n        /* \"#utility.yul\":8627:8630   */\n      dup3\n        /* \"#utility.yul\":8538:8631   */\n      tag_424\n      jump\t// in\n    tag_423:\n        /* \"#utility.yul\":8656:8658   */\n      0x20\n        /* \"#utility.yul\":8651:8654   */\n      dup3\n        /* \"#utility.yul\":8647:8659   */\n      add\n        /* \"#utility.yul\":8640:8659   */\n      swap1\n      pop\n        /* \"#utility.yul\":8299:8665   */\n      swap2\n      swap1\n      pop\n      jump\t// out\n        /* \"#utility.yul\":8671:9037   */\n    tag_425:\n        /* \"#utility.yul\":8813:8816   */\n      0x00\n        /* \"#utility.yul\":8834:8901   */\n      tag_427\n        /* \"#utility.yul\":8898:8900   */\n      0x20\n        /* \"#utility.yul\":8893:8896   */\n      dup4\n        /* \"#utility.yul\":8834:8901   */\n      tag_399\n      jump\t// in\n    tag_427:\n        /* \"#utility.yul\":8827:8901   */\n      swap2\n      pop\n        /* \"#utility.yul\":8910:9003   */\n      tag_428\n        /* \"#utility.yul\":8999:9002   */\n      dup3\n        /* \"#utility.yul\":8910:9003   */\n      tag_429\n      jump\t// in\n    tag_428:\n        /* \"#utility.yul\":9028:9030   */\n      0x20\n        /* \"#utility.yul\":9023:9026   */\n      dup3\n        /* \"#utility.yul\":9019:9031   */\n      add\n        /* \"#utility.yul\":9012:9031   */\n      swap1\n      pop\n        /* \"#utility.yul\":8671:9037   */\n      swap2\n      swap1\n      pop\n      jump\t// out\n        /* \"#utility.yul\":9043:9409   */\n    tag_430:\n        /* \"#utility.yul\":9185:9188   */\n      0x00\n        /* \"#utility.yul\":9206:9273   */\n      tag_432\n        /* \"#utility.yul\":9270:9272   */\n      0x15\n        /* \"#utility.yul\":9265:9268   */\n      dup4\n        /* \"#utility.yul\":9206:9273   */\n      tag_399\n      jump\t// in\n    tag_432:\n        /* \"#utility.yul\":9199:9273   */\n      swap2\n      pop\n        /* \"#utility.yul\":9282:9375   */\n      tag_433\n        /* \"#utility.yul\":9371:9374   */\n      dup3\n        /* \"#utility.yul\":9282:9375   */\n      tag_434\n      jump\t// in\n    tag_433:\n        /* \"#utility.yul\":9400:9402   */\n      0x20\n        /* \"#utility.yul\":9395:9398   */\n      dup3\n        /* \"#utility.yul\":9391:9403   */\n      add\n        /* \"#utility.yul\":9384:9403   */\n      swap1\n      pop\n        /* \"#utility.yul\":9043:9409   */\n      swap2\n      swap1\n      pop\n      jump\t// out\n        /* \"#utility.yul\":9415:9817   */\n    tag_435:\n        /* \"#utility.yul\":9575:9578   */\n      0x00\n        /* \"#utility.yul\":9596:9681   */\n      tag_437\n        /* \"#utility.yul\":9678:9680   */\n      0x17\n        /* \"#utility.yul\":9673:9676   */\n      dup4\n        /* \"#utility.yul\":9596:9681   */\n      tag_408\n      jump\t// in\n    tag_437:\n        /* \"#utility.yul\":9589:9681   */\n      swap2\n      pop\n        /* \"#utility.yul\":9690:9783   */\n      tag_438\n        /* \"#utility.yul\":9779:9782   */\n      dup3\n        /* \"#utility.yul\":9690:9783   */\n      tag_439\n      jump\t// in\n    tag_438:\n        /* \"#utility.yul\":9808:9810   */\n      0x17\n        /* \"#utility.yul\":9803:9806   */\n      dup3\n        /* \"#utility.yul\":9799:9811   */\n      add\n        /* \"#utility.yul\":9792:9811   */\n      swap1\n      pop\n        /* \"#utility.yul\":9415:9817   */\n      swap2\n      swap1\n      pop\n      jump\t// out\n        /* \"#utility.yul\":9823:10225   */\n    tag_440:\n        /* \"#utility.yul\":9983:9986   */\n      0x00\n        /* \"#utility.yul\":10004:10089   */\n      tag_442\n        /* \"#utility.yul\":10086:10088   */\n      0x11\n        /* \"#utility.yul\":10081:10084   */\n      dup4\n        /* \"#utility.yul\":10004:10089   */\n      tag_408\n      jump\t// in\n    tag_442:\n        /* \"#utility.yul\":9997:10089   */\n      swap2\n      pop\n        /* \"#utility.yul\":10098:10191   */\n      tag_443\n        /* \"#utility.yul\":10187:10190   */\n      dup3\n        /* \"#utility.yul\":10098:10191   */\n      tag_444\n      jump\t// in\n    tag_443:\n        /* \"#utility.yul\":10216:10218   */\n      0x11\n        /* \"#utility.yul\":10211:10214   */\n      dup3\n        /* \"#utility.yul\":10207:10219   */\n      add\n        /* \"#utility.yul\":10200:10219   */\n      swap1\n      pop\n        /* \"#utility.yul\":9823:10225   */\n      swap2\n      swap1\n      pop\n      jump\t// out\n        /* \"#utility.yul\":10231:10597   */\n    tag_445:\n        /* \"#utility.yul\":10373:10376   */\n      0x00\n        /* \"#utility.yul\":10394:10461   */\n      tag_447\n        /* \"#utility.yul\":10458:10460   */\n      0x2f\n        /* \"#utility.yul\":10453:10456   */\n      dup4\n        /* \"#utility.yul\":10394:10461   */\n      tag_399\n      jump\t// in\n    tag_447:\n        /* \"#utility.yul\":10387:10461   */\n      swap2\n      pop\n        /* \"#utility.yul\":10470:10563   */\n      tag_448\n        /* \"#utility.yul\":10559:10562   */\n      dup3\n        /* \"#utility.yul\":10470:10563   */\n      tag_449\n      jump\t// in\n    tag_448:\n        /* \"#utility.yul\":10588:10590   */\n      0x40\n        /* \"#utility.yul\":10583:10586   */\n      dup3\n        /* \"#utility.yul\":10579:10591   */\n      add\n        /* \"#utility.yul\":10572:10591   */\n      swap1\n      pop\n        /* \"#utility.yul\":10231:10597   */\n      swap2\n      swap1\n      pop\n      jump\t// out\n        /* \"#utility.yul\":10603:10721   */\n    tag_450:\n        /* \"#utility.yul\":10690:10714   */\n      tag_452\n        /* \"#utility.yul\":10708:10713   */\n      dup2\n        /* \"#utility.yul\":10690:10714   */\n      tag_453\n      jump\t// in\n    tag_452:\n        /* \"#utility.yul\":10685:10688   */\n      dup3\n        /* \"#utility.yul\":10678:10715   */\n      mstore\n        /* \"#utility.yul\":10603:10721   */\n      pop\n      pop\n      jump\t// out\n        /* \"#utility.yul\":10727:11694   */\n    tag_248:\n        /* \"#utility.yul\":11109:11112   */\n      0x00\n        /* \"#utility.yul\":11131:11279   */\n      tag_455\n        /* \"#utility.yul\":11275:11278   */\n      dup3\n        /* \"#utility.yul\":11131:11279   */\n      tag_435\n      jump\t// in\n    tag_455:\n        /* \"#utility.yul\":11124:11279   */\n      swap2\n      pop\n        /* \"#utility.yul\":11296:11391   */\n      tag_456\n        /* \"#utility.yul\":11387:11390   */\n      dup3\n        /* \"#utility.yul\":11378:11384   */\n      dup6\n        /* \"#utility.yul\":11296:11391   */\n      tag_404\n      jump\t// in\n    tag_456:\n        /* \"#utility.yul\":11289:11391   */\n      swap2\n      pop\n        /* \"#utility.yul\":11408:11556   */\n      tag_457\n        /* \"#utility.yul\":11552:11555   */\n      dup3\n        /* \"#utility.yul\":11408:11556   */\n      tag_440\n      jump\t// in\n    tag_457:\n        /* \"#utility.yul\":11401:11556   */\n      swap2\n      pop\n        /* \"#utility.yul\":11573:11668   */\n      tag_458\n        /* \"#utility.yul\":11664:11667   */\n      dup3\n        /* \"#utility.yul\":11655:11661   */\n      dup5\n        /* \"#utility.yul\":11573:11668   */\n      tag_404\n      jump\t// in\n    tag_458:\n        /* \"#utility.yul\":11566:11668   */\n      swap2\n      pop\n        /* \"#utility.yul\":11685:11688   */\n      dup2\n        /* \"#utility.yul\":11678:11688   */\n      swap1\n      pop\n        /* \"#utility.yul\":10727:11694   */\n      swap4\n      swap3\n      pop\n      pop\n      pop\n      jump\t// out\n        /* \"#utility.yul\":11700:11922   */\n    tag_72:\n        /* \"#utility.yul\":11793:11797   */\n      0x00\n        /* \"#utility.yul\":11831:11833   */\n      0x20\n        /* \"#utility.yul\":11820:11829   */\n      dup3\n        /* \"#utility.yul\":11816:11834   */\n      add\n        /* \"#utility.yul\":11808:11834   */\n      swap1\n      pop\n        /* \"#utility.yul\":11844:11915   */\n      tag_460\n        /* \"#utility.yul\":11912:11913   */\n      0x00\n        /* \"#utility.yul\":11901:11910   */\n      dup4\n        /* \"#utility.yul\":11897:11914   */\n      add\n        /* \"#utility.yul\":11888:11894   */\n      dup5\n        /* \"#utility.yul\":11844:11915   */\n      tag_382\n      jump\t// in\n    tag_460:\n        /* \"#utility.yul\":11700:11922   */\n      swap3\n      swap2\n      pop\n      pop\n      jump\t// out\n        /* \"#utility.yul\":11928:12469   */\n    tag_81:\n        /* \"#utility.yul\":12099:12103   */\n      0x00\n        /* \"#utility.yul\":12137:12140   */\n      0x80\n        /* \"#utility.yul\":12126:12135   */\n      dup3\n        /* \"#utility.yul\":12122:12141   */\n      add\n        /* \"#utility.yul\":12114:12141   */\n      swap1\n      pop\n        /* \"#utility.yul\":12151:12222   */\n      tag_462\n        /* \"#utility.yul\":12219:12220   */\n      0x00\n        /* \"#utility.yul\":12208:12217   */\n      dup4\n        /* \"#utility.yul\":12204:12221   */\n      add\n        /* \"#utility.yul\":12195:12201   */\n      dup8\n        /* \"#utility.yul\":12151:12222   */\n      tag_382\n      jump\t// in\n    tag_462:\n        /* \"#utility.yul\":12232:12304   */\n      tag_463\n        /* \"#utility.yul\":12300:12302   */\n      0x20\n        /* \"#utility.yul\":12289:12298   */\n      dup4\n        /* \"#utility.yul\":12285:12303   */\n      add\n        /* \"#utility.yul\":12276:12282   */\n      dup7\n        /* \"#utility.yul\":12232:12304   */\n      tag_450\n      jump\t// in\n    tag_463:\n        /* \"#utility.yul\":12314:12386   */\n      tag_464\n        /* \"#utility.yul\":12382:12384   */\n      0x40\n        /* \"#utility.yul\":12371:12380   */\n      dup4\n        /* \"#utility.yul\":12367:12385   */\n      add\n        /* \"#utility.yul\":12358:12364   */\n      dup6\n        /* \"#utility.yul\":12314:12386   */\n      tag_450\n      jump\t// in\n    tag_464:\n        /* \"#utility.yul\":12396:12462   */\n      tag_465\n        /* \"#utility.yul\":12458:12460   */\n      0x60\n        /* \"#utility.yul\":12447:12456   */\n      dup4\n        /* \"#utility.yul\":12443:12461   */\n      add\n        /* \"#utility.yul\":12434:12440   */\n      dup5\n        /* \"#utility.yul\":12396:12462   */\n      tag_386\n      jump\t// in\n    tag_465:\n        /* \"#utility.yul\":11928:12469   */\n      swap6\n      swap5\n      pop\n      pop\n      pop\n      pop\n      pop\n      jump\t// out\n        /* \"#utility.yul\":12475:12685   */\n    tag_31:\n        /* \"#utility.yul\":12562:12566   */\n      0x00\n        /* \"#utility.yul\":12600:12602   */\n      0x20\n        /* \"#utility.yul\":12589:12598   */\n      dup3\n        /* \"#utility.yul\":12585:12603   */\n      add\n        /* \"#utility.yul\":12577:12603   */\n      swap1\n      pop\n        /* \"#utility.yul\":12613:12678   */\n      tag_467\n        /* \"#utility.yul\":12675:12676   */\n      0x00\n        /* \"#utility.yul\":12664:12673   */\n      dup4\n        /* \"#utility.yul\":12660:12677   */\n      add\n        /* \"#utility.yul\":12651:12657   */\n      dup5\n        /* \"#utility.yul\":12613:12678   */\n      tag_386\n      jump\t// in\n    tag_467:\n        /* \"#utility.yul\":12475:12685   */\n      swap3\n      swap2\n      pop\n      pop\n      jump\t// out\n        /* \"#utility.yul\":12691:12913   */\n    tag_37:\n        /* \"#utility.yul\":12784:12788   */\n      0x00\n        /* \"#utility.yul\":12822:12824   */\n      0x20\n        /* \"#utility.yul\":12811:12820   */\n      dup3\n        /* \"#utility.yul\":12807:12825   */\n      add\n        /* \"#utility.yul\":12799:12825   */\n      swap1\n      pop\n        /* \"#utility.yul\":12835:12906   */\n      tag_469\n        /* \"#utility.yul\":12903:12904   */\n      0x00\n        /* \"#utility.yul\":12892:12901   */\n      dup4\n        /* \"#utility.yul\":12888:12905   */\n      add\n        /* \"#utility.yul\":12879:12885   */\n      dup5\n        /* \"#utility.yul\":12835:12906   */\n      tag_390\n      jump\t// in\n    tag_469:\n        /* \"#utility.yul\":12691:12913   */\n      swap3\n      swap2\n      pop\n      pop\n      jump\t// out\n        /* \"#utility.yul\":12919:13232   */\n    tag_55:\n        /* \"#utility.yul\":13032:13036   */\n      0x00\n        /* \"#utility.yul\":13070:13072   */\n      0x20\n        /* \"#utility.yul\":13059:13068   */\n      dup3\n        /* \"#utility.yul\":13055:13073   */\n      add\n        /* \"#utility.yul\":13047:13073   */\n      swap1\n      pop\n        /* \"#utility.yul\":13119:13128   */\n      dup2\n        /* \"#utility.yul\":13113:13117   */\n      dup2\n        /* \"#utility.yul\":13109:13129   */\n      sub\n        /* \"#utility.yul\":13105:13106   */\n      0x00\n        /* \"#utility.yul\":13094:13103   */\n      dup4\n        /* \"#utility.yul\":13090:13107   */\n      add\n        /* \"#utility.yul\":13083:13130   */\n      mstore\n        /* \"#utility.yul\":13147:13225   */\n      tag_471\n        /* \"#utility.yul\":13220:13224   */\n      dup2\n        /* \"#utility.yul\":13211:13217   */\n      dup5\n        /* \"#utility.yul\":13147:13225   */\n      tag_394\n      jump\t// in\n    tag_471:\n        /* \"#utility.yul\":13139:13225   */\n      swap1\n      pop\n        /* \"#utility.yul\":12919:13232   */\n      swap3\n      swap2\n      pop\n      pop\n      jump\t// out\n        /* \"#utility.yul\":13238:13862   */\n    tag_43:\n        /* \"#utility.yul\":13427:13431   */\n      0x00\n        /* \"#utility.yul\":13465:13467   */\n      0x60\n        /* \"#utility.yul\":13454:13463   */\n      dup3\n        /* \"#utility.yul\":13450:13468   */\n      add\n        /* \"#utility.yul\":13442:13468   */\n      swap1\n      pop\n        /* \"#utility.yul\":13514:13523   */\n      dup2\n        /* \"#utility.yul\":13508:13512   */\n      dup2\n        /* \"#utility.yul\":13504:13524   */\n      sub\n        /* \"#utility.yul\":13500:13501   */\n      0x00\n        /* \"#utility.yul\":13489:13498   */\n      dup4\n        /* \"#utility.yul\":13485:13502   */\n      add\n        /* \"#utility.yul\":13478:13525   */\n      mstore\n        /* \"#utility.yul\":13542:13620   */\n      tag_473\n        /* \"#utility.yul\":13615:13619   */\n      dup2\n        /* \"#utility.yul\":13606:13612   */\n      dup7\n        /* \"#utility.yul\":13542:13620   */\n      tag_394\n      jump\t// in\n    tag_473:\n        /* \"#utility.yul\":13534:13620   */\n      swap1\n      pop\n        /* \"#utility.yul\":13630:13702   */\n      tag_474\n        /* \"#utility.yul\":13698:13700   */\n      0x20\n        /* \"#utility.yul\":13687:13696   */\n      dup4\n        /* \"#utility.yul\":13683:13701   */\n      add\n        /* \"#utility.yul\":13674:13680   */\n      dup6\n        /* \"#utility.yul\":13630:13702   */\n      tag_382\n      jump\t// in\n    tag_474:\n        /* \"#utility.yul\":13749:13758   */\n      dup2\n        /* \"#utility.yul\":13743:13747   */\n      dup2\n        /* \"#utility.yul\":13739:13759   */\n      sub\n        /* \"#utility.yul\":13734:13736   */\n      0x40\n        /* \"#utility.yul\":13723:13732   */\n      dup4\n        /* \"#utility.yul\":13719:13737   */\n      add\n        /* \"#utility.yul\":13712:13760   */\n      mstore\n        /* \"#utility.yul\":13777:13855   */\n      tag_475\n        /* \"#utility.yul\":13850:13854   */\n      dup2\n        /* \"#utility.yul\":13841:13847   */\n      dup5\n        /* \"#utility.yul\":13777:13855   */\n      tag_394\n      jump\t// in\n    tag_475:\n        /* \"#utility.yul\":13769:13855   */\n      swap1\n      pop\n        /* \"#utility.yul\":13238:13862   */\n      swap5\n      swap4\n      pop\n      pop\n      pop\n      pop\n      jump\t// out\n        /* \"#utility.yul\":13868:14287   */\n    tag_276:\n        /* \"#utility.yul\":14034:14038   */\n      0x00\n        /* \"#utility.yul\":14072:14074   */\n      0x20\n        /* \"#utility.yul\":14061:14070   */\n      dup3\n        /* \"#utility.yul\":14057:14075   */\n      add\n        /* \"#utility.yul\":14049:14075   */\n      swap1\n      pop\n        /* \"#utility.yul\":14121:14130   */\n      dup2\n        /* \"#utility.yul\":14115:14119   */\n      dup2\n        /* \"#utility.yul\":14111:14131   */\n      sub\n        /* \"#utility.yul\":14107:14108   */\n      0x00\n        /* \"#utility.yul\":14096:14105   */\n      dup4\n        /* \"#utility.yul\":14092:14109   */\n      add\n        /* \"#utility.yul\":14085:14132   */\n      mstore\n        /* \"#utility.yul\":14149:14280   */\n      tag_477\n        /* \"#utility.yul\":14275:14279   */\n      dup2\n        /* \"#utility.yul\":14149:14280   */\n      tag_410\n      jump\t// in\n    tag_477:\n        /* \"#utility.yul\":14141:14280   */\n      swap1\n      pop\n        /* \"#utility.yul\":13868:14287   */\n      swap2\n      swap1\n      pop\n      jump\t// out\n        /* \"#utility.yul\":14293:14712   */\n    tag_216:\n        /* \"#utility.yul\":14459:14463   */\n      0x00\n        /* \"#utility.yul\":14497:14499   */\n      0x20\n        /* \"#utility.yul\":14486:14495   */\n      dup3\n        /* \"#utility.yul\":14482:14500   */\n      add\n        /* \"#utility.yul\":14474:14500   */\n      swap1\n      pop\n        /* \"#utility.yul\":14546:14555   */\n      dup2\n        /* \"#utility.yul\":14540:14544   */\n      dup2\n        /* \"#utility.yul\":14536:14556   */\n      sub\n        /* \"#utility.yul\":14532:14533   */\n      0x00\n        /* \"#utility.yul\":14521:14530   */\n      dup4\n        /* \"#utility.yul\":14517:14534   */\n      add\n        /* \"#utility.yul\":14510:14557   */\n      mstore\n        /* \"#utility.yul\":14574:14705   */\n      tag_479\n        /* \"#utility.yul\":14700:14704   */\n      dup2\n        /* \"#utility.yul\":14574:14705   */\n      tag_415\n      jump\t// in\n    tag_479:\n        /* \"#utility.yul\":14566:14705   */\n      swap1\n      pop\n        /* \"#utility.yul\":14293:14712   */\n      swap2\n      swap1\n      pop\n      jump\t// out\n        /* \"#utility.yul\":14718:15137   */\n    tag_161:\n        /* \"#utility.yul\":14884:14888   */\n      0x00\n        /* \"#utility.yul\":14922:14924   */\n      0x20\n        /* \"#utility.yul\":14911:14920   */\n      dup3\n        /* \"#utility.yul\":14907:14925   */\n      add\n        /* \"#utility.yul\":14899:14925   */\n      swap1\n      pop\n        /* \"#utility.yul\":14971:14980   */\n      dup2\n        /* \"#utility.yul\":14965:14969   */\n      dup2\n        /* \"#utility.yul\":14961:14981   */\n      sub\n        /* \"#utility.yul\":14957:14958   */\n      0x00\n        /* \"#utility.yul\":14946:14955   */\n      dup4\n        /* \"#utility.yul\":14942:14959   */\n      add\n        /* \"#utility.yul\":14935:14982   */\n      mstore\n        /* \"#utility.yul\":14999:15130   */\n      tag_481\n        /* \"#utility.yul\":15125:15129   */\n      dup2\n        /* \"#utility.yul\":14999:15130   */\n      tag_420\n      jump\t// in\n    tag_481:\n        /* \"#utility.yul\":14991:15130   */\n      swap1\n      pop\n        /* \"#utility.yul\":14718:15137   */\n      swap2\n      swap1\n      pop\n      jump\t// out\n        /* \"#utility.yul\":15143:15562   */\n    tag_237:\n        /* \"#utility.yul\":15309:15313   */\n      0x00\n        /* \"#utility.yul\":15347:15349   */\n      0x20\n        /* \"#utility.yul\":15336:15345   */\n      dup3\n        /* \"#utility.yul\":15332:15350   */\n      add\n        /* \"#utility.yul\":15324:15350   */\n      swap1\n      pop\n        /* \"#utility.yul\":15396:15405   */\n      dup2\n        /* \"#utility.yul\":15390:15394   */\n      dup2\n        /* \"#utility.yul\":15386:15406   */\n      sub\n        /* \"#utility.yul\":15382:15383   */\n      0x00\n        /* \"#utility.yul\":15371:15380   */\n      dup4\n        /* \"#utility.yul\":15367:15384   */\n      add\n        /* \"#utility.yul\":15360:15407   */\n      mstore\n        /* \"#utility.yul\":15424:15555   */\n      tag_483\n        /* \"#utility.yul\":15550:15554   */\n      dup2\n        /* \"#utility.yul\":15424:15555   */\n      tag_425\n      jump\t// in\n    tag_483:\n        /* \"#utility.yul\":15416:15555   */\n      swap1\n      pop\n        /* \"#utility.yul\":15143:15562   */\n      swap2\n      swap1\n      pop\n      jump\t// out\n        /* \"#utility.yul\":15568:15987   */\n    tag_149:\n        /* \"#utility.yul\":15734:15738   */\n      0x00\n        /* \"#utility.yul\":15772:15774   */\n      0x20\n        /* \"#utility.yul\":15761:15770   */\n      dup3\n        /* \"#utility.yul\":15757:15775   */\n      add\n        /* \"#utility.yul\":15749:15775   */\n      swap1\n      pop\n        /* \"#utility.yul\":15821:15830   */\n      dup2\n        /* \"#utility.yul\":15815:15819   */\n      dup2\n        /* \"#utility.yul\":15811:15831   */\n      sub\n        /* \"#utility.yul\":15807:15808   */\n      0x00\n        /* \"#utility.yul\":15796:15805   */\n      dup4\n        /* \"#utility.yul\":15792:15809   */\n      add\n        /* \"#utility.yul\":15785:15832   */\n      mstore\n        /* \"#utility.yul\":15849:15980   */\n      tag_485\n        /* \"#utility.yul\":15975:15979   */\n      dup2\n        /* \"#utility.yul\":15849:15980   */\n      tag_430\n      jump\t// in\n    tag_485:\n        /* \"#utility.yul\":15841:15980   */\n      swap1\n      pop\n        /* \"#utility.yul\":15568:15987   */\n      swap2\n      swap1\n      pop\n      jump\t// out\n        /* \"#utility.yul\":15993:16412   */\n    tag_142:\n        /* \"#utility.yul\":16159:16163   */\n      0x00\n        /* \"#utility.yul\":16197:16199   */\n      0x20\n        /* \"#utility.yul\":16186:16195   */\n      dup3\n        /* \"#utility.yul\":16182:16200   */\n      add\n        /* \"#utility.yul\":16174:16200   */\n      swap1\n      pop\n        /* \"#utility.yul\":16246:16255   */\n      dup2\n        /* \"#utility.yul\":16240:16244   */\n      dup2\n        /* \"#utility.yul\":16236:16256   */\n      sub\n        /* \"#utility.yul\":16232:16233   */\n      0x00\n        /* \"#utility.yul\":16221:16230   */\n      dup4\n        /* \"#utility.yul\":16217:16234   */\n      add\n        /* \"#utility.yul\":16210:16257   */\n      mstore\n        /* \"#utility.yul\":16274:16405   */\n      tag_487\n        /* \"#utility.yul\":16400:16404   */\n      dup2\n        /* \"#utility.yul\":16274:16405   */\n      tag_445\n      jump\t// in\n    tag_487:\n        /* \"#utility.yul\":16266:16405   */\n      swap1\n      pop\n        /* \"#utility.yul\":15993:16412   */\n      swap2\n      swap1\n      pop\n      jump\t// out\n        /* \"#utility.yul\":16418:16547   */\n    tag_293:\n        /* \"#utility.yul\":16452:16458   */\n      0x00\n        /* \"#utility.yul\":16479:16499   */\n      tag_489\n      tag_490\n      jump\t// in\n    tag_489:\n        /* \"#utility.yul\":16469:16499   */\n      swap1\n      pop\n        /* \"#utility.yul\":16508:16541   */\n      tag_491\n        /* \"#utility.yul\":16536:16540   */\n      dup3\n        /* \"#utility.yul\":16528:16534   */\n      dup3\n        /* \"#utility.yul\":16508:16541   */\n      tag_492\n      jump\t// in\n    tag_491:\n        /* \"#utility.yul\":16418:16547   */\n      swap2\n      swap1\n      pop\n      jump\t// out\n        /* \"#utility.yul\":16553:16628   */\n    tag_490:\n        /* \"#utility.yul\":16586:16592   */\n      0x00\n        /* \"#utility.yul\":16619:16621   */\n      0x40\n        /* \"#utility.yul\":16613:16622   */\n      mload\n        /* \"#utility.yul\":16603:16622   */\n      swap1\n      pop\n        /* \"#utility.yul\":16553:16628   */\n      swap1\n      jump\t// out\n        /* \"#utility.yul\":16634:16945   */\n    tag_292:\n        /* \"#utility.yul\":16711:16715   */\n      0x00\n        /* \"#utility.yul\":16801:16819   */\n      0xffffffffffffffff\n        /* \"#utility.yul\":16793:16799   */\n      dup3\n        /* \"#utility.yul\":16790:16820   */\n      gt\n        /* \"#utility.yul\":16787:16843   */\n      iszero\n      tag_495\n      jumpi\n        /* \"#utility.yul\":16823:16841   */\n      tag_496\n      tag_257\n      jump\t// in\n    tag_496:\n        /* \"#utility.yul\":16787:16843   */\n    tag_495:\n        /* \"#utility.yul\":16873:16877   */\n      0x20\n        /* \"#utility.yul\":16865:16871   */\n      dup3\n        /* \"#utility.yul\":16861:16878   */\n      mul\n        /* \"#utility.yul\":16853:16878   */\n      swap1\n      pop\n        /* \"#utility.yul\":16933:16937   */\n      0x20\n        /* \"#utility.yul\":16927:16931   */\n      dup2\n        /* \"#utility.yul\":16923:16938   */\n      add\n        /* \"#utility.yul\":16915:16938   */\n      swap1\n      pop\n        /* \"#utility.yul\":16634:16945   */\n      swap2\n      swap1\n      pop\n      jump\t// out\n        /* \"#utility.yul\":16951:17259   */\n    tag_306:\n        /* \"#utility.yul\":17013:17017   */\n      0x00\n        /* \"#utility.yul\":17103:17121   */\n      0xffffffffffffffff\n        /* \"#utility.yul\":17095:17101   */\n      dup3\n        /* \"#utility.yul\":17092:17122   */\n      gt\n        /* \"#utility.yul\":17089:17145   */\n      iszero\n      tag_498\n      jumpi\n        /* \"#utility.yul\":17125:17143   */\n      tag_499\n      tag_257\n      jump\t// in\n    tag_499:\n        /* \"#utility.yul\":17089:17145   */\n    tag_498:\n        /* \"#utility.yul\":17163:17192   */\n      tag_500\n        /* \"#utility.yul\":17185:17191   */\n      dup3\n        /* \"#utility.yul\":17163:17192   */\n      tag_403\n      jump\t// in\n    tag_500:\n        /* \"#utility.yul\":17155:17192   */\n      swap1\n      pop\n        /* \"#utility.yul\":17247:17251   */\n      0x20\n        /* \"#utility.yul\":17241:17245   */\n      dup2\n        /* \"#utility.yul\":17237:17252   */\n      add\n        /* \"#utility.yul\":17229:17252   */\n      swap1\n      pop\n        /* \"#utility.yul\":16951:17259   */\n      swap2\n      swap1\n      pop\n      jump\t// out\n        /* \"#utility.yul\":17265:17364   */\n    tag_397:\n        /* \"#utility.yul\":17317:17323   */\n      0x00\n        /* \"#utility.yul\":17351:17356   */\n      dup2\n        /* \"#utility.yul\":17345:17357   */\n      mload\n        /* \"#utility.yul\":17335:17357   */\n      swap1\n      pop\n        /* \"#utility.yul\":17265:17364   */\n      swap2\n      swap1\n      pop\n      jump\t// out\n        /* \"#utility.yul\":17370:17539   */\n    tag_399:\n        /* \"#utility.yul\":17454:17465   */\n      0x00\n        /* \"#utility.yul\":17488:17494   */\n      dup3\n        /* \"#utility.yul\":17483:17486   */\n      dup3\n        /* \"#utility.yul\":17476:17495   */\n      mstore\n        /* \"#utility.yul\":17528:17532   */\n      0x20\n        /* \"#utility.yul\":17523:17526   */\n      dup3\n        /* \"#utility.yul\":17519:17533   */\n      add\n        /* \"#utility.yul\":17504:17533   */\n      swap1\n      pop\n        /* \"#utility.yul\":17370:17539   */\n      swap3\n      swap2\n      pop\n      pop\n      jump\t// out\n        /* \"#utility.yul\":17545:17693   */\n    tag_408:\n        /* \"#utility.yul\":17647:17658   */\n      0x00\n        /* \"#utility.yul\":17684:17687   */\n      dup2\n        /* \"#utility.yul\":17669:17687   */\n      swap1\n      pop\n        /* \"#utility.yul\":17545:17693   */\n      swap3\n      swap2\n      pop\n      pop\n      jump\t// out\n        /* \"#utility.yul\":17699:18004   */\n    tag_254:\n        /* \"#utility.yul\":17739:17742   */\n      0x00\n        /* \"#utility.yul\":17758:17778   */\n      tag_505\n        /* \"#utility.yul\":17776:17777   */\n      dup3\n        /* \"#utility.yul\":17758:17778   */\n      tag_453\n      jump\t// in\n    tag_505:\n        /* \"#utility.yul\":17753:17778   */\n      swap2\n      pop\n        /* \"#utility.yul\":17792:17812   */\n      tag_506\n        /* \"#utility.yul\":17810:17811   */\n      dup4\n        /* \"#utility.yul\":17792:17812   */\n      tag_453\n      jump\t// in\n    tag_506:\n        /* \"#utility.yul\":17787:17812   */\n      swap3\n      pop\n        /* \"#utility.yul\":17946:17947   */\n      dup3\n        /* \"#utility.yul\":17878:17944   */\n      0xffffffffffffffffffffffffffffffffffffffffffffffffffffffffffffffff\n        /* \"#utility.yul\":17874:17948   */\n      sub\n        /* \"#utility.yul\":17871:17872   */\n      dup3\n        /* \"#utility.yul\":17868:17949   */\n      gt\n        /* \"#utility.yul\":17865:17972   */\n      iszero\n      tag_507\n      jumpi\n        /* \"#utility.yul\":17952:17970   */\n      tag_508\n      tag_509\n      jump\t// in\n    tag_508:\n        /* \"#utility.yul\":17865:17972   */\n    tag_507:\n        /* \"#utility.yul\":17996:17997   */\n      dup3\n        /* \"#utility.yul\":17993:17994   */\n      dup3\n        /* \"#utility.yul\":17989:17998   */\n      add\n        /* \"#utility.yul\":17982:17998   */\n      swap1\n      pop\n        /* \"#utility.yul\":17699:18004   */\n      swap3\n      swap2\n      pop\n      pop\n      jump\t// out\n        /* \"#utility.yul\":18010:18358   */\n    tag_252:\n        /* \"#utility.yul\":18050:18057   */\n      0x00\n        /* \"#utility.yul\":18073:18093   */\n      tag_511\n        /* \"#utility.yul\":18091:18092   */\n      dup3\n        /* \"#utility.yul\":18073:18093   */\n      tag_453\n      jump\t// in\n    tag_511:\n        /* \"#utility.yul\":18068:18093   */\n      swap2\n      pop\n        /* \"#utility.yul\":18107:18127   */\n      tag_512\n        /* \"#utility.yul\":18125:18126   */\n      dup4\n        /* \"#utility.yul\":18107:18127   */\n      tag_453\n      jump\t// in\n    tag_512:\n        /* \"#utility.yul\":18102:18127   */\n      swap3\n      pop\n        /* \"#utility.yul\":18295:18296   */\n      dup2\n        /* \"#utility.yul\":18227:18293   */\n      0xffffffffffffffffffffffffffffffffffffffffffffffffffffffffffffffff\n        /* \"#utility.yul\":18223:18297   */\n      div\n        /* \"#utility.yul\":18220:18221   */\n      dup4\n        /* \"#utility.yul\":18217:18298   */\n      gt\n        /* \"#utility.yul\":18212:18213   */\n      dup3\n        /* \"#utility.yul\":18205:18214   */\n      iszero\n        /* \"#utility.yul\":18198:18215   */\n      iszero\n        /* \"#utility.yul\":18194:18299   */\n      and\n        /* \"#utility.yul\":18191:18322   */\n      iszero\n      tag_513\n      jumpi\n        /* \"#utility.yul\":18302:18320   */\n      tag_514\n      tag_509\n      jump\t// in\n    tag_514:\n        /* \"#utility.yul\":18191:18322   */\n    tag_513:\n        /* \"#utility.yul\":18350:18351   */\n      dup3\n        /* \"#utility.yul\":18347:18348   */\n      dup3\n        /* \"#utility.yul\":18343:18352   */\n      mul\n        /* \"#utility.yul\":18332:18352   */\n      swap1\n      pop\n        /* \"#utility.yul\":18010:18358   */\n      swap3\n      swap2\n      pop\n      pop\n      jump\t// out\n        /* \"#utility.yul\":18364:18460   */\n    tag_385:\n        /* \"#utility.yul\":18401:18408   */\n      0x00\n        /* \"#utility.yul\":18430:18454   */\n      tag_516\n        /* \"#utility.yul\":18448:18453   */\n      dup3\n        /* \"#utility.yul\":18430:18454   */\n      tag_517\n      jump\t// in\n    tag_516:\n        /* \"#utility.yul\":18419:18454   */\n      swap1\n      pop\n        /* \"#utility.yul\":18364:18460   */\n      swap2\n      swap1\n      pop\n      jump\t// out\n        /* \"#utility.yul\":18466:18556   */\n    tag_389:\n        /* \"#utility.yul\":18500:18507   */\n      0x00\n        /* \"#utility.yul\":18543:18548   */\n      dup2\n        /* \"#utility.yul\":18536:18549   */\n      iszero\n        /* \"#utility.yul\":18529:18550   */\n      iszero\n        /* \"#utility.yul\":18518:18550   */\n      swap1\n      pop\n        /* \"#utility.yul\":18466:18556   */\n      swap2\n      swap1\n      pop\n      jump\t// out\n        /* \"#utility.yul\":18562:18639   */\n    tag_393:\n        /* \"#utility.yul\":18599:18606   */\n      0x00\n        /* \"#utility.yul\":18628:18633   */\n      dup2\n        /* \"#utility.yul\":18617:18633   */\n      swap1\n      pop\n        /* \"#utility.yul\":18562:18639   */\n      swap2\n      swap1\n      pop\n      jump\t// out\n        /* \"#utility.yul\":18645:18794   */\n    tag_520:\n        /* \"#utility.yul\":18681:18688   */\n      0x00\n        /* \"#utility.yul\":18721:18787   */\n      0xffffffff00000000000000000000000000000000000000000000000000000000\n        /* \"#utility.yul\":18714:18719   */\n      dup3\n        /* \"#utility.yul\":18710:18788   */\n      and\n        /* \"#utility.yul\":18699:18788   */\n      swap1\n      pop\n        /* \"#utility.yul\":18645:18794   */\n      swap2\n      swap1\n      pop\n      jump\t// out\n        /* \"#utility.yul\":18800:18926   */\n    tag_517:\n        /* \"#utility.yul\":18837:18844   */\n      0x00\n        /* \"#utility.yul\":18877:18919   */\n      0xffffffffffffffffffffffffffffffffffffffff\n        /* \"#utility.yul\":18870:18875   */\n      dup3\n        /* \"#utility.yul\":18866:18920   */\n      and\n        /* \"#utility.yul\":18855:18920   */\n      swap1\n      pop\n        /* \"#utility.yul\":18800:18926   */\n      swap2\n      swap1\n      pop\n      jump\t// out\n        /* \"#utility.yul\":18932:19009   */\n    tag_453:\n        /* \"#utility.yul\":18969:18976   */\n      0x00\n        /* \"#utility.yul\":18998:19003   */\n      dup2\n        /* \"#utility.yul\":18987:19003   */\n      swap1\n      pop\n        /* \"#utility.yul\":18932:19009   */\n      swap2\n      swap1\n      pop\n      jump\t// out\n        /* \"#utility.yul\":19015:19169   */\n    tag_311:\n        /* \"#utility.yul\":19099:19105   */\n      dup3\n        /* \"#utility.yul\":19094:19097   */\n      dup2\n        /* \"#utility.yul\":19089:19092   */\n      dup4\n        /* \"#utility.yul\":19076:19106   */\n      calldatacopy\n        /* \"#utility.yul\":19161:19162   */\n      0x00\n        /* \"#utility.yul\":19152:19158   */\n      dup4\n        /* \"#utility.yul\":19147:19150   */\n      dup4\n        /* \"#utility.yul\":19143:19159   */\n      add\n        /* \"#utility.yul\":19136:19163   */\n      mstore\n        /* \"#utility.yul\":19015:19169   */\n      pop\n      pop\n      pop\n      jump\t// out\n        /* \"#utility.yul\":19175:19482   */\n    tag_401:\n        /* \"#utility.yul\":19243:19244   */\n      0x00\n        /* \"#utility.yul\":19253:19366   */\n    tag_526:\n        /* \"#utility.yul\":19267:19273   */\n      dup4\n        /* \"#utility.yul\":19264:19265   */\n      dup2\n        /* \"#utility.yul\":19261:19274   */\n      lt\n        /* \"#utility.yul\":19253:19366   */\n      iszero\n      tag_528\n      jumpi\n        /* \"#utility.yul\":19352:19353   */\n      dup1\n        /* \"#utility.yul\":19347:19350   */\n      dup3\n        /* \"#utility.yul\":19343:19354   */\n      add\n        /* \"#utility.yul\":19337:19355   */\n      mload\n        /* \"#utility.yul\":19333:19334   */\n      dup2\n        /* \"#utility.yul\":19328:19331   */\n      dup5\n        /* \"#utility.yul\":19324:19335   */\n      add\n        /* \"#utility.yul\":19317:19356   */\n      mstore\n        /* \"#utility.yul\":19289:19291   */\n      0x20\n        /* \"#utility.yul\":19286:19287   */\n      dup2\n        /* \"#utility.yul\":19282:19292   */\n      add\n        /* \"#utility.yul\":19277:19292   */\n      swap1\n      pop\n        /* \"#utility.yul\":19253:19366   */\n      jump(tag_526)\n    tag_528:\n        /* \"#utility.yul\":19384:19390   */\n      dup4\n        /* \"#utility.yul\":19381:19382   */\n      dup2\n        /* \"#utility.yul\":19378:19391   */\n      gt\n        /* \"#utility.yul\":19375:19476   */\n      iszero\n      tag_529\n      jumpi\n        /* \"#utility.yul\":19464:19465   */\n      0x00\n        /* \"#utility.yul\":19455:19461   */\n      dup5\n        /* \"#utility.yul\":19450:19453   */\n      dup5\n        /* \"#utility.yul\":19446:19462   */\n      add\n        /* \"#utility.yul\":19439:19466   */\n      mstore\n        /* \"#utility.yul\":19375:19476   */\n    tag_529:\n        /* \"#utility.yul\":19224:19482   */\n      pop\n        /* \"#utility.yul\":19175:19482   */\n      pop\n      pop\n      pop\n      jump\t// out\n        /* \"#utility.yul\":19488:19659   */\n    tag_273:\n        /* \"#utility.yul\":19527:19530   */\n      0x00\n        /* \"#utility.yul\":19550:19574   */\n      tag_531\n        /* \"#utility.yul\":19568:19573   */\n      dup3\n        /* \"#utility.yul\":19550:19574   */\n      tag_453\n      jump\t// in\n    tag_531:\n        /* \"#utility.yul\":19541:19574   */\n      swap2\n      pop\n        /* \"#utility.yul\":19596:19600   */\n      0x00\n        /* \"#utility.yul\":19589:19594   */\n      dup3\n        /* \"#utility.yul\":19586:19601   */\n      eq\n        /* \"#utility.yul\":19583:19624   */\n      iszero\n      tag_532\n      jumpi\n        /* \"#utility.yul\":19604:19622   */\n      tag_533\n      tag_509\n      jump\t// in\n    tag_533:\n        /* \"#utility.yul\":19583:19624   */\n    tag_532:\n        /* \"#utility.yul\":19651:19652   */\n      0x01\n        /* \"#utility.yul\":19644:19649   */\n      dup3\n        /* \"#utility.yul\":19640:19653   */\n      sub\n        /* \"#utility.yul\":19633:19653   */\n      swap1\n      pop\n        /* \"#utility.yul\":19488:19659   */\n      swap2\n      swap1\n      pop\n      jump\t// out\n        /* \"#utility.yul\":19665:19985   */\n    tag_113:\n        /* \"#utility.yul\":19709:19715   */\n      0x00\n        /* \"#utility.yul\":19746:19747   */\n      0x02\n        /* \"#utility.yul\":19740:19744   */\n      dup3\n        /* \"#utility.yul\":19736:19748   */\n      div\n        /* \"#utility.yul\":19726:19748   */\n      swap1\n      pop\n        /* \"#utility.yul\":19793:19794   */\n      0x01\n        /* \"#utility.yul\":19787:19791   */\n      dup3\n        /* \"#utility.yul\":19783:19795   */\n      and\n        /* \"#utility.yul\":19814:19832   */\n      dup1\n        /* \"#utility.yul\":19804:19885   */\n      tag_535\n      jumpi\n        /* \"#utility.yul\":19870:19874   */\n      0x7f\n        /* \"#utility.yul\":19862:19868   */\n      dup3\n        /* \"#utility.yul\":19858:19875   */\n      and\n        /* \"#utility.yul\":19848:19875   */\n      swap2\n      pop\n        /* \"#utility.yul\":19804:19885   */\n    tag_535:\n        /* \"#utility.yul\":19932:19934   */\n      0x20\n        /* \"#utility.yul\":19924:19930   */\n      dup3\n        /* \"#utility.yul\":19921:19935   */\n      lt\n        /* \"#utility.yul\":19901:19919   */\n      dup2\n        /* \"#utility.yul\":19898:19936   */\n      eq\n        /* \"#utility.yul\":19895:19979   */\n      iszero\n      tag_536\n      jumpi\n        /* \"#utility.yul\":19951:19969   */\n      tag_537\n      tag_538\n      jump\t// in\n    tag_537:\n        /* \"#utility.yul\":19895:19979   */\n    tag_536:\n        /* \"#utility.yul\":19716:19985   */\n      pop\n        /* \"#utility.yul\":19665:19985   */\n      swap2\n      swap1\n      pop\n      jump\t// out\n        /* \"#utility.yul\":19991:20272   */\n    tag_492:\n        /* \"#utility.yul\":20074:20101   */\n      tag_540\n        /* \"#utility.yul\":20096:20100   */\n      dup3\n        /* \"#utility.yul\":20074:20101   */\n      tag_403\n      jump\t// in\n    tag_540:\n        /* \"#utility.yul\":20066:20072   */\n      dup2\n        /* \"#utility.yul\":20062:20102   */\n      add\n        /* \"#utility.yul\":20204:20210   */\n      dup2\n        /* \"#utility.yul\":20192:20202   */\n      dup2\n        /* \"#utility.yul\":20189:20211   */\n      lt\n        /* \"#utility.yul\":20168:20186   */\n      0xffffffffffffffff\n        /* \"#utility.yul\":20156:20166   */\n      dup3\n        /* \"#utility.yul\":20153:20187   */\n      gt\n        /* \"#utility.yul\":20150:20212   */\n      or\n        /* \"#utility.yul\":20147:20235   */\n      iszero\n      tag_541\n      jumpi\n        /* \"#utility.yul\":20215:20233   */\n      tag_542\n      tag_257\n      jump\t// in\n    tag_542:\n        /* \"#utility.yul\":20147:20235   */\n    tag_541:\n        /* \"#utility.yul\":20255:20265   */\n      dup1\n        /* \"#utility.yul\":20251:20253   */\n      0x40\n        /* \"#utility.yul\":20244:20266   */\n      mstore\n        /* \"#utility.yul\":20034:20272   */\n      pop\n        /* \"#utility.yul\":19991:20272   */\n      pop\n      pop\n      jump\t// out\n        /* \"#utility.yul\":20278:20511   */\n    tag_156:\n        /* \"#utility.yul\":20317:20320   */\n      0x00\n        /* \"#utility.yul\":20340:20364   */\n      tag_544\n        /* \"#utility.yul\":20358:20363   */\n      dup3\n        /* \"#utility.yul\":20340:20364   */\n      tag_453\n      jump\t// in\n    tag_544:\n        /* \"#utility.yul\":20331:20364   */\n      swap2\n      pop\n        /* \"#utility.yul\":20386:20452   */\n      0xffffffffffffffffffffffffffffffffffffffffffffffffffffffffffffffff\n        /* \"#utility.yul\":20379:20384   */\n      dup3\n        /* \"#utility.yul\":20376:20453   */\n      eq\n        /* \"#utility.yul\":20373:20476   */\n      iszero\n      tag_545\n      jumpi\n        /* \"#utility.yul\":20456:20474   */\n      tag_546\n      tag_509\n      jump\t// in\n    tag_546:\n        /* \"#utility.yul\":20373:20476   */\n    tag_545:\n        /* \"#utility.yul\":20503:20504   */\n      0x01\n        /* \"#utility.yul\":20496:20501   */\n      dup3\n        /* \"#utility.yul\":20492:20505   */\n      add\n        /* \"#utility.yul\":20485:20505   */\n      swap1\n      pop\n        /* \"#utility.yul\":20278:20511   */\n      swap2\n      swap1\n      pop\n      jump\t// out\n        /* \"#utility.yul\":20517:20697   */\n    tag_509:\n        /* \"#utility.yul\":20565:20642   */\n      0x4e487b7100000000000000000000000000000000000000000000000000000000\n        /* \"#utility.yul\":20562:20563   */\n      0x00\n        /* \"#utility.yul\":20555:20643   */\n      mstore\n        /* \"#utility.yul\":20662:20666   */\n      0x11\n        /* \"#utility.yul\":20659:20660   */\n      0x04\n        /* \"#utility.yul\":20652:20667   */\n      mstore\n        /* \"#utility.yul\":20686:20690   */\n      0x24\n        /* \"#utility.yul\":20683:20684   */\n      0x00\n        /* \"#utility.yul\":20676:20691   */\n      revert\n        /* \"#utility.yul\":20703:20883   */\n    tag_538:\n        /* \"#utility.yul\":20751:20828   */\n      0x4e487b7100000000000000000000000000000000000000000000000000000000\n        /* \"#utility.yul\":20748:20749   */\n      0x00\n        /* \"#utility.yul\":20741:20829   */\n      mstore\n        /* \"#utility.yul\":20848:20852   */\n      0x22\n        /* \"#utility.yul\":20845:20846   */\n      0x04\n        /* \"#utility.yul\":20838:20853   */\n      mstore\n        /* \"#utility.yul\":20872:20876   */\n      0x24\n        /* \"#utility.yul\":20869:20870   */\n      0x00\n        /* \"#utility.yul\":20862:20877   */\n      revert\n        /* \"#utility.yul\":20889:21069   */\n    tag_153:\n        /* \"#utility.yul\":20937:21014   */\n      0x4e487b7100000000000000000000000000000000000000000000000000000000\n        /* \"#utility.yul\":20934:20935   */\n      0x00\n        /* \"#utility.yul\":20927:21015   */\n      mstore\n        /* \"#utility.yul\":21034:21038   */\n      0x32\n        /* \"#utility.yul\":21031:21032   */\n      0x04\n        /* \"#utility.yul\":21024:21039   */\n      mstore\n        /* \"#utility.yul\":21058:21062   */\n      0x24\n        /* \"#utility.yul\":21055:21056   */\n      0x00\n        /* \"#utility.yul\":21048:21063   */\n      revert\n        /* \"#utility.yul\":21075:21255   */\n    tag_257:\n        /* \"#utility.yul\":21123:21200   */\n      0x4e487b7100000000000000000000000000000000000000000000000000000000\n        /* \"#utility.yul\":21120:21121   */\n      0x00\n        /* \"#utility.yul\":21113:21201   */\n      mstore\n        /* \"#utility.yul\":21220:21224   */\n      0x41\n        /* \"#utility.yul\":21217:21218   */\n      0x04\n        /* \"#utility.yul\":21210:21225   */\n      mstore\n        /* \"#utility.yul\":21244:21248   */\n      0x24\n        /* \"#utility.yul\":21241:21242   */\n      0x00\n        /* \"#utility.yul\":21234:21249   */\n      revert\n        /* \"#utility.yul\":21261:21378   */\n    tag_319:\n        /* \"#utility.yul\":21370:21371   */\n      0x00\n        /* \"#utility.yul\":21367:21368   */\n      dup1\n        /* \"#utility.yul\":21360:21372   */\n      revert\n        /* \"#utility.yul\":21384:21501   */\n    tag_296:\n        /* \"#utility.yul\":21493:21494   */\n      0x00\n        /* \"#utility.yul\":21490:21491   */\n      dup1\n        /* \"#utility.yul\":21483:21495   */\n      revert\n        /* \"#utility.yul\":21507:21624   */\n    tag_309:\n        /* \"#utility.yul\":21616:21617   */\n      0x00\n        /* \"#utility.yul\":21613:21614   */\n      dup1\n        /* \"#utility.yul\":21606:21618   */\n      revert\n        /* \"#utility.yul\":21630:21747   */\n    tag_348:\n        /* \"#utility.yul\":21739:21740   */\n      0x00\n        /* \"#utility.yul\":21736:21737   */\n      dup1\n        /* \"#utility.yul\":21729:21741   */\n      revert\n        /* \"#utility.yul\":21753:21870   */\n    tag_341:\n        /* \"#utility.yul\":21862:21863   */\n      0x00\n        /* \"#utility.yul\":21859:21860   */\n      dup1\n        /* \"#utility.yul\":21852:21864   */\n      revert\n        /* \"#utility.yul\":21876:21978   */\n    tag_403:\n        /* \"#utility.yul\":21917:21923   */\n      0x00\n        /* \"#utility.yul\":21968:21970   */\n      0x1f\n        /* \"#utility.yul\":21964:21971   */\n      not\n        /* \"#utility.yul\":21959:21961   */\n      0x1f\n        /* \"#utility.yul\":21952:21957   */\n      dup4\n        /* \"#utility.yul\":21948:21962   */\n      add\n        /* \"#utility.yul\":21944:21972   */\n      and\n        /* \"#utility.yul\":21934:21972   */\n      swap1\n      pop\n        /* \"#utility.yul\":21876:21978   */\n      swap2\n      swap1\n      pop\n      jump\t// out\n        /* \"#utility.yul\":21984:22166   */\n    tag_414:\n        /* \"#utility.yul\":22124:22158   */\n      0x537472696e67733a20686578206c656e67746820696e73756666696369656e74\n        /* \"#utility.yul\":22120:22121   */\n      0x00\n        /* \"#utility.yul\":22112:22118   */\n      dup3\n        /* \"#utility.yul\":22108:22122   */\n      add\n        /* \"#utility.yul\":22101:22159   */\n      mstore\n        /* \"#utility.yul\":21984:22166   */\n      pop\n      jump\t// out\n        /* \"#utility.yul\":22172:22397   */\n    tag_419:\n        /* \"#utility.yul\":22312:22346   */\n      0x4f776e61626c653a206e6577206f776e657220697320746865207a65726f2061\n        /* \"#utility.yul\":22308:22309   */\n      0x00\n        /* \"#utility.yul\":22300:22306   */\n      dup3\n        /* \"#utility.yul\":22296:22310   */\n      add\n        /* \"#utility.yul\":22289:22347   */\n      mstore\n        /* \"#utility.yul\":22381:22389   */\n      0x6464726573730000000000000000000000000000000000000000000000000000\n        /* \"#utility.yul\":22376:22378   */\n      0x20\n        /* \"#utility.yul\":22368:22374   */\n      dup3\n        /* \"#utility.yul\":22364:22379   */\n      add\n        /* \"#utility.yul\":22357:22390   */\n      mstore\n        /* \"#utility.yul\":22172:22397   */\n      pop\n      jump\t// out\n        /* \"#utility.yul\":22403:22584   */\n    tag_424:\n        /* \"#utility.yul\":22543:22576   */\n      0x43616c6c6572206973206e6f7420616e20494e45432065786563757469766500\n        /* \"#utility.yul\":22539:22540   */\n      0x00\n        /* \"#utility.yul\":22531:22537   */\n      dup3\n        /* \"#utility.yul\":22527:22541   */\n      add\n        /* \"#utility.yul\":22520:22577   */\n      mstore\n        /* \"#utility.yul\":22403:22584   */\n      pop\n      jump\t// out\n        /* \"#utility.yul\":22590:22772   */\n    tag_429:\n        /* \"#utility.yul\":22730:22764   */\n      0x4f776e61626c653a2063616c6c6572206973206e6f7420746865206f776e6572\n        /* \"#utility.yul\":22726:22727   */\n      0x00\n        /* \"#utility.yul\":22718:22724   */\n      dup3\n        /* \"#utility.yul\":22714:22728   */\n      add\n        /* \"#utility.yul\":22707:22765   */\n      mstore\n        /* \"#utility.yul\":22590:22772   */\n      pop\n      jump\t// out\n        /* \"#utility.yul\":22778:22949   */\n    tag_434:\n        /* \"#utility.yul\":22918:22941   */\n      0x43616c6c6572206973206e6f74206120566f7465720000000000000000000000\n        /* \"#utility.yul\":22914:22915   */\n      0x00\n        /* \"#utility.yul\":22906:22912   */\n      dup3\n        /* \"#utility.yul\":22902:22916   */\n      add\n        /* \"#utility.yul\":22895:22942   */\n      mstore\n        /* \"#utility.yul\":22778:22949   */\n      pop\n      jump\t// out\n        /* \"#utility.yul\":22955:23128   */\n    tag_439:\n        /* \"#utility.yul\":23095:23120   */\n      0x416363657373436f6e74726f6c3a206163636f756e7420000000000000000000\n        /* \"#utility.yul\":23091:23092   */\n      0x00\n        /* \"#utility.yul\":23083:23089   */\n      dup3\n        /* \"#utility.yul\":23079:23093   */\n      add\n        /* \"#utility.yul\":23072:23121   */\n      mstore\n        /* \"#utility.yul\":22955:23128   */\n      pop\n      jump\t// out\n        /* \"#utility.yul\":23134:23301   */\n    tag_444:\n        /* \"#utility.yul\":23274:23293   */\n      0x206973206d697373696e6720726f6c6520000000000000000000000000000000\n        /* \"#utility.yul\":23270:23271   */\n      0x00\n        /* \"#utility.yul\":23262:23268   */\n      dup3\n        /* \"#utility.yul\":23258:23272   */\n      add\n        /* \"#utility.yul\":23251:23294   */\n      mstore\n        /* \"#utility.yul\":23134:23301   */\n      pop\n      jump\t// out\n        /* \"#utility.yul\":23307:23541   */\n    tag_449:\n        /* \"#utility.yul\":23447:23481   */\n      0x416363657373436f6e74726f6c3a2063616e206f6e6c792072656e6f756e6365\n        /* \"#utility.yul\":23443:23444   */\n      0x00\n        /* \"#utility.yul\":23435:23441   */\n      dup3\n        /* \"#utility.yul\":23431:23445   */\n      add\n        /* \"#utility.yul\":23424:23482   */\n      mstore\n        /* \"#utility.yul\":23516:23533   */\n      0x20726f6c657320666f722073656c660000000000000000000000000000000000\n        /* \"#utility.yul\":23511:23513   */\n      0x20\n        /* \"#utility.yul\":23503:23509   */\n      dup3\n        /* \"#utility.yul\":23499:23514   */\n      add\n        /* \"#utility.yul\":23492:23534   */\n      mstore\n        /* \"#utility.yul\":23307:23541   */\n      pop\n      jump\t// out\n        /* \"#utility.yul\":23547:23669   */\n    tag_314:\n        /* \"#utility.yul\":23620:23644   */\n      tag_566\n        /* \"#utility.yul\":23638:23643   */\n      dup2\n        /* \"#utility.yul\":23620:23644   */\n      tag_385\n      jump\t// in\n    tag_566:\n        /* \"#utility.yul\":23613:23618   */\n      dup2\n        /* \"#utility.yul\":23610:23645   */\n      eq\n        /* \"#utility.yul\":23600:23663   */\n      tag_567\n      jumpi\n        /* \"#utility.yul\":23659:23660   */\n      0x00\n        /* \"#utility.yul\":23656:23657   */\n      dup1\n        /* \"#utility.yul\":23649:23661   */\n      revert\n        /* \"#utility.yul\":23600:23663   */\n    tag_567:\n        /* \"#utility.yul\":23547:23669   */\n      pop\n      jump\t// out\n        /* \"#utility.yul\":23675:23797   */\n    tag_324:\n        /* \"#utility.yul\":23748:23772   */\n      tag_569\n        /* \"#utility.yul\":23766:23771   */\n      dup2\n        /* \"#utility.yul\":23748:23772   */\n      tag_393\n      jump\t// in\n    tag_569:\n        /* \"#utility.yul\":23741:23746   */\n      dup2\n        /* \"#utility.yul\":23738:23773   */\n      eq\n        /* \"#utility.yul\":23728:23791   */\n      tag_570\n      jumpi\n        /* \"#utility.yul\":23787:23788   */\n      0x00\n        /* \"#utility.yul\":23784:23785   */\n      dup1\n        /* \"#utility.yul\":23777:23789   */\n      revert\n        /* \"#utility.yul\":23728:23791   */\n    tag_570:\n        /* \"#utility.yul\":23675:23797   */\n      pop\n      jump\t// out\n        /* \"#utility.yul\":23803:23923   */\n    tag_328:\n        /* \"#utility.yul\":23875:23898   */\n      tag_572\n        /* \"#utility.yul\":23892:23897   */\n      dup2\n        /* \"#utility.yul\":23875:23898   */\n      tag_520\n      jump\t// in\n    tag_572:\n        /* \"#utility.yul\":23868:23873   */\n      dup2\n        /* \"#utility.yul\":23865:23899   */\n      eq\n        /* \"#utility.yul\":23855:23917   */\n      tag_573\n      jumpi\n        /* \"#utility.yul\":23913:23914   */\n      0x00\n        /* \"#utility.yul\":23910:23911   */\n      dup1\n        /* \"#utility.yul\":23903:23915   */\n      revert\n        /* \"#utility.yul\":23855:23917   */\n    tag_573:\n        /* \"#utility.yul\":23803:23923   */\n      pop\n      jump\t// out\n        /* \"#utility.yul\":23929:24051   */\n    tag_337:\n        /* \"#utility.yul\":24002:24026   */\n      tag_575\n        /* \"#utility.yul\":24020:24025   */\n      dup2\n        /* \"#utility.yul\":24002:24026   */\n      tag_453\n      jump\t// in\n    tag_575:\n        /* \"#utility.yul\":23995:24000   */\n      dup2\n        /* \"#utility.yul\":23992:24027   */\n      eq\n        /* \"#utility.yul\":23982:24045   */\n      tag_576\n      jumpi\n        /* \"#utility.yul\":24041:24042   */\n      0x00\n        /* \"#utility.yul\":24038:24039   */\n      dup1\n        /* \"#utility.yul\":24031:24043   */\n      revert\n        /* \"#utility.yul\":23982:24045   */\n    tag_576:\n        /* \"#utility.yul\":23929:24051   */\n      pop\n      jump\t// out\n\n    auxdata: 0xa2646970667358221220d9ed93fe6ddaf00b51fac4ee28861545a25f34ffecfc5d0e988efac5b83da68864736f6c63430008070033\n}\n",
				"bytecode": {
					"linkReferences": {},
					"object": "608060405260405180608001604052806040518060400160405280600381526020017f415043000000000000000000000000000000000000000000000000000000000081525081526020016040518060400160405280600381526020017f504450000000000000000000000000000000000000000000000000000000000081525081526020016040518060400160405280600281526020017f4c5000000000000000000000000000000000000000000000000000000000000081525081526020016040518060400160405280600481526020017f4e4e50500000000000000000000000000000000000000000000000000000000081525081525060069060046200010b92919062000393565b503480156200011957600080fd5b506200013a6200012e6200015560201b60201c565b6200015d60201b60201c565b6200014f6000801b336200022160201b60201c565b6200057d565b600033905090565b60008060009054906101000a900473ffffffffffffffffffffffffffffffffffffffff169050816000806101000a81548173ffffffffffffffffffffffffffffffffffffffff021916908373ffffffffffffffffffffffffffffffffffffffff1602179055508173ffffffffffffffffffffffffffffffffffffffff168173ffffffffffffffffffffffffffffffffffffffff167f8be0079c531659141344cd1fd0a4f28419497f9722a3daafe3b4186f6b6457e060405160405180910390a35050565b6200023382826200023760201b60201c565b5050565b6200024982826200032860201b60201c565b6200032457600180600084815260200190815260200160002060000160008373ffffffffffffffffffffffffffffffffffffffff1673ffffffffffffffffffffffffffffffffffffffff16815260200190815260200160002060006101000a81548160ff021916908315150217905550620002c96200015560201b60201c565b73ffffffffffffffffffffffffffffffffffffffff168173ffffffffffffffffffffffffffffffffffffffff16837f2f8788117e7eff1d82e926ec794901d17c78024a50270940304540a733656f0d60405160405180910390a45b5050565b60006001600084815260200190815260200160002060000160008373ffffffffffffffffffffffffffffffffffffffff1673ffffffffffffffffffffffffffffffffffffffff16815260200190815260200160002060009054906101000a900460ff16905092915050565b828054828255906000526020600020908101928215620003e7579160200282015b82811115620003e6578251829080519060200190620003d5929190620003fa565b5091602001919060010190620003b4565b5b509050620003f691906200048b565b5090565b828054620004089062000518565b90600052602060002090601f0160209004810192826200042c576000855562000478565b82601f106200044757805160ff191683800117855562000478565b8280016001018555821562000478579182015b82811115620004775782518255916020019190600101906200045a565b5b509050620004879190620004b3565b5090565b5b80821115620004af5760008181620004a59190620004d2565b506001016200048c565b5090565b5b80821115620004ce576000816000905550600101620004b4565b5090565b508054620004e09062000518565b6000825580601f10620004f4575062000515565b601f016020900490600052602060002090810190620005149190620004b3565b5b50565b600060028204905060018216806200053157607f821691505b602082108114156200054857620005476200054e565b5b50919050565b7f4e487b7100000000000000000000000000000000000000000000000000000000600052602260045260246000fd5b6122b3806200058d6000396000f3fe608060405234801561001057600080fd5b506004361061012c5760003560e01c80638da5cb5b116100ad578063d547741f11610071578063d547741f14610348578063d59d2a5814610364578063d9d55ba014610380578063dfd8459e1461039c578063f2fde38b146103b85761012c565b80638da5cb5b1461028b57806391d14854146102a95780639c35d98b146102d9578063a217fddf1461030c578063a94015c81461032a5761012c565b8063314fd68f116100f4578063314fd68f146101fd57806336568abe1461022d5780633ec9ae35146102495780634f05dba814610265578063715018a6146102815761012c565b806301ffc9a714610131578063248a9ca314610161578063290e9212146101915780632e0d37bb146101c35780632f2ff15d146101e1575b600080fd5b61014b600480360381019061014691906117fa565b6103d4565b6040516101589190611b5b565b60405180910390f35b61017b6004803603810190610176919061178d565b61044e565b6040516101889190611b76565b60405180910390f35b6101ab60048036038101906101a69190611896565b61046e565b6040516101ba93929190611bb3565b60405180910390f35b6101cb6105d8565b6040516101d89190611b76565b60405180910390f35b6101fb60048036038101906101f691906117ba565b6105fc565b005b61021760048036038101906102129190611896565b61061d565b6040516102249190611b91565b60405180910390f35b610247600480360381019061024291906117ba565b6106c9565b005b610263600480360381019061025e91906118c3565b61074c565b005b61027f600480360381019061027a919061171e565b6107f8565b005b61028961096b565b005b61029361097f565b6040516102a09190611afb565b60405180910390f35b6102c360048036038101906102be91906117ba565b6109a8565b6040516102d09190611b5b565b60405180910390f35b6102f360048036038101906102ee9190611896565b610a13565b6040516103039493929190611b16565b60405180910390f35b610314610a70565b6040516103219190611b76565b60405180910390f35b610332610a77565b60405161033f9190611b76565b60405180910390f35b610362600480360381019061035d91906117ba565b610a9b565b005b61037e60048036038101906103799190611827565b610abc565b005b61039a60048036038101906103959190611896565b610cea565b005b6103b660048036038101906103b191906116f1565b610d8b565b005b6103d260048036038101906103cd91906116f1565b610dc0565b005b60007f7965db0b000000000000000000000000000000000000000000000000000000007bffffffffffffffffffffffffffffffffffffffffffffffffffffffff1916827bffffffffffffffffffffffffffffffffffffffffffffffffffffffff19161480610447575061044682610e44565b5b9050919050565b600060016000838152602001908152602001600020600101549050919050565b6007818154811061047e57600080fd5b90600052602060002090600302016000915090508060000180546104a190611efb565b80601f01602080910402602001604051908101604052809291908181526020018280546104cd90611efb565b801561051a5780601f106104ef5761010080835404028352916020019161051a565b820191906000526020600020905b8154815290600101906020018083116104fd57829003601f168201915b5050505050908060010160009054906101000a900473ffffffffffffffffffffffffffffffffffffffff169080600201805461055590611efb565b80601f016020809104026020016040519081016040528092919081815260200182805461058190611efb565b80156105ce5780601f106105a3576101008083540402835291602001916105ce565b820191906000526020600020905b8154815290600101906020018083116105b157829003601f168201915b5050505050905083565b7f082f6ed76e0352438e6a6e35c77719c3f04bf277fdc8fec7e5ff5f65e001d90281565b6106058261044e565b61060e81610eae565b6106188383610ec2565b505050565b6006818154811061062d57600080fd5b90600052602060002001600091509050805461064890611efb565b80601f016020809104026020016040519081016040528092919081815260200182805461067490611efb565b80156106c15780601f10610696576101008083540402835291602001916106c1565b820191906000526020600020905b8154815290600101906020018083116106a457829003601f168201915b505050505081565b6106d1610fa2565b73ffffffffffffffffffffffffffffffffffffffff168173ffffffffffffffffffffffffffffffffffffffff161461073e576040517f08c379a000000000000000000000000000000000000000000000000000000000815260040161073590611c98565b60405180910390fd5b6107488282610faa565b5050565b6107767f15283fd96aa656c9df35ac2fcb112678a5f24f1ca97e591a97d1d16003dbfc9c336109a8565b6107b5576040517f08c379a00000000000000000000000000000000000000000000000000000000081526004016107ac90611c78565b60405180910390fd5b6009600082815260200190815260200160002060010182600481106107dd576107dc612005565b5b0160008154809291906107ef90611f5e565b91905055505050565b6108227f082f6ed76e0352438e6a6e35c77719c3f04bf277fdc8fec7e5ff5f65e001d902336109a8565b610861576040517f08c379a000000000000000000000000000000000000000000000000000000000815260040161085890611c38565b60405180910390fd5b8160096000600554815260200190815260200160002060050181905550806009600060055481526020019081526020016000206006018190555060005b835181101561094d576009600060055481526020019081526020016000206000018482815181106108d2576108d1612005565b5b60200260200101519080600181540180825580915050600190039060005260206000200160009091909190916101000a81548173ffffffffffffffffffffffffffffffffffffffff021916908373ffffffffffffffffffffffffffffffffffffffff160217905550808061094590611f5e565b91505061089e565b506005600081548092919061096190611f5e565b9190505550505050565b61097361108c565b61097d600061110a565b565b60008060009054906101000a900473ffffffffffffffffffffffffffffffffffffffff16905090565b60006001600084815260200190815260200160002060000160008373ffffffffffffffffffffffffffffffffffffffff1673ffffffffffffffffffffffffffffffffffffffff16815260200190815260200160002060009054906101000a900460ff16905092915050565b60086020528060005260406000206000915090508060000160009054906101000a900473ffffffffffffffffffffffffffffffffffffffff16908060010154908060020154908060030160009054906101000a900460ff16905084565b6000801b81565b7f15283fd96aa656c9df35ac2fcb112678a5f24f1ca97e591a97d1d16003dbfc9c81565b610aa48261044e565b610aad81610eae565b610ab78383610faa565b505050565b610ae67f082f6ed76e0352438e6a6e35c77719c3f04bf277fdc8fec7e5ff5f65e001d902336109a8565b610b25576040517f08c379a0000000000000000000000000000000000000000000000000000000008152600401610b1c90611c38565b60405180910390fd5b610b2d6114b5565b83816000018190525082816020019073ffffffffffffffffffffffffffffffffffffffff16908173ffffffffffffffffffffffffffffffffffffffff168152505060068281548110610b8257610b81612005565b5b906000526020600020018054610b9790611efb565b80601f0160208091040260200160405190810160405280929190818152602001828054610bc390611efb565b8015610c105780601f10610be557610100808354040283529160200191610c10565b820191906000526020600020905b815481529060010190602001808311610bf357829003601f168201915b5050505050816040018190525060078190806001815401808255809150506001900390600052602060002090600302016000909190919091506000820151816000019080519060200190610c659291906114ec565b5060208201518160010160006101000a81548173ffffffffffffffffffffffffffffffffffffffff021916908373ffffffffffffffffffffffffffffffffffffffff1602179055506040820151816002019080519060200190610cc99291906114ec565b50505060036000815480929190610cdf90611f5e565b919050555050505050565b3360086000600454815260200190815260200160002060000160006101000a81548173ffffffffffffffffffffffffffffffffffffffff021916908373ffffffffffffffffffffffffffffffffffffffff1602179055508060086000600454815260200190815260200160002060010181905550610d887f15283fd96aa656c9df35ac2fcb112678a5f24f1ca97e591a97d1d16003dbfc9c336111ce565b50565b610d9361108c565b610dbd7f082f6ed76e0352438e6a6e35c77719c3f04bf277fdc8fec7e5ff5f65e001d902826105fc565b50565b610dc861108c565b600073ffffffffffffffffffffffffffffffffffffffff168173ffffffffffffffffffffffffffffffffffffffff161415610e38576040517f08c379a0000000000000000000000000000000000000000000000000000000008152600401610e2f90611c18565b60405180910390fd5b610e418161110a565b50565b60007f01ffc9a7000000000000000000000000000000000000000000000000000000007bffffffffffffffffffffffffffffffffffffffffffffffffffffffff1916827bffffffffffffffffffffffffffffffffffffffffffffffffffffffff1916149050919050565b610ebf81610eba610fa2565b6111dc565b50565b610ecc82826109a8565b610f9e57600180600084815260200190815260200160002060000160008373ffffffffffffffffffffffffffffffffffffffff1673ffffffffffffffffffffffffffffffffffffffff16815260200190815260200160002060006101000a81548160ff021916908315150217905550610f43610fa2565b73ffffffffffffffffffffffffffffffffffffffff168173ffffffffffffffffffffffffffffffffffffffff16837f2f8788117e7eff1d82e926ec794901d17c78024a50270940304540a733656f0d60405160405180910390a45b5050565b600033905090565b610fb482826109a8565b156110885760006001600084815260200190815260200160002060000160008373ffffffffffffffffffffffffffffffffffffffff1673ffffffffffffffffffffffffffffffffffffffff16815260200190815260200160002060006101000a81548160ff02191690831515021790555061102d610fa2565b73ffffffffffffffffffffffffffffffffffffffff168173ffffffffffffffffffffffffffffffffffffffff16837ff6391f5c32d9c69d2a47ea670b442974b53935d1edc7fd64eb21e047a839171b60405160405180910390a45b5050565b611094610fa2565b73ffffffffffffffffffffffffffffffffffffffff166110b261097f565b73ffffffffffffffffffffffffffffffffffffffff1614611108576040517f08c379a00000000000000000000000000000000000000000000000000000000081526004016110ff90611c58565b60405180910390fd5b565b60008060009054906101000a900473ffffffffffffffffffffffffffffffffffffffff169050816000806101000a81548173ffffffffffffffffffffffffffffffffffffffff021916908373ffffffffffffffffffffffffffffffffffffffff1602179055508173ffffffffffffffffffffffffffffffffffffffff168173ffffffffffffffffffffffffffffffffffffffff167f8be0079c531659141344cd1fd0a4f28419497f9722a3daafe3b4186f6b6457e060405160405180910390a35050565b6111d88282610ec2565b5050565b6111e682826109a8565b6112755761120b8173ffffffffffffffffffffffffffffffffffffffff166014611279565b6112198360001c6020611279565b60405160200161122a929190611ac1565b6040516020818303038152906040526040517f08c379a000000000000000000000000000000000000000000000000000000000815260040161126c9190611b91565b60405180910390fd5b5050565b60606000600283600261128c9190611db7565b6112969190611d61565b67ffffffffffffffff8111156112af576112ae612034565b5b6040519080825280601f01601f1916602001820160405280156112e15781602001600182028036833780820191505090505b5090507f30000000000000000000000000000000000000000000000000000000000000008160008151811061131957611318612005565b5b60200101907effffffffffffffffffffffffffffffffffffffffffffffffffffffffffffff1916908160001a9053507f78000000000000000000000000000000000000000000000000000000000000008160018151811061137d5761137c612005565b5b60200101907effffffffffffffffffffffffffffffffffffffffffffffffffffffffffffff1916908160001a905350600060018460026113bd9190611db7565b6113c79190611d61565b90505b6001811115611467577f3031323334353637383961626364656600000000000000000000000000000000600f86166010811061140957611408612005565b5b1a60f81b8282815181106114205761141f612005565b5b60200101907effffffffffffffffffffffffffffffffffffffffffffffffffffffffffffff1916908160001a905350600485901c94508061146090611ed1565b90506113ca565b50600084146114ab576040517f08c379a00000000000000000000000000000000000000000000000000000000081526004016114a290611bf8565b60405180910390fd5b8091505092915050565b604051806060016040528060608152602001600073ffffffffffffffffffffffffffffffffffffffff168152602001606081525090565b8280546114f890611efb565b90600052602060002090601f01602090048101928261151a5760008555611561565b82601f1061153357805160ff1916838001178555611561565b82800160010185558215611561579182015b82811115611560578251825591602001919060010190611545565b5b50905061156e9190611572565b5090565b5b8082111561158b576000816000905550600101611573565b5090565b60006115a261159d84611cdd565b611cb8565b905080838252602082019050828560208602820111156115c5576115c4612068565b5b60005b858110156115f557816115db8882611641565b8452602084019350602083019250506001810190506115c8565b5050509392505050565b600061161261160d84611d09565b611cb8565b90508281526020810184848401111561162e5761162d61206d565b5b611639848285611e8f565b509392505050565b60008135905061165081612221565b92915050565b600082601f83011261166b5761166a612063565b5b813561167b84826020860161158f565b91505092915050565b60008135905061169381612238565b92915050565b6000813590506116a88161224f565b92915050565b600082601f8301126116c3576116c2612063565b5b81356116d38482602086016115ff565b91505092915050565b6000813590506116eb81612266565b92915050565b60006020828403121561170757611706612077565b5b600061171584828501611641565b91505092915050565b60008060006060848603121561173757611736612077565b5b600084013567ffffffffffffffff81111561175557611754612072565b5b61176186828701611656565b9350506020611772868287016116dc565b9250506040611783868287016116dc565b9150509250925092565b6000602082840312156117a3576117a2612077565b5b60006117b184828501611684565b91505092915050565b600080604083850312156117d1576117d0612077565b5b60006117df85828601611684565b92505060206117f085828601611641565b9150509250929050565b6000602082840312156118105761180f612077565b5b600061181e84828501611699565b91505092915050565b6000806000606084860312156118405761183f612077565b5b600084013567ffffffffffffffff81111561185e5761185d612072565b5b61186a868287016116ae565b935050602061187b86828701611641565b925050604061188c868287016116dc565b9150509250925092565b6000602082840312156118ac576118ab612077565b5b60006118ba848285016116dc565b91505092915050565b600080604083850312156118da576118d9612077565b5b60006118e8858286016116dc565b92505060206118f9858286016116dc565b9150509250929050565b61190c81611e11565b82525050565b61191b81611e23565b82525050565b61192a81611e2f565b82525050565b600061193b82611d3a565b6119458185611d45565b9350611955818560208601611e9e565b61195e8161207c565b840191505092915050565b600061197482611d3a565b61197e8185611d56565b935061198e818560208601611e9e565b80840191505092915050565b60006119a7602083611d45565b91506119b28261208d565b602082019050919050565b60006119ca602683611d45565b91506119d5826120b6565b604082019050919050565b60006119ed601f83611d45565b91506119f882612105565b602082019050919050565b6000611a10602083611d45565b9150611a1b8261212e565b602082019050919050565b6000611a33601583611d45565b9150611a3e82612157565b602082019050919050565b6000611a56601783611d56565b9150611a6182612180565b601782019050919050565b6000611a79601183611d56565b9150611a84826121a9565b601182019050919050565b6000611a9c602f83611d45565b9150611aa7826121d2565b604082019050919050565b611abb81611e85565b82525050565b6000611acc82611a49565b9150611ad88285611969565b9150611ae382611a6c565b9150611aef8284611969565b91508190509392505050565b6000602082019050611b106000830184611903565b92915050565b6000608082019050611b2b6000830187611903565b611b386020830186611ab2565b611b456040830185611ab2565b611b526060830184611912565b95945050505050565b6000602082019050611b706000830184611912565b92915050565b6000602082019050611b8b6000830184611921565b92915050565b60006020820190508181036000830152611bab8184611930565b905092915050565b60006060820190508181036000830152611bcd8186611930565b9050611bdc6020830185611903565b8181036040830152611bee8184611930565b9050949350505050565b60006020820190508181036000830152611c118161199a565b9050919050565b60006020820190508181036000830152611c31816119bd565b9050919050565b60006020820190508181036000830152611c51816119e0565b9050919050565b60006020820190508181036000830152611c7181611a03565b9050919050565b60006020820190508181036000830152611c9181611a26565b9050919050565b60006020820190508181036000830152611cb181611a8f565b9050919050565b6000611cc2611cd3565b9050611cce8282611f2d565b919050565b6000604051905090565b600067ffffffffffffffff821115611cf857611cf7612034565b5b602082029050602081019050919050565b600067ffffffffffffffff821115611d2457611d23612034565b5b611d2d8261207c565b9050602081019050919050565b600081519050919050565b600082825260208201905092915050565b600081905092915050565b6000611d6c82611e85565b9150611d7783611e85565b9250827fffffffffffffffffffffffffffffffffffffffffffffffffffffffffffffffff03821115611dac57611dab611fa7565b5b828201905092915050565b6000611dc282611e85565b9150611dcd83611e85565b9250817fffffffffffffffffffffffffffffffffffffffffffffffffffffffffffffffff0483118215151615611e0657611e05611fa7565b5b828202905092915050565b6000611e1c82611e65565b9050919050565b60008115159050919050565b6000819050919050565b60007fffffffff0000000000000000000000000000000000000000000000000000000082169050919050565b600073ffffffffffffffffffffffffffffffffffffffff82169050919050565b6000819050919050565b82818337600083830152505050565b60005b83811015611ebc578082015181840152602081019050611ea1565b83811115611ecb576000848401525b50505050565b6000611edc82611e85565b91506000821415611ef057611eef611fa7565b5b600182039050919050565b60006002820490506001821680611f1357607f821691505b60208210811415611f2757611f26611fd6565b5b50919050565b611f368261207c565b810181811067ffffffffffffffff82111715611f5557611f54612034565b5b80604052505050565b6000611f6982611e85565b91507fffffffffffffffffffffffffffffffffffffffffffffffffffffffffffffffff821415611f9c57611f9b611fa7565b5b600182019050919050565b7f4e487b7100000000000000000000000000000000000000000000000000000000600052601160045260246000fd5b7f4e487b7100000000000000000000000000000000000000000000000000000000600052602260045260246000fd5b7f4e487b7100000000000000000000000000000000000000000000000000000000600052603260045260246000fd5b7f4e487b7100000000000000000000000000000000000000000000000000000000600052604160045260246000fd5b600080fd5b600080fd5b600080fd5b600080fd5b600080fd5b6000601f19601f8301169050919050565b7f537472696e67733a20686578206c656e67746820696e73756666696369656e74600082015250565b7f4f776e61626c653a206e6577206f776e657220697320746865207a65726f206160008201527f6464726573730000000000000000000000000000000000000000000000000000602082015250565b7f43616c6c6572206973206e6f7420616e20494e45432065786563757469766500600082015250565b7f4f776e61626c653a2063616c6c6572206973206e6f7420746865206f776e6572600082015250565b7f43616c6c6572206973206e6f74206120566f7465720000000000000000000000600082015250565b7f416363657373436f6e74726f6c3a206163636f756e7420000000000000000000600082015250565b7f206973206d697373696e6720726f6c6520000000000000000000000000000000600082015250565b7f416363657373436f6e74726f6c3a2063616e206f6e6c792072656e6f756e636560008201527f20726f6c657320666f722073656c660000000000000000000000000000000000602082015250565b61222a81611e11565b811461223557600080fd5b50565b61224181611e2f565b811461224c57600080fd5b50565b61225881611e39565b811461226357600080fd5b50565b61226f81611e85565b811461227a57600080fd5b5056fea2646970667358221220d9ed93fe6ddaf00b51fac4ee28861545a25f34ffecfc5d0e988efac5b83da68864736f6c63430008070033",
					"opcodes": "PUSH1 0x80 PUSH1 0x40 MSTORE PUSH1 0x40 MLOAD DUP1 PUSH1 0x80 ADD PUSH1 0x40 MSTORE DUP1 PUSH1 0x40 MLOAD DUP1 PUSH1 0x40 ADD PUSH1 0x40 MSTORE DUP1 PUSH1 0x3 DUP2 MSTORE PUSH1 0x20 ADD PUSH32 0x4150430000000000000000000000000000000000000000000000000000000000 DUP2 MSTORE POP DUP2 MSTORE PUSH1 0x20 ADD PUSH1 0x40 MLOAD DUP1 PUSH1 0x40 ADD PUSH1 0x40 MSTORE DUP1 PUSH1 0x3 DUP2 MSTORE PUSH1 0x20 ADD PUSH32 0x5044500000000000000000000000000000000000000000000000000000000000 DUP2 MSTORE POP DUP2 MSTORE PUSH1 0x20 ADD PUSH1 0x40 MLOAD DUP1 PUSH1 0x40 ADD PUSH1 0x40 MSTORE DUP1 PUSH1 0x2 DUP2 MSTORE PUSH1 0x20 ADD PUSH32 0x4C50000000000000000000000000000000000000000000000000000000000000 DUP2 MSTORE POP DUP2 MSTORE PUSH1 0x20 ADD PUSH1 0x40 MLOAD DUP1 PUSH1 0x40 ADD PUSH1 0x40 MSTORE DUP1 PUSH1 0x4 DUP2 MSTORE PUSH1 0x20 ADD PUSH32 0x4E4E505000000000000000000000000000000000000000000000000000000000 DUP2 MSTORE POP DUP2 MSTORE POP PUSH1 0x6 SWAP1 PUSH1 0x4 PUSH3 0x10B SWAP3 SWAP2 SWAP1 PUSH3 0x393 JUMP JUMPDEST POP CALLVALUE DUP1 ISZERO PUSH3 0x119 JUMPI PUSH1 0x0 DUP1 REVERT JUMPDEST POP PUSH3 0x13A PUSH3 0x12E PUSH3 0x155 PUSH1 0x20 SHL PUSH1 0x20 SHR JUMP JUMPDEST PUSH3 0x15D PUSH1 0x20 SHL PUSH1 0x20 SHR JUMP JUMPDEST PUSH3 0x14F PUSH1 0x0 DUP1 SHL CALLER PUSH3 0x221 PUSH1 0x20 SHL PUSH1 0x20 SHR JUMP JUMPDEST PUSH3 0x57D JUMP JUMPDEST PUSH1 0x0 CALLER SWAP1 POP SWAP1 JUMP JUMPDEST PUSH1 0x0 DUP1 PUSH1 0x0 SWAP1 SLOAD SWAP1 PUSH2 0x100 EXP SWAP1 DIV PUSH20 0xFFFFFFFFFFFFFFFFFFFFFFFFFFFFFFFFFFFFFFFF AND SWAP1 POP DUP2 PUSH1 0x0 DUP1 PUSH2 0x100 EXP DUP2 SLOAD DUP2 PUSH20 0xFFFFFFFFFFFFFFFFFFFFFFFFFFFFFFFFFFFFFFFF MUL NOT AND SWAP1 DUP4 PUSH20 0xFFFFFFFFFFFFFFFFFFFFFFFFFFFFFFFFFFFFFFFF AND MUL OR SWAP1 SSTORE POP DUP2 PUSH20 0xFFFFFFFFFFFFFFFFFFFFFFFFFFFFFFFFFFFFFFFF AND DUP2 PUSH20 0xFFFFFFFFFFFFFFFFFFFFFFFFFFFFFFFFFFFFFFFF AND PUSH32 0x8BE0079C531659141344CD1FD0A4F28419497F9722A3DAAFE3B4186F6B6457E0 PUSH1 0x40 MLOAD PUSH1 0x40 MLOAD DUP1 SWAP2 SUB SWAP1 LOG3 POP POP JUMP JUMPDEST PUSH3 0x233 DUP3 DUP3 PUSH3 0x237 PUSH1 0x20 SHL PUSH1 0x20 SHR JUMP JUMPDEST POP POP JUMP JUMPDEST PUSH3 0x249 DUP3 DUP3 PUSH3 0x328 PUSH1 0x20 SHL PUSH1 0x20 SHR JUMP JUMPDEST PUSH3 0x324 JUMPI PUSH1 0x1 DUP1 PUSH1 0x0 DUP5 DUP2 MSTORE PUSH1 0x20 ADD SWAP1 DUP2 MSTORE PUSH1 0x20 ADD PUSH1 0x0 KECCAK256 PUSH1 0x0 ADD PUSH1 0x0 DUP4 PUSH20 0xFFFFFFFFFFFFFFFFFFFFFFFFFFFFFFFFFFFFFFFF AND PUSH20 0xFFFFFFFFFFFFFFFFFFFFFFFFFFFFFFFFFFFFFFFF AND DUP2 MSTORE PUSH1 0x20 ADD SWAP1 DUP2 MSTORE PUSH1 0x20 ADD PUSH1 0x0 KECCAK256 PUSH1 0x0 PUSH2 0x100 EXP DUP2 SLOAD DUP2 PUSH1 0xFF MUL NOT AND SWAP1 DUP4 ISZERO ISZERO MUL OR SWAP1 SSTORE POP PUSH3 0x2C9 PUSH3 0x155 PUSH1 0x20 SHL PUSH1 0x20 SHR JUMP JUMPDEST PUSH20 0xFFFFFFFFFFFFFFFFFFFFFFFFFFFFFFFFFFFFFFFF AND DUP2 PUSH20 0xFFFFFFFFFFFFFFFFFFFFFFFFFFFFFFFFFFFFFFFF AND DUP4 PUSH32 0x2F8788117E7EFF1D82E926EC794901D17C78024A50270940304540A733656F0D PUSH1 0x40 MLOAD PUSH1 0x40 MLOAD DUP1 SWAP2 SUB SWAP1 LOG4 JUMPDEST POP POP JUMP JUMPDEST PUSH1 0x0 PUSH1 0x1 PUSH1 0x0 DUP5 DUP2 MSTORE PUSH1 0x20 ADD SWAP1 DUP2 MSTORE PUSH1 0x20 ADD PUSH1 0x0 KECCAK256 PUSH1 0x0 ADD PUSH1 0x0 DUP4 PUSH20 0xFFFFFFFFFFFFFFFFFFFFFFFFFFFFFFFFFFFFFFFF AND PUSH20 0xFFFFFFFFFFFFFFFFFFFFFFFFFFFFFFFFFFFFFFFF AND DUP2 MSTORE PUSH1 0x20 ADD SWAP1 DUP2 MSTORE PUSH1 0x20 ADD PUSH1 0x0 KECCAK256 PUSH1 0x0 SWAP1 SLOAD SWAP1 PUSH2 0x100 EXP SWAP1 DIV PUSH1 0xFF AND SWAP1 POP SWAP3 SWAP2 POP POP JUMP JUMPDEST DUP3 DUP1 SLOAD DUP3 DUP3 SSTORE SWAP1 PUSH1 0x0 MSTORE PUSH1 0x20 PUSH1 0x0 KECCAK256 SWAP1 DUP2 ADD SWAP3 DUP3 ISZERO PUSH3 0x3E7 JUMPI SWAP2 PUSH1 0x20 MUL DUP3 ADD JUMPDEST DUP3 DUP2 GT ISZERO PUSH3 0x3E6 JUMPI DUP3 MLOAD DUP3 SWAP1 DUP1 MLOAD SWAP1 PUSH1 0x20 ADD SWAP1 PUSH3 0x3D5 SWAP3 SWAP2 SWAP1 PUSH3 0x3FA JUMP JUMPDEST POP SWAP2 PUSH1 0x20 ADD SWAP2 SWAP1 PUSH1 0x1 ADD SWAP1 PUSH3 0x3B4 JUMP JUMPDEST JUMPDEST POP SWAP1 POP PUSH3 0x3F6 SWAP2 SWAP1 PUSH3 0x48B JUMP JUMPDEST POP SWAP1 JUMP JUMPDEST DUP3 DUP1 SLOAD PUSH3 0x408 SWAP1 PUSH3 0x518 JUMP JUMPDEST SWAP1 PUSH1 0x0 MSTORE PUSH1 0x20 PUSH1 0x0 KECCAK256 SWAP1 PUSH1 0x1F ADD PUSH1 0x20 SWAP1 DIV DUP2 ADD SWAP3 DUP3 PUSH3 0x42C JUMPI PUSH1 0x0 DUP6 SSTORE PUSH3 0x478 JUMP JUMPDEST DUP3 PUSH1 0x1F LT PUSH3 0x447 JUMPI DUP1 MLOAD PUSH1 0xFF NOT AND DUP4 DUP1 ADD OR DUP6 SSTORE PUSH3 0x478 JUMP JUMPDEST DUP3 DUP1 ADD PUSH1 0x1 ADD DUP6 SSTORE DUP3 ISZERO PUSH3 0x478 JUMPI SWAP2 DUP3 ADD JUMPDEST DUP3 DUP2 GT ISZERO PUSH3 0x477 JUMPI DUP3 MLOAD DUP3 SSTORE SWAP2 PUSH1 0x20 ADD SWAP2 SWAP1 PUSH1 0x1 ADD SWAP1 PUSH3 0x45A JUMP JUMPDEST JUMPDEST POP SWAP1 POP PUSH3 0x487 SWAP2 SWAP1 PUSH3 0x4B3 JUMP JUMPDEST POP SWAP1 JUMP JUMPDEST JUMPDEST DUP1 DUP3 GT ISZERO PUSH3 0x4AF JUMPI PUSH1 0x0 DUP2 DUP2 PUSH3 0x4A5 SWAP2 SWAP1 PUSH3 0x4D2 JUMP JUMPDEST POP PUSH1 0x1 ADD PUSH3 0x48C JUMP JUMPDEST POP SWAP1 JUMP JUMPDEST JUMPDEST DUP1 DUP3 GT ISZERO PUSH3 0x4CE JUMPI PUSH1 0x0 DUP2 PUSH1 0x0 SWAP1 SSTORE POP PUSH1 0x1 ADD PUSH3 0x4B4 JUMP JUMPDEST POP SWAP1 JUMP JUMPDEST POP DUP1 SLOAD PUSH3 0x4E0 SWAP1 PUSH3 0x518 JUMP JUMPDEST PUSH1 0x0 DUP3 SSTORE DUP1 PUSH1 0x1F LT PUSH3 0x4F4 JUMPI POP PUSH3 0x515 JUMP JUMPDEST PUSH1 0x1F ADD PUSH1 0x20 SWAP1 DIV SWAP1 PUSH1 0x0 MSTORE PUSH1 0x20 PUSH1 0x0 KECCAK256 SWAP1 DUP2 ADD SWAP1 PUSH3 0x514 SWAP2 SWAP1 PUSH3 0x4B3 JUMP JUMPDEST JUMPDEST POP JUMP JUMPDEST PUSH1 0x0 PUSH1 0x2 DUP3 DIV SWAP1 POP PUSH1 0x1 DUP3 AND DUP1 PUSH3 0x531 JUMPI PUSH1 0x7F DUP3 AND SWAP2 POP JUMPDEST PUSH1 0x20 DUP3 LT DUP2 EQ ISZERO PUSH3 0x548 JUMPI PUSH3 0x547 PUSH3 0x54E JUMP JUMPDEST JUMPDEST POP SWAP2 SWAP1 POP JUMP JUMPDEST PUSH32 0x4E487B7100000000000000000000000000000000000000000000000000000000 PUSH1 0x0 MSTORE PUSH1 0x22 PUSH1 0x4 MSTORE PUSH1 0x24 PUSH1 0x0 REVERT JUMPDEST PUSH2 0x22B3 DUP1 PUSH3 0x58D PUSH1 0x0 CODECOPY PUSH1 0x0 RETURN INVALID PUSH1 0x80 PUSH1 0x40 MSTORE CALLVALUE DUP1 ISZERO PUSH2 0x10 JUMPI PUSH1 0x0 DUP1 REVERT JUMPDEST POP PUSH1 0x4 CALLDATASIZE LT PUSH2 0x12C JUMPI PUSH1 0x0 CALLDATALOAD PUSH1 0xE0 SHR DUP1 PUSH4 0x8DA5CB5B GT PUSH2 0xAD JUMPI DUP1 PUSH4 0xD547741F GT PUSH2 0x71 JUMPI DUP1 PUSH4 0xD547741F EQ PUSH2 0x348 JUMPI DUP1 PUSH4 0xD59D2A58 EQ PUSH2 0x364 JUMPI DUP1 PUSH4 0xD9D55BA0 EQ PUSH2 0x380 JUMPI DUP1 PUSH4 0xDFD8459E EQ PUSH2 0x39C JUMPI DUP1 PUSH4 0xF2FDE38B EQ PUSH2 0x3B8 JUMPI PUSH2 0x12C JUMP JUMPDEST DUP1 PUSH4 0x8DA5CB5B EQ PUSH2 0x28B JUMPI DUP1 PUSH4 0x91D14854 EQ PUSH2 0x2A9 JUMPI DUP1 PUSH4 0x9C35D98B EQ PUSH2 0x2D9 JUMPI DUP1 PUSH4 0xA217FDDF EQ PUSH2 0x30C JUMPI DUP1 PUSH4 0xA94015C8 EQ PUSH2 0x32A JUMPI PUSH2 0x12C JUMP JUMPDEST DUP1 PUSH4 0x314FD68F GT PUSH2 0xF4 JUMPI DUP1 PUSH4 0x314FD68F EQ PUSH2 0x1FD JUMPI DUP1 PUSH4 0x36568ABE EQ PUSH2 0x22D JUMPI DUP1 PUSH4 0x3EC9AE35 EQ PUSH2 0x249 JUMPI DUP1 PUSH4 0x4F05DBA8 EQ PUSH2 0x265 JUMPI DUP1 PUSH4 0x715018A6 EQ PUSH2 0x281 JUMPI PUSH2 0x12C JUMP JUMPDEST DUP1 PUSH4 0x1FFC9A7 EQ PUSH2 0x131 JUMPI DUP1 PUSH4 0x248A9CA3 EQ PUSH2 0x161 JUMPI DUP1 PUSH4 0x290E9212 EQ PUSH2 0x191 JUMPI DUP1 PUSH4 0x2E0D37BB EQ PUSH2 0x1C3 JUMPI DUP1 PUSH4 0x2F2FF15D EQ PUSH2 0x1E1 JUMPI JUMPDEST PUSH1 0x0 DUP1 REVERT JUMPDEST PUSH2 0x14B PUSH1 0x4 DUP1 CALLDATASIZE SUB DUP2 ADD SWAP1 PUSH2 0x146 SWAP2 SWAP1 PUSH2 0x17FA JUMP JUMPDEST PUSH2 0x3D4 JUMP JUMPDEST PUSH1 0x40 MLOAD PUSH2 0x158 SWAP2 SWAP1 PUSH2 0x1B5B JUMP JUMPDEST PUSH1 0x40 MLOAD DUP1 SWAP2 SUB SWAP1 RETURN JUMPDEST PUSH2 0x17B PUSH1 0x4 DUP1 CALLDATASIZE SUB DUP2 ADD SWAP1 PUSH2 0x176 SWAP2 SWAP1 PUSH2 0x178D JUMP JUMPDEST PUSH2 0x44E JUMP JUMPDEST PUSH1 0x40 MLOAD PUSH2 0x188 SWAP2 SWAP1 PUSH2 0x1B76 JUMP JUMPDEST PUSH1 0x40 MLOAD DUP1 SWAP2 SUB SWAP1 RETURN JUMPDEST PUSH2 0x1AB PUSH1 0x4 DUP1 CALLDATASIZE SUB DUP2 ADD SWAP1 PUSH2 0x1A6 SWAP2 SWAP1 PUSH2 0x1896 JUMP JUMPDEST PUSH2 0x46E JUMP JUMPDEST PUSH1 0x40 MLOAD PUSH2 0x1BA SWAP4 SWAP3 SWAP2 SWAP1 PUSH2 0x1BB3 JUMP JUMPDEST PUSH1 0x40 MLOAD DUP1 SWAP2 SUB SWAP1 RETURN JUMPDEST PUSH2 0x1CB PUSH2 0x5D8 JUMP JUMPDEST PUSH1 0x40 MLOAD PUSH2 0x1D8 SWAP2 SWAP1 PUSH2 0x1B76 JUMP JUMPDEST PUSH1 0x40 MLOAD DUP1 SWAP2 SUB SWAP1 RETURN JUMPDEST PUSH2 0x1FB PUSH1 0x4 DUP1 CALLDATASIZE SUB DUP2 ADD SWAP1 PUSH2 0x1F6 SWAP2 SWAP1 PUSH2 0x17BA JUMP JUMPDEST PUSH2 0x5FC JUMP JUMPDEST STOP JUMPDEST PUSH2 0x217 PUSH1 0x4 DUP1 CALLDATASIZE SUB DUP2 ADD SWAP1 PUSH2 0x212 SWAP2 SWAP1 PUSH2 0x1896 JUMP JUMPDEST PUSH2 0x61D JUMP JUMPDEST PUSH1 0x40 MLOAD PUSH2 0x224 SWAP2 SWAP1 PUSH2 0x1B91 JUMP JUMPDEST PUSH1 0x40 MLOAD DUP1 SWAP2 SUB SWAP1 RETURN JUMPDEST PUSH2 0x247 PUSH1 0x4 DUP1 CALLDATASIZE SUB DUP2 ADD SWAP1 PUSH2 0x242 SWAP2 SWAP1 PUSH2 0x17BA JUMP JUMPDEST PUSH2 0x6C9 JUMP JUMPDEST STOP JUMPDEST PUSH2 0x263 PUSH1 0x4 DUP1 CALLDATASIZE SUB DUP2 ADD SWAP1 PUSH2 0x25E SWAP2 SWAP1 PUSH2 0x18C3 JUMP JUMPDEST PUSH2 0x74C JUMP JUMPDEST STOP JUMPDEST PUSH2 0x27F PUSH1 0x4 DUP1 CALLDATASIZE SUB DUP2 ADD SWAP1 PUSH2 0x27A SWAP2 SWAP1 PUSH2 0x171E JUMP JUMPDEST PUSH2 0x7F8 JUMP JUMPDEST STOP JUMPDEST PUSH2 0x289 PUSH2 0x96B JUMP JUMPDEST STOP JUMPDEST PUSH2 0x293 PUSH2 0x97F JUMP JUMPDEST PUSH1 0x40 MLOAD PUSH2 0x2A0 SWAP2 SWAP1 PUSH2 0x1AFB JUMP JUMPDEST PUSH1 0x40 MLOAD DUP1 SWAP2 SUB SWAP1 RETURN JUMPDEST PUSH2 0x2C3 PUSH1 0x4 DUP1 CALLDATASIZE SUB DUP2 ADD SWAP1 PUSH2 0x2BE SWAP2 SWAP1 PUSH2 0x17BA JUMP JUMPDEST PUSH2 0x9A8 JUMP JUMPDEST PUSH1 0x40 MLOAD PUSH2 0x2D0 SWAP2 SWAP1 PUSH2 0x1B5B JUMP JUMPDEST PUSH1 0x40 MLOAD DUP1 SWAP2 SUB SWAP1 RETURN JUMPDEST PUSH2 0x2F3 PUSH1 0x4 DUP1 CALLDATASIZE SUB DUP2 ADD SWAP1 PUSH2 0x2EE SWAP2 SWAP1 PUSH2 0x1896 JUMP JUMPDEST PUSH2 0xA13 JUMP JUMPDEST PUSH1 0x40 MLOAD PUSH2 0x303 SWAP5 SWAP4 SWAP3 SWAP2 SWAP1 PUSH2 0x1B16 JUMP JUMPDEST PUSH1 0x40 MLOAD DUP1 SWAP2 SUB SWAP1 RETURN JUMPDEST PUSH2 0x314 PUSH2 0xA70 JUMP JUMPDEST PUSH1 0x40 MLOAD PUSH2 0x321 SWAP2 SWAP1 PUSH2 0x1B76 JUMP JUMPDEST PUSH1 0x40 MLOAD DUP1 SWAP2 SUB SWAP1 RETURN JUMPDEST PUSH2 0x332 PUSH2 0xA77 JUMP JUMPDEST PUSH1 0x40 MLOAD PUSH2 0x33F SWAP2 SWAP1 PUSH2 0x1B76 JUMP JUMPDEST PUSH1 0x40 MLOAD DUP1 SWAP2 SUB SWAP1 RETURN JUMPDEST PUSH2 0x362 PUSH1 0x4 DUP1 CALLDATASIZE SUB DUP2 ADD SWAP1 PUSH2 0x35D SWAP2 SWAP1 PUSH2 0x17BA JUMP JUMPDEST PUSH2 0xA9B JUMP JUMPDEST STOP JUMPDEST PUSH2 0x37E PUSH1 0x4 DUP1 CALLDATASIZE SUB DUP2 ADD SWAP1 PUSH2 0x379 SWAP2 SWAP1 PUSH2 0x1827 JUMP JUMPDEST PUSH2 0xABC JUMP JUMPDEST STOP JUMPDEST PUSH2 0x39A PUSH1 0x4 DUP1 CALLDATASIZE SUB DUP2 ADD SWAP1 PUSH2 0x395 SWAP2 SWAP1 PUSH2 0x1896 JUMP JUMPDEST PUSH2 0xCEA JUMP JUMPDEST STOP JUMPDEST PUSH2 0x3B6 PUSH1 0x4 DUP1 CALLDATASIZE SUB DUP2 ADD SWAP1 PUSH2 0x3B1 SWAP2 SWAP1 PUSH2 0x16F1 JUMP JUMPDEST PUSH2 0xD8B JUMP JUMPDEST STOP JUMPDEST PUSH2 0x3D2 PUSH1 0x4 DUP1 CALLDATASIZE SUB DUP2 ADD SWAP1 PUSH2 0x3CD SWAP2 SWAP1 PUSH2 0x16F1 JUMP JUMPDEST PUSH2 0xDC0 JUMP JUMPDEST STOP JUMPDEST PUSH1 0x0 PUSH32 0x7965DB0B00000000000000000000000000000000000000000000000000000000 PUSH28 0xFFFFFFFFFFFFFFFFFFFFFFFFFFFFFFFFFFFFFFFFFFFFFFFFFFFFFFFF NOT AND DUP3 PUSH28 0xFFFFFFFFFFFFFFFFFFFFFFFFFFFFFFFFFFFFFFFFFFFFFFFFFFFFFFFF NOT AND EQ DUP1 PUSH2 0x447 JUMPI POP PUSH2 0x446 DUP3 PUSH2 0xE44 JUMP JUMPDEST JUMPDEST SWAP1 POP SWAP2 SWAP1 POP JUMP JUMPDEST PUSH1 0x0 PUSH1 0x1 PUSH1 0x0 DUP4 DUP2 MSTORE PUSH1 0x20 ADD SWAP1 DUP2 MSTORE PUSH1 0x20 ADD PUSH1 0x0 KECCAK256 PUSH1 0x1 ADD SLOAD SWAP1 POP SWAP2 SWAP1 POP JUMP JUMPDEST PUSH1 0x7 DUP2 DUP2 SLOAD DUP2 LT PUSH2 0x47E JUMPI PUSH1 0x0 DUP1 REVERT JUMPDEST SWAP1 PUSH1 0x0 MSTORE PUSH1 0x20 PUSH1 0x0 KECCAK256 SWAP1 PUSH1 0x3 MUL ADD PUSH1 0x0 SWAP2 POP SWAP1 POP DUP1 PUSH1 0x0 ADD DUP1 SLOAD PUSH2 0x4A1 SWAP1 PUSH2 0x1EFB JUMP JUMPDEST DUP1 PUSH1 0x1F ADD PUSH1 0x20 DUP1 SWAP2 DIV MUL PUSH1 0x20 ADD PUSH1 0x40 MLOAD SWAP1 DUP2 ADD PUSH1 0x40 MSTORE DUP1 SWAP3 SWAP2 SWAP1 DUP2 DUP2 MSTORE PUSH1 0x20 ADD DUP3 DUP1 SLOAD PUSH2 0x4CD SWAP1 PUSH2 0x1EFB JUMP JUMPDEST DUP1 ISZERO PUSH2 0x51A JUMPI DUP1 PUSH1 0x1F LT PUSH2 0x4EF JUMPI PUSH2 0x100 DUP1 DUP4 SLOAD DIV MUL DUP4 MSTORE SWAP2 PUSH1 0x20 ADD SWAP2 PUSH2 0x51A JUMP JUMPDEST DUP3 ADD SWAP2 SWAP1 PUSH1 0x0 MSTORE PUSH1 0x20 PUSH1 0x0 KECCAK256 SWAP1 JUMPDEST DUP2 SLOAD DUP2 MSTORE SWAP1 PUSH1 0x1 ADD SWAP1 PUSH1 0x20 ADD DUP1 DUP4 GT PUSH2 0x4FD JUMPI DUP3 SWAP1 SUB PUSH1 0x1F AND DUP3 ADD SWAP2 JUMPDEST POP POP POP POP POP SWAP1 DUP1 PUSH1 0x1 ADD PUSH1 0x0 SWAP1 SLOAD SWAP1 PUSH2 0x100 EXP SWAP1 DIV PUSH20 0xFFFFFFFFFFFFFFFFFFFFFFFFFFFFFFFFFFFFFFFF AND SWAP1 DUP1 PUSH1 0x2 ADD DUP1 SLOAD PUSH2 0x555 SWAP1 PUSH2 0x1EFB JUMP JUMPDEST DUP1 PUSH1 0x1F ADD PUSH1 0x20 DUP1 SWAP2 DIV MUL PUSH1 0x20 ADD PUSH1 0x40 MLOAD SWAP1 DUP2 ADD PUSH1 0x40 MSTORE DUP1 SWAP3 SWAP2 SWAP1 DUP2 DUP2 MSTORE PUSH1 0x20 ADD DUP3 DUP1 SLOAD PUSH2 0x581 SWAP1 PUSH2 0x1EFB JUMP JUMPDEST DUP1 ISZERO PUSH2 0x5CE JUMPI DUP1 PUSH1 0x1F LT PUSH2 0x5A3 JUMPI PUSH2 0x100 DUP1 DUP4 SLOAD DIV MUL DUP4 MSTORE SWAP2 PUSH1 0x20 ADD SWAP2 PUSH2 0x5CE JUMP JUMPDEST DUP3 ADD SWAP2 SWAP1 PUSH1 0x0 MSTORE PUSH1 0x20 PUSH1 0x0 KECCAK256 SWAP1 JUMPDEST DUP2 SLOAD DUP2 MSTORE SWAP1 PUSH1 0x1 ADD SWAP1 PUSH1 0x20 ADD DUP1 DUP4 GT PUSH2 0x5B1 JUMPI DUP3 SWAP1 SUB PUSH1 0x1F AND DUP3 ADD SWAP2 JUMPDEST POP POP POP POP POP SWAP1 POP DUP4 JUMP JUMPDEST PUSH32 0x82F6ED76E0352438E6A6E35C77719C3F04BF277FDC8FEC7E5FF5F65E001D902 DUP2 JUMP JUMPDEST PUSH2 0x605 DUP3 PUSH2 0x44E JUMP JUMPDEST PUSH2 0x60E DUP2 PUSH2 0xEAE JUMP JUMPDEST PUSH2 0x618 DUP4 DUP4 PUSH2 0xEC2 JUMP JUMPDEST POP POP POP JUMP JUMPDEST PUSH1 0x6 DUP2 DUP2 SLOAD DUP2 LT PUSH2 0x62D JUMPI PUSH1 0x0 DUP1 REVERT JUMPDEST SWAP1 PUSH1 0x0 MSTORE PUSH1 0x20 PUSH1 0x0 KECCAK256 ADD PUSH1 0x0 SWAP2 POP SWAP1 POP DUP1 SLOAD PUSH2 0x648 SWAP1 PUSH2 0x1EFB JUMP JUMPDEST DUP1 PUSH1 0x1F ADD PUSH1 0x20 DUP1 SWAP2 DIV MUL PUSH1 0x20 ADD PUSH1 0x40 MLOAD SWAP1 DUP2 ADD PUSH1 0x40 MSTORE DUP1 SWAP3 SWAP2 SWAP1 DUP2 DUP2 MSTORE PUSH1 0x20 ADD DUP3 DUP1 SLOAD PUSH2 0x674 SWAP1 PUSH2 0x1EFB JUMP JUMPDEST DUP1 ISZERO PUSH2 0x6C1 JUMPI DUP1 PUSH1 0x1F LT PUSH2 0x696 JUMPI PUSH2 0x100 DUP1 DUP4 SLOAD DIV MUL DUP4 MSTORE SWAP2 PUSH1 0x20 ADD SWAP2 PUSH2 0x6C1 JUMP JUMPDEST DUP3 ADD SWAP2 SWAP1 PUSH1 0x0 MSTORE PUSH1 0x20 PUSH1 0x0 KECCAK256 SWAP1 JUMPDEST DUP2 SLOAD DUP2 MSTORE SWAP1 PUSH1 0x1 ADD SWAP1 PUSH1 0x20 ADD DUP1 DUP4 GT PUSH2 0x6A4 JUMPI DUP3 SWAP1 SUB PUSH1 0x1F AND DUP3 ADD SWAP2 JUMPDEST POP POP POP POP POP DUP2 JUMP JUMPDEST PUSH2 0x6D1 PUSH2 0xFA2 JUMP JUMPDEST PUSH20 0xFFFFFFFFFFFFFFFFFFFFFFFFFFFFFFFFFFFFFFFF AND DUP2 PUSH20 0xFFFFFFFFFFFFFFFFFFFFFFFFFFFFFFFFFFFFFFFF AND EQ PUSH2 0x73E JUMPI PUSH1 0x40 MLOAD PUSH32 0x8C379A000000000000000000000000000000000000000000000000000000000 DUP2 MSTORE PUSH1 0x4 ADD PUSH2 0x735 SWAP1 PUSH2 0x1C98 JUMP JUMPDEST PUSH1 0x40 MLOAD DUP1 SWAP2 SUB SWAP1 REVERT JUMPDEST PUSH2 0x748 DUP3 DUP3 PUSH2 0xFAA JUMP JUMPDEST POP POP JUMP JUMPDEST PUSH2 0x776 PUSH32 0x15283FD96AA656C9DF35AC2FCB112678A5F24F1CA97E591A97D1D16003DBFC9C CALLER PUSH2 0x9A8 JUMP JUMPDEST PUSH2 0x7B5 JUMPI PUSH1 0x40 MLOAD PUSH32 0x8C379A000000000000000000000000000000000000000000000000000000000 DUP2 MSTORE PUSH1 0x4 ADD PUSH2 0x7AC SWAP1 PUSH2 0x1C78 JUMP JUMPDEST PUSH1 0x40 MLOAD DUP1 SWAP2 SUB SWAP1 REVERT JUMPDEST PUSH1 0x9 PUSH1 0x0 DUP3 DUP2 MSTORE PUSH1 0x20 ADD SWAP1 DUP2 MSTORE PUSH1 0x20 ADD PUSH1 0x0 KECCAK256 PUSH1 0x1 ADD DUP3 PUSH1 0x4 DUP2 LT PUSH2 0x7DD JUMPI PUSH2 0x7DC PUSH2 0x2005 JUMP JUMPDEST JUMPDEST ADD PUSH1 0x0 DUP2 SLOAD DUP1 SWAP3 SWAP2 SWAP1 PUSH2 0x7EF SWAP1 PUSH2 0x1F5E JUMP JUMPDEST SWAP2 SWAP1 POP SSTORE POP POP POP JUMP JUMPDEST PUSH2 0x822 PUSH32 0x82F6ED76E0352438E6A6E35C77719C3F04BF277FDC8FEC7E5FF5F65E001D902 CALLER PUSH2 0x9A8 JUMP JUMPDEST PUSH2 0x861 JUMPI PUSH1 0x40 MLOAD PUSH32 0x8C379A000000000000000000000000000000000000000000000000000000000 DUP2 MSTORE PUSH1 0x4 ADD PUSH2 0x858 SWAP1 PUSH2 0x1C38 JUMP JUMPDEST PUSH1 0x40 MLOAD DUP1 SWAP2 SUB SWAP1 REVERT JUMPDEST DUP2 PUSH1 0x9 PUSH1 0x0 PUSH1 0x5 SLOAD DUP2 MSTORE PUSH1 0x20 ADD SWAP1 DUP2 MSTORE PUSH1 0x20 ADD PUSH1 0x0 KECCAK256 PUSH1 0x5 ADD DUP2 SWAP1 SSTORE POP DUP1 PUSH1 0x9 PUSH1 0x0 PUSH1 0x5 SLOAD DUP2 MSTORE PUSH1 0x20 ADD SWAP1 DUP2 MSTORE PUSH1 0x20 ADD PUSH1 0x0 KECCAK256 PUSH1 0x6 ADD DUP2 SWAP1 SSTORE POP PUSH1 0x0 JUMPDEST DUP4 MLOAD DUP2 LT ISZERO PUSH2 0x94D JUMPI PUSH1 0x9 PUSH1 0x0 PUSH1 0x5 SLOAD DUP2 MSTORE PUSH1 0x20 ADD SWAP1 DUP2 MSTORE PUSH1 0x20 ADD PUSH1 0x0 KECCAK256 PUSH1 0x0 ADD DUP5 DUP3 DUP2 MLOAD DUP2 LT PUSH2 0x8D2 JUMPI PUSH2 0x8D1 PUSH2 0x2005 JUMP JUMPDEST JUMPDEST PUSH1 0x20 MUL PUSH1 0x20 ADD ADD MLOAD SWAP1 DUP1 PUSH1 0x1 DUP2 SLOAD ADD DUP1 DUP3 SSTORE DUP1 SWAP2 POP POP PUSH1 0x1 SWAP1 SUB SWAP1 PUSH1 0x0 MSTORE PUSH1 0x20 PUSH1 0x0 KECCAK256 ADD PUSH1 0x0 SWAP1 SWAP2 SWAP1 SWAP2 SWAP1 SWAP2 PUSH2 0x100 EXP DUP2 SLOAD DUP2 PUSH20 0xFFFFFFFFFFFFFFFFFFFFFFFFFFFFFFFFFFFFFFFF MUL NOT AND SWAP1 DUP4 PUSH20 0xFFFFFFFFFFFFFFFFFFFFFFFFFFFFFFFFFFFFFFFF AND MUL OR SWAP1 SSTORE POP DUP1 DUP1 PUSH2 0x945 SWAP1 PUSH2 0x1F5E JUMP JUMPDEST SWAP2 POP POP PUSH2 0x89E JUMP JUMPDEST POP PUSH1 0x5 PUSH1 0x0 DUP2 SLOAD DUP1 SWAP3 SWAP2 SWAP1 PUSH2 0x961 SWAP1 PUSH2 0x1F5E JUMP JUMPDEST SWAP2 SWAP1 POP SSTORE POP POP POP POP JUMP JUMPDEST PUSH2 0x973 PUSH2 0x108C JUMP JUMPDEST PUSH2 0x97D PUSH1 0x0 PUSH2 0x110A JUMP JUMPDEST JUMP JUMPDEST PUSH1 0x0 DUP1 PUSH1 0x0 SWAP1 SLOAD SWAP1 PUSH2 0x100 EXP SWAP1 DIV PUSH20 0xFFFFFFFFFFFFFFFFFFFFFFFFFFFFFFFFFFFFFFFF AND SWAP1 POP SWAP1 JUMP JUMPDEST PUSH1 0x0 PUSH1 0x1 PUSH1 0x0 DUP5 DUP2 MSTORE PUSH1 0x20 ADD SWAP1 DUP2 MSTORE PUSH1 0x20 ADD PUSH1 0x0 KECCAK256 PUSH1 0x0 ADD PUSH1 0x0 DUP4 PUSH20 0xFFFFFFFFFFFFFFFFFFFFFFFFFFFFFFFFFFFFFFFF AND PUSH20 0xFFFFFFFFFFFFFFFFFFFFFFFFFFFFFFFFFFFFFFFF AND DUP2 MSTORE PUSH1 0x20 ADD SWAP1 DUP2 MSTORE PUSH1 0x20 ADD PUSH1 0x0 KECCAK256 PUSH1 0x0 SWAP1 SLOAD SWAP1 PUSH2 0x100 EXP SWAP1 DIV PUSH1 0xFF AND SWAP1 POP SWAP3 SWAP2 POP POP JUMP JUMPDEST PUSH1 0x8 PUSH1 0x20 MSTORE DUP1 PUSH1 0x0 MSTORE PUSH1 0x40 PUSH1 0x0 KECCAK256 PUSH1 0x0 SWAP2 POP SWAP1 POP DUP1 PUSH1 0x0 ADD PUSH1 0x0 SWAP1 SLOAD SWAP1 PUSH2 0x100 EXP SWAP1 DIV PUSH20 0xFFFFFFFFFFFFFFFFFFFFFFFFFFFFFFFFFFFFFFFF AND SWAP1 DUP1 PUSH1 0x1 ADD SLOAD SWAP1 DUP1 PUSH1 0x2 ADD SLOAD SWAP1 DUP1 PUSH1 0x3 ADD PUSH1 0x0 SWAP1 SLOAD SWAP1 PUSH2 0x100 EXP SWAP1 DIV PUSH1 0xFF AND SWAP1 POP DUP5 JUMP JUMPDEST PUSH1 0x0 DUP1 SHL DUP2 JUMP JUMPDEST PUSH32 0x15283FD96AA656C9DF35AC2FCB112678A5F24F1CA97E591A97D1D16003DBFC9C DUP2 JUMP JUMPDEST PUSH2 0xAA4 DUP3 PUSH2 0x44E JUMP JUMPDEST PUSH2 0xAAD DUP2 PUSH2 0xEAE JUMP JUMPDEST PUSH2 0xAB7 DUP4 DUP4 PUSH2 0xFAA JUMP JUMPDEST POP POP POP JUMP JUMPDEST PUSH2 0xAE6 PUSH32 0x82F6ED76E0352438E6A6E35C77719C3F04BF277FDC8FEC7E5FF5F65E001D902 CALLER PUSH2 0x9A8 JUMP JUMPDEST PUSH2 0xB25 JUMPI PUSH1 0x40 MLOAD PUSH32 0x8C379A000000000000000000000000000000000000000000000000000000000 DUP2 MSTORE PUSH1 0x4 ADD PUSH2 0xB1C SWAP1 PUSH2 0x1C38 JUMP JUMPDEST PUSH1 0x40 MLOAD DUP1 SWAP2 SUB SWAP1 REVERT JUMPDEST PUSH2 0xB2D PUSH2 0x14B5 JUMP JUMPDEST DUP4 DUP2 PUSH1 0x0 ADD DUP2 SWAP1 MSTORE POP DUP3 DUP2 PUSH1 0x20 ADD SWAP1 PUSH20 0xFFFFFFFFFFFFFFFFFFFFFFFFFFFFFFFFFFFFFFFF AND SWAP1 DUP2 PUSH20 0xFFFFFFFFFFFFFFFFFFFFFFFFFFFFFFFFFFFFFFFF AND DUP2 MSTORE POP POP PUSH1 0x6 DUP3 DUP2 SLOAD DUP2 LT PUSH2 0xB82 JUMPI PUSH2 0xB81 PUSH2 0x2005 JUMP JUMPDEST JUMPDEST SWAP1 PUSH1 0x0 MSTORE PUSH1 0x20 PUSH1 0x0 KECCAK256 ADD DUP1 SLOAD PUSH2 0xB97 SWAP1 PUSH2 0x1EFB JUMP JUMPDEST DUP1 PUSH1 0x1F ADD PUSH1 0x20 DUP1 SWAP2 DIV MUL PUSH1 0x20 ADD PUSH1 0x40 MLOAD SWAP1 DUP2 ADD PUSH1 0x40 MSTORE DUP1 SWAP3 SWAP2 SWAP1 DUP2 DUP2 MSTORE PUSH1 0x20 ADD DUP3 DUP1 SLOAD PUSH2 0xBC3 SWAP1 PUSH2 0x1EFB JUMP JUMPDEST DUP1 ISZERO PUSH2 0xC10 JUMPI DUP1 PUSH1 0x1F LT PUSH2 0xBE5 JUMPI PUSH2 0x100 DUP1 DUP4 SLOAD DIV MUL DUP4 MSTORE SWAP2 PUSH1 0x20 ADD SWAP2 PUSH2 0xC10 JUMP JUMPDEST DUP3 ADD SWAP2 SWAP1 PUSH1 0x0 MSTORE PUSH1 0x20 PUSH1 0x0 KECCAK256 SWAP1 JUMPDEST DUP2 SLOAD DUP2 MSTORE SWAP1 PUSH1 0x1 ADD SWAP1 PUSH1 0x20 ADD DUP1 DUP4 GT PUSH2 0xBF3 JUMPI DUP3 SWAP1 SUB PUSH1 0x1F AND DUP3 ADD SWAP2 JUMPDEST POP POP POP POP POP DUP2 PUSH1 0x40 ADD DUP2 SWAP1 MSTORE POP PUSH1 0x7 DUP2 SWAP1 DUP1 PUSH1 0x1 DUP2 SLOAD ADD DUP1 DUP3 SSTORE DUP1 SWAP2 POP POP PUSH1 0x1 SWAP1 SUB SWAP1 PUSH1 0x0 MSTORE PUSH1 0x20 PUSH1 0x0 KECCAK256 SWAP1 PUSH1 0x3 MUL ADD PUSH1 0x0 SWAP1 SWAP2 SWAP1 SWAP2 SWAP1 SWAP2 POP PUSH1 0x0 DUP3 ADD MLOAD DUP2 PUSH1 0x0 ADD SWAP1 DUP1 MLOAD SWAP1 PUSH1 0x20 ADD SWAP1 PUSH2 0xC65 SWAP3 SWAP2 SWAP1 PUSH2 0x14EC JUMP JUMPDEST POP PUSH1 0x20 DUP3 ADD MLOAD DUP2 PUSH1 0x1 ADD PUSH1 0x0 PUSH2 0x100 EXP DUP2 SLOAD DUP2 PUSH20 0xFFFFFFFFFFFFFFFFFFFFFFFFFFFFFFFFFFFFFFFF MUL NOT AND SWAP1 DUP4 PUSH20 0xFFFFFFFFFFFFFFFFFFFFFFFFFFFFFFFFFFFFFFFF AND MUL OR SWAP1 SSTORE POP PUSH1 0x40 DUP3 ADD MLOAD DUP2 PUSH1 0x2 ADD SWAP1 DUP1 MLOAD SWAP1 PUSH1 0x20 ADD SWAP1 PUSH2 0xCC9 SWAP3 SWAP2 SWAP1 PUSH2 0x14EC JUMP JUMPDEST POP POP POP PUSH1 0x3 PUSH1 0x0 DUP2 SLOAD DUP1 SWAP3 SWAP2 SWAP1 PUSH2 0xCDF SWAP1 PUSH2 0x1F5E JUMP JUMPDEST SWAP2 SWAP1 POP SSTORE POP POP POP POP POP JUMP JUMPDEST CALLER PUSH1 0x8 PUSH1 0x0 PUSH1 0x4 SLOAD DUP2 MSTORE PUSH1 0x20 ADD SWAP1 DUP2 MSTORE PUSH1 0x20 ADD PUSH1 0x0 KECCAK256 PUSH1 0x0 ADD PUSH1 0x0 PUSH2 0x100 EXP DUP2 SLOAD DUP2 PUSH20 0xFFFFFFFFFFFFFFFFFFFFFFFFFFFFFFFFFFFFFFFF MUL NOT AND SWAP1 DUP4 PUSH20 0xFFFFFFFFFFFFFFFFFFFFFFFFFFFFFFFFFFFFFFFF AND MUL OR SWAP1 SSTORE POP DUP1 PUSH1 0x8 PUSH1 0x0 PUSH1 0x4 SLOAD DUP2 MSTORE PUSH1 0x20 ADD SWAP1 DUP2 MSTORE PUSH1 0x20 ADD PUSH1 0x0 KECCAK256 PUSH1 0x1 ADD DUP2 SWAP1 SSTORE POP PUSH2 0xD88 PUSH32 0x15283FD96AA656C9DF35AC2FCB112678A5F24F1CA97E591A97D1D16003DBFC9C CALLER PUSH2 0x11CE JUMP JUMPDEST POP JUMP JUMPDEST PUSH2 0xD93 PUSH2 0x108C JUMP JUMPDEST PUSH2 0xDBD PUSH32 0x82F6ED76E0352438E6A6E35C77719C3F04BF277FDC8FEC7E5FF5F65E001D902 DUP3 PUSH2 0x5FC JUMP JUMPDEST POP JUMP JUMPDEST PUSH2 0xDC8 PUSH2 0x108C JUMP JUMPDEST PUSH1 0x0 PUSH20 0xFFFFFFFFFFFFFFFFFFFFFFFFFFFFFFFFFFFFFFFF AND DUP2 PUSH20 0xFFFFFFFFFFFFFFFFFFFFFFFFFFFFFFFFFFFFFFFF AND EQ ISZERO PUSH2 0xE38 JUMPI PUSH1 0x40 MLOAD PUSH32 0x8C379A000000000000000000000000000000000000000000000000000000000 DUP2 MSTORE PUSH1 0x4 ADD PUSH2 0xE2F SWAP1 PUSH2 0x1C18 JUMP JUMPDEST PUSH1 0x40 MLOAD DUP1 SWAP2 SUB SWAP1 REVERT JUMPDEST PUSH2 0xE41 DUP2 PUSH2 0x110A JUMP JUMPDEST POP JUMP JUMPDEST PUSH1 0x0 PUSH32 0x1FFC9A700000000000000000000000000000000000000000000000000000000 PUSH28 0xFFFFFFFFFFFFFFFFFFFFFFFFFFFFFFFFFFFFFFFFFFFFFFFFFFFFFFFF NOT AND DUP3 PUSH28 0xFFFFFFFFFFFFFFFFFFFFFFFFFFFFFFFFFFFFFFFFFFFFFFFFFFFFFFFF NOT AND EQ SWAP1 POP SWAP2 SWAP1 POP JUMP JUMPDEST PUSH2 0xEBF DUP2 PUSH2 0xEBA PUSH2 0xFA2 JUMP JUMPDEST PUSH2 0x11DC JUMP JUMPDEST POP JUMP JUMPDEST PUSH2 0xECC DUP3 DUP3 PUSH2 0x9A8 JUMP JUMPDEST PUSH2 0xF9E JUMPI PUSH1 0x1 DUP1 PUSH1 0x0 DUP5 DUP2 MSTORE PUSH1 0x20 ADD SWAP1 DUP2 MSTORE PUSH1 0x20 ADD PUSH1 0x0 KECCAK256 PUSH1 0x0 ADD PUSH1 0x0 DUP4 PUSH20 0xFFFFFFFFFFFFFFFFFFFFFFFFFFFFFFFFFFFFFFFF AND PUSH20 0xFFFFFFFFFFFFFFFFFFFFFFFFFFFFFFFFFFFFFFFF AND DUP2 MSTORE PUSH1 0x20 ADD SWAP1 DUP2 MSTORE PUSH1 0x20 ADD PUSH1 0x0 KECCAK256 PUSH1 0x0 PUSH2 0x100 EXP DUP2 SLOAD DUP2 PUSH1 0xFF MUL NOT AND SWAP1 DUP4 ISZERO ISZERO MUL OR SWAP1 SSTORE POP PUSH2 0xF43 PUSH2 0xFA2 JUMP JUMPDEST PUSH20 0xFFFFFFFFFFFFFFFFFFFFFFFFFFFFFFFFFFFFFFFF AND DUP2 PUSH20 0xFFFFFFFFFFFFFFFFFFFFFFFFFFFFFFFFFFFFFFFF AND DUP4 PUSH32 0x2F8788117E7EFF1D82E926EC794901D17C78024A50270940304540A733656F0D PUSH1 0x40 MLOAD PUSH1 0x40 MLOAD DUP1 SWAP2 SUB SWAP1 LOG4 JUMPDEST POP POP JUMP JUMPDEST PUSH1 0x0 CALLER SWAP1 POP SWAP1 JUMP JUMPDEST PUSH2 0xFB4 DUP3 DUP3 PUSH2 0x9A8 JUMP JUMPDEST ISZERO PUSH2 0x1088 JUMPI PUSH1 0x0 PUSH1 0x1 PUSH1 0x0 DUP5 DUP2 MSTORE PUSH1 0x20 ADD SWAP1 DUP2 MSTORE PUSH1 0x20 ADD PUSH1 0x0 KECCAK256 PUSH1 0x0 ADD PUSH1 0x0 DUP4 PUSH20 0xFFFFFFFFFFFFFFFFFFFFFFFFFFFFFFFFFFFFFFFF AND PUSH20 0xFFFFFFFFFFFFFFFFFFFFFFFFFFFFFFFFFFFFFFFF AND DUP2 MSTORE PUSH1 0x20 ADD SWAP1 DUP2 MSTORE PUSH1 0x20 ADD PUSH1 0x0 KECCAK256 PUSH1 0x0 PUSH2 0x100 EXP DUP2 SLOAD DUP2 PUSH1 0xFF MUL NOT AND SWAP1 DUP4 ISZERO ISZERO MUL OR SWAP1 SSTORE POP PUSH2 0x102D PUSH2 0xFA2 JUMP JUMPDEST PUSH20 0xFFFFFFFFFFFFFFFFFFFFFFFFFFFFFFFFFFFFFFFF AND DUP2 PUSH20 0xFFFFFFFFFFFFFFFFFFFFFFFFFFFFFFFFFFFFFFFF AND DUP4 PUSH32 0xF6391F5C32D9C69D2A47EA670B442974B53935D1EDC7FD64EB21E047A839171B PUSH1 0x40 MLOAD PUSH1 0x40 MLOAD DUP1 SWAP2 SUB SWAP1 LOG4 JUMPDEST POP POP JUMP JUMPDEST PUSH2 0x1094 PUSH2 0xFA2 JUMP JUMPDEST PUSH20 0xFFFFFFFFFFFFFFFFFFFFFFFFFFFFFFFFFFFFFFFF AND PUSH2 0x10B2 PUSH2 0x97F JUMP JUMPDEST PUSH20 0xFFFFFFFFFFFFFFFFFFFFFFFFFFFFFFFFFFFFFFFF AND EQ PUSH2 0x1108 JUMPI PUSH1 0x40 MLOAD PUSH32 0x8C379A000000000000000000000000000000000000000000000000000000000 DUP2 MSTORE PUSH1 0x4 ADD PUSH2 0x10FF SWAP1 PUSH2 0x1C58 JUMP JUMPDEST PUSH1 0x40 MLOAD DUP1 SWAP2 SUB SWAP1 REVERT JUMPDEST JUMP JUMPDEST PUSH1 0x0 DUP1 PUSH1 0x0 SWAP1 SLOAD SWAP1 PUSH2 0x100 EXP SWAP1 DIV PUSH20 0xFFFFFFFFFFFFFFFFFFFFFFFFFFFFFFFFFFFFFFFF AND SWAP1 POP DUP2 PUSH1 0x0 DUP1 PUSH2 0x100 EXP DUP2 SLOAD DUP2 PUSH20 0xFFFFFFFFFFFFFFFFFFFFFFFFFFFFFFFFFFFFFFFF MUL NOT AND SWAP1 DUP4 PUSH20 0xFFFFFFFFFFFFFFFFFFFFFFFFFFFFFFFFFFFFFFFF AND MUL OR SWAP1 SSTORE POP DUP2 PUSH20 0xFFFFFFFFFFFFFFFFFFFFFFFFFFFFFFFFFFFFFFFF AND DUP2 PUSH20 0xFFFFFFFFFFFFFFFFFFFFFFFFFFFFFFFFFFFFFFFF AND PUSH32 0x8BE0079C531659141344CD1FD0A4F28419497F9722A3DAAFE3B4186F6B6457E0 PUSH1 0x40 MLOAD PUSH1 0x40 MLOAD DUP1 SWAP2 SUB SWAP1 LOG3 POP POP JUMP JUMPDEST PUSH2 0x11D8 DUP3 DUP3 PUSH2 0xEC2 JUMP JUMPDEST POP POP JUMP JUMPDEST PUSH2 0x11E6 DUP3 DUP3 PUSH2 0x9A8 JUMP JUMPDEST PUSH2 0x1275 JUMPI PUSH2 0x120B DUP2 PUSH20 0xFFFFFFFFFFFFFFFFFFFFFFFFFFFFFFFFFFFFFFFF AND PUSH1 0x14 PUSH2 0x1279 JUMP JUMPDEST PUSH2 0x1219 DUP4 PUSH1 0x0 SHR PUSH1 0x20 PUSH2 0x1279 JUMP JUMPDEST PUSH1 0x40 MLOAD PUSH1 0x20 ADD PUSH2 0x122A SWAP3 SWAP2 SWAP1 PUSH2 0x1AC1 JUMP JUMPDEST PUSH1 0x40 MLOAD PUSH1 0x20 DUP2 DUP4 SUB SUB DUP2 MSTORE SWAP1 PUSH1 0x40 MSTORE PUSH1 0x40 MLOAD PUSH32 0x8C379A000000000000000000000000000000000000000000000000000000000 DUP2 MSTORE PUSH1 0x4 ADD PUSH2 0x126C SWAP2 SWAP1 PUSH2 0x1B91 JUMP JUMPDEST PUSH1 0x40 MLOAD DUP1 SWAP2 SUB SWAP1 REVERT JUMPDEST POP POP JUMP JUMPDEST PUSH1 0x60 PUSH1 0x0 PUSH1 0x2 DUP4 PUSH1 0x2 PUSH2 0x128C SWAP2 SWAP1 PUSH2 0x1DB7 JUMP JUMPDEST PUSH2 0x1296 SWAP2 SWAP1 PUSH2 0x1D61 JUMP JUMPDEST PUSH8 0xFFFFFFFFFFFFFFFF DUP2 GT ISZERO PUSH2 0x12AF JUMPI PUSH2 0x12AE PUSH2 0x2034 JUMP JUMPDEST JUMPDEST PUSH1 0x40 MLOAD SWAP1 DUP1 DUP3 MSTORE DUP1 PUSH1 0x1F ADD PUSH1 0x1F NOT AND PUSH1 0x20 ADD DUP3 ADD PUSH1 0x40 MSTORE DUP1 ISZERO PUSH2 0x12E1 JUMPI DUP2 PUSH1 0x20 ADD PUSH1 0x1 DUP3 MUL DUP1 CALLDATASIZE DUP4 CALLDATACOPY DUP1 DUP3 ADD SWAP2 POP POP SWAP1 POP JUMPDEST POP SWAP1 POP PUSH32 0x3000000000000000000000000000000000000000000000000000000000000000 DUP2 PUSH1 0x0 DUP2 MLOAD DUP2 LT PUSH2 0x1319 JUMPI PUSH2 0x1318 PUSH2 0x2005 JUMP JUMPDEST JUMPDEST PUSH1 0x20 ADD ADD SWAP1 PUSH31 0xFFFFFFFFFFFFFFFFFFFFFFFFFFFFFFFFFFFFFFFFFFFFFFFFFFFFFFFFFFFFFF NOT AND SWAP1 DUP2 PUSH1 0x0 BYTE SWAP1 MSTORE8 POP PUSH32 0x7800000000000000000000000000000000000000000000000000000000000000 DUP2 PUSH1 0x1 DUP2 MLOAD DUP2 LT PUSH2 0x137D JUMPI PUSH2 0x137C PUSH2 0x2005 JUMP JUMPDEST JUMPDEST PUSH1 0x20 ADD ADD SWAP1 PUSH31 0xFFFFFFFFFFFFFFFFFFFFFFFFFFFFFFFFFFFFFFFFFFFFFFFFFFFFFFFFFFFFFF NOT AND SWAP1 DUP2 PUSH1 0x0 BYTE SWAP1 MSTORE8 POP PUSH1 0x0 PUSH1 0x1 DUP5 PUSH1 0x2 PUSH2 0x13BD SWAP2 SWAP1 PUSH2 0x1DB7 JUMP JUMPDEST PUSH2 0x13C7 SWAP2 SWAP1 PUSH2 0x1D61 JUMP JUMPDEST SWAP1 POP JUMPDEST PUSH1 0x1 DUP2 GT ISZERO PUSH2 0x1467 JUMPI PUSH32 0x3031323334353637383961626364656600000000000000000000000000000000 PUSH1 0xF DUP7 AND PUSH1 0x10 DUP2 LT PUSH2 0x1409 JUMPI PUSH2 0x1408 PUSH2 0x2005 JUMP JUMPDEST JUMPDEST BYTE PUSH1 0xF8 SHL DUP3 DUP3 DUP2 MLOAD DUP2 LT PUSH2 0x1420 JUMPI PUSH2 0x141F PUSH2 0x2005 JUMP JUMPDEST JUMPDEST PUSH1 0x20 ADD ADD SWAP1 PUSH31 0xFFFFFFFFFFFFFFFFFFFFFFFFFFFFFFFFFFFFFFFFFFFFFFFFFFFFFFFFFFFFFF NOT AND SWAP1 DUP2 PUSH1 0x0 BYTE SWAP1 MSTORE8 POP PUSH1 0x4 DUP6 SWAP1 SHR SWAP5 POP DUP1 PUSH2 0x1460 SWAP1 PUSH2 0x1ED1 JUMP JUMPDEST SWAP1 POP PUSH2 0x13CA JUMP JUMPDEST POP PUSH1 0x0 DUP5 EQ PUSH2 0x14AB JUMPI PUSH1 0x40 MLOAD PUSH32 0x8C379A000000000000000000000000000000000000000000000000000000000 DUP2 MSTORE PUSH1 0x4 ADD PUSH2 0x14A2 SWAP1 PUSH2 0x1BF8 JUMP JUMPDEST PUSH1 0x40 MLOAD DUP1 SWAP2 SUB SWAP1 REVERT JUMPDEST DUP1 SWAP2 POP POP SWAP3 SWAP2 POP POP JUMP JUMPDEST PUSH1 0x40 MLOAD DUP1 PUSH1 0x60 ADD PUSH1 0x40 MSTORE DUP1 PUSH1 0x60 DUP2 MSTORE PUSH1 0x20 ADD PUSH1 0x0 PUSH20 0xFFFFFFFFFFFFFFFFFFFFFFFFFFFFFFFFFFFFFFFF AND DUP2 MSTORE PUSH1 0x20 ADD PUSH1 0x60 DUP2 MSTORE POP SWAP1 JUMP JUMPDEST DUP3 DUP1 SLOAD PUSH2 0x14F8 SWAP1 PUSH2 0x1EFB JUMP JUMPDEST SWAP1 PUSH1 0x0 MSTORE PUSH1 0x20 PUSH1 0x0 KECCAK256 SWAP1 PUSH1 0x1F ADD PUSH1 0x20 SWAP1 DIV DUP2 ADD SWAP3 DUP3 PUSH2 0x151A JUMPI PUSH1 0x0 DUP6 SSTORE PUSH2 0x1561 JUMP JUMPDEST DUP3 PUSH1 0x1F LT PUSH2 0x1533 JUMPI DUP1 MLOAD PUSH1 0xFF NOT AND DUP4 DUP1 ADD OR DUP6 SSTORE PUSH2 0x1561 JUMP JUMPDEST DUP3 DUP1 ADD PUSH1 0x1 ADD DUP6 SSTORE DUP3 ISZERO PUSH2 0x1561 JUMPI SWAP2 DUP3 ADD JUMPDEST DUP3 DUP2 GT ISZERO PUSH2 0x1560 JUMPI DUP3 MLOAD DUP3 SSTORE SWAP2 PUSH1 0x20 ADD SWAP2 SWAP1 PUSH1 0x1 ADD SWAP1 PUSH2 0x1545 JUMP JUMPDEST JUMPDEST POP SWAP1 POP PUSH2 0x156E SWAP2 SWAP1 PUSH2 0x1572 JUMP JUMPDEST POP SWAP1 JUMP JUMPDEST JUMPDEST DUP1 DUP3 GT ISZERO PUSH2 0x158B JUMPI PUSH1 0x0 DUP2 PUSH1 0x0 SWAP1 SSTORE POP PUSH1 0x1 ADD PUSH2 0x1573 JUMP JUMPDEST POP SWAP1 JUMP JUMPDEST PUSH1 0x0 PUSH2 0x15A2 PUSH2 0x159D DUP5 PUSH2 0x1CDD JUMP JUMPDEST PUSH2 0x1CB8 JUMP JUMPDEST SWAP1 POP DUP1 DUP4 DUP3 MSTORE PUSH1 0x20 DUP3 ADD SWAP1 POP DUP3 DUP6 PUSH1 0x20 DUP7 MUL DUP3 ADD GT ISZERO PUSH2 0x15C5 JUMPI PUSH2 0x15C4 PUSH2 0x2068 JUMP JUMPDEST JUMPDEST PUSH1 0x0 JUMPDEST DUP6 DUP2 LT ISZERO PUSH2 0x15F5 JUMPI DUP2 PUSH2 0x15DB DUP9 DUP3 PUSH2 0x1641 JUMP JUMPDEST DUP5 MSTORE PUSH1 0x20 DUP5 ADD SWAP4 POP PUSH1 0x20 DUP4 ADD SWAP3 POP POP PUSH1 0x1 DUP2 ADD SWAP1 POP PUSH2 0x15C8 JUMP JUMPDEST POP POP POP SWAP4 SWAP3 POP POP POP JUMP JUMPDEST PUSH1 0x0 PUSH2 0x1612 PUSH2 0x160D DUP5 PUSH2 0x1D09 JUMP JUMPDEST PUSH2 0x1CB8 JUMP JUMPDEST SWAP1 POP DUP3 DUP2 MSTORE PUSH1 0x20 DUP2 ADD DUP5 DUP5 DUP5 ADD GT ISZERO PUSH2 0x162E JUMPI PUSH2 0x162D PUSH2 0x206D JUMP JUMPDEST JUMPDEST PUSH2 0x1639 DUP5 DUP3 DUP6 PUSH2 0x1E8F JUMP JUMPDEST POP SWAP4 SWAP3 POP POP POP JUMP JUMPDEST PUSH1 0x0 DUP2 CALLDATALOAD SWAP1 POP PUSH2 0x1650 DUP2 PUSH2 0x2221 JUMP JUMPDEST SWAP3 SWAP2 POP POP JUMP JUMPDEST PUSH1 0x0 DUP3 PUSH1 0x1F DUP4 ADD SLT PUSH2 0x166B JUMPI PUSH2 0x166A PUSH2 0x2063 JUMP JUMPDEST JUMPDEST DUP2 CALLDATALOAD PUSH2 0x167B DUP5 DUP3 PUSH1 0x20 DUP7 ADD PUSH2 0x158F JUMP JUMPDEST SWAP2 POP POP SWAP3 SWAP2 POP POP JUMP JUMPDEST PUSH1 0x0 DUP2 CALLDATALOAD SWAP1 POP PUSH2 0x1693 DUP2 PUSH2 0x2238 JUMP JUMPDEST SWAP3 SWAP2 POP POP JUMP JUMPDEST PUSH1 0x0 DUP2 CALLDATALOAD SWAP1 POP PUSH2 0x16A8 DUP2 PUSH2 0x224F JUMP JUMPDEST SWAP3 SWAP2 POP POP JUMP JUMPDEST PUSH1 0x0 DUP3 PUSH1 0x1F DUP4 ADD SLT PUSH2 0x16C3 JUMPI PUSH2 0x16C2 PUSH2 0x2063 JUMP JUMPDEST JUMPDEST DUP2 CALLDATALOAD PUSH2 0x16D3 DUP5 DUP3 PUSH1 0x20 DUP7 ADD PUSH2 0x15FF JUMP JUMPDEST SWAP2 POP POP SWAP3 SWAP2 POP POP JUMP JUMPDEST PUSH1 0x0 DUP2 CALLDATALOAD SWAP1 POP PUSH2 0x16EB DUP2 PUSH2 0x2266 JUMP JUMPDEST SWAP3 SWAP2 POP POP JUMP JUMPDEST PUSH1 0x0 PUSH1 0x20 DUP3 DUP5 SUB SLT ISZERO PUSH2 0x1707 JUMPI PUSH2 0x1706 PUSH2 0x2077 JUMP JUMPDEST JUMPDEST PUSH1 0x0 PUSH2 0x1715 DUP5 DUP3 DUP6 ADD PUSH2 0x1641 JUMP JUMPDEST SWAP2 POP POP SWAP3 SWAP2 POP POP JUMP JUMPDEST PUSH1 0x0 DUP1 PUSH1 0x0 PUSH1 0x60 DUP5 DUP7 SUB SLT ISZERO PUSH2 0x1737 JUMPI PUSH2 0x1736 PUSH2 0x2077 JUMP JUMPDEST JUMPDEST PUSH1 0x0 DUP5 ADD CALLDATALOAD PUSH8 0xFFFFFFFFFFFFFFFF DUP2 GT ISZERO PUSH2 0x1755 JUMPI PUSH2 0x1754 PUSH2 0x2072 JUMP JUMPDEST JUMPDEST PUSH2 0x1761 DUP7 DUP3 DUP8 ADD PUSH2 0x1656 JUMP JUMPDEST SWAP4 POP POP PUSH1 0x20 PUSH2 0x1772 DUP7 DUP3 DUP8 ADD PUSH2 0x16DC JUMP JUMPDEST SWAP3 POP POP PUSH1 0x40 PUSH2 0x1783 DUP7 DUP3 DUP8 ADD PUSH2 0x16DC JUMP JUMPDEST SWAP2 POP POP SWAP3 POP SWAP3 POP SWAP3 JUMP JUMPDEST PUSH1 0x0 PUSH1 0x20 DUP3 DUP5 SUB SLT ISZERO PUSH2 0x17A3 JUMPI PUSH2 0x17A2 PUSH2 0x2077 JUMP JUMPDEST JUMPDEST PUSH1 0x0 PUSH2 0x17B1 DUP5 DUP3 DUP6 ADD PUSH2 0x1684 JUMP JUMPDEST SWAP2 POP POP SWAP3 SWAP2 POP POP JUMP JUMPDEST PUSH1 0x0 DUP1 PUSH1 0x40 DUP4 DUP6 SUB SLT ISZERO PUSH2 0x17D1 JUMPI PUSH2 0x17D0 PUSH2 0x2077 JUMP JUMPDEST JUMPDEST PUSH1 0x0 PUSH2 0x17DF DUP6 DUP3 DUP7 ADD PUSH2 0x1684 JUMP JUMPDEST SWAP3 POP POP PUSH1 0x20 PUSH2 0x17F0 DUP6 DUP3 DUP7 ADD PUSH2 0x1641 JUMP JUMPDEST SWAP2 POP POP SWAP3 POP SWAP3 SWAP1 POP JUMP JUMPDEST PUSH1 0x0 PUSH1 0x20 DUP3 DUP5 SUB SLT ISZERO PUSH2 0x1810 JUMPI PUSH2 0x180F PUSH2 0x2077 JUMP JUMPDEST JUMPDEST PUSH1 0x0 PUSH2 0x181E DUP5 DUP3 DUP6 ADD PUSH2 0x1699 JUMP JUMPDEST SWAP2 POP POP SWAP3 SWAP2 POP POP JUMP JUMPDEST PUSH1 0x0 DUP1 PUSH1 0x0 PUSH1 0x60 DUP5 DUP7 SUB SLT ISZERO PUSH2 0x1840 JUMPI PUSH2 0x183F PUSH2 0x2077 JUMP JUMPDEST JUMPDEST PUSH1 0x0 DUP5 ADD CALLDATALOAD PUSH8 0xFFFFFFFFFFFFFFFF DUP2 GT ISZERO PUSH2 0x185E JUMPI PUSH2 0x185D PUSH2 0x2072 JUMP JUMPDEST JUMPDEST PUSH2 0x186A DUP7 DUP3 DUP8 ADD PUSH2 0x16AE JUMP JUMPDEST SWAP4 POP POP PUSH1 0x20 PUSH2 0x187B DUP7 DUP3 DUP8 ADD PUSH2 0x1641 JUMP JUMPDEST SWAP3 POP POP PUSH1 0x40 PUSH2 0x188C DUP7 DUP3 DUP8 ADD PUSH2 0x16DC JUMP JUMPDEST SWAP2 POP POP SWAP3 POP SWAP3 POP SWAP3 JUMP JUMPDEST PUSH1 0x0 PUSH1 0x20 DUP3 DUP5 SUB SLT ISZERO PUSH2 0x18AC JUMPI PUSH2 0x18AB PUSH2 0x2077 JUMP JUMPDEST JUMPDEST PUSH1 0x0 PUSH2 0x18BA DUP5 DUP3 DUP6 ADD PUSH2 0x16DC JUMP JUMPDEST SWAP2 POP POP SWAP3 SWAP2 POP POP JUMP JUMPDEST PUSH1 0x0 DUP1 PUSH1 0x40 DUP4 DUP6 SUB SLT ISZERO PUSH2 0x18DA JUMPI PUSH2 0x18D9 PUSH2 0x2077 JUMP JUMPDEST JUMPDEST PUSH1 0x0 PUSH2 0x18E8 DUP6 DUP3 DUP7 ADD PUSH2 0x16DC JUMP JUMPDEST SWAP3 POP POP PUSH1 0x20 PUSH2 0x18F9 DUP6 DUP3 DUP7 ADD PUSH2 0x16DC JUMP JUMPDEST SWAP2 POP POP SWAP3 POP SWAP3 SWAP1 POP JUMP JUMPDEST PUSH2 0x190C DUP2 PUSH2 0x1E11 JUMP JUMPDEST DUP3 MSTORE POP POP JUMP JUMPDEST PUSH2 0x191B DUP2 PUSH2 0x1E23 JUMP JUMPDEST DUP3 MSTORE POP POP JUMP JUMPDEST PUSH2 0x192A DUP2 PUSH2 0x1E2F JUMP JUMPDEST DUP3 MSTORE POP POP JUMP JUMPDEST PUSH1 0x0 PUSH2 0x193B DUP3 PUSH2 0x1D3A JUMP JUMPDEST PUSH2 0x1945 DUP2 DUP6 PUSH2 0x1D45 JUMP JUMPDEST SWAP4 POP PUSH2 0x1955 DUP2 DUP6 PUSH1 0x20 DUP7 ADD PUSH2 0x1E9E JUMP JUMPDEST PUSH2 0x195E DUP2 PUSH2 0x207C JUMP JUMPDEST DUP5 ADD SWAP2 POP POP SWAP3 SWAP2 POP POP JUMP JUMPDEST PUSH1 0x0 PUSH2 0x1974 DUP3 PUSH2 0x1D3A JUMP JUMPDEST PUSH2 0x197E DUP2 DUP6 PUSH2 0x1D56 JUMP JUMPDEST SWAP4 POP PUSH2 0x198E DUP2 DUP6 PUSH1 0x20 DUP7 ADD PUSH2 0x1E9E JUMP JUMPDEST DUP1 DUP5 ADD SWAP2 POP POP SWAP3 SWAP2 POP POP JUMP JUMPDEST PUSH1 0x0 PUSH2 0x19A7 PUSH1 0x20 DUP4 PUSH2 0x1D45 JUMP JUMPDEST SWAP2 POP PUSH2 0x19B2 DUP3 PUSH2 0x208D JUMP JUMPDEST PUSH1 0x20 DUP3 ADD SWAP1 POP SWAP2 SWAP1 POP JUMP JUMPDEST PUSH1 0x0 PUSH2 0x19CA PUSH1 0x26 DUP4 PUSH2 0x1D45 JUMP JUMPDEST SWAP2 POP PUSH2 0x19D5 DUP3 PUSH2 0x20B6 JUMP JUMPDEST PUSH1 0x40 DUP3 ADD SWAP1 POP SWAP2 SWAP1 POP JUMP JUMPDEST PUSH1 0x0 PUSH2 0x19ED PUSH1 0x1F DUP4 PUSH2 0x1D45 JUMP JUMPDEST SWAP2 POP PUSH2 0x19F8 DUP3 PUSH2 0x2105 JUMP JUMPDEST PUSH1 0x20 DUP3 ADD SWAP1 POP SWAP2 SWAP1 POP JUMP JUMPDEST PUSH1 0x0 PUSH2 0x1A10 PUSH1 0x20 DUP4 PUSH2 0x1D45 JUMP JUMPDEST SWAP2 POP PUSH2 0x1A1B DUP3 PUSH2 0x212E JUMP JUMPDEST PUSH1 0x20 DUP3 ADD SWAP1 POP SWAP2 SWAP1 POP JUMP JUMPDEST PUSH1 0x0 PUSH2 0x1A33 PUSH1 0x15 DUP4 PUSH2 0x1D45 JUMP JUMPDEST SWAP2 POP PUSH2 0x1A3E DUP3 PUSH2 0x2157 JUMP JUMPDEST PUSH1 0x20 DUP3 ADD SWAP1 POP SWAP2 SWAP1 POP JUMP JUMPDEST PUSH1 0x0 PUSH2 0x1A56 PUSH1 0x17 DUP4 PUSH2 0x1D56 JUMP JUMPDEST SWAP2 POP PUSH2 0x1A61 DUP3 PUSH2 0x2180 JUMP JUMPDEST PUSH1 0x17 DUP3 ADD SWAP1 POP SWAP2 SWAP1 POP JUMP JUMPDEST PUSH1 0x0 PUSH2 0x1A79 PUSH1 0x11 DUP4 PUSH2 0x1D56 JUMP JUMPDEST SWAP2 POP PUSH2 0x1A84 DUP3 PUSH2 0x21A9 JUMP JUMPDEST PUSH1 0x11 DUP3 ADD SWAP1 POP SWAP2 SWAP1 POP JUMP JUMPDEST PUSH1 0x0 PUSH2 0x1A9C PUSH1 0x2F DUP4 PUSH2 0x1D45 JUMP JUMPDEST SWAP2 POP PUSH2 0x1AA7 DUP3 PUSH2 0x21D2 JUMP JUMPDEST PUSH1 0x40 DUP3 ADD SWAP1 POP SWAP2 SWAP1 POP JUMP JUMPDEST PUSH2 0x1ABB DUP2 PUSH2 0x1E85 JUMP JUMPDEST DUP3 MSTORE POP POP JUMP JUMPDEST PUSH1 0x0 PUSH2 0x1ACC DUP3 PUSH2 0x1A49 JUMP JUMPDEST SWAP2 POP PUSH2 0x1AD8 DUP3 DUP6 PUSH2 0x1969 JUMP JUMPDEST SWAP2 POP PUSH2 0x1AE3 DUP3 PUSH2 0x1A6C JUMP JUMPDEST SWAP2 POP PUSH2 0x1AEF DUP3 DUP5 PUSH2 0x1969 JUMP JUMPDEST SWAP2 POP DUP2 SWAP1 POP SWAP4 SWAP3 POP POP POP JUMP JUMPDEST PUSH1 0x0 PUSH1 0x20 DUP3 ADD SWAP1 POP PUSH2 0x1B10 PUSH1 0x0 DUP4 ADD DUP5 PUSH2 0x1903 JUMP JUMPDEST SWAP3 SWAP2 POP POP JUMP JUMPDEST PUSH1 0x0 PUSH1 0x80 DUP3 ADD SWAP1 POP PUSH2 0x1B2B PUSH1 0x0 DUP4 ADD DUP8 PUSH2 0x1903 JUMP JUMPDEST PUSH2 0x1B38 PUSH1 0x20 DUP4 ADD DUP7 PUSH2 0x1AB2 JUMP JUMPDEST PUSH2 0x1B45 PUSH1 0x40 DUP4 ADD DUP6 PUSH2 0x1AB2 JUMP JUMPDEST PUSH2 0x1B52 PUSH1 0x60 DUP4 ADD DUP5 PUSH2 0x1912 JUMP JUMPDEST SWAP6 SWAP5 POP POP POP POP POP JUMP JUMPDEST PUSH1 0x0 PUSH1 0x20 DUP3 ADD SWAP1 POP PUSH2 0x1B70 PUSH1 0x0 DUP4 ADD DUP5 PUSH2 0x1912 JUMP JUMPDEST SWAP3 SWAP2 POP POP JUMP JUMPDEST PUSH1 0x0 PUSH1 0x20 DUP3 ADD SWAP1 POP PUSH2 0x1B8B PUSH1 0x0 DUP4 ADD DUP5 PUSH2 0x1921 JUMP JUMPDEST SWAP3 SWAP2 POP POP JUMP JUMPDEST PUSH1 0x0 PUSH1 0x20 DUP3 ADD SWAP1 POP DUP2 DUP2 SUB PUSH1 0x0 DUP4 ADD MSTORE PUSH2 0x1BAB DUP2 DUP5 PUSH2 0x1930 JUMP JUMPDEST SWAP1 POP SWAP3 SWAP2 POP POP JUMP JUMPDEST PUSH1 0x0 PUSH1 0x60 DUP3 ADD SWAP1 POP DUP2 DUP2 SUB PUSH1 0x0 DUP4 ADD MSTORE PUSH2 0x1BCD DUP2 DUP7 PUSH2 0x1930 JUMP JUMPDEST SWAP1 POP PUSH2 0x1BDC PUSH1 0x20 DUP4 ADD DUP6 PUSH2 0x1903 JUMP JUMPDEST DUP2 DUP2 SUB PUSH1 0x40 DUP4 ADD MSTORE PUSH2 0x1BEE DUP2 DUP5 PUSH2 0x1930 JUMP JUMPDEST SWAP1 POP SWAP5 SWAP4 POP POP POP POP JUMP JUMPDEST PUSH1 0x0 PUSH1 0x20 DUP3 ADD SWAP1 POP DUP2 DUP2 SUB PUSH1 0x0 DUP4 ADD MSTORE PUSH2 0x1C11 DUP2 PUSH2 0x199A JUMP JUMPDEST SWAP1 POP SWAP2 SWAP1 POP JUMP JUMPDEST PUSH1 0x0 PUSH1 0x20 DUP3 ADD SWAP1 POP DUP2 DUP2 SUB PUSH1 0x0 DUP4 ADD MSTORE PUSH2 0x1C31 DUP2 PUSH2 0x19BD JUMP JUMPDEST SWAP1 POP SWAP2 SWAP1 POP JUMP JUMPDEST PUSH1 0x0 PUSH1 0x20 DUP3 ADD SWAP1 POP DUP2 DUP2 SUB PUSH1 0x0 DUP4 ADD MSTORE PUSH2 0x1C51 DUP2 PUSH2 0x19E0 JUMP JUMPDEST SWAP1 POP SWAP2 SWAP1 POP JUMP JUMPDEST PUSH1 0x0 PUSH1 0x20 DUP3 ADD SWAP1 POP DUP2 DUP2 SUB PUSH1 0x0 DUP4 ADD MSTORE PUSH2 0x1C71 DUP2 PUSH2 0x1A03 JUMP JUMPDEST SWAP1 POP SWAP2 SWAP1 POP JUMP JUMPDEST PUSH1 0x0 PUSH1 0x20 DUP3 ADD SWAP1 POP DUP2 DUP2 SUB PUSH1 0x0 DUP4 ADD MSTORE PUSH2 0x1C91 DUP2 PUSH2 0x1A26 JUMP JUMPDEST SWAP1 POP SWAP2 SWAP1 POP JUMP JUMPDEST PUSH1 0x0 PUSH1 0x20 DUP3 ADD SWAP1 POP DUP2 DUP2 SUB PUSH1 0x0 DUP4 ADD MSTORE PUSH2 0x1CB1 DUP2 PUSH2 0x1A8F JUMP JUMPDEST SWAP1 POP SWAP2 SWAP1 POP JUMP JUMPDEST PUSH1 0x0 PUSH2 0x1CC2 PUSH2 0x1CD3 JUMP JUMPDEST SWAP1 POP PUSH2 0x1CCE DUP3 DUP3 PUSH2 0x1F2D JUMP JUMPDEST SWAP2 SWAP1 POP JUMP JUMPDEST PUSH1 0x0 PUSH1 0x40 MLOAD SWAP1 POP SWAP1 JUMP JUMPDEST PUSH1 0x0 PUSH8 0xFFFFFFFFFFFFFFFF DUP3 GT ISZERO PUSH2 0x1CF8 JUMPI PUSH2 0x1CF7 PUSH2 0x2034 JUMP JUMPDEST JUMPDEST PUSH1 0x20 DUP3 MUL SWAP1 POP PUSH1 0x20 DUP2 ADD SWAP1 POP SWAP2 SWAP1 POP JUMP JUMPDEST PUSH1 0x0 PUSH8 0xFFFFFFFFFFFFFFFF DUP3 GT ISZERO PUSH2 0x1D24 JUMPI PUSH2 0x1D23 PUSH2 0x2034 JUMP JUMPDEST JUMPDEST PUSH2 0x1D2D DUP3 PUSH2 0x207C JUMP JUMPDEST SWAP1 POP PUSH1 0x20 DUP2 ADD SWAP1 POP SWAP2 SWAP1 POP JUMP JUMPDEST PUSH1 0x0 DUP2 MLOAD SWAP1 POP SWAP2 SWAP1 POP JUMP JUMPDEST PUSH1 0x0 DUP3 DUP3 MSTORE PUSH1 0x20 DUP3 ADD SWAP1 POP SWAP3 SWAP2 POP POP JUMP JUMPDEST PUSH1 0x0 DUP2 SWAP1 POP SWAP3 SWAP2 POP POP JUMP JUMPDEST PUSH1 0x0 PUSH2 0x1D6C DUP3 PUSH2 0x1E85 JUMP JUMPDEST SWAP2 POP PUSH2 0x1D77 DUP4 PUSH2 0x1E85 JUMP JUMPDEST SWAP3 POP DUP3 PUSH32 0xFFFFFFFFFFFFFFFFFFFFFFFFFFFFFFFFFFFFFFFFFFFFFFFFFFFFFFFFFFFFFFFF SUB DUP3 GT ISZERO PUSH2 0x1DAC JUMPI PUSH2 0x1DAB PUSH2 0x1FA7 JUMP JUMPDEST JUMPDEST DUP3 DUP3 ADD SWAP1 POP SWAP3 SWAP2 POP POP JUMP JUMPDEST PUSH1 0x0 PUSH2 0x1DC2 DUP3 PUSH2 0x1E85 JUMP JUMPDEST SWAP2 POP PUSH2 0x1DCD DUP4 PUSH2 0x1E85 JUMP JUMPDEST SWAP3 POP DUP2 PUSH32 0xFFFFFFFFFFFFFFFFFFFFFFFFFFFFFFFFFFFFFFFFFFFFFFFFFFFFFFFFFFFFFFFF DIV DUP4 GT DUP3 ISZERO ISZERO AND ISZERO PUSH2 0x1E06 JUMPI PUSH2 0x1E05 PUSH2 0x1FA7 JUMP JUMPDEST JUMPDEST DUP3 DUP3 MUL SWAP1 POP SWAP3 SWAP2 POP POP JUMP JUMPDEST PUSH1 0x0 PUSH2 0x1E1C DUP3 PUSH2 0x1E65 JUMP JUMPDEST SWAP1 POP SWAP2 SWAP1 POP JUMP JUMPDEST PUSH1 0x0 DUP2 ISZERO ISZERO SWAP1 POP SWAP2 SWAP1 POP JUMP JUMPDEST PUSH1 0x0 DUP2 SWAP1 POP SWAP2 SWAP1 POP JUMP JUMPDEST PUSH1 0x0 PUSH32 0xFFFFFFFF00000000000000000000000000000000000000000000000000000000 DUP3 AND SWAP1 POP SWAP2 SWAP1 POP JUMP JUMPDEST PUSH1 0x0 PUSH20 0xFFFFFFFFFFFFFFFFFFFFFFFFFFFFFFFFFFFFFFFF DUP3 AND SWAP1 POP SWAP2 SWAP1 POP JUMP JUMPDEST PUSH1 0x0 DUP2 SWAP1 POP SWAP2 SWAP1 POP JUMP JUMPDEST DUP3 DUP2 DUP4 CALLDATACOPY PUSH1 0x0 DUP4 DUP4 ADD MSTORE POP POP POP JUMP JUMPDEST PUSH1 0x0 JUMPDEST DUP4 DUP2 LT ISZERO PUSH2 0x1EBC JUMPI DUP1 DUP3 ADD MLOAD DUP2 DUP5 ADD MSTORE PUSH1 0x20 DUP2 ADD SWAP1 POP PUSH2 0x1EA1 JUMP JUMPDEST DUP4 DUP2 GT ISZERO PUSH2 0x1ECB JUMPI PUSH1 0x0 DUP5 DUP5 ADD MSTORE JUMPDEST POP POP POP POP JUMP JUMPDEST PUSH1 0x0 PUSH2 0x1EDC DUP3 PUSH2 0x1E85 JUMP JUMPDEST SWAP2 POP PUSH1 0x0 DUP3 EQ ISZERO PUSH2 0x1EF0 JUMPI PUSH2 0x1EEF PUSH2 0x1FA7 JUMP JUMPDEST JUMPDEST PUSH1 0x1 DUP3 SUB SWAP1 POP SWAP2 SWAP1 POP JUMP JUMPDEST PUSH1 0x0 PUSH1 0x2 DUP3 DIV SWAP1 POP PUSH1 0x1 DUP3 AND DUP1 PUSH2 0x1F13 JUMPI PUSH1 0x7F DUP3 AND SWAP2 POP JUMPDEST PUSH1 0x20 DUP3 LT DUP2 EQ ISZERO PUSH2 0x1F27 JUMPI PUSH2 0x1F26 PUSH2 0x1FD6 JUMP JUMPDEST JUMPDEST POP SWAP2 SWAP1 POP JUMP JUMPDEST PUSH2 0x1F36 DUP3 PUSH2 0x207C JUMP JUMPDEST DUP2 ADD DUP2 DUP2 LT PUSH8 0xFFFFFFFFFFFFFFFF DUP3 GT OR ISZERO PUSH2 0x1F55 JUMPI PUSH2 0x1F54 PUSH2 0x2034 JUMP JUMPDEST JUMPDEST DUP1 PUSH1 0x40 MSTORE POP POP POP JUMP JUMPDEST PUSH1 0x0 PUSH2 0x1F69 DUP3 PUSH2 0x1E85 JUMP JUMPDEST SWAP2 POP PUSH32 0xFFFFFFFFFFFFFFFFFFFFFFFFFFFFFFFFFFFFFFFFFFFFFFFFFFFFFFFFFFFFFFFF DUP3 EQ ISZERO PUSH2 0x1F9C JUMPI PUSH2 0x1F9B PUSH2 0x1FA7 JUMP JUMPDEST JUMPDEST PUSH1 0x1 DUP3 ADD SWAP1 POP SWAP2 SWAP1 POP JUMP JUMPDEST PUSH32 0x4E487B7100000000000000000000000000000000000000000000000000000000 PUSH1 0x0 MSTORE PUSH1 0x11 PUSH1 0x4 MSTORE PUSH1 0x24 PUSH1 0x0 REVERT JUMPDEST PUSH32 0x4E487B7100000000000000000000000000000000000000000000000000000000 PUSH1 0x0 MSTORE PUSH1 0x22 PUSH1 0x4 MSTORE PUSH1 0x24 PUSH1 0x0 REVERT JUMPDEST PUSH32 0x4E487B7100000000000000000000000000000000000000000000000000000000 PUSH1 0x0 MSTORE PUSH1 0x32 PUSH1 0x4 MSTORE PUSH1 0x24 PUSH1 0x0 REVERT JUMPDEST PUSH32 0x4E487B7100000000000000000000000000000000000000000000000000000000 PUSH1 0x0 MSTORE PUSH1 0x41 PUSH1 0x4 MSTORE PUSH1 0x24 PUSH1 0x0 REVERT JUMPDEST PUSH1 0x0 DUP1 REVERT JUMPDEST PUSH1 0x0 DUP1 REVERT JUMPDEST PUSH1 0x0 DUP1 REVERT JUMPDEST PUSH1 0x0 DUP1 REVERT JUMPDEST PUSH1 0x0 DUP1 REVERT JUMPDEST PUSH1 0x0 PUSH1 0x1F NOT PUSH1 0x1F DUP4 ADD AND SWAP1 POP SWAP2 SWAP1 POP JUMP JUMPDEST PUSH32 0x537472696E67733A20686578206C656E67746820696E73756666696369656E74 PUSH1 0x0 DUP3 ADD MSTORE POP JUMP JUMPDEST PUSH32 0x4F776E61626C653A206E6577206F776E657220697320746865207A65726F2061 PUSH1 0x0 DUP3 ADD MSTORE PUSH32 0x6464726573730000000000000000000000000000000000000000000000000000 PUSH1 0x20 DUP3 ADD MSTORE POP JUMP JUMPDEST PUSH32 0x43616C6C6572206973206E6F7420616E20494E45432065786563757469766500 PUSH1 0x0 DUP3 ADD MSTORE POP JUMP JUMPDEST PUSH32 0x4F776E61626C653A2063616C6C6572206973206E6F7420746865206F776E6572 PUSH1 0x0 DUP3 ADD MSTORE POP JUMP JUMPDEST PUSH32 0x43616C6C6572206973206E6F74206120566F7465720000000000000000000000 PUSH1 0x0 DUP3 ADD MSTORE POP JUMP JUMPDEST PUSH32 0x416363657373436F6E74726F6C3A206163636F756E7420000000000000000000 PUSH1 0x0 DUP3 ADD MSTORE POP JUMP JUMPDEST PUSH32 0x206973206D697373696E6720726F6C6520000000000000000000000000000000 PUSH1 0x0 DUP3 ADD MSTORE POP JUMP JUMPDEST PUSH32 0x416363657373436F6E74726F6C3A2063616E206F6E6C792072656E6F756E6365 PUSH1 0x0 DUP3 ADD MSTORE PUSH32 0x20726F6C657320666F722073656C660000000000000000000000000000000000 PUSH1 0x20 DUP3 ADD MSTORE POP JUMP JUMPDEST PUSH2 0x222A DUP2 PUSH2 0x1E11 JUMP JUMPDEST DUP2 EQ PUSH2 0x2235 JUMPI PUSH1 0x0 DUP1 REVERT JUMPDEST POP JUMP JUMPDEST PUSH2 0x2241 DUP2 PUSH2 0x1E2F JUMP JUMPDEST DUP2 EQ PUSH2 0x224C JUMPI PUSH1 0x0 DUP1 REVERT JUMPDEST POP JUMP JUMPDEST PUSH2 0x2258 DUP2 PUSH2 0x1E39 JUMP JUMPDEST DUP2 EQ PUSH2 0x2263 JUMPI PUSH1 0x0 DUP1 REVERT JUMPDEST POP JUMP JUMPDEST PUSH2 0x226F DUP2 PUSH2 0x1E85 JUMP JUMPDEST DUP2 EQ PUSH2 0x227A JUMPI PUSH1 0x0 DUP1 REVERT JUMPDEST POP JUMP INVALID LOG2 PUSH5 0x6970667358 0x22 SLT KECCAK256 0xD9 0xED SWAP4 INVALID PUSH14 0xDAF00B51FAC4EE28861545A25F34 SELFDESTRUCT 0xEC 0xFC 0x5D 0xE SWAP9 DUP15 STATICCALL 0xC5 0xB8 RETURNDATASIZE 0xA6 DUP9 PUSH5 0x736F6C6343 STOP ADDMOD SMOD STOP CALLER "
				},
				"gasEstimates": {
					"creation": {
						"codeDepositCost": "1776600",
						"executionCost": "infinite",
						"totalCost": "infinite"
					},
					"external": {
						"Candidates(uint256)": "infinite",
						"DEFAULT_ADMIN_ROLE()": "424",
						"INEC_EXEC_ROLE()": "419",
						"VOTER_ROLE()": "440",
						"Voters(uint256)": "infinite",
						"Voting(uint256,uint256)": "infinite",
						"createCandidate(string,address,uint256)": "infinite",
						"createElection(address[],uint256,uint256)": "infinite",
						"createInecExec(address)": "infinite",
						"getRoleAdmin(bytes32)": "infinite",
						"grantRole(bytes32,address)": "infinite",
						"hasRole(bytes32,address)": "3185",
						"owner()": "2545",
						"party(uint256)": "infinite",
						"regVoter(uint256)": "80060",
						"renounceOwnership()": "30509",
						"renounceRole(bytes32,address)": "infinite",
						"revokeRole(bytes32,address)": "infinite",
						"supportsInterface(bytes4)": "751",
						"transferOwnership(address)": "30857"
					}
				},
				"methodIdentifiers": {
					"Candidates(uint256)": "290e9212",
					"DEFAULT_ADMIN_ROLE()": "a217fddf",
					"INEC_EXEC_ROLE()": "2e0d37bb",
					"VOTER_ROLE()": "a94015c8",
					"Voters(uint256)": "9c35d98b",
					"Voting(uint256,uint256)": "3ec9ae35",
					"createCandidate(string,address,uint256)": "d59d2a58",
					"createElection(address[],uint256,uint256)": "4f05dba8",
					"createInecExec(address)": "dfd8459e",
					"getRoleAdmin(bytes32)": "248a9ca3",
					"grantRole(bytes32,address)": "2f2ff15d",
					"hasRole(bytes32,address)": "91d14854",
					"owner()": "8da5cb5b",
					"party(uint256)": "314fd68f",
					"regVoter(uint256)": "d9d55ba0",
					"renounceOwnership()": "715018a6",
					"renounceRole(bytes32,address)": "36568abe",
					"revokeRole(bytes32,address)": "d547741f",
					"supportsInterface(bytes4)": "01ffc9a7",
					"transferOwnership(address)": "f2fde38b"
				}
			},
			"storageLayout": {
				"storage": [
					{
						"astId": 400,
						"contract": "contracts/Vote.sol:Vote",
						"label": "_owner",
						"offset": 0,
						"slot": "0",
						"type": "t_address"
					},
					{
						"astId": 24,
						"contract": "contracts/Vote.sol:Vote",
						"label": "_roles",
						"offset": 0,
						"slot": "1",
						"type": "t_mapping(t_bytes32,t_struct(RoleData)19_storage)"
					},
					{
						"astId": 800,
						"contract": "contracts/Vote.sol:Vote",
						"label": "voteFee",
						"offset": 0,
						"slot": "2",
						"type": "t_uint256"
					},
					{
						"astId": 802,
						"contract": "contracts/Vote.sol:Vote",
						"label": "candidateNum",
						"offset": 0,
						"slot": "3",
						"type": "t_uint256"
					},
					{
						"astId": 804,
						"contract": "contracts/Vote.sol:Vote",
						"label": "voterNum",
						"offset": 0,
						"slot": "4",
						"type": "t_uint256"
					},
					{
						"astId": 806,
						"contract": "contracts/Vote.sol:Vote",
						"label": "electionNum",
						"offset": 0,
						"slot": "5",
						"type": "t_uint256"
					},
					{
						"astId": 814,
						"contract": "contracts/Vote.sol:Vote",
						"label": "party",
						"offset": 0,
						"slot": "6",
						"type": "t_array(t_string_storage)dyn_storage"
					},
					{
						"astId": 858,
						"contract": "contracts/Vote.sol:Vote",
						"label": "Candidates",
						"offset": 0,
						"slot": "7",
						"type": "t_array(t_struct(candidate)831_storage)dyn_storage"
					},
					{
						"astId": 863,
						"contract": "contracts/Vote.sol:Vote",
						"label": "Voters",
						"offset": 0,
						"slot": "8",
						"type": "t_mapping(t_uint256,t_struct(voter)840_storage)"
					},
					{
						"astId": 868,
						"contract": "contracts/Vote.sol:Vote",
						"label": "Elections",
						"offset": 0,
						"slot": "9",
						"type": "t_mapping(t_uint256,t_struct(election)854_storage)"
					}
				],
				"types": {
					"t_address": {
						"encoding": "inplace",
						"label": "address",
						"numberOfBytes": "20"
					},
					"t_array(t_address)dyn_storage": {
						"base": "t_address",
						"encoding": "dynamic_array",
						"label": "address[]",
						"numberOfBytes": "32"
					},
					"t_array(t_string_storage)dyn_storage": {
						"base": "t_string_storage",
						"encoding": "dynamic_array",
						"label": "string[]",
						"numberOfBytes": "32"
					},
					"t_array(t_struct(candidate)831_storage)dyn_storage": {
						"base": "t_struct(candidate)831_storage",
						"encoding": "dynamic_array",
						"label": "struct Vote.candidate[]",
						"numberOfBytes": "32"
					},
					"t_array(t_uint256)4_storage": {
						"base": "t_uint256",
						"encoding": "inplace",
						"label": "uint256[4]",
						"numberOfBytes": "128"
					},
					"t_bool": {
						"encoding": "inplace",
						"label": "bool",
						"numberOfBytes": "1"
					},
					"t_bytes32": {
						"encoding": "inplace",
						"label": "bytes32",
						"numberOfBytes": "32"
					},
					"t_mapping(t_address,t_bool)": {
						"encoding": "mapping",
						"key": "t_address",
						"label": "mapping(address => bool)",
						"numberOfBytes": "32",
						"value": "t_bool"
					},
					"t_mapping(t_bytes32,t_struct(RoleData)19_storage)": {
						"encoding": "mapping",
						"key": "t_bytes32",
						"label": "mapping(bytes32 => struct AccessControl.RoleData)",
						"numberOfBytes": "32",
						"value": "t_struct(RoleData)19_storage"
					},
					"t_mapping(t_uint256,t_struct(election)854_storage)": {
						"encoding": "mapping",
						"key": "t_uint256",
						"label": "mapping(uint256 => struct Vote.election)",
						"numberOfBytes": "32",
						"value": "t_struct(election)854_storage"
					},
					"t_mapping(t_uint256,t_struct(voter)840_storage)": {
						"encoding": "mapping",
						"key": "t_uint256",
						"label": "mapping(uint256 => struct Vote.voter)",
						"numberOfBytes": "32",
						"value": "t_struct(voter)840_storage"
					},
					"t_string_storage": {
						"encoding": "bytes",
						"label": "string",
						"numberOfBytes": "32"
					},
					"t_struct(RoleData)19_storage": {
						"encoding": "inplace",
						"label": "struct AccessControl.RoleData",
						"members": [
							{
								"astId": 16,
								"contract": "contracts/Vote.sol:Vote",
								"label": "members",
								"offset": 0,
								"slot": "0",
								"type": "t_mapping(t_address,t_bool)"
							},
							{
								"astId": 18,
								"contract": "contracts/Vote.sol:Vote",
								"label": "adminRole",
								"offset": 0,
								"slot": "1",
								"type": "t_bytes32"
							}
						],
						"numberOfBytes": "64"
					},
					"t_struct(candidate)831_storage": {
						"encoding": "inplace",
						"label": "struct Vote.candidate",
						"members": [
							{
								"astId": 826,
								"contract": "contracts/Vote.sol:Vote",
								"label": "name",
								"offset": 0,
								"slot": "0",
								"type": "t_string_storage"
							},
							{
								"astId": 828,
								"contract": "contracts/Vote.sol:Vote",
								"label": "addr",
								"offset": 0,
								"slot": "1",
								"type": "t_address"
							},
							{
								"astId": 830,
								"contract": "contracts/Vote.sol:Vote",
								"label": "party",
								"offset": 0,
								"slot": "2",
								"type": "t_string_storage"
							}
						],
						"numberOfBytes": "96"
					},
					"t_struct(election)854_storage": {
						"encoding": "inplace",
						"label": "struct Vote.election",
						"members": [
							{
								"astId": 843,
								"contract": "contracts/Vote.sol:Vote",
								"label": "candidate",
								"offset": 0,
								"slot": "0",
								"type": "t_array(t_address)dyn_storage"
							},
							{
								"astId": 847,
								"contract": "contracts/Vote.sol:Vote",
								"label": "candidateVote",
								"offset": 0,
								"slot": "1",
								"type": "t_array(t_uint256)4_storage"
							},
							{
								"astId": 849,
								"contract": "contracts/Vote.sol:Vote",
								"label": "start",
								"offset": 0,
								"slot": "5",
								"type": "t_uint256"
							},
							{
								"astId": 851,
								"contract": "contracts/Vote.sol:Vote",
								"label": "duration",
								"offset": 0,
								"slot": "6",
								"type": "t_uint256"
							},
							{
								"astId": 853,
								"contract": "contracts/Vote.sol:Vote",
								"label": "hasEnded",
								"offset": 0,
								"slot": "7",
								"type": "t_bool"
							}
						],
						"numberOfBytes": "256"
					},
					"t_struct(voter)840_storage": {
						"encoding": "inplace",
						"label": "struct Vote.voter",
						"members": [
							{
								"astId": 833,
								"contract": "contracts/Vote.sol:Vote",
								"label": "addr",
								"offset": 0,
								"slot": "0",
								"type": "t_address"
							},
							{
								"astId": 835,
								"contract": "contracts/Vote.sol:Vote",
								"label": "nin",
								"offset": 0,
								"slot": "1",
								"type": "t_uint256"
							},
							{
								"astId": 837,
								"contract": "contracts/Vote.sol:Vote",
								"label": "partyNum",
								"offset": 0,
								"slot": "2",
								"type": "t_uint256"
							},
							{
								"astId": 839,
								"contract": "contracts/Vote.sol:Vote",
								"label": "hasVoted",
								"offset": 0,
								"slot": "3",
								"type": "t_bool"
							}
						],
						"numberOfBytes": "128"
					},
					"t_uint256": {
						"encoding": "inplace",
						"label": "uint256",
						"numberOfBytes": "32"
					}
				}
			},
			"userdoc": {
				"kind": "user",
				"methods": {},
				"version": 1
			}
		}
	}
}