{
	"contracts/Vote.sol": {
		"Vote": {
			"abi": [
				{
					"inputs": [],
					"stateMutability": "nonpayable",
					"type": "constructor"
				},
				{
					"anonymous": false,
					"inputs": [
						{
							"indexed": true,
							"internalType": "address",
							"name": "previousOwner",
							"type": "address"
						},
						{
							"indexed": true,
							"internalType": "address",
							"name": "newOwner",
							"type": "address"
						}
					],
					"name": "OwnershipTransferred",
					"type": "event"
				},
				{
					"anonymous": false,
					"inputs": [
						{
							"indexed": true,
							"internalType": "bytes32",
							"name": "role",
							"type": "bytes32"
						},
						{
							"indexed": true,
							"internalType": "bytes32",
							"name": "previousAdminRole",
							"type": "bytes32"
						},
						{
							"indexed": true,
							"internalType": "bytes32",
							"name": "newAdminRole",
							"type": "bytes32"
						}
					],
					"name": "RoleAdminChanged",
					"type": "event"
				},
				{
					"anonymous": false,
					"inputs": [
						{
							"indexed": true,
							"internalType": "bytes32",
							"name": "role",
							"type": "bytes32"
						},
						{
							"indexed": true,
							"internalType": "address",
							"name": "account",
							"type": "address"
						},
						{
							"indexed": true,
							"internalType": "address",
							"name": "sender",
							"type": "address"
						}
					],
					"name": "RoleGranted",
					"type": "event"
				},
				{
					"anonymous": false,
					"inputs": [
						{
							"indexed": true,
							"internalType": "bytes32",
							"name": "role",
							"type": "bytes32"
						},
						{
							"indexed": true,
							"internalType": "address",
							"name": "account",
							"type": "address"
						},
						{
							"indexed": true,
							"internalType": "address",
							"name": "sender",
							"type": "address"
						}
					],
					"name": "RoleRevoked",
					"type": "event"
				},
				{
					"inputs": [
						{
							"internalType": "uint256",
							"name": "",
							"type": "uint256"
						}
					],
					"name": "Candidates",
					"outputs": [
						{
							"internalType": "string",
							"name": "name",
							"type": "string"
						},
						{
							"internalType": "address",
							"name": "addr",
							"type": "address"
						},
						{
							"internalType": "string",
							"name": "party",
							"type": "string"
						}
					],
					"stateMutability": "view",
					"type": "function"
				},
				{
					"inputs": [],
					"name": "DEFAULT_ADMIN_ROLE",
					"outputs": [
						{
							"internalType": "bytes32",
							"name": "",
							"type": "bytes32"
						}
					],
					"stateMutability": "view",
					"type": "function"
				},
				{
					"inputs": [],
					"name": "INEC_EXEC_ROLE",
					"outputs": [
						{
							"internalType": "bytes32",
							"name": "",
							"type": "bytes32"
						}
					],
					"stateMutability": "view",
					"type": "function"
				},
				{
					"inputs": [],
					"name": "VOTER_ROLE",
					"outputs": [
						{
							"internalType": "bytes32",
							"name": "",
							"type": "bytes32"
						}
					],
					"stateMutability": "view",
					"type": "function"
				},
				{
					"inputs": [
						{
							"internalType": "uint256",
							"name": "",
							"type": "uint256"
						}
					],
					"name": "Voters",
					"outputs": [
						{
							"internalType": "address",
							"name": "addr",
							"type": "address"
						},
						{
							"internalType": "uint256",
							"name": "nin",
							"type": "uint256"
						},
						{
							"internalType": "uint256",
							"name": "partyNum",
							"type": "uint256"
						},
						{
							"internalType": "bool",
							"name": "hasVoted",
							"type": "bool"
						}
					],
					"stateMutability": "view",
					"type": "function"
				},
				{
					"inputs": [
						{
							"internalType": "string",
							"name": "name",
							"type": "string"
						},
						{
							"internalType": "address",
							"name": "candAddress",
							"type": "address"
						},
						{
							"internalType": "uint256",
							"name": "partyNum",
							"type": "uint256"
						}
					],
					"name": "createCandidate",
					"outputs": [],
					"stateMutability": "nonpayable",
					"type": "function"
				},
				{
					"inputs": [
						{
							"internalType": "address[]",
							"name": "_candidateNum",
							"type": "address[]"
						},
						{
							"internalType": "uint256",
							"name": "_date",
							"type": "uint256"
						},
						{
							"internalType": "uint256",
							"name": "_duration",
							"type": "uint256"
						}
					],
					"name": "createElection",
					"outputs": [],
					"stateMutability": "nonpayable",
					"type": "function"
				},
				{
					"inputs": [
						{
							"internalType": "address",
							"name": "_account",
							"type": "address"
						}
					],
					"name": "createInecExec",
					"outputs": [],
					"stateMutability": "nonpayable",
					"type": "function"
				},
				{
					"inputs": [
						{
							"internalType": "uint256",
							"name": "num",
							"type": "uint256"
						}
					],
					"name": "getElection",
					"outputs": [
						{
							"components": [
								{
									"internalType": "address[]",
									"name": "candidate",
									"type": "address[]"
								},
								{
									"internalType": "uint256[]",
									"name": "candidateVote",
									"type": "uint256[]"
								},
								{
									"internalType": "uint256",
									"name": "start",
									"type": "uint256"
								},
								{
									"internalType": "uint256",
									"name": "duration",
									"type": "uint256"
								},
								{
									"internalType": "bool",
									"name": "hasEnded",
									"type": "bool"
								}
							],
							"internalType": "struct Vote.election",
							"name": "",
							"type": "tuple"
						}
					],
					"stateMutability": "view",
					"type": "function"
				},
				{
					"inputs": [
						{
							"internalType": "bytes32",
							"name": "role",
							"type": "bytes32"
						}
					],
					"name": "getRoleAdmin",
					"outputs": [
						{
							"internalType": "bytes32",
							"name": "",
							"type": "bytes32"
						}
					],
					"stateMutability": "view",
					"type": "function"
				},
				{
					"inputs": [
						{
							"internalType": "bytes32",
							"name": "role",
							"type": "bytes32"
						},
						{
							"internalType": "address",
							"name": "account",
							"type": "address"
						}
					],
					"name": "grantRole",
					"outputs": [],
					"stateMutability": "nonpayable",
					"type": "function"
				},
				{
					"inputs": [
						{
							"internalType": "bytes32",
							"name": "role",
							"type": "bytes32"
						},
						{
							"internalType": "address",
							"name": "account",
							"type": "address"
						}
					],
					"name": "hasRole",
					"outputs": [
						{
							"internalType": "bool",
							"name": "",
							"type": "bool"
						}
					],
					"stateMutability": "view",
					"type": "function"
				},
				{
					"inputs": [],
					"name": "owner",
					"outputs": [
						{
							"internalType": "address",
							"name": "",
							"type": "address"
						}
					],
					"stateMutability": "view",
					"type": "function"
				},
				{
					"inputs": [
						{
							"internalType": "uint256",
							"name": "",
							"type": "uint256"
						}
					],
					"name": "party",
					"outputs": [
						{
							"internalType": "string",
							"name": "",
							"type": "string"
						}
					],
					"stateMutability": "view",
					"type": "function"
				},
				{
					"inputs": [
						{
							"internalType": "uint256",
							"name": "_nin",
							"type": "uint256"
						}
					],
					"name": "regVoter",
					"outputs": [],
					"stateMutability": "nonpayable",
					"type": "function"
				},
				{
					"inputs": [],
					"name": "renounceOwnership",
					"outputs": [],
					"stateMutability": "nonpayable",
					"type": "function"
				},
				{
					"inputs": [
						{
							"internalType": "bytes32",
							"name": "role",
							"type": "bytes32"
						},
						{
							"internalType": "address",
							"name": "account",
							"type": "address"
						}
					],
					"name": "renounceRole",
					"outputs": [],
					"stateMutability": "nonpayable",
					"type": "function"
				},
				{
					"inputs": [
						{
							"internalType": "uint256",
							"name": "num",
							"type": "uint256"
						}
					],
					"name": "retrieveCandidate",
					"outputs": [
						{
							"components": [
								{
									"internalType": "string",
									"name": "name",
									"type": "string"
								},
								{
									"internalType": "address",
									"name": "addr",
									"type": "address"
								},
								{
									"internalType": "string",
									"name": "party",
									"type": "string"
								}
							],
							"internalType": "struct Vote.candidate",
							"name": "",
							"type": "tuple"
						}
					],
					"stateMutability": "view",
					"type": "function"
				},
				{
					"inputs": [
						{
							"internalType": "bytes32",
							"name": "role",
							"type": "bytes32"
						},
						{
							"internalType": "address",
							"name": "account",
							"type": "address"
						}
					],
					"name": "revokeRole",
					"outputs": [],
					"stateMutability": "nonpayable",
					"type": "function"
				},
				{
					"inputs": [
						{
							"internalType": "bytes4",
							"name": "interfaceId",
							"type": "bytes4"
						}
					],
					"name": "supportsInterface",
					"outputs": [
						{
							"internalType": "bool",
							"name": "",
							"type": "bool"
						}
					],
					"stateMutability": "view",
					"type": "function"
				},
				{
					"inputs": [
						{
							"internalType": "address",
							"name": "newOwner",
							"type": "address"
						}
					],
					"name": "transferOwnership",
					"outputs": [],
					"stateMutability": "nonpayable",
					"type": "function"
				}
			],
			"devdoc": {
				"custom:dev-run-script": "./scripts/deploy_with_ethers.ts",
				"details": "Store & retrieve value in a variable",
				"kind": "dev",
				"methods": {
					"createCandidate(string,address,uint256)": {
						"details": "Store value in variable",
						"params": {
							"candAddress": "value for candidate Address",
							"name": "value for candidate name",
							"partyNum": "value for candidate party"
						}
					},
					"createElection(address[],uint256,uint256)": {
						"details": "registers a voter",
						"params": {
							"_candidateNum": "is an arrat of candidates, _nin is the voters identifier'"
						}
					},
					"createInecExec(address)": {
						"details": "Grant INEC executive role to an address ",
						"params": {
							"_account": "value for the role'"
						}
					},
					"getElection(uint256)": {
						"details": "Return value ",
						"returns": {
							"_0": "value of 'struct'"
						}
					},
					"getRoleAdmin(bytes32)": {
						"details": "Returns the admin role that controls `role`. See {grantRole} and {revokeRole}. To change a role's admin, use {_setRoleAdmin}."
					},
					"grantRole(bytes32,address)": {
						"details": "Grants `role` to `account`. If `account` had not been already granted `role`, emits a {RoleGranted} event. Requirements: - the caller must have ``role``'s admin role. May emit a {RoleGranted} event."
					},
					"hasRole(bytes32,address)": {
						"details": "Returns `true` if `account` has been granted `role`."
					},
					"owner()": {
						"details": "Returns the address of the current owner."
					},
					"regVoter(uint256)": {
						"details": "registers a voter",
						"params": {
							"_nin": "is the voters identifier'"
						}
					},
					"renounceOwnership()": {
						"details": "Leaves the contract without owner. It will not be possible to call `onlyOwner` functions anymore. Can only be called by the current owner. NOTE: Renouncing ownership will leave the contract without an owner, thereby removing any functionality that is only available to the owner."
					},
					"renounceRole(bytes32,address)": {
						"details": "Revokes `role` from the calling account. Roles are often managed via {grantRole} and {revokeRole}: this function's purpose is to provide a mechanism for accounts to lose their privileges if they are compromised (such as when a trusted device is misplaced). If the calling account had been revoked `role`, emits a {RoleRevoked} event. Requirements: - the caller must be `account`. May emit a {RoleRevoked} event."
					},
					"retrieveCandidate(uint256)": {
						"details": "Return value ",
						"returns": {
							"_0": "value of 'struct'"
						}
					},
					"revokeRole(bytes32,address)": {
						"details": "Revokes `role` from `account`. If `account` had been granted `role`, emits a {RoleRevoked} event. Requirements: - the caller must have ``role``'s admin role. May emit a {RoleRevoked} event."
					},
					"supportsInterface(bytes4)": {
						"details": "See {IERC165-supportsInterface}."
					},
					"transferOwnership(address)": {
						"details": "Transfers ownership of the contract to a new account (`newOwner`). Can only be called by the current owner."
					}
				},
				"title": "Storage",
				"version": 1
			},
			"evm": {
				"assembly": "    /* \"contracts/Vote.sol\":311:3721  contract Vote is Ownable, AccessControl {... */\n  mstore(0x40, 0x80)\n    /* \"contracts/Vote.sol\":457:510  string [] public party = [\"APC\", \"PDP\", \"LP\", \"NNPP\"] */\n  mload(0x40)\n  dup1\n  0x80\n  add\n  0x40\n  mstore\n  dup1\n  mload(0x40)\n  dup1\n  0x40\n  add\n  0x40\n  mstore\n  dup1\n  0x03\n  dup2\n  mstore\n  0x20\n  add\n  0x4150430000000000000000000000000000000000000000000000000000000000\n  dup2\n  mstore\n  pop\n  dup2\n  mstore\n  0x20\n  add\n  mload(0x40)\n  dup1\n  0x40\n  add\n  0x40\n  mstore\n  dup1\n  0x03\n  dup2\n  mstore\n  0x20\n  add\n  0x5044500000000000000000000000000000000000000000000000000000000000\n  dup2\n  mstore\n  pop\n  dup2\n  mstore\n  0x20\n  add\n  mload(0x40)\n  dup1\n  0x40\n  add\n  0x40\n  mstore\n  dup1\n  0x02\n  dup2\n  mstore\n  0x20\n  add\n  0x4c50000000000000000000000000000000000000000000000000000000000000\n  dup2\n  mstore\n  pop\n  dup2\n  mstore\n  0x20\n  add\n  mload(0x40)\n  dup1\n  0x40\n  add\n  0x40\n  mstore\n  dup1\n  0x04\n  dup2\n  mstore\n  0x20\n  add\n  0x4e4e505000000000000000000000000000000000000000000000000000000000\n  dup2\n  mstore\n  pop\n  dup2\n  mstore\n  pop\n  0x06\n  swap1\n  0x04\n  tag_1\n  swap3\n  swap2\n  swap1\n  tag_2\n  jump\t// in\ntag_1:\n  pop\n    /* \"contracts/Vote.sol\":1616:1809  constructor() {... */\n  callvalue\n  dup1\n  iszero\n  tag_3\n  jumpi\n  0x00\n  dup1\n  revert\ntag_3:\n  pop\n    /* \"@openzeppelin/contracts/access/Ownable.sol\":936:968  _transferOwnership(_msgSender()) */\n  tag_7\n    /* \"@openzeppelin/contracts/access/Ownable.sol\":955:967  _msgSender() */\n  tag_8\n    /* \"@openzeppelin/contracts/access/Ownable.sol\":955:965  _msgSender */\n  shl(0x20, tag_9)\n    /* \"@openzeppelin/contracts/access/Ownable.sol\":955:967  _msgSender() */\n  0x20\n  shr\n  jump\t// in\ntag_8:\n    /* \"@openzeppelin/contracts/access/Ownable.sol\":936:954  _transferOwnership */\n  shl(0x20, tag_10)\n    /* \"@openzeppelin/contracts/access/Ownable.sol\":936:968  _transferOwnership(_msgSender()) */\n  0x20\n  shr\n  jump\t// in\ntag_7:\n    /* \"contracts/Vote.sol\":1760:1802  _setupRole(DEFAULT_ADMIN_ROLE, msg.sender) */\n  tag_12\n    /* \"@openzeppelin/contracts/access/AccessControl.sol\":2072:2076  0x00 */\n  0x00\n    /* \"contracts/Vote.sol\":1771:1789  DEFAULT_ADMIN_ROLE */\n  dup1\n  shl\n    /* \"contracts/Vote.sol\":1791:1801  msg.sender */\n  caller\n    /* \"contracts/Vote.sol\":1760:1770  _setupRole */\n  shl(0x20, tag_13)\n    /* \"contracts/Vote.sol\":1760:1802  _setupRole(DEFAULT_ADMIN_ROLE, msg.sender) */\n  0x20\n  shr\n  jump\t// in\ntag_12:\n    /* \"contracts/Vote.sol\":311:3721  contract Vote is Ownable, AccessControl {... */\n  jump(tag_14)\n    /* \"@openzeppelin/contracts/utils/Context.sol\":640:736  function _msgSender() internal view virtual returns (address) {... */\ntag_9:\n    /* \"@openzeppelin/contracts/utils/Context.sol\":693:700  address */\n  0x00\n    /* \"@openzeppelin/contracts/utils/Context.sol\":719:729  msg.sender */\n  caller\n    /* \"@openzeppelin/contracts/utils/Context.sol\":712:729  return msg.sender */\n  swap1\n  pop\n    /* \"@openzeppelin/contracts/utils/Context.sol\":640:736  function _msgSender() internal view virtual returns (address) {... */\n  swap1\n  jump\t// out\n    /* \"@openzeppelin/contracts/access/Ownable.sol\":2433:2620  function _transferOwnership(address newOwner) internal virtual {... */\ntag_10:\n    /* \"@openzeppelin/contracts/access/Ownable.sol\":2506:2522  address oldOwner */\n  0x00\n    /* \"@openzeppelin/contracts/access/Ownable.sol\":2525:2531  _owner */\n  dup1\n  0x00\n  swap1\n  sload\n  swap1\n  0x0100\n  exp\n  swap1\n  div\n  0xffffffffffffffffffffffffffffffffffffffff\n  and\n    /* \"@openzeppelin/contracts/access/Ownable.sol\":2506:2531  address oldOwner = _owner */\n  swap1\n  pop\n    /* \"@openzeppelin/contracts/access/Ownable.sol\":2550:2558  newOwner */\n  dup2\n    /* \"@openzeppelin/contracts/access/Ownable.sol\":2541:2547  _owner */\n  0x00\n  dup1\n    /* \"@openzeppelin/contracts/access/Ownable.sol\":2541:2558  _owner = newOwner */\n  0x0100\n  exp\n  dup2\n  sload\n  dup2\n  0xffffffffffffffffffffffffffffffffffffffff\n  mul\n  not\n  and\n  swap1\n  dup4\n  0xffffffffffffffffffffffffffffffffffffffff\n  and\n  mul\n  or\n  swap1\n  sstore\n  pop\n    /* \"@openzeppelin/contracts/access/Ownable.sol\":2604:2612  newOwner */\n  dup2\n    /* \"@openzeppelin/contracts/access/Ownable.sol\":2573:2613  OwnershipTransferred(oldOwner, newOwner) */\n  0xffffffffffffffffffffffffffffffffffffffff\n  and\n    /* \"@openzeppelin/contracts/access/Ownable.sol\":2594:2602  oldOwner */\n  dup2\n    /* \"@openzeppelin/contracts/access/Ownable.sol\":2573:2613  OwnershipTransferred(oldOwner, newOwner) */\n  0xffffffffffffffffffffffffffffffffffffffff\n  and\n  0x8be0079c531659141344cd1fd0a4f28419497f9722a3daafe3b4186f6b6457e0\n  mload(0x40)\n  mload(0x40)\n  dup1\n  swap2\n  sub\n  swap1\n  log3\n    /* \"@openzeppelin/contracts/access/Ownable.sol\":2496:2620  {... */\n  pop\n    /* \"@openzeppelin/contracts/access/Ownable.sol\":2433:2620  function _transferOwnership(address newOwner) internal virtual {... */\n  pop\n  jump\t// out\n    /* \"@openzeppelin/contracts/access/AccessControl.sol\":6824:6934  function _setupRole(bytes32 role, address account) internal virtual {... */\ntag_13:\n    /* \"@openzeppelin/contracts/access/AccessControl.sol\":6902:6927  _grantRole(role, account) */\n  tag_18\n    /* \"@openzeppelin/contracts/access/AccessControl.sol\":6913:6917  role */\n  dup3\n    /* \"@openzeppelin/contracts/access/AccessControl.sol\":6919:6926  account */\n  dup3\n    /* \"@openzeppelin/contracts/access/AccessControl.sol\":6902:6912  _grantRole */\n  shl(0x20, tag_19)\n    /* \"@openzeppelin/contracts/access/AccessControl.sol\":6902:6927  _grantRole(role, account) */\n  0x20\n  shr\n  jump\t// in\ntag_18:\n    /* \"@openzeppelin/contracts/access/AccessControl.sol\":6824:6934  function _setupRole(bytes32 role, address account) internal virtual {... */\n  pop\n  pop\n  jump\t// out\n    /* \"@openzeppelin/contracts/access/AccessControl.sol\":7474:7707  function _grantRole(bytes32 role, address account) internal virtual {... */\ntag_19:\n    /* \"@openzeppelin/contracts/access/AccessControl.sol\":7557:7579  hasRole(role, account) */\n  tag_21\n    /* \"@openzeppelin/contracts/access/AccessControl.sol\":7565:7569  role */\n  dup3\n    /* \"@openzeppelin/contracts/access/AccessControl.sol\":7571:7578  account */\n  dup3\n    /* \"@openzeppelin/contracts/access/AccessControl.sol\":7557:7564  hasRole */\n  shl(0x20, tag_22)\n    /* \"@openzeppelin/contracts/access/AccessControl.sol\":7557:7579  hasRole(role, account) */\n  0x20\n  shr\n  jump\t// in\ntag_21:\n    /* \"@openzeppelin/contracts/access/AccessControl.sol\":7552:7701  if (!hasRole(role, account)) {... */\n  tag_23\n  jumpi\n    /* \"@openzeppelin/contracts/access/AccessControl.sol\":7627:7631  true */\n  0x01\n    /* \"@openzeppelin/contracts/access/AccessControl.sol\":7595:7601  _roles */\n  dup1\n    /* \"@openzeppelin/contracts/access/AccessControl.sol\":7595:7607  _roles[role] */\n  0x00\n    /* \"@openzeppelin/contracts/access/AccessControl.sol\":7602:7606  role */\n  dup5\n    /* \"@openzeppelin/contracts/access/AccessControl.sol\":7595:7607  _roles[role] */\n  dup2\n  mstore\n  0x20\n  add\n  swap1\n  dup2\n  mstore\n  0x20\n  add\n  0x00\n  keccak256\n    /* \"@openzeppelin/contracts/access/AccessControl.sol\":7595:7615  _roles[role].members */\n  0x00\n  add\n    /* \"@openzeppelin/contracts/access/AccessControl.sol\":7595:7624  _roles[role].members[account] */\n  0x00\n    /* \"@openzeppelin/contracts/access/AccessControl.sol\":7616:7623  account */\n  dup4\n    /* \"@openzeppelin/contracts/access/AccessControl.sol\":7595:7624  _roles[role].members[account] */\n  0xffffffffffffffffffffffffffffffffffffffff\n  and\n  0xffffffffffffffffffffffffffffffffffffffff\n  and\n  dup2\n  mstore\n  0x20\n  add\n  swap1\n  dup2\n  mstore\n  0x20\n  add\n  0x00\n  keccak256\n  0x00\n    /* \"@openzeppelin/contracts/access/AccessControl.sol\":7595:7631  _roles[role].members[account] = true */\n  0x0100\n  exp\n  dup2\n  sload\n  dup2\n  0xff\n  mul\n  not\n  and\n  swap1\n  dup4\n  iszero\n  iszero\n  mul\n  or\n  swap1\n  sstore\n  pop\n    /* \"@openzeppelin/contracts/access/AccessControl.sol\":7677:7689  _msgSender() */\n  tag_24\n    /* \"@openzeppelin/contracts/access/AccessControl.sol\":7677:7687  _msgSender */\n  shl(0x20, tag_9)\n    /* \"@openzeppelin/contracts/access/AccessControl.sol\":7677:7689  _msgSender() */\n  0x20\n  shr\n  jump\t// in\ntag_24:\n    /* \"@openzeppelin/contracts/access/AccessControl.sol\":7650:7690  RoleGranted(role, account, _msgSender()) */\n  0xffffffffffffffffffffffffffffffffffffffff\n  and\n    /* \"@openzeppelin/contracts/access/AccessControl.sol\":7668:7675  account */\n  dup2\n    /* \"@openzeppelin/contracts/access/AccessControl.sol\":7650:7690  RoleGranted(role, account, _msgSender()) */\n  0xffffffffffffffffffffffffffffffffffffffff\n  and\n    /* \"@openzeppelin/contracts/access/AccessControl.sol\":7662:7666  role */\n  dup4\n    /* \"@openzeppelin/contracts/access/AccessControl.sol\":7650:7690  RoleGranted(role, account, _msgSender()) */\n  0x2f8788117e7eff1d82e926ec794901d17c78024a50270940304540a733656f0d\n  mload(0x40)\n  mload(0x40)\n  dup1\n  swap2\n  sub\n  swap1\n  log4\n    /* \"@openzeppelin/contracts/access/AccessControl.sol\":7552:7701  if (!hasRole(role, account)) {... */\ntag_23:\n    /* \"@openzeppelin/contracts/access/AccessControl.sol\":7474:7707  function _grantRole(bytes32 role, address account) internal virtual {... */\n  pop\n  pop\n  jump\t// out\n    /* \"@openzeppelin/contracts/access/AccessControl.sol\":2895:3040  function hasRole(bytes32 role, address account) public view virtual override returns (bool) {... */\ntag_22:\n    /* \"@openzeppelin/contracts/access/AccessControl.sol\":2981:2985  bool */\n  0x00\n    /* \"@openzeppelin/contracts/access/AccessControl.sol\":3004:3010  _roles */\n  0x01\n    /* \"@openzeppelin/contracts/access/AccessControl.sol\":3004:3016  _roles[role] */\n  0x00\n    /* \"@openzeppelin/contracts/access/AccessControl.sol\":3011:3015  role */\n  dup5\n    /* \"@openzeppelin/contracts/access/AccessControl.sol\":3004:3016  _roles[role] */\n  dup2\n  mstore\n  0x20\n  add\n  swap1\n  dup2\n  mstore\n  0x20\n  add\n  0x00\n  keccak256\n    /* \"@openzeppelin/contracts/access/AccessControl.sol\":3004:3024  _roles[role].members */\n  0x00\n  add\n    /* \"@openzeppelin/contracts/access/AccessControl.sol\":3004:3033  _roles[role].members[account] */\n  0x00\n    /* \"@openzeppelin/contracts/access/AccessControl.sol\":3025:3032  account */\n  dup4\n    /* \"@openzeppelin/contracts/access/AccessControl.sol\":3004:3033  _roles[role].members[account] */\n  0xffffffffffffffffffffffffffffffffffffffff\n  and\n  0xffffffffffffffffffffffffffffffffffffffff\n  and\n  dup2\n  mstore\n  0x20\n  add\n  swap1\n  dup2\n  mstore\n  0x20\n  add\n  0x00\n  keccak256\n  0x00\n  swap1\n  sload\n  swap1\n  0x0100\n  exp\n  swap1\n  div\n  0xff\n  and\n    /* \"@openzeppelin/contracts/access/AccessControl.sol\":2997:3033  return _roles[role].members[account] */\n  swap1\n  pop\n    /* \"@openzeppelin/contracts/access/AccessControl.sol\":2895:3040  function hasRole(bytes32 role, address account) public view virtual override returns (bool) {... */\n  swap3\n  swap2\n  pop\n  pop\n  jump\t// out\n    /* \"contracts/Vote.sol\":311:3721  contract Vote is Ownable, AccessControl {... */\ntag_2:\n  dup3\n  dup1\n  sload\n  dup3\n  dup3\n  sstore\n  swap1\n  0x00\n  mstore\n  keccak256(0x00, 0x20)\n  swap1\n  dup2\n  add\n  swap3\n  dup3\n  iszero\n  tag_26\n  jumpi\n  swap2\n  0x20\n  mul\n  dup3\n  add\ntag_27:\n  dup3\n  dup2\n  gt\n  iszero\n  tag_28\n  jumpi\n  dup3\n  mload\n  dup3\n  swap1\n  dup1\n  mload\n  swap1\n  0x20\n  add\n  swap1\n  tag_29\n  swap3\n  swap2\n  swap1\n  tag_30\n  jump\t// in\ntag_29:\n  pop\n  swap2\n  0x20\n  add\n  swap2\n  swap1\n  0x01\n  add\n  swap1\n  jump(tag_27)\ntag_28:\ntag_26:\n  pop\n  swap1\n  pop\n  tag_31\n  swap2\n  swap1\n  tag_32\n  jump\t// in\ntag_31:\n  pop\n  swap1\n  jump\t// out\ntag_30:\n  dup3\n  dup1\n  sload\n  tag_33\n  swap1\n  tag_34\n  jump\t// in\ntag_33:\n  swap1\n  0x00\n  mstore\n  keccak256(0x00, 0x20)\n  swap1\n  0x1f\n  add\n  0x20\n  swap1\n  div\n  dup2\n  add\n  swap3\n  dup3\n  tag_36\n  jumpi\n  0x00\n  dup6\n  sstore\n  jump(tag_35)\ntag_36:\n  dup3\n  0x1f\n  lt\n  tag_37\n  jumpi\n  dup1\n  mload\n  not(0xff)\n  and\n  dup4\n  dup1\n  add\n  or\n  dup6\n  sstore\n  jump(tag_35)\ntag_37:\n  dup3\n  dup1\n  add\n  0x01\n  add\n  dup6\n  sstore\n  dup3\n  iszero\n  tag_35\n  jumpi\n  swap2\n  dup3\n  add\ntag_38:\n  dup3\n  dup2\n  gt\n  iszero\n  tag_39\n  jumpi\n  dup3\n  mload\n  dup3\n  sstore\n  swap2\n  0x20\n  add\n  swap2\n  swap1\n  0x01\n  add\n  swap1\n  jump(tag_38)\ntag_39:\ntag_35:\n  pop\n  swap1\n  pop\n  tag_40\n  swap2\n  swap1\n  tag_41\n  jump\t// in\ntag_40:\n  pop\n  swap1\n  jump\t// out\ntag_32:\ntag_42:\n  dup1\n  dup3\n  gt\n  iszero\n  tag_43\n  jumpi\n  0x00\n  dup2\n  dup2\n  tag_44\n  swap2\n  swap1\n  tag_45\n  jump\t// in\ntag_44:\n  pop\n  0x01\n  add\n  jump(tag_42)\ntag_43:\n  pop\n  swap1\n  jump\t// out\ntag_41:\ntag_46:\n  dup1\n  dup3\n  gt\n  iszero\n  tag_47\n  jumpi\n  0x00\n  dup2\n  0x00\n  swap1\n  sstore\n  pop\n  0x01\n  add\n  jump(tag_46)\ntag_47:\n  pop\n  swap1\n  jump\t// out\ntag_45:\n  pop\n  dup1\n  sload\n  tag_48\n  swap1\n  tag_34\n  jump\t// in\ntag_48:\n  0x00\n  dup3\n  sstore\n  dup1\n  0x1f\n  lt\n  tag_50\n  jumpi\n  pop\n  jump(tag_49)\ntag_50:\n  0x1f\n  add\n  0x20\n  swap1\n  div\n  swap1\n  0x00\n  mstore\n  keccak256(0x00, 0x20)\n  swap1\n  dup2\n  add\n  swap1\n  tag_51\n  swap2\n  swap1\n  tag_41\n  jump\t// in\ntag_51:\ntag_49:\n  pop\n  jump\t// out\n    /* \"#utility.yul\":7:327   */\ntag_34:\n    /* \"#utility.yul\":51:57   */\n  0x00\n    /* \"#utility.yul\":88:89   */\n  0x02\n    /* \"#utility.yul\":82:86   */\n  dup3\n    /* \"#utility.yul\":78:90   */\n  div\n    /* \"#utility.yul\":68:90   */\n  swap1\n  pop\n    /* \"#utility.yul\":135:136   */\n  0x01\n    /* \"#utility.yul\":129:133   */\n  dup3\n    /* \"#utility.yul\":125:137   */\n  and\n    /* \"#utility.yul\":156:174   */\n  dup1\n    /* \"#utility.yul\":146:227   */\n  tag_54\n  jumpi\n    /* \"#utility.yul\":212:216   */\n  0x7f\n    /* \"#utility.yul\":204:210   */\n  dup3\n    /* \"#utility.yul\":200:217   */\n  and\n    /* \"#utility.yul\":190:217   */\n  swap2\n  pop\n    /* \"#utility.yul\":146:227   */\ntag_54:\n    /* \"#utility.yul\":274:276   */\n  0x20\n    /* \"#utility.yul\":266:272   */\n  dup3\n    /* \"#utility.yul\":263:277   */\n  lt\n    /* \"#utility.yul\":243:261   */\n  dup2\n    /* \"#utility.yul\":240:278   */\n  eq\n    /* \"#utility.yul\":237:321   */\n  iszero\n  tag_55\n  jumpi\n    /* \"#utility.yul\":293:311   */\n  tag_56\n  tag_57\n  jump\t// in\ntag_56:\n    /* \"#utility.yul\":237:321   */\ntag_55:\n    /* \"#utility.yul\":58:327   */\n  pop\n    /* \"#utility.yul\":7:327   */\n  swap2\n  swap1\n  pop\n  jump\t// out\n    /* \"#utility.yul\":333:513   */\ntag_57:\n    /* \"#utility.yul\":381:458   */\n  0x4e487b7100000000000000000000000000000000000000000000000000000000\n    /* \"#utility.yul\":378:379   */\n  0x00\n    /* \"#utility.yul\":371:459   */\n  mstore\n    /* \"#utility.yul\":478:482   */\n  0x22\n    /* \"#utility.yul\":475:476   */\n  0x04\n    /* \"#utility.yul\":468:483   */\n  mstore\n    /* \"#utility.yul\":502:506   */\n  0x24\n    /* \"#utility.yul\":499:500   */\n  0x00\n    /* \"#utility.yul\":492:507   */\n  revert\n    /* \"contracts/Vote.sol\":311:3721  contract Vote is Ownable, AccessControl {... */\ntag_14:\n  dataSize(sub_0)\n  dup1\n  dataOffset(sub_0)\n  0x00\n  codecopy\n  0x00\n  return\nstop\n\nsub_0: assembly {\n        /* \"contracts/Vote.sol\":311:3721  contract Vote is Ownable, AccessControl {... */\n      mstore(0x40, 0x80)\n      callvalue\n      dup1\n      iszero\n      tag_1\n      jumpi\n      0x00\n      dup1\n      revert\n    tag_1:\n      pop\n      jumpi(tag_2, lt(calldatasize, 0x04))\n      shr(0xe0, calldataload(0x00))\n      dup1\n      0x91d14854\n      gt\n      tag_24\n      jumpi\n      dup1\n      0xa94015c8\n      gt\n      tag_25\n      jumpi\n      dup1\n      0xa94015c8\n      eq\n      tag_18\n      jumpi\n      dup1\n      0xd547741f\n      eq\n      tag_19\n      jumpi\n      dup1\n      0xd59d2a58\n      eq\n      tag_20\n      jumpi\n      dup1\n      0xd9d55ba0\n      eq\n      tag_21\n      jumpi\n      dup1\n      0xdfd8459e\n      eq\n      tag_22\n      jumpi\n      dup1\n      0xf2fde38b\n      eq\n      tag_23\n      jumpi\n      jump(tag_2)\n    tag_25:\n      dup1\n      0x91d14854\n      eq\n      tag_13\n      jumpi\n      dup1\n      0x9c35d98b\n      eq\n      tag_14\n      jumpi\n      dup1\n      0x9d710777\n      eq\n      tag_15\n      jumpi\n      dup1\n      0x9e5f0349\n      eq\n      tag_16\n      jumpi\n      dup1\n      0xa217fddf\n      eq\n      tag_17\n      jumpi\n      jump(tag_2)\n    tag_24:\n      dup1\n      0x314fd68f\n      gt\n      tag_26\n      jumpi\n      dup1\n      0x314fd68f\n      eq\n      tag_8\n      jumpi\n      dup1\n      0x36568abe\n      eq\n      tag_9\n      jumpi\n      dup1\n      0x4f05dba8\n      eq\n      tag_10\n      jumpi\n      dup1\n      0x715018a6\n      eq\n      tag_11\n      jumpi\n      dup1\n      0x8da5cb5b\n      eq\n      tag_12\n      jumpi\n      jump(tag_2)\n    tag_26:\n      dup1\n      0x01ffc9a7\n      eq\n      tag_3\n      jumpi\n      dup1\n      0x248a9ca3\n      eq\n      tag_4\n      jumpi\n      dup1\n      0x290e9212\n      eq\n      tag_5\n      jumpi\n      dup1\n      0x2e0d37bb\n      eq\n      tag_6\n      jumpi\n      dup1\n      0x2f2ff15d\n      eq\n      tag_7\n      jumpi\n    tag_2:\n      0x00\n      dup1\n      revert\n        /* \"@openzeppelin/contracts/access/AccessControl.sol\":2606:2808  function supportsInterface(bytes4 interfaceId) public view virtual override returns (bool) {... */\n    tag_3:\n      tag_27\n      0x04\n      dup1\n      calldatasize\n      sub\n      dup2\n      add\n      swap1\n      tag_28\n      swap2\n      swap1\n      tag_29\n      jump\t// in\n    tag_28:\n      tag_30\n      jump\t// in\n    tag_27:\n      mload(0x40)\n      tag_31\n      swap2\n      swap1\n      tag_32\n      jump\t// in\n    tag_31:\n      mload(0x40)\n      dup1\n      swap2\n      sub\n      swap1\n      return\n        /* \"@openzeppelin/contracts/access/AccessControl.sol\":4391:4520  function getRoleAdmin(bytes32 role) public view virtual override returns (bytes32) {... */\n    tag_4:\n      tag_33\n      0x04\n      dup1\n      calldatasize\n      sub\n      dup2\n      add\n      swap1\n      tag_34\n      swap2\n      swap1\n      tag_35\n      jump\t// in\n    tag_34:\n      tag_36\n      jump\t// in\n    tag_33:\n      mload(0x40)\n      tag_37\n      swap2\n      swap1\n      tag_38\n      jump\t// in\n    tag_37:\n      mload(0x40)\n      dup1\n      swap2\n      sub\n      swap1\n      return\n        /* \"contracts/Vote.sol\":1102:1149  mapping(uint256 => candidate) public Candidates */\n    tag_5:\n      tag_39\n      0x04\n      dup1\n      calldatasize\n      sub\n      dup2\n      add\n      swap1\n      tag_40\n      swap2\n      swap1\n      tag_41\n      jump\t// in\n    tag_40:\n      tag_42\n      jump\t// in\n    tag_39:\n      mload(0x40)\n      tag_43\n      swap4\n      swap3\n      swap2\n      swap1\n      tag_44\n      jump\t// in\n    tag_43:\n      mload(0x40)\n      dup1\n      swap2\n      sub\n      swap1\n      return\n        /* \"contracts/Vote.sol\":517:580  bytes32 public constant INEC_EXEC_ROLE = keccak256(\"INEC_EXEC\") */\n    tag_6:\n      tag_45\n      tag_46\n      jump\t// in\n    tag_45:\n      mload(0x40)\n      tag_47\n      swap2\n      swap1\n      tag_38\n      jump\t// in\n    tag_47:\n      mload(0x40)\n      dup1\n      swap2\n      sub\n      swap1\n      return\n        /* \"@openzeppelin/contracts/access/AccessControl.sol\":4816:4961  function grantRole(bytes32 role, address account) public virtual override onlyRole(getRoleAdmin(role)) {... */\n    tag_7:\n      tag_48\n      0x04\n      dup1\n      calldatasize\n      sub\n      dup2\n      add\n      swap1\n      tag_49\n      swap2\n      swap1\n      tag_50\n      jump\t// in\n    tag_49:\n      tag_51\n      jump\t// in\n    tag_48:\n      stop\n        /* \"contracts/Vote.sol\":457:510  string [] public party = [\"APC\", \"PDP\", \"LP\", \"NNPP\"] */\n    tag_8:\n      tag_52\n      0x04\n      dup1\n      calldatasize\n      sub\n      dup2\n      add\n      swap1\n      tag_53\n      swap2\n      swap1\n      tag_41\n      jump\t// in\n    tag_53:\n      tag_54\n      jump\t// in\n    tag_52:\n      mload(0x40)\n      tag_55\n      swap2\n      swap1\n      tag_56\n      jump\t// in\n    tag_55:\n      mload(0x40)\n      dup1\n      swap2\n      sub\n      swap1\n      return\n        /* \"@openzeppelin/contracts/access/AccessControl.sol\":5925:6139  function renounceRole(bytes32 role, address account) public virtual override {... */\n    tag_9:\n      tag_57\n      0x04\n      dup1\n      calldatasize\n      sub\n      dup2\n      add\n      swap1\n      tag_58\n      swap2\n      swap1\n      tag_50\n      jump\t// in\n    tag_58:\n      tag_59\n      jump\t// in\n    tag_57:\n      stop\n        /* \"contracts/Vote.sol\":2955:3324  function createElection(address[] memory _candidateNum, uint256 _date, uint256 _duration) public isInecExec {... */\n    tag_10:\n      tag_60\n      0x04\n      dup1\n      calldatasize\n      sub\n      dup2\n      add\n      swap1\n      tag_61\n      swap2\n      swap1\n      tag_62\n      jump\t// in\n    tag_61:\n      tag_63\n      jump\t// in\n    tag_60:\n      stop\n        /* \"@openzeppelin/contracts/access/Ownable.sol\":1831:1932  function renounceOwnership() public virtual onlyOwner {... */\n    tag_11:\n      tag_64\n      tag_65\n      jump\t// in\n    tag_64:\n      stop\n        /* \"@openzeppelin/contracts/access/Ownable.sol\":1201:1286  function owner() public view virtual returns (address) {... */\n    tag_12:\n      tag_66\n      tag_67\n      jump\t// in\n    tag_66:\n      mload(0x40)\n      tag_68\n      swap2\n      swap1\n      tag_69\n      jump\t// in\n    tag_68:\n      mload(0x40)\n      dup1\n      swap2\n      sub\n      swap1\n      return\n        /* \"@openzeppelin/contracts/access/AccessControl.sol\":2895:3040  function hasRole(bytes32 role, address account) public view virtual override returns (bool) {... */\n    tag_13:\n      tag_70\n      0x04\n      dup1\n      calldatasize\n      sub\n      dup2\n      add\n      swap1\n      tag_71\n      swap2\n      swap1\n      tag_50\n      jump\t// in\n    tag_71:\n      tag_72\n      jump\t// in\n    tag_70:\n      mload(0x40)\n      tag_73\n      swap2\n      swap1\n      tag_32\n      jump\t// in\n    tag_73:\n      mload(0x40)\n      dup1\n      swap2\n      sub\n      swap1\n      return\n        /* \"contracts/Vote.sol\":1224:1263  mapping(uint256 => voter) public Voters */\n    tag_14:\n      tag_74\n      0x04\n      dup1\n      calldatasize\n      sub\n      dup2\n      add\n      swap1\n      tag_75\n      swap2\n      swap1\n      tag_41\n      jump\t// in\n    tag_75:\n      tag_76\n      jump\t// in\n    tag_74:\n      mload(0x40)\n      tag_77\n      swap5\n      swap4\n      swap3\n      swap2\n      swap1\n      tag_78\n      jump\t// in\n    tag_77:\n      mload(0x40)\n      dup1\n      swap2\n      sub\n      swap1\n      return\n        /* \"contracts/Vote.sol\":3604:3713  function getElection(uint256 num) public view returns (election memory){... */\n    tag_15:\n      tag_79\n      0x04\n      dup1\n      calldatasize\n      sub\n      dup2\n      add\n      swap1\n      tag_80\n      swap2\n      swap1\n      tag_41\n      jump\t// in\n    tag_80:\n      tag_81\n      jump\t// in\n    tag_79:\n      mload(0x40)\n      tag_82\n      swap2\n      swap1\n      tag_83\n      jump\t// in\n    tag_82:\n      mload(0x40)\n      dup1\n      swap2\n      sub\n      swap1\n      return\n        /* \"contracts/Vote.sol\":3406:3523  function retrieveCandidate(uint256 num) public view returns (candidate memory){... */\n    tag_16:\n      tag_84\n      0x04\n      dup1\n      calldatasize\n      sub\n      dup2\n      add\n      swap1\n      tag_85\n      swap2\n      swap1\n      tag_41\n      jump\t// in\n    tag_85:\n      tag_86\n      jump\t// in\n    tag_84:\n      mload(0x40)\n      tag_87\n      swap2\n      swap1\n      tag_88\n      jump\t// in\n    tag_87:\n      mload(0x40)\n      dup1\n      swap2\n      sub\n      swap1\n      return\n        /* \"@openzeppelin/contracts/access/AccessControl.sol\":2027:2076  bytes32 public constant DEFAULT_ADMIN_ROLE = 0x00 */\n    tag_17:\n      tag_89\n      tag_90\n      jump\t// in\n    tag_89:\n      mload(0x40)\n      tag_91\n      swap2\n      swap1\n      tag_38\n      jump\t// in\n    tag_91:\n      mload(0x40)\n      dup1\n      swap2\n      sub\n      swap1\n      return\n        /* \"contracts/Vote.sol\":586:641  bytes32 public constant VOTER_ROLE = keccak256(\"VOTER\") */\n    tag_18:\n      tag_92\n      tag_93\n      jump\t// in\n    tag_92:\n      mload(0x40)\n      tag_94\n      swap2\n      swap1\n      tag_38\n      jump\t// in\n    tag_94:\n      mload(0x40)\n      dup1\n      swap2\n      sub\n      swap1\n      return\n        /* \"@openzeppelin/contracts/access/AccessControl.sol\":5241:5388  function revokeRole(bytes32 role, address account) public virtual override onlyRole(getRoleAdmin(role)) {... */\n    tag_19:\n      tag_95\n      0x04\n      dup1\n      calldatasize\n      sub\n      dup2\n      add\n      swap1\n      tag_96\n      swap2\n      swap1\n      tag_50\n      jump\t// in\n    tag_96:\n      tag_97\n      jump\t// in\n    tag_95:\n      stop\n        /* \"contracts/Vote.sol\":2247:2546  function createCandidate(string memory name, address candAddress, uint256 partyNum) public isInecExec {... */\n    tag_20:\n      tag_98\n      0x04\n      dup1\n      calldatasize\n      sub\n      dup2\n      add\n      swap1\n      tag_99\n      swap2\n      swap1\n      tag_100\n      jump\t// in\n    tag_99:\n      tag_101\n      jump\t// in\n    tag_98:\n      stop\n        /* \"contracts/Vote.sol\":2645:2817  function regVoter(uint256 _nin) public {... */\n    tag_21:\n      tag_102\n      0x04\n      dup1\n      calldatasize\n      sub\n      dup2\n      add\n      swap1\n      tag_103\n      swap2\n      swap1\n      tag_41\n      jump\t// in\n    tag_103:\n      tag_104\n      jump\t// in\n    tag_102:\n      stop\n        /* \"contracts/Vote.sol\":1927:2037  function createInecExec(address _account) public onlyOwner{... */\n    tag_22:\n      tag_105\n      0x04\n      dup1\n      calldatasize\n      sub\n      dup2\n      add\n      swap1\n      tag_106\n      swap2\n      swap1\n      tag_107\n      jump\t// in\n    tag_106:\n      tag_108\n      jump\t// in\n    tag_105:\n      stop\n        /* \"@openzeppelin/contracts/access/Ownable.sol\":2081:2279  function transferOwnership(address newOwner) public virtual onlyOwner {... */\n    tag_23:\n      tag_109\n      0x04\n      dup1\n      calldatasize\n      sub\n      dup2\n      add\n      swap1\n      tag_110\n      swap2\n      swap1\n      tag_107\n      jump\t// in\n    tag_110:\n      tag_111\n      jump\t// in\n    tag_109:\n      stop\n        /* \"@openzeppelin/contracts/access/AccessControl.sol\":2606:2808  function supportsInterface(bytes4 interfaceId) public view virtual override returns (bool) {... */\n    tag_30:\n        /* \"@openzeppelin/contracts/access/AccessControl.sol\":2691:2695  bool */\n      0x00\n        /* \"@openzeppelin/contracts/access/AccessControl.sol\":2729:2761  type(IAccessControl).interfaceId */\n      0x7965db0b00000000000000000000000000000000000000000000000000000000\n        /* \"@openzeppelin/contracts/access/AccessControl.sol\":2714:2761  interfaceId == type(IAccessControl).interfaceId */\n      not(0xffffffffffffffffffffffffffffffffffffffffffffffffffffffff)\n      and\n        /* \"@openzeppelin/contracts/access/AccessControl.sol\":2714:2725  interfaceId */\n      dup3\n        /* \"@openzeppelin/contracts/access/AccessControl.sol\":2714:2761  interfaceId == type(IAccessControl).interfaceId */\n      not(0xffffffffffffffffffffffffffffffffffffffffffffffffffffffff)\n      and\n      eq\n        /* \"@openzeppelin/contracts/access/AccessControl.sol\":2714:2801  interfaceId == type(IAccessControl).interfaceId || super.supportsInterface(interfaceId) */\n      dup1\n      tag_113\n      jumpi\n      pop\n        /* \"@openzeppelin/contracts/access/AccessControl.sol\":2765:2801  super.supportsInterface(interfaceId) */\n      tag_114\n        /* \"@openzeppelin/contracts/access/AccessControl.sol\":2789:2800  interfaceId */\n      dup3\n        /* \"@openzeppelin/contracts/access/AccessControl.sol\":2765:2788  super.supportsInterface */\n      tag_115\n        /* \"@openzeppelin/contracts/access/AccessControl.sol\":2765:2801  super.supportsInterface(interfaceId) */\n      jump\t// in\n    tag_114:\n        /* \"@openzeppelin/contracts/access/AccessControl.sol\":2714:2801  interfaceId == type(IAccessControl).interfaceId || super.supportsInterface(interfaceId) */\n    tag_113:\n        /* \"@openzeppelin/contracts/access/AccessControl.sol\":2707:2801  return interfaceId == type(IAccessControl).interfaceId || super.supportsInterface(interfaceId) */\n      swap1\n      pop\n        /* \"@openzeppelin/contracts/access/AccessControl.sol\":2606:2808  function supportsInterface(bytes4 interfaceId) public view virtual override returns (bool) {... */\n      swap2\n      swap1\n      pop\n      jump\t// out\n        /* \"@openzeppelin/contracts/access/AccessControl.sol\":4391:4520  function getRoleAdmin(bytes32 role) public view virtual override returns (bytes32) {... */\n    tag_36:\n        /* \"@openzeppelin/contracts/access/AccessControl.sol\":4465:4472  bytes32 */\n      0x00\n        /* \"@openzeppelin/contracts/access/AccessControl.sol\":4491:4497  _roles */\n      0x01\n        /* \"@openzeppelin/contracts/access/AccessControl.sol\":4491:4503  _roles[role] */\n      0x00\n        /* \"@openzeppelin/contracts/access/AccessControl.sol\":4498:4502  role */\n      dup4\n        /* \"@openzeppelin/contracts/access/AccessControl.sol\":4491:4503  _roles[role] */\n      dup2\n      mstore\n      0x20\n      add\n      swap1\n      dup2\n      mstore\n      0x20\n      add\n      0x00\n      keccak256\n        /* \"@openzeppelin/contracts/access/AccessControl.sol\":4491:4513  _roles[role].adminRole */\n      0x01\n      add\n      sload\n        /* \"@openzeppelin/contracts/access/AccessControl.sol\":4484:4513  return _roles[role].adminRole */\n      swap1\n      pop\n        /* \"@openzeppelin/contracts/access/AccessControl.sol\":4391:4520  function getRoleAdmin(bytes32 role) public view virtual override returns (bytes32) {... */\n      swap2\n      swap1\n      pop\n      jump\t// out\n        /* \"contracts/Vote.sol\":1102:1149  mapping(uint256 => candidate) public Candidates */\n    tag_42:\n      mstore(0x20, 0x07)\n      dup1\n      0x00\n      mstore\n      keccak256(0x00, 0x40)\n      0x00\n      swap2\n      pop\n      swap1\n      pop\n      dup1\n      0x00\n      add\n      dup1\n      sload\n      tag_117\n      swap1\n      tag_118\n      jump\t// in\n    tag_117:\n      dup1\n      0x1f\n      add\n      0x20\n      dup1\n      swap2\n      div\n      mul\n      0x20\n      add\n      mload(0x40)\n      swap1\n      dup2\n      add\n      0x40\n      mstore\n      dup1\n      swap3\n      swap2\n      swap1\n      dup2\n      dup2\n      mstore\n      0x20\n      add\n      dup3\n      dup1\n      sload\n      tag_119\n      swap1\n      tag_118\n      jump\t// in\n    tag_119:\n      dup1\n      iszero\n      tag_120\n      jumpi\n      dup1\n      0x1f\n      lt\n      tag_121\n      jumpi\n      0x0100\n      dup1\n      dup4\n      sload\n      div\n      mul\n      dup4\n      mstore\n      swap2\n      0x20\n      add\n      swap2\n      jump(tag_120)\n    tag_121:\n      dup3\n      add\n      swap2\n      swap1\n      0x00\n      mstore\n      keccak256(0x00, 0x20)\n      swap1\n    tag_122:\n      dup2\n      sload\n      dup2\n      mstore\n      swap1\n      0x01\n      add\n      swap1\n      0x20\n      add\n      dup1\n      dup4\n      gt\n      tag_122\n      jumpi\n      dup3\n      swap1\n      sub\n      0x1f\n      and\n      dup3\n      add\n      swap2\n    tag_120:\n      pop\n      pop\n      pop\n      pop\n      pop\n      swap1\n      dup1\n      0x01\n      add\n      0x00\n      swap1\n      sload\n      swap1\n      0x0100\n      exp\n      swap1\n      div\n      0xffffffffffffffffffffffffffffffffffffffff\n      and\n      swap1\n      dup1\n      0x02\n      add\n      dup1\n      sload\n      tag_123\n      swap1\n      tag_118\n      jump\t// in\n    tag_123:\n      dup1\n      0x1f\n      add\n      0x20\n      dup1\n      swap2\n      div\n      mul\n      0x20\n      add\n      mload(0x40)\n      swap1\n      dup2\n      add\n      0x40\n      mstore\n      dup1\n      swap3\n      swap2\n      swap1\n      dup2\n      dup2\n      mstore\n      0x20\n      add\n      dup3\n      dup1\n      sload\n      tag_124\n      swap1\n      tag_118\n      jump\t// in\n    tag_124:\n      dup1\n      iszero\n      tag_125\n      jumpi\n      dup1\n      0x1f\n      lt\n      tag_126\n      jumpi\n      0x0100\n      dup1\n      dup4\n      sload\n      div\n      mul\n      dup4\n      mstore\n      swap2\n      0x20\n      add\n      swap2\n      jump(tag_125)\n    tag_126:\n      dup3\n      add\n      swap2\n      swap1\n      0x00\n      mstore\n      keccak256(0x00, 0x20)\n      swap1\n    tag_127:\n      dup2\n      sload\n      dup2\n      mstore\n      swap1\n      0x01\n      add\n      swap1\n      0x20\n      add\n      dup1\n      dup4\n      gt\n      tag_127\n      jumpi\n      dup3\n      swap1\n      sub\n      0x1f\n      and\n      dup3\n      add\n      swap2\n    tag_125:\n      pop\n      pop\n      pop\n      pop\n      pop\n      swap1\n      pop\n      dup4\n      jump\t// out\n        /* \"contracts/Vote.sol\":517:580  bytes32 public constant INEC_EXEC_ROLE = keccak256(\"INEC_EXEC\") */\n    tag_46:\n        /* \"contracts/Vote.sol\":558:580  keccak256(\"INEC_EXEC\") */\n      0x082f6ed76e0352438e6a6e35c77719c3f04bf277fdc8fec7e5ff5f65e001d902\n        /* \"contracts/Vote.sol\":517:580  bytes32 public constant INEC_EXEC_ROLE = keccak256(\"INEC_EXEC\") */\n      dup2\n      jump\t// out\n        /* \"@openzeppelin/contracts/access/AccessControl.sol\":4816:4961  function grantRole(bytes32 role, address account) public virtual override onlyRole(getRoleAdmin(role)) {... */\n    tag_51:\n        /* \"@openzeppelin/contracts/access/AccessControl.sol\":4899:4917  getRoleAdmin(role) */\n      tag_128\n        /* \"@openzeppelin/contracts/access/AccessControl.sol\":4912:4916  role */\n      dup3\n        /* \"@openzeppelin/contracts/access/AccessControl.sol\":4899:4911  getRoleAdmin */\n      tag_36\n        /* \"@openzeppelin/contracts/access/AccessControl.sol\":4899:4917  getRoleAdmin(role) */\n      jump\t// in\n    tag_128:\n        /* \"@openzeppelin/contracts/access/AccessControl.sol\":2505:2521  _checkRole(role) */\n      tag_130\n        /* \"@openzeppelin/contracts/access/AccessControl.sol\":2516:2520  role */\n      dup2\n        /* \"@openzeppelin/contracts/access/AccessControl.sol\":2505:2515  _checkRole */\n      tag_131\n        /* \"@openzeppelin/contracts/access/AccessControl.sol\":2505:2521  _checkRole(role) */\n      jump\t// in\n    tag_130:\n        /* \"@openzeppelin/contracts/access/AccessControl.sol\":4929:4954  _grantRole(role, account) */\n      tag_133\n        /* \"@openzeppelin/contracts/access/AccessControl.sol\":4940:4944  role */\n      dup4\n        /* \"@openzeppelin/contracts/access/AccessControl.sol\":4946:4953  account */\n      dup4\n        /* \"@openzeppelin/contracts/access/AccessControl.sol\":4929:4939  _grantRole */\n      tag_134\n        /* \"@openzeppelin/contracts/access/AccessControl.sol\":4929:4954  _grantRole(role, account) */\n      jump\t// in\n    tag_133:\n        /* \"@openzeppelin/contracts/access/AccessControl.sol\":4816:4961  function grantRole(bytes32 role, address account) public virtual override onlyRole(getRoleAdmin(role)) {... */\n      pop\n      pop\n      pop\n      jump\t// out\n        /* \"contracts/Vote.sol\":457:510  string [] public party = [\"APC\", \"PDP\", \"LP\", \"NNPP\"] */\n    tag_54:\n      0x06\n      dup2\n      dup2\n      sload\n      dup2\n      lt\n      tag_135\n      jumpi\n      0x00\n      dup1\n      revert\n    tag_135:\n      swap1\n      0x00\n      mstore\n      keccak256(0x00, 0x20)\n      add\n      0x00\n      swap2\n      pop\n      swap1\n      pop\n      dup1\n      sload\n      tag_137\n      swap1\n      tag_118\n      jump\t// in\n    tag_137:\n      dup1\n      0x1f\n      add\n      0x20\n      dup1\n      swap2\n      div\n      mul\n      0x20\n      add\n      mload(0x40)\n      swap1\n      dup2\n      add\n      0x40\n      mstore\n      dup1\n      swap3\n      swap2\n      swap1\n      dup2\n      dup2\n      mstore\n      0x20\n      add\n      dup3\n      dup1\n      sload\n      tag_138\n      swap1\n      tag_118\n      jump\t// in\n    tag_138:\n      dup1\n      iszero\n      tag_139\n      jumpi\n      dup1\n      0x1f\n      lt\n      tag_140\n      jumpi\n      0x0100\n      dup1\n      dup4\n      sload\n      div\n      mul\n      dup4\n      mstore\n      swap2\n      0x20\n      add\n      swap2\n      jump(tag_139)\n    tag_140:\n      dup3\n      add\n      swap2\n      swap1\n      0x00\n      mstore\n      keccak256(0x00, 0x20)\n      swap1\n    tag_141:\n      dup2\n      sload\n      dup2\n      mstore\n      swap1\n      0x01\n      add\n      swap1\n      0x20\n      add\n      dup1\n      dup4\n      gt\n      tag_141\n      jumpi\n      dup3\n      swap1\n      sub\n      0x1f\n      and\n      dup3\n      add\n      swap2\n    tag_139:\n      pop\n      pop\n      pop\n      pop\n      pop\n      dup2\n      jump\t// out\n        /* \"@openzeppelin/contracts/access/AccessControl.sol\":5925:6139  function renounceRole(bytes32 role, address account) public virtual override {... */\n    tag_59:\n        /* \"@openzeppelin/contracts/access/AccessControl.sol\":6031:6043  _msgSender() */\n      tag_143\n        /* \"@openzeppelin/contracts/access/AccessControl.sol\":6031:6041  _msgSender */\n      tag_144\n        /* \"@openzeppelin/contracts/access/AccessControl.sol\":6031:6043  _msgSender() */\n      jump\t// in\n    tag_143:\n        /* \"@openzeppelin/contracts/access/AccessControl.sol\":6020:6043  account == _msgSender() */\n      0xffffffffffffffffffffffffffffffffffffffff\n      and\n        /* \"@openzeppelin/contracts/access/AccessControl.sol\":6020:6027  account */\n      dup2\n        /* \"@openzeppelin/contracts/access/AccessControl.sol\":6020:6043  account == _msgSender() */\n      0xffffffffffffffffffffffffffffffffffffffff\n      and\n      eq\n        /* \"@openzeppelin/contracts/access/AccessControl.sol\":6012:6095  require(account == _msgSender(), \"AccessControl: can only renounce roles for self\") */\n      tag_145\n      jumpi\n      mload(0x40)\n      0x08c379a000000000000000000000000000000000000000000000000000000000\n      dup2\n      mstore\n      0x04\n      add\n      tag_146\n      swap1\n      tag_147\n      jump\t// in\n    tag_146:\n      mload(0x40)\n      dup1\n      swap2\n      sub\n      swap1\n      revert\n    tag_145:\n        /* \"@openzeppelin/contracts/access/AccessControl.sol\":6106:6132  _revokeRole(role, account) */\n      tag_148\n        /* \"@openzeppelin/contracts/access/AccessControl.sol\":6118:6122  role */\n      dup3\n        /* \"@openzeppelin/contracts/access/AccessControl.sol\":6124:6131  account */\n      dup3\n        /* \"@openzeppelin/contracts/access/AccessControl.sol\":6106:6117  _revokeRole */\n      tag_149\n        /* \"@openzeppelin/contracts/access/AccessControl.sol\":6106:6132  _revokeRole(role, account) */\n      jump\t// in\n    tag_148:\n        /* \"@openzeppelin/contracts/access/AccessControl.sol\":5925:6139  function renounceRole(bytes32 role, address account) public virtual override {... */\n      pop\n      pop\n      jump\t// out\n        /* \"contracts/Vote.sol\":2955:3324  function createElection(address[] memory _candidateNum, uint256 _date, uint256 _duration) public isInecExec {... */\n    tag_63:\n        /* \"contracts/Vote.sol\":1520:1555  hasRole(INEC_EXEC_ROLE, msg.sender) */\n      tag_151\n        /* \"contracts/Vote.sol\":558:580  keccak256(\"INEC_EXEC\") */\n      0x082f6ed76e0352438e6a6e35c77719c3f04bf277fdc8fec7e5ff5f65e001d902\n        /* \"contracts/Vote.sol\":1544:1554  msg.sender */\n      caller\n        /* \"contracts/Vote.sol\":1520:1527  hasRole */\n      tag_72\n        /* \"contracts/Vote.sol\":1520:1555  hasRole(INEC_EXEC_ROLE, msg.sender) */\n      jump\t// in\n    tag_151:\n        /* \"contracts/Vote.sol\":1512:1591  require(hasRole(INEC_EXEC_ROLE, msg.sender), \"Caller is not an INEC executive\") */\n      tag_152\n      jumpi\n      mload(0x40)\n      0x08c379a000000000000000000000000000000000000000000000000000000000\n      dup2\n      mstore\n      0x04\n      add\n      tag_153\n      swap1\n      tag_154\n      jump\t// in\n    tag_153:\n      mload(0x40)\n      dup1\n      swap2\n      sub\n      swap1\n      revert\n    tag_152:\n        /* \"contracts/Vote.sol\":3103:3108  _date */\n      dup2\n        /* \"contracts/Vote.sol\":3072:3081  Elections */\n      0x09\n        /* \"contracts/Vote.sol\":3072:3094  Elections[electionNum] */\n      0x00\n        /* \"contracts/Vote.sol\":3082:3093  electionNum */\n      sload(0x05)\n        /* \"contracts/Vote.sol\":3072:3094  Elections[electionNum] */\n      dup2\n      mstore\n      0x20\n      add\n      swap1\n      dup2\n      mstore\n      0x20\n      add\n      0x00\n      keccak256\n        /* \"contracts/Vote.sol\":3072:3100  Elections[electionNum].start */\n      0x02\n      add\n        /* \"contracts/Vote.sol\":3072:3108  Elections[electionNum].start = _date */\n      dup2\n      swap1\n      sstore\n      pop\n        /* \"contracts/Vote.sol\":3151:3160  _duration */\n      dup1\n        /* \"contracts/Vote.sol\":3117:3126  Elections */\n      0x09\n        /* \"contracts/Vote.sol\":3117:3139  Elections[electionNum] */\n      0x00\n        /* \"contracts/Vote.sol\":3127:3138  electionNum */\n      sload(0x05)\n        /* \"contracts/Vote.sol\":3117:3139  Elections[electionNum] */\n      dup2\n      mstore\n      0x20\n      add\n      swap1\n      dup2\n      mstore\n      0x20\n      add\n      0x00\n      keccak256\n        /* \"contracts/Vote.sol\":3117:3148  Elections[electionNum].duration */\n      0x03\n      add\n        /* \"contracts/Vote.sol\":3117:3160  Elections[electionNum].duration = _duration */\n      dup2\n      swap1\n      sstore\n      pop\n        /* \"contracts/Vote.sol\":3174:3180  uint i */\n      0x00\n        /* \"contracts/Vote.sol\":3170:3294  for(uint i = 0; i < _candidateNum.length; i++){... */\n    tag_156:\n        /* \"contracts/Vote.sol\":3190:3203  _candidateNum */\n      dup4\n        /* \"contracts/Vote.sol\":3190:3210  _candidateNum.length */\n      mload\n        /* \"contracts/Vote.sol\":3186:3187  i */\n      dup2\n        /* \"contracts/Vote.sol\":3186:3210  i < _candidateNum.length */\n      lt\n        /* \"contracts/Vote.sol\":3170:3294  for(uint i = 0; i < _candidateNum.length; i++){... */\n      iszero\n      tag_157\n      jumpi\n        /* \"contracts/Vote.sol\":3229:3238  Elections */\n      0x09\n        /* \"contracts/Vote.sol\":3229:3251  Elections[electionNum] */\n      0x00\n        /* \"contracts/Vote.sol\":3239:3250  electionNum */\n      sload(0x05)\n        /* \"contracts/Vote.sol\":3229:3251  Elections[electionNum] */\n      dup2\n      mstore\n      0x20\n      add\n      swap1\n      dup2\n      mstore\n      0x20\n      add\n      0x00\n      keccak256\n        /* \"contracts/Vote.sol\":3229:3261  Elections[electionNum].candidate */\n      0x00\n      add\n        /* \"contracts/Vote.sol\":3267:3280  _candidateNum */\n      dup5\n        /* \"contracts/Vote.sol\":3281:3282  i */\n      dup3\n        /* \"contracts/Vote.sol\":3267:3283  _candidateNum[i] */\n      dup2\n      mload\n      dup2\n      lt\n      tag_159\n      jumpi\n      tag_160\n      tag_161\n      jump\t// in\n    tag_160:\n    tag_159:\n      0x20\n      mul\n      0x20\n      add\n      add\n      mload\n        /* \"contracts/Vote.sol\":3229:3284  Elections[electionNum].candidate.push(_candidateNum[i]) */\n      swap1\n      dup1\n      0x01\n      dup2\n      sload\n      add\n      dup1\n      dup3\n      sstore\n      dup1\n      swap2\n      pop\n      pop\n      0x01\n      swap1\n      sub\n      swap1\n      0x00\n      mstore\n      keccak256(0x00, 0x20)\n      add\n      0x00\n      swap1\n      swap2\n      swap1\n      swap2\n      swap1\n      swap2\n      0x0100\n      exp\n      dup2\n      sload\n      dup2\n      0xffffffffffffffffffffffffffffffffffffffff\n      mul\n      not\n      and\n      swap1\n      dup4\n      0xffffffffffffffffffffffffffffffffffffffff\n      and\n      mul\n      or\n      swap1\n      sstore\n      pop\n        /* \"contracts/Vote.sol\":3212:3215  i++ */\n      dup1\n      dup1\n      tag_163\n      swap1\n      tag_164\n      jump\t// in\n    tag_163:\n      swap2\n      pop\n      pop\n        /* \"contracts/Vote.sol\":3170:3294  for(uint i = 0; i < _candidateNum.length; i++){... */\n      jump(tag_156)\n    tag_157:\n      pop\n        /* \"contracts/Vote.sol\":3303:3314  electionNum */\n      0x05\n      0x00\n        /* \"contracts/Vote.sol\":3303:3317  electionNum ++ */\n      dup2\n      sload\n      dup1\n      swap3\n      swap2\n      swap1\n      tag_165\n      swap1\n      tag_164\n      jump\t// in\n    tag_165:\n      swap2\n      swap1\n      pop\n      sstore\n      pop\n        /* \"contracts/Vote.sol\":2955:3324  function createElection(address[] memory _candidateNum, uint256 _date, uint256 _duration) public isInecExec {... */\n      pop\n      pop\n      pop\n      jump\t// out\n        /* \"@openzeppelin/contracts/access/Ownable.sol\":1831:1932  function renounceOwnership() public virtual onlyOwner {... */\n    tag_65:\n        /* \"@openzeppelin/contracts/access/Ownable.sol\":1094:1107  _checkOwner() */\n      tag_167\n        /* \"@openzeppelin/contracts/access/Ownable.sol\":1094:1105  _checkOwner */\n      tag_168\n        /* \"@openzeppelin/contracts/access/Ownable.sol\":1094:1107  _checkOwner() */\n      jump\t// in\n    tag_167:\n        /* \"@openzeppelin/contracts/access/Ownable.sol\":1895:1925  _transferOwnership(address(0)) */\n      tag_170\n        /* \"@openzeppelin/contracts/access/Ownable.sol\":1922:1923  0 */\n      0x00\n        /* \"@openzeppelin/contracts/access/Ownable.sol\":1895:1913  _transferOwnership */\n      tag_171\n        /* \"@openzeppelin/contracts/access/Ownable.sol\":1895:1925  _transferOwnership(address(0)) */\n      jump\t// in\n    tag_170:\n        /* \"@openzeppelin/contracts/access/Ownable.sol\":1831:1932  function renounceOwnership() public virtual onlyOwner {... */\n      jump\t// out\n        /* \"@openzeppelin/contracts/access/Ownable.sol\":1201:1286  function owner() public view virtual returns (address) {... */\n    tag_67:\n        /* \"@openzeppelin/contracts/access/Ownable.sol\":1247:1254  address */\n      0x00\n        /* \"@openzeppelin/contracts/access/Ownable.sol\":1273:1279  _owner */\n      dup1\n      0x00\n      swap1\n      sload\n      swap1\n      0x0100\n      exp\n      swap1\n      div\n      0xffffffffffffffffffffffffffffffffffffffff\n      and\n        /* \"@openzeppelin/contracts/access/Ownable.sol\":1266:1279  return _owner */\n      swap1\n      pop\n        /* \"@openzeppelin/contracts/access/Ownable.sol\":1201:1286  function owner() public view virtual returns (address) {... */\n      swap1\n      jump\t// out\n        /* \"@openzeppelin/contracts/access/AccessControl.sol\":2895:3040  function hasRole(bytes32 role, address account) public view virtual override returns (bool) {... */\n    tag_72:\n        /* \"@openzeppelin/contracts/access/AccessControl.sol\":2981:2985  bool */\n      0x00\n        /* \"@openzeppelin/contracts/access/AccessControl.sol\":3004:3010  _roles */\n      0x01\n        /* \"@openzeppelin/contracts/access/AccessControl.sol\":3004:3016  _roles[role] */\n      0x00\n        /* \"@openzeppelin/contracts/access/AccessControl.sol\":3011:3015  role */\n      dup5\n        /* \"@openzeppelin/contracts/access/AccessControl.sol\":3004:3016  _roles[role] */\n      dup2\n      mstore\n      0x20\n      add\n      swap1\n      dup2\n      mstore\n      0x20\n      add\n      0x00\n      keccak256\n        /* \"@openzeppelin/contracts/access/AccessControl.sol\":3004:3024  _roles[role].members */\n      0x00\n      add\n        /* \"@openzeppelin/contracts/access/AccessControl.sol\":3004:3033  _roles[role].members[account] */\n      0x00\n        /* \"@openzeppelin/contracts/access/AccessControl.sol\":3025:3032  account */\n      dup4\n        /* \"@openzeppelin/contracts/access/AccessControl.sol\":3004:3033  _roles[role].members[account] */\n      0xffffffffffffffffffffffffffffffffffffffff\n      and\n      0xffffffffffffffffffffffffffffffffffffffff\n      and\n      dup2\n      mstore\n      0x20\n      add\n      swap1\n      dup2\n      mstore\n      0x20\n      add\n      0x00\n      keccak256\n      0x00\n      swap1\n      sload\n      swap1\n      0x0100\n      exp\n      swap1\n      div\n      0xff\n      and\n        /* \"@openzeppelin/contracts/access/AccessControl.sol\":2997:3033  return _roles[role].members[account] */\n      swap1\n      pop\n        /* \"@openzeppelin/contracts/access/AccessControl.sol\":2895:3040  function hasRole(bytes32 role, address account) public view virtual override returns (bool) {... */\n      swap3\n      swap2\n      pop\n      pop\n      jump\t// out\n        /* \"contracts/Vote.sol\":1224:1263  mapping(uint256 => voter) public Voters */\n    tag_76:\n      mstore(0x20, 0x08)\n      dup1\n      0x00\n      mstore\n      keccak256(0x00, 0x40)\n      0x00\n      swap2\n      pop\n      swap1\n      pop\n      dup1\n      0x00\n      add\n      0x00\n      swap1\n      sload\n      swap1\n      0x0100\n      exp\n      swap1\n      div\n      0xffffffffffffffffffffffffffffffffffffffff\n      and\n      swap1\n      dup1\n      0x01\n      add\n      sload\n      swap1\n      dup1\n      0x02\n      add\n      sload\n      swap1\n      dup1\n      0x03\n      add\n      0x00\n      swap1\n      sload\n      swap1\n      0x0100\n      exp\n      swap1\n      div\n      0xff\n      and\n      swap1\n      pop\n      dup5\n      jump\t// out\n        /* \"contracts/Vote.sol\":3604:3713  function getElection(uint256 num) public view returns (election memory){... */\n    tag_81:\n        /* \"contracts/Vote.sol\":3659:3674  election memory */\n      tag_174\n      tag_175\n      jump\t// in\n    tag_174:\n        /* \"contracts/Vote.sol\":3692:3701  Elections */\n      0x09\n        /* \"contracts/Vote.sol\":3692:3706  Elections[num] */\n      0x00\n        /* \"contracts/Vote.sol\":3702:3705  num */\n      dup4\n        /* \"contracts/Vote.sol\":3692:3706  Elections[num] */\n      dup2\n      mstore\n      0x20\n      add\n      swap1\n      dup2\n      mstore\n      0x20\n      add\n      0x00\n      keccak256\n        /* \"contracts/Vote.sol\":3685:3706  return Elections[num] */\n      mload(0x40)\n      dup1\n      0xa0\n      add\n      0x40\n      mstore\n      swap1\n      dup2\n      0x00\n      dup3\n      add\n      dup1\n      sload\n      dup1\n      0x20\n      mul\n      0x20\n      add\n      mload(0x40)\n      swap1\n      dup2\n      add\n      0x40\n      mstore\n      dup1\n      swap3\n      swap2\n      swap1\n      dup2\n      dup2\n      mstore\n      0x20\n      add\n      dup3\n      dup1\n      sload\n      dup1\n      iszero\n      tag_177\n      jumpi\n      0x20\n      mul\n      dup3\n      add\n      swap2\n      swap1\n      0x00\n      mstore\n      keccak256(0x00, 0x20)\n      swap1\n    tag_178:\n      dup2\n      0x00\n      swap1\n      sload\n      swap1\n      0x0100\n      exp\n      swap1\n      div\n      0xffffffffffffffffffffffffffffffffffffffff\n      and\n      0xffffffffffffffffffffffffffffffffffffffff\n      and\n      dup2\n      mstore\n      0x20\n      add\n      swap1\n      0x01\n      add\n      swap1\n      dup1\n      dup4\n      gt\n      tag_178\n      jumpi\n    tag_177:\n      pop\n      pop\n      pop\n      pop\n      pop\n      dup2\n      mstore\n      0x20\n      add\n      0x01\n      dup3\n      add\n      dup1\n      sload\n      dup1\n      0x20\n      mul\n      0x20\n      add\n      mload(0x40)\n      swap1\n      dup2\n      add\n      0x40\n      mstore\n      dup1\n      swap3\n      swap2\n      swap1\n      dup2\n      dup2\n      mstore\n      0x20\n      add\n      dup3\n      dup1\n      sload\n      dup1\n      iszero\n      tag_179\n      jumpi\n      0x20\n      mul\n      dup3\n      add\n      swap2\n      swap1\n      0x00\n      mstore\n      keccak256(0x00, 0x20)\n      swap1\n    tag_180:\n      dup2\n      sload\n      dup2\n      mstore\n      0x20\n      add\n      swap1\n      0x01\n      add\n      swap1\n      dup1\n      dup4\n      gt\n      tag_180\n      jumpi\n    tag_179:\n      pop\n      pop\n      pop\n      pop\n      pop\n      dup2\n      mstore\n      0x20\n      add\n      0x02\n      dup3\n      add\n      sload\n      dup2\n      mstore\n      0x20\n      add\n      0x03\n      dup3\n      add\n      sload\n      dup2\n      mstore\n      0x20\n      add\n      0x04\n      dup3\n      add\n      0x00\n      swap1\n      sload\n      swap1\n      0x0100\n      exp\n      swap1\n      div\n      0xff\n      and\n      iszero\n      iszero\n      iszero\n      iszero\n      dup2\n      mstore\n      pop\n      pop\n      swap1\n      pop\n        /* \"contracts/Vote.sol\":3604:3713  function getElection(uint256 num) public view returns (election memory){... */\n      swap2\n      swap1\n      pop\n      jump\t// out\n        /* \"contracts/Vote.sol\":3406:3523  function retrieveCandidate(uint256 num) public view returns (candidate memory){... */\n    tag_86:\n        /* \"contracts/Vote.sol\":3467:3483  candidate memory */\n      tag_181\n      tag_182\n      jump\t// in\n    tag_181:\n        /* \"contracts/Vote.sol\":3501:3511  Candidates */\n      0x07\n        /* \"contracts/Vote.sol\":3501:3516  Candidates[num] */\n      0x00\n        /* \"contracts/Vote.sol\":3512:3515  num */\n      dup4\n        /* \"contracts/Vote.sol\":3501:3516  Candidates[num] */\n      dup2\n      mstore\n      0x20\n      add\n      swap1\n      dup2\n      mstore\n      0x20\n      add\n      0x00\n      keccak256\n        /* \"contracts/Vote.sol\":3494:3516  return Candidates[num] */\n      mload(0x40)\n      dup1\n      0x60\n      add\n      0x40\n      mstore\n      swap1\n      dup2\n      0x00\n      dup3\n      add\n      dup1\n      sload\n      tag_184\n      swap1\n      tag_118\n      jump\t// in\n    tag_184:\n      dup1\n      0x1f\n      add\n      0x20\n      dup1\n      swap2\n      div\n      mul\n      0x20\n      add\n      mload(0x40)\n      swap1\n      dup2\n      add\n      0x40\n      mstore\n      dup1\n      swap3\n      swap2\n      swap1\n      dup2\n      dup2\n      mstore\n      0x20\n      add\n      dup3\n      dup1\n      sload\n      tag_185\n      swap1\n      tag_118\n      jump\t// in\n    tag_185:\n      dup1\n      iszero\n      tag_186\n      jumpi\n      dup1\n      0x1f\n      lt\n      tag_187\n      jumpi\n      0x0100\n      dup1\n      dup4\n      sload\n      div\n      mul\n      dup4\n      mstore\n      swap2\n      0x20\n      add\n      swap2\n      jump(tag_186)\n    tag_187:\n      dup3\n      add\n      swap2\n      swap1\n      0x00\n      mstore\n      keccak256(0x00, 0x20)\n      swap1\n    tag_188:\n      dup2\n      sload\n      dup2\n      mstore\n      swap1\n      0x01\n      add\n      swap1\n      0x20\n      add\n      dup1\n      dup4\n      gt\n      tag_188\n      jumpi\n      dup3\n      swap1\n      sub\n      0x1f\n      and\n      dup3\n      add\n      swap2\n    tag_186:\n      pop\n      pop\n      pop\n      pop\n      pop\n      dup2\n      mstore\n      0x20\n      add\n      0x01\n      dup3\n      add\n      0x00\n      swap1\n      sload\n      swap1\n      0x0100\n      exp\n      swap1\n      div\n      0xffffffffffffffffffffffffffffffffffffffff\n      and\n      0xffffffffffffffffffffffffffffffffffffffff\n      and\n      0xffffffffffffffffffffffffffffffffffffffff\n      and\n      dup2\n      mstore\n      0x20\n      add\n      0x02\n      dup3\n      add\n      dup1\n      sload\n      tag_189\n      swap1\n      tag_118\n      jump\t// in\n    tag_189:\n      dup1\n      0x1f\n      add\n      0x20\n      dup1\n      swap2\n      div\n      mul\n      0x20\n      add\n      mload(0x40)\n      swap1\n      dup2\n      add\n      0x40\n      mstore\n      dup1\n      swap3\n      swap2\n      swap1\n      dup2\n      dup2\n      mstore\n      0x20\n      add\n      dup3\n      dup1\n      sload\n      tag_190\n      swap1\n      tag_118\n      jump\t// in\n    tag_190:\n      dup1\n      iszero\n      tag_191\n      jumpi\n      dup1\n      0x1f\n      lt\n      tag_192\n      jumpi\n      0x0100\n      dup1\n      dup4\n      sload\n      div\n      mul\n      dup4\n      mstore\n      swap2\n      0x20\n      add\n      swap2\n      jump(tag_191)\n    tag_192:\n      dup3\n      add\n      swap2\n      swap1\n      0x00\n      mstore\n      keccak256(0x00, 0x20)\n      swap1\n    tag_193:\n      dup2\n      sload\n      dup2\n      mstore\n      swap1\n      0x01\n      add\n      swap1\n      0x20\n      add\n      dup1\n      dup4\n      gt\n      tag_193\n      jumpi\n      dup3\n      swap1\n      sub\n      0x1f\n      and\n      dup3\n      add\n      swap2\n    tag_191:\n      pop\n      pop\n      pop\n      pop\n      pop\n      dup2\n      mstore\n      pop\n      pop\n      swap1\n      pop\n        /* \"contracts/Vote.sol\":3406:3523  function retrieveCandidate(uint256 num) public view returns (candidate memory){... */\n      swap2\n      swap1\n      pop\n      jump\t// out\n        /* \"@openzeppelin/contracts/access/AccessControl.sol\":2027:2076  bytes32 public constant DEFAULT_ADMIN_ROLE = 0x00 */\n    tag_90:\n        /* \"@openzeppelin/contracts/access/AccessControl.sol\":2072:2076  0x00 */\n      0x00\n        /* \"@openzeppelin/contracts/access/AccessControl.sol\":2027:2076  bytes32 public constant DEFAULT_ADMIN_ROLE = 0x00 */\n      dup1\n      shl\n      dup2\n      jump\t// out\n        /* \"contracts/Vote.sol\":586:641  bytes32 public constant VOTER_ROLE = keccak256(\"VOTER\") */\n    tag_93:\n        /* \"contracts/Vote.sol\":623:641  keccak256(\"VOTER\") */\n      0x15283fd96aa656c9df35ac2fcb112678a5f24f1ca97e591a97d1d16003dbfc9c\n        /* \"contracts/Vote.sol\":586:641  bytes32 public constant VOTER_ROLE = keccak256(\"VOTER\") */\n      dup2\n      jump\t// out\n        /* \"@openzeppelin/contracts/access/AccessControl.sol\":5241:5388  function revokeRole(bytes32 role, address account) public virtual override onlyRole(getRoleAdmin(role)) {... */\n    tag_97:\n        /* \"@openzeppelin/contracts/access/AccessControl.sol\":5325:5343  getRoleAdmin(role) */\n      tag_194\n        /* \"@openzeppelin/contracts/access/AccessControl.sol\":5338:5342  role */\n      dup3\n        /* \"@openzeppelin/contracts/access/AccessControl.sol\":5325:5337  getRoleAdmin */\n      tag_36\n        /* \"@openzeppelin/contracts/access/AccessControl.sol\":5325:5343  getRoleAdmin(role) */\n      jump\t// in\n    tag_194:\n        /* \"@openzeppelin/contracts/access/AccessControl.sol\":2505:2521  _checkRole(role) */\n      tag_196\n        /* \"@openzeppelin/contracts/access/AccessControl.sol\":2516:2520  role */\n      dup2\n        /* \"@openzeppelin/contracts/access/AccessControl.sol\":2505:2515  _checkRole */\n      tag_131\n        /* \"@openzeppelin/contracts/access/AccessControl.sol\":2505:2521  _checkRole(role) */\n      jump\t// in\n    tag_196:\n        /* \"@openzeppelin/contracts/access/AccessControl.sol\":5355:5381  _revokeRole(role, account) */\n      tag_198\n        /* \"@openzeppelin/contracts/access/AccessControl.sol\":5367:5371  role */\n      dup4\n        /* \"@openzeppelin/contracts/access/AccessControl.sol\":5373:5380  account */\n      dup4\n        /* \"@openzeppelin/contracts/access/AccessControl.sol\":5355:5366  _revokeRole */\n      tag_149\n        /* \"@openzeppelin/contracts/access/AccessControl.sol\":5355:5381  _revokeRole(role, account) */\n      jump\t// in\n    tag_198:\n        /* \"@openzeppelin/contracts/access/AccessControl.sol\":5241:5388  function revokeRole(bytes32 role, address account) public virtual override onlyRole(getRoleAdmin(role)) {... */\n      pop\n      pop\n      pop\n      jump\t// out\n        /* \"contracts/Vote.sol\":2247:2546  function createCandidate(string memory name, address candAddress, uint256 partyNum) public isInecExec {... */\n    tag_101:\n        /* \"contracts/Vote.sol\":1520:1555  hasRole(INEC_EXEC_ROLE, msg.sender) */\n      tag_200\n        /* \"contracts/Vote.sol\":558:580  keccak256(\"INEC_EXEC\") */\n      0x082f6ed76e0352438e6a6e35c77719c3f04bf277fdc8fec7e5ff5f65e001d902\n        /* \"contracts/Vote.sol\":1544:1554  msg.sender */\n      caller\n        /* \"contracts/Vote.sol\":1520:1527  hasRole */\n      tag_72\n        /* \"contracts/Vote.sol\":1520:1555  hasRole(INEC_EXEC_ROLE, msg.sender) */\n      jump\t// in\n    tag_200:\n        /* \"contracts/Vote.sol\":1512:1591  require(hasRole(INEC_EXEC_ROLE, msg.sender), \"Caller is not an INEC executive\") */\n      tag_201\n      jumpi\n      mload(0x40)\n      0x08c379a000000000000000000000000000000000000000000000000000000000\n      dup2\n      mstore\n      0x04\n      add\n      tag_202\n      swap1\n      tag_154\n      jump\t// in\n    tag_202:\n      mload(0x40)\n      dup1\n      swap2\n      sub\n      swap1\n      revert\n    tag_201:\n        /* \"contracts/Vote.sol\":2391:2395  name */\n      dup3\n        /* \"contracts/Vote.sol\":2359:2369  Candidates */\n      0x07\n        /* \"contracts/Vote.sol\":2359:2383  Candidates[candidateNum] */\n      0x00\n        /* \"contracts/Vote.sol\":2370:2382  candidateNum */\n      sload(0x03)\n        /* \"contracts/Vote.sol\":2359:2383  Candidates[candidateNum] */\n      dup2\n      mstore\n      0x20\n      add\n      swap1\n      dup2\n      mstore\n      0x20\n      add\n      0x00\n      keccak256\n        /* \"contracts/Vote.sol\":2359:2388  Candidates[candidateNum].name */\n      0x00\n      add\n        /* \"contracts/Vote.sol\":2359:2395  Candidates[candidateNum].name = name */\n      swap1\n      dup1\n      mload\n      swap1\n      0x20\n      add\n      swap1\n      tag_204\n      swap3\n      swap2\n      swap1\n      tag_205\n      jump\t// in\n    tag_204:\n      pop\n        /* \"contracts/Vote.sol\":2437:2448  candAddress */\n      dup2\n        /* \"contracts/Vote.sol\":2405:2415  Candidates */\n      0x07\n        /* \"contracts/Vote.sol\":2405:2429  Candidates[candidateNum] */\n      0x00\n        /* \"contracts/Vote.sol\":2416:2428  candidateNum */\n      sload(0x03)\n        /* \"contracts/Vote.sol\":2405:2429  Candidates[candidateNum] */\n      dup2\n      mstore\n      0x20\n      add\n      swap1\n      dup2\n      mstore\n      0x20\n      add\n      0x00\n      keccak256\n        /* \"contracts/Vote.sol\":2405:2434  Candidates[candidateNum].addr */\n      0x01\n      add\n      0x00\n        /* \"contracts/Vote.sol\":2405:2448  Candidates[candidateNum].addr = candAddress */\n      0x0100\n      exp\n      dup2\n      sload\n      dup2\n      0xffffffffffffffffffffffffffffffffffffffff\n      mul\n      not\n      and\n      swap1\n      dup4\n      0xffffffffffffffffffffffffffffffffffffffff\n      and\n      mul\n      or\n      swap1\n      sstore\n      pop\n        /* \"contracts/Vote.sol\":2491:2496  party */\n      0x06\n        /* \"contracts/Vote.sol\":2497:2505  partyNum */\n      dup2\n        /* \"contracts/Vote.sol\":2491:2506  party[partyNum] */\n      dup2\n      sload\n      dup2\n      lt\n      tag_206\n      jumpi\n      tag_207\n      tag_161\n      jump\t// in\n    tag_207:\n    tag_206:\n      swap1\n      0x00\n      mstore\n      keccak256(0x00, 0x20)\n      add\n        /* \"contracts/Vote.sol\":2458:2468  Candidates */\n      0x07\n        /* \"contracts/Vote.sol\":2458:2482  Candidates[candidateNum] */\n      0x00\n        /* \"contracts/Vote.sol\":2469:2481  candidateNum */\n      sload(0x03)\n        /* \"contracts/Vote.sol\":2458:2482  Candidates[candidateNum] */\n      dup2\n      mstore\n      0x20\n      add\n      swap1\n      dup2\n      mstore\n      0x20\n      add\n      0x00\n      keccak256\n        /* \"contracts/Vote.sol\":2458:2488  Candidates[candidateNum].party */\n      0x02\n      add\n        /* \"contracts/Vote.sol\":2458:2506  Candidates[candidateNum].party = party[partyNum] */\n      swap1\n      dup1\n      sload\n      tag_209\n      swap1\n      tag_118\n      jump\t// in\n    tag_209:\n      tag_210\n      swap3\n      swap2\n      swap1\n      tag_211\n      jump\t// in\n    tag_210:\n      pop\n        /* \"contracts/Vote.sol\":2518:2530  candidateNum */\n      0x03\n      0x00\n        /* \"contracts/Vote.sol\":2518:2533  candidateNum ++ */\n      dup2\n      sload\n      dup1\n      swap3\n      swap2\n      swap1\n      tag_212\n      swap1\n      tag_164\n      jump\t// in\n    tag_212:\n      swap2\n      swap1\n      pop\n      sstore\n      pop\n        /* \"contracts/Vote.sol\":2247:2546  function createCandidate(string memory name, address candAddress, uint256 partyNum) public isInecExec {... */\n      pop\n      pop\n      pop\n      jump\t// out\n        /* \"contracts/Vote.sol\":2645:2817  function regVoter(uint256 _nin) public {... */\n    tag_104:\n        /* \"contracts/Vote.sol\":2718:2728  msg.sender */\n      caller\n        /* \"contracts/Vote.sol\":2694:2700  Voters */\n      0x08\n        /* \"contracts/Vote.sol\":2694:2710  Voters[voterNum] */\n      0x00\n        /* \"contracts/Vote.sol\":2701:2709  voterNum */\n      sload(0x04)\n        /* \"contracts/Vote.sol\":2694:2710  Voters[voterNum] */\n      dup2\n      mstore\n      0x20\n      add\n      swap1\n      dup2\n      mstore\n      0x20\n      add\n      0x00\n      keccak256\n        /* \"contracts/Vote.sol\":2694:2715  Voters[voterNum].addr */\n      0x00\n      add\n      0x00\n        /* \"contracts/Vote.sol\":2694:2728  Voters[voterNum].addr = msg.sender */\n      0x0100\n      exp\n      dup2\n      sload\n      dup2\n      0xffffffffffffffffffffffffffffffffffffffff\n      mul\n      not\n      and\n      swap1\n      dup4\n      0xffffffffffffffffffffffffffffffffffffffff\n      and\n      mul\n      or\n      swap1\n      sstore\n      pop\n        /* \"contracts/Vote.sol\":2761:2765  _nin */\n      dup1\n        /* \"contracts/Vote.sol\":2738:2744  Voters */\n      0x08\n        /* \"contracts/Vote.sol\":2738:2754  Voters[voterNum] */\n      0x00\n        /* \"contracts/Vote.sol\":2745:2753  voterNum */\n      sload(0x04)\n        /* \"contracts/Vote.sol\":2738:2754  Voters[voterNum] */\n      dup2\n      mstore\n      0x20\n      add\n      swap1\n      dup2\n      mstore\n      0x20\n      add\n      0x00\n      keccak256\n        /* \"contracts/Vote.sol\":2738:2758  Voters[voterNum].nin */\n      0x01\n      add\n        /* \"contracts/Vote.sol\":2738:2765  Voters[voterNum].nin = _nin */\n      dup2\n      swap1\n      sstore\n      pop\n        /* \"contracts/Vote.sol\":2776:2810  _setupRole(VOTER_ROLE, msg.sender) */\n      tag_214\n        /* \"contracts/Vote.sol\":623:641  keccak256(\"VOTER\") */\n      0x15283fd96aa656c9df35ac2fcb112678a5f24f1ca97e591a97d1d16003dbfc9c\n        /* \"contracts/Vote.sol\":2799:2809  msg.sender */\n      caller\n        /* \"contracts/Vote.sol\":2776:2786  _setupRole */\n      tag_215\n        /* \"contracts/Vote.sol\":2776:2810  _setupRole(VOTER_ROLE, msg.sender) */\n      jump\t// in\n    tag_214:\n        /* \"contracts/Vote.sol\":2645:2817  function regVoter(uint256 _nin) public {... */\n      pop\n      jump\t// out\n        /* \"contracts/Vote.sol\":1927:2037  function createInecExec(address _account) public onlyOwner{... */\n    tag_108:\n        /* \"@openzeppelin/contracts/access/Ownable.sol\":1094:1107  _checkOwner() */\n      tag_217\n        /* \"@openzeppelin/contracts/access/Ownable.sol\":1094:1105  _checkOwner */\n      tag_168\n        /* \"@openzeppelin/contracts/access/Ownable.sol\":1094:1107  _checkOwner() */\n      jump\t// in\n    tag_217:\n        /* \"contracts/Vote.sol\":1995:2030  grantRole(INEC_EXEC_ROLE, _account) */\n      tag_219\n        /* \"contracts/Vote.sol\":558:580  keccak256(\"INEC_EXEC\") */\n      0x082f6ed76e0352438e6a6e35c77719c3f04bf277fdc8fec7e5ff5f65e001d902\n        /* \"contracts/Vote.sol\":2021:2029  _account */\n      dup3\n        /* \"contracts/Vote.sol\":1995:2004  grantRole */\n      tag_51\n        /* \"contracts/Vote.sol\":1995:2030  grantRole(INEC_EXEC_ROLE, _account) */\n      jump\t// in\n    tag_219:\n        /* \"contracts/Vote.sol\":1927:2037  function createInecExec(address _account) public onlyOwner{... */\n      pop\n      jump\t// out\n        /* \"@openzeppelin/contracts/access/Ownable.sol\":2081:2279  function transferOwnership(address newOwner) public virtual onlyOwner {... */\n    tag_111:\n        /* \"@openzeppelin/contracts/access/Ownable.sol\":1094:1107  _checkOwner() */\n      tag_221\n        /* \"@openzeppelin/contracts/access/Ownable.sol\":1094:1105  _checkOwner */\n      tag_168\n        /* \"@openzeppelin/contracts/access/Ownable.sol\":1094:1107  _checkOwner() */\n      jump\t// in\n    tag_221:\n        /* \"@openzeppelin/contracts/access/Ownable.sol\":2189:2190  0 */\n      0x00\n        /* \"@openzeppelin/contracts/access/Ownable.sol\":2169:2191  newOwner != address(0) */\n      0xffffffffffffffffffffffffffffffffffffffff\n      and\n        /* \"@openzeppelin/contracts/access/Ownable.sol\":2169:2177  newOwner */\n      dup2\n        /* \"@openzeppelin/contracts/access/Ownable.sol\":2169:2191  newOwner != address(0) */\n      0xffffffffffffffffffffffffffffffffffffffff\n      and\n      eq\n      iszero\n        /* \"@openzeppelin/contracts/access/Ownable.sol\":2161:2234  require(newOwner != address(0), \"Ownable: new owner is the zero address\") */\n      tag_223\n      jumpi\n      mload(0x40)\n      0x08c379a000000000000000000000000000000000000000000000000000000000\n      dup2\n      mstore\n      0x04\n      add\n      tag_224\n      swap1\n      tag_225\n      jump\t// in\n    tag_224:\n      mload(0x40)\n      dup1\n      swap2\n      sub\n      swap1\n      revert\n    tag_223:\n        /* \"@openzeppelin/contracts/access/Ownable.sol\":2244:2272  _transferOwnership(newOwner) */\n      tag_226\n        /* \"@openzeppelin/contracts/access/Ownable.sol\":2263:2271  newOwner */\n      dup2\n        /* \"@openzeppelin/contracts/access/Ownable.sol\":2244:2262  _transferOwnership */\n      tag_171\n        /* \"@openzeppelin/contracts/access/Ownable.sol\":2244:2272  _transferOwnership(newOwner) */\n      jump\t// in\n    tag_226:\n        /* \"@openzeppelin/contracts/access/Ownable.sol\":2081:2279  function transferOwnership(address newOwner) public virtual onlyOwner {... */\n      pop\n      jump\t// out\n        /* \"@openzeppelin/contracts/utils/introspection/ERC165.sol\":829:984  function supportsInterface(bytes4 interfaceId) public view virtual override returns (bool) {... */\n    tag_115:\n        /* \"@openzeppelin/contracts/utils/introspection/ERC165.sol\":914:918  bool */\n      0x00\n        /* \"@openzeppelin/contracts/utils/introspection/ERC165.sol\":952:977  type(IERC165).interfaceId */\n      0x01ffc9a700000000000000000000000000000000000000000000000000000000\n        /* \"@openzeppelin/contracts/utils/introspection/ERC165.sol\":937:977  interfaceId == type(IERC165).interfaceId */\n      not(0xffffffffffffffffffffffffffffffffffffffffffffffffffffffff)\n      and\n        /* \"@openzeppelin/contracts/utils/introspection/ERC165.sol\":937:948  interfaceId */\n      dup3\n        /* \"@openzeppelin/contracts/utils/introspection/ERC165.sol\":937:977  interfaceId == type(IERC165).interfaceId */\n      not(0xffffffffffffffffffffffffffffffffffffffffffffffffffffffff)\n      and\n      eq\n        /* \"@openzeppelin/contracts/utils/introspection/ERC165.sol\":930:977  return interfaceId == type(IERC165).interfaceId */\n      swap1\n      pop\n        /* \"@openzeppelin/contracts/utils/introspection/ERC165.sol\":829:984  function supportsInterface(bytes4 interfaceId) public view virtual override returns (bool) {... */\n      swap2\n      swap1\n      pop\n      jump\t// out\n        /* \"@openzeppelin/contracts/access/AccessControl.sol\":3334:3437  function _checkRole(bytes32 role) internal view virtual {... */\n    tag_131:\n        /* \"@openzeppelin/contracts/access/AccessControl.sol\":3400:3430  _checkRole(role, _msgSender()) */\n      tag_229\n        /* \"@openzeppelin/contracts/access/AccessControl.sol\":3411:3415  role */\n      dup2\n        /* \"@openzeppelin/contracts/access/AccessControl.sol\":3417:3429  _msgSender() */\n      tag_230\n        /* \"@openzeppelin/contracts/access/AccessControl.sol\":3417:3427  _msgSender */\n      tag_144\n        /* \"@openzeppelin/contracts/access/AccessControl.sol\":3417:3429  _msgSender() */\n      jump\t// in\n    tag_230:\n        /* \"@openzeppelin/contracts/access/AccessControl.sol\":3400:3410  _checkRole */\n      tag_231\n        /* \"@openzeppelin/contracts/access/AccessControl.sol\":3400:3430  _checkRole(role, _msgSender()) */\n      jump\t// in\n    tag_229:\n        /* \"@openzeppelin/contracts/access/AccessControl.sol\":3334:3437  function _checkRole(bytes32 role) internal view virtual {... */\n      pop\n      jump\t// out\n        /* \"@openzeppelin/contracts/access/AccessControl.sol\":7474:7707  function _grantRole(bytes32 role, address account) internal virtual {... */\n    tag_134:\n        /* \"@openzeppelin/contracts/access/AccessControl.sol\":7557:7579  hasRole(role, account) */\n      tag_233\n        /* \"@openzeppelin/contracts/access/AccessControl.sol\":7565:7569  role */\n      dup3\n        /* \"@openzeppelin/contracts/access/AccessControl.sol\":7571:7578  account */\n      dup3\n        /* \"@openzeppelin/contracts/access/AccessControl.sol\":7557:7564  hasRole */\n      tag_72\n        /* \"@openzeppelin/contracts/access/AccessControl.sol\":7557:7579  hasRole(role, account) */\n      jump\t// in\n    tag_233:\n        /* \"@openzeppelin/contracts/access/AccessControl.sol\":7552:7701  if (!hasRole(role, account)) {... */\n      tag_234\n      jumpi\n        /* \"@openzeppelin/contracts/access/AccessControl.sol\":7627:7631  true */\n      0x01\n        /* \"@openzeppelin/contracts/access/AccessControl.sol\":7595:7601  _roles */\n      dup1\n        /* \"@openzeppelin/contracts/access/AccessControl.sol\":7595:7607  _roles[role] */\n      0x00\n        /* \"@openzeppelin/contracts/access/AccessControl.sol\":7602:7606  role */\n      dup5\n        /* \"@openzeppelin/contracts/access/AccessControl.sol\":7595:7607  _roles[role] */\n      dup2\n      mstore\n      0x20\n      add\n      swap1\n      dup2\n      mstore\n      0x20\n      add\n      0x00\n      keccak256\n        /* \"@openzeppelin/contracts/access/AccessControl.sol\":7595:7615  _roles[role].members */\n      0x00\n      add\n        /* \"@openzeppelin/contracts/access/AccessControl.sol\":7595:7624  _roles[role].members[account] */\n      0x00\n        /* \"@openzeppelin/contracts/access/AccessControl.sol\":7616:7623  account */\n      dup4\n        /* \"@openzeppelin/contracts/access/AccessControl.sol\":7595:7624  _roles[role].members[account] */\n      0xffffffffffffffffffffffffffffffffffffffff\n      and\n      0xffffffffffffffffffffffffffffffffffffffff\n      and\n      dup2\n      mstore\n      0x20\n      add\n      swap1\n      dup2\n      mstore\n      0x20\n      add\n      0x00\n      keccak256\n      0x00\n        /* \"@openzeppelin/contracts/access/AccessControl.sol\":7595:7631  _roles[role].members[account] = true */\n      0x0100\n      exp\n      dup2\n      sload\n      dup2\n      0xff\n      mul\n      not\n      and\n      swap1\n      dup4\n      iszero\n      iszero\n      mul\n      or\n      swap1\n      sstore\n      pop\n        /* \"@openzeppelin/contracts/access/AccessControl.sol\":7677:7689  _msgSender() */\n      tag_235\n        /* \"@openzeppelin/contracts/access/AccessControl.sol\":7677:7687  _msgSender */\n      tag_144\n        /* \"@openzeppelin/contracts/access/AccessControl.sol\":7677:7689  _msgSender() */\n      jump\t// in\n    tag_235:\n        /* \"@openzeppelin/contracts/access/AccessControl.sol\":7650:7690  RoleGranted(role, account, _msgSender()) */\n      0xffffffffffffffffffffffffffffffffffffffff\n      and\n        /* \"@openzeppelin/contracts/access/AccessControl.sol\":7668:7675  account */\n      dup2\n        /* \"@openzeppelin/contracts/access/AccessControl.sol\":7650:7690  RoleGranted(role, account, _msgSender()) */\n      0xffffffffffffffffffffffffffffffffffffffff\n      and\n        /* \"@openzeppelin/contracts/access/AccessControl.sol\":7662:7666  role */\n      dup4\n        /* \"@openzeppelin/contracts/access/AccessControl.sol\":7650:7690  RoleGranted(role, account, _msgSender()) */\n      0x2f8788117e7eff1d82e926ec794901d17c78024a50270940304540a733656f0d\n      mload(0x40)\n      mload(0x40)\n      dup1\n      swap2\n      sub\n      swap1\n      log4\n        /* \"@openzeppelin/contracts/access/AccessControl.sol\":7552:7701  if (!hasRole(role, account)) {... */\n    tag_234:\n        /* \"@openzeppelin/contracts/access/AccessControl.sol\":7474:7707  function _grantRole(bytes32 role, address account) internal virtual {... */\n      pop\n      pop\n      jump\t// out\n        /* \"@openzeppelin/contracts/utils/Context.sol\":640:736  function _msgSender() internal view virtual returns (address) {... */\n    tag_144:\n        /* \"@openzeppelin/contracts/utils/Context.sol\":693:700  address */\n      0x00\n        /* \"@openzeppelin/contracts/utils/Context.sol\":719:729  msg.sender */\n      caller\n        /* \"@openzeppelin/contracts/utils/Context.sol\":712:729  return msg.sender */\n      swap1\n      pop\n        /* \"@openzeppelin/contracts/utils/Context.sol\":640:736  function _msgSender() internal view virtual returns (address) {... */\n      swap1\n      jump\t// out\n        /* \"@openzeppelin/contracts/access/AccessControl.sol\":7878:8112  function _revokeRole(bytes32 role, address account) internal virtual {... */\n    tag_149:\n        /* \"@openzeppelin/contracts/access/AccessControl.sol\":7961:7983  hasRole(role, account) */\n      tag_238\n        /* \"@openzeppelin/contracts/access/AccessControl.sol\":7969:7973  role */\n      dup3\n        /* \"@openzeppelin/contracts/access/AccessControl.sol\":7975:7982  account */\n      dup3\n        /* \"@openzeppelin/contracts/access/AccessControl.sol\":7961:7968  hasRole */\n      tag_72\n        /* \"@openzeppelin/contracts/access/AccessControl.sol\":7961:7983  hasRole(role, account) */\n      jump\t// in\n    tag_238:\n        /* \"@openzeppelin/contracts/access/AccessControl.sol\":7957:8106  if (hasRole(role, account)) {... */\n      iszero\n      tag_239\n      jumpi\n        /* \"@openzeppelin/contracts/access/AccessControl.sol\":8031:8036  false */\n      0x00\n        /* \"@openzeppelin/contracts/access/AccessControl.sol\":7999:8005  _roles */\n      0x01\n        /* \"@openzeppelin/contracts/access/AccessControl.sol\":7999:8011  _roles[role] */\n      0x00\n        /* \"@openzeppelin/contracts/access/AccessControl.sol\":8006:8010  role */\n      dup5\n        /* \"@openzeppelin/contracts/access/AccessControl.sol\":7999:8011  _roles[role] */\n      dup2\n      mstore\n      0x20\n      add\n      swap1\n      dup2\n      mstore\n      0x20\n      add\n      0x00\n      keccak256\n        /* \"@openzeppelin/contracts/access/AccessControl.sol\":7999:8019  _roles[role].members */\n      0x00\n      add\n        /* \"@openzeppelin/contracts/access/AccessControl.sol\":7999:8028  _roles[role].members[account] */\n      0x00\n        /* \"@openzeppelin/contracts/access/AccessControl.sol\":8020:8027  account */\n      dup4\n        /* \"@openzeppelin/contracts/access/AccessControl.sol\":7999:8028  _roles[role].members[account] */\n      0xffffffffffffffffffffffffffffffffffffffff\n      and\n      0xffffffffffffffffffffffffffffffffffffffff\n      and\n      dup2\n      mstore\n      0x20\n      add\n      swap1\n      dup2\n      mstore\n      0x20\n      add\n      0x00\n      keccak256\n      0x00\n        /* \"@openzeppelin/contracts/access/AccessControl.sol\":7999:8036  _roles[role].members[account] = false */\n      0x0100\n      exp\n      dup2\n      sload\n      dup2\n      0xff\n      mul\n      not\n      and\n      swap1\n      dup4\n      iszero\n      iszero\n      mul\n      or\n      swap1\n      sstore\n      pop\n        /* \"@openzeppelin/contracts/access/AccessControl.sol\":8082:8094  _msgSender() */\n      tag_240\n        /* \"@openzeppelin/contracts/access/AccessControl.sol\":8082:8092  _msgSender */\n      tag_144\n        /* \"@openzeppelin/contracts/access/AccessControl.sol\":8082:8094  _msgSender() */\n      jump\t// in\n    tag_240:\n        /* \"@openzeppelin/contracts/access/AccessControl.sol\":8055:8095  RoleRevoked(role, account, _msgSender()) */\n      0xffffffffffffffffffffffffffffffffffffffff\n      and\n        /* \"@openzeppelin/contracts/access/AccessControl.sol\":8073:8080  account */\n      dup2\n        /* \"@openzeppelin/contracts/access/AccessControl.sol\":8055:8095  RoleRevoked(role, account, _msgSender()) */\n      0xffffffffffffffffffffffffffffffffffffffff\n      and\n        /* \"@openzeppelin/contracts/access/AccessControl.sol\":8067:8071  role */\n      dup4\n        /* \"@openzeppelin/contracts/access/AccessControl.sol\":8055:8095  RoleRevoked(role, account, _msgSender()) */\n      0xf6391f5c32d9c69d2a47ea670b442974b53935d1edc7fd64eb21e047a839171b\n      mload(0x40)\n      mload(0x40)\n      dup1\n      swap2\n      sub\n      swap1\n      log4\n        /* \"@openzeppelin/contracts/access/AccessControl.sol\":7957:8106  if (hasRole(role, account)) {... */\n    tag_239:\n        /* \"@openzeppelin/contracts/access/AccessControl.sol\":7878:8112  function _revokeRole(bytes32 role, address account) internal virtual {... */\n      pop\n      pop\n      jump\t// out\n        /* \"@openzeppelin/contracts/access/Ownable.sol\":1359:1489  function _checkOwner() internal view virtual {... */\n    tag_168:\n        /* \"@openzeppelin/contracts/access/Ownable.sol\":1433:1445  _msgSender() */\n      tag_242\n        /* \"@openzeppelin/contracts/access/Ownable.sol\":1433:1443  _msgSender */\n      tag_144\n        /* \"@openzeppelin/contracts/access/Ownable.sol\":1433:1445  _msgSender() */\n      jump\t// in\n    tag_242:\n        /* \"@openzeppelin/contracts/access/Ownable.sol\":1422:1445  owner() == _msgSender() */\n      0xffffffffffffffffffffffffffffffffffffffff\n      and\n        /* \"@openzeppelin/contracts/access/Ownable.sol\":1422:1429  owner() */\n      tag_243\n        /* \"@openzeppelin/contracts/access/Ownable.sol\":1422:1427  owner */\n      tag_67\n        /* \"@openzeppelin/contracts/access/Ownable.sol\":1422:1429  owner() */\n      jump\t// in\n    tag_243:\n        /* \"@openzeppelin/contracts/access/Ownable.sol\":1422:1445  owner() == _msgSender() */\n      0xffffffffffffffffffffffffffffffffffffffff\n      and\n      eq\n        /* \"@openzeppelin/contracts/access/Ownable.sol\":1414:1482  require(owner() == _msgSender(), \"Ownable: caller is not the owner\") */\n      tag_244\n      jumpi\n      mload(0x40)\n      0x08c379a000000000000000000000000000000000000000000000000000000000\n      dup2\n      mstore\n      0x04\n      add\n      tag_245\n      swap1\n      tag_246\n      jump\t// in\n    tag_245:\n      mload(0x40)\n      dup1\n      swap2\n      sub\n      swap1\n      revert\n    tag_244:\n        /* \"@openzeppelin/contracts/access/Ownable.sol\":1359:1489  function _checkOwner() internal view virtual {... */\n      jump\t// out\n        /* \"@openzeppelin/contracts/access/Ownable.sol\":2433:2620  function _transferOwnership(address newOwner) internal virtual {... */\n    tag_171:\n        /* \"@openzeppelin/contracts/access/Ownable.sol\":2506:2522  address oldOwner */\n      0x00\n        /* \"@openzeppelin/contracts/access/Ownable.sol\":2525:2531  _owner */\n      dup1\n      0x00\n      swap1\n      sload\n      swap1\n      0x0100\n      exp\n      swap1\n      div\n      0xffffffffffffffffffffffffffffffffffffffff\n      and\n        /* \"@openzeppelin/contracts/access/Ownable.sol\":2506:2531  address oldOwner = _owner */\n      swap1\n      pop\n        /* \"@openzeppelin/contracts/access/Ownable.sol\":2550:2558  newOwner */\n      dup2\n        /* \"@openzeppelin/contracts/access/Ownable.sol\":2541:2547  _owner */\n      0x00\n      dup1\n        /* \"@openzeppelin/contracts/access/Ownable.sol\":2541:2558  _owner = newOwner */\n      0x0100\n      exp\n      dup2\n      sload\n      dup2\n      0xffffffffffffffffffffffffffffffffffffffff\n      mul\n      not\n      and\n      swap1\n      dup4\n      0xffffffffffffffffffffffffffffffffffffffff\n      and\n      mul\n      or\n      swap1\n      sstore\n      pop\n        /* \"@openzeppelin/contracts/access/Ownable.sol\":2604:2612  newOwner */\n      dup2\n        /* \"@openzeppelin/contracts/access/Ownable.sol\":2573:2613  OwnershipTransferred(oldOwner, newOwner) */\n      0xffffffffffffffffffffffffffffffffffffffff\n      and\n        /* \"@openzeppelin/contracts/access/Ownable.sol\":2594:2602  oldOwner */\n      dup2\n        /* \"@openzeppelin/contracts/access/Ownable.sol\":2573:2613  OwnershipTransferred(oldOwner, newOwner) */\n      0xffffffffffffffffffffffffffffffffffffffff\n      and\n      0x8be0079c531659141344cd1fd0a4f28419497f9722a3daafe3b4186f6b6457e0\n      mload(0x40)\n      mload(0x40)\n      dup1\n      swap2\n      sub\n      swap1\n      log3\n        /* \"@openzeppelin/contracts/access/Ownable.sol\":2496:2620  {... */\n      pop\n        /* \"@openzeppelin/contracts/access/Ownable.sol\":2433:2620  function _transferOwnership(address newOwner) internal virtual {... */\n      pop\n      jump\t// out\n        /* \"@openzeppelin/contracts/access/AccessControl.sol\":6824:6934  function _setupRole(bytes32 role, address account) internal virtual {... */\n    tag_215:\n        /* \"@openzeppelin/contracts/access/AccessControl.sol\":6902:6927  _grantRole(role, account) */\n      tag_249\n        /* \"@openzeppelin/contracts/access/AccessControl.sol\":6913:6917  role */\n      dup3\n        /* \"@openzeppelin/contracts/access/AccessControl.sol\":6919:6926  account */\n      dup3\n        /* \"@openzeppelin/contracts/access/AccessControl.sol\":6902:6912  _grantRole */\n      tag_134\n        /* \"@openzeppelin/contracts/access/AccessControl.sol\":6902:6927  _grantRole(role, account) */\n      jump\t// in\n    tag_249:\n        /* \"@openzeppelin/contracts/access/AccessControl.sol\":6824:6934  function _setupRole(bytes32 role, address account) internal virtual {... */\n      pop\n      pop\n      jump\t// out\n        /* \"@openzeppelin/contracts/access/AccessControl.sol\":3718:4210  function _checkRole(bytes32 role, address account) internal view virtual {... */\n    tag_231:\n        /* \"@openzeppelin/contracts/access/AccessControl.sol\":3806:3828  hasRole(role, account) */\n      tag_251\n        /* \"@openzeppelin/contracts/access/AccessControl.sol\":3814:3818  role */\n      dup3\n        /* \"@openzeppelin/contracts/access/AccessControl.sol\":3820:3827  account */\n      dup3\n        /* \"@openzeppelin/contracts/access/AccessControl.sol\":3806:3813  hasRole */\n      tag_72\n        /* \"@openzeppelin/contracts/access/AccessControl.sol\":3806:3828  hasRole(role, account) */\n      jump\t// in\n    tag_251:\n        /* \"@openzeppelin/contracts/access/AccessControl.sol\":3801:4204  if (!hasRole(role, account)) {... */\n      tag_252\n      jumpi\n        /* \"@openzeppelin/contracts/access/AccessControl.sol\":3989:4030  Strings.toHexString(uint160(account), 20) */\n      tag_253\n        /* \"@openzeppelin/contracts/access/AccessControl.sol\":4017:4024  account */\n      dup2\n        /* \"@openzeppelin/contracts/access/AccessControl.sol\":3989:4030  Strings.toHexString(uint160(account), 20) */\n      0xffffffffffffffffffffffffffffffffffffffff\n      and\n        /* \"@openzeppelin/contracts/access/AccessControl.sol\":4027:4029  20 */\n      0x14\n        /* \"@openzeppelin/contracts/access/AccessControl.sol\":3989:4008  Strings.toHexString */\n      tag_254\n        /* \"@openzeppelin/contracts/access/AccessControl.sol\":3989:4030  Strings.toHexString(uint160(account), 20) */\n      jump\t// in\n    tag_253:\n        /* \"@openzeppelin/contracts/access/AccessControl.sol\":4101:4139  Strings.toHexString(uint256(role), 32) */\n      tag_255\n        /* \"@openzeppelin/contracts/access/AccessControl.sol\":4129:4133  role */\n      dup4\n        /* \"@openzeppelin/contracts/access/AccessControl.sol\":4121:4134  uint256(role) */\n      0x00\n      shr\n        /* \"@openzeppelin/contracts/access/AccessControl.sol\":4136:4138  32 */\n      0x20\n        /* \"@openzeppelin/contracts/access/AccessControl.sol\":4101:4120  Strings.toHexString */\n      tag_254\n        /* \"@openzeppelin/contracts/access/AccessControl.sol\":4101:4139  Strings.toHexString(uint256(role), 32) */\n      jump\t// in\n    tag_255:\n        /* \"@openzeppelin/contracts/access/AccessControl.sol\":3896:4161  abi.encodePacked(... */\n      add(0x20, mload(0x40))\n      tag_256\n      swap3\n      swap2\n      swap1\n      tag_257\n      jump\t// in\n    tag_256:\n      mload(0x40)\n      0x20\n      dup2\n      dup4\n      sub\n      sub\n      dup2\n      mstore\n      swap1\n      0x40\n      mstore\n        /* \"@openzeppelin/contracts/access/AccessControl.sol\":3844:4193  revert(... */\n      mload(0x40)\n      0x08c379a000000000000000000000000000000000000000000000000000000000\n      dup2\n      mstore\n      0x04\n      add\n      tag_258\n      swap2\n      swap1\n      tag_56\n      jump\t// in\n    tag_258:\n      mload(0x40)\n      dup1\n      swap2\n      sub\n      swap1\n      revert\n        /* \"@openzeppelin/contracts/access/AccessControl.sol\":3801:4204  if (!hasRole(role, account)) {... */\n    tag_252:\n        /* \"@openzeppelin/contracts/access/AccessControl.sol\":3718:4210  function _checkRole(bytes32 role, address account) internal view virtual {... */\n      pop\n      pop\n      jump\t// out\n        /* \"@openzeppelin/contracts/utils/Strings.sol\":1652:2093  function toHexString(uint256 value, uint256 length) internal pure returns (string memory) {... */\n    tag_254:\n        /* \"@openzeppelin/contracts/utils/Strings.sol\":1727:1740  string memory */\n      0x60\n        /* \"@openzeppelin/contracts/utils/Strings.sol\":1752:1771  bytes memory buffer */\n      0x00\n        /* \"@openzeppelin/contracts/utils/Strings.sol\":1797:1798  2 */\n      0x02\n        /* \"@openzeppelin/contracts/utils/Strings.sol\":1788:1794  length */\n      dup4\n        /* \"@openzeppelin/contracts/utils/Strings.sol\":1784:1785  2 */\n      0x02\n        /* \"@openzeppelin/contracts/utils/Strings.sol\":1784:1794  2 * length */\n      tag_260\n      swap2\n      swap1\n      tag_261\n      jump\t// in\n    tag_260:\n        /* \"@openzeppelin/contracts/utils/Strings.sol\":1784:1798  2 * length + 2 */\n      tag_262\n      swap2\n      swap1\n      tag_263\n      jump\t// in\n    tag_262:\n        /* \"@openzeppelin/contracts/utils/Strings.sol\":1774:1799  new bytes(2 * length + 2) */\n      0xffffffffffffffff\n      dup2\n      gt\n      iszero\n      tag_264\n      jumpi\n      tag_265\n      tag_266\n      jump\t// in\n    tag_265:\n    tag_264:\n      mload(0x40)\n      swap1\n      dup1\n      dup3\n      mstore\n      dup1\n      0x1f\n      add\n      not(0x1f)\n      and\n      0x20\n      add\n      dup3\n      add\n      0x40\n      mstore\n      dup1\n      iszero\n      tag_267\n      jumpi\n      dup2\n      0x20\n      add\n      0x01\n      dup3\n      mul\n      dup1\n      calldatasize\n      dup4\n      calldatacopy\n      dup1\n      dup3\n      add\n      swap2\n      pop\n      pop\n      swap1\n      pop\n    tag_267:\n      pop\n        /* \"@openzeppelin/contracts/utils/Strings.sol\":1752:1799  bytes memory buffer = new bytes(2 * length + 2) */\n      swap1\n      pop\n        /* \"@openzeppelin/contracts/utils/Strings.sol\":1809:1824  buffer[0] = \"0\" */\n      0x3000000000000000000000000000000000000000000000000000000000000000\n        /* \"@openzeppelin/contracts/utils/Strings.sol\":1809:1815  buffer */\n      dup2\n        /* \"@openzeppelin/contracts/utils/Strings.sol\":1816:1817  0 */\n      0x00\n        /* \"@openzeppelin/contracts/utils/Strings.sol\":1809:1818  buffer[0] */\n      dup2\n      mload\n      dup2\n      lt\n      tag_268\n      jumpi\n      tag_269\n      tag_161\n      jump\t// in\n    tag_269:\n    tag_268:\n      0x20\n      add\n      add\n        /* \"@openzeppelin/contracts/utils/Strings.sol\":1809:1824  buffer[0] = \"0\" */\n      swap1\n      not(0xffffffffffffffffffffffffffffffffffffffffffffffffffffffffffffff)\n      and\n      swap1\n      dup2\n      0x00\n      byte\n      swap1\n      mstore8\n      pop\n        /* \"@openzeppelin/contracts/utils/Strings.sol\":1834:1849  buffer[1] = \"x\" */\n      0x7800000000000000000000000000000000000000000000000000000000000000\n        /* \"@openzeppelin/contracts/utils/Strings.sol\":1834:1840  buffer */\n      dup2\n        /* \"@openzeppelin/contracts/utils/Strings.sol\":1841:1842  1 */\n      0x01\n        /* \"@openzeppelin/contracts/utils/Strings.sol\":1834:1843  buffer[1] */\n      dup2\n      mload\n      dup2\n      lt\n      tag_270\n      jumpi\n      tag_271\n      tag_161\n      jump\t// in\n    tag_271:\n    tag_270:\n      0x20\n      add\n      add\n        /* \"@openzeppelin/contracts/utils/Strings.sol\":1834:1849  buffer[1] = \"x\" */\n      swap1\n      not(0xffffffffffffffffffffffffffffffffffffffffffffffffffffffffffffff)\n      and\n      swap1\n      dup2\n      0x00\n      byte\n      swap1\n      mstore8\n      pop\n        /* \"@openzeppelin/contracts/utils/Strings.sol\":1864:1873  uint256 i */\n      0x00\n        /* \"@openzeppelin/contracts/utils/Strings.sol\":1889:1890  1 */\n      0x01\n        /* \"@openzeppelin/contracts/utils/Strings.sol\":1880:1886  length */\n      dup5\n        /* \"@openzeppelin/contracts/utils/Strings.sol\":1876:1877  2 */\n      0x02\n        /* \"@openzeppelin/contracts/utils/Strings.sol\":1876:1886  2 * length */\n      tag_275\n      swap2\n      swap1\n      tag_261\n      jump\t// in\n    tag_275:\n        /* \"@openzeppelin/contracts/utils/Strings.sol\":1876:1890  2 * length + 1 */\n      tag_276\n      swap2\n      swap1\n      tag_263\n      jump\t// in\n    tag_276:\n        /* \"@openzeppelin/contracts/utils/Strings.sol\":1864:1890  uint256 i = 2 * length + 1 */\n      swap1\n      pop\n        /* \"@openzeppelin/contracts/utils/Strings.sol\":1859:1991  for (uint256 i = 2 * length + 1; i > 1; --i) {... */\n    tag_272:\n        /* \"@openzeppelin/contracts/utils/Strings.sol\":1896:1897  1 */\n      0x01\n        /* \"@openzeppelin/contracts/utils/Strings.sol\":1892:1893  i */\n      dup2\n        /* \"@openzeppelin/contracts/utils/Strings.sol\":1892:1897  i > 1 */\n      gt\n        /* \"@openzeppelin/contracts/utils/Strings.sol\":1859:1991  for (uint256 i = 2 * length + 1; i > 1; --i) {... */\n      iszero\n      tag_273\n      jumpi\n        /* \"@openzeppelin/contracts/utils/Strings.sol\":1930:1942  _HEX_SYMBOLS */\n      0x3031323334353637383961626364656600000000000000000000000000000000\n        /* \"@openzeppelin/contracts/utils/Strings.sol\":1951:1954  0xf */\n      0x0f\n        /* \"@openzeppelin/contracts/utils/Strings.sol\":1943:1948  value */\n      dup7\n        /* \"@openzeppelin/contracts/utils/Strings.sol\":1943:1954  value & 0xf */\n      and\n        /* \"@openzeppelin/contracts/utils/Strings.sol\":1930:1955  _HEX_SYMBOLS[value & 0xf] */\n      0x10\n      dup2\n      lt\n      tag_277\n      jumpi\n      tag_278\n      tag_161\n      jump\t// in\n    tag_278:\n    tag_277:\n      byte\n      0xf8\n      shl\n        /* \"@openzeppelin/contracts/utils/Strings.sol\":1918:1924  buffer */\n      dup3\n        /* \"@openzeppelin/contracts/utils/Strings.sol\":1925:1926  i */\n      dup3\n        /* \"@openzeppelin/contracts/utils/Strings.sol\":1918:1927  buffer[i] */\n      dup2\n      mload\n      dup2\n      lt\n      tag_279\n      jumpi\n      tag_280\n      tag_161\n      jump\t// in\n    tag_280:\n    tag_279:\n      0x20\n      add\n      add\n        /* \"@openzeppelin/contracts/utils/Strings.sol\":1918:1955  buffer[i] = _HEX_SYMBOLS[value & 0xf] */\n      swap1\n      not(0xffffffffffffffffffffffffffffffffffffffffffffffffffffffffffffff)\n      and\n      swap1\n      dup2\n      0x00\n      byte\n      swap1\n      mstore8\n      pop\n        /* \"@openzeppelin/contracts/utils/Strings.sol\":1979:1980  4 */\n      0x04\n        /* \"@openzeppelin/contracts/utils/Strings.sol\":1969:1980  value >>= 4 */\n      dup6\n      swap1\n      shr\n      swap5\n      pop\n        /* \"@openzeppelin/contracts/utils/Strings.sol\":1899:1902  --i */\n      dup1\n      tag_281\n      swap1\n      tag_282\n      jump\t// in\n    tag_281:\n      swap1\n      pop\n        /* \"@openzeppelin/contracts/utils/Strings.sol\":1859:1991  for (uint256 i = 2 * length + 1; i > 1; --i) {... */\n      jump(tag_272)\n    tag_273:\n      pop\n        /* \"@openzeppelin/contracts/utils/Strings.sol\":2017:2018  0 */\n      0x00\n        /* \"@openzeppelin/contracts/utils/Strings.sol\":2008:2013  value */\n      dup5\n        /* \"@openzeppelin/contracts/utils/Strings.sol\":2008:2018  value == 0 */\n      eq\n        /* \"@openzeppelin/contracts/utils/Strings.sol\":2000:2055  require(value == 0, \"Strings: hex length insufficient\") */\n      tag_283\n      jumpi\n      mload(0x40)\n      0x08c379a000000000000000000000000000000000000000000000000000000000\n      dup2\n      mstore\n      0x04\n      add\n      tag_284\n      swap1\n      tag_285\n      jump\t// in\n    tag_284:\n      mload(0x40)\n      dup1\n      swap2\n      sub\n      swap1\n      revert\n    tag_283:\n        /* \"@openzeppelin/contracts/utils/Strings.sol\":2079:2085  buffer */\n      dup1\n        /* \"@openzeppelin/contracts/utils/Strings.sol\":2065:2086  return string(buffer) */\n      swap2\n      pop\n      pop\n        /* \"@openzeppelin/contracts/utils/Strings.sol\":1652:2093  function toHexString(uint256 value, uint256 length) internal pure returns (string memory) {... */\n      swap3\n      swap2\n      pop\n      pop\n      jump\t// out\n    tag_175:\n      mload(0x40)\n      dup1\n      0xa0\n      add\n      0x40\n      mstore\n      dup1\n      0x60\n      dup2\n      mstore\n      0x20\n      add\n      0x60\n      dup2\n      mstore\n      0x20\n      add\n      0x00\n      dup2\n      mstore\n      0x20\n      add\n      0x00\n      dup2\n      mstore\n      0x20\n      add\n      iszero(iszero(0x00))\n      dup2\n      mstore\n      pop\n      swap1\n      jump\t// out\n    tag_182:\n      mload(0x40)\n      dup1\n      0x60\n      add\n      0x40\n      mstore\n      dup1\n      0x60\n      dup2\n      mstore\n      0x20\n      add\n      and(0xffffffffffffffffffffffffffffffffffffffff, 0x00)\n      dup2\n      mstore\n      0x20\n      add\n      0x60\n      dup2\n      mstore\n      pop\n      swap1\n      jump\t// out\n    tag_205:\n      dup3\n      dup1\n      sload\n      tag_286\n      swap1\n      tag_118\n      jump\t// in\n    tag_286:\n      swap1\n      0x00\n      mstore\n      keccak256(0x00, 0x20)\n      swap1\n      0x1f\n      add\n      0x20\n      swap1\n      div\n      dup2\n      add\n      swap3\n      dup3\n      tag_288\n      jumpi\n      0x00\n      dup6\n      sstore\n      jump(tag_287)\n    tag_288:\n      dup3\n      0x1f\n      lt\n      tag_289\n      jumpi\n      dup1\n      mload\n      not(0xff)\n      and\n      dup4\n      dup1\n      add\n      or\n      dup6\n      sstore\n      jump(tag_287)\n    tag_289:\n      dup3\n      dup1\n      add\n      0x01\n      add\n      dup6\n      sstore\n      dup3\n      iszero\n      tag_287\n      jumpi\n      swap2\n      dup3\n      add\n    tag_290:\n      dup3\n      dup2\n      gt\n      iszero\n      tag_291\n      jumpi\n      dup3\n      mload\n      dup3\n      sstore\n      swap2\n      0x20\n      add\n      swap2\n      swap1\n      0x01\n      add\n      swap1\n      jump(tag_290)\n    tag_291:\n    tag_287:\n      pop\n      swap1\n      pop\n      tag_292\n      swap2\n      swap1\n      tag_293\n      jump\t// in\n    tag_292:\n      pop\n      swap1\n      jump\t// out\n    tag_211:\n      dup3\n      dup1\n      sload\n      tag_294\n      swap1\n      tag_118\n      jump\t// in\n    tag_294:\n      swap1\n      0x00\n      mstore\n      keccak256(0x00, 0x20)\n      swap1\n      0x1f\n      add\n      0x20\n      swap1\n      div\n      dup2\n      add\n      swap3\n      dup3\n      tag_296\n      jumpi\n      0x00\n      dup6\n      sstore\n      jump(tag_295)\n    tag_296:\n      dup3\n      0x1f\n      lt\n      tag_297\n      jumpi\n      dup1\n      sload\n      dup6\n      sstore\n      jump(tag_295)\n    tag_297:\n      dup3\n      dup1\n      add\n      0x01\n      add\n      dup6\n      sstore\n      dup3\n      iszero\n      tag_295\n      jumpi\n      0x00\n      mstore\n      keccak256(0x00, 0x20)\n      swap2\n      0x1f\n      add\n      0x20\n      swap1\n      div\n      dup3\n      add\n    tag_298:\n      dup3\n      dup2\n      gt\n      iszero\n      tag_299\n      jumpi\n      dup3\n      sload\n      dup3\n      sstore\n      swap2\n      0x01\n      add\n      swap2\n      swap1\n      0x01\n      add\n      swap1\n      jump(tag_298)\n    tag_299:\n    tag_295:\n      pop\n      swap1\n      pop\n      tag_300\n      swap2\n      swap1\n      tag_293\n      jump\t// in\n    tag_300:\n      pop\n      swap1\n      jump\t// out\n    tag_293:\n    tag_301:\n      dup1\n      dup3\n      gt\n      iszero\n      tag_302\n      jumpi\n      0x00\n      dup2\n      0x00\n      swap1\n      sstore\n      pop\n      0x01\n      add\n      jump(tag_301)\n    tag_302:\n      pop\n      swap1\n      jump\t// out\n        /* \"#utility.yul\":24:746   */\n    tag_304:\n        /* \"#utility.yul\":120:125   */\n      0x00\n        /* \"#utility.yul\":145:226   */\n      tag_306\n        /* \"#utility.yul\":161:225   */\n      tag_307\n        /* \"#utility.yul\":218:224   */\n      dup5\n        /* \"#utility.yul\":161:225   */\n      tag_308\n      jump\t// in\n    tag_307:\n        /* \"#utility.yul\":145:226   */\n      tag_309\n      jump\t// in\n    tag_306:\n        /* \"#utility.yul\":136:226   */\n      swap1\n      pop\n        /* \"#utility.yul\":246:251   */\n      dup1\n        /* \"#utility.yul\":275:281   */\n      dup4\n        /* \"#utility.yul\":268:273   */\n      dup3\n        /* \"#utility.yul\":261:282   */\n      mstore\n        /* \"#utility.yul\":309:313   */\n      0x20\n        /* \"#utility.yul\":302:307   */\n      dup3\n        /* \"#utility.yul\":298:314   */\n      add\n        /* \"#utility.yul\":291:314   */\n      swap1\n      pop\n        /* \"#utility.yul\":335:341   */\n      dup3\n        /* \"#utility.yul\":385:388   */\n      dup6\n        /* \"#utility.yul\":377:381   */\n      0x20\n        /* \"#utility.yul\":369:375   */\n      dup7\n        /* \"#utility.yul\":365:382   */\n      mul\n        /* \"#utility.yul\":360:363   */\n      dup3\n        /* \"#utility.yul\":356:383   */\n      add\n        /* \"#utility.yul\":353:389   */\n      gt\n        /* \"#utility.yul\":350:493   */\n      iszero\n      tag_310\n      jumpi\n        /* \"#utility.yul\":404:483   */\n      tag_311\n      tag_312\n      jump\t// in\n    tag_311:\n        /* \"#utility.yul\":350:493   */\n    tag_310:\n        /* \"#utility.yul\":517:518   */\n      0x00\n        /* \"#utility.yul\":502:740   */\n    tag_313:\n        /* \"#utility.yul\":527:533   */\n      dup6\n        /* \"#utility.yul\":524:525   */\n      dup2\n        /* \"#utility.yul\":521:534   */\n      lt\n        /* \"#utility.yul\":502:740   */\n      iszero\n      tag_315\n      jumpi\n        /* \"#utility.yul\":595:598   */\n      dup2\n        /* \"#utility.yul\":624:661   */\n      tag_316\n        /* \"#utility.yul\":657:660   */\n      dup9\n        /* \"#utility.yul\":645:655   */\n      dup3\n        /* \"#utility.yul\":624:661   */\n      tag_317\n      jump\t// in\n    tag_316:\n        /* \"#utility.yul\":619:622   */\n      dup5\n        /* \"#utility.yul\":612:662   */\n      mstore\n        /* \"#utility.yul\":691:695   */\n      0x20\n        /* \"#utility.yul\":686:689   */\n      dup5\n        /* \"#utility.yul\":682:696   */\n      add\n        /* \"#utility.yul\":675:696   */\n      swap4\n      pop\n        /* \"#utility.yul\":725:729   */\n      0x20\n        /* \"#utility.yul\":720:723   */\n      dup4\n        /* \"#utility.yul\":716:730   */\n      add\n        /* \"#utility.yul\":709:730   */\n      swap3\n      pop\n        /* \"#utility.yul\":562:740   */\n      pop\n        /* \"#utility.yul\":549:550   */\n      0x01\n        /* \"#utility.yul\":546:547   */\n      dup2\n        /* \"#utility.yul\":542:551   */\n      add\n        /* \"#utility.yul\":537:551   */\n      swap1\n      pop\n        /* \"#utility.yul\":502:740   */\n      jump(tag_313)\n    tag_315:\n        /* \"#utility.yul\":506:520   */\n      pop\n        /* \"#utility.yul\":126:746   */\n      pop\n      pop\n        /* \"#utility.yul\":24:746   */\n      swap4\n      swap3\n      pop\n      pop\n      pop\n      jump\t// out\n        /* \"#utility.yul\":752:1164   */\n    tag_318:\n        /* \"#utility.yul\":830:835   */\n      0x00\n        /* \"#utility.yul\":855:921   */\n      tag_320\n        /* \"#utility.yul\":871:920   */\n      tag_321\n        /* \"#utility.yul\":913:919   */\n      dup5\n        /* \"#utility.yul\":871:920   */\n      tag_322\n      jump\t// in\n    tag_321:\n        /* \"#utility.yul\":855:921   */\n      tag_309\n      jump\t// in\n    tag_320:\n        /* \"#utility.yul\":846:921   */\n      swap1\n      pop\n        /* \"#utility.yul\":944:950   */\n      dup3\n        /* \"#utility.yul\":937:942   */\n      dup2\n        /* \"#utility.yul\":930:951   */\n      mstore\n        /* \"#utility.yul\":982:986   */\n      0x20\n        /* \"#utility.yul\":975:980   */\n      dup2\n        /* \"#utility.yul\":971:987   */\n      add\n        /* \"#utility.yul\":1020:1023   */\n      dup5\n        /* \"#utility.yul\":1011:1017   */\n      dup5\n        /* \"#utility.yul\":1006:1009   */\n      dup5\n        /* \"#utility.yul\":1002:1018   */\n      add\n        /* \"#utility.yul\":999:1024   */\n      gt\n        /* \"#utility.yul\":996:1108   */\n      iszero\n      tag_323\n      jumpi\n        /* \"#utility.yul\":1027:1106   */\n      tag_324\n      tag_325\n      jump\t// in\n    tag_324:\n        /* \"#utility.yul\":996:1108   */\n    tag_323:\n        /* \"#utility.yul\":1117:1158   */\n      tag_326\n        /* \"#utility.yul\":1151:1157   */\n      dup5\n        /* \"#utility.yul\":1146:1149   */\n      dup3\n        /* \"#utility.yul\":1141:1144   */\n      dup6\n        /* \"#utility.yul\":1117:1158   */\n      tag_327\n      jump\t// in\n    tag_326:\n        /* \"#utility.yul\":836:1164   */\n      pop\n        /* \"#utility.yul\":752:1164   */\n      swap4\n      swap3\n      pop\n      pop\n      pop\n      jump\t// out\n        /* \"#utility.yul\":1170:1309   */\n    tag_317:\n        /* \"#utility.yul\":1216:1221   */\n      0x00\n        /* \"#utility.yul\":1254:1260   */\n      dup2\n        /* \"#utility.yul\":1241:1261   */\n      calldataload\n        /* \"#utility.yul\":1232:1261   */\n      swap1\n      pop\n        /* \"#utility.yul\":1270:1303   */\n      tag_329\n        /* \"#utility.yul\":1297:1302   */\n      dup2\n        /* \"#utility.yul\":1270:1303   */\n      tag_330\n      jump\t// in\n    tag_329:\n        /* \"#utility.yul\":1170:1309   */\n      swap3\n      swap2\n      pop\n      pop\n      jump\t// out\n        /* \"#utility.yul\":1332:1702   */\n    tag_331:\n        /* \"#utility.yul\":1403:1408   */\n      0x00\n        /* \"#utility.yul\":1452:1455   */\n      dup3\n        /* \"#utility.yul\":1445:1449   */\n      0x1f\n        /* \"#utility.yul\":1437:1443   */\n      dup4\n        /* \"#utility.yul\":1433:1450   */\n      add\n        /* \"#utility.yul\":1429:1456   */\n      slt\n        /* \"#utility.yul\":1419:1541   */\n      tag_333\n      jumpi\n        /* \"#utility.yul\":1460:1539   */\n      tag_334\n      tag_335\n      jump\t// in\n    tag_334:\n        /* \"#utility.yul\":1419:1541   */\n    tag_333:\n        /* \"#utility.yul\":1577:1583   */\n      dup2\n        /* \"#utility.yul\":1564:1584   */\n      calldataload\n        /* \"#utility.yul\":1602:1696   */\n      tag_336\n        /* \"#utility.yul\":1692:1695   */\n      dup5\n        /* \"#utility.yul\":1684:1690   */\n      dup3\n        /* \"#utility.yul\":1677:1681   */\n      0x20\n        /* \"#utility.yul\":1669:1675   */\n      dup7\n        /* \"#utility.yul\":1665:1682   */\n      add\n        /* \"#utility.yul\":1602:1696   */\n      tag_304\n      jump\t// in\n    tag_336:\n        /* \"#utility.yul\":1593:1696   */\n      swap2\n      pop\n        /* \"#utility.yul\":1409:1702   */\n      pop\n        /* \"#utility.yul\":1332:1702   */\n      swap3\n      swap2\n      pop\n      pop\n      jump\t// out\n        /* \"#utility.yul\":1708:1847   */\n    tag_337:\n        /* \"#utility.yul\":1754:1759   */\n      0x00\n        /* \"#utility.yul\":1792:1798   */\n      dup2\n        /* \"#utility.yul\":1779:1799   */\n      calldataload\n        /* \"#utility.yul\":1770:1799   */\n      swap1\n      pop\n        /* \"#utility.yul\":1808:1841   */\n      tag_339\n        /* \"#utility.yul\":1835:1840   */\n      dup2\n        /* \"#utility.yul\":1808:1841   */\n      tag_340\n      jump\t// in\n    tag_339:\n        /* \"#utility.yul\":1708:1847   */\n      swap3\n      swap2\n      pop\n      pop\n      jump\t// out\n        /* \"#utility.yul\":1853:1990   */\n    tag_341:\n        /* \"#utility.yul\":1898:1903   */\n      0x00\n        /* \"#utility.yul\":1936:1942   */\n      dup2\n        /* \"#utility.yul\":1923:1943   */\n      calldataload\n        /* \"#utility.yul\":1914:1943   */\n      swap1\n      pop\n        /* \"#utility.yul\":1952:1984   */\n      tag_343\n        /* \"#utility.yul\":1978:1983   */\n      dup2\n        /* \"#utility.yul\":1952:1984   */\n      tag_344\n      jump\t// in\n    tag_343:\n        /* \"#utility.yul\":1853:1990   */\n      swap3\n      swap2\n      pop\n      pop\n      jump\t// out\n        /* \"#utility.yul\":2010:2350   */\n    tag_345:\n        /* \"#utility.yul\":2066:2071   */\n      0x00\n        /* \"#utility.yul\":2115:2118   */\n      dup3\n        /* \"#utility.yul\":2108:2112   */\n      0x1f\n        /* \"#utility.yul\":2100:2106   */\n      dup4\n        /* \"#utility.yul\":2096:2113   */\n      add\n        /* \"#utility.yul\":2092:2119   */\n      slt\n        /* \"#utility.yul\":2082:2204   */\n      tag_347\n      jumpi\n        /* \"#utility.yul\":2123:2202   */\n      tag_348\n      tag_335\n      jump\t// in\n    tag_348:\n        /* \"#utility.yul\":2082:2204   */\n    tag_347:\n        /* \"#utility.yul\":2240:2246   */\n      dup2\n        /* \"#utility.yul\":2227:2247   */\n      calldataload\n        /* \"#utility.yul\":2265:2344   */\n      tag_349\n        /* \"#utility.yul\":2340:2343   */\n      dup5\n        /* \"#utility.yul\":2332:2338   */\n      dup3\n        /* \"#utility.yul\":2325:2329   */\n      0x20\n        /* \"#utility.yul\":2317:2323   */\n      dup7\n        /* \"#utility.yul\":2313:2330   */\n      add\n        /* \"#utility.yul\":2265:2344   */\n      tag_318\n      jump\t// in\n    tag_349:\n        /* \"#utility.yul\":2256:2344   */\n      swap2\n      pop\n        /* \"#utility.yul\":2072:2350   */\n      pop\n        /* \"#utility.yul\":2010:2350   */\n      swap3\n      swap2\n      pop\n      pop\n      jump\t// out\n        /* \"#utility.yul\":2356:2495   */\n    tag_350:\n        /* \"#utility.yul\":2402:2407   */\n      0x00\n        /* \"#utility.yul\":2440:2446   */\n      dup2\n        /* \"#utility.yul\":2427:2447   */\n      calldataload\n        /* \"#utility.yul\":2418:2447   */\n      swap1\n      pop\n        /* \"#utility.yul\":2456:2489   */\n      tag_352\n        /* \"#utility.yul\":2483:2488   */\n      dup2\n        /* \"#utility.yul\":2456:2489   */\n      tag_353\n      jump\t// in\n    tag_352:\n        /* \"#utility.yul\":2356:2495   */\n      swap3\n      swap2\n      pop\n      pop\n      jump\t// out\n        /* \"#utility.yul\":2501:2830   */\n    tag_107:\n        /* \"#utility.yul\":2560:2566   */\n      0x00\n        /* \"#utility.yul\":2609:2611   */\n      0x20\n        /* \"#utility.yul\":2597:2606   */\n      dup3\n        /* \"#utility.yul\":2588:2595   */\n      dup5\n        /* \"#utility.yul\":2584:2607   */\n      sub\n        /* \"#utility.yul\":2580:2612   */\n      slt\n        /* \"#utility.yul\":2577:2696   */\n      iszero\n      tag_355\n      jumpi\n        /* \"#utility.yul\":2615:2694   */\n      tag_356\n      tag_357\n      jump\t// in\n    tag_356:\n        /* \"#utility.yul\":2577:2696   */\n    tag_355:\n        /* \"#utility.yul\":2735:2736   */\n      0x00\n        /* \"#utility.yul\":2760:2813   */\n      tag_358\n        /* \"#utility.yul\":2805:2812   */\n      dup5\n        /* \"#utility.yul\":2796:2802   */\n      dup3\n        /* \"#utility.yul\":2785:2794   */\n      dup6\n        /* \"#utility.yul\":2781:2803   */\n      add\n        /* \"#utility.yul\":2760:2813   */\n      tag_317\n      jump\t// in\n    tag_358:\n        /* \"#utility.yul\":2750:2813   */\n      swap2\n      pop\n        /* \"#utility.yul\":2706:2823   */\n      pop\n        /* \"#utility.yul\":2501:2830   */\n      swap3\n      swap2\n      pop\n      pop\n      jump\t// out\n        /* \"#utility.yul\":2836:3665   */\n    tag_62:\n        /* \"#utility.yul\":2938:2944   */\n      0x00\n        /* \"#utility.yul\":2946:2952   */\n      dup1\n        /* \"#utility.yul\":2954:2960   */\n      0x00\n        /* \"#utility.yul\":3003:3005   */\n      0x60\n        /* \"#utility.yul\":2991:3000   */\n      dup5\n        /* \"#utility.yul\":2982:2989   */\n      dup7\n        /* \"#utility.yul\":2978:3001   */\n      sub\n        /* \"#utility.yul\":2974:3006   */\n      slt\n        /* \"#utility.yul\":2971:3090   */\n      iszero\n      tag_360\n      jumpi\n        /* \"#utility.yul\":3009:3088   */\n      tag_361\n      tag_357\n      jump\t// in\n    tag_361:\n        /* \"#utility.yul\":2971:3090   */\n    tag_360:\n        /* \"#utility.yul\":3157:3158   */\n      0x00\n        /* \"#utility.yul\":3146:3155   */\n      dup5\n        /* \"#utility.yul\":3142:3159   */\n      add\n        /* \"#utility.yul\":3129:3160   */\n      calldataload\n        /* \"#utility.yul\":3187:3205   */\n      0xffffffffffffffff\n        /* \"#utility.yul\":3179:3185   */\n      dup2\n        /* \"#utility.yul\":3176:3206   */\n      gt\n        /* \"#utility.yul\":3173:3290   */\n      iszero\n      tag_362\n      jumpi\n        /* \"#utility.yul\":3209:3288   */\n      tag_363\n      tag_364\n      jump\t// in\n    tag_363:\n        /* \"#utility.yul\":3173:3290   */\n    tag_362:\n        /* \"#utility.yul\":3314:3392   */\n      tag_365\n        /* \"#utility.yul\":3384:3391   */\n      dup7\n        /* \"#utility.yul\":3375:3381   */\n      dup3\n        /* \"#utility.yul\":3364:3373   */\n      dup8\n        /* \"#utility.yul\":3360:3382   */\n      add\n        /* \"#utility.yul\":3314:3392   */\n      tag_331\n      jump\t// in\n    tag_365:\n        /* \"#utility.yul\":3304:3392   */\n      swap4\n      pop\n        /* \"#utility.yul\":3100:3402   */\n      pop\n        /* \"#utility.yul\":3441:3443   */\n      0x20\n        /* \"#utility.yul\":3467:3520   */\n      tag_366\n        /* \"#utility.yul\":3512:3519   */\n      dup7\n        /* \"#utility.yul\":3503:3509   */\n      dup3\n        /* \"#utility.yul\":3492:3501   */\n      dup8\n        /* \"#utility.yul\":3488:3510   */\n      add\n        /* \"#utility.yul\":3467:3520   */\n      tag_350\n      jump\t// in\n    tag_366:\n        /* \"#utility.yul\":3457:3520   */\n      swap3\n      pop\n        /* \"#utility.yul\":3412:3530   */\n      pop\n        /* \"#utility.yul\":3569:3571   */\n      0x40\n        /* \"#utility.yul\":3595:3648   */\n      tag_367\n        /* \"#utility.yul\":3640:3647   */\n      dup7\n        /* \"#utility.yul\":3631:3637   */\n      dup3\n        /* \"#utility.yul\":3620:3629   */\n      dup8\n        /* \"#utility.yul\":3616:3638   */\n      add\n        /* \"#utility.yul\":3595:3648   */\n      tag_350\n      jump\t// in\n    tag_367:\n        /* \"#utility.yul\":3585:3648   */\n      swap2\n      pop\n        /* \"#utility.yul\":3540:3658   */\n      pop\n        /* \"#utility.yul\":2836:3665   */\n      swap3\n      pop\n      swap3\n      pop\n      swap3\n      jump\t// out\n        /* \"#utility.yul\":3671:4000   */\n    tag_35:\n        /* \"#utility.yul\":3730:3736   */\n      0x00\n        /* \"#utility.yul\":3779:3781   */\n      0x20\n        /* \"#utility.yul\":3767:3776   */\n      dup3\n        /* \"#utility.yul\":3758:3765   */\n      dup5\n        /* \"#utility.yul\":3754:3777   */\n      sub\n        /* \"#utility.yul\":3750:3782   */\n      slt\n        /* \"#utility.yul\":3747:3866   */\n      iszero\n      tag_369\n      jumpi\n        /* \"#utility.yul\":3785:3864   */\n      tag_370\n      tag_357\n      jump\t// in\n    tag_370:\n        /* \"#utility.yul\":3747:3866   */\n    tag_369:\n        /* \"#utility.yul\":3905:3906   */\n      0x00\n        /* \"#utility.yul\":3930:3983   */\n      tag_371\n        /* \"#utility.yul\":3975:3982   */\n      dup5\n        /* \"#utility.yul\":3966:3972   */\n      dup3\n        /* \"#utility.yul\":3955:3964   */\n      dup6\n        /* \"#utility.yul\":3951:3973   */\n      add\n        /* \"#utility.yul\":3930:3983   */\n      tag_337\n      jump\t// in\n    tag_371:\n        /* \"#utility.yul\":3920:3983   */\n      swap2\n      pop\n        /* \"#utility.yul\":3876:3993   */\n      pop\n        /* \"#utility.yul\":3671:4000   */\n      swap3\n      swap2\n      pop\n      pop\n      jump\t// out\n        /* \"#utility.yul\":4006:4480   */\n    tag_50:\n        /* \"#utility.yul\":4074:4080   */\n      0x00\n        /* \"#utility.yul\":4082:4088   */\n      dup1\n        /* \"#utility.yul\":4131:4133   */\n      0x40\n        /* \"#utility.yul\":4119:4128   */\n      dup4\n        /* \"#utility.yul\":4110:4117   */\n      dup6\n        /* \"#utility.yul\":4106:4129   */\n      sub\n        /* \"#utility.yul\":4102:4134   */\n      slt\n        /* \"#utility.yul\":4099:4218   */\n      iszero\n      tag_373\n      jumpi\n        /* \"#utility.yul\":4137:4216   */\n      tag_374\n      tag_357\n      jump\t// in\n    tag_374:\n        /* \"#utility.yul\":4099:4218   */\n    tag_373:\n        /* \"#utility.yul\":4257:4258   */\n      0x00\n        /* \"#utility.yul\":4282:4335   */\n      tag_375\n        /* \"#utility.yul\":4327:4334   */\n      dup6\n        /* \"#utility.yul\":4318:4324   */\n      dup3\n        /* \"#utility.yul\":4307:4316   */\n      dup7\n        /* \"#utility.yul\":4303:4325   */\n      add\n        /* \"#utility.yul\":4282:4335   */\n      tag_337\n      jump\t// in\n    tag_375:\n        /* \"#utility.yul\":4272:4335   */\n      swap3\n      pop\n        /* \"#utility.yul\":4228:4345   */\n      pop\n        /* \"#utility.yul\":4384:4386   */\n      0x20\n        /* \"#utility.yul\":4410:4463   */\n      tag_376\n        /* \"#utility.yul\":4455:4462   */\n      dup6\n        /* \"#utility.yul\":4446:4452   */\n      dup3\n        /* \"#utility.yul\":4435:4444   */\n      dup7\n        /* \"#utility.yul\":4431:4453   */\n      add\n        /* \"#utility.yul\":4410:4463   */\n      tag_317\n      jump\t// in\n    tag_376:\n        /* \"#utility.yul\":4400:4463   */\n      swap2\n      pop\n        /* \"#utility.yul\":4355:4473   */\n      pop\n        /* \"#utility.yul\":4006:4480   */\n      swap3\n      pop\n      swap3\n      swap1\n      pop\n      jump\t// out\n        /* \"#utility.yul\":4486:4813   */\n    tag_29:\n        /* \"#utility.yul\":4544:4550   */\n      0x00\n        /* \"#utility.yul\":4593:4595   */\n      0x20\n        /* \"#utility.yul\":4581:4590   */\n      dup3\n        /* \"#utility.yul\":4572:4579   */\n      dup5\n        /* \"#utility.yul\":4568:4591   */\n      sub\n        /* \"#utility.yul\":4564:4596   */\n      slt\n        /* \"#utility.yul\":4561:4680   */\n      iszero\n      tag_378\n      jumpi\n        /* \"#utility.yul\":4599:4678   */\n      tag_379\n      tag_357\n      jump\t// in\n    tag_379:\n        /* \"#utility.yul\":4561:4680   */\n    tag_378:\n        /* \"#utility.yul\":4719:4720   */\n      0x00\n        /* \"#utility.yul\":4744:4796   */\n      tag_380\n        /* \"#utility.yul\":4788:4795   */\n      dup5\n        /* \"#utility.yul\":4779:4785   */\n      dup3\n        /* \"#utility.yul\":4768:4777   */\n      dup6\n        /* \"#utility.yul\":4764:4786   */\n      add\n        /* \"#utility.yul\":4744:4796   */\n      tag_341\n      jump\t// in\n    tag_380:\n        /* \"#utility.yul\":4734:4796   */\n      swap2\n      pop\n        /* \"#utility.yul\":4690:4806   */\n      pop\n        /* \"#utility.yul\":4486:4813   */\n      swap3\n      swap2\n      pop\n      pop\n      jump\t// out\n        /* \"#utility.yul\":4819:5618   */\n    tag_100:\n        /* \"#utility.yul\":4906:4912   */\n      0x00\n        /* \"#utility.yul\":4914:4920   */\n      dup1\n        /* \"#utility.yul\":4922:4928   */\n      0x00\n        /* \"#utility.yul\":4971:4973   */\n      0x60\n        /* \"#utility.yul\":4959:4968   */\n      dup5\n        /* \"#utility.yul\":4950:4957   */\n      dup7\n        /* \"#utility.yul\":4946:4969   */\n      sub\n        /* \"#utility.yul\":4942:4974   */\n      slt\n        /* \"#utility.yul\":4939:5058   */\n      iszero\n      tag_382\n      jumpi\n        /* \"#utility.yul\":4977:5056   */\n      tag_383\n      tag_357\n      jump\t// in\n    tag_383:\n        /* \"#utility.yul\":4939:5058   */\n    tag_382:\n        /* \"#utility.yul\":5125:5126   */\n      0x00\n        /* \"#utility.yul\":5114:5123   */\n      dup5\n        /* \"#utility.yul\":5110:5127   */\n      add\n        /* \"#utility.yul\":5097:5128   */\n      calldataload\n        /* \"#utility.yul\":5155:5173   */\n      0xffffffffffffffff\n        /* \"#utility.yul\":5147:5153   */\n      dup2\n        /* \"#utility.yul\":5144:5174   */\n      gt\n        /* \"#utility.yul\":5141:5258   */\n      iszero\n      tag_384\n      jumpi\n        /* \"#utility.yul\":5177:5256   */\n      tag_385\n      tag_364\n      jump\t// in\n    tag_385:\n        /* \"#utility.yul\":5141:5258   */\n    tag_384:\n        /* \"#utility.yul\":5282:5345   */\n      tag_386\n        /* \"#utility.yul\":5337:5344   */\n      dup7\n        /* \"#utility.yul\":5328:5334   */\n      dup3\n        /* \"#utility.yul\":5317:5326   */\n      dup8\n        /* \"#utility.yul\":5313:5335   */\n      add\n        /* \"#utility.yul\":5282:5345   */\n      tag_345\n      jump\t// in\n    tag_386:\n        /* \"#utility.yul\":5272:5345   */\n      swap4\n      pop\n        /* \"#utility.yul\":5068:5355   */\n      pop\n        /* \"#utility.yul\":5394:5396   */\n      0x20\n        /* \"#utility.yul\":5420:5473   */\n      tag_387\n        /* \"#utility.yul\":5465:5472   */\n      dup7\n        /* \"#utility.yul\":5456:5462   */\n      dup3\n        /* \"#utility.yul\":5445:5454   */\n      dup8\n        /* \"#utility.yul\":5441:5463   */\n      add\n        /* \"#utility.yul\":5420:5473   */\n      tag_317\n      jump\t// in\n    tag_387:\n        /* \"#utility.yul\":5410:5473   */\n      swap3\n      pop\n        /* \"#utility.yul\":5365:5483   */\n      pop\n        /* \"#utility.yul\":5522:5524   */\n      0x40\n        /* \"#utility.yul\":5548:5601   */\n      tag_388\n        /* \"#utility.yul\":5593:5600   */\n      dup7\n        /* \"#utility.yul\":5584:5590   */\n      dup3\n        /* \"#utility.yul\":5573:5582   */\n      dup8\n        /* \"#utility.yul\":5569:5591   */\n      add\n        /* \"#utility.yul\":5548:5601   */\n      tag_350\n      jump\t// in\n    tag_388:\n        /* \"#utility.yul\":5538:5601   */\n      swap2\n      pop\n        /* \"#utility.yul\":5493:5611   */\n      pop\n        /* \"#utility.yul\":4819:5618   */\n      swap3\n      pop\n      swap3\n      pop\n      swap3\n      jump\t// out\n        /* \"#utility.yul\":5624:5953   */\n    tag_41:\n        /* \"#utility.yul\":5683:5689   */\n      0x00\n        /* \"#utility.yul\":5732:5734   */\n      0x20\n        /* \"#utility.yul\":5720:5729   */\n      dup3\n        /* \"#utility.yul\":5711:5718   */\n      dup5\n        /* \"#utility.yul\":5707:5730   */\n      sub\n        /* \"#utility.yul\":5703:5735   */\n      slt\n        /* \"#utility.yul\":5700:5819   */\n      iszero\n      tag_390\n      jumpi\n        /* \"#utility.yul\":5738:5817   */\n      tag_391\n      tag_357\n      jump\t// in\n    tag_391:\n        /* \"#utility.yul\":5700:5819   */\n    tag_390:\n        /* \"#utility.yul\":5858:5859   */\n      0x00\n        /* \"#utility.yul\":5883:5936   */\n      tag_392\n        /* \"#utility.yul\":5928:5935   */\n      dup5\n        /* \"#utility.yul\":5919:5925   */\n      dup3\n        /* \"#utility.yul\":5908:5917   */\n      dup6\n        /* \"#utility.yul\":5904:5926   */\n      add\n        /* \"#utility.yul\":5883:5936   */\n      tag_350\n      jump\t// in\n    tag_392:\n        /* \"#utility.yul\":5873:5936   */\n      swap2\n      pop\n        /* \"#utility.yul\":5829:5946   */\n      pop\n        /* \"#utility.yul\":5624:5953   */\n      swap3\n      swap2\n      pop\n      pop\n      jump\t// out\n        /* \"#utility.yul\":5959:6138   */\n    tag_393:\n        /* \"#utility.yul\":6028:6038   */\n      0x00\n        /* \"#utility.yul\":6049:6095   */\n      tag_395\n        /* \"#utility.yul\":6091:6094   */\n      dup4\n        /* \"#utility.yul\":6083:6089   */\n      dup4\n        /* \"#utility.yul\":6049:6095   */\n      tag_396\n      jump\t// in\n    tag_395:\n        /* \"#utility.yul\":6127:6131   */\n      0x20\n        /* \"#utility.yul\":6122:6125   */\n      dup4\n        /* \"#utility.yul\":6118:6132   */\n      add\n        /* \"#utility.yul\":6104:6132   */\n      swap1\n      pop\n        /* \"#utility.yul\":5959:6138   */\n      swap3\n      swap2\n      pop\n      pop\n      jump\t// out\n        /* \"#utility.yul\":6144:6323   */\n    tag_397:\n        /* \"#utility.yul\":6213:6223   */\n      0x00\n        /* \"#utility.yul\":6234:6280   */\n      tag_399\n        /* \"#utility.yul\":6276:6279   */\n      dup4\n        /* \"#utility.yul\":6268:6274   */\n      dup4\n        /* \"#utility.yul\":6234:6280   */\n      tag_400\n      jump\t// in\n    tag_399:\n        /* \"#utility.yul\":6312:6316   */\n      0x20\n        /* \"#utility.yul\":6307:6310   */\n      dup4\n        /* \"#utility.yul\":6303:6317   */\n      add\n        /* \"#utility.yul\":6289:6317   */\n      swap1\n      pop\n        /* \"#utility.yul\":6144:6323   */\n      swap3\n      swap2\n      pop\n      pop\n      jump\t// out\n        /* \"#utility.yul\":6329:6437   */\n    tag_396:\n        /* \"#utility.yul\":6406:6430   */\n      tag_402\n        /* \"#utility.yul\":6424:6429   */\n      dup2\n        /* \"#utility.yul\":6406:6430   */\n      tag_403\n      jump\t// in\n    tag_402:\n        /* \"#utility.yul\":6401:6404   */\n      dup3\n        /* \"#utility.yul\":6394:6431   */\n      mstore\n        /* \"#utility.yul\":6329:6437   */\n      pop\n      pop\n      jump\t// out\n        /* \"#utility.yul\":6443:6561   */\n    tag_404:\n        /* \"#utility.yul\":6530:6554   */\n      tag_406\n        /* \"#utility.yul\":6548:6553   */\n      dup2\n        /* \"#utility.yul\":6530:6554   */\n      tag_403\n      jump\t// in\n    tag_406:\n        /* \"#utility.yul\":6525:6528   */\n      dup3\n        /* \"#utility.yul\":6518:6555   */\n      mstore\n        /* \"#utility.yul\":6443:6561   */\n      pop\n      pop\n      jump\t// out\n        /* \"#utility.yul\":6597:7309   */\n    tag_407:\n        /* \"#utility.yul\":6706:6709   */\n      0x00\n        /* \"#utility.yul\":6735:6789   */\n      tag_409\n        /* \"#utility.yul\":6783:6788   */\n      dup3\n        /* \"#utility.yul\":6735:6789   */\n      tag_410\n      jump\t// in\n    tag_409:\n        /* \"#utility.yul\":6805:6881   */\n      tag_411\n        /* \"#utility.yul\":6874:6880   */\n      dup2\n        /* \"#utility.yul\":6869:6872   */\n      dup6\n        /* \"#utility.yul\":6805:6881   */\n      tag_412\n      jump\t// in\n    tag_411:\n        /* \"#utility.yul\":6798:6881   */\n      swap4\n      pop\n        /* \"#utility.yul\":6905:6961   */\n      tag_413\n        /* \"#utility.yul\":6955:6960   */\n      dup4\n        /* \"#utility.yul\":6905:6961   */\n      tag_414\n      jump\t// in\n    tag_413:\n        /* \"#utility.yul\":6984:6991   */\n      dup1\n        /* \"#utility.yul\":7015:7016   */\n      0x00\n        /* \"#utility.yul\":7000:7284   */\n    tag_415:\n        /* \"#utility.yul\":7025:7031   */\n      dup4\n        /* \"#utility.yul\":7022:7023   */\n      dup2\n        /* \"#utility.yul\":7019:7032   */\n      lt\n        /* \"#utility.yul\":7000:7284   */\n      iszero\n      tag_417\n      jumpi\n        /* \"#utility.yul\":7101:7107   */\n      dup2\n        /* \"#utility.yul\":7095:7108   */\n      mload\n        /* \"#utility.yul\":7128:7191   */\n      tag_418\n        /* \"#utility.yul\":7187:7190   */\n      dup9\n        /* \"#utility.yul\":7172:7185   */\n      dup3\n        /* \"#utility.yul\":7128:7191   */\n      tag_393\n      jump\t// in\n    tag_418:\n        /* \"#utility.yul\":7121:7191   */\n      swap8\n      pop\n        /* \"#utility.yul\":7214:7274   */\n      tag_419\n        /* \"#utility.yul\":7267:7273   */\n      dup4\n        /* \"#utility.yul\":7214:7274   */\n      tag_420\n      jump\t// in\n    tag_419:\n        /* \"#utility.yul\":7204:7274   */\n      swap3\n      pop\n        /* \"#utility.yul\":7060:7284   */\n      pop\n        /* \"#utility.yul\":7047:7048   */\n      0x01\n        /* \"#utility.yul\":7044:7045   */\n      dup2\n        /* \"#utility.yul\":7040:7049   */\n      add\n        /* \"#utility.yul\":7035:7049   */\n      swap1\n      pop\n        /* \"#utility.yul\":7000:7284   */\n      jump(tag_415)\n    tag_417:\n        /* \"#utility.yul\":7004:7018   */\n      pop\n        /* \"#utility.yul\":7300:7303   */\n      dup6\n        /* \"#utility.yul\":7293:7303   */\n      swap4\n      pop\n        /* \"#utility.yul\":6711:7309   */\n      pop\n      pop\n      pop\n        /* \"#utility.yul\":6597:7309   */\n      swap3\n      swap2\n      pop\n      pop\n      jump\t// out\n        /* \"#utility.yul\":7345:8057   */\n    tag_421:\n        /* \"#utility.yul\":7454:7457   */\n      0x00\n        /* \"#utility.yul\":7483:7537   */\n      tag_423\n        /* \"#utility.yul\":7531:7536   */\n      dup3\n        /* \"#utility.yul\":7483:7537   */\n      tag_424\n      jump\t// in\n    tag_423:\n        /* \"#utility.yul\":7553:7629   */\n      tag_425\n        /* \"#utility.yul\":7622:7628   */\n      dup2\n        /* \"#utility.yul\":7617:7620   */\n      dup6\n        /* \"#utility.yul\":7553:7629   */\n      tag_426\n      jump\t// in\n    tag_425:\n        /* \"#utility.yul\":7546:7629   */\n      swap4\n      pop\n        /* \"#utility.yul\":7653:7709   */\n      tag_427\n        /* \"#utility.yul\":7703:7708   */\n      dup4\n        /* \"#utility.yul\":7653:7709   */\n      tag_428\n      jump\t// in\n    tag_427:\n        /* \"#utility.yul\":7732:7739   */\n      dup1\n        /* \"#utility.yul\":7763:7764   */\n      0x00\n        /* \"#utility.yul\":7748:8032   */\n    tag_429:\n        /* \"#utility.yul\":7773:7779   */\n      dup4\n        /* \"#utility.yul\":7770:7771   */\n      dup2\n        /* \"#utility.yul\":7767:7780   */\n      lt\n        /* \"#utility.yul\":7748:8032   */\n      iszero\n      tag_431\n      jumpi\n        /* \"#utility.yul\":7849:7855   */\n      dup2\n        /* \"#utility.yul\":7843:7856   */\n      mload\n        /* \"#utility.yul\":7876:7939   */\n      tag_432\n        /* \"#utility.yul\":7935:7938   */\n      dup9\n        /* \"#utility.yul\":7920:7933   */\n      dup3\n        /* \"#utility.yul\":7876:7939   */\n      tag_397\n      jump\t// in\n    tag_432:\n        /* \"#utility.yul\":7869:7939   */\n      swap8\n      pop\n        /* \"#utility.yul\":7962:8022   */\n      tag_433\n        /* \"#utility.yul\":8015:8021   */\n      dup4\n        /* \"#utility.yul\":7962:8022   */\n      tag_434\n      jump\t// in\n    tag_433:\n        /* \"#utility.yul\":7952:8022   */\n      swap3\n      pop\n        /* \"#utility.yul\":7808:8032   */\n      pop\n        /* \"#utility.yul\":7795:7796   */\n      0x01\n        /* \"#utility.yul\":7792:7793   */\n      dup2\n        /* \"#utility.yul\":7788:7797   */\n      add\n        /* \"#utility.yul\":7783:7797   */\n      swap1\n      pop\n        /* \"#utility.yul\":7748:8032   */\n      jump(tag_429)\n    tag_431:\n        /* \"#utility.yul\":7752:7766   */\n      pop\n        /* \"#utility.yul\":8048:8051   */\n      dup6\n        /* \"#utility.yul\":8041:8051   */\n      swap4\n      pop\n        /* \"#utility.yul\":7459:8057   */\n      pop\n      pop\n      pop\n        /* \"#utility.yul\":7345:8057   */\n      swap3\n      swap2\n      pop\n      pop\n      jump\t// out\n        /* \"#utility.yul\":8063:8162   */\n    tag_435:\n        /* \"#utility.yul\":8134:8155   */\n      tag_437\n        /* \"#utility.yul\":8149:8154   */\n      dup2\n        /* \"#utility.yul\":8134:8155   */\n      tag_438\n      jump\t// in\n    tag_437:\n        /* \"#utility.yul\":8129:8132   */\n      dup3\n        /* \"#utility.yul\":8122:8156   */\n      mstore\n        /* \"#utility.yul\":8063:8162   */\n      pop\n      pop\n      jump\t// out\n        /* \"#utility.yul\":8168:8277   */\n    tag_439:\n        /* \"#utility.yul\":8249:8270   */\n      tag_441\n        /* \"#utility.yul\":8264:8269   */\n      dup2\n        /* \"#utility.yul\":8249:8270   */\n      tag_438\n      jump\t// in\n    tag_441:\n        /* \"#utility.yul\":8244:8247   */\n      dup3\n        /* \"#utility.yul\":8237:8271   */\n      mstore\n        /* \"#utility.yul\":8168:8277   */\n      pop\n      pop\n      jump\t// out\n        /* \"#utility.yul\":8283:8401   */\n    tag_442:\n        /* \"#utility.yul\":8370:8394   */\n      tag_444\n        /* \"#utility.yul\":8388:8393   */\n      dup2\n        /* \"#utility.yul\":8370:8394   */\n      tag_445\n      jump\t// in\n    tag_444:\n        /* \"#utility.yul\":8365:8368   */\n      dup3\n        /* \"#utility.yul\":8358:8395   */\n      mstore\n        /* \"#utility.yul\":8283:8401   */\n      pop\n      pop\n      jump\t// out\n        /* \"#utility.yul\":8407:8751   */\n    tag_446:\n        /* \"#utility.yul\":8485:8488   */\n      0x00\n        /* \"#utility.yul\":8513:8552   */\n      tag_448\n        /* \"#utility.yul\":8546:8551   */\n      dup3\n        /* \"#utility.yul\":8513:8552   */\n      tag_449\n      jump\t// in\n    tag_448:\n        /* \"#utility.yul\":8568:8629   */\n      tag_450\n        /* \"#utility.yul\":8622:8628   */\n      dup2\n        /* \"#utility.yul\":8617:8620   */\n      dup6\n        /* \"#utility.yul\":8568:8629   */\n      tag_451\n      jump\t// in\n    tag_450:\n        /* \"#utility.yul\":8561:8629   */\n      swap4\n      pop\n        /* \"#utility.yul\":8638:8690   */\n      tag_452\n        /* \"#utility.yul\":8683:8689   */\n      dup2\n        /* \"#utility.yul\":8678:8681   */\n      dup6\n        /* \"#utility.yul\":8671:8675   */\n      0x20\n        /* \"#utility.yul\":8664:8669   */\n      dup7\n        /* \"#utility.yul\":8660:8676   */\n      add\n        /* \"#utility.yul\":8638:8690   */\n      tag_453\n      jump\t// in\n    tag_452:\n        /* \"#utility.yul\":8715:8744   */\n      tag_454\n        /* \"#utility.yul\":8737:8743   */\n      dup2\n        /* \"#utility.yul\":8715:8744   */\n      tag_455\n      jump\t// in\n    tag_454:\n        /* \"#utility.yul\":8710:8713   */\n      dup5\n        /* \"#utility.yul\":8706:8745   */\n      add\n        /* \"#utility.yul\":8699:8745   */\n      swap2\n      pop\n        /* \"#utility.yul\":8489:8751   */\n      pop\n        /* \"#utility.yul\":8407:8751   */\n      swap3\n      swap2\n      pop\n      pop\n      jump\t// out\n        /* \"#utility.yul\":8757:9121   */\n    tag_456:\n        /* \"#utility.yul\":8845:8848   */\n      0x00\n        /* \"#utility.yul\":8873:8912   */\n      tag_458\n        /* \"#utility.yul\":8906:8911   */\n      dup3\n        /* \"#utility.yul\":8873:8912   */\n      tag_449\n      jump\t// in\n    tag_458:\n        /* \"#utility.yul\":8928:8999   */\n      tag_459\n        /* \"#utility.yul\":8992:8998   */\n      dup2\n        /* \"#utility.yul\":8987:8990   */\n      dup6\n        /* \"#utility.yul\":8928:8999   */\n      tag_460\n      jump\t// in\n    tag_459:\n        /* \"#utility.yul\":8921:8999   */\n      swap4\n      pop\n        /* \"#utility.yul\":9008:9060   */\n      tag_461\n        /* \"#utility.yul\":9053:9059   */\n      dup2\n        /* \"#utility.yul\":9048:9051   */\n      dup6\n        /* \"#utility.yul\":9041:9045   */\n      0x20\n        /* \"#utility.yul\":9034:9039   */\n      dup7\n        /* \"#utility.yul\":9030:9046   */\n      add\n        /* \"#utility.yul\":9008:9060   */\n      tag_453\n      jump\t// in\n    tag_461:\n        /* \"#utility.yul\":9085:9114   */\n      tag_462\n        /* \"#utility.yul\":9107:9113   */\n      dup2\n        /* \"#utility.yul\":9085:9114   */\n      tag_455\n      jump\t// in\n    tag_462:\n        /* \"#utility.yul\":9080:9083   */\n      dup5\n        /* \"#utility.yul\":9076:9115   */\n      add\n        /* \"#utility.yul\":9069:9115   */\n      swap2\n      pop\n        /* \"#utility.yul\":8849:9121   */\n      pop\n        /* \"#utility.yul\":8757:9121   */\n      swap3\n      swap2\n      pop\n      pop\n      jump\t// out\n        /* \"#utility.yul\":9127:9504   */\n    tag_463:\n        /* \"#utility.yul\":9233:9236   */\n      0x00\n        /* \"#utility.yul\":9261:9300   */\n      tag_465\n        /* \"#utility.yul\":9294:9299   */\n      dup3\n        /* \"#utility.yul\":9261:9300   */\n      tag_449\n      jump\t// in\n    tag_465:\n        /* \"#utility.yul\":9316:9405   */\n      tag_466\n        /* \"#utility.yul\":9398:9404   */\n      dup2\n        /* \"#utility.yul\":9393:9396   */\n      dup6\n        /* \"#utility.yul\":9316:9405   */\n      tag_467\n      jump\t// in\n    tag_466:\n        /* \"#utility.yul\":9309:9405   */\n      swap4\n      pop\n        /* \"#utility.yul\":9414:9466   */\n      tag_468\n        /* \"#utility.yul\":9459:9465   */\n      dup2\n        /* \"#utility.yul\":9454:9457   */\n      dup6\n        /* \"#utility.yul\":9447:9451   */\n      0x20\n        /* \"#utility.yul\":9440:9445   */\n      dup7\n        /* \"#utility.yul\":9436:9452   */\n      add\n        /* \"#utility.yul\":9414:9466   */\n      tag_453\n      jump\t// in\n    tag_468:\n        /* \"#utility.yul\":9491:9497   */\n      dup1\n        /* \"#utility.yul\":9486:9489   */\n      dup5\n        /* \"#utility.yul\":9482:9498   */\n      add\n        /* \"#utility.yul\":9475:9498   */\n      swap2\n      pop\n        /* \"#utility.yul\":9237:9504   */\n      pop\n        /* \"#utility.yul\":9127:9504   */\n      swap3\n      swap2\n      pop\n      pop\n      jump\t// out\n        /* \"#utility.yul\":9510:9876   */\n    tag_469:\n        /* \"#utility.yul\":9652:9655   */\n      0x00\n        /* \"#utility.yul\":9673:9740   */\n      tag_471\n        /* \"#utility.yul\":9737:9739   */\n      0x20\n        /* \"#utility.yul\":9732:9735   */\n      dup4\n        /* \"#utility.yul\":9673:9740   */\n      tag_460\n      jump\t// in\n    tag_471:\n        /* \"#utility.yul\":9666:9740   */\n      swap2\n      pop\n        /* \"#utility.yul\":9749:9842   */\n      tag_472\n        /* \"#utility.yul\":9838:9841   */\n      dup3\n        /* \"#utility.yul\":9749:9842   */\n      tag_473\n      jump\t// in\n    tag_472:\n        /* \"#utility.yul\":9867:9869   */\n      0x20\n        /* \"#utility.yul\":9862:9865   */\n      dup3\n        /* \"#utility.yul\":9858:9870   */\n      add\n        /* \"#utility.yul\":9851:9870   */\n      swap1\n      pop\n        /* \"#utility.yul\":9510:9876   */\n      swap2\n      swap1\n      pop\n      jump\t// out\n        /* \"#utility.yul\":9882:10248   */\n    tag_474:\n        /* \"#utility.yul\":10024:10027   */\n      0x00\n        /* \"#utility.yul\":10045:10112   */\n      tag_476\n        /* \"#utility.yul\":10109:10111   */\n      0x26\n        /* \"#utility.yul\":10104:10107   */\n      dup4\n        /* \"#utility.yul\":10045:10112   */\n      tag_460\n      jump\t// in\n    tag_476:\n        /* \"#utility.yul\":10038:10112   */\n      swap2\n      pop\n        /* \"#utility.yul\":10121:10214   */\n      tag_477\n        /* \"#utility.yul\":10210:10213   */\n      dup3\n        /* \"#utility.yul\":10121:10214   */\n      tag_478\n      jump\t// in\n    tag_477:\n        /* \"#utility.yul\":10239:10241   */\n      0x40\n        /* \"#utility.yul\":10234:10237   */\n      dup3\n        /* \"#utility.yul\":10230:10242   */\n      add\n        /* \"#utility.yul\":10223:10242   */\n      swap1\n      pop\n        /* \"#utility.yul\":9882:10248   */\n      swap2\n      swap1\n      pop\n      jump\t// out\n        /* \"#utility.yul\":10254:10620   */\n    tag_479:\n        /* \"#utility.yul\":10396:10399   */\n      0x00\n        /* \"#utility.yul\":10417:10484   */\n      tag_481\n        /* \"#utility.yul\":10481:10483   */\n      0x1f\n        /* \"#utility.yul\":10476:10479   */\n      dup4\n        /* \"#utility.yul\":10417:10484   */\n      tag_460\n      jump\t// in\n    tag_481:\n        /* \"#utility.yul\":10410:10484   */\n      swap2\n      pop\n        /* \"#utility.yul\":10493:10586   */\n      tag_482\n        /* \"#utility.yul\":10582:10585   */\n      dup3\n        /* \"#utility.yul\":10493:10586   */\n      tag_483\n      jump\t// in\n    tag_482:\n        /* \"#utility.yul\":10611:10613   */\n      0x20\n        /* \"#utility.yul\":10606:10609   */\n      dup3\n        /* \"#utility.yul\":10602:10614   */\n      add\n        /* \"#utility.yul\":10595:10614   */\n      swap1\n      pop\n        /* \"#utility.yul\":10254:10620   */\n      swap2\n      swap1\n      pop\n      jump\t// out\n        /* \"#utility.yul\":10626:10992   */\n    tag_484:\n        /* \"#utility.yul\":10768:10771   */\n      0x00\n        /* \"#utility.yul\":10789:10856   */\n      tag_486\n        /* \"#utility.yul\":10853:10855   */\n      0x20\n        /* \"#utility.yul\":10848:10851   */\n      dup4\n        /* \"#utility.yul\":10789:10856   */\n      tag_460\n      jump\t// in\n    tag_486:\n        /* \"#utility.yul\":10782:10856   */\n      swap2\n      pop\n        /* \"#utility.yul\":10865:10958   */\n      tag_487\n        /* \"#utility.yul\":10954:10957   */\n      dup3\n        /* \"#utility.yul\":10865:10958   */\n      tag_488\n      jump\t// in\n    tag_487:\n        /* \"#utility.yul\":10983:10985   */\n      0x20\n        /* \"#utility.yul\":10978:10981   */\n      dup3\n        /* \"#utility.yul\":10974:10986   */\n      add\n        /* \"#utility.yul\":10967:10986   */\n      swap1\n      pop\n        /* \"#utility.yul\":10626:10992   */\n      swap2\n      swap1\n      pop\n      jump\t// out\n        /* \"#utility.yul\":10998:11400   */\n    tag_489:\n        /* \"#utility.yul\":11158:11161   */\n      0x00\n        /* \"#utility.yul\":11179:11264   */\n      tag_491\n        /* \"#utility.yul\":11261:11263   */\n      0x17\n        /* \"#utility.yul\":11256:11259   */\n      dup4\n        /* \"#utility.yul\":11179:11264   */\n      tag_467\n      jump\t// in\n    tag_491:\n        /* \"#utility.yul\":11172:11264   */\n      swap2\n      pop\n        /* \"#utility.yul\":11273:11366   */\n      tag_492\n        /* \"#utility.yul\":11362:11365   */\n      dup3\n        /* \"#utility.yul\":11273:11366   */\n      tag_493\n      jump\t// in\n    tag_492:\n        /* \"#utility.yul\":11391:11393   */\n      0x17\n        /* \"#utility.yul\":11386:11389   */\n      dup3\n        /* \"#utility.yul\":11382:11394   */\n      add\n        /* \"#utility.yul\":11375:11394   */\n      swap1\n      pop\n        /* \"#utility.yul\":10998:11400   */\n      swap2\n      swap1\n      pop\n      jump\t// out\n        /* \"#utility.yul\":11406:11808   */\n    tag_494:\n        /* \"#utility.yul\":11566:11569   */\n      0x00\n        /* \"#utility.yul\":11587:11672   */\n      tag_496\n        /* \"#utility.yul\":11669:11671   */\n      0x11\n        /* \"#utility.yul\":11664:11667   */\n      dup4\n        /* \"#utility.yul\":11587:11672   */\n      tag_467\n      jump\t// in\n    tag_496:\n        /* \"#utility.yul\":11580:11672   */\n      swap2\n      pop\n        /* \"#utility.yul\":11681:11774   */\n      tag_497\n        /* \"#utility.yul\":11770:11773   */\n      dup3\n        /* \"#utility.yul\":11681:11774   */\n      tag_498\n      jump\t// in\n    tag_497:\n        /* \"#utility.yul\":11799:11801   */\n      0x11\n        /* \"#utility.yul\":11794:11797   */\n      dup3\n        /* \"#utility.yul\":11790:11802   */\n      add\n        /* \"#utility.yul\":11783:11802   */\n      swap1\n      pop\n        /* \"#utility.yul\":11406:11808   */\n      swap2\n      swap1\n      pop\n      jump\t// out\n        /* \"#utility.yul\":11814:12180   */\n    tag_499:\n        /* \"#utility.yul\":11956:11959   */\n      0x00\n        /* \"#utility.yul\":11977:12044   */\n      tag_501\n        /* \"#utility.yul\":12041:12043   */\n      0x2f\n        /* \"#utility.yul\":12036:12039   */\n      dup4\n        /* \"#utility.yul\":11977:12044   */\n      tag_460\n      jump\t// in\n    tag_501:\n        /* \"#utility.yul\":11970:12044   */\n      swap2\n      pop\n        /* \"#utility.yul\":12053:12146   */\n      tag_502\n        /* \"#utility.yul\":12142:12145   */\n      dup3\n        /* \"#utility.yul\":12053:12146   */\n      tag_503\n      jump\t// in\n    tag_502:\n        /* \"#utility.yul\":12171:12173   */\n      0x40\n        /* \"#utility.yul\":12166:12169   */\n      dup3\n        /* \"#utility.yul\":12162:12174   */\n      add\n        /* \"#utility.yul\":12155:12174   */\n      swap1\n      pop\n        /* \"#utility.yul\":11814:12180   */\n      swap2\n      swap1\n      pop\n      jump\t// out\n        /* \"#utility.yul\":12240:13094   */\n    tag_504:\n        /* \"#utility.yul\":12361:12364   */\n      0x00\n        /* \"#utility.yul\":12397:12401   */\n      0x60\n        /* \"#utility.yul\":12392:12395   */\n      dup4\n        /* \"#utility.yul\":12388:12402   */\n      add\n        /* \"#utility.yul\":12484:12488   */\n      0x00\n        /* \"#utility.yul\":12477:12482   */\n      dup4\n        /* \"#utility.yul\":12473:12489   */\n      add\n        /* \"#utility.yul\":12467:12490   */\n      mload\n        /* \"#utility.yul\":12537:12540   */\n      dup5\n        /* \"#utility.yul\":12531:12535   */\n      dup3\n        /* \"#utility.yul\":12527:12541   */\n      sub\n        /* \"#utility.yul\":12520:12524   */\n      0x00\n        /* \"#utility.yul\":12515:12518   */\n      dup7\n        /* \"#utility.yul\":12511:12525   */\n      add\n        /* \"#utility.yul\":12504:12542   */\n      mstore\n        /* \"#utility.yul\":12563:12636   */\n      tag_506\n        /* \"#utility.yul\":12631:12635   */\n      dup3\n        /* \"#utility.yul\":12617:12629   */\n      dup3\n        /* \"#utility.yul\":12563:12636   */\n      tag_446\n      jump\t// in\n    tag_506:\n        /* \"#utility.yul\":12555:12636   */\n      swap2\n      pop\n        /* \"#utility.yul\":12412:12647   */\n      pop\n        /* \"#utility.yul\":12729:12733   */\n      0x20\n        /* \"#utility.yul\":12722:12727   */\n      dup4\n        /* \"#utility.yul\":12718:12734   */\n      add\n        /* \"#utility.yul\":12712:12735   */\n      mload\n        /* \"#utility.yul\":12748:12811   */\n      tag_507\n        /* \"#utility.yul\":12805:12809   */\n      0x20\n        /* \"#utility.yul\":12800:12803   */\n      dup7\n        /* \"#utility.yul\":12796:12810   */\n      add\n        /* \"#utility.yul\":12782:12794   */\n      dup3\n        /* \"#utility.yul\":12748:12811   */\n      tag_396\n      jump\t// in\n    tag_507:\n        /* \"#utility.yul\":12657:12821   */\n      pop\n        /* \"#utility.yul\":12904:12908   */\n      0x40\n        /* \"#utility.yul\":12897:12902   */\n      dup4\n        /* \"#utility.yul\":12893:12909   */\n      add\n        /* \"#utility.yul\":12887:12910   */\n      mload\n        /* \"#utility.yul\":12957:12960   */\n      dup5\n        /* \"#utility.yul\":12951:12955   */\n      dup3\n        /* \"#utility.yul\":12947:12961   */\n      sub\n        /* \"#utility.yul\":12940:12944   */\n      0x40\n        /* \"#utility.yul\":12935:12938   */\n      dup7\n        /* \"#utility.yul\":12931:12945   */\n      add\n        /* \"#utility.yul\":12924:12962   */\n      mstore\n        /* \"#utility.yul\":12983:13056   */\n      tag_508\n        /* \"#utility.yul\":13051:13055   */\n      dup3\n        /* \"#utility.yul\":13037:13049   */\n      dup3\n        /* \"#utility.yul\":12983:13056   */\n      tag_446\n      jump\t// in\n    tag_508:\n        /* \"#utility.yul\":12975:13056   */\n      swap2\n      pop\n        /* \"#utility.yul\":12831:13067   */\n      pop\n        /* \"#utility.yul\":13084:13088   */\n      dup1\n        /* \"#utility.yul\":13077:13088   */\n      swap2\n      pop\n        /* \"#utility.yul\":12366:13094   */\n      pop\n        /* \"#utility.yul\":12240:13094   */\n      swap3\n      swap2\n      pop\n      pop\n      jump\t// out\n        /* \"#utility.yul\":13152:14428   */\n    tag_509:\n        /* \"#utility.yul\":13271:13274   */\n      0x00\n        /* \"#utility.yul\":13307:13311   */\n      0xa0\n        /* \"#utility.yul\":13302:13305   */\n      dup4\n        /* \"#utility.yul\":13298:13312   */\n      add\n        /* \"#utility.yul\":13399:13403   */\n      0x00\n        /* \"#utility.yul\":13392:13397   */\n      dup4\n        /* \"#utility.yul\":13388:13404   */\n      add\n        /* \"#utility.yul\":13382:13405   */\n      mload\n        /* \"#utility.yul\":13452:13455   */\n      dup5\n        /* \"#utility.yul\":13446:13450   */\n      dup3\n        /* \"#utility.yul\":13442:13456   */\n      sub\n        /* \"#utility.yul\":13435:13439   */\n      0x00\n        /* \"#utility.yul\":13430:13433   */\n      dup7\n        /* \"#utility.yul\":13426:13440   */\n      add\n        /* \"#utility.yul\":13419:13457   */\n      mstore\n        /* \"#utility.yul\":13478:13581   */\n      tag_511\n        /* \"#utility.yul\":13576:13580   */\n      dup3\n        /* \"#utility.yul\":13562:13574   */\n      dup3\n        /* \"#utility.yul\":13478:13581   */\n      tag_407\n      jump\t// in\n    tag_511:\n        /* \"#utility.yul\":13470:13581   */\n      swap2\n      pop\n        /* \"#utility.yul\":13322:13592   */\n      pop\n        /* \"#utility.yul\":13683:13687   */\n      0x20\n        /* \"#utility.yul\":13676:13681   */\n      dup4\n        /* \"#utility.yul\":13672:13688   */\n      add\n        /* \"#utility.yul\":13666:13689   */\n      mload\n        /* \"#utility.yul\":13736:13739   */\n      dup5\n        /* \"#utility.yul\":13730:13734   */\n      dup3\n        /* \"#utility.yul\":13726:13740   */\n      sub\n        /* \"#utility.yul\":13719:13723   */\n      0x20\n        /* \"#utility.yul\":13714:13717   */\n      dup7\n        /* \"#utility.yul\":13710:13724   */\n      add\n        /* \"#utility.yul\":13703:13741   */\n      mstore\n        /* \"#utility.yul\":13762:13865   */\n      tag_512\n        /* \"#utility.yul\":13860:13864   */\n      dup3\n        /* \"#utility.yul\":13846:13858   */\n      dup3\n        /* \"#utility.yul\":13762:13865   */\n      tag_421\n      jump\t// in\n    tag_512:\n        /* \"#utility.yul\":13754:13865   */\n      swap2\n      pop\n        /* \"#utility.yul\":13602:13876   */\n      pop\n        /* \"#utility.yul\":13959:13963   */\n      0x40\n        /* \"#utility.yul\":13952:13957   */\n      dup4\n        /* \"#utility.yul\":13948:13964   */\n      add\n        /* \"#utility.yul\":13942:13965   */\n      mload\n        /* \"#utility.yul\":13978:14041   */\n      tag_513\n        /* \"#utility.yul\":14035:14039   */\n      0x40\n        /* \"#utility.yul\":14030:14033   */\n      dup7\n        /* \"#utility.yul\":14026:14040   */\n      add\n        /* \"#utility.yul\":14012:14024   */\n      dup3\n        /* \"#utility.yul\":13978:14041   */\n      tag_400\n      jump\t// in\n    tag_513:\n        /* \"#utility.yul\":13886:14051   */\n      pop\n        /* \"#utility.yul\":14137:14141   */\n      0x60\n        /* \"#utility.yul\":14130:14135   */\n      dup4\n        /* \"#utility.yul\":14126:14142   */\n      add\n        /* \"#utility.yul\":14120:14143   */\n      mload\n        /* \"#utility.yul\":14156:14219   */\n      tag_514\n        /* \"#utility.yul\":14213:14217   */\n      0x60\n        /* \"#utility.yul\":14208:14211   */\n      dup7\n        /* \"#utility.yul\":14204:14218   */\n      add\n        /* \"#utility.yul\":14190:14202   */\n      dup3\n        /* \"#utility.yul\":14156:14219   */\n      tag_400\n      jump\t// in\n    tag_514:\n        /* \"#utility.yul\":14061:14229   */\n      pop\n        /* \"#utility.yul\":14315:14319   */\n      0x80\n        /* \"#utility.yul\":14308:14313   */\n      dup4\n        /* \"#utility.yul\":14304:14320   */\n      add\n        /* \"#utility.yul\":14298:14321   */\n      mload\n        /* \"#utility.yul\":14334:14391   */\n      tag_515\n        /* \"#utility.yul\":14385:14389   */\n      0x80\n        /* \"#utility.yul\":14380:14383   */\n      dup7\n        /* \"#utility.yul\":14376:14390   */\n      add\n        /* \"#utility.yul\":14362:14374   */\n      dup3\n        /* \"#utility.yul\":14334:14391   */\n      tag_435\n      jump\t// in\n    tag_515:\n        /* \"#utility.yul\":14239:14401   */\n      pop\n        /* \"#utility.yul\":14418:14422   */\n      dup1\n        /* \"#utility.yul\":14411:14422   */\n      swap2\n      pop\n        /* \"#utility.yul\":13276:14428   */\n      pop\n        /* \"#utility.yul\":13152:14428   */\n      swap3\n      swap2\n      pop\n      pop\n      jump\t// out\n        /* \"#utility.yul\":14434:14542   */\n    tag_400:\n        /* \"#utility.yul\":14511:14535   */\n      tag_517\n        /* \"#utility.yul\":14529:14534   */\n      dup2\n        /* \"#utility.yul\":14511:14535   */\n      tag_518\n      jump\t// in\n    tag_517:\n        /* \"#utility.yul\":14506:14509   */\n      dup3\n        /* \"#utility.yul\":14499:14536   */\n      mstore\n        /* \"#utility.yul\":14434:14542   */\n      pop\n      pop\n      jump\t// out\n        /* \"#utility.yul\":14548:14666   */\n    tag_519:\n        /* \"#utility.yul\":14635:14659   */\n      tag_521\n        /* \"#utility.yul\":14653:14658   */\n      dup2\n        /* \"#utility.yul\":14635:14659   */\n      tag_518\n      jump\t// in\n    tag_521:\n        /* \"#utility.yul\":14630:14633   */\n      dup3\n        /* \"#utility.yul\":14623:14660   */\n      mstore\n        /* \"#utility.yul\":14548:14666   */\n      pop\n      pop\n      jump\t// out\n        /* \"#utility.yul\":14672:15639   */\n    tag_257:\n        /* \"#utility.yul\":15054:15057   */\n      0x00\n        /* \"#utility.yul\":15076:15224   */\n      tag_523\n        /* \"#utility.yul\":15220:15223   */\n      dup3\n        /* \"#utility.yul\":15076:15224   */\n      tag_489\n      jump\t// in\n    tag_523:\n        /* \"#utility.yul\":15069:15224   */\n      swap2\n      pop\n        /* \"#utility.yul\":15241:15336   */\n      tag_524\n        /* \"#utility.yul\":15332:15335   */\n      dup3\n        /* \"#utility.yul\":15323:15329   */\n      dup6\n        /* \"#utility.yul\":15241:15336   */\n      tag_463\n      jump\t// in\n    tag_524:\n        /* \"#utility.yul\":15234:15336   */\n      swap2\n      pop\n        /* \"#utility.yul\":15353:15501   */\n      tag_525\n        /* \"#utility.yul\":15497:15500   */\n      dup3\n        /* \"#utility.yul\":15353:15501   */\n      tag_494\n      jump\t// in\n    tag_525:\n        /* \"#utility.yul\":15346:15501   */\n      swap2\n      pop\n        /* \"#utility.yul\":15518:15613   */\n      tag_526\n        /* \"#utility.yul\":15609:15612   */\n      dup3\n        /* \"#utility.yul\":15600:15606   */\n      dup5\n        /* \"#utility.yul\":15518:15613   */\n      tag_463\n      jump\t// in\n    tag_526:\n        /* \"#utility.yul\":15511:15613   */\n      swap2\n      pop\n        /* \"#utility.yul\":15630:15633   */\n      dup2\n        /* \"#utility.yul\":15623:15633   */\n      swap1\n      pop\n        /* \"#utility.yul\":14672:15639   */\n      swap4\n      swap3\n      pop\n      pop\n      pop\n      jump\t// out\n        /* \"#utility.yul\":15645:15867   */\n    tag_69:\n        /* \"#utility.yul\":15738:15742   */\n      0x00\n        /* \"#utility.yul\":15776:15778   */\n      0x20\n        /* \"#utility.yul\":15765:15774   */\n      dup3\n        /* \"#utility.yul\":15761:15779   */\n      add\n        /* \"#utility.yul\":15753:15779   */\n      swap1\n      pop\n        /* \"#utility.yul\":15789:15860   */\n      tag_528\n        /* \"#utility.yul\":15857:15858   */\n      0x00\n        /* \"#utility.yul\":15846:15855   */\n      dup4\n        /* \"#utility.yul\":15842:15859   */\n      add\n        /* \"#utility.yul\":15833:15839   */\n      dup5\n        /* \"#utility.yul\":15789:15860   */\n      tag_404\n      jump\t// in\n    tag_528:\n        /* \"#utility.yul\":15645:15867   */\n      swap3\n      swap2\n      pop\n      pop\n      jump\t// out\n        /* \"#utility.yul\":15873:16414   */\n    tag_78:\n        /* \"#utility.yul\":16044:16048   */\n      0x00\n        /* \"#utility.yul\":16082:16085   */\n      0x80\n        /* \"#utility.yul\":16071:16080   */\n      dup3\n        /* \"#utility.yul\":16067:16086   */\n      add\n        /* \"#utility.yul\":16059:16086   */\n      swap1\n      pop\n        /* \"#utility.yul\":16096:16167   */\n      tag_530\n        /* \"#utility.yul\":16164:16165   */\n      0x00\n        /* \"#utility.yul\":16153:16162   */\n      dup4\n        /* \"#utility.yul\":16149:16166   */\n      add\n        /* \"#utility.yul\":16140:16146   */\n      dup8\n        /* \"#utility.yul\":16096:16167   */\n      tag_404\n      jump\t// in\n    tag_530:\n        /* \"#utility.yul\":16177:16249   */\n      tag_531\n        /* \"#utility.yul\":16245:16247   */\n      0x20\n        /* \"#utility.yul\":16234:16243   */\n      dup4\n        /* \"#utility.yul\":16230:16248   */\n      add\n        /* \"#utility.yul\":16221:16227   */\n      dup7\n        /* \"#utility.yul\":16177:16249   */\n      tag_519\n      jump\t// in\n    tag_531:\n        /* \"#utility.yul\":16259:16331   */\n      tag_532\n        /* \"#utility.yul\":16327:16329   */\n      0x40\n        /* \"#utility.yul\":16316:16325   */\n      dup4\n        /* \"#utility.yul\":16312:16330   */\n      add\n        /* \"#utility.yul\":16303:16309   */\n      dup6\n        /* \"#utility.yul\":16259:16331   */\n      tag_519\n      jump\t// in\n    tag_532:\n        /* \"#utility.yul\":16341:16407   */\n      tag_533\n        /* \"#utility.yul\":16403:16405   */\n      0x60\n        /* \"#utility.yul\":16392:16401   */\n      dup4\n        /* \"#utility.yul\":16388:16406   */\n      add\n        /* \"#utility.yul\":16379:16385   */\n      dup5\n        /* \"#utility.yul\":16341:16407   */\n      tag_439\n      jump\t// in\n    tag_533:\n        /* \"#utility.yul\":15873:16414   */\n      swap6\n      swap5\n      pop\n      pop\n      pop\n      pop\n      pop\n      jump\t// out\n        /* \"#utility.yul\":16420:16630   */\n    tag_32:\n        /* \"#utility.yul\":16507:16511   */\n      0x00\n        /* \"#utility.yul\":16545:16547   */\n      0x20\n        /* \"#utility.yul\":16534:16543   */\n      dup3\n        /* \"#utility.yul\":16530:16548   */\n      add\n        /* \"#utility.yul\":16522:16548   */\n      swap1\n      pop\n        /* \"#utility.yul\":16558:16623   */\n      tag_535\n        /* \"#utility.yul\":16620:16621   */\n      0x00\n        /* \"#utility.yul\":16609:16618   */\n      dup4\n        /* \"#utility.yul\":16605:16622   */\n      add\n        /* \"#utility.yul\":16596:16602   */\n      dup5\n        /* \"#utility.yul\":16558:16623   */\n      tag_439\n      jump\t// in\n    tag_535:\n        /* \"#utility.yul\":16420:16630   */\n      swap3\n      swap2\n      pop\n      pop\n      jump\t// out\n        /* \"#utility.yul\":16636:16858   */\n    tag_38:\n        /* \"#utility.yul\":16729:16733   */\n      0x00\n        /* \"#utility.yul\":16767:16769   */\n      0x20\n        /* \"#utility.yul\":16756:16765   */\n      dup3\n        /* \"#utility.yul\":16752:16770   */\n      add\n        /* \"#utility.yul\":16744:16770   */\n      swap1\n      pop\n        /* \"#utility.yul\":16780:16851   */\n      tag_537\n        /* \"#utility.yul\":16848:16849   */\n      0x00\n        /* \"#utility.yul\":16837:16846   */\n      dup4\n        /* \"#utility.yul\":16833:16850   */\n      add\n        /* \"#utility.yul\":16824:16830   */\n      dup5\n        /* \"#utility.yul\":16780:16851   */\n      tag_442\n      jump\t// in\n    tag_537:\n        /* \"#utility.yul\":16636:16858   */\n      swap3\n      swap2\n      pop\n      pop\n      jump\t// out\n        /* \"#utility.yul\":16864:17177   */\n    tag_56:\n        /* \"#utility.yul\":16977:16981   */\n      0x00\n        /* \"#utility.yul\":17015:17017   */\n      0x20\n        /* \"#utility.yul\":17004:17013   */\n      dup3\n        /* \"#utility.yul\":17000:17018   */\n      add\n        /* \"#utility.yul\":16992:17018   */\n      swap1\n      pop\n        /* \"#utility.yul\":17064:17073   */\n      dup2\n        /* \"#utility.yul\":17058:17062   */\n      dup2\n        /* \"#utility.yul\":17054:17074   */\n      sub\n        /* \"#utility.yul\":17050:17051   */\n      0x00\n        /* \"#utility.yul\":17039:17048   */\n      dup4\n        /* \"#utility.yul\":17035:17052   */\n      add\n        /* \"#utility.yul\":17028:17075   */\n      mstore\n        /* \"#utility.yul\":17092:17170   */\n      tag_539\n        /* \"#utility.yul\":17165:17169   */\n      dup2\n        /* \"#utility.yul\":17156:17162   */\n      dup5\n        /* \"#utility.yul\":17092:17170   */\n      tag_456\n      jump\t// in\n    tag_539:\n        /* \"#utility.yul\":17084:17170   */\n      swap1\n      pop\n        /* \"#utility.yul\":16864:17177   */\n      swap3\n      swap2\n      pop\n      pop\n      jump\t// out\n        /* \"#utility.yul\":17183:17807   */\n    tag_44:\n        /* \"#utility.yul\":17372:17376   */\n      0x00\n        /* \"#utility.yul\":17410:17412   */\n      0x60\n        /* \"#utility.yul\":17399:17408   */\n      dup3\n        /* \"#utility.yul\":17395:17413   */\n      add\n        /* \"#utility.yul\":17387:17413   */\n      swap1\n      pop\n        /* \"#utility.yul\":17459:17468   */\n      dup2\n        /* \"#utility.yul\":17453:17457   */\n      dup2\n        /* \"#utility.yul\":17449:17469   */\n      sub\n        /* \"#utility.yul\":17445:17446   */\n      0x00\n        /* \"#utility.yul\":17434:17443   */\n      dup4\n        /* \"#utility.yul\":17430:17447   */\n      add\n        /* \"#utility.yul\":17423:17470   */\n      mstore\n        /* \"#utility.yul\":17487:17565   */\n      tag_541\n        /* \"#utility.yul\":17560:17564   */\n      dup2\n        /* \"#utility.yul\":17551:17557   */\n      dup7\n        /* \"#utility.yul\":17487:17565   */\n      tag_456\n      jump\t// in\n    tag_541:\n        /* \"#utility.yul\":17479:17565   */\n      swap1\n      pop\n        /* \"#utility.yul\":17575:17647   */\n      tag_542\n        /* \"#utility.yul\":17643:17645   */\n      0x20\n        /* \"#utility.yul\":17632:17641   */\n      dup4\n        /* \"#utility.yul\":17628:17646   */\n      add\n        /* \"#utility.yul\":17619:17625   */\n      dup6\n        /* \"#utility.yul\":17575:17647   */\n      tag_404\n      jump\t// in\n    tag_542:\n        /* \"#utility.yul\":17694:17703   */\n      dup2\n        /* \"#utility.yul\":17688:17692   */\n      dup2\n        /* \"#utility.yul\":17684:17704   */\n      sub\n        /* \"#utility.yul\":17679:17681   */\n      0x40\n        /* \"#utility.yul\":17668:17677   */\n      dup4\n        /* \"#utility.yul\":17664:17682   */\n      add\n        /* \"#utility.yul\":17657:17705   */\n      mstore\n        /* \"#utility.yul\":17722:17800   */\n      tag_543\n        /* \"#utility.yul\":17795:17799   */\n      dup2\n        /* \"#utility.yul\":17786:17792   */\n      dup5\n        /* \"#utility.yul\":17722:17800   */\n      tag_456\n      jump\t// in\n    tag_543:\n        /* \"#utility.yul\":17714:17800   */\n      swap1\n      pop\n        /* \"#utility.yul\":17183:17807   */\n      swap5\n      swap4\n      pop\n      pop\n      pop\n      pop\n      jump\t// out\n        /* \"#utility.yul\":17813:18232   */\n    tag_285:\n        /* \"#utility.yul\":17979:17983   */\n      0x00\n        /* \"#utility.yul\":18017:18019   */\n      0x20\n        /* \"#utility.yul\":18006:18015   */\n      dup3\n        /* \"#utility.yul\":18002:18020   */\n      add\n        /* \"#utility.yul\":17994:18020   */\n      swap1\n      pop\n        /* \"#utility.yul\":18066:18075   */\n      dup2\n        /* \"#utility.yul\":18060:18064   */\n      dup2\n        /* \"#utility.yul\":18056:18076   */\n      sub\n        /* \"#utility.yul\":18052:18053   */\n      0x00\n        /* \"#utility.yul\":18041:18050   */\n      dup4\n        /* \"#utility.yul\":18037:18054   */\n      add\n        /* \"#utility.yul\":18030:18077   */\n      mstore\n        /* \"#utility.yul\":18094:18225   */\n      tag_545\n        /* \"#utility.yul\":18220:18224   */\n      dup2\n        /* \"#utility.yul\":18094:18225   */\n      tag_469\n      jump\t// in\n    tag_545:\n        /* \"#utility.yul\":18086:18225   */\n      swap1\n      pop\n        /* \"#utility.yul\":17813:18232   */\n      swap2\n      swap1\n      pop\n      jump\t// out\n        /* \"#utility.yul\":18238:18657   */\n    tag_225:\n        /* \"#utility.yul\":18404:18408   */\n      0x00\n        /* \"#utility.yul\":18442:18444   */\n      0x20\n        /* \"#utility.yul\":18431:18440   */\n      dup3\n        /* \"#utility.yul\":18427:18445   */\n      add\n        /* \"#utility.yul\":18419:18445   */\n      swap1\n      pop\n        /* \"#utility.yul\":18491:18500   */\n      dup2\n        /* \"#utility.yul\":18485:18489   */\n      dup2\n        /* \"#utility.yul\":18481:18501   */\n      sub\n        /* \"#utility.yul\":18477:18478   */\n      0x00\n        /* \"#utility.yul\":18466:18475   */\n      dup4\n        /* \"#utility.yul\":18462:18479   */\n      add\n        /* \"#utility.yul\":18455:18502   */\n      mstore\n        /* \"#utility.yul\":18519:18650   */\n      tag_547\n        /* \"#utility.yul\":18645:18649   */\n      dup2\n        /* \"#utility.yul\":18519:18650   */\n      tag_474\n      jump\t// in\n    tag_547:\n        /* \"#utility.yul\":18511:18650   */\n      swap1\n      pop\n        /* \"#utility.yul\":18238:18657   */\n      swap2\n      swap1\n      pop\n      jump\t// out\n        /* \"#utility.yul\":18663:19082   */\n    tag_154:\n        /* \"#utility.yul\":18829:18833   */\n      0x00\n        /* \"#utility.yul\":18867:18869   */\n      0x20\n        /* \"#utility.yul\":18856:18865   */\n      dup3\n        /* \"#utility.yul\":18852:18870   */\n      add\n        /* \"#utility.yul\":18844:18870   */\n      swap1\n      pop\n        /* \"#utility.yul\":18916:18925   */\n      dup2\n        /* \"#utility.yul\":18910:18914   */\n      dup2\n        /* \"#utility.yul\":18906:18926   */\n      sub\n        /* \"#utility.yul\":18902:18903   */\n      0x00\n        /* \"#utility.yul\":18891:18900   */\n      dup4\n        /* \"#utility.yul\":18887:18904   */\n      add\n        /* \"#utility.yul\":18880:18927   */\n      mstore\n        /* \"#utility.yul\":18944:19075   */\n      tag_549\n        /* \"#utility.yul\":19070:19074   */\n      dup2\n        /* \"#utility.yul\":18944:19075   */\n      tag_479\n      jump\t// in\n    tag_549:\n        /* \"#utility.yul\":18936:19075   */\n      swap1\n      pop\n        /* \"#utility.yul\":18663:19082   */\n      swap2\n      swap1\n      pop\n      jump\t// out\n        /* \"#utility.yul\":19088:19507   */\n    tag_246:\n        /* \"#utility.yul\":19254:19258   */\n      0x00\n        /* \"#utility.yul\":19292:19294   */\n      0x20\n        /* \"#utility.yul\":19281:19290   */\n      dup3\n        /* \"#utility.yul\":19277:19295   */\n      add\n        /* \"#utility.yul\":19269:19295   */\n      swap1\n      pop\n        /* \"#utility.yul\":19341:19350   */\n      dup2\n        /* \"#utility.yul\":19335:19339   */\n      dup2\n        /* \"#utility.yul\":19331:19351   */\n      sub\n        /* \"#utility.yul\":19327:19328   */\n      0x00\n        /* \"#utility.yul\":19316:19325   */\n      dup4\n        /* \"#utility.yul\":19312:19329   */\n      add\n        /* \"#utility.yul\":19305:19352   */\n      mstore\n        /* \"#utility.yul\":19369:19500   */\n      tag_551\n        /* \"#utility.yul\":19495:19499   */\n      dup2\n        /* \"#utility.yul\":19369:19500   */\n      tag_484\n      jump\t// in\n    tag_551:\n        /* \"#utility.yul\":19361:19500   */\n      swap1\n      pop\n        /* \"#utility.yul\":19088:19507   */\n      swap2\n      swap1\n      pop\n      jump\t// out\n        /* \"#utility.yul\":19513:19932   */\n    tag_147:\n        /* \"#utility.yul\":19679:19683   */\n      0x00\n        /* \"#utility.yul\":19717:19719   */\n      0x20\n        /* \"#utility.yul\":19706:19715   */\n      dup3\n        /* \"#utility.yul\":19702:19720   */\n      add\n        /* \"#utility.yul\":19694:19720   */\n      swap1\n      pop\n        /* \"#utility.yul\":19766:19775   */\n      dup2\n        /* \"#utility.yul\":19760:19764   */\n      dup2\n        /* \"#utility.yul\":19756:19776   */\n      sub\n        /* \"#utility.yul\":19752:19753   */\n      0x00\n        /* \"#utility.yul\":19741:19750   */\n      dup4\n        /* \"#utility.yul\":19737:19754   */\n      add\n        /* \"#utility.yul\":19730:19777   */\n      mstore\n        /* \"#utility.yul\":19794:19925   */\n      tag_553\n        /* \"#utility.yul\":19920:19924   */\n      dup2\n        /* \"#utility.yul\":19794:19925   */\n      tag_499\n      jump\t// in\n    tag_553:\n        /* \"#utility.yul\":19786:19925   */\n      swap1\n      pop\n        /* \"#utility.yul\":19513:19932   */\n      swap2\n      swap1\n      pop\n      jump\t// out\n        /* \"#utility.yul\":19938:20315   */\n    tag_88:\n        /* \"#utility.yul\":20083:20087   */\n      0x00\n        /* \"#utility.yul\":20121:20123   */\n      0x20\n        /* \"#utility.yul\":20110:20119   */\n      dup3\n        /* \"#utility.yul\":20106:20124   */\n      add\n        /* \"#utility.yul\":20098:20124   */\n      swap1\n      pop\n        /* \"#utility.yul\":20170:20179   */\n      dup2\n        /* \"#utility.yul\":20164:20168   */\n      dup2\n        /* \"#utility.yul\":20160:20180   */\n      sub\n        /* \"#utility.yul\":20156:20157   */\n      0x00\n        /* \"#utility.yul\":20145:20154   */\n      dup4\n        /* \"#utility.yul\":20141:20158   */\n      add\n        /* \"#utility.yul\":20134:20181   */\n      mstore\n        /* \"#utility.yul\":20198:20308   */\n      tag_555\n        /* \"#utility.yul\":20303:20307   */\n      dup2\n        /* \"#utility.yul\":20294:20300   */\n      dup5\n        /* \"#utility.yul\":20198:20308   */\n      tag_504\n      jump\t// in\n    tag_555:\n        /* \"#utility.yul\":20190:20308   */\n      swap1\n      pop\n        /* \"#utility.yul\":19938:20315   */\n      swap3\n      swap2\n      pop\n      pop\n      jump\t// out\n        /* \"#utility.yul\":20321:20694   */\n    tag_83:\n        /* \"#utility.yul\":20464:20468   */\n      0x00\n        /* \"#utility.yul\":20502:20504   */\n      0x20\n        /* \"#utility.yul\":20491:20500   */\n      dup3\n        /* \"#utility.yul\":20487:20505   */\n      add\n        /* \"#utility.yul\":20479:20505   */\n      swap1\n      pop\n        /* \"#utility.yul\":20551:20560   */\n      dup2\n        /* \"#utility.yul\":20545:20549   */\n      dup2\n        /* \"#utility.yul\":20541:20561   */\n      sub\n        /* \"#utility.yul\":20537:20538   */\n      0x00\n        /* \"#utility.yul\":20526:20535   */\n      dup4\n        /* \"#utility.yul\":20522:20539   */\n      add\n        /* \"#utility.yul\":20515:20562   */\n      mstore\n        /* \"#utility.yul\":20579:20687   */\n      tag_557\n        /* \"#utility.yul\":20682:20686   */\n      dup2\n        /* \"#utility.yul\":20673:20679   */\n      dup5\n        /* \"#utility.yul\":20579:20687   */\n      tag_509\n      jump\t// in\n    tag_557:\n        /* \"#utility.yul\":20571:20687   */\n      swap1\n      pop\n        /* \"#utility.yul\":20321:20694   */\n      swap3\n      swap2\n      pop\n      pop\n      jump\t// out\n        /* \"#utility.yul\":20700:20829   */\n    tag_309:\n        /* \"#utility.yul\":20734:20740   */\n      0x00\n        /* \"#utility.yul\":20761:20781   */\n      tag_559\n      tag_560\n      jump\t// in\n    tag_559:\n        /* \"#utility.yul\":20751:20781   */\n      swap1\n      pop\n        /* \"#utility.yul\":20790:20823   */\n      tag_561\n        /* \"#utility.yul\":20818:20822   */\n      dup3\n        /* \"#utility.yul\":20810:20816   */\n      dup3\n        /* \"#utility.yul\":20790:20823   */\n      tag_562\n      jump\t// in\n    tag_561:\n        /* \"#utility.yul\":20700:20829   */\n      swap2\n      swap1\n      pop\n      jump\t// out\n        /* \"#utility.yul\":20835:20910   */\n    tag_560:\n        /* \"#utility.yul\":20868:20874   */\n      0x00\n        /* \"#utility.yul\":20901:20903   */\n      0x40\n        /* \"#utility.yul\":20895:20904   */\n      mload\n        /* \"#utility.yul\":20885:20904   */\n      swap1\n      pop\n        /* \"#utility.yul\":20835:20910   */\n      swap1\n      jump\t// out\n        /* \"#utility.yul\":20916:21227   */\n    tag_308:\n        /* \"#utility.yul\":20993:20997   */\n      0x00\n        /* \"#utility.yul\":21083:21101   */\n      0xffffffffffffffff\n        /* \"#utility.yul\":21075:21081   */\n      dup3\n        /* \"#utility.yul\":21072:21102   */\n      gt\n        /* \"#utility.yul\":21069:21125   */\n      iszero\n      tag_565\n      jumpi\n        /* \"#utility.yul\":21105:21123   */\n      tag_566\n      tag_266\n      jump\t// in\n    tag_566:\n        /* \"#utility.yul\":21069:21125   */\n    tag_565:\n        /* \"#utility.yul\":21155:21159   */\n      0x20\n        /* \"#utility.yul\":21147:21153   */\n      dup3\n        /* \"#utility.yul\":21143:21160   */\n      mul\n        /* \"#utility.yul\":21135:21160   */\n      swap1\n      pop\n        /* \"#utility.yul\":21215:21219   */\n      0x20\n        /* \"#utility.yul\":21209:21213   */\n      dup2\n        /* \"#utility.yul\":21205:21220   */\n      add\n        /* \"#utility.yul\":21197:21220   */\n      swap1\n      pop\n        /* \"#utility.yul\":20916:21227   */\n      swap2\n      swap1\n      pop\n      jump\t// out\n        /* \"#utility.yul\":21233:21541   */\n    tag_322:\n        /* \"#utility.yul\":21295:21299   */\n      0x00\n        /* \"#utility.yul\":21385:21403   */\n      0xffffffffffffffff\n        /* \"#utility.yul\":21377:21383   */\n      dup3\n        /* \"#utility.yul\":21374:21404   */\n      gt\n        /* \"#utility.yul\":21371:21427   */\n      iszero\n      tag_568\n      jumpi\n        /* \"#utility.yul\":21407:21425   */\n      tag_569\n      tag_266\n      jump\t// in\n    tag_569:\n        /* \"#utility.yul\":21371:21427   */\n    tag_568:\n        /* \"#utility.yul\":21445:21474   */\n      tag_570\n        /* \"#utility.yul\":21467:21473   */\n      dup3\n        /* \"#utility.yul\":21445:21474   */\n      tag_455\n      jump\t// in\n    tag_570:\n        /* \"#utility.yul\":21437:21474   */\n      swap1\n      pop\n        /* \"#utility.yul\":21529:21533   */\n      0x20\n        /* \"#utility.yul\":21523:21527   */\n      dup2\n        /* \"#utility.yul\":21519:21534   */\n      add\n        /* \"#utility.yul\":21511:21534   */\n      swap1\n      pop\n        /* \"#utility.yul\":21233:21541   */\n      swap2\n      swap1\n      pop\n      jump\t// out\n        /* \"#utility.yul\":21547:21679   */\n    tag_414:\n        /* \"#utility.yul\":21614:21618   */\n      0x00\n        /* \"#utility.yul\":21637:21640   */\n      dup2\n        /* \"#utility.yul\":21629:21640   */\n      swap1\n      pop\n        /* \"#utility.yul\":21667:21671   */\n      0x20\n        /* \"#utility.yul\":21662:21665   */\n      dup3\n        /* \"#utility.yul\":21658:21672   */\n      add\n        /* \"#utility.yul\":21650:21672   */\n      swap1\n      pop\n        /* \"#utility.yul\":21547:21679   */\n      swap2\n      swap1\n      pop\n      jump\t// out\n        /* \"#utility.yul\":21685:21817   */\n    tag_428:\n        /* \"#utility.yul\":21752:21756   */\n      0x00\n        /* \"#utility.yul\":21775:21778   */\n      dup2\n        /* \"#utility.yul\":21767:21778   */\n      swap1\n      pop\n        /* \"#utility.yul\":21805:21809   */\n      0x20\n        /* \"#utility.yul\":21800:21803   */\n      dup3\n        /* \"#utility.yul\":21796:21810   */\n      add\n        /* \"#utility.yul\":21788:21810   */\n      swap1\n      pop\n        /* \"#utility.yul\":21685:21817   */\n      swap2\n      swap1\n      pop\n      jump\t// out\n        /* \"#utility.yul\":21823:21937   */\n    tag_410:\n        /* \"#utility.yul\":21890:21896   */\n      0x00\n        /* \"#utility.yul\":21924:21929   */\n      dup2\n        /* \"#utility.yul\":21918:21930   */\n      mload\n        /* \"#utility.yul\":21908:21930   */\n      swap1\n      pop\n        /* \"#utility.yul\":21823:21937   */\n      swap2\n      swap1\n      pop\n      jump\t// out\n        /* \"#utility.yul\":21943:22057   */\n    tag_424:\n        /* \"#utility.yul\":22010:22016   */\n      0x00\n        /* \"#utility.yul\":22044:22049   */\n      dup2\n        /* \"#utility.yul\":22038:22050   */\n      mload\n        /* \"#utility.yul\":22028:22050   */\n      swap1\n      pop\n        /* \"#utility.yul\":21943:22057   */\n      swap2\n      swap1\n      pop\n      jump\t// out\n        /* \"#utility.yul\":22063:22162   */\n    tag_449:\n        /* \"#utility.yul\":22115:22121   */\n      0x00\n        /* \"#utility.yul\":22149:22154   */\n      dup2\n        /* \"#utility.yul\":22143:22155   */\n      mload\n        /* \"#utility.yul\":22133:22155   */\n      swap1\n      pop\n        /* \"#utility.yul\":22063:22162   */\n      swap2\n      swap1\n      pop\n      jump\t// out\n        /* \"#utility.yul\":22168:22281   */\n    tag_420:\n        /* \"#utility.yul\":22238:22242   */\n      0x00\n        /* \"#utility.yul\":22270:22274   */\n      0x20\n        /* \"#utility.yul\":22265:22268   */\n      dup3\n        /* \"#utility.yul\":22261:22275   */\n      add\n        /* \"#utility.yul\":22253:22275   */\n      swap1\n      pop\n        /* \"#utility.yul\":22168:22281   */\n      swap2\n      swap1\n      pop\n      jump\t// out\n        /* \"#utility.yul\":22287:22400   */\n    tag_434:\n        /* \"#utility.yul\":22357:22361   */\n      0x00\n        /* \"#utility.yul\":22389:22393   */\n      0x20\n        /* \"#utility.yul\":22384:22387   */\n      dup3\n        /* \"#utility.yul\":22380:22394   */\n      add\n        /* \"#utility.yul\":22372:22394   */\n      swap1\n      pop\n        /* \"#utility.yul\":22287:22400   */\n      swap2\n      swap1\n      pop\n      jump\t// out\n        /* \"#utility.yul\":22406:22580   */\n    tag_412:\n        /* \"#utility.yul\":22495:22506   */\n      0x00\n        /* \"#utility.yul\":22529:22535   */\n      dup3\n        /* \"#utility.yul\":22524:22527   */\n      dup3\n        /* \"#utility.yul\":22517:22536   */\n      mstore\n        /* \"#utility.yul\":22569:22573   */\n      0x20\n        /* \"#utility.yul\":22564:22567   */\n      dup3\n        /* \"#utility.yul\":22560:22574   */\n      add\n        /* \"#utility.yul\":22545:22574   */\n      swap1\n      pop\n        /* \"#utility.yul\":22406:22580   */\n      swap3\n      swap2\n      pop\n      pop\n      jump\t// out\n        /* \"#utility.yul\":22586:22760   */\n    tag_426:\n        /* \"#utility.yul\":22675:22686   */\n      0x00\n        /* \"#utility.yul\":22709:22715   */\n      dup3\n        /* \"#utility.yul\":22704:22707   */\n      dup3\n        /* \"#utility.yul\":22697:22716   */\n      mstore\n        /* \"#utility.yul\":22749:22753   */\n      0x20\n        /* \"#utility.yul\":22744:22747   */\n      dup3\n        /* \"#utility.yul\":22740:22754   */\n      add\n        /* \"#utility.yul\":22725:22754   */\n      swap1\n      pop\n        /* \"#utility.yul\":22586:22760   */\n      swap3\n      swap2\n      pop\n      pop\n      jump\t// out\n        /* \"#utility.yul\":22766:22925   */\n    tag_451:\n        /* \"#utility.yul\":22840:22851   */\n      0x00\n        /* \"#utility.yul\":22874:22880   */\n      dup3\n        /* \"#utility.yul\":22869:22872   */\n      dup3\n        /* \"#utility.yul\":22862:22881   */\n      mstore\n        /* \"#utility.yul\":22914:22918   */\n      0x20\n        /* \"#utility.yul\":22909:22912   */\n      dup3\n        /* \"#utility.yul\":22905:22919   */\n      add\n        /* \"#utility.yul\":22890:22919   */\n      swap1\n      pop\n        /* \"#utility.yul\":22766:22925   */\n      swap3\n      swap2\n      pop\n      pop\n      jump\t// out\n        /* \"#utility.yul\":22931:23100   */\n    tag_460:\n        /* \"#utility.yul\":23015:23026   */\n      0x00\n        /* \"#utility.yul\":23049:23055   */\n      dup3\n        /* \"#utility.yul\":23044:23047   */\n      dup3\n        /* \"#utility.yul\":23037:23056   */\n      mstore\n        /* \"#utility.yul\":23089:23093   */\n      0x20\n        /* \"#utility.yul\":23084:23087   */\n      dup3\n        /* \"#utility.yul\":23080:23094   */\n      add\n        /* \"#utility.yul\":23065:23094   */\n      swap1\n      pop\n        /* \"#utility.yul\":22931:23100   */\n      swap3\n      swap2\n      pop\n      pop\n      jump\t// out\n        /* \"#utility.yul\":23106:23254   */\n    tag_467:\n        /* \"#utility.yul\":23208:23219   */\n      0x00\n        /* \"#utility.yul\":23245:23248   */\n      dup2\n        /* \"#utility.yul\":23230:23248   */\n      swap1\n      pop\n        /* \"#utility.yul\":23106:23254   */\n      swap3\n      swap2\n      pop\n      pop\n      jump\t// out\n        /* \"#utility.yul\":23260:23565   */\n    tag_263:\n        /* \"#utility.yul\":23300:23303   */\n      0x00\n        /* \"#utility.yul\":23319:23339   */\n      tag_584\n        /* \"#utility.yul\":23337:23338   */\n      dup3\n        /* \"#utility.yul\":23319:23339   */\n      tag_518\n      jump\t// in\n    tag_584:\n        /* \"#utility.yul\":23314:23339   */\n      swap2\n      pop\n        /* \"#utility.yul\":23353:23373   */\n      tag_585\n        /* \"#utility.yul\":23371:23372   */\n      dup4\n        /* \"#utility.yul\":23353:23373   */\n      tag_518\n      jump\t// in\n    tag_585:\n        /* \"#utility.yul\":23348:23373   */\n      swap3\n      pop\n        /* \"#utility.yul\":23507:23508   */\n      dup3\n        /* \"#utility.yul\":23439:23505   */\n      0xffffffffffffffffffffffffffffffffffffffffffffffffffffffffffffffff\n        /* \"#utility.yul\":23435:23509   */\n      sub\n        /* \"#utility.yul\":23432:23433   */\n      dup3\n        /* \"#utility.yul\":23429:23510   */\n      gt\n        /* \"#utility.yul\":23426:23533   */\n      iszero\n      tag_586\n      jumpi\n        /* \"#utility.yul\":23513:23531   */\n      tag_587\n      tag_588\n      jump\t// in\n    tag_587:\n        /* \"#utility.yul\":23426:23533   */\n    tag_586:\n        /* \"#utility.yul\":23557:23558   */\n      dup3\n        /* \"#utility.yul\":23554:23555   */\n      dup3\n        /* \"#utility.yul\":23550:23559   */\n      add\n        /* \"#utility.yul\":23543:23559   */\n      swap1\n      pop\n        /* \"#utility.yul\":23260:23565   */\n      swap3\n      swap2\n      pop\n      pop\n      jump\t// out\n        /* \"#utility.yul\":23571:23919   */\n    tag_261:\n        /* \"#utility.yul\":23611:23618   */\n      0x00\n        /* \"#utility.yul\":23634:23654   */\n      tag_590\n        /* \"#utility.yul\":23652:23653   */\n      dup3\n        /* \"#utility.yul\":23634:23654   */\n      tag_518\n      jump\t// in\n    tag_590:\n        /* \"#utility.yul\":23629:23654   */\n      swap2\n      pop\n        /* \"#utility.yul\":23668:23688   */\n      tag_591\n        /* \"#utility.yul\":23686:23687   */\n      dup4\n        /* \"#utility.yul\":23668:23688   */\n      tag_518\n      jump\t// in\n    tag_591:\n        /* \"#utility.yul\":23663:23688   */\n      swap3\n      pop\n        /* \"#utility.yul\":23856:23857   */\n      dup2\n        /* \"#utility.yul\":23788:23854   */\n      0xffffffffffffffffffffffffffffffffffffffffffffffffffffffffffffffff\n        /* \"#utility.yul\":23784:23858   */\n      div\n        /* \"#utility.yul\":23781:23782   */\n      dup4\n        /* \"#utility.yul\":23778:23859   */\n      gt\n        /* \"#utility.yul\":23773:23774   */\n      dup3\n        /* \"#utility.yul\":23766:23775   */\n      iszero\n        /* \"#utility.yul\":23759:23776   */\n      iszero\n        /* \"#utility.yul\":23755:23860   */\n      and\n        /* \"#utility.yul\":23752:23883   */\n      iszero\n      tag_592\n      jumpi\n        /* \"#utility.yul\":23863:23881   */\n      tag_593\n      tag_588\n      jump\t// in\n    tag_593:\n        /* \"#utility.yul\":23752:23883   */\n    tag_592:\n        /* \"#utility.yul\":23911:23912   */\n      dup3\n        /* \"#utility.yul\":23908:23909   */\n      dup3\n        /* \"#utility.yul\":23904:23913   */\n      mul\n        /* \"#utility.yul\":23893:23913   */\n      swap1\n      pop\n        /* \"#utility.yul\":23571:23919   */\n      swap3\n      swap2\n      pop\n      pop\n      jump\t// out\n        /* \"#utility.yul\":23925:24021   */\n    tag_403:\n        /* \"#utility.yul\":23962:23969   */\n      0x00\n        /* \"#utility.yul\":23991:24015   */\n      tag_595\n        /* \"#utility.yul\":24009:24014   */\n      dup3\n        /* \"#utility.yul\":23991:24015   */\n      tag_596\n      jump\t// in\n    tag_595:\n        /* \"#utility.yul\":23980:24015   */\n      swap1\n      pop\n        /* \"#utility.yul\":23925:24021   */\n      swap2\n      swap1\n      pop\n      jump\t// out\n        /* \"#utility.yul\":24027:24117   */\n    tag_438:\n        /* \"#utility.yul\":24061:24068   */\n      0x00\n        /* \"#utility.yul\":24104:24109   */\n      dup2\n        /* \"#utility.yul\":24097:24110   */\n      iszero\n        /* \"#utility.yul\":24090:24111   */\n      iszero\n        /* \"#utility.yul\":24079:24111   */\n      swap1\n      pop\n        /* \"#utility.yul\":24027:24117   */\n      swap2\n      swap1\n      pop\n      jump\t// out\n        /* \"#utility.yul\":24123:24200   */\n    tag_445:\n        /* \"#utility.yul\":24160:24167   */\n      0x00\n        /* \"#utility.yul\":24189:24194   */\n      dup2\n        /* \"#utility.yul\":24178:24194   */\n      swap1\n      pop\n        /* \"#utility.yul\":24123:24200   */\n      swap2\n      swap1\n      pop\n      jump\t// out\n        /* \"#utility.yul\":24206:24355   */\n    tag_599:\n        /* \"#utility.yul\":24242:24249   */\n      0x00\n        /* \"#utility.yul\":24282:24348   */\n      0xffffffff00000000000000000000000000000000000000000000000000000000\n        /* \"#utility.yul\":24275:24280   */\n      dup3\n        /* \"#utility.yul\":24271:24349   */\n      and\n        /* \"#utility.yul\":24260:24349   */\n      swap1\n      pop\n        /* \"#utility.yul\":24206:24355   */\n      swap2\n      swap1\n      pop\n      jump\t// out\n        /* \"#utility.yul\":24361:24487   */\n    tag_596:\n        /* \"#utility.yul\":24398:24405   */\n      0x00\n        /* \"#utility.yul\":24438:24480   */\n      0xffffffffffffffffffffffffffffffffffffffff\n        /* \"#utility.yul\":24431:24436   */\n      dup3\n        /* \"#utility.yul\":24427:24481   */\n      and\n        /* \"#utility.yul\":24416:24481   */\n      swap1\n      pop\n        /* \"#utility.yul\":24361:24487   */\n      swap2\n      swap1\n      pop\n      jump\t// out\n        /* \"#utility.yul\":24493:24570   */\n    tag_518:\n        /* \"#utility.yul\":24530:24537   */\n      0x00\n        /* \"#utility.yul\":24559:24564   */\n      dup2\n        /* \"#utility.yul\":24548:24564   */\n      swap1\n      pop\n        /* \"#utility.yul\":24493:24570   */\n      swap2\n      swap1\n      pop\n      jump\t// out\n        /* \"#utility.yul\":24576:24730   */\n    tag_327:\n        /* \"#utility.yul\":24660:24666   */\n      dup3\n        /* \"#utility.yul\":24655:24658   */\n      dup2\n        /* \"#utility.yul\":24650:24653   */\n      dup4\n        /* \"#utility.yul\":24637:24667   */\n      calldatacopy\n        /* \"#utility.yul\":24722:24723   */\n      0x00\n        /* \"#utility.yul\":24713:24719   */\n      dup4\n        /* \"#utility.yul\":24708:24711   */\n      dup4\n        /* \"#utility.yul\":24704:24720   */\n      add\n        /* \"#utility.yul\":24697:24724   */\n      mstore\n        /* \"#utility.yul\":24576:24730   */\n      pop\n      pop\n      pop\n      jump\t// out\n        /* \"#utility.yul\":24736:25043   */\n    tag_453:\n        /* \"#utility.yul\":24804:24805   */\n      0x00\n        /* \"#utility.yul\":24814:24927   */\n    tag_605:\n        /* \"#utility.yul\":24828:24834   */\n      dup4\n        /* \"#utility.yul\":24825:24826   */\n      dup2\n        /* \"#utility.yul\":24822:24835   */\n      lt\n        /* \"#utility.yul\":24814:24927   */\n      iszero\n      tag_607\n      jumpi\n        /* \"#utility.yul\":24913:24914   */\n      dup1\n        /* \"#utility.yul\":24908:24911   */\n      dup3\n        /* \"#utility.yul\":24904:24915   */\n      add\n        /* \"#utility.yul\":24898:24916   */\n      mload\n        /* \"#utility.yul\":24894:24895   */\n      dup2\n        /* \"#utility.yul\":24889:24892   */\n      dup5\n        /* \"#utility.yul\":24885:24896   */\n      add\n        /* \"#utility.yul\":24878:24917   */\n      mstore\n        /* \"#utility.yul\":24850:24852   */\n      0x20\n        /* \"#utility.yul\":24847:24848   */\n      dup2\n        /* \"#utility.yul\":24843:24853   */\n      add\n        /* \"#utility.yul\":24838:24853   */\n      swap1\n      pop\n        /* \"#utility.yul\":24814:24927   */\n      jump(tag_605)\n    tag_607:\n        /* \"#utility.yul\":24945:24951   */\n      dup4\n        /* \"#utility.yul\":24942:24943   */\n      dup2\n        /* \"#utility.yul\":24939:24952   */\n      gt\n        /* \"#utility.yul\":24936:25037   */\n      iszero\n      tag_608\n      jumpi\n        /* \"#utility.yul\":25025:25026   */\n      0x00\n        /* \"#utility.yul\":25016:25022   */\n      dup5\n        /* \"#utility.yul\":25011:25014   */\n      dup5\n        /* \"#utility.yul\":25007:25023   */\n      add\n        /* \"#utility.yul\":25000:25027   */\n      mstore\n        /* \"#utility.yul\":24936:25037   */\n    tag_608:\n        /* \"#utility.yul\":24785:25043   */\n      pop\n        /* \"#utility.yul\":24736:25043   */\n      pop\n      pop\n      pop\n      jump\t// out\n        /* \"#utility.yul\":25049:25220   */\n    tag_282:\n        /* \"#utility.yul\":25088:25091   */\n      0x00\n        /* \"#utility.yul\":25111:25135   */\n      tag_610\n        /* \"#utility.yul\":25129:25134   */\n      dup3\n        /* \"#utility.yul\":25111:25135   */\n      tag_518\n      jump\t// in\n    tag_610:\n        /* \"#utility.yul\":25102:25135   */\n      swap2\n      pop\n        /* \"#utility.yul\":25157:25161   */\n      0x00\n        /* \"#utility.yul\":25150:25155   */\n      dup3\n        /* \"#utility.yul\":25147:25162   */\n      eq\n        /* \"#utility.yul\":25144:25185   */\n      iszero\n      tag_611\n      jumpi\n        /* \"#utility.yul\":25165:25183   */\n      tag_612\n      tag_588\n      jump\t// in\n    tag_612:\n        /* \"#utility.yul\":25144:25185   */\n    tag_611:\n        /* \"#utility.yul\":25212:25213   */\n      0x01\n        /* \"#utility.yul\":25205:25210   */\n      dup3\n        /* \"#utility.yul\":25201:25214   */\n      sub\n        /* \"#utility.yul\":25194:25214   */\n      swap1\n      pop\n        /* \"#utility.yul\":25049:25220   */\n      swap2\n      swap1\n      pop\n      jump\t// out\n        /* \"#utility.yul\":25226:25546   */\n    tag_118:\n        /* \"#utility.yul\":25270:25276   */\n      0x00\n        /* \"#utility.yul\":25307:25308   */\n      0x02\n        /* \"#utility.yul\":25301:25305   */\n      dup3\n        /* \"#utility.yul\":25297:25309   */\n      div\n        /* \"#utility.yul\":25287:25309   */\n      swap1\n      pop\n        /* \"#utility.yul\":25354:25355   */\n      0x01\n        /* \"#utility.yul\":25348:25352   */\n      dup3\n        /* \"#utility.yul\":25344:25356   */\n      and\n        /* \"#utility.yul\":25375:25393   */\n      dup1\n        /* \"#utility.yul\":25365:25446   */\n      tag_614\n      jumpi\n        /* \"#utility.yul\":25431:25435   */\n      0x7f\n        /* \"#utility.yul\":25423:25429   */\n      dup3\n        /* \"#utility.yul\":25419:25436   */\n      and\n        /* \"#utility.yul\":25409:25436   */\n      swap2\n      pop\n        /* \"#utility.yul\":25365:25446   */\n    tag_614:\n        /* \"#utility.yul\":25493:25495   */\n      0x20\n        /* \"#utility.yul\":25485:25491   */\n      dup3\n        /* \"#utility.yul\":25482:25496   */\n      lt\n        /* \"#utility.yul\":25462:25480   */\n      dup2\n        /* \"#utility.yul\":25459:25497   */\n      eq\n        /* \"#utility.yul\":25456:25540   */\n      iszero\n      tag_615\n      jumpi\n        /* \"#utility.yul\":25512:25530   */\n      tag_616\n      tag_617\n      jump\t// in\n    tag_616:\n        /* \"#utility.yul\":25456:25540   */\n    tag_615:\n        /* \"#utility.yul\":25277:25546   */\n      pop\n        /* \"#utility.yul\":25226:25546   */\n      swap2\n      swap1\n      pop\n      jump\t// out\n        /* \"#utility.yul\":25552:25833   */\n    tag_562:\n        /* \"#utility.yul\":25635:25662   */\n      tag_619\n        /* \"#utility.yul\":25657:25661   */\n      dup3\n        /* \"#utility.yul\":25635:25662   */\n      tag_455\n      jump\t// in\n    tag_619:\n        /* \"#utility.yul\":25627:25633   */\n      dup2\n        /* \"#utility.yul\":25623:25663   */\n      add\n        /* \"#utility.yul\":25765:25771   */\n      dup2\n        /* \"#utility.yul\":25753:25763   */\n      dup2\n        /* \"#utility.yul\":25750:25772   */\n      lt\n        /* \"#utility.yul\":25729:25747   */\n      0xffffffffffffffff\n        /* \"#utility.yul\":25717:25727   */\n      dup3\n        /* \"#utility.yul\":25714:25748   */\n      gt\n        /* \"#utility.yul\":25711:25773   */\n      or\n        /* \"#utility.yul\":25708:25796   */\n      iszero\n      tag_620\n      jumpi\n        /* \"#utility.yul\":25776:25794   */\n      tag_621\n      tag_266\n      jump\t// in\n    tag_621:\n        /* \"#utility.yul\":25708:25796   */\n    tag_620:\n        /* \"#utility.yul\":25816:25826   */\n      dup1\n        /* \"#utility.yul\":25812:25814   */\n      0x40\n        /* \"#utility.yul\":25805:25827   */\n      mstore\n        /* \"#utility.yul\":25595:25833   */\n      pop\n        /* \"#utility.yul\":25552:25833   */\n      pop\n      pop\n      jump\t// out\n        /* \"#utility.yul\":25839:26072   */\n    tag_164:\n        /* \"#utility.yul\":25878:25881   */\n      0x00\n        /* \"#utility.yul\":25901:25925   */\n      tag_623\n        /* \"#utility.yul\":25919:25924   */\n      dup3\n        /* \"#utility.yul\":25901:25925   */\n      tag_518\n      jump\t// in\n    tag_623:\n        /* \"#utility.yul\":25892:25925   */\n      swap2\n      pop\n        /* \"#utility.yul\":25947:26013   */\n      0xffffffffffffffffffffffffffffffffffffffffffffffffffffffffffffffff\n        /* \"#utility.yul\":25940:25945   */\n      dup3\n        /* \"#utility.yul\":25937:26014   */\n      eq\n        /* \"#utility.yul\":25934:26037   */\n      iszero\n      tag_624\n      jumpi\n        /* \"#utility.yul\":26017:26035   */\n      tag_625\n      tag_588\n      jump\t// in\n    tag_625:\n        /* \"#utility.yul\":25934:26037   */\n    tag_624:\n        /* \"#utility.yul\":26064:26065   */\n      0x01\n        /* \"#utility.yul\":26057:26062   */\n      dup3\n        /* \"#utility.yul\":26053:26066   */\n      add\n        /* \"#utility.yul\":26046:26066   */\n      swap1\n      pop\n        /* \"#utility.yul\":25839:26072   */\n      swap2\n      swap1\n      pop\n      jump\t// out\n        /* \"#utility.yul\":26078:26258   */\n    tag_588:\n        /* \"#utility.yul\":26126:26203   */\n      0x4e487b7100000000000000000000000000000000000000000000000000000000\n        /* \"#utility.yul\":26123:26124   */\n      0x00\n        /* \"#utility.yul\":26116:26204   */\n      mstore\n        /* \"#utility.yul\":26223:26227   */\n      0x11\n        /* \"#utility.yul\":26220:26221   */\n      0x04\n        /* \"#utility.yul\":26213:26228   */\n      mstore\n        /* \"#utility.yul\":26247:26251   */\n      0x24\n        /* \"#utility.yul\":26244:26245   */\n      0x00\n        /* \"#utility.yul\":26237:26252   */\n      revert\n        /* \"#utility.yul\":26264:26444   */\n    tag_617:\n        /* \"#utility.yul\":26312:26389   */\n      0x4e487b7100000000000000000000000000000000000000000000000000000000\n        /* \"#utility.yul\":26309:26310   */\n      0x00\n        /* \"#utility.yul\":26302:26390   */\n      mstore\n        /* \"#utility.yul\":26409:26413   */\n      0x22\n        /* \"#utility.yul\":26406:26407   */\n      0x04\n        /* \"#utility.yul\":26399:26414   */\n      mstore\n        /* \"#utility.yul\":26433:26437   */\n      0x24\n        /* \"#utility.yul\":26430:26431   */\n      0x00\n        /* \"#utility.yul\":26423:26438   */\n      revert\n        /* \"#utility.yul\":26450:26630   */\n    tag_161:\n        /* \"#utility.yul\":26498:26575   */\n      0x4e487b7100000000000000000000000000000000000000000000000000000000\n        /* \"#utility.yul\":26495:26496   */\n      0x00\n        /* \"#utility.yul\":26488:26576   */\n      mstore\n        /* \"#utility.yul\":26595:26599   */\n      0x32\n        /* \"#utility.yul\":26592:26593   */\n      0x04\n        /* \"#utility.yul\":26585:26600   */\n      mstore\n        /* \"#utility.yul\":26619:26623   */\n      0x24\n        /* \"#utility.yul\":26616:26617   */\n      0x00\n        /* \"#utility.yul\":26609:26624   */\n      revert\n        /* \"#utility.yul\":26636:26816   */\n    tag_266:\n        /* \"#utility.yul\":26684:26761   */\n      0x4e487b7100000000000000000000000000000000000000000000000000000000\n        /* \"#utility.yul\":26681:26682   */\n      0x00\n        /* \"#utility.yul\":26674:26762   */\n      mstore\n        /* \"#utility.yul\":26781:26785   */\n      0x41\n        /* \"#utility.yul\":26778:26779   */\n      0x04\n        /* \"#utility.yul\":26771:26786   */\n      mstore\n        /* \"#utility.yul\":26805:26809   */\n      0x24\n        /* \"#utility.yul\":26802:26803   */\n      0x00\n        /* \"#utility.yul\":26795:26810   */\n      revert\n        /* \"#utility.yul\":26822:26939   */\n    tag_335:\n        /* \"#utility.yul\":26931:26932   */\n      0x00\n        /* \"#utility.yul\":26928:26929   */\n      dup1\n        /* \"#utility.yul\":26921:26933   */\n      revert\n        /* \"#utility.yul\":26945:27062   */\n    tag_312:\n        /* \"#utility.yul\":27054:27055   */\n      0x00\n        /* \"#utility.yul\":27051:27052   */\n      dup1\n        /* \"#utility.yul\":27044:27056   */\n      revert\n        /* \"#utility.yul\":27068:27185   */\n    tag_325:\n        /* \"#utility.yul\":27177:27178   */\n      0x00\n        /* \"#utility.yul\":27174:27175   */\n      dup1\n        /* \"#utility.yul\":27167:27179   */\n      revert\n        /* \"#utility.yul\":27191:27308   */\n    tag_364:\n        /* \"#utility.yul\":27300:27301   */\n      0x00\n        /* \"#utility.yul\":27297:27298   */\n      dup1\n        /* \"#utility.yul\":27290:27302   */\n      revert\n        /* \"#utility.yul\":27314:27431   */\n    tag_357:\n        /* \"#utility.yul\":27423:27424   */\n      0x00\n        /* \"#utility.yul\":27420:27421   */\n      dup1\n        /* \"#utility.yul\":27413:27425   */\n      revert\n        /* \"#utility.yul\":27437:27539   */\n    tag_455:\n        /* \"#utility.yul\":27478:27484   */\n      0x00\n        /* \"#utility.yul\":27529:27531   */\n      0x1f\n        /* \"#utility.yul\":27525:27532   */\n      not\n        /* \"#utility.yul\":27520:27522   */\n      0x1f\n        /* \"#utility.yul\":27513:27518   */\n      dup4\n        /* \"#utility.yul\":27509:27523   */\n      add\n        /* \"#utility.yul\":27505:27533   */\n      and\n        /* \"#utility.yul\":27495:27533   */\n      swap1\n      pop\n        /* \"#utility.yul\":27437:27539   */\n      swap2\n      swap1\n      pop\n      jump\t// out\n        /* \"#utility.yul\":27545:27727   */\n    tag_473:\n        /* \"#utility.yul\":27685:27719   */\n      0x537472696e67733a20686578206c656e67746820696e73756666696369656e74\n        /* \"#utility.yul\":27681:27682   */\n      0x00\n        /* \"#utility.yul\":27673:27679   */\n      dup3\n        /* \"#utility.yul\":27669:27683   */\n      add\n        /* \"#utility.yul\":27662:27720   */\n      mstore\n        /* \"#utility.yul\":27545:27727   */\n      pop\n      jump\t// out\n        /* \"#utility.yul\":27733:27958   */\n    tag_478:\n        /* \"#utility.yul\":27873:27907   */\n      0x4f776e61626c653a206e6577206f776e657220697320746865207a65726f2061\n        /* \"#utility.yul\":27869:27870   */\n      0x00\n        /* \"#utility.yul\":27861:27867   */\n      dup3\n        /* \"#utility.yul\":27857:27871   */\n      add\n        /* \"#utility.yul\":27850:27908   */\n      mstore\n        /* \"#utility.yul\":27942:27950   */\n      0x6464726573730000000000000000000000000000000000000000000000000000\n        /* \"#utility.yul\":27937:27939   */\n      0x20\n        /* \"#utility.yul\":27929:27935   */\n      dup3\n        /* \"#utility.yul\":27925:27940   */\n      add\n        /* \"#utility.yul\":27918:27951   */\n      mstore\n        /* \"#utility.yul\":27733:27958   */\n      pop\n      jump\t// out\n        /* \"#utility.yul\":27964:28145   */\n    tag_483:\n        /* \"#utility.yul\":28104:28137   */\n      0x43616c6c6572206973206e6f7420616e20494e45432065786563757469766500\n        /* \"#utility.yul\":28100:28101   */\n      0x00\n        /* \"#utility.yul\":28092:28098   */\n      dup3\n        /* \"#utility.yul\":28088:28102   */\n      add\n        /* \"#utility.yul\":28081:28138   */\n      mstore\n        /* \"#utility.yul\":27964:28145   */\n      pop\n      jump\t// out\n        /* \"#utility.yul\":28151:28333   */\n    tag_488:\n        /* \"#utility.yul\":28291:28325   */\n      0x4f776e61626c653a2063616c6c6572206973206e6f7420746865206f776e6572\n        /* \"#utility.yul\":28287:28288   */\n      0x00\n        /* \"#utility.yul\":28279:28285   */\n      dup3\n        /* \"#utility.yul\":28275:28289   */\n      add\n        /* \"#utility.yul\":28268:28326   */\n      mstore\n        /* \"#utility.yul\":28151:28333   */\n      pop\n      jump\t// out\n        /* \"#utility.yul\":28339:28512   */\n    tag_493:\n        /* \"#utility.yul\":28479:28504   */\n      0x416363657373436f6e74726f6c3a206163636f756e7420000000000000000000\n        /* \"#utility.yul\":28475:28476   */\n      0x00\n        /* \"#utility.yul\":28467:28473   */\n      dup3\n        /* \"#utility.yul\":28463:28477   */\n      add\n        /* \"#utility.yul\":28456:28505   */\n      mstore\n        /* \"#utility.yul\":28339:28512   */\n      pop\n      jump\t// out\n        /* \"#utility.yul\":28518:28685   */\n    tag_498:\n        /* \"#utility.yul\":28658:28677   */\n      0x206973206d697373696e6720726f6c6520000000000000000000000000000000\n        /* \"#utility.yul\":28654:28655   */\n      0x00\n        /* \"#utility.yul\":28646:28652   */\n      dup3\n        /* \"#utility.yul\":28642:28656   */\n      add\n        /* \"#utility.yul\":28635:28678   */\n      mstore\n        /* \"#utility.yul\":28518:28685   */\n      pop\n      jump\t// out\n        /* \"#utility.yul\":28691:28925   */\n    tag_503:\n        /* \"#utility.yul\":28831:28865   */\n      0x416363657373436f6e74726f6c3a2063616e206f6e6c792072656e6f756e6365\n        /* \"#utility.yul\":28827:28828   */\n      0x00\n        /* \"#utility.yul\":28819:28825   */\n      dup3\n        /* \"#utility.yul\":28815:28829   */\n      add\n        /* \"#utility.yul\":28808:28866   */\n      mstore\n        /* \"#utility.yul\":28900:28917   */\n      0x20726f6c657320666f722073656c660000000000000000000000000000000000\n        /* \"#utility.yul\":28895:28897   */\n      0x20\n        /* \"#utility.yul\":28887:28893   */\n      dup3\n        /* \"#utility.yul\":28883:28898   */\n      add\n        /* \"#utility.yul\":28876:28918   */\n      mstore\n        /* \"#utility.yul\":28691:28925   */\n      pop\n      jump\t// out\n        /* \"#utility.yul\":28931:29053   */\n    tag_330:\n        /* \"#utility.yul\":29004:29028   */\n      tag_644\n        /* \"#utility.yul\":29022:29027   */\n      dup2\n        /* \"#utility.yul\":29004:29028   */\n      tag_403\n      jump\t// in\n    tag_644:\n        /* \"#utility.yul\":28997:29002   */\n      dup2\n        /* \"#utility.yul\":28994:29029   */\n      eq\n        /* \"#utility.yul\":28984:29047   */\n      tag_645\n      jumpi\n        /* \"#utility.yul\":29043:29044   */\n      0x00\n        /* \"#utility.yul\":29040:29041   */\n      dup1\n        /* \"#utility.yul\":29033:29045   */\n      revert\n        /* \"#utility.yul\":28984:29047   */\n    tag_645:\n        /* \"#utility.yul\":28931:29053   */\n      pop\n      jump\t// out\n        /* \"#utility.yul\":29059:29181   */\n    tag_340:\n        /* \"#utility.yul\":29132:29156   */\n      tag_647\n        /* \"#utility.yul\":29150:29155   */\n      dup2\n        /* \"#utility.yul\":29132:29156   */\n      tag_445\n      jump\t// in\n    tag_647:\n        /* \"#utility.yul\":29125:29130   */\n      dup2\n        /* \"#utility.yul\":29122:29157   */\n      eq\n        /* \"#utility.yul\":29112:29175   */\n      tag_648\n      jumpi\n        /* \"#utility.yul\":29171:29172   */\n      0x00\n        /* \"#utility.yul\":29168:29169   */\n      dup1\n        /* \"#utility.yul\":29161:29173   */\n      revert\n        /* \"#utility.yul\":29112:29175   */\n    tag_648:\n        /* \"#utility.yul\":29059:29181   */\n      pop\n      jump\t// out\n        /* \"#utility.yul\":29187:29307   */\n    tag_344:\n        /* \"#utility.yul\":29259:29282   */\n      tag_650\n        /* \"#utility.yul\":29276:29281   */\n      dup2\n        /* \"#utility.yul\":29259:29282   */\n      tag_599\n      jump\t// in\n    tag_650:\n        /* \"#utility.yul\":29252:29257   */\n      dup2\n        /* \"#utility.yul\":29249:29283   */\n      eq\n        /* \"#utility.yul\":29239:29301   */\n      tag_651\n      jumpi\n        /* \"#utility.yul\":29297:29298   */\n      0x00\n        /* \"#utility.yul\":29294:29295   */\n      dup1\n        /* \"#utility.yul\":29287:29299   */\n      revert\n        /* \"#utility.yul\":29239:29301   */\n    tag_651:\n        /* \"#utility.yul\":29187:29307   */\n      pop\n      jump\t// out\n        /* \"#utility.yul\":29313:29435   */\n    tag_353:\n        /* \"#utility.yul\":29386:29410   */\n      tag_653\n        /* \"#utility.yul\":29404:29409   */\n      dup2\n        /* \"#utility.yul\":29386:29410   */\n      tag_518\n      jump\t// in\n    tag_653:\n        /* \"#utility.yul\":29379:29384   */\n      dup2\n        /* \"#utility.yul\":29376:29411   */\n      eq\n        /* \"#utility.yul\":29366:29429   */\n      tag_654\n      jumpi\n        /* \"#utility.yul\":29425:29426   */\n      0x00\n        /* \"#utility.yul\":29422:29423   */\n      dup1\n        /* \"#utility.yul\":29415:29427   */\n      revert\n        /* \"#utility.yul\":29366:29429   */\n    tag_654:\n        /* \"#utility.yul\":29313:29435   */\n      pop\n      jump\t// out\n\n    auxdata: 0xa264697066735822122091e30b5c4a60511674f87e7e03568fed7fa77c78e0097d93de6883a6161d6c0c64736f6c63430008070033\n}\n",
				"bytecode": {
					"linkReferences": {},
					"object": "608060405260405180608001604052806040518060400160405280600381526020017f415043000000000000000000000000000000000000000000000000000000000081525081526020016040518060400160405280600381526020017f504450000000000000000000000000000000000000000000000000000000000081525081526020016040518060400160405280600281526020017f4c5000000000000000000000000000000000000000000000000000000000000081525081526020016040518060400160405280600481526020017f4e4e50500000000000000000000000000000000000000000000000000000000081525081525060069060046200010b92919062000393565b503480156200011957600080fd5b506200013a6200012e6200015560201b60201c565b6200015d60201b60201c565b6200014f6000801b336200022160201b60201c565b6200057d565b600033905090565b60008060009054906101000a900473ffffffffffffffffffffffffffffffffffffffff169050816000806101000a81548173ffffffffffffffffffffffffffffffffffffffff021916908373ffffffffffffffffffffffffffffffffffffffff1602179055508173ffffffffffffffffffffffffffffffffffffffff168173ffffffffffffffffffffffffffffffffffffffff167f8be0079c531659141344cd1fd0a4f28419497f9722a3daafe3b4186f6b6457e060405160405180910390a35050565b6200023382826200023760201b60201c565b5050565b6200024982826200032860201b60201c565b6200032457600180600084815260200190815260200160002060000160008373ffffffffffffffffffffffffffffffffffffffff1673ffffffffffffffffffffffffffffffffffffffff16815260200190815260200160002060006101000a81548160ff021916908315150217905550620002c96200015560201b60201c565b73ffffffffffffffffffffffffffffffffffffffff168173ffffffffffffffffffffffffffffffffffffffff16837f2f8788117e7eff1d82e926ec794901d17c78024a50270940304540a733656f0d60405160405180910390a45b5050565b60006001600084815260200190815260200160002060000160008373ffffffffffffffffffffffffffffffffffffffff1673ffffffffffffffffffffffffffffffffffffffff16815260200190815260200160002060009054906101000a900460ff16905092915050565b828054828255906000526020600020908101928215620003e7579160200282015b82811115620003e6578251829080519060200190620003d5929190620003fa565b5091602001919060010190620003b4565b5b509050620003f691906200048b565b5090565b828054620004089062000518565b90600052602060002090601f0160209004810192826200042c576000855562000478565b82601f106200044757805160ff191683800117855562000478565b8280016001018555821562000478579182015b82811115620004775782518255916020019190600101906200045a565b5b509050620004879190620004b3565b5090565b5b80821115620004af5760008181620004a59190620004d2565b506001016200048c565b5090565b5b80821115620004ce576000816000905550600101620004b4565b5090565b508054620004e09062000518565b6000825580601f10620004f4575062000515565b601f016020900490600052602060002090810190620005149190620004b3565b5b50565b600060028204905060018216806200053157607f821691505b602082108114156200054857620005476200054e565b5b50919050565b7f4e487b7100000000000000000000000000000000000000000000000000000000600052602260045260246000fd5b612758806200058d6000396000f3fe608060405234801561001057600080fd5b50600436106101375760003560e01c806391d14854116100b8578063a94015c81161007c578063a94015c814610379578063d547741f14610397578063d59d2a58146103b3578063d9d55ba0146103cf578063dfd8459e146103eb578063f2fde38b1461040757610137565b806391d14854146102985780639c35d98b146102c85780639d710777146102fb5780639e5f03491461032b578063a217fddf1461035b57610137565b8063314fd68f116100ff578063314fd68f1461020857806336568abe146102385780634f05dba814610254578063715018a6146102705780638da5cb5b1461027a57610137565b806301ffc9a71461013c578063248a9ca31461016c578063290e92121461019c5780632e0d37bb146101ce5780632f2ff15d146101ec575b600080fd5b61015660048036038101906101519190611a5e565b610423565b6040516101639190611f82565b60405180910390f35b610186600480360381019061018191906119f1565b61049d565b6040516101939190611f9d565b60405180910390f35b6101b660048036038101906101b19190611afa565b6104bd565b6040516101c593929190611fda565b60405180910390f35b6101d6610617565b6040516101e39190611f9d565b60405180910390f35b61020660048036038101906102019190611a1e565b61063b565b005b610222600480360381019061021d9190611afa565b61065c565b60405161022f9190611fb8565b60405180910390f35b610252600480360381019061024d9190611a1e565b610708565b005b61026e60048036038101906102699190611982565b61078b565b005b6102786108fe565b005b610282610912565b60405161028f9190611f22565b60405180910390f35b6102b260048036038101906102ad9190611a1e565b61093b565b6040516102bf9190611f82565b60405180910390f35b6102e260048036038101906102dd9190611afa565b6109a6565b6040516102f29493929190611f3d565b60405180910390f35b61031560048036038101906103109190611afa565b610a03565b60405161032291906120e1565b60405180910390f35b61034560048036038101906103409190611afa565b610b45565b60405161035291906120bf565b60405180910390f35b610363610cec565b6040516103709190611f9d565b60405180910390f35b610381610cf3565b60405161038e9190611f9d565b60405180910390f35b6103b160048036038101906103ac9190611a1e565b610d17565b005b6103cd60048036038101906103c89190611a8b565b610d38565b005b6103e960048036038101906103e49190611afa565b610e90565b005b61040560048036038101906104009190611955565b610f31565b005b610421600480360381019061041c9190611955565b610f66565b005b60007f7965db0b000000000000000000000000000000000000000000000000000000007bffffffffffffffffffffffffffffffffffffffffffffffffffffffff1916827bffffffffffffffffffffffffffffffffffffffffffffffffffffffff19161480610496575061049582610fea565b5b9050919050565b600060016000838152602001908152602001600020600101549050919050565b60076020528060005260406000206000915090508060000180546104e0906123c9565b80601f016020809104026020016040519081016040528092919081815260200182805461050c906123c9565b80156105595780601f1061052e57610100808354040283529160200191610559565b820191906000526020600020905b81548152906001019060200180831161053c57829003601f168201915b5050505050908060010160009054906101000a900473ffffffffffffffffffffffffffffffffffffffff1690806002018054610594906123c9565b80601f01602080910402602001604051908101604052809291908181526020018280546105c0906123c9565b801561060d5780601f106105e25761010080835404028352916020019161060d565b820191906000526020600020905b8154815290600101906020018083116105f057829003601f168201915b5050505050905083565b7f082f6ed76e0352438e6a6e35c77719c3f04bf277fdc8fec7e5ff5f65e001d90281565b6106448261049d565b61064d81611054565b6106578383611068565b505050565b6006818154811061066c57600080fd5b906000526020600020016000915090508054610687906123c9565b80601f01602080910402602001604051908101604052809291908181526020018280546106b3906123c9565b80156107005780601f106106d557610100808354040283529160200191610700565b820191906000526020600020905b8154815290600101906020018083116106e357829003601f168201915b505050505081565b610710611148565b73ffffffffffffffffffffffffffffffffffffffff168173ffffffffffffffffffffffffffffffffffffffff161461077d576040517f08c379a00000000000000000000000000000000000000000000000000000000081526004016107749061209f565b60405180910390fd5b6107878282611150565b5050565b6107b57f082f6ed76e0352438e6a6e35c77719c3f04bf277fdc8fec7e5ff5f65e001d9023361093b565b6107f4576040517f08c379a00000000000000000000000000000000000000000000000000000000081526004016107eb9061205f565b60405180910390fd5b8160096000600554815260200190815260200160002060020181905550806009600060055481526020019081526020016000206003018190555060005b83518110156108e057600960006005548152602001908152602001600020600001848281518110610865576108646124d3565b5b60200260200101519080600181540180825580915050600190039060005260206000200160009091909190916101000a81548173ffffffffffffffffffffffffffffffffffffffff021916908373ffffffffffffffffffffffffffffffffffffffff16021790555080806108d89061242c565b915050610831565b50600560008154809291906108f49061242c565b9190505550505050565b610906611232565b61091060006112b0565b565b60008060009054906101000a900473ffffffffffffffffffffffffffffffffffffffff16905090565b60006001600084815260200190815260200160002060000160008373ffffffffffffffffffffffffffffffffffffffff1673ffffffffffffffffffffffffffffffffffffffff16815260200190815260200160002060009054906101000a900460ff16905092915050565b60086020528060005260406000206000915090508060000160009054906101000a900473ffffffffffffffffffffffffffffffffffffffff16908060010154908060020154908060030160009054906101000a900460ff16905084565b610a0b61165b565b600960008381526020019081526020016000206040518060a001604052908160008201805480602002602001604051908101604052809291908181526020018280548015610aae57602002820191906000526020600020905b8160009054906101000a900473ffffffffffffffffffffffffffffffffffffffff1673ffffffffffffffffffffffffffffffffffffffff1681526020019060010190808311610a64575b5050505050815260200160018201805480602002602001604051908101604052809291908181526020018280548015610b0657602002820191906000526020600020905b815481526020019060010190808311610af2575b5050505050815260200160028201548152602001600382015481526020016004820160009054906101000a900460ff1615151515815250509050919050565b610b4d61168c565b60076000838152602001908152602001600020604051806060016040529081600082018054610b7b906123c9565b80601f0160208091040260200160405190810160405280929190818152602001828054610ba7906123c9565b8015610bf45780601f10610bc957610100808354040283529160200191610bf4565b820191906000526020600020905b815481529060010190602001808311610bd757829003601f168201915b505050505081526020016001820160009054906101000a900473ffffffffffffffffffffffffffffffffffffffff1673ffffffffffffffffffffffffffffffffffffffff1673ffffffffffffffffffffffffffffffffffffffff168152602001600282018054610c63906123c9565b80601f0160208091040260200160405190810160405280929190818152602001828054610c8f906123c9565b8015610cdc5780601f10610cb157610100808354040283529160200191610cdc565b820191906000526020600020905b815481529060010190602001808311610cbf57829003601f168201915b5050505050815250509050919050565b6000801b81565b7f15283fd96aa656c9df35ac2fcb112678a5f24f1ca97e591a97d1d16003dbfc9c81565b610d208261049d565b610d2981611054565b610d338383611150565b505050565b610d627f082f6ed76e0352438e6a6e35c77719c3f04bf277fdc8fec7e5ff5f65e001d9023361093b565b610da1576040517f08c379a0000000000000000000000000000000000000000000000000000000008152600401610d989061205f565b60405180910390fd5b826007600060035481526020019081526020016000206000019080519060200190610dcd9291906116c3565b508160076000600354815260200190815260200160002060010160006101000a81548173ffffffffffffffffffffffffffffffffffffffff021916908373ffffffffffffffffffffffffffffffffffffffff16021790555060068181548110610e3957610e386124d3565b5b90600052602060002001600760006003548152602001908152602001600020600201908054610e67906123c9565b610e72929190611749565b5060036000815480929190610e869061242c565b9190505550505050565b3360086000600454815260200190815260200160002060000160006101000a81548173ffffffffffffffffffffffffffffffffffffffff021916908373ffffffffffffffffffffffffffffffffffffffff1602179055508060086000600454815260200190815260200160002060010181905550610f2e7f15283fd96aa656c9df35ac2fcb112678a5f24f1ca97e591a97d1d16003dbfc9c33611374565b50565b610f39611232565b610f637f082f6ed76e0352438e6a6e35c77719c3f04bf277fdc8fec7e5ff5f65e001d9028261063b565b50565b610f6e611232565b600073ffffffffffffffffffffffffffffffffffffffff168173ffffffffffffffffffffffffffffffffffffffff161415610fde576040517f08c379a0000000000000000000000000000000000000000000000000000000008152600401610fd59061203f565b60405180910390fd5b610fe7816112b0565b50565b60007f01ffc9a7000000000000000000000000000000000000000000000000000000007bffffffffffffffffffffffffffffffffffffffffffffffffffffffff1916827bffffffffffffffffffffffffffffffffffffffffffffffffffffffff1916149050919050565b61106581611060611148565b611382565b50565b611072828261093b565b61114457600180600084815260200190815260200160002060000160008373ffffffffffffffffffffffffffffffffffffffff1673ffffffffffffffffffffffffffffffffffffffff16815260200190815260200160002060006101000a81548160ff0219169083151502179055506110e9611148565b73ffffffffffffffffffffffffffffffffffffffff168173ffffffffffffffffffffffffffffffffffffffff16837f2f8788117e7eff1d82e926ec794901d17c78024a50270940304540a733656f0d60405160405180910390a45b5050565b600033905090565b61115a828261093b565b1561122e5760006001600084815260200190815260200160002060000160008373ffffffffffffffffffffffffffffffffffffffff1673ffffffffffffffffffffffffffffffffffffffff16815260200190815260200160002060006101000a81548160ff0219169083151502179055506111d3611148565b73ffffffffffffffffffffffffffffffffffffffff168173ffffffffffffffffffffffffffffffffffffffff16837ff6391f5c32d9c69d2a47ea670b442974b53935d1edc7fd64eb21e047a839171b60405160405180910390a45b5050565b61123a611148565b73ffffffffffffffffffffffffffffffffffffffff16611258610912565b73ffffffffffffffffffffffffffffffffffffffff16146112ae576040517f08c379a00000000000000000000000000000000000000000000000000000000081526004016112a59061207f565b60405180910390fd5b565b60008060009054906101000a900473ffffffffffffffffffffffffffffffffffffffff169050816000806101000a81548173ffffffffffffffffffffffffffffffffffffffff021916908373ffffffffffffffffffffffffffffffffffffffff1602179055508173ffffffffffffffffffffffffffffffffffffffff168173ffffffffffffffffffffffffffffffffffffffff167f8be0079c531659141344cd1fd0a4f28419497f9722a3daafe3b4186f6b6457e060405160405180910390a35050565b61137e8282611068565b5050565b61138c828261093b565b61141b576113b18173ffffffffffffffffffffffffffffffffffffffff16601461141f565b6113bf8360001c602061141f565b6040516020016113d0929190611ee8565b6040516020818303038152906040526040517f08c379a00000000000000000000000000000000000000000000000000000000081526004016114129190611fb8565b60405180910390fd5b5050565b6060600060028360026114329190612285565b61143c919061222f565b67ffffffffffffffff81111561145557611454612502565b5b6040519080825280601f01601f1916602001820160405280156114875781602001600182028036833780820191505090505b5090507f3000000000000000000000000000000000000000000000000000000000000000816000815181106114bf576114be6124d3565b5b60200101907effffffffffffffffffffffffffffffffffffffffffffffffffffffffffffff1916908160001a9053507f780000000000000000000000000000000000000000000000000000000000000081600181518110611523576115226124d3565b5b60200101907effffffffffffffffffffffffffffffffffffffffffffffffffffffffffffff1916908160001a905350600060018460026115639190612285565b61156d919061222f565b90505b600181111561160d577f3031323334353637383961626364656600000000000000000000000000000000600f8616601081106115af576115ae6124d3565b5b1a60f81b8282815181106115c6576115c56124d3565b5b60200101907effffffffffffffffffffffffffffffffffffffffffffffffffffffffffffff1916908160001a905350600485901c9450806116069061239f565b9050611570565b5060008414611651576040517f08c379a00000000000000000000000000000000000000000000000000000000081526004016116489061201f565b60405180910390fd5b8091505092915050565b6040518060a00160405280606081526020016060815260200160008152602001600081526020016000151581525090565b604051806060016040528060608152602001600073ffffffffffffffffffffffffffffffffffffffff168152602001606081525090565b8280546116cf906123c9565b90600052602060002090601f0160209004810192826116f15760008555611738565b82601f1061170a57805160ff1916838001178555611738565b82800160010185558215611738579182015b8281111561173757825182559160200191906001019061171c565b5b50905061174591906117d6565b5090565b828054611755906123c9565b90600052602060002090601f01602090048101928261177757600085556117c5565b82601f1061178857805485556117c5565b828001600101855582156117c557600052602060002091601f016020900482015b828111156117c45782548255916001019190600101906117a9565b5b5090506117d291906117d6565b5090565b5b808211156117ef5760008160009055506001016117d7565b5090565b600061180661180184612128565b612103565b9050808382526020820190508285602086028201111561182957611828612536565b5b60005b85811015611859578161183f88826118a5565b84526020840193506020830192505060018101905061182c565b5050509392505050565b600061187661187184612154565b612103565b9050828152602081018484840111156118925761189161253b565b5b61189d84828561235d565b509392505050565b6000813590506118b4816126c6565b92915050565b600082601f8301126118cf576118ce612531565b5b81356118df8482602086016117f3565b91505092915050565b6000813590506118f7816126dd565b92915050565b60008135905061190c816126f4565b92915050565b600082601f83011261192757611926612531565b5b8135611937848260208601611863565b91505092915050565b60008135905061194f8161270b565b92915050565b60006020828403121561196b5761196a612545565b5b6000611979848285016118a5565b91505092915050565b60008060006060848603121561199b5761199a612545565b5b600084013567ffffffffffffffff8111156119b9576119b8612540565b5b6119c5868287016118ba565b93505060206119d686828701611940565b92505060406119e786828701611940565b9150509250925092565b600060208284031215611a0757611a06612545565b5b6000611a15848285016118e8565b91505092915050565b60008060408385031215611a3557611a34612545565b5b6000611a43858286016118e8565b9250506020611a54858286016118a5565b9150509250929050565b600060208284031215611a7457611a73612545565b5b6000611a82848285016118fd565b91505092915050565b600080600060608486031215611aa457611aa3612545565b5b600084013567ffffffffffffffff811115611ac257611ac1612540565b5b611ace86828701611912565b9350506020611adf868287016118a5565b9250506040611af086828701611940565b9150509250925092565b600060208284031215611b1057611b0f612545565b5b6000611b1e84828501611940565b91505092915050565b6000611b338383611b57565b60208301905092915050565b6000611b4b8383611eca565b60208301905092915050565b611b60816122df565b82525050565b611b6f816122df565b82525050565b6000611b80826121a5565b611b8a81856121e0565b9350611b9583612185565b8060005b83811015611bc6578151611bad8882611b27565b9750611bb8836121c6565b925050600181019050611b99565b5085935050505092915050565b6000611bde826121b0565b611be881856121f1565b9350611bf383612195565b8060005b83811015611c24578151611c0b8882611b3f565b9750611c16836121d3565b925050600181019050611bf7565b5085935050505092915050565b611c3a816122f1565b82525050565b611c49816122f1565b82525050565b611c58816122fd565b82525050565b6000611c69826121bb565b611c738185612202565b9350611c8381856020860161236c565b611c8c8161254a565b840191505092915050565b6000611ca2826121bb565b611cac8185612213565b9350611cbc81856020860161236c565b611cc58161254a565b840191505092915050565b6000611cdb826121bb565b611ce58185612224565b9350611cf581856020860161236c565b80840191505092915050565b6000611d0e602083612213565b9150611d198261255b565b602082019050919050565b6000611d31602683612213565b9150611d3c82612584565b604082019050919050565b6000611d54601f83612213565b9150611d5f826125d3565b602082019050919050565b6000611d77602083612213565b9150611d82826125fc565b602082019050919050565b6000611d9a601783612224565b9150611da582612625565b601782019050919050565b6000611dbd601183612224565b9150611dc88261264e565b601182019050919050565b6000611de0602f83612213565b9150611deb82612677565b604082019050919050565b60006060830160008301518482036000860152611e138282611c5e565b9150506020830151611e286020860182611b57565b5060408301518482036040860152611e408282611c5e565b9150508091505092915050565b600060a0830160008301518482036000860152611e6a8282611b75565b91505060208301518482036020860152611e848282611bd3565b9150506040830151611e996040860182611eca565b506060830151611eac6060860182611eca565b506080830151611ebf6080860182611c31565b508091505092915050565b611ed381612353565b82525050565b611ee281612353565b82525050565b6000611ef382611d8d565b9150611eff8285611cd0565b9150611f0a82611db0565b9150611f168284611cd0565b91508190509392505050565b6000602082019050611f376000830184611b66565b92915050565b6000608082019050611f526000830187611b66565b611f5f6020830186611ed9565b611f6c6040830185611ed9565b611f796060830184611c40565b95945050505050565b6000602082019050611f976000830184611c40565b92915050565b6000602082019050611fb26000830184611c4f565b92915050565b60006020820190508181036000830152611fd28184611c97565b905092915050565b60006060820190508181036000830152611ff48186611c97565b90506120036020830185611b66565b81810360408301526120158184611c97565b9050949350505050565b6000602082019050818103600083015261203881611d01565b9050919050565b6000602082019050818103600083015261205881611d24565b9050919050565b6000602082019050818103600083015261207881611d47565b9050919050565b6000602082019050818103600083015261209881611d6a565b9050919050565b600060208201905081810360008301526120b881611dd3565b9050919050565b600060208201905081810360008301526120d98184611df6565b905092915050565b600060208201905081810360008301526120fb8184611e4d565b905092915050565b600061210d61211e565b905061211982826123fb565b919050565b6000604051905090565b600067ffffffffffffffff82111561214357612142612502565b5b602082029050602081019050919050565b600067ffffffffffffffff82111561216f5761216e612502565b5b6121788261254a565b9050602081019050919050565b6000819050602082019050919050565b6000819050602082019050919050565b600081519050919050565b600081519050919050565b600081519050919050565b6000602082019050919050565b6000602082019050919050565b600082825260208201905092915050565b600082825260208201905092915050565b600082825260208201905092915050565b600082825260208201905092915050565b600081905092915050565b600061223a82612353565b915061224583612353565b9250827fffffffffffffffffffffffffffffffffffffffffffffffffffffffffffffffff0382111561227a57612279612475565b5b828201905092915050565b600061229082612353565b915061229b83612353565b9250817fffffffffffffffffffffffffffffffffffffffffffffffffffffffffffffffff04831182151516156122d4576122d3612475565b5b828202905092915050565b60006122ea82612333565b9050919050565b60008115159050919050565b6000819050919050565b60007fffffffff0000000000000000000000000000000000000000000000000000000082169050919050565b600073ffffffffffffffffffffffffffffffffffffffff82169050919050565b6000819050919050565b82818337600083830152505050565b60005b8381101561238a57808201518184015260208101905061236f565b83811115612399576000848401525b50505050565b60006123aa82612353565b915060008214156123be576123bd612475565b5b600182039050919050565b600060028204905060018216806123e157607f821691505b602082108114156123f5576123f46124a4565b5b50919050565b6124048261254a565b810181811067ffffffffffffffff8211171561242357612422612502565b5b80604052505050565b600061243782612353565b91507fffffffffffffffffffffffffffffffffffffffffffffffffffffffffffffffff82141561246a57612469612475565b5b600182019050919050565b7f4e487b7100000000000000000000000000000000000000000000000000000000600052601160045260246000fd5b7f4e487b7100000000000000000000000000000000000000000000000000000000600052602260045260246000fd5b7f4e487b7100000000000000000000000000000000000000000000000000000000600052603260045260246000fd5b7f4e487b7100000000000000000000000000000000000000000000000000000000600052604160045260246000fd5b600080fd5b600080fd5b600080fd5b600080fd5b600080fd5b6000601f19601f8301169050919050565b7f537472696e67733a20686578206c656e67746820696e73756666696369656e74600082015250565b7f4f776e61626c653a206e6577206f776e657220697320746865207a65726f206160008201527f6464726573730000000000000000000000000000000000000000000000000000602082015250565b7f43616c6c6572206973206e6f7420616e20494e45432065786563757469766500600082015250565b7f4f776e61626c653a2063616c6c6572206973206e6f7420746865206f776e6572600082015250565b7f416363657373436f6e74726f6c3a206163636f756e7420000000000000000000600082015250565b7f206973206d697373696e6720726f6c6520000000000000000000000000000000600082015250565b7f416363657373436f6e74726f6c3a2063616e206f6e6c792072656e6f756e636560008201527f20726f6c657320666f722073656c660000000000000000000000000000000000602082015250565b6126cf816122df565b81146126da57600080fd5b50565b6126e6816122fd565b81146126f157600080fd5b50565b6126fd81612307565b811461270857600080fd5b50565b61271481612353565b811461271f57600080fd5b5056fea264697066735822122091e30b5c4a60511674f87e7e03568fed7fa77c78e0097d93de6883a6161d6c0c64736f6c63430008070033",
					"opcodes": "PUSH1 0x80 PUSH1 0x40 MSTORE PUSH1 0x40 MLOAD DUP1 PUSH1 0x80 ADD PUSH1 0x40 MSTORE DUP1 PUSH1 0x40 MLOAD DUP1 PUSH1 0x40 ADD PUSH1 0x40 MSTORE DUP1 PUSH1 0x3 DUP2 MSTORE PUSH1 0x20 ADD PUSH32 0x4150430000000000000000000000000000000000000000000000000000000000 DUP2 MSTORE POP DUP2 MSTORE PUSH1 0x20 ADD PUSH1 0x40 MLOAD DUP1 PUSH1 0x40 ADD PUSH1 0x40 MSTORE DUP1 PUSH1 0x3 DUP2 MSTORE PUSH1 0x20 ADD PUSH32 0x5044500000000000000000000000000000000000000000000000000000000000 DUP2 MSTORE POP DUP2 MSTORE PUSH1 0x20 ADD PUSH1 0x40 MLOAD DUP1 PUSH1 0x40 ADD PUSH1 0x40 MSTORE DUP1 PUSH1 0x2 DUP2 MSTORE PUSH1 0x20 ADD PUSH32 0x4C50000000000000000000000000000000000000000000000000000000000000 DUP2 MSTORE POP DUP2 MSTORE PUSH1 0x20 ADD PUSH1 0x40 MLOAD DUP1 PUSH1 0x40 ADD PUSH1 0x40 MSTORE DUP1 PUSH1 0x4 DUP2 MSTORE PUSH1 0x20 ADD PUSH32 0x4E4E505000000000000000000000000000000000000000000000000000000000 DUP2 MSTORE POP DUP2 MSTORE POP PUSH1 0x6 SWAP1 PUSH1 0x4 PUSH3 0x10B SWAP3 SWAP2 SWAP1 PUSH3 0x393 JUMP JUMPDEST POP CALLVALUE DUP1 ISZERO PUSH3 0x119 JUMPI PUSH1 0x0 DUP1 REVERT JUMPDEST POP PUSH3 0x13A PUSH3 0x12E PUSH3 0x155 PUSH1 0x20 SHL PUSH1 0x20 SHR JUMP JUMPDEST PUSH3 0x15D PUSH1 0x20 SHL PUSH1 0x20 SHR JUMP JUMPDEST PUSH3 0x14F PUSH1 0x0 DUP1 SHL CALLER PUSH3 0x221 PUSH1 0x20 SHL PUSH1 0x20 SHR JUMP JUMPDEST PUSH3 0x57D JUMP JUMPDEST PUSH1 0x0 CALLER SWAP1 POP SWAP1 JUMP JUMPDEST PUSH1 0x0 DUP1 PUSH1 0x0 SWAP1 SLOAD SWAP1 PUSH2 0x100 EXP SWAP1 DIV PUSH20 0xFFFFFFFFFFFFFFFFFFFFFFFFFFFFFFFFFFFFFFFF AND SWAP1 POP DUP2 PUSH1 0x0 DUP1 PUSH2 0x100 EXP DUP2 SLOAD DUP2 PUSH20 0xFFFFFFFFFFFFFFFFFFFFFFFFFFFFFFFFFFFFFFFF MUL NOT AND SWAP1 DUP4 PUSH20 0xFFFFFFFFFFFFFFFFFFFFFFFFFFFFFFFFFFFFFFFF AND MUL OR SWAP1 SSTORE POP DUP2 PUSH20 0xFFFFFFFFFFFFFFFFFFFFFFFFFFFFFFFFFFFFFFFF AND DUP2 PUSH20 0xFFFFFFFFFFFFFFFFFFFFFFFFFFFFFFFFFFFFFFFF AND PUSH32 0x8BE0079C531659141344CD1FD0A4F28419497F9722A3DAAFE3B4186F6B6457E0 PUSH1 0x40 MLOAD PUSH1 0x40 MLOAD DUP1 SWAP2 SUB SWAP1 LOG3 POP POP JUMP JUMPDEST PUSH3 0x233 DUP3 DUP3 PUSH3 0x237 PUSH1 0x20 SHL PUSH1 0x20 SHR JUMP JUMPDEST POP POP JUMP JUMPDEST PUSH3 0x249 DUP3 DUP3 PUSH3 0x328 PUSH1 0x20 SHL PUSH1 0x20 SHR JUMP JUMPDEST PUSH3 0x324 JUMPI PUSH1 0x1 DUP1 PUSH1 0x0 DUP5 DUP2 MSTORE PUSH1 0x20 ADD SWAP1 DUP2 MSTORE PUSH1 0x20 ADD PUSH1 0x0 KECCAK256 PUSH1 0x0 ADD PUSH1 0x0 DUP4 PUSH20 0xFFFFFFFFFFFFFFFFFFFFFFFFFFFFFFFFFFFFFFFF AND PUSH20 0xFFFFFFFFFFFFFFFFFFFFFFFFFFFFFFFFFFFFFFFF AND DUP2 MSTORE PUSH1 0x20 ADD SWAP1 DUP2 MSTORE PUSH1 0x20 ADD PUSH1 0x0 KECCAK256 PUSH1 0x0 PUSH2 0x100 EXP DUP2 SLOAD DUP2 PUSH1 0xFF MUL NOT AND SWAP1 DUP4 ISZERO ISZERO MUL OR SWAP1 SSTORE POP PUSH3 0x2C9 PUSH3 0x155 PUSH1 0x20 SHL PUSH1 0x20 SHR JUMP JUMPDEST PUSH20 0xFFFFFFFFFFFFFFFFFFFFFFFFFFFFFFFFFFFFFFFF AND DUP2 PUSH20 0xFFFFFFFFFFFFFFFFFFFFFFFFFFFFFFFFFFFFFFFF AND DUP4 PUSH32 0x2F8788117E7EFF1D82E926EC794901D17C78024A50270940304540A733656F0D PUSH1 0x40 MLOAD PUSH1 0x40 MLOAD DUP1 SWAP2 SUB SWAP1 LOG4 JUMPDEST POP POP JUMP JUMPDEST PUSH1 0x0 PUSH1 0x1 PUSH1 0x0 DUP5 DUP2 MSTORE PUSH1 0x20 ADD SWAP1 DUP2 MSTORE PUSH1 0x20 ADD PUSH1 0x0 KECCAK256 PUSH1 0x0 ADD PUSH1 0x0 DUP4 PUSH20 0xFFFFFFFFFFFFFFFFFFFFFFFFFFFFFFFFFFFFFFFF AND PUSH20 0xFFFFFFFFFFFFFFFFFFFFFFFFFFFFFFFFFFFFFFFF AND DUP2 MSTORE PUSH1 0x20 ADD SWAP1 DUP2 MSTORE PUSH1 0x20 ADD PUSH1 0x0 KECCAK256 PUSH1 0x0 SWAP1 SLOAD SWAP1 PUSH2 0x100 EXP SWAP1 DIV PUSH1 0xFF AND SWAP1 POP SWAP3 SWAP2 POP POP JUMP JUMPDEST DUP3 DUP1 SLOAD DUP3 DUP3 SSTORE SWAP1 PUSH1 0x0 MSTORE PUSH1 0x20 PUSH1 0x0 KECCAK256 SWAP1 DUP2 ADD SWAP3 DUP3 ISZERO PUSH3 0x3E7 JUMPI SWAP2 PUSH1 0x20 MUL DUP3 ADD JUMPDEST DUP3 DUP2 GT ISZERO PUSH3 0x3E6 JUMPI DUP3 MLOAD DUP3 SWAP1 DUP1 MLOAD SWAP1 PUSH1 0x20 ADD SWAP1 PUSH3 0x3D5 SWAP3 SWAP2 SWAP1 PUSH3 0x3FA JUMP JUMPDEST POP SWAP2 PUSH1 0x20 ADD SWAP2 SWAP1 PUSH1 0x1 ADD SWAP1 PUSH3 0x3B4 JUMP JUMPDEST JUMPDEST POP SWAP1 POP PUSH3 0x3F6 SWAP2 SWAP1 PUSH3 0x48B JUMP JUMPDEST POP SWAP1 JUMP JUMPDEST DUP3 DUP1 SLOAD PUSH3 0x408 SWAP1 PUSH3 0x518 JUMP JUMPDEST SWAP1 PUSH1 0x0 MSTORE PUSH1 0x20 PUSH1 0x0 KECCAK256 SWAP1 PUSH1 0x1F ADD PUSH1 0x20 SWAP1 DIV DUP2 ADD SWAP3 DUP3 PUSH3 0x42C JUMPI PUSH1 0x0 DUP6 SSTORE PUSH3 0x478 JUMP JUMPDEST DUP3 PUSH1 0x1F LT PUSH3 0x447 JUMPI DUP1 MLOAD PUSH1 0xFF NOT AND DUP4 DUP1 ADD OR DUP6 SSTORE PUSH3 0x478 JUMP JUMPDEST DUP3 DUP1 ADD PUSH1 0x1 ADD DUP6 SSTORE DUP3 ISZERO PUSH3 0x478 JUMPI SWAP2 DUP3 ADD JUMPDEST DUP3 DUP2 GT ISZERO PUSH3 0x477 JUMPI DUP3 MLOAD DUP3 SSTORE SWAP2 PUSH1 0x20 ADD SWAP2 SWAP1 PUSH1 0x1 ADD SWAP1 PUSH3 0x45A JUMP JUMPDEST JUMPDEST POP SWAP1 POP PUSH3 0x487 SWAP2 SWAP1 PUSH3 0x4B3 JUMP JUMPDEST POP SWAP1 JUMP JUMPDEST JUMPDEST DUP1 DUP3 GT ISZERO PUSH3 0x4AF JUMPI PUSH1 0x0 DUP2 DUP2 PUSH3 0x4A5 SWAP2 SWAP1 PUSH3 0x4D2 JUMP JUMPDEST POP PUSH1 0x1 ADD PUSH3 0x48C JUMP JUMPDEST POP SWAP1 JUMP JUMPDEST JUMPDEST DUP1 DUP3 GT ISZERO PUSH3 0x4CE JUMPI PUSH1 0x0 DUP2 PUSH1 0x0 SWAP1 SSTORE POP PUSH1 0x1 ADD PUSH3 0x4B4 JUMP JUMPDEST POP SWAP1 JUMP JUMPDEST POP DUP1 SLOAD PUSH3 0x4E0 SWAP1 PUSH3 0x518 JUMP JUMPDEST PUSH1 0x0 DUP3 SSTORE DUP1 PUSH1 0x1F LT PUSH3 0x4F4 JUMPI POP PUSH3 0x515 JUMP JUMPDEST PUSH1 0x1F ADD PUSH1 0x20 SWAP1 DIV SWAP1 PUSH1 0x0 MSTORE PUSH1 0x20 PUSH1 0x0 KECCAK256 SWAP1 DUP2 ADD SWAP1 PUSH3 0x514 SWAP2 SWAP1 PUSH3 0x4B3 JUMP JUMPDEST JUMPDEST POP JUMP JUMPDEST PUSH1 0x0 PUSH1 0x2 DUP3 DIV SWAP1 POP PUSH1 0x1 DUP3 AND DUP1 PUSH3 0x531 JUMPI PUSH1 0x7F DUP3 AND SWAP2 POP JUMPDEST PUSH1 0x20 DUP3 LT DUP2 EQ ISZERO PUSH3 0x548 JUMPI PUSH3 0x547 PUSH3 0x54E JUMP JUMPDEST JUMPDEST POP SWAP2 SWAP1 POP JUMP JUMPDEST PUSH32 0x4E487B7100000000000000000000000000000000000000000000000000000000 PUSH1 0x0 MSTORE PUSH1 0x22 PUSH1 0x4 MSTORE PUSH1 0x24 PUSH1 0x0 REVERT JUMPDEST PUSH2 0x2758 DUP1 PUSH3 0x58D PUSH1 0x0 CODECOPY PUSH1 0x0 RETURN INVALID PUSH1 0x80 PUSH1 0x40 MSTORE CALLVALUE DUP1 ISZERO PUSH2 0x10 JUMPI PUSH1 0x0 DUP1 REVERT JUMPDEST POP PUSH1 0x4 CALLDATASIZE LT PUSH2 0x137 JUMPI PUSH1 0x0 CALLDATALOAD PUSH1 0xE0 SHR DUP1 PUSH4 0x91D14854 GT PUSH2 0xB8 JUMPI DUP1 PUSH4 0xA94015C8 GT PUSH2 0x7C JUMPI DUP1 PUSH4 0xA94015C8 EQ PUSH2 0x379 JUMPI DUP1 PUSH4 0xD547741F EQ PUSH2 0x397 JUMPI DUP1 PUSH4 0xD59D2A58 EQ PUSH2 0x3B3 JUMPI DUP1 PUSH4 0xD9D55BA0 EQ PUSH2 0x3CF JUMPI DUP1 PUSH4 0xDFD8459E EQ PUSH2 0x3EB JUMPI DUP1 PUSH4 0xF2FDE38B EQ PUSH2 0x407 JUMPI PUSH2 0x137 JUMP JUMPDEST DUP1 PUSH4 0x91D14854 EQ PUSH2 0x298 JUMPI DUP1 PUSH4 0x9C35D98B EQ PUSH2 0x2C8 JUMPI DUP1 PUSH4 0x9D710777 EQ PUSH2 0x2FB JUMPI DUP1 PUSH4 0x9E5F0349 EQ PUSH2 0x32B JUMPI DUP1 PUSH4 0xA217FDDF EQ PUSH2 0x35B JUMPI PUSH2 0x137 JUMP JUMPDEST DUP1 PUSH4 0x314FD68F GT PUSH2 0xFF JUMPI DUP1 PUSH4 0x314FD68F EQ PUSH2 0x208 JUMPI DUP1 PUSH4 0x36568ABE EQ PUSH2 0x238 JUMPI DUP1 PUSH4 0x4F05DBA8 EQ PUSH2 0x254 JUMPI DUP1 PUSH4 0x715018A6 EQ PUSH2 0x270 JUMPI DUP1 PUSH4 0x8DA5CB5B EQ PUSH2 0x27A JUMPI PUSH2 0x137 JUMP JUMPDEST DUP1 PUSH4 0x1FFC9A7 EQ PUSH2 0x13C JUMPI DUP1 PUSH4 0x248A9CA3 EQ PUSH2 0x16C JUMPI DUP1 PUSH4 0x290E9212 EQ PUSH2 0x19C JUMPI DUP1 PUSH4 0x2E0D37BB EQ PUSH2 0x1CE JUMPI DUP1 PUSH4 0x2F2FF15D EQ PUSH2 0x1EC JUMPI JUMPDEST PUSH1 0x0 DUP1 REVERT JUMPDEST PUSH2 0x156 PUSH1 0x4 DUP1 CALLDATASIZE SUB DUP2 ADD SWAP1 PUSH2 0x151 SWAP2 SWAP1 PUSH2 0x1A5E JUMP JUMPDEST PUSH2 0x423 JUMP JUMPDEST PUSH1 0x40 MLOAD PUSH2 0x163 SWAP2 SWAP1 PUSH2 0x1F82 JUMP JUMPDEST PUSH1 0x40 MLOAD DUP1 SWAP2 SUB SWAP1 RETURN JUMPDEST PUSH2 0x186 PUSH1 0x4 DUP1 CALLDATASIZE SUB DUP2 ADD SWAP1 PUSH2 0x181 SWAP2 SWAP1 PUSH2 0x19F1 JUMP JUMPDEST PUSH2 0x49D JUMP JUMPDEST PUSH1 0x40 MLOAD PUSH2 0x193 SWAP2 SWAP1 PUSH2 0x1F9D JUMP JUMPDEST PUSH1 0x40 MLOAD DUP1 SWAP2 SUB SWAP1 RETURN JUMPDEST PUSH2 0x1B6 PUSH1 0x4 DUP1 CALLDATASIZE SUB DUP2 ADD SWAP1 PUSH2 0x1B1 SWAP2 SWAP1 PUSH2 0x1AFA JUMP JUMPDEST PUSH2 0x4BD JUMP JUMPDEST PUSH1 0x40 MLOAD PUSH2 0x1C5 SWAP4 SWAP3 SWAP2 SWAP1 PUSH2 0x1FDA JUMP JUMPDEST PUSH1 0x40 MLOAD DUP1 SWAP2 SUB SWAP1 RETURN JUMPDEST PUSH2 0x1D6 PUSH2 0x617 JUMP JUMPDEST PUSH1 0x40 MLOAD PUSH2 0x1E3 SWAP2 SWAP1 PUSH2 0x1F9D JUMP JUMPDEST PUSH1 0x40 MLOAD DUP1 SWAP2 SUB SWAP1 RETURN JUMPDEST PUSH2 0x206 PUSH1 0x4 DUP1 CALLDATASIZE SUB DUP2 ADD SWAP1 PUSH2 0x201 SWAP2 SWAP1 PUSH2 0x1A1E JUMP JUMPDEST PUSH2 0x63B JUMP JUMPDEST STOP JUMPDEST PUSH2 0x222 PUSH1 0x4 DUP1 CALLDATASIZE SUB DUP2 ADD SWAP1 PUSH2 0x21D SWAP2 SWAP1 PUSH2 0x1AFA JUMP JUMPDEST PUSH2 0x65C JUMP JUMPDEST PUSH1 0x40 MLOAD PUSH2 0x22F SWAP2 SWAP1 PUSH2 0x1FB8 JUMP JUMPDEST PUSH1 0x40 MLOAD DUP1 SWAP2 SUB SWAP1 RETURN JUMPDEST PUSH2 0x252 PUSH1 0x4 DUP1 CALLDATASIZE SUB DUP2 ADD SWAP1 PUSH2 0x24D SWAP2 SWAP1 PUSH2 0x1A1E JUMP JUMPDEST PUSH2 0x708 JUMP JUMPDEST STOP JUMPDEST PUSH2 0x26E PUSH1 0x4 DUP1 CALLDATASIZE SUB DUP2 ADD SWAP1 PUSH2 0x269 SWAP2 SWAP1 PUSH2 0x1982 JUMP JUMPDEST PUSH2 0x78B JUMP JUMPDEST STOP JUMPDEST PUSH2 0x278 PUSH2 0x8FE JUMP JUMPDEST STOP JUMPDEST PUSH2 0x282 PUSH2 0x912 JUMP JUMPDEST PUSH1 0x40 MLOAD PUSH2 0x28F SWAP2 SWAP1 PUSH2 0x1F22 JUMP JUMPDEST PUSH1 0x40 MLOAD DUP1 SWAP2 SUB SWAP1 RETURN JUMPDEST PUSH2 0x2B2 PUSH1 0x4 DUP1 CALLDATASIZE SUB DUP2 ADD SWAP1 PUSH2 0x2AD SWAP2 SWAP1 PUSH2 0x1A1E JUMP JUMPDEST PUSH2 0x93B JUMP JUMPDEST PUSH1 0x40 MLOAD PUSH2 0x2BF SWAP2 SWAP1 PUSH2 0x1F82 JUMP JUMPDEST PUSH1 0x40 MLOAD DUP1 SWAP2 SUB SWAP1 RETURN JUMPDEST PUSH2 0x2E2 PUSH1 0x4 DUP1 CALLDATASIZE SUB DUP2 ADD SWAP1 PUSH2 0x2DD SWAP2 SWAP1 PUSH2 0x1AFA JUMP JUMPDEST PUSH2 0x9A6 JUMP JUMPDEST PUSH1 0x40 MLOAD PUSH2 0x2F2 SWAP5 SWAP4 SWAP3 SWAP2 SWAP1 PUSH2 0x1F3D JUMP JUMPDEST PUSH1 0x40 MLOAD DUP1 SWAP2 SUB SWAP1 RETURN JUMPDEST PUSH2 0x315 PUSH1 0x4 DUP1 CALLDATASIZE SUB DUP2 ADD SWAP1 PUSH2 0x310 SWAP2 SWAP1 PUSH2 0x1AFA JUMP JUMPDEST PUSH2 0xA03 JUMP JUMPDEST PUSH1 0x40 MLOAD PUSH2 0x322 SWAP2 SWAP1 PUSH2 0x20E1 JUMP JUMPDEST PUSH1 0x40 MLOAD DUP1 SWAP2 SUB SWAP1 RETURN JUMPDEST PUSH2 0x345 PUSH1 0x4 DUP1 CALLDATASIZE SUB DUP2 ADD SWAP1 PUSH2 0x340 SWAP2 SWAP1 PUSH2 0x1AFA JUMP JUMPDEST PUSH2 0xB45 JUMP JUMPDEST PUSH1 0x40 MLOAD PUSH2 0x352 SWAP2 SWAP1 PUSH2 0x20BF JUMP JUMPDEST PUSH1 0x40 MLOAD DUP1 SWAP2 SUB SWAP1 RETURN JUMPDEST PUSH2 0x363 PUSH2 0xCEC JUMP JUMPDEST PUSH1 0x40 MLOAD PUSH2 0x370 SWAP2 SWAP1 PUSH2 0x1F9D JUMP JUMPDEST PUSH1 0x40 MLOAD DUP1 SWAP2 SUB SWAP1 RETURN JUMPDEST PUSH2 0x381 PUSH2 0xCF3 JUMP JUMPDEST PUSH1 0x40 MLOAD PUSH2 0x38E SWAP2 SWAP1 PUSH2 0x1F9D JUMP JUMPDEST PUSH1 0x40 MLOAD DUP1 SWAP2 SUB SWAP1 RETURN JUMPDEST PUSH2 0x3B1 PUSH1 0x4 DUP1 CALLDATASIZE SUB DUP2 ADD SWAP1 PUSH2 0x3AC SWAP2 SWAP1 PUSH2 0x1A1E JUMP JUMPDEST PUSH2 0xD17 JUMP JUMPDEST STOP JUMPDEST PUSH2 0x3CD PUSH1 0x4 DUP1 CALLDATASIZE SUB DUP2 ADD SWAP1 PUSH2 0x3C8 SWAP2 SWAP1 PUSH2 0x1A8B JUMP JUMPDEST PUSH2 0xD38 JUMP JUMPDEST STOP JUMPDEST PUSH2 0x3E9 PUSH1 0x4 DUP1 CALLDATASIZE SUB DUP2 ADD SWAP1 PUSH2 0x3E4 SWAP2 SWAP1 PUSH2 0x1AFA JUMP JUMPDEST PUSH2 0xE90 JUMP JUMPDEST STOP JUMPDEST PUSH2 0x405 PUSH1 0x4 DUP1 CALLDATASIZE SUB DUP2 ADD SWAP1 PUSH2 0x400 SWAP2 SWAP1 PUSH2 0x1955 JUMP JUMPDEST PUSH2 0xF31 JUMP JUMPDEST STOP JUMPDEST PUSH2 0x421 PUSH1 0x4 DUP1 CALLDATASIZE SUB DUP2 ADD SWAP1 PUSH2 0x41C SWAP2 SWAP1 PUSH2 0x1955 JUMP JUMPDEST PUSH2 0xF66 JUMP JUMPDEST STOP JUMPDEST PUSH1 0x0 PUSH32 0x7965DB0B00000000000000000000000000000000000000000000000000000000 PUSH28 0xFFFFFFFFFFFFFFFFFFFFFFFFFFFFFFFFFFFFFFFFFFFFFFFFFFFFFFFF NOT AND DUP3 PUSH28 0xFFFFFFFFFFFFFFFFFFFFFFFFFFFFFFFFFFFFFFFFFFFFFFFFFFFFFFFF NOT AND EQ DUP1 PUSH2 0x496 JUMPI POP PUSH2 0x495 DUP3 PUSH2 0xFEA JUMP JUMPDEST JUMPDEST SWAP1 POP SWAP2 SWAP1 POP JUMP JUMPDEST PUSH1 0x0 PUSH1 0x1 PUSH1 0x0 DUP4 DUP2 MSTORE PUSH1 0x20 ADD SWAP1 DUP2 MSTORE PUSH1 0x20 ADD PUSH1 0x0 KECCAK256 PUSH1 0x1 ADD SLOAD SWAP1 POP SWAP2 SWAP1 POP JUMP JUMPDEST PUSH1 0x7 PUSH1 0x20 MSTORE DUP1 PUSH1 0x0 MSTORE PUSH1 0x40 PUSH1 0x0 KECCAK256 PUSH1 0x0 SWAP2 POP SWAP1 POP DUP1 PUSH1 0x0 ADD DUP1 SLOAD PUSH2 0x4E0 SWAP1 PUSH2 0x23C9 JUMP JUMPDEST DUP1 PUSH1 0x1F ADD PUSH1 0x20 DUP1 SWAP2 DIV MUL PUSH1 0x20 ADD PUSH1 0x40 MLOAD SWAP1 DUP2 ADD PUSH1 0x40 MSTORE DUP1 SWAP3 SWAP2 SWAP1 DUP2 DUP2 MSTORE PUSH1 0x20 ADD DUP3 DUP1 SLOAD PUSH2 0x50C SWAP1 PUSH2 0x23C9 JUMP JUMPDEST DUP1 ISZERO PUSH2 0x559 JUMPI DUP1 PUSH1 0x1F LT PUSH2 0x52E JUMPI PUSH2 0x100 DUP1 DUP4 SLOAD DIV MUL DUP4 MSTORE SWAP2 PUSH1 0x20 ADD SWAP2 PUSH2 0x559 JUMP JUMPDEST DUP3 ADD SWAP2 SWAP1 PUSH1 0x0 MSTORE PUSH1 0x20 PUSH1 0x0 KECCAK256 SWAP1 JUMPDEST DUP2 SLOAD DUP2 MSTORE SWAP1 PUSH1 0x1 ADD SWAP1 PUSH1 0x20 ADD DUP1 DUP4 GT PUSH2 0x53C JUMPI DUP3 SWAP1 SUB PUSH1 0x1F AND DUP3 ADD SWAP2 JUMPDEST POP POP POP POP POP SWAP1 DUP1 PUSH1 0x1 ADD PUSH1 0x0 SWAP1 SLOAD SWAP1 PUSH2 0x100 EXP SWAP1 DIV PUSH20 0xFFFFFFFFFFFFFFFFFFFFFFFFFFFFFFFFFFFFFFFF AND SWAP1 DUP1 PUSH1 0x2 ADD DUP1 SLOAD PUSH2 0x594 SWAP1 PUSH2 0x23C9 JUMP JUMPDEST DUP1 PUSH1 0x1F ADD PUSH1 0x20 DUP1 SWAP2 DIV MUL PUSH1 0x20 ADD PUSH1 0x40 MLOAD SWAP1 DUP2 ADD PUSH1 0x40 MSTORE DUP1 SWAP3 SWAP2 SWAP1 DUP2 DUP2 MSTORE PUSH1 0x20 ADD DUP3 DUP1 SLOAD PUSH2 0x5C0 SWAP1 PUSH2 0x23C9 JUMP JUMPDEST DUP1 ISZERO PUSH2 0x60D JUMPI DUP1 PUSH1 0x1F LT PUSH2 0x5E2 JUMPI PUSH2 0x100 DUP1 DUP4 SLOAD DIV MUL DUP4 MSTORE SWAP2 PUSH1 0x20 ADD SWAP2 PUSH2 0x60D JUMP JUMPDEST DUP3 ADD SWAP2 SWAP1 PUSH1 0x0 MSTORE PUSH1 0x20 PUSH1 0x0 KECCAK256 SWAP1 JUMPDEST DUP2 SLOAD DUP2 MSTORE SWAP1 PUSH1 0x1 ADD SWAP1 PUSH1 0x20 ADD DUP1 DUP4 GT PUSH2 0x5F0 JUMPI DUP3 SWAP1 SUB PUSH1 0x1F AND DUP3 ADD SWAP2 JUMPDEST POP POP POP POP POP SWAP1 POP DUP4 JUMP JUMPDEST PUSH32 0x82F6ED76E0352438E6A6E35C77719C3F04BF277FDC8FEC7E5FF5F65E001D902 DUP2 JUMP JUMPDEST PUSH2 0x644 DUP3 PUSH2 0x49D JUMP JUMPDEST PUSH2 0x64D DUP2 PUSH2 0x1054 JUMP JUMPDEST PUSH2 0x657 DUP4 DUP4 PUSH2 0x1068 JUMP JUMPDEST POP POP POP JUMP JUMPDEST PUSH1 0x6 DUP2 DUP2 SLOAD DUP2 LT PUSH2 0x66C JUMPI PUSH1 0x0 DUP1 REVERT JUMPDEST SWAP1 PUSH1 0x0 MSTORE PUSH1 0x20 PUSH1 0x0 KECCAK256 ADD PUSH1 0x0 SWAP2 POP SWAP1 POP DUP1 SLOAD PUSH2 0x687 SWAP1 PUSH2 0x23C9 JUMP JUMPDEST DUP1 PUSH1 0x1F ADD PUSH1 0x20 DUP1 SWAP2 DIV MUL PUSH1 0x20 ADD PUSH1 0x40 MLOAD SWAP1 DUP2 ADD PUSH1 0x40 MSTORE DUP1 SWAP3 SWAP2 SWAP1 DUP2 DUP2 MSTORE PUSH1 0x20 ADD DUP3 DUP1 SLOAD PUSH2 0x6B3 SWAP1 PUSH2 0x23C9 JUMP JUMPDEST DUP1 ISZERO PUSH2 0x700 JUMPI DUP1 PUSH1 0x1F LT PUSH2 0x6D5 JUMPI PUSH2 0x100 DUP1 DUP4 SLOAD DIV MUL DUP4 MSTORE SWAP2 PUSH1 0x20 ADD SWAP2 PUSH2 0x700 JUMP JUMPDEST DUP3 ADD SWAP2 SWAP1 PUSH1 0x0 MSTORE PUSH1 0x20 PUSH1 0x0 KECCAK256 SWAP1 JUMPDEST DUP2 SLOAD DUP2 MSTORE SWAP1 PUSH1 0x1 ADD SWAP1 PUSH1 0x20 ADD DUP1 DUP4 GT PUSH2 0x6E3 JUMPI DUP3 SWAP1 SUB PUSH1 0x1F AND DUP3 ADD SWAP2 JUMPDEST POP POP POP POP POP DUP2 JUMP JUMPDEST PUSH2 0x710 PUSH2 0x1148 JUMP JUMPDEST PUSH20 0xFFFFFFFFFFFFFFFFFFFFFFFFFFFFFFFFFFFFFFFF AND DUP2 PUSH20 0xFFFFFFFFFFFFFFFFFFFFFFFFFFFFFFFFFFFFFFFF AND EQ PUSH2 0x77D JUMPI PUSH1 0x40 MLOAD PUSH32 0x8C379A000000000000000000000000000000000000000000000000000000000 DUP2 MSTORE PUSH1 0x4 ADD PUSH2 0x774 SWAP1 PUSH2 0x209F JUMP JUMPDEST PUSH1 0x40 MLOAD DUP1 SWAP2 SUB SWAP1 REVERT JUMPDEST PUSH2 0x787 DUP3 DUP3 PUSH2 0x1150 JUMP JUMPDEST POP POP JUMP JUMPDEST PUSH2 0x7B5 PUSH32 0x82F6ED76E0352438E6A6E35C77719C3F04BF277FDC8FEC7E5FF5F65E001D902 CALLER PUSH2 0x93B JUMP JUMPDEST PUSH2 0x7F4 JUMPI PUSH1 0x40 MLOAD PUSH32 0x8C379A000000000000000000000000000000000000000000000000000000000 DUP2 MSTORE PUSH1 0x4 ADD PUSH2 0x7EB SWAP1 PUSH2 0x205F JUMP JUMPDEST PUSH1 0x40 MLOAD DUP1 SWAP2 SUB SWAP1 REVERT JUMPDEST DUP2 PUSH1 0x9 PUSH1 0x0 PUSH1 0x5 SLOAD DUP2 MSTORE PUSH1 0x20 ADD SWAP1 DUP2 MSTORE PUSH1 0x20 ADD PUSH1 0x0 KECCAK256 PUSH1 0x2 ADD DUP2 SWAP1 SSTORE POP DUP1 PUSH1 0x9 PUSH1 0x0 PUSH1 0x5 SLOAD DUP2 MSTORE PUSH1 0x20 ADD SWAP1 DUP2 MSTORE PUSH1 0x20 ADD PUSH1 0x0 KECCAK256 PUSH1 0x3 ADD DUP2 SWAP1 SSTORE POP PUSH1 0x0 JUMPDEST DUP4 MLOAD DUP2 LT ISZERO PUSH2 0x8E0 JUMPI PUSH1 0x9 PUSH1 0x0 PUSH1 0x5 SLOAD DUP2 MSTORE PUSH1 0x20 ADD SWAP1 DUP2 MSTORE PUSH1 0x20 ADD PUSH1 0x0 KECCAK256 PUSH1 0x0 ADD DUP5 DUP3 DUP2 MLOAD DUP2 LT PUSH2 0x865 JUMPI PUSH2 0x864 PUSH2 0x24D3 JUMP JUMPDEST JUMPDEST PUSH1 0x20 MUL PUSH1 0x20 ADD ADD MLOAD SWAP1 DUP1 PUSH1 0x1 DUP2 SLOAD ADD DUP1 DUP3 SSTORE DUP1 SWAP2 POP POP PUSH1 0x1 SWAP1 SUB SWAP1 PUSH1 0x0 MSTORE PUSH1 0x20 PUSH1 0x0 KECCAK256 ADD PUSH1 0x0 SWAP1 SWAP2 SWAP1 SWAP2 SWAP1 SWAP2 PUSH2 0x100 EXP DUP2 SLOAD DUP2 PUSH20 0xFFFFFFFFFFFFFFFFFFFFFFFFFFFFFFFFFFFFFFFF MUL NOT AND SWAP1 DUP4 PUSH20 0xFFFFFFFFFFFFFFFFFFFFFFFFFFFFFFFFFFFFFFFF AND MUL OR SWAP1 SSTORE POP DUP1 DUP1 PUSH2 0x8D8 SWAP1 PUSH2 0x242C JUMP JUMPDEST SWAP2 POP POP PUSH2 0x831 JUMP JUMPDEST POP PUSH1 0x5 PUSH1 0x0 DUP2 SLOAD DUP1 SWAP3 SWAP2 SWAP1 PUSH2 0x8F4 SWAP1 PUSH2 0x242C JUMP JUMPDEST SWAP2 SWAP1 POP SSTORE POP POP POP POP JUMP JUMPDEST PUSH2 0x906 PUSH2 0x1232 JUMP JUMPDEST PUSH2 0x910 PUSH1 0x0 PUSH2 0x12B0 JUMP JUMPDEST JUMP JUMPDEST PUSH1 0x0 DUP1 PUSH1 0x0 SWAP1 SLOAD SWAP1 PUSH2 0x100 EXP SWAP1 DIV PUSH20 0xFFFFFFFFFFFFFFFFFFFFFFFFFFFFFFFFFFFFFFFF AND SWAP1 POP SWAP1 JUMP JUMPDEST PUSH1 0x0 PUSH1 0x1 PUSH1 0x0 DUP5 DUP2 MSTORE PUSH1 0x20 ADD SWAP1 DUP2 MSTORE PUSH1 0x20 ADD PUSH1 0x0 KECCAK256 PUSH1 0x0 ADD PUSH1 0x0 DUP4 PUSH20 0xFFFFFFFFFFFFFFFFFFFFFFFFFFFFFFFFFFFFFFFF AND PUSH20 0xFFFFFFFFFFFFFFFFFFFFFFFFFFFFFFFFFFFFFFFF AND DUP2 MSTORE PUSH1 0x20 ADD SWAP1 DUP2 MSTORE PUSH1 0x20 ADD PUSH1 0x0 KECCAK256 PUSH1 0x0 SWAP1 SLOAD SWAP1 PUSH2 0x100 EXP SWAP1 DIV PUSH1 0xFF AND SWAP1 POP SWAP3 SWAP2 POP POP JUMP JUMPDEST PUSH1 0x8 PUSH1 0x20 MSTORE DUP1 PUSH1 0x0 MSTORE PUSH1 0x40 PUSH1 0x0 KECCAK256 PUSH1 0x0 SWAP2 POP SWAP1 POP DUP1 PUSH1 0x0 ADD PUSH1 0x0 SWAP1 SLOAD SWAP1 PUSH2 0x100 EXP SWAP1 DIV PUSH20 0xFFFFFFFFFFFFFFFFFFFFFFFFFFFFFFFFFFFFFFFF AND SWAP1 DUP1 PUSH1 0x1 ADD SLOAD SWAP1 DUP1 PUSH1 0x2 ADD SLOAD SWAP1 DUP1 PUSH1 0x3 ADD PUSH1 0x0 SWAP1 SLOAD SWAP1 PUSH2 0x100 EXP SWAP1 DIV PUSH1 0xFF AND SWAP1 POP DUP5 JUMP JUMPDEST PUSH2 0xA0B PUSH2 0x165B JUMP JUMPDEST PUSH1 0x9 PUSH1 0x0 DUP4 DUP2 MSTORE PUSH1 0x20 ADD SWAP1 DUP2 MSTORE PUSH1 0x20 ADD PUSH1 0x0 KECCAK256 PUSH1 0x40 MLOAD DUP1 PUSH1 0xA0 ADD PUSH1 0x40 MSTORE SWAP1 DUP2 PUSH1 0x0 DUP3 ADD DUP1 SLOAD DUP1 PUSH1 0x20 MUL PUSH1 0x20 ADD PUSH1 0x40 MLOAD SWAP1 DUP2 ADD PUSH1 0x40 MSTORE DUP1 SWAP3 SWAP2 SWAP1 DUP2 DUP2 MSTORE PUSH1 0x20 ADD DUP3 DUP1 SLOAD DUP1 ISZERO PUSH2 0xAAE JUMPI PUSH1 0x20 MUL DUP3 ADD SWAP2 SWAP1 PUSH1 0x0 MSTORE PUSH1 0x20 PUSH1 0x0 KECCAK256 SWAP1 JUMPDEST DUP2 PUSH1 0x0 SWAP1 SLOAD SWAP1 PUSH2 0x100 EXP SWAP1 DIV PUSH20 0xFFFFFFFFFFFFFFFFFFFFFFFFFFFFFFFFFFFFFFFF AND PUSH20 0xFFFFFFFFFFFFFFFFFFFFFFFFFFFFFFFFFFFFFFFF AND DUP2 MSTORE PUSH1 0x20 ADD SWAP1 PUSH1 0x1 ADD SWAP1 DUP1 DUP4 GT PUSH2 0xA64 JUMPI JUMPDEST POP POP POP POP POP DUP2 MSTORE PUSH1 0x20 ADD PUSH1 0x1 DUP3 ADD DUP1 SLOAD DUP1 PUSH1 0x20 MUL PUSH1 0x20 ADD PUSH1 0x40 MLOAD SWAP1 DUP2 ADD PUSH1 0x40 MSTORE DUP1 SWAP3 SWAP2 SWAP1 DUP2 DUP2 MSTORE PUSH1 0x20 ADD DUP3 DUP1 SLOAD DUP1 ISZERO PUSH2 0xB06 JUMPI PUSH1 0x20 MUL DUP3 ADD SWAP2 SWAP1 PUSH1 0x0 MSTORE PUSH1 0x20 PUSH1 0x0 KECCAK256 SWAP1 JUMPDEST DUP2 SLOAD DUP2 MSTORE PUSH1 0x20 ADD SWAP1 PUSH1 0x1 ADD SWAP1 DUP1 DUP4 GT PUSH2 0xAF2 JUMPI JUMPDEST POP POP POP POP POP DUP2 MSTORE PUSH1 0x20 ADD PUSH1 0x2 DUP3 ADD SLOAD DUP2 MSTORE PUSH1 0x20 ADD PUSH1 0x3 DUP3 ADD SLOAD DUP2 MSTORE PUSH1 0x20 ADD PUSH1 0x4 DUP3 ADD PUSH1 0x0 SWAP1 SLOAD SWAP1 PUSH2 0x100 EXP SWAP1 DIV PUSH1 0xFF AND ISZERO ISZERO ISZERO ISZERO DUP2 MSTORE POP POP SWAP1 POP SWAP2 SWAP1 POP JUMP JUMPDEST PUSH2 0xB4D PUSH2 0x168C JUMP JUMPDEST PUSH1 0x7 PUSH1 0x0 DUP4 DUP2 MSTORE PUSH1 0x20 ADD SWAP1 DUP2 MSTORE PUSH1 0x20 ADD PUSH1 0x0 KECCAK256 PUSH1 0x40 MLOAD DUP1 PUSH1 0x60 ADD PUSH1 0x40 MSTORE SWAP1 DUP2 PUSH1 0x0 DUP3 ADD DUP1 SLOAD PUSH2 0xB7B SWAP1 PUSH2 0x23C9 JUMP JUMPDEST DUP1 PUSH1 0x1F ADD PUSH1 0x20 DUP1 SWAP2 DIV MUL PUSH1 0x20 ADD PUSH1 0x40 MLOAD SWAP1 DUP2 ADD PUSH1 0x40 MSTORE DUP1 SWAP3 SWAP2 SWAP1 DUP2 DUP2 MSTORE PUSH1 0x20 ADD DUP3 DUP1 SLOAD PUSH2 0xBA7 SWAP1 PUSH2 0x23C9 JUMP JUMPDEST DUP1 ISZERO PUSH2 0xBF4 JUMPI DUP1 PUSH1 0x1F LT PUSH2 0xBC9 JUMPI PUSH2 0x100 DUP1 DUP4 SLOAD DIV MUL DUP4 MSTORE SWAP2 PUSH1 0x20 ADD SWAP2 PUSH2 0xBF4 JUMP JUMPDEST DUP3 ADD SWAP2 SWAP1 PUSH1 0x0 MSTORE PUSH1 0x20 PUSH1 0x0 KECCAK256 SWAP1 JUMPDEST DUP2 SLOAD DUP2 MSTORE SWAP1 PUSH1 0x1 ADD SWAP1 PUSH1 0x20 ADD DUP1 DUP4 GT PUSH2 0xBD7 JUMPI DUP3 SWAP1 SUB PUSH1 0x1F AND DUP3 ADD SWAP2 JUMPDEST POP POP POP POP POP DUP2 MSTORE PUSH1 0x20 ADD PUSH1 0x1 DUP3 ADD PUSH1 0x0 SWAP1 SLOAD SWAP1 PUSH2 0x100 EXP SWAP1 DIV PUSH20 0xFFFFFFFFFFFFFFFFFFFFFFFFFFFFFFFFFFFFFFFF AND PUSH20 0xFFFFFFFFFFFFFFFFFFFFFFFFFFFFFFFFFFFFFFFF AND PUSH20 0xFFFFFFFFFFFFFFFFFFFFFFFFFFFFFFFFFFFFFFFF AND DUP2 MSTORE PUSH1 0x20 ADD PUSH1 0x2 DUP3 ADD DUP1 SLOAD PUSH2 0xC63 SWAP1 PUSH2 0x23C9 JUMP JUMPDEST DUP1 PUSH1 0x1F ADD PUSH1 0x20 DUP1 SWAP2 DIV MUL PUSH1 0x20 ADD PUSH1 0x40 MLOAD SWAP1 DUP2 ADD PUSH1 0x40 MSTORE DUP1 SWAP3 SWAP2 SWAP1 DUP2 DUP2 MSTORE PUSH1 0x20 ADD DUP3 DUP1 SLOAD PUSH2 0xC8F SWAP1 PUSH2 0x23C9 JUMP JUMPDEST DUP1 ISZERO PUSH2 0xCDC JUMPI DUP1 PUSH1 0x1F LT PUSH2 0xCB1 JUMPI PUSH2 0x100 DUP1 DUP4 SLOAD DIV MUL DUP4 MSTORE SWAP2 PUSH1 0x20 ADD SWAP2 PUSH2 0xCDC JUMP JUMPDEST DUP3 ADD SWAP2 SWAP1 PUSH1 0x0 MSTORE PUSH1 0x20 PUSH1 0x0 KECCAK256 SWAP1 JUMPDEST DUP2 SLOAD DUP2 MSTORE SWAP1 PUSH1 0x1 ADD SWAP1 PUSH1 0x20 ADD DUP1 DUP4 GT PUSH2 0xCBF JUMPI DUP3 SWAP1 SUB PUSH1 0x1F AND DUP3 ADD SWAP2 JUMPDEST POP POP POP POP POP DUP2 MSTORE POP POP SWAP1 POP SWAP2 SWAP1 POP JUMP JUMPDEST PUSH1 0x0 DUP1 SHL DUP2 JUMP JUMPDEST PUSH32 0x15283FD96AA656C9DF35AC2FCB112678A5F24F1CA97E591A97D1D16003DBFC9C DUP2 JUMP JUMPDEST PUSH2 0xD20 DUP3 PUSH2 0x49D JUMP JUMPDEST PUSH2 0xD29 DUP2 PUSH2 0x1054 JUMP JUMPDEST PUSH2 0xD33 DUP4 DUP4 PUSH2 0x1150 JUMP JUMPDEST POP POP POP JUMP JUMPDEST PUSH2 0xD62 PUSH32 0x82F6ED76E0352438E6A6E35C77719C3F04BF277FDC8FEC7E5FF5F65E001D902 CALLER PUSH2 0x93B JUMP JUMPDEST PUSH2 0xDA1 JUMPI PUSH1 0x40 MLOAD PUSH32 0x8C379A000000000000000000000000000000000000000000000000000000000 DUP2 MSTORE PUSH1 0x4 ADD PUSH2 0xD98 SWAP1 PUSH2 0x205F JUMP JUMPDEST PUSH1 0x40 MLOAD DUP1 SWAP2 SUB SWAP1 REVERT JUMPDEST DUP3 PUSH1 0x7 PUSH1 0x0 PUSH1 0x3 SLOAD DUP2 MSTORE PUSH1 0x20 ADD SWAP1 DUP2 MSTORE PUSH1 0x20 ADD PUSH1 0x0 KECCAK256 PUSH1 0x0 ADD SWAP1 DUP1 MLOAD SWAP1 PUSH1 0x20 ADD SWAP1 PUSH2 0xDCD SWAP3 SWAP2 SWAP1 PUSH2 0x16C3 JUMP JUMPDEST POP DUP2 PUSH1 0x7 PUSH1 0x0 PUSH1 0x3 SLOAD DUP2 MSTORE PUSH1 0x20 ADD SWAP1 DUP2 MSTORE PUSH1 0x20 ADD PUSH1 0x0 KECCAK256 PUSH1 0x1 ADD PUSH1 0x0 PUSH2 0x100 EXP DUP2 SLOAD DUP2 PUSH20 0xFFFFFFFFFFFFFFFFFFFFFFFFFFFFFFFFFFFFFFFF MUL NOT AND SWAP1 DUP4 PUSH20 0xFFFFFFFFFFFFFFFFFFFFFFFFFFFFFFFFFFFFFFFF AND MUL OR SWAP1 SSTORE POP PUSH1 0x6 DUP2 DUP2 SLOAD DUP2 LT PUSH2 0xE39 JUMPI PUSH2 0xE38 PUSH2 0x24D3 JUMP JUMPDEST JUMPDEST SWAP1 PUSH1 0x0 MSTORE PUSH1 0x20 PUSH1 0x0 KECCAK256 ADD PUSH1 0x7 PUSH1 0x0 PUSH1 0x3 SLOAD DUP2 MSTORE PUSH1 0x20 ADD SWAP1 DUP2 MSTORE PUSH1 0x20 ADD PUSH1 0x0 KECCAK256 PUSH1 0x2 ADD SWAP1 DUP1 SLOAD PUSH2 0xE67 SWAP1 PUSH2 0x23C9 JUMP JUMPDEST PUSH2 0xE72 SWAP3 SWAP2 SWAP1 PUSH2 0x1749 JUMP JUMPDEST POP PUSH1 0x3 PUSH1 0x0 DUP2 SLOAD DUP1 SWAP3 SWAP2 SWAP1 PUSH2 0xE86 SWAP1 PUSH2 0x242C JUMP JUMPDEST SWAP2 SWAP1 POP SSTORE POP POP POP POP JUMP JUMPDEST CALLER PUSH1 0x8 PUSH1 0x0 PUSH1 0x4 SLOAD DUP2 MSTORE PUSH1 0x20 ADD SWAP1 DUP2 MSTORE PUSH1 0x20 ADD PUSH1 0x0 KECCAK256 PUSH1 0x0 ADD PUSH1 0x0 PUSH2 0x100 EXP DUP2 SLOAD DUP2 PUSH20 0xFFFFFFFFFFFFFFFFFFFFFFFFFFFFFFFFFFFFFFFF MUL NOT AND SWAP1 DUP4 PUSH20 0xFFFFFFFFFFFFFFFFFFFFFFFFFFFFFFFFFFFFFFFF AND MUL OR SWAP1 SSTORE POP DUP1 PUSH1 0x8 PUSH1 0x0 PUSH1 0x4 SLOAD DUP2 MSTORE PUSH1 0x20 ADD SWAP1 DUP2 MSTORE PUSH1 0x20 ADD PUSH1 0x0 KECCAK256 PUSH1 0x1 ADD DUP2 SWAP1 SSTORE POP PUSH2 0xF2E PUSH32 0x15283FD96AA656C9DF35AC2FCB112678A5F24F1CA97E591A97D1D16003DBFC9C CALLER PUSH2 0x1374 JUMP JUMPDEST POP JUMP JUMPDEST PUSH2 0xF39 PUSH2 0x1232 JUMP JUMPDEST PUSH2 0xF63 PUSH32 0x82F6ED76E0352438E6A6E35C77719C3F04BF277FDC8FEC7E5FF5F65E001D902 DUP3 PUSH2 0x63B JUMP JUMPDEST POP JUMP JUMPDEST PUSH2 0xF6E PUSH2 0x1232 JUMP JUMPDEST PUSH1 0x0 PUSH20 0xFFFFFFFFFFFFFFFFFFFFFFFFFFFFFFFFFFFFFFFF AND DUP2 PUSH20 0xFFFFFFFFFFFFFFFFFFFFFFFFFFFFFFFFFFFFFFFF AND EQ ISZERO PUSH2 0xFDE JUMPI PUSH1 0x40 MLOAD PUSH32 0x8C379A000000000000000000000000000000000000000000000000000000000 DUP2 MSTORE PUSH1 0x4 ADD PUSH2 0xFD5 SWAP1 PUSH2 0x203F JUMP JUMPDEST PUSH1 0x40 MLOAD DUP1 SWAP2 SUB SWAP1 REVERT JUMPDEST PUSH2 0xFE7 DUP2 PUSH2 0x12B0 JUMP JUMPDEST POP JUMP JUMPDEST PUSH1 0x0 PUSH32 0x1FFC9A700000000000000000000000000000000000000000000000000000000 PUSH28 0xFFFFFFFFFFFFFFFFFFFFFFFFFFFFFFFFFFFFFFFFFFFFFFFFFFFFFFFF NOT AND DUP3 PUSH28 0xFFFFFFFFFFFFFFFFFFFFFFFFFFFFFFFFFFFFFFFFFFFFFFFFFFFFFFFF NOT AND EQ SWAP1 POP SWAP2 SWAP1 POP JUMP JUMPDEST PUSH2 0x1065 DUP2 PUSH2 0x1060 PUSH2 0x1148 JUMP JUMPDEST PUSH2 0x1382 JUMP JUMPDEST POP JUMP JUMPDEST PUSH2 0x1072 DUP3 DUP3 PUSH2 0x93B JUMP JUMPDEST PUSH2 0x1144 JUMPI PUSH1 0x1 DUP1 PUSH1 0x0 DUP5 DUP2 MSTORE PUSH1 0x20 ADD SWAP1 DUP2 MSTORE PUSH1 0x20 ADD PUSH1 0x0 KECCAK256 PUSH1 0x0 ADD PUSH1 0x0 DUP4 PUSH20 0xFFFFFFFFFFFFFFFFFFFFFFFFFFFFFFFFFFFFFFFF AND PUSH20 0xFFFFFFFFFFFFFFFFFFFFFFFFFFFFFFFFFFFFFFFF AND DUP2 MSTORE PUSH1 0x20 ADD SWAP1 DUP2 MSTORE PUSH1 0x20 ADD PUSH1 0x0 KECCAK256 PUSH1 0x0 PUSH2 0x100 EXP DUP2 SLOAD DUP2 PUSH1 0xFF MUL NOT AND SWAP1 DUP4 ISZERO ISZERO MUL OR SWAP1 SSTORE POP PUSH2 0x10E9 PUSH2 0x1148 JUMP JUMPDEST PUSH20 0xFFFFFFFFFFFFFFFFFFFFFFFFFFFFFFFFFFFFFFFF AND DUP2 PUSH20 0xFFFFFFFFFFFFFFFFFFFFFFFFFFFFFFFFFFFFFFFF AND DUP4 PUSH32 0x2F8788117E7EFF1D82E926EC794901D17C78024A50270940304540A733656F0D PUSH1 0x40 MLOAD PUSH1 0x40 MLOAD DUP1 SWAP2 SUB SWAP1 LOG4 JUMPDEST POP POP JUMP JUMPDEST PUSH1 0x0 CALLER SWAP1 POP SWAP1 JUMP JUMPDEST PUSH2 0x115A DUP3 DUP3 PUSH2 0x93B JUMP JUMPDEST ISZERO PUSH2 0x122E JUMPI PUSH1 0x0 PUSH1 0x1 PUSH1 0x0 DUP5 DUP2 MSTORE PUSH1 0x20 ADD SWAP1 DUP2 MSTORE PUSH1 0x20 ADD PUSH1 0x0 KECCAK256 PUSH1 0x0 ADD PUSH1 0x0 DUP4 PUSH20 0xFFFFFFFFFFFFFFFFFFFFFFFFFFFFFFFFFFFFFFFF AND PUSH20 0xFFFFFFFFFFFFFFFFFFFFFFFFFFFFFFFFFFFFFFFF AND DUP2 MSTORE PUSH1 0x20 ADD SWAP1 DUP2 MSTORE PUSH1 0x20 ADD PUSH1 0x0 KECCAK256 PUSH1 0x0 PUSH2 0x100 EXP DUP2 SLOAD DUP2 PUSH1 0xFF MUL NOT AND SWAP1 DUP4 ISZERO ISZERO MUL OR SWAP1 SSTORE POP PUSH2 0x11D3 PUSH2 0x1148 JUMP JUMPDEST PUSH20 0xFFFFFFFFFFFFFFFFFFFFFFFFFFFFFFFFFFFFFFFF AND DUP2 PUSH20 0xFFFFFFFFFFFFFFFFFFFFFFFFFFFFFFFFFFFFFFFF AND DUP4 PUSH32 0xF6391F5C32D9C69D2A47EA670B442974B53935D1EDC7FD64EB21E047A839171B PUSH1 0x40 MLOAD PUSH1 0x40 MLOAD DUP1 SWAP2 SUB SWAP1 LOG4 JUMPDEST POP POP JUMP JUMPDEST PUSH2 0x123A PUSH2 0x1148 JUMP JUMPDEST PUSH20 0xFFFFFFFFFFFFFFFFFFFFFFFFFFFFFFFFFFFFFFFF AND PUSH2 0x1258 PUSH2 0x912 JUMP JUMPDEST PUSH20 0xFFFFFFFFFFFFFFFFFFFFFFFFFFFFFFFFFFFFFFFF AND EQ PUSH2 0x12AE JUMPI PUSH1 0x40 MLOAD PUSH32 0x8C379A000000000000000000000000000000000000000000000000000000000 DUP2 MSTORE PUSH1 0x4 ADD PUSH2 0x12A5 SWAP1 PUSH2 0x207F JUMP JUMPDEST PUSH1 0x40 MLOAD DUP1 SWAP2 SUB SWAP1 REVERT JUMPDEST JUMP JUMPDEST PUSH1 0x0 DUP1 PUSH1 0x0 SWAP1 SLOAD SWAP1 PUSH2 0x100 EXP SWAP1 DIV PUSH20 0xFFFFFFFFFFFFFFFFFFFFFFFFFFFFFFFFFFFFFFFF AND SWAP1 POP DUP2 PUSH1 0x0 DUP1 PUSH2 0x100 EXP DUP2 SLOAD DUP2 PUSH20 0xFFFFFFFFFFFFFFFFFFFFFFFFFFFFFFFFFFFFFFFF MUL NOT AND SWAP1 DUP4 PUSH20 0xFFFFFFFFFFFFFFFFFFFFFFFFFFFFFFFFFFFFFFFF AND MUL OR SWAP1 SSTORE POP DUP2 PUSH20 0xFFFFFFFFFFFFFFFFFFFFFFFFFFFFFFFFFFFFFFFF AND DUP2 PUSH20 0xFFFFFFFFFFFFFFFFFFFFFFFFFFFFFFFFFFFFFFFF AND PUSH32 0x8BE0079C531659141344CD1FD0A4F28419497F9722A3DAAFE3B4186F6B6457E0 PUSH1 0x40 MLOAD PUSH1 0x40 MLOAD DUP1 SWAP2 SUB SWAP1 LOG3 POP POP JUMP JUMPDEST PUSH2 0x137E DUP3 DUP3 PUSH2 0x1068 JUMP JUMPDEST POP POP JUMP JUMPDEST PUSH2 0x138C DUP3 DUP3 PUSH2 0x93B JUMP JUMPDEST PUSH2 0x141B JUMPI PUSH2 0x13B1 DUP2 PUSH20 0xFFFFFFFFFFFFFFFFFFFFFFFFFFFFFFFFFFFFFFFF AND PUSH1 0x14 PUSH2 0x141F JUMP JUMPDEST PUSH2 0x13BF DUP4 PUSH1 0x0 SHR PUSH1 0x20 PUSH2 0x141F JUMP JUMPDEST PUSH1 0x40 MLOAD PUSH1 0x20 ADD PUSH2 0x13D0 SWAP3 SWAP2 SWAP1 PUSH2 0x1EE8 JUMP JUMPDEST PUSH1 0x40 MLOAD PUSH1 0x20 DUP2 DUP4 SUB SUB DUP2 MSTORE SWAP1 PUSH1 0x40 MSTORE PUSH1 0x40 MLOAD PUSH32 0x8C379A000000000000000000000000000000000000000000000000000000000 DUP2 MSTORE PUSH1 0x4 ADD PUSH2 0x1412 SWAP2 SWAP1 PUSH2 0x1FB8 JUMP JUMPDEST PUSH1 0x40 MLOAD DUP1 SWAP2 SUB SWAP1 REVERT JUMPDEST POP POP JUMP JUMPDEST PUSH1 0x60 PUSH1 0x0 PUSH1 0x2 DUP4 PUSH1 0x2 PUSH2 0x1432 SWAP2 SWAP1 PUSH2 0x2285 JUMP JUMPDEST PUSH2 0x143C SWAP2 SWAP1 PUSH2 0x222F JUMP JUMPDEST PUSH8 0xFFFFFFFFFFFFFFFF DUP2 GT ISZERO PUSH2 0x1455 JUMPI PUSH2 0x1454 PUSH2 0x2502 JUMP JUMPDEST JUMPDEST PUSH1 0x40 MLOAD SWAP1 DUP1 DUP3 MSTORE DUP1 PUSH1 0x1F ADD PUSH1 0x1F NOT AND PUSH1 0x20 ADD DUP3 ADD PUSH1 0x40 MSTORE DUP1 ISZERO PUSH2 0x1487 JUMPI DUP2 PUSH1 0x20 ADD PUSH1 0x1 DUP3 MUL DUP1 CALLDATASIZE DUP4 CALLDATACOPY DUP1 DUP3 ADD SWAP2 POP POP SWAP1 POP JUMPDEST POP SWAP1 POP PUSH32 0x3000000000000000000000000000000000000000000000000000000000000000 DUP2 PUSH1 0x0 DUP2 MLOAD DUP2 LT PUSH2 0x14BF JUMPI PUSH2 0x14BE PUSH2 0x24D3 JUMP JUMPDEST JUMPDEST PUSH1 0x20 ADD ADD SWAP1 PUSH31 0xFFFFFFFFFFFFFFFFFFFFFFFFFFFFFFFFFFFFFFFFFFFFFFFFFFFFFFFFFFFFFF NOT AND SWAP1 DUP2 PUSH1 0x0 BYTE SWAP1 MSTORE8 POP PUSH32 0x7800000000000000000000000000000000000000000000000000000000000000 DUP2 PUSH1 0x1 DUP2 MLOAD DUP2 LT PUSH2 0x1523 JUMPI PUSH2 0x1522 PUSH2 0x24D3 JUMP JUMPDEST JUMPDEST PUSH1 0x20 ADD ADD SWAP1 PUSH31 0xFFFFFFFFFFFFFFFFFFFFFFFFFFFFFFFFFFFFFFFFFFFFFFFFFFFFFFFFFFFFFF NOT AND SWAP1 DUP2 PUSH1 0x0 BYTE SWAP1 MSTORE8 POP PUSH1 0x0 PUSH1 0x1 DUP5 PUSH1 0x2 PUSH2 0x1563 SWAP2 SWAP1 PUSH2 0x2285 JUMP JUMPDEST PUSH2 0x156D SWAP2 SWAP1 PUSH2 0x222F JUMP JUMPDEST SWAP1 POP JUMPDEST PUSH1 0x1 DUP2 GT ISZERO PUSH2 0x160D JUMPI PUSH32 0x3031323334353637383961626364656600000000000000000000000000000000 PUSH1 0xF DUP7 AND PUSH1 0x10 DUP2 LT PUSH2 0x15AF JUMPI PUSH2 0x15AE PUSH2 0x24D3 JUMP JUMPDEST JUMPDEST BYTE PUSH1 0xF8 SHL DUP3 DUP3 DUP2 MLOAD DUP2 LT PUSH2 0x15C6 JUMPI PUSH2 0x15C5 PUSH2 0x24D3 JUMP JUMPDEST JUMPDEST PUSH1 0x20 ADD ADD SWAP1 PUSH31 0xFFFFFFFFFFFFFFFFFFFFFFFFFFFFFFFFFFFFFFFFFFFFFFFFFFFFFFFFFFFFFF NOT AND SWAP1 DUP2 PUSH1 0x0 BYTE SWAP1 MSTORE8 POP PUSH1 0x4 DUP6 SWAP1 SHR SWAP5 POP DUP1 PUSH2 0x1606 SWAP1 PUSH2 0x239F JUMP JUMPDEST SWAP1 POP PUSH2 0x1570 JUMP JUMPDEST POP PUSH1 0x0 DUP5 EQ PUSH2 0x1651 JUMPI PUSH1 0x40 MLOAD PUSH32 0x8C379A000000000000000000000000000000000000000000000000000000000 DUP2 MSTORE PUSH1 0x4 ADD PUSH2 0x1648 SWAP1 PUSH2 0x201F JUMP JUMPDEST PUSH1 0x40 MLOAD DUP1 SWAP2 SUB SWAP1 REVERT JUMPDEST DUP1 SWAP2 POP POP SWAP3 SWAP2 POP POP JUMP JUMPDEST PUSH1 0x40 MLOAD DUP1 PUSH1 0xA0 ADD PUSH1 0x40 MSTORE DUP1 PUSH1 0x60 DUP2 MSTORE PUSH1 0x20 ADD PUSH1 0x60 DUP2 MSTORE PUSH1 0x20 ADD PUSH1 0x0 DUP2 MSTORE PUSH1 0x20 ADD PUSH1 0x0 DUP2 MSTORE PUSH1 0x20 ADD PUSH1 0x0 ISZERO ISZERO DUP2 MSTORE POP SWAP1 JUMP JUMPDEST PUSH1 0x40 MLOAD DUP1 PUSH1 0x60 ADD PUSH1 0x40 MSTORE DUP1 PUSH1 0x60 DUP2 MSTORE PUSH1 0x20 ADD PUSH1 0x0 PUSH20 0xFFFFFFFFFFFFFFFFFFFFFFFFFFFFFFFFFFFFFFFF AND DUP2 MSTORE PUSH1 0x20 ADD PUSH1 0x60 DUP2 MSTORE POP SWAP1 JUMP JUMPDEST DUP3 DUP1 SLOAD PUSH2 0x16CF SWAP1 PUSH2 0x23C9 JUMP JUMPDEST SWAP1 PUSH1 0x0 MSTORE PUSH1 0x20 PUSH1 0x0 KECCAK256 SWAP1 PUSH1 0x1F ADD PUSH1 0x20 SWAP1 DIV DUP2 ADD SWAP3 DUP3 PUSH2 0x16F1 JUMPI PUSH1 0x0 DUP6 SSTORE PUSH2 0x1738 JUMP JUMPDEST DUP3 PUSH1 0x1F LT PUSH2 0x170A JUMPI DUP1 MLOAD PUSH1 0xFF NOT AND DUP4 DUP1 ADD OR DUP6 SSTORE PUSH2 0x1738 JUMP JUMPDEST DUP3 DUP1 ADD PUSH1 0x1 ADD DUP6 SSTORE DUP3 ISZERO PUSH2 0x1738 JUMPI SWAP2 DUP3 ADD JUMPDEST DUP3 DUP2 GT ISZERO PUSH2 0x1737 JUMPI DUP3 MLOAD DUP3 SSTORE SWAP2 PUSH1 0x20 ADD SWAP2 SWAP1 PUSH1 0x1 ADD SWAP1 PUSH2 0x171C JUMP JUMPDEST JUMPDEST POP SWAP1 POP PUSH2 0x1745 SWAP2 SWAP1 PUSH2 0x17D6 JUMP JUMPDEST POP SWAP1 JUMP JUMPDEST DUP3 DUP1 SLOAD PUSH2 0x1755 SWAP1 PUSH2 0x23C9 JUMP JUMPDEST SWAP1 PUSH1 0x0 MSTORE PUSH1 0x20 PUSH1 0x0 KECCAK256 SWAP1 PUSH1 0x1F ADD PUSH1 0x20 SWAP1 DIV DUP2 ADD SWAP3 DUP3 PUSH2 0x1777 JUMPI PUSH1 0x0 DUP6 SSTORE PUSH2 0x17C5 JUMP JUMPDEST DUP3 PUSH1 0x1F LT PUSH2 0x1788 JUMPI DUP1 SLOAD DUP6 SSTORE PUSH2 0x17C5 JUMP JUMPDEST DUP3 DUP1 ADD PUSH1 0x1 ADD DUP6 SSTORE DUP3 ISZERO PUSH2 0x17C5 JUMPI PUSH1 0x0 MSTORE PUSH1 0x20 PUSH1 0x0 KECCAK256 SWAP2 PUSH1 0x1F ADD PUSH1 0x20 SWAP1 DIV DUP3 ADD JUMPDEST DUP3 DUP2 GT ISZERO PUSH2 0x17C4 JUMPI DUP3 SLOAD DUP3 SSTORE SWAP2 PUSH1 0x1 ADD SWAP2 SWAP1 PUSH1 0x1 ADD SWAP1 PUSH2 0x17A9 JUMP JUMPDEST JUMPDEST POP SWAP1 POP PUSH2 0x17D2 SWAP2 SWAP1 PUSH2 0x17D6 JUMP JUMPDEST POP SWAP1 JUMP JUMPDEST JUMPDEST DUP1 DUP3 GT ISZERO PUSH2 0x17EF JUMPI PUSH1 0x0 DUP2 PUSH1 0x0 SWAP1 SSTORE POP PUSH1 0x1 ADD PUSH2 0x17D7 JUMP JUMPDEST POP SWAP1 JUMP JUMPDEST PUSH1 0x0 PUSH2 0x1806 PUSH2 0x1801 DUP5 PUSH2 0x2128 JUMP JUMPDEST PUSH2 0x2103 JUMP JUMPDEST SWAP1 POP DUP1 DUP4 DUP3 MSTORE PUSH1 0x20 DUP3 ADD SWAP1 POP DUP3 DUP6 PUSH1 0x20 DUP7 MUL DUP3 ADD GT ISZERO PUSH2 0x1829 JUMPI PUSH2 0x1828 PUSH2 0x2536 JUMP JUMPDEST JUMPDEST PUSH1 0x0 JUMPDEST DUP6 DUP2 LT ISZERO PUSH2 0x1859 JUMPI DUP2 PUSH2 0x183F DUP9 DUP3 PUSH2 0x18A5 JUMP JUMPDEST DUP5 MSTORE PUSH1 0x20 DUP5 ADD SWAP4 POP PUSH1 0x20 DUP4 ADD SWAP3 POP POP PUSH1 0x1 DUP2 ADD SWAP1 POP PUSH2 0x182C JUMP JUMPDEST POP POP POP SWAP4 SWAP3 POP POP POP JUMP JUMPDEST PUSH1 0x0 PUSH2 0x1876 PUSH2 0x1871 DUP5 PUSH2 0x2154 JUMP JUMPDEST PUSH2 0x2103 JUMP JUMPDEST SWAP1 POP DUP3 DUP2 MSTORE PUSH1 0x20 DUP2 ADD DUP5 DUP5 DUP5 ADD GT ISZERO PUSH2 0x1892 JUMPI PUSH2 0x1891 PUSH2 0x253B JUMP JUMPDEST JUMPDEST PUSH2 0x189D DUP5 DUP3 DUP6 PUSH2 0x235D JUMP JUMPDEST POP SWAP4 SWAP3 POP POP POP JUMP JUMPDEST PUSH1 0x0 DUP2 CALLDATALOAD SWAP1 POP PUSH2 0x18B4 DUP2 PUSH2 0x26C6 JUMP JUMPDEST SWAP3 SWAP2 POP POP JUMP JUMPDEST PUSH1 0x0 DUP3 PUSH1 0x1F DUP4 ADD SLT PUSH2 0x18CF JUMPI PUSH2 0x18CE PUSH2 0x2531 JUMP JUMPDEST JUMPDEST DUP2 CALLDATALOAD PUSH2 0x18DF DUP5 DUP3 PUSH1 0x20 DUP7 ADD PUSH2 0x17F3 JUMP JUMPDEST SWAP2 POP POP SWAP3 SWAP2 POP POP JUMP JUMPDEST PUSH1 0x0 DUP2 CALLDATALOAD SWAP1 POP PUSH2 0x18F7 DUP2 PUSH2 0x26DD JUMP JUMPDEST SWAP3 SWAP2 POP POP JUMP JUMPDEST PUSH1 0x0 DUP2 CALLDATALOAD SWAP1 POP PUSH2 0x190C DUP2 PUSH2 0x26F4 JUMP JUMPDEST SWAP3 SWAP2 POP POP JUMP JUMPDEST PUSH1 0x0 DUP3 PUSH1 0x1F DUP4 ADD SLT PUSH2 0x1927 JUMPI PUSH2 0x1926 PUSH2 0x2531 JUMP JUMPDEST JUMPDEST DUP2 CALLDATALOAD PUSH2 0x1937 DUP5 DUP3 PUSH1 0x20 DUP7 ADD PUSH2 0x1863 JUMP JUMPDEST SWAP2 POP POP SWAP3 SWAP2 POP POP JUMP JUMPDEST PUSH1 0x0 DUP2 CALLDATALOAD SWAP1 POP PUSH2 0x194F DUP2 PUSH2 0x270B JUMP JUMPDEST SWAP3 SWAP2 POP POP JUMP JUMPDEST PUSH1 0x0 PUSH1 0x20 DUP3 DUP5 SUB SLT ISZERO PUSH2 0x196B JUMPI PUSH2 0x196A PUSH2 0x2545 JUMP JUMPDEST JUMPDEST PUSH1 0x0 PUSH2 0x1979 DUP5 DUP3 DUP6 ADD PUSH2 0x18A5 JUMP JUMPDEST SWAP2 POP POP SWAP3 SWAP2 POP POP JUMP JUMPDEST PUSH1 0x0 DUP1 PUSH1 0x0 PUSH1 0x60 DUP5 DUP7 SUB SLT ISZERO PUSH2 0x199B JUMPI PUSH2 0x199A PUSH2 0x2545 JUMP JUMPDEST JUMPDEST PUSH1 0x0 DUP5 ADD CALLDATALOAD PUSH8 0xFFFFFFFFFFFFFFFF DUP2 GT ISZERO PUSH2 0x19B9 JUMPI PUSH2 0x19B8 PUSH2 0x2540 JUMP JUMPDEST JUMPDEST PUSH2 0x19C5 DUP7 DUP3 DUP8 ADD PUSH2 0x18BA JUMP JUMPDEST SWAP4 POP POP PUSH1 0x20 PUSH2 0x19D6 DUP7 DUP3 DUP8 ADD PUSH2 0x1940 JUMP JUMPDEST SWAP3 POP POP PUSH1 0x40 PUSH2 0x19E7 DUP7 DUP3 DUP8 ADD PUSH2 0x1940 JUMP JUMPDEST SWAP2 POP POP SWAP3 POP SWAP3 POP SWAP3 JUMP JUMPDEST PUSH1 0x0 PUSH1 0x20 DUP3 DUP5 SUB SLT ISZERO PUSH2 0x1A07 JUMPI PUSH2 0x1A06 PUSH2 0x2545 JUMP JUMPDEST JUMPDEST PUSH1 0x0 PUSH2 0x1A15 DUP5 DUP3 DUP6 ADD PUSH2 0x18E8 JUMP JUMPDEST SWAP2 POP POP SWAP3 SWAP2 POP POP JUMP JUMPDEST PUSH1 0x0 DUP1 PUSH1 0x40 DUP4 DUP6 SUB SLT ISZERO PUSH2 0x1A35 JUMPI PUSH2 0x1A34 PUSH2 0x2545 JUMP JUMPDEST JUMPDEST PUSH1 0x0 PUSH2 0x1A43 DUP6 DUP3 DUP7 ADD PUSH2 0x18E8 JUMP JUMPDEST SWAP3 POP POP PUSH1 0x20 PUSH2 0x1A54 DUP6 DUP3 DUP7 ADD PUSH2 0x18A5 JUMP JUMPDEST SWAP2 POP POP SWAP3 POP SWAP3 SWAP1 POP JUMP JUMPDEST PUSH1 0x0 PUSH1 0x20 DUP3 DUP5 SUB SLT ISZERO PUSH2 0x1A74 JUMPI PUSH2 0x1A73 PUSH2 0x2545 JUMP JUMPDEST JUMPDEST PUSH1 0x0 PUSH2 0x1A82 DUP5 DUP3 DUP6 ADD PUSH2 0x18FD JUMP JUMPDEST SWAP2 POP POP SWAP3 SWAP2 POP POP JUMP JUMPDEST PUSH1 0x0 DUP1 PUSH1 0x0 PUSH1 0x60 DUP5 DUP7 SUB SLT ISZERO PUSH2 0x1AA4 JUMPI PUSH2 0x1AA3 PUSH2 0x2545 JUMP JUMPDEST JUMPDEST PUSH1 0x0 DUP5 ADD CALLDATALOAD PUSH8 0xFFFFFFFFFFFFFFFF DUP2 GT ISZERO PUSH2 0x1AC2 JUMPI PUSH2 0x1AC1 PUSH2 0x2540 JUMP JUMPDEST JUMPDEST PUSH2 0x1ACE DUP7 DUP3 DUP8 ADD PUSH2 0x1912 JUMP JUMPDEST SWAP4 POP POP PUSH1 0x20 PUSH2 0x1ADF DUP7 DUP3 DUP8 ADD PUSH2 0x18A5 JUMP JUMPDEST SWAP3 POP POP PUSH1 0x40 PUSH2 0x1AF0 DUP7 DUP3 DUP8 ADD PUSH2 0x1940 JUMP JUMPDEST SWAP2 POP POP SWAP3 POP SWAP3 POP SWAP3 JUMP JUMPDEST PUSH1 0x0 PUSH1 0x20 DUP3 DUP5 SUB SLT ISZERO PUSH2 0x1B10 JUMPI PUSH2 0x1B0F PUSH2 0x2545 JUMP JUMPDEST JUMPDEST PUSH1 0x0 PUSH2 0x1B1E DUP5 DUP3 DUP6 ADD PUSH2 0x1940 JUMP JUMPDEST SWAP2 POP POP SWAP3 SWAP2 POP POP JUMP JUMPDEST PUSH1 0x0 PUSH2 0x1B33 DUP4 DUP4 PUSH2 0x1B57 JUMP JUMPDEST PUSH1 0x20 DUP4 ADD SWAP1 POP SWAP3 SWAP2 POP POP JUMP JUMPDEST PUSH1 0x0 PUSH2 0x1B4B DUP4 DUP4 PUSH2 0x1ECA JUMP JUMPDEST PUSH1 0x20 DUP4 ADD SWAP1 POP SWAP3 SWAP2 POP POP JUMP JUMPDEST PUSH2 0x1B60 DUP2 PUSH2 0x22DF JUMP JUMPDEST DUP3 MSTORE POP POP JUMP JUMPDEST PUSH2 0x1B6F DUP2 PUSH2 0x22DF JUMP JUMPDEST DUP3 MSTORE POP POP JUMP JUMPDEST PUSH1 0x0 PUSH2 0x1B80 DUP3 PUSH2 0x21A5 JUMP JUMPDEST PUSH2 0x1B8A DUP2 DUP6 PUSH2 0x21E0 JUMP JUMPDEST SWAP4 POP PUSH2 0x1B95 DUP4 PUSH2 0x2185 JUMP JUMPDEST DUP1 PUSH1 0x0 JUMPDEST DUP4 DUP2 LT ISZERO PUSH2 0x1BC6 JUMPI DUP2 MLOAD PUSH2 0x1BAD DUP9 DUP3 PUSH2 0x1B27 JUMP JUMPDEST SWAP8 POP PUSH2 0x1BB8 DUP4 PUSH2 0x21C6 JUMP JUMPDEST SWAP3 POP POP PUSH1 0x1 DUP2 ADD SWAP1 POP PUSH2 0x1B99 JUMP JUMPDEST POP DUP6 SWAP4 POP POP POP POP SWAP3 SWAP2 POP POP JUMP JUMPDEST PUSH1 0x0 PUSH2 0x1BDE DUP3 PUSH2 0x21B0 JUMP JUMPDEST PUSH2 0x1BE8 DUP2 DUP6 PUSH2 0x21F1 JUMP JUMPDEST SWAP4 POP PUSH2 0x1BF3 DUP4 PUSH2 0x2195 JUMP JUMPDEST DUP1 PUSH1 0x0 JUMPDEST DUP4 DUP2 LT ISZERO PUSH2 0x1C24 JUMPI DUP2 MLOAD PUSH2 0x1C0B DUP9 DUP3 PUSH2 0x1B3F JUMP JUMPDEST SWAP8 POP PUSH2 0x1C16 DUP4 PUSH2 0x21D3 JUMP JUMPDEST SWAP3 POP POP PUSH1 0x1 DUP2 ADD SWAP1 POP PUSH2 0x1BF7 JUMP JUMPDEST POP DUP6 SWAP4 POP POP POP POP SWAP3 SWAP2 POP POP JUMP JUMPDEST PUSH2 0x1C3A DUP2 PUSH2 0x22F1 JUMP JUMPDEST DUP3 MSTORE POP POP JUMP JUMPDEST PUSH2 0x1C49 DUP2 PUSH2 0x22F1 JUMP JUMPDEST DUP3 MSTORE POP POP JUMP JUMPDEST PUSH2 0x1C58 DUP2 PUSH2 0x22FD JUMP JUMPDEST DUP3 MSTORE POP POP JUMP JUMPDEST PUSH1 0x0 PUSH2 0x1C69 DUP3 PUSH2 0x21BB JUMP JUMPDEST PUSH2 0x1C73 DUP2 DUP6 PUSH2 0x2202 JUMP JUMPDEST SWAP4 POP PUSH2 0x1C83 DUP2 DUP6 PUSH1 0x20 DUP7 ADD PUSH2 0x236C JUMP JUMPDEST PUSH2 0x1C8C DUP2 PUSH2 0x254A JUMP JUMPDEST DUP5 ADD SWAP2 POP POP SWAP3 SWAP2 POP POP JUMP JUMPDEST PUSH1 0x0 PUSH2 0x1CA2 DUP3 PUSH2 0x21BB JUMP JUMPDEST PUSH2 0x1CAC DUP2 DUP6 PUSH2 0x2213 JUMP JUMPDEST SWAP4 POP PUSH2 0x1CBC DUP2 DUP6 PUSH1 0x20 DUP7 ADD PUSH2 0x236C JUMP JUMPDEST PUSH2 0x1CC5 DUP2 PUSH2 0x254A JUMP JUMPDEST DUP5 ADD SWAP2 POP POP SWAP3 SWAP2 POP POP JUMP JUMPDEST PUSH1 0x0 PUSH2 0x1CDB DUP3 PUSH2 0x21BB JUMP JUMPDEST PUSH2 0x1CE5 DUP2 DUP6 PUSH2 0x2224 JUMP JUMPDEST SWAP4 POP PUSH2 0x1CF5 DUP2 DUP6 PUSH1 0x20 DUP7 ADD PUSH2 0x236C JUMP JUMPDEST DUP1 DUP5 ADD SWAP2 POP POP SWAP3 SWAP2 POP POP JUMP JUMPDEST PUSH1 0x0 PUSH2 0x1D0E PUSH1 0x20 DUP4 PUSH2 0x2213 JUMP JUMPDEST SWAP2 POP PUSH2 0x1D19 DUP3 PUSH2 0x255B JUMP JUMPDEST PUSH1 0x20 DUP3 ADD SWAP1 POP SWAP2 SWAP1 POP JUMP JUMPDEST PUSH1 0x0 PUSH2 0x1D31 PUSH1 0x26 DUP4 PUSH2 0x2213 JUMP JUMPDEST SWAP2 POP PUSH2 0x1D3C DUP3 PUSH2 0x2584 JUMP JUMPDEST PUSH1 0x40 DUP3 ADD SWAP1 POP SWAP2 SWAP1 POP JUMP JUMPDEST PUSH1 0x0 PUSH2 0x1D54 PUSH1 0x1F DUP4 PUSH2 0x2213 JUMP JUMPDEST SWAP2 POP PUSH2 0x1D5F DUP3 PUSH2 0x25D3 JUMP JUMPDEST PUSH1 0x20 DUP3 ADD SWAP1 POP SWAP2 SWAP1 POP JUMP JUMPDEST PUSH1 0x0 PUSH2 0x1D77 PUSH1 0x20 DUP4 PUSH2 0x2213 JUMP JUMPDEST SWAP2 POP PUSH2 0x1D82 DUP3 PUSH2 0x25FC JUMP JUMPDEST PUSH1 0x20 DUP3 ADD SWAP1 POP SWAP2 SWAP1 POP JUMP JUMPDEST PUSH1 0x0 PUSH2 0x1D9A PUSH1 0x17 DUP4 PUSH2 0x2224 JUMP JUMPDEST SWAP2 POP PUSH2 0x1DA5 DUP3 PUSH2 0x2625 JUMP JUMPDEST PUSH1 0x17 DUP3 ADD SWAP1 POP SWAP2 SWAP1 POP JUMP JUMPDEST PUSH1 0x0 PUSH2 0x1DBD PUSH1 0x11 DUP4 PUSH2 0x2224 JUMP JUMPDEST SWAP2 POP PUSH2 0x1DC8 DUP3 PUSH2 0x264E JUMP JUMPDEST PUSH1 0x11 DUP3 ADD SWAP1 POP SWAP2 SWAP1 POP JUMP JUMPDEST PUSH1 0x0 PUSH2 0x1DE0 PUSH1 0x2F DUP4 PUSH2 0x2213 JUMP JUMPDEST SWAP2 POP PUSH2 0x1DEB DUP3 PUSH2 0x2677 JUMP JUMPDEST PUSH1 0x40 DUP3 ADD SWAP1 POP SWAP2 SWAP1 POP JUMP JUMPDEST PUSH1 0x0 PUSH1 0x60 DUP4 ADD PUSH1 0x0 DUP4 ADD MLOAD DUP5 DUP3 SUB PUSH1 0x0 DUP7 ADD MSTORE PUSH2 0x1E13 DUP3 DUP3 PUSH2 0x1C5E JUMP JUMPDEST SWAP2 POP POP PUSH1 0x20 DUP4 ADD MLOAD PUSH2 0x1E28 PUSH1 0x20 DUP7 ADD DUP3 PUSH2 0x1B57 JUMP JUMPDEST POP PUSH1 0x40 DUP4 ADD MLOAD DUP5 DUP3 SUB PUSH1 0x40 DUP7 ADD MSTORE PUSH2 0x1E40 DUP3 DUP3 PUSH2 0x1C5E JUMP JUMPDEST SWAP2 POP POP DUP1 SWAP2 POP POP SWAP3 SWAP2 POP POP JUMP JUMPDEST PUSH1 0x0 PUSH1 0xA0 DUP4 ADD PUSH1 0x0 DUP4 ADD MLOAD DUP5 DUP3 SUB PUSH1 0x0 DUP7 ADD MSTORE PUSH2 0x1E6A DUP3 DUP3 PUSH2 0x1B75 JUMP JUMPDEST SWAP2 POP POP PUSH1 0x20 DUP4 ADD MLOAD DUP5 DUP3 SUB PUSH1 0x20 DUP7 ADD MSTORE PUSH2 0x1E84 DUP3 DUP3 PUSH2 0x1BD3 JUMP JUMPDEST SWAP2 POP POP PUSH1 0x40 DUP4 ADD MLOAD PUSH2 0x1E99 PUSH1 0x40 DUP7 ADD DUP3 PUSH2 0x1ECA JUMP JUMPDEST POP PUSH1 0x60 DUP4 ADD MLOAD PUSH2 0x1EAC PUSH1 0x60 DUP7 ADD DUP3 PUSH2 0x1ECA JUMP JUMPDEST POP PUSH1 0x80 DUP4 ADD MLOAD PUSH2 0x1EBF PUSH1 0x80 DUP7 ADD DUP3 PUSH2 0x1C31 JUMP JUMPDEST POP DUP1 SWAP2 POP POP SWAP3 SWAP2 POP POP JUMP JUMPDEST PUSH2 0x1ED3 DUP2 PUSH2 0x2353 JUMP JUMPDEST DUP3 MSTORE POP POP JUMP JUMPDEST PUSH2 0x1EE2 DUP2 PUSH2 0x2353 JUMP JUMPDEST DUP3 MSTORE POP POP JUMP JUMPDEST PUSH1 0x0 PUSH2 0x1EF3 DUP3 PUSH2 0x1D8D JUMP JUMPDEST SWAP2 POP PUSH2 0x1EFF DUP3 DUP6 PUSH2 0x1CD0 JUMP JUMPDEST SWAP2 POP PUSH2 0x1F0A DUP3 PUSH2 0x1DB0 JUMP JUMPDEST SWAP2 POP PUSH2 0x1F16 DUP3 DUP5 PUSH2 0x1CD0 JUMP JUMPDEST SWAP2 POP DUP2 SWAP1 POP SWAP4 SWAP3 POP POP POP JUMP JUMPDEST PUSH1 0x0 PUSH1 0x20 DUP3 ADD SWAP1 POP PUSH2 0x1F37 PUSH1 0x0 DUP4 ADD DUP5 PUSH2 0x1B66 JUMP JUMPDEST SWAP3 SWAP2 POP POP JUMP JUMPDEST PUSH1 0x0 PUSH1 0x80 DUP3 ADD SWAP1 POP PUSH2 0x1F52 PUSH1 0x0 DUP4 ADD DUP8 PUSH2 0x1B66 JUMP JUMPDEST PUSH2 0x1F5F PUSH1 0x20 DUP4 ADD DUP7 PUSH2 0x1ED9 JUMP JUMPDEST PUSH2 0x1F6C PUSH1 0x40 DUP4 ADD DUP6 PUSH2 0x1ED9 JUMP JUMPDEST PUSH2 0x1F79 PUSH1 0x60 DUP4 ADD DUP5 PUSH2 0x1C40 JUMP JUMPDEST SWAP6 SWAP5 POP POP POP POP POP JUMP JUMPDEST PUSH1 0x0 PUSH1 0x20 DUP3 ADD SWAP1 POP PUSH2 0x1F97 PUSH1 0x0 DUP4 ADD DUP5 PUSH2 0x1C40 JUMP JUMPDEST SWAP3 SWAP2 POP POP JUMP JUMPDEST PUSH1 0x0 PUSH1 0x20 DUP3 ADD SWAP1 POP PUSH2 0x1FB2 PUSH1 0x0 DUP4 ADD DUP5 PUSH2 0x1C4F JUMP JUMPDEST SWAP3 SWAP2 POP POP JUMP JUMPDEST PUSH1 0x0 PUSH1 0x20 DUP3 ADD SWAP1 POP DUP2 DUP2 SUB PUSH1 0x0 DUP4 ADD MSTORE PUSH2 0x1FD2 DUP2 DUP5 PUSH2 0x1C97 JUMP JUMPDEST SWAP1 POP SWAP3 SWAP2 POP POP JUMP JUMPDEST PUSH1 0x0 PUSH1 0x60 DUP3 ADD SWAP1 POP DUP2 DUP2 SUB PUSH1 0x0 DUP4 ADD MSTORE PUSH2 0x1FF4 DUP2 DUP7 PUSH2 0x1C97 JUMP JUMPDEST SWAP1 POP PUSH2 0x2003 PUSH1 0x20 DUP4 ADD DUP6 PUSH2 0x1B66 JUMP JUMPDEST DUP2 DUP2 SUB PUSH1 0x40 DUP4 ADD MSTORE PUSH2 0x2015 DUP2 DUP5 PUSH2 0x1C97 JUMP JUMPDEST SWAP1 POP SWAP5 SWAP4 POP POP POP POP JUMP JUMPDEST PUSH1 0x0 PUSH1 0x20 DUP3 ADD SWAP1 POP DUP2 DUP2 SUB PUSH1 0x0 DUP4 ADD MSTORE PUSH2 0x2038 DUP2 PUSH2 0x1D01 JUMP JUMPDEST SWAP1 POP SWAP2 SWAP1 POP JUMP JUMPDEST PUSH1 0x0 PUSH1 0x20 DUP3 ADD SWAP1 POP DUP2 DUP2 SUB PUSH1 0x0 DUP4 ADD MSTORE PUSH2 0x2058 DUP2 PUSH2 0x1D24 JUMP JUMPDEST SWAP1 POP SWAP2 SWAP1 POP JUMP JUMPDEST PUSH1 0x0 PUSH1 0x20 DUP3 ADD SWAP1 POP DUP2 DUP2 SUB PUSH1 0x0 DUP4 ADD MSTORE PUSH2 0x2078 DUP2 PUSH2 0x1D47 JUMP JUMPDEST SWAP1 POP SWAP2 SWAP1 POP JUMP JUMPDEST PUSH1 0x0 PUSH1 0x20 DUP3 ADD SWAP1 POP DUP2 DUP2 SUB PUSH1 0x0 DUP4 ADD MSTORE PUSH2 0x2098 DUP2 PUSH2 0x1D6A JUMP JUMPDEST SWAP1 POP SWAP2 SWAP1 POP JUMP JUMPDEST PUSH1 0x0 PUSH1 0x20 DUP3 ADD SWAP1 POP DUP2 DUP2 SUB PUSH1 0x0 DUP4 ADD MSTORE PUSH2 0x20B8 DUP2 PUSH2 0x1DD3 JUMP JUMPDEST SWAP1 POP SWAP2 SWAP1 POP JUMP JUMPDEST PUSH1 0x0 PUSH1 0x20 DUP3 ADD SWAP1 POP DUP2 DUP2 SUB PUSH1 0x0 DUP4 ADD MSTORE PUSH2 0x20D9 DUP2 DUP5 PUSH2 0x1DF6 JUMP JUMPDEST SWAP1 POP SWAP3 SWAP2 POP POP JUMP JUMPDEST PUSH1 0x0 PUSH1 0x20 DUP3 ADD SWAP1 POP DUP2 DUP2 SUB PUSH1 0x0 DUP4 ADD MSTORE PUSH2 0x20FB DUP2 DUP5 PUSH2 0x1E4D JUMP JUMPDEST SWAP1 POP SWAP3 SWAP2 POP POP JUMP JUMPDEST PUSH1 0x0 PUSH2 0x210D PUSH2 0x211E JUMP JUMPDEST SWAP1 POP PUSH2 0x2119 DUP3 DUP3 PUSH2 0x23FB JUMP JUMPDEST SWAP2 SWAP1 POP JUMP JUMPDEST PUSH1 0x0 PUSH1 0x40 MLOAD SWAP1 POP SWAP1 JUMP JUMPDEST PUSH1 0x0 PUSH8 0xFFFFFFFFFFFFFFFF DUP3 GT ISZERO PUSH2 0x2143 JUMPI PUSH2 0x2142 PUSH2 0x2502 JUMP JUMPDEST JUMPDEST PUSH1 0x20 DUP3 MUL SWAP1 POP PUSH1 0x20 DUP2 ADD SWAP1 POP SWAP2 SWAP1 POP JUMP JUMPDEST PUSH1 0x0 PUSH8 0xFFFFFFFFFFFFFFFF DUP3 GT ISZERO PUSH2 0x216F JUMPI PUSH2 0x216E PUSH2 0x2502 JUMP JUMPDEST JUMPDEST PUSH2 0x2178 DUP3 PUSH2 0x254A JUMP JUMPDEST SWAP1 POP PUSH1 0x20 DUP2 ADD SWAP1 POP SWAP2 SWAP1 POP JUMP JUMPDEST PUSH1 0x0 DUP2 SWAP1 POP PUSH1 0x20 DUP3 ADD SWAP1 POP SWAP2 SWAP1 POP JUMP JUMPDEST PUSH1 0x0 DUP2 SWAP1 POP PUSH1 0x20 DUP3 ADD SWAP1 POP SWAP2 SWAP1 POP JUMP JUMPDEST PUSH1 0x0 DUP2 MLOAD SWAP1 POP SWAP2 SWAP1 POP JUMP JUMPDEST PUSH1 0x0 DUP2 MLOAD SWAP1 POP SWAP2 SWAP1 POP JUMP JUMPDEST PUSH1 0x0 DUP2 MLOAD SWAP1 POP SWAP2 SWAP1 POP JUMP JUMPDEST PUSH1 0x0 PUSH1 0x20 DUP3 ADD SWAP1 POP SWAP2 SWAP1 POP JUMP JUMPDEST PUSH1 0x0 PUSH1 0x20 DUP3 ADD SWAP1 POP SWAP2 SWAP1 POP JUMP JUMPDEST PUSH1 0x0 DUP3 DUP3 MSTORE PUSH1 0x20 DUP3 ADD SWAP1 POP SWAP3 SWAP2 POP POP JUMP JUMPDEST PUSH1 0x0 DUP3 DUP3 MSTORE PUSH1 0x20 DUP3 ADD SWAP1 POP SWAP3 SWAP2 POP POP JUMP JUMPDEST PUSH1 0x0 DUP3 DUP3 MSTORE PUSH1 0x20 DUP3 ADD SWAP1 POP SWAP3 SWAP2 POP POP JUMP JUMPDEST PUSH1 0x0 DUP3 DUP3 MSTORE PUSH1 0x20 DUP3 ADD SWAP1 POP SWAP3 SWAP2 POP POP JUMP JUMPDEST PUSH1 0x0 DUP2 SWAP1 POP SWAP3 SWAP2 POP POP JUMP JUMPDEST PUSH1 0x0 PUSH2 0x223A DUP3 PUSH2 0x2353 JUMP JUMPDEST SWAP2 POP PUSH2 0x2245 DUP4 PUSH2 0x2353 JUMP JUMPDEST SWAP3 POP DUP3 PUSH32 0xFFFFFFFFFFFFFFFFFFFFFFFFFFFFFFFFFFFFFFFFFFFFFFFFFFFFFFFFFFFFFFFF SUB DUP3 GT ISZERO PUSH2 0x227A JUMPI PUSH2 0x2279 PUSH2 0x2475 JUMP JUMPDEST JUMPDEST DUP3 DUP3 ADD SWAP1 POP SWAP3 SWAP2 POP POP JUMP JUMPDEST PUSH1 0x0 PUSH2 0x2290 DUP3 PUSH2 0x2353 JUMP JUMPDEST SWAP2 POP PUSH2 0x229B DUP4 PUSH2 0x2353 JUMP JUMPDEST SWAP3 POP DUP2 PUSH32 0xFFFFFFFFFFFFFFFFFFFFFFFFFFFFFFFFFFFFFFFFFFFFFFFFFFFFFFFFFFFFFFFF DIV DUP4 GT DUP3 ISZERO ISZERO AND ISZERO PUSH2 0x22D4 JUMPI PUSH2 0x22D3 PUSH2 0x2475 JUMP JUMPDEST JUMPDEST DUP3 DUP3 MUL SWAP1 POP SWAP3 SWAP2 POP POP JUMP JUMPDEST PUSH1 0x0 PUSH2 0x22EA DUP3 PUSH2 0x2333 JUMP JUMPDEST SWAP1 POP SWAP2 SWAP1 POP JUMP JUMPDEST PUSH1 0x0 DUP2 ISZERO ISZERO SWAP1 POP SWAP2 SWAP1 POP JUMP JUMPDEST PUSH1 0x0 DUP2 SWAP1 POP SWAP2 SWAP1 POP JUMP JUMPDEST PUSH1 0x0 PUSH32 0xFFFFFFFF00000000000000000000000000000000000000000000000000000000 DUP3 AND SWAP1 POP SWAP2 SWAP1 POP JUMP JUMPDEST PUSH1 0x0 PUSH20 0xFFFFFFFFFFFFFFFFFFFFFFFFFFFFFFFFFFFFFFFF DUP3 AND SWAP1 POP SWAP2 SWAP1 POP JUMP JUMPDEST PUSH1 0x0 DUP2 SWAP1 POP SWAP2 SWAP1 POP JUMP JUMPDEST DUP3 DUP2 DUP4 CALLDATACOPY PUSH1 0x0 DUP4 DUP4 ADD MSTORE POP POP POP JUMP JUMPDEST PUSH1 0x0 JUMPDEST DUP4 DUP2 LT ISZERO PUSH2 0x238A JUMPI DUP1 DUP3 ADD MLOAD DUP2 DUP5 ADD MSTORE PUSH1 0x20 DUP2 ADD SWAP1 POP PUSH2 0x236F JUMP JUMPDEST DUP4 DUP2 GT ISZERO PUSH2 0x2399 JUMPI PUSH1 0x0 DUP5 DUP5 ADD MSTORE JUMPDEST POP POP POP POP JUMP JUMPDEST PUSH1 0x0 PUSH2 0x23AA DUP3 PUSH2 0x2353 JUMP JUMPDEST SWAP2 POP PUSH1 0x0 DUP3 EQ ISZERO PUSH2 0x23BE JUMPI PUSH2 0x23BD PUSH2 0x2475 JUMP JUMPDEST JUMPDEST PUSH1 0x1 DUP3 SUB SWAP1 POP SWAP2 SWAP1 POP JUMP JUMPDEST PUSH1 0x0 PUSH1 0x2 DUP3 DIV SWAP1 POP PUSH1 0x1 DUP3 AND DUP1 PUSH2 0x23E1 JUMPI PUSH1 0x7F DUP3 AND SWAP2 POP JUMPDEST PUSH1 0x20 DUP3 LT DUP2 EQ ISZERO PUSH2 0x23F5 JUMPI PUSH2 0x23F4 PUSH2 0x24A4 JUMP JUMPDEST JUMPDEST POP SWAP2 SWAP1 POP JUMP JUMPDEST PUSH2 0x2404 DUP3 PUSH2 0x254A JUMP JUMPDEST DUP2 ADD DUP2 DUP2 LT PUSH8 0xFFFFFFFFFFFFFFFF DUP3 GT OR ISZERO PUSH2 0x2423 JUMPI PUSH2 0x2422 PUSH2 0x2502 JUMP JUMPDEST JUMPDEST DUP1 PUSH1 0x40 MSTORE POP POP POP JUMP JUMPDEST PUSH1 0x0 PUSH2 0x2437 DUP3 PUSH2 0x2353 JUMP JUMPDEST SWAP2 POP PUSH32 0xFFFFFFFFFFFFFFFFFFFFFFFFFFFFFFFFFFFFFFFFFFFFFFFFFFFFFFFFFFFFFFFF DUP3 EQ ISZERO PUSH2 0x246A JUMPI PUSH2 0x2469 PUSH2 0x2475 JUMP JUMPDEST JUMPDEST PUSH1 0x1 DUP3 ADD SWAP1 POP SWAP2 SWAP1 POP JUMP JUMPDEST PUSH32 0x4E487B7100000000000000000000000000000000000000000000000000000000 PUSH1 0x0 MSTORE PUSH1 0x11 PUSH1 0x4 MSTORE PUSH1 0x24 PUSH1 0x0 REVERT JUMPDEST PUSH32 0x4E487B7100000000000000000000000000000000000000000000000000000000 PUSH1 0x0 MSTORE PUSH1 0x22 PUSH1 0x4 MSTORE PUSH1 0x24 PUSH1 0x0 REVERT JUMPDEST PUSH32 0x4E487B7100000000000000000000000000000000000000000000000000000000 PUSH1 0x0 MSTORE PUSH1 0x32 PUSH1 0x4 MSTORE PUSH1 0x24 PUSH1 0x0 REVERT JUMPDEST PUSH32 0x4E487B7100000000000000000000000000000000000000000000000000000000 PUSH1 0x0 MSTORE PUSH1 0x41 PUSH1 0x4 MSTORE PUSH1 0x24 PUSH1 0x0 REVERT JUMPDEST PUSH1 0x0 DUP1 REVERT JUMPDEST PUSH1 0x0 DUP1 REVERT JUMPDEST PUSH1 0x0 DUP1 REVERT JUMPDEST PUSH1 0x0 DUP1 REVERT JUMPDEST PUSH1 0x0 DUP1 REVERT JUMPDEST PUSH1 0x0 PUSH1 0x1F NOT PUSH1 0x1F DUP4 ADD AND SWAP1 POP SWAP2 SWAP1 POP JUMP JUMPDEST PUSH32 0x537472696E67733A20686578206C656E67746820696E73756666696369656E74 PUSH1 0x0 DUP3 ADD MSTORE POP JUMP JUMPDEST PUSH32 0x4F776E61626C653A206E6577206F776E657220697320746865207A65726F2061 PUSH1 0x0 DUP3 ADD MSTORE PUSH32 0x6464726573730000000000000000000000000000000000000000000000000000 PUSH1 0x20 DUP3 ADD MSTORE POP JUMP JUMPDEST PUSH32 0x43616C6C6572206973206E6F7420616E20494E45432065786563757469766500 PUSH1 0x0 DUP3 ADD MSTORE POP JUMP JUMPDEST PUSH32 0x4F776E61626C653A2063616C6C6572206973206E6F7420746865206F776E6572 PUSH1 0x0 DUP3 ADD MSTORE POP JUMP JUMPDEST PUSH32 0x416363657373436F6E74726F6C3A206163636F756E7420000000000000000000 PUSH1 0x0 DUP3 ADD MSTORE POP JUMP JUMPDEST PUSH32 0x206973206D697373696E6720726F6C6520000000000000000000000000000000 PUSH1 0x0 DUP3 ADD MSTORE POP JUMP JUMPDEST PUSH32 0x416363657373436F6E74726F6C3A2063616E206F6E6C792072656E6F756E6365 PUSH1 0x0 DUP3 ADD MSTORE PUSH32 0x20726F6C657320666F722073656C660000000000000000000000000000000000 PUSH1 0x20 DUP3 ADD MSTORE POP JUMP JUMPDEST PUSH2 0x26CF DUP2 PUSH2 0x22DF JUMP JUMPDEST DUP2 EQ PUSH2 0x26DA JUMPI PUSH1 0x0 DUP1 REVERT JUMPDEST POP JUMP JUMPDEST PUSH2 0x26E6 DUP2 PUSH2 0x22FD JUMP JUMPDEST DUP2 EQ PUSH2 0x26F1 JUMPI PUSH1 0x0 DUP1 REVERT JUMPDEST POP JUMP JUMPDEST PUSH2 0x26FD DUP2 PUSH2 0x2307 JUMP JUMPDEST DUP2 EQ PUSH2 0x2708 JUMPI PUSH1 0x0 DUP1 REVERT JUMPDEST POP JUMP JUMPDEST PUSH2 0x2714 DUP2 PUSH2 0x2353 JUMP JUMPDEST DUP2 EQ PUSH2 0x271F JUMPI PUSH1 0x0 DUP1 REVERT JUMPDEST POP JUMP INVALID LOG2 PUSH5 0x6970667358 0x22 SLT KECCAK256 SWAP2 0xE3 SIGNEXTEND 0x5C 0x4A PUSH1 0x51 AND PUSH21 0xF87E7E03568FED7FA77C78E0097D93DE6883A6161D PUSH13 0xC64736F6C6343000807003300 "
				},
				"gasEstimates": {
					"creation": {
						"codeDepositCost": "2014400",
						"executionCost": "infinite",
						"totalCost": "infinite"
					},
					"external": {
						"Candidates(uint256)": "infinite",
						"DEFAULT_ADMIN_ROLE()": "446",
						"INEC_EXEC_ROLE()": "419",
						"VOTER_ROLE()": "351",
						"Voters(uint256)": "infinite",
						"createCandidate(string,address,uint256)": "infinite",
						"createElection(address[],uint256,uint256)": "infinite",
						"createInecExec(address)": "infinite",
						"getElection(uint256)": "infinite",
						"getRoleAdmin(bytes32)": "infinite",
						"grantRole(bytes32,address)": "infinite",
						"hasRole(bytes32,address)": "3163",
						"owner()": "2633",
						"party(uint256)": "infinite",
						"regVoter(uint256)": "80082",
						"renounceOwnership()": "30487",
						"renounceRole(bytes32,address)": "infinite",
						"retrieveCandidate(uint256)": "infinite",
						"revokeRole(bytes32,address)": "infinite",
						"supportsInterface(bytes4)": "751",
						"transferOwnership(address)": "30879"
					}
				},
				"methodIdentifiers": {
					"Candidates(uint256)": "290e9212",
					"DEFAULT_ADMIN_ROLE()": "a217fddf",
					"INEC_EXEC_ROLE()": "2e0d37bb",
					"VOTER_ROLE()": "a94015c8",
					"Voters(uint256)": "9c35d98b",
					"createCandidate(string,address,uint256)": "d59d2a58",
					"createElection(address[],uint256,uint256)": "4f05dba8",
					"createInecExec(address)": "dfd8459e",
					"getElection(uint256)": "9d710777",
					"getRoleAdmin(bytes32)": "248a9ca3",
					"grantRole(bytes32,address)": "2f2ff15d",
					"hasRole(bytes32,address)": "91d14854",
					"owner()": "8da5cb5b",
					"party(uint256)": "314fd68f",
					"regVoter(uint256)": "d9d55ba0",
					"renounceOwnership()": "715018a6",
					"renounceRole(bytes32,address)": "36568abe",
					"retrieveCandidate(uint256)": "9e5f0349",
					"revokeRole(bytes32,address)": "d547741f",
					"supportsInterface(bytes4)": "01ffc9a7",
					"transferOwnership(address)": "f2fde38b"
				}
			},
			"storageLayout": {
				"storage": [
					{
						"astId": 400,
						"contract": "contracts/Vote.sol:Vote",
						"label": "_owner",
						"offset": 0,
						"slot": "0",
						"type": "t_address"
					},
					{
						"astId": 24,
						"contract": "contracts/Vote.sol:Vote",
						"label": "_roles",
						"offset": 0,
						"slot": "1",
						"type": "t_mapping(t_bytes32,t_struct(RoleData)19_storage)"
					},
					{
						"astId": 800,
						"contract": "contracts/Vote.sol:Vote",
						"label": "voteFee",
						"offset": 0,
						"slot": "2",
						"type": "t_uint256"
					},
					{
						"astId": 802,
						"contract": "contracts/Vote.sol:Vote",
						"label": "candidateNum",
						"offset": 0,
						"slot": "3",
						"type": "t_uint256"
					},
					{
						"astId": 804,
						"contract": "contracts/Vote.sol:Vote",
						"label": "voterNum",
						"offset": 0,
						"slot": "4",
						"type": "t_uint256"
					},
					{
						"astId": 806,
						"contract": "contracts/Vote.sol:Vote",
						"label": "electionNum",
						"offset": 0,
						"slot": "5",
						"type": "t_uint256"
					},
					{
						"astId": 814,
						"contract": "contracts/Vote.sol:Vote",
						"label": "party",
						"offset": 0,
						"slot": "6",
						"type": "t_array(t_string_storage)dyn_storage"
					},
					{
						"astId": 858,
						"contract": "contracts/Vote.sol:Vote",
						"label": "Candidates",
						"offset": 0,
						"slot": "7",
						"type": "t_mapping(t_uint256,t_struct(candidate)831_storage)"
					},
					{
						"astId": 863,
						"contract": "contracts/Vote.sol:Vote",
						"label": "Voters",
						"offset": 0,
						"slot": "8",
						"type": "t_mapping(t_uint256,t_struct(voter)840_storage)"
					},
					{
						"astId": 868,
						"contract": "contracts/Vote.sol:Vote",
						"label": "Elections",
						"offset": 0,
						"slot": "9",
						"type": "t_mapping(t_uint256,t_struct(election)853_storage)"
					}
				],
				"types": {
					"t_address": {
						"encoding": "inplace",
						"label": "address",
						"numberOfBytes": "20"
					},
					"t_array(t_address)dyn_storage": {
						"base": "t_address",
						"encoding": "dynamic_array",
						"label": "address[]",
						"numberOfBytes": "32"
					},
					"t_array(t_string_storage)dyn_storage": {
						"base": "t_string_storage",
						"encoding": "dynamic_array",
						"label": "string[]",
						"numberOfBytes": "32"
					},
					"t_array(t_uint256)dyn_storage": {
						"base": "t_uint256",
						"encoding": "dynamic_array",
						"label": "uint256[]",
						"numberOfBytes": "32"
					},
					"t_bool": {
						"encoding": "inplace",
						"label": "bool",
						"numberOfBytes": "1"
					},
					"t_bytes32": {
						"encoding": "inplace",
						"label": "bytes32",
						"numberOfBytes": "32"
					},
					"t_mapping(t_address,t_bool)": {
						"encoding": "mapping",
						"key": "t_address",
						"label": "mapping(address => bool)",
						"numberOfBytes": "32",
						"value": "t_bool"
					},
					"t_mapping(t_bytes32,t_struct(RoleData)19_storage)": {
						"encoding": "mapping",
						"key": "t_bytes32",
						"label": "mapping(bytes32 => struct AccessControl.RoleData)",
						"numberOfBytes": "32",
						"value": "t_struct(RoleData)19_storage"
					},
					"t_mapping(t_uint256,t_struct(candidate)831_storage)": {
						"encoding": "mapping",
						"key": "t_uint256",
						"label": "mapping(uint256 => struct Vote.candidate)",
						"numberOfBytes": "32",
						"value": "t_struct(candidate)831_storage"
					},
					"t_mapping(t_uint256,t_struct(election)853_storage)": {
						"encoding": "mapping",
						"key": "t_uint256",
						"label": "mapping(uint256 => struct Vote.election)",
						"numberOfBytes": "32",
						"value": "t_struct(election)853_storage"
					},
					"t_mapping(t_uint256,t_struct(voter)840_storage)": {
						"encoding": "mapping",
						"key": "t_uint256",
						"label": "mapping(uint256 => struct Vote.voter)",
						"numberOfBytes": "32",
						"value": "t_struct(voter)840_storage"
					},
					"t_string_storage": {
						"encoding": "bytes",
						"label": "string",
						"numberOfBytes": "32"
					},
					"t_struct(RoleData)19_storage": {
						"encoding": "inplace",
						"label": "struct AccessControl.RoleData",
						"members": [
							{
								"astId": 16,
								"contract": "contracts/Vote.sol:Vote",
								"label": "members",
								"offset": 0,
								"slot": "0",
								"type": "t_mapping(t_address,t_bool)"
							},
							{
								"astId": 18,
								"contract": "contracts/Vote.sol:Vote",
								"label": "adminRole",
								"offset": 0,
								"slot": "1",
								"type": "t_bytes32"
							}
						],
						"numberOfBytes": "64"
					},
					"t_struct(candidate)831_storage": {
						"encoding": "inplace",
						"label": "struct Vote.candidate",
						"members": [
							{
								"astId": 826,
								"contract": "contracts/Vote.sol:Vote",
								"label": "name",
								"offset": 0,
								"slot": "0",
								"type": "t_string_storage"
							},
							{
								"astId": 828,
								"contract": "contracts/Vote.sol:Vote",
								"label": "addr",
								"offset": 0,
								"slot": "1",
								"type": "t_address"
							},
							{
								"astId": 830,
								"contract": "contracts/Vote.sol:Vote",
								"label": "party",
								"offset": 0,
								"slot": "2",
								"type": "t_string_storage"
							}
						],
						"numberOfBytes": "96"
					},
					"t_struct(election)853_storage": {
						"encoding": "inplace",
						"label": "struct Vote.election",
						"members": [
							{
								"astId": 843,
								"contract": "contracts/Vote.sol:Vote",
								"label": "candidate",
								"offset": 0,
								"slot": "0",
								"type": "t_array(t_address)dyn_storage"
							},
							{
								"astId": 846,
								"contract": "contracts/Vote.sol:Vote",
								"label": "candidateVote",
								"offset": 0,
								"slot": "1",
								"type": "t_array(t_uint256)dyn_storage"
							},
							{
								"astId": 848,
								"contract": "contracts/Vote.sol:Vote",
								"label": "start",
								"offset": 0,
								"slot": "2",
								"type": "t_uint256"
							},
							{
								"astId": 850,
								"contract": "contracts/Vote.sol:Vote",
								"label": "duration",
								"offset": 0,
								"slot": "3",
								"type": "t_uint256"
							},
							{
								"astId": 852,
								"contract": "contracts/Vote.sol:Vote",
								"label": "hasEnded",
								"offset": 0,
								"slot": "4",
								"type": "t_bool"
							}
						],
						"numberOfBytes": "160"
					},
					"t_struct(voter)840_storage": {
						"encoding": "inplace",
						"label": "struct Vote.voter",
						"members": [
							{
								"astId": 833,
								"contract": "contracts/Vote.sol:Vote",
								"label": "addr",
								"offset": 0,
								"slot": "0",
								"type": "t_address"
							},
							{
								"astId": 835,
								"contract": "contracts/Vote.sol:Vote",
								"label": "nin",
								"offset": 0,
								"slot": "1",
								"type": "t_uint256"
							},
							{
								"astId": 837,
								"contract": "contracts/Vote.sol:Vote",
								"label": "partyNum",
								"offset": 0,
								"slot": "2",
								"type": "t_uint256"
							},
							{
								"astId": 839,
								"contract": "contracts/Vote.sol:Vote",
								"label": "hasVoted",
								"offset": 0,
								"slot": "3",
								"type": "t_bool"
							}
						],
						"numberOfBytes": "128"
					},
					"t_uint256": {
						"encoding": "inplace",
						"label": "uint256",
						"numberOfBytes": "32"
					}
				}
			},
			"userdoc": {
				"kind": "user",
				"methods": {},
				"version": 1
			}
		}
	}
}