{
	"contracts/Vote.sol": {
		"Vote": {
			"abi": [
				{
					"inputs": [],
					"name": "MINTER_ROLE",
					"outputs": [
						{
							"internalType": "bytes32",
							"name": "",
							"type": "bytes32"
						}
					],
					"stateMutability": "view",
					"type": "function"
				},
				{
					"inputs": [
						{
							"internalType": "string",
							"name": "name",
							"type": "string"
						},
						{
							"internalType": "address",
							"name": "candAddress",
							"type": "address"
						},
						{
							"internalType": "uint256",
							"name": "partyNum",
							"type": "uint256"
						}
					],
					"name": "createCandidate",
					"outputs": [],
					"stateMutability": "nonpayable",
					"type": "function"
				},
				{
					"inputs": [
						{
							"internalType": "uint256",
							"name": "",
							"type": "uint256"
						}
					],
					"name": "party",
					"outputs": [
						{
							"internalType": "string",
							"name": "",
							"type": "string"
						}
					],
					"stateMutability": "view",
					"type": "function"
				},
				{
					"inputs": [
						{
							"internalType": "uint256",
							"name": "num",
							"type": "uint256"
						}
					],
					"name": "retrieveCandidate",
					"outputs": [
						{
							"components": [
								{
									"internalType": "string",
									"name": "name",
									"type": "string"
								},
								{
									"internalType": "address",
									"name": "addr",
									"type": "address"
								},
								{
									"internalType": "string",
									"name": "party",
									"type": "string"
								}
							],
							"internalType": "struct Vote.candidate",
							"name": "",
							"type": "tuple"
						}
					],
					"stateMutability": "view",
					"type": "function"
				}
			],
			"devdoc": {
				"custom:dev-run-script": "./scripts/deploy_with_ethers.ts",
				"details": "Store & retrieve value in a variable",
				"kind": "dev",
				"methods": {
					"createCandidate(string,address,uint256)": {
						"details": "Store value in variable",
						"params": {
							"candAddress": "value for candidate Address",
							"name": "value for candidate name",
							"partyNum": "value for candidate party"
						}
					},
					"retrieveCandidate(uint256)": {
						"details": "Return value ",
						"returns": {
							"_0": "value of 'struct'"
						}
					}
				},
				"title": "Storage",
				"version": 1
			},
			"evm": {
				"assembly": "    /* \"contracts/Vote.sol\":258:1278  contract Vote {... */\n  mstore(0x40, 0x80)\n    /* \"contracts/Vote.sol\":327:380  string [] public party = [\"APC\", \"PDP\", \"LP\", \"NNPP\"] */\n  mload(0x40)\n  dup1\n  0x80\n  add\n  0x40\n  mstore\n  dup1\n  mload(0x40)\n  dup1\n  0x40\n  add\n  0x40\n  mstore\n  dup1\n  0x03\n  dup2\n  mstore\n  0x20\n  add\n  0x4150430000000000000000000000000000000000000000000000000000000000\n  dup2\n  mstore\n  pop\n  dup2\n  mstore\n  0x20\n  add\n  mload(0x40)\n  dup1\n  0x40\n  add\n  0x40\n  mstore\n  dup1\n  0x03\n  dup2\n  mstore\n  0x20\n  add\n  0x5044500000000000000000000000000000000000000000000000000000000000\n  dup2\n  mstore\n  pop\n  dup2\n  mstore\n  0x20\n  add\n  mload(0x40)\n  dup1\n  0x40\n  add\n  0x40\n  mstore\n  dup1\n  0x02\n  dup2\n  mstore\n  0x20\n  add\n  0x4c50000000000000000000000000000000000000000000000000000000000000\n  dup2\n  mstore\n  pop\n  dup2\n  mstore\n  0x20\n  add\n  mload(0x40)\n  dup1\n  0x40\n  add\n  0x40\n  mstore\n  dup1\n  0x04\n  dup2\n  mstore\n  0x20\n  add\n  0x4e4e505000000000000000000000000000000000000000000000000000000000\n  dup2\n  mstore\n  pop\n  dup2\n  mstore\n  pop\n  0x02\n  swap1\n  0x04\n  tag_1\n  swap3\n  swap2\n  swap1\n  tag_2\n  jump\t// in\ntag_1:\n  pop\n    /* \"contracts/Vote.sol\":258:1278  contract Vote {... */\n  callvalue\n  dup1\n  iszero\n  tag_3\n  jumpi\n  0x00\n  dup1\n  revert\ntag_3:\n  pop\n  jump(tag_4)\ntag_2:\n  dup3\n  dup1\n  sload\n  dup3\n  dup3\n  sstore\n  swap1\n  0x00\n  mstore\n  keccak256(0x00, 0x20)\n  swap1\n  dup2\n  add\n  swap3\n  dup3\n  iszero\n  tag_5\n  jumpi\n  swap2\n  0x20\n  mul\n  dup3\n  add\ntag_6:\n  dup3\n  dup2\n  gt\n  iszero\n  tag_7\n  jumpi\n  dup3\n  mload\n  dup3\n  swap1\n  dup1\n  mload\n  swap1\n  0x20\n  add\n  swap1\n  tag_8\n  swap3\n  swap2\n  swap1\n  tag_9\n  jump\t// in\ntag_8:\n  pop\n  swap2\n  0x20\n  add\n  swap2\n  swap1\n  0x01\n  add\n  swap1\n  jump(tag_6)\ntag_7:\ntag_5:\n  pop\n  swap1\n  pop\n  tag_10\n  swap2\n  swap1\n  tag_11\n  jump\t// in\ntag_10:\n  pop\n  swap1\n  jump\t// out\ntag_9:\n  dup3\n  dup1\n  sload\n  tag_12\n  swap1\n  tag_13\n  jump\t// in\ntag_12:\n  swap1\n  0x00\n  mstore\n  keccak256(0x00, 0x20)\n  swap1\n  0x1f\n  add\n  0x20\n  swap1\n  div\n  dup2\n  add\n  swap3\n  dup3\n  tag_15\n  jumpi\n  0x00\n  dup6\n  sstore\n  jump(tag_14)\ntag_15:\n  dup3\n  0x1f\n  lt\n  tag_16\n  jumpi\n  dup1\n  mload\n  not(0xff)\n  and\n  dup4\n  dup1\n  add\n  or\n  dup6\n  sstore\n  jump(tag_14)\ntag_16:\n  dup3\n  dup1\n  add\n  0x01\n  add\n  dup6\n  sstore\n  dup3\n  iszero\n  tag_14\n  jumpi\n  swap2\n  dup3\n  add\ntag_17:\n  dup3\n  dup2\n  gt\n  iszero\n  tag_18\n  jumpi\n  dup3\n  mload\n  dup3\n  sstore\n  swap2\n  0x20\n  add\n  swap2\n  swap1\n  0x01\n  add\n  swap1\n  jump(tag_17)\ntag_18:\ntag_14:\n  pop\n  swap1\n  pop\n  tag_19\n  swap2\n  swap1\n  tag_20\n  jump\t// in\ntag_19:\n  pop\n  swap1\n  jump\t// out\ntag_11:\ntag_21:\n  dup1\n  dup3\n  gt\n  iszero\n  tag_22\n  jumpi\n  0x00\n  dup2\n  dup2\n  tag_23\n  swap2\n  swap1\n  tag_24\n  jump\t// in\ntag_23:\n  pop\n  0x01\n  add\n  jump(tag_21)\ntag_22:\n  pop\n  swap1\n  jump\t// out\ntag_20:\ntag_25:\n  dup1\n  dup3\n  gt\n  iszero\n  tag_26\n  jumpi\n  0x00\n  dup2\n  0x00\n  swap1\n  sstore\n  pop\n  0x01\n  add\n  jump(tag_25)\ntag_26:\n  pop\n  swap1\n  jump\t// out\ntag_24:\n  pop\n  dup1\n  sload\n  tag_27\n  swap1\n  tag_13\n  jump\t// in\ntag_27:\n  0x00\n  dup3\n  sstore\n  dup1\n  0x1f\n  lt\n  tag_29\n  jumpi\n  pop\n  jump(tag_28)\ntag_29:\n  0x1f\n  add\n  0x20\n  swap1\n  div\n  swap1\n  0x00\n  mstore\n  keccak256(0x00, 0x20)\n  swap1\n  dup2\n  add\n  swap1\n  tag_30\n  swap2\n  swap1\n  tag_20\n  jump\t// in\ntag_30:\ntag_28:\n  pop\n  jump\t// out\n    /* \"#utility.yul\":7:327   */\ntag_13:\n    /* \"#utility.yul\":51:57   */\n  0x00\n    /* \"#utility.yul\":88:89   */\n  0x02\n    /* \"#utility.yul\":82:86   */\n  dup3\n    /* \"#utility.yul\":78:90   */\n  div\n    /* \"#utility.yul\":68:90   */\n  swap1\n  pop\n    /* \"#utility.yul\":135:136   */\n  0x01\n    /* \"#utility.yul\":129:133   */\n  dup3\n    /* \"#utility.yul\":125:137   */\n  and\n    /* \"#utility.yul\":156:174   */\n  dup1\n    /* \"#utility.yul\":146:227   */\n  tag_33\n  jumpi\n    /* \"#utility.yul\":212:216   */\n  0x7f\n    /* \"#utility.yul\":204:210   */\n  dup3\n    /* \"#utility.yul\":200:217   */\n  and\n    /* \"#utility.yul\":190:217   */\n  swap2\n  pop\n    /* \"#utility.yul\":146:227   */\ntag_33:\n    /* \"#utility.yul\":274:276   */\n  0x20\n    /* \"#utility.yul\":266:272   */\n  dup3\n    /* \"#utility.yul\":263:277   */\n  lt\n    /* \"#utility.yul\":243:261   */\n  dup2\n    /* \"#utility.yul\":240:278   */\n  eq\n    /* \"#utility.yul\":237:321   */\n  iszero\n  tag_34\n  jumpi\n    /* \"#utility.yul\":293:311   */\n  tag_35\n  tag_36\n  jump\t// in\ntag_35:\n    /* \"#utility.yul\":237:321   */\ntag_34:\n    /* \"#utility.yul\":58:327   */\n  pop\n    /* \"#utility.yul\":7:327   */\n  swap2\n  swap1\n  pop\n  jump\t// out\n    /* \"#utility.yul\":333:513   */\ntag_36:\n    /* \"#utility.yul\":381:458   */\n  0x4e487b7100000000000000000000000000000000000000000000000000000000\n    /* \"#utility.yul\":378:379   */\n  0x00\n    /* \"#utility.yul\":371:459   */\n  mstore\n    /* \"#utility.yul\":478:482   */\n  0x22\n    /* \"#utility.yul\":475:476   */\n  0x04\n    /* \"#utility.yul\":468:483   */\n  mstore\n    /* \"#utility.yul\":502:506   */\n  0x24\n    /* \"#utility.yul\":499:500   */\n  0x00\n    /* \"#utility.yul\":492:507   */\n  revert\n    /* \"contracts/Vote.sol\":258:1278  contract Vote {... */\ntag_4:\n  dataSize(sub_0)\n  dup1\n  dataOffset(sub_0)\n  0x00\n  codecopy\n  0x00\n  return\nstop\n\nsub_0: assembly {\n        /* \"contracts/Vote.sol\":258:1278  contract Vote {... */\n      mstore(0x40, 0x80)\n      callvalue\n      dup1\n      iszero\n      tag_1\n      jumpi\n      0x00\n      dup1\n      revert\n    tag_1:\n      pop\n      jumpi(tag_2, lt(calldatasize, 0x04))\n      shr(0xe0, calldataload(0x00))\n      dup1\n      0x314fd68f\n      eq\n      tag_3\n      jumpi\n      dup1\n      0x9e5f0349\n      eq\n      tag_4\n      jumpi\n      dup1\n      0xd5391393\n      eq\n      tag_5\n      jumpi\n      dup1\n      0xd59d2a58\n      eq\n      tag_6\n      jumpi\n    tag_2:\n      0x00\n      dup1\n      revert\n        /* \"contracts/Vote.sol\":327:380  string [] public party = [\"APC\", \"PDP\", \"LP\", \"NNPP\"] */\n    tag_3:\n      tag_7\n      0x04\n      dup1\n      calldatasize\n      sub\n      dup2\n      add\n      swap1\n      tag_8\n      swap2\n      swap1\n      tag_9\n      jump\t// in\n    tag_8:\n      tag_10\n      jump\t// in\n    tag_7:\n      mload(0x40)\n      tag_11\n      swap2\n      swap1\n      tag_12\n      jump\t// in\n    tag_11:\n      mload(0x40)\n      dup1\n      swap2\n      sub\n      swap1\n      return\n        /* \"contracts/Vote.sol\":1159:1276  function retrieveCandidate(uint256 num) public view returns (candidate memory){... */\n    tag_4:\n      tag_13\n      0x04\n      dup1\n      calldatasize\n      sub\n      dup2\n      add\n      swap1\n      tag_14\n      swap2\n      swap1\n      tag_9\n      jump\t// in\n    tag_14:\n      tag_15\n      jump\t// in\n    tag_13:\n      mload(0x40)\n      tag_16\n      swap2\n      swap1\n      tag_17\n      jump\t// in\n    tag_16:\n      mload(0x40)\n      dup1\n      swap2\n      sub\n      swap1\n      return\n        /* \"contracts/Vote.sol\":387:442  bytes32 public constant MINTER_ROLE = keccak256(\"INEC\") */\n    tag_5:\n      tag_18\n      tag_19\n      jump\t// in\n    tag_18:\n      mload(0x40)\n      tag_20\n      swap2\n      swap1\n      tag_21\n      jump\t// in\n    tag_20:\n      mload(0x40)\n      dup1\n      swap2\n      sub\n      swap1\n      return\n        /* \"contracts/Vote.sol\":790:1078  function createCandidate(string memory name, address candAddress, uint256 partyNum) public {... */\n    tag_6:\n      tag_22\n      0x04\n      dup1\n      calldatasize\n      sub\n      dup2\n      add\n      swap1\n      tag_23\n      swap2\n      swap1\n      tag_24\n      jump\t// in\n    tag_23:\n      tag_25\n      jump\t// in\n    tag_22:\n      stop\n        /* \"contracts/Vote.sol\":327:380  string [] public party = [\"APC\", \"PDP\", \"LP\", \"NNPP\"] */\n    tag_10:\n      0x02\n      dup2\n      dup2\n      sload\n      dup2\n      lt\n      tag_26\n      jumpi\n      0x00\n      dup1\n      revert\n    tag_26:\n      swap1\n      0x00\n      mstore\n      keccak256(0x00, 0x20)\n      add\n      0x00\n      swap2\n      pop\n      swap1\n      pop\n      dup1\n      sload\n      tag_28\n      swap1\n      tag_29\n      jump\t// in\n    tag_28:\n      dup1\n      0x1f\n      add\n      0x20\n      dup1\n      swap2\n      div\n      mul\n      0x20\n      add\n      mload(0x40)\n      swap1\n      dup2\n      add\n      0x40\n      mstore\n      dup1\n      swap3\n      swap2\n      swap1\n      dup2\n      dup2\n      mstore\n      0x20\n      add\n      dup3\n      dup1\n      sload\n      tag_30\n      swap1\n      tag_29\n      jump\t// in\n    tag_30:\n      dup1\n      iszero\n      tag_31\n      jumpi\n      dup1\n      0x1f\n      lt\n      tag_32\n      jumpi\n      0x0100\n      dup1\n      dup4\n      sload\n      div\n      mul\n      dup4\n      mstore\n      swap2\n      0x20\n      add\n      swap2\n      jump(tag_31)\n    tag_32:\n      dup3\n      add\n      swap2\n      swap1\n      0x00\n      mstore\n      keccak256(0x00, 0x20)\n      swap1\n    tag_33:\n      dup2\n      sload\n      dup2\n      mstore\n      swap1\n      0x01\n      add\n      swap1\n      0x20\n      add\n      dup1\n      dup4\n      gt\n      tag_33\n      jumpi\n      dup3\n      swap1\n      sub\n      0x1f\n      and\n      dup3\n      add\n      swap2\n    tag_31:\n      pop\n      pop\n      pop\n      pop\n      pop\n      dup2\n      jump\t// out\n        /* \"contracts/Vote.sol\":1159:1276  function retrieveCandidate(uint256 num) public view returns (candidate memory){... */\n    tag_15:\n        /* \"contracts/Vote.sol\":1220:1236  candidate memory */\n      tag_34\n      tag_35\n      jump\t// in\n    tag_34:\n        /* \"contracts/Vote.sol\":1254:1264  Candidates */\n      0x03\n        /* \"contracts/Vote.sol\":1254:1269  Candidates[num] */\n      0x00\n        /* \"contracts/Vote.sol\":1265:1268  num */\n      dup4\n        /* \"contracts/Vote.sol\":1254:1269  Candidates[num] */\n      dup2\n      mstore\n      0x20\n      add\n      swap1\n      dup2\n      mstore\n      0x20\n      add\n      0x00\n      keccak256\n        /* \"contracts/Vote.sol\":1247:1269  return Candidates[num] */\n      mload(0x40)\n      dup1\n      0x60\n      add\n      0x40\n      mstore\n      swap1\n      dup2\n      0x00\n      dup3\n      add\n      dup1\n      sload\n      tag_37\n      swap1\n      tag_29\n      jump\t// in\n    tag_37:\n      dup1\n      0x1f\n      add\n      0x20\n      dup1\n      swap2\n      div\n      mul\n      0x20\n      add\n      mload(0x40)\n      swap1\n      dup2\n      add\n      0x40\n      mstore\n      dup1\n      swap3\n      swap2\n      swap1\n      dup2\n      dup2\n      mstore\n      0x20\n      add\n      dup3\n      dup1\n      sload\n      tag_38\n      swap1\n      tag_29\n      jump\t// in\n    tag_38:\n      dup1\n      iszero\n      tag_39\n      jumpi\n      dup1\n      0x1f\n      lt\n      tag_40\n      jumpi\n      0x0100\n      dup1\n      dup4\n      sload\n      div\n      mul\n      dup4\n      mstore\n      swap2\n      0x20\n      add\n      swap2\n      jump(tag_39)\n    tag_40:\n      dup3\n      add\n      swap2\n      swap1\n      0x00\n      mstore\n      keccak256(0x00, 0x20)\n      swap1\n    tag_41:\n      dup2\n      sload\n      dup2\n      mstore\n      swap1\n      0x01\n      add\n      swap1\n      0x20\n      add\n      dup1\n      dup4\n      gt\n      tag_41\n      jumpi\n      dup3\n      swap1\n      sub\n      0x1f\n      and\n      dup3\n      add\n      swap2\n    tag_39:\n      pop\n      pop\n      pop\n      pop\n      pop\n      dup2\n      mstore\n      0x20\n      add\n      0x01\n      dup3\n      add\n      0x00\n      swap1\n      sload\n      swap1\n      0x0100\n      exp\n      swap1\n      div\n      0xffffffffffffffffffffffffffffffffffffffff\n      and\n      0xffffffffffffffffffffffffffffffffffffffff\n      and\n      0xffffffffffffffffffffffffffffffffffffffff\n      and\n      dup2\n      mstore\n      0x20\n      add\n      0x02\n      dup3\n      add\n      dup1\n      sload\n      tag_42\n      swap1\n      tag_29\n      jump\t// in\n    tag_42:\n      dup1\n      0x1f\n      add\n      0x20\n      dup1\n      swap2\n      div\n      mul\n      0x20\n      add\n      mload(0x40)\n      swap1\n      dup2\n      add\n      0x40\n      mstore\n      dup1\n      swap3\n      swap2\n      swap1\n      dup2\n      dup2\n      mstore\n      0x20\n      add\n      dup3\n      dup1\n      sload\n      tag_43\n      swap1\n      tag_29\n      jump\t// in\n    tag_43:\n      dup1\n      iszero\n      tag_44\n      jumpi\n      dup1\n      0x1f\n      lt\n      tag_45\n      jumpi\n      0x0100\n      dup1\n      dup4\n      sload\n      div\n      mul\n      dup4\n      mstore\n      swap2\n      0x20\n      add\n      swap2\n      jump(tag_44)\n    tag_45:\n      dup3\n      add\n      swap2\n      swap1\n      0x00\n      mstore\n      keccak256(0x00, 0x20)\n      swap1\n    tag_46:\n      dup2\n      sload\n      dup2\n      mstore\n      swap1\n      0x01\n      add\n      swap1\n      0x20\n      add\n      dup1\n      dup4\n      gt\n      tag_46\n      jumpi\n      dup3\n      swap1\n      sub\n      0x1f\n      and\n      dup3\n      add\n      swap2\n    tag_44:\n      pop\n      pop\n      pop\n      pop\n      pop\n      dup2\n      mstore\n      pop\n      pop\n      swap1\n      pop\n        /* \"contracts/Vote.sol\":1159:1276  function retrieveCandidate(uint256 num) public view returns (candidate memory){... */\n      swap2\n      swap1\n      pop\n      jump\t// out\n        /* \"contracts/Vote.sol\":387:442  bytes32 public constant MINTER_ROLE = keccak256(\"INEC\") */\n    tag_19:\n        /* \"contracts/Vote.sol\":425:442  keccak256(\"INEC\") */\n      0xc652916f30bca166747962963ad2e0165f0161079f5185694717f9625eed6e2a\n        /* \"contracts/Vote.sol\":387:442  bytes32 public constant MINTER_ROLE = keccak256(\"INEC\") */\n      dup2\n      jump\t// out\n        /* \"contracts/Vote.sol\":790:1078  function createCandidate(string memory name, address candAddress, uint256 partyNum) public {... */\n    tag_25:\n        /* \"contracts/Vote.sol\":923:927  name */\n      dup3\n        /* \"contracts/Vote.sol\":891:901  Candidates */\n      0x03\n        /* \"contracts/Vote.sol\":891:915  Candidates[candidateNum] */\n      0x00\n        /* \"contracts/Vote.sol\":902:914  candidateNum */\n      sload(0x01)\n        /* \"contracts/Vote.sol\":891:915  Candidates[candidateNum] */\n      dup2\n      mstore\n      0x20\n      add\n      swap1\n      dup2\n      mstore\n      0x20\n      add\n      0x00\n      keccak256\n        /* \"contracts/Vote.sol\":891:920  Candidates[candidateNum].name */\n      0x00\n      add\n        /* \"contracts/Vote.sol\":891:927  Candidates[candidateNum].name = name */\n      swap1\n      dup1\n      mload\n      swap1\n      0x20\n      add\n      swap1\n      tag_48\n      swap3\n      swap2\n      swap1\n      tag_49\n      jump\t// in\n    tag_48:\n      pop\n        /* \"contracts/Vote.sol\":969:980  candAddress */\n      dup2\n        /* \"contracts/Vote.sol\":937:947  Candidates */\n      0x03\n        /* \"contracts/Vote.sol\":937:961  Candidates[candidateNum] */\n      0x00\n        /* \"contracts/Vote.sol\":948:960  candidateNum */\n      sload(0x01)\n        /* \"contracts/Vote.sol\":937:961  Candidates[candidateNum] */\n      dup2\n      mstore\n      0x20\n      add\n      swap1\n      dup2\n      mstore\n      0x20\n      add\n      0x00\n      keccak256\n        /* \"contracts/Vote.sol\":937:966  Candidates[candidateNum].addr */\n      0x01\n      add\n      0x00\n        /* \"contracts/Vote.sol\":937:980  Candidates[candidateNum].addr = candAddress */\n      0x0100\n      exp\n      dup2\n      sload\n      dup2\n      0xffffffffffffffffffffffffffffffffffffffff\n      mul\n      not\n      and\n      swap1\n      dup4\n      0xffffffffffffffffffffffffffffffffffffffff\n      and\n      mul\n      or\n      swap1\n      sstore\n      pop\n        /* \"contracts/Vote.sol\":1023:1028  party */\n      0x02\n        /* \"contracts/Vote.sol\":1029:1037  partyNum */\n      dup2\n        /* \"contracts/Vote.sol\":1023:1038  party[partyNum] */\n      dup2\n      sload\n      dup2\n      lt\n      tag_50\n      jumpi\n      tag_51\n      tag_52\n      jump\t// in\n    tag_51:\n    tag_50:\n      swap1\n      0x00\n      mstore\n      keccak256(0x00, 0x20)\n      add\n        /* \"contracts/Vote.sol\":990:1000  Candidates */\n      0x03\n        /* \"contracts/Vote.sol\":990:1014  Candidates[candidateNum] */\n      0x00\n        /* \"contracts/Vote.sol\":1001:1013  candidateNum */\n      sload(0x01)\n        /* \"contracts/Vote.sol\":990:1014  Candidates[candidateNum] */\n      dup2\n      mstore\n      0x20\n      add\n      swap1\n      dup2\n      mstore\n      0x20\n      add\n      0x00\n      keccak256\n        /* \"contracts/Vote.sol\":990:1020  Candidates[candidateNum].party */\n      0x02\n      add\n        /* \"contracts/Vote.sol\":990:1038  Candidates[candidateNum].party = party[partyNum] */\n      swap1\n      dup1\n      sload\n      tag_54\n      swap1\n      tag_29\n      jump\t// in\n    tag_54:\n      tag_55\n      swap3\n      swap2\n      swap1\n      tag_56\n      jump\t// in\n    tag_55:\n      pop\n        /* \"contracts/Vote.sol\":1050:1062  candidateNum */\n      0x01\n      0x00\n        /* \"contracts/Vote.sol\":1050:1065  candidateNum ++ */\n      dup2\n      sload\n      dup1\n      swap3\n      swap2\n      swap1\n      tag_57\n      swap1\n      tag_58\n      jump\t// in\n    tag_57:\n      swap2\n      swap1\n      pop\n      sstore\n      pop\n        /* \"contracts/Vote.sol\":790:1078  function createCandidate(string memory name, address candAddress, uint256 partyNum) public {... */\n      pop\n      pop\n      pop\n      jump\t// out\n    tag_35:\n      mload(0x40)\n      dup1\n      0x60\n      add\n      0x40\n      mstore\n      dup1\n      0x60\n      dup2\n      mstore\n      0x20\n      add\n      and(0xffffffffffffffffffffffffffffffffffffffff, 0x00)\n      dup2\n      mstore\n      0x20\n      add\n      0x60\n      dup2\n      mstore\n      pop\n      swap1\n      jump\t// out\n    tag_49:\n      dup3\n      dup1\n      sload\n      tag_59\n      swap1\n      tag_29\n      jump\t// in\n    tag_59:\n      swap1\n      0x00\n      mstore\n      keccak256(0x00, 0x20)\n      swap1\n      0x1f\n      add\n      0x20\n      swap1\n      div\n      dup2\n      add\n      swap3\n      dup3\n      tag_61\n      jumpi\n      0x00\n      dup6\n      sstore\n      jump(tag_60)\n    tag_61:\n      dup3\n      0x1f\n      lt\n      tag_62\n      jumpi\n      dup1\n      mload\n      not(0xff)\n      and\n      dup4\n      dup1\n      add\n      or\n      dup6\n      sstore\n      jump(tag_60)\n    tag_62:\n      dup3\n      dup1\n      add\n      0x01\n      add\n      dup6\n      sstore\n      dup3\n      iszero\n      tag_60\n      jumpi\n      swap2\n      dup3\n      add\n    tag_63:\n      dup3\n      dup2\n      gt\n      iszero\n      tag_64\n      jumpi\n      dup3\n      mload\n      dup3\n      sstore\n      swap2\n      0x20\n      add\n      swap2\n      swap1\n      0x01\n      add\n      swap1\n      jump(tag_63)\n    tag_64:\n    tag_60:\n      pop\n      swap1\n      pop\n      tag_65\n      swap2\n      swap1\n      tag_66\n      jump\t// in\n    tag_65:\n      pop\n      swap1\n      jump\t// out\n    tag_56:\n      dup3\n      dup1\n      sload\n      tag_67\n      swap1\n      tag_29\n      jump\t// in\n    tag_67:\n      swap1\n      0x00\n      mstore\n      keccak256(0x00, 0x20)\n      swap1\n      0x1f\n      add\n      0x20\n      swap1\n      div\n      dup2\n      add\n      swap3\n      dup3\n      tag_69\n      jumpi\n      0x00\n      dup6\n      sstore\n      jump(tag_68)\n    tag_69:\n      dup3\n      0x1f\n      lt\n      tag_70\n      jumpi\n      dup1\n      sload\n      dup6\n      sstore\n      jump(tag_68)\n    tag_70:\n      dup3\n      dup1\n      add\n      0x01\n      add\n      dup6\n      sstore\n      dup3\n      iszero\n      tag_68\n      jumpi\n      0x00\n      mstore\n      keccak256(0x00, 0x20)\n      swap2\n      0x1f\n      add\n      0x20\n      swap1\n      div\n      dup3\n      add\n    tag_71:\n      dup3\n      dup2\n      gt\n      iszero\n      tag_72\n      jumpi\n      dup3\n      sload\n      dup3\n      sstore\n      swap2\n      0x01\n      add\n      swap2\n      swap1\n      0x01\n      add\n      swap1\n      jump(tag_71)\n    tag_72:\n    tag_68:\n      pop\n      swap1\n      pop\n      tag_73\n      swap2\n      swap1\n      tag_66\n      jump\t// in\n    tag_73:\n      pop\n      swap1\n      jump\t// out\n    tag_66:\n    tag_74:\n      dup1\n      dup3\n      gt\n      iszero\n      tag_75\n      jumpi\n      0x00\n      dup2\n      0x00\n      swap1\n      sstore\n      pop\n      0x01\n      add\n      jump(tag_74)\n    tag_75:\n      pop\n      swap1\n      jump\t// out\n        /* \"#utility.yul\":7:419   */\n    tag_77:\n        /* \"#utility.yul\":85:90   */\n      0x00\n        /* \"#utility.yul\":110:176   */\n      tag_79\n        /* \"#utility.yul\":126:175   */\n      tag_80\n        /* \"#utility.yul\":168:174   */\n      dup5\n        /* \"#utility.yul\":126:175   */\n      tag_81\n      jump\t// in\n    tag_80:\n        /* \"#utility.yul\":110:176   */\n      tag_82\n      jump\t// in\n    tag_79:\n        /* \"#utility.yul\":101:176   */\n      swap1\n      pop\n        /* \"#utility.yul\":199:205   */\n      dup3\n        /* \"#utility.yul\":192:197   */\n      dup2\n        /* \"#utility.yul\":185:206   */\n      mstore\n        /* \"#utility.yul\":237:241   */\n      0x20\n        /* \"#utility.yul\":230:235   */\n      dup2\n        /* \"#utility.yul\":226:242   */\n      add\n        /* \"#utility.yul\":275:278   */\n      dup5\n        /* \"#utility.yul\":266:272   */\n      dup5\n        /* \"#utility.yul\":261:264   */\n      dup5\n        /* \"#utility.yul\":257:273   */\n      add\n        /* \"#utility.yul\":254:279   */\n      gt\n        /* \"#utility.yul\":251:363   */\n      iszero\n      tag_83\n      jumpi\n        /* \"#utility.yul\":282:361   */\n      tag_84\n      tag_85\n      jump\t// in\n    tag_84:\n        /* \"#utility.yul\":251:363   */\n    tag_83:\n        /* \"#utility.yul\":372:413   */\n      tag_86\n        /* \"#utility.yul\":406:412   */\n      dup5\n        /* \"#utility.yul\":401:404   */\n      dup3\n        /* \"#utility.yul\":396:399   */\n      dup6\n        /* \"#utility.yul\":372:413   */\n      tag_87\n      jump\t// in\n    tag_86:\n        /* \"#utility.yul\":91:419   */\n      pop\n        /* \"#utility.yul\":7:419   */\n      swap4\n      swap3\n      pop\n      pop\n      pop\n      jump\t// out\n        /* \"#utility.yul\":425:564   */\n    tag_88:\n        /* \"#utility.yul\":471:476   */\n      0x00\n        /* \"#utility.yul\":509:515   */\n      dup2\n        /* \"#utility.yul\":496:516   */\n      calldataload\n        /* \"#utility.yul\":487:516   */\n      swap1\n      pop\n        /* \"#utility.yul\":525:558   */\n      tag_90\n        /* \"#utility.yul\":552:557   */\n      dup2\n        /* \"#utility.yul\":525:558   */\n      tag_91\n      jump\t// in\n    tag_90:\n        /* \"#utility.yul\":425:564   */\n      swap3\n      swap2\n      pop\n      pop\n      jump\t// out\n        /* \"#utility.yul\":584:924   */\n    tag_92:\n        /* \"#utility.yul\":640:645   */\n      0x00\n        /* \"#utility.yul\":689:692   */\n      dup3\n        /* \"#utility.yul\":682:686   */\n      0x1f\n        /* \"#utility.yul\":674:680   */\n      dup4\n        /* \"#utility.yul\":670:687   */\n      add\n        /* \"#utility.yul\":666:693   */\n      slt\n        /* \"#utility.yul\":656:778   */\n      tag_94\n      jumpi\n        /* \"#utility.yul\":697:776   */\n      tag_95\n      tag_96\n      jump\t// in\n    tag_95:\n        /* \"#utility.yul\":656:778   */\n    tag_94:\n        /* \"#utility.yul\":814:820   */\n      dup2\n        /* \"#utility.yul\":801:821   */\n      calldataload\n        /* \"#utility.yul\":839:918   */\n      tag_97\n        /* \"#utility.yul\":914:917   */\n      dup5\n        /* \"#utility.yul\":906:912   */\n      dup3\n        /* \"#utility.yul\":899:903   */\n      0x20\n        /* \"#utility.yul\":891:897   */\n      dup7\n        /* \"#utility.yul\":887:904   */\n      add\n        /* \"#utility.yul\":839:918   */\n      tag_77\n      jump\t// in\n    tag_97:\n        /* \"#utility.yul\":830:918   */\n      swap2\n      pop\n        /* \"#utility.yul\":646:924   */\n      pop\n        /* \"#utility.yul\":584:924   */\n      swap3\n      swap2\n      pop\n      pop\n      jump\t// out\n        /* \"#utility.yul\":930:1069   */\n    tag_98:\n        /* \"#utility.yul\":976:981   */\n      0x00\n        /* \"#utility.yul\":1014:1020   */\n      dup2\n        /* \"#utility.yul\":1001:1021   */\n      calldataload\n        /* \"#utility.yul\":992:1021   */\n      swap1\n      pop\n        /* \"#utility.yul\":1030:1063   */\n      tag_100\n        /* \"#utility.yul\":1057:1062   */\n      dup2\n        /* \"#utility.yul\":1030:1063   */\n      tag_101\n      jump\t// in\n    tag_100:\n        /* \"#utility.yul\":930:1069   */\n      swap3\n      swap2\n      pop\n      pop\n      jump\t// out\n        /* \"#utility.yul\":1075:1874   */\n    tag_24:\n        /* \"#utility.yul\":1162:1168   */\n      0x00\n        /* \"#utility.yul\":1170:1176   */\n      dup1\n        /* \"#utility.yul\":1178:1184   */\n      0x00\n        /* \"#utility.yul\":1227:1229   */\n      0x60\n        /* \"#utility.yul\":1215:1224   */\n      dup5\n        /* \"#utility.yul\":1206:1213   */\n      dup7\n        /* \"#utility.yul\":1202:1225   */\n      sub\n        /* \"#utility.yul\":1198:1230   */\n      slt\n        /* \"#utility.yul\":1195:1314   */\n      iszero\n      tag_103\n      jumpi\n        /* \"#utility.yul\":1233:1312   */\n      tag_104\n      tag_105\n      jump\t// in\n    tag_104:\n        /* \"#utility.yul\":1195:1314   */\n    tag_103:\n        /* \"#utility.yul\":1381:1382   */\n      0x00\n        /* \"#utility.yul\":1370:1379   */\n      dup5\n        /* \"#utility.yul\":1366:1383   */\n      add\n        /* \"#utility.yul\":1353:1384   */\n      calldataload\n        /* \"#utility.yul\":1411:1429   */\n      0xffffffffffffffff\n        /* \"#utility.yul\":1403:1409   */\n      dup2\n        /* \"#utility.yul\":1400:1430   */\n      gt\n        /* \"#utility.yul\":1397:1514   */\n      iszero\n      tag_106\n      jumpi\n        /* \"#utility.yul\":1433:1512   */\n      tag_107\n      tag_108\n      jump\t// in\n    tag_107:\n        /* \"#utility.yul\":1397:1514   */\n    tag_106:\n        /* \"#utility.yul\":1538:1601   */\n      tag_109\n        /* \"#utility.yul\":1593:1600   */\n      dup7\n        /* \"#utility.yul\":1584:1590   */\n      dup3\n        /* \"#utility.yul\":1573:1582   */\n      dup8\n        /* \"#utility.yul\":1569:1591   */\n      add\n        /* \"#utility.yul\":1538:1601   */\n      tag_92\n      jump\t// in\n    tag_109:\n        /* \"#utility.yul\":1528:1601   */\n      swap4\n      pop\n        /* \"#utility.yul\":1324:1611   */\n      pop\n        /* \"#utility.yul\":1650:1652   */\n      0x20\n        /* \"#utility.yul\":1676:1729   */\n      tag_110\n        /* \"#utility.yul\":1721:1728   */\n      dup7\n        /* \"#utility.yul\":1712:1718   */\n      dup3\n        /* \"#utility.yul\":1701:1710   */\n      dup8\n        /* \"#utility.yul\":1697:1719   */\n      add\n        /* \"#utility.yul\":1676:1729   */\n      tag_88\n      jump\t// in\n    tag_110:\n        /* \"#utility.yul\":1666:1729   */\n      swap3\n      pop\n        /* \"#utility.yul\":1621:1739   */\n      pop\n        /* \"#utility.yul\":1778:1780   */\n      0x40\n        /* \"#utility.yul\":1804:1857   */\n      tag_111\n        /* \"#utility.yul\":1849:1856   */\n      dup7\n        /* \"#utility.yul\":1840:1846   */\n      dup3\n        /* \"#utility.yul\":1829:1838   */\n      dup8\n        /* \"#utility.yul\":1825:1847   */\n      add\n        /* \"#utility.yul\":1804:1857   */\n      tag_98\n      jump\t// in\n    tag_111:\n        /* \"#utility.yul\":1794:1857   */\n      swap2\n      pop\n        /* \"#utility.yul\":1749:1867   */\n      pop\n        /* \"#utility.yul\":1075:1874   */\n      swap3\n      pop\n      swap3\n      pop\n      swap3\n      jump\t// out\n        /* \"#utility.yul\":1880:2209   */\n    tag_9:\n        /* \"#utility.yul\":1939:1945   */\n      0x00\n        /* \"#utility.yul\":1988:1990   */\n      0x20\n        /* \"#utility.yul\":1976:1985   */\n      dup3\n        /* \"#utility.yul\":1967:1974   */\n      dup5\n        /* \"#utility.yul\":1963:1986   */\n      sub\n        /* \"#utility.yul\":1959:1991   */\n      slt\n        /* \"#utility.yul\":1956:2075   */\n      iszero\n      tag_113\n      jumpi\n        /* \"#utility.yul\":1994:2073   */\n      tag_114\n      tag_105\n      jump\t// in\n    tag_114:\n        /* \"#utility.yul\":1956:2075   */\n    tag_113:\n        /* \"#utility.yul\":2114:2115   */\n      0x00\n        /* \"#utility.yul\":2139:2192   */\n      tag_115\n        /* \"#utility.yul\":2184:2191   */\n      dup5\n        /* \"#utility.yul\":2175:2181   */\n      dup3\n        /* \"#utility.yul\":2164:2173   */\n      dup6\n        /* \"#utility.yul\":2160:2182   */\n      add\n        /* \"#utility.yul\":2139:2192   */\n      tag_98\n      jump\t// in\n    tag_115:\n        /* \"#utility.yul\":2129:2192   */\n      swap2\n      pop\n        /* \"#utility.yul\":2085:2202   */\n      pop\n        /* \"#utility.yul\":1880:2209   */\n      swap3\n      swap2\n      pop\n      pop\n      jump\t// out\n        /* \"#utility.yul\":2215:2323   */\n    tag_116:\n        /* \"#utility.yul\":2292:2316   */\n      tag_118\n        /* \"#utility.yul\":2310:2315   */\n      dup2\n        /* \"#utility.yul\":2292:2316   */\n      tag_119\n      jump\t// in\n    tag_118:\n        /* \"#utility.yul\":2287:2290   */\n      dup3\n        /* \"#utility.yul\":2280:2317   */\n      mstore\n        /* \"#utility.yul\":2215:2323   */\n      pop\n      pop\n      jump\t// out\n        /* \"#utility.yul\":2329:2447   */\n    tag_120:\n        /* \"#utility.yul\":2416:2440   */\n      tag_122\n        /* \"#utility.yul\":2434:2439   */\n      dup2\n        /* \"#utility.yul\":2416:2440   */\n      tag_123\n      jump\t// in\n    tag_122:\n        /* \"#utility.yul\":2411:2414   */\n      dup3\n        /* \"#utility.yul\":2404:2441   */\n      mstore\n        /* \"#utility.yul\":2329:2447   */\n      pop\n      pop\n      jump\t// out\n        /* \"#utility.yul\":2453:2797   */\n    tag_124:\n        /* \"#utility.yul\":2531:2534   */\n      0x00\n        /* \"#utility.yul\":2559:2598   */\n      tag_126\n        /* \"#utility.yul\":2592:2597   */\n      dup3\n        /* \"#utility.yul\":2559:2598   */\n      tag_127\n      jump\t// in\n    tag_126:\n        /* \"#utility.yul\":2614:2675   */\n      tag_128\n        /* \"#utility.yul\":2668:2674   */\n      dup2\n        /* \"#utility.yul\":2663:2666   */\n      dup6\n        /* \"#utility.yul\":2614:2675   */\n      tag_129\n      jump\t// in\n    tag_128:\n        /* \"#utility.yul\":2607:2675   */\n      swap4\n      pop\n        /* \"#utility.yul\":2684:2736   */\n      tag_130\n        /* \"#utility.yul\":2729:2735   */\n      dup2\n        /* \"#utility.yul\":2724:2727   */\n      dup6\n        /* \"#utility.yul\":2717:2721   */\n      0x20\n        /* \"#utility.yul\":2710:2715   */\n      dup7\n        /* \"#utility.yul\":2706:2722   */\n      add\n        /* \"#utility.yul\":2684:2736   */\n      tag_131\n      jump\t// in\n    tag_130:\n        /* \"#utility.yul\":2761:2790   */\n      tag_132\n        /* \"#utility.yul\":2783:2789   */\n      dup2\n        /* \"#utility.yul\":2761:2790   */\n      tag_133\n      jump\t// in\n    tag_132:\n        /* \"#utility.yul\":2756:2759   */\n      dup5\n        /* \"#utility.yul\":2752:2791   */\n      add\n        /* \"#utility.yul\":2745:2791   */\n      swap2\n      pop\n        /* \"#utility.yul\":2535:2797   */\n      pop\n        /* \"#utility.yul\":2453:2797   */\n      swap3\n      swap2\n      pop\n      pop\n      jump\t// out\n        /* \"#utility.yul\":2803:3167   */\n    tag_134:\n        /* \"#utility.yul\":2891:2894   */\n      0x00\n        /* \"#utility.yul\":2919:2958   */\n      tag_136\n        /* \"#utility.yul\":2952:2957   */\n      dup3\n        /* \"#utility.yul\":2919:2958   */\n      tag_127\n      jump\t// in\n    tag_136:\n        /* \"#utility.yul\":2974:3045   */\n      tag_137\n        /* \"#utility.yul\":3038:3044   */\n      dup2\n        /* \"#utility.yul\":3033:3036   */\n      dup6\n        /* \"#utility.yul\":2974:3045   */\n      tag_138\n      jump\t// in\n    tag_137:\n        /* \"#utility.yul\":2967:3045   */\n      swap4\n      pop\n        /* \"#utility.yul\":3054:3106   */\n      tag_139\n        /* \"#utility.yul\":3099:3105   */\n      dup2\n        /* \"#utility.yul\":3094:3097   */\n      dup6\n        /* \"#utility.yul\":3087:3091   */\n      0x20\n        /* \"#utility.yul\":3080:3085   */\n      dup7\n        /* \"#utility.yul\":3076:3092   */\n      add\n        /* \"#utility.yul\":3054:3106   */\n      tag_131\n      jump\t// in\n    tag_139:\n        /* \"#utility.yul\":3131:3160   */\n      tag_140\n        /* \"#utility.yul\":3153:3159   */\n      dup2\n        /* \"#utility.yul\":3131:3160   */\n      tag_133\n      jump\t// in\n    tag_140:\n        /* \"#utility.yul\":3126:3129   */\n      dup5\n        /* \"#utility.yul\":3122:3161   */\n      add\n        /* \"#utility.yul\":3115:3161   */\n      swap2\n      pop\n        /* \"#utility.yul\":2895:3167   */\n      pop\n        /* \"#utility.yul\":2803:3167   */\n      swap3\n      swap2\n      pop\n      pop\n      jump\t// out\n        /* \"#utility.yul\":3227:4081   */\n    tag_141:\n        /* \"#utility.yul\":3348:3351   */\n      0x00\n        /* \"#utility.yul\":3384:3388   */\n      0x60\n        /* \"#utility.yul\":3379:3382   */\n      dup4\n        /* \"#utility.yul\":3375:3389   */\n      add\n        /* \"#utility.yul\":3471:3475   */\n      0x00\n        /* \"#utility.yul\":3464:3469   */\n      dup4\n        /* \"#utility.yul\":3460:3476   */\n      add\n        /* \"#utility.yul\":3454:3477   */\n      mload\n        /* \"#utility.yul\":3524:3527   */\n      dup5\n        /* \"#utility.yul\":3518:3522   */\n      dup3\n        /* \"#utility.yul\":3514:3528   */\n      sub\n        /* \"#utility.yul\":3507:3511   */\n      0x00\n        /* \"#utility.yul\":3502:3505   */\n      dup7\n        /* \"#utility.yul\":3498:3512   */\n      add\n        /* \"#utility.yul\":3491:3529   */\n      mstore\n        /* \"#utility.yul\":3550:3623   */\n      tag_143\n        /* \"#utility.yul\":3618:3622   */\n      dup3\n        /* \"#utility.yul\":3604:3616   */\n      dup3\n        /* \"#utility.yul\":3550:3623   */\n      tag_124\n      jump\t// in\n    tag_143:\n        /* \"#utility.yul\":3542:3623   */\n      swap2\n      pop\n        /* \"#utility.yul\":3399:3634   */\n      pop\n        /* \"#utility.yul\":3716:3720   */\n      0x20\n        /* \"#utility.yul\":3709:3714   */\n      dup4\n        /* \"#utility.yul\":3705:3721   */\n      add\n        /* \"#utility.yul\":3699:3722   */\n      mload\n        /* \"#utility.yul\":3735:3798   */\n      tag_144\n        /* \"#utility.yul\":3792:3796   */\n      0x20\n        /* \"#utility.yul\":3787:3790   */\n      dup7\n        /* \"#utility.yul\":3783:3797   */\n      add\n        /* \"#utility.yul\":3769:3781   */\n      dup3\n        /* \"#utility.yul\":3735:3798   */\n      tag_116\n      jump\t// in\n    tag_144:\n        /* \"#utility.yul\":3644:3808   */\n      pop\n        /* \"#utility.yul\":3891:3895   */\n      0x40\n        /* \"#utility.yul\":3884:3889   */\n      dup4\n        /* \"#utility.yul\":3880:3896   */\n      add\n        /* \"#utility.yul\":3874:3897   */\n      mload\n        /* \"#utility.yul\":3944:3947   */\n      dup5\n        /* \"#utility.yul\":3938:3942   */\n      dup3\n        /* \"#utility.yul\":3934:3948   */\n      sub\n        /* \"#utility.yul\":3927:3931   */\n      0x40\n        /* \"#utility.yul\":3922:3925   */\n      dup7\n        /* \"#utility.yul\":3918:3932   */\n      add\n        /* \"#utility.yul\":3911:3949   */\n      mstore\n        /* \"#utility.yul\":3970:4043   */\n      tag_145\n        /* \"#utility.yul\":4038:4042   */\n      dup3\n        /* \"#utility.yul\":4024:4036   */\n      dup3\n        /* \"#utility.yul\":3970:4043   */\n      tag_124\n      jump\t// in\n    tag_145:\n        /* \"#utility.yul\":3962:4043   */\n      swap2\n      pop\n        /* \"#utility.yul\":3818:4054   */\n      pop\n        /* \"#utility.yul\":4071:4075   */\n      dup1\n        /* \"#utility.yul\":4064:4075   */\n      swap2\n      pop\n        /* \"#utility.yul\":3353:4081   */\n      pop\n        /* \"#utility.yul\":3227:4081   */\n      swap3\n      swap2\n      pop\n      pop\n      jump\t// out\n        /* \"#utility.yul\":4087:4309   */\n    tag_21:\n        /* \"#utility.yul\":4180:4184   */\n      0x00\n        /* \"#utility.yul\":4218:4220   */\n      0x20\n        /* \"#utility.yul\":4207:4216   */\n      dup3\n        /* \"#utility.yul\":4203:4221   */\n      add\n        /* \"#utility.yul\":4195:4221   */\n      swap1\n      pop\n        /* \"#utility.yul\":4231:4302   */\n      tag_147\n        /* \"#utility.yul\":4299:4300   */\n      0x00\n        /* \"#utility.yul\":4288:4297   */\n      dup4\n        /* \"#utility.yul\":4284:4301   */\n      add\n        /* \"#utility.yul\":4275:4281   */\n      dup5\n        /* \"#utility.yul\":4231:4302   */\n      tag_120\n      jump\t// in\n    tag_147:\n        /* \"#utility.yul\":4087:4309   */\n      swap3\n      swap2\n      pop\n      pop\n      jump\t// out\n        /* \"#utility.yul\":4315:4628   */\n    tag_12:\n        /* \"#utility.yul\":4428:4432   */\n      0x00\n        /* \"#utility.yul\":4466:4468   */\n      0x20\n        /* \"#utility.yul\":4455:4464   */\n      dup3\n        /* \"#utility.yul\":4451:4469   */\n      add\n        /* \"#utility.yul\":4443:4469   */\n      swap1\n      pop\n        /* \"#utility.yul\":4515:4524   */\n      dup2\n        /* \"#utility.yul\":4509:4513   */\n      dup2\n        /* \"#utility.yul\":4505:4525   */\n      sub\n        /* \"#utility.yul\":4501:4502   */\n      0x00\n        /* \"#utility.yul\":4490:4499   */\n      dup4\n        /* \"#utility.yul\":4486:4503   */\n      add\n        /* \"#utility.yul\":4479:4526   */\n      mstore\n        /* \"#utility.yul\":4543:4621   */\n      tag_149\n        /* \"#utility.yul\":4616:4620   */\n      dup2\n        /* \"#utility.yul\":4607:4613   */\n      dup5\n        /* \"#utility.yul\":4543:4621   */\n      tag_134\n      jump\t// in\n    tag_149:\n        /* \"#utility.yul\":4535:4621   */\n      swap1\n      pop\n        /* \"#utility.yul\":4315:4628   */\n      swap3\n      swap2\n      pop\n      pop\n      jump\t// out\n        /* \"#utility.yul\":4634:5011   */\n    tag_17:\n        /* \"#utility.yul\":4779:4783   */\n      0x00\n        /* \"#utility.yul\":4817:4819   */\n      0x20\n        /* \"#utility.yul\":4806:4815   */\n      dup3\n        /* \"#utility.yul\":4802:4820   */\n      add\n        /* \"#utility.yul\":4794:4820   */\n      swap1\n      pop\n        /* \"#utility.yul\":4866:4875   */\n      dup2\n        /* \"#utility.yul\":4860:4864   */\n      dup2\n        /* \"#utility.yul\":4856:4876   */\n      sub\n        /* \"#utility.yul\":4852:4853   */\n      0x00\n        /* \"#utility.yul\":4841:4850   */\n      dup4\n        /* \"#utility.yul\":4837:4854   */\n      add\n        /* \"#utility.yul\":4830:4877   */\n      mstore\n        /* \"#utility.yul\":4894:5004   */\n      tag_151\n        /* \"#utility.yul\":4999:5003   */\n      dup2\n        /* \"#utility.yul\":4990:4996   */\n      dup5\n        /* \"#utility.yul\":4894:5004   */\n      tag_141\n      jump\t// in\n    tag_151:\n        /* \"#utility.yul\":4886:5004   */\n      swap1\n      pop\n        /* \"#utility.yul\":4634:5011   */\n      swap3\n      swap2\n      pop\n      pop\n      jump\t// out\n        /* \"#utility.yul\":5017:5146   */\n    tag_82:\n        /* \"#utility.yul\":5051:5057   */\n      0x00\n        /* \"#utility.yul\":5078:5098   */\n      tag_153\n      tag_154\n      jump\t// in\n    tag_153:\n        /* \"#utility.yul\":5068:5098   */\n      swap1\n      pop\n        /* \"#utility.yul\":5107:5140   */\n      tag_155\n        /* \"#utility.yul\":5135:5139   */\n      dup3\n        /* \"#utility.yul\":5127:5133   */\n      dup3\n        /* \"#utility.yul\":5107:5140   */\n      tag_156\n      jump\t// in\n    tag_155:\n        /* \"#utility.yul\":5017:5146   */\n      swap2\n      swap1\n      pop\n      jump\t// out\n        /* \"#utility.yul\":5152:5227   */\n    tag_154:\n        /* \"#utility.yul\":5185:5191   */\n      0x00\n        /* \"#utility.yul\":5218:5220   */\n      0x40\n        /* \"#utility.yul\":5212:5221   */\n      mload\n        /* \"#utility.yul\":5202:5221   */\n      swap1\n      pop\n        /* \"#utility.yul\":5152:5227   */\n      swap1\n      jump\t// out\n        /* \"#utility.yul\":5233:5541   */\n    tag_81:\n        /* \"#utility.yul\":5295:5299   */\n      0x00\n        /* \"#utility.yul\":5385:5403   */\n      0xffffffffffffffff\n        /* \"#utility.yul\":5377:5383   */\n      dup3\n        /* \"#utility.yul\":5374:5404   */\n      gt\n        /* \"#utility.yul\":5371:5427   */\n      iszero\n      tag_159\n      jumpi\n        /* \"#utility.yul\":5407:5425   */\n      tag_160\n      tag_161\n      jump\t// in\n    tag_160:\n        /* \"#utility.yul\":5371:5427   */\n    tag_159:\n        /* \"#utility.yul\":5445:5474   */\n      tag_162\n        /* \"#utility.yul\":5467:5473   */\n      dup3\n        /* \"#utility.yul\":5445:5474   */\n      tag_133\n      jump\t// in\n    tag_162:\n        /* \"#utility.yul\":5437:5474   */\n      swap1\n      pop\n        /* \"#utility.yul\":5529:5533   */\n      0x20\n        /* \"#utility.yul\":5523:5527   */\n      dup2\n        /* \"#utility.yul\":5519:5534   */\n      add\n        /* \"#utility.yul\":5511:5534   */\n      swap1\n      pop\n        /* \"#utility.yul\":5233:5541   */\n      swap2\n      swap1\n      pop\n      jump\t// out\n        /* \"#utility.yul\":5547:5646   */\n    tag_127:\n        /* \"#utility.yul\":5599:5605   */\n      0x00\n        /* \"#utility.yul\":5633:5638   */\n      dup2\n        /* \"#utility.yul\":5627:5639   */\n      mload\n        /* \"#utility.yul\":5617:5639   */\n      swap1\n      pop\n        /* \"#utility.yul\":5547:5646   */\n      swap2\n      swap1\n      pop\n      jump\t// out\n        /* \"#utility.yul\":5652:5811   */\n    tag_129:\n        /* \"#utility.yul\":5726:5737   */\n      0x00\n        /* \"#utility.yul\":5760:5766   */\n      dup3\n        /* \"#utility.yul\":5755:5758   */\n      dup3\n        /* \"#utility.yul\":5748:5767   */\n      mstore\n        /* \"#utility.yul\":5800:5804   */\n      0x20\n        /* \"#utility.yul\":5795:5798   */\n      dup3\n        /* \"#utility.yul\":5791:5805   */\n      add\n        /* \"#utility.yul\":5776:5805   */\n      swap1\n      pop\n        /* \"#utility.yul\":5652:5811   */\n      swap3\n      swap2\n      pop\n      pop\n      jump\t// out\n        /* \"#utility.yul\":5817:5986   */\n    tag_138:\n        /* \"#utility.yul\":5901:5912   */\n      0x00\n        /* \"#utility.yul\":5935:5941   */\n      dup3\n        /* \"#utility.yul\":5930:5933   */\n      dup3\n        /* \"#utility.yul\":5923:5942   */\n      mstore\n        /* \"#utility.yul\":5975:5979   */\n      0x20\n        /* \"#utility.yul\":5970:5973   */\n      dup3\n        /* \"#utility.yul\":5966:5980   */\n      add\n        /* \"#utility.yul\":5951:5980   */\n      swap1\n      pop\n        /* \"#utility.yul\":5817:5986   */\n      swap3\n      swap2\n      pop\n      pop\n      jump\t// out\n        /* \"#utility.yul\":5992:6088   */\n    tag_119:\n        /* \"#utility.yul\":6029:6036   */\n      0x00\n        /* \"#utility.yul\":6058:6082   */\n      tag_167\n        /* \"#utility.yul\":6076:6081   */\n      dup3\n        /* \"#utility.yul\":6058:6082   */\n      tag_168\n      jump\t// in\n    tag_167:\n        /* \"#utility.yul\":6047:6082   */\n      swap1\n      pop\n        /* \"#utility.yul\":5992:6088   */\n      swap2\n      swap1\n      pop\n      jump\t// out\n        /* \"#utility.yul\":6094:6171   */\n    tag_123:\n        /* \"#utility.yul\":6131:6138   */\n      0x00\n        /* \"#utility.yul\":6160:6165   */\n      dup2\n        /* \"#utility.yul\":6149:6165   */\n      swap1\n      pop\n        /* \"#utility.yul\":6094:6171   */\n      swap2\n      swap1\n      pop\n      jump\t// out\n        /* \"#utility.yul\":6177:6303   */\n    tag_168:\n        /* \"#utility.yul\":6214:6221   */\n      0x00\n        /* \"#utility.yul\":6254:6296   */\n      0xffffffffffffffffffffffffffffffffffffffff\n        /* \"#utility.yul\":6247:6252   */\n      dup3\n        /* \"#utility.yul\":6243:6297   */\n      and\n        /* \"#utility.yul\":6232:6297   */\n      swap1\n      pop\n        /* \"#utility.yul\":6177:6303   */\n      swap2\n      swap1\n      pop\n      jump\t// out\n        /* \"#utility.yul\":6309:6386   */\n    tag_171:\n        /* \"#utility.yul\":6346:6353   */\n      0x00\n        /* \"#utility.yul\":6375:6380   */\n      dup2\n        /* \"#utility.yul\":6364:6380   */\n      swap1\n      pop\n        /* \"#utility.yul\":6309:6386   */\n      swap2\n      swap1\n      pop\n      jump\t// out\n        /* \"#utility.yul\":6392:6546   */\n    tag_87:\n        /* \"#utility.yul\":6476:6482   */\n      dup3\n        /* \"#utility.yul\":6471:6474   */\n      dup2\n        /* \"#utility.yul\":6466:6469   */\n      dup4\n        /* \"#utility.yul\":6453:6483   */\n      calldatacopy\n        /* \"#utility.yul\":6538:6539   */\n      0x00\n        /* \"#utility.yul\":6529:6535   */\n      dup4\n        /* \"#utility.yul\":6524:6527   */\n      dup4\n        /* \"#utility.yul\":6520:6536   */\n      add\n        /* \"#utility.yul\":6513:6540   */\n      mstore\n        /* \"#utility.yul\":6392:6546   */\n      pop\n      pop\n      pop\n      jump\t// out\n        /* \"#utility.yul\":6552:6859   */\n    tag_131:\n        /* \"#utility.yul\":6620:6621   */\n      0x00\n        /* \"#utility.yul\":6630:6743   */\n    tag_175:\n        /* \"#utility.yul\":6644:6650   */\n      dup4\n        /* \"#utility.yul\":6641:6642   */\n      dup2\n        /* \"#utility.yul\":6638:6651   */\n      lt\n        /* \"#utility.yul\":6630:6743   */\n      iszero\n      tag_177\n      jumpi\n        /* \"#utility.yul\":6729:6730   */\n      dup1\n        /* \"#utility.yul\":6724:6727   */\n      dup3\n        /* \"#utility.yul\":6720:6731   */\n      add\n        /* \"#utility.yul\":6714:6732   */\n      mload\n        /* \"#utility.yul\":6710:6711   */\n      dup2\n        /* \"#utility.yul\":6705:6708   */\n      dup5\n        /* \"#utility.yul\":6701:6712   */\n      add\n        /* \"#utility.yul\":6694:6733   */\n      mstore\n        /* \"#utility.yul\":6666:6668   */\n      0x20\n        /* \"#utility.yul\":6663:6664   */\n      dup2\n        /* \"#utility.yul\":6659:6669   */\n      add\n        /* \"#utility.yul\":6654:6669   */\n      swap1\n      pop\n        /* \"#utility.yul\":6630:6743   */\n      jump(tag_175)\n    tag_177:\n        /* \"#utility.yul\":6761:6767   */\n      dup4\n        /* \"#utility.yul\":6758:6759   */\n      dup2\n        /* \"#utility.yul\":6755:6768   */\n      gt\n        /* \"#utility.yul\":6752:6853   */\n      iszero\n      tag_178\n      jumpi\n        /* \"#utility.yul\":6841:6842   */\n      0x00\n        /* \"#utility.yul\":6832:6838   */\n      dup5\n        /* \"#utility.yul\":6827:6830   */\n      dup5\n        /* \"#utility.yul\":6823:6839   */\n      add\n        /* \"#utility.yul\":6816:6843   */\n      mstore\n        /* \"#utility.yul\":6752:6853   */\n    tag_178:\n        /* \"#utility.yul\":6601:6859   */\n      pop\n        /* \"#utility.yul\":6552:6859   */\n      pop\n      pop\n      pop\n      jump\t// out\n        /* \"#utility.yul\":6865:7185   */\n    tag_29:\n        /* \"#utility.yul\":6909:6915   */\n      0x00\n        /* \"#utility.yul\":6946:6947   */\n      0x02\n        /* \"#utility.yul\":6940:6944   */\n      dup3\n        /* \"#utility.yul\":6936:6948   */\n      div\n        /* \"#utility.yul\":6926:6948   */\n      swap1\n      pop\n        /* \"#utility.yul\":6993:6994   */\n      0x01\n        /* \"#utility.yul\":6987:6991   */\n      dup3\n        /* \"#utility.yul\":6983:6995   */\n      and\n        /* \"#utility.yul\":7014:7032   */\n      dup1\n        /* \"#utility.yul\":7004:7085   */\n      tag_180\n      jumpi\n        /* \"#utility.yul\":7070:7074   */\n      0x7f\n        /* \"#utility.yul\":7062:7068   */\n      dup3\n        /* \"#utility.yul\":7058:7075   */\n      and\n        /* \"#utility.yul\":7048:7075   */\n      swap2\n      pop\n        /* \"#utility.yul\":7004:7085   */\n    tag_180:\n        /* \"#utility.yul\":7132:7134   */\n      0x20\n        /* \"#utility.yul\":7124:7130   */\n      dup3\n        /* \"#utility.yul\":7121:7135   */\n      lt\n        /* \"#utility.yul\":7101:7119   */\n      dup2\n        /* \"#utility.yul\":7098:7136   */\n      eq\n        /* \"#utility.yul\":7095:7179   */\n      iszero\n      tag_181\n      jumpi\n        /* \"#utility.yul\":7151:7169   */\n      tag_182\n      tag_183\n      jump\t// in\n    tag_182:\n        /* \"#utility.yul\":7095:7179   */\n    tag_181:\n        /* \"#utility.yul\":6916:7185   */\n      pop\n        /* \"#utility.yul\":6865:7185   */\n      swap2\n      swap1\n      pop\n      jump\t// out\n        /* \"#utility.yul\":7191:7472   */\n    tag_156:\n        /* \"#utility.yul\":7274:7301   */\n      tag_185\n        /* \"#utility.yul\":7296:7300   */\n      dup3\n        /* \"#utility.yul\":7274:7301   */\n      tag_133\n      jump\t// in\n    tag_185:\n        /* \"#utility.yul\":7266:7272   */\n      dup2\n        /* \"#utility.yul\":7262:7302   */\n      add\n        /* \"#utility.yul\":7404:7410   */\n      dup2\n        /* \"#utility.yul\":7392:7402   */\n      dup2\n        /* \"#utility.yul\":7389:7411   */\n      lt\n        /* \"#utility.yul\":7368:7386   */\n      0xffffffffffffffff\n        /* \"#utility.yul\":7356:7366   */\n      dup3\n        /* \"#utility.yul\":7353:7387   */\n      gt\n        /* \"#utility.yul\":7350:7412   */\n      or\n        /* \"#utility.yul\":7347:7435   */\n      iszero\n      tag_186\n      jumpi\n        /* \"#utility.yul\":7415:7433   */\n      tag_187\n      tag_161\n      jump\t// in\n    tag_187:\n        /* \"#utility.yul\":7347:7435   */\n    tag_186:\n        /* \"#utility.yul\":7455:7465   */\n      dup1\n        /* \"#utility.yul\":7451:7453   */\n      0x40\n        /* \"#utility.yul\":7444:7466   */\n      mstore\n        /* \"#utility.yul\":7234:7472   */\n      pop\n        /* \"#utility.yul\":7191:7472   */\n      pop\n      pop\n      jump\t// out\n        /* \"#utility.yul\":7478:7711   */\n    tag_58:\n        /* \"#utility.yul\":7517:7520   */\n      0x00\n        /* \"#utility.yul\":7540:7564   */\n      tag_189\n        /* \"#utility.yul\":7558:7563   */\n      dup3\n        /* \"#utility.yul\":7540:7564   */\n      tag_171\n      jump\t// in\n    tag_189:\n        /* \"#utility.yul\":7531:7564   */\n      swap2\n      pop\n        /* \"#utility.yul\":7586:7652   */\n      0xffffffffffffffffffffffffffffffffffffffffffffffffffffffffffffffff\n        /* \"#utility.yul\":7579:7584   */\n      dup3\n        /* \"#utility.yul\":7576:7653   */\n      eq\n        /* \"#utility.yul\":7573:7676   */\n      iszero\n      tag_190\n      jumpi\n        /* \"#utility.yul\":7656:7674   */\n      tag_191\n      tag_192\n      jump\t// in\n    tag_191:\n        /* \"#utility.yul\":7573:7676   */\n    tag_190:\n        /* \"#utility.yul\":7703:7704   */\n      0x01\n        /* \"#utility.yul\":7696:7701   */\n      dup3\n        /* \"#utility.yul\":7692:7705   */\n      add\n        /* \"#utility.yul\":7685:7705   */\n      swap1\n      pop\n        /* \"#utility.yul\":7478:7711   */\n      swap2\n      swap1\n      pop\n      jump\t// out\n        /* \"#utility.yul\":7717:7897   */\n    tag_192:\n        /* \"#utility.yul\":7765:7842   */\n      0x4e487b7100000000000000000000000000000000000000000000000000000000\n        /* \"#utility.yul\":7762:7763   */\n      0x00\n        /* \"#utility.yul\":7755:7843   */\n      mstore\n        /* \"#utility.yul\":7862:7866   */\n      0x11\n        /* \"#utility.yul\":7859:7860   */\n      0x04\n        /* \"#utility.yul\":7852:7867   */\n      mstore\n        /* \"#utility.yul\":7886:7890   */\n      0x24\n        /* \"#utility.yul\":7883:7884   */\n      0x00\n        /* \"#utility.yul\":7876:7891   */\n      revert\n        /* \"#utility.yul\":7903:8083   */\n    tag_183:\n        /* \"#utility.yul\":7951:8028   */\n      0x4e487b7100000000000000000000000000000000000000000000000000000000\n        /* \"#utility.yul\":7948:7949   */\n      0x00\n        /* \"#utility.yul\":7941:8029   */\n      mstore\n        /* \"#utility.yul\":8048:8052   */\n      0x22\n        /* \"#utility.yul\":8045:8046   */\n      0x04\n        /* \"#utility.yul\":8038:8053   */\n      mstore\n        /* \"#utility.yul\":8072:8076   */\n      0x24\n        /* \"#utility.yul\":8069:8070   */\n      0x00\n        /* \"#utility.yul\":8062:8077   */\n      revert\n        /* \"#utility.yul\":8089:8269   */\n    tag_52:\n        /* \"#utility.yul\":8137:8214   */\n      0x4e487b7100000000000000000000000000000000000000000000000000000000\n        /* \"#utility.yul\":8134:8135   */\n      0x00\n        /* \"#utility.yul\":8127:8215   */\n      mstore\n        /* \"#utility.yul\":8234:8238   */\n      0x32\n        /* \"#utility.yul\":8231:8232   */\n      0x04\n        /* \"#utility.yul\":8224:8239   */\n      mstore\n        /* \"#utility.yul\":8258:8262   */\n      0x24\n        /* \"#utility.yul\":8255:8256   */\n      0x00\n        /* \"#utility.yul\":8248:8263   */\n      revert\n        /* \"#utility.yul\":8275:8455   */\n    tag_161:\n        /* \"#utility.yul\":8323:8400   */\n      0x4e487b7100000000000000000000000000000000000000000000000000000000\n        /* \"#utility.yul\":8320:8321   */\n      0x00\n        /* \"#utility.yul\":8313:8401   */\n      mstore\n        /* \"#utility.yul\":8420:8424   */\n      0x41\n        /* \"#utility.yul\":8417:8418   */\n      0x04\n        /* \"#utility.yul\":8410:8425   */\n      mstore\n        /* \"#utility.yul\":8444:8448   */\n      0x24\n        /* \"#utility.yul\":8441:8442   */\n      0x00\n        /* \"#utility.yul\":8434:8449   */\n      revert\n        /* \"#utility.yul\":8461:8578   */\n    tag_96:\n        /* \"#utility.yul\":8570:8571   */\n      0x00\n        /* \"#utility.yul\":8567:8568   */\n      dup1\n        /* \"#utility.yul\":8560:8572   */\n      revert\n        /* \"#utility.yul\":8584:8701   */\n    tag_85:\n        /* \"#utility.yul\":8693:8694   */\n      0x00\n        /* \"#utility.yul\":8690:8691   */\n      dup1\n        /* \"#utility.yul\":8683:8695   */\n      revert\n        /* \"#utility.yul\":8707:8824   */\n    tag_108:\n        /* \"#utility.yul\":8816:8817   */\n      0x00\n        /* \"#utility.yul\":8813:8814   */\n      dup1\n        /* \"#utility.yul\":8806:8818   */\n      revert\n        /* \"#utility.yul\":8830:8947   */\n    tag_105:\n        /* \"#utility.yul\":8939:8940   */\n      0x00\n        /* \"#utility.yul\":8936:8937   */\n      dup1\n        /* \"#utility.yul\":8929:8941   */\n      revert\n        /* \"#utility.yul\":8953:9055   */\n    tag_133:\n        /* \"#utility.yul\":8994:9000   */\n      0x00\n        /* \"#utility.yul\":9045:9047   */\n      0x1f\n        /* \"#utility.yul\":9041:9048   */\n      not\n        /* \"#utility.yul\":9036:9038   */\n      0x1f\n        /* \"#utility.yul\":9029:9034   */\n      dup4\n        /* \"#utility.yul\":9025:9039   */\n      add\n        /* \"#utility.yul\":9021:9049   */\n      and\n        /* \"#utility.yul\":9011:9049   */\n      swap1\n      pop\n        /* \"#utility.yul\":8953:9055   */\n      swap2\n      swap1\n      pop\n      jump\t// out\n        /* \"#utility.yul\":9061:9183   */\n    tag_91:\n        /* \"#utility.yul\":9134:9158   */\n      tag_203\n        /* \"#utility.yul\":9152:9157   */\n      dup2\n        /* \"#utility.yul\":9134:9158   */\n      tag_119\n      jump\t// in\n    tag_203:\n        /* \"#utility.yul\":9127:9132   */\n      dup2\n        /* \"#utility.yul\":9124:9159   */\n      eq\n        /* \"#utility.yul\":9114:9177   */\n      tag_204\n      jumpi\n        /* \"#utility.yul\":9173:9174   */\n      0x00\n        /* \"#utility.yul\":9170:9171   */\n      dup1\n        /* \"#utility.yul\":9163:9175   */\n      revert\n        /* \"#utility.yul\":9114:9177   */\n    tag_204:\n        /* \"#utility.yul\":9061:9183   */\n      pop\n      jump\t// out\n        /* \"#utility.yul\":9189:9311   */\n    tag_101:\n        /* \"#utility.yul\":9262:9286   */\n      tag_206\n        /* \"#utility.yul\":9280:9285   */\n      dup2\n        /* \"#utility.yul\":9262:9286   */\n      tag_171\n      jump\t// in\n    tag_206:\n        /* \"#utility.yul\":9255:9260   */\n      dup2\n        /* \"#utility.yul\":9252:9287   */\n      eq\n        /* \"#utility.yul\":9242:9305   */\n      tag_207\n      jumpi\n        /* \"#utility.yul\":9301:9302   */\n      0x00\n        /* \"#utility.yul\":9298:9299   */\n      dup1\n        /* \"#utility.yul\":9291:9303   */\n      revert\n        /* \"#utility.yul\":9242:9305   */\n    tag_207:\n        /* \"#utility.yul\":9189:9311   */\n      pop\n      jump\t// out\n\n    auxdata: 0xa26469706673582212202cd2c240afea5553bbafda4772296c56c3da8e3660875e7577d510bc5326431b64736f6c63430008070033\n}\n",
				"bytecode": {
					"linkReferences": {},
					"object": "608060405260405180608001604052806040518060400160405280600381526020017f415043000000000000000000000000000000000000000000000000000000000081525081526020016040518060400160405280600381526020017f504450000000000000000000000000000000000000000000000000000000000081525081526020016040518060400160405280600281526020017f4c5000000000000000000000000000000000000000000000000000000000000081525081526020016040518060400160405280600481526020017f4e4e50500000000000000000000000000000000000000000000000000000000081525081525060029060046200010b92919062000120565b503480156200011957600080fd5b506200030a565b82805482825590600052602060002090810192821562000174579160200282015b82811115620001735782518290805190602001906200016292919062000187565b509160200191906001019062000141565b5b50905062000183919062000218565b5090565b8280546200019590620002a5565b90600052602060002090601f016020900481019282620001b9576000855562000205565b82601f10620001d457805160ff191683800117855562000205565b8280016001018555821562000205579182015b8281111562000204578251825591602001919060010190620001e7565b5b50905062000214919062000240565b5090565b5b808211156200023c57600081816200023291906200025f565b5060010162000219565b5090565b5b808211156200025b57600081600090555060010162000241565b5090565b5080546200026d90620002a5565b6000825580601f10620002815750620002a2565b601f016020900490600052602060002090810190620002a1919062000240565b5b50565b60006002820490506001821680620002be57607f821691505b60208210811415620002d557620002d4620002db565b5b50919050565b7f4e487b7100000000000000000000000000000000000000000000000000000000600052602260045260246000fd5b610b30806200031a6000396000f3fe608060405234801561001057600080fd5b506004361061004c5760003560e01c8063314fd68f146100515780639e5f034914610081578063d5391393146100b1578063d59d2a58146100cf575b600080fd5b61006b600480360381019061006691906106c1565b6100eb565b60405161007891906107f0565b60405180910390f35b61009b600480360381019061009691906106c1565b610197565b6040516100a89190610812565b60405180910390f35b6100b961033e565b6040516100c691906107d5565b60405180910390f35b6100e960048036038101906100e49190610652565b610362565b005b600281815481106100fb57600080fd5b9060005260206000200160009150905080546101169061093f565b80601f01602080910402602001604051908101604052809291908181526020018280546101429061093f565b801561018f5780601f106101645761010080835404028352916020019161018f565b820191906000526020600020905b81548152906001019060200180831161017257829003601f168201915b505050505081565b61019f610451565b600360008381526020019081526020016000206040518060600160405290816000820180546101cd9061093f565b80601f01602080910402602001604051908101604052809291908181526020018280546101f99061093f565b80156102465780601f1061021b57610100808354040283529160200191610246565b820191906000526020600020905b81548152906001019060200180831161022957829003601f168201915b505050505081526020016001820160009054906101000a900473ffffffffffffffffffffffffffffffffffffffff1673ffffffffffffffffffffffffffffffffffffffff1673ffffffffffffffffffffffffffffffffffffffff1681526020016002820180546102b59061093f565b80601f01602080910402602001604051908101604052809291908181526020018280546102e19061093f565b801561032e5780601f106103035761010080835404028352916020019161032e565b820191906000526020600020905b81548152906001019060200180831161031157829003601f168201915b5050505050815250509050919050565b7fc652916f30bca166747962963ad2e0165f0161079f5185694717f9625eed6e2a81565b82600360006001548152602001908152602001600020600001908051906020019061038e929190610488565b508160036000600154815260200190815260200160002060010160006101000a81548173ffffffffffffffffffffffffffffffffffffffff021916908373ffffffffffffffffffffffffffffffffffffffff160217905550600281815481106103fa576103f9610a49565b5b906000526020600020016003600060015481526020019081526020016000206002019080546104289061093f565b61043392919061050e565b5060016000815480929190610447906109a2565b9190505550505050565b604051806060016040528060608152602001600073ffffffffffffffffffffffffffffffffffffffff168152602001606081525090565b8280546104949061093f565b90600052602060002090601f0160209004810192826104b657600085556104fd565b82601f106104cf57805160ff19168380011785556104fd565b828001600101855582156104fd579182015b828111156104fc5782518255916020019190600101906104e1565b5b50905061050a919061059b565b5090565b82805461051a9061093f565b90600052602060002090601f01602090048101928261053c576000855561058a565b82601f1061054d578054855561058a565b8280016001018555821561058a57600052602060002091601f016020900482015b8281111561058957825482559160010191906001019061056e565b5b509050610597919061059b565b5090565b5b808211156105b457600081600090555060010161059c565b5090565b60006105cb6105c684610859565b610834565b9050828152602081018484840111156105e7576105e6610aac565b5b6105f28482856108fd565b509392505050565b60008135905061060981610acc565b92915050565b600082601f83011261062457610623610aa7565b5b81356106348482602086016105b8565b91505092915050565b60008135905061064c81610ae3565b92915050565b60008060006060848603121561066b5761066a610ab6565b5b600084013567ffffffffffffffff81111561068957610688610ab1565b5b6106958682870161060f565b93505060206106a6868287016105fa565b92505060406106b78682870161063d565b9150509250925092565b6000602082840312156106d7576106d6610ab6565b5b60006106e58482850161063d565b91505092915050565b6106f7816108b7565b82525050565b610706816108c9565b82525050565b60006107178261088a565b6107218185610895565b935061073181856020860161090c565b61073a81610abb565b840191505092915050565b60006107508261088a565b61075a81856108a6565b935061076a81856020860161090c565b61077381610abb565b840191505092915050565b6000606083016000830151848203600086015261079b828261070c565b91505060208301516107b060208601826106ee565b50604083015184820360408601526107c8828261070c565b9150508091505092915050565b60006020820190506107ea60008301846106fd565b92915050565b6000602082019050818103600083015261080a8184610745565b905092915050565b6000602082019050818103600083015261082c818461077e565b905092915050565b600061083e61084f565b905061084a8282610971565b919050565b6000604051905090565b600067ffffffffffffffff82111561087457610873610a78565b5b61087d82610abb565b9050602081019050919050565b600081519050919050565b600082825260208201905092915050565b600082825260208201905092915050565b60006108c2826108d3565b9050919050565b6000819050919050565b600073ffffffffffffffffffffffffffffffffffffffff82169050919050565b6000819050919050565b82818337600083830152505050565b60005b8381101561092a57808201518184015260208101905061090f565b83811115610939576000848401525b50505050565b6000600282049050600182168061095757607f821691505b6020821081141561096b5761096a610a1a565b5b50919050565b61097a82610abb565b810181811067ffffffffffffffff8211171561099957610998610a78565b5b80604052505050565b60006109ad826108f3565b91507fffffffffffffffffffffffffffffffffffffffffffffffffffffffffffffffff8214156109e0576109df6109eb565b5b600182019050919050565b7f4e487b7100000000000000000000000000000000000000000000000000000000600052601160045260246000fd5b7f4e487b7100000000000000000000000000000000000000000000000000000000600052602260045260246000fd5b7f4e487b7100000000000000000000000000000000000000000000000000000000600052603260045260246000fd5b7f4e487b7100000000000000000000000000000000000000000000000000000000600052604160045260246000fd5b600080fd5b600080fd5b600080fd5b600080fd5b6000601f19601f8301169050919050565b610ad5816108b7565b8114610ae057600080fd5b50565b610aec816108f3565b8114610af757600080fd5b5056fea26469706673582212202cd2c240afea5553bbafda4772296c56c3da8e3660875e7577d510bc5326431b64736f6c63430008070033",
					"opcodes": "PUSH1 0x80 PUSH1 0x40 MSTORE PUSH1 0x40 MLOAD DUP1 PUSH1 0x80 ADD PUSH1 0x40 MSTORE DUP1 PUSH1 0x40 MLOAD DUP1 PUSH1 0x40 ADD PUSH1 0x40 MSTORE DUP1 PUSH1 0x3 DUP2 MSTORE PUSH1 0x20 ADD PUSH32 0x4150430000000000000000000000000000000000000000000000000000000000 DUP2 MSTORE POP DUP2 MSTORE PUSH1 0x20 ADD PUSH1 0x40 MLOAD DUP1 PUSH1 0x40 ADD PUSH1 0x40 MSTORE DUP1 PUSH1 0x3 DUP2 MSTORE PUSH1 0x20 ADD PUSH32 0x5044500000000000000000000000000000000000000000000000000000000000 DUP2 MSTORE POP DUP2 MSTORE PUSH1 0x20 ADD PUSH1 0x40 MLOAD DUP1 PUSH1 0x40 ADD PUSH1 0x40 MSTORE DUP1 PUSH1 0x2 DUP2 MSTORE PUSH1 0x20 ADD PUSH32 0x4C50000000000000000000000000000000000000000000000000000000000000 DUP2 MSTORE POP DUP2 MSTORE PUSH1 0x20 ADD PUSH1 0x40 MLOAD DUP1 PUSH1 0x40 ADD PUSH1 0x40 MSTORE DUP1 PUSH1 0x4 DUP2 MSTORE PUSH1 0x20 ADD PUSH32 0x4E4E505000000000000000000000000000000000000000000000000000000000 DUP2 MSTORE POP DUP2 MSTORE POP PUSH1 0x2 SWAP1 PUSH1 0x4 PUSH3 0x10B SWAP3 SWAP2 SWAP1 PUSH3 0x120 JUMP JUMPDEST POP CALLVALUE DUP1 ISZERO PUSH3 0x119 JUMPI PUSH1 0x0 DUP1 REVERT JUMPDEST POP PUSH3 0x30A JUMP JUMPDEST DUP3 DUP1 SLOAD DUP3 DUP3 SSTORE SWAP1 PUSH1 0x0 MSTORE PUSH1 0x20 PUSH1 0x0 KECCAK256 SWAP1 DUP2 ADD SWAP3 DUP3 ISZERO PUSH3 0x174 JUMPI SWAP2 PUSH1 0x20 MUL DUP3 ADD JUMPDEST DUP3 DUP2 GT ISZERO PUSH3 0x173 JUMPI DUP3 MLOAD DUP3 SWAP1 DUP1 MLOAD SWAP1 PUSH1 0x20 ADD SWAP1 PUSH3 0x162 SWAP3 SWAP2 SWAP1 PUSH3 0x187 JUMP JUMPDEST POP SWAP2 PUSH1 0x20 ADD SWAP2 SWAP1 PUSH1 0x1 ADD SWAP1 PUSH3 0x141 JUMP JUMPDEST JUMPDEST POP SWAP1 POP PUSH3 0x183 SWAP2 SWAP1 PUSH3 0x218 JUMP JUMPDEST POP SWAP1 JUMP JUMPDEST DUP3 DUP1 SLOAD PUSH3 0x195 SWAP1 PUSH3 0x2A5 JUMP JUMPDEST SWAP1 PUSH1 0x0 MSTORE PUSH1 0x20 PUSH1 0x0 KECCAK256 SWAP1 PUSH1 0x1F ADD PUSH1 0x20 SWAP1 DIV DUP2 ADD SWAP3 DUP3 PUSH3 0x1B9 JUMPI PUSH1 0x0 DUP6 SSTORE PUSH3 0x205 JUMP JUMPDEST DUP3 PUSH1 0x1F LT PUSH3 0x1D4 JUMPI DUP1 MLOAD PUSH1 0xFF NOT AND DUP4 DUP1 ADD OR DUP6 SSTORE PUSH3 0x205 JUMP JUMPDEST DUP3 DUP1 ADD PUSH1 0x1 ADD DUP6 SSTORE DUP3 ISZERO PUSH3 0x205 JUMPI SWAP2 DUP3 ADD JUMPDEST DUP3 DUP2 GT ISZERO PUSH3 0x204 JUMPI DUP3 MLOAD DUP3 SSTORE SWAP2 PUSH1 0x20 ADD SWAP2 SWAP1 PUSH1 0x1 ADD SWAP1 PUSH3 0x1E7 JUMP JUMPDEST JUMPDEST POP SWAP1 POP PUSH3 0x214 SWAP2 SWAP1 PUSH3 0x240 JUMP JUMPDEST POP SWAP1 JUMP JUMPDEST JUMPDEST DUP1 DUP3 GT ISZERO PUSH3 0x23C JUMPI PUSH1 0x0 DUP2 DUP2 PUSH3 0x232 SWAP2 SWAP1 PUSH3 0x25F JUMP JUMPDEST POP PUSH1 0x1 ADD PUSH3 0x219 JUMP JUMPDEST POP SWAP1 JUMP JUMPDEST JUMPDEST DUP1 DUP3 GT ISZERO PUSH3 0x25B JUMPI PUSH1 0x0 DUP2 PUSH1 0x0 SWAP1 SSTORE POP PUSH1 0x1 ADD PUSH3 0x241 JUMP JUMPDEST POP SWAP1 JUMP JUMPDEST POP DUP1 SLOAD PUSH3 0x26D SWAP1 PUSH3 0x2A5 JUMP JUMPDEST PUSH1 0x0 DUP3 SSTORE DUP1 PUSH1 0x1F LT PUSH3 0x281 JUMPI POP PUSH3 0x2A2 JUMP JUMPDEST PUSH1 0x1F ADD PUSH1 0x20 SWAP1 DIV SWAP1 PUSH1 0x0 MSTORE PUSH1 0x20 PUSH1 0x0 KECCAK256 SWAP1 DUP2 ADD SWAP1 PUSH3 0x2A1 SWAP2 SWAP1 PUSH3 0x240 JUMP JUMPDEST JUMPDEST POP JUMP JUMPDEST PUSH1 0x0 PUSH1 0x2 DUP3 DIV SWAP1 POP PUSH1 0x1 DUP3 AND DUP1 PUSH3 0x2BE JUMPI PUSH1 0x7F DUP3 AND SWAP2 POP JUMPDEST PUSH1 0x20 DUP3 LT DUP2 EQ ISZERO PUSH3 0x2D5 JUMPI PUSH3 0x2D4 PUSH3 0x2DB JUMP JUMPDEST JUMPDEST POP SWAP2 SWAP1 POP JUMP JUMPDEST PUSH32 0x4E487B7100000000000000000000000000000000000000000000000000000000 PUSH1 0x0 MSTORE PUSH1 0x22 PUSH1 0x4 MSTORE PUSH1 0x24 PUSH1 0x0 REVERT JUMPDEST PUSH2 0xB30 DUP1 PUSH3 0x31A PUSH1 0x0 CODECOPY PUSH1 0x0 RETURN INVALID PUSH1 0x80 PUSH1 0x40 MSTORE CALLVALUE DUP1 ISZERO PUSH2 0x10 JUMPI PUSH1 0x0 DUP1 REVERT JUMPDEST POP PUSH1 0x4 CALLDATASIZE LT PUSH2 0x4C JUMPI PUSH1 0x0 CALLDATALOAD PUSH1 0xE0 SHR DUP1 PUSH4 0x314FD68F EQ PUSH2 0x51 JUMPI DUP1 PUSH4 0x9E5F0349 EQ PUSH2 0x81 JUMPI DUP1 PUSH4 0xD5391393 EQ PUSH2 0xB1 JUMPI DUP1 PUSH4 0xD59D2A58 EQ PUSH2 0xCF JUMPI JUMPDEST PUSH1 0x0 DUP1 REVERT JUMPDEST PUSH2 0x6B PUSH1 0x4 DUP1 CALLDATASIZE SUB DUP2 ADD SWAP1 PUSH2 0x66 SWAP2 SWAP1 PUSH2 0x6C1 JUMP JUMPDEST PUSH2 0xEB JUMP JUMPDEST PUSH1 0x40 MLOAD PUSH2 0x78 SWAP2 SWAP1 PUSH2 0x7F0 JUMP JUMPDEST PUSH1 0x40 MLOAD DUP1 SWAP2 SUB SWAP1 RETURN JUMPDEST PUSH2 0x9B PUSH1 0x4 DUP1 CALLDATASIZE SUB DUP2 ADD SWAP1 PUSH2 0x96 SWAP2 SWAP1 PUSH2 0x6C1 JUMP JUMPDEST PUSH2 0x197 JUMP JUMPDEST PUSH1 0x40 MLOAD PUSH2 0xA8 SWAP2 SWAP1 PUSH2 0x812 JUMP JUMPDEST PUSH1 0x40 MLOAD DUP1 SWAP2 SUB SWAP1 RETURN JUMPDEST PUSH2 0xB9 PUSH2 0x33E JUMP JUMPDEST PUSH1 0x40 MLOAD PUSH2 0xC6 SWAP2 SWAP1 PUSH2 0x7D5 JUMP JUMPDEST PUSH1 0x40 MLOAD DUP1 SWAP2 SUB SWAP1 RETURN JUMPDEST PUSH2 0xE9 PUSH1 0x4 DUP1 CALLDATASIZE SUB DUP2 ADD SWAP1 PUSH2 0xE4 SWAP2 SWAP1 PUSH2 0x652 JUMP JUMPDEST PUSH2 0x362 JUMP JUMPDEST STOP JUMPDEST PUSH1 0x2 DUP2 DUP2 SLOAD DUP2 LT PUSH2 0xFB JUMPI PUSH1 0x0 DUP1 REVERT JUMPDEST SWAP1 PUSH1 0x0 MSTORE PUSH1 0x20 PUSH1 0x0 KECCAK256 ADD PUSH1 0x0 SWAP2 POP SWAP1 POP DUP1 SLOAD PUSH2 0x116 SWAP1 PUSH2 0x93F JUMP JUMPDEST DUP1 PUSH1 0x1F ADD PUSH1 0x20 DUP1 SWAP2 DIV MUL PUSH1 0x20 ADD PUSH1 0x40 MLOAD SWAP1 DUP2 ADD PUSH1 0x40 MSTORE DUP1 SWAP3 SWAP2 SWAP1 DUP2 DUP2 MSTORE PUSH1 0x20 ADD DUP3 DUP1 SLOAD PUSH2 0x142 SWAP1 PUSH2 0x93F JUMP JUMPDEST DUP1 ISZERO PUSH2 0x18F JUMPI DUP1 PUSH1 0x1F LT PUSH2 0x164 JUMPI PUSH2 0x100 DUP1 DUP4 SLOAD DIV MUL DUP4 MSTORE SWAP2 PUSH1 0x20 ADD SWAP2 PUSH2 0x18F JUMP JUMPDEST DUP3 ADD SWAP2 SWAP1 PUSH1 0x0 MSTORE PUSH1 0x20 PUSH1 0x0 KECCAK256 SWAP1 JUMPDEST DUP2 SLOAD DUP2 MSTORE SWAP1 PUSH1 0x1 ADD SWAP1 PUSH1 0x20 ADD DUP1 DUP4 GT PUSH2 0x172 JUMPI DUP3 SWAP1 SUB PUSH1 0x1F AND DUP3 ADD SWAP2 JUMPDEST POP POP POP POP POP DUP2 JUMP JUMPDEST PUSH2 0x19F PUSH2 0x451 JUMP JUMPDEST PUSH1 0x3 PUSH1 0x0 DUP4 DUP2 MSTORE PUSH1 0x20 ADD SWAP1 DUP2 MSTORE PUSH1 0x20 ADD PUSH1 0x0 KECCAK256 PUSH1 0x40 MLOAD DUP1 PUSH1 0x60 ADD PUSH1 0x40 MSTORE SWAP1 DUP2 PUSH1 0x0 DUP3 ADD DUP1 SLOAD PUSH2 0x1CD SWAP1 PUSH2 0x93F JUMP JUMPDEST DUP1 PUSH1 0x1F ADD PUSH1 0x20 DUP1 SWAP2 DIV MUL PUSH1 0x20 ADD PUSH1 0x40 MLOAD SWAP1 DUP2 ADD PUSH1 0x40 MSTORE DUP1 SWAP3 SWAP2 SWAP1 DUP2 DUP2 MSTORE PUSH1 0x20 ADD DUP3 DUP1 SLOAD PUSH2 0x1F9 SWAP1 PUSH2 0x93F JUMP JUMPDEST DUP1 ISZERO PUSH2 0x246 JUMPI DUP1 PUSH1 0x1F LT PUSH2 0x21B JUMPI PUSH2 0x100 DUP1 DUP4 SLOAD DIV MUL DUP4 MSTORE SWAP2 PUSH1 0x20 ADD SWAP2 PUSH2 0x246 JUMP JUMPDEST DUP3 ADD SWAP2 SWAP1 PUSH1 0x0 MSTORE PUSH1 0x20 PUSH1 0x0 KECCAK256 SWAP1 JUMPDEST DUP2 SLOAD DUP2 MSTORE SWAP1 PUSH1 0x1 ADD SWAP1 PUSH1 0x20 ADD DUP1 DUP4 GT PUSH2 0x229 JUMPI DUP3 SWAP1 SUB PUSH1 0x1F AND DUP3 ADD SWAP2 JUMPDEST POP POP POP POP POP DUP2 MSTORE PUSH1 0x20 ADD PUSH1 0x1 DUP3 ADD PUSH1 0x0 SWAP1 SLOAD SWAP1 PUSH2 0x100 EXP SWAP1 DIV PUSH20 0xFFFFFFFFFFFFFFFFFFFFFFFFFFFFFFFFFFFFFFFF AND PUSH20 0xFFFFFFFFFFFFFFFFFFFFFFFFFFFFFFFFFFFFFFFF AND PUSH20 0xFFFFFFFFFFFFFFFFFFFFFFFFFFFFFFFFFFFFFFFF AND DUP2 MSTORE PUSH1 0x20 ADD PUSH1 0x2 DUP3 ADD DUP1 SLOAD PUSH2 0x2B5 SWAP1 PUSH2 0x93F JUMP JUMPDEST DUP1 PUSH1 0x1F ADD PUSH1 0x20 DUP1 SWAP2 DIV MUL PUSH1 0x20 ADD PUSH1 0x40 MLOAD SWAP1 DUP2 ADD PUSH1 0x40 MSTORE DUP1 SWAP3 SWAP2 SWAP1 DUP2 DUP2 MSTORE PUSH1 0x20 ADD DUP3 DUP1 SLOAD PUSH2 0x2E1 SWAP1 PUSH2 0x93F JUMP JUMPDEST DUP1 ISZERO PUSH2 0x32E JUMPI DUP1 PUSH1 0x1F LT PUSH2 0x303 JUMPI PUSH2 0x100 DUP1 DUP4 SLOAD DIV MUL DUP4 MSTORE SWAP2 PUSH1 0x20 ADD SWAP2 PUSH2 0x32E JUMP JUMPDEST DUP3 ADD SWAP2 SWAP1 PUSH1 0x0 MSTORE PUSH1 0x20 PUSH1 0x0 KECCAK256 SWAP1 JUMPDEST DUP2 SLOAD DUP2 MSTORE SWAP1 PUSH1 0x1 ADD SWAP1 PUSH1 0x20 ADD DUP1 DUP4 GT PUSH2 0x311 JUMPI DUP3 SWAP1 SUB PUSH1 0x1F AND DUP3 ADD SWAP2 JUMPDEST POP POP POP POP POP DUP2 MSTORE POP POP SWAP1 POP SWAP2 SWAP1 POP JUMP JUMPDEST PUSH32 0xC652916F30BCA166747962963AD2E0165F0161079F5185694717F9625EED6E2A DUP2 JUMP JUMPDEST DUP3 PUSH1 0x3 PUSH1 0x0 PUSH1 0x1 SLOAD DUP2 MSTORE PUSH1 0x20 ADD SWAP1 DUP2 MSTORE PUSH1 0x20 ADD PUSH1 0x0 KECCAK256 PUSH1 0x0 ADD SWAP1 DUP1 MLOAD SWAP1 PUSH1 0x20 ADD SWAP1 PUSH2 0x38E SWAP3 SWAP2 SWAP1 PUSH2 0x488 JUMP JUMPDEST POP DUP2 PUSH1 0x3 PUSH1 0x0 PUSH1 0x1 SLOAD DUP2 MSTORE PUSH1 0x20 ADD SWAP1 DUP2 MSTORE PUSH1 0x20 ADD PUSH1 0x0 KECCAK256 PUSH1 0x1 ADD PUSH1 0x0 PUSH2 0x100 EXP DUP2 SLOAD DUP2 PUSH20 0xFFFFFFFFFFFFFFFFFFFFFFFFFFFFFFFFFFFFFFFF MUL NOT AND SWAP1 DUP4 PUSH20 0xFFFFFFFFFFFFFFFFFFFFFFFFFFFFFFFFFFFFFFFF AND MUL OR SWAP1 SSTORE POP PUSH1 0x2 DUP2 DUP2 SLOAD DUP2 LT PUSH2 0x3FA JUMPI PUSH2 0x3F9 PUSH2 0xA49 JUMP JUMPDEST JUMPDEST SWAP1 PUSH1 0x0 MSTORE PUSH1 0x20 PUSH1 0x0 KECCAK256 ADD PUSH1 0x3 PUSH1 0x0 PUSH1 0x1 SLOAD DUP2 MSTORE PUSH1 0x20 ADD SWAP1 DUP2 MSTORE PUSH1 0x20 ADD PUSH1 0x0 KECCAK256 PUSH1 0x2 ADD SWAP1 DUP1 SLOAD PUSH2 0x428 SWAP1 PUSH2 0x93F JUMP JUMPDEST PUSH2 0x433 SWAP3 SWAP2 SWAP1 PUSH2 0x50E JUMP JUMPDEST POP PUSH1 0x1 PUSH1 0x0 DUP2 SLOAD DUP1 SWAP3 SWAP2 SWAP1 PUSH2 0x447 SWAP1 PUSH2 0x9A2 JUMP JUMPDEST SWAP2 SWAP1 POP SSTORE POP POP POP POP JUMP JUMPDEST PUSH1 0x40 MLOAD DUP1 PUSH1 0x60 ADD PUSH1 0x40 MSTORE DUP1 PUSH1 0x60 DUP2 MSTORE PUSH1 0x20 ADD PUSH1 0x0 PUSH20 0xFFFFFFFFFFFFFFFFFFFFFFFFFFFFFFFFFFFFFFFF AND DUP2 MSTORE PUSH1 0x20 ADD PUSH1 0x60 DUP2 MSTORE POP SWAP1 JUMP JUMPDEST DUP3 DUP1 SLOAD PUSH2 0x494 SWAP1 PUSH2 0x93F JUMP JUMPDEST SWAP1 PUSH1 0x0 MSTORE PUSH1 0x20 PUSH1 0x0 KECCAK256 SWAP1 PUSH1 0x1F ADD PUSH1 0x20 SWAP1 DIV DUP2 ADD SWAP3 DUP3 PUSH2 0x4B6 JUMPI PUSH1 0x0 DUP6 SSTORE PUSH2 0x4FD JUMP JUMPDEST DUP3 PUSH1 0x1F LT PUSH2 0x4CF JUMPI DUP1 MLOAD PUSH1 0xFF NOT AND DUP4 DUP1 ADD OR DUP6 SSTORE PUSH2 0x4FD JUMP JUMPDEST DUP3 DUP1 ADD PUSH1 0x1 ADD DUP6 SSTORE DUP3 ISZERO PUSH2 0x4FD JUMPI SWAP2 DUP3 ADD JUMPDEST DUP3 DUP2 GT ISZERO PUSH2 0x4FC JUMPI DUP3 MLOAD DUP3 SSTORE SWAP2 PUSH1 0x20 ADD SWAP2 SWAP1 PUSH1 0x1 ADD SWAP1 PUSH2 0x4E1 JUMP JUMPDEST JUMPDEST POP SWAP1 POP PUSH2 0x50A SWAP2 SWAP1 PUSH2 0x59B JUMP JUMPDEST POP SWAP1 JUMP JUMPDEST DUP3 DUP1 SLOAD PUSH2 0x51A SWAP1 PUSH2 0x93F JUMP JUMPDEST SWAP1 PUSH1 0x0 MSTORE PUSH1 0x20 PUSH1 0x0 KECCAK256 SWAP1 PUSH1 0x1F ADD PUSH1 0x20 SWAP1 DIV DUP2 ADD SWAP3 DUP3 PUSH2 0x53C JUMPI PUSH1 0x0 DUP6 SSTORE PUSH2 0x58A JUMP JUMPDEST DUP3 PUSH1 0x1F LT PUSH2 0x54D JUMPI DUP1 SLOAD DUP6 SSTORE PUSH2 0x58A JUMP JUMPDEST DUP3 DUP1 ADD PUSH1 0x1 ADD DUP6 SSTORE DUP3 ISZERO PUSH2 0x58A JUMPI PUSH1 0x0 MSTORE PUSH1 0x20 PUSH1 0x0 KECCAK256 SWAP2 PUSH1 0x1F ADD PUSH1 0x20 SWAP1 DIV DUP3 ADD JUMPDEST DUP3 DUP2 GT ISZERO PUSH2 0x589 JUMPI DUP3 SLOAD DUP3 SSTORE SWAP2 PUSH1 0x1 ADD SWAP2 SWAP1 PUSH1 0x1 ADD SWAP1 PUSH2 0x56E JUMP JUMPDEST JUMPDEST POP SWAP1 POP PUSH2 0x597 SWAP2 SWAP1 PUSH2 0x59B JUMP JUMPDEST POP SWAP1 JUMP JUMPDEST JUMPDEST DUP1 DUP3 GT ISZERO PUSH2 0x5B4 JUMPI PUSH1 0x0 DUP2 PUSH1 0x0 SWAP1 SSTORE POP PUSH1 0x1 ADD PUSH2 0x59C JUMP JUMPDEST POP SWAP1 JUMP JUMPDEST PUSH1 0x0 PUSH2 0x5CB PUSH2 0x5C6 DUP5 PUSH2 0x859 JUMP JUMPDEST PUSH2 0x834 JUMP JUMPDEST SWAP1 POP DUP3 DUP2 MSTORE PUSH1 0x20 DUP2 ADD DUP5 DUP5 DUP5 ADD GT ISZERO PUSH2 0x5E7 JUMPI PUSH2 0x5E6 PUSH2 0xAAC JUMP JUMPDEST JUMPDEST PUSH2 0x5F2 DUP5 DUP3 DUP6 PUSH2 0x8FD JUMP JUMPDEST POP SWAP4 SWAP3 POP POP POP JUMP JUMPDEST PUSH1 0x0 DUP2 CALLDATALOAD SWAP1 POP PUSH2 0x609 DUP2 PUSH2 0xACC JUMP JUMPDEST SWAP3 SWAP2 POP POP JUMP JUMPDEST PUSH1 0x0 DUP3 PUSH1 0x1F DUP4 ADD SLT PUSH2 0x624 JUMPI PUSH2 0x623 PUSH2 0xAA7 JUMP JUMPDEST JUMPDEST DUP2 CALLDATALOAD PUSH2 0x634 DUP5 DUP3 PUSH1 0x20 DUP7 ADD PUSH2 0x5B8 JUMP JUMPDEST SWAP2 POP POP SWAP3 SWAP2 POP POP JUMP JUMPDEST PUSH1 0x0 DUP2 CALLDATALOAD SWAP1 POP PUSH2 0x64C DUP2 PUSH2 0xAE3 JUMP JUMPDEST SWAP3 SWAP2 POP POP JUMP JUMPDEST PUSH1 0x0 DUP1 PUSH1 0x0 PUSH1 0x60 DUP5 DUP7 SUB SLT ISZERO PUSH2 0x66B JUMPI PUSH2 0x66A PUSH2 0xAB6 JUMP JUMPDEST JUMPDEST PUSH1 0x0 DUP5 ADD CALLDATALOAD PUSH8 0xFFFFFFFFFFFFFFFF DUP2 GT ISZERO PUSH2 0x689 JUMPI PUSH2 0x688 PUSH2 0xAB1 JUMP JUMPDEST JUMPDEST PUSH2 0x695 DUP7 DUP3 DUP8 ADD PUSH2 0x60F JUMP JUMPDEST SWAP4 POP POP PUSH1 0x20 PUSH2 0x6A6 DUP7 DUP3 DUP8 ADD PUSH2 0x5FA JUMP JUMPDEST SWAP3 POP POP PUSH1 0x40 PUSH2 0x6B7 DUP7 DUP3 DUP8 ADD PUSH2 0x63D JUMP JUMPDEST SWAP2 POP POP SWAP3 POP SWAP3 POP SWAP3 JUMP JUMPDEST PUSH1 0x0 PUSH1 0x20 DUP3 DUP5 SUB SLT ISZERO PUSH2 0x6D7 JUMPI PUSH2 0x6D6 PUSH2 0xAB6 JUMP JUMPDEST JUMPDEST PUSH1 0x0 PUSH2 0x6E5 DUP5 DUP3 DUP6 ADD PUSH2 0x63D JUMP JUMPDEST SWAP2 POP POP SWAP3 SWAP2 POP POP JUMP JUMPDEST PUSH2 0x6F7 DUP2 PUSH2 0x8B7 JUMP JUMPDEST DUP3 MSTORE POP POP JUMP JUMPDEST PUSH2 0x706 DUP2 PUSH2 0x8C9 JUMP JUMPDEST DUP3 MSTORE POP POP JUMP JUMPDEST PUSH1 0x0 PUSH2 0x717 DUP3 PUSH2 0x88A JUMP JUMPDEST PUSH2 0x721 DUP2 DUP6 PUSH2 0x895 JUMP JUMPDEST SWAP4 POP PUSH2 0x731 DUP2 DUP6 PUSH1 0x20 DUP7 ADD PUSH2 0x90C JUMP JUMPDEST PUSH2 0x73A DUP2 PUSH2 0xABB JUMP JUMPDEST DUP5 ADD SWAP2 POP POP SWAP3 SWAP2 POP POP JUMP JUMPDEST PUSH1 0x0 PUSH2 0x750 DUP3 PUSH2 0x88A JUMP JUMPDEST PUSH2 0x75A DUP2 DUP6 PUSH2 0x8A6 JUMP JUMPDEST SWAP4 POP PUSH2 0x76A DUP2 DUP6 PUSH1 0x20 DUP7 ADD PUSH2 0x90C JUMP JUMPDEST PUSH2 0x773 DUP2 PUSH2 0xABB JUMP JUMPDEST DUP5 ADD SWAP2 POP POP SWAP3 SWAP2 POP POP JUMP JUMPDEST PUSH1 0x0 PUSH1 0x60 DUP4 ADD PUSH1 0x0 DUP4 ADD MLOAD DUP5 DUP3 SUB PUSH1 0x0 DUP7 ADD MSTORE PUSH2 0x79B DUP3 DUP3 PUSH2 0x70C JUMP JUMPDEST SWAP2 POP POP PUSH1 0x20 DUP4 ADD MLOAD PUSH2 0x7B0 PUSH1 0x20 DUP7 ADD DUP3 PUSH2 0x6EE JUMP JUMPDEST POP PUSH1 0x40 DUP4 ADD MLOAD DUP5 DUP3 SUB PUSH1 0x40 DUP7 ADD MSTORE PUSH2 0x7C8 DUP3 DUP3 PUSH2 0x70C JUMP JUMPDEST SWAP2 POP POP DUP1 SWAP2 POP POP SWAP3 SWAP2 POP POP JUMP JUMPDEST PUSH1 0x0 PUSH1 0x20 DUP3 ADD SWAP1 POP PUSH2 0x7EA PUSH1 0x0 DUP4 ADD DUP5 PUSH2 0x6FD JUMP JUMPDEST SWAP3 SWAP2 POP POP JUMP JUMPDEST PUSH1 0x0 PUSH1 0x20 DUP3 ADD SWAP1 POP DUP2 DUP2 SUB PUSH1 0x0 DUP4 ADD MSTORE PUSH2 0x80A DUP2 DUP5 PUSH2 0x745 JUMP JUMPDEST SWAP1 POP SWAP3 SWAP2 POP POP JUMP JUMPDEST PUSH1 0x0 PUSH1 0x20 DUP3 ADD SWAP1 POP DUP2 DUP2 SUB PUSH1 0x0 DUP4 ADD MSTORE PUSH2 0x82C DUP2 DUP5 PUSH2 0x77E JUMP JUMPDEST SWAP1 POP SWAP3 SWAP2 POP POP JUMP JUMPDEST PUSH1 0x0 PUSH2 0x83E PUSH2 0x84F JUMP JUMPDEST SWAP1 POP PUSH2 0x84A DUP3 DUP3 PUSH2 0x971 JUMP JUMPDEST SWAP2 SWAP1 POP JUMP JUMPDEST PUSH1 0x0 PUSH1 0x40 MLOAD SWAP1 POP SWAP1 JUMP JUMPDEST PUSH1 0x0 PUSH8 0xFFFFFFFFFFFFFFFF DUP3 GT ISZERO PUSH2 0x874 JUMPI PUSH2 0x873 PUSH2 0xA78 JUMP JUMPDEST JUMPDEST PUSH2 0x87D DUP3 PUSH2 0xABB JUMP JUMPDEST SWAP1 POP PUSH1 0x20 DUP2 ADD SWAP1 POP SWAP2 SWAP1 POP JUMP JUMPDEST PUSH1 0x0 DUP2 MLOAD SWAP1 POP SWAP2 SWAP1 POP JUMP JUMPDEST PUSH1 0x0 DUP3 DUP3 MSTORE PUSH1 0x20 DUP3 ADD SWAP1 POP SWAP3 SWAP2 POP POP JUMP JUMPDEST PUSH1 0x0 DUP3 DUP3 MSTORE PUSH1 0x20 DUP3 ADD SWAP1 POP SWAP3 SWAP2 POP POP JUMP JUMPDEST PUSH1 0x0 PUSH2 0x8C2 DUP3 PUSH2 0x8D3 JUMP JUMPDEST SWAP1 POP SWAP2 SWAP1 POP JUMP JUMPDEST PUSH1 0x0 DUP2 SWAP1 POP SWAP2 SWAP1 POP JUMP JUMPDEST PUSH1 0x0 PUSH20 0xFFFFFFFFFFFFFFFFFFFFFFFFFFFFFFFFFFFFFFFF DUP3 AND SWAP1 POP SWAP2 SWAP1 POP JUMP JUMPDEST PUSH1 0x0 DUP2 SWAP1 POP SWAP2 SWAP1 POP JUMP JUMPDEST DUP3 DUP2 DUP4 CALLDATACOPY PUSH1 0x0 DUP4 DUP4 ADD MSTORE POP POP POP JUMP JUMPDEST PUSH1 0x0 JUMPDEST DUP4 DUP2 LT ISZERO PUSH2 0x92A JUMPI DUP1 DUP3 ADD MLOAD DUP2 DUP5 ADD MSTORE PUSH1 0x20 DUP2 ADD SWAP1 POP PUSH2 0x90F JUMP JUMPDEST DUP4 DUP2 GT ISZERO PUSH2 0x939 JUMPI PUSH1 0x0 DUP5 DUP5 ADD MSTORE JUMPDEST POP POP POP POP JUMP JUMPDEST PUSH1 0x0 PUSH1 0x2 DUP3 DIV SWAP1 POP PUSH1 0x1 DUP3 AND DUP1 PUSH2 0x957 JUMPI PUSH1 0x7F DUP3 AND SWAP2 POP JUMPDEST PUSH1 0x20 DUP3 LT DUP2 EQ ISZERO PUSH2 0x96B JUMPI PUSH2 0x96A PUSH2 0xA1A JUMP JUMPDEST JUMPDEST POP SWAP2 SWAP1 POP JUMP JUMPDEST PUSH2 0x97A DUP3 PUSH2 0xABB JUMP JUMPDEST DUP2 ADD DUP2 DUP2 LT PUSH8 0xFFFFFFFFFFFFFFFF DUP3 GT OR ISZERO PUSH2 0x999 JUMPI PUSH2 0x998 PUSH2 0xA78 JUMP JUMPDEST JUMPDEST DUP1 PUSH1 0x40 MSTORE POP POP POP JUMP JUMPDEST PUSH1 0x0 PUSH2 0x9AD DUP3 PUSH2 0x8F3 JUMP JUMPDEST SWAP2 POP PUSH32 0xFFFFFFFFFFFFFFFFFFFFFFFFFFFFFFFFFFFFFFFFFFFFFFFFFFFFFFFFFFFFFFFF DUP3 EQ ISZERO PUSH2 0x9E0 JUMPI PUSH2 0x9DF PUSH2 0x9EB JUMP JUMPDEST JUMPDEST PUSH1 0x1 DUP3 ADD SWAP1 POP SWAP2 SWAP1 POP JUMP JUMPDEST PUSH32 0x4E487B7100000000000000000000000000000000000000000000000000000000 PUSH1 0x0 MSTORE PUSH1 0x11 PUSH1 0x4 MSTORE PUSH1 0x24 PUSH1 0x0 REVERT JUMPDEST PUSH32 0x4E487B7100000000000000000000000000000000000000000000000000000000 PUSH1 0x0 MSTORE PUSH1 0x22 PUSH1 0x4 MSTORE PUSH1 0x24 PUSH1 0x0 REVERT JUMPDEST PUSH32 0x4E487B7100000000000000000000000000000000000000000000000000000000 PUSH1 0x0 MSTORE PUSH1 0x32 PUSH1 0x4 MSTORE PUSH1 0x24 PUSH1 0x0 REVERT JUMPDEST PUSH32 0x4E487B7100000000000000000000000000000000000000000000000000000000 PUSH1 0x0 MSTORE PUSH1 0x41 PUSH1 0x4 MSTORE PUSH1 0x24 PUSH1 0x0 REVERT JUMPDEST PUSH1 0x0 DUP1 REVERT JUMPDEST PUSH1 0x0 DUP1 REVERT JUMPDEST PUSH1 0x0 DUP1 REVERT JUMPDEST PUSH1 0x0 DUP1 REVERT JUMPDEST PUSH1 0x0 PUSH1 0x1F NOT PUSH1 0x1F DUP4 ADD AND SWAP1 POP SWAP2 SWAP1 POP JUMP JUMPDEST PUSH2 0xAD5 DUP2 PUSH2 0x8B7 JUMP JUMPDEST DUP2 EQ PUSH2 0xAE0 JUMPI PUSH1 0x0 DUP1 REVERT JUMPDEST POP JUMP JUMPDEST PUSH2 0xAEC DUP2 PUSH2 0x8F3 JUMP JUMPDEST DUP2 EQ PUSH2 0xAF7 JUMPI PUSH1 0x0 DUP1 REVERT JUMPDEST POP JUMP INVALID LOG2 PUSH5 0x6970667358 0x22 SLT KECCAK256 0x2C 0xD2 0xC2 BLOCKHASH 0xAF 0xEA SSTORE MSTORE8 0xBB 0xAF 0xDA SELFBALANCE PUSH19 0x296C56C3DA8E3660875E7577D510BC5326431B PUSH5 0x736F6C6343 STOP ADDMOD SMOD STOP CALLER "
				},
				"gasEstimates": {
					"creation": {
						"codeDepositCost": "572800",
						"executionCost": "infinite",
						"totalCost": "infinite"
					},
					"external": {
						"MINTER_ROLE()": "351",
						"createCandidate(string,address,uint256)": "infinite",
						"party(uint256)": "infinite",
						"retrieveCandidate(uint256)": "infinite"
					}
				},
				"methodIdentifiers": {
					"MINTER_ROLE()": "d5391393",
					"createCandidate(string,address,uint256)": "d59d2a58",
					"party(uint256)": "314fd68f",
					"retrieveCandidate(uint256)": "9e5f0349"
				}
			},
			"storageLayout": {
				"storage": [
					{
						"astId": 682,
						"contract": "contracts/Vote.sol:Vote",
						"label": "voteFee",
						"offset": 0,
						"slot": "0",
						"type": "t_uint256"
					},
					{
						"astId": 684,
						"contract": "contracts/Vote.sol:Vote",
						"label": "candidateNum",
						"offset": 0,
						"slot": "1",
						"type": "t_uint256"
					},
					{
						"astId": 692,
						"contract": "contracts/Vote.sol:Vote",
						"label": "party",
						"offset": 0,
						"slot": "2",
						"type": "t_array(t_string_storage)dyn_storage"
					},
					{
						"astId": 709,
						"contract": "contracts/Vote.sol:Vote",
						"label": "Candidates",
						"offset": 0,
						"slot": "3",
						"type": "t_mapping(t_uint256,t_struct(candidate)704_storage)"
					}
				],
				"types": {
					"t_address": {
						"encoding": "inplace",
						"label": "address",
						"numberOfBytes": "20"
					},
					"t_array(t_string_storage)dyn_storage": {
						"base": "t_string_storage",
						"encoding": "dynamic_array",
						"label": "string[]",
						"numberOfBytes": "32"
					},
					"t_mapping(t_uint256,t_struct(candidate)704_storage)": {
						"encoding": "mapping",
						"key": "t_uint256",
						"label": "mapping(uint256 => struct Vote.candidate)",
						"numberOfBytes": "32",
						"value": "t_struct(candidate)704_storage"
					},
					"t_string_storage": {
						"encoding": "bytes",
						"label": "string",
						"numberOfBytes": "32"
					},
					"t_struct(candidate)704_storage": {
						"encoding": "inplace",
						"label": "struct Vote.candidate",
						"members": [
							{
								"astId": 699,
								"contract": "contracts/Vote.sol:Vote",
								"label": "name",
								"offset": 0,
								"slot": "0",
								"type": "t_string_storage"
							},
							{
								"astId": 701,
								"contract": "contracts/Vote.sol:Vote",
								"label": "addr",
								"offset": 0,
								"slot": "1",
								"type": "t_address"
							},
							{
								"astId": 703,
								"contract": "contracts/Vote.sol:Vote",
								"label": "party",
								"offset": 0,
								"slot": "2",
								"type": "t_string_storage"
							}
						],
						"numberOfBytes": "96"
					},
					"t_uint256": {
						"encoding": "inplace",
						"label": "uint256",
						"numberOfBytes": "32"
					}
				}
			},
			"userdoc": {
				"kind": "user",
				"methods": {},
				"version": 1
			}
		}
	}
}