{
	"contracts/Vote.sol": {
		"Vote": {
			"abi": [
				{
					"inputs": [],
					"stateMutability": "nonpayable",
					"type": "constructor"
				},
				{
					"anonymous": false,
					"inputs": [
						{
							"indexed": true,
							"internalType": "address",
							"name": "previousOwner",
							"type": "address"
						},
						{
							"indexed": true,
							"internalType": "address",
							"name": "newOwner",
							"type": "address"
						}
					],
					"name": "OwnershipTransferred",
					"type": "event"
				},
				{
					"anonymous": false,
					"inputs": [
						{
							"indexed": true,
							"internalType": "bytes32",
							"name": "role",
							"type": "bytes32"
						},
						{
							"indexed": true,
							"internalType": "bytes32",
							"name": "previousAdminRole",
							"type": "bytes32"
						},
						{
							"indexed": true,
							"internalType": "bytes32",
							"name": "newAdminRole",
							"type": "bytes32"
						}
					],
					"name": "RoleAdminChanged",
					"type": "event"
				},
				{
					"anonymous": false,
					"inputs": [
						{
							"indexed": true,
							"internalType": "bytes32",
							"name": "role",
							"type": "bytes32"
						},
						{
							"indexed": true,
							"internalType": "address",
							"name": "account",
							"type": "address"
						},
						{
							"indexed": true,
							"internalType": "address",
							"name": "sender",
							"type": "address"
						}
					],
					"name": "RoleGranted",
					"type": "event"
				},
				{
					"anonymous": false,
					"inputs": [
						{
							"indexed": true,
							"internalType": "bytes32",
							"name": "role",
							"type": "bytes32"
						},
						{
							"indexed": true,
							"internalType": "address",
							"name": "account",
							"type": "address"
						},
						{
							"indexed": true,
							"internalType": "address",
							"name": "sender",
							"type": "address"
						}
					],
					"name": "RoleRevoked",
					"type": "event"
				},
				{
					"inputs": [
						{
							"internalType": "uint256",
							"name": "",
							"type": "uint256"
						}
					],
					"name": "Candidates",
					"outputs": [
						{
							"internalType": "string",
							"name": "name",
							"type": "string"
						},
						{
							"internalType": "address",
							"name": "addr",
							"type": "address"
						},
						{
							"internalType": "string",
							"name": "party",
							"type": "string"
						}
					],
					"stateMutability": "view",
					"type": "function"
				},
				{
					"inputs": [],
					"name": "DEFAULT_ADMIN_ROLE",
					"outputs": [
						{
							"internalType": "bytes32",
							"name": "",
							"type": "bytes32"
						}
					],
					"stateMutability": "view",
					"type": "function"
				},
				{
					"inputs": [],
					"name": "INEC_EXEC_ROLE",
					"outputs": [
						{
							"internalType": "bytes32",
							"name": "",
							"type": "bytes32"
						}
					],
					"stateMutability": "view",
					"type": "function"
				},
				{
					"inputs": [],
					"name": "VOTER_ROLE",
					"outputs": [
						{
							"internalType": "bytes32",
							"name": "",
							"type": "bytes32"
						}
					],
					"stateMutability": "view",
					"type": "function"
				},
				{
					"inputs": [
						{
							"internalType": "uint256",
							"name": "",
							"type": "uint256"
						}
					],
					"name": "Voters",
					"outputs": [
						{
							"internalType": "address",
							"name": "addr",
							"type": "address"
						},
						{
							"internalType": "uint256",
							"name": "nin",
							"type": "uint256"
						},
						{
							"internalType": "uint256",
							"name": "partyNum",
							"type": "uint256"
						},
						{
							"internalType": "bool",
							"name": "hasVoted",
							"type": "bool"
						}
					],
					"stateMutability": "view",
					"type": "function"
				},
				{
					"inputs": [
						{
							"internalType": "uint256",
							"name": "partyID",
							"type": "uint256"
						},
						{
							"internalType": "uint256",
							"name": "electionID",
							"type": "uint256"
						}
					],
					"name": "Voting",
					"outputs": [],
					"stateMutability": "nonpayable",
					"type": "function"
				},
				{
					"inputs": [
						{
							"internalType": "string",
							"name": "name",
							"type": "string"
						},
						{
							"internalType": "address",
							"name": "candAddress",
							"type": "address"
						},
						{
							"internalType": "uint256",
							"name": "partyNum",
							"type": "uint256"
						}
					],
					"name": "createCandidate",
					"outputs": [],
					"stateMutability": "nonpayable",
					"type": "function"
				},
				{
					"inputs": [
						{
							"internalType": "address[]",
							"name": "_candidateNum",
							"type": "address[]"
						},
						{
							"internalType": "uint256",
							"name": "_date",
							"type": "uint256"
						},
						{
							"internalType": "uint256",
							"name": "_duration",
							"type": "uint256"
						}
					],
					"name": "createElection",
					"outputs": [],
					"stateMutability": "nonpayable",
					"type": "function"
				},
				{
					"inputs": [
						{
							"internalType": "address",
							"name": "_account",
							"type": "address"
						}
					],
					"name": "createInecExec",
					"outputs": [],
					"stateMutability": "nonpayable",
					"type": "function"
				},
				{
					"inputs": [
						{
							"internalType": "uint256",
							"name": "num",
							"type": "uint256"
						}
					],
					"name": "getElection",
					"outputs": [
						{
							"components": [
								{
									"internalType": "address[]",
									"name": "candidate",
									"type": "address[]"
								},
								{
									"internalType": "uint256[4]",
									"name": "candidateVote",
									"type": "uint256[4]"
								},
								{
									"internalType": "uint256",
									"name": "start",
									"type": "uint256"
								},
								{
									"internalType": "uint256",
									"name": "duration",
									"type": "uint256"
								},
								{
									"internalType": "bool",
									"name": "hasEnded",
									"type": "bool"
								}
							],
							"internalType": "struct Vote.election",
							"name": "",
							"type": "tuple"
						}
					],
					"stateMutability": "view",
					"type": "function"
				},
				{
					"inputs": [
						{
							"internalType": "bytes32",
							"name": "role",
							"type": "bytes32"
						}
					],
					"name": "getRoleAdmin",
					"outputs": [
						{
							"internalType": "bytes32",
							"name": "",
							"type": "bytes32"
						}
					],
					"stateMutability": "view",
					"type": "function"
				},
				{
					"inputs": [
						{
							"internalType": "bytes32",
							"name": "role",
							"type": "bytes32"
						},
						{
							"internalType": "address",
							"name": "account",
							"type": "address"
						}
					],
					"name": "grantRole",
					"outputs": [],
					"stateMutability": "nonpayable",
					"type": "function"
				},
				{
					"inputs": [
						{
							"internalType": "bytes32",
							"name": "role",
							"type": "bytes32"
						},
						{
							"internalType": "address",
							"name": "account",
							"type": "address"
						}
					],
					"name": "hasRole",
					"outputs": [
						{
							"internalType": "bool",
							"name": "",
							"type": "bool"
						}
					],
					"stateMutability": "view",
					"type": "function"
				},
				{
					"inputs": [],
					"name": "owner",
					"outputs": [
						{
							"internalType": "address",
							"name": "",
							"type": "address"
						}
					],
					"stateMutability": "view",
					"type": "function"
				},
				{
					"inputs": [
						{
							"internalType": "uint256",
							"name": "",
							"type": "uint256"
						}
					],
					"name": "party",
					"outputs": [
						{
							"internalType": "string",
							"name": "",
							"type": "string"
						}
					],
					"stateMutability": "view",
					"type": "function"
				},
				{
					"inputs": [
						{
							"internalType": "uint256",
							"name": "_nin",
							"type": "uint256"
						}
					],
					"name": "regVoter",
					"outputs": [],
					"stateMutability": "nonpayable",
					"type": "function"
				},
				{
					"inputs": [],
					"name": "renounceOwnership",
					"outputs": [],
					"stateMutability": "nonpayable",
					"type": "function"
				},
				{
					"inputs": [
						{
							"internalType": "bytes32",
							"name": "role",
							"type": "bytes32"
						},
						{
							"internalType": "address",
							"name": "account",
							"type": "address"
						}
					],
					"name": "renounceRole",
					"outputs": [],
					"stateMutability": "nonpayable",
					"type": "function"
				},
				{
					"inputs": [
						{
							"internalType": "uint256",
							"name": "num",
							"type": "uint256"
						}
					],
					"name": "retrieveCandidate",
					"outputs": [
						{
							"components": [
								{
									"internalType": "string",
									"name": "name",
									"type": "string"
								},
								{
									"internalType": "address",
									"name": "addr",
									"type": "address"
								},
								{
									"internalType": "string",
									"name": "party",
									"type": "string"
								}
							],
							"internalType": "struct Vote.candidate",
							"name": "",
							"type": "tuple"
						}
					],
					"stateMutability": "view",
					"type": "function"
				},
				{
					"inputs": [
						{
							"internalType": "bytes32",
							"name": "role",
							"type": "bytes32"
						},
						{
							"internalType": "address",
							"name": "account",
							"type": "address"
						}
					],
					"name": "revokeRole",
					"outputs": [],
					"stateMutability": "nonpayable",
					"type": "function"
				},
				{
					"inputs": [
						{
							"internalType": "bytes4",
							"name": "interfaceId",
							"type": "bytes4"
						}
					],
					"name": "supportsInterface",
					"outputs": [
						{
							"internalType": "bool",
							"name": "",
							"type": "bool"
						}
					],
					"stateMutability": "view",
					"type": "function"
				},
				{
					"inputs": [
						{
							"internalType": "address",
							"name": "newOwner",
							"type": "address"
						}
					],
					"name": "transferOwnership",
					"outputs": [],
					"stateMutability": "nonpayable",
					"type": "function"
				}
			],
			"devdoc": {
				"custom:dev-run-script": "./scripts/deploy_with_ethers.ts",
				"details": "Store & retrieve value in a variable",
				"kind": "dev",
				"methods": {
					"createCandidate(string,address,uint256)": {
						"details": "Store value in variable",
						"params": {
							"candAddress": "value for candidate Address",
							"name": "value for candidate name",
							"partyNum": "value for candidate party"
						}
					},
					"createElection(address[],uint256,uint256)": {
						"details": "registers a voter",
						"params": {
							"_candidateNum": "is an arrat of candidates, _nin is the voters identifier'"
						}
					},
					"createInecExec(address)": {
						"details": "Grant INEC executive role to an address ",
						"params": {
							"_account": "value for the role'"
						}
					},
					"getElection(uint256)": {
						"details": "Return value ",
						"returns": {
							"_0": "value of 'struct'"
						}
					},
					"getRoleAdmin(bytes32)": {
						"details": "Returns the admin role that controls `role`. See {grantRole} and {revokeRole}. To change a role's admin, use {_setRoleAdmin}."
					},
					"grantRole(bytes32,address)": {
						"details": "Grants `role` to `account`. If `account` had not been already granted `role`, emits a {RoleGranted} event. Requirements: - the caller must have ``role``'s admin role. May emit a {RoleGranted} event."
					},
					"hasRole(bytes32,address)": {
						"details": "Returns `true` if `account` has been granted `role`."
					},
					"owner()": {
						"details": "Returns the address of the current owner."
					},
					"regVoter(uint256)": {
						"details": "registers a voter",
						"params": {
							"_nin": "is the voters identifier'"
						}
					},
					"renounceOwnership()": {
						"details": "Leaves the contract without owner. It will not be possible to call `onlyOwner` functions anymore. Can only be called by the current owner. NOTE: Renouncing ownership will leave the contract without an owner, thereby removing any functionality that is only available to the owner."
					},
					"renounceRole(bytes32,address)": {
						"details": "Revokes `role` from the calling account. Roles are often managed via {grantRole} and {revokeRole}: this function's purpose is to provide a mechanism for accounts to lose their privileges if they are compromised (such as when a trusted device is misplaced). If the calling account had been revoked `role`, emits a {RoleRevoked} event. Requirements: - the caller must be `account`. May emit a {RoleRevoked} event."
					},
					"retrieveCandidate(uint256)": {
						"details": "Return value ",
						"returns": {
							"_0": "value of 'struct'"
						}
					},
					"revokeRole(bytes32,address)": {
						"details": "Revokes `role` from `account`. If `account` had been granted `role`, emits a {RoleRevoked} event. Requirements: - the caller must have ``role``'s admin role. May emit a {RoleRevoked} event."
					},
					"supportsInterface(bytes4)": {
						"details": "See {IERC165-supportsInterface}."
					},
					"transferOwnership(address)": {
						"details": "Transfers ownership of the contract to a new account (`newOwner`). Can only be called by the current owner."
					}
				},
				"title": "Storage",
				"version": 1
			},
			"evm": {
				"assembly": "    /* \"contracts/Vote.sol\":311:3976  contract Vote is Ownable, AccessControl {... */\n  mstore(0x40, 0x80)\n    /* \"contracts/Vote.sol\":457:510  string [] public party = [\"APC\", \"PDP\", \"LP\", \"NNPP\"] */\n  mload(0x40)\n  dup1\n  0x80\n  add\n  0x40\n  mstore\n  dup1\n  mload(0x40)\n  dup1\n  0x40\n  add\n  0x40\n  mstore\n  dup1\n  0x03\n  dup2\n  mstore\n  0x20\n  add\n  0x4150430000000000000000000000000000000000000000000000000000000000\n  dup2\n  mstore\n  pop\n  dup2\n  mstore\n  0x20\n  add\n  mload(0x40)\n  dup1\n  0x40\n  add\n  0x40\n  mstore\n  dup1\n  0x03\n  dup2\n  mstore\n  0x20\n  add\n  0x5044500000000000000000000000000000000000000000000000000000000000\n  dup2\n  mstore\n  pop\n  dup2\n  mstore\n  0x20\n  add\n  mload(0x40)\n  dup1\n  0x40\n  add\n  0x40\n  mstore\n  dup1\n  0x02\n  dup2\n  mstore\n  0x20\n  add\n  0x4c50000000000000000000000000000000000000000000000000000000000000\n  dup2\n  mstore\n  pop\n  dup2\n  mstore\n  0x20\n  add\n  mload(0x40)\n  dup1\n  0x40\n  add\n  0x40\n  mstore\n  dup1\n  0x04\n  dup2\n  mstore\n  0x20\n  add\n  0x4e4e505000000000000000000000000000000000000000000000000000000000\n  dup2\n  mstore\n  pop\n  dup2\n  mstore\n  pop\n  0x06\n  swap1\n  0x04\n  tag_1\n  swap3\n  swap2\n  swap1\n  tag_2\n  jump\t// in\ntag_1:\n  pop\n    /* \"contracts/Vote.sol\":1736:1929  constructor() {... */\n  callvalue\n  dup1\n  iszero\n  tag_3\n  jumpi\n  0x00\n  dup1\n  revert\ntag_3:\n  pop\n    /* \"@openzeppelin/contracts/access/Ownable.sol\":936:968  _transferOwnership(_msgSender()) */\n  tag_7\n    /* \"@openzeppelin/contracts/access/Ownable.sol\":955:967  _msgSender() */\n  tag_8\n    /* \"@openzeppelin/contracts/access/Ownable.sol\":955:965  _msgSender */\n  shl(0x20, tag_9)\n    /* \"@openzeppelin/contracts/access/Ownable.sol\":955:967  _msgSender() */\n  0x20\n  shr\n  jump\t// in\ntag_8:\n    /* \"@openzeppelin/contracts/access/Ownable.sol\":936:954  _transferOwnership */\n  shl(0x20, tag_10)\n    /* \"@openzeppelin/contracts/access/Ownable.sol\":936:968  _transferOwnership(_msgSender()) */\n  0x20\n  shr\n  jump\t// in\ntag_7:\n    /* \"contracts/Vote.sol\":1880:1922  _setupRole(DEFAULT_ADMIN_ROLE, msg.sender) */\n  tag_12\n    /* \"@openzeppelin/contracts/access/AccessControl.sol\":2072:2076  0x00 */\n  0x00\n    /* \"contracts/Vote.sol\":1891:1909  DEFAULT_ADMIN_ROLE */\n  dup1\n  shl\n    /* \"contracts/Vote.sol\":1911:1921  msg.sender */\n  caller\n    /* \"contracts/Vote.sol\":1880:1890  _setupRole */\n  shl(0x20, tag_13)\n    /* \"contracts/Vote.sol\":1880:1922  _setupRole(DEFAULT_ADMIN_ROLE, msg.sender) */\n  0x20\n  shr\n  jump\t// in\ntag_12:\n    /* \"contracts/Vote.sol\":311:3976  contract Vote is Ownable, AccessControl {... */\n  jump(tag_14)\n    /* \"@openzeppelin/contracts/utils/Context.sol\":640:736  function _msgSender() internal view virtual returns (address) {... */\ntag_9:\n    /* \"@openzeppelin/contracts/utils/Context.sol\":693:700  address */\n  0x00\n    /* \"@openzeppelin/contracts/utils/Context.sol\":719:729  msg.sender */\n  caller\n    /* \"@openzeppelin/contracts/utils/Context.sol\":712:729  return msg.sender */\n  swap1\n  pop\n    /* \"@openzeppelin/contracts/utils/Context.sol\":640:736  function _msgSender() internal view virtual returns (address) {... */\n  swap1\n  jump\t// out\n    /* \"@openzeppelin/contracts/access/Ownable.sol\":2433:2620  function _transferOwnership(address newOwner) internal virtual {... */\ntag_10:\n    /* \"@openzeppelin/contracts/access/Ownable.sol\":2506:2522  address oldOwner */\n  0x00\n    /* \"@openzeppelin/contracts/access/Ownable.sol\":2525:2531  _owner */\n  dup1\n  0x00\n  swap1\n  sload\n  swap1\n  0x0100\n  exp\n  swap1\n  div\n  0xffffffffffffffffffffffffffffffffffffffff\n  and\n    /* \"@openzeppelin/contracts/access/Ownable.sol\":2506:2531  address oldOwner = _owner */\n  swap1\n  pop\n    /* \"@openzeppelin/contracts/access/Ownable.sol\":2550:2558  newOwner */\n  dup2\n    /* \"@openzeppelin/contracts/access/Ownable.sol\":2541:2547  _owner */\n  0x00\n  dup1\n    /* \"@openzeppelin/contracts/access/Ownable.sol\":2541:2558  _owner = newOwner */\n  0x0100\n  exp\n  dup2\n  sload\n  dup2\n  0xffffffffffffffffffffffffffffffffffffffff\n  mul\n  not\n  and\n  swap1\n  dup4\n  0xffffffffffffffffffffffffffffffffffffffff\n  and\n  mul\n  or\n  swap1\n  sstore\n  pop\n    /* \"@openzeppelin/contracts/access/Ownable.sol\":2604:2612  newOwner */\n  dup2\n    /* \"@openzeppelin/contracts/access/Ownable.sol\":2573:2613  OwnershipTransferred(oldOwner, newOwner) */\n  0xffffffffffffffffffffffffffffffffffffffff\n  and\n    /* \"@openzeppelin/contracts/access/Ownable.sol\":2594:2602  oldOwner */\n  dup2\n    /* \"@openzeppelin/contracts/access/Ownable.sol\":2573:2613  OwnershipTransferred(oldOwner, newOwner) */\n  0xffffffffffffffffffffffffffffffffffffffff\n  and\n  0x8be0079c531659141344cd1fd0a4f28419497f9722a3daafe3b4186f6b6457e0\n  mload(0x40)\n  mload(0x40)\n  dup1\n  swap2\n  sub\n  swap1\n  log3\n    /* \"@openzeppelin/contracts/access/Ownable.sol\":2496:2620  {... */\n  pop\n    /* \"@openzeppelin/contracts/access/Ownable.sol\":2433:2620  function _transferOwnership(address newOwner) internal virtual {... */\n  pop\n  jump\t// out\n    /* \"@openzeppelin/contracts/access/AccessControl.sol\":6824:6934  function _setupRole(bytes32 role, address account) internal virtual {... */\ntag_13:\n    /* \"@openzeppelin/contracts/access/AccessControl.sol\":6902:6927  _grantRole(role, account) */\n  tag_18\n    /* \"@openzeppelin/contracts/access/AccessControl.sol\":6913:6917  role */\n  dup3\n    /* \"@openzeppelin/contracts/access/AccessControl.sol\":6919:6926  account */\n  dup3\n    /* \"@openzeppelin/contracts/access/AccessControl.sol\":6902:6912  _grantRole */\n  shl(0x20, tag_19)\n    /* \"@openzeppelin/contracts/access/AccessControl.sol\":6902:6927  _grantRole(role, account) */\n  0x20\n  shr\n  jump\t// in\ntag_18:\n    /* \"@openzeppelin/contracts/access/AccessControl.sol\":6824:6934  function _setupRole(bytes32 role, address account) internal virtual {... */\n  pop\n  pop\n  jump\t// out\n    /* \"@openzeppelin/contracts/access/AccessControl.sol\":7474:7707  function _grantRole(bytes32 role, address account) internal virtual {... */\ntag_19:\n    /* \"@openzeppelin/contracts/access/AccessControl.sol\":7557:7579  hasRole(role, account) */\n  tag_21\n    /* \"@openzeppelin/contracts/access/AccessControl.sol\":7565:7569  role */\n  dup3\n    /* \"@openzeppelin/contracts/access/AccessControl.sol\":7571:7578  account */\n  dup3\n    /* \"@openzeppelin/contracts/access/AccessControl.sol\":7557:7564  hasRole */\n  shl(0x20, tag_22)\n    /* \"@openzeppelin/contracts/access/AccessControl.sol\":7557:7579  hasRole(role, account) */\n  0x20\n  shr\n  jump\t// in\ntag_21:\n    /* \"@openzeppelin/contracts/access/AccessControl.sol\":7552:7701  if (!hasRole(role, account)) {... */\n  tag_23\n  jumpi\n    /* \"@openzeppelin/contracts/access/AccessControl.sol\":7627:7631  true */\n  0x01\n    /* \"@openzeppelin/contracts/access/AccessControl.sol\":7595:7601  _roles */\n  dup1\n    /* \"@openzeppelin/contracts/access/AccessControl.sol\":7595:7607  _roles[role] */\n  0x00\n    /* \"@openzeppelin/contracts/access/AccessControl.sol\":7602:7606  role */\n  dup5\n    /* \"@openzeppelin/contracts/access/AccessControl.sol\":7595:7607  _roles[role] */\n  dup2\n  mstore\n  0x20\n  add\n  swap1\n  dup2\n  mstore\n  0x20\n  add\n  0x00\n  keccak256\n    /* \"@openzeppelin/contracts/access/AccessControl.sol\":7595:7615  _roles[role].members */\n  0x00\n  add\n    /* \"@openzeppelin/contracts/access/AccessControl.sol\":7595:7624  _roles[role].members[account] */\n  0x00\n    /* \"@openzeppelin/contracts/access/AccessControl.sol\":7616:7623  account */\n  dup4\n    /* \"@openzeppelin/contracts/access/AccessControl.sol\":7595:7624  _roles[role].members[account] */\n  0xffffffffffffffffffffffffffffffffffffffff\n  and\n  0xffffffffffffffffffffffffffffffffffffffff\n  and\n  dup2\n  mstore\n  0x20\n  add\n  swap1\n  dup2\n  mstore\n  0x20\n  add\n  0x00\n  keccak256\n  0x00\n    /* \"@openzeppelin/contracts/access/AccessControl.sol\":7595:7631  _roles[role].members[account] = true */\n  0x0100\n  exp\n  dup2\n  sload\n  dup2\n  0xff\n  mul\n  not\n  and\n  swap1\n  dup4\n  iszero\n  iszero\n  mul\n  or\n  swap1\n  sstore\n  pop\n    /* \"@openzeppelin/contracts/access/AccessControl.sol\":7677:7689  _msgSender() */\n  tag_24\n    /* \"@openzeppelin/contracts/access/AccessControl.sol\":7677:7687  _msgSender */\n  shl(0x20, tag_9)\n    /* \"@openzeppelin/contracts/access/AccessControl.sol\":7677:7689  _msgSender() */\n  0x20\n  shr\n  jump\t// in\ntag_24:\n    /* \"@openzeppelin/contracts/access/AccessControl.sol\":7650:7690  RoleGranted(role, account, _msgSender()) */\n  0xffffffffffffffffffffffffffffffffffffffff\n  and\n    /* \"@openzeppelin/contracts/access/AccessControl.sol\":7668:7675  account */\n  dup2\n    /* \"@openzeppelin/contracts/access/AccessControl.sol\":7650:7690  RoleGranted(role, account, _msgSender()) */\n  0xffffffffffffffffffffffffffffffffffffffff\n  and\n    /* \"@openzeppelin/contracts/access/AccessControl.sol\":7662:7666  role */\n  dup4\n    /* \"@openzeppelin/contracts/access/AccessControl.sol\":7650:7690  RoleGranted(role, account, _msgSender()) */\n  0x2f8788117e7eff1d82e926ec794901d17c78024a50270940304540a733656f0d\n  mload(0x40)\n  mload(0x40)\n  dup1\n  swap2\n  sub\n  swap1\n  log4\n    /* \"@openzeppelin/contracts/access/AccessControl.sol\":7552:7701  if (!hasRole(role, account)) {... */\ntag_23:\n    /* \"@openzeppelin/contracts/access/AccessControl.sol\":7474:7707  function _grantRole(bytes32 role, address account) internal virtual {... */\n  pop\n  pop\n  jump\t// out\n    /* \"@openzeppelin/contracts/access/AccessControl.sol\":2895:3040  function hasRole(bytes32 role, address account) public view virtual override returns (bool) {... */\ntag_22:\n    /* \"@openzeppelin/contracts/access/AccessControl.sol\":2981:2985  bool */\n  0x00\n    /* \"@openzeppelin/contracts/access/AccessControl.sol\":3004:3010  _roles */\n  0x01\n    /* \"@openzeppelin/contracts/access/AccessControl.sol\":3004:3016  _roles[role] */\n  0x00\n    /* \"@openzeppelin/contracts/access/AccessControl.sol\":3011:3015  role */\n  dup5\n    /* \"@openzeppelin/contracts/access/AccessControl.sol\":3004:3016  _roles[role] */\n  dup2\n  mstore\n  0x20\n  add\n  swap1\n  dup2\n  mstore\n  0x20\n  add\n  0x00\n  keccak256\n    /* \"@openzeppelin/contracts/access/AccessControl.sol\":3004:3024  _roles[role].members */\n  0x00\n  add\n    /* \"@openzeppelin/contracts/access/AccessControl.sol\":3004:3033  _roles[role].members[account] */\n  0x00\n    /* \"@openzeppelin/contracts/access/AccessControl.sol\":3025:3032  account */\n  dup4\n    /* \"@openzeppelin/contracts/access/AccessControl.sol\":3004:3033  _roles[role].members[account] */\n  0xffffffffffffffffffffffffffffffffffffffff\n  and\n  0xffffffffffffffffffffffffffffffffffffffff\n  and\n  dup2\n  mstore\n  0x20\n  add\n  swap1\n  dup2\n  mstore\n  0x20\n  add\n  0x00\n  keccak256\n  0x00\n  swap1\n  sload\n  swap1\n  0x0100\n  exp\n  swap1\n  div\n  0xff\n  and\n    /* \"@openzeppelin/contracts/access/AccessControl.sol\":2997:3033  return _roles[role].members[account] */\n  swap1\n  pop\n    /* \"@openzeppelin/contracts/access/AccessControl.sol\":2895:3040  function hasRole(bytes32 role, address account) public view virtual override returns (bool) {... */\n  swap3\n  swap2\n  pop\n  pop\n  jump\t// out\n    /* \"contracts/Vote.sol\":311:3976  contract Vote is Ownable, AccessControl {... */\ntag_2:\n  dup3\n  dup1\n  sload\n  dup3\n  dup3\n  sstore\n  swap1\n  0x00\n  mstore\n  keccak256(0x00, 0x20)\n  swap1\n  dup2\n  add\n  swap3\n  dup3\n  iszero\n  tag_26\n  jumpi\n  swap2\n  0x20\n  mul\n  dup3\n  add\ntag_27:\n  dup3\n  dup2\n  gt\n  iszero\n  tag_28\n  jumpi\n  dup3\n  mload\n  dup3\n  swap1\n  dup1\n  mload\n  swap1\n  0x20\n  add\n  swap1\n  tag_29\n  swap3\n  swap2\n  swap1\n  tag_30\n  jump\t// in\ntag_29:\n  pop\n  swap2\n  0x20\n  add\n  swap2\n  swap1\n  0x01\n  add\n  swap1\n  jump(tag_27)\ntag_28:\ntag_26:\n  pop\n  swap1\n  pop\n  tag_31\n  swap2\n  swap1\n  tag_32\n  jump\t// in\ntag_31:\n  pop\n  swap1\n  jump\t// out\ntag_30:\n  dup3\n  dup1\n  sload\n  tag_33\n  swap1\n  tag_34\n  jump\t// in\ntag_33:\n  swap1\n  0x00\n  mstore\n  keccak256(0x00, 0x20)\n  swap1\n  0x1f\n  add\n  0x20\n  swap1\n  div\n  dup2\n  add\n  swap3\n  dup3\n  tag_36\n  jumpi\n  0x00\n  dup6\n  sstore\n  jump(tag_35)\ntag_36:\n  dup3\n  0x1f\n  lt\n  tag_37\n  jumpi\n  dup1\n  mload\n  not(0xff)\n  and\n  dup4\n  dup1\n  add\n  or\n  dup6\n  sstore\n  jump(tag_35)\ntag_37:\n  dup3\n  dup1\n  add\n  0x01\n  add\n  dup6\n  sstore\n  dup3\n  iszero\n  tag_35\n  jumpi\n  swap2\n  dup3\n  add\ntag_38:\n  dup3\n  dup2\n  gt\n  iszero\n  tag_39\n  jumpi\n  dup3\n  mload\n  dup3\n  sstore\n  swap2\n  0x20\n  add\n  swap2\n  swap1\n  0x01\n  add\n  swap1\n  jump(tag_38)\ntag_39:\ntag_35:\n  pop\n  swap1\n  pop\n  tag_40\n  swap2\n  swap1\n  tag_41\n  jump\t// in\ntag_40:\n  pop\n  swap1\n  jump\t// out\ntag_32:\ntag_42:\n  dup1\n  dup3\n  gt\n  iszero\n  tag_43\n  jumpi\n  0x00\n  dup2\n  dup2\n  tag_44\n  swap2\n  swap1\n  tag_45\n  jump\t// in\ntag_44:\n  pop\n  0x01\n  add\n  jump(tag_42)\ntag_43:\n  pop\n  swap1\n  jump\t// out\ntag_41:\ntag_46:\n  dup1\n  dup3\n  gt\n  iszero\n  tag_47\n  jumpi\n  0x00\n  dup2\n  0x00\n  swap1\n  sstore\n  pop\n  0x01\n  add\n  jump(tag_46)\ntag_47:\n  pop\n  swap1\n  jump\t// out\ntag_45:\n  pop\n  dup1\n  sload\n  tag_48\n  swap1\n  tag_34\n  jump\t// in\ntag_48:\n  0x00\n  dup3\n  sstore\n  dup1\n  0x1f\n  lt\n  tag_50\n  jumpi\n  pop\n  jump(tag_49)\ntag_50:\n  0x1f\n  add\n  0x20\n  swap1\n  div\n  swap1\n  0x00\n  mstore\n  keccak256(0x00, 0x20)\n  swap1\n  dup2\n  add\n  swap1\n  tag_51\n  swap2\n  swap1\n  tag_41\n  jump\t// in\ntag_51:\ntag_49:\n  pop\n  jump\t// out\n    /* \"#utility.yul\":7:327   */\ntag_34:\n    /* \"#utility.yul\":51:57   */\n  0x00\n    /* \"#utility.yul\":88:89   */\n  0x02\n    /* \"#utility.yul\":82:86   */\n  dup3\n    /* \"#utility.yul\":78:90   */\n  div\n    /* \"#utility.yul\":68:90   */\n  swap1\n  pop\n    /* \"#utility.yul\":135:136   */\n  0x01\n    /* \"#utility.yul\":129:133   */\n  dup3\n    /* \"#utility.yul\":125:137   */\n  and\n    /* \"#utility.yul\":156:174   */\n  dup1\n    /* \"#utility.yul\":146:227   */\n  tag_54\n  jumpi\n    /* \"#utility.yul\":212:216   */\n  0x7f\n    /* \"#utility.yul\":204:210   */\n  dup3\n    /* \"#utility.yul\":200:217   */\n  and\n    /* \"#utility.yul\":190:217   */\n  swap2\n  pop\n    /* \"#utility.yul\":146:227   */\ntag_54:\n    /* \"#utility.yul\":274:276   */\n  0x20\n    /* \"#utility.yul\":266:272   */\n  dup3\n    /* \"#utility.yul\":263:277   */\n  lt\n    /* \"#utility.yul\":243:261   */\n  dup2\n    /* \"#utility.yul\":240:278   */\n  eq\n    /* \"#utility.yul\":237:321   */\n  iszero\n  tag_55\n  jumpi\n    /* \"#utility.yul\":293:311   */\n  tag_56\n  tag_57\n  jump\t// in\ntag_56:\n    /* \"#utility.yul\":237:321   */\ntag_55:\n    /* \"#utility.yul\":58:327   */\n  pop\n    /* \"#utility.yul\":7:327   */\n  swap2\n  swap1\n  pop\n  jump\t// out\n    /* \"#utility.yul\":333:513   */\ntag_57:\n    /* \"#utility.yul\":381:458   */\n  0x4e487b7100000000000000000000000000000000000000000000000000000000\n    /* \"#utility.yul\":378:379   */\n  0x00\n    /* \"#utility.yul\":371:459   */\n  mstore\n    /* \"#utility.yul\":478:482   */\n  0x22\n    /* \"#utility.yul\":475:476   */\n  0x04\n    /* \"#utility.yul\":468:483   */\n  mstore\n    /* \"#utility.yul\":502:506   */\n  0x24\n    /* \"#utility.yul\":499:500   */\n  0x00\n    /* \"#utility.yul\":492:507   */\n  revert\n    /* \"contracts/Vote.sol\":311:3976  contract Vote is Ownable, AccessControl {... */\ntag_14:\n  dataSize(sub_0)\n  dup1\n  dataOffset(sub_0)\n  0x00\n  codecopy\n  0x00\n  return\nstop\n\nsub_0: assembly {\n        /* \"contracts/Vote.sol\":311:3976  contract Vote is Ownable, AccessControl {... */\n      mstore(0x40, 0x80)\n      callvalue\n      dup1\n      iszero\n      tag_1\n      jumpi\n      0x00\n      dup1\n      revert\n    tag_1:\n      pop\n      jumpi(tag_2, lt(calldatasize, 0x04))\n      shr(0xe0, calldataload(0x00))\n      dup1\n      0x91d14854\n      gt\n      tag_25\n      jumpi\n      dup1\n      0xa94015c8\n      gt\n      tag_26\n      jumpi\n      dup1\n      0xa94015c8\n      eq\n      tag_19\n      jumpi\n      dup1\n      0xd547741f\n      eq\n      tag_20\n      jumpi\n      dup1\n      0xd59d2a58\n      eq\n      tag_21\n      jumpi\n      dup1\n      0xd9d55ba0\n      eq\n      tag_22\n      jumpi\n      dup1\n      0xdfd8459e\n      eq\n      tag_23\n      jumpi\n      dup1\n      0xf2fde38b\n      eq\n      tag_24\n      jumpi\n      jump(tag_2)\n    tag_26:\n      dup1\n      0x91d14854\n      eq\n      tag_14\n      jumpi\n      dup1\n      0x9c35d98b\n      eq\n      tag_15\n      jumpi\n      dup1\n      0x9d710777\n      eq\n      tag_16\n      jumpi\n      dup1\n      0x9e5f0349\n      eq\n      tag_17\n      jumpi\n      dup1\n      0xa217fddf\n      eq\n      tag_18\n      jumpi\n      jump(tag_2)\n    tag_25:\n      dup1\n      0x314fd68f\n      gt\n      tag_27\n      jumpi\n      dup1\n      0x314fd68f\n      eq\n      tag_8\n      jumpi\n      dup1\n      0x36568abe\n      eq\n      tag_9\n      jumpi\n      dup1\n      0x3ec9ae35\n      eq\n      tag_10\n      jumpi\n      dup1\n      0x4f05dba8\n      eq\n      tag_11\n      jumpi\n      dup1\n      0x715018a6\n      eq\n      tag_12\n      jumpi\n      dup1\n      0x8da5cb5b\n      eq\n      tag_13\n      jumpi\n      jump(tag_2)\n    tag_27:\n      dup1\n      0x01ffc9a7\n      eq\n      tag_3\n      jumpi\n      dup1\n      0x248a9ca3\n      eq\n      tag_4\n      jumpi\n      dup1\n      0x290e9212\n      eq\n      tag_5\n      jumpi\n      dup1\n      0x2e0d37bb\n      eq\n      tag_6\n      jumpi\n      dup1\n      0x2f2ff15d\n      eq\n      tag_7\n      jumpi\n    tag_2:\n      0x00\n      dup1\n      revert\n        /* \"@openzeppelin/contracts/access/AccessControl.sol\":2606:2808  function supportsInterface(bytes4 interfaceId) public view virtual override returns (bool) {... */\n    tag_3:\n      tag_28\n      0x04\n      dup1\n      calldatasize\n      sub\n      dup2\n      add\n      swap1\n      tag_29\n      swap2\n      swap1\n      tag_30\n      jump\t// in\n    tag_29:\n      tag_31\n      jump\t// in\n    tag_28:\n      mload(0x40)\n      tag_32\n      swap2\n      swap1\n      tag_33\n      jump\t// in\n    tag_32:\n      mload(0x40)\n      dup1\n      swap2\n      sub\n      swap1\n      return\n        /* \"@openzeppelin/contracts/access/AccessControl.sol\":4391:4520  function getRoleAdmin(bytes32 role) public view virtual override returns (bytes32) {... */\n    tag_4:\n      tag_34\n      0x04\n      dup1\n      calldatasize\n      sub\n      dup2\n      add\n      swap1\n      tag_35\n      swap2\n      swap1\n      tag_36\n      jump\t// in\n    tag_35:\n      tag_37\n      jump\t// in\n    tag_34:\n      mload(0x40)\n      tag_38\n      swap2\n      swap1\n      tag_39\n      jump\t// in\n    tag_38:\n      mload(0x40)\n      dup1\n      swap2\n      sub\n      swap1\n      return\n        /* \"contracts/Vote.sol\":1103:1150  mapping(uint256 => candidate) public Candidates */\n    tag_5:\n      tag_40\n      0x04\n      dup1\n      calldatasize\n      sub\n      dup2\n      add\n      swap1\n      tag_41\n      swap2\n      swap1\n      tag_42\n      jump\t// in\n    tag_41:\n      tag_43\n      jump\t// in\n    tag_40:\n      mload(0x40)\n      tag_44\n      swap4\n      swap3\n      swap2\n      swap1\n      tag_45\n      jump\t// in\n    tag_44:\n      mload(0x40)\n      dup1\n      swap2\n      sub\n      swap1\n      return\n        /* \"contracts/Vote.sol\":517:580  bytes32 public constant INEC_EXEC_ROLE = keccak256(\"INEC_EXEC\") */\n    tag_6:\n      tag_46\n      tag_47\n      jump\t// in\n    tag_46:\n      mload(0x40)\n      tag_48\n      swap2\n      swap1\n      tag_39\n      jump\t// in\n    tag_48:\n      mload(0x40)\n      dup1\n      swap2\n      sub\n      swap1\n      return\n        /* \"@openzeppelin/contracts/access/AccessControl.sol\":4816:4961  function grantRole(bytes32 role, address account) public virtual override onlyRole(getRoleAdmin(role)) {... */\n    tag_7:\n      tag_49\n      0x04\n      dup1\n      calldatasize\n      sub\n      dup2\n      add\n      swap1\n      tag_50\n      swap2\n      swap1\n      tag_51\n      jump\t// in\n    tag_50:\n      tag_52\n      jump\t// in\n    tag_49:\n      stop\n        /* \"contracts/Vote.sol\":457:510  string [] public party = [\"APC\", \"PDP\", \"LP\", \"NNPP\"] */\n    tag_8:\n      tag_53\n      0x04\n      dup1\n      calldatasize\n      sub\n      dup2\n      add\n      swap1\n      tag_54\n      swap2\n      swap1\n      tag_42\n      jump\t// in\n    tag_54:\n      tag_55\n      jump\t// in\n    tag_53:\n      mload(0x40)\n      tag_56\n      swap2\n      swap1\n      tag_57\n      jump\t// in\n    tag_56:\n      mload(0x40)\n      dup1\n      swap2\n      sub\n      swap1\n      return\n        /* \"@openzeppelin/contracts/access/AccessControl.sol\":5925:6139  function renounceRole(bytes32 role, address account) public virtual override {... */\n    tag_9:\n      tag_58\n      0x04\n      dup1\n      calldatasize\n      sub\n      dup2\n      add\n      swap1\n      tag_59\n      swap2\n      swap1\n      tag_51\n      jump\t// in\n    tag_59:\n      tag_60\n      jump\t// in\n    tag_58:\n      stop\n        /* \"contracts/Vote.sol\":3449:3580  function Voting(uint256 partyID, uint256 electionID) public isVoter {... */\n    tag_10:\n      tag_61\n      0x04\n      dup1\n      calldatasize\n      sub\n      dup2\n      add\n      swap1\n      tag_62\n      swap2\n      swap1\n      tag_63\n      jump\t// in\n    tag_62:\n      tag_64\n      jump\t// in\n    tag_61:\n      stop\n        /* \"contracts/Vote.sol\":3074:3443  function createElection(address[] memory _candidateNum, uint256 _date, uint256 _duration) public isInecExec {... */\n    tag_11:\n      tag_65\n      0x04\n      dup1\n      calldatasize\n      sub\n      dup2\n      add\n      swap1\n      tag_66\n      swap2\n      swap1\n      tag_67\n      jump\t// in\n    tag_66:\n      tag_68\n      jump\t// in\n    tag_65:\n      stop\n        /* \"@openzeppelin/contracts/access/Ownable.sol\":1831:1932  function renounceOwnership() public virtual onlyOwner {... */\n    tag_12:\n      tag_69\n      tag_70\n      jump\t// in\n    tag_69:\n      stop\n        /* \"@openzeppelin/contracts/access/Ownable.sol\":1201:1286  function owner() public view virtual returns (address) {... */\n    tag_13:\n      tag_71\n      tag_72\n      jump\t// in\n    tag_71:\n      mload(0x40)\n      tag_73\n      swap2\n      swap1\n      tag_74\n      jump\t// in\n    tag_73:\n      mload(0x40)\n      dup1\n      swap2\n      sub\n      swap1\n      return\n        /* \"@openzeppelin/contracts/access/AccessControl.sol\":2895:3040  function hasRole(bytes32 role, address account) public view virtual override returns (bool) {... */\n    tag_14:\n      tag_75\n      0x04\n      dup1\n      calldatasize\n      sub\n      dup2\n      add\n      swap1\n      tag_76\n      swap2\n      swap1\n      tag_51\n      jump\t// in\n    tag_76:\n      tag_77\n      jump\t// in\n    tag_75:\n      mload(0x40)\n      tag_78\n      swap2\n      swap1\n      tag_33\n      jump\t// in\n    tag_78:\n      mload(0x40)\n      dup1\n      swap2\n      sub\n      swap1\n      return\n        /* \"contracts/Vote.sol\":1225:1264  mapping(uint256 => voter) public Voters */\n    tag_15:\n      tag_79\n      0x04\n      dup1\n      calldatasize\n      sub\n      dup2\n      add\n      swap1\n      tag_80\n      swap2\n      swap1\n      tag_42\n      jump\t// in\n    tag_80:\n      tag_81\n      jump\t// in\n    tag_79:\n      mload(0x40)\n      tag_82\n      swap5\n      swap4\n      swap3\n      swap2\n      swap1\n      tag_83\n      jump\t// in\n    tag_82:\n      mload(0x40)\n      dup1\n      swap2\n      sub\n      swap1\n      return\n        /* \"contracts/Vote.sol\":3860:3969  function getElection(uint256 num) public view returns (election memory){... */\n    tag_16:\n      tag_84\n      0x04\n      dup1\n      calldatasize\n      sub\n      dup2\n      add\n      swap1\n      tag_85\n      swap2\n      swap1\n      tag_42\n      jump\t// in\n    tag_85:\n      tag_86\n      jump\t// in\n    tag_84:\n      mload(0x40)\n      tag_87\n      swap2\n      swap1\n      tag_88\n      jump\t// in\n    tag_87:\n      mload(0x40)\n      dup1\n      swap2\n      sub\n      swap1\n      return\n        /* \"contracts/Vote.sol\":3662:3779  function retrieveCandidate(uint256 num) public view returns (candidate memory){... */\n    tag_17:\n      tag_89\n      0x04\n      dup1\n      calldatasize\n      sub\n      dup2\n      add\n      swap1\n      tag_90\n      swap2\n      swap1\n      tag_42\n      jump\t// in\n    tag_90:\n      tag_91\n      jump\t// in\n    tag_89:\n      mload(0x40)\n      tag_92\n      swap2\n      swap1\n      tag_93\n      jump\t// in\n    tag_92:\n      mload(0x40)\n      dup1\n      swap2\n      sub\n      swap1\n      return\n        /* \"@openzeppelin/contracts/access/AccessControl.sol\":2027:2076  bytes32 public constant DEFAULT_ADMIN_ROLE = 0x00 */\n    tag_18:\n      tag_94\n      tag_95\n      jump\t// in\n    tag_94:\n      mload(0x40)\n      tag_96\n      swap2\n      swap1\n      tag_39\n      jump\t// in\n    tag_96:\n      mload(0x40)\n      dup1\n      swap2\n      sub\n      swap1\n      return\n        /* \"contracts/Vote.sol\":586:641  bytes32 public constant VOTER_ROLE = keccak256(\"VOTER\") */\n    tag_19:\n      tag_97\n      tag_98\n      jump\t// in\n    tag_97:\n      mload(0x40)\n      tag_99\n      swap2\n      swap1\n      tag_39\n      jump\t// in\n    tag_99:\n      mload(0x40)\n      dup1\n      swap2\n      sub\n      swap1\n      return\n        /* \"@openzeppelin/contracts/access/AccessControl.sol\":5241:5388  function revokeRole(bytes32 role, address account) public virtual override onlyRole(getRoleAdmin(role)) {... */\n    tag_20:\n      tag_100\n      0x04\n      dup1\n      calldatasize\n      sub\n      dup2\n      add\n      swap1\n      tag_101\n      swap2\n      swap1\n      tag_51\n      jump\t// in\n    tag_101:\n      tag_102\n      jump\t// in\n    tag_100:\n      stop\n        /* \"contracts/Vote.sol\":2367:2666  function createCandidate(string memory name, address candAddress, uint256 partyNum) public isInecExec {... */\n    tag_21:\n      tag_103\n      0x04\n      dup1\n      calldatasize\n      sub\n      dup2\n      add\n      swap1\n      tag_104\n      swap2\n      swap1\n      tag_105\n      jump\t// in\n    tag_104:\n      tag_106\n      jump\t// in\n    tag_103:\n      stop\n        /* \"contracts/Vote.sol\":2764:2936  function regVoter(uint256 _nin) public {... */\n    tag_22:\n      tag_107\n      0x04\n      dup1\n      calldatasize\n      sub\n      dup2\n      add\n      swap1\n      tag_108\n      swap2\n      swap1\n      tag_42\n      jump\t// in\n    tag_108:\n      tag_109\n      jump\t// in\n    tag_107:\n      stop\n        /* \"contracts/Vote.sol\":2047:2157  function createInecExec(address _account) public onlyOwner{... */\n    tag_23:\n      tag_110\n      0x04\n      dup1\n      calldatasize\n      sub\n      dup2\n      add\n      swap1\n      tag_111\n      swap2\n      swap1\n      tag_112\n      jump\t// in\n    tag_111:\n      tag_113\n      jump\t// in\n    tag_110:\n      stop\n        /* \"@openzeppelin/contracts/access/Ownable.sol\":2081:2279  function transferOwnership(address newOwner) public virtual onlyOwner {... */\n    tag_24:\n      tag_114\n      0x04\n      dup1\n      calldatasize\n      sub\n      dup2\n      add\n      swap1\n      tag_115\n      swap2\n      swap1\n      tag_112\n      jump\t// in\n    tag_115:\n      tag_116\n      jump\t// in\n    tag_114:\n      stop\n        /* \"@openzeppelin/contracts/access/AccessControl.sol\":2606:2808  function supportsInterface(bytes4 interfaceId) public view virtual override returns (bool) {... */\n    tag_31:\n        /* \"@openzeppelin/contracts/access/AccessControl.sol\":2691:2695  bool */\n      0x00\n        /* \"@openzeppelin/contracts/access/AccessControl.sol\":2729:2761  type(IAccessControl).interfaceId */\n      0x7965db0b00000000000000000000000000000000000000000000000000000000\n        /* \"@openzeppelin/contracts/access/AccessControl.sol\":2714:2761  interfaceId == type(IAccessControl).interfaceId */\n      not(0xffffffffffffffffffffffffffffffffffffffffffffffffffffffff)\n      and\n        /* \"@openzeppelin/contracts/access/AccessControl.sol\":2714:2725  interfaceId */\n      dup3\n        /* \"@openzeppelin/contracts/access/AccessControl.sol\":2714:2761  interfaceId == type(IAccessControl).interfaceId */\n      not(0xffffffffffffffffffffffffffffffffffffffffffffffffffffffff)\n      and\n      eq\n        /* \"@openzeppelin/contracts/access/AccessControl.sol\":2714:2801  interfaceId == type(IAccessControl).interfaceId || super.supportsInterface(interfaceId) */\n      dup1\n      tag_118\n      jumpi\n      pop\n        /* \"@openzeppelin/contracts/access/AccessControl.sol\":2765:2801  super.supportsInterface(interfaceId) */\n      tag_119\n        /* \"@openzeppelin/contracts/access/AccessControl.sol\":2789:2800  interfaceId */\n      dup3\n        /* \"@openzeppelin/contracts/access/AccessControl.sol\":2765:2788  super.supportsInterface */\n      tag_120\n        /* \"@openzeppelin/contracts/access/AccessControl.sol\":2765:2801  super.supportsInterface(interfaceId) */\n      jump\t// in\n    tag_119:\n        /* \"@openzeppelin/contracts/access/AccessControl.sol\":2714:2801  interfaceId == type(IAccessControl).interfaceId || super.supportsInterface(interfaceId) */\n    tag_118:\n        /* \"@openzeppelin/contracts/access/AccessControl.sol\":2707:2801  return interfaceId == type(IAccessControl).interfaceId || super.supportsInterface(interfaceId) */\n      swap1\n      pop\n        /* \"@openzeppelin/contracts/access/AccessControl.sol\":2606:2808  function supportsInterface(bytes4 interfaceId) public view virtual override returns (bool) {... */\n      swap2\n      swap1\n      pop\n      jump\t// out\n        /* \"@openzeppelin/contracts/access/AccessControl.sol\":4391:4520  function getRoleAdmin(bytes32 role) public view virtual override returns (bytes32) {... */\n    tag_37:\n        /* \"@openzeppelin/contracts/access/AccessControl.sol\":4465:4472  bytes32 */\n      0x00\n        /* \"@openzeppelin/contracts/access/AccessControl.sol\":4491:4497  _roles */\n      0x01\n        /* \"@openzeppelin/contracts/access/AccessControl.sol\":4491:4503  _roles[role] */\n      0x00\n        /* \"@openzeppelin/contracts/access/AccessControl.sol\":4498:4502  role */\n      dup4\n        /* \"@openzeppelin/contracts/access/AccessControl.sol\":4491:4503  _roles[role] */\n      dup2\n      mstore\n      0x20\n      add\n      swap1\n      dup2\n      mstore\n      0x20\n      add\n      0x00\n      keccak256\n        /* \"@openzeppelin/contracts/access/AccessControl.sol\":4491:4513  _roles[role].adminRole */\n      0x01\n      add\n      sload\n        /* \"@openzeppelin/contracts/access/AccessControl.sol\":4484:4513  return _roles[role].adminRole */\n      swap1\n      pop\n        /* \"@openzeppelin/contracts/access/AccessControl.sol\":4391:4520  function getRoleAdmin(bytes32 role) public view virtual override returns (bytes32) {... */\n      swap2\n      swap1\n      pop\n      jump\t// out\n        /* \"contracts/Vote.sol\":1103:1150  mapping(uint256 => candidate) public Candidates */\n    tag_43:\n      mstore(0x20, 0x07)\n      dup1\n      0x00\n      mstore\n      keccak256(0x00, 0x40)\n      0x00\n      swap2\n      pop\n      swap1\n      pop\n      dup1\n      0x00\n      add\n      dup1\n      sload\n      tag_122\n      swap1\n      tag_123\n      jump\t// in\n    tag_122:\n      dup1\n      0x1f\n      add\n      0x20\n      dup1\n      swap2\n      div\n      mul\n      0x20\n      add\n      mload(0x40)\n      swap1\n      dup2\n      add\n      0x40\n      mstore\n      dup1\n      swap3\n      swap2\n      swap1\n      dup2\n      dup2\n      mstore\n      0x20\n      add\n      dup3\n      dup1\n      sload\n      tag_124\n      swap1\n      tag_123\n      jump\t// in\n    tag_124:\n      dup1\n      iszero\n      tag_125\n      jumpi\n      dup1\n      0x1f\n      lt\n      tag_126\n      jumpi\n      0x0100\n      dup1\n      dup4\n      sload\n      div\n      mul\n      dup4\n      mstore\n      swap2\n      0x20\n      add\n      swap2\n      jump(tag_125)\n    tag_126:\n      dup3\n      add\n      swap2\n      swap1\n      0x00\n      mstore\n      keccak256(0x00, 0x20)\n      swap1\n    tag_127:\n      dup2\n      sload\n      dup2\n      mstore\n      swap1\n      0x01\n      add\n      swap1\n      0x20\n      add\n      dup1\n      dup4\n      gt\n      tag_127\n      jumpi\n      dup3\n      swap1\n      sub\n      0x1f\n      and\n      dup3\n      add\n      swap2\n    tag_125:\n      pop\n      pop\n      pop\n      pop\n      pop\n      swap1\n      dup1\n      0x01\n      add\n      0x00\n      swap1\n      sload\n      swap1\n      0x0100\n      exp\n      swap1\n      div\n      0xffffffffffffffffffffffffffffffffffffffff\n      and\n      swap1\n      dup1\n      0x02\n      add\n      dup1\n      sload\n      tag_128\n      swap1\n      tag_123\n      jump\t// in\n    tag_128:\n      dup1\n      0x1f\n      add\n      0x20\n      dup1\n      swap2\n      div\n      mul\n      0x20\n      add\n      mload(0x40)\n      swap1\n      dup2\n      add\n      0x40\n      mstore\n      dup1\n      swap3\n      swap2\n      swap1\n      dup2\n      dup2\n      mstore\n      0x20\n      add\n      dup3\n      dup1\n      sload\n      tag_129\n      swap1\n      tag_123\n      jump\t// in\n    tag_129:\n      dup1\n      iszero\n      tag_130\n      jumpi\n      dup1\n      0x1f\n      lt\n      tag_131\n      jumpi\n      0x0100\n      dup1\n      dup4\n      sload\n      div\n      mul\n      dup4\n      mstore\n      swap2\n      0x20\n      add\n      swap2\n      jump(tag_130)\n    tag_131:\n      dup3\n      add\n      swap2\n      swap1\n      0x00\n      mstore\n      keccak256(0x00, 0x20)\n      swap1\n    tag_132:\n      dup2\n      sload\n      dup2\n      mstore\n      swap1\n      0x01\n      add\n      swap1\n      0x20\n      add\n      dup1\n      dup4\n      gt\n      tag_132\n      jumpi\n      dup3\n      swap1\n      sub\n      0x1f\n      and\n      dup3\n      add\n      swap2\n    tag_130:\n      pop\n      pop\n      pop\n      pop\n      pop\n      swap1\n      pop\n      dup4\n      jump\t// out\n        /* \"contracts/Vote.sol\":517:580  bytes32 public constant INEC_EXEC_ROLE = keccak256(\"INEC_EXEC\") */\n    tag_47:\n        /* \"contracts/Vote.sol\":558:580  keccak256(\"INEC_EXEC\") */\n      0x082f6ed76e0352438e6a6e35c77719c3f04bf277fdc8fec7e5ff5f65e001d902\n        /* \"contracts/Vote.sol\":517:580  bytes32 public constant INEC_EXEC_ROLE = keccak256(\"INEC_EXEC\") */\n      dup2\n      jump\t// out\n        /* \"@openzeppelin/contracts/access/AccessControl.sol\":4816:4961  function grantRole(bytes32 role, address account) public virtual override onlyRole(getRoleAdmin(role)) {... */\n    tag_52:\n        /* \"@openzeppelin/contracts/access/AccessControl.sol\":4899:4917  getRoleAdmin(role) */\n      tag_133\n        /* \"@openzeppelin/contracts/access/AccessControl.sol\":4912:4916  role */\n      dup3\n        /* \"@openzeppelin/contracts/access/AccessControl.sol\":4899:4911  getRoleAdmin */\n      tag_37\n        /* \"@openzeppelin/contracts/access/AccessControl.sol\":4899:4917  getRoleAdmin(role) */\n      jump\t// in\n    tag_133:\n        /* \"@openzeppelin/contracts/access/AccessControl.sol\":2505:2521  _checkRole(role) */\n      tag_135\n        /* \"@openzeppelin/contracts/access/AccessControl.sol\":2516:2520  role */\n      dup2\n        /* \"@openzeppelin/contracts/access/AccessControl.sol\":2505:2515  _checkRole */\n      tag_136\n        /* \"@openzeppelin/contracts/access/AccessControl.sol\":2505:2521  _checkRole(role) */\n      jump\t// in\n    tag_135:\n        /* \"@openzeppelin/contracts/access/AccessControl.sol\":4929:4954  _grantRole(role, account) */\n      tag_138\n        /* \"@openzeppelin/contracts/access/AccessControl.sol\":4940:4944  role */\n      dup4\n        /* \"@openzeppelin/contracts/access/AccessControl.sol\":4946:4953  account */\n      dup4\n        /* \"@openzeppelin/contracts/access/AccessControl.sol\":4929:4939  _grantRole */\n      tag_139\n        /* \"@openzeppelin/contracts/access/AccessControl.sol\":4929:4954  _grantRole(role, account) */\n      jump\t// in\n    tag_138:\n        /* \"@openzeppelin/contracts/access/AccessControl.sol\":4816:4961  function grantRole(bytes32 role, address account) public virtual override onlyRole(getRoleAdmin(role)) {... */\n      pop\n      pop\n      pop\n      jump\t// out\n        /* \"contracts/Vote.sol\":457:510  string [] public party = [\"APC\", \"PDP\", \"LP\", \"NNPP\"] */\n    tag_55:\n      0x06\n      dup2\n      dup2\n      sload\n      dup2\n      lt\n      tag_140\n      jumpi\n      0x00\n      dup1\n      revert\n    tag_140:\n      swap1\n      0x00\n      mstore\n      keccak256(0x00, 0x20)\n      add\n      0x00\n      swap2\n      pop\n      swap1\n      pop\n      dup1\n      sload\n      tag_142\n      swap1\n      tag_123\n      jump\t// in\n    tag_142:\n      dup1\n      0x1f\n      add\n      0x20\n      dup1\n      swap2\n      div\n      mul\n      0x20\n      add\n      mload(0x40)\n      swap1\n      dup2\n      add\n      0x40\n      mstore\n      dup1\n      swap3\n      swap2\n      swap1\n      dup2\n      dup2\n      mstore\n      0x20\n      add\n      dup3\n      dup1\n      sload\n      tag_143\n      swap1\n      tag_123\n      jump\t// in\n    tag_143:\n      dup1\n      iszero\n      tag_144\n      jumpi\n      dup1\n      0x1f\n      lt\n      tag_145\n      jumpi\n      0x0100\n      dup1\n      dup4\n      sload\n      div\n      mul\n      dup4\n      mstore\n      swap2\n      0x20\n      add\n      swap2\n      jump(tag_144)\n    tag_145:\n      dup3\n      add\n      swap2\n      swap1\n      0x00\n      mstore\n      keccak256(0x00, 0x20)\n      swap1\n    tag_146:\n      dup2\n      sload\n      dup2\n      mstore\n      swap1\n      0x01\n      add\n      swap1\n      0x20\n      add\n      dup1\n      dup4\n      gt\n      tag_146\n      jumpi\n      dup3\n      swap1\n      sub\n      0x1f\n      and\n      dup3\n      add\n      swap2\n    tag_144:\n      pop\n      pop\n      pop\n      pop\n      pop\n      dup2\n      jump\t// out\n        /* \"@openzeppelin/contracts/access/AccessControl.sol\":5925:6139  function renounceRole(bytes32 role, address account) public virtual override {... */\n    tag_60:\n        /* \"@openzeppelin/contracts/access/AccessControl.sol\":6031:6043  _msgSender() */\n      tag_148\n        /* \"@openzeppelin/contracts/access/AccessControl.sol\":6031:6041  _msgSender */\n      tag_149\n        /* \"@openzeppelin/contracts/access/AccessControl.sol\":6031:6043  _msgSender() */\n      jump\t// in\n    tag_148:\n        /* \"@openzeppelin/contracts/access/AccessControl.sol\":6020:6043  account == _msgSender() */\n      0xffffffffffffffffffffffffffffffffffffffff\n      and\n        /* \"@openzeppelin/contracts/access/AccessControl.sol\":6020:6027  account */\n      dup2\n        /* \"@openzeppelin/contracts/access/AccessControl.sol\":6020:6043  account == _msgSender() */\n      0xffffffffffffffffffffffffffffffffffffffff\n      and\n      eq\n        /* \"@openzeppelin/contracts/access/AccessControl.sol\":6012:6095  require(account == _msgSender(), \"AccessControl: can only renounce roles for self\") */\n      tag_150\n      jumpi\n      mload(0x40)\n      0x08c379a000000000000000000000000000000000000000000000000000000000\n      dup2\n      mstore\n      0x04\n      add\n      tag_151\n      swap1\n      tag_152\n      jump\t// in\n    tag_151:\n      mload(0x40)\n      dup1\n      swap2\n      sub\n      swap1\n      revert\n    tag_150:\n        /* \"@openzeppelin/contracts/access/AccessControl.sol\":6106:6132  _revokeRole(role, account) */\n      tag_153\n        /* \"@openzeppelin/contracts/access/AccessControl.sol\":6118:6122  role */\n      dup3\n        /* \"@openzeppelin/contracts/access/AccessControl.sol\":6124:6131  account */\n      dup3\n        /* \"@openzeppelin/contracts/access/AccessControl.sol\":6106:6117  _revokeRole */\n      tag_154\n        /* \"@openzeppelin/contracts/access/AccessControl.sol\":6106:6132  _revokeRole(role, account) */\n      jump\t// in\n    tag_153:\n        /* \"@openzeppelin/contracts/access/AccessControl.sol\":5925:6139  function renounceRole(bytes32 role, address account) public virtual override {... */\n      pop\n      pop\n      jump\t// out\n        /* \"contracts/Vote.sol\":3449:3580  function Voting(uint256 partyID, uint256 electionID) public isVoter {... */\n    tag_64:\n        /* \"contracts/Vote.sol\":1654:1685  hasRole(VOTER_ROLE, msg.sender) */\n      tag_156\n        /* \"contracts/Vote.sol\":623:641  keccak256(\"VOTER\") */\n      0x15283fd96aa656c9df35ac2fcb112678a5f24f1ca97e591a97d1d16003dbfc9c\n        /* \"contracts/Vote.sol\":1674:1684  msg.sender */\n      caller\n        /* \"contracts/Vote.sol\":1654:1661  hasRole */\n      tag_77\n        /* \"contracts/Vote.sol\":1654:1685  hasRole(VOTER_ROLE, msg.sender) */\n      jump\t// in\n    tag_156:\n        /* \"contracts/Vote.sol\":1646:1711  require(hasRole(VOTER_ROLE, msg.sender), \"Caller is not a Voter\") */\n      tag_157\n      jumpi\n      mload(0x40)\n      0x08c379a000000000000000000000000000000000000000000000000000000000\n      dup2\n      mstore\n      0x04\n      add\n      tag_158\n      swap1\n      tag_159\n      jump\t// in\n    tag_158:\n      mload(0x40)\n      dup1\n      swap2\n      sub\n      swap1\n      revert\n    tag_157:\n        /* \"contracts/Vote.sol\":3527:3536  Elections */\n      0x09\n        /* \"contracts/Vote.sol\":3527:3548  Elections[electionID] */\n      0x00\n        /* \"contracts/Vote.sol\":3537:3547  electionID */\n      dup3\n        /* \"contracts/Vote.sol\":3527:3548  Elections[electionID] */\n      dup2\n      mstore\n      0x20\n      add\n      swap1\n      dup2\n      mstore\n      0x20\n      add\n      0x00\n      keccak256\n        /* \"contracts/Vote.sol\":3527:3562  Elections[electionID].candidateVote */\n      0x01\n      add\n        /* \"contracts/Vote.sol\":3563:3570  partyID */\n      dup3\n        /* \"contracts/Vote.sol\":3527:3571  Elections[electionID].candidateVote[partyID] */\n      0x04\n      dup2\n      lt\n      tag_161\n      jumpi\n      tag_162\n      tag_163\n      jump\t// in\n    tag_162:\n    tag_161:\n      add\n      0x00\n        /* \"contracts/Vote.sol\":3527:3573  Elections[electionID].candidateVote[partyID]++ */\n      dup2\n      sload\n      dup1\n      swap3\n      swap2\n      swap1\n      tag_165\n      swap1\n      tag_166\n      jump\t// in\n    tag_165:\n      swap2\n      swap1\n      pop\n      sstore\n      pop\n        /* \"contracts/Vote.sol\":3449:3580  function Voting(uint256 partyID, uint256 electionID) public isVoter {... */\n      pop\n      pop\n      jump\t// out\n        /* \"contracts/Vote.sol\":3074:3443  function createElection(address[] memory _candidateNum, uint256 _date, uint256 _duration) public isInecExec {... */\n    tag_68:\n        /* \"contracts/Vote.sol\":1521:1556  hasRole(INEC_EXEC_ROLE, msg.sender) */\n      tag_168\n        /* \"contracts/Vote.sol\":558:580  keccak256(\"INEC_EXEC\") */\n      0x082f6ed76e0352438e6a6e35c77719c3f04bf277fdc8fec7e5ff5f65e001d902\n        /* \"contracts/Vote.sol\":1545:1555  msg.sender */\n      caller\n        /* \"contracts/Vote.sol\":1521:1528  hasRole */\n      tag_77\n        /* \"contracts/Vote.sol\":1521:1556  hasRole(INEC_EXEC_ROLE, msg.sender) */\n      jump\t// in\n    tag_168:\n        /* \"contracts/Vote.sol\":1513:1592  require(hasRole(INEC_EXEC_ROLE, msg.sender), \"Caller is not an INEC executive\") */\n      tag_169\n      jumpi\n      mload(0x40)\n      0x08c379a000000000000000000000000000000000000000000000000000000000\n      dup2\n      mstore\n      0x04\n      add\n      tag_170\n      swap1\n      tag_171\n      jump\t// in\n    tag_170:\n      mload(0x40)\n      dup1\n      swap2\n      sub\n      swap1\n      revert\n    tag_169:\n        /* \"contracts/Vote.sol\":3222:3227  _date */\n      dup2\n        /* \"contracts/Vote.sol\":3191:3200  Elections */\n      0x09\n        /* \"contracts/Vote.sol\":3191:3213  Elections[electionNum] */\n      0x00\n        /* \"contracts/Vote.sol\":3201:3212  electionNum */\n      sload(0x05)\n        /* \"contracts/Vote.sol\":3191:3213  Elections[electionNum] */\n      dup2\n      mstore\n      0x20\n      add\n      swap1\n      dup2\n      mstore\n      0x20\n      add\n      0x00\n      keccak256\n        /* \"contracts/Vote.sol\":3191:3219  Elections[electionNum].start */\n      0x05\n      add\n        /* \"contracts/Vote.sol\":3191:3227  Elections[electionNum].start = _date */\n      dup2\n      swap1\n      sstore\n      pop\n        /* \"contracts/Vote.sol\":3270:3279  _duration */\n      dup1\n        /* \"contracts/Vote.sol\":3236:3245  Elections */\n      0x09\n        /* \"contracts/Vote.sol\":3236:3258  Elections[electionNum] */\n      0x00\n        /* \"contracts/Vote.sol\":3246:3257  electionNum */\n      sload(0x05)\n        /* \"contracts/Vote.sol\":3236:3258  Elections[electionNum] */\n      dup2\n      mstore\n      0x20\n      add\n      swap1\n      dup2\n      mstore\n      0x20\n      add\n      0x00\n      keccak256\n        /* \"contracts/Vote.sol\":3236:3267  Elections[electionNum].duration */\n      0x06\n      add\n        /* \"contracts/Vote.sol\":3236:3279  Elections[electionNum].duration = _duration */\n      dup2\n      swap1\n      sstore\n      pop\n        /* \"contracts/Vote.sol\":3293:3299  uint i */\n      0x00\n        /* \"contracts/Vote.sol\":3289:3413  for(uint i = 0; i < _candidateNum.length; i++){... */\n    tag_173:\n        /* \"contracts/Vote.sol\":3309:3322  _candidateNum */\n      dup4\n        /* \"contracts/Vote.sol\":3309:3329  _candidateNum.length */\n      mload\n        /* \"contracts/Vote.sol\":3305:3306  i */\n      dup2\n        /* \"contracts/Vote.sol\":3305:3329  i < _candidateNum.length */\n      lt\n        /* \"contracts/Vote.sol\":3289:3413  for(uint i = 0; i < _candidateNum.length; i++){... */\n      iszero\n      tag_174\n      jumpi\n        /* \"contracts/Vote.sol\":3348:3357  Elections */\n      0x09\n        /* \"contracts/Vote.sol\":3348:3370  Elections[electionNum] */\n      0x00\n        /* \"contracts/Vote.sol\":3358:3369  electionNum */\n      sload(0x05)\n        /* \"contracts/Vote.sol\":3348:3370  Elections[electionNum] */\n      dup2\n      mstore\n      0x20\n      add\n      swap1\n      dup2\n      mstore\n      0x20\n      add\n      0x00\n      keccak256\n        /* \"contracts/Vote.sol\":3348:3380  Elections[electionNum].candidate */\n      0x00\n      add\n        /* \"contracts/Vote.sol\":3386:3399  _candidateNum */\n      dup5\n        /* \"contracts/Vote.sol\":3400:3401  i */\n      dup3\n        /* \"contracts/Vote.sol\":3386:3402  _candidateNum[i] */\n      dup2\n      mload\n      dup2\n      lt\n      tag_176\n      jumpi\n      tag_177\n      tag_163\n      jump\t// in\n    tag_177:\n    tag_176:\n      0x20\n      mul\n      0x20\n      add\n      add\n      mload\n        /* \"contracts/Vote.sol\":3348:3403  Elections[electionNum].candidate.push(_candidateNum[i]) */\n      swap1\n      dup1\n      0x01\n      dup2\n      sload\n      add\n      dup1\n      dup3\n      sstore\n      dup1\n      swap2\n      pop\n      pop\n      0x01\n      swap1\n      sub\n      swap1\n      0x00\n      mstore\n      keccak256(0x00, 0x20)\n      add\n      0x00\n      swap1\n      swap2\n      swap1\n      swap2\n      swap1\n      swap2\n      0x0100\n      exp\n      dup2\n      sload\n      dup2\n      0xffffffffffffffffffffffffffffffffffffffff\n      mul\n      not\n      and\n      swap1\n      dup4\n      0xffffffffffffffffffffffffffffffffffffffff\n      and\n      mul\n      or\n      swap1\n      sstore\n      pop\n        /* \"contracts/Vote.sol\":3331:3334  i++ */\n      dup1\n      dup1\n      tag_179\n      swap1\n      tag_166\n      jump\t// in\n    tag_179:\n      swap2\n      pop\n      pop\n        /* \"contracts/Vote.sol\":3289:3413  for(uint i = 0; i < _candidateNum.length; i++){... */\n      jump(tag_173)\n    tag_174:\n      pop\n        /* \"contracts/Vote.sol\":3422:3433  electionNum */\n      0x05\n      0x00\n        /* \"contracts/Vote.sol\":3422:3436  electionNum ++ */\n      dup2\n      sload\n      dup1\n      swap3\n      swap2\n      swap1\n      tag_180\n      swap1\n      tag_166\n      jump\t// in\n    tag_180:\n      swap2\n      swap1\n      pop\n      sstore\n      pop\n        /* \"contracts/Vote.sol\":3074:3443  function createElection(address[] memory _candidateNum, uint256 _date, uint256 _duration) public isInecExec {... */\n      pop\n      pop\n      pop\n      jump\t// out\n        /* \"@openzeppelin/contracts/access/Ownable.sol\":1831:1932  function renounceOwnership() public virtual onlyOwner {... */\n    tag_70:\n        /* \"@openzeppelin/contracts/access/Ownable.sol\":1094:1107  _checkOwner() */\n      tag_182\n        /* \"@openzeppelin/contracts/access/Ownable.sol\":1094:1105  _checkOwner */\n      tag_183\n        /* \"@openzeppelin/contracts/access/Ownable.sol\":1094:1107  _checkOwner() */\n      jump\t// in\n    tag_182:\n        /* \"@openzeppelin/contracts/access/Ownable.sol\":1895:1925  _transferOwnership(address(0)) */\n      tag_185\n        /* \"@openzeppelin/contracts/access/Ownable.sol\":1922:1923  0 */\n      0x00\n        /* \"@openzeppelin/contracts/access/Ownable.sol\":1895:1913  _transferOwnership */\n      tag_186\n        /* \"@openzeppelin/contracts/access/Ownable.sol\":1895:1925  _transferOwnership(address(0)) */\n      jump\t// in\n    tag_185:\n        /* \"@openzeppelin/contracts/access/Ownable.sol\":1831:1932  function renounceOwnership() public virtual onlyOwner {... */\n      jump\t// out\n        /* \"@openzeppelin/contracts/access/Ownable.sol\":1201:1286  function owner() public view virtual returns (address) {... */\n    tag_72:\n        /* \"@openzeppelin/contracts/access/Ownable.sol\":1247:1254  address */\n      0x00\n        /* \"@openzeppelin/contracts/access/Ownable.sol\":1273:1279  _owner */\n      dup1\n      0x00\n      swap1\n      sload\n      swap1\n      0x0100\n      exp\n      swap1\n      div\n      0xffffffffffffffffffffffffffffffffffffffff\n      and\n        /* \"@openzeppelin/contracts/access/Ownable.sol\":1266:1279  return _owner */\n      swap1\n      pop\n        /* \"@openzeppelin/contracts/access/Ownable.sol\":1201:1286  function owner() public view virtual returns (address) {... */\n      swap1\n      jump\t// out\n        /* \"@openzeppelin/contracts/access/AccessControl.sol\":2895:3040  function hasRole(bytes32 role, address account) public view virtual override returns (bool) {... */\n    tag_77:\n        /* \"@openzeppelin/contracts/access/AccessControl.sol\":2981:2985  bool */\n      0x00\n        /* \"@openzeppelin/contracts/access/AccessControl.sol\":3004:3010  _roles */\n      0x01\n        /* \"@openzeppelin/contracts/access/AccessControl.sol\":3004:3016  _roles[role] */\n      0x00\n        /* \"@openzeppelin/contracts/access/AccessControl.sol\":3011:3015  role */\n      dup5\n        /* \"@openzeppelin/contracts/access/AccessControl.sol\":3004:3016  _roles[role] */\n      dup2\n      mstore\n      0x20\n      add\n      swap1\n      dup2\n      mstore\n      0x20\n      add\n      0x00\n      keccak256\n        /* \"@openzeppelin/contracts/access/AccessControl.sol\":3004:3024  _roles[role].members */\n      0x00\n      add\n        /* \"@openzeppelin/contracts/access/AccessControl.sol\":3004:3033  _roles[role].members[account] */\n      0x00\n        /* \"@openzeppelin/contracts/access/AccessControl.sol\":3025:3032  account */\n      dup4\n        /* \"@openzeppelin/contracts/access/AccessControl.sol\":3004:3033  _roles[role].members[account] */\n      0xffffffffffffffffffffffffffffffffffffffff\n      and\n      0xffffffffffffffffffffffffffffffffffffffff\n      and\n      dup2\n      mstore\n      0x20\n      add\n      swap1\n      dup2\n      mstore\n      0x20\n      add\n      0x00\n      keccak256\n      0x00\n      swap1\n      sload\n      swap1\n      0x0100\n      exp\n      swap1\n      div\n      0xff\n      and\n        /* \"@openzeppelin/contracts/access/AccessControl.sol\":2997:3033  return _roles[role].members[account] */\n      swap1\n      pop\n        /* \"@openzeppelin/contracts/access/AccessControl.sol\":2895:3040  function hasRole(bytes32 role, address account) public view virtual override returns (bool) {... */\n      swap3\n      swap2\n      pop\n      pop\n      jump\t// out\n        /* \"contracts/Vote.sol\":1225:1264  mapping(uint256 => voter) public Voters */\n    tag_81:\n      mstore(0x20, 0x08)\n      dup1\n      0x00\n      mstore\n      keccak256(0x00, 0x40)\n      0x00\n      swap2\n      pop\n      swap1\n      pop\n      dup1\n      0x00\n      add\n      0x00\n      swap1\n      sload\n      swap1\n      0x0100\n      exp\n      swap1\n      div\n      0xffffffffffffffffffffffffffffffffffffffff\n      and\n      swap1\n      dup1\n      0x01\n      add\n      sload\n      swap1\n      dup1\n      0x02\n      add\n      sload\n      swap1\n      dup1\n      0x03\n      add\n      0x00\n      swap1\n      sload\n      swap1\n      0x0100\n      exp\n      swap1\n      div\n      0xff\n      and\n      swap1\n      pop\n      dup5\n      jump\t// out\n        /* \"contracts/Vote.sol\":3860:3969  function getElection(uint256 num) public view returns (election memory){... */\n    tag_86:\n        /* \"contracts/Vote.sol\":3915:3930  election memory */\n      tag_189\n      tag_190\n      jump\t// in\n    tag_189:\n        /* \"contracts/Vote.sol\":3948:3957  Elections */\n      0x09\n        /* \"contracts/Vote.sol\":3948:3962  Elections[num] */\n      0x00\n        /* \"contracts/Vote.sol\":3958:3961  num */\n      dup4\n        /* \"contracts/Vote.sol\":3948:3962  Elections[num] */\n      dup2\n      mstore\n      0x20\n      add\n      swap1\n      dup2\n      mstore\n      0x20\n      add\n      0x00\n      keccak256\n        /* \"contracts/Vote.sol\":3941:3962  return Elections[num] */\n      mload(0x40)\n      dup1\n      0xa0\n      add\n      0x40\n      mstore\n      swap1\n      dup2\n      0x00\n      dup3\n      add\n      dup1\n      sload\n      dup1\n      0x20\n      mul\n      0x20\n      add\n      mload(0x40)\n      swap1\n      dup2\n      add\n      0x40\n      mstore\n      dup1\n      swap3\n      swap2\n      swap1\n      dup2\n      dup2\n      mstore\n      0x20\n      add\n      dup3\n      dup1\n      sload\n      dup1\n      iszero\n      tag_192\n      jumpi\n      0x20\n      mul\n      dup3\n      add\n      swap2\n      swap1\n      0x00\n      mstore\n      keccak256(0x00, 0x20)\n      swap1\n    tag_193:\n      dup2\n      0x00\n      swap1\n      sload\n      swap1\n      0x0100\n      exp\n      swap1\n      div\n      0xffffffffffffffffffffffffffffffffffffffff\n      and\n      0xffffffffffffffffffffffffffffffffffffffff\n      and\n      dup2\n      mstore\n      0x20\n      add\n      swap1\n      0x01\n      add\n      swap1\n      dup1\n      dup4\n      gt\n      tag_193\n      jumpi\n    tag_192:\n      pop\n      pop\n      pop\n      pop\n      pop\n      dup2\n      mstore\n      0x20\n      add\n      0x01\n      dup3\n      add\n      0x04\n      dup1\n      0x20\n      mul\n      mload(0x40)\n      swap1\n      dup2\n      add\n      0x40\n      mstore\n      dup1\n      swap3\n      swap2\n      swap1\n      dup3\n      0x04\n      dup1\n      iszero\n      tag_194\n      jumpi\n      0x20\n      mul\n      dup3\n      add\n      swap2\n    tag_195:\n      dup2\n      sload\n      dup2\n      mstore\n      0x20\n      add\n      swap1\n      0x01\n      add\n      swap1\n      dup1\n      dup4\n      gt\n      tag_195\n      jumpi\n    tag_194:\n      pop\n      pop\n      pop\n      pop\n      pop\n      dup2\n      mstore\n      0x20\n      add\n      0x05\n      dup3\n      add\n      sload\n      dup2\n      mstore\n      0x20\n      add\n      0x06\n      dup3\n      add\n      sload\n      dup2\n      mstore\n      0x20\n      add\n      0x07\n      dup3\n      add\n      0x00\n      swap1\n      sload\n      swap1\n      0x0100\n      exp\n      swap1\n      div\n      0xff\n      and\n      iszero\n      iszero\n      iszero\n      iszero\n      dup2\n      mstore\n      pop\n      pop\n      swap1\n      pop\n        /* \"contracts/Vote.sol\":3860:3969  function getElection(uint256 num) public view returns (election memory){... */\n      swap2\n      swap1\n      pop\n      jump\t// out\n        /* \"contracts/Vote.sol\":3662:3779  function retrieveCandidate(uint256 num) public view returns (candidate memory){... */\n    tag_91:\n        /* \"contracts/Vote.sol\":3723:3739  candidate memory */\n      tag_196\n      tag_197\n      jump\t// in\n    tag_196:\n        /* \"contracts/Vote.sol\":3757:3767  Candidates */\n      0x07\n        /* \"contracts/Vote.sol\":3757:3772  Candidates[num] */\n      0x00\n        /* \"contracts/Vote.sol\":3768:3771  num */\n      dup4\n        /* \"contracts/Vote.sol\":3757:3772  Candidates[num] */\n      dup2\n      mstore\n      0x20\n      add\n      swap1\n      dup2\n      mstore\n      0x20\n      add\n      0x00\n      keccak256\n        /* \"contracts/Vote.sol\":3750:3772  return Candidates[num] */\n      mload(0x40)\n      dup1\n      0x60\n      add\n      0x40\n      mstore\n      swap1\n      dup2\n      0x00\n      dup3\n      add\n      dup1\n      sload\n      tag_199\n      swap1\n      tag_123\n      jump\t// in\n    tag_199:\n      dup1\n      0x1f\n      add\n      0x20\n      dup1\n      swap2\n      div\n      mul\n      0x20\n      add\n      mload(0x40)\n      swap1\n      dup2\n      add\n      0x40\n      mstore\n      dup1\n      swap3\n      swap2\n      swap1\n      dup2\n      dup2\n      mstore\n      0x20\n      add\n      dup3\n      dup1\n      sload\n      tag_200\n      swap1\n      tag_123\n      jump\t// in\n    tag_200:\n      dup1\n      iszero\n      tag_201\n      jumpi\n      dup1\n      0x1f\n      lt\n      tag_202\n      jumpi\n      0x0100\n      dup1\n      dup4\n      sload\n      div\n      mul\n      dup4\n      mstore\n      swap2\n      0x20\n      add\n      swap2\n      jump(tag_201)\n    tag_202:\n      dup3\n      add\n      swap2\n      swap1\n      0x00\n      mstore\n      keccak256(0x00, 0x20)\n      swap1\n    tag_203:\n      dup2\n      sload\n      dup2\n      mstore\n      swap1\n      0x01\n      add\n      swap1\n      0x20\n      add\n      dup1\n      dup4\n      gt\n      tag_203\n      jumpi\n      dup3\n      swap1\n      sub\n      0x1f\n      and\n      dup3\n      add\n      swap2\n    tag_201:\n      pop\n      pop\n      pop\n      pop\n      pop\n      dup2\n      mstore\n      0x20\n      add\n      0x01\n      dup3\n      add\n      0x00\n      swap1\n      sload\n      swap1\n      0x0100\n      exp\n      swap1\n      div\n      0xffffffffffffffffffffffffffffffffffffffff\n      and\n      0xffffffffffffffffffffffffffffffffffffffff\n      and\n      0xffffffffffffffffffffffffffffffffffffffff\n      and\n      dup2\n      mstore\n      0x20\n      add\n      0x02\n      dup3\n      add\n      dup1\n      sload\n      tag_204\n      swap1\n      tag_123\n      jump\t// in\n    tag_204:\n      dup1\n      0x1f\n      add\n      0x20\n      dup1\n      swap2\n      div\n      mul\n      0x20\n      add\n      mload(0x40)\n      swap1\n      dup2\n      add\n      0x40\n      mstore\n      dup1\n      swap3\n      swap2\n      swap1\n      dup2\n      dup2\n      mstore\n      0x20\n      add\n      dup3\n      dup1\n      sload\n      tag_205\n      swap1\n      tag_123\n      jump\t// in\n    tag_205:\n      dup1\n      iszero\n      tag_206\n      jumpi\n      dup1\n      0x1f\n      lt\n      tag_207\n      jumpi\n      0x0100\n      dup1\n      dup4\n      sload\n      div\n      mul\n      dup4\n      mstore\n      swap2\n      0x20\n      add\n      swap2\n      jump(tag_206)\n    tag_207:\n      dup3\n      add\n      swap2\n      swap1\n      0x00\n      mstore\n      keccak256(0x00, 0x20)\n      swap1\n    tag_208:\n      dup2\n      sload\n      dup2\n      mstore\n      swap1\n      0x01\n      add\n      swap1\n      0x20\n      add\n      dup1\n      dup4\n      gt\n      tag_208\n      jumpi\n      dup3\n      swap1\n      sub\n      0x1f\n      and\n      dup3\n      add\n      swap2\n    tag_206:\n      pop\n      pop\n      pop\n      pop\n      pop\n      dup2\n      mstore\n      pop\n      pop\n      swap1\n      pop\n        /* \"contracts/Vote.sol\":3662:3779  function retrieveCandidate(uint256 num) public view returns (candidate memory){... */\n      swap2\n      swap1\n      pop\n      jump\t// out\n        /* \"@openzeppelin/contracts/access/AccessControl.sol\":2027:2076  bytes32 public constant DEFAULT_ADMIN_ROLE = 0x00 */\n    tag_95:\n        /* \"@openzeppelin/contracts/access/AccessControl.sol\":2072:2076  0x00 */\n      0x00\n        /* \"@openzeppelin/contracts/access/AccessControl.sol\":2027:2076  bytes32 public constant DEFAULT_ADMIN_ROLE = 0x00 */\n      dup1\n      shl\n      dup2\n      jump\t// out\n        /* \"contracts/Vote.sol\":586:641  bytes32 public constant VOTER_ROLE = keccak256(\"VOTER\") */\n    tag_98:\n        /* \"contracts/Vote.sol\":623:641  keccak256(\"VOTER\") */\n      0x15283fd96aa656c9df35ac2fcb112678a5f24f1ca97e591a97d1d16003dbfc9c\n        /* \"contracts/Vote.sol\":586:641  bytes32 public constant VOTER_ROLE = keccak256(\"VOTER\") */\n      dup2\n      jump\t// out\n        /* \"@openzeppelin/contracts/access/AccessControl.sol\":5241:5388  function revokeRole(bytes32 role, address account) public virtual override onlyRole(getRoleAdmin(role)) {... */\n    tag_102:\n        /* \"@openzeppelin/contracts/access/AccessControl.sol\":5325:5343  getRoleAdmin(role) */\n      tag_209\n        /* \"@openzeppelin/contracts/access/AccessControl.sol\":5338:5342  role */\n      dup3\n        /* \"@openzeppelin/contracts/access/AccessControl.sol\":5325:5337  getRoleAdmin */\n      tag_37\n        /* \"@openzeppelin/contracts/access/AccessControl.sol\":5325:5343  getRoleAdmin(role) */\n      jump\t// in\n    tag_209:\n        /* \"@openzeppelin/contracts/access/AccessControl.sol\":2505:2521  _checkRole(role) */\n      tag_211\n        /* \"@openzeppelin/contracts/access/AccessControl.sol\":2516:2520  role */\n      dup2\n        /* \"@openzeppelin/contracts/access/AccessControl.sol\":2505:2515  _checkRole */\n      tag_136\n        /* \"@openzeppelin/contracts/access/AccessControl.sol\":2505:2521  _checkRole(role) */\n      jump\t// in\n    tag_211:\n        /* \"@openzeppelin/contracts/access/AccessControl.sol\":5355:5381  _revokeRole(role, account) */\n      tag_213\n        /* \"@openzeppelin/contracts/access/AccessControl.sol\":5367:5371  role */\n      dup4\n        /* \"@openzeppelin/contracts/access/AccessControl.sol\":5373:5380  account */\n      dup4\n        /* \"@openzeppelin/contracts/access/AccessControl.sol\":5355:5366  _revokeRole */\n      tag_154\n        /* \"@openzeppelin/contracts/access/AccessControl.sol\":5355:5381  _revokeRole(role, account) */\n      jump\t// in\n    tag_213:\n        /* \"@openzeppelin/contracts/access/AccessControl.sol\":5241:5388  function revokeRole(bytes32 role, address account) public virtual override onlyRole(getRoleAdmin(role)) {... */\n      pop\n      pop\n      pop\n      jump\t// out\n        /* \"contracts/Vote.sol\":2367:2666  function createCandidate(string memory name, address candAddress, uint256 partyNum) public isInecExec {... */\n    tag_106:\n        /* \"contracts/Vote.sol\":1521:1556  hasRole(INEC_EXEC_ROLE, msg.sender) */\n      tag_215\n        /* \"contracts/Vote.sol\":558:580  keccak256(\"INEC_EXEC\") */\n      0x082f6ed76e0352438e6a6e35c77719c3f04bf277fdc8fec7e5ff5f65e001d902\n        /* \"contracts/Vote.sol\":1545:1555  msg.sender */\n      caller\n        /* \"contracts/Vote.sol\":1521:1528  hasRole */\n      tag_77\n        /* \"contracts/Vote.sol\":1521:1556  hasRole(INEC_EXEC_ROLE, msg.sender) */\n      jump\t// in\n    tag_215:\n        /* \"contracts/Vote.sol\":1513:1592  require(hasRole(INEC_EXEC_ROLE, msg.sender), \"Caller is not an INEC executive\") */\n      tag_216\n      jumpi\n      mload(0x40)\n      0x08c379a000000000000000000000000000000000000000000000000000000000\n      dup2\n      mstore\n      0x04\n      add\n      tag_217\n      swap1\n      tag_171\n      jump\t// in\n    tag_217:\n      mload(0x40)\n      dup1\n      swap2\n      sub\n      swap1\n      revert\n    tag_216:\n        /* \"contracts/Vote.sol\":2511:2515  name */\n      dup3\n        /* \"contracts/Vote.sol\":2479:2489  Candidates */\n      0x07\n        /* \"contracts/Vote.sol\":2479:2503  Candidates[candidateNum] */\n      0x00\n        /* \"contracts/Vote.sol\":2490:2502  candidateNum */\n      sload(0x03)\n        /* \"contracts/Vote.sol\":2479:2503  Candidates[candidateNum] */\n      dup2\n      mstore\n      0x20\n      add\n      swap1\n      dup2\n      mstore\n      0x20\n      add\n      0x00\n      keccak256\n        /* \"contracts/Vote.sol\":2479:2508  Candidates[candidateNum].name */\n      0x00\n      add\n        /* \"contracts/Vote.sol\":2479:2515  Candidates[candidateNum].name = name */\n      swap1\n      dup1\n      mload\n      swap1\n      0x20\n      add\n      swap1\n      tag_219\n      swap3\n      swap2\n      swap1\n      tag_220\n      jump\t// in\n    tag_219:\n      pop\n        /* \"contracts/Vote.sol\":2557:2568  candAddress */\n      dup2\n        /* \"contracts/Vote.sol\":2525:2535  Candidates */\n      0x07\n        /* \"contracts/Vote.sol\":2525:2549  Candidates[candidateNum] */\n      0x00\n        /* \"contracts/Vote.sol\":2536:2548  candidateNum */\n      sload(0x03)\n        /* \"contracts/Vote.sol\":2525:2549  Candidates[candidateNum] */\n      dup2\n      mstore\n      0x20\n      add\n      swap1\n      dup2\n      mstore\n      0x20\n      add\n      0x00\n      keccak256\n        /* \"contracts/Vote.sol\":2525:2554  Candidates[candidateNum].addr */\n      0x01\n      add\n      0x00\n        /* \"contracts/Vote.sol\":2525:2568  Candidates[candidateNum].addr = candAddress */\n      0x0100\n      exp\n      dup2\n      sload\n      dup2\n      0xffffffffffffffffffffffffffffffffffffffff\n      mul\n      not\n      and\n      swap1\n      dup4\n      0xffffffffffffffffffffffffffffffffffffffff\n      and\n      mul\n      or\n      swap1\n      sstore\n      pop\n        /* \"contracts/Vote.sol\":2611:2616  party */\n      0x06\n        /* \"contracts/Vote.sol\":2617:2625  partyNum */\n      dup2\n        /* \"contracts/Vote.sol\":2611:2626  party[partyNum] */\n      dup2\n      sload\n      dup2\n      lt\n      tag_221\n      jumpi\n      tag_222\n      tag_163\n      jump\t// in\n    tag_222:\n    tag_221:\n      swap1\n      0x00\n      mstore\n      keccak256(0x00, 0x20)\n      add\n        /* \"contracts/Vote.sol\":2578:2588  Candidates */\n      0x07\n        /* \"contracts/Vote.sol\":2578:2602  Candidates[candidateNum] */\n      0x00\n        /* \"contracts/Vote.sol\":2589:2601  candidateNum */\n      sload(0x03)\n        /* \"contracts/Vote.sol\":2578:2602  Candidates[candidateNum] */\n      dup2\n      mstore\n      0x20\n      add\n      swap1\n      dup2\n      mstore\n      0x20\n      add\n      0x00\n      keccak256\n        /* \"contracts/Vote.sol\":2578:2608  Candidates[candidateNum].party */\n      0x02\n      add\n        /* \"contracts/Vote.sol\":2578:2626  Candidates[candidateNum].party = party[partyNum] */\n      swap1\n      dup1\n      sload\n      tag_224\n      swap1\n      tag_123\n      jump\t// in\n    tag_224:\n      tag_225\n      swap3\n      swap2\n      swap1\n      tag_226\n      jump\t// in\n    tag_225:\n      pop\n        /* \"contracts/Vote.sol\":2638:2650  candidateNum */\n      0x03\n      0x00\n        /* \"contracts/Vote.sol\":2638:2653  candidateNum ++ */\n      dup2\n      sload\n      dup1\n      swap3\n      swap2\n      swap1\n      tag_227\n      swap1\n      tag_166\n      jump\t// in\n    tag_227:\n      swap2\n      swap1\n      pop\n      sstore\n      pop\n        /* \"contracts/Vote.sol\":2367:2666  function createCandidate(string memory name, address candAddress, uint256 partyNum) public isInecExec {... */\n      pop\n      pop\n      pop\n      jump\t// out\n        /* \"contracts/Vote.sol\":2764:2936  function regVoter(uint256 _nin) public {... */\n    tag_109:\n        /* \"contracts/Vote.sol\":2837:2847  msg.sender */\n      caller\n        /* \"contracts/Vote.sol\":2813:2819  Voters */\n      0x08\n        /* \"contracts/Vote.sol\":2813:2829  Voters[voterNum] */\n      0x00\n        /* \"contracts/Vote.sol\":2820:2828  voterNum */\n      sload(0x04)\n        /* \"contracts/Vote.sol\":2813:2829  Voters[voterNum] */\n      dup2\n      mstore\n      0x20\n      add\n      swap1\n      dup2\n      mstore\n      0x20\n      add\n      0x00\n      keccak256\n        /* \"contracts/Vote.sol\":2813:2834  Voters[voterNum].addr */\n      0x00\n      add\n      0x00\n        /* \"contracts/Vote.sol\":2813:2847  Voters[voterNum].addr = msg.sender */\n      0x0100\n      exp\n      dup2\n      sload\n      dup2\n      0xffffffffffffffffffffffffffffffffffffffff\n      mul\n      not\n      and\n      swap1\n      dup4\n      0xffffffffffffffffffffffffffffffffffffffff\n      and\n      mul\n      or\n      swap1\n      sstore\n      pop\n        /* \"contracts/Vote.sol\":2880:2884  _nin */\n      dup1\n        /* \"contracts/Vote.sol\":2857:2863  Voters */\n      0x08\n        /* \"contracts/Vote.sol\":2857:2873  Voters[voterNum] */\n      0x00\n        /* \"contracts/Vote.sol\":2864:2872  voterNum */\n      sload(0x04)\n        /* \"contracts/Vote.sol\":2857:2873  Voters[voterNum] */\n      dup2\n      mstore\n      0x20\n      add\n      swap1\n      dup2\n      mstore\n      0x20\n      add\n      0x00\n      keccak256\n        /* \"contracts/Vote.sol\":2857:2877  Voters[voterNum].nin */\n      0x01\n      add\n        /* \"contracts/Vote.sol\":2857:2884  Voters[voterNum].nin = _nin */\n      dup2\n      swap1\n      sstore\n      pop\n        /* \"contracts/Vote.sol\":2895:2929  _setupRole(VOTER_ROLE, msg.sender) */\n      tag_229\n        /* \"contracts/Vote.sol\":623:641  keccak256(\"VOTER\") */\n      0x15283fd96aa656c9df35ac2fcb112678a5f24f1ca97e591a97d1d16003dbfc9c\n        /* \"contracts/Vote.sol\":2918:2928  msg.sender */\n      caller\n        /* \"contracts/Vote.sol\":2895:2905  _setupRole */\n      tag_230\n        /* \"contracts/Vote.sol\":2895:2929  _setupRole(VOTER_ROLE, msg.sender) */\n      jump\t// in\n    tag_229:\n        /* \"contracts/Vote.sol\":2764:2936  function regVoter(uint256 _nin) public {... */\n      pop\n      jump\t// out\n        /* \"contracts/Vote.sol\":2047:2157  function createInecExec(address _account) public onlyOwner{... */\n    tag_113:\n        /* \"@openzeppelin/contracts/access/Ownable.sol\":1094:1107  _checkOwner() */\n      tag_232\n        /* \"@openzeppelin/contracts/access/Ownable.sol\":1094:1105  _checkOwner */\n      tag_183\n        /* \"@openzeppelin/contracts/access/Ownable.sol\":1094:1107  _checkOwner() */\n      jump\t// in\n    tag_232:\n        /* \"contracts/Vote.sol\":2115:2150  grantRole(INEC_EXEC_ROLE, _account) */\n      tag_234\n        /* \"contracts/Vote.sol\":558:580  keccak256(\"INEC_EXEC\") */\n      0x082f6ed76e0352438e6a6e35c77719c3f04bf277fdc8fec7e5ff5f65e001d902\n        /* \"contracts/Vote.sol\":2141:2149  _account */\n      dup3\n        /* \"contracts/Vote.sol\":2115:2124  grantRole */\n      tag_52\n        /* \"contracts/Vote.sol\":2115:2150  grantRole(INEC_EXEC_ROLE, _account) */\n      jump\t// in\n    tag_234:\n        /* \"contracts/Vote.sol\":2047:2157  function createInecExec(address _account) public onlyOwner{... */\n      pop\n      jump\t// out\n        /* \"@openzeppelin/contracts/access/Ownable.sol\":2081:2279  function transferOwnership(address newOwner) public virtual onlyOwner {... */\n    tag_116:\n        /* \"@openzeppelin/contracts/access/Ownable.sol\":1094:1107  _checkOwner() */\n      tag_236\n        /* \"@openzeppelin/contracts/access/Ownable.sol\":1094:1105  _checkOwner */\n      tag_183\n        /* \"@openzeppelin/contracts/access/Ownable.sol\":1094:1107  _checkOwner() */\n      jump\t// in\n    tag_236:\n        /* \"@openzeppelin/contracts/access/Ownable.sol\":2189:2190  0 */\n      0x00\n        /* \"@openzeppelin/contracts/access/Ownable.sol\":2169:2191  newOwner != address(0) */\n      0xffffffffffffffffffffffffffffffffffffffff\n      and\n        /* \"@openzeppelin/contracts/access/Ownable.sol\":2169:2177  newOwner */\n      dup2\n        /* \"@openzeppelin/contracts/access/Ownable.sol\":2169:2191  newOwner != address(0) */\n      0xffffffffffffffffffffffffffffffffffffffff\n      and\n      eq\n      iszero\n        /* \"@openzeppelin/contracts/access/Ownable.sol\":2161:2234  require(newOwner != address(0), \"Ownable: new owner is the zero address\") */\n      tag_238\n      jumpi\n      mload(0x40)\n      0x08c379a000000000000000000000000000000000000000000000000000000000\n      dup2\n      mstore\n      0x04\n      add\n      tag_239\n      swap1\n      tag_240\n      jump\t// in\n    tag_239:\n      mload(0x40)\n      dup1\n      swap2\n      sub\n      swap1\n      revert\n    tag_238:\n        /* \"@openzeppelin/contracts/access/Ownable.sol\":2244:2272  _transferOwnership(newOwner) */\n      tag_241\n        /* \"@openzeppelin/contracts/access/Ownable.sol\":2263:2271  newOwner */\n      dup2\n        /* \"@openzeppelin/contracts/access/Ownable.sol\":2244:2262  _transferOwnership */\n      tag_186\n        /* \"@openzeppelin/contracts/access/Ownable.sol\":2244:2272  _transferOwnership(newOwner) */\n      jump\t// in\n    tag_241:\n        /* \"@openzeppelin/contracts/access/Ownable.sol\":2081:2279  function transferOwnership(address newOwner) public virtual onlyOwner {... */\n      pop\n      jump\t// out\n        /* \"@openzeppelin/contracts/utils/introspection/ERC165.sol\":829:984  function supportsInterface(bytes4 interfaceId) public view virtual override returns (bool) {... */\n    tag_120:\n        /* \"@openzeppelin/contracts/utils/introspection/ERC165.sol\":914:918  bool */\n      0x00\n        /* \"@openzeppelin/contracts/utils/introspection/ERC165.sol\":952:977  type(IERC165).interfaceId */\n      0x01ffc9a700000000000000000000000000000000000000000000000000000000\n        /* \"@openzeppelin/contracts/utils/introspection/ERC165.sol\":937:977  interfaceId == type(IERC165).interfaceId */\n      not(0xffffffffffffffffffffffffffffffffffffffffffffffffffffffff)\n      and\n        /* \"@openzeppelin/contracts/utils/introspection/ERC165.sol\":937:948  interfaceId */\n      dup3\n        /* \"@openzeppelin/contracts/utils/introspection/ERC165.sol\":937:977  interfaceId == type(IERC165).interfaceId */\n      not(0xffffffffffffffffffffffffffffffffffffffffffffffffffffffff)\n      and\n      eq\n        /* \"@openzeppelin/contracts/utils/introspection/ERC165.sol\":930:977  return interfaceId == type(IERC165).interfaceId */\n      swap1\n      pop\n        /* \"@openzeppelin/contracts/utils/introspection/ERC165.sol\":829:984  function supportsInterface(bytes4 interfaceId) public view virtual override returns (bool) {... */\n      swap2\n      swap1\n      pop\n      jump\t// out\n        /* \"@openzeppelin/contracts/access/AccessControl.sol\":3334:3437  function _checkRole(bytes32 role) internal view virtual {... */\n    tag_136:\n        /* \"@openzeppelin/contracts/access/AccessControl.sol\":3400:3430  _checkRole(role, _msgSender()) */\n      tag_244\n        /* \"@openzeppelin/contracts/access/AccessControl.sol\":3411:3415  role */\n      dup2\n        /* \"@openzeppelin/contracts/access/AccessControl.sol\":3417:3429  _msgSender() */\n      tag_245\n        /* \"@openzeppelin/contracts/access/AccessControl.sol\":3417:3427  _msgSender */\n      tag_149\n        /* \"@openzeppelin/contracts/access/AccessControl.sol\":3417:3429  _msgSender() */\n      jump\t// in\n    tag_245:\n        /* \"@openzeppelin/contracts/access/AccessControl.sol\":3400:3410  _checkRole */\n      tag_246\n        /* \"@openzeppelin/contracts/access/AccessControl.sol\":3400:3430  _checkRole(role, _msgSender()) */\n      jump\t// in\n    tag_244:\n        /* \"@openzeppelin/contracts/access/AccessControl.sol\":3334:3437  function _checkRole(bytes32 role) internal view virtual {... */\n      pop\n      jump\t// out\n        /* \"@openzeppelin/contracts/access/AccessControl.sol\":7474:7707  function _grantRole(bytes32 role, address account) internal virtual {... */\n    tag_139:\n        /* \"@openzeppelin/contracts/access/AccessControl.sol\":7557:7579  hasRole(role, account) */\n      tag_248\n        /* \"@openzeppelin/contracts/access/AccessControl.sol\":7565:7569  role */\n      dup3\n        /* \"@openzeppelin/contracts/access/AccessControl.sol\":7571:7578  account */\n      dup3\n        /* \"@openzeppelin/contracts/access/AccessControl.sol\":7557:7564  hasRole */\n      tag_77\n        /* \"@openzeppelin/contracts/access/AccessControl.sol\":7557:7579  hasRole(role, account) */\n      jump\t// in\n    tag_248:\n        /* \"@openzeppelin/contracts/access/AccessControl.sol\":7552:7701  if (!hasRole(role, account)) {... */\n      tag_249\n      jumpi\n        /* \"@openzeppelin/contracts/access/AccessControl.sol\":7627:7631  true */\n      0x01\n        /* \"@openzeppelin/contracts/access/AccessControl.sol\":7595:7601  _roles */\n      dup1\n        /* \"@openzeppelin/contracts/access/AccessControl.sol\":7595:7607  _roles[role] */\n      0x00\n        /* \"@openzeppelin/contracts/access/AccessControl.sol\":7602:7606  role */\n      dup5\n        /* \"@openzeppelin/contracts/access/AccessControl.sol\":7595:7607  _roles[role] */\n      dup2\n      mstore\n      0x20\n      add\n      swap1\n      dup2\n      mstore\n      0x20\n      add\n      0x00\n      keccak256\n        /* \"@openzeppelin/contracts/access/AccessControl.sol\":7595:7615  _roles[role].members */\n      0x00\n      add\n        /* \"@openzeppelin/contracts/access/AccessControl.sol\":7595:7624  _roles[role].members[account] */\n      0x00\n        /* \"@openzeppelin/contracts/access/AccessControl.sol\":7616:7623  account */\n      dup4\n        /* \"@openzeppelin/contracts/access/AccessControl.sol\":7595:7624  _roles[role].members[account] */\n      0xffffffffffffffffffffffffffffffffffffffff\n      and\n      0xffffffffffffffffffffffffffffffffffffffff\n      and\n      dup2\n      mstore\n      0x20\n      add\n      swap1\n      dup2\n      mstore\n      0x20\n      add\n      0x00\n      keccak256\n      0x00\n        /* \"@openzeppelin/contracts/access/AccessControl.sol\":7595:7631  _roles[role].members[account] = true */\n      0x0100\n      exp\n      dup2\n      sload\n      dup2\n      0xff\n      mul\n      not\n      and\n      swap1\n      dup4\n      iszero\n      iszero\n      mul\n      or\n      swap1\n      sstore\n      pop\n        /* \"@openzeppelin/contracts/access/AccessControl.sol\":7677:7689  _msgSender() */\n      tag_250\n        /* \"@openzeppelin/contracts/access/AccessControl.sol\":7677:7687  _msgSender */\n      tag_149\n        /* \"@openzeppelin/contracts/access/AccessControl.sol\":7677:7689  _msgSender() */\n      jump\t// in\n    tag_250:\n        /* \"@openzeppelin/contracts/access/AccessControl.sol\":7650:7690  RoleGranted(role, account, _msgSender()) */\n      0xffffffffffffffffffffffffffffffffffffffff\n      and\n        /* \"@openzeppelin/contracts/access/AccessControl.sol\":7668:7675  account */\n      dup2\n        /* \"@openzeppelin/contracts/access/AccessControl.sol\":7650:7690  RoleGranted(role, account, _msgSender()) */\n      0xffffffffffffffffffffffffffffffffffffffff\n      and\n        /* \"@openzeppelin/contracts/access/AccessControl.sol\":7662:7666  role */\n      dup4\n        /* \"@openzeppelin/contracts/access/AccessControl.sol\":7650:7690  RoleGranted(role, account, _msgSender()) */\n      0x2f8788117e7eff1d82e926ec794901d17c78024a50270940304540a733656f0d\n      mload(0x40)\n      mload(0x40)\n      dup1\n      swap2\n      sub\n      swap1\n      log4\n        /* \"@openzeppelin/contracts/access/AccessControl.sol\":7552:7701  if (!hasRole(role, account)) {... */\n    tag_249:\n        /* \"@openzeppelin/contracts/access/AccessControl.sol\":7474:7707  function _grantRole(bytes32 role, address account) internal virtual {... */\n      pop\n      pop\n      jump\t// out\n        /* \"@openzeppelin/contracts/utils/Context.sol\":640:736  function _msgSender() internal view virtual returns (address) {... */\n    tag_149:\n        /* \"@openzeppelin/contracts/utils/Context.sol\":693:700  address */\n      0x00\n        /* \"@openzeppelin/contracts/utils/Context.sol\":719:729  msg.sender */\n      caller\n        /* \"@openzeppelin/contracts/utils/Context.sol\":712:729  return msg.sender */\n      swap1\n      pop\n        /* \"@openzeppelin/contracts/utils/Context.sol\":640:736  function _msgSender() internal view virtual returns (address) {... */\n      swap1\n      jump\t// out\n        /* \"@openzeppelin/contracts/access/AccessControl.sol\":7878:8112  function _revokeRole(bytes32 role, address account) internal virtual {... */\n    tag_154:\n        /* \"@openzeppelin/contracts/access/AccessControl.sol\":7961:7983  hasRole(role, account) */\n      tag_253\n        /* \"@openzeppelin/contracts/access/AccessControl.sol\":7969:7973  role */\n      dup3\n        /* \"@openzeppelin/contracts/access/AccessControl.sol\":7975:7982  account */\n      dup3\n        /* \"@openzeppelin/contracts/access/AccessControl.sol\":7961:7968  hasRole */\n      tag_77\n        /* \"@openzeppelin/contracts/access/AccessControl.sol\":7961:7983  hasRole(role, account) */\n      jump\t// in\n    tag_253:\n        /* \"@openzeppelin/contracts/access/AccessControl.sol\":7957:8106  if (hasRole(role, account)) {... */\n      iszero\n      tag_254\n      jumpi\n        /* \"@openzeppelin/contracts/access/AccessControl.sol\":8031:8036  false */\n      0x00\n        /* \"@openzeppelin/contracts/access/AccessControl.sol\":7999:8005  _roles */\n      0x01\n        /* \"@openzeppelin/contracts/access/AccessControl.sol\":7999:8011  _roles[role] */\n      0x00\n        /* \"@openzeppelin/contracts/access/AccessControl.sol\":8006:8010  role */\n      dup5\n        /* \"@openzeppelin/contracts/access/AccessControl.sol\":7999:8011  _roles[role] */\n      dup2\n      mstore\n      0x20\n      add\n      swap1\n      dup2\n      mstore\n      0x20\n      add\n      0x00\n      keccak256\n        /* \"@openzeppelin/contracts/access/AccessControl.sol\":7999:8019  _roles[role].members */\n      0x00\n      add\n        /* \"@openzeppelin/contracts/access/AccessControl.sol\":7999:8028  _roles[role].members[account] */\n      0x00\n        /* \"@openzeppelin/contracts/access/AccessControl.sol\":8020:8027  account */\n      dup4\n        /* \"@openzeppelin/contracts/access/AccessControl.sol\":7999:8028  _roles[role].members[account] */\n      0xffffffffffffffffffffffffffffffffffffffff\n      and\n      0xffffffffffffffffffffffffffffffffffffffff\n      and\n      dup2\n      mstore\n      0x20\n      add\n      swap1\n      dup2\n      mstore\n      0x20\n      add\n      0x00\n      keccak256\n      0x00\n        /* \"@openzeppelin/contracts/access/AccessControl.sol\":7999:8036  _roles[role].members[account] = false */\n      0x0100\n      exp\n      dup2\n      sload\n      dup2\n      0xff\n      mul\n      not\n      and\n      swap1\n      dup4\n      iszero\n      iszero\n      mul\n      or\n      swap1\n      sstore\n      pop\n        /* \"@openzeppelin/contracts/access/AccessControl.sol\":8082:8094  _msgSender() */\n      tag_255\n        /* \"@openzeppelin/contracts/access/AccessControl.sol\":8082:8092  _msgSender */\n      tag_149\n        /* \"@openzeppelin/contracts/access/AccessControl.sol\":8082:8094  _msgSender() */\n      jump\t// in\n    tag_255:\n        /* \"@openzeppelin/contracts/access/AccessControl.sol\":8055:8095  RoleRevoked(role, account, _msgSender()) */\n      0xffffffffffffffffffffffffffffffffffffffff\n      and\n        /* \"@openzeppelin/contracts/access/AccessControl.sol\":8073:8080  account */\n      dup2\n        /* \"@openzeppelin/contracts/access/AccessControl.sol\":8055:8095  RoleRevoked(role, account, _msgSender()) */\n      0xffffffffffffffffffffffffffffffffffffffff\n      and\n        /* \"@openzeppelin/contracts/access/AccessControl.sol\":8067:8071  role */\n      dup4\n        /* \"@openzeppelin/contracts/access/AccessControl.sol\":8055:8095  RoleRevoked(role, account, _msgSender()) */\n      0xf6391f5c32d9c69d2a47ea670b442974b53935d1edc7fd64eb21e047a839171b\n      mload(0x40)\n      mload(0x40)\n      dup1\n      swap2\n      sub\n      swap1\n      log4\n        /* \"@openzeppelin/contracts/access/AccessControl.sol\":7957:8106  if (hasRole(role, account)) {... */\n    tag_254:\n        /* \"@openzeppelin/contracts/access/AccessControl.sol\":7878:8112  function _revokeRole(bytes32 role, address account) internal virtual {... */\n      pop\n      pop\n      jump\t// out\n        /* \"@openzeppelin/contracts/access/Ownable.sol\":1359:1489  function _checkOwner() internal view virtual {... */\n    tag_183:\n        /* \"@openzeppelin/contracts/access/Ownable.sol\":1433:1445  _msgSender() */\n      tag_257\n        /* \"@openzeppelin/contracts/access/Ownable.sol\":1433:1443  _msgSender */\n      tag_149\n        /* \"@openzeppelin/contracts/access/Ownable.sol\":1433:1445  _msgSender() */\n      jump\t// in\n    tag_257:\n        /* \"@openzeppelin/contracts/access/Ownable.sol\":1422:1445  owner() == _msgSender() */\n      0xffffffffffffffffffffffffffffffffffffffff\n      and\n        /* \"@openzeppelin/contracts/access/Ownable.sol\":1422:1429  owner() */\n      tag_258\n        /* \"@openzeppelin/contracts/access/Ownable.sol\":1422:1427  owner */\n      tag_72\n        /* \"@openzeppelin/contracts/access/Ownable.sol\":1422:1429  owner() */\n      jump\t// in\n    tag_258:\n        /* \"@openzeppelin/contracts/access/Ownable.sol\":1422:1445  owner() == _msgSender() */\n      0xffffffffffffffffffffffffffffffffffffffff\n      and\n      eq\n        /* \"@openzeppelin/contracts/access/Ownable.sol\":1414:1482  require(owner() == _msgSender(), \"Ownable: caller is not the owner\") */\n      tag_259\n      jumpi\n      mload(0x40)\n      0x08c379a000000000000000000000000000000000000000000000000000000000\n      dup2\n      mstore\n      0x04\n      add\n      tag_260\n      swap1\n      tag_261\n      jump\t// in\n    tag_260:\n      mload(0x40)\n      dup1\n      swap2\n      sub\n      swap1\n      revert\n    tag_259:\n        /* \"@openzeppelin/contracts/access/Ownable.sol\":1359:1489  function _checkOwner() internal view virtual {... */\n      jump\t// out\n        /* \"@openzeppelin/contracts/access/Ownable.sol\":2433:2620  function _transferOwnership(address newOwner) internal virtual {... */\n    tag_186:\n        /* \"@openzeppelin/contracts/access/Ownable.sol\":2506:2522  address oldOwner */\n      0x00\n        /* \"@openzeppelin/contracts/access/Ownable.sol\":2525:2531  _owner */\n      dup1\n      0x00\n      swap1\n      sload\n      swap1\n      0x0100\n      exp\n      swap1\n      div\n      0xffffffffffffffffffffffffffffffffffffffff\n      and\n        /* \"@openzeppelin/contracts/access/Ownable.sol\":2506:2531  address oldOwner = _owner */\n      swap1\n      pop\n        /* \"@openzeppelin/contracts/access/Ownable.sol\":2550:2558  newOwner */\n      dup2\n        /* \"@openzeppelin/contracts/access/Ownable.sol\":2541:2547  _owner */\n      0x00\n      dup1\n        /* \"@openzeppelin/contracts/access/Ownable.sol\":2541:2558  _owner = newOwner */\n      0x0100\n      exp\n      dup2\n      sload\n      dup2\n      0xffffffffffffffffffffffffffffffffffffffff\n      mul\n      not\n      and\n      swap1\n      dup4\n      0xffffffffffffffffffffffffffffffffffffffff\n      and\n      mul\n      or\n      swap1\n      sstore\n      pop\n        /* \"@openzeppelin/contracts/access/Ownable.sol\":2604:2612  newOwner */\n      dup2\n        /* \"@openzeppelin/contracts/access/Ownable.sol\":2573:2613  OwnershipTransferred(oldOwner, newOwner) */\n      0xffffffffffffffffffffffffffffffffffffffff\n      and\n        /* \"@openzeppelin/contracts/access/Ownable.sol\":2594:2602  oldOwner */\n      dup2\n        /* \"@openzeppelin/contracts/access/Ownable.sol\":2573:2613  OwnershipTransferred(oldOwner, newOwner) */\n      0xffffffffffffffffffffffffffffffffffffffff\n      and\n      0x8be0079c531659141344cd1fd0a4f28419497f9722a3daafe3b4186f6b6457e0\n      mload(0x40)\n      mload(0x40)\n      dup1\n      swap2\n      sub\n      swap1\n      log3\n        /* \"@openzeppelin/contracts/access/Ownable.sol\":2496:2620  {... */\n      pop\n        /* \"@openzeppelin/contracts/access/Ownable.sol\":2433:2620  function _transferOwnership(address newOwner) internal virtual {... */\n      pop\n      jump\t// out\n        /* \"@openzeppelin/contracts/access/AccessControl.sol\":6824:6934  function _setupRole(bytes32 role, address account) internal virtual {... */\n    tag_230:\n        /* \"@openzeppelin/contracts/access/AccessControl.sol\":6902:6927  _grantRole(role, account) */\n      tag_264\n        /* \"@openzeppelin/contracts/access/AccessControl.sol\":6913:6917  role */\n      dup3\n        /* \"@openzeppelin/contracts/access/AccessControl.sol\":6919:6926  account */\n      dup3\n        /* \"@openzeppelin/contracts/access/AccessControl.sol\":6902:6912  _grantRole */\n      tag_139\n        /* \"@openzeppelin/contracts/access/AccessControl.sol\":6902:6927  _grantRole(role, account) */\n      jump\t// in\n    tag_264:\n        /* \"@openzeppelin/contracts/access/AccessControl.sol\":6824:6934  function _setupRole(bytes32 role, address account) internal virtual {... */\n      pop\n      pop\n      jump\t// out\n        /* \"@openzeppelin/contracts/access/AccessControl.sol\":3718:4210  function _checkRole(bytes32 role, address account) internal view virtual {... */\n    tag_246:\n        /* \"@openzeppelin/contracts/access/AccessControl.sol\":3806:3828  hasRole(role, account) */\n      tag_266\n        /* \"@openzeppelin/contracts/access/AccessControl.sol\":3814:3818  role */\n      dup3\n        /* \"@openzeppelin/contracts/access/AccessControl.sol\":3820:3827  account */\n      dup3\n        /* \"@openzeppelin/contracts/access/AccessControl.sol\":3806:3813  hasRole */\n      tag_77\n        /* \"@openzeppelin/contracts/access/AccessControl.sol\":3806:3828  hasRole(role, account) */\n      jump\t// in\n    tag_266:\n        /* \"@openzeppelin/contracts/access/AccessControl.sol\":3801:4204  if (!hasRole(role, account)) {... */\n      tag_267\n      jumpi\n        /* \"@openzeppelin/contracts/access/AccessControl.sol\":3989:4030  Strings.toHexString(uint160(account), 20) */\n      tag_268\n        /* \"@openzeppelin/contracts/access/AccessControl.sol\":4017:4024  account */\n      dup2\n        /* \"@openzeppelin/contracts/access/AccessControl.sol\":3989:4030  Strings.toHexString(uint160(account), 20) */\n      0xffffffffffffffffffffffffffffffffffffffff\n      and\n        /* \"@openzeppelin/contracts/access/AccessControl.sol\":4027:4029  20 */\n      0x14\n        /* \"@openzeppelin/contracts/access/AccessControl.sol\":3989:4008  Strings.toHexString */\n      tag_269\n        /* \"@openzeppelin/contracts/access/AccessControl.sol\":3989:4030  Strings.toHexString(uint160(account), 20) */\n      jump\t// in\n    tag_268:\n        /* \"@openzeppelin/contracts/access/AccessControl.sol\":4101:4139  Strings.toHexString(uint256(role), 32) */\n      tag_270\n        /* \"@openzeppelin/contracts/access/AccessControl.sol\":4129:4133  role */\n      dup4\n        /* \"@openzeppelin/contracts/access/AccessControl.sol\":4121:4134  uint256(role) */\n      0x00\n      shr\n        /* \"@openzeppelin/contracts/access/AccessControl.sol\":4136:4138  32 */\n      0x20\n        /* \"@openzeppelin/contracts/access/AccessControl.sol\":4101:4120  Strings.toHexString */\n      tag_269\n        /* \"@openzeppelin/contracts/access/AccessControl.sol\":4101:4139  Strings.toHexString(uint256(role), 32) */\n      jump\t// in\n    tag_270:\n        /* \"@openzeppelin/contracts/access/AccessControl.sol\":3896:4161  abi.encodePacked(... */\n      add(0x20, mload(0x40))\n      tag_271\n      swap3\n      swap2\n      swap1\n      tag_272\n      jump\t// in\n    tag_271:\n      mload(0x40)\n      0x20\n      dup2\n      dup4\n      sub\n      sub\n      dup2\n      mstore\n      swap1\n      0x40\n      mstore\n        /* \"@openzeppelin/contracts/access/AccessControl.sol\":3844:4193  revert(... */\n      mload(0x40)\n      0x08c379a000000000000000000000000000000000000000000000000000000000\n      dup2\n      mstore\n      0x04\n      add\n      tag_273\n      swap2\n      swap1\n      tag_57\n      jump\t// in\n    tag_273:\n      mload(0x40)\n      dup1\n      swap2\n      sub\n      swap1\n      revert\n        /* \"@openzeppelin/contracts/access/AccessControl.sol\":3801:4204  if (!hasRole(role, account)) {... */\n    tag_267:\n        /* \"@openzeppelin/contracts/access/AccessControl.sol\":3718:4210  function _checkRole(bytes32 role, address account) internal view virtual {... */\n      pop\n      pop\n      jump\t// out\n        /* \"@openzeppelin/contracts/utils/Strings.sol\":1652:2093  function toHexString(uint256 value, uint256 length) internal pure returns (string memory) {... */\n    tag_269:\n        /* \"@openzeppelin/contracts/utils/Strings.sol\":1727:1740  string memory */\n      0x60\n        /* \"@openzeppelin/contracts/utils/Strings.sol\":1752:1771  bytes memory buffer */\n      0x00\n        /* \"@openzeppelin/contracts/utils/Strings.sol\":1797:1798  2 */\n      0x02\n        /* \"@openzeppelin/contracts/utils/Strings.sol\":1788:1794  length */\n      dup4\n        /* \"@openzeppelin/contracts/utils/Strings.sol\":1784:1785  2 */\n      0x02\n        /* \"@openzeppelin/contracts/utils/Strings.sol\":1784:1794  2 * length */\n      tag_275\n      swap2\n      swap1\n      tag_276\n      jump\t// in\n    tag_275:\n        /* \"@openzeppelin/contracts/utils/Strings.sol\":1784:1798  2 * length + 2 */\n      tag_277\n      swap2\n      swap1\n      tag_278\n      jump\t// in\n    tag_277:\n        /* \"@openzeppelin/contracts/utils/Strings.sol\":1774:1799  new bytes(2 * length + 2) */\n      0xffffffffffffffff\n      dup2\n      gt\n      iszero\n      tag_279\n      jumpi\n      tag_280\n      tag_281\n      jump\t// in\n    tag_280:\n    tag_279:\n      mload(0x40)\n      swap1\n      dup1\n      dup3\n      mstore\n      dup1\n      0x1f\n      add\n      not(0x1f)\n      and\n      0x20\n      add\n      dup3\n      add\n      0x40\n      mstore\n      dup1\n      iszero\n      tag_282\n      jumpi\n      dup2\n      0x20\n      add\n      0x01\n      dup3\n      mul\n      dup1\n      calldatasize\n      dup4\n      calldatacopy\n      dup1\n      dup3\n      add\n      swap2\n      pop\n      pop\n      swap1\n      pop\n    tag_282:\n      pop\n        /* \"@openzeppelin/contracts/utils/Strings.sol\":1752:1799  bytes memory buffer = new bytes(2 * length + 2) */\n      swap1\n      pop\n        /* \"@openzeppelin/contracts/utils/Strings.sol\":1809:1824  buffer[0] = \"0\" */\n      0x3000000000000000000000000000000000000000000000000000000000000000\n        /* \"@openzeppelin/contracts/utils/Strings.sol\":1809:1815  buffer */\n      dup2\n        /* \"@openzeppelin/contracts/utils/Strings.sol\":1816:1817  0 */\n      0x00\n        /* \"@openzeppelin/contracts/utils/Strings.sol\":1809:1818  buffer[0] */\n      dup2\n      mload\n      dup2\n      lt\n      tag_283\n      jumpi\n      tag_284\n      tag_163\n      jump\t// in\n    tag_284:\n    tag_283:\n      0x20\n      add\n      add\n        /* \"@openzeppelin/contracts/utils/Strings.sol\":1809:1824  buffer[0] = \"0\" */\n      swap1\n      not(0xffffffffffffffffffffffffffffffffffffffffffffffffffffffffffffff)\n      and\n      swap1\n      dup2\n      0x00\n      byte\n      swap1\n      mstore8\n      pop\n        /* \"@openzeppelin/contracts/utils/Strings.sol\":1834:1849  buffer[1] = \"x\" */\n      0x7800000000000000000000000000000000000000000000000000000000000000\n        /* \"@openzeppelin/contracts/utils/Strings.sol\":1834:1840  buffer */\n      dup2\n        /* \"@openzeppelin/contracts/utils/Strings.sol\":1841:1842  1 */\n      0x01\n        /* \"@openzeppelin/contracts/utils/Strings.sol\":1834:1843  buffer[1] */\n      dup2\n      mload\n      dup2\n      lt\n      tag_285\n      jumpi\n      tag_286\n      tag_163\n      jump\t// in\n    tag_286:\n    tag_285:\n      0x20\n      add\n      add\n        /* \"@openzeppelin/contracts/utils/Strings.sol\":1834:1849  buffer[1] = \"x\" */\n      swap1\n      not(0xffffffffffffffffffffffffffffffffffffffffffffffffffffffffffffff)\n      and\n      swap1\n      dup2\n      0x00\n      byte\n      swap1\n      mstore8\n      pop\n        /* \"@openzeppelin/contracts/utils/Strings.sol\":1864:1873  uint256 i */\n      0x00\n        /* \"@openzeppelin/contracts/utils/Strings.sol\":1889:1890  1 */\n      0x01\n        /* \"@openzeppelin/contracts/utils/Strings.sol\":1880:1886  length */\n      dup5\n        /* \"@openzeppelin/contracts/utils/Strings.sol\":1876:1877  2 */\n      0x02\n        /* \"@openzeppelin/contracts/utils/Strings.sol\":1876:1886  2 * length */\n      tag_290\n      swap2\n      swap1\n      tag_276\n      jump\t// in\n    tag_290:\n        /* \"@openzeppelin/contracts/utils/Strings.sol\":1876:1890  2 * length + 1 */\n      tag_291\n      swap2\n      swap1\n      tag_278\n      jump\t// in\n    tag_291:\n        /* \"@openzeppelin/contracts/utils/Strings.sol\":1864:1890  uint256 i = 2 * length + 1 */\n      swap1\n      pop\n        /* \"@openzeppelin/contracts/utils/Strings.sol\":1859:1991  for (uint256 i = 2 * length + 1; i > 1; --i) {... */\n    tag_287:\n        /* \"@openzeppelin/contracts/utils/Strings.sol\":1896:1897  1 */\n      0x01\n        /* \"@openzeppelin/contracts/utils/Strings.sol\":1892:1893  i */\n      dup2\n        /* \"@openzeppelin/contracts/utils/Strings.sol\":1892:1897  i > 1 */\n      gt\n        /* \"@openzeppelin/contracts/utils/Strings.sol\":1859:1991  for (uint256 i = 2 * length + 1; i > 1; --i) {... */\n      iszero\n      tag_288\n      jumpi\n        /* \"@openzeppelin/contracts/utils/Strings.sol\":1930:1942  _HEX_SYMBOLS */\n      0x3031323334353637383961626364656600000000000000000000000000000000\n        /* \"@openzeppelin/contracts/utils/Strings.sol\":1951:1954  0xf */\n      0x0f\n        /* \"@openzeppelin/contracts/utils/Strings.sol\":1943:1948  value */\n      dup7\n        /* \"@openzeppelin/contracts/utils/Strings.sol\":1943:1954  value & 0xf */\n      and\n        /* \"@openzeppelin/contracts/utils/Strings.sol\":1930:1955  _HEX_SYMBOLS[value & 0xf] */\n      0x10\n      dup2\n      lt\n      tag_292\n      jumpi\n      tag_293\n      tag_163\n      jump\t// in\n    tag_293:\n    tag_292:\n      byte\n      0xf8\n      shl\n        /* \"@openzeppelin/contracts/utils/Strings.sol\":1918:1924  buffer */\n      dup3\n        /* \"@openzeppelin/contracts/utils/Strings.sol\":1925:1926  i */\n      dup3\n        /* \"@openzeppelin/contracts/utils/Strings.sol\":1918:1927  buffer[i] */\n      dup2\n      mload\n      dup2\n      lt\n      tag_294\n      jumpi\n      tag_295\n      tag_163\n      jump\t// in\n    tag_295:\n    tag_294:\n      0x20\n      add\n      add\n        /* \"@openzeppelin/contracts/utils/Strings.sol\":1918:1955  buffer[i] = _HEX_SYMBOLS[value & 0xf] */\n      swap1\n      not(0xffffffffffffffffffffffffffffffffffffffffffffffffffffffffffffff)\n      and\n      swap1\n      dup2\n      0x00\n      byte\n      swap1\n      mstore8\n      pop\n        /* \"@openzeppelin/contracts/utils/Strings.sol\":1979:1980  4 */\n      0x04\n        /* \"@openzeppelin/contracts/utils/Strings.sol\":1969:1980  value >>= 4 */\n      dup6\n      swap1\n      shr\n      swap5\n      pop\n        /* \"@openzeppelin/contracts/utils/Strings.sol\":1899:1902  --i */\n      dup1\n      tag_296\n      swap1\n      tag_297\n      jump\t// in\n    tag_296:\n      swap1\n      pop\n        /* \"@openzeppelin/contracts/utils/Strings.sol\":1859:1991  for (uint256 i = 2 * length + 1; i > 1; --i) {... */\n      jump(tag_287)\n    tag_288:\n      pop\n        /* \"@openzeppelin/contracts/utils/Strings.sol\":2017:2018  0 */\n      0x00\n        /* \"@openzeppelin/contracts/utils/Strings.sol\":2008:2013  value */\n      dup5\n        /* \"@openzeppelin/contracts/utils/Strings.sol\":2008:2018  value == 0 */\n      eq\n        /* \"@openzeppelin/contracts/utils/Strings.sol\":2000:2055  require(value == 0, \"Strings: hex length insufficient\") */\n      tag_298\n      jumpi\n      mload(0x40)\n      0x08c379a000000000000000000000000000000000000000000000000000000000\n      dup2\n      mstore\n      0x04\n      add\n      tag_299\n      swap1\n      tag_300\n      jump\t// in\n    tag_299:\n      mload(0x40)\n      dup1\n      swap2\n      sub\n      swap1\n      revert\n    tag_298:\n        /* \"@openzeppelin/contracts/utils/Strings.sol\":2079:2085  buffer */\n      dup1\n        /* \"@openzeppelin/contracts/utils/Strings.sol\":2065:2086  return string(buffer) */\n      swap2\n      pop\n      pop\n        /* \"@openzeppelin/contracts/utils/Strings.sol\":1652:2093  function toHexString(uint256 value, uint256 length) internal pure returns (string memory) {... */\n      swap3\n      swap2\n      pop\n      pop\n      jump\t// out\n    tag_190:\n      mload(0x40)\n      dup1\n      0xa0\n      add\n      0x40\n      mstore\n      dup1\n      0x60\n      dup2\n      mstore\n      0x20\n      add\n      tag_301\n      tag_302\n      jump\t// in\n    tag_301:\n      dup2\n      mstore\n      0x20\n      add\n      0x00\n      dup2\n      mstore\n      0x20\n      add\n      0x00\n      dup2\n      mstore\n      0x20\n      add\n      iszero(iszero(0x00))\n      dup2\n      mstore\n      pop\n      swap1\n      jump\t// out\n    tag_197:\n      mload(0x40)\n      dup1\n      0x60\n      add\n      0x40\n      mstore\n      dup1\n      0x60\n      dup2\n      mstore\n      0x20\n      add\n      and(0xffffffffffffffffffffffffffffffffffffffff, 0x00)\n      dup2\n      mstore\n      0x20\n      add\n      0x60\n      dup2\n      mstore\n      pop\n      swap1\n      jump\t// out\n    tag_220:\n      dup3\n      dup1\n      sload\n      tag_303\n      swap1\n      tag_123\n      jump\t// in\n    tag_303:\n      swap1\n      0x00\n      mstore\n      keccak256(0x00, 0x20)\n      swap1\n      0x1f\n      add\n      0x20\n      swap1\n      div\n      dup2\n      add\n      swap3\n      dup3\n      tag_305\n      jumpi\n      0x00\n      dup6\n      sstore\n      jump(tag_304)\n    tag_305:\n      dup3\n      0x1f\n      lt\n      tag_306\n      jumpi\n      dup1\n      mload\n      not(0xff)\n      and\n      dup4\n      dup1\n      add\n      or\n      dup6\n      sstore\n      jump(tag_304)\n    tag_306:\n      dup3\n      dup1\n      add\n      0x01\n      add\n      dup6\n      sstore\n      dup3\n      iszero\n      tag_304\n      jumpi\n      swap2\n      dup3\n      add\n    tag_307:\n      dup3\n      dup2\n      gt\n      iszero\n      tag_308\n      jumpi\n      dup3\n      mload\n      dup3\n      sstore\n      swap2\n      0x20\n      add\n      swap2\n      swap1\n      0x01\n      add\n      swap1\n      jump(tag_307)\n    tag_308:\n    tag_304:\n      pop\n      swap1\n      pop\n      tag_309\n      swap2\n      swap1\n      tag_310\n      jump\t// in\n    tag_309:\n      pop\n      swap1\n      jump\t// out\n    tag_226:\n      dup3\n      dup1\n      sload\n      tag_311\n      swap1\n      tag_123\n      jump\t// in\n    tag_311:\n      swap1\n      0x00\n      mstore\n      keccak256(0x00, 0x20)\n      swap1\n      0x1f\n      add\n      0x20\n      swap1\n      div\n      dup2\n      add\n      swap3\n      dup3\n      tag_313\n      jumpi\n      0x00\n      dup6\n      sstore\n      jump(tag_312)\n    tag_313:\n      dup3\n      0x1f\n      lt\n      tag_314\n      jumpi\n      dup1\n      sload\n      dup6\n      sstore\n      jump(tag_312)\n    tag_314:\n      dup3\n      dup1\n      add\n      0x01\n      add\n      dup6\n      sstore\n      dup3\n      iszero\n      tag_312\n      jumpi\n      0x00\n      mstore\n      keccak256(0x00, 0x20)\n      swap2\n      0x1f\n      add\n      0x20\n      swap1\n      div\n      dup3\n      add\n    tag_315:\n      dup3\n      dup2\n      gt\n      iszero\n      tag_316\n      jumpi\n      dup3\n      sload\n      dup3\n      sstore\n      swap2\n      0x01\n      add\n      swap2\n      swap1\n      0x01\n      add\n      swap1\n      jump(tag_315)\n    tag_316:\n    tag_312:\n      pop\n      swap1\n      pop\n      tag_317\n      swap2\n      swap1\n      tag_310\n      jump\t// in\n    tag_317:\n      pop\n      swap1\n      jump\t// out\n    tag_302:\n      mload(0x40)\n      dup1\n      0x80\n      add\n      0x40\n      mstore\n      dup1\n      0x04\n      swap1\n      0x20\n      dup3\n      mul\n      dup1\n      calldatasize\n      dup4\n      calldatacopy\n      dup1\n      dup3\n      add\n      swap2\n      pop\n      pop\n      swap1\n      pop\n      pop\n      swap1\n      jump\t// out\n    tag_310:\n    tag_318:\n      dup1\n      dup3\n      gt\n      iszero\n      tag_319\n      jumpi\n      0x00\n      dup2\n      0x00\n      swap1\n      sstore\n      pop\n      0x01\n      add\n      jump(tag_318)\n    tag_319:\n      pop\n      swap1\n      jump\t// out\n        /* \"#utility.yul\":24:746   */\n    tag_321:\n        /* \"#utility.yul\":120:125   */\n      0x00\n        /* \"#utility.yul\":145:226   */\n      tag_323\n        /* \"#utility.yul\":161:225   */\n      tag_324\n        /* \"#utility.yul\":218:224   */\n      dup5\n        /* \"#utility.yul\":161:225   */\n      tag_325\n      jump\t// in\n    tag_324:\n        /* \"#utility.yul\":145:226   */\n      tag_326\n      jump\t// in\n    tag_323:\n        /* \"#utility.yul\":136:226   */\n      swap1\n      pop\n        /* \"#utility.yul\":246:251   */\n      dup1\n        /* \"#utility.yul\":275:281   */\n      dup4\n        /* \"#utility.yul\":268:273   */\n      dup3\n        /* \"#utility.yul\":261:282   */\n      mstore\n        /* \"#utility.yul\":309:313   */\n      0x20\n        /* \"#utility.yul\":302:307   */\n      dup3\n        /* \"#utility.yul\":298:314   */\n      add\n        /* \"#utility.yul\":291:314   */\n      swap1\n      pop\n        /* \"#utility.yul\":335:341   */\n      dup3\n        /* \"#utility.yul\":385:388   */\n      dup6\n        /* \"#utility.yul\":377:381   */\n      0x20\n        /* \"#utility.yul\":369:375   */\n      dup7\n        /* \"#utility.yul\":365:382   */\n      mul\n        /* \"#utility.yul\":360:363   */\n      dup3\n        /* \"#utility.yul\":356:383   */\n      add\n        /* \"#utility.yul\":353:389   */\n      gt\n        /* \"#utility.yul\":350:493   */\n      iszero\n      tag_327\n      jumpi\n        /* \"#utility.yul\":404:483   */\n      tag_328\n      tag_329\n      jump\t// in\n    tag_328:\n        /* \"#utility.yul\":350:493   */\n    tag_327:\n        /* \"#utility.yul\":517:518   */\n      0x00\n        /* \"#utility.yul\":502:740   */\n    tag_330:\n        /* \"#utility.yul\":527:533   */\n      dup6\n        /* \"#utility.yul\":524:525   */\n      dup2\n        /* \"#utility.yul\":521:534   */\n      lt\n        /* \"#utility.yul\":502:740   */\n      iszero\n      tag_332\n      jumpi\n        /* \"#utility.yul\":595:598   */\n      dup2\n        /* \"#utility.yul\":624:661   */\n      tag_333\n        /* \"#utility.yul\":657:660   */\n      dup9\n        /* \"#utility.yul\":645:655   */\n      dup3\n        /* \"#utility.yul\":624:661   */\n      tag_334\n      jump\t// in\n    tag_333:\n        /* \"#utility.yul\":619:622   */\n      dup5\n        /* \"#utility.yul\":612:662   */\n      mstore\n        /* \"#utility.yul\":691:695   */\n      0x20\n        /* \"#utility.yul\":686:689   */\n      dup5\n        /* \"#utility.yul\":682:696   */\n      add\n        /* \"#utility.yul\":675:696   */\n      swap4\n      pop\n        /* \"#utility.yul\":725:729   */\n      0x20\n        /* \"#utility.yul\":720:723   */\n      dup4\n        /* \"#utility.yul\":716:730   */\n      add\n        /* \"#utility.yul\":709:730   */\n      swap3\n      pop\n        /* \"#utility.yul\":562:740   */\n      pop\n        /* \"#utility.yul\":549:550   */\n      0x01\n        /* \"#utility.yul\":546:547   */\n      dup2\n        /* \"#utility.yul\":542:551   */\n      add\n        /* \"#utility.yul\":537:551   */\n      swap1\n      pop\n        /* \"#utility.yul\":502:740   */\n      jump(tag_330)\n    tag_332:\n        /* \"#utility.yul\":506:520   */\n      pop\n        /* \"#utility.yul\":126:746   */\n      pop\n      pop\n        /* \"#utility.yul\":24:746   */\n      swap4\n      swap3\n      pop\n      pop\n      pop\n      jump\t// out\n        /* \"#utility.yul\":752:1164   */\n    tag_335:\n        /* \"#utility.yul\":830:835   */\n      0x00\n        /* \"#utility.yul\":855:921   */\n      tag_337\n        /* \"#utility.yul\":871:920   */\n      tag_338\n        /* \"#utility.yul\":913:919   */\n      dup5\n        /* \"#utility.yul\":871:920   */\n      tag_339\n      jump\t// in\n    tag_338:\n        /* \"#utility.yul\":855:921   */\n      tag_326\n      jump\t// in\n    tag_337:\n        /* \"#utility.yul\":846:921   */\n      swap1\n      pop\n        /* \"#utility.yul\":944:950   */\n      dup3\n        /* \"#utility.yul\":937:942   */\n      dup2\n        /* \"#utility.yul\":930:951   */\n      mstore\n        /* \"#utility.yul\":982:986   */\n      0x20\n        /* \"#utility.yul\":975:980   */\n      dup2\n        /* \"#utility.yul\":971:987   */\n      add\n        /* \"#utility.yul\":1020:1023   */\n      dup5\n        /* \"#utility.yul\":1011:1017   */\n      dup5\n        /* \"#utility.yul\":1006:1009   */\n      dup5\n        /* \"#utility.yul\":1002:1018   */\n      add\n        /* \"#utility.yul\":999:1024   */\n      gt\n        /* \"#utility.yul\":996:1108   */\n      iszero\n      tag_340\n      jumpi\n        /* \"#utility.yul\":1027:1106   */\n      tag_341\n      tag_342\n      jump\t// in\n    tag_341:\n        /* \"#utility.yul\":996:1108   */\n    tag_340:\n        /* \"#utility.yul\":1117:1158   */\n      tag_343\n        /* \"#utility.yul\":1151:1157   */\n      dup5\n        /* \"#utility.yul\":1146:1149   */\n      dup3\n        /* \"#utility.yul\":1141:1144   */\n      dup6\n        /* \"#utility.yul\":1117:1158   */\n      tag_344\n      jump\t// in\n    tag_343:\n        /* \"#utility.yul\":836:1164   */\n      pop\n        /* \"#utility.yul\":752:1164   */\n      swap4\n      swap3\n      pop\n      pop\n      pop\n      jump\t// out\n        /* \"#utility.yul\":1170:1309   */\n    tag_334:\n        /* \"#utility.yul\":1216:1221   */\n      0x00\n        /* \"#utility.yul\":1254:1260   */\n      dup2\n        /* \"#utility.yul\":1241:1261   */\n      calldataload\n        /* \"#utility.yul\":1232:1261   */\n      swap1\n      pop\n        /* \"#utility.yul\":1270:1303   */\n      tag_346\n        /* \"#utility.yul\":1297:1302   */\n      dup2\n        /* \"#utility.yul\":1270:1303   */\n      tag_347\n      jump\t// in\n    tag_346:\n        /* \"#utility.yul\":1170:1309   */\n      swap3\n      swap2\n      pop\n      pop\n      jump\t// out\n        /* \"#utility.yul\":1332:1702   */\n    tag_348:\n        /* \"#utility.yul\":1403:1408   */\n      0x00\n        /* \"#utility.yul\":1452:1455   */\n      dup3\n        /* \"#utility.yul\":1445:1449   */\n      0x1f\n        /* \"#utility.yul\":1437:1443   */\n      dup4\n        /* \"#utility.yul\":1433:1450   */\n      add\n        /* \"#utility.yul\":1429:1456   */\n      slt\n        /* \"#utility.yul\":1419:1541   */\n      tag_350\n      jumpi\n        /* \"#utility.yul\":1460:1539   */\n      tag_351\n      tag_352\n      jump\t// in\n    tag_351:\n        /* \"#utility.yul\":1419:1541   */\n    tag_350:\n        /* \"#utility.yul\":1577:1583   */\n      dup2\n        /* \"#utility.yul\":1564:1584   */\n      calldataload\n        /* \"#utility.yul\":1602:1696   */\n      tag_353\n        /* \"#utility.yul\":1692:1695   */\n      dup5\n        /* \"#utility.yul\":1684:1690   */\n      dup3\n        /* \"#utility.yul\":1677:1681   */\n      0x20\n        /* \"#utility.yul\":1669:1675   */\n      dup7\n        /* \"#utility.yul\":1665:1682   */\n      add\n        /* \"#utility.yul\":1602:1696   */\n      tag_321\n      jump\t// in\n    tag_353:\n        /* \"#utility.yul\":1593:1696   */\n      swap2\n      pop\n        /* \"#utility.yul\":1409:1702   */\n      pop\n        /* \"#utility.yul\":1332:1702   */\n      swap3\n      swap2\n      pop\n      pop\n      jump\t// out\n        /* \"#utility.yul\":1708:1847   */\n    tag_354:\n        /* \"#utility.yul\":1754:1759   */\n      0x00\n        /* \"#utility.yul\":1792:1798   */\n      dup2\n        /* \"#utility.yul\":1779:1799   */\n      calldataload\n        /* \"#utility.yul\":1770:1799   */\n      swap1\n      pop\n        /* \"#utility.yul\":1808:1841   */\n      tag_356\n        /* \"#utility.yul\":1835:1840   */\n      dup2\n        /* \"#utility.yul\":1808:1841   */\n      tag_357\n      jump\t// in\n    tag_356:\n        /* \"#utility.yul\":1708:1847   */\n      swap3\n      swap2\n      pop\n      pop\n      jump\t// out\n        /* \"#utility.yul\":1853:1990   */\n    tag_358:\n        /* \"#utility.yul\":1898:1903   */\n      0x00\n        /* \"#utility.yul\":1936:1942   */\n      dup2\n        /* \"#utility.yul\":1923:1943   */\n      calldataload\n        /* \"#utility.yul\":1914:1943   */\n      swap1\n      pop\n        /* \"#utility.yul\":1952:1984   */\n      tag_360\n        /* \"#utility.yul\":1978:1983   */\n      dup2\n        /* \"#utility.yul\":1952:1984   */\n      tag_361\n      jump\t// in\n    tag_360:\n        /* \"#utility.yul\":1853:1990   */\n      swap3\n      swap2\n      pop\n      pop\n      jump\t// out\n        /* \"#utility.yul\":2010:2350   */\n    tag_362:\n        /* \"#utility.yul\":2066:2071   */\n      0x00\n        /* \"#utility.yul\":2115:2118   */\n      dup3\n        /* \"#utility.yul\":2108:2112   */\n      0x1f\n        /* \"#utility.yul\":2100:2106   */\n      dup4\n        /* \"#utility.yul\":2096:2113   */\n      add\n        /* \"#utility.yul\":2092:2119   */\n      slt\n        /* \"#utility.yul\":2082:2204   */\n      tag_364\n      jumpi\n        /* \"#utility.yul\":2123:2202   */\n      tag_365\n      tag_352\n      jump\t// in\n    tag_365:\n        /* \"#utility.yul\":2082:2204   */\n    tag_364:\n        /* \"#utility.yul\":2240:2246   */\n      dup2\n        /* \"#utility.yul\":2227:2247   */\n      calldataload\n        /* \"#utility.yul\":2265:2344   */\n      tag_366\n        /* \"#utility.yul\":2340:2343   */\n      dup5\n        /* \"#utility.yul\":2332:2338   */\n      dup3\n        /* \"#utility.yul\":2325:2329   */\n      0x20\n        /* \"#utility.yul\":2317:2323   */\n      dup7\n        /* \"#utility.yul\":2313:2330   */\n      add\n        /* \"#utility.yul\":2265:2344   */\n      tag_335\n      jump\t// in\n    tag_366:\n        /* \"#utility.yul\":2256:2344   */\n      swap2\n      pop\n        /* \"#utility.yul\":2072:2350   */\n      pop\n        /* \"#utility.yul\":2010:2350   */\n      swap3\n      swap2\n      pop\n      pop\n      jump\t// out\n        /* \"#utility.yul\":2356:2495   */\n    tag_367:\n        /* \"#utility.yul\":2402:2407   */\n      0x00\n        /* \"#utility.yul\":2440:2446   */\n      dup2\n        /* \"#utility.yul\":2427:2447   */\n      calldataload\n        /* \"#utility.yul\":2418:2447   */\n      swap1\n      pop\n        /* \"#utility.yul\":2456:2489   */\n      tag_369\n        /* \"#utility.yul\":2483:2488   */\n      dup2\n        /* \"#utility.yul\":2456:2489   */\n      tag_370\n      jump\t// in\n    tag_369:\n        /* \"#utility.yul\":2356:2495   */\n      swap3\n      swap2\n      pop\n      pop\n      jump\t// out\n        /* \"#utility.yul\":2501:2830   */\n    tag_112:\n        /* \"#utility.yul\":2560:2566   */\n      0x00\n        /* \"#utility.yul\":2609:2611   */\n      0x20\n        /* \"#utility.yul\":2597:2606   */\n      dup3\n        /* \"#utility.yul\":2588:2595   */\n      dup5\n        /* \"#utility.yul\":2584:2607   */\n      sub\n        /* \"#utility.yul\":2580:2612   */\n      slt\n        /* \"#utility.yul\":2577:2696   */\n      iszero\n      tag_372\n      jumpi\n        /* \"#utility.yul\":2615:2694   */\n      tag_373\n      tag_374\n      jump\t// in\n    tag_373:\n        /* \"#utility.yul\":2577:2696   */\n    tag_372:\n        /* \"#utility.yul\":2735:2736   */\n      0x00\n        /* \"#utility.yul\":2760:2813   */\n      tag_375\n        /* \"#utility.yul\":2805:2812   */\n      dup5\n        /* \"#utility.yul\":2796:2802   */\n      dup3\n        /* \"#utility.yul\":2785:2794   */\n      dup6\n        /* \"#utility.yul\":2781:2803   */\n      add\n        /* \"#utility.yul\":2760:2813   */\n      tag_334\n      jump\t// in\n    tag_375:\n        /* \"#utility.yul\":2750:2813   */\n      swap2\n      pop\n        /* \"#utility.yul\":2706:2823   */\n      pop\n        /* \"#utility.yul\":2501:2830   */\n      swap3\n      swap2\n      pop\n      pop\n      jump\t// out\n        /* \"#utility.yul\":2836:3665   */\n    tag_67:\n        /* \"#utility.yul\":2938:2944   */\n      0x00\n        /* \"#utility.yul\":2946:2952   */\n      dup1\n        /* \"#utility.yul\":2954:2960   */\n      0x00\n        /* \"#utility.yul\":3003:3005   */\n      0x60\n        /* \"#utility.yul\":2991:3000   */\n      dup5\n        /* \"#utility.yul\":2982:2989   */\n      dup7\n        /* \"#utility.yul\":2978:3001   */\n      sub\n        /* \"#utility.yul\":2974:3006   */\n      slt\n        /* \"#utility.yul\":2971:3090   */\n      iszero\n      tag_377\n      jumpi\n        /* \"#utility.yul\":3009:3088   */\n      tag_378\n      tag_374\n      jump\t// in\n    tag_378:\n        /* \"#utility.yul\":2971:3090   */\n    tag_377:\n        /* \"#utility.yul\":3157:3158   */\n      0x00\n        /* \"#utility.yul\":3146:3155   */\n      dup5\n        /* \"#utility.yul\":3142:3159   */\n      add\n        /* \"#utility.yul\":3129:3160   */\n      calldataload\n        /* \"#utility.yul\":3187:3205   */\n      0xffffffffffffffff\n        /* \"#utility.yul\":3179:3185   */\n      dup2\n        /* \"#utility.yul\":3176:3206   */\n      gt\n        /* \"#utility.yul\":3173:3290   */\n      iszero\n      tag_379\n      jumpi\n        /* \"#utility.yul\":3209:3288   */\n      tag_380\n      tag_381\n      jump\t// in\n    tag_380:\n        /* \"#utility.yul\":3173:3290   */\n    tag_379:\n        /* \"#utility.yul\":3314:3392   */\n      tag_382\n        /* \"#utility.yul\":3384:3391   */\n      dup7\n        /* \"#utility.yul\":3375:3381   */\n      dup3\n        /* \"#utility.yul\":3364:3373   */\n      dup8\n        /* \"#utility.yul\":3360:3382   */\n      add\n        /* \"#utility.yul\":3314:3392   */\n      tag_348\n      jump\t// in\n    tag_382:\n        /* \"#utility.yul\":3304:3392   */\n      swap4\n      pop\n        /* \"#utility.yul\":3100:3402   */\n      pop\n        /* \"#utility.yul\":3441:3443   */\n      0x20\n        /* \"#utility.yul\":3467:3520   */\n      tag_383\n        /* \"#utility.yul\":3512:3519   */\n      dup7\n        /* \"#utility.yul\":3503:3509   */\n      dup3\n        /* \"#utility.yul\":3492:3501   */\n      dup8\n        /* \"#utility.yul\":3488:3510   */\n      add\n        /* \"#utility.yul\":3467:3520   */\n      tag_367\n      jump\t// in\n    tag_383:\n        /* \"#utility.yul\":3457:3520   */\n      swap3\n      pop\n        /* \"#utility.yul\":3412:3530   */\n      pop\n        /* \"#utility.yul\":3569:3571   */\n      0x40\n        /* \"#utility.yul\":3595:3648   */\n      tag_384\n        /* \"#utility.yul\":3640:3647   */\n      dup7\n        /* \"#utility.yul\":3631:3637   */\n      dup3\n        /* \"#utility.yul\":3620:3629   */\n      dup8\n        /* \"#utility.yul\":3616:3638   */\n      add\n        /* \"#utility.yul\":3595:3648   */\n      tag_367\n      jump\t// in\n    tag_384:\n        /* \"#utility.yul\":3585:3648   */\n      swap2\n      pop\n        /* \"#utility.yul\":3540:3658   */\n      pop\n        /* \"#utility.yul\":2836:3665   */\n      swap3\n      pop\n      swap3\n      pop\n      swap3\n      jump\t// out\n        /* \"#utility.yul\":3671:4000   */\n    tag_36:\n        /* \"#utility.yul\":3730:3736   */\n      0x00\n        /* \"#utility.yul\":3779:3781   */\n      0x20\n        /* \"#utility.yul\":3767:3776   */\n      dup3\n        /* \"#utility.yul\":3758:3765   */\n      dup5\n        /* \"#utility.yul\":3754:3777   */\n      sub\n        /* \"#utility.yul\":3750:3782   */\n      slt\n        /* \"#utility.yul\":3747:3866   */\n      iszero\n      tag_386\n      jumpi\n        /* \"#utility.yul\":3785:3864   */\n      tag_387\n      tag_374\n      jump\t// in\n    tag_387:\n        /* \"#utility.yul\":3747:3866   */\n    tag_386:\n        /* \"#utility.yul\":3905:3906   */\n      0x00\n        /* \"#utility.yul\":3930:3983   */\n      tag_388\n        /* \"#utility.yul\":3975:3982   */\n      dup5\n        /* \"#utility.yul\":3966:3972   */\n      dup3\n        /* \"#utility.yul\":3955:3964   */\n      dup6\n        /* \"#utility.yul\":3951:3973   */\n      add\n        /* \"#utility.yul\":3930:3983   */\n      tag_354\n      jump\t// in\n    tag_388:\n        /* \"#utility.yul\":3920:3983   */\n      swap2\n      pop\n        /* \"#utility.yul\":3876:3993   */\n      pop\n        /* \"#utility.yul\":3671:4000   */\n      swap3\n      swap2\n      pop\n      pop\n      jump\t// out\n        /* \"#utility.yul\":4006:4480   */\n    tag_51:\n        /* \"#utility.yul\":4074:4080   */\n      0x00\n        /* \"#utility.yul\":4082:4088   */\n      dup1\n        /* \"#utility.yul\":4131:4133   */\n      0x40\n        /* \"#utility.yul\":4119:4128   */\n      dup4\n        /* \"#utility.yul\":4110:4117   */\n      dup6\n        /* \"#utility.yul\":4106:4129   */\n      sub\n        /* \"#utility.yul\":4102:4134   */\n      slt\n        /* \"#utility.yul\":4099:4218   */\n      iszero\n      tag_390\n      jumpi\n        /* \"#utility.yul\":4137:4216   */\n      tag_391\n      tag_374\n      jump\t// in\n    tag_391:\n        /* \"#utility.yul\":4099:4218   */\n    tag_390:\n        /* \"#utility.yul\":4257:4258   */\n      0x00\n        /* \"#utility.yul\":4282:4335   */\n      tag_392\n        /* \"#utility.yul\":4327:4334   */\n      dup6\n        /* \"#utility.yul\":4318:4324   */\n      dup3\n        /* \"#utility.yul\":4307:4316   */\n      dup7\n        /* \"#utility.yul\":4303:4325   */\n      add\n        /* \"#utility.yul\":4282:4335   */\n      tag_354\n      jump\t// in\n    tag_392:\n        /* \"#utility.yul\":4272:4335   */\n      swap3\n      pop\n        /* \"#utility.yul\":4228:4345   */\n      pop\n        /* \"#utility.yul\":4384:4386   */\n      0x20\n        /* \"#utility.yul\":4410:4463   */\n      tag_393\n        /* \"#utility.yul\":4455:4462   */\n      dup6\n        /* \"#utility.yul\":4446:4452   */\n      dup3\n        /* \"#utility.yul\":4435:4444   */\n      dup7\n        /* \"#utility.yul\":4431:4453   */\n      add\n        /* \"#utility.yul\":4410:4463   */\n      tag_334\n      jump\t// in\n    tag_393:\n        /* \"#utility.yul\":4400:4463   */\n      swap2\n      pop\n        /* \"#utility.yul\":4355:4473   */\n      pop\n        /* \"#utility.yul\":4006:4480   */\n      swap3\n      pop\n      swap3\n      swap1\n      pop\n      jump\t// out\n        /* \"#utility.yul\":4486:4813   */\n    tag_30:\n        /* \"#utility.yul\":4544:4550   */\n      0x00\n        /* \"#utility.yul\":4593:4595   */\n      0x20\n        /* \"#utility.yul\":4581:4590   */\n      dup3\n        /* \"#utility.yul\":4572:4579   */\n      dup5\n        /* \"#utility.yul\":4568:4591   */\n      sub\n        /* \"#utility.yul\":4564:4596   */\n      slt\n        /* \"#utility.yul\":4561:4680   */\n      iszero\n      tag_395\n      jumpi\n        /* \"#utility.yul\":4599:4678   */\n      tag_396\n      tag_374\n      jump\t// in\n    tag_396:\n        /* \"#utility.yul\":4561:4680   */\n    tag_395:\n        /* \"#utility.yul\":4719:4720   */\n      0x00\n        /* \"#utility.yul\":4744:4796   */\n      tag_397\n        /* \"#utility.yul\":4788:4795   */\n      dup5\n        /* \"#utility.yul\":4779:4785   */\n      dup3\n        /* \"#utility.yul\":4768:4777   */\n      dup6\n        /* \"#utility.yul\":4764:4786   */\n      add\n        /* \"#utility.yul\":4744:4796   */\n      tag_358\n      jump\t// in\n    tag_397:\n        /* \"#utility.yul\":4734:4796   */\n      swap2\n      pop\n        /* \"#utility.yul\":4690:4806   */\n      pop\n        /* \"#utility.yul\":4486:4813   */\n      swap3\n      swap2\n      pop\n      pop\n      jump\t// out\n        /* \"#utility.yul\":4819:5618   */\n    tag_105:\n        /* \"#utility.yul\":4906:4912   */\n      0x00\n        /* \"#utility.yul\":4914:4920   */\n      dup1\n        /* \"#utility.yul\":4922:4928   */\n      0x00\n        /* \"#utility.yul\":4971:4973   */\n      0x60\n        /* \"#utility.yul\":4959:4968   */\n      dup5\n        /* \"#utility.yul\":4950:4957   */\n      dup7\n        /* \"#utility.yul\":4946:4969   */\n      sub\n        /* \"#utility.yul\":4942:4974   */\n      slt\n        /* \"#utility.yul\":4939:5058   */\n      iszero\n      tag_399\n      jumpi\n        /* \"#utility.yul\":4977:5056   */\n      tag_400\n      tag_374\n      jump\t// in\n    tag_400:\n        /* \"#utility.yul\":4939:5058   */\n    tag_399:\n        /* \"#utility.yul\":5125:5126   */\n      0x00\n        /* \"#utility.yul\":5114:5123   */\n      dup5\n        /* \"#utility.yul\":5110:5127   */\n      add\n        /* \"#utility.yul\":5097:5128   */\n      calldataload\n        /* \"#utility.yul\":5155:5173   */\n      0xffffffffffffffff\n        /* \"#utility.yul\":5147:5153   */\n      dup2\n        /* \"#utility.yul\":5144:5174   */\n      gt\n        /* \"#utility.yul\":5141:5258   */\n      iszero\n      tag_401\n      jumpi\n        /* \"#utility.yul\":5177:5256   */\n      tag_402\n      tag_381\n      jump\t// in\n    tag_402:\n        /* \"#utility.yul\":5141:5258   */\n    tag_401:\n        /* \"#utility.yul\":5282:5345   */\n      tag_403\n        /* \"#utility.yul\":5337:5344   */\n      dup7\n        /* \"#utility.yul\":5328:5334   */\n      dup3\n        /* \"#utility.yul\":5317:5326   */\n      dup8\n        /* \"#utility.yul\":5313:5335   */\n      add\n        /* \"#utility.yul\":5282:5345   */\n      tag_362\n      jump\t// in\n    tag_403:\n        /* \"#utility.yul\":5272:5345   */\n      swap4\n      pop\n        /* \"#utility.yul\":5068:5355   */\n      pop\n        /* \"#utility.yul\":5394:5396   */\n      0x20\n        /* \"#utility.yul\":5420:5473   */\n      tag_404\n        /* \"#utility.yul\":5465:5472   */\n      dup7\n        /* \"#utility.yul\":5456:5462   */\n      dup3\n        /* \"#utility.yul\":5445:5454   */\n      dup8\n        /* \"#utility.yul\":5441:5463   */\n      add\n        /* \"#utility.yul\":5420:5473   */\n      tag_334\n      jump\t// in\n    tag_404:\n        /* \"#utility.yul\":5410:5473   */\n      swap3\n      pop\n        /* \"#utility.yul\":5365:5483   */\n      pop\n        /* \"#utility.yul\":5522:5524   */\n      0x40\n        /* \"#utility.yul\":5548:5601   */\n      tag_405\n        /* \"#utility.yul\":5593:5600   */\n      dup7\n        /* \"#utility.yul\":5584:5590   */\n      dup3\n        /* \"#utility.yul\":5573:5582   */\n      dup8\n        /* \"#utility.yul\":5569:5591   */\n      add\n        /* \"#utility.yul\":5548:5601   */\n      tag_367\n      jump\t// in\n    tag_405:\n        /* \"#utility.yul\":5538:5601   */\n      swap2\n      pop\n        /* \"#utility.yul\":5493:5611   */\n      pop\n        /* \"#utility.yul\":4819:5618   */\n      swap3\n      pop\n      swap3\n      pop\n      swap3\n      jump\t// out\n        /* \"#utility.yul\":5624:5953   */\n    tag_42:\n        /* \"#utility.yul\":5683:5689   */\n      0x00\n        /* \"#utility.yul\":5732:5734   */\n      0x20\n        /* \"#utility.yul\":5720:5729   */\n      dup3\n        /* \"#utility.yul\":5711:5718   */\n      dup5\n        /* \"#utility.yul\":5707:5730   */\n      sub\n        /* \"#utility.yul\":5703:5735   */\n      slt\n        /* \"#utility.yul\":5700:5819   */\n      iszero\n      tag_407\n      jumpi\n        /* \"#utility.yul\":5738:5817   */\n      tag_408\n      tag_374\n      jump\t// in\n    tag_408:\n        /* \"#utility.yul\":5700:5819   */\n    tag_407:\n        /* \"#utility.yul\":5858:5859   */\n      0x00\n        /* \"#utility.yul\":5883:5936   */\n      tag_409\n        /* \"#utility.yul\":5928:5935   */\n      dup5\n        /* \"#utility.yul\":5919:5925   */\n      dup3\n        /* \"#utility.yul\":5908:5917   */\n      dup6\n        /* \"#utility.yul\":5904:5926   */\n      add\n        /* \"#utility.yul\":5883:5936   */\n      tag_367\n      jump\t// in\n    tag_409:\n        /* \"#utility.yul\":5873:5936   */\n      swap2\n      pop\n        /* \"#utility.yul\":5829:5946   */\n      pop\n        /* \"#utility.yul\":5624:5953   */\n      swap3\n      swap2\n      pop\n      pop\n      jump\t// out\n        /* \"#utility.yul\":5959:6433   */\n    tag_63:\n        /* \"#utility.yul\":6027:6033   */\n      0x00\n        /* \"#utility.yul\":6035:6041   */\n      dup1\n        /* \"#utility.yul\":6084:6086   */\n      0x40\n        /* \"#utility.yul\":6072:6081   */\n      dup4\n        /* \"#utility.yul\":6063:6070   */\n      dup6\n        /* \"#utility.yul\":6059:6082   */\n      sub\n        /* \"#utility.yul\":6055:6087   */\n      slt\n        /* \"#utility.yul\":6052:6171   */\n      iszero\n      tag_411\n      jumpi\n        /* \"#utility.yul\":6090:6169   */\n      tag_412\n      tag_374\n      jump\t// in\n    tag_412:\n        /* \"#utility.yul\":6052:6171   */\n    tag_411:\n        /* \"#utility.yul\":6210:6211   */\n      0x00\n        /* \"#utility.yul\":6235:6288   */\n      tag_413\n        /* \"#utility.yul\":6280:6287   */\n      dup6\n        /* \"#utility.yul\":6271:6277   */\n      dup3\n        /* \"#utility.yul\":6260:6269   */\n      dup7\n        /* \"#utility.yul\":6256:6278   */\n      add\n        /* \"#utility.yul\":6235:6288   */\n      tag_367\n      jump\t// in\n    tag_413:\n        /* \"#utility.yul\":6225:6288   */\n      swap3\n      pop\n        /* \"#utility.yul\":6181:6298   */\n      pop\n        /* \"#utility.yul\":6337:6339   */\n      0x20\n        /* \"#utility.yul\":6363:6416   */\n      tag_414\n        /* \"#utility.yul\":6408:6415   */\n      dup6\n        /* \"#utility.yul\":6399:6405   */\n      dup3\n        /* \"#utility.yul\":6388:6397   */\n      dup7\n        /* \"#utility.yul\":6384:6406   */\n      add\n        /* \"#utility.yul\":6363:6416   */\n      tag_367\n      jump\t// in\n    tag_414:\n        /* \"#utility.yul\":6353:6416   */\n      swap2\n      pop\n        /* \"#utility.yul\":6308:6426   */\n      pop\n        /* \"#utility.yul\":5959:6433   */\n      swap3\n      pop\n      swap3\n      swap1\n      pop\n      jump\t// out\n        /* \"#utility.yul\":6439:6618   */\n    tag_415:\n        /* \"#utility.yul\":6508:6518   */\n      0x00\n        /* \"#utility.yul\":6529:6575   */\n      tag_417\n        /* \"#utility.yul\":6571:6574   */\n      dup4\n        /* \"#utility.yul\":6563:6569   */\n      dup4\n        /* \"#utility.yul\":6529:6575   */\n      tag_418\n      jump\t// in\n    tag_417:\n        /* \"#utility.yul\":6607:6611   */\n      0x20\n        /* \"#utility.yul\":6602:6605   */\n      dup4\n        /* \"#utility.yul\":6598:6612   */\n      add\n        /* \"#utility.yul\":6584:6612   */\n      swap1\n      pop\n        /* \"#utility.yul\":6439:6618   */\n      swap3\n      swap2\n      pop\n      pop\n      jump\t// out\n        /* \"#utility.yul\":6624:6803   */\n    tag_419:\n        /* \"#utility.yul\":6693:6703   */\n      0x00\n        /* \"#utility.yul\":6714:6760   */\n      tag_421\n        /* \"#utility.yul\":6756:6759   */\n      dup4\n        /* \"#utility.yul\":6748:6754   */\n      dup4\n        /* \"#utility.yul\":6714:6760   */\n      tag_422\n      jump\t// in\n    tag_421:\n        /* \"#utility.yul\":6792:6796   */\n      0x20\n        /* \"#utility.yul\":6787:6790   */\n      dup4\n        /* \"#utility.yul\":6783:6797   */\n      add\n        /* \"#utility.yul\":6769:6797   */\n      swap1\n      pop\n        /* \"#utility.yul\":6624:6803   */\n      swap3\n      swap2\n      pop\n      pop\n      jump\t// out\n        /* \"#utility.yul\":6809:6917   */\n    tag_418:\n        /* \"#utility.yul\":6886:6910   */\n      tag_424\n        /* \"#utility.yul\":6904:6909   */\n      dup2\n        /* \"#utility.yul\":6886:6910   */\n      tag_425\n      jump\t// in\n    tag_424:\n        /* \"#utility.yul\":6881:6884   */\n      dup3\n        /* \"#utility.yul\":6874:6911   */\n      mstore\n        /* \"#utility.yul\":6809:6917   */\n      pop\n      pop\n      jump\t// out\n        /* \"#utility.yul\":6923:7041   */\n    tag_426:\n        /* \"#utility.yul\":7010:7034   */\n      tag_428\n        /* \"#utility.yul\":7028:7033   */\n      dup2\n        /* \"#utility.yul\":7010:7034   */\n      tag_425\n      jump\t// in\n    tag_428:\n        /* \"#utility.yul\":7005:7008   */\n      dup3\n        /* \"#utility.yul\":6998:7035   */\n      mstore\n        /* \"#utility.yul\":6923:7041   */\n      pop\n      pop\n      jump\t// out\n        /* \"#utility.yul\":7077:7789   */\n    tag_429:\n        /* \"#utility.yul\":7186:7189   */\n      0x00\n        /* \"#utility.yul\":7215:7269   */\n      tag_431\n        /* \"#utility.yul\":7263:7268   */\n      dup3\n        /* \"#utility.yul\":7215:7269   */\n      tag_432\n      jump\t// in\n    tag_431:\n        /* \"#utility.yul\":7285:7361   */\n      tag_433\n        /* \"#utility.yul\":7354:7360   */\n      dup2\n        /* \"#utility.yul\":7349:7352   */\n      dup6\n        /* \"#utility.yul\":7285:7361   */\n      tag_434\n      jump\t// in\n    tag_433:\n        /* \"#utility.yul\":7278:7361   */\n      swap4\n      pop\n        /* \"#utility.yul\":7385:7441   */\n      tag_435\n        /* \"#utility.yul\":7435:7440   */\n      dup4\n        /* \"#utility.yul\":7385:7441   */\n      tag_436\n      jump\t// in\n    tag_435:\n        /* \"#utility.yul\":7464:7471   */\n      dup1\n        /* \"#utility.yul\":7495:7496   */\n      0x00\n        /* \"#utility.yul\":7480:7764   */\n    tag_437:\n        /* \"#utility.yul\":7505:7511   */\n      dup4\n        /* \"#utility.yul\":7502:7503   */\n      dup2\n        /* \"#utility.yul\":7499:7512   */\n      lt\n        /* \"#utility.yul\":7480:7764   */\n      iszero\n      tag_439\n      jumpi\n        /* \"#utility.yul\":7581:7587   */\n      dup2\n        /* \"#utility.yul\":7575:7588   */\n      mload\n        /* \"#utility.yul\":7608:7671   */\n      tag_440\n        /* \"#utility.yul\":7667:7670   */\n      dup9\n        /* \"#utility.yul\":7652:7665   */\n      dup3\n        /* \"#utility.yul\":7608:7671   */\n      tag_415\n      jump\t// in\n    tag_440:\n        /* \"#utility.yul\":7601:7671   */\n      swap8\n      pop\n        /* \"#utility.yul\":7694:7754   */\n      tag_441\n        /* \"#utility.yul\":7747:7753   */\n      dup4\n        /* \"#utility.yul\":7694:7754   */\n      tag_442\n      jump\t// in\n    tag_441:\n        /* \"#utility.yul\":7684:7754   */\n      swap3\n      pop\n        /* \"#utility.yul\":7540:7764   */\n      pop\n        /* \"#utility.yul\":7527:7528   */\n      0x01\n        /* \"#utility.yul\":7524:7525   */\n      dup2\n        /* \"#utility.yul\":7520:7529   */\n      add\n        /* \"#utility.yul\":7515:7529   */\n      swap1\n      pop\n        /* \"#utility.yul\":7480:7764   */\n      jump(tag_437)\n    tag_439:\n        /* \"#utility.yul\":7484:7498   */\n      pop\n        /* \"#utility.yul\":7780:7783   */\n      dup6\n        /* \"#utility.yul\":7773:7783   */\n      swap4\n      pop\n        /* \"#utility.yul\":7191:7789   */\n      pop\n      pop\n      pop\n        /* \"#utility.yul\":7077:7789   */\n      swap3\n      swap2\n      pop\n      pop\n      jump\t// out\n        /* \"#utility.yul\":7827:8501   */\n    tag_443:\n        /* \"#utility.yul\":7953:8005   */\n      tag_445\n        /* \"#utility.yul\":7999:8004   */\n      dup2\n        /* \"#utility.yul\":7953:8005   */\n      tag_446\n      jump\t// in\n    tag_445:\n        /* \"#utility.yul\":8021:8095   */\n      tag_447\n        /* \"#utility.yul\":8088:8094   */\n      dup2\n        /* \"#utility.yul\":8083:8086   */\n      dup5\n        /* \"#utility.yul\":8021:8095   */\n      tag_448\n      jump\t// in\n    tag_447:\n        /* \"#utility.yul\":8014:8095   */\n      swap3\n      pop\n        /* \"#utility.yul\":8119:8173   */\n      tag_449\n        /* \"#utility.yul\":8167:8172   */\n      dup3\n        /* \"#utility.yul\":8119:8173   */\n      tag_450\n      jump\t// in\n    tag_449:\n        /* \"#utility.yul\":8196:8203   */\n      dup1\n        /* \"#utility.yul\":8227:8228   */\n      0x00\n        /* \"#utility.yul\":8212:8494   */\n    tag_451:\n        /* \"#utility.yul\":8237:8243   */\n      dup4\n        /* \"#utility.yul\":8234:8235   */\n      dup2\n        /* \"#utility.yul\":8231:8244   */\n      lt\n        /* \"#utility.yul\":8212:8494   */\n      iszero\n      tag_453\n      jumpi\n        /* \"#utility.yul\":8313:8319   */\n      dup2\n        /* \"#utility.yul\":8307:8320   */\n      mload\n        /* \"#utility.yul\":8340:8403   */\n      tag_454\n        /* \"#utility.yul\":8399:8402   */\n      dup8\n        /* \"#utility.yul\":8384:8397   */\n      dup3\n        /* \"#utility.yul\":8340:8403   */\n      tag_419\n      jump\t// in\n    tag_454:\n        /* \"#utility.yul\":8333:8403   */\n      swap7\n      pop\n        /* \"#utility.yul\":8426:8484   */\n      tag_455\n        /* \"#utility.yul\":8477:8483   */\n      dup4\n        /* \"#utility.yul\":8426:8484   */\n      tag_456\n      jump\t// in\n    tag_455:\n        /* \"#utility.yul\":8416:8484   */\n      swap3\n      pop\n        /* \"#utility.yul\":8272:8494   */\n      pop\n        /* \"#utility.yul\":8259:8260   */\n      0x01\n        /* \"#utility.yul\":8256:8257   */\n      dup2\n        /* \"#utility.yul\":8252:8261   */\n      add\n        /* \"#utility.yul\":8247:8261   */\n      swap1\n      pop\n        /* \"#utility.yul\":8212:8494   */\n      jump(tag_451)\n    tag_453:\n        /* \"#utility.yul\":8216:8230   */\n      pop\n        /* \"#utility.yul\":7929:8501   */\n      pop\n      pop\n      pop\n        /* \"#utility.yul\":7827:8501   */\n      pop\n      pop\n      jump\t// out\n        /* \"#utility.yul\":8507:8606   */\n    tag_457:\n        /* \"#utility.yul\":8578:8599   */\n      tag_459\n        /* \"#utility.yul\":8593:8598   */\n      dup2\n        /* \"#utility.yul\":8578:8599   */\n      tag_460\n      jump\t// in\n    tag_459:\n        /* \"#utility.yul\":8573:8576   */\n      dup3\n        /* \"#utility.yul\":8566:8600   */\n      mstore\n        /* \"#utility.yul\":8507:8606   */\n      pop\n      pop\n      jump\t// out\n        /* \"#utility.yul\":8612:8721   */\n    tag_461:\n        /* \"#utility.yul\":8693:8714   */\n      tag_463\n        /* \"#utility.yul\":8708:8713   */\n      dup2\n        /* \"#utility.yul\":8693:8714   */\n      tag_460\n      jump\t// in\n    tag_463:\n        /* \"#utility.yul\":8688:8691   */\n      dup3\n        /* \"#utility.yul\":8681:8715   */\n      mstore\n        /* \"#utility.yul\":8612:8721   */\n      pop\n      pop\n      jump\t// out\n        /* \"#utility.yul\":8727:8845   */\n    tag_464:\n        /* \"#utility.yul\":8814:8838   */\n      tag_466\n        /* \"#utility.yul\":8832:8837   */\n      dup2\n        /* \"#utility.yul\":8814:8838   */\n      tag_467\n      jump\t// in\n    tag_466:\n        /* \"#utility.yul\":8809:8812   */\n      dup3\n        /* \"#utility.yul\":8802:8839   */\n      mstore\n        /* \"#utility.yul\":8727:8845   */\n      pop\n      pop\n      jump\t// out\n        /* \"#utility.yul\":8851:9195   */\n    tag_468:\n        /* \"#utility.yul\":8929:8932   */\n      0x00\n        /* \"#utility.yul\":8957:8996   */\n      tag_470\n        /* \"#utility.yul\":8990:8995   */\n      dup3\n        /* \"#utility.yul\":8957:8996   */\n      tag_471\n      jump\t// in\n    tag_470:\n        /* \"#utility.yul\":9012:9073   */\n      tag_472\n        /* \"#utility.yul\":9066:9072   */\n      dup2\n        /* \"#utility.yul\":9061:9064   */\n      dup6\n        /* \"#utility.yul\":9012:9073   */\n      tag_473\n      jump\t// in\n    tag_472:\n        /* \"#utility.yul\":9005:9073   */\n      swap4\n      pop\n        /* \"#utility.yul\":9082:9134   */\n      tag_474\n        /* \"#utility.yul\":9127:9133   */\n      dup2\n        /* \"#utility.yul\":9122:9125   */\n      dup6\n        /* \"#utility.yul\":9115:9119   */\n      0x20\n        /* \"#utility.yul\":9108:9113   */\n      dup7\n        /* \"#utility.yul\":9104:9120   */\n      add\n        /* \"#utility.yul\":9082:9134   */\n      tag_475\n      jump\t// in\n    tag_474:\n        /* \"#utility.yul\":9159:9188   */\n      tag_476\n        /* \"#utility.yul\":9181:9187   */\n      dup2\n        /* \"#utility.yul\":9159:9188   */\n      tag_477\n      jump\t// in\n    tag_476:\n        /* \"#utility.yul\":9154:9157   */\n      dup5\n        /* \"#utility.yul\":9150:9189   */\n      add\n        /* \"#utility.yul\":9143:9189   */\n      swap2\n      pop\n        /* \"#utility.yul\":8933:9195   */\n      pop\n        /* \"#utility.yul\":8851:9195   */\n      swap3\n      swap2\n      pop\n      pop\n      jump\t// out\n        /* \"#utility.yul\":9201:9565   */\n    tag_478:\n        /* \"#utility.yul\":9289:9292   */\n      0x00\n        /* \"#utility.yul\":9317:9356   */\n      tag_480\n        /* \"#utility.yul\":9350:9355   */\n      dup3\n        /* \"#utility.yul\":9317:9356   */\n      tag_471\n      jump\t// in\n    tag_480:\n        /* \"#utility.yul\":9372:9443   */\n      tag_481\n        /* \"#utility.yul\":9436:9442   */\n      dup2\n        /* \"#utility.yul\":9431:9434   */\n      dup6\n        /* \"#utility.yul\":9372:9443   */\n      tag_482\n      jump\t// in\n    tag_481:\n        /* \"#utility.yul\":9365:9443   */\n      swap4\n      pop\n        /* \"#utility.yul\":9452:9504   */\n      tag_483\n        /* \"#utility.yul\":9497:9503   */\n      dup2\n        /* \"#utility.yul\":9492:9495   */\n      dup6\n        /* \"#utility.yul\":9485:9489   */\n      0x20\n        /* \"#utility.yul\":9478:9483   */\n      dup7\n        /* \"#utility.yul\":9474:9490   */\n      add\n        /* \"#utility.yul\":9452:9504   */\n      tag_475\n      jump\t// in\n    tag_483:\n        /* \"#utility.yul\":9529:9558   */\n      tag_484\n        /* \"#utility.yul\":9551:9557   */\n      dup2\n        /* \"#utility.yul\":9529:9558   */\n      tag_477\n      jump\t// in\n    tag_484:\n        /* \"#utility.yul\":9524:9527   */\n      dup5\n        /* \"#utility.yul\":9520:9559   */\n      add\n        /* \"#utility.yul\":9513:9559   */\n      swap2\n      pop\n        /* \"#utility.yul\":9293:9565   */\n      pop\n        /* \"#utility.yul\":9201:9565   */\n      swap3\n      swap2\n      pop\n      pop\n      jump\t// out\n        /* \"#utility.yul\":9571:9948   */\n    tag_485:\n        /* \"#utility.yul\":9677:9680   */\n      0x00\n        /* \"#utility.yul\":9705:9744   */\n      tag_487\n        /* \"#utility.yul\":9738:9743   */\n      dup3\n        /* \"#utility.yul\":9705:9744   */\n      tag_471\n      jump\t// in\n    tag_487:\n        /* \"#utility.yul\":9760:9849   */\n      tag_488\n        /* \"#utility.yul\":9842:9848   */\n      dup2\n        /* \"#utility.yul\":9837:9840   */\n      dup6\n        /* \"#utility.yul\":9760:9849   */\n      tag_489\n      jump\t// in\n    tag_488:\n        /* \"#utility.yul\":9753:9849   */\n      swap4\n      pop\n        /* \"#utility.yul\":9858:9910   */\n      tag_490\n        /* \"#utility.yul\":9903:9909   */\n      dup2\n        /* \"#utility.yul\":9898:9901   */\n      dup6\n        /* \"#utility.yul\":9891:9895   */\n      0x20\n        /* \"#utility.yul\":9884:9889   */\n      dup7\n        /* \"#utility.yul\":9880:9896   */\n      add\n        /* \"#utility.yul\":9858:9910   */\n      tag_475\n      jump\t// in\n    tag_490:\n        /* \"#utility.yul\":9935:9941   */\n      dup1\n        /* \"#utility.yul\":9930:9933   */\n      dup5\n        /* \"#utility.yul\":9926:9942   */\n      add\n        /* \"#utility.yul\":9919:9942   */\n      swap2\n      pop\n        /* \"#utility.yul\":9681:9948   */\n      pop\n        /* \"#utility.yul\":9571:9948   */\n      swap3\n      swap2\n      pop\n      pop\n      jump\t// out\n        /* \"#utility.yul\":9954:10320   */\n    tag_491:\n        /* \"#utility.yul\":10096:10099   */\n      0x00\n        /* \"#utility.yul\":10117:10184   */\n      tag_493\n        /* \"#utility.yul\":10181:10183   */\n      0x20\n        /* \"#utility.yul\":10176:10179   */\n      dup4\n        /* \"#utility.yul\":10117:10184   */\n      tag_482\n      jump\t// in\n    tag_493:\n        /* \"#utility.yul\":10110:10184   */\n      swap2\n      pop\n        /* \"#utility.yul\":10193:10286   */\n      tag_494\n        /* \"#utility.yul\":10282:10285   */\n      dup3\n        /* \"#utility.yul\":10193:10286   */\n      tag_495\n      jump\t// in\n    tag_494:\n        /* \"#utility.yul\":10311:10313   */\n      0x20\n        /* \"#utility.yul\":10306:10309   */\n      dup3\n        /* \"#utility.yul\":10302:10314   */\n      add\n        /* \"#utility.yul\":10295:10314   */\n      swap1\n      pop\n        /* \"#utility.yul\":9954:10320   */\n      swap2\n      swap1\n      pop\n      jump\t// out\n        /* \"#utility.yul\":10326:10692   */\n    tag_496:\n        /* \"#utility.yul\":10468:10471   */\n      0x00\n        /* \"#utility.yul\":10489:10556   */\n      tag_498\n        /* \"#utility.yul\":10553:10555   */\n      0x26\n        /* \"#utility.yul\":10548:10551   */\n      dup4\n        /* \"#utility.yul\":10489:10556   */\n      tag_482\n      jump\t// in\n    tag_498:\n        /* \"#utility.yul\":10482:10556   */\n      swap2\n      pop\n        /* \"#utility.yul\":10565:10658   */\n      tag_499\n        /* \"#utility.yul\":10654:10657   */\n      dup3\n        /* \"#utility.yul\":10565:10658   */\n      tag_500\n      jump\t// in\n    tag_499:\n        /* \"#utility.yul\":10683:10685   */\n      0x40\n        /* \"#utility.yul\":10678:10681   */\n      dup3\n        /* \"#utility.yul\":10674:10686   */\n      add\n        /* \"#utility.yul\":10667:10686   */\n      swap1\n      pop\n        /* \"#utility.yul\":10326:10692   */\n      swap2\n      swap1\n      pop\n      jump\t// out\n        /* \"#utility.yul\":10698:11064   */\n    tag_501:\n        /* \"#utility.yul\":10840:10843   */\n      0x00\n        /* \"#utility.yul\":10861:10928   */\n      tag_503\n        /* \"#utility.yul\":10925:10927   */\n      0x1f\n        /* \"#utility.yul\":10920:10923   */\n      dup4\n        /* \"#utility.yul\":10861:10928   */\n      tag_482\n      jump\t// in\n    tag_503:\n        /* \"#utility.yul\":10854:10928   */\n      swap2\n      pop\n        /* \"#utility.yul\":10937:11030   */\n      tag_504\n        /* \"#utility.yul\":11026:11029   */\n      dup3\n        /* \"#utility.yul\":10937:11030   */\n      tag_505\n      jump\t// in\n    tag_504:\n        /* \"#utility.yul\":11055:11057   */\n      0x20\n        /* \"#utility.yul\":11050:11053   */\n      dup3\n        /* \"#utility.yul\":11046:11058   */\n      add\n        /* \"#utility.yul\":11039:11058   */\n      swap1\n      pop\n        /* \"#utility.yul\":10698:11064   */\n      swap2\n      swap1\n      pop\n      jump\t// out\n        /* \"#utility.yul\":11070:11436   */\n    tag_506:\n        /* \"#utility.yul\":11212:11215   */\n      0x00\n        /* \"#utility.yul\":11233:11300   */\n      tag_508\n        /* \"#utility.yul\":11297:11299   */\n      0x20\n        /* \"#utility.yul\":11292:11295   */\n      dup4\n        /* \"#utility.yul\":11233:11300   */\n      tag_482\n      jump\t// in\n    tag_508:\n        /* \"#utility.yul\":11226:11300   */\n      swap2\n      pop\n        /* \"#utility.yul\":11309:11402   */\n      tag_509\n        /* \"#utility.yul\":11398:11401   */\n      dup3\n        /* \"#utility.yul\":11309:11402   */\n      tag_510\n      jump\t// in\n    tag_509:\n        /* \"#utility.yul\":11427:11429   */\n      0x20\n        /* \"#utility.yul\":11422:11425   */\n      dup3\n        /* \"#utility.yul\":11418:11430   */\n      add\n        /* \"#utility.yul\":11411:11430   */\n      swap1\n      pop\n        /* \"#utility.yul\":11070:11436   */\n      swap2\n      swap1\n      pop\n      jump\t// out\n        /* \"#utility.yul\":11442:11808   */\n    tag_511:\n        /* \"#utility.yul\":11584:11587   */\n      0x00\n        /* \"#utility.yul\":11605:11672   */\n      tag_513\n        /* \"#utility.yul\":11669:11671   */\n      0x15\n        /* \"#utility.yul\":11664:11667   */\n      dup4\n        /* \"#utility.yul\":11605:11672   */\n      tag_482\n      jump\t// in\n    tag_513:\n        /* \"#utility.yul\":11598:11672   */\n      swap2\n      pop\n        /* \"#utility.yul\":11681:11774   */\n      tag_514\n        /* \"#utility.yul\":11770:11773   */\n      dup3\n        /* \"#utility.yul\":11681:11774   */\n      tag_515\n      jump\t// in\n    tag_514:\n        /* \"#utility.yul\":11799:11801   */\n      0x20\n        /* \"#utility.yul\":11794:11797   */\n      dup3\n        /* \"#utility.yul\":11790:11802   */\n      add\n        /* \"#utility.yul\":11783:11802   */\n      swap1\n      pop\n        /* \"#utility.yul\":11442:11808   */\n      swap2\n      swap1\n      pop\n      jump\t// out\n        /* \"#utility.yul\":11814:12216   */\n    tag_516:\n        /* \"#utility.yul\":11974:11977   */\n      0x00\n        /* \"#utility.yul\":11995:12080   */\n      tag_518\n        /* \"#utility.yul\":12077:12079   */\n      0x17\n        /* \"#utility.yul\":12072:12075   */\n      dup4\n        /* \"#utility.yul\":11995:12080   */\n      tag_489\n      jump\t// in\n    tag_518:\n        /* \"#utility.yul\":11988:12080   */\n      swap2\n      pop\n        /* \"#utility.yul\":12089:12182   */\n      tag_519\n        /* \"#utility.yul\":12178:12181   */\n      dup3\n        /* \"#utility.yul\":12089:12182   */\n      tag_520\n      jump\t// in\n    tag_519:\n        /* \"#utility.yul\":12207:12209   */\n      0x17\n        /* \"#utility.yul\":12202:12205   */\n      dup3\n        /* \"#utility.yul\":12198:12210   */\n      add\n        /* \"#utility.yul\":12191:12210   */\n      swap1\n      pop\n        /* \"#utility.yul\":11814:12216   */\n      swap2\n      swap1\n      pop\n      jump\t// out\n        /* \"#utility.yul\":12222:12624   */\n    tag_521:\n        /* \"#utility.yul\":12382:12385   */\n      0x00\n        /* \"#utility.yul\":12403:12488   */\n      tag_523\n        /* \"#utility.yul\":12485:12487   */\n      0x11\n        /* \"#utility.yul\":12480:12483   */\n      dup4\n        /* \"#utility.yul\":12403:12488   */\n      tag_489\n      jump\t// in\n    tag_523:\n        /* \"#utility.yul\":12396:12488   */\n      swap2\n      pop\n        /* \"#utility.yul\":12497:12590   */\n      tag_524\n        /* \"#utility.yul\":12586:12589   */\n      dup3\n        /* \"#utility.yul\":12497:12590   */\n      tag_525\n      jump\t// in\n    tag_524:\n        /* \"#utility.yul\":12615:12617   */\n      0x11\n        /* \"#utility.yul\":12610:12613   */\n      dup3\n        /* \"#utility.yul\":12606:12618   */\n      add\n        /* \"#utility.yul\":12599:12618   */\n      swap1\n      pop\n        /* \"#utility.yul\":12222:12624   */\n      swap2\n      swap1\n      pop\n      jump\t// out\n        /* \"#utility.yul\":12630:12996   */\n    tag_526:\n        /* \"#utility.yul\":12772:12775   */\n      0x00\n        /* \"#utility.yul\":12793:12860   */\n      tag_528\n        /* \"#utility.yul\":12857:12859   */\n      0x2f\n        /* \"#utility.yul\":12852:12855   */\n      dup4\n        /* \"#utility.yul\":12793:12860   */\n      tag_482\n      jump\t// in\n    tag_528:\n        /* \"#utility.yul\":12786:12860   */\n      swap2\n      pop\n        /* \"#utility.yul\":12869:12962   */\n      tag_529\n        /* \"#utility.yul\":12958:12961   */\n      dup3\n        /* \"#utility.yul\":12869:12962   */\n      tag_530\n      jump\t// in\n    tag_529:\n        /* \"#utility.yul\":12987:12989   */\n      0x40\n        /* \"#utility.yul\":12982:12985   */\n      dup3\n        /* \"#utility.yul\":12978:12990   */\n      add\n        /* \"#utility.yul\":12971:12990   */\n      swap1\n      pop\n        /* \"#utility.yul\":12630:12996   */\n      swap2\n      swap1\n      pop\n      jump\t// out\n        /* \"#utility.yul\":13056:13910   */\n    tag_531:\n        /* \"#utility.yul\":13177:13180   */\n      0x00\n        /* \"#utility.yul\":13213:13217   */\n      0x60\n        /* \"#utility.yul\":13208:13211   */\n      dup4\n        /* \"#utility.yul\":13204:13218   */\n      add\n        /* \"#utility.yul\":13300:13304   */\n      0x00\n        /* \"#utility.yul\":13293:13298   */\n      dup4\n        /* \"#utility.yul\":13289:13305   */\n      add\n        /* \"#utility.yul\":13283:13306   */\n      mload\n        /* \"#utility.yul\":13353:13356   */\n      dup5\n        /* \"#utility.yul\":13347:13351   */\n      dup3\n        /* \"#utility.yul\":13343:13357   */\n      sub\n        /* \"#utility.yul\":13336:13340   */\n      0x00\n        /* \"#utility.yul\":13331:13334   */\n      dup7\n        /* \"#utility.yul\":13327:13341   */\n      add\n        /* \"#utility.yul\":13320:13358   */\n      mstore\n        /* \"#utility.yul\":13379:13452   */\n      tag_533\n        /* \"#utility.yul\":13447:13451   */\n      dup3\n        /* \"#utility.yul\":13433:13445   */\n      dup3\n        /* \"#utility.yul\":13379:13452   */\n      tag_468\n      jump\t// in\n    tag_533:\n        /* \"#utility.yul\":13371:13452   */\n      swap2\n      pop\n        /* \"#utility.yul\":13228:13463   */\n      pop\n        /* \"#utility.yul\":13545:13549   */\n      0x20\n        /* \"#utility.yul\":13538:13543   */\n      dup4\n        /* \"#utility.yul\":13534:13550   */\n      add\n        /* \"#utility.yul\":13528:13551   */\n      mload\n        /* \"#utility.yul\":13564:13627   */\n      tag_534\n        /* \"#utility.yul\":13621:13625   */\n      0x20\n        /* \"#utility.yul\":13616:13619   */\n      dup7\n        /* \"#utility.yul\":13612:13626   */\n      add\n        /* \"#utility.yul\":13598:13610   */\n      dup3\n        /* \"#utility.yul\":13564:13627   */\n      tag_418\n      jump\t// in\n    tag_534:\n        /* \"#utility.yul\":13473:13637   */\n      pop\n        /* \"#utility.yul\":13720:13724   */\n      0x40\n        /* \"#utility.yul\":13713:13718   */\n      dup4\n        /* \"#utility.yul\":13709:13725   */\n      add\n        /* \"#utility.yul\":13703:13726   */\n      mload\n        /* \"#utility.yul\":13773:13776   */\n      dup5\n        /* \"#utility.yul\":13767:13771   */\n      dup3\n        /* \"#utility.yul\":13763:13777   */\n      sub\n        /* \"#utility.yul\":13756:13760   */\n      0x40\n        /* \"#utility.yul\":13751:13754   */\n      dup7\n        /* \"#utility.yul\":13747:13761   */\n      add\n        /* \"#utility.yul\":13740:13778   */\n      mstore\n        /* \"#utility.yul\":13799:13872   */\n      tag_535\n        /* \"#utility.yul\":13867:13871   */\n      dup3\n        /* \"#utility.yul\":13853:13865   */\n      dup3\n        /* \"#utility.yul\":13799:13872   */\n      tag_468\n      jump\t// in\n    tag_535:\n        /* \"#utility.yul\":13791:13872   */\n      swap2\n      pop\n        /* \"#utility.yul\":13647:13883   */\n      pop\n        /* \"#utility.yul\":13900:13904   */\n      dup1\n        /* \"#utility.yul\":13893:13904   */\n      swap2\n      pop\n        /* \"#utility.yul\":13182:13910   */\n      pop\n        /* \"#utility.yul\":13056:13910   */\n      swap3\n      swap2\n      pop\n      pop\n      jump\t// out\n        /* \"#utility.yul\":13968:15191   */\n    tag_536:\n        /* \"#utility.yul\":14087:14090   */\n      0x00\n        /* \"#utility.yul\":14123:14129   */\n      0x0100\n        /* \"#utility.yul\":14118:14121   */\n      dup4\n        /* \"#utility.yul\":14114:14130   */\n      add\n        /* \"#utility.yul\":14217:14221   */\n      0x00\n        /* \"#utility.yul\":14210:14215   */\n      dup4\n        /* \"#utility.yul\":14206:14222   */\n      add\n        /* \"#utility.yul\":14200:14223   */\n      mload\n        /* \"#utility.yul\":14270:14273   */\n      dup5\n        /* \"#utility.yul\":14264:14268   */\n      dup3\n        /* \"#utility.yul\":14260:14274   */\n      sub\n        /* \"#utility.yul\":14253:14257   */\n      0x00\n        /* \"#utility.yul\":14248:14251   */\n      dup7\n        /* \"#utility.yul\":14244:14258   */\n      add\n        /* \"#utility.yul\":14237:14275   */\n      mstore\n        /* \"#utility.yul\":14296:14399   */\n      tag_538\n        /* \"#utility.yul\":14394:14398   */\n      dup3\n        /* \"#utility.yul\":14380:14392   */\n      dup3\n        /* \"#utility.yul\":14296:14399   */\n      tag_429\n      jump\t// in\n    tag_538:\n        /* \"#utility.yul\":14288:14399   */\n      swap2\n      pop\n        /* \"#utility.yul\":14140:14410   */\n      pop\n        /* \"#utility.yul\":14501:14505   */\n      0x20\n        /* \"#utility.yul\":14494:14499   */\n      dup4\n        /* \"#utility.yul\":14490:14506   */\n      add\n        /* \"#utility.yul\":14484:14507   */\n      mload\n        /* \"#utility.yul\":14520:14629   */\n      tag_539\n        /* \"#utility.yul\":14623:14627   */\n      0x20\n        /* \"#utility.yul\":14618:14621   */\n      dup7\n        /* \"#utility.yul\":14614:14628   */\n      add\n        /* \"#utility.yul\":14600:14612   */\n      dup3\n        /* \"#utility.yul\":14520:14629   */\n      tag_443\n      jump\t// in\n    tag_539:\n        /* \"#utility.yul\":14420:14639   */\n      pop\n        /* \"#utility.yul\":14722:14726   */\n      0x40\n        /* \"#utility.yul\":14715:14720   */\n      dup4\n        /* \"#utility.yul\":14711:14727   */\n      add\n        /* \"#utility.yul\":14705:14728   */\n      mload\n        /* \"#utility.yul\":14741:14804   */\n      tag_540\n        /* \"#utility.yul\":14798:14802   */\n      0xa0\n        /* \"#utility.yul\":14793:14796   */\n      dup7\n        /* \"#utility.yul\":14789:14803   */\n      add\n        /* \"#utility.yul\":14775:14787   */\n      dup3\n        /* \"#utility.yul\":14741:14804   */\n      tag_422\n      jump\t// in\n    tag_540:\n        /* \"#utility.yul\":14649:14814   */\n      pop\n        /* \"#utility.yul\":14900:14904   */\n      0x60\n        /* \"#utility.yul\":14893:14898   */\n      dup4\n        /* \"#utility.yul\":14889:14905   */\n      add\n        /* \"#utility.yul\":14883:14906   */\n      mload\n        /* \"#utility.yul\":14919:14982   */\n      tag_541\n        /* \"#utility.yul\":14976:14980   */\n      0xc0\n        /* \"#utility.yul\":14971:14974   */\n      dup7\n        /* \"#utility.yul\":14967:14981   */\n      add\n        /* \"#utility.yul\":14953:14965   */\n      dup3\n        /* \"#utility.yul\":14919:14982   */\n      tag_422\n      jump\t// in\n    tag_541:\n        /* \"#utility.yul\":14824:14992   */\n      pop\n        /* \"#utility.yul\":15078:15082   */\n      0x80\n        /* \"#utility.yul\":15071:15076   */\n      dup4\n        /* \"#utility.yul\":15067:15083   */\n      add\n        /* \"#utility.yul\":15061:15084   */\n      mload\n        /* \"#utility.yul\":15097:15154   */\n      tag_542\n        /* \"#utility.yul\":15148:15152   */\n      0xe0\n        /* \"#utility.yul\":15143:15146   */\n      dup7\n        /* \"#utility.yul\":15139:15153   */\n      add\n        /* \"#utility.yul\":15125:15137   */\n      dup3\n        /* \"#utility.yul\":15097:15154   */\n      tag_457\n      jump\t// in\n    tag_542:\n        /* \"#utility.yul\":15002:15164   */\n      pop\n        /* \"#utility.yul\":15181:15185   */\n      dup1\n        /* \"#utility.yul\":15174:15185   */\n      swap2\n      pop\n        /* \"#utility.yul\":14092:15191   */\n      pop\n        /* \"#utility.yul\":13968:15191   */\n      swap3\n      swap2\n      pop\n      pop\n      jump\t// out\n        /* \"#utility.yul\":15197:15305   */\n    tag_422:\n        /* \"#utility.yul\":15274:15298   */\n      tag_544\n        /* \"#utility.yul\":15292:15297   */\n      dup2\n        /* \"#utility.yul\":15274:15298   */\n      tag_545\n      jump\t// in\n    tag_544:\n        /* \"#utility.yul\":15269:15272   */\n      dup3\n        /* \"#utility.yul\":15262:15299   */\n      mstore\n        /* \"#utility.yul\":15197:15305   */\n      pop\n      pop\n      jump\t// out\n        /* \"#utility.yul\":15311:15429   */\n    tag_546:\n        /* \"#utility.yul\":15398:15422   */\n      tag_548\n        /* \"#utility.yul\":15416:15421   */\n      dup2\n        /* \"#utility.yul\":15398:15422   */\n      tag_545\n      jump\t// in\n    tag_548:\n        /* \"#utility.yul\":15393:15396   */\n      dup3\n        /* \"#utility.yul\":15386:15423   */\n      mstore\n        /* \"#utility.yul\":15311:15429   */\n      pop\n      pop\n      jump\t// out\n        /* \"#utility.yul\":15435:16402   */\n    tag_272:\n        /* \"#utility.yul\":15817:15820   */\n      0x00\n        /* \"#utility.yul\":15839:15987   */\n      tag_550\n        /* \"#utility.yul\":15983:15986   */\n      dup3\n        /* \"#utility.yul\":15839:15987   */\n      tag_516\n      jump\t// in\n    tag_550:\n        /* \"#utility.yul\":15832:15987   */\n      swap2\n      pop\n        /* \"#utility.yul\":16004:16099   */\n      tag_551\n        /* \"#utility.yul\":16095:16098   */\n      dup3\n        /* \"#utility.yul\":16086:16092   */\n      dup6\n        /* \"#utility.yul\":16004:16099   */\n      tag_485\n      jump\t// in\n    tag_551:\n        /* \"#utility.yul\":15997:16099   */\n      swap2\n      pop\n        /* \"#utility.yul\":16116:16264   */\n      tag_552\n        /* \"#utility.yul\":16260:16263   */\n      dup3\n        /* \"#utility.yul\":16116:16264   */\n      tag_521\n      jump\t// in\n    tag_552:\n        /* \"#utility.yul\":16109:16264   */\n      swap2\n      pop\n        /* \"#utility.yul\":16281:16376   */\n      tag_553\n        /* \"#utility.yul\":16372:16375   */\n      dup3\n        /* \"#utility.yul\":16363:16369   */\n      dup5\n        /* \"#utility.yul\":16281:16376   */\n      tag_485\n      jump\t// in\n    tag_553:\n        /* \"#utility.yul\":16274:16376   */\n      swap2\n      pop\n        /* \"#utility.yul\":16393:16396   */\n      dup2\n        /* \"#utility.yul\":16386:16396   */\n      swap1\n      pop\n        /* \"#utility.yul\":15435:16402   */\n      swap4\n      swap3\n      pop\n      pop\n      pop\n      jump\t// out\n        /* \"#utility.yul\":16408:16630   */\n    tag_74:\n        /* \"#utility.yul\":16501:16505   */\n      0x00\n        /* \"#utility.yul\":16539:16541   */\n      0x20\n        /* \"#utility.yul\":16528:16537   */\n      dup3\n        /* \"#utility.yul\":16524:16542   */\n      add\n        /* \"#utility.yul\":16516:16542   */\n      swap1\n      pop\n        /* \"#utility.yul\":16552:16623   */\n      tag_555\n        /* \"#utility.yul\":16620:16621   */\n      0x00\n        /* \"#utility.yul\":16609:16618   */\n      dup4\n        /* \"#utility.yul\":16605:16622   */\n      add\n        /* \"#utility.yul\":16596:16602   */\n      dup5\n        /* \"#utility.yul\":16552:16623   */\n      tag_426\n      jump\t// in\n    tag_555:\n        /* \"#utility.yul\":16408:16630   */\n      swap3\n      swap2\n      pop\n      pop\n      jump\t// out\n        /* \"#utility.yul\":16636:17177   */\n    tag_83:\n        /* \"#utility.yul\":16807:16811   */\n      0x00\n        /* \"#utility.yul\":16845:16848   */\n      0x80\n        /* \"#utility.yul\":16834:16843   */\n      dup3\n        /* \"#utility.yul\":16830:16849   */\n      add\n        /* \"#utility.yul\":16822:16849   */\n      swap1\n      pop\n        /* \"#utility.yul\":16859:16930   */\n      tag_557\n        /* \"#utility.yul\":16927:16928   */\n      0x00\n        /* \"#utility.yul\":16916:16925   */\n      dup4\n        /* \"#utility.yul\":16912:16929   */\n      add\n        /* \"#utility.yul\":16903:16909   */\n      dup8\n        /* \"#utility.yul\":16859:16930   */\n      tag_426\n      jump\t// in\n    tag_557:\n        /* \"#utility.yul\":16940:17012   */\n      tag_558\n        /* \"#utility.yul\":17008:17010   */\n      0x20\n        /* \"#utility.yul\":16997:17006   */\n      dup4\n        /* \"#utility.yul\":16993:17011   */\n      add\n        /* \"#utility.yul\":16984:16990   */\n      dup7\n        /* \"#utility.yul\":16940:17012   */\n      tag_546\n      jump\t// in\n    tag_558:\n        /* \"#utility.yul\":17022:17094   */\n      tag_559\n        /* \"#utility.yul\":17090:17092   */\n      0x40\n        /* \"#utility.yul\":17079:17088   */\n      dup4\n        /* \"#utility.yul\":17075:17093   */\n      add\n        /* \"#utility.yul\":17066:17072   */\n      dup6\n        /* \"#utility.yul\":17022:17094   */\n      tag_546\n      jump\t// in\n    tag_559:\n        /* \"#utility.yul\":17104:17170   */\n      tag_560\n        /* \"#utility.yul\":17166:17168   */\n      0x60\n        /* \"#utility.yul\":17155:17164   */\n      dup4\n        /* \"#utility.yul\":17151:17169   */\n      add\n        /* \"#utility.yul\":17142:17148   */\n      dup5\n        /* \"#utility.yul\":17104:17170   */\n      tag_461\n      jump\t// in\n    tag_560:\n        /* \"#utility.yul\":16636:17177   */\n      swap6\n      swap5\n      pop\n      pop\n      pop\n      pop\n      pop\n      jump\t// out\n        /* \"#utility.yul\":17183:17393   */\n    tag_33:\n        /* \"#utility.yul\":17270:17274   */\n      0x00\n        /* \"#utility.yul\":17308:17310   */\n      0x20\n        /* \"#utility.yul\":17297:17306   */\n      dup3\n        /* \"#utility.yul\":17293:17311   */\n      add\n        /* \"#utility.yul\":17285:17311   */\n      swap1\n      pop\n        /* \"#utility.yul\":17321:17386   */\n      tag_562\n        /* \"#utility.yul\":17383:17384   */\n      0x00\n        /* \"#utility.yul\":17372:17381   */\n      dup4\n        /* \"#utility.yul\":17368:17385   */\n      add\n        /* \"#utility.yul\":17359:17365   */\n      dup5\n        /* \"#utility.yul\":17321:17386   */\n      tag_461\n      jump\t// in\n    tag_562:\n        /* \"#utility.yul\":17183:17393   */\n      swap3\n      swap2\n      pop\n      pop\n      jump\t// out\n        /* \"#utility.yul\":17399:17621   */\n    tag_39:\n        /* \"#utility.yul\":17492:17496   */\n      0x00\n        /* \"#utility.yul\":17530:17532   */\n      0x20\n        /* \"#utility.yul\":17519:17528   */\n      dup3\n        /* \"#utility.yul\":17515:17533   */\n      add\n        /* \"#utility.yul\":17507:17533   */\n      swap1\n      pop\n        /* \"#utility.yul\":17543:17614   */\n      tag_564\n        /* \"#utility.yul\":17611:17612   */\n      0x00\n        /* \"#utility.yul\":17600:17609   */\n      dup4\n        /* \"#utility.yul\":17596:17613   */\n      add\n        /* \"#utility.yul\":17587:17593   */\n      dup5\n        /* \"#utility.yul\":17543:17614   */\n      tag_464\n      jump\t// in\n    tag_564:\n        /* \"#utility.yul\":17399:17621   */\n      swap3\n      swap2\n      pop\n      pop\n      jump\t// out\n        /* \"#utility.yul\":17627:17940   */\n    tag_57:\n        /* \"#utility.yul\":17740:17744   */\n      0x00\n        /* \"#utility.yul\":17778:17780   */\n      0x20\n        /* \"#utility.yul\":17767:17776   */\n      dup3\n        /* \"#utility.yul\":17763:17781   */\n      add\n        /* \"#utility.yul\":17755:17781   */\n      swap1\n      pop\n        /* \"#utility.yul\":17827:17836   */\n      dup2\n        /* \"#utility.yul\":17821:17825   */\n      dup2\n        /* \"#utility.yul\":17817:17837   */\n      sub\n        /* \"#utility.yul\":17813:17814   */\n      0x00\n        /* \"#utility.yul\":17802:17811   */\n      dup4\n        /* \"#utility.yul\":17798:17815   */\n      add\n        /* \"#utility.yul\":17791:17838   */\n      mstore\n        /* \"#utility.yul\":17855:17933   */\n      tag_566\n        /* \"#utility.yul\":17928:17932   */\n      dup2\n        /* \"#utility.yul\":17919:17925   */\n      dup5\n        /* \"#utility.yul\":17855:17933   */\n      tag_478\n      jump\t// in\n    tag_566:\n        /* \"#utility.yul\":17847:17933   */\n      swap1\n      pop\n        /* \"#utility.yul\":17627:17940   */\n      swap3\n      swap2\n      pop\n      pop\n      jump\t// out\n        /* \"#utility.yul\":17946:18570   */\n    tag_45:\n        /* \"#utility.yul\":18135:18139   */\n      0x00\n        /* \"#utility.yul\":18173:18175   */\n      0x60\n        /* \"#utility.yul\":18162:18171   */\n      dup3\n        /* \"#utility.yul\":18158:18176   */\n      add\n        /* \"#utility.yul\":18150:18176   */\n      swap1\n      pop\n        /* \"#utility.yul\":18222:18231   */\n      dup2\n        /* \"#utility.yul\":18216:18220   */\n      dup2\n        /* \"#utility.yul\":18212:18232   */\n      sub\n        /* \"#utility.yul\":18208:18209   */\n      0x00\n        /* \"#utility.yul\":18197:18206   */\n      dup4\n        /* \"#utility.yul\":18193:18210   */\n      add\n        /* \"#utility.yul\":18186:18233   */\n      mstore\n        /* \"#utility.yul\":18250:18328   */\n      tag_568\n        /* \"#utility.yul\":18323:18327   */\n      dup2\n        /* \"#utility.yul\":18314:18320   */\n      dup7\n        /* \"#utility.yul\":18250:18328   */\n      tag_478\n      jump\t// in\n    tag_568:\n        /* \"#utility.yul\":18242:18328   */\n      swap1\n      pop\n        /* \"#utility.yul\":18338:18410   */\n      tag_569\n        /* \"#utility.yul\":18406:18408   */\n      0x20\n        /* \"#utility.yul\":18395:18404   */\n      dup4\n        /* \"#utility.yul\":18391:18409   */\n      add\n        /* \"#utility.yul\":18382:18388   */\n      dup6\n        /* \"#utility.yul\":18338:18410   */\n      tag_426\n      jump\t// in\n    tag_569:\n        /* \"#utility.yul\":18457:18466   */\n      dup2\n        /* \"#utility.yul\":18451:18455   */\n      dup2\n        /* \"#utility.yul\":18447:18467   */\n      sub\n        /* \"#utility.yul\":18442:18444   */\n      0x40\n        /* \"#utility.yul\":18431:18440   */\n      dup4\n        /* \"#utility.yul\":18427:18445   */\n      add\n        /* \"#utility.yul\":18420:18468   */\n      mstore\n        /* \"#utility.yul\":18485:18563   */\n      tag_570\n        /* \"#utility.yul\":18558:18562   */\n      dup2\n        /* \"#utility.yul\":18549:18555   */\n      dup5\n        /* \"#utility.yul\":18485:18563   */\n      tag_478\n      jump\t// in\n    tag_570:\n        /* \"#utility.yul\":18477:18563   */\n      swap1\n      pop\n        /* \"#utility.yul\":17946:18570   */\n      swap5\n      swap4\n      pop\n      pop\n      pop\n      pop\n      jump\t// out\n        /* \"#utility.yul\":18576:18995   */\n    tag_300:\n        /* \"#utility.yul\":18742:18746   */\n      0x00\n        /* \"#utility.yul\":18780:18782   */\n      0x20\n        /* \"#utility.yul\":18769:18778   */\n      dup3\n        /* \"#utility.yul\":18765:18783   */\n      add\n        /* \"#utility.yul\":18757:18783   */\n      swap1\n      pop\n        /* \"#utility.yul\":18829:18838   */\n      dup2\n        /* \"#utility.yul\":18823:18827   */\n      dup2\n        /* \"#utility.yul\":18819:18839   */\n      sub\n        /* \"#utility.yul\":18815:18816   */\n      0x00\n        /* \"#utility.yul\":18804:18813   */\n      dup4\n        /* \"#utility.yul\":18800:18817   */\n      add\n        /* \"#utility.yul\":18793:18840   */\n      mstore\n        /* \"#utility.yul\":18857:18988   */\n      tag_572\n        /* \"#utility.yul\":18983:18987   */\n      dup2\n        /* \"#utility.yul\":18857:18988   */\n      tag_491\n      jump\t// in\n    tag_572:\n        /* \"#utility.yul\":18849:18988   */\n      swap1\n      pop\n        /* \"#utility.yul\":18576:18995   */\n      swap2\n      swap1\n      pop\n      jump\t// out\n        /* \"#utility.yul\":19001:19420   */\n    tag_240:\n        /* \"#utility.yul\":19167:19171   */\n      0x00\n        /* \"#utility.yul\":19205:19207   */\n      0x20\n        /* \"#utility.yul\":19194:19203   */\n      dup3\n        /* \"#utility.yul\":19190:19208   */\n      add\n        /* \"#utility.yul\":19182:19208   */\n      swap1\n      pop\n        /* \"#utility.yul\":19254:19263   */\n      dup2\n        /* \"#utility.yul\":19248:19252   */\n      dup2\n        /* \"#utility.yul\":19244:19264   */\n      sub\n        /* \"#utility.yul\":19240:19241   */\n      0x00\n        /* \"#utility.yul\":19229:19238   */\n      dup4\n        /* \"#utility.yul\":19225:19242   */\n      add\n        /* \"#utility.yul\":19218:19265   */\n      mstore\n        /* \"#utility.yul\":19282:19413   */\n      tag_574\n        /* \"#utility.yul\":19408:19412   */\n      dup2\n        /* \"#utility.yul\":19282:19413   */\n      tag_496\n      jump\t// in\n    tag_574:\n        /* \"#utility.yul\":19274:19413   */\n      swap1\n      pop\n        /* \"#utility.yul\":19001:19420   */\n      swap2\n      swap1\n      pop\n      jump\t// out\n        /* \"#utility.yul\":19426:19845   */\n    tag_171:\n        /* \"#utility.yul\":19592:19596   */\n      0x00\n        /* \"#utility.yul\":19630:19632   */\n      0x20\n        /* \"#utility.yul\":19619:19628   */\n      dup3\n        /* \"#utility.yul\":19615:19633   */\n      add\n        /* \"#utility.yul\":19607:19633   */\n      swap1\n      pop\n        /* \"#utility.yul\":19679:19688   */\n      dup2\n        /* \"#utility.yul\":19673:19677   */\n      dup2\n        /* \"#utility.yul\":19669:19689   */\n      sub\n        /* \"#utility.yul\":19665:19666   */\n      0x00\n        /* \"#utility.yul\":19654:19663   */\n      dup4\n        /* \"#utility.yul\":19650:19667   */\n      add\n        /* \"#utility.yul\":19643:19690   */\n      mstore\n        /* \"#utility.yul\":19707:19838   */\n      tag_576\n        /* \"#utility.yul\":19833:19837   */\n      dup2\n        /* \"#utility.yul\":19707:19838   */\n      tag_501\n      jump\t// in\n    tag_576:\n        /* \"#utility.yul\":19699:19838   */\n      swap1\n      pop\n        /* \"#utility.yul\":19426:19845   */\n      swap2\n      swap1\n      pop\n      jump\t// out\n        /* \"#utility.yul\":19851:20270   */\n    tag_261:\n        /* \"#utility.yul\":20017:20021   */\n      0x00\n        /* \"#utility.yul\":20055:20057   */\n      0x20\n        /* \"#utility.yul\":20044:20053   */\n      dup3\n        /* \"#utility.yul\":20040:20058   */\n      add\n        /* \"#utility.yul\":20032:20058   */\n      swap1\n      pop\n        /* \"#utility.yul\":20104:20113   */\n      dup2\n        /* \"#utility.yul\":20098:20102   */\n      dup2\n        /* \"#utility.yul\":20094:20114   */\n      sub\n        /* \"#utility.yul\":20090:20091   */\n      0x00\n        /* \"#utility.yul\":20079:20088   */\n      dup4\n        /* \"#utility.yul\":20075:20092   */\n      add\n        /* \"#utility.yul\":20068:20115   */\n      mstore\n        /* \"#utility.yul\":20132:20263   */\n      tag_578\n        /* \"#utility.yul\":20258:20262   */\n      dup2\n        /* \"#utility.yul\":20132:20263   */\n      tag_506\n      jump\t// in\n    tag_578:\n        /* \"#utility.yul\":20124:20263   */\n      swap1\n      pop\n        /* \"#utility.yul\":19851:20270   */\n      swap2\n      swap1\n      pop\n      jump\t// out\n        /* \"#utility.yul\":20276:20695   */\n    tag_159:\n        /* \"#utility.yul\":20442:20446   */\n      0x00\n        /* \"#utility.yul\":20480:20482   */\n      0x20\n        /* \"#utility.yul\":20469:20478   */\n      dup3\n        /* \"#utility.yul\":20465:20483   */\n      add\n        /* \"#utility.yul\":20457:20483   */\n      swap1\n      pop\n        /* \"#utility.yul\":20529:20538   */\n      dup2\n        /* \"#utility.yul\":20523:20527   */\n      dup2\n        /* \"#utility.yul\":20519:20539   */\n      sub\n        /* \"#utility.yul\":20515:20516   */\n      0x00\n        /* \"#utility.yul\":20504:20513   */\n      dup4\n        /* \"#utility.yul\":20500:20517   */\n      add\n        /* \"#utility.yul\":20493:20540   */\n      mstore\n        /* \"#utility.yul\":20557:20688   */\n      tag_580\n        /* \"#utility.yul\":20683:20687   */\n      dup2\n        /* \"#utility.yul\":20557:20688   */\n      tag_511\n      jump\t// in\n    tag_580:\n        /* \"#utility.yul\":20549:20688   */\n      swap1\n      pop\n        /* \"#utility.yul\":20276:20695   */\n      swap2\n      swap1\n      pop\n      jump\t// out\n        /* \"#utility.yul\":20701:21120   */\n    tag_152:\n        /* \"#utility.yul\":20867:20871   */\n      0x00\n        /* \"#utility.yul\":20905:20907   */\n      0x20\n        /* \"#utility.yul\":20894:20903   */\n      dup3\n        /* \"#utility.yul\":20890:20908   */\n      add\n        /* \"#utility.yul\":20882:20908   */\n      swap1\n      pop\n        /* \"#utility.yul\":20954:20963   */\n      dup2\n        /* \"#utility.yul\":20948:20952   */\n      dup2\n        /* \"#utility.yul\":20944:20964   */\n      sub\n        /* \"#utility.yul\":20940:20941   */\n      0x00\n        /* \"#utility.yul\":20929:20938   */\n      dup4\n        /* \"#utility.yul\":20925:20942   */\n      add\n        /* \"#utility.yul\":20918:20965   */\n      mstore\n        /* \"#utility.yul\":20982:21113   */\n      tag_582\n        /* \"#utility.yul\":21108:21112   */\n      dup2\n        /* \"#utility.yul\":20982:21113   */\n      tag_526\n      jump\t// in\n    tag_582:\n        /* \"#utility.yul\":20974:21113   */\n      swap1\n      pop\n        /* \"#utility.yul\":20701:21120   */\n      swap2\n      swap1\n      pop\n      jump\t// out\n        /* \"#utility.yul\":21126:21503   */\n    tag_93:\n        /* \"#utility.yul\":21271:21275   */\n      0x00\n        /* \"#utility.yul\":21309:21311   */\n      0x20\n        /* \"#utility.yul\":21298:21307   */\n      dup3\n        /* \"#utility.yul\":21294:21312   */\n      add\n        /* \"#utility.yul\":21286:21312   */\n      swap1\n      pop\n        /* \"#utility.yul\":21358:21367   */\n      dup2\n        /* \"#utility.yul\":21352:21356   */\n      dup2\n        /* \"#utility.yul\":21348:21368   */\n      sub\n        /* \"#utility.yul\":21344:21345   */\n      0x00\n        /* \"#utility.yul\":21333:21342   */\n      dup4\n        /* \"#utility.yul\":21329:21346   */\n      add\n        /* \"#utility.yul\":21322:21369   */\n      mstore\n        /* \"#utility.yul\":21386:21496   */\n      tag_584\n        /* \"#utility.yul\":21491:21495   */\n      dup2\n        /* \"#utility.yul\":21482:21488   */\n      dup5\n        /* \"#utility.yul\":21386:21496   */\n      tag_531\n      jump\t// in\n    tag_584:\n        /* \"#utility.yul\":21378:21496   */\n      swap1\n      pop\n        /* \"#utility.yul\":21126:21503   */\n      swap3\n      swap2\n      pop\n      pop\n      jump\t// out\n        /* \"#utility.yul\":21509:21882   */\n    tag_88:\n        /* \"#utility.yul\":21652:21656   */\n      0x00\n        /* \"#utility.yul\":21690:21692   */\n      0x20\n        /* \"#utility.yul\":21679:21688   */\n      dup3\n        /* \"#utility.yul\":21675:21693   */\n      add\n        /* \"#utility.yul\":21667:21693   */\n      swap1\n      pop\n        /* \"#utility.yul\":21739:21748   */\n      dup2\n        /* \"#utility.yul\":21733:21737   */\n      dup2\n        /* \"#utility.yul\":21729:21749   */\n      sub\n        /* \"#utility.yul\":21725:21726   */\n      0x00\n        /* \"#utility.yul\":21714:21723   */\n      dup4\n        /* \"#utility.yul\":21710:21727   */\n      add\n        /* \"#utility.yul\":21703:21750   */\n      mstore\n        /* \"#utility.yul\":21767:21875   */\n      tag_586\n        /* \"#utility.yul\":21870:21874   */\n      dup2\n        /* \"#utility.yul\":21861:21867   */\n      dup5\n        /* \"#utility.yul\":21767:21875   */\n      tag_536\n      jump\t// in\n    tag_586:\n        /* \"#utility.yul\":21759:21875   */\n      swap1\n      pop\n        /* \"#utility.yul\":21509:21882   */\n      swap3\n      swap2\n      pop\n      pop\n      jump\t// out\n        /* \"#utility.yul\":21888:22017   */\n    tag_326:\n        /* \"#utility.yul\":21922:21928   */\n      0x00\n        /* \"#utility.yul\":21949:21969   */\n      tag_588\n      tag_589\n      jump\t// in\n    tag_588:\n        /* \"#utility.yul\":21939:21969   */\n      swap1\n      pop\n        /* \"#utility.yul\":21978:22011   */\n      tag_590\n        /* \"#utility.yul\":22006:22010   */\n      dup3\n        /* \"#utility.yul\":21998:22004   */\n      dup3\n        /* \"#utility.yul\":21978:22011   */\n      tag_591\n      jump\t// in\n    tag_590:\n        /* \"#utility.yul\":21888:22017   */\n      swap2\n      swap1\n      pop\n      jump\t// out\n        /* \"#utility.yul\":22023:22098   */\n    tag_589:\n        /* \"#utility.yul\":22056:22062   */\n      0x00\n        /* \"#utility.yul\":22089:22091   */\n      0x40\n        /* \"#utility.yul\":22083:22092   */\n      mload\n        /* \"#utility.yul\":22073:22092   */\n      swap1\n      pop\n        /* \"#utility.yul\":22023:22098   */\n      swap1\n      jump\t// out\n        /* \"#utility.yul\":22104:22415   */\n    tag_325:\n        /* \"#utility.yul\":22181:22185   */\n      0x00\n        /* \"#utility.yul\":22271:22289   */\n      0xffffffffffffffff\n        /* \"#utility.yul\":22263:22269   */\n      dup3\n        /* \"#utility.yul\":22260:22290   */\n      gt\n        /* \"#utility.yul\":22257:22313   */\n      iszero\n      tag_594\n      jumpi\n        /* \"#utility.yul\":22293:22311   */\n      tag_595\n      tag_281\n      jump\t// in\n    tag_595:\n        /* \"#utility.yul\":22257:22313   */\n    tag_594:\n        /* \"#utility.yul\":22343:22347   */\n      0x20\n        /* \"#utility.yul\":22335:22341   */\n      dup3\n        /* \"#utility.yul\":22331:22348   */\n      mul\n        /* \"#utility.yul\":22323:22348   */\n      swap1\n      pop\n        /* \"#utility.yul\":22403:22407   */\n      0x20\n        /* \"#utility.yul\":22397:22401   */\n      dup2\n        /* \"#utility.yul\":22393:22408   */\n      add\n        /* \"#utility.yul\":22385:22408   */\n      swap1\n      pop\n        /* \"#utility.yul\":22104:22415   */\n      swap2\n      swap1\n      pop\n      jump\t// out\n        /* \"#utility.yul\":22421:22729   */\n    tag_339:\n        /* \"#utility.yul\":22483:22487   */\n      0x00\n        /* \"#utility.yul\":22573:22591   */\n      0xffffffffffffffff\n        /* \"#utility.yul\":22565:22571   */\n      dup3\n        /* \"#utility.yul\":22562:22592   */\n      gt\n        /* \"#utility.yul\":22559:22615   */\n      iszero\n      tag_597\n      jumpi\n        /* \"#utility.yul\":22595:22613   */\n      tag_598\n      tag_281\n      jump\t// in\n    tag_598:\n        /* \"#utility.yul\":22559:22615   */\n    tag_597:\n        /* \"#utility.yul\":22633:22662   */\n      tag_599\n        /* \"#utility.yul\":22655:22661   */\n      dup3\n        /* \"#utility.yul\":22633:22662   */\n      tag_477\n      jump\t// in\n    tag_599:\n        /* \"#utility.yul\":22625:22662   */\n      swap1\n      pop\n        /* \"#utility.yul\":22717:22721   */\n      0x20\n        /* \"#utility.yul\":22711:22715   */\n      dup2\n        /* \"#utility.yul\":22707:22722   */\n      add\n        /* \"#utility.yul\":22699:22722   */\n      swap1\n      pop\n        /* \"#utility.yul\":22421:22729   */\n      swap2\n      swap1\n      pop\n      jump\t// out\n        /* \"#utility.yul\":22735:22867   */\n    tag_436:\n        /* \"#utility.yul\":22802:22806   */\n      0x00\n        /* \"#utility.yul\":22825:22828   */\n      dup2\n        /* \"#utility.yul\":22817:22828   */\n      swap1\n      pop\n        /* \"#utility.yul\":22855:22859   */\n      0x20\n        /* \"#utility.yul\":22850:22853   */\n      dup3\n        /* \"#utility.yul\":22846:22860   */\n      add\n        /* \"#utility.yul\":22838:22860   */\n      swap1\n      pop\n        /* \"#utility.yul\":22735:22867   */\n      swap2\n      swap1\n      pop\n      jump\t// out\n        /* \"#utility.yul\":22873:22971   */\n    tag_450:\n        /* \"#utility.yul\":22938:22942   */\n      0x00\n        /* \"#utility.yul\":22961:22964   */\n      dup2\n        /* \"#utility.yul\":22953:22964   */\n      swap1\n      pop\n        /* \"#utility.yul\":22873:22971   */\n      swap2\n      swap1\n      pop\n      jump\t// out\n        /* \"#utility.yul\":22977:23091   */\n    tag_432:\n        /* \"#utility.yul\":23044:23050   */\n      0x00\n        /* \"#utility.yul\":23078:23083   */\n      dup2\n        /* \"#utility.yul\":23072:23084   */\n      mload\n        /* \"#utility.yul\":23062:23084   */\n      swap1\n      pop\n        /* \"#utility.yul\":22977:23091   */\n      swap2\n      swap1\n      pop\n      jump\t// out\n        /* \"#utility.yul\":23097:23201   */\n    tag_446:\n        /* \"#utility.yul\":23162:23168   */\n      0x00\n        /* \"#utility.yul\":23190:23194   */\n      0x04\n        /* \"#utility.yul\":23180:23194   */\n      swap1\n      pop\n        /* \"#utility.yul\":23097:23201   */\n      swap2\n      swap1\n      pop\n      jump\t// out\n        /* \"#utility.yul\":23207:23306   */\n    tag_471:\n        /* \"#utility.yul\":23259:23265   */\n      0x00\n        /* \"#utility.yul\":23293:23298   */\n      dup2\n        /* \"#utility.yul\":23287:23299   */\n      mload\n        /* \"#utility.yul\":23277:23299   */\n      swap1\n      pop\n        /* \"#utility.yul\":23207:23306   */\n      swap2\n      swap1\n      pop\n      jump\t// out\n        /* \"#utility.yul\":23312:23425   */\n    tag_442:\n        /* \"#utility.yul\":23382:23386   */\n      0x00\n        /* \"#utility.yul\":23414:23418   */\n      0x20\n        /* \"#utility.yul\":23409:23412   */\n      dup3\n        /* \"#utility.yul\":23405:23419   */\n      add\n        /* \"#utility.yul\":23397:23419   */\n      swap1\n      pop\n        /* \"#utility.yul\":23312:23425   */\n      swap2\n      swap1\n      pop\n      jump\t// out\n        /* \"#utility.yul\":23431:23542   */\n    tag_456:\n        /* \"#utility.yul\":23499:23503   */\n      0x00\n        /* \"#utility.yul\":23531:23535   */\n      0x20\n        /* \"#utility.yul\":23526:23529   */\n      dup3\n        /* \"#utility.yul\":23522:23536   */\n      add\n        /* \"#utility.yul\":23514:23536   */\n      swap1\n      pop\n        /* \"#utility.yul\":23431:23542   */\n      swap2\n      swap1\n      pop\n      jump\t// out\n        /* \"#utility.yul\":23548:23722   */\n    tag_434:\n        /* \"#utility.yul\":23637:23648   */\n      0x00\n        /* \"#utility.yul\":23671:23677   */\n      dup3\n        /* \"#utility.yul\":23666:23669   */\n      dup3\n        /* \"#utility.yul\":23659:23678   */\n      mstore\n        /* \"#utility.yul\":23711:23715   */\n      0x20\n        /* \"#utility.yul\":23706:23709   */\n      dup3\n        /* \"#utility.yul\":23702:23716   */\n      add\n        /* \"#utility.yul\":23687:23716   */\n      swap1\n      pop\n        /* \"#utility.yul\":23548:23722   */\n      swap3\n      swap2\n      pop\n      pop\n      jump\t// out\n        /* \"#utility.yul\":23728:23861   */\n    tag_448:\n        /* \"#utility.yul\":23815:23826   */\n      0x00\n        /* \"#utility.yul\":23852:23855   */\n      dup2\n        /* \"#utility.yul\":23837:23855   */\n      swap1\n      pop\n        /* \"#utility.yul\":23728:23861   */\n      swap3\n      swap2\n      pop\n      pop\n      jump\t// out\n        /* \"#utility.yul\":23867:24026   */\n    tag_473:\n        /* \"#utility.yul\":23941:23952   */\n      0x00\n        /* \"#utility.yul\":23975:23981   */\n      dup3\n        /* \"#utility.yul\":23970:23973   */\n      dup3\n        /* \"#utility.yul\":23963:23982   */\n      mstore\n        /* \"#utility.yul\":24015:24019   */\n      0x20\n        /* \"#utility.yul\":24010:24013   */\n      dup3\n        /* \"#utility.yul\":24006:24020   */\n      add\n        /* \"#utility.yul\":23991:24020   */\n      swap1\n      pop\n        /* \"#utility.yul\":23867:24026   */\n      swap3\n      swap2\n      pop\n      pop\n      jump\t// out\n        /* \"#utility.yul\":24032:24201   */\n    tag_482:\n        /* \"#utility.yul\":24116:24127   */\n      0x00\n        /* \"#utility.yul\":24150:24156   */\n      dup3\n        /* \"#utility.yul\":24145:24148   */\n      dup3\n        /* \"#utility.yul\":24138:24157   */\n      mstore\n        /* \"#utility.yul\":24190:24194   */\n      0x20\n        /* \"#utility.yul\":24185:24188   */\n      dup3\n        /* \"#utility.yul\":24181:24195   */\n      add\n        /* \"#utility.yul\":24166:24195   */\n      swap1\n      pop\n        /* \"#utility.yul\":24032:24201   */\n      swap3\n      swap2\n      pop\n      pop\n      jump\t// out\n        /* \"#utility.yul\":24207:24355   */\n    tag_489:\n        /* \"#utility.yul\":24309:24320   */\n      0x00\n        /* \"#utility.yul\":24346:24349   */\n      dup2\n        /* \"#utility.yul\":24331:24349   */\n      swap1\n      pop\n        /* \"#utility.yul\":24207:24355   */\n      swap3\n      swap2\n      pop\n      pop\n      jump\t// out\n        /* \"#utility.yul\":24361:24666   */\n    tag_278:\n        /* \"#utility.yul\":24401:24404   */\n      0x00\n        /* \"#utility.yul\":24420:24440   */\n      tag_613\n        /* \"#utility.yul\":24438:24439   */\n      dup3\n        /* \"#utility.yul\":24420:24440   */\n      tag_545\n      jump\t// in\n    tag_613:\n        /* \"#utility.yul\":24415:24440   */\n      swap2\n      pop\n        /* \"#utility.yul\":24454:24474   */\n      tag_614\n        /* \"#utility.yul\":24472:24473   */\n      dup4\n        /* \"#utility.yul\":24454:24474   */\n      tag_545\n      jump\t// in\n    tag_614:\n        /* \"#utility.yul\":24449:24474   */\n      swap3\n      pop\n        /* \"#utility.yul\":24608:24609   */\n      dup3\n        /* \"#utility.yul\":24540:24606   */\n      0xffffffffffffffffffffffffffffffffffffffffffffffffffffffffffffffff\n        /* \"#utility.yul\":24536:24610   */\n      sub\n        /* \"#utility.yul\":24533:24534   */\n      dup3\n        /* \"#utility.yul\":24530:24611   */\n      gt\n        /* \"#utility.yul\":24527:24634   */\n      iszero\n      tag_615\n      jumpi\n        /* \"#utility.yul\":24614:24632   */\n      tag_616\n      tag_617\n      jump\t// in\n    tag_616:\n        /* \"#utility.yul\":24527:24634   */\n    tag_615:\n        /* \"#utility.yul\":24658:24659   */\n      dup3\n        /* \"#utility.yul\":24655:24656   */\n      dup3\n        /* \"#utility.yul\":24651:24660   */\n      add\n        /* \"#utility.yul\":24644:24660   */\n      swap1\n      pop\n        /* \"#utility.yul\":24361:24666   */\n      swap3\n      swap2\n      pop\n      pop\n      jump\t// out\n        /* \"#utility.yul\":24672:25020   */\n    tag_276:\n        /* \"#utility.yul\":24712:24719   */\n      0x00\n        /* \"#utility.yul\":24735:24755   */\n      tag_619\n        /* \"#utility.yul\":24753:24754   */\n      dup3\n        /* \"#utility.yul\":24735:24755   */\n      tag_545\n      jump\t// in\n    tag_619:\n        /* \"#utility.yul\":24730:24755   */\n      swap2\n      pop\n        /* \"#utility.yul\":24769:24789   */\n      tag_620\n        /* \"#utility.yul\":24787:24788   */\n      dup4\n        /* \"#utility.yul\":24769:24789   */\n      tag_545\n      jump\t// in\n    tag_620:\n        /* \"#utility.yul\":24764:24789   */\n      swap3\n      pop\n        /* \"#utility.yul\":24957:24958   */\n      dup2\n        /* \"#utility.yul\":24889:24955   */\n      0xffffffffffffffffffffffffffffffffffffffffffffffffffffffffffffffff\n        /* \"#utility.yul\":24885:24959   */\n      div\n        /* \"#utility.yul\":24882:24883   */\n      dup4\n        /* \"#utility.yul\":24879:24960   */\n      gt\n        /* \"#utility.yul\":24874:24875   */\n      dup3\n        /* \"#utility.yul\":24867:24876   */\n      iszero\n        /* \"#utility.yul\":24860:24877   */\n      iszero\n        /* \"#utility.yul\":24856:24961   */\n      and\n        /* \"#utility.yul\":24853:24984   */\n      iszero\n      tag_621\n      jumpi\n        /* \"#utility.yul\":24964:24982   */\n      tag_622\n      tag_617\n      jump\t// in\n    tag_622:\n        /* \"#utility.yul\":24853:24984   */\n    tag_621:\n        /* \"#utility.yul\":25012:25013   */\n      dup3\n        /* \"#utility.yul\":25009:25010   */\n      dup3\n        /* \"#utility.yul\":25005:25014   */\n      mul\n        /* \"#utility.yul\":24994:25014   */\n      swap1\n      pop\n        /* \"#utility.yul\":24672:25020   */\n      swap3\n      swap2\n      pop\n      pop\n      jump\t// out\n        /* \"#utility.yul\":25026:25122   */\n    tag_425:\n        /* \"#utility.yul\":25063:25070   */\n      0x00\n        /* \"#utility.yul\":25092:25116   */\n      tag_624\n        /* \"#utility.yul\":25110:25115   */\n      dup3\n        /* \"#utility.yul\":25092:25116   */\n      tag_625\n      jump\t// in\n    tag_624:\n        /* \"#utility.yul\":25081:25116   */\n      swap1\n      pop\n        /* \"#utility.yul\":25026:25122   */\n      swap2\n      swap1\n      pop\n      jump\t// out\n        /* \"#utility.yul\":25128:25218   */\n    tag_460:\n        /* \"#utility.yul\":25162:25169   */\n      0x00\n        /* \"#utility.yul\":25205:25210   */\n      dup2\n        /* \"#utility.yul\":25198:25211   */\n      iszero\n        /* \"#utility.yul\":25191:25212   */\n      iszero\n        /* \"#utility.yul\":25180:25212   */\n      swap1\n      pop\n        /* \"#utility.yul\":25128:25218   */\n      swap2\n      swap1\n      pop\n      jump\t// out\n        /* \"#utility.yul\":25224:25301   */\n    tag_467:\n        /* \"#utility.yul\":25261:25268   */\n      0x00\n        /* \"#utility.yul\":25290:25295   */\n      dup2\n        /* \"#utility.yul\":25279:25295   */\n      swap1\n      pop\n        /* \"#utility.yul\":25224:25301   */\n      swap2\n      swap1\n      pop\n      jump\t// out\n        /* \"#utility.yul\":25307:25456   */\n    tag_628:\n        /* \"#utility.yul\":25343:25350   */\n      0x00\n        /* \"#utility.yul\":25383:25449   */\n      0xffffffff00000000000000000000000000000000000000000000000000000000\n        /* \"#utility.yul\":25376:25381   */\n      dup3\n        /* \"#utility.yul\":25372:25450   */\n      and\n        /* \"#utility.yul\":25361:25450   */\n      swap1\n      pop\n        /* \"#utility.yul\":25307:25456   */\n      swap2\n      swap1\n      pop\n      jump\t// out\n        /* \"#utility.yul\":25462:25588   */\n    tag_625:\n        /* \"#utility.yul\":25499:25506   */\n      0x00\n        /* \"#utility.yul\":25539:25581   */\n      0xffffffffffffffffffffffffffffffffffffffff\n        /* \"#utility.yul\":25532:25537   */\n      dup3\n        /* \"#utility.yul\":25528:25582   */\n      and\n        /* \"#utility.yul\":25517:25582   */\n      swap1\n      pop\n        /* \"#utility.yul\":25462:25588   */\n      swap2\n      swap1\n      pop\n      jump\t// out\n        /* \"#utility.yul\":25594:25671   */\n    tag_545:\n        /* \"#utility.yul\":25631:25638   */\n      0x00\n        /* \"#utility.yul\":25660:25665   */\n      dup2\n        /* \"#utility.yul\":25649:25665   */\n      swap1\n      pop\n        /* \"#utility.yul\":25594:25671   */\n      swap2\n      swap1\n      pop\n      jump\t// out\n        /* \"#utility.yul\":25677:25831   */\n    tag_344:\n        /* \"#utility.yul\":25761:25767   */\n      dup3\n        /* \"#utility.yul\":25756:25759   */\n      dup2\n        /* \"#utility.yul\":25751:25754   */\n      dup4\n        /* \"#utility.yul\":25738:25768   */\n      calldatacopy\n        /* \"#utility.yul\":25823:25824   */\n      0x00\n        /* \"#utility.yul\":25814:25820   */\n      dup4\n        /* \"#utility.yul\":25809:25812   */\n      dup4\n        /* \"#utility.yul\":25805:25821   */\n      add\n        /* \"#utility.yul\":25798:25825   */\n      mstore\n        /* \"#utility.yul\":25677:25831   */\n      pop\n      pop\n      pop\n      jump\t// out\n        /* \"#utility.yul\":25837:26144   */\n    tag_475:\n        /* \"#utility.yul\":25905:25906   */\n      0x00\n        /* \"#utility.yul\":25915:26028   */\n    tag_634:\n        /* \"#utility.yul\":25929:25935   */\n      dup4\n        /* \"#utility.yul\":25926:25927   */\n      dup2\n        /* \"#utility.yul\":25923:25936   */\n      lt\n        /* \"#utility.yul\":25915:26028   */\n      iszero\n      tag_636\n      jumpi\n        /* \"#utility.yul\":26014:26015   */\n      dup1\n        /* \"#utility.yul\":26009:26012   */\n      dup3\n        /* \"#utility.yul\":26005:26016   */\n      add\n        /* \"#utility.yul\":25999:26017   */\n      mload\n        /* \"#utility.yul\":25995:25996   */\n      dup2\n        /* \"#utility.yul\":25990:25993   */\n      dup5\n        /* \"#utility.yul\":25986:25997   */\n      add\n        /* \"#utility.yul\":25979:26018   */\n      mstore\n        /* \"#utility.yul\":25951:25953   */\n      0x20\n        /* \"#utility.yul\":25948:25949   */\n      dup2\n        /* \"#utility.yul\":25944:25954   */\n      add\n        /* \"#utility.yul\":25939:25954   */\n      swap1\n      pop\n        /* \"#utility.yul\":25915:26028   */\n      jump(tag_634)\n    tag_636:\n        /* \"#utility.yul\":26046:26052   */\n      dup4\n        /* \"#utility.yul\":26043:26044   */\n      dup2\n        /* \"#utility.yul\":26040:26053   */\n      gt\n        /* \"#utility.yul\":26037:26138   */\n      iszero\n      tag_637\n      jumpi\n        /* \"#utility.yul\":26126:26127   */\n      0x00\n        /* \"#utility.yul\":26117:26123   */\n      dup5\n        /* \"#utility.yul\":26112:26115   */\n      dup5\n        /* \"#utility.yul\":26108:26124   */\n      add\n        /* \"#utility.yul\":26101:26128   */\n      mstore\n        /* \"#utility.yul\":26037:26138   */\n    tag_637:\n        /* \"#utility.yul\":25886:26144   */\n      pop\n        /* \"#utility.yul\":25837:26144   */\n      pop\n      pop\n      pop\n      jump\t// out\n        /* \"#utility.yul\":26150:26321   */\n    tag_297:\n        /* \"#utility.yul\":26189:26192   */\n      0x00\n        /* \"#utility.yul\":26212:26236   */\n      tag_639\n        /* \"#utility.yul\":26230:26235   */\n      dup3\n        /* \"#utility.yul\":26212:26236   */\n      tag_545\n      jump\t// in\n    tag_639:\n        /* \"#utility.yul\":26203:26236   */\n      swap2\n      pop\n        /* \"#utility.yul\":26258:26262   */\n      0x00\n        /* \"#utility.yul\":26251:26256   */\n      dup3\n        /* \"#utility.yul\":26248:26263   */\n      eq\n        /* \"#utility.yul\":26245:26286   */\n      iszero\n      tag_640\n      jumpi\n        /* \"#utility.yul\":26266:26284   */\n      tag_641\n      tag_617\n      jump\t// in\n    tag_641:\n        /* \"#utility.yul\":26245:26286   */\n    tag_640:\n        /* \"#utility.yul\":26313:26314   */\n      0x01\n        /* \"#utility.yul\":26306:26311   */\n      dup3\n        /* \"#utility.yul\":26302:26315   */\n      sub\n        /* \"#utility.yul\":26295:26315   */\n      swap1\n      pop\n        /* \"#utility.yul\":26150:26321   */\n      swap2\n      swap1\n      pop\n      jump\t// out\n        /* \"#utility.yul\":26327:26647   */\n    tag_123:\n        /* \"#utility.yul\":26371:26377   */\n      0x00\n        /* \"#utility.yul\":26408:26409   */\n      0x02\n        /* \"#utility.yul\":26402:26406   */\n      dup3\n        /* \"#utility.yul\":26398:26410   */\n      div\n        /* \"#utility.yul\":26388:26410   */\n      swap1\n      pop\n        /* \"#utility.yul\":26455:26456   */\n      0x01\n        /* \"#utility.yul\":26449:26453   */\n      dup3\n        /* \"#utility.yul\":26445:26457   */\n      and\n        /* \"#utility.yul\":26476:26494   */\n      dup1\n        /* \"#utility.yul\":26466:26547   */\n      tag_643\n      jumpi\n        /* \"#utility.yul\":26532:26536   */\n      0x7f\n        /* \"#utility.yul\":26524:26530   */\n      dup3\n        /* \"#utility.yul\":26520:26537   */\n      and\n        /* \"#utility.yul\":26510:26537   */\n      swap2\n      pop\n        /* \"#utility.yul\":26466:26547   */\n    tag_643:\n        /* \"#utility.yul\":26594:26596   */\n      0x20\n        /* \"#utility.yul\":26586:26592   */\n      dup3\n        /* \"#utility.yul\":26583:26597   */\n      lt\n        /* \"#utility.yul\":26563:26581   */\n      dup2\n        /* \"#utility.yul\":26560:26598   */\n      eq\n        /* \"#utility.yul\":26557:26641   */\n      iszero\n      tag_644\n      jumpi\n        /* \"#utility.yul\":26613:26631   */\n      tag_645\n      tag_646\n      jump\t// in\n    tag_645:\n        /* \"#utility.yul\":26557:26641   */\n    tag_644:\n        /* \"#utility.yul\":26378:26647   */\n      pop\n        /* \"#utility.yul\":26327:26647   */\n      swap2\n      swap1\n      pop\n      jump\t// out\n        /* \"#utility.yul\":26653:26934   */\n    tag_591:\n        /* \"#utility.yul\":26736:26763   */\n      tag_648\n        /* \"#utility.yul\":26758:26762   */\n      dup3\n        /* \"#utility.yul\":26736:26763   */\n      tag_477\n      jump\t// in\n    tag_648:\n        /* \"#utility.yul\":26728:26734   */\n      dup2\n        /* \"#utility.yul\":26724:26764   */\n      add\n        /* \"#utility.yul\":26866:26872   */\n      dup2\n        /* \"#utility.yul\":26854:26864   */\n      dup2\n        /* \"#utility.yul\":26851:26873   */\n      lt\n        /* \"#utility.yul\":26830:26848   */\n      0xffffffffffffffff\n        /* \"#utility.yul\":26818:26828   */\n      dup3\n        /* \"#utility.yul\":26815:26849   */\n      gt\n        /* \"#utility.yul\":26812:26874   */\n      or\n        /* \"#utility.yul\":26809:26897   */\n      iszero\n      tag_649\n      jumpi\n        /* \"#utility.yul\":26877:26895   */\n      tag_650\n      tag_281\n      jump\t// in\n    tag_650:\n        /* \"#utility.yul\":26809:26897   */\n    tag_649:\n        /* \"#utility.yul\":26917:26927   */\n      dup1\n        /* \"#utility.yul\":26913:26915   */\n      0x40\n        /* \"#utility.yul\":26906:26928   */\n      mstore\n        /* \"#utility.yul\":26696:26934   */\n      pop\n        /* \"#utility.yul\":26653:26934   */\n      pop\n      pop\n      jump\t// out\n        /* \"#utility.yul\":26940:27173   */\n    tag_166:\n        /* \"#utility.yul\":26979:26982   */\n      0x00\n        /* \"#utility.yul\":27002:27026   */\n      tag_652\n        /* \"#utility.yul\":27020:27025   */\n      dup3\n        /* \"#utility.yul\":27002:27026   */\n      tag_545\n      jump\t// in\n    tag_652:\n        /* \"#utility.yul\":26993:27026   */\n      swap2\n      pop\n        /* \"#utility.yul\":27048:27114   */\n      0xffffffffffffffffffffffffffffffffffffffffffffffffffffffffffffffff\n        /* \"#utility.yul\":27041:27046   */\n      dup3\n        /* \"#utility.yul\":27038:27115   */\n      eq\n        /* \"#utility.yul\":27035:27138   */\n      iszero\n      tag_653\n      jumpi\n        /* \"#utility.yul\":27118:27136   */\n      tag_654\n      tag_617\n      jump\t// in\n    tag_654:\n        /* \"#utility.yul\":27035:27138   */\n    tag_653:\n        /* \"#utility.yul\":27165:27166   */\n      0x01\n        /* \"#utility.yul\":27158:27163   */\n      dup3\n        /* \"#utility.yul\":27154:27167   */\n      add\n        /* \"#utility.yul\":27147:27167   */\n      swap1\n      pop\n        /* \"#utility.yul\":26940:27173   */\n      swap2\n      swap1\n      pop\n      jump\t// out\n        /* \"#utility.yul\":27179:27359   */\n    tag_617:\n        /* \"#utility.yul\":27227:27304   */\n      0x4e487b7100000000000000000000000000000000000000000000000000000000\n        /* \"#utility.yul\":27224:27225   */\n      0x00\n        /* \"#utility.yul\":27217:27305   */\n      mstore\n        /* \"#utility.yul\":27324:27328   */\n      0x11\n        /* \"#utility.yul\":27321:27322   */\n      0x04\n        /* \"#utility.yul\":27314:27329   */\n      mstore\n        /* \"#utility.yul\":27348:27352   */\n      0x24\n        /* \"#utility.yul\":27345:27346   */\n      0x00\n        /* \"#utility.yul\":27338:27353   */\n      revert\n        /* \"#utility.yul\":27365:27545   */\n    tag_646:\n        /* \"#utility.yul\":27413:27490   */\n      0x4e487b7100000000000000000000000000000000000000000000000000000000\n        /* \"#utility.yul\":27410:27411   */\n      0x00\n        /* \"#utility.yul\":27403:27491   */\n      mstore\n        /* \"#utility.yul\":27510:27514   */\n      0x22\n        /* \"#utility.yul\":27507:27508   */\n      0x04\n        /* \"#utility.yul\":27500:27515   */\n      mstore\n        /* \"#utility.yul\":27534:27538   */\n      0x24\n        /* \"#utility.yul\":27531:27532   */\n      0x00\n        /* \"#utility.yul\":27524:27539   */\n      revert\n        /* \"#utility.yul\":27551:27731   */\n    tag_163:\n        /* \"#utility.yul\":27599:27676   */\n      0x4e487b7100000000000000000000000000000000000000000000000000000000\n        /* \"#utility.yul\":27596:27597   */\n      0x00\n        /* \"#utility.yul\":27589:27677   */\n      mstore\n        /* \"#utility.yul\":27696:27700   */\n      0x32\n        /* \"#utility.yul\":27693:27694   */\n      0x04\n        /* \"#utility.yul\":27686:27701   */\n      mstore\n        /* \"#utility.yul\":27720:27724   */\n      0x24\n        /* \"#utility.yul\":27717:27718   */\n      0x00\n        /* \"#utility.yul\":27710:27725   */\n      revert\n        /* \"#utility.yul\":27737:27917   */\n    tag_281:\n        /* \"#utility.yul\":27785:27862   */\n      0x4e487b7100000000000000000000000000000000000000000000000000000000\n        /* \"#utility.yul\":27782:27783   */\n      0x00\n        /* \"#utility.yul\":27775:27863   */\n      mstore\n        /* \"#utility.yul\":27882:27886   */\n      0x41\n        /* \"#utility.yul\":27879:27880   */\n      0x04\n        /* \"#utility.yul\":27872:27887   */\n      mstore\n        /* \"#utility.yul\":27906:27910   */\n      0x24\n        /* \"#utility.yul\":27903:27904   */\n      0x00\n        /* \"#utility.yul\":27896:27911   */\n      revert\n        /* \"#utility.yul\":27923:28040   */\n    tag_352:\n        /* \"#utility.yul\":28032:28033   */\n      0x00\n        /* \"#utility.yul\":28029:28030   */\n      dup1\n        /* \"#utility.yul\":28022:28034   */\n      revert\n        /* \"#utility.yul\":28046:28163   */\n    tag_329:\n        /* \"#utility.yul\":28155:28156   */\n      0x00\n        /* \"#utility.yul\":28152:28153   */\n      dup1\n        /* \"#utility.yul\":28145:28157   */\n      revert\n        /* \"#utility.yul\":28169:28286   */\n    tag_342:\n        /* \"#utility.yul\":28278:28279   */\n      0x00\n        /* \"#utility.yul\":28275:28276   */\n      dup1\n        /* \"#utility.yul\":28268:28280   */\n      revert\n        /* \"#utility.yul\":28292:28409   */\n    tag_381:\n        /* \"#utility.yul\":28401:28402   */\n      0x00\n        /* \"#utility.yul\":28398:28399   */\n      dup1\n        /* \"#utility.yul\":28391:28403   */\n      revert\n        /* \"#utility.yul\":28415:28532   */\n    tag_374:\n        /* \"#utility.yul\":28524:28525   */\n      0x00\n        /* \"#utility.yul\":28521:28522   */\n      dup1\n        /* \"#utility.yul\":28514:28526   */\n      revert\n        /* \"#utility.yul\":28538:28640   */\n    tag_477:\n        /* \"#utility.yul\":28579:28585   */\n      0x00\n        /* \"#utility.yul\":28630:28632   */\n      0x1f\n        /* \"#utility.yul\":28626:28633   */\n      not\n        /* \"#utility.yul\":28621:28623   */\n      0x1f\n        /* \"#utility.yul\":28614:28619   */\n      dup4\n        /* \"#utility.yul\":28610:28624   */\n      add\n        /* \"#utility.yul\":28606:28634   */\n      and\n        /* \"#utility.yul\":28596:28634   */\n      swap1\n      pop\n        /* \"#utility.yul\":28538:28640   */\n      swap2\n      swap1\n      pop\n      jump\t// out\n        /* \"#utility.yul\":28646:28828   */\n    tag_495:\n        /* \"#utility.yul\":28786:28820   */\n      0x537472696e67733a20686578206c656e67746820696e73756666696369656e74\n        /* \"#utility.yul\":28782:28783   */\n      0x00\n        /* \"#utility.yul\":28774:28780   */\n      dup3\n        /* \"#utility.yul\":28770:28784   */\n      add\n        /* \"#utility.yul\":28763:28821   */\n      mstore\n        /* \"#utility.yul\":28646:28828   */\n      pop\n      jump\t// out\n        /* \"#utility.yul\":28834:29059   */\n    tag_500:\n        /* \"#utility.yul\":28974:29008   */\n      0x4f776e61626c653a206e6577206f776e657220697320746865207a65726f2061\n        /* \"#utility.yul\":28970:28971   */\n      0x00\n        /* \"#utility.yul\":28962:28968   */\n      dup3\n        /* \"#utility.yul\":28958:28972   */\n      add\n        /* \"#utility.yul\":28951:29009   */\n      mstore\n        /* \"#utility.yul\":29043:29051   */\n      0x6464726573730000000000000000000000000000000000000000000000000000\n        /* \"#utility.yul\":29038:29040   */\n      0x20\n        /* \"#utility.yul\":29030:29036   */\n      dup3\n        /* \"#utility.yul\":29026:29041   */\n      add\n        /* \"#utility.yul\":29019:29052   */\n      mstore\n        /* \"#utility.yul\":28834:29059   */\n      pop\n      jump\t// out\n        /* \"#utility.yul\":29065:29246   */\n    tag_505:\n        /* \"#utility.yul\":29205:29238   */\n      0x43616c6c6572206973206e6f7420616e20494e45432065786563757469766500\n        /* \"#utility.yul\":29201:29202   */\n      0x00\n        /* \"#utility.yul\":29193:29199   */\n      dup3\n        /* \"#utility.yul\":29189:29203   */\n      add\n        /* \"#utility.yul\":29182:29239   */\n      mstore\n        /* \"#utility.yul\":29065:29246   */\n      pop\n      jump\t// out\n        /* \"#utility.yul\":29252:29434   */\n    tag_510:\n        /* \"#utility.yul\":29392:29426   */\n      0x4f776e61626c653a2063616c6c6572206973206e6f7420746865206f776e6572\n        /* \"#utility.yul\":29388:29389   */\n      0x00\n        /* \"#utility.yul\":29380:29386   */\n      dup3\n        /* \"#utility.yul\":29376:29390   */\n      add\n        /* \"#utility.yul\":29369:29427   */\n      mstore\n        /* \"#utility.yul\":29252:29434   */\n      pop\n      jump\t// out\n        /* \"#utility.yul\":29440:29611   */\n    tag_515:\n        /* \"#utility.yul\":29580:29603   */\n      0x43616c6c6572206973206e6f74206120566f7465720000000000000000000000\n        /* \"#utility.yul\":29576:29577   */\n      0x00\n        /* \"#utility.yul\":29568:29574   */\n      dup3\n        /* \"#utility.yul\":29564:29578   */\n      add\n        /* \"#utility.yul\":29557:29604   */\n      mstore\n        /* \"#utility.yul\":29440:29611   */\n      pop\n      jump\t// out\n        /* \"#utility.yul\":29617:29790   */\n    tag_520:\n        /* \"#utility.yul\":29757:29782   */\n      0x416363657373436f6e74726f6c3a206163636f756e7420000000000000000000\n        /* \"#utility.yul\":29753:29754   */\n      0x00\n        /* \"#utility.yul\":29745:29751   */\n      dup3\n        /* \"#utility.yul\":29741:29755   */\n      add\n        /* \"#utility.yul\":29734:29783   */\n      mstore\n        /* \"#utility.yul\":29617:29790   */\n      pop\n      jump\t// out\n        /* \"#utility.yul\":29796:29963   */\n    tag_525:\n        /* \"#utility.yul\":29936:29955   */\n      0x206973206d697373696e6720726f6c6520000000000000000000000000000000\n        /* \"#utility.yul\":29932:29933   */\n      0x00\n        /* \"#utility.yul\":29924:29930   */\n      dup3\n        /* \"#utility.yul\":29920:29934   */\n      add\n        /* \"#utility.yul\":29913:29956   */\n      mstore\n        /* \"#utility.yul\":29796:29963   */\n      pop\n      jump\t// out\n        /* \"#utility.yul\":29969:30203   */\n    tag_530:\n        /* \"#utility.yul\":30109:30143   */\n      0x416363657373436f6e74726f6c3a2063616e206f6e6c792072656e6f756e6365\n        /* \"#utility.yul\":30105:30106   */\n      0x00\n        /* \"#utility.yul\":30097:30103   */\n      dup3\n        /* \"#utility.yul\":30093:30107   */\n      add\n        /* \"#utility.yul\":30086:30144   */\n      mstore\n        /* \"#utility.yul\":30178:30195   */\n      0x20726f6c657320666f722073656c660000000000000000000000000000000000\n        /* \"#utility.yul\":30173:30175   */\n      0x20\n        /* \"#utility.yul\":30165:30171   */\n      dup3\n        /* \"#utility.yul\":30161:30176   */\n      add\n        /* \"#utility.yul\":30154:30196   */\n      mstore\n        /* \"#utility.yul\":29969:30203   */\n      pop\n      jump\t// out\n        /* \"#utility.yul\":30209:30331   */\n    tag_347:\n        /* \"#utility.yul\":30282:30306   */\n      tag_674\n        /* \"#utility.yul\":30300:30305   */\n      dup2\n        /* \"#utility.yul\":30282:30306   */\n      tag_425\n      jump\t// in\n    tag_674:\n        /* \"#utility.yul\":30275:30280   */\n      dup2\n        /* \"#utility.yul\":30272:30307   */\n      eq\n        /* \"#utility.yul\":30262:30325   */\n      tag_675\n      jumpi\n        /* \"#utility.yul\":30321:30322   */\n      0x00\n        /* \"#utility.yul\":30318:30319   */\n      dup1\n        /* \"#utility.yul\":30311:30323   */\n      revert\n        /* \"#utility.yul\":30262:30325   */\n    tag_675:\n        /* \"#utility.yul\":30209:30331   */\n      pop\n      jump\t// out\n        /* \"#utility.yul\":30337:30459   */\n    tag_357:\n        /* \"#utility.yul\":30410:30434   */\n      tag_677\n        /* \"#utility.yul\":30428:30433   */\n      dup2\n        /* \"#utility.yul\":30410:30434   */\n      tag_467\n      jump\t// in\n    tag_677:\n        /* \"#utility.yul\":30403:30408   */\n      dup2\n        /* \"#utility.yul\":30400:30435   */\n      eq\n        /* \"#utility.yul\":30390:30453   */\n      tag_678\n      jumpi\n        /* \"#utility.yul\":30449:30450   */\n      0x00\n        /* \"#utility.yul\":30446:30447   */\n      dup1\n        /* \"#utility.yul\":30439:30451   */\n      revert\n        /* \"#utility.yul\":30390:30453   */\n    tag_678:\n        /* \"#utility.yul\":30337:30459   */\n      pop\n      jump\t// out\n        /* \"#utility.yul\":30465:30585   */\n    tag_361:\n        /* \"#utility.yul\":30537:30560   */\n      tag_680\n        /* \"#utility.yul\":30554:30559   */\n      dup2\n        /* \"#utility.yul\":30537:30560   */\n      tag_628\n      jump\t// in\n    tag_680:\n        /* \"#utility.yul\":30530:30535   */\n      dup2\n        /* \"#utility.yul\":30527:30561   */\n      eq\n        /* \"#utility.yul\":30517:30579   */\n      tag_681\n      jumpi\n        /* \"#utility.yul\":30575:30576   */\n      0x00\n        /* \"#utility.yul\":30572:30573   */\n      dup1\n        /* \"#utility.yul\":30565:30577   */\n      revert\n        /* \"#utility.yul\":30517:30579   */\n    tag_681:\n        /* \"#utility.yul\":30465:30585   */\n      pop\n      jump\t// out\n        /* \"#utility.yul\":30591:30713   */\n    tag_370:\n        /* \"#utility.yul\":30664:30688   */\n      tag_683\n        /* \"#utility.yul\":30682:30687   */\n      dup2\n        /* \"#utility.yul\":30664:30688   */\n      tag_545\n      jump\t// in\n    tag_683:\n        /* \"#utility.yul\":30657:30662   */\n      dup2\n        /* \"#utility.yul\":30654:30689   */\n      eq\n        /* \"#utility.yul\":30644:30707   */\n      tag_684\n      jumpi\n        /* \"#utility.yul\":30703:30704   */\n      0x00\n        /* \"#utility.yul\":30700:30701   */\n      dup1\n        /* \"#utility.yul\":30693:30705   */\n      revert\n        /* \"#utility.yul\":30644:30707   */\n    tag_684:\n        /* \"#utility.yul\":30591:30713   */\n      pop\n      jump\t// out\n\n    auxdata: 0xa2646970667358221220d17e93f0a3c25e9086f29699ad08148bb495fbd91643cd978798c9346d62abd264736f6c63430008070033\n}\n",
				"bytecode": {
					"linkReferences": {},
					"object": "608060405260405180608001604052806040518060400160405280600381526020017f415043000000000000000000000000000000000000000000000000000000000081525081526020016040518060400160405280600381526020017f504450000000000000000000000000000000000000000000000000000000000081525081526020016040518060400160405280600281526020017f4c5000000000000000000000000000000000000000000000000000000000000081525081526020016040518060400160405280600481526020017f4e4e50500000000000000000000000000000000000000000000000000000000081525081525060069060046200010b92919062000393565b503480156200011957600080fd5b506200013a6200012e6200015560201b60201c565b6200015d60201b60201c565b6200014f6000801b336200022160201b60201c565b6200057d565b600033905090565b60008060009054906101000a900473ffffffffffffffffffffffffffffffffffffffff169050816000806101000a81548173ffffffffffffffffffffffffffffffffffffffff021916908373ffffffffffffffffffffffffffffffffffffffff1602179055508173ffffffffffffffffffffffffffffffffffffffff168173ffffffffffffffffffffffffffffffffffffffff167f8be0079c531659141344cd1fd0a4f28419497f9722a3daafe3b4186f6b6457e060405160405180910390a35050565b6200023382826200023760201b60201c565b5050565b6200024982826200032860201b60201c565b6200032457600180600084815260200190815260200160002060000160008373ffffffffffffffffffffffffffffffffffffffff1673ffffffffffffffffffffffffffffffffffffffff16815260200190815260200160002060006101000a81548160ff021916908315150217905550620002c96200015560201b60201c565b73ffffffffffffffffffffffffffffffffffffffff168173ffffffffffffffffffffffffffffffffffffffff16837f2f8788117e7eff1d82e926ec794901d17c78024a50270940304540a733656f0d60405160405180910390a45b5050565b60006001600084815260200190815260200160002060000160008373ffffffffffffffffffffffffffffffffffffffff1673ffffffffffffffffffffffffffffffffffffffff16815260200190815260200160002060009054906101000a900460ff16905092915050565b828054828255906000526020600020908101928215620003e7579160200282015b82811115620003e6578251829080519060200190620003d5929190620003fa565b5091602001919060010190620003b4565b5b509050620003f691906200048b565b5090565b828054620004089062000518565b90600052602060002090601f0160209004810192826200042c576000855562000478565b82601f106200044757805160ff191683800117855562000478565b8280016001018555821562000478579182015b82811115620004775782518255916020019190600101906200045a565b5b509050620004879190620004b3565b5090565b5b80821115620004af5760008181620004a59190620004d2565b506001016200048c565b5090565b5b80821115620004ce576000816000905550600101620004b4565b5090565b508054620004e09062000518565b6000825580601f10620004f4575062000515565b601f016020900490600052602060002090810190620005149190620004b3565b5b50565b600060028204905060018216806200053157607f821691505b602082108114156200054857620005476200054e565b5b50919050565b7f4e487b7100000000000000000000000000000000000000000000000000000000600052602260045260246000fd5b6128d3806200058d6000396000f3fe608060405234801561001057600080fd5b50600436106101425760003560e01c806391d14854116100b8578063a94015c81161007c578063a94015c8146103a0578063d547741f146103be578063d59d2a58146103da578063d9d55ba0146103f6578063dfd8459e14610412578063f2fde38b1461042e57610142565b806391d14854146102bf5780639c35d98b146102ef5780639d710777146103225780639e5f034914610352578063a217fddf1461038257610142565b8063314fd68f1161010a578063314fd68f1461021357806336568abe146102435780633ec9ae351461025f5780634f05dba81461027b578063715018a6146102975780638da5cb5b146102a157610142565b806301ffc9a714610147578063248a9ca314610177578063290e9212146101a75780632e0d37bb146101d95780632f2ff15d146101f7575b600080fd5b610161600480360381019061015c9190611b46565b61044a565b60405161016e91906120c0565b60405180910390f35b610191600480360381019061018c9190611ad9565b6104c4565b60405161019e91906120db565b60405180910390f35b6101c160048036038101906101bc9190611be2565b6104e4565b6040516101d093929190612118565b60405180910390f35b6101e161063e565b6040516101ee91906120db565b60405180910390f35b610211600480360381019061020c9190611b06565b610662565b005b61022d60048036038101906102289190611be2565b610683565b60405161023a91906120f6565b60405180910390f35b61025d60048036038101906102589190611b06565b61072f565b005b61027960048036038101906102749190611c0f565b6107b2565b005b61029560048036038101906102909190611a6a565b61085e565b005b61029f6109d1565b005b6102a96109e5565b6040516102b69190612060565b60405180910390f35b6102d960048036038101906102d49190611b06565b610a0e565b6040516102e691906120c0565b60405180910390f35b61030960048036038101906103049190611be2565b610a79565b604051610319949392919061207b565b60405180910390f35b61033c60048036038101906103379190611be2565b610ad6565b604051610349919061223f565b60405180910390f35b61036c60048036038101906103679190611be2565b610c05565b604051610379919061221d565b60405180910390f35b61038a610dac565b60405161039791906120db565b60405180910390f35b6103a8610db3565b6040516103b591906120db565b60405180910390f35b6103d860048036038101906103d39190611b06565b610dd7565b005b6103f460048036038101906103ef9190611b73565b610df8565b005b610410600480360381019061040b9190611be2565b610f50565b005b61042c60048036038101906104279190611a3d565b610ff1565b005b61044860048036038101906104439190611a3d565b611026565b005b60007f7965db0b000000000000000000000000000000000000000000000000000000007bffffffffffffffffffffffffffffffffffffffffffffffffffffffff1916827bffffffffffffffffffffffffffffffffffffffffffffffffffffffff191614806104bd57506104bc826110aa565b5b9050919050565b600060016000838152602001908152602001600020600101549050919050565b60076020528060005260406000206000915090508060000180546105079061251b565b80601f01602080910402602001604051908101604052809291908181526020018280546105339061251b565b80156105805780601f1061055557610100808354040283529160200191610580565b820191906000526020600020905b81548152906001019060200180831161056357829003601f168201915b5050505050908060010160009054906101000a900473ffffffffffffffffffffffffffffffffffffffff16908060020180546105bb9061251b565b80601f01602080910402602001604051908101604052809291908181526020018280546105e79061251b565b80156106345780601f1061060957610100808354040283529160200191610634565b820191906000526020600020905b81548152906001019060200180831161061757829003601f168201915b5050505050905083565b7f082f6ed76e0352438e6a6e35c77719c3f04bf277fdc8fec7e5ff5f65e001d90281565b61066b826104c4565b61067481611114565b61067e8383611128565b505050565b6006818154811061069357600080fd5b9060005260206000200160009150905080546106ae9061251b565b80601f01602080910402602001604051908101604052809291908181526020018280546106da9061251b565b80156107275780601f106106fc57610100808354040283529160200191610727565b820191906000526020600020905b81548152906001019060200180831161070a57829003601f168201915b505050505081565b610737611208565b73ffffffffffffffffffffffffffffffffffffffff168173ffffffffffffffffffffffffffffffffffffffff16146107a4576040517f08c379a000000000000000000000000000000000000000000000000000000000815260040161079b906121fd565b60405180910390fd5b6107ae8282611210565b5050565b6107dc7f15283fd96aa656c9df35ac2fcb112678a5f24f1ca97e591a97d1d16003dbfc9c33610a0e565b61081b576040517f08c379a0000000000000000000000000000000000000000000000000000000008152600401610812906121dd565b60405180910390fd5b60096000828152602001908152602001600020600101826004811061084357610842612625565b5b0160008154809291906108559061257e565b91905055505050565b6108887f082f6ed76e0352438e6a6e35c77719c3f04bf277fdc8fec7e5ff5f65e001d90233610a0e565b6108c7576040517f08c379a00000000000000000000000000000000000000000000000000000000081526004016108be9061219d565b60405180910390fd5b8160096000600554815260200190815260200160002060050181905550806009600060055481526020019081526020016000206006018190555060005b83518110156109b35760096000600554815260200190815260200160002060000184828151811061093857610937612625565b5b60200260200101519080600181540180825580915050600190039060005260206000200160009091909190916101000a81548173ffffffffffffffffffffffffffffffffffffffff021916908373ffffffffffffffffffffffffffffffffffffffff16021790555080806109ab9061257e565b915050610904565b50600560008154809291906109c79061257e565b9190505550505050565b6109d96112f2565b6109e36000611370565b565b60008060009054906101000a900473ffffffffffffffffffffffffffffffffffffffff16905090565b60006001600084815260200190815260200160002060000160008373ffffffffffffffffffffffffffffffffffffffff1673ffffffffffffffffffffffffffffffffffffffff16815260200190815260200160002060009054906101000a900460ff16905092915050565b60086020528060005260406000206000915090508060000160009054906101000a900473ffffffffffffffffffffffffffffffffffffffff16908060010154908060020154908060030160009054906101000a900460ff16905084565b610ade61171b565b600960008381526020019081526020016000206040518060a001604052908160008201805480602002602001604051908101604052809291908181526020018280548015610b8157602002820191906000526020600020905b8160009054906101000a900473ffffffffffffffffffffffffffffffffffffffff1673ffffffffffffffffffffffffffffffffffffffff1681526020019060010190808311610b37575b5050505050815260200160018201600480602002604051908101604052809291908260048015610bc6576020028201915b815481526020019060010190808311610bb2575b5050505050815260200160058201548152602001600682015481526020016007820160009054906101000a900460ff1615151515815250509050919050565b610c0d611752565b60076000838152602001908152602001600020604051806060016040529081600082018054610c3b9061251b565b80601f0160208091040260200160405190810160405280929190818152602001828054610c679061251b565b8015610cb45780601f10610c8957610100808354040283529160200191610cb4565b820191906000526020600020905b815481529060010190602001808311610c9757829003601f168201915b505050505081526020016001820160009054906101000a900473ffffffffffffffffffffffffffffffffffffffff1673ffffffffffffffffffffffffffffffffffffffff1673ffffffffffffffffffffffffffffffffffffffff168152602001600282018054610d239061251b565b80601f0160208091040260200160405190810160405280929190818152602001828054610d4f9061251b565b8015610d9c5780601f10610d7157610100808354040283529160200191610d9c565b820191906000526020600020905b815481529060010190602001808311610d7f57829003601f168201915b5050505050815250509050919050565b6000801b81565b7f15283fd96aa656c9df35ac2fcb112678a5f24f1ca97e591a97d1d16003dbfc9c81565b610de0826104c4565b610de981611114565b610df38383611210565b505050565b610e227f082f6ed76e0352438e6a6e35c77719c3f04bf277fdc8fec7e5ff5f65e001d90233610a0e565b610e61576040517f08c379a0000000000000000000000000000000000000000000000000000000008152600401610e589061219d565b60405180910390fd5b826007600060035481526020019081526020016000206000019080519060200190610e8d929190611789565b508160076000600354815260200190815260200160002060010160006101000a81548173ffffffffffffffffffffffffffffffffffffffff021916908373ffffffffffffffffffffffffffffffffffffffff16021790555060068181548110610ef957610ef8612625565b5b90600052602060002001600760006003548152602001908152602001600020600201908054610f279061251b565b610f3292919061180f565b5060036000815480929190610f469061257e565b9190505550505050565b3360086000600454815260200190815260200160002060000160006101000a81548173ffffffffffffffffffffffffffffffffffffffff021916908373ffffffffffffffffffffffffffffffffffffffff1602179055508060086000600454815260200190815260200160002060010181905550610fee7f15283fd96aa656c9df35ac2fcb112678a5f24f1ca97e591a97d1d16003dbfc9c33611434565b50565b610ff96112f2565b6110237f082f6ed76e0352438e6a6e35c77719c3f04bf277fdc8fec7e5ff5f65e001d90282610662565b50565b61102e6112f2565b600073ffffffffffffffffffffffffffffffffffffffff168173ffffffffffffffffffffffffffffffffffffffff16141561109e576040517f08c379a00000000000000000000000000000000000000000000000000000000081526004016110959061217d565b60405180910390fd5b6110a781611370565b50565b60007f01ffc9a7000000000000000000000000000000000000000000000000000000007bffffffffffffffffffffffffffffffffffffffffffffffffffffffff1916827bffffffffffffffffffffffffffffffffffffffffffffffffffffffff1916149050919050565b61112581611120611208565b611442565b50565b6111328282610a0e565b61120457600180600084815260200190815260200160002060000160008373ffffffffffffffffffffffffffffffffffffffff1673ffffffffffffffffffffffffffffffffffffffff16815260200190815260200160002060006101000a81548160ff0219169083151502179055506111a9611208565b73ffffffffffffffffffffffffffffffffffffffff168173ffffffffffffffffffffffffffffffffffffffff16837f2f8788117e7eff1d82e926ec794901d17c78024a50270940304540a733656f0d60405160405180910390a45b5050565b600033905090565b61121a8282610a0e565b156112ee5760006001600084815260200190815260200160002060000160008373ffffffffffffffffffffffffffffffffffffffff1673ffffffffffffffffffffffffffffffffffffffff16815260200190815260200160002060006101000a81548160ff021916908315150217905550611293611208565b73ffffffffffffffffffffffffffffffffffffffff168173ffffffffffffffffffffffffffffffffffffffff16837ff6391f5c32d9c69d2a47ea670b442974b53935d1edc7fd64eb21e047a839171b60405160405180910390a45b5050565b6112fa611208565b73ffffffffffffffffffffffffffffffffffffffff166113186109e5565b73ffffffffffffffffffffffffffffffffffffffff161461136e576040517f08c379a0000000000000000000000000000000000000000000000000000000008152600401611365906121bd565b60405180910390fd5b565b60008060009054906101000a900473ffffffffffffffffffffffffffffffffffffffff169050816000806101000a81548173ffffffffffffffffffffffffffffffffffffffff021916908373ffffffffffffffffffffffffffffffffffffffff1602179055508173ffffffffffffffffffffffffffffffffffffffff168173ffffffffffffffffffffffffffffffffffffffff167f8be0079c531659141344cd1fd0a4f28419497f9722a3daafe3b4186f6b6457e060405160405180910390a35050565b61143e8282611128565b5050565b61144c8282610a0e565b6114db576114718173ffffffffffffffffffffffffffffffffffffffff1660146114df565b61147f8360001c60206114df565b604051602001611490929190612026565b6040516020818303038152906040526040517f08c379a00000000000000000000000000000000000000000000000000000000081526004016114d291906120f6565b60405180910390fd5b5050565b6060600060028360026114f291906123d7565b6114fc9190612381565b67ffffffffffffffff81111561151557611514612654565b5b6040519080825280601f01601f1916602001820160405280156115475781602001600182028036833780820191505090505b5090507f30000000000000000000000000000000000000000000000000000000000000008160008151811061157f5761157e612625565b5b60200101907effffffffffffffffffffffffffffffffffffffffffffffffffffffffffffff1916908160001a9053507f7800000000000000000000000000000000000000000000000000000000000000816001815181106115e3576115e2612625565b5b60200101907effffffffffffffffffffffffffffffffffffffffffffffffffffffffffffff1916908160001a9053506000600184600261162391906123d7565b61162d9190612381565b90505b60018111156116cd577f3031323334353637383961626364656600000000000000000000000000000000600f86166010811061166f5761166e612625565b5b1a60f81b82828151811061168657611685612625565b5b60200101907effffffffffffffffffffffffffffffffffffffffffffffffffffffffffffff1916908160001a905350600485901c9450806116c6906124f1565b9050611630565b5060008414611711576040517f08c379a00000000000000000000000000000000000000000000000000000000081526004016117089061215d565b60405180910390fd5b8091505092915050565b6040518060a001604052806060815260200161173561189c565b815260200160008152602001600081526020016000151581525090565b604051806060016040528060608152602001600073ffffffffffffffffffffffffffffffffffffffff168152602001606081525090565b8280546117959061251b565b90600052602060002090601f0160209004810192826117b757600085556117fe565b82601f106117d057805160ff19168380011785556117fe565b828001600101855582156117fe579182015b828111156117fd5782518255916020019190600101906117e2565b5b50905061180b91906118be565b5090565b82805461181b9061251b565b90600052602060002090601f01602090048101928261183d576000855561188b565b82601f1061184e578054855561188b565b8280016001018555821561188b57600052602060002091601f016020900482015b8281111561188a57825482559160010191906001019061186f565b5b50905061189891906118be565b5090565b6040518060800160405280600490602082028036833780820191505090505090565b5b808211156118d75760008160009055506001016118bf565b5090565b60006118ee6118e984612286565b612261565b9050808382526020820190508285602086028201111561191157611910612688565b5b60005b858110156119415781611927888261198d565b845260208401935060208301925050600181019050611914565b5050509392505050565b600061195e611959846122b2565b612261565b90508281526020810184848401111561197a5761197961268d565b5b6119858482856124af565b509392505050565b60008135905061199c81612841565b92915050565b600082601f8301126119b7576119b6612683565b5b81356119c78482602086016118db565b91505092915050565b6000813590506119df81612858565b92915050565b6000813590506119f48161286f565b92915050565b600082601f830112611a0f57611a0e612683565b5b8135611a1f84826020860161194b565b91505092915050565b600081359050611a3781612886565b92915050565b600060208284031215611a5357611a52612697565b5b6000611a618482850161198d565b91505092915050565b600080600060608486031215611a8357611a82612697565b5b600084013567ffffffffffffffff811115611aa157611aa0612692565b5b611aad868287016119a2565b9350506020611abe86828701611a28565b9250506040611acf86828701611a28565b9150509250925092565b600060208284031215611aef57611aee612697565b5b6000611afd848285016119d0565b91505092915050565b60008060408385031215611b1d57611b1c612697565b5b6000611b2b858286016119d0565b9250506020611b3c8582860161198d565b9150509250929050565b600060208284031215611b5c57611b5b612697565b5b6000611b6a848285016119e5565b91505092915050565b600080600060608486031215611b8c57611b8b612697565b5b600084013567ffffffffffffffff811115611baa57611ba9612692565b5b611bb6868287016119fa565b9350506020611bc78682870161198d565b9250506040611bd886828701611a28565b9150509250925092565b600060208284031215611bf857611bf7612697565b5b6000611c0684828501611a28565b91505092915050565b60008060408385031215611c2657611c25612697565b5b6000611c3485828601611a28565b9250506020611c4585828601611a28565b9150509250929050565b6000611c5b8383611c7f565b60208301905092915050565b6000611c738383612008565b60208301905092915050565b611c8881612431565b82525050565b611c9781612431565b82525050565b6000611ca8826122fd565b611cb28185612338565b9350611cbd836122e3565b8060005b83811015611cee578151611cd58882611c4f565b9750611ce08361231e565b925050600181019050611cc1565b5085935050505092915050565b611d0481612308565b611d0e8184612349565b9250611d19826122f3565b8060005b83811015611d4a578151611d318782611c67565b9650611d3c8361232b565b925050600181019050611d1d565b505050505050565b611d5b81612443565b82525050565b611d6a81612443565b82525050565b611d798161244f565b82525050565b6000611d8a82612313565b611d948185612354565b9350611da48185602086016124be565b611dad8161269c565b840191505092915050565b6000611dc382612313565b611dcd8185612365565b9350611ddd8185602086016124be565b611de68161269c565b840191505092915050565b6000611dfc82612313565b611e068185612376565b9350611e168185602086016124be565b80840191505092915050565b6000611e2f602083612365565b9150611e3a826126ad565b602082019050919050565b6000611e52602683612365565b9150611e5d826126d6565b604082019050919050565b6000611e75601f83612365565b9150611e8082612725565b602082019050919050565b6000611e98602083612365565b9150611ea38261274e565b602082019050919050565b6000611ebb601583612365565b9150611ec682612777565b602082019050919050565b6000611ede601783612376565b9150611ee9826127a0565b601782019050919050565b6000611f01601183612376565b9150611f0c826127c9565b601182019050919050565b6000611f24602f83612365565b9150611f2f826127f2565b604082019050919050565b60006060830160008301518482036000860152611f578282611d7f565b9150506020830151611f6c6020860182611c7f565b5060408301518482036040860152611f848282611d7f565b9150508091505092915050565b6000610100830160008301518482036000860152611faf8282611c9d565b9150506020830151611fc46020860182611cfb565b506040830151611fd760a0860182612008565b506060830151611fea60c0860182612008565b506080830151611ffd60e0860182611d52565b508091505092915050565b612011816124a5565b82525050565b612020816124a5565b82525050565b600061203182611ed1565b915061203d8285611df1565b915061204882611ef4565b91506120548284611df1565b91508190509392505050565b60006020820190506120756000830184611c8e565b92915050565b60006080820190506120906000830187611c8e565b61209d6020830186612017565b6120aa6040830185612017565b6120b76060830184611d61565b95945050505050565b60006020820190506120d56000830184611d61565b92915050565b60006020820190506120f06000830184611d70565b92915050565b600060208201905081810360008301526121108184611db8565b905092915050565b600060608201905081810360008301526121328186611db8565b90506121416020830185611c8e565b81810360408301526121538184611db8565b9050949350505050565b6000602082019050818103600083015261217681611e22565b9050919050565b6000602082019050818103600083015261219681611e45565b9050919050565b600060208201905081810360008301526121b681611e68565b9050919050565b600060208201905081810360008301526121d681611e8b565b9050919050565b600060208201905081810360008301526121f681611eae565b9050919050565b6000602082019050818103600083015261221681611f17565b9050919050565b600060208201905081810360008301526122378184611f3a565b905092915050565b600060208201905081810360008301526122598184611f91565b905092915050565b600061226b61227c565b9050612277828261254d565b919050565b6000604051905090565b600067ffffffffffffffff8211156122a1576122a0612654565b5b602082029050602081019050919050565b600067ffffffffffffffff8211156122cd576122cc612654565b5b6122d68261269c565b9050602081019050919050565b6000819050602082019050919050565b6000819050919050565b600081519050919050565b600060049050919050565b600081519050919050565b6000602082019050919050565b6000602082019050919050565b600082825260208201905092915050565b600081905092915050565b600082825260208201905092915050565b600082825260208201905092915050565b600081905092915050565b600061238c826124a5565b9150612397836124a5565b9250827fffffffffffffffffffffffffffffffffffffffffffffffffffffffffffffffff038211156123cc576123cb6125c7565b5b828201905092915050565b60006123e2826124a5565b91506123ed836124a5565b9250817fffffffffffffffffffffffffffffffffffffffffffffffffffffffffffffffff0483118215151615612426576124256125c7565b5b828202905092915050565b600061243c82612485565b9050919050565b60008115159050919050565b6000819050919050565b60007fffffffff0000000000000000000000000000000000000000000000000000000082169050919050565b600073ffffffffffffffffffffffffffffffffffffffff82169050919050565b6000819050919050565b82818337600083830152505050565b60005b838110156124dc5780820151818401526020810190506124c1565b838111156124eb576000848401525b50505050565b60006124fc826124a5565b915060008214156125105761250f6125c7565b5b600182039050919050565b6000600282049050600182168061253357607f821691505b60208210811415612547576125466125f6565b5b50919050565b6125568261269c565b810181811067ffffffffffffffff8211171561257557612574612654565b5b80604052505050565b6000612589826124a5565b91507fffffffffffffffffffffffffffffffffffffffffffffffffffffffffffffffff8214156125bc576125bb6125c7565b5b600182019050919050565b7f4e487b7100000000000000000000000000000000000000000000000000000000600052601160045260246000fd5b7f4e487b7100000000000000000000000000000000000000000000000000000000600052602260045260246000fd5b7f4e487b7100000000000000000000000000000000000000000000000000000000600052603260045260246000fd5b7f4e487b7100000000000000000000000000000000000000000000000000000000600052604160045260246000fd5b600080fd5b600080fd5b600080fd5b600080fd5b600080fd5b6000601f19601f8301169050919050565b7f537472696e67733a20686578206c656e67746820696e73756666696369656e74600082015250565b7f4f776e61626c653a206e6577206f776e657220697320746865207a65726f206160008201527f6464726573730000000000000000000000000000000000000000000000000000602082015250565b7f43616c6c6572206973206e6f7420616e20494e45432065786563757469766500600082015250565b7f4f776e61626c653a2063616c6c6572206973206e6f7420746865206f776e6572600082015250565b7f43616c6c6572206973206e6f74206120566f7465720000000000000000000000600082015250565b7f416363657373436f6e74726f6c3a206163636f756e7420000000000000000000600082015250565b7f206973206d697373696e6720726f6c6520000000000000000000000000000000600082015250565b7f416363657373436f6e74726f6c3a2063616e206f6e6c792072656e6f756e636560008201527f20726f6c657320666f722073656c660000000000000000000000000000000000602082015250565b61284a81612431565b811461285557600080fd5b50565b6128618161244f565b811461286c57600080fd5b50565b61287881612459565b811461288357600080fd5b50565b61288f816124a5565b811461289a57600080fd5b5056fea2646970667358221220d17e93f0a3c25e9086f29699ad08148bb495fbd91643cd978798c9346d62abd264736f6c63430008070033",
					"opcodes": "PUSH1 0x80 PUSH1 0x40 MSTORE PUSH1 0x40 MLOAD DUP1 PUSH1 0x80 ADD PUSH1 0x40 MSTORE DUP1 PUSH1 0x40 MLOAD DUP1 PUSH1 0x40 ADD PUSH1 0x40 MSTORE DUP1 PUSH1 0x3 DUP2 MSTORE PUSH1 0x20 ADD PUSH32 0x4150430000000000000000000000000000000000000000000000000000000000 DUP2 MSTORE POP DUP2 MSTORE PUSH1 0x20 ADD PUSH1 0x40 MLOAD DUP1 PUSH1 0x40 ADD PUSH1 0x40 MSTORE DUP1 PUSH1 0x3 DUP2 MSTORE PUSH1 0x20 ADD PUSH32 0x5044500000000000000000000000000000000000000000000000000000000000 DUP2 MSTORE POP DUP2 MSTORE PUSH1 0x20 ADD PUSH1 0x40 MLOAD DUP1 PUSH1 0x40 ADD PUSH1 0x40 MSTORE DUP1 PUSH1 0x2 DUP2 MSTORE PUSH1 0x20 ADD PUSH32 0x4C50000000000000000000000000000000000000000000000000000000000000 DUP2 MSTORE POP DUP2 MSTORE PUSH1 0x20 ADD PUSH1 0x40 MLOAD DUP1 PUSH1 0x40 ADD PUSH1 0x40 MSTORE DUP1 PUSH1 0x4 DUP2 MSTORE PUSH1 0x20 ADD PUSH32 0x4E4E505000000000000000000000000000000000000000000000000000000000 DUP2 MSTORE POP DUP2 MSTORE POP PUSH1 0x6 SWAP1 PUSH1 0x4 PUSH3 0x10B SWAP3 SWAP2 SWAP1 PUSH3 0x393 JUMP JUMPDEST POP CALLVALUE DUP1 ISZERO PUSH3 0x119 JUMPI PUSH1 0x0 DUP1 REVERT JUMPDEST POP PUSH3 0x13A PUSH3 0x12E PUSH3 0x155 PUSH1 0x20 SHL PUSH1 0x20 SHR JUMP JUMPDEST PUSH3 0x15D PUSH1 0x20 SHL PUSH1 0x20 SHR JUMP JUMPDEST PUSH3 0x14F PUSH1 0x0 DUP1 SHL CALLER PUSH3 0x221 PUSH1 0x20 SHL PUSH1 0x20 SHR JUMP JUMPDEST PUSH3 0x57D JUMP JUMPDEST PUSH1 0x0 CALLER SWAP1 POP SWAP1 JUMP JUMPDEST PUSH1 0x0 DUP1 PUSH1 0x0 SWAP1 SLOAD SWAP1 PUSH2 0x100 EXP SWAP1 DIV PUSH20 0xFFFFFFFFFFFFFFFFFFFFFFFFFFFFFFFFFFFFFFFF AND SWAP1 POP DUP2 PUSH1 0x0 DUP1 PUSH2 0x100 EXP DUP2 SLOAD DUP2 PUSH20 0xFFFFFFFFFFFFFFFFFFFFFFFFFFFFFFFFFFFFFFFF MUL NOT AND SWAP1 DUP4 PUSH20 0xFFFFFFFFFFFFFFFFFFFFFFFFFFFFFFFFFFFFFFFF AND MUL OR SWAP1 SSTORE POP DUP2 PUSH20 0xFFFFFFFFFFFFFFFFFFFFFFFFFFFFFFFFFFFFFFFF AND DUP2 PUSH20 0xFFFFFFFFFFFFFFFFFFFFFFFFFFFFFFFFFFFFFFFF AND PUSH32 0x8BE0079C531659141344CD1FD0A4F28419497F9722A3DAAFE3B4186F6B6457E0 PUSH1 0x40 MLOAD PUSH1 0x40 MLOAD DUP1 SWAP2 SUB SWAP1 LOG3 POP POP JUMP JUMPDEST PUSH3 0x233 DUP3 DUP3 PUSH3 0x237 PUSH1 0x20 SHL PUSH1 0x20 SHR JUMP JUMPDEST POP POP JUMP JUMPDEST PUSH3 0x249 DUP3 DUP3 PUSH3 0x328 PUSH1 0x20 SHL PUSH1 0x20 SHR JUMP JUMPDEST PUSH3 0x324 JUMPI PUSH1 0x1 DUP1 PUSH1 0x0 DUP5 DUP2 MSTORE PUSH1 0x20 ADD SWAP1 DUP2 MSTORE PUSH1 0x20 ADD PUSH1 0x0 KECCAK256 PUSH1 0x0 ADD PUSH1 0x0 DUP4 PUSH20 0xFFFFFFFFFFFFFFFFFFFFFFFFFFFFFFFFFFFFFFFF AND PUSH20 0xFFFFFFFFFFFFFFFFFFFFFFFFFFFFFFFFFFFFFFFF AND DUP2 MSTORE PUSH1 0x20 ADD SWAP1 DUP2 MSTORE PUSH1 0x20 ADD PUSH1 0x0 KECCAK256 PUSH1 0x0 PUSH2 0x100 EXP DUP2 SLOAD DUP2 PUSH1 0xFF MUL NOT AND SWAP1 DUP4 ISZERO ISZERO MUL OR SWAP1 SSTORE POP PUSH3 0x2C9 PUSH3 0x155 PUSH1 0x20 SHL PUSH1 0x20 SHR JUMP JUMPDEST PUSH20 0xFFFFFFFFFFFFFFFFFFFFFFFFFFFFFFFFFFFFFFFF AND DUP2 PUSH20 0xFFFFFFFFFFFFFFFFFFFFFFFFFFFFFFFFFFFFFFFF AND DUP4 PUSH32 0x2F8788117E7EFF1D82E926EC794901D17C78024A50270940304540A733656F0D PUSH1 0x40 MLOAD PUSH1 0x40 MLOAD DUP1 SWAP2 SUB SWAP1 LOG4 JUMPDEST POP POP JUMP JUMPDEST PUSH1 0x0 PUSH1 0x1 PUSH1 0x0 DUP5 DUP2 MSTORE PUSH1 0x20 ADD SWAP1 DUP2 MSTORE PUSH1 0x20 ADD PUSH1 0x0 KECCAK256 PUSH1 0x0 ADD PUSH1 0x0 DUP4 PUSH20 0xFFFFFFFFFFFFFFFFFFFFFFFFFFFFFFFFFFFFFFFF AND PUSH20 0xFFFFFFFFFFFFFFFFFFFFFFFFFFFFFFFFFFFFFFFF AND DUP2 MSTORE PUSH1 0x20 ADD SWAP1 DUP2 MSTORE PUSH1 0x20 ADD PUSH1 0x0 KECCAK256 PUSH1 0x0 SWAP1 SLOAD SWAP1 PUSH2 0x100 EXP SWAP1 DIV PUSH1 0xFF AND SWAP1 POP SWAP3 SWAP2 POP POP JUMP JUMPDEST DUP3 DUP1 SLOAD DUP3 DUP3 SSTORE SWAP1 PUSH1 0x0 MSTORE PUSH1 0x20 PUSH1 0x0 KECCAK256 SWAP1 DUP2 ADD SWAP3 DUP3 ISZERO PUSH3 0x3E7 JUMPI SWAP2 PUSH1 0x20 MUL DUP3 ADD JUMPDEST DUP3 DUP2 GT ISZERO PUSH3 0x3E6 JUMPI DUP3 MLOAD DUP3 SWAP1 DUP1 MLOAD SWAP1 PUSH1 0x20 ADD SWAP1 PUSH3 0x3D5 SWAP3 SWAP2 SWAP1 PUSH3 0x3FA JUMP JUMPDEST POP SWAP2 PUSH1 0x20 ADD SWAP2 SWAP1 PUSH1 0x1 ADD SWAP1 PUSH3 0x3B4 JUMP JUMPDEST JUMPDEST POP SWAP1 POP PUSH3 0x3F6 SWAP2 SWAP1 PUSH3 0x48B JUMP JUMPDEST POP SWAP1 JUMP JUMPDEST DUP3 DUP1 SLOAD PUSH3 0x408 SWAP1 PUSH3 0x518 JUMP JUMPDEST SWAP1 PUSH1 0x0 MSTORE PUSH1 0x20 PUSH1 0x0 KECCAK256 SWAP1 PUSH1 0x1F ADD PUSH1 0x20 SWAP1 DIV DUP2 ADD SWAP3 DUP3 PUSH3 0x42C JUMPI PUSH1 0x0 DUP6 SSTORE PUSH3 0x478 JUMP JUMPDEST DUP3 PUSH1 0x1F LT PUSH3 0x447 JUMPI DUP1 MLOAD PUSH1 0xFF NOT AND DUP4 DUP1 ADD OR DUP6 SSTORE PUSH3 0x478 JUMP JUMPDEST DUP3 DUP1 ADD PUSH1 0x1 ADD DUP6 SSTORE DUP3 ISZERO PUSH3 0x478 JUMPI SWAP2 DUP3 ADD JUMPDEST DUP3 DUP2 GT ISZERO PUSH3 0x477 JUMPI DUP3 MLOAD DUP3 SSTORE SWAP2 PUSH1 0x20 ADD SWAP2 SWAP1 PUSH1 0x1 ADD SWAP1 PUSH3 0x45A JUMP JUMPDEST JUMPDEST POP SWAP1 POP PUSH3 0x487 SWAP2 SWAP1 PUSH3 0x4B3 JUMP JUMPDEST POP SWAP1 JUMP JUMPDEST JUMPDEST DUP1 DUP3 GT ISZERO PUSH3 0x4AF JUMPI PUSH1 0x0 DUP2 DUP2 PUSH3 0x4A5 SWAP2 SWAP1 PUSH3 0x4D2 JUMP JUMPDEST POP PUSH1 0x1 ADD PUSH3 0x48C JUMP JUMPDEST POP SWAP1 JUMP JUMPDEST JUMPDEST DUP1 DUP3 GT ISZERO PUSH3 0x4CE JUMPI PUSH1 0x0 DUP2 PUSH1 0x0 SWAP1 SSTORE POP PUSH1 0x1 ADD PUSH3 0x4B4 JUMP JUMPDEST POP SWAP1 JUMP JUMPDEST POP DUP1 SLOAD PUSH3 0x4E0 SWAP1 PUSH3 0x518 JUMP JUMPDEST PUSH1 0x0 DUP3 SSTORE DUP1 PUSH1 0x1F LT PUSH3 0x4F4 JUMPI POP PUSH3 0x515 JUMP JUMPDEST PUSH1 0x1F ADD PUSH1 0x20 SWAP1 DIV SWAP1 PUSH1 0x0 MSTORE PUSH1 0x20 PUSH1 0x0 KECCAK256 SWAP1 DUP2 ADD SWAP1 PUSH3 0x514 SWAP2 SWAP1 PUSH3 0x4B3 JUMP JUMPDEST JUMPDEST POP JUMP JUMPDEST PUSH1 0x0 PUSH1 0x2 DUP3 DIV SWAP1 POP PUSH1 0x1 DUP3 AND DUP1 PUSH3 0x531 JUMPI PUSH1 0x7F DUP3 AND SWAP2 POP JUMPDEST PUSH1 0x20 DUP3 LT DUP2 EQ ISZERO PUSH3 0x548 JUMPI PUSH3 0x547 PUSH3 0x54E JUMP JUMPDEST JUMPDEST POP SWAP2 SWAP1 POP JUMP JUMPDEST PUSH32 0x4E487B7100000000000000000000000000000000000000000000000000000000 PUSH1 0x0 MSTORE PUSH1 0x22 PUSH1 0x4 MSTORE PUSH1 0x24 PUSH1 0x0 REVERT JUMPDEST PUSH2 0x28D3 DUP1 PUSH3 0x58D PUSH1 0x0 CODECOPY PUSH1 0x0 RETURN INVALID PUSH1 0x80 PUSH1 0x40 MSTORE CALLVALUE DUP1 ISZERO PUSH2 0x10 JUMPI PUSH1 0x0 DUP1 REVERT JUMPDEST POP PUSH1 0x4 CALLDATASIZE LT PUSH2 0x142 JUMPI PUSH1 0x0 CALLDATALOAD PUSH1 0xE0 SHR DUP1 PUSH4 0x91D14854 GT PUSH2 0xB8 JUMPI DUP1 PUSH4 0xA94015C8 GT PUSH2 0x7C JUMPI DUP1 PUSH4 0xA94015C8 EQ PUSH2 0x3A0 JUMPI DUP1 PUSH4 0xD547741F EQ PUSH2 0x3BE JUMPI DUP1 PUSH4 0xD59D2A58 EQ PUSH2 0x3DA JUMPI DUP1 PUSH4 0xD9D55BA0 EQ PUSH2 0x3F6 JUMPI DUP1 PUSH4 0xDFD8459E EQ PUSH2 0x412 JUMPI DUP1 PUSH4 0xF2FDE38B EQ PUSH2 0x42E JUMPI PUSH2 0x142 JUMP JUMPDEST DUP1 PUSH4 0x91D14854 EQ PUSH2 0x2BF JUMPI DUP1 PUSH4 0x9C35D98B EQ PUSH2 0x2EF JUMPI DUP1 PUSH4 0x9D710777 EQ PUSH2 0x322 JUMPI DUP1 PUSH4 0x9E5F0349 EQ PUSH2 0x352 JUMPI DUP1 PUSH4 0xA217FDDF EQ PUSH2 0x382 JUMPI PUSH2 0x142 JUMP JUMPDEST DUP1 PUSH4 0x314FD68F GT PUSH2 0x10A JUMPI DUP1 PUSH4 0x314FD68F EQ PUSH2 0x213 JUMPI DUP1 PUSH4 0x36568ABE EQ PUSH2 0x243 JUMPI DUP1 PUSH4 0x3EC9AE35 EQ PUSH2 0x25F JUMPI DUP1 PUSH4 0x4F05DBA8 EQ PUSH2 0x27B JUMPI DUP1 PUSH4 0x715018A6 EQ PUSH2 0x297 JUMPI DUP1 PUSH4 0x8DA5CB5B EQ PUSH2 0x2A1 JUMPI PUSH2 0x142 JUMP JUMPDEST DUP1 PUSH4 0x1FFC9A7 EQ PUSH2 0x147 JUMPI DUP1 PUSH4 0x248A9CA3 EQ PUSH2 0x177 JUMPI DUP1 PUSH4 0x290E9212 EQ PUSH2 0x1A7 JUMPI DUP1 PUSH4 0x2E0D37BB EQ PUSH2 0x1D9 JUMPI DUP1 PUSH4 0x2F2FF15D EQ PUSH2 0x1F7 JUMPI JUMPDEST PUSH1 0x0 DUP1 REVERT JUMPDEST PUSH2 0x161 PUSH1 0x4 DUP1 CALLDATASIZE SUB DUP2 ADD SWAP1 PUSH2 0x15C SWAP2 SWAP1 PUSH2 0x1B46 JUMP JUMPDEST PUSH2 0x44A JUMP JUMPDEST PUSH1 0x40 MLOAD PUSH2 0x16E SWAP2 SWAP1 PUSH2 0x20C0 JUMP JUMPDEST PUSH1 0x40 MLOAD DUP1 SWAP2 SUB SWAP1 RETURN JUMPDEST PUSH2 0x191 PUSH1 0x4 DUP1 CALLDATASIZE SUB DUP2 ADD SWAP1 PUSH2 0x18C SWAP2 SWAP1 PUSH2 0x1AD9 JUMP JUMPDEST PUSH2 0x4C4 JUMP JUMPDEST PUSH1 0x40 MLOAD PUSH2 0x19E SWAP2 SWAP1 PUSH2 0x20DB JUMP JUMPDEST PUSH1 0x40 MLOAD DUP1 SWAP2 SUB SWAP1 RETURN JUMPDEST PUSH2 0x1C1 PUSH1 0x4 DUP1 CALLDATASIZE SUB DUP2 ADD SWAP1 PUSH2 0x1BC SWAP2 SWAP1 PUSH2 0x1BE2 JUMP JUMPDEST PUSH2 0x4E4 JUMP JUMPDEST PUSH1 0x40 MLOAD PUSH2 0x1D0 SWAP4 SWAP3 SWAP2 SWAP1 PUSH2 0x2118 JUMP JUMPDEST PUSH1 0x40 MLOAD DUP1 SWAP2 SUB SWAP1 RETURN JUMPDEST PUSH2 0x1E1 PUSH2 0x63E JUMP JUMPDEST PUSH1 0x40 MLOAD PUSH2 0x1EE SWAP2 SWAP1 PUSH2 0x20DB JUMP JUMPDEST PUSH1 0x40 MLOAD DUP1 SWAP2 SUB SWAP1 RETURN JUMPDEST PUSH2 0x211 PUSH1 0x4 DUP1 CALLDATASIZE SUB DUP2 ADD SWAP1 PUSH2 0x20C SWAP2 SWAP1 PUSH2 0x1B06 JUMP JUMPDEST PUSH2 0x662 JUMP JUMPDEST STOP JUMPDEST PUSH2 0x22D PUSH1 0x4 DUP1 CALLDATASIZE SUB DUP2 ADD SWAP1 PUSH2 0x228 SWAP2 SWAP1 PUSH2 0x1BE2 JUMP JUMPDEST PUSH2 0x683 JUMP JUMPDEST PUSH1 0x40 MLOAD PUSH2 0x23A SWAP2 SWAP1 PUSH2 0x20F6 JUMP JUMPDEST PUSH1 0x40 MLOAD DUP1 SWAP2 SUB SWAP1 RETURN JUMPDEST PUSH2 0x25D PUSH1 0x4 DUP1 CALLDATASIZE SUB DUP2 ADD SWAP1 PUSH2 0x258 SWAP2 SWAP1 PUSH2 0x1B06 JUMP JUMPDEST PUSH2 0x72F JUMP JUMPDEST STOP JUMPDEST PUSH2 0x279 PUSH1 0x4 DUP1 CALLDATASIZE SUB DUP2 ADD SWAP1 PUSH2 0x274 SWAP2 SWAP1 PUSH2 0x1C0F JUMP JUMPDEST PUSH2 0x7B2 JUMP JUMPDEST STOP JUMPDEST PUSH2 0x295 PUSH1 0x4 DUP1 CALLDATASIZE SUB DUP2 ADD SWAP1 PUSH2 0x290 SWAP2 SWAP1 PUSH2 0x1A6A JUMP JUMPDEST PUSH2 0x85E JUMP JUMPDEST STOP JUMPDEST PUSH2 0x29F PUSH2 0x9D1 JUMP JUMPDEST STOP JUMPDEST PUSH2 0x2A9 PUSH2 0x9E5 JUMP JUMPDEST PUSH1 0x40 MLOAD PUSH2 0x2B6 SWAP2 SWAP1 PUSH2 0x2060 JUMP JUMPDEST PUSH1 0x40 MLOAD DUP1 SWAP2 SUB SWAP1 RETURN JUMPDEST PUSH2 0x2D9 PUSH1 0x4 DUP1 CALLDATASIZE SUB DUP2 ADD SWAP1 PUSH2 0x2D4 SWAP2 SWAP1 PUSH2 0x1B06 JUMP JUMPDEST PUSH2 0xA0E JUMP JUMPDEST PUSH1 0x40 MLOAD PUSH2 0x2E6 SWAP2 SWAP1 PUSH2 0x20C0 JUMP JUMPDEST PUSH1 0x40 MLOAD DUP1 SWAP2 SUB SWAP1 RETURN JUMPDEST PUSH2 0x309 PUSH1 0x4 DUP1 CALLDATASIZE SUB DUP2 ADD SWAP1 PUSH2 0x304 SWAP2 SWAP1 PUSH2 0x1BE2 JUMP JUMPDEST PUSH2 0xA79 JUMP JUMPDEST PUSH1 0x40 MLOAD PUSH2 0x319 SWAP5 SWAP4 SWAP3 SWAP2 SWAP1 PUSH2 0x207B JUMP JUMPDEST PUSH1 0x40 MLOAD DUP1 SWAP2 SUB SWAP1 RETURN JUMPDEST PUSH2 0x33C PUSH1 0x4 DUP1 CALLDATASIZE SUB DUP2 ADD SWAP1 PUSH2 0x337 SWAP2 SWAP1 PUSH2 0x1BE2 JUMP JUMPDEST PUSH2 0xAD6 JUMP JUMPDEST PUSH1 0x40 MLOAD PUSH2 0x349 SWAP2 SWAP1 PUSH2 0x223F JUMP JUMPDEST PUSH1 0x40 MLOAD DUP1 SWAP2 SUB SWAP1 RETURN JUMPDEST PUSH2 0x36C PUSH1 0x4 DUP1 CALLDATASIZE SUB DUP2 ADD SWAP1 PUSH2 0x367 SWAP2 SWAP1 PUSH2 0x1BE2 JUMP JUMPDEST PUSH2 0xC05 JUMP JUMPDEST PUSH1 0x40 MLOAD PUSH2 0x379 SWAP2 SWAP1 PUSH2 0x221D JUMP JUMPDEST PUSH1 0x40 MLOAD DUP1 SWAP2 SUB SWAP1 RETURN JUMPDEST PUSH2 0x38A PUSH2 0xDAC JUMP JUMPDEST PUSH1 0x40 MLOAD PUSH2 0x397 SWAP2 SWAP1 PUSH2 0x20DB JUMP JUMPDEST PUSH1 0x40 MLOAD DUP1 SWAP2 SUB SWAP1 RETURN JUMPDEST PUSH2 0x3A8 PUSH2 0xDB3 JUMP JUMPDEST PUSH1 0x40 MLOAD PUSH2 0x3B5 SWAP2 SWAP1 PUSH2 0x20DB JUMP JUMPDEST PUSH1 0x40 MLOAD DUP1 SWAP2 SUB SWAP1 RETURN JUMPDEST PUSH2 0x3D8 PUSH1 0x4 DUP1 CALLDATASIZE SUB DUP2 ADD SWAP1 PUSH2 0x3D3 SWAP2 SWAP1 PUSH2 0x1B06 JUMP JUMPDEST PUSH2 0xDD7 JUMP JUMPDEST STOP JUMPDEST PUSH2 0x3F4 PUSH1 0x4 DUP1 CALLDATASIZE SUB DUP2 ADD SWAP1 PUSH2 0x3EF SWAP2 SWAP1 PUSH2 0x1B73 JUMP JUMPDEST PUSH2 0xDF8 JUMP JUMPDEST STOP JUMPDEST PUSH2 0x410 PUSH1 0x4 DUP1 CALLDATASIZE SUB DUP2 ADD SWAP1 PUSH2 0x40B SWAP2 SWAP1 PUSH2 0x1BE2 JUMP JUMPDEST PUSH2 0xF50 JUMP JUMPDEST STOP JUMPDEST PUSH2 0x42C PUSH1 0x4 DUP1 CALLDATASIZE SUB DUP2 ADD SWAP1 PUSH2 0x427 SWAP2 SWAP1 PUSH2 0x1A3D JUMP JUMPDEST PUSH2 0xFF1 JUMP JUMPDEST STOP JUMPDEST PUSH2 0x448 PUSH1 0x4 DUP1 CALLDATASIZE SUB DUP2 ADD SWAP1 PUSH2 0x443 SWAP2 SWAP1 PUSH2 0x1A3D JUMP JUMPDEST PUSH2 0x1026 JUMP JUMPDEST STOP JUMPDEST PUSH1 0x0 PUSH32 0x7965DB0B00000000000000000000000000000000000000000000000000000000 PUSH28 0xFFFFFFFFFFFFFFFFFFFFFFFFFFFFFFFFFFFFFFFFFFFFFFFFFFFFFFFF NOT AND DUP3 PUSH28 0xFFFFFFFFFFFFFFFFFFFFFFFFFFFFFFFFFFFFFFFFFFFFFFFFFFFFFFFF NOT AND EQ DUP1 PUSH2 0x4BD JUMPI POP PUSH2 0x4BC DUP3 PUSH2 0x10AA JUMP JUMPDEST JUMPDEST SWAP1 POP SWAP2 SWAP1 POP JUMP JUMPDEST PUSH1 0x0 PUSH1 0x1 PUSH1 0x0 DUP4 DUP2 MSTORE PUSH1 0x20 ADD SWAP1 DUP2 MSTORE PUSH1 0x20 ADD PUSH1 0x0 KECCAK256 PUSH1 0x1 ADD SLOAD SWAP1 POP SWAP2 SWAP1 POP JUMP JUMPDEST PUSH1 0x7 PUSH1 0x20 MSTORE DUP1 PUSH1 0x0 MSTORE PUSH1 0x40 PUSH1 0x0 KECCAK256 PUSH1 0x0 SWAP2 POP SWAP1 POP DUP1 PUSH1 0x0 ADD DUP1 SLOAD PUSH2 0x507 SWAP1 PUSH2 0x251B JUMP JUMPDEST DUP1 PUSH1 0x1F ADD PUSH1 0x20 DUP1 SWAP2 DIV MUL PUSH1 0x20 ADD PUSH1 0x40 MLOAD SWAP1 DUP2 ADD PUSH1 0x40 MSTORE DUP1 SWAP3 SWAP2 SWAP1 DUP2 DUP2 MSTORE PUSH1 0x20 ADD DUP3 DUP1 SLOAD PUSH2 0x533 SWAP1 PUSH2 0x251B JUMP JUMPDEST DUP1 ISZERO PUSH2 0x580 JUMPI DUP1 PUSH1 0x1F LT PUSH2 0x555 JUMPI PUSH2 0x100 DUP1 DUP4 SLOAD DIV MUL DUP4 MSTORE SWAP2 PUSH1 0x20 ADD SWAP2 PUSH2 0x580 JUMP JUMPDEST DUP3 ADD SWAP2 SWAP1 PUSH1 0x0 MSTORE PUSH1 0x20 PUSH1 0x0 KECCAK256 SWAP1 JUMPDEST DUP2 SLOAD DUP2 MSTORE SWAP1 PUSH1 0x1 ADD SWAP1 PUSH1 0x20 ADD DUP1 DUP4 GT PUSH2 0x563 JUMPI DUP3 SWAP1 SUB PUSH1 0x1F AND DUP3 ADD SWAP2 JUMPDEST POP POP POP POP POP SWAP1 DUP1 PUSH1 0x1 ADD PUSH1 0x0 SWAP1 SLOAD SWAP1 PUSH2 0x100 EXP SWAP1 DIV PUSH20 0xFFFFFFFFFFFFFFFFFFFFFFFFFFFFFFFFFFFFFFFF AND SWAP1 DUP1 PUSH1 0x2 ADD DUP1 SLOAD PUSH2 0x5BB SWAP1 PUSH2 0x251B JUMP JUMPDEST DUP1 PUSH1 0x1F ADD PUSH1 0x20 DUP1 SWAP2 DIV MUL PUSH1 0x20 ADD PUSH1 0x40 MLOAD SWAP1 DUP2 ADD PUSH1 0x40 MSTORE DUP1 SWAP3 SWAP2 SWAP1 DUP2 DUP2 MSTORE PUSH1 0x20 ADD DUP3 DUP1 SLOAD PUSH2 0x5E7 SWAP1 PUSH2 0x251B JUMP JUMPDEST DUP1 ISZERO PUSH2 0x634 JUMPI DUP1 PUSH1 0x1F LT PUSH2 0x609 JUMPI PUSH2 0x100 DUP1 DUP4 SLOAD DIV MUL DUP4 MSTORE SWAP2 PUSH1 0x20 ADD SWAP2 PUSH2 0x634 JUMP JUMPDEST DUP3 ADD SWAP2 SWAP1 PUSH1 0x0 MSTORE PUSH1 0x20 PUSH1 0x0 KECCAK256 SWAP1 JUMPDEST DUP2 SLOAD DUP2 MSTORE SWAP1 PUSH1 0x1 ADD SWAP1 PUSH1 0x20 ADD DUP1 DUP4 GT PUSH2 0x617 JUMPI DUP3 SWAP1 SUB PUSH1 0x1F AND DUP3 ADD SWAP2 JUMPDEST POP POP POP POP POP SWAP1 POP DUP4 JUMP JUMPDEST PUSH32 0x82F6ED76E0352438E6A6E35C77719C3F04BF277FDC8FEC7E5FF5F65E001D902 DUP2 JUMP JUMPDEST PUSH2 0x66B DUP3 PUSH2 0x4C4 JUMP JUMPDEST PUSH2 0x674 DUP2 PUSH2 0x1114 JUMP JUMPDEST PUSH2 0x67E DUP4 DUP4 PUSH2 0x1128 JUMP JUMPDEST POP POP POP JUMP JUMPDEST PUSH1 0x6 DUP2 DUP2 SLOAD DUP2 LT PUSH2 0x693 JUMPI PUSH1 0x0 DUP1 REVERT JUMPDEST SWAP1 PUSH1 0x0 MSTORE PUSH1 0x20 PUSH1 0x0 KECCAK256 ADD PUSH1 0x0 SWAP2 POP SWAP1 POP DUP1 SLOAD PUSH2 0x6AE SWAP1 PUSH2 0x251B JUMP JUMPDEST DUP1 PUSH1 0x1F ADD PUSH1 0x20 DUP1 SWAP2 DIV MUL PUSH1 0x20 ADD PUSH1 0x40 MLOAD SWAP1 DUP2 ADD PUSH1 0x40 MSTORE DUP1 SWAP3 SWAP2 SWAP1 DUP2 DUP2 MSTORE PUSH1 0x20 ADD DUP3 DUP1 SLOAD PUSH2 0x6DA SWAP1 PUSH2 0x251B JUMP JUMPDEST DUP1 ISZERO PUSH2 0x727 JUMPI DUP1 PUSH1 0x1F LT PUSH2 0x6FC JUMPI PUSH2 0x100 DUP1 DUP4 SLOAD DIV MUL DUP4 MSTORE SWAP2 PUSH1 0x20 ADD SWAP2 PUSH2 0x727 JUMP JUMPDEST DUP3 ADD SWAP2 SWAP1 PUSH1 0x0 MSTORE PUSH1 0x20 PUSH1 0x0 KECCAK256 SWAP1 JUMPDEST DUP2 SLOAD DUP2 MSTORE SWAP1 PUSH1 0x1 ADD SWAP1 PUSH1 0x20 ADD DUP1 DUP4 GT PUSH2 0x70A JUMPI DUP3 SWAP1 SUB PUSH1 0x1F AND DUP3 ADD SWAP2 JUMPDEST POP POP POP POP POP DUP2 JUMP JUMPDEST PUSH2 0x737 PUSH2 0x1208 JUMP JUMPDEST PUSH20 0xFFFFFFFFFFFFFFFFFFFFFFFFFFFFFFFFFFFFFFFF AND DUP2 PUSH20 0xFFFFFFFFFFFFFFFFFFFFFFFFFFFFFFFFFFFFFFFF AND EQ PUSH2 0x7A4 JUMPI PUSH1 0x40 MLOAD PUSH32 0x8C379A000000000000000000000000000000000000000000000000000000000 DUP2 MSTORE PUSH1 0x4 ADD PUSH2 0x79B SWAP1 PUSH2 0x21FD JUMP JUMPDEST PUSH1 0x40 MLOAD DUP1 SWAP2 SUB SWAP1 REVERT JUMPDEST PUSH2 0x7AE DUP3 DUP3 PUSH2 0x1210 JUMP JUMPDEST POP POP JUMP JUMPDEST PUSH2 0x7DC PUSH32 0x15283FD96AA656C9DF35AC2FCB112678A5F24F1CA97E591A97D1D16003DBFC9C CALLER PUSH2 0xA0E JUMP JUMPDEST PUSH2 0x81B JUMPI PUSH1 0x40 MLOAD PUSH32 0x8C379A000000000000000000000000000000000000000000000000000000000 DUP2 MSTORE PUSH1 0x4 ADD PUSH2 0x812 SWAP1 PUSH2 0x21DD JUMP JUMPDEST PUSH1 0x40 MLOAD DUP1 SWAP2 SUB SWAP1 REVERT JUMPDEST PUSH1 0x9 PUSH1 0x0 DUP3 DUP2 MSTORE PUSH1 0x20 ADD SWAP1 DUP2 MSTORE PUSH1 0x20 ADD PUSH1 0x0 KECCAK256 PUSH1 0x1 ADD DUP3 PUSH1 0x4 DUP2 LT PUSH2 0x843 JUMPI PUSH2 0x842 PUSH2 0x2625 JUMP JUMPDEST JUMPDEST ADD PUSH1 0x0 DUP2 SLOAD DUP1 SWAP3 SWAP2 SWAP1 PUSH2 0x855 SWAP1 PUSH2 0x257E JUMP JUMPDEST SWAP2 SWAP1 POP SSTORE POP POP POP JUMP JUMPDEST PUSH2 0x888 PUSH32 0x82F6ED76E0352438E6A6E35C77719C3F04BF277FDC8FEC7E5FF5F65E001D902 CALLER PUSH2 0xA0E JUMP JUMPDEST PUSH2 0x8C7 JUMPI PUSH1 0x40 MLOAD PUSH32 0x8C379A000000000000000000000000000000000000000000000000000000000 DUP2 MSTORE PUSH1 0x4 ADD PUSH2 0x8BE SWAP1 PUSH2 0x219D JUMP JUMPDEST PUSH1 0x40 MLOAD DUP1 SWAP2 SUB SWAP1 REVERT JUMPDEST DUP2 PUSH1 0x9 PUSH1 0x0 PUSH1 0x5 SLOAD DUP2 MSTORE PUSH1 0x20 ADD SWAP1 DUP2 MSTORE PUSH1 0x20 ADD PUSH1 0x0 KECCAK256 PUSH1 0x5 ADD DUP2 SWAP1 SSTORE POP DUP1 PUSH1 0x9 PUSH1 0x0 PUSH1 0x5 SLOAD DUP2 MSTORE PUSH1 0x20 ADD SWAP1 DUP2 MSTORE PUSH1 0x20 ADD PUSH1 0x0 KECCAK256 PUSH1 0x6 ADD DUP2 SWAP1 SSTORE POP PUSH1 0x0 JUMPDEST DUP4 MLOAD DUP2 LT ISZERO PUSH2 0x9B3 JUMPI PUSH1 0x9 PUSH1 0x0 PUSH1 0x5 SLOAD DUP2 MSTORE PUSH1 0x20 ADD SWAP1 DUP2 MSTORE PUSH1 0x20 ADD PUSH1 0x0 KECCAK256 PUSH1 0x0 ADD DUP5 DUP3 DUP2 MLOAD DUP2 LT PUSH2 0x938 JUMPI PUSH2 0x937 PUSH2 0x2625 JUMP JUMPDEST JUMPDEST PUSH1 0x20 MUL PUSH1 0x20 ADD ADD MLOAD SWAP1 DUP1 PUSH1 0x1 DUP2 SLOAD ADD DUP1 DUP3 SSTORE DUP1 SWAP2 POP POP PUSH1 0x1 SWAP1 SUB SWAP1 PUSH1 0x0 MSTORE PUSH1 0x20 PUSH1 0x0 KECCAK256 ADD PUSH1 0x0 SWAP1 SWAP2 SWAP1 SWAP2 SWAP1 SWAP2 PUSH2 0x100 EXP DUP2 SLOAD DUP2 PUSH20 0xFFFFFFFFFFFFFFFFFFFFFFFFFFFFFFFFFFFFFFFF MUL NOT AND SWAP1 DUP4 PUSH20 0xFFFFFFFFFFFFFFFFFFFFFFFFFFFFFFFFFFFFFFFF AND MUL OR SWAP1 SSTORE POP DUP1 DUP1 PUSH2 0x9AB SWAP1 PUSH2 0x257E JUMP JUMPDEST SWAP2 POP POP PUSH2 0x904 JUMP JUMPDEST POP PUSH1 0x5 PUSH1 0x0 DUP2 SLOAD DUP1 SWAP3 SWAP2 SWAP1 PUSH2 0x9C7 SWAP1 PUSH2 0x257E JUMP JUMPDEST SWAP2 SWAP1 POP SSTORE POP POP POP POP JUMP JUMPDEST PUSH2 0x9D9 PUSH2 0x12F2 JUMP JUMPDEST PUSH2 0x9E3 PUSH1 0x0 PUSH2 0x1370 JUMP JUMPDEST JUMP JUMPDEST PUSH1 0x0 DUP1 PUSH1 0x0 SWAP1 SLOAD SWAP1 PUSH2 0x100 EXP SWAP1 DIV PUSH20 0xFFFFFFFFFFFFFFFFFFFFFFFFFFFFFFFFFFFFFFFF AND SWAP1 POP SWAP1 JUMP JUMPDEST PUSH1 0x0 PUSH1 0x1 PUSH1 0x0 DUP5 DUP2 MSTORE PUSH1 0x20 ADD SWAP1 DUP2 MSTORE PUSH1 0x20 ADD PUSH1 0x0 KECCAK256 PUSH1 0x0 ADD PUSH1 0x0 DUP4 PUSH20 0xFFFFFFFFFFFFFFFFFFFFFFFFFFFFFFFFFFFFFFFF AND PUSH20 0xFFFFFFFFFFFFFFFFFFFFFFFFFFFFFFFFFFFFFFFF AND DUP2 MSTORE PUSH1 0x20 ADD SWAP1 DUP2 MSTORE PUSH1 0x20 ADD PUSH1 0x0 KECCAK256 PUSH1 0x0 SWAP1 SLOAD SWAP1 PUSH2 0x100 EXP SWAP1 DIV PUSH1 0xFF AND SWAP1 POP SWAP3 SWAP2 POP POP JUMP JUMPDEST PUSH1 0x8 PUSH1 0x20 MSTORE DUP1 PUSH1 0x0 MSTORE PUSH1 0x40 PUSH1 0x0 KECCAK256 PUSH1 0x0 SWAP2 POP SWAP1 POP DUP1 PUSH1 0x0 ADD PUSH1 0x0 SWAP1 SLOAD SWAP1 PUSH2 0x100 EXP SWAP1 DIV PUSH20 0xFFFFFFFFFFFFFFFFFFFFFFFFFFFFFFFFFFFFFFFF AND SWAP1 DUP1 PUSH1 0x1 ADD SLOAD SWAP1 DUP1 PUSH1 0x2 ADD SLOAD SWAP1 DUP1 PUSH1 0x3 ADD PUSH1 0x0 SWAP1 SLOAD SWAP1 PUSH2 0x100 EXP SWAP1 DIV PUSH1 0xFF AND SWAP1 POP DUP5 JUMP JUMPDEST PUSH2 0xADE PUSH2 0x171B JUMP JUMPDEST PUSH1 0x9 PUSH1 0x0 DUP4 DUP2 MSTORE PUSH1 0x20 ADD SWAP1 DUP2 MSTORE PUSH1 0x20 ADD PUSH1 0x0 KECCAK256 PUSH1 0x40 MLOAD DUP1 PUSH1 0xA0 ADD PUSH1 0x40 MSTORE SWAP1 DUP2 PUSH1 0x0 DUP3 ADD DUP1 SLOAD DUP1 PUSH1 0x20 MUL PUSH1 0x20 ADD PUSH1 0x40 MLOAD SWAP1 DUP2 ADD PUSH1 0x40 MSTORE DUP1 SWAP3 SWAP2 SWAP1 DUP2 DUP2 MSTORE PUSH1 0x20 ADD DUP3 DUP1 SLOAD DUP1 ISZERO PUSH2 0xB81 JUMPI PUSH1 0x20 MUL DUP3 ADD SWAP2 SWAP1 PUSH1 0x0 MSTORE PUSH1 0x20 PUSH1 0x0 KECCAK256 SWAP1 JUMPDEST DUP2 PUSH1 0x0 SWAP1 SLOAD SWAP1 PUSH2 0x100 EXP SWAP1 DIV PUSH20 0xFFFFFFFFFFFFFFFFFFFFFFFFFFFFFFFFFFFFFFFF AND PUSH20 0xFFFFFFFFFFFFFFFFFFFFFFFFFFFFFFFFFFFFFFFF AND DUP2 MSTORE PUSH1 0x20 ADD SWAP1 PUSH1 0x1 ADD SWAP1 DUP1 DUP4 GT PUSH2 0xB37 JUMPI JUMPDEST POP POP POP POP POP DUP2 MSTORE PUSH1 0x20 ADD PUSH1 0x1 DUP3 ADD PUSH1 0x4 DUP1 PUSH1 0x20 MUL PUSH1 0x40 MLOAD SWAP1 DUP2 ADD PUSH1 0x40 MSTORE DUP1 SWAP3 SWAP2 SWAP1 DUP3 PUSH1 0x4 DUP1 ISZERO PUSH2 0xBC6 JUMPI PUSH1 0x20 MUL DUP3 ADD SWAP2 JUMPDEST DUP2 SLOAD DUP2 MSTORE PUSH1 0x20 ADD SWAP1 PUSH1 0x1 ADD SWAP1 DUP1 DUP4 GT PUSH2 0xBB2 JUMPI JUMPDEST POP POP POP POP POP DUP2 MSTORE PUSH1 0x20 ADD PUSH1 0x5 DUP3 ADD SLOAD DUP2 MSTORE PUSH1 0x20 ADD PUSH1 0x6 DUP3 ADD SLOAD DUP2 MSTORE PUSH1 0x20 ADD PUSH1 0x7 DUP3 ADD PUSH1 0x0 SWAP1 SLOAD SWAP1 PUSH2 0x100 EXP SWAP1 DIV PUSH1 0xFF AND ISZERO ISZERO ISZERO ISZERO DUP2 MSTORE POP POP SWAP1 POP SWAP2 SWAP1 POP JUMP JUMPDEST PUSH2 0xC0D PUSH2 0x1752 JUMP JUMPDEST PUSH1 0x7 PUSH1 0x0 DUP4 DUP2 MSTORE PUSH1 0x20 ADD SWAP1 DUP2 MSTORE PUSH1 0x20 ADD PUSH1 0x0 KECCAK256 PUSH1 0x40 MLOAD DUP1 PUSH1 0x60 ADD PUSH1 0x40 MSTORE SWAP1 DUP2 PUSH1 0x0 DUP3 ADD DUP1 SLOAD PUSH2 0xC3B SWAP1 PUSH2 0x251B JUMP JUMPDEST DUP1 PUSH1 0x1F ADD PUSH1 0x20 DUP1 SWAP2 DIV MUL PUSH1 0x20 ADD PUSH1 0x40 MLOAD SWAP1 DUP2 ADD PUSH1 0x40 MSTORE DUP1 SWAP3 SWAP2 SWAP1 DUP2 DUP2 MSTORE PUSH1 0x20 ADD DUP3 DUP1 SLOAD PUSH2 0xC67 SWAP1 PUSH2 0x251B JUMP JUMPDEST DUP1 ISZERO PUSH2 0xCB4 JUMPI DUP1 PUSH1 0x1F LT PUSH2 0xC89 JUMPI PUSH2 0x100 DUP1 DUP4 SLOAD DIV MUL DUP4 MSTORE SWAP2 PUSH1 0x20 ADD SWAP2 PUSH2 0xCB4 JUMP JUMPDEST DUP3 ADD SWAP2 SWAP1 PUSH1 0x0 MSTORE PUSH1 0x20 PUSH1 0x0 KECCAK256 SWAP1 JUMPDEST DUP2 SLOAD DUP2 MSTORE SWAP1 PUSH1 0x1 ADD SWAP1 PUSH1 0x20 ADD DUP1 DUP4 GT PUSH2 0xC97 JUMPI DUP3 SWAP1 SUB PUSH1 0x1F AND DUP3 ADD SWAP2 JUMPDEST POP POP POP POP POP DUP2 MSTORE PUSH1 0x20 ADD PUSH1 0x1 DUP3 ADD PUSH1 0x0 SWAP1 SLOAD SWAP1 PUSH2 0x100 EXP SWAP1 DIV PUSH20 0xFFFFFFFFFFFFFFFFFFFFFFFFFFFFFFFFFFFFFFFF AND PUSH20 0xFFFFFFFFFFFFFFFFFFFFFFFFFFFFFFFFFFFFFFFF AND PUSH20 0xFFFFFFFFFFFFFFFFFFFFFFFFFFFFFFFFFFFFFFFF AND DUP2 MSTORE PUSH1 0x20 ADD PUSH1 0x2 DUP3 ADD DUP1 SLOAD PUSH2 0xD23 SWAP1 PUSH2 0x251B JUMP JUMPDEST DUP1 PUSH1 0x1F ADD PUSH1 0x20 DUP1 SWAP2 DIV MUL PUSH1 0x20 ADD PUSH1 0x40 MLOAD SWAP1 DUP2 ADD PUSH1 0x40 MSTORE DUP1 SWAP3 SWAP2 SWAP1 DUP2 DUP2 MSTORE PUSH1 0x20 ADD DUP3 DUP1 SLOAD PUSH2 0xD4F SWAP1 PUSH2 0x251B JUMP JUMPDEST DUP1 ISZERO PUSH2 0xD9C JUMPI DUP1 PUSH1 0x1F LT PUSH2 0xD71 JUMPI PUSH2 0x100 DUP1 DUP4 SLOAD DIV MUL DUP4 MSTORE SWAP2 PUSH1 0x20 ADD SWAP2 PUSH2 0xD9C JUMP JUMPDEST DUP3 ADD SWAP2 SWAP1 PUSH1 0x0 MSTORE PUSH1 0x20 PUSH1 0x0 KECCAK256 SWAP1 JUMPDEST DUP2 SLOAD DUP2 MSTORE SWAP1 PUSH1 0x1 ADD SWAP1 PUSH1 0x20 ADD DUP1 DUP4 GT PUSH2 0xD7F JUMPI DUP3 SWAP1 SUB PUSH1 0x1F AND DUP3 ADD SWAP2 JUMPDEST POP POP POP POP POP DUP2 MSTORE POP POP SWAP1 POP SWAP2 SWAP1 POP JUMP JUMPDEST PUSH1 0x0 DUP1 SHL DUP2 JUMP JUMPDEST PUSH32 0x15283FD96AA656C9DF35AC2FCB112678A5F24F1CA97E591A97D1D16003DBFC9C DUP2 JUMP JUMPDEST PUSH2 0xDE0 DUP3 PUSH2 0x4C4 JUMP JUMPDEST PUSH2 0xDE9 DUP2 PUSH2 0x1114 JUMP JUMPDEST PUSH2 0xDF3 DUP4 DUP4 PUSH2 0x1210 JUMP JUMPDEST POP POP POP JUMP JUMPDEST PUSH2 0xE22 PUSH32 0x82F6ED76E0352438E6A6E35C77719C3F04BF277FDC8FEC7E5FF5F65E001D902 CALLER PUSH2 0xA0E JUMP JUMPDEST PUSH2 0xE61 JUMPI PUSH1 0x40 MLOAD PUSH32 0x8C379A000000000000000000000000000000000000000000000000000000000 DUP2 MSTORE PUSH1 0x4 ADD PUSH2 0xE58 SWAP1 PUSH2 0x219D JUMP JUMPDEST PUSH1 0x40 MLOAD DUP1 SWAP2 SUB SWAP1 REVERT JUMPDEST DUP3 PUSH1 0x7 PUSH1 0x0 PUSH1 0x3 SLOAD DUP2 MSTORE PUSH1 0x20 ADD SWAP1 DUP2 MSTORE PUSH1 0x20 ADD PUSH1 0x0 KECCAK256 PUSH1 0x0 ADD SWAP1 DUP1 MLOAD SWAP1 PUSH1 0x20 ADD SWAP1 PUSH2 0xE8D SWAP3 SWAP2 SWAP1 PUSH2 0x1789 JUMP JUMPDEST POP DUP2 PUSH1 0x7 PUSH1 0x0 PUSH1 0x3 SLOAD DUP2 MSTORE PUSH1 0x20 ADD SWAP1 DUP2 MSTORE PUSH1 0x20 ADD PUSH1 0x0 KECCAK256 PUSH1 0x1 ADD PUSH1 0x0 PUSH2 0x100 EXP DUP2 SLOAD DUP2 PUSH20 0xFFFFFFFFFFFFFFFFFFFFFFFFFFFFFFFFFFFFFFFF MUL NOT AND SWAP1 DUP4 PUSH20 0xFFFFFFFFFFFFFFFFFFFFFFFFFFFFFFFFFFFFFFFF AND MUL OR SWAP1 SSTORE POP PUSH1 0x6 DUP2 DUP2 SLOAD DUP2 LT PUSH2 0xEF9 JUMPI PUSH2 0xEF8 PUSH2 0x2625 JUMP JUMPDEST JUMPDEST SWAP1 PUSH1 0x0 MSTORE PUSH1 0x20 PUSH1 0x0 KECCAK256 ADD PUSH1 0x7 PUSH1 0x0 PUSH1 0x3 SLOAD DUP2 MSTORE PUSH1 0x20 ADD SWAP1 DUP2 MSTORE PUSH1 0x20 ADD PUSH1 0x0 KECCAK256 PUSH1 0x2 ADD SWAP1 DUP1 SLOAD PUSH2 0xF27 SWAP1 PUSH2 0x251B JUMP JUMPDEST PUSH2 0xF32 SWAP3 SWAP2 SWAP1 PUSH2 0x180F JUMP JUMPDEST POP PUSH1 0x3 PUSH1 0x0 DUP2 SLOAD DUP1 SWAP3 SWAP2 SWAP1 PUSH2 0xF46 SWAP1 PUSH2 0x257E JUMP JUMPDEST SWAP2 SWAP1 POP SSTORE POP POP POP POP JUMP JUMPDEST CALLER PUSH1 0x8 PUSH1 0x0 PUSH1 0x4 SLOAD DUP2 MSTORE PUSH1 0x20 ADD SWAP1 DUP2 MSTORE PUSH1 0x20 ADD PUSH1 0x0 KECCAK256 PUSH1 0x0 ADD PUSH1 0x0 PUSH2 0x100 EXP DUP2 SLOAD DUP2 PUSH20 0xFFFFFFFFFFFFFFFFFFFFFFFFFFFFFFFFFFFFFFFF MUL NOT AND SWAP1 DUP4 PUSH20 0xFFFFFFFFFFFFFFFFFFFFFFFFFFFFFFFFFFFFFFFF AND MUL OR SWAP1 SSTORE POP DUP1 PUSH1 0x8 PUSH1 0x0 PUSH1 0x4 SLOAD DUP2 MSTORE PUSH1 0x20 ADD SWAP1 DUP2 MSTORE PUSH1 0x20 ADD PUSH1 0x0 KECCAK256 PUSH1 0x1 ADD DUP2 SWAP1 SSTORE POP PUSH2 0xFEE PUSH32 0x15283FD96AA656C9DF35AC2FCB112678A5F24F1CA97E591A97D1D16003DBFC9C CALLER PUSH2 0x1434 JUMP JUMPDEST POP JUMP JUMPDEST PUSH2 0xFF9 PUSH2 0x12F2 JUMP JUMPDEST PUSH2 0x1023 PUSH32 0x82F6ED76E0352438E6A6E35C77719C3F04BF277FDC8FEC7E5FF5F65E001D902 DUP3 PUSH2 0x662 JUMP JUMPDEST POP JUMP JUMPDEST PUSH2 0x102E PUSH2 0x12F2 JUMP JUMPDEST PUSH1 0x0 PUSH20 0xFFFFFFFFFFFFFFFFFFFFFFFFFFFFFFFFFFFFFFFF AND DUP2 PUSH20 0xFFFFFFFFFFFFFFFFFFFFFFFFFFFFFFFFFFFFFFFF AND EQ ISZERO PUSH2 0x109E JUMPI PUSH1 0x40 MLOAD PUSH32 0x8C379A000000000000000000000000000000000000000000000000000000000 DUP2 MSTORE PUSH1 0x4 ADD PUSH2 0x1095 SWAP1 PUSH2 0x217D JUMP JUMPDEST PUSH1 0x40 MLOAD DUP1 SWAP2 SUB SWAP1 REVERT JUMPDEST PUSH2 0x10A7 DUP2 PUSH2 0x1370 JUMP JUMPDEST POP JUMP JUMPDEST PUSH1 0x0 PUSH32 0x1FFC9A700000000000000000000000000000000000000000000000000000000 PUSH28 0xFFFFFFFFFFFFFFFFFFFFFFFFFFFFFFFFFFFFFFFFFFFFFFFFFFFFFFFF NOT AND DUP3 PUSH28 0xFFFFFFFFFFFFFFFFFFFFFFFFFFFFFFFFFFFFFFFFFFFFFFFFFFFFFFFF NOT AND EQ SWAP1 POP SWAP2 SWAP1 POP JUMP JUMPDEST PUSH2 0x1125 DUP2 PUSH2 0x1120 PUSH2 0x1208 JUMP JUMPDEST PUSH2 0x1442 JUMP JUMPDEST POP JUMP JUMPDEST PUSH2 0x1132 DUP3 DUP3 PUSH2 0xA0E JUMP JUMPDEST PUSH2 0x1204 JUMPI PUSH1 0x1 DUP1 PUSH1 0x0 DUP5 DUP2 MSTORE PUSH1 0x20 ADD SWAP1 DUP2 MSTORE PUSH1 0x20 ADD PUSH1 0x0 KECCAK256 PUSH1 0x0 ADD PUSH1 0x0 DUP4 PUSH20 0xFFFFFFFFFFFFFFFFFFFFFFFFFFFFFFFFFFFFFFFF AND PUSH20 0xFFFFFFFFFFFFFFFFFFFFFFFFFFFFFFFFFFFFFFFF AND DUP2 MSTORE PUSH1 0x20 ADD SWAP1 DUP2 MSTORE PUSH1 0x20 ADD PUSH1 0x0 KECCAK256 PUSH1 0x0 PUSH2 0x100 EXP DUP2 SLOAD DUP2 PUSH1 0xFF MUL NOT AND SWAP1 DUP4 ISZERO ISZERO MUL OR SWAP1 SSTORE POP PUSH2 0x11A9 PUSH2 0x1208 JUMP JUMPDEST PUSH20 0xFFFFFFFFFFFFFFFFFFFFFFFFFFFFFFFFFFFFFFFF AND DUP2 PUSH20 0xFFFFFFFFFFFFFFFFFFFFFFFFFFFFFFFFFFFFFFFF AND DUP4 PUSH32 0x2F8788117E7EFF1D82E926EC794901D17C78024A50270940304540A733656F0D PUSH1 0x40 MLOAD PUSH1 0x40 MLOAD DUP1 SWAP2 SUB SWAP1 LOG4 JUMPDEST POP POP JUMP JUMPDEST PUSH1 0x0 CALLER SWAP1 POP SWAP1 JUMP JUMPDEST PUSH2 0x121A DUP3 DUP3 PUSH2 0xA0E JUMP JUMPDEST ISZERO PUSH2 0x12EE JUMPI PUSH1 0x0 PUSH1 0x1 PUSH1 0x0 DUP5 DUP2 MSTORE PUSH1 0x20 ADD SWAP1 DUP2 MSTORE PUSH1 0x20 ADD PUSH1 0x0 KECCAK256 PUSH1 0x0 ADD PUSH1 0x0 DUP4 PUSH20 0xFFFFFFFFFFFFFFFFFFFFFFFFFFFFFFFFFFFFFFFF AND PUSH20 0xFFFFFFFFFFFFFFFFFFFFFFFFFFFFFFFFFFFFFFFF AND DUP2 MSTORE PUSH1 0x20 ADD SWAP1 DUP2 MSTORE PUSH1 0x20 ADD PUSH1 0x0 KECCAK256 PUSH1 0x0 PUSH2 0x100 EXP DUP2 SLOAD DUP2 PUSH1 0xFF MUL NOT AND SWAP1 DUP4 ISZERO ISZERO MUL OR SWAP1 SSTORE POP PUSH2 0x1293 PUSH2 0x1208 JUMP JUMPDEST PUSH20 0xFFFFFFFFFFFFFFFFFFFFFFFFFFFFFFFFFFFFFFFF AND DUP2 PUSH20 0xFFFFFFFFFFFFFFFFFFFFFFFFFFFFFFFFFFFFFFFF AND DUP4 PUSH32 0xF6391F5C32D9C69D2A47EA670B442974B53935D1EDC7FD64EB21E047A839171B PUSH1 0x40 MLOAD PUSH1 0x40 MLOAD DUP1 SWAP2 SUB SWAP1 LOG4 JUMPDEST POP POP JUMP JUMPDEST PUSH2 0x12FA PUSH2 0x1208 JUMP JUMPDEST PUSH20 0xFFFFFFFFFFFFFFFFFFFFFFFFFFFFFFFFFFFFFFFF AND PUSH2 0x1318 PUSH2 0x9E5 JUMP JUMPDEST PUSH20 0xFFFFFFFFFFFFFFFFFFFFFFFFFFFFFFFFFFFFFFFF AND EQ PUSH2 0x136E JUMPI PUSH1 0x40 MLOAD PUSH32 0x8C379A000000000000000000000000000000000000000000000000000000000 DUP2 MSTORE PUSH1 0x4 ADD PUSH2 0x1365 SWAP1 PUSH2 0x21BD JUMP JUMPDEST PUSH1 0x40 MLOAD DUP1 SWAP2 SUB SWAP1 REVERT JUMPDEST JUMP JUMPDEST PUSH1 0x0 DUP1 PUSH1 0x0 SWAP1 SLOAD SWAP1 PUSH2 0x100 EXP SWAP1 DIV PUSH20 0xFFFFFFFFFFFFFFFFFFFFFFFFFFFFFFFFFFFFFFFF AND SWAP1 POP DUP2 PUSH1 0x0 DUP1 PUSH2 0x100 EXP DUP2 SLOAD DUP2 PUSH20 0xFFFFFFFFFFFFFFFFFFFFFFFFFFFFFFFFFFFFFFFF MUL NOT AND SWAP1 DUP4 PUSH20 0xFFFFFFFFFFFFFFFFFFFFFFFFFFFFFFFFFFFFFFFF AND MUL OR SWAP1 SSTORE POP DUP2 PUSH20 0xFFFFFFFFFFFFFFFFFFFFFFFFFFFFFFFFFFFFFFFF AND DUP2 PUSH20 0xFFFFFFFFFFFFFFFFFFFFFFFFFFFFFFFFFFFFFFFF AND PUSH32 0x8BE0079C531659141344CD1FD0A4F28419497F9722A3DAAFE3B4186F6B6457E0 PUSH1 0x40 MLOAD PUSH1 0x40 MLOAD DUP1 SWAP2 SUB SWAP1 LOG3 POP POP JUMP JUMPDEST PUSH2 0x143E DUP3 DUP3 PUSH2 0x1128 JUMP JUMPDEST POP POP JUMP JUMPDEST PUSH2 0x144C DUP3 DUP3 PUSH2 0xA0E JUMP JUMPDEST PUSH2 0x14DB JUMPI PUSH2 0x1471 DUP2 PUSH20 0xFFFFFFFFFFFFFFFFFFFFFFFFFFFFFFFFFFFFFFFF AND PUSH1 0x14 PUSH2 0x14DF JUMP JUMPDEST PUSH2 0x147F DUP4 PUSH1 0x0 SHR PUSH1 0x20 PUSH2 0x14DF JUMP JUMPDEST PUSH1 0x40 MLOAD PUSH1 0x20 ADD PUSH2 0x1490 SWAP3 SWAP2 SWAP1 PUSH2 0x2026 JUMP JUMPDEST PUSH1 0x40 MLOAD PUSH1 0x20 DUP2 DUP4 SUB SUB DUP2 MSTORE SWAP1 PUSH1 0x40 MSTORE PUSH1 0x40 MLOAD PUSH32 0x8C379A000000000000000000000000000000000000000000000000000000000 DUP2 MSTORE PUSH1 0x4 ADD PUSH2 0x14D2 SWAP2 SWAP1 PUSH2 0x20F6 JUMP JUMPDEST PUSH1 0x40 MLOAD DUP1 SWAP2 SUB SWAP1 REVERT JUMPDEST POP POP JUMP JUMPDEST PUSH1 0x60 PUSH1 0x0 PUSH1 0x2 DUP4 PUSH1 0x2 PUSH2 0x14F2 SWAP2 SWAP1 PUSH2 0x23D7 JUMP JUMPDEST PUSH2 0x14FC SWAP2 SWAP1 PUSH2 0x2381 JUMP JUMPDEST PUSH8 0xFFFFFFFFFFFFFFFF DUP2 GT ISZERO PUSH2 0x1515 JUMPI PUSH2 0x1514 PUSH2 0x2654 JUMP JUMPDEST JUMPDEST PUSH1 0x40 MLOAD SWAP1 DUP1 DUP3 MSTORE DUP1 PUSH1 0x1F ADD PUSH1 0x1F NOT AND PUSH1 0x20 ADD DUP3 ADD PUSH1 0x40 MSTORE DUP1 ISZERO PUSH2 0x1547 JUMPI DUP2 PUSH1 0x20 ADD PUSH1 0x1 DUP3 MUL DUP1 CALLDATASIZE DUP4 CALLDATACOPY DUP1 DUP3 ADD SWAP2 POP POP SWAP1 POP JUMPDEST POP SWAP1 POP PUSH32 0x3000000000000000000000000000000000000000000000000000000000000000 DUP2 PUSH1 0x0 DUP2 MLOAD DUP2 LT PUSH2 0x157F JUMPI PUSH2 0x157E PUSH2 0x2625 JUMP JUMPDEST JUMPDEST PUSH1 0x20 ADD ADD SWAP1 PUSH31 0xFFFFFFFFFFFFFFFFFFFFFFFFFFFFFFFFFFFFFFFFFFFFFFFFFFFFFFFFFFFFFF NOT AND SWAP1 DUP2 PUSH1 0x0 BYTE SWAP1 MSTORE8 POP PUSH32 0x7800000000000000000000000000000000000000000000000000000000000000 DUP2 PUSH1 0x1 DUP2 MLOAD DUP2 LT PUSH2 0x15E3 JUMPI PUSH2 0x15E2 PUSH2 0x2625 JUMP JUMPDEST JUMPDEST PUSH1 0x20 ADD ADD SWAP1 PUSH31 0xFFFFFFFFFFFFFFFFFFFFFFFFFFFFFFFFFFFFFFFFFFFFFFFFFFFFFFFFFFFFFF NOT AND SWAP1 DUP2 PUSH1 0x0 BYTE SWAP1 MSTORE8 POP PUSH1 0x0 PUSH1 0x1 DUP5 PUSH1 0x2 PUSH2 0x1623 SWAP2 SWAP1 PUSH2 0x23D7 JUMP JUMPDEST PUSH2 0x162D SWAP2 SWAP1 PUSH2 0x2381 JUMP JUMPDEST SWAP1 POP JUMPDEST PUSH1 0x1 DUP2 GT ISZERO PUSH2 0x16CD JUMPI PUSH32 0x3031323334353637383961626364656600000000000000000000000000000000 PUSH1 0xF DUP7 AND PUSH1 0x10 DUP2 LT PUSH2 0x166F JUMPI PUSH2 0x166E PUSH2 0x2625 JUMP JUMPDEST JUMPDEST BYTE PUSH1 0xF8 SHL DUP3 DUP3 DUP2 MLOAD DUP2 LT PUSH2 0x1686 JUMPI PUSH2 0x1685 PUSH2 0x2625 JUMP JUMPDEST JUMPDEST PUSH1 0x20 ADD ADD SWAP1 PUSH31 0xFFFFFFFFFFFFFFFFFFFFFFFFFFFFFFFFFFFFFFFFFFFFFFFFFFFFFFFFFFFFFF NOT AND SWAP1 DUP2 PUSH1 0x0 BYTE SWAP1 MSTORE8 POP PUSH1 0x4 DUP6 SWAP1 SHR SWAP5 POP DUP1 PUSH2 0x16C6 SWAP1 PUSH2 0x24F1 JUMP JUMPDEST SWAP1 POP PUSH2 0x1630 JUMP JUMPDEST POP PUSH1 0x0 DUP5 EQ PUSH2 0x1711 JUMPI PUSH1 0x40 MLOAD PUSH32 0x8C379A000000000000000000000000000000000000000000000000000000000 DUP2 MSTORE PUSH1 0x4 ADD PUSH2 0x1708 SWAP1 PUSH2 0x215D JUMP JUMPDEST PUSH1 0x40 MLOAD DUP1 SWAP2 SUB SWAP1 REVERT JUMPDEST DUP1 SWAP2 POP POP SWAP3 SWAP2 POP POP JUMP JUMPDEST PUSH1 0x40 MLOAD DUP1 PUSH1 0xA0 ADD PUSH1 0x40 MSTORE DUP1 PUSH1 0x60 DUP2 MSTORE PUSH1 0x20 ADD PUSH2 0x1735 PUSH2 0x189C JUMP JUMPDEST DUP2 MSTORE PUSH1 0x20 ADD PUSH1 0x0 DUP2 MSTORE PUSH1 0x20 ADD PUSH1 0x0 DUP2 MSTORE PUSH1 0x20 ADD PUSH1 0x0 ISZERO ISZERO DUP2 MSTORE POP SWAP1 JUMP JUMPDEST PUSH1 0x40 MLOAD DUP1 PUSH1 0x60 ADD PUSH1 0x40 MSTORE DUP1 PUSH1 0x60 DUP2 MSTORE PUSH1 0x20 ADD PUSH1 0x0 PUSH20 0xFFFFFFFFFFFFFFFFFFFFFFFFFFFFFFFFFFFFFFFF AND DUP2 MSTORE PUSH1 0x20 ADD PUSH1 0x60 DUP2 MSTORE POP SWAP1 JUMP JUMPDEST DUP3 DUP1 SLOAD PUSH2 0x1795 SWAP1 PUSH2 0x251B JUMP JUMPDEST SWAP1 PUSH1 0x0 MSTORE PUSH1 0x20 PUSH1 0x0 KECCAK256 SWAP1 PUSH1 0x1F ADD PUSH1 0x20 SWAP1 DIV DUP2 ADD SWAP3 DUP3 PUSH2 0x17B7 JUMPI PUSH1 0x0 DUP6 SSTORE PUSH2 0x17FE JUMP JUMPDEST DUP3 PUSH1 0x1F LT PUSH2 0x17D0 JUMPI DUP1 MLOAD PUSH1 0xFF NOT AND DUP4 DUP1 ADD OR DUP6 SSTORE PUSH2 0x17FE JUMP JUMPDEST DUP3 DUP1 ADD PUSH1 0x1 ADD DUP6 SSTORE DUP3 ISZERO PUSH2 0x17FE JUMPI SWAP2 DUP3 ADD JUMPDEST DUP3 DUP2 GT ISZERO PUSH2 0x17FD JUMPI DUP3 MLOAD DUP3 SSTORE SWAP2 PUSH1 0x20 ADD SWAP2 SWAP1 PUSH1 0x1 ADD SWAP1 PUSH2 0x17E2 JUMP JUMPDEST JUMPDEST POP SWAP1 POP PUSH2 0x180B SWAP2 SWAP1 PUSH2 0x18BE JUMP JUMPDEST POP SWAP1 JUMP JUMPDEST DUP3 DUP1 SLOAD PUSH2 0x181B SWAP1 PUSH2 0x251B JUMP JUMPDEST SWAP1 PUSH1 0x0 MSTORE PUSH1 0x20 PUSH1 0x0 KECCAK256 SWAP1 PUSH1 0x1F ADD PUSH1 0x20 SWAP1 DIV DUP2 ADD SWAP3 DUP3 PUSH2 0x183D JUMPI PUSH1 0x0 DUP6 SSTORE PUSH2 0x188B JUMP JUMPDEST DUP3 PUSH1 0x1F LT PUSH2 0x184E JUMPI DUP1 SLOAD DUP6 SSTORE PUSH2 0x188B JUMP JUMPDEST DUP3 DUP1 ADD PUSH1 0x1 ADD DUP6 SSTORE DUP3 ISZERO PUSH2 0x188B JUMPI PUSH1 0x0 MSTORE PUSH1 0x20 PUSH1 0x0 KECCAK256 SWAP2 PUSH1 0x1F ADD PUSH1 0x20 SWAP1 DIV DUP3 ADD JUMPDEST DUP3 DUP2 GT ISZERO PUSH2 0x188A JUMPI DUP3 SLOAD DUP3 SSTORE SWAP2 PUSH1 0x1 ADD SWAP2 SWAP1 PUSH1 0x1 ADD SWAP1 PUSH2 0x186F JUMP JUMPDEST JUMPDEST POP SWAP1 POP PUSH2 0x1898 SWAP2 SWAP1 PUSH2 0x18BE JUMP JUMPDEST POP SWAP1 JUMP JUMPDEST PUSH1 0x40 MLOAD DUP1 PUSH1 0x80 ADD PUSH1 0x40 MSTORE DUP1 PUSH1 0x4 SWAP1 PUSH1 0x20 DUP3 MUL DUP1 CALLDATASIZE DUP4 CALLDATACOPY DUP1 DUP3 ADD SWAP2 POP POP SWAP1 POP POP SWAP1 JUMP JUMPDEST JUMPDEST DUP1 DUP3 GT ISZERO PUSH2 0x18D7 JUMPI PUSH1 0x0 DUP2 PUSH1 0x0 SWAP1 SSTORE POP PUSH1 0x1 ADD PUSH2 0x18BF JUMP JUMPDEST POP SWAP1 JUMP JUMPDEST PUSH1 0x0 PUSH2 0x18EE PUSH2 0x18E9 DUP5 PUSH2 0x2286 JUMP JUMPDEST PUSH2 0x2261 JUMP JUMPDEST SWAP1 POP DUP1 DUP4 DUP3 MSTORE PUSH1 0x20 DUP3 ADD SWAP1 POP DUP3 DUP6 PUSH1 0x20 DUP7 MUL DUP3 ADD GT ISZERO PUSH2 0x1911 JUMPI PUSH2 0x1910 PUSH2 0x2688 JUMP JUMPDEST JUMPDEST PUSH1 0x0 JUMPDEST DUP6 DUP2 LT ISZERO PUSH2 0x1941 JUMPI DUP2 PUSH2 0x1927 DUP9 DUP3 PUSH2 0x198D JUMP JUMPDEST DUP5 MSTORE PUSH1 0x20 DUP5 ADD SWAP4 POP PUSH1 0x20 DUP4 ADD SWAP3 POP POP PUSH1 0x1 DUP2 ADD SWAP1 POP PUSH2 0x1914 JUMP JUMPDEST POP POP POP SWAP4 SWAP3 POP POP POP JUMP JUMPDEST PUSH1 0x0 PUSH2 0x195E PUSH2 0x1959 DUP5 PUSH2 0x22B2 JUMP JUMPDEST PUSH2 0x2261 JUMP JUMPDEST SWAP1 POP DUP3 DUP2 MSTORE PUSH1 0x20 DUP2 ADD DUP5 DUP5 DUP5 ADD GT ISZERO PUSH2 0x197A JUMPI PUSH2 0x1979 PUSH2 0x268D JUMP JUMPDEST JUMPDEST PUSH2 0x1985 DUP5 DUP3 DUP6 PUSH2 0x24AF JUMP JUMPDEST POP SWAP4 SWAP3 POP POP POP JUMP JUMPDEST PUSH1 0x0 DUP2 CALLDATALOAD SWAP1 POP PUSH2 0x199C DUP2 PUSH2 0x2841 JUMP JUMPDEST SWAP3 SWAP2 POP POP JUMP JUMPDEST PUSH1 0x0 DUP3 PUSH1 0x1F DUP4 ADD SLT PUSH2 0x19B7 JUMPI PUSH2 0x19B6 PUSH2 0x2683 JUMP JUMPDEST JUMPDEST DUP2 CALLDATALOAD PUSH2 0x19C7 DUP5 DUP3 PUSH1 0x20 DUP7 ADD PUSH2 0x18DB JUMP JUMPDEST SWAP2 POP POP SWAP3 SWAP2 POP POP JUMP JUMPDEST PUSH1 0x0 DUP2 CALLDATALOAD SWAP1 POP PUSH2 0x19DF DUP2 PUSH2 0x2858 JUMP JUMPDEST SWAP3 SWAP2 POP POP JUMP JUMPDEST PUSH1 0x0 DUP2 CALLDATALOAD SWAP1 POP PUSH2 0x19F4 DUP2 PUSH2 0x286F JUMP JUMPDEST SWAP3 SWAP2 POP POP JUMP JUMPDEST PUSH1 0x0 DUP3 PUSH1 0x1F DUP4 ADD SLT PUSH2 0x1A0F JUMPI PUSH2 0x1A0E PUSH2 0x2683 JUMP JUMPDEST JUMPDEST DUP2 CALLDATALOAD PUSH2 0x1A1F DUP5 DUP3 PUSH1 0x20 DUP7 ADD PUSH2 0x194B JUMP JUMPDEST SWAP2 POP POP SWAP3 SWAP2 POP POP JUMP JUMPDEST PUSH1 0x0 DUP2 CALLDATALOAD SWAP1 POP PUSH2 0x1A37 DUP2 PUSH2 0x2886 JUMP JUMPDEST SWAP3 SWAP2 POP POP JUMP JUMPDEST PUSH1 0x0 PUSH1 0x20 DUP3 DUP5 SUB SLT ISZERO PUSH2 0x1A53 JUMPI PUSH2 0x1A52 PUSH2 0x2697 JUMP JUMPDEST JUMPDEST PUSH1 0x0 PUSH2 0x1A61 DUP5 DUP3 DUP6 ADD PUSH2 0x198D JUMP JUMPDEST SWAP2 POP POP SWAP3 SWAP2 POP POP JUMP JUMPDEST PUSH1 0x0 DUP1 PUSH1 0x0 PUSH1 0x60 DUP5 DUP7 SUB SLT ISZERO PUSH2 0x1A83 JUMPI PUSH2 0x1A82 PUSH2 0x2697 JUMP JUMPDEST JUMPDEST PUSH1 0x0 DUP5 ADD CALLDATALOAD PUSH8 0xFFFFFFFFFFFFFFFF DUP2 GT ISZERO PUSH2 0x1AA1 JUMPI PUSH2 0x1AA0 PUSH2 0x2692 JUMP JUMPDEST JUMPDEST PUSH2 0x1AAD DUP7 DUP3 DUP8 ADD PUSH2 0x19A2 JUMP JUMPDEST SWAP4 POP POP PUSH1 0x20 PUSH2 0x1ABE DUP7 DUP3 DUP8 ADD PUSH2 0x1A28 JUMP JUMPDEST SWAP3 POP POP PUSH1 0x40 PUSH2 0x1ACF DUP7 DUP3 DUP8 ADD PUSH2 0x1A28 JUMP JUMPDEST SWAP2 POP POP SWAP3 POP SWAP3 POP SWAP3 JUMP JUMPDEST PUSH1 0x0 PUSH1 0x20 DUP3 DUP5 SUB SLT ISZERO PUSH2 0x1AEF JUMPI PUSH2 0x1AEE PUSH2 0x2697 JUMP JUMPDEST JUMPDEST PUSH1 0x0 PUSH2 0x1AFD DUP5 DUP3 DUP6 ADD PUSH2 0x19D0 JUMP JUMPDEST SWAP2 POP POP SWAP3 SWAP2 POP POP JUMP JUMPDEST PUSH1 0x0 DUP1 PUSH1 0x40 DUP4 DUP6 SUB SLT ISZERO PUSH2 0x1B1D JUMPI PUSH2 0x1B1C PUSH2 0x2697 JUMP JUMPDEST JUMPDEST PUSH1 0x0 PUSH2 0x1B2B DUP6 DUP3 DUP7 ADD PUSH2 0x19D0 JUMP JUMPDEST SWAP3 POP POP PUSH1 0x20 PUSH2 0x1B3C DUP6 DUP3 DUP7 ADD PUSH2 0x198D JUMP JUMPDEST SWAP2 POP POP SWAP3 POP SWAP3 SWAP1 POP JUMP JUMPDEST PUSH1 0x0 PUSH1 0x20 DUP3 DUP5 SUB SLT ISZERO PUSH2 0x1B5C JUMPI PUSH2 0x1B5B PUSH2 0x2697 JUMP JUMPDEST JUMPDEST PUSH1 0x0 PUSH2 0x1B6A DUP5 DUP3 DUP6 ADD PUSH2 0x19E5 JUMP JUMPDEST SWAP2 POP POP SWAP3 SWAP2 POP POP JUMP JUMPDEST PUSH1 0x0 DUP1 PUSH1 0x0 PUSH1 0x60 DUP5 DUP7 SUB SLT ISZERO PUSH2 0x1B8C JUMPI PUSH2 0x1B8B PUSH2 0x2697 JUMP JUMPDEST JUMPDEST PUSH1 0x0 DUP5 ADD CALLDATALOAD PUSH8 0xFFFFFFFFFFFFFFFF DUP2 GT ISZERO PUSH2 0x1BAA JUMPI PUSH2 0x1BA9 PUSH2 0x2692 JUMP JUMPDEST JUMPDEST PUSH2 0x1BB6 DUP7 DUP3 DUP8 ADD PUSH2 0x19FA JUMP JUMPDEST SWAP4 POP POP PUSH1 0x20 PUSH2 0x1BC7 DUP7 DUP3 DUP8 ADD PUSH2 0x198D JUMP JUMPDEST SWAP3 POP POP PUSH1 0x40 PUSH2 0x1BD8 DUP7 DUP3 DUP8 ADD PUSH2 0x1A28 JUMP JUMPDEST SWAP2 POP POP SWAP3 POP SWAP3 POP SWAP3 JUMP JUMPDEST PUSH1 0x0 PUSH1 0x20 DUP3 DUP5 SUB SLT ISZERO PUSH2 0x1BF8 JUMPI PUSH2 0x1BF7 PUSH2 0x2697 JUMP JUMPDEST JUMPDEST PUSH1 0x0 PUSH2 0x1C06 DUP5 DUP3 DUP6 ADD PUSH2 0x1A28 JUMP JUMPDEST SWAP2 POP POP SWAP3 SWAP2 POP POP JUMP JUMPDEST PUSH1 0x0 DUP1 PUSH1 0x40 DUP4 DUP6 SUB SLT ISZERO PUSH2 0x1C26 JUMPI PUSH2 0x1C25 PUSH2 0x2697 JUMP JUMPDEST JUMPDEST PUSH1 0x0 PUSH2 0x1C34 DUP6 DUP3 DUP7 ADD PUSH2 0x1A28 JUMP JUMPDEST SWAP3 POP POP PUSH1 0x20 PUSH2 0x1C45 DUP6 DUP3 DUP7 ADD PUSH2 0x1A28 JUMP JUMPDEST SWAP2 POP POP SWAP3 POP SWAP3 SWAP1 POP JUMP JUMPDEST PUSH1 0x0 PUSH2 0x1C5B DUP4 DUP4 PUSH2 0x1C7F JUMP JUMPDEST PUSH1 0x20 DUP4 ADD SWAP1 POP SWAP3 SWAP2 POP POP JUMP JUMPDEST PUSH1 0x0 PUSH2 0x1C73 DUP4 DUP4 PUSH2 0x2008 JUMP JUMPDEST PUSH1 0x20 DUP4 ADD SWAP1 POP SWAP3 SWAP2 POP POP JUMP JUMPDEST PUSH2 0x1C88 DUP2 PUSH2 0x2431 JUMP JUMPDEST DUP3 MSTORE POP POP JUMP JUMPDEST PUSH2 0x1C97 DUP2 PUSH2 0x2431 JUMP JUMPDEST DUP3 MSTORE POP POP JUMP JUMPDEST PUSH1 0x0 PUSH2 0x1CA8 DUP3 PUSH2 0x22FD JUMP JUMPDEST PUSH2 0x1CB2 DUP2 DUP6 PUSH2 0x2338 JUMP JUMPDEST SWAP4 POP PUSH2 0x1CBD DUP4 PUSH2 0x22E3 JUMP JUMPDEST DUP1 PUSH1 0x0 JUMPDEST DUP4 DUP2 LT ISZERO PUSH2 0x1CEE JUMPI DUP2 MLOAD PUSH2 0x1CD5 DUP9 DUP3 PUSH2 0x1C4F JUMP JUMPDEST SWAP8 POP PUSH2 0x1CE0 DUP4 PUSH2 0x231E JUMP JUMPDEST SWAP3 POP POP PUSH1 0x1 DUP2 ADD SWAP1 POP PUSH2 0x1CC1 JUMP JUMPDEST POP DUP6 SWAP4 POP POP POP POP SWAP3 SWAP2 POP POP JUMP JUMPDEST PUSH2 0x1D04 DUP2 PUSH2 0x2308 JUMP JUMPDEST PUSH2 0x1D0E DUP2 DUP5 PUSH2 0x2349 JUMP JUMPDEST SWAP3 POP PUSH2 0x1D19 DUP3 PUSH2 0x22F3 JUMP JUMPDEST DUP1 PUSH1 0x0 JUMPDEST DUP4 DUP2 LT ISZERO PUSH2 0x1D4A JUMPI DUP2 MLOAD PUSH2 0x1D31 DUP8 DUP3 PUSH2 0x1C67 JUMP JUMPDEST SWAP7 POP PUSH2 0x1D3C DUP4 PUSH2 0x232B JUMP JUMPDEST SWAP3 POP POP PUSH1 0x1 DUP2 ADD SWAP1 POP PUSH2 0x1D1D JUMP JUMPDEST POP POP POP POP POP POP JUMP JUMPDEST PUSH2 0x1D5B DUP2 PUSH2 0x2443 JUMP JUMPDEST DUP3 MSTORE POP POP JUMP JUMPDEST PUSH2 0x1D6A DUP2 PUSH2 0x2443 JUMP JUMPDEST DUP3 MSTORE POP POP JUMP JUMPDEST PUSH2 0x1D79 DUP2 PUSH2 0x244F JUMP JUMPDEST DUP3 MSTORE POP POP JUMP JUMPDEST PUSH1 0x0 PUSH2 0x1D8A DUP3 PUSH2 0x2313 JUMP JUMPDEST PUSH2 0x1D94 DUP2 DUP6 PUSH2 0x2354 JUMP JUMPDEST SWAP4 POP PUSH2 0x1DA4 DUP2 DUP6 PUSH1 0x20 DUP7 ADD PUSH2 0x24BE JUMP JUMPDEST PUSH2 0x1DAD DUP2 PUSH2 0x269C JUMP JUMPDEST DUP5 ADD SWAP2 POP POP SWAP3 SWAP2 POP POP JUMP JUMPDEST PUSH1 0x0 PUSH2 0x1DC3 DUP3 PUSH2 0x2313 JUMP JUMPDEST PUSH2 0x1DCD DUP2 DUP6 PUSH2 0x2365 JUMP JUMPDEST SWAP4 POP PUSH2 0x1DDD DUP2 DUP6 PUSH1 0x20 DUP7 ADD PUSH2 0x24BE JUMP JUMPDEST PUSH2 0x1DE6 DUP2 PUSH2 0x269C JUMP JUMPDEST DUP5 ADD SWAP2 POP POP SWAP3 SWAP2 POP POP JUMP JUMPDEST PUSH1 0x0 PUSH2 0x1DFC DUP3 PUSH2 0x2313 JUMP JUMPDEST PUSH2 0x1E06 DUP2 DUP6 PUSH2 0x2376 JUMP JUMPDEST SWAP4 POP PUSH2 0x1E16 DUP2 DUP6 PUSH1 0x20 DUP7 ADD PUSH2 0x24BE JUMP JUMPDEST DUP1 DUP5 ADD SWAP2 POP POP SWAP3 SWAP2 POP POP JUMP JUMPDEST PUSH1 0x0 PUSH2 0x1E2F PUSH1 0x20 DUP4 PUSH2 0x2365 JUMP JUMPDEST SWAP2 POP PUSH2 0x1E3A DUP3 PUSH2 0x26AD JUMP JUMPDEST PUSH1 0x20 DUP3 ADD SWAP1 POP SWAP2 SWAP1 POP JUMP JUMPDEST PUSH1 0x0 PUSH2 0x1E52 PUSH1 0x26 DUP4 PUSH2 0x2365 JUMP JUMPDEST SWAP2 POP PUSH2 0x1E5D DUP3 PUSH2 0x26D6 JUMP JUMPDEST PUSH1 0x40 DUP3 ADD SWAP1 POP SWAP2 SWAP1 POP JUMP JUMPDEST PUSH1 0x0 PUSH2 0x1E75 PUSH1 0x1F DUP4 PUSH2 0x2365 JUMP JUMPDEST SWAP2 POP PUSH2 0x1E80 DUP3 PUSH2 0x2725 JUMP JUMPDEST PUSH1 0x20 DUP3 ADD SWAP1 POP SWAP2 SWAP1 POP JUMP JUMPDEST PUSH1 0x0 PUSH2 0x1E98 PUSH1 0x20 DUP4 PUSH2 0x2365 JUMP JUMPDEST SWAP2 POP PUSH2 0x1EA3 DUP3 PUSH2 0x274E JUMP JUMPDEST PUSH1 0x20 DUP3 ADD SWAP1 POP SWAP2 SWAP1 POP JUMP JUMPDEST PUSH1 0x0 PUSH2 0x1EBB PUSH1 0x15 DUP4 PUSH2 0x2365 JUMP JUMPDEST SWAP2 POP PUSH2 0x1EC6 DUP3 PUSH2 0x2777 JUMP JUMPDEST PUSH1 0x20 DUP3 ADD SWAP1 POP SWAP2 SWAP1 POP JUMP JUMPDEST PUSH1 0x0 PUSH2 0x1EDE PUSH1 0x17 DUP4 PUSH2 0x2376 JUMP JUMPDEST SWAP2 POP PUSH2 0x1EE9 DUP3 PUSH2 0x27A0 JUMP JUMPDEST PUSH1 0x17 DUP3 ADD SWAP1 POP SWAP2 SWAP1 POP JUMP JUMPDEST PUSH1 0x0 PUSH2 0x1F01 PUSH1 0x11 DUP4 PUSH2 0x2376 JUMP JUMPDEST SWAP2 POP PUSH2 0x1F0C DUP3 PUSH2 0x27C9 JUMP JUMPDEST PUSH1 0x11 DUP3 ADD SWAP1 POP SWAP2 SWAP1 POP JUMP JUMPDEST PUSH1 0x0 PUSH2 0x1F24 PUSH1 0x2F DUP4 PUSH2 0x2365 JUMP JUMPDEST SWAP2 POP PUSH2 0x1F2F DUP3 PUSH2 0x27F2 JUMP JUMPDEST PUSH1 0x40 DUP3 ADD SWAP1 POP SWAP2 SWAP1 POP JUMP JUMPDEST PUSH1 0x0 PUSH1 0x60 DUP4 ADD PUSH1 0x0 DUP4 ADD MLOAD DUP5 DUP3 SUB PUSH1 0x0 DUP7 ADD MSTORE PUSH2 0x1F57 DUP3 DUP3 PUSH2 0x1D7F JUMP JUMPDEST SWAP2 POP POP PUSH1 0x20 DUP4 ADD MLOAD PUSH2 0x1F6C PUSH1 0x20 DUP7 ADD DUP3 PUSH2 0x1C7F JUMP JUMPDEST POP PUSH1 0x40 DUP4 ADD MLOAD DUP5 DUP3 SUB PUSH1 0x40 DUP7 ADD MSTORE PUSH2 0x1F84 DUP3 DUP3 PUSH2 0x1D7F JUMP JUMPDEST SWAP2 POP POP DUP1 SWAP2 POP POP SWAP3 SWAP2 POP POP JUMP JUMPDEST PUSH1 0x0 PUSH2 0x100 DUP4 ADD PUSH1 0x0 DUP4 ADD MLOAD DUP5 DUP3 SUB PUSH1 0x0 DUP7 ADD MSTORE PUSH2 0x1FAF DUP3 DUP3 PUSH2 0x1C9D JUMP JUMPDEST SWAP2 POP POP PUSH1 0x20 DUP4 ADD MLOAD PUSH2 0x1FC4 PUSH1 0x20 DUP7 ADD DUP3 PUSH2 0x1CFB JUMP JUMPDEST POP PUSH1 0x40 DUP4 ADD MLOAD PUSH2 0x1FD7 PUSH1 0xA0 DUP7 ADD DUP3 PUSH2 0x2008 JUMP JUMPDEST POP PUSH1 0x60 DUP4 ADD MLOAD PUSH2 0x1FEA PUSH1 0xC0 DUP7 ADD DUP3 PUSH2 0x2008 JUMP JUMPDEST POP PUSH1 0x80 DUP4 ADD MLOAD PUSH2 0x1FFD PUSH1 0xE0 DUP7 ADD DUP3 PUSH2 0x1D52 JUMP JUMPDEST POP DUP1 SWAP2 POP POP SWAP3 SWAP2 POP POP JUMP JUMPDEST PUSH2 0x2011 DUP2 PUSH2 0x24A5 JUMP JUMPDEST DUP3 MSTORE POP POP JUMP JUMPDEST PUSH2 0x2020 DUP2 PUSH2 0x24A5 JUMP JUMPDEST DUP3 MSTORE POP POP JUMP JUMPDEST PUSH1 0x0 PUSH2 0x2031 DUP3 PUSH2 0x1ED1 JUMP JUMPDEST SWAP2 POP PUSH2 0x203D DUP3 DUP6 PUSH2 0x1DF1 JUMP JUMPDEST SWAP2 POP PUSH2 0x2048 DUP3 PUSH2 0x1EF4 JUMP JUMPDEST SWAP2 POP PUSH2 0x2054 DUP3 DUP5 PUSH2 0x1DF1 JUMP JUMPDEST SWAP2 POP DUP2 SWAP1 POP SWAP4 SWAP3 POP POP POP JUMP JUMPDEST PUSH1 0x0 PUSH1 0x20 DUP3 ADD SWAP1 POP PUSH2 0x2075 PUSH1 0x0 DUP4 ADD DUP5 PUSH2 0x1C8E JUMP JUMPDEST SWAP3 SWAP2 POP POP JUMP JUMPDEST PUSH1 0x0 PUSH1 0x80 DUP3 ADD SWAP1 POP PUSH2 0x2090 PUSH1 0x0 DUP4 ADD DUP8 PUSH2 0x1C8E JUMP JUMPDEST PUSH2 0x209D PUSH1 0x20 DUP4 ADD DUP7 PUSH2 0x2017 JUMP JUMPDEST PUSH2 0x20AA PUSH1 0x40 DUP4 ADD DUP6 PUSH2 0x2017 JUMP JUMPDEST PUSH2 0x20B7 PUSH1 0x60 DUP4 ADD DUP5 PUSH2 0x1D61 JUMP JUMPDEST SWAP6 SWAP5 POP POP POP POP POP JUMP JUMPDEST PUSH1 0x0 PUSH1 0x20 DUP3 ADD SWAP1 POP PUSH2 0x20D5 PUSH1 0x0 DUP4 ADD DUP5 PUSH2 0x1D61 JUMP JUMPDEST SWAP3 SWAP2 POP POP JUMP JUMPDEST PUSH1 0x0 PUSH1 0x20 DUP3 ADD SWAP1 POP PUSH2 0x20F0 PUSH1 0x0 DUP4 ADD DUP5 PUSH2 0x1D70 JUMP JUMPDEST SWAP3 SWAP2 POP POP JUMP JUMPDEST PUSH1 0x0 PUSH1 0x20 DUP3 ADD SWAP1 POP DUP2 DUP2 SUB PUSH1 0x0 DUP4 ADD MSTORE PUSH2 0x2110 DUP2 DUP5 PUSH2 0x1DB8 JUMP JUMPDEST SWAP1 POP SWAP3 SWAP2 POP POP JUMP JUMPDEST PUSH1 0x0 PUSH1 0x60 DUP3 ADD SWAP1 POP DUP2 DUP2 SUB PUSH1 0x0 DUP4 ADD MSTORE PUSH2 0x2132 DUP2 DUP7 PUSH2 0x1DB8 JUMP JUMPDEST SWAP1 POP PUSH2 0x2141 PUSH1 0x20 DUP4 ADD DUP6 PUSH2 0x1C8E JUMP JUMPDEST DUP2 DUP2 SUB PUSH1 0x40 DUP4 ADD MSTORE PUSH2 0x2153 DUP2 DUP5 PUSH2 0x1DB8 JUMP JUMPDEST SWAP1 POP SWAP5 SWAP4 POP POP POP POP JUMP JUMPDEST PUSH1 0x0 PUSH1 0x20 DUP3 ADD SWAP1 POP DUP2 DUP2 SUB PUSH1 0x0 DUP4 ADD MSTORE PUSH2 0x2176 DUP2 PUSH2 0x1E22 JUMP JUMPDEST SWAP1 POP SWAP2 SWAP1 POP JUMP JUMPDEST PUSH1 0x0 PUSH1 0x20 DUP3 ADD SWAP1 POP DUP2 DUP2 SUB PUSH1 0x0 DUP4 ADD MSTORE PUSH2 0x2196 DUP2 PUSH2 0x1E45 JUMP JUMPDEST SWAP1 POP SWAP2 SWAP1 POP JUMP JUMPDEST PUSH1 0x0 PUSH1 0x20 DUP3 ADD SWAP1 POP DUP2 DUP2 SUB PUSH1 0x0 DUP4 ADD MSTORE PUSH2 0x21B6 DUP2 PUSH2 0x1E68 JUMP JUMPDEST SWAP1 POP SWAP2 SWAP1 POP JUMP JUMPDEST PUSH1 0x0 PUSH1 0x20 DUP3 ADD SWAP1 POP DUP2 DUP2 SUB PUSH1 0x0 DUP4 ADD MSTORE PUSH2 0x21D6 DUP2 PUSH2 0x1E8B JUMP JUMPDEST SWAP1 POP SWAP2 SWAP1 POP JUMP JUMPDEST PUSH1 0x0 PUSH1 0x20 DUP3 ADD SWAP1 POP DUP2 DUP2 SUB PUSH1 0x0 DUP4 ADD MSTORE PUSH2 0x21F6 DUP2 PUSH2 0x1EAE JUMP JUMPDEST SWAP1 POP SWAP2 SWAP1 POP JUMP JUMPDEST PUSH1 0x0 PUSH1 0x20 DUP3 ADD SWAP1 POP DUP2 DUP2 SUB PUSH1 0x0 DUP4 ADD MSTORE PUSH2 0x2216 DUP2 PUSH2 0x1F17 JUMP JUMPDEST SWAP1 POP SWAP2 SWAP1 POP JUMP JUMPDEST PUSH1 0x0 PUSH1 0x20 DUP3 ADD SWAP1 POP DUP2 DUP2 SUB PUSH1 0x0 DUP4 ADD MSTORE PUSH2 0x2237 DUP2 DUP5 PUSH2 0x1F3A JUMP JUMPDEST SWAP1 POP SWAP3 SWAP2 POP POP JUMP JUMPDEST PUSH1 0x0 PUSH1 0x20 DUP3 ADD SWAP1 POP DUP2 DUP2 SUB PUSH1 0x0 DUP4 ADD MSTORE PUSH2 0x2259 DUP2 DUP5 PUSH2 0x1F91 JUMP JUMPDEST SWAP1 POP SWAP3 SWAP2 POP POP JUMP JUMPDEST PUSH1 0x0 PUSH2 0x226B PUSH2 0x227C JUMP JUMPDEST SWAP1 POP PUSH2 0x2277 DUP3 DUP3 PUSH2 0x254D JUMP JUMPDEST SWAP2 SWAP1 POP JUMP JUMPDEST PUSH1 0x0 PUSH1 0x40 MLOAD SWAP1 POP SWAP1 JUMP JUMPDEST PUSH1 0x0 PUSH8 0xFFFFFFFFFFFFFFFF DUP3 GT ISZERO PUSH2 0x22A1 JUMPI PUSH2 0x22A0 PUSH2 0x2654 JUMP JUMPDEST JUMPDEST PUSH1 0x20 DUP3 MUL SWAP1 POP PUSH1 0x20 DUP2 ADD SWAP1 POP SWAP2 SWAP1 POP JUMP JUMPDEST PUSH1 0x0 PUSH8 0xFFFFFFFFFFFFFFFF DUP3 GT ISZERO PUSH2 0x22CD JUMPI PUSH2 0x22CC PUSH2 0x2654 JUMP JUMPDEST JUMPDEST PUSH2 0x22D6 DUP3 PUSH2 0x269C JUMP JUMPDEST SWAP1 POP PUSH1 0x20 DUP2 ADD SWAP1 POP SWAP2 SWAP1 POP JUMP JUMPDEST PUSH1 0x0 DUP2 SWAP1 POP PUSH1 0x20 DUP3 ADD SWAP1 POP SWAP2 SWAP1 POP JUMP JUMPDEST PUSH1 0x0 DUP2 SWAP1 POP SWAP2 SWAP1 POP JUMP JUMPDEST PUSH1 0x0 DUP2 MLOAD SWAP1 POP SWAP2 SWAP1 POP JUMP JUMPDEST PUSH1 0x0 PUSH1 0x4 SWAP1 POP SWAP2 SWAP1 POP JUMP JUMPDEST PUSH1 0x0 DUP2 MLOAD SWAP1 POP SWAP2 SWAP1 POP JUMP JUMPDEST PUSH1 0x0 PUSH1 0x20 DUP3 ADD SWAP1 POP SWAP2 SWAP1 POP JUMP JUMPDEST PUSH1 0x0 PUSH1 0x20 DUP3 ADD SWAP1 POP SWAP2 SWAP1 POP JUMP JUMPDEST PUSH1 0x0 DUP3 DUP3 MSTORE PUSH1 0x20 DUP3 ADD SWAP1 POP SWAP3 SWAP2 POP POP JUMP JUMPDEST PUSH1 0x0 DUP2 SWAP1 POP SWAP3 SWAP2 POP POP JUMP JUMPDEST PUSH1 0x0 DUP3 DUP3 MSTORE PUSH1 0x20 DUP3 ADD SWAP1 POP SWAP3 SWAP2 POP POP JUMP JUMPDEST PUSH1 0x0 DUP3 DUP3 MSTORE PUSH1 0x20 DUP3 ADD SWAP1 POP SWAP3 SWAP2 POP POP JUMP JUMPDEST PUSH1 0x0 DUP2 SWAP1 POP SWAP3 SWAP2 POP POP JUMP JUMPDEST PUSH1 0x0 PUSH2 0x238C DUP3 PUSH2 0x24A5 JUMP JUMPDEST SWAP2 POP PUSH2 0x2397 DUP4 PUSH2 0x24A5 JUMP JUMPDEST SWAP3 POP DUP3 PUSH32 0xFFFFFFFFFFFFFFFFFFFFFFFFFFFFFFFFFFFFFFFFFFFFFFFFFFFFFFFFFFFFFFFF SUB DUP3 GT ISZERO PUSH2 0x23CC JUMPI PUSH2 0x23CB PUSH2 0x25C7 JUMP JUMPDEST JUMPDEST DUP3 DUP3 ADD SWAP1 POP SWAP3 SWAP2 POP POP JUMP JUMPDEST PUSH1 0x0 PUSH2 0x23E2 DUP3 PUSH2 0x24A5 JUMP JUMPDEST SWAP2 POP PUSH2 0x23ED DUP4 PUSH2 0x24A5 JUMP JUMPDEST SWAP3 POP DUP2 PUSH32 0xFFFFFFFFFFFFFFFFFFFFFFFFFFFFFFFFFFFFFFFFFFFFFFFFFFFFFFFFFFFFFFFF DIV DUP4 GT DUP3 ISZERO ISZERO AND ISZERO PUSH2 0x2426 JUMPI PUSH2 0x2425 PUSH2 0x25C7 JUMP JUMPDEST JUMPDEST DUP3 DUP3 MUL SWAP1 POP SWAP3 SWAP2 POP POP JUMP JUMPDEST PUSH1 0x0 PUSH2 0x243C DUP3 PUSH2 0x2485 JUMP JUMPDEST SWAP1 POP SWAP2 SWAP1 POP JUMP JUMPDEST PUSH1 0x0 DUP2 ISZERO ISZERO SWAP1 POP SWAP2 SWAP1 POP JUMP JUMPDEST PUSH1 0x0 DUP2 SWAP1 POP SWAP2 SWAP1 POP JUMP JUMPDEST PUSH1 0x0 PUSH32 0xFFFFFFFF00000000000000000000000000000000000000000000000000000000 DUP3 AND SWAP1 POP SWAP2 SWAP1 POP JUMP JUMPDEST PUSH1 0x0 PUSH20 0xFFFFFFFFFFFFFFFFFFFFFFFFFFFFFFFFFFFFFFFF DUP3 AND SWAP1 POP SWAP2 SWAP1 POP JUMP JUMPDEST PUSH1 0x0 DUP2 SWAP1 POP SWAP2 SWAP1 POP JUMP JUMPDEST DUP3 DUP2 DUP4 CALLDATACOPY PUSH1 0x0 DUP4 DUP4 ADD MSTORE POP POP POP JUMP JUMPDEST PUSH1 0x0 JUMPDEST DUP4 DUP2 LT ISZERO PUSH2 0x24DC JUMPI DUP1 DUP3 ADD MLOAD DUP2 DUP5 ADD MSTORE PUSH1 0x20 DUP2 ADD SWAP1 POP PUSH2 0x24C1 JUMP JUMPDEST DUP4 DUP2 GT ISZERO PUSH2 0x24EB JUMPI PUSH1 0x0 DUP5 DUP5 ADD MSTORE JUMPDEST POP POP POP POP JUMP JUMPDEST PUSH1 0x0 PUSH2 0x24FC DUP3 PUSH2 0x24A5 JUMP JUMPDEST SWAP2 POP PUSH1 0x0 DUP3 EQ ISZERO PUSH2 0x2510 JUMPI PUSH2 0x250F PUSH2 0x25C7 JUMP JUMPDEST JUMPDEST PUSH1 0x1 DUP3 SUB SWAP1 POP SWAP2 SWAP1 POP JUMP JUMPDEST PUSH1 0x0 PUSH1 0x2 DUP3 DIV SWAP1 POP PUSH1 0x1 DUP3 AND DUP1 PUSH2 0x2533 JUMPI PUSH1 0x7F DUP3 AND SWAP2 POP JUMPDEST PUSH1 0x20 DUP3 LT DUP2 EQ ISZERO PUSH2 0x2547 JUMPI PUSH2 0x2546 PUSH2 0x25F6 JUMP JUMPDEST JUMPDEST POP SWAP2 SWAP1 POP JUMP JUMPDEST PUSH2 0x2556 DUP3 PUSH2 0x269C JUMP JUMPDEST DUP2 ADD DUP2 DUP2 LT PUSH8 0xFFFFFFFFFFFFFFFF DUP3 GT OR ISZERO PUSH2 0x2575 JUMPI PUSH2 0x2574 PUSH2 0x2654 JUMP JUMPDEST JUMPDEST DUP1 PUSH1 0x40 MSTORE POP POP POP JUMP JUMPDEST PUSH1 0x0 PUSH2 0x2589 DUP3 PUSH2 0x24A5 JUMP JUMPDEST SWAP2 POP PUSH32 0xFFFFFFFFFFFFFFFFFFFFFFFFFFFFFFFFFFFFFFFFFFFFFFFFFFFFFFFFFFFFFFFF DUP3 EQ ISZERO PUSH2 0x25BC JUMPI PUSH2 0x25BB PUSH2 0x25C7 JUMP JUMPDEST JUMPDEST PUSH1 0x1 DUP3 ADD SWAP1 POP SWAP2 SWAP1 POP JUMP JUMPDEST PUSH32 0x4E487B7100000000000000000000000000000000000000000000000000000000 PUSH1 0x0 MSTORE PUSH1 0x11 PUSH1 0x4 MSTORE PUSH1 0x24 PUSH1 0x0 REVERT JUMPDEST PUSH32 0x4E487B7100000000000000000000000000000000000000000000000000000000 PUSH1 0x0 MSTORE PUSH1 0x22 PUSH1 0x4 MSTORE PUSH1 0x24 PUSH1 0x0 REVERT JUMPDEST PUSH32 0x4E487B7100000000000000000000000000000000000000000000000000000000 PUSH1 0x0 MSTORE PUSH1 0x32 PUSH1 0x4 MSTORE PUSH1 0x24 PUSH1 0x0 REVERT JUMPDEST PUSH32 0x4E487B7100000000000000000000000000000000000000000000000000000000 PUSH1 0x0 MSTORE PUSH1 0x41 PUSH1 0x4 MSTORE PUSH1 0x24 PUSH1 0x0 REVERT JUMPDEST PUSH1 0x0 DUP1 REVERT JUMPDEST PUSH1 0x0 DUP1 REVERT JUMPDEST PUSH1 0x0 DUP1 REVERT JUMPDEST PUSH1 0x0 DUP1 REVERT JUMPDEST PUSH1 0x0 DUP1 REVERT JUMPDEST PUSH1 0x0 PUSH1 0x1F NOT PUSH1 0x1F DUP4 ADD AND SWAP1 POP SWAP2 SWAP1 POP JUMP JUMPDEST PUSH32 0x537472696E67733A20686578206C656E67746820696E73756666696369656E74 PUSH1 0x0 DUP3 ADD MSTORE POP JUMP JUMPDEST PUSH32 0x4F776E61626C653A206E6577206F776E657220697320746865207A65726F2061 PUSH1 0x0 DUP3 ADD MSTORE PUSH32 0x6464726573730000000000000000000000000000000000000000000000000000 PUSH1 0x20 DUP3 ADD MSTORE POP JUMP JUMPDEST PUSH32 0x43616C6C6572206973206E6F7420616E20494E45432065786563757469766500 PUSH1 0x0 DUP3 ADD MSTORE POP JUMP JUMPDEST PUSH32 0x4F776E61626C653A2063616C6C6572206973206E6F7420746865206F776E6572 PUSH1 0x0 DUP3 ADD MSTORE POP JUMP JUMPDEST PUSH32 0x43616C6C6572206973206E6F74206120566F7465720000000000000000000000 PUSH1 0x0 DUP3 ADD MSTORE POP JUMP JUMPDEST PUSH32 0x416363657373436F6E74726F6C3A206163636F756E7420000000000000000000 PUSH1 0x0 DUP3 ADD MSTORE POP JUMP JUMPDEST PUSH32 0x206973206D697373696E6720726F6C6520000000000000000000000000000000 PUSH1 0x0 DUP3 ADD MSTORE POP JUMP JUMPDEST PUSH32 0x416363657373436F6E74726F6C3A2063616E206F6E6C792072656E6F756E6365 PUSH1 0x0 DUP3 ADD MSTORE PUSH32 0x20726F6C657320666F722073656C660000000000000000000000000000000000 PUSH1 0x20 DUP3 ADD MSTORE POP JUMP JUMPDEST PUSH2 0x284A DUP2 PUSH2 0x2431 JUMP JUMPDEST DUP2 EQ PUSH2 0x2855 JUMPI PUSH1 0x0 DUP1 REVERT JUMPDEST POP JUMP JUMPDEST PUSH2 0x2861 DUP2 PUSH2 0x244F JUMP JUMPDEST DUP2 EQ PUSH2 0x286C JUMPI PUSH1 0x0 DUP1 REVERT JUMPDEST POP JUMP JUMPDEST PUSH2 0x2878 DUP2 PUSH2 0x2459 JUMP JUMPDEST DUP2 EQ PUSH2 0x2883 JUMPI PUSH1 0x0 DUP1 REVERT JUMPDEST POP JUMP JUMPDEST PUSH2 0x288F DUP2 PUSH2 0x24A5 JUMP JUMPDEST DUP2 EQ PUSH2 0x289A JUMPI PUSH1 0x0 DUP1 REVERT JUMPDEST POP JUMP INVALID LOG2 PUSH5 0x6970667358 0x22 SLT KECCAK256 0xD1 PUSH31 0x93F0A3C25E9086F29699AD08148BB495FBD91643CD978798C9346D62ABD264 PUSH20 0x6F6C634300080700330000000000000000000000 "
				},
				"gasEstimates": {
					"creation": {
						"codeDepositCost": "2090200",
						"executionCost": "infinite",
						"totalCost": "infinite"
					},
					"external": {
						"Candidates(uint256)": "infinite",
						"DEFAULT_ADMIN_ROLE()": "446",
						"INEC_EXEC_ROLE()": "419",
						"VOTER_ROLE()": "351",
						"Voters(uint256)": "infinite",
						"Voting(uint256,uint256)": "infinite",
						"createCandidate(string,address,uint256)": "infinite",
						"createElection(address[],uint256,uint256)": "infinite",
						"createInecExec(address)": "infinite",
						"getElection(uint256)": "infinite",
						"getRoleAdmin(bytes32)": "infinite",
						"grantRole(bytes32,address)": "infinite",
						"hasRole(bytes32,address)": "3163",
						"owner()": "2655",
						"party(uint256)": "infinite",
						"regVoter(uint256)": "80082",
						"renounceOwnership()": "30509",
						"renounceRole(bytes32,address)": "infinite",
						"retrieveCandidate(uint256)": "infinite",
						"revokeRole(bytes32,address)": "infinite",
						"supportsInterface(bytes4)": "751",
						"transferOwnership(address)": "30879"
					}
				},
				"methodIdentifiers": {
					"Candidates(uint256)": "290e9212",
					"DEFAULT_ADMIN_ROLE()": "a217fddf",
					"INEC_EXEC_ROLE()": "2e0d37bb",
					"VOTER_ROLE()": "a94015c8",
					"Voters(uint256)": "9c35d98b",
					"Voting(uint256,uint256)": "3ec9ae35",
					"createCandidate(string,address,uint256)": "d59d2a58",
					"createElection(address[],uint256,uint256)": "4f05dba8",
					"createInecExec(address)": "dfd8459e",
					"getElection(uint256)": "9d710777",
					"getRoleAdmin(bytes32)": "248a9ca3",
					"grantRole(bytes32,address)": "2f2ff15d",
					"hasRole(bytes32,address)": "91d14854",
					"owner()": "8da5cb5b",
					"party(uint256)": "314fd68f",
					"regVoter(uint256)": "d9d55ba0",
					"renounceOwnership()": "715018a6",
					"renounceRole(bytes32,address)": "36568abe",
					"retrieveCandidate(uint256)": "9e5f0349",
					"revokeRole(bytes32,address)": "d547741f",
					"supportsInterface(bytes4)": "01ffc9a7",
					"transferOwnership(address)": "f2fde38b"
				}
			},
			"storageLayout": {
				"storage": [
					{
						"astId": 400,
						"contract": "contracts/Vote.sol:Vote",
						"label": "_owner",
						"offset": 0,
						"slot": "0",
						"type": "t_address"
					},
					{
						"astId": 24,
						"contract": "contracts/Vote.sol:Vote",
						"label": "_roles",
						"offset": 0,
						"slot": "1",
						"type": "t_mapping(t_bytes32,t_struct(RoleData)19_storage)"
					},
					{
						"astId": 800,
						"contract": "contracts/Vote.sol:Vote",
						"label": "voteFee",
						"offset": 0,
						"slot": "2",
						"type": "t_uint256"
					},
					{
						"astId": 802,
						"contract": "contracts/Vote.sol:Vote",
						"label": "candidateNum",
						"offset": 0,
						"slot": "3",
						"type": "t_uint256"
					},
					{
						"astId": 804,
						"contract": "contracts/Vote.sol:Vote",
						"label": "voterNum",
						"offset": 0,
						"slot": "4",
						"type": "t_uint256"
					},
					{
						"astId": 806,
						"contract": "contracts/Vote.sol:Vote",
						"label": "electionNum",
						"offset": 0,
						"slot": "5",
						"type": "t_uint256"
					},
					{
						"astId": 814,
						"contract": "contracts/Vote.sol:Vote",
						"label": "party",
						"offset": 0,
						"slot": "6",
						"type": "t_array(t_string_storage)dyn_storage"
					},
					{
						"astId": 859,
						"contract": "contracts/Vote.sol:Vote",
						"label": "Candidates",
						"offset": 0,
						"slot": "7",
						"type": "t_mapping(t_uint256,t_struct(candidate)831_storage)"
					},
					{
						"astId": 864,
						"contract": "contracts/Vote.sol:Vote",
						"label": "Voters",
						"offset": 0,
						"slot": "8",
						"type": "t_mapping(t_uint256,t_struct(voter)840_storage)"
					},
					{
						"astId": 869,
						"contract": "contracts/Vote.sol:Vote",
						"label": "Elections",
						"offset": 0,
						"slot": "9",
						"type": "t_mapping(t_uint256,t_struct(election)854_storage)"
					}
				],
				"types": {
					"t_address": {
						"encoding": "inplace",
						"label": "address",
						"numberOfBytes": "20"
					},
					"t_array(t_address)dyn_storage": {
						"base": "t_address",
						"encoding": "dynamic_array",
						"label": "address[]",
						"numberOfBytes": "32"
					},
					"t_array(t_string_storage)dyn_storage": {
						"base": "t_string_storage",
						"encoding": "dynamic_array",
						"label": "string[]",
						"numberOfBytes": "32"
					},
					"t_array(t_uint256)4_storage": {
						"base": "t_uint256",
						"encoding": "inplace",
						"label": "uint256[4]",
						"numberOfBytes": "128"
					},
					"t_bool": {
						"encoding": "inplace",
						"label": "bool",
						"numberOfBytes": "1"
					},
					"t_bytes32": {
						"encoding": "inplace",
						"label": "bytes32",
						"numberOfBytes": "32"
					},
					"t_mapping(t_address,t_bool)": {
						"encoding": "mapping",
						"key": "t_address",
						"label": "mapping(address => bool)",
						"numberOfBytes": "32",
						"value": "t_bool"
					},
					"t_mapping(t_bytes32,t_struct(RoleData)19_storage)": {
						"encoding": "mapping",
						"key": "t_bytes32",
						"label": "mapping(bytes32 => struct AccessControl.RoleData)",
						"numberOfBytes": "32",
						"value": "t_struct(RoleData)19_storage"
					},
					"t_mapping(t_uint256,t_struct(candidate)831_storage)": {
						"encoding": "mapping",
						"key": "t_uint256",
						"label": "mapping(uint256 => struct Vote.candidate)",
						"numberOfBytes": "32",
						"value": "t_struct(candidate)831_storage"
					},
					"t_mapping(t_uint256,t_struct(election)854_storage)": {
						"encoding": "mapping",
						"key": "t_uint256",
						"label": "mapping(uint256 => struct Vote.election)",
						"numberOfBytes": "32",
						"value": "t_struct(election)854_storage"
					},
					"t_mapping(t_uint256,t_struct(voter)840_storage)": {
						"encoding": "mapping",
						"key": "t_uint256",
						"label": "mapping(uint256 => struct Vote.voter)",
						"numberOfBytes": "32",
						"value": "t_struct(voter)840_storage"
					},
					"t_string_storage": {
						"encoding": "bytes",
						"label": "string",
						"numberOfBytes": "32"
					},
					"t_struct(RoleData)19_storage": {
						"encoding": "inplace",
						"label": "struct AccessControl.RoleData",
						"members": [
							{
								"astId": 16,
								"contract": "contracts/Vote.sol:Vote",
								"label": "members",
								"offset": 0,
								"slot": "0",
								"type": "t_mapping(t_address,t_bool)"
							},
							{
								"astId": 18,
								"contract": "contracts/Vote.sol:Vote",
								"label": "adminRole",
								"offset": 0,
								"slot": "1",
								"type": "t_bytes32"
							}
						],
						"numberOfBytes": "64"
					},
					"t_struct(candidate)831_storage": {
						"encoding": "inplace",
						"label": "struct Vote.candidate",
						"members": [
							{
								"astId": 826,
								"contract": "contracts/Vote.sol:Vote",
								"label": "name",
								"offset": 0,
								"slot": "0",
								"type": "t_string_storage"
							},
							{
								"astId": 828,
								"contract": "contracts/Vote.sol:Vote",
								"label": "addr",
								"offset": 0,
								"slot": "1",
								"type": "t_address"
							},
							{
								"astId": 830,
								"contract": "contracts/Vote.sol:Vote",
								"label": "party",
								"offset": 0,
								"slot": "2",
								"type": "t_string_storage"
							}
						],
						"numberOfBytes": "96"
					},
					"t_struct(election)854_storage": {
						"encoding": "inplace",
						"label": "struct Vote.election",
						"members": [
							{
								"astId": 843,
								"contract": "contracts/Vote.sol:Vote",
								"label": "candidate",
								"offset": 0,
								"slot": "0",
								"type": "t_array(t_address)dyn_storage"
							},
							{
								"astId": 847,
								"contract": "contracts/Vote.sol:Vote",
								"label": "candidateVote",
								"offset": 0,
								"slot": "1",
								"type": "t_array(t_uint256)4_storage"
							},
							{
								"astId": 849,
								"contract": "contracts/Vote.sol:Vote",
								"label": "start",
								"offset": 0,
								"slot": "5",
								"type": "t_uint256"
							},
							{
								"astId": 851,
								"contract": "contracts/Vote.sol:Vote",
								"label": "duration",
								"offset": 0,
								"slot": "6",
								"type": "t_uint256"
							},
							{
								"astId": 853,
								"contract": "contracts/Vote.sol:Vote",
								"label": "hasEnded",
								"offset": 0,
								"slot": "7",
								"type": "t_bool"
							}
						],
						"numberOfBytes": "256"
					},
					"t_struct(voter)840_storage": {
						"encoding": "inplace",
						"label": "struct Vote.voter",
						"members": [
							{
								"astId": 833,
								"contract": "contracts/Vote.sol:Vote",
								"label": "addr",
								"offset": 0,
								"slot": "0",
								"type": "t_address"
							},
							{
								"astId": 835,
								"contract": "contracts/Vote.sol:Vote",
								"label": "nin",
								"offset": 0,
								"slot": "1",
								"type": "t_uint256"
							},
							{
								"astId": 837,
								"contract": "contracts/Vote.sol:Vote",
								"label": "partyNum",
								"offset": 0,
								"slot": "2",
								"type": "t_uint256"
							},
							{
								"astId": 839,
								"contract": "contracts/Vote.sol:Vote",
								"label": "hasVoted",
								"offset": 0,
								"slot": "3",
								"type": "t_bool"
							}
						],
						"numberOfBytes": "128"
					},
					"t_uint256": {
						"encoding": "inplace",
						"label": "uint256",
						"numberOfBytes": "32"
					}
				}
			},
			"userdoc": {
				"kind": "user",
				"methods": {},
				"version": 1
			}
		}
	}
}