{
	"contracts/Vote.sol": {
		"Vote": {
			"abi": [
				{
					"inputs": [],
					"stateMutability": "nonpayable",
					"type": "constructor"
				},
				{
					"anonymous": false,
					"inputs": [
						{
							"indexed": true,
							"internalType": "address",
							"name": "previousOwner",
							"type": "address"
						},
						{
							"indexed": true,
							"internalType": "address",
							"name": "newOwner",
							"type": "address"
						}
					],
					"name": "OwnershipTransferred",
					"type": "event"
				},
				{
					"anonymous": false,
					"inputs": [
						{
							"indexed": true,
							"internalType": "bytes32",
							"name": "role",
							"type": "bytes32"
						},
						{
							"indexed": true,
							"internalType": "bytes32",
							"name": "previousAdminRole",
							"type": "bytes32"
						},
						{
							"indexed": true,
							"internalType": "bytes32",
							"name": "newAdminRole",
							"type": "bytes32"
						}
					],
					"name": "RoleAdminChanged",
					"type": "event"
				},
				{
					"anonymous": false,
					"inputs": [
						{
							"indexed": true,
							"internalType": "bytes32",
							"name": "role",
							"type": "bytes32"
						},
						{
							"indexed": true,
							"internalType": "address",
							"name": "account",
							"type": "address"
						},
						{
							"indexed": true,
							"internalType": "address",
							"name": "sender",
							"type": "address"
						}
					],
					"name": "RoleGranted",
					"type": "event"
				},
				{
					"anonymous": false,
					"inputs": [
						{
							"indexed": true,
							"internalType": "bytes32",
							"name": "role",
							"type": "bytes32"
						},
						{
							"indexed": true,
							"internalType": "address",
							"name": "account",
							"type": "address"
						},
						{
							"indexed": true,
							"internalType": "address",
							"name": "sender",
							"type": "address"
						}
					],
					"name": "RoleRevoked",
					"type": "event"
				},
				{
					"inputs": [
						{
							"internalType": "uint256",
							"name": "",
							"type": "uint256"
						}
					],
					"name": "Candidates",
					"outputs": [
						{
							"internalType": "string",
							"name": "name",
							"type": "string"
						},
						{
							"internalType": "address",
							"name": "addr",
							"type": "address"
						},
						{
							"internalType": "string",
							"name": "party",
							"type": "string"
						}
					],
					"stateMutability": "view",
					"type": "function"
				},
				{
					"inputs": [],
					"name": "DEFAULT_ADMIN_ROLE",
					"outputs": [
						{
							"internalType": "bytes32",
							"name": "",
							"type": "bytes32"
						}
					],
					"stateMutability": "view",
					"type": "function"
				},
				{
					"inputs": [],
					"name": "INEC_EXEC_ROLE",
					"outputs": [
						{
							"internalType": "bytes32",
							"name": "",
							"type": "bytes32"
						}
					],
					"stateMutability": "view",
					"type": "function"
				},
				{
					"inputs": [],
					"name": "VOTER_ROLE",
					"outputs": [
						{
							"internalType": "bytes32",
							"name": "",
							"type": "bytes32"
						}
					],
					"stateMutability": "view",
					"type": "function"
				},
				{
					"inputs": [
						{
							"internalType": "uint256",
							"name": "",
							"type": "uint256"
						}
					],
					"name": "Voters",
					"outputs": [
						{
							"internalType": "address",
							"name": "addr",
							"type": "address"
						},
						{
							"internalType": "uint256",
							"name": "nin",
							"type": "uint256"
						},
						{
							"internalType": "uint256",
							"name": "partyNum",
							"type": "uint256"
						},
						{
							"internalType": "bool",
							"name": "hasVoted",
							"type": "bool"
						}
					],
					"stateMutability": "view",
					"type": "function"
				},
				{
					"inputs": [
						{
							"internalType": "string",
							"name": "name",
							"type": "string"
						},
						{
							"internalType": "address",
							"name": "candAddress",
							"type": "address"
						},
						{
							"internalType": "uint256",
							"name": "partyNum",
							"type": "uint256"
						}
					],
					"name": "createCandidate",
					"outputs": [],
					"stateMutability": "nonpayable",
					"type": "function"
				},
				{
					"inputs": [
						{
							"internalType": "address[]",
							"name": "_candidateNum",
							"type": "address[]"
						},
						{
							"internalType": "uint256",
							"name": "_date",
							"type": "uint256"
						},
						{
							"internalType": "uint256",
							"name": "_duration",
							"type": "uint256"
						}
					],
					"name": "createElection",
					"outputs": [],
					"stateMutability": "nonpayable",
					"type": "function"
				},
				{
					"inputs": [
						{
							"internalType": "address",
							"name": "_account",
							"type": "address"
						}
					],
					"name": "createInecExec",
					"outputs": [],
					"stateMutability": "nonpayable",
					"type": "function"
				},
				{
					"inputs": [
						{
							"internalType": "uint256",
							"name": "num",
							"type": "uint256"
						}
					],
					"name": "getElection",
					"outputs": [
						{
							"components": [
								{
									"internalType": "address[]",
									"name": "candidate",
									"type": "address[]"
								},
								{
									"internalType": "uint256[]",
									"name": "candidateVote",
									"type": "uint256[]"
								},
								{
									"internalType": "uint256",
									"name": "start",
									"type": "uint256"
								},
								{
									"internalType": "uint256",
									"name": "duration",
									"type": "uint256"
								},
								{
									"internalType": "bool",
									"name": "hasEnded",
									"type": "bool"
								}
							],
							"internalType": "struct Vote.election",
							"name": "",
							"type": "tuple"
						}
					],
					"stateMutability": "view",
					"type": "function"
				},
				{
					"inputs": [
						{
							"internalType": "bytes32",
							"name": "role",
							"type": "bytes32"
						}
					],
					"name": "getRoleAdmin",
					"outputs": [
						{
							"internalType": "bytes32",
							"name": "",
							"type": "bytes32"
						}
					],
					"stateMutability": "view",
					"type": "function"
				},
				{
					"inputs": [
						{
							"internalType": "bytes32",
							"name": "role",
							"type": "bytes32"
						},
						{
							"internalType": "address",
							"name": "account",
							"type": "address"
						}
					],
					"name": "grantRole",
					"outputs": [],
					"stateMutability": "nonpayable",
					"type": "function"
				},
				{
					"inputs": [
						{
							"internalType": "bytes32",
							"name": "role",
							"type": "bytes32"
						},
						{
							"internalType": "address",
							"name": "account",
							"type": "address"
						}
					],
					"name": "hasRole",
					"outputs": [
						{
							"internalType": "bool",
							"name": "",
							"type": "bool"
						}
					],
					"stateMutability": "view",
					"type": "function"
				},
				{
					"inputs": [],
					"name": "owner",
					"outputs": [
						{
							"internalType": "address",
							"name": "",
							"type": "address"
						}
					],
					"stateMutability": "view",
					"type": "function"
				},
				{
					"inputs": [
						{
							"internalType": "uint256",
							"name": "",
							"type": "uint256"
						}
					],
					"name": "party",
					"outputs": [
						{
							"internalType": "string",
							"name": "",
							"type": "string"
						}
					],
					"stateMutability": "view",
					"type": "function"
				},
				{
					"inputs": [
						{
							"internalType": "address",
							"name": "_account",
							"type": "address"
						},
						{
							"internalType": "uint256",
							"name": "_nin",
							"type": "uint256"
						}
					],
					"name": "regVoter",
					"outputs": [],
					"stateMutability": "nonpayable",
					"type": "function"
				},
				{
					"inputs": [],
					"name": "renounceOwnership",
					"outputs": [],
					"stateMutability": "nonpayable",
					"type": "function"
				},
				{
					"inputs": [
						{
							"internalType": "bytes32",
							"name": "role",
							"type": "bytes32"
						},
						{
							"internalType": "address",
							"name": "account",
							"type": "address"
						}
					],
					"name": "renounceRole",
					"outputs": [],
					"stateMutability": "nonpayable",
					"type": "function"
				},
				{
					"inputs": [
						{
							"internalType": "uint256",
							"name": "num",
							"type": "uint256"
						}
					],
					"name": "retrieveCandidate",
					"outputs": [
						{
							"components": [
								{
									"internalType": "string",
									"name": "name",
									"type": "string"
								},
								{
									"internalType": "address",
									"name": "addr",
									"type": "address"
								},
								{
									"internalType": "string",
									"name": "party",
									"type": "string"
								}
							],
							"internalType": "struct Vote.candidate",
							"name": "",
							"type": "tuple"
						}
					],
					"stateMutability": "view",
					"type": "function"
				},
				{
					"inputs": [
						{
							"internalType": "bytes32",
							"name": "role",
							"type": "bytes32"
						},
						{
							"internalType": "address",
							"name": "account",
							"type": "address"
						}
					],
					"name": "revokeRole",
					"outputs": [],
					"stateMutability": "nonpayable",
					"type": "function"
				},
				{
					"inputs": [
						{
							"internalType": "bytes4",
							"name": "interfaceId",
							"type": "bytes4"
						}
					],
					"name": "supportsInterface",
					"outputs": [
						{
							"internalType": "bool",
							"name": "",
							"type": "bool"
						}
					],
					"stateMutability": "view",
					"type": "function"
				},
				{
					"inputs": [
						{
							"internalType": "address",
							"name": "newOwner",
							"type": "address"
						}
					],
					"name": "transferOwnership",
					"outputs": [],
					"stateMutability": "nonpayable",
					"type": "function"
				}
			],
			"devdoc": {
				"custom:dev-run-script": "./scripts/deploy_with_ethers.ts",
				"details": "Store & retrieve value in a variable",
				"kind": "dev",
				"methods": {
					"createCandidate(string,address,uint256)": {
						"details": "Store value in variable",
						"params": {
							"candAddress": "value for candidate Address",
							"name": "value for candidate name",
							"partyNum": "value for candidate party"
						}
					},
					"createElection(address[],uint256,uint256)": {
						"details": "registers a voter",
						"params": {
							"_candidateNum": "is an arrat of candidates, _nin is the voters identifier'"
						}
					},
					"createInecExec(address)": {
						"details": "Grant INEC executive role to an address ",
						"params": {
							"_account": "value for the role'"
						}
					},
					"getElection(uint256)": {
						"details": "Return value ",
						"returns": {
							"_0": "value of 'struct'"
						}
					},
					"getRoleAdmin(bytes32)": {
						"details": "Returns the admin role that controls `role`. See {grantRole} and {revokeRole}. To change a role's admin, use {_setRoleAdmin}."
					},
					"grantRole(bytes32,address)": {
						"details": "Grants `role` to `account`. If `account` had not been already granted `role`, emits a {RoleGranted} event. Requirements: - the caller must have ``role``'s admin role. May emit a {RoleGranted} event."
					},
					"hasRole(bytes32,address)": {
						"details": "Returns `true` if `account` has been granted `role`."
					},
					"owner()": {
						"details": "Returns the address of the current owner."
					},
					"regVoter(address,uint256)": {
						"details": "registers a voter",
						"params": {
							"_account": "address of voter, _nin is the voters identifier'"
						}
					},
					"renounceOwnership()": {
						"details": "Leaves the contract without owner. It will not be possible to call `onlyOwner` functions anymore. Can only be called by the current owner. NOTE: Renouncing ownership will leave the contract without an owner, thereby removing any functionality that is only available to the owner."
					},
					"renounceRole(bytes32,address)": {
						"details": "Revokes `role` from the calling account. Roles are often managed via {grantRole} and {revokeRole}: this function's purpose is to provide a mechanism for accounts to lose their privileges if they are compromised (such as when a trusted device is misplaced). If the calling account had been revoked `role`, emits a {RoleRevoked} event. Requirements: - the caller must be `account`. May emit a {RoleRevoked} event."
					},
					"retrieveCandidate(uint256)": {
						"details": "Return value ",
						"returns": {
							"_0": "value of 'struct'"
						}
					},
					"revokeRole(bytes32,address)": {
						"details": "Revokes `role` from `account`. If `account` had been granted `role`, emits a {RoleRevoked} event. Requirements: - the caller must have ``role``'s admin role. May emit a {RoleRevoked} event."
					},
					"supportsInterface(bytes4)": {
						"details": "See {IERC165-supportsInterface}."
					},
					"transferOwnership(address)": {
						"details": "Transfers ownership of the contract to a new account (`newOwner`). Can only be called by the current owner."
					}
				},
				"title": "Storage",
				"version": 1
			},
			"evm": {
				"assembly": "    /* \"contracts/Vote.sol\":311:3835  contract Vote is Ownable, AccessControl {... */\n  mstore(0x40, 0x80)\n    /* \"contracts/Vote.sol\":457:510  string [] public party = [\"APC\", \"PDP\", \"LP\", \"NNPP\"] */\n  mload(0x40)\n  dup1\n  0x80\n  add\n  0x40\n  mstore\n  dup1\n  mload(0x40)\n  dup1\n  0x40\n  add\n  0x40\n  mstore\n  dup1\n  0x03\n  dup2\n  mstore\n  0x20\n  add\n  0x4150430000000000000000000000000000000000000000000000000000000000\n  dup2\n  mstore\n  pop\n  dup2\n  mstore\n  0x20\n  add\n  mload(0x40)\n  dup1\n  0x40\n  add\n  0x40\n  mstore\n  dup1\n  0x03\n  dup2\n  mstore\n  0x20\n  add\n  0x5044500000000000000000000000000000000000000000000000000000000000\n  dup2\n  mstore\n  pop\n  dup2\n  mstore\n  0x20\n  add\n  mload(0x40)\n  dup1\n  0x40\n  add\n  0x40\n  mstore\n  dup1\n  0x02\n  dup2\n  mstore\n  0x20\n  add\n  0x4c50000000000000000000000000000000000000000000000000000000000000\n  dup2\n  mstore\n  pop\n  dup2\n  mstore\n  0x20\n  add\n  mload(0x40)\n  dup1\n  0x40\n  add\n  0x40\n  mstore\n  dup1\n  0x04\n  dup2\n  mstore\n  0x20\n  add\n  0x4e4e505000000000000000000000000000000000000000000000000000000000\n  dup2\n  mstore\n  pop\n  dup2\n  mstore\n  pop\n  0x06\n  swap1\n  0x04\n  tag_1\n  swap3\n  swap2\n  swap1\n  tag_2\n  jump\t// in\ntag_1:\n  pop\n    /* \"contracts/Vote.sol\":1616:1809  constructor() {... */\n  callvalue\n  dup1\n  iszero\n  tag_3\n  jumpi\n  0x00\n  dup1\n  revert\ntag_3:\n  pop\n    /* \"@openzeppelin/contracts/access/Ownable.sol\":936:968  _transferOwnership(_msgSender()) */\n  tag_7\n    /* \"@openzeppelin/contracts/access/Ownable.sol\":955:967  _msgSender() */\n  tag_8\n    /* \"@openzeppelin/contracts/access/Ownable.sol\":955:965  _msgSender */\n  shl(0x20, tag_9)\n    /* \"@openzeppelin/contracts/access/Ownable.sol\":955:967  _msgSender() */\n  0x20\n  shr\n  jump\t// in\ntag_8:\n    /* \"@openzeppelin/contracts/access/Ownable.sol\":936:954  _transferOwnership */\n  shl(0x20, tag_10)\n    /* \"@openzeppelin/contracts/access/Ownable.sol\":936:968  _transferOwnership(_msgSender()) */\n  0x20\n  shr\n  jump\t// in\ntag_7:\n    /* \"contracts/Vote.sol\":1760:1802  _setupRole(DEFAULT_ADMIN_ROLE, msg.sender) */\n  tag_12\n    /* \"@openzeppelin/contracts/access/AccessControl.sol\":2072:2076  0x00 */\n  0x00\n    /* \"contracts/Vote.sol\":1771:1789  DEFAULT_ADMIN_ROLE */\n  dup1\n  shl\n    /* \"contracts/Vote.sol\":1791:1801  msg.sender */\n  caller\n    /* \"contracts/Vote.sol\":1760:1770  _setupRole */\n  shl(0x20, tag_13)\n    /* \"contracts/Vote.sol\":1760:1802  _setupRole(DEFAULT_ADMIN_ROLE, msg.sender) */\n  0x20\n  shr\n  jump\t// in\ntag_12:\n    /* \"contracts/Vote.sol\":311:3835  contract Vote is Ownable, AccessControl {... */\n  jump(tag_14)\n    /* \"@openzeppelin/contracts/utils/Context.sol\":640:736  function _msgSender() internal view virtual returns (address) {... */\ntag_9:\n    /* \"@openzeppelin/contracts/utils/Context.sol\":693:700  address */\n  0x00\n    /* \"@openzeppelin/contracts/utils/Context.sol\":719:729  msg.sender */\n  caller\n    /* \"@openzeppelin/contracts/utils/Context.sol\":712:729  return msg.sender */\n  swap1\n  pop\n    /* \"@openzeppelin/contracts/utils/Context.sol\":640:736  function _msgSender() internal view virtual returns (address) {... */\n  swap1\n  jump\t// out\n    /* \"@openzeppelin/contracts/access/Ownable.sol\":2433:2620  function _transferOwnership(address newOwner) internal virtual {... */\ntag_10:\n    /* \"@openzeppelin/contracts/access/Ownable.sol\":2506:2522  address oldOwner */\n  0x00\n    /* \"@openzeppelin/contracts/access/Ownable.sol\":2525:2531  _owner */\n  dup1\n  0x00\n  swap1\n  sload\n  swap1\n  0x0100\n  exp\n  swap1\n  div\n  0xffffffffffffffffffffffffffffffffffffffff\n  and\n    /* \"@openzeppelin/contracts/access/Ownable.sol\":2506:2531  address oldOwner = _owner */\n  swap1\n  pop\n    /* \"@openzeppelin/contracts/access/Ownable.sol\":2550:2558  newOwner */\n  dup2\n    /* \"@openzeppelin/contracts/access/Ownable.sol\":2541:2547  _owner */\n  0x00\n  dup1\n    /* \"@openzeppelin/contracts/access/Ownable.sol\":2541:2558  _owner = newOwner */\n  0x0100\n  exp\n  dup2\n  sload\n  dup2\n  0xffffffffffffffffffffffffffffffffffffffff\n  mul\n  not\n  and\n  swap1\n  dup4\n  0xffffffffffffffffffffffffffffffffffffffff\n  and\n  mul\n  or\n  swap1\n  sstore\n  pop\n    /* \"@openzeppelin/contracts/access/Ownable.sol\":2604:2612  newOwner */\n  dup2\n    /* \"@openzeppelin/contracts/access/Ownable.sol\":2573:2613  OwnershipTransferred(oldOwner, newOwner) */\n  0xffffffffffffffffffffffffffffffffffffffff\n  and\n    /* \"@openzeppelin/contracts/access/Ownable.sol\":2594:2602  oldOwner */\n  dup2\n    /* \"@openzeppelin/contracts/access/Ownable.sol\":2573:2613  OwnershipTransferred(oldOwner, newOwner) */\n  0xffffffffffffffffffffffffffffffffffffffff\n  and\n  0x8be0079c531659141344cd1fd0a4f28419497f9722a3daafe3b4186f6b6457e0\n  mload(0x40)\n  mload(0x40)\n  dup1\n  swap2\n  sub\n  swap1\n  log3\n    /* \"@openzeppelin/contracts/access/Ownable.sol\":2496:2620  {... */\n  pop\n    /* \"@openzeppelin/contracts/access/Ownable.sol\":2433:2620  function _transferOwnership(address newOwner) internal virtual {... */\n  pop\n  jump\t// out\n    /* \"@openzeppelin/contracts/access/AccessControl.sol\":6824:6934  function _setupRole(bytes32 role, address account) internal virtual {... */\ntag_13:\n    /* \"@openzeppelin/contracts/access/AccessControl.sol\":6902:6927  _grantRole(role, account) */\n  tag_18\n    /* \"@openzeppelin/contracts/access/AccessControl.sol\":6913:6917  role */\n  dup3\n    /* \"@openzeppelin/contracts/access/AccessControl.sol\":6919:6926  account */\n  dup3\n    /* \"@openzeppelin/contracts/access/AccessControl.sol\":6902:6912  _grantRole */\n  shl(0x20, tag_19)\n    /* \"@openzeppelin/contracts/access/AccessControl.sol\":6902:6927  _grantRole(role, account) */\n  0x20\n  shr\n  jump\t// in\ntag_18:\n    /* \"@openzeppelin/contracts/access/AccessControl.sol\":6824:6934  function _setupRole(bytes32 role, address account) internal virtual {... */\n  pop\n  pop\n  jump\t// out\n    /* \"@openzeppelin/contracts/access/AccessControl.sol\":7474:7707  function _grantRole(bytes32 role, address account) internal virtual {... */\ntag_19:\n    /* \"@openzeppelin/contracts/access/AccessControl.sol\":7557:7579  hasRole(role, account) */\n  tag_21\n    /* \"@openzeppelin/contracts/access/AccessControl.sol\":7565:7569  role */\n  dup3\n    /* \"@openzeppelin/contracts/access/AccessControl.sol\":7571:7578  account */\n  dup3\n    /* \"@openzeppelin/contracts/access/AccessControl.sol\":7557:7564  hasRole */\n  shl(0x20, tag_22)\n    /* \"@openzeppelin/contracts/access/AccessControl.sol\":7557:7579  hasRole(role, account) */\n  0x20\n  shr\n  jump\t// in\ntag_21:\n    /* \"@openzeppelin/contracts/access/AccessControl.sol\":7552:7701  if (!hasRole(role, account)) {... */\n  tag_23\n  jumpi\n    /* \"@openzeppelin/contracts/access/AccessControl.sol\":7627:7631  true */\n  0x01\n    /* \"@openzeppelin/contracts/access/AccessControl.sol\":7595:7601  _roles */\n  dup1\n    /* \"@openzeppelin/contracts/access/AccessControl.sol\":7595:7607  _roles[role] */\n  0x00\n    /* \"@openzeppelin/contracts/access/AccessControl.sol\":7602:7606  role */\n  dup5\n    /* \"@openzeppelin/contracts/access/AccessControl.sol\":7595:7607  _roles[role] */\n  dup2\n  mstore\n  0x20\n  add\n  swap1\n  dup2\n  mstore\n  0x20\n  add\n  0x00\n  keccak256\n    /* \"@openzeppelin/contracts/access/AccessControl.sol\":7595:7615  _roles[role].members */\n  0x00\n  add\n    /* \"@openzeppelin/contracts/access/AccessControl.sol\":7595:7624  _roles[role].members[account] */\n  0x00\n    /* \"@openzeppelin/contracts/access/AccessControl.sol\":7616:7623  account */\n  dup4\n    /* \"@openzeppelin/contracts/access/AccessControl.sol\":7595:7624  _roles[role].members[account] */\n  0xffffffffffffffffffffffffffffffffffffffff\n  and\n  0xffffffffffffffffffffffffffffffffffffffff\n  and\n  dup2\n  mstore\n  0x20\n  add\n  swap1\n  dup2\n  mstore\n  0x20\n  add\n  0x00\n  keccak256\n  0x00\n    /* \"@openzeppelin/contracts/access/AccessControl.sol\":7595:7631  _roles[role].members[account] = true */\n  0x0100\n  exp\n  dup2\n  sload\n  dup2\n  0xff\n  mul\n  not\n  and\n  swap1\n  dup4\n  iszero\n  iszero\n  mul\n  or\n  swap1\n  sstore\n  pop\n    /* \"@openzeppelin/contracts/access/AccessControl.sol\":7677:7689  _msgSender() */\n  tag_24\n    /* \"@openzeppelin/contracts/access/AccessControl.sol\":7677:7687  _msgSender */\n  shl(0x20, tag_9)\n    /* \"@openzeppelin/contracts/access/AccessControl.sol\":7677:7689  _msgSender() */\n  0x20\n  shr\n  jump\t// in\ntag_24:\n    /* \"@openzeppelin/contracts/access/AccessControl.sol\":7650:7690  RoleGranted(role, account, _msgSender()) */\n  0xffffffffffffffffffffffffffffffffffffffff\n  and\n    /* \"@openzeppelin/contracts/access/AccessControl.sol\":7668:7675  account */\n  dup2\n    /* \"@openzeppelin/contracts/access/AccessControl.sol\":7650:7690  RoleGranted(role, account, _msgSender()) */\n  0xffffffffffffffffffffffffffffffffffffffff\n  and\n    /* \"@openzeppelin/contracts/access/AccessControl.sol\":7662:7666  role */\n  dup4\n    /* \"@openzeppelin/contracts/access/AccessControl.sol\":7650:7690  RoleGranted(role, account, _msgSender()) */\n  0x2f8788117e7eff1d82e926ec794901d17c78024a50270940304540a733656f0d\n  mload(0x40)\n  mload(0x40)\n  dup1\n  swap2\n  sub\n  swap1\n  log4\n    /* \"@openzeppelin/contracts/access/AccessControl.sol\":7552:7701  if (!hasRole(role, account)) {... */\ntag_23:\n    /* \"@openzeppelin/contracts/access/AccessControl.sol\":7474:7707  function _grantRole(bytes32 role, address account) internal virtual {... */\n  pop\n  pop\n  jump\t// out\n    /* \"@openzeppelin/contracts/access/AccessControl.sol\":2895:3040  function hasRole(bytes32 role, address account) public view virtual override returns (bool) {... */\ntag_22:\n    /* \"@openzeppelin/contracts/access/AccessControl.sol\":2981:2985  bool */\n  0x00\n    /* \"@openzeppelin/contracts/access/AccessControl.sol\":3004:3010  _roles */\n  0x01\n    /* \"@openzeppelin/contracts/access/AccessControl.sol\":3004:3016  _roles[role] */\n  0x00\n    /* \"@openzeppelin/contracts/access/AccessControl.sol\":3011:3015  role */\n  dup5\n    /* \"@openzeppelin/contracts/access/AccessControl.sol\":3004:3016  _roles[role] */\n  dup2\n  mstore\n  0x20\n  add\n  swap1\n  dup2\n  mstore\n  0x20\n  add\n  0x00\n  keccak256\n    /* \"@openzeppelin/contracts/access/AccessControl.sol\":3004:3024  _roles[role].members */\n  0x00\n  add\n    /* \"@openzeppelin/contracts/access/AccessControl.sol\":3004:3033  _roles[role].members[account] */\n  0x00\n    /* \"@openzeppelin/contracts/access/AccessControl.sol\":3025:3032  account */\n  dup4\n    /* \"@openzeppelin/contracts/access/AccessControl.sol\":3004:3033  _roles[role].members[account] */\n  0xffffffffffffffffffffffffffffffffffffffff\n  and\n  0xffffffffffffffffffffffffffffffffffffffff\n  and\n  dup2\n  mstore\n  0x20\n  add\n  swap1\n  dup2\n  mstore\n  0x20\n  add\n  0x00\n  keccak256\n  0x00\n  swap1\n  sload\n  swap1\n  0x0100\n  exp\n  swap1\n  div\n  0xff\n  and\n    /* \"@openzeppelin/contracts/access/AccessControl.sol\":2997:3033  return _roles[role].members[account] */\n  swap1\n  pop\n    /* \"@openzeppelin/contracts/access/AccessControl.sol\":2895:3040  function hasRole(bytes32 role, address account) public view virtual override returns (bool) {... */\n  swap3\n  swap2\n  pop\n  pop\n  jump\t// out\n    /* \"contracts/Vote.sol\":311:3835  contract Vote is Ownable, AccessControl {... */\ntag_2:\n  dup3\n  dup1\n  sload\n  dup3\n  dup3\n  sstore\n  swap1\n  0x00\n  mstore\n  keccak256(0x00, 0x20)\n  swap1\n  dup2\n  add\n  swap3\n  dup3\n  iszero\n  tag_26\n  jumpi\n  swap2\n  0x20\n  mul\n  dup3\n  add\ntag_27:\n  dup3\n  dup2\n  gt\n  iszero\n  tag_28\n  jumpi\n  dup3\n  mload\n  dup3\n  swap1\n  dup1\n  mload\n  swap1\n  0x20\n  add\n  swap1\n  tag_29\n  swap3\n  swap2\n  swap1\n  tag_30\n  jump\t// in\ntag_29:\n  pop\n  swap2\n  0x20\n  add\n  swap2\n  swap1\n  0x01\n  add\n  swap1\n  jump(tag_27)\ntag_28:\ntag_26:\n  pop\n  swap1\n  pop\n  tag_31\n  swap2\n  swap1\n  tag_32\n  jump\t// in\ntag_31:\n  pop\n  swap1\n  jump\t// out\ntag_30:\n  dup3\n  dup1\n  sload\n  tag_33\n  swap1\n  tag_34\n  jump\t// in\ntag_33:\n  swap1\n  0x00\n  mstore\n  keccak256(0x00, 0x20)\n  swap1\n  0x1f\n  add\n  0x20\n  swap1\n  div\n  dup2\n  add\n  swap3\n  dup3\n  tag_36\n  jumpi\n  0x00\n  dup6\n  sstore\n  jump(tag_35)\ntag_36:\n  dup3\n  0x1f\n  lt\n  tag_37\n  jumpi\n  dup1\n  mload\n  not(0xff)\n  and\n  dup4\n  dup1\n  add\n  or\n  dup6\n  sstore\n  jump(tag_35)\ntag_37:\n  dup3\n  dup1\n  add\n  0x01\n  add\n  dup6\n  sstore\n  dup3\n  iszero\n  tag_35\n  jumpi\n  swap2\n  dup3\n  add\ntag_38:\n  dup3\n  dup2\n  gt\n  iszero\n  tag_39\n  jumpi\n  dup3\n  mload\n  dup3\n  sstore\n  swap2\n  0x20\n  add\n  swap2\n  swap1\n  0x01\n  add\n  swap1\n  jump(tag_38)\ntag_39:\ntag_35:\n  pop\n  swap1\n  pop\n  tag_40\n  swap2\n  swap1\n  tag_41\n  jump\t// in\ntag_40:\n  pop\n  swap1\n  jump\t// out\ntag_32:\ntag_42:\n  dup1\n  dup3\n  gt\n  iszero\n  tag_43\n  jumpi\n  0x00\n  dup2\n  dup2\n  tag_44\n  swap2\n  swap1\n  tag_45\n  jump\t// in\ntag_44:\n  pop\n  0x01\n  add\n  jump(tag_42)\ntag_43:\n  pop\n  swap1\n  jump\t// out\ntag_41:\ntag_46:\n  dup1\n  dup3\n  gt\n  iszero\n  tag_47\n  jumpi\n  0x00\n  dup2\n  0x00\n  swap1\n  sstore\n  pop\n  0x01\n  add\n  jump(tag_46)\ntag_47:\n  pop\n  swap1\n  jump\t// out\ntag_45:\n  pop\n  dup1\n  sload\n  tag_48\n  swap1\n  tag_34\n  jump\t// in\ntag_48:\n  0x00\n  dup3\n  sstore\n  dup1\n  0x1f\n  lt\n  tag_50\n  jumpi\n  pop\n  jump(tag_49)\ntag_50:\n  0x1f\n  add\n  0x20\n  swap1\n  div\n  swap1\n  0x00\n  mstore\n  keccak256(0x00, 0x20)\n  swap1\n  dup2\n  add\n  swap1\n  tag_51\n  swap2\n  swap1\n  tag_41\n  jump\t// in\ntag_51:\ntag_49:\n  pop\n  jump\t// out\n    /* \"#utility.yul\":7:327   */\ntag_34:\n    /* \"#utility.yul\":51:57   */\n  0x00\n    /* \"#utility.yul\":88:89   */\n  0x02\n    /* \"#utility.yul\":82:86   */\n  dup3\n    /* \"#utility.yul\":78:90   */\n  div\n    /* \"#utility.yul\":68:90   */\n  swap1\n  pop\n    /* \"#utility.yul\":135:136   */\n  0x01\n    /* \"#utility.yul\":129:133   */\n  dup3\n    /* \"#utility.yul\":125:137   */\n  and\n    /* \"#utility.yul\":156:174   */\n  dup1\n    /* \"#utility.yul\":146:227   */\n  tag_54\n  jumpi\n    /* \"#utility.yul\":212:216   */\n  0x7f\n    /* \"#utility.yul\":204:210   */\n  dup3\n    /* \"#utility.yul\":200:217   */\n  and\n    /* \"#utility.yul\":190:217   */\n  swap2\n  pop\n    /* \"#utility.yul\":146:227   */\ntag_54:\n    /* \"#utility.yul\":274:276   */\n  0x20\n    /* \"#utility.yul\":266:272   */\n  dup3\n    /* \"#utility.yul\":263:277   */\n  lt\n    /* \"#utility.yul\":243:261   */\n  dup2\n    /* \"#utility.yul\":240:278   */\n  eq\n    /* \"#utility.yul\":237:321   */\n  iszero\n  tag_55\n  jumpi\n    /* \"#utility.yul\":293:311   */\n  tag_56\n  tag_57\n  jump\t// in\ntag_56:\n    /* \"#utility.yul\":237:321   */\ntag_55:\n    /* \"#utility.yul\":58:327   */\n  pop\n    /* \"#utility.yul\":7:327   */\n  swap2\n  swap1\n  pop\n  jump\t// out\n    /* \"#utility.yul\":333:513   */\ntag_57:\n    /* \"#utility.yul\":381:458   */\n  0x4e487b7100000000000000000000000000000000000000000000000000000000\n    /* \"#utility.yul\":378:379   */\n  0x00\n    /* \"#utility.yul\":371:459   */\n  mstore\n    /* \"#utility.yul\":478:482   */\n  0x22\n    /* \"#utility.yul\":475:476   */\n  0x04\n    /* \"#utility.yul\":468:483   */\n  mstore\n    /* \"#utility.yul\":502:506   */\n  0x24\n    /* \"#utility.yul\":499:500   */\n  0x00\n    /* \"#utility.yul\":492:507   */\n  revert\n    /* \"contracts/Vote.sol\":311:3835  contract Vote is Ownable, AccessControl {... */\ntag_14:\n  dataSize(sub_0)\n  dup1\n  dataOffset(sub_0)\n  0x00\n  codecopy\n  0x00\n  return\nstop\n\nsub_0: assembly {\n        /* \"contracts/Vote.sol\":311:3835  contract Vote is Ownable, AccessControl {... */\n      mstore(0x40, 0x80)\n      callvalue\n      dup1\n      iszero\n      tag_1\n      jumpi\n      0x00\n      dup1\n      revert\n    tag_1:\n      pop\n      jumpi(tag_2, lt(calldatasize, 0x04))\n      shr(0xe0, calldataload(0x00))\n      dup1\n      0x91d14854\n      gt\n      tag_24\n      jumpi\n      dup1\n      0xa94015c8\n      gt\n      tag_25\n      jumpi\n      dup1\n      0xa94015c8\n      eq\n      tag_18\n      jumpi\n      dup1\n      0xd547741f\n      eq\n      tag_19\n      jumpi\n      dup1\n      0xd59d2a58\n      eq\n      tag_20\n      jumpi\n      dup1\n      0xdfd8459e\n      eq\n      tag_21\n      jumpi\n      dup1\n      0xef49f4aa\n      eq\n      tag_22\n      jumpi\n      dup1\n      0xf2fde38b\n      eq\n      tag_23\n      jumpi\n      jump(tag_2)\n    tag_25:\n      dup1\n      0x91d14854\n      eq\n      tag_13\n      jumpi\n      dup1\n      0x9c35d98b\n      eq\n      tag_14\n      jumpi\n      dup1\n      0x9d710777\n      eq\n      tag_15\n      jumpi\n      dup1\n      0x9e5f0349\n      eq\n      tag_16\n      jumpi\n      dup1\n      0xa217fddf\n      eq\n      tag_17\n      jumpi\n      jump(tag_2)\n    tag_24:\n      dup1\n      0x314fd68f\n      gt\n      tag_26\n      jumpi\n      dup1\n      0x314fd68f\n      eq\n      tag_8\n      jumpi\n      dup1\n      0x36568abe\n      eq\n      tag_9\n      jumpi\n      dup1\n      0x4f05dba8\n      eq\n      tag_10\n      jumpi\n      dup1\n      0x715018a6\n      eq\n      tag_11\n      jumpi\n      dup1\n      0x8da5cb5b\n      eq\n      tag_12\n      jumpi\n      jump(tag_2)\n    tag_26:\n      dup1\n      0x01ffc9a7\n      eq\n      tag_3\n      jumpi\n      dup1\n      0x248a9ca3\n      eq\n      tag_4\n      jumpi\n      dup1\n      0x290e9212\n      eq\n      tag_5\n      jumpi\n      dup1\n      0x2e0d37bb\n      eq\n      tag_6\n      jumpi\n      dup1\n      0x2f2ff15d\n      eq\n      tag_7\n      jumpi\n    tag_2:\n      0x00\n      dup1\n      revert\n        /* \"@openzeppelin/contracts/access/AccessControl.sol\":2606:2808  function supportsInterface(bytes4 interfaceId) public view virtual override returns (bool) {... */\n    tag_3:\n      tag_27\n      0x04\n      dup1\n      calldatasize\n      sub\n      dup2\n      add\n      swap1\n      tag_28\n      swap2\n      swap1\n      tag_29\n      jump\t// in\n    tag_28:\n      tag_30\n      jump\t// in\n    tag_27:\n      mload(0x40)\n      tag_31\n      swap2\n      swap1\n      tag_32\n      jump\t// in\n    tag_31:\n      mload(0x40)\n      dup1\n      swap2\n      sub\n      swap1\n      return\n        /* \"@openzeppelin/contracts/access/AccessControl.sol\":4391:4520  function getRoleAdmin(bytes32 role) public view virtual override returns (bytes32) {... */\n    tag_4:\n      tag_33\n      0x04\n      dup1\n      calldatasize\n      sub\n      dup2\n      add\n      swap1\n      tag_34\n      swap2\n      swap1\n      tag_35\n      jump\t// in\n    tag_34:\n      tag_36\n      jump\t// in\n    tag_33:\n      mload(0x40)\n      tag_37\n      swap2\n      swap1\n      tag_38\n      jump\t// in\n    tag_37:\n      mload(0x40)\n      dup1\n      swap2\n      sub\n      swap1\n      return\n        /* \"contracts/Vote.sol\":1102:1149  mapping(uint256 => candidate) public Candidates */\n    tag_5:\n      tag_39\n      0x04\n      dup1\n      calldatasize\n      sub\n      dup2\n      add\n      swap1\n      tag_40\n      swap2\n      swap1\n      tag_41\n      jump\t// in\n    tag_40:\n      tag_42\n      jump\t// in\n    tag_39:\n      mload(0x40)\n      tag_43\n      swap4\n      swap3\n      swap2\n      swap1\n      tag_44\n      jump\t// in\n    tag_43:\n      mload(0x40)\n      dup1\n      swap2\n      sub\n      swap1\n      return\n        /* \"contracts/Vote.sol\":517:580  bytes32 public constant INEC_EXEC_ROLE = keccak256(\"INEC_EXEC\") */\n    tag_6:\n      tag_45\n      tag_46\n      jump\t// in\n    tag_45:\n      mload(0x40)\n      tag_47\n      swap2\n      swap1\n      tag_38\n      jump\t// in\n    tag_47:\n      mload(0x40)\n      dup1\n      swap2\n      sub\n      swap1\n      return\n        /* \"@openzeppelin/contracts/access/AccessControl.sol\":4816:4961  function grantRole(bytes32 role, address account) public virtual override onlyRole(getRoleAdmin(role)) {... */\n    tag_7:\n      tag_48\n      0x04\n      dup1\n      calldatasize\n      sub\n      dup2\n      add\n      swap1\n      tag_49\n      swap2\n      swap1\n      tag_50\n      jump\t// in\n    tag_49:\n      tag_51\n      jump\t// in\n    tag_48:\n      stop\n        /* \"contracts/Vote.sol\":457:510  string [] public party = [\"APC\", \"PDP\", \"LP\", \"NNPP\"] */\n    tag_8:\n      tag_52\n      0x04\n      dup1\n      calldatasize\n      sub\n      dup2\n      add\n      swap1\n      tag_53\n      swap2\n      swap1\n      tag_41\n      jump\t// in\n    tag_53:\n      tag_54\n      jump\t// in\n    tag_52:\n      mload(0x40)\n      tag_55\n      swap2\n      swap1\n      tag_56\n      jump\t// in\n    tag_55:\n      mload(0x40)\n      dup1\n      swap2\n      sub\n      swap1\n      return\n        /* \"@openzeppelin/contracts/access/AccessControl.sol\":5925:6139  function renounceRole(bytes32 role, address account) public virtual override {... */\n    tag_9:\n      tag_57\n      0x04\n      dup1\n      calldatasize\n      sub\n      dup2\n      add\n      swap1\n      tag_58\n      swap2\n      swap1\n      tag_50\n      jump\t// in\n    tag_58:\n      tag_59\n      jump\t// in\n    tag_57:\n      stop\n        /* \"contracts/Vote.sol\":2995:3438  function createElection(address[] memory _candidateNum, uint256 _date, uint256 _duration) public isInecExec {... */\n    tag_10:\n      tag_60\n      0x04\n      dup1\n      calldatasize\n      sub\n      dup2\n      add\n      swap1\n      tag_61\n      swap2\n      swap1\n      tag_62\n      jump\t// in\n    tag_61:\n      tag_63\n      jump\t// in\n    tag_60:\n      stop\n        /* \"@openzeppelin/contracts/access/Ownable.sol\":1831:1932  function renounceOwnership() public virtual onlyOwner {... */\n    tag_11:\n      tag_64\n      tag_65\n      jump\t// in\n    tag_64:\n      stop\n        /* \"@openzeppelin/contracts/access/Ownable.sol\":1201:1286  function owner() public view virtual returns (address) {... */\n    tag_12:\n      tag_66\n      tag_67\n      jump\t// in\n    tag_66:\n      mload(0x40)\n      tag_68\n      swap2\n      swap1\n      tag_69\n      jump\t// in\n    tag_68:\n      mload(0x40)\n      dup1\n      swap2\n      sub\n      swap1\n      return\n        /* \"@openzeppelin/contracts/access/AccessControl.sol\":2895:3040  function hasRole(bytes32 role, address account) public view virtual override returns (bool) {... */\n    tag_13:\n      tag_70\n      0x04\n      dup1\n      calldatasize\n      sub\n      dup2\n      add\n      swap1\n      tag_71\n      swap2\n      swap1\n      tag_50\n      jump\t// in\n    tag_71:\n      tag_72\n      jump\t// in\n    tag_70:\n      mload(0x40)\n      tag_73\n      swap2\n      swap1\n      tag_32\n      jump\t// in\n    tag_73:\n      mload(0x40)\n      dup1\n      swap2\n      sub\n      swap1\n      return\n        /* \"contracts/Vote.sol\":1224:1263  mapping(uint256 => voter) public Voters */\n    tag_14:\n      tag_74\n      0x04\n      dup1\n      calldatasize\n      sub\n      dup2\n      add\n      swap1\n      tag_75\n      swap2\n      swap1\n      tag_41\n      jump\t// in\n    tag_75:\n      tag_76\n      jump\t// in\n    tag_74:\n      mload(0x40)\n      tag_77\n      swap5\n      swap4\n      swap3\n      swap2\n      swap1\n      tag_78\n      jump\t// in\n    tag_77:\n      mload(0x40)\n      dup1\n      swap2\n      sub\n      swap1\n      return\n        /* \"contracts/Vote.sol\":3718:3827  function getElection(uint256 num) public view returns (election memory){... */\n    tag_15:\n      tag_79\n      0x04\n      dup1\n      calldatasize\n      sub\n      dup2\n      add\n      swap1\n      tag_80\n      swap2\n      swap1\n      tag_41\n      jump\t// in\n    tag_80:\n      tag_81\n      jump\t// in\n    tag_79:\n      mload(0x40)\n      tag_82\n      swap2\n      swap1\n      tag_83\n      jump\t// in\n    tag_82:\n      mload(0x40)\n      dup1\n      swap2\n      sub\n      swap1\n      return\n        /* \"contracts/Vote.sol\":3520:3637  function retrieveCandidate(uint256 num) public view returns (candidate memory){... */\n    tag_16:\n      tag_84\n      0x04\n      dup1\n      calldatasize\n      sub\n      dup2\n      add\n      swap1\n      tag_85\n      swap2\n      swap1\n      tag_41\n      jump\t// in\n    tag_85:\n      tag_86\n      jump\t// in\n    tag_84:\n      mload(0x40)\n      tag_87\n      swap2\n      swap1\n      tag_88\n      jump\t// in\n    tag_87:\n      mload(0x40)\n      dup1\n      swap2\n      sub\n      swap1\n      return\n        /* \"@openzeppelin/contracts/access/AccessControl.sol\":2027:2076  bytes32 public constant DEFAULT_ADMIN_ROLE = 0x00 */\n    tag_17:\n      tag_89\n      tag_90\n      jump\t// in\n    tag_89:\n      mload(0x40)\n      tag_91\n      swap2\n      swap1\n      tag_38\n      jump\t// in\n    tag_91:\n      mload(0x40)\n      dup1\n      swap2\n      sub\n      swap1\n      return\n        /* \"contracts/Vote.sol\":586:641  bytes32 public constant VOTER_ROLE = keccak256(\"VOTER\") */\n    tag_18:\n      tag_92\n      tag_93\n      jump\t// in\n    tag_92:\n      mload(0x40)\n      tag_94\n      swap2\n      swap1\n      tag_38\n      jump\t// in\n    tag_94:\n      mload(0x40)\n      dup1\n      swap2\n      sub\n      swap1\n      return\n        /* \"@openzeppelin/contracts/access/AccessControl.sol\":5241:5388  function revokeRole(bytes32 role, address account) public virtual override onlyRole(getRoleAdmin(role)) {... */\n    tag_19:\n      tag_95\n      0x04\n      dup1\n      calldatasize\n      sub\n      dup2\n      add\n      swap1\n      tag_96\n      swap2\n      swap1\n      tag_50\n      jump\t// in\n    tag_96:\n      tag_97\n      jump\t// in\n    tag_95:\n      stop\n        /* \"contracts/Vote.sol\":2247:2546  function createCandidate(string memory name, address candAddress, uint256 partyNum) public isInecExec {... */\n    tag_20:\n      tag_98\n      0x04\n      dup1\n      calldatasize\n      sub\n      dup2\n      add\n      swap1\n      tag_99\n      swap2\n      swap1\n      tag_100\n      jump\t// in\n    tag_99:\n      tag_101\n      jump\t// in\n    tag_98:\n      stop\n        /* \"contracts/Vote.sol\":1927:2037  function createInecExec(address _account) public onlyOwner{... */\n    tag_21:\n      tag_102\n      0x04\n      dup1\n      calldatasize\n      sub\n      dup2\n      add\n      swap1\n      tag_103\n      swap2\n      swap1\n      tag_104\n      jump\t// in\n    tag_103:\n      tag_105\n      jump\t// in\n    tag_102:\n      stop\n        /* \"contracts/Vote.sol\":2671:2857  function regVoter(address _account, uint256 _nin) public {... */\n    tag_22:\n      tag_106\n      0x04\n      dup1\n      calldatasize\n      sub\n      dup2\n      add\n      swap1\n      tag_107\n      swap2\n      swap1\n      tag_108\n      jump\t// in\n    tag_107:\n      tag_109\n      jump\t// in\n    tag_106:\n      stop\n        /* \"@openzeppelin/contracts/access/Ownable.sol\":2081:2279  function transferOwnership(address newOwner) public virtual onlyOwner {... */\n    tag_23:\n      tag_110\n      0x04\n      dup1\n      calldatasize\n      sub\n      dup2\n      add\n      swap1\n      tag_111\n      swap2\n      swap1\n      tag_104\n      jump\t// in\n    tag_111:\n      tag_112\n      jump\t// in\n    tag_110:\n      stop\n        /* \"@openzeppelin/contracts/access/AccessControl.sol\":2606:2808  function supportsInterface(bytes4 interfaceId) public view virtual override returns (bool) {... */\n    tag_30:\n        /* \"@openzeppelin/contracts/access/AccessControl.sol\":2691:2695  bool */\n      0x00\n        /* \"@openzeppelin/contracts/access/AccessControl.sol\":2729:2761  type(IAccessControl).interfaceId */\n      0x7965db0b00000000000000000000000000000000000000000000000000000000\n        /* \"@openzeppelin/contracts/access/AccessControl.sol\":2714:2761  interfaceId == type(IAccessControl).interfaceId */\n      not(0xffffffffffffffffffffffffffffffffffffffffffffffffffffffff)\n      and\n        /* \"@openzeppelin/contracts/access/AccessControl.sol\":2714:2725  interfaceId */\n      dup3\n        /* \"@openzeppelin/contracts/access/AccessControl.sol\":2714:2761  interfaceId == type(IAccessControl).interfaceId */\n      not(0xffffffffffffffffffffffffffffffffffffffffffffffffffffffff)\n      and\n      eq\n        /* \"@openzeppelin/contracts/access/AccessControl.sol\":2714:2801  interfaceId == type(IAccessControl).interfaceId || super.supportsInterface(interfaceId) */\n      dup1\n      tag_114\n      jumpi\n      pop\n        /* \"@openzeppelin/contracts/access/AccessControl.sol\":2765:2801  super.supportsInterface(interfaceId) */\n      tag_115\n        /* \"@openzeppelin/contracts/access/AccessControl.sol\":2789:2800  interfaceId */\n      dup3\n        /* \"@openzeppelin/contracts/access/AccessControl.sol\":2765:2788  super.supportsInterface */\n      tag_116\n        /* \"@openzeppelin/contracts/access/AccessControl.sol\":2765:2801  super.supportsInterface(interfaceId) */\n      jump\t// in\n    tag_115:\n        /* \"@openzeppelin/contracts/access/AccessControl.sol\":2714:2801  interfaceId == type(IAccessControl).interfaceId || super.supportsInterface(interfaceId) */\n    tag_114:\n        /* \"@openzeppelin/contracts/access/AccessControl.sol\":2707:2801  return interfaceId == type(IAccessControl).interfaceId || super.supportsInterface(interfaceId) */\n      swap1\n      pop\n        /* \"@openzeppelin/contracts/access/AccessControl.sol\":2606:2808  function supportsInterface(bytes4 interfaceId) public view virtual override returns (bool) {... */\n      swap2\n      swap1\n      pop\n      jump\t// out\n        /* \"@openzeppelin/contracts/access/AccessControl.sol\":4391:4520  function getRoleAdmin(bytes32 role) public view virtual override returns (bytes32) {... */\n    tag_36:\n        /* \"@openzeppelin/contracts/access/AccessControl.sol\":4465:4472  bytes32 */\n      0x00\n        /* \"@openzeppelin/contracts/access/AccessControl.sol\":4491:4497  _roles */\n      0x01\n        /* \"@openzeppelin/contracts/access/AccessControl.sol\":4491:4503  _roles[role] */\n      0x00\n        /* \"@openzeppelin/contracts/access/AccessControl.sol\":4498:4502  role */\n      dup4\n        /* \"@openzeppelin/contracts/access/AccessControl.sol\":4491:4503  _roles[role] */\n      dup2\n      mstore\n      0x20\n      add\n      swap1\n      dup2\n      mstore\n      0x20\n      add\n      0x00\n      keccak256\n        /* \"@openzeppelin/contracts/access/AccessControl.sol\":4491:4513  _roles[role].adminRole */\n      0x01\n      add\n      sload\n        /* \"@openzeppelin/contracts/access/AccessControl.sol\":4484:4513  return _roles[role].adminRole */\n      swap1\n      pop\n        /* \"@openzeppelin/contracts/access/AccessControl.sol\":4391:4520  function getRoleAdmin(bytes32 role) public view virtual override returns (bytes32) {... */\n      swap2\n      swap1\n      pop\n      jump\t// out\n        /* \"contracts/Vote.sol\":1102:1149  mapping(uint256 => candidate) public Candidates */\n    tag_42:\n      mstore(0x20, 0x07)\n      dup1\n      0x00\n      mstore\n      keccak256(0x00, 0x40)\n      0x00\n      swap2\n      pop\n      swap1\n      pop\n      dup1\n      0x00\n      add\n      dup1\n      sload\n      tag_118\n      swap1\n      tag_119\n      jump\t// in\n    tag_118:\n      dup1\n      0x1f\n      add\n      0x20\n      dup1\n      swap2\n      div\n      mul\n      0x20\n      add\n      mload(0x40)\n      swap1\n      dup2\n      add\n      0x40\n      mstore\n      dup1\n      swap3\n      swap2\n      swap1\n      dup2\n      dup2\n      mstore\n      0x20\n      add\n      dup3\n      dup1\n      sload\n      tag_120\n      swap1\n      tag_119\n      jump\t// in\n    tag_120:\n      dup1\n      iszero\n      tag_121\n      jumpi\n      dup1\n      0x1f\n      lt\n      tag_122\n      jumpi\n      0x0100\n      dup1\n      dup4\n      sload\n      div\n      mul\n      dup4\n      mstore\n      swap2\n      0x20\n      add\n      swap2\n      jump(tag_121)\n    tag_122:\n      dup3\n      add\n      swap2\n      swap1\n      0x00\n      mstore\n      keccak256(0x00, 0x20)\n      swap1\n    tag_123:\n      dup2\n      sload\n      dup2\n      mstore\n      swap1\n      0x01\n      add\n      swap1\n      0x20\n      add\n      dup1\n      dup4\n      gt\n      tag_123\n      jumpi\n      dup3\n      swap1\n      sub\n      0x1f\n      and\n      dup3\n      add\n      swap2\n    tag_121:\n      pop\n      pop\n      pop\n      pop\n      pop\n      swap1\n      dup1\n      0x01\n      add\n      0x00\n      swap1\n      sload\n      swap1\n      0x0100\n      exp\n      swap1\n      div\n      0xffffffffffffffffffffffffffffffffffffffff\n      and\n      swap1\n      dup1\n      0x02\n      add\n      dup1\n      sload\n      tag_124\n      swap1\n      tag_119\n      jump\t// in\n    tag_124:\n      dup1\n      0x1f\n      add\n      0x20\n      dup1\n      swap2\n      div\n      mul\n      0x20\n      add\n      mload(0x40)\n      swap1\n      dup2\n      add\n      0x40\n      mstore\n      dup1\n      swap3\n      swap2\n      swap1\n      dup2\n      dup2\n      mstore\n      0x20\n      add\n      dup3\n      dup1\n      sload\n      tag_125\n      swap1\n      tag_119\n      jump\t// in\n    tag_125:\n      dup1\n      iszero\n      tag_126\n      jumpi\n      dup1\n      0x1f\n      lt\n      tag_127\n      jumpi\n      0x0100\n      dup1\n      dup4\n      sload\n      div\n      mul\n      dup4\n      mstore\n      swap2\n      0x20\n      add\n      swap2\n      jump(tag_126)\n    tag_127:\n      dup3\n      add\n      swap2\n      swap1\n      0x00\n      mstore\n      keccak256(0x00, 0x20)\n      swap1\n    tag_128:\n      dup2\n      sload\n      dup2\n      mstore\n      swap1\n      0x01\n      add\n      swap1\n      0x20\n      add\n      dup1\n      dup4\n      gt\n      tag_128\n      jumpi\n      dup3\n      swap1\n      sub\n      0x1f\n      and\n      dup3\n      add\n      swap2\n    tag_126:\n      pop\n      pop\n      pop\n      pop\n      pop\n      swap1\n      pop\n      dup4\n      jump\t// out\n        /* \"contracts/Vote.sol\":517:580  bytes32 public constant INEC_EXEC_ROLE = keccak256(\"INEC_EXEC\") */\n    tag_46:\n        /* \"contracts/Vote.sol\":558:580  keccak256(\"INEC_EXEC\") */\n      0x082f6ed76e0352438e6a6e35c77719c3f04bf277fdc8fec7e5ff5f65e001d902\n        /* \"contracts/Vote.sol\":517:580  bytes32 public constant INEC_EXEC_ROLE = keccak256(\"INEC_EXEC\") */\n      dup2\n      jump\t// out\n        /* \"@openzeppelin/contracts/access/AccessControl.sol\":4816:4961  function grantRole(bytes32 role, address account) public virtual override onlyRole(getRoleAdmin(role)) {... */\n    tag_51:\n        /* \"@openzeppelin/contracts/access/AccessControl.sol\":4899:4917  getRoleAdmin(role) */\n      tag_129\n        /* \"@openzeppelin/contracts/access/AccessControl.sol\":4912:4916  role */\n      dup3\n        /* \"@openzeppelin/contracts/access/AccessControl.sol\":4899:4911  getRoleAdmin */\n      tag_36\n        /* \"@openzeppelin/contracts/access/AccessControl.sol\":4899:4917  getRoleAdmin(role) */\n      jump\t// in\n    tag_129:\n        /* \"@openzeppelin/contracts/access/AccessControl.sol\":2505:2521  _checkRole(role) */\n      tag_131\n        /* \"@openzeppelin/contracts/access/AccessControl.sol\":2516:2520  role */\n      dup2\n        /* \"@openzeppelin/contracts/access/AccessControl.sol\":2505:2515  _checkRole */\n      tag_132\n        /* \"@openzeppelin/contracts/access/AccessControl.sol\":2505:2521  _checkRole(role) */\n      jump\t// in\n    tag_131:\n        /* \"@openzeppelin/contracts/access/AccessControl.sol\":4929:4954  _grantRole(role, account) */\n      tag_134\n        /* \"@openzeppelin/contracts/access/AccessControl.sol\":4940:4944  role */\n      dup4\n        /* \"@openzeppelin/contracts/access/AccessControl.sol\":4946:4953  account */\n      dup4\n        /* \"@openzeppelin/contracts/access/AccessControl.sol\":4929:4939  _grantRole */\n      tag_135\n        /* \"@openzeppelin/contracts/access/AccessControl.sol\":4929:4954  _grantRole(role, account) */\n      jump\t// in\n    tag_134:\n        /* \"@openzeppelin/contracts/access/AccessControl.sol\":4816:4961  function grantRole(bytes32 role, address account) public virtual override onlyRole(getRoleAdmin(role)) {... */\n      pop\n      pop\n      pop\n      jump\t// out\n        /* \"contracts/Vote.sol\":457:510  string [] public party = [\"APC\", \"PDP\", \"LP\", \"NNPP\"] */\n    tag_54:\n      0x06\n      dup2\n      dup2\n      sload\n      dup2\n      lt\n      tag_136\n      jumpi\n      0x00\n      dup1\n      revert\n    tag_136:\n      swap1\n      0x00\n      mstore\n      keccak256(0x00, 0x20)\n      add\n      0x00\n      swap2\n      pop\n      swap1\n      pop\n      dup1\n      sload\n      tag_138\n      swap1\n      tag_119\n      jump\t// in\n    tag_138:\n      dup1\n      0x1f\n      add\n      0x20\n      dup1\n      swap2\n      div\n      mul\n      0x20\n      add\n      mload(0x40)\n      swap1\n      dup2\n      add\n      0x40\n      mstore\n      dup1\n      swap3\n      swap2\n      swap1\n      dup2\n      dup2\n      mstore\n      0x20\n      add\n      dup3\n      dup1\n      sload\n      tag_139\n      swap1\n      tag_119\n      jump\t// in\n    tag_139:\n      dup1\n      iszero\n      tag_140\n      jumpi\n      dup1\n      0x1f\n      lt\n      tag_141\n      jumpi\n      0x0100\n      dup1\n      dup4\n      sload\n      div\n      mul\n      dup4\n      mstore\n      swap2\n      0x20\n      add\n      swap2\n      jump(tag_140)\n    tag_141:\n      dup3\n      add\n      swap2\n      swap1\n      0x00\n      mstore\n      keccak256(0x00, 0x20)\n      swap1\n    tag_142:\n      dup2\n      sload\n      dup2\n      mstore\n      swap1\n      0x01\n      add\n      swap1\n      0x20\n      add\n      dup1\n      dup4\n      gt\n      tag_142\n      jumpi\n      dup3\n      swap1\n      sub\n      0x1f\n      and\n      dup3\n      add\n      swap2\n    tag_140:\n      pop\n      pop\n      pop\n      pop\n      pop\n      dup2\n      jump\t// out\n        /* \"@openzeppelin/contracts/access/AccessControl.sol\":5925:6139  function renounceRole(bytes32 role, address account) public virtual override {... */\n    tag_59:\n        /* \"@openzeppelin/contracts/access/AccessControl.sol\":6031:6043  _msgSender() */\n      tag_144\n        /* \"@openzeppelin/contracts/access/AccessControl.sol\":6031:6041  _msgSender */\n      tag_145\n        /* \"@openzeppelin/contracts/access/AccessControl.sol\":6031:6043  _msgSender() */\n      jump\t// in\n    tag_144:\n        /* \"@openzeppelin/contracts/access/AccessControl.sol\":6020:6043  account == _msgSender() */\n      0xffffffffffffffffffffffffffffffffffffffff\n      and\n        /* \"@openzeppelin/contracts/access/AccessControl.sol\":6020:6027  account */\n      dup2\n        /* \"@openzeppelin/contracts/access/AccessControl.sol\":6020:6043  account == _msgSender() */\n      0xffffffffffffffffffffffffffffffffffffffff\n      and\n      eq\n        /* \"@openzeppelin/contracts/access/AccessControl.sol\":6012:6095  require(account == _msgSender(), \"AccessControl: can only renounce roles for self\") */\n      tag_146\n      jumpi\n      mload(0x40)\n      0x08c379a000000000000000000000000000000000000000000000000000000000\n      dup2\n      mstore\n      0x04\n      add\n      tag_147\n      swap1\n      tag_148\n      jump\t// in\n    tag_147:\n      mload(0x40)\n      dup1\n      swap2\n      sub\n      swap1\n      revert\n    tag_146:\n        /* \"@openzeppelin/contracts/access/AccessControl.sol\":6106:6132  _revokeRole(role, account) */\n      tag_149\n        /* \"@openzeppelin/contracts/access/AccessControl.sol\":6118:6122  role */\n      dup3\n        /* \"@openzeppelin/contracts/access/AccessControl.sol\":6124:6131  account */\n      dup3\n        /* \"@openzeppelin/contracts/access/AccessControl.sol\":6106:6117  _revokeRole */\n      tag_150\n        /* \"@openzeppelin/contracts/access/AccessControl.sol\":6106:6132  _revokeRole(role, account) */\n      jump\t// in\n    tag_149:\n        /* \"@openzeppelin/contracts/access/AccessControl.sol\":5925:6139  function renounceRole(bytes32 role, address account) public virtual override {... */\n      pop\n      pop\n      jump\t// out\n        /* \"contracts/Vote.sol\":2995:3438  function createElection(address[] memory _candidateNum, uint256 _date, uint256 _duration) public isInecExec {... */\n    tag_63:\n        /* \"contracts/Vote.sol\":1520:1555  hasRole(INEC_EXEC_ROLE, msg.sender) */\n      tag_152\n        /* \"contracts/Vote.sol\":558:580  keccak256(\"INEC_EXEC\") */\n      0x082f6ed76e0352438e6a6e35c77719c3f04bf277fdc8fec7e5ff5f65e001d902\n        /* \"contracts/Vote.sol\":1544:1554  msg.sender */\n      caller\n        /* \"contracts/Vote.sol\":1520:1527  hasRole */\n      tag_72\n        /* \"contracts/Vote.sol\":1520:1555  hasRole(INEC_EXEC_ROLE, msg.sender) */\n      jump\t// in\n    tag_152:\n        /* \"contracts/Vote.sol\":1512:1591  require(hasRole(INEC_EXEC_ROLE, msg.sender), \"Caller is not an INEC executive\") */\n      tag_153\n      jumpi\n      mload(0x40)\n      0x08c379a000000000000000000000000000000000000000000000000000000000\n      dup2\n      mstore\n      0x04\n      add\n      tag_154\n      swap1\n      tag_155\n      jump\t// in\n    tag_154:\n      mload(0x40)\n      dup1\n      swap2\n      sub\n      swap1\n      revert\n    tag_153:\n        /* \"contracts/Vote.sol\":3143:3148  _date */\n      dup2\n        /* \"contracts/Vote.sol\":3112:3121  Elections */\n      0x09\n        /* \"contracts/Vote.sol\":3112:3134  Elections[electionNum] */\n      0x00\n        /* \"contracts/Vote.sol\":3122:3133  electionNum */\n      sload(0x05)\n        /* \"contracts/Vote.sol\":3112:3134  Elections[electionNum] */\n      dup2\n      mstore\n      0x20\n      add\n      swap1\n      dup2\n      mstore\n      0x20\n      add\n      0x00\n      keccak256\n        /* \"contracts/Vote.sol\":3112:3140  Elections[electionNum].start */\n      0x02\n      add\n        /* \"contracts/Vote.sol\":3112:3148  Elections[electionNum].start = _date */\n      dup2\n      swap1\n      sstore\n      pop\n        /* \"contracts/Vote.sol\":3191:3200  _duration */\n      dup1\n        /* \"contracts/Vote.sol\":3157:3166  Elections */\n      0x09\n        /* \"contracts/Vote.sol\":3157:3179  Elections[electionNum] */\n      0x00\n        /* \"contracts/Vote.sol\":3167:3178  electionNum */\n      sload(0x05)\n        /* \"contracts/Vote.sol\":3157:3179  Elections[electionNum] */\n      dup2\n      mstore\n      0x20\n      add\n      swap1\n      dup2\n      mstore\n      0x20\n      add\n      0x00\n      keccak256\n        /* \"contracts/Vote.sol\":3157:3188  Elections[electionNum].duration */\n      0x03\n      add\n        /* \"contracts/Vote.sol\":3157:3200  Elections[electionNum].duration = _duration */\n      dup2\n      swap1\n      sstore\n      pop\n        /* \"contracts/Vote.sol\":3214:3220  uint i */\n      0x00\n        /* \"contracts/Vote.sol\":3210:3408  for(uint i = 0; i < _candidateNum.length; i++){... */\n    tag_157:\n        /* \"contracts/Vote.sol\":3230:3243  _candidateNum */\n      dup4\n        /* \"contracts/Vote.sol\":3230:3250  _candidateNum.length */\n      mload\n        /* \"contracts/Vote.sol\":3226:3227  i */\n      dup2\n        /* \"contracts/Vote.sol\":3226:3250  i < _candidateNum.length */\n      lt\n        /* \"contracts/Vote.sol\":3210:3408  for(uint i = 0; i < _candidateNum.length; i++){... */\n      iszero\n      tag_158\n      jumpi\n        /* \"contracts/Vote.sol\":3269:3278  Elections */\n      0x09\n        /* \"contracts/Vote.sol\":3269:3291  Elections[electionNum] */\n      0x00\n        /* \"contracts/Vote.sol\":3279:3290  electionNum */\n      sload(0x05)\n        /* \"contracts/Vote.sol\":3269:3291  Elections[electionNum] */\n      dup2\n      mstore\n      0x20\n      add\n      swap1\n      dup2\n      mstore\n      0x20\n      add\n      0x00\n      keccak256\n        /* \"contracts/Vote.sol\":3269:3301  Elections[electionNum].candidate */\n      0x00\n      add\n        /* \"contracts/Vote.sol\":3307:3320  _candidateNum */\n      dup5\n        /* \"contracts/Vote.sol\":3321:3322  i */\n      dup3\n        /* \"contracts/Vote.sol\":3307:3323  _candidateNum[i] */\n      dup2\n      mload\n      dup2\n      lt\n      tag_160\n      jumpi\n      tag_161\n      tag_162\n      jump\t// in\n    tag_161:\n    tag_160:\n      0x20\n      mul\n      0x20\n      add\n      add\n      mload\n        /* \"contracts/Vote.sol\":3269:3324  Elections[electionNum].candidate.push(_candidateNum[i]) */\n      swap1\n      dup1\n      0x01\n      dup2\n      sload\n      add\n      dup1\n      dup3\n      sstore\n      dup1\n      swap2\n      pop\n      pop\n      0x01\n      swap1\n      sub\n      swap1\n      0x00\n      mstore\n      keccak256(0x00, 0x20)\n      add\n      0x00\n      swap1\n      swap2\n      swap1\n      swap2\n      swap1\n      swap2\n      0x0100\n      exp\n      dup2\n      sload\n      dup2\n      0xffffffffffffffffffffffffffffffffffffffff\n      mul\n      not\n      and\n      swap1\n      dup4\n      0xffffffffffffffffffffffffffffffffffffffff\n      and\n      mul\n      or\n      swap1\n      sstore\n      pop\n        /* \"contracts/Vote.sol\":3252:3255  i++ */\n      dup1\n      dup1\n      tag_164\n      swap1\n      tag_165\n      jump\t// in\n    tag_164:\n      swap2\n      pop\n      pop\n        /* \"contracts/Vote.sol\":3210:3408  for(uint i = 0; i < _candidateNum.length; i++){... */\n      jump(tag_157)\n    tag_158:\n      pop\n        /* \"contracts/Vote.sol\":3417:3428  electionNum */\n      0x05\n      0x00\n        /* \"contracts/Vote.sol\":3417:3431  electionNum ++ */\n      dup2\n      sload\n      dup1\n      swap3\n      swap2\n      swap1\n      tag_166\n      swap1\n      tag_165\n      jump\t// in\n    tag_166:\n      swap2\n      swap1\n      pop\n      sstore\n      pop\n        /* \"contracts/Vote.sol\":2995:3438  function createElection(address[] memory _candidateNum, uint256 _date, uint256 _duration) public isInecExec {... */\n      pop\n      pop\n      pop\n      jump\t// out\n        /* \"@openzeppelin/contracts/access/Ownable.sol\":1831:1932  function renounceOwnership() public virtual onlyOwner {... */\n    tag_65:\n        /* \"@openzeppelin/contracts/access/Ownable.sol\":1094:1107  _checkOwner() */\n      tag_168\n        /* \"@openzeppelin/contracts/access/Ownable.sol\":1094:1105  _checkOwner */\n      tag_169\n        /* \"@openzeppelin/contracts/access/Ownable.sol\":1094:1107  _checkOwner() */\n      jump\t// in\n    tag_168:\n        /* \"@openzeppelin/contracts/access/Ownable.sol\":1895:1925  _transferOwnership(address(0)) */\n      tag_171\n        /* \"@openzeppelin/contracts/access/Ownable.sol\":1922:1923  0 */\n      0x00\n        /* \"@openzeppelin/contracts/access/Ownable.sol\":1895:1913  _transferOwnership */\n      tag_172\n        /* \"@openzeppelin/contracts/access/Ownable.sol\":1895:1925  _transferOwnership(address(0)) */\n      jump\t// in\n    tag_171:\n        /* \"@openzeppelin/contracts/access/Ownable.sol\":1831:1932  function renounceOwnership() public virtual onlyOwner {... */\n      jump\t// out\n        /* \"@openzeppelin/contracts/access/Ownable.sol\":1201:1286  function owner() public view virtual returns (address) {... */\n    tag_67:\n        /* \"@openzeppelin/contracts/access/Ownable.sol\":1247:1254  address */\n      0x00\n        /* \"@openzeppelin/contracts/access/Ownable.sol\":1273:1279  _owner */\n      dup1\n      0x00\n      swap1\n      sload\n      swap1\n      0x0100\n      exp\n      swap1\n      div\n      0xffffffffffffffffffffffffffffffffffffffff\n      and\n        /* \"@openzeppelin/contracts/access/Ownable.sol\":1266:1279  return _owner */\n      swap1\n      pop\n        /* \"@openzeppelin/contracts/access/Ownable.sol\":1201:1286  function owner() public view virtual returns (address) {... */\n      swap1\n      jump\t// out\n        /* \"@openzeppelin/contracts/access/AccessControl.sol\":2895:3040  function hasRole(bytes32 role, address account) public view virtual override returns (bool) {... */\n    tag_72:\n        /* \"@openzeppelin/contracts/access/AccessControl.sol\":2981:2985  bool */\n      0x00\n        /* \"@openzeppelin/contracts/access/AccessControl.sol\":3004:3010  _roles */\n      0x01\n        /* \"@openzeppelin/contracts/access/AccessControl.sol\":3004:3016  _roles[role] */\n      0x00\n        /* \"@openzeppelin/contracts/access/AccessControl.sol\":3011:3015  role */\n      dup5\n        /* \"@openzeppelin/contracts/access/AccessControl.sol\":3004:3016  _roles[role] */\n      dup2\n      mstore\n      0x20\n      add\n      swap1\n      dup2\n      mstore\n      0x20\n      add\n      0x00\n      keccak256\n        /* \"@openzeppelin/contracts/access/AccessControl.sol\":3004:3024  _roles[role].members */\n      0x00\n      add\n        /* \"@openzeppelin/contracts/access/AccessControl.sol\":3004:3033  _roles[role].members[account] */\n      0x00\n        /* \"@openzeppelin/contracts/access/AccessControl.sol\":3025:3032  account */\n      dup4\n        /* \"@openzeppelin/contracts/access/AccessControl.sol\":3004:3033  _roles[role].members[account] */\n      0xffffffffffffffffffffffffffffffffffffffff\n      and\n      0xffffffffffffffffffffffffffffffffffffffff\n      and\n      dup2\n      mstore\n      0x20\n      add\n      swap1\n      dup2\n      mstore\n      0x20\n      add\n      0x00\n      keccak256\n      0x00\n      swap1\n      sload\n      swap1\n      0x0100\n      exp\n      swap1\n      div\n      0xff\n      and\n        /* \"@openzeppelin/contracts/access/AccessControl.sol\":2997:3033  return _roles[role].members[account] */\n      swap1\n      pop\n        /* \"@openzeppelin/contracts/access/AccessControl.sol\":2895:3040  function hasRole(bytes32 role, address account) public view virtual override returns (bool) {... */\n      swap3\n      swap2\n      pop\n      pop\n      jump\t// out\n        /* \"contracts/Vote.sol\":1224:1263  mapping(uint256 => voter) public Voters */\n    tag_76:\n      mstore(0x20, 0x08)\n      dup1\n      0x00\n      mstore\n      keccak256(0x00, 0x40)\n      0x00\n      swap2\n      pop\n      swap1\n      pop\n      dup1\n      0x00\n      add\n      0x00\n      swap1\n      sload\n      swap1\n      0x0100\n      exp\n      swap1\n      div\n      0xffffffffffffffffffffffffffffffffffffffff\n      and\n      swap1\n      dup1\n      0x01\n      add\n      sload\n      swap1\n      dup1\n      0x02\n      add\n      sload\n      swap1\n      dup1\n      0x03\n      add\n      0x00\n      swap1\n      sload\n      swap1\n      0x0100\n      exp\n      swap1\n      div\n      0xff\n      and\n      swap1\n      pop\n      dup5\n      jump\t// out\n        /* \"contracts/Vote.sol\":3718:3827  function getElection(uint256 num) public view returns (election memory){... */\n    tag_81:\n        /* \"contracts/Vote.sol\":3773:3788  election memory */\n      tag_175\n      tag_176\n      jump\t// in\n    tag_175:\n        /* \"contracts/Vote.sol\":3806:3815  Elections */\n      0x09\n        /* \"contracts/Vote.sol\":3806:3820  Elections[num] */\n      0x00\n        /* \"contracts/Vote.sol\":3816:3819  num */\n      dup4\n        /* \"contracts/Vote.sol\":3806:3820  Elections[num] */\n      dup2\n      mstore\n      0x20\n      add\n      swap1\n      dup2\n      mstore\n      0x20\n      add\n      0x00\n      keccak256\n        /* \"contracts/Vote.sol\":3799:3820  return Elections[num] */\n      mload(0x40)\n      dup1\n      0xa0\n      add\n      0x40\n      mstore\n      swap1\n      dup2\n      0x00\n      dup3\n      add\n      dup1\n      sload\n      dup1\n      0x20\n      mul\n      0x20\n      add\n      mload(0x40)\n      swap1\n      dup2\n      add\n      0x40\n      mstore\n      dup1\n      swap3\n      swap2\n      swap1\n      dup2\n      dup2\n      mstore\n      0x20\n      add\n      dup3\n      dup1\n      sload\n      dup1\n      iszero\n      tag_178\n      jumpi\n      0x20\n      mul\n      dup3\n      add\n      swap2\n      swap1\n      0x00\n      mstore\n      keccak256(0x00, 0x20)\n      swap1\n    tag_179:\n      dup2\n      0x00\n      swap1\n      sload\n      swap1\n      0x0100\n      exp\n      swap1\n      div\n      0xffffffffffffffffffffffffffffffffffffffff\n      and\n      0xffffffffffffffffffffffffffffffffffffffff\n      and\n      dup2\n      mstore\n      0x20\n      add\n      swap1\n      0x01\n      add\n      swap1\n      dup1\n      dup4\n      gt\n      tag_179\n      jumpi\n    tag_178:\n      pop\n      pop\n      pop\n      pop\n      pop\n      dup2\n      mstore\n      0x20\n      add\n      0x01\n      dup3\n      add\n      dup1\n      sload\n      dup1\n      0x20\n      mul\n      0x20\n      add\n      mload(0x40)\n      swap1\n      dup2\n      add\n      0x40\n      mstore\n      dup1\n      swap3\n      swap2\n      swap1\n      dup2\n      dup2\n      mstore\n      0x20\n      add\n      dup3\n      dup1\n      sload\n      dup1\n      iszero\n      tag_180\n      jumpi\n      0x20\n      mul\n      dup3\n      add\n      swap2\n      swap1\n      0x00\n      mstore\n      keccak256(0x00, 0x20)\n      swap1\n    tag_181:\n      dup2\n      sload\n      dup2\n      mstore\n      0x20\n      add\n      swap1\n      0x01\n      add\n      swap1\n      dup1\n      dup4\n      gt\n      tag_181\n      jumpi\n    tag_180:\n      pop\n      pop\n      pop\n      pop\n      pop\n      dup2\n      mstore\n      0x20\n      add\n      0x02\n      dup3\n      add\n      sload\n      dup2\n      mstore\n      0x20\n      add\n      0x03\n      dup3\n      add\n      sload\n      dup2\n      mstore\n      0x20\n      add\n      0x04\n      dup3\n      add\n      0x00\n      swap1\n      sload\n      swap1\n      0x0100\n      exp\n      swap1\n      div\n      0xff\n      and\n      iszero\n      iszero\n      iszero\n      iszero\n      dup2\n      mstore\n      pop\n      pop\n      swap1\n      pop\n        /* \"contracts/Vote.sol\":3718:3827  function getElection(uint256 num) public view returns (election memory){... */\n      swap2\n      swap1\n      pop\n      jump\t// out\n        /* \"contracts/Vote.sol\":3520:3637  function retrieveCandidate(uint256 num) public view returns (candidate memory){... */\n    tag_86:\n        /* \"contracts/Vote.sol\":3581:3597  candidate memory */\n      tag_182\n      tag_183\n      jump\t// in\n    tag_182:\n        /* \"contracts/Vote.sol\":3615:3625  Candidates */\n      0x07\n        /* \"contracts/Vote.sol\":3615:3630  Candidates[num] */\n      0x00\n        /* \"contracts/Vote.sol\":3626:3629  num */\n      dup4\n        /* \"contracts/Vote.sol\":3615:3630  Candidates[num] */\n      dup2\n      mstore\n      0x20\n      add\n      swap1\n      dup2\n      mstore\n      0x20\n      add\n      0x00\n      keccak256\n        /* \"contracts/Vote.sol\":3608:3630  return Candidates[num] */\n      mload(0x40)\n      dup1\n      0x60\n      add\n      0x40\n      mstore\n      swap1\n      dup2\n      0x00\n      dup3\n      add\n      dup1\n      sload\n      tag_185\n      swap1\n      tag_119\n      jump\t// in\n    tag_185:\n      dup1\n      0x1f\n      add\n      0x20\n      dup1\n      swap2\n      div\n      mul\n      0x20\n      add\n      mload(0x40)\n      swap1\n      dup2\n      add\n      0x40\n      mstore\n      dup1\n      swap3\n      swap2\n      swap1\n      dup2\n      dup2\n      mstore\n      0x20\n      add\n      dup3\n      dup1\n      sload\n      tag_186\n      swap1\n      tag_119\n      jump\t// in\n    tag_186:\n      dup1\n      iszero\n      tag_187\n      jumpi\n      dup1\n      0x1f\n      lt\n      tag_188\n      jumpi\n      0x0100\n      dup1\n      dup4\n      sload\n      div\n      mul\n      dup4\n      mstore\n      swap2\n      0x20\n      add\n      swap2\n      jump(tag_187)\n    tag_188:\n      dup3\n      add\n      swap2\n      swap1\n      0x00\n      mstore\n      keccak256(0x00, 0x20)\n      swap1\n    tag_189:\n      dup2\n      sload\n      dup2\n      mstore\n      swap1\n      0x01\n      add\n      swap1\n      0x20\n      add\n      dup1\n      dup4\n      gt\n      tag_189\n      jumpi\n      dup3\n      swap1\n      sub\n      0x1f\n      and\n      dup3\n      add\n      swap2\n    tag_187:\n      pop\n      pop\n      pop\n      pop\n      pop\n      dup2\n      mstore\n      0x20\n      add\n      0x01\n      dup3\n      add\n      0x00\n      swap1\n      sload\n      swap1\n      0x0100\n      exp\n      swap1\n      div\n      0xffffffffffffffffffffffffffffffffffffffff\n      and\n      0xffffffffffffffffffffffffffffffffffffffff\n      and\n      0xffffffffffffffffffffffffffffffffffffffff\n      and\n      dup2\n      mstore\n      0x20\n      add\n      0x02\n      dup3\n      add\n      dup1\n      sload\n      tag_190\n      swap1\n      tag_119\n      jump\t// in\n    tag_190:\n      dup1\n      0x1f\n      add\n      0x20\n      dup1\n      swap2\n      div\n      mul\n      0x20\n      add\n      mload(0x40)\n      swap1\n      dup2\n      add\n      0x40\n      mstore\n      dup1\n      swap3\n      swap2\n      swap1\n      dup2\n      dup2\n      mstore\n      0x20\n      add\n      dup3\n      dup1\n      sload\n      tag_191\n      swap1\n      tag_119\n      jump\t// in\n    tag_191:\n      dup1\n      iszero\n      tag_192\n      jumpi\n      dup1\n      0x1f\n      lt\n      tag_193\n      jumpi\n      0x0100\n      dup1\n      dup4\n      sload\n      div\n      mul\n      dup4\n      mstore\n      swap2\n      0x20\n      add\n      swap2\n      jump(tag_192)\n    tag_193:\n      dup3\n      add\n      swap2\n      swap1\n      0x00\n      mstore\n      keccak256(0x00, 0x20)\n      swap1\n    tag_194:\n      dup2\n      sload\n      dup2\n      mstore\n      swap1\n      0x01\n      add\n      swap1\n      0x20\n      add\n      dup1\n      dup4\n      gt\n      tag_194\n      jumpi\n      dup3\n      swap1\n      sub\n      0x1f\n      and\n      dup3\n      add\n      swap2\n    tag_192:\n      pop\n      pop\n      pop\n      pop\n      pop\n      dup2\n      mstore\n      pop\n      pop\n      swap1\n      pop\n        /* \"contracts/Vote.sol\":3520:3637  function retrieveCandidate(uint256 num) public view returns (candidate memory){... */\n      swap2\n      swap1\n      pop\n      jump\t// out\n        /* \"@openzeppelin/contracts/access/AccessControl.sol\":2027:2076  bytes32 public constant DEFAULT_ADMIN_ROLE = 0x00 */\n    tag_90:\n        /* \"@openzeppelin/contracts/access/AccessControl.sol\":2072:2076  0x00 */\n      0x00\n        /* \"@openzeppelin/contracts/access/AccessControl.sol\":2027:2076  bytes32 public constant DEFAULT_ADMIN_ROLE = 0x00 */\n      dup1\n      shl\n      dup2\n      jump\t// out\n        /* \"contracts/Vote.sol\":586:641  bytes32 public constant VOTER_ROLE = keccak256(\"VOTER\") */\n    tag_93:\n        /* \"contracts/Vote.sol\":623:641  keccak256(\"VOTER\") */\n      0x15283fd96aa656c9df35ac2fcb112678a5f24f1ca97e591a97d1d16003dbfc9c\n        /* \"contracts/Vote.sol\":586:641  bytes32 public constant VOTER_ROLE = keccak256(\"VOTER\") */\n      dup2\n      jump\t// out\n        /* \"@openzeppelin/contracts/access/AccessControl.sol\":5241:5388  function revokeRole(bytes32 role, address account) public virtual override onlyRole(getRoleAdmin(role)) {... */\n    tag_97:\n        /* \"@openzeppelin/contracts/access/AccessControl.sol\":5325:5343  getRoleAdmin(role) */\n      tag_195\n        /* \"@openzeppelin/contracts/access/AccessControl.sol\":5338:5342  role */\n      dup3\n        /* \"@openzeppelin/contracts/access/AccessControl.sol\":5325:5337  getRoleAdmin */\n      tag_36\n        /* \"@openzeppelin/contracts/access/AccessControl.sol\":5325:5343  getRoleAdmin(role) */\n      jump\t// in\n    tag_195:\n        /* \"@openzeppelin/contracts/access/AccessControl.sol\":2505:2521  _checkRole(role) */\n      tag_197\n        /* \"@openzeppelin/contracts/access/AccessControl.sol\":2516:2520  role */\n      dup2\n        /* \"@openzeppelin/contracts/access/AccessControl.sol\":2505:2515  _checkRole */\n      tag_132\n        /* \"@openzeppelin/contracts/access/AccessControl.sol\":2505:2521  _checkRole(role) */\n      jump\t// in\n    tag_197:\n        /* \"@openzeppelin/contracts/access/AccessControl.sol\":5355:5381  _revokeRole(role, account) */\n      tag_199\n        /* \"@openzeppelin/contracts/access/AccessControl.sol\":5367:5371  role */\n      dup4\n        /* \"@openzeppelin/contracts/access/AccessControl.sol\":5373:5380  account */\n      dup4\n        /* \"@openzeppelin/contracts/access/AccessControl.sol\":5355:5366  _revokeRole */\n      tag_150\n        /* \"@openzeppelin/contracts/access/AccessControl.sol\":5355:5381  _revokeRole(role, account) */\n      jump\t// in\n    tag_199:\n        /* \"@openzeppelin/contracts/access/AccessControl.sol\":5241:5388  function revokeRole(bytes32 role, address account) public virtual override onlyRole(getRoleAdmin(role)) {... */\n      pop\n      pop\n      pop\n      jump\t// out\n        /* \"contracts/Vote.sol\":2247:2546  function createCandidate(string memory name, address candAddress, uint256 partyNum) public isInecExec {... */\n    tag_101:\n        /* \"contracts/Vote.sol\":1520:1555  hasRole(INEC_EXEC_ROLE, msg.sender) */\n      tag_201\n        /* \"contracts/Vote.sol\":558:580  keccak256(\"INEC_EXEC\") */\n      0x082f6ed76e0352438e6a6e35c77719c3f04bf277fdc8fec7e5ff5f65e001d902\n        /* \"contracts/Vote.sol\":1544:1554  msg.sender */\n      caller\n        /* \"contracts/Vote.sol\":1520:1527  hasRole */\n      tag_72\n        /* \"contracts/Vote.sol\":1520:1555  hasRole(INEC_EXEC_ROLE, msg.sender) */\n      jump\t// in\n    tag_201:\n        /* \"contracts/Vote.sol\":1512:1591  require(hasRole(INEC_EXEC_ROLE, msg.sender), \"Caller is not an INEC executive\") */\n      tag_202\n      jumpi\n      mload(0x40)\n      0x08c379a000000000000000000000000000000000000000000000000000000000\n      dup2\n      mstore\n      0x04\n      add\n      tag_203\n      swap1\n      tag_155\n      jump\t// in\n    tag_203:\n      mload(0x40)\n      dup1\n      swap2\n      sub\n      swap1\n      revert\n    tag_202:\n        /* \"contracts/Vote.sol\":2391:2395  name */\n      dup3\n        /* \"contracts/Vote.sol\":2359:2369  Candidates */\n      0x07\n        /* \"contracts/Vote.sol\":2359:2383  Candidates[candidateNum] */\n      0x00\n        /* \"contracts/Vote.sol\":2370:2382  candidateNum */\n      sload(0x03)\n        /* \"contracts/Vote.sol\":2359:2383  Candidates[candidateNum] */\n      dup2\n      mstore\n      0x20\n      add\n      swap1\n      dup2\n      mstore\n      0x20\n      add\n      0x00\n      keccak256\n        /* \"contracts/Vote.sol\":2359:2388  Candidates[candidateNum].name */\n      0x00\n      add\n        /* \"contracts/Vote.sol\":2359:2395  Candidates[candidateNum].name = name */\n      swap1\n      dup1\n      mload\n      swap1\n      0x20\n      add\n      swap1\n      tag_205\n      swap3\n      swap2\n      swap1\n      tag_206\n      jump\t// in\n    tag_205:\n      pop\n        /* \"contracts/Vote.sol\":2437:2448  candAddress */\n      dup2\n        /* \"contracts/Vote.sol\":2405:2415  Candidates */\n      0x07\n        /* \"contracts/Vote.sol\":2405:2429  Candidates[candidateNum] */\n      0x00\n        /* \"contracts/Vote.sol\":2416:2428  candidateNum */\n      sload(0x03)\n        /* \"contracts/Vote.sol\":2405:2429  Candidates[candidateNum] */\n      dup2\n      mstore\n      0x20\n      add\n      swap1\n      dup2\n      mstore\n      0x20\n      add\n      0x00\n      keccak256\n        /* \"contracts/Vote.sol\":2405:2434  Candidates[candidateNum].addr */\n      0x01\n      add\n      0x00\n        /* \"contracts/Vote.sol\":2405:2448  Candidates[candidateNum].addr = candAddress */\n      0x0100\n      exp\n      dup2\n      sload\n      dup2\n      0xffffffffffffffffffffffffffffffffffffffff\n      mul\n      not\n      and\n      swap1\n      dup4\n      0xffffffffffffffffffffffffffffffffffffffff\n      and\n      mul\n      or\n      swap1\n      sstore\n      pop\n        /* \"contracts/Vote.sol\":2491:2496  party */\n      0x06\n        /* \"contracts/Vote.sol\":2497:2505  partyNum */\n      dup2\n        /* \"contracts/Vote.sol\":2491:2506  party[partyNum] */\n      dup2\n      sload\n      dup2\n      lt\n      tag_207\n      jumpi\n      tag_208\n      tag_162\n      jump\t// in\n    tag_208:\n    tag_207:\n      swap1\n      0x00\n      mstore\n      keccak256(0x00, 0x20)\n      add\n        /* \"contracts/Vote.sol\":2458:2468  Candidates */\n      0x07\n        /* \"contracts/Vote.sol\":2458:2482  Candidates[candidateNum] */\n      0x00\n        /* \"contracts/Vote.sol\":2469:2481  candidateNum */\n      sload(0x03)\n        /* \"contracts/Vote.sol\":2458:2482  Candidates[candidateNum] */\n      dup2\n      mstore\n      0x20\n      add\n      swap1\n      dup2\n      mstore\n      0x20\n      add\n      0x00\n      keccak256\n        /* \"contracts/Vote.sol\":2458:2488  Candidates[candidateNum].party */\n      0x02\n      add\n        /* \"contracts/Vote.sol\":2458:2506  Candidates[candidateNum].party = party[partyNum] */\n      swap1\n      dup1\n      sload\n      tag_210\n      swap1\n      tag_119\n      jump\t// in\n    tag_210:\n      tag_211\n      swap3\n      swap2\n      swap1\n      tag_212\n      jump\t// in\n    tag_211:\n      pop\n        /* \"contracts/Vote.sol\":2518:2530  candidateNum */\n      0x03\n      0x00\n        /* \"contracts/Vote.sol\":2518:2533  candidateNum ++ */\n      dup2\n      sload\n      dup1\n      swap3\n      swap2\n      swap1\n      tag_213\n      swap1\n      tag_165\n      jump\t// in\n    tag_213:\n      swap2\n      swap1\n      pop\n      sstore\n      pop\n        /* \"contracts/Vote.sol\":2247:2546  function createCandidate(string memory name, address candAddress, uint256 partyNum) public isInecExec {... */\n      pop\n      pop\n      pop\n      jump\t// out\n        /* \"contracts/Vote.sol\":1927:2037  function createInecExec(address _account) public onlyOwner{... */\n    tag_105:\n        /* \"@openzeppelin/contracts/access/Ownable.sol\":1094:1107  _checkOwner() */\n      tag_215\n        /* \"@openzeppelin/contracts/access/Ownable.sol\":1094:1105  _checkOwner */\n      tag_169\n        /* \"@openzeppelin/contracts/access/Ownable.sol\":1094:1107  _checkOwner() */\n      jump\t// in\n    tag_215:\n        /* \"contracts/Vote.sol\":1995:2030  grantRole(INEC_EXEC_ROLE, _account) */\n      tag_217\n        /* \"contracts/Vote.sol\":558:580  keccak256(\"INEC_EXEC\") */\n      0x082f6ed76e0352438e6a6e35c77719c3f04bf277fdc8fec7e5ff5f65e001d902\n        /* \"contracts/Vote.sol\":2021:2029  _account */\n      dup3\n        /* \"contracts/Vote.sol\":1995:2004  grantRole */\n      tag_51\n        /* \"contracts/Vote.sol\":1995:2030  grantRole(INEC_EXEC_ROLE, _account) */\n      jump\t// in\n    tag_217:\n        /* \"contracts/Vote.sol\":1927:2037  function createInecExec(address _account) public onlyOwner{... */\n      pop\n      jump\t// out\n        /* \"contracts/Vote.sol\":2671:2857  function regVoter(address _account, uint256 _nin) public {... */\n    tag_109:\n        /* \"contracts/Vote.sol\":2762:2770  _account */\n      dup2\n        /* \"contracts/Vote.sol\":2738:2744  Voters */\n      0x08\n        /* \"contracts/Vote.sol\":2738:2754  Voters[voterNum] */\n      0x00\n        /* \"contracts/Vote.sol\":2745:2753  voterNum */\n      sload(0x04)\n        /* \"contracts/Vote.sol\":2738:2754  Voters[voterNum] */\n      dup2\n      mstore\n      0x20\n      add\n      swap1\n      dup2\n      mstore\n      0x20\n      add\n      0x00\n      keccak256\n        /* \"contracts/Vote.sol\":2738:2759  Voters[voterNum].addr */\n      0x00\n      add\n      0x00\n        /* \"contracts/Vote.sol\":2738:2770  Voters[voterNum].addr = _account */\n      0x0100\n      exp\n      dup2\n      sload\n      dup2\n      0xffffffffffffffffffffffffffffffffffffffff\n      mul\n      not\n      and\n      swap1\n      dup4\n      0xffffffffffffffffffffffffffffffffffffffff\n      and\n      mul\n      or\n      swap1\n      sstore\n      pop\n        /* \"contracts/Vote.sol\":2803:2807  _nin */\n      dup1\n        /* \"contracts/Vote.sol\":2780:2786  Voters */\n      0x08\n        /* \"contracts/Vote.sol\":2780:2796  Voters[voterNum] */\n      0x00\n        /* \"contracts/Vote.sol\":2787:2795  voterNum */\n      sload(0x04)\n        /* \"contracts/Vote.sol\":2780:2796  Voters[voterNum] */\n      dup2\n      mstore\n      0x20\n      add\n      swap1\n      dup2\n      mstore\n      0x20\n      add\n      0x00\n      keccak256\n        /* \"contracts/Vote.sol\":2780:2800  Voters[voterNum].nin */\n      0x01\n      add\n        /* \"contracts/Vote.sol\":2780:2807  Voters[voterNum].nin = _nin */\n      dup2\n      swap1\n      sstore\n      pop\n        /* \"contracts/Vote.sol\":2818:2850  _setupRole(VOTER_ROLE, _account) */\n      tag_219\n        /* \"contracts/Vote.sol\":623:641  keccak256(\"VOTER\") */\n      0x15283fd96aa656c9df35ac2fcb112678a5f24f1ca97e591a97d1d16003dbfc9c\n        /* \"contracts/Vote.sol\":2841:2849  _account */\n      dup4\n        /* \"contracts/Vote.sol\":2818:2828  _setupRole */\n      tag_220\n        /* \"contracts/Vote.sol\":2818:2850  _setupRole(VOTER_ROLE, _account) */\n      jump\t// in\n    tag_219:\n        /* \"contracts/Vote.sol\":2671:2857  function regVoter(address _account, uint256 _nin) public {... */\n      pop\n      pop\n      jump\t// out\n        /* \"@openzeppelin/contracts/access/Ownable.sol\":2081:2279  function transferOwnership(address newOwner) public virtual onlyOwner {... */\n    tag_112:\n        /* \"@openzeppelin/contracts/access/Ownable.sol\":1094:1107  _checkOwner() */\n      tag_222\n        /* \"@openzeppelin/contracts/access/Ownable.sol\":1094:1105  _checkOwner */\n      tag_169\n        /* \"@openzeppelin/contracts/access/Ownable.sol\":1094:1107  _checkOwner() */\n      jump\t// in\n    tag_222:\n        /* \"@openzeppelin/contracts/access/Ownable.sol\":2189:2190  0 */\n      0x00\n        /* \"@openzeppelin/contracts/access/Ownable.sol\":2169:2191  newOwner != address(0) */\n      0xffffffffffffffffffffffffffffffffffffffff\n      and\n        /* \"@openzeppelin/contracts/access/Ownable.sol\":2169:2177  newOwner */\n      dup2\n        /* \"@openzeppelin/contracts/access/Ownable.sol\":2169:2191  newOwner != address(0) */\n      0xffffffffffffffffffffffffffffffffffffffff\n      and\n      eq\n      iszero\n        /* \"@openzeppelin/contracts/access/Ownable.sol\":2161:2234  require(newOwner != address(0), \"Ownable: new owner is the zero address\") */\n      tag_224\n      jumpi\n      mload(0x40)\n      0x08c379a000000000000000000000000000000000000000000000000000000000\n      dup2\n      mstore\n      0x04\n      add\n      tag_225\n      swap1\n      tag_226\n      jump\t// in\n    tag_225:\n      mload(0x40)\n      dup1\n      swap2\n      sub\n      swap1\n      revert\n    tag_224:\n        /* \"@openzeppelin/contracts/access/Ownable.sol\":2244:2272  _transferOwnership(newOwner) */\n      tag_227\n        /* \"@openzeppelin/contracts/access/Ownable.sol\":2263:2271  newOwner */\n      dup2\n        /* \"@openzeppelin/contracts/access/Ownable.sol\":2244:2262  _transferOwnership */\n      tag_172\n        /* \"@openzeppelin/contracts/access/Ownable.sol\":2244:2272  _transferOwnership(newOwner) */\n      jump\t// in\n    tag_227:\n        /* \"@openzeppelin/contracts/access/Ownable.sol\":2081:2279  function transferOwnership(address newOwner) public virtual onlyOwner {... */\n      pop\n      jump\t// out\n        /* \"@openzeppelin/contracts/utils/introspection/ERC165.sol\":829:984  function supportsInterface(bytes4 interfaceId) public view virtual override returns (bool) {... */\n    tag_116:\n        /* \"@openzeppelin/contracts/utils/introspection/ERC165.sol\":914:918  bool */\n      0x00\n        /* \"@openzeppelin/contracts/utils/introspection/ERC165.sol\":952:977  type(IERC165).interfaceId */\n      0x01ffc9a700000000000000000000000000000000000000000000000000000000\n        /* \"@openzeppelin/contracts/utils/introspection/ERC165.sol\":937:977  interfaceId == type(IERC165).interfaceId */\n      not(0xffffffffffffffffffffffffffffffffffffffffffffffffffffffff)\n      and\n        /* \"@openzeppelin/contracts/utils/introspection/ERC165.sol\":937:948  interfaceId */\n      dup3\n        /* \"@openzeppelin/contracts/utils/introspection/ERC165.sol\":937:977  interfaceId == type(IERC165).interfaceId */\n      not(0xffffffffffffffffffffffffffffffffffffffffffffffffffffffff)\n      and\n      eq\n        /* \"@openzeppelin/contracts/utils/introspection/ERC165.sol\":930:977  return interfaceId == type(IERC165).interfaceId */\n      swap1\n      pop\n        /* \"@openzeppelin/contracts/utils/introspection/ERC165.sol\":829:984  function supportsInterface(bytes4 interfaceId) public view virtual override returns (bool) {... */\n      swap2\n      swap1\n      pop\n      jump\t// out\n        /* \"@openzeppelin/contracts/access/AccessControl.sol\":3334:3437  function _checkRole(bytes32 role) internal view virtual {... */\n    tag_132:\n        /* \"@openzeppelin/contracts/access/AccessControl.sol\":3400:3430  _checkRole(role, _msgSender()) */\n      tag_230\n        /* \"@openzeppelin/contracts/access/AccessControl.sol\":3411:3415  role */\n      dup2\n        /* \"@openzeppelin/contracts/access/AccessControl.sol\":3417:3429  _msgSender() */\n      tag_231\n        /* \"@openzeppelin/contracts/access/AccessControl.sol\":3417:3427  _msgSender */\n      tag_145\n        /* \"@openzeppelin/contracts/access/AccessControl.sol\":3417:3429  _msgSender() */\n      jump\t// in\n    tag_231:\n        /* \"@openzeppelin/contracts/access/AccessControl.sol\":3400:3410  _checkRole */\n      tag_232\n        /* \"@openzeppelin/contracts/access/AccessControl.sol\":3400:3430  _checkRole(role, _msgSender()) */\n      jump\t// in\n    tag_230:\n        /* \"@openzeppelin/contracts/access/AccessControl.sol\":3334:3437  function _checkRole(bytes32 role) internal view virtual {... */\n      pop\n      jump\t// out\n        /* \"@openzeppelin/contracts/access/AccessControl.sol\":7474:7707  function _grantRole(bytes32 role, address account) internal virtual {... */\n    tag_135:\n        /* \"@openzeppelin/contracts/access/AccessControl.sol\":7557:7579  hasRole(role, account) */\n      tag_234\n        /* \"@openzeppelin/contracts/access/AccessControl.sol\":7565:7569  role */\n      dup3\n        /* \"@openzeppelin/contracts/access/AccessControl.sol\":7571:7578  account */\n      dup3\n        /* \"@openzeppelin/contracts/access/AccessControl.sol\":7557:7564  hasRole */\n      tag_72\n        /* \"@openzeppelin/contracts/access/AccessControl.sol\":7557:7579  hasRole(role, account) */\n      jump\t// in\n    tag_234:\n        /* \"@openzeppelin/contracts/access/AccessControl.sol\":7552:7701  if (!hasRole(role, account)) {... */\n      tag_235\n      jumpi\n        /* \"@openzeppelin/contracts/access/AccessControl.sol\":7627:7631  true */\n      0x01\n        /* \"@openzeppelin/contracts/access/AccessControl.sol\":7595:7601  _roles */\n      dup1\n        /* \"@openzeppelin/contracts/access/AccessControl.sol\":7595:7607  _roles[role] */\n      0x00\n        /* \"@openzeppelin/contracts/access/AccessControl.sol\":7602:7606  role */\n      dup5\n        /* \"@openzeppelin/contracts/access/AccessControl.sol\":7595:7607  _roles[role] */\n      dup2\n      mstore\n      0x20\n      add\n      swap1\n      dup2\n      mstore\n      0x20\n      add\n      0x00\n      keccak256\n        /* \"@openzeppelin/contracts/access/AccessControl.sol\":7595:7615  _roles[role].members */\n      0x00\n      add\n        /* \"@openzeppelin/contracts/access/AccessControl.sol\":7595:7624  _roles[role].members[account] */\n      0x00\n        /* \"@openzeppelin/contracts/access/AccessControl.sol\":7616:7623  account */\n      dup4\n        /* \"@openzeppelin/contracts/access/AccessControl.sol\":7595:7624  _roles[role].members[account] */\n      0xffffffffffffffffffffffffffffffffffffffff\n      and\n      0xffffffffffffffffffffffffffffffffffffffff\n      and\n      dup2\n      mstore\n      0x20\n      add\n      swap1\n      dup2\n      mstore\n      0x20\n      add\n      0x00\n      keccak256\n      0x00\n        /* \"@openzeppelin/contracts/access/AccessControl.sol\":7595:7631  _roles[role].members[account] = true */\n      0x0100\n      exp\n      dup2\n      sload\n      dup2\n      0xff\n      mul\n      not\n      and\n      swap1\n      dup4\n      iszero\n      iszero\n      mul\n      or\n      swap1\n      sstore\n      pop\n        /* \"@openzeppelin/contracts/access/AccessControl.sol\":7677:7689  _msgSender() */\n      tag_236\n        /* \"@openzeppelin/contracts/access/AccessControl.sol\":7677:7687  _msgSender */\n      tag_145\n        /* \"@openzeppelin/contracts/access/AccessControl.sol\":7677:7689  _msgSender() */\n      jump\t// in\n    tag_236:\n        /* \"@openzeppelin/contracts/access/AccessControl.sol\":7650:7690  RoleGranted(role, account, _msgSender()) */\n      0xffffffffffffffffffffffffffffffffffffffff\n      and\n        /* \"@openzeppelin/contracts/access/AccessControl.sol\":7668:7675  account */\n      dup2\n        /* \"@openzeppelin/contracts/access/AccessControl.sol\":7650:7690  RoleGranted(role, account, _msgSender()) */\n      0xffffffffffffffffffffffffffffffffffffffff\n      and\n        /* \"@openzeppelin/contracts/access/AccessControl.sol\":7662:7666  role */\n      dup4\n        /* \"@openzeppelin/contracts/access/AccessControl.sol\":7650:7690  RoleGranted(role, account, _msgSender()) */\n      0x2f8788117e7eff1d82e926ec794901d17c78024a50270940304540a733656f0d\n      mload(0x40)\n      mload(0x40)\n      dup1\n      swap2\n      sub\n      swap1\n      log4\n        /* \"@openzeppelin/contracts/access/AccessControl.sol\":7552:7701  if (!hasRole(role, account)) {... */\n    tag_235:\n        /* \"@openzeppelin/contracts/access/AccessControl.sol\":7474:7707  function _grantRole(bytes32 role, address account) internal virtual {... */\n      pop\n      pop\n      jump\t// out\n        /* \"@openzeppelin/contracts/utils/Context.sol\":640:736  function _msgSender() internal view virtual returns (address) {... */\n    tag_145:\n        /* \"@openzeppelin/contracts/utils/Context.sol\":693:700  address */\n      0x00\n        /* \"@openzeppelin/contracts/utils/Context.sol\":719:729  msg.sender */\n      caller\n        /* \"@openzeppelin/contracts/utils/Context.sol\":712:729  return msg.sender */\n      swap1\n      pop\n        /* \"@openzeppelin/contracts/utils/Context.sol\":640:736  function _msgSender() internal view virtual returns (address) {... */\n      swap1\n      jump\t// out\n        /* \"@openzeppelin/contracts/access/AccessControl.sol\":7878:8112  function _revokeRole(bytes32 role, address account) internal virtual {... */\n    tag_150:\n        /* \"@openzeppelin/contracts/access/AccessControl.sol\":7961:7983  hasRole(role, account) */\n      tag_239\n        /* \"@openzeppelin/contracts/access/AccessControl.sol\":7969:7973  role */\n      dup3\n        /* \"@openzeppelin/contracts/access/AccessControl.sol\":7975:7982  account */\n      dup3\n        /* \"@openzeppelin/contracts/access/AccessControl.sol\":7961:7968  hasRole */\n      tag_72\n        /* \"@openzeppelin/contracts/access/AccessControl.sol\":7961:7983  hasRole(role, account) */\n      jump\t// in\n    tag_239:\n        /* \"@openzeppelin/contracts/access/AccessControl.sol\":7957:8106  if (hasRole(role, account)) {... */\n      iszero\n      tag_240\n      jumpi\n        /* \"@openzeppelin/contracts/access/AccessControl.sol\":8031:8036  false */\n      0x00\n        /* \"@openzeppelin/contracts/access/AccessControl.sol\":7999:8005  _roles */\n      0x01\n        /* \"@openzeppelin/contracts/access/AccessControl.sol\":7999:8011  _roles[role] */\n      0x00\n        /* \"@openzeppelin/contracts/access/AccessControl.sol\":8006:8010  role */\n      dup5\n        /* \"@openzeppelin/contracts/access/AccessControl.sol\":7999:8011  _roles[role] */\n      dup2\n      mstore\n      0x20\n      add\n      swap1\n      dup2\n      mstore\n      0x20\n      add\n      0x00\n      keccak256\n        /* \"@openzeppelin/contracts/access/AccessControl.sol\":7999:8019  _roles[role].members */\n      0x00\n      add\n        /* \"@openzeppelin/contracts/access/AccessControl.sol\":7999:8028  _roles[role].members[account] */\n      0x00\n        /* \"@openzeppelin/contracts/access/AccessControl.sol\":8020:8027  account */\n      dup4\n        /* \"@openzeppelin/contracts/access/AccessControl.sol\":7999:8028  _roles[role].members[account] */\n      0xffffffffffffffffffffffffffffffffffffffff\n      and\n      0xffffffffffffffffffffffffffffffffffffffff\n      and\n      dup2\n      mstore\n      0x20\n      add\n      swap1\n      dup2\n      mstore\n      0x20\n      add\n      0x00\n      keccak256\n      0x00\n        /* \"@openzeppelin/contracts/access/AccessControl.sol\":7999:8036  _roles[role].members[account] = false */\n      0x0100\n      exp\n      dup2\n      sload\n      dup2\n      0xff\n      mul\n      not\n      and\n      swap1\n      dup4\n      iszero\n      iszero\n      mul\n      or\n      swap1\n      sstore\n      pop\n        /* \"@openzeppelin/contracts/access/AccessControl.sol\":8082:8094  _msgSender() */\n      tag_241\n        /* \"@openzeppelin/contracts/access/AccessControl.sol\":8082:8092  _msgSender */\n      tag_145\n        /* \"@openzeppelin/contracts/access/AccessControl.sol\":8082:8094  _msgSender() */\n      jump\t// in\n    tag_241:\n        /* \"@openzeppelin/contracts/access/AccessControl.sol\":8055:8095  RoleRevoked(role, account, _msgSender()) */\n      0xffffffffffffffffffffffffffffffffffffffff\n      and\n        /* \"@openzeppelin/contracts/access/AccessControl.sol\":8073:8080  account */\n      dup2\n        /* \"@openzeppelin/contracts/access/AccessControl.sol\":8055:8095  RoleRevoked(role, account, _msgSender()) */\n      0xffffffffffffffffffffffffffffffffffffffff\n      and\n        /* \"@openzeppelin/contracts/access/AccessControl.sol\":8067:8071  role */\n      dup4\n        /* \"@openzeppelin/contracts/access/AccessControl.sol\":8055:8095  RoleRevoked(role, account, _msgSender()) */\n      0xf6391f5c32d9c69d2a47ea670b442974b53935d1edc7fd64eb21e047a839171b\n      mload(0x40)\n      mload(0x40)\n      dup1\n      swap2\n      sub\n      swap1\n      log4\n        /* \"@openzeppelin/contracts/access/AccessControl.sol\":7957:8106  if (hasRole(role, account)) {... */\n    tag_240:\n        /* \"@openzeppelin/contracts/access/AccessControl.sol\":7878:8112  function _revokeRole(bytes32 role, address account) internal virtual {... */\n      pop\n      pop\n      jump\t// out\n        /* \"@openzeppelin/contracts/access/Ownable.sol\":1359:1489  function _checkOwner() internal view virtual {... */\n    tag_169:\n        /* \"@openzeppelin/contracts/access/Ownable.sol\":1433:1445  _msgSender() */\n      tag_243\n        /* \"@openzeppelin/contracts/access/Ownable.sol\":1433:1443  _msgSender */\n      tag_145\n        /* \"@openzeppelin/contracts/access/Ownable.sol\":1433:1445  _msgSender() */\n      jump\t// in\n    tag_243:\n        /* \"@openzeppelin/contracts/access/Ownable.sol\":1422:1445  owner() == _msgSender() */\n      0xffffffffffffffffffffffffffffffffffffffff\n      and\n        /* \"@openzeppelin/contracts/access/Ownable.sol\":1422:1429  owner() */\n      tag_244\n        /* \"@openzeppelin/contracts/access/Ownable.sol\":1422:1427  owner */\n      tag_67\n        /* \"@openzeppelin/contracts/access/Ownable.sol\":1422:1429  owner() */\n      jump\t// in\n    tag_244:\n        /* \"@openzeppelin/contracts/access/Ownable.sol\":1422:1445  owner() == _msgSender() */\n      0xffffffffffffffffffffffffffffffffffffffff\n      and\n      eq\n        /* \"@openzeppelin/contracts/access/Ownable.sol\":1414:1482  require(owner() == _msgSender(), \"Ownable: caller is not the owner\") */\n      tag_245\n      jumpi\n      mload(0x40)\n      0x08c379a000000000000000000000000000000000000000000000000000000000\n      dup2\n      mstore\n      0x04\n      add\n      tag_246\n      swap1\n      tag_247\n      jump\t// in\n    tag_246:\n      mload(0x40)\n      dup1\n      swap2\n      sub\n      swap1\n      revert\n    tag_245:\n        /* \"@openzeppelin/contracts/access/Ownable.sol\":1359:1489  function _checkOwner() internal view virtual {... */\n      jump\t// out\n        /* \"@openzeppelin/contracts/access/Ownable.sol\":2433:2620  function _transferOwnership(address newOwner) internal virtual {... */\n    tag_172:\n        /* \"@openzeppelin/contracts/access/Ownable.sol\":2506:2522  address oldOwner */\n      0x00\n        /* \"@openzeppelin/contracts/access/Ownable.sol\":2525:2531  _owner */\n      dup1\n      0x00\n      swap1\n      sload\n      swap1\n      0x0100\n      exp\n      swap1\n      div\n      0xffffffffffffffffffffffffffffffffffffffff\n      and\n        /* \"@openzeppelin/contracts/access/Ownable.sol\":2506:2531  address oldOwner = _owner */\n      swap1\n      pop\n        /* \"@openzeppelin/contracts/access/Ownable.sol\":2550:2558  newOwner */\n      dup2\n        /* \"@openzeppelin/contracts/access/Ownable.sol\":2541:2547  _owner */\n      0x00\n      dup1\n        /* \"@openzeppelin/contracts/access/Ownable.sol\":2541:2558  _owner = newOwner */\n      0x0100\n      exp\n      dup2\n      sload\n      dup2\n      0xffffffffffffffffffffffffffffffffffffffff\n      mul\n      not\n      and\n      swap1\n      dup4\n      0xffffffffffffffffffffffffffffffffffffffff\n      and\n      mul\n      or\n      swap1\n      sstore\n      pop\n        /* \"@openzeppelin/contracts/access/Ownable.sol\":2604:2612  newOwner */\n      dup2\n        /* \"@openzeppelin/contracts/access/Ownable.sol\":2573:2613  OwnershipTransferred(oldOwner, newOwner) */\n      0xffffffffffffffffffffffffffffffffffffffff\n      and\n        /* \"@openzeppelin/contracts/access/Ownable.sol\":2594:2602  oldOwner */\n      dup2\n        /* \"@openzeppelin/contracts/access/Ownable.sol\":2573:2613  OwnershipTransferred(oldOwner, newOwner) */\n      0xffffffffffffffffffffffffffffffffffffffff\n      and\n      0x8be0079c531659141344cd1fd0a4f28419497f9722a3daafe3b4186f6b6457e0\n      mload(0x40)\n      mload(0x40)\n      dup1\n      swap2\n      sub\n      swap1\n      log3\n        /* \"@openzeppelin/contracts/access/Ownable.sol\":2496:2620  {... */\n      pop\n        /* \"@openzeppelin/contracts/access/Ownable.sol\":2433:2620  function _transferOwnership(address newOwner) internal virtual {... */\n      pop\n      jump\t// out\n        /* \"@openzeppelin/contracts/access/AccessControl.sol\":6824:6934  function _setupRole(bytes32 role, address account) internal virtual {... */\n    tag_220:\n        /* \"@openzeppelin/contracts/access/AccessControl.sol\":6902:6927  _grantRole(role, account) */\n      tag_250\n        /* \"@openzeppelin/contracts/access/AccessControl.sol\":6913:6917  role */\n      dup3\n        /* \"@openzeppelin/contracts/access/AccessControl.sol\":6919:6926  account */\n      dup3\n        /* \"@openzeppelin/contracts/access/AccessControl.sol\":6902:6912  _grantRole */\n      tag_135\n        /* \"@openzeppelin/contracts/access/AccessControl.sol\":6902:6927  _grantRole(role, account) */\n      jump\t// in\n    tag_250:\n        /* \"@openzeppelin/contracts/access/AccessControl.sol\":6824:6934  function _setupRole(bytes32 role, address account) internal virtual {... */\n      pop\n      pop\n      jump\t// out\n        /* \"@openzeppelin/contracts/access/AccessControl.sol\":3718:4210  function _checkRole(bytes32 role, address account) internal view virtual {... */\n    tag_232:\n        /* \"@openzeppelin/contracts/access/AccessControl.sol\":3806:3828  hasRole(role, account) */\n      tag_252\n        /* \"@openzeppelin/contracts/access/AccessControl.sol\":3814:3818  role */\n      dup3\n        /* \"@openzeppelin/contracts/access/AccessControl.sol\":3820:3827  account */\n      dup3\n        /* \"@openzeppelin/contracts/access/AccessControl.sol\":3806:3813  hasRole */\n      tag_72\n        /* \"@openzeppelin/contracts/access/AccessControl.sol\":3806:3828  hasRole(role, account) */\n      jump\t// in\n    tag_252:\n        /* \"@openzeppelin/contracts/access/AccessControl.sol\":3801:4204  if (!hasRole(role, account)) {... */\n      tag_253\n      jumpi\n        /* \"@openzeppelin/contracts/access/AccessControl.sol\":3989:4030  Strings.toHexString(uint160(account), 20) */\n      tag_254\n        /* \"@openzeppelin/contracts/access/AccessControl.sol\":4017:4024  account */\n      dup2\n        /* \"@openzeppelin/contracts/access/AccessControl.sol\":3989:4030  Strings.toHexString(uint160(account), 20) */\n      0xffffffffffffffffffffffffffffffffffffffff\n      and\n        /* \"@openzeppelin/contracts/access/AccessControl.sol\":4027:4029  20 */\n      0x14\n        /* \"@openzeppelin/contracts/access/AccessControl.sol\":3989:4008  Strings.toHexString */\n      tag_255\n        /* \"@openzeppelin/contracts/access/AccessControl.sol\":3989:4030  Strings.toHexString(uint160(account), 20) */\n      jump\t// in\n    tag_254:\n        /* \"@openzeppelin/contracts/access/AccessControl.sol\":4101:4139  Strings.toHexString(uint256(role), 32) */\n      tag_256\n        /* \"@openzeppelin/contracts/access/AccessControl.sol\":4129:4133  role */\n      dup4\n        /* \"@openzeppelin/contracts/access/AccessControl.sol\":4121:4134  uint256(role) */\n      0x00\n      shr\n        /* \"@openzeppelin/contracts/access/AccessControl.sol\":4136:4138  32 */\n      0x20\n        /* \"@openzeppelin/contracts/access/AccessControl.sol\":4101:4120  Strings.toHexString */\n      tag_255\n        /* \"@openzeppelin/contracts/access/AccessControl.sol\":4101:4139  Strings.toHexString(uint256(role), 32) */\n      jump\t// in\n    tag_256:\n        /* \"@openzeppelin/contracts/access/AccessControl.sol\":3896:4161  abi.encodePacked(... */\n      add(0x20, mload(0x40))\n      tag_257\n      swap3\n      swap2\n      swap1\n      tag_258\n      jump\t// in\n    tag_257:\n      mload(0x40)\n      0x20\n      dup2\n      dup4\n      sub\n      sub\n      dup2\n      mstore\n      swap1\n      0x40\n      mstore\n        /* \"@openzeppelin/contracts/access/AccessControl.sol\":3844:4193  revert(... */\n      mload(0x40)\n      0x08c379a000000000000000000000000000000000000000000000000000000000\n      dup2\n      mstore\n      0x04\n      add\n      tag_259\n      swap2\n      swap1\n      tag_56\n      jump\t// in\n    tag_259:\n      mload(0x40)\n      dup1\n      swap2\n      sub\n      swap1\n      revert\n        /* \"@openzeppelin/contracts/access/AccessControl.sol\":3801:4204  if (!hasRole(role, account)) {... */\n    tag_253:\n        /* \"@openzeppelin/contracts/access/AccessControl.sol\":3718:4210  function _checkRole(bytes32 role, address account) internal view virtual {... */\n      pop\n      pop\n      jump\t// out\n        /* \"@openzeppelin/contracts/utils/Strings.sol\":1652:2093  function toHexString(uint256 value, uint256 length) internal pure returns (string memory) {... */\n    tag_255:\n        /* \"@openzeppelin/contracts/utils/Strings.sol\":1727:1740  string memory */\n      0x60\n        /* \"@openzeppelin/contracts/utils/Strings.sol\":1752:1771  bytes memory buffer */\n      0x00\n        /* \"@openzeppelin/contracts/utils/Strings.sol\":1797:1798  2 */\n      0x02\n        /* \"@openzeppelin/contracts/utils/Strings.sol\":1788:1794  length */\n      dup4\n        /* \"@openzeppelin/contracts/utils/Strings.sol\":1784:1785  2 */\n      0x02\n        /* \"@openzeppelin/contracts/utils/Strings.sol\":1784:1794  2 * length */\n      tag_261\n      swap2\n      swap1\n      tag_262\n      jump\t// in\n    tag_261:\n        /* \"@openzeppelin/contracts/utils/Strings.sol\":1784:1798  2 * length + 2 */\n      tag_263\n      swap2\n      swap1\n      tag_264\n      jump\t// in\n    tag_263:\n        /* \"@openzeppelin/contracts/utils/Strings.sol\":1774:1799  new bytes(2 * length + 2) */\n      0xffffffffffffffff\n      dup2\n      gt\n      iszero\n      tag_265\n      jumpi\n      tag_266\n      tag_267\n      jump\t// in\n    tag_266:\n    tag_265:\n      mload(0x40)\n      swap1\n      dup1\n      dup3\n      mstore\n      dup1\n      0x1f\n      add\n      not(0x1f)\n      and\n      0x20\n      add\n      dup3\n      add\n      0x40\n      mstore\n      dup1\n      iszero\n      tag_268\n      jumpi\n      dup2\n      0x20\n      add\n      0x01\n      dup3\n      mul\n      dup1\n      calldatasize\n      dup4\n      calldatacopy\n      dup1\n      dup3\n      add\n      swap2\n      pop\n      pop\n      swap1\n      pop\n    tag_268:\n      pop\n        /* \"@openzeppelin/contracts/utils/Strings.sol\":1752:1799  bytes memory buffer = new bytes(2 * length + 2) */\n      swap1\n      pop\n        /* \"@openzeppelin/contracts/utils/Strings.sol\":1809:1824  buffer[0] = \"0\" */\n      0x3000000000000000000000000000000000000000000000000000000000000000\n        /* \"@openzeppelin/contracts/utils/Strings.sol\":1809:1815  buffer */\n      dup2\n        /* \"@openzeppelin/contracts/utils/Strings.sol\":1816:1817  0 */\n      0x00\n        /* \"@openzeppelin/contracts/utils/Strings.sol\":1809:1818  buffer[0] */\n      dup2\n      mload\n      dup2\n      lt\n      tag_269\n      jumpi\n      tag_270\n      tag_162\n      jump\t// in\n    tag_270:\n    tag_269:\n      0x20\n      add\n      add\n        /* \"@openzeppelin/contracts/utils/Strings.sol\":1809:1824  buffer[0] = \"0\" */\n      swap1\n      not(0xffffffffffffffffffffffffffffffffffffffffffffffffffffffffffffff)\n      and\n      swap1\n      dup2\n      0x00\n      byte\n      swap1\n      mstore8\n      pop\n        /* \"@openzeppelin/contracts/utils/Strings.sol\":1834:1849  buffer[1] = \"x\" */\n      0x7800000000000000000000000000000000000000000000000000000000000000\n        /* \"@openzeppelin/contracts/utils/Strings.sol\":1834:1840  buffer */\n      dup2\n        /* \"@openzeppelin/contracts/utils/Strings.sol\":1841:1842  1 */\n      0x01\n        /* \"@openzeppelin/contracts/utils/Strings.sol\":1834:1843  buffer[1] */\n      dup2\n      mload\n      dup2\n      lt\n      tag_271\n      jumpi\n      tag_272\n      tag_162\n      jump\t// in\n    tag_272:\n    tag_271:\n      0x20\n      add\n      add\n        /* \"@openzeppelin/contracts/utils/Strings.sol\":1834:1849  buffer[1] = \"x\" */\n      swap1\n      not(0xffffffffffffffffffffffffffffffffffffffffffffffffffffffffffffff)\n      and\n      swap1\n      dup2\n      0x00\n      byte\n      swap1\n      mstore8\n      pop\n        /* \"@openzeppelin/contracts/utils/Strings.sol\":1864:1873  uint256 i */\n      0x00\n        /* \"@openzeppelin/contracts/utils/Strings.sol\":1889:1890  1 */\n      0x01\n        /* \"@openzeppelin/contracts/utils/Strings.sol\":1880:1886  length */\n      dup5\n        /* \"@openzeppelin/contracts/utils/Strings.sol\":1876:1877  2 */\n      0x02\n        /* \"@openzeppelin/contracts/utils/Strings.sol\":1876:1886  2 * length */\n      tag_276\n      swap2\n      swap1\n      tag_262\n      jump\t// in\n    tag_276:\n        /* \"@openzeppelin/contracts/utils/Strings.sol\":1876:1890  2 * length + 1 */\n      tag_277\n      swap2\n      swap1\n      tag_264\n      jump\t// in\n    tag_277:\n        /* \"@openzeppelin/contracts/utils/Strings.sol\":1864:1890  uint256 i = 2 * length + 1 */\n      swap1\n      pop\n        /* \"@openzeppelin/contracts/utils/Strings.sol\":1859:1991  for (uint256 i = 2 * length + 1; i > 1; --i) {... */\n    tag_273:\n        /* \"@openzeppelin/contracts/utils/Strings.sol\":1896:1897  1 */\n      0x01\n        /* \"@openzeppelin/contracts/utils/Strings.sol\":1892:1893  i */\n      dup2\n        /* \"@openzeppelin/contracts/utils/Strings.sol\":1892:1897  i > 1 */\n      gt\n        /* \"@openzeppelin/contracts/utils/Strings.sol\":1859:1991  for (uint256 i = 2 * length + 1; i > 1; --i) {... */\n      iszero\n      tag_274\n      jumpi\n        /* \"@openzeppelin/contracts/utils/Strings.sol\":1930:1942  _HEX_SYMBOLS */\n      0x3031323334353637383961626364656600000000000000000000000000000000\n        /* \"@openzeppelin/contracts/utils/Strings.sol\":1951:1954  0xf */\n      0x0f\n        /* \"@openzeppelin/contracts/utils/Strings.sol\":1943:1948  value */\n      dup7\n        /* \"@openzeppelin/contracts/utils/Strings.sol\":1943:1954  value & 0xf */\n      and\n        /* \"@openzeppelin/contracts/utils/Strings.sol\":1930:1955  _HEX_SYMBOLS[value & 0xf] */\n      0x10\n      dup2\n      lt\n      tag_278\n      jumpi\n      tag_279\n      tag_162\n      jump\t// in\n    tag_279:\n    tag_278:\n      byte\n      0xf8\n      shl\n        /* \"@openzeppelin/contracts/utils/Strings.sol\":1918:1924  buffer */\n      dup3\n        /* \"@openzeppelin/contracts/utils/Strings.sol\":1925:1926  i */\n      dup3\n        /* \"@openzeppelin/contracts/utils/Strings.sol\":1918:1927  buffer[i] */\n      dup2\n      mload\n      dup2\n      lt\n      tag_280\n      jumpi\n      tag_281\n      tag_162\n      jump\t// in\n    tag_281:\n    tag_280:\n      0x20\n      add\n      add\n        /* \"@openzeppelin/contracts/utils/Strings.sol\":1918:1955  buffer[i] = _HEX_SYMBOLS[value & 0xf] */\n      swap1\n      not(0xffffffffffffffffffffffffffffffffffffffffffffffffffffffffffffff)\n      and\n      swap1\n      dup2\n      0x00\n      byte\n      swap1\n      mstore8\n      pop\n        /* \"@openzeppelin/contracts/utils/Strings.sol\":1979:1980  4 */\n      0x04\n        /* \"@openzeppelin/contracts/utils/Strings.sol\":1969:1980  value >>= 4 */\n      dup6\n      swap1\n      shr\n      swap5\n      pop\n        /* \"@openzeppelin/contracts/utils/Strings.sol\":1899:1902  --i */\n      dup1\n      tag_282\n      swap1\n      tag_283\n      jump\t// in\n    tag_282:\n      swap1\n      pop\n        /* \"@openzeppelin/contracts/utils/Strings.sol\":1859:1991  for (uint256 i = 2 * length + 1; i > 1; --i) {... */\n      jump(tag_273)\n    tag_274:\n      pop\n        /* \"@openzeppelin/contracts/utils/Strings.sol\":2017:2018  0 */\n      0x00\n        /* \"@openzeppelin/contracts/utils/Strings.sol\":2008:2013  value */\n      dup5\n        /* \"@openzeppelin/contracts/utils/Strings.sol\":2008:2018  value == 0 */\n      eq\n        /* \"@openzeppelin/contracts/utils/Strings.sol\":2000:2055  require(value == 0, \"Strings: hex length insufficient\") */\n      tag_284\n      jumpi\n      mload(0x40)\n      0x08c379a000000000000000000000000000000000000000000000000000000000\n      dup2\n      mstore\n      0x04\n      add\n      tag_285\n      swap1\n      tag_286\n      jump\t// in\n    tag_285:\n      mload(0x40)\n      dup1\n      swap2\n      sub\n      swap1\n      revert\n    tag_284:\n        /* \"@openzeppelin/contracts/utils/Strings.sol\":2079:2085  buffer */\n      dup1\n        /* \"@openzeppelin/contracts/utils/Strings.sol\":2065:2086  return string(buffer) */\n      swap2\n      pop\n      pop\n        /* \"@openzeppelin/contracts/utils/Strings.sol\":1652:2093  function toHexString(uint256 value, uint256 length) internal pure returns (string memory) {... */\n      swap3\n      swap2\n      pop\n      pop\n      jump\t// out\n    tag_176:\n      mload(0x40)\n      dup1\n      0xa0\n      add\n      0x40\n      mstore\n      dup1\n      0x60\n      dup2\n      mstore\n      0x20\n      add\n      0x60\n      dup2\n      mstore\n      0x20\n      add\n      0x00\n      dup2\n      mstore\n      0x20\n      add\n      0x00\n      dup2\n      mstore\n      0x20\n      add\n      iszero(iszero(0x00))\n      dup2\n      mstore\n      pop\n      swap1\n      jump\t// out\n    tag_183:\n      mload(0x40)\n      dup1\n      0x60\n      add\n      0x40\n      mstore\n      dup1\n      0x60\n      dup2\n      mstore\n      0x20\n      add\n      and(0xffffffffffffffffffffffffffffffffffffffff, 0x00)\n      dup2\n      mstore\n      0x20\n      add\n      0x60\n      dup2\n      mstore\n      pop\n      swap1\n      jump\t// out\n    tag_206:\n      dup3\n      dup1\n      sload\n      tag_287\n      swap1\n      tag_119\n      jump\t// in\n    tag_287:\n      swap1\n      0x00\n      mstore\n      keccak256(0x00, 0x20)\n      swap1\n      0x1f\n      add\n      0x20\n      swap1\n      div\n      dup2\n      add\n      swap3\n      dup3\n      tag_289\n      jumpi\n      0x00\n      dup6\n      sstore\n      jump(tag_288)\n    tag_289:\n      dup3\n      0x1f\n      lt\n      tag_290\n      jumpi\n      dup1\n      mload\n      not(0xff)\n      and\n      dup4\n      dup1\n      add\n      or\n      dup6\n      sstore\n      jump(tag_288)\n    tag_290:\n      dup3\n      dup1\n      add\n      0x01\n      add\n      dup6\n      sstore\n      dup3\n      iszero\n      tag_288\n      jumpi\n      swap2\n      dup3\n      add\n    tag_291:\n      dup3\n      dup2\n      gt\n      iszero\n      tag_292\n      jumpi\n      dup3\n      mload\n      dup3\n      sstore\n      swap2\n      0x20\n      add\n      swap2\n      swap1\n      0x01\n      add\n      swap1\n      jump(tag_291)\n    tag_292:\n    tag_288:\n      pop\n      swap1\n      pop\n      tag_293\n      swap2\n      swap1\n      tag_294\n      jump\t// in\n    tag_293:\n      pop\n      swap1\n      jump\t// out\n    tag_212:\n      dup3\n      dup1\n      sload\n      tag_295\n      swap1\n      tag_119\n      jump\t// in\n    tag_295:\n      swap1\n      0x00\n      mstore\n      keccak256(0x00, 0x20)\n      swap1\n      0x1f\n      add\n      0x20\n      swap1\n      div\n      dup2\n      add\n      swap3\n      dup3\n      tag_297\n      jumpi\n      0x00\n      dup6\n      sstore\n      jump(tag_296)\n    tag_297:\n      dup3\n      0x1f\n      lt\n      tag_298\n      jumpi\n      dup1\n      sload\n      dup6\n      sstore\n      jump(tag_296)\n    tag_298:\n      dup3\n      dup1\n      add\n      0x01\n      add\n      dup6\n      sstore\n      dup3\n      iszero\n      tag_296\n      jumpi\n      0x00\n      mstore\n      keccak256(0x00, 0x20)\n      swap2\n      0x1f\n      add\n      0x20\n      swap1\n      div\n      dup3\n      add\n    tag_299:\n      dup3\n      dup2\n      gt\n      iszero\n      tag_300\n      jumpi\n      dup3\n      sload\n      dup3\n      sstore\n      swap2\n      0x01\n      add\n      swap2\n      swap1\n      0x01\n      add\n      swap1\n      jump(tag_299)\n    tag_300:\n    tag_296:\n      pop\n      swap1\n      pop\n      tag_301\n      swap2\n      swap1\n      tag_294\n      jump\t// in\n    tag_301:\n      pop\n      swap1\n      jump\t// out\n    tag_294:\n    tag_302:\n      dup1\n      dup3\n      gt\n      iszero\n      tag_303\n      jumpi\n      0x00\n      dup2\n      0x00\n      swap1\n      sstore\n      pop\n      0x01\n      add\n      jump(tag_302)\n    tag_303:\n      pop\n      swap1\n      jump\t// out\n        /* \"#utility.yul\":24:746   */\n    tag_305:\n        /* \"#utility.yul\":120:125   */\n      0x00\n        /* \"#utility.yul\":145:226   */\n      tag_307\n        /* \"#utility.yul\":161:225   */\n      tag_308\n        /* \"#utility.yul\":218:224   */\n      dup5\n        /* \"#utility.yul\":161:225   */\n      tag_309\n      jump\t// in\n    tag_308:\n        /* \"#utility.yul\":145:226   */\n      tag_310\n      jump\t// in\n    tag_307:\n        /* \"#utility.yul\":136:226   */\n      swap1\n      pop\n        /* \"#utility.yul\":246:251   */\n      dup1\n        /* \"#utility.yul\":275:281   */\n      dup4\n        /* \"#utility.yul\":268:273   */\n      dup3\n        /* \"#utility.yul\":261:282   */\n      mstore\n        /* \"#utility.yul\":309:313   */\n      0x20\n        /* \"#utility.yul\":302:307   */\n      dup3\n        /* \"#utility.yul\":298:314   */\n      add\n        /* \"#utility.yul\":291:314   */\n      swap1\n      pop\n        /* \"#utility.yul\":335:341   */\n      dup3\n        /* \"#utility.yul\":385:388   */\n      dup6\n        /* \"#utility.yul\":377:381   */\n      0x20\n        /* \"#utility.yul\":369:375   */\n      dup7\n        /* \"#utility.yul\":365:382   */\n      mul\n        /* \"#utility.yul\":360:363   */\n      dup3\n        /* \"#utility.yul\":356:383   */\n      add\n        /* \"#utility.yul\":353:389   */\n      gt\n        /* \"#utility.yul\":350:493   */\n      iszero\n      tag_311\n      jumpi\n        /* \"#utility.yul\":404:483   */\n      tag_312\n      tag_313\n      jump\t// in\n    tag_312:\n        /* \"#utility.yul\":350:493   */\n    tag_311:\n        /* \"#utility.yul\":517:518   */\n      0x00\n        /* \"#utility.yul\":502:740   */\n    tag_314:\n        /* \"#utility.yul\":527:533   */\n      dup6\n        /* \"#utility.yul\":524:525   */\n      dup2\n        /* \"#utility.yul\":521:534   */\n      lt\n        /* \"#utility.yul\":502:740   */\n      iszero\n      tag_316\n      jumpi\n        /* \"#utility.yul\":595:598   */\n      dup2\n        /* \"#utility.yul\":624:661   */\n      tag_317\n        /* \"#utility.yul\":657:660   */\n      dup9\n        /* \"#utility.yul\":645:655   */\n      dup3\n        /* \"#utility.yul\":624:661   */\n      tag_318\n      jump\t// in\n    tag_317:\n        /* \"#utility.yul\":619:622   */\n      dup5\n        /* \"#utility.yul\":612:662   */\n      mstore\n        /* \"#utility.yul\":691:695   */\n      0x20\n        /* \"#utility.yul\":686:689   */\n      dup5\n        /* \"#utility.yul\":682:696   */\n      add\n        /* \"#utility.yul\":675:696   */\n      swap4\n      pop\n        /* \"#utility.yul\":725:729   */\n      0x20\n        /* \"#utility.yul\":720:723   */\n      dup4\n        /* \"#utility.yul\":716:730   */\n      add\n        /* \"#utility.yul\":709:730   */\n      swap3\n      pop\n        /* \"#utility.yul\":562:740   */\n      pop\n        /* \"#utility.yul\":549:550   */\n      0x01\n        /* \"#utility.yul\":546:547   */\n      dup2\n        /* \"#utility.yul\":542:551   */\n      add\n        /* \"#utility.yul\":537:551   */\n      swap1\n      pop\n        /* \"#utility.yul\":502:740   */\n      jump(tag_314)\n    tag_316:\n        /* \"#utility.yul\":506:520   */\n      pop\n        /* \"#utility.yul\":126:746   */\n      pop\n      pop\n        /* \"#utility.yul\":24:746   */\n      swap4\n      swap3\n      pop\n      pop\n      pop\n      jump\t// out\n        /* \"#utility.yul\":752:1164   */\n    tag_319:\n        /* \"#utility.yul\":830:835   */\n      0x00\n        /* \"#utility.yul\":855:921   */\n      tag_321\n        /* \"#utility.yul\":871:920   */\n      tag_322\n        /* \"#utility.yul\":913:919   */\n      dup5\n        /* \"#utility.yul\":871:920   */\n      tag_323\n      jump\t// in\n    tag_322:\n        /* \"#utility.yul\":855:921   */\n      tag_310\n      jump\t// in\n    tag_321:\n        /* \"#utility.yul\":846:921   */\n      swap1\n      pop\n        /* \"#utility.yul\":944:950   */\n      dup3\n        /* \"#utility.yul\":937:942   */\n      dup2\n        /* \"#utility.yul\":930:951   */\n      mstore\n        /* \"#utility.yul\":982:986   */\n      0x20\n        /* \"#utility.yul\":975:980   */\n      dup2\n        /* \"#utility.yul\":971:987   */\n      add\n        /* \"#utility.yul\":1020:1023   */\n      dup5\n        /* \"#utility.yul\":1011:1017   */\n      dup5\n        /* \"#utility.yul\":1006:1009   */\n      dup5\n        /* \"#utility.yul\":1002:1018   */\n      add\n        /* \"#utility.yul\":999:1024   */\n      gt\n        /* \"#utility.yul\":996:1108   */\n      iszero\n      tag_324\n      jumpi\n        /* \"#utility.yul\":1027:1106   */\n      tag_325\n      tag_326\n      jump\t// in\n    tag_325:\n        /* \"#utility.yul\":996:1108   */\n    tag_324:\n        /* \"#utility.yul\":1117:1158   */\n      tag_327\n        /* \"#utility.yul\":1151:1157   */\n      dup5\n        /* \"#utility.yul\":1146:1149   */\n      dup3\n        /* \"#utility.yul\":1141:1144   */\n      dup6\n        /* \"#utility.yul\":1117:1158   */\n      tag_328\n      jump\t// in\n    tag_327:\n        /* \"#utility.yul\":836:1164   */\n      pop\n        /* \"#utility.yul\":752:1164   */\n      swap4\n      swap3\n      pop\n      pop\n      pop\n      jump\t// out\n        /* \"#utility.yul\":1170:1309   */\n    tag_318:\n        /* \"#utility.yul\":1216:1221   */\n      0x00\n        /* \"#utility.yul\":1254:1260   */\n      dup2\n        /* \"#utility.yul\":1241:1261   */\n      calldataload\n        /* \"#utility.yul\":1232:1261   */\n      swap1\n      pop\n        /* \"#utility.yul\":1270:1303   */\n      tag_330\n        /* \"#utility.yul\":1297:1302   */\n      dup2\n        /* \"#utility.yul\":1270:1303   */\n      tag_331\n      jump\t// in\n    tag_330:\n        /* \"#utility.yul\":1170:1309   */\n      swap3\n      swap2\n      pop\n      pop\n      jump\t// out\n        /* \"#utility.yul\":1332:1702   */\n    tag_332:\n        /* \"#utility.yul\":1403:1408   */\n      0x00\n        /* \"#utility.yul\":1452:1455   */\n      dup3\n        /* \"#utility.yul\":1445:1449   */\n      0x1f\n        /* \"#utility.yul\":1437:1443   */\n      dup4\n        /* \"#utility.yul\":1433:1450   */\n      add\n        /* \"#utility.yul\":1429:1456   */\n      slt\n        /* \"#utility.yul\":1419:1541   */\n      tag_334\n      jumpi\n        /* \"#utility.yul\":1460:1539   */\n      tag_335\n      tag_336\n      jump\t// in\n    tag_335:\n        /* \"#utility.yul\":1419:1541   */\n    tag_334:\n        /* \"#utility.yul\":1577:1583   */\n      dup2\n        /* \"#utility.yul\":1564:1584   */\n      calldataload\n        /* \"#utility.yul\":1602:1696   */\n      tag_337\n        /* \"#utility.yul\":1692:1695   */\n      dup5\n        /* \"#utility.yul\":1684:1690   */\n      dup3\n        /* \"#utility.yul\":1677:1681   */\n      0x20\n        /* \"#utility.yul\":1669:1675   */\n      dup7\n        /* \"#utility.yul\":1665:1682   */\n      add\n        /* \"#utility.yul\":1602:1696   */\n      tag_305\n      jump\t// in\n    tag_337:\n        /* \"#utility.yul\":1593:1696   */\n      swap2\n      pop\n        /* \"#utility.yul\":1409:1702   */\n      pop\n        /* \"#utility.yul\":1332:1702   */\n      swap3\n      swap2\n      pop\n      pop\n      jump\t// out\n        /* \"#utility.yul\":1708:1847   */\n    tag_338:\n        /* \"#utility.yul\":1754:1759   */\n      0x00\n        /* \"#utility.yul\":1792:1798   */\n      dup2\n        /* \"#utility.yul\":1779:1799   */\n      calldataload\n        /* \"#utility.yul\":1770:1799   */\n      swap1\n      pop\n        /* \"#utility.yul\":1808:1841   */\n      tag_340\n        /* \"#utility.yul\":1835:1840   */\n      dup2\n        /* \"#utility.yul\":1808:1841   */\n      tag_341\n      jump\t// in\n    tag_340:\n        /* \"#utility.yul\":1708:1847   */\n      swap3\n      swap2\n      pop\n      pop\n      jump\t// out\n        /* \"#utility.yul\":1853:1990   */\n    tag_342:\n        /* \"#utility.yul\":1898:1903   */\n      0x00\n        /* \"#utility.yul\":1936:1942   */\n      dup2\n        /* \"#utility.yul\":1923:1943   */\n      calldataload\n        /* \"#utility.yul\":1914:1943   */\n      swap1\n      pop\n        /* \"#utility.yul\":1952:1984   */\n      tag_344\n        /* \"#utility.yul\":1978:1983   */\n      dup2\n        /* \"#utility.yul\":1952:1984   */\n      tag_345\n      jump\t// in\n    tag_344:\n        /* \"#utility.yul\":1853:1990   */\n      swap3\n      swap2\n      pop\n      pop\n      jump\t// out\n        /* \"#utility.yul\":2010:2350   */\n    tag_346:\n        /* \"#utility.yul\":2066:2071   */\n      0x00\n        /* \"#utility.yul\":2115:2118   */\n      dup3\n        /* \"#utility.yul\":2108:2112   */\n      0x1f\n        /* \"#utility.yul\":2100:2106   */\n      dup4\n        /* \"#utility.yul\":2096:2113   */\n      add\n        /* \"#utility.yul\":2092:2119   */\n      slt\n        /* \"#utility.yul\":2082:2204   */\n      tag_348\n      jumpi\n        /* \"#utility.yul\":2123:2202   */\n      tag_349\n      tag_336\n      jump\t// in\n    tag_349:\n        /* \"#utility.yul\":2082:2204   */\n    tag_348:\n        /* \"#utility.yul\":2240:2246   */\n      dup2\n        /* \"#utility.yul\":2227:2247   */\n      calldataload\n        /* \"#utility.yul\":2265:2344   */\n      tag_350\n        /* \"#utility.yul\":2340:2343   */\n      dup5\n        /* \"#utility.yul\":2332:2338   */\n      dup3\n        /* \"#utility.yul\":2325:2329   */\n      0x20\n        /* \"#utility.yul\":2317:2323   */\n      dup7\n        /* \"#utility.yul\":2313:2330   */\n      add\n        /* \"#utility.yul\":2265:2344   */\n      tag_319\n      jump\t// in\n    tag_350:\n        /* \"#utility.yul\":2256:2344   */\n      swap2\n      pop\n        /* \"#utility.yul\":2072:2350   */\n      pop\n        /* \"#utility.yul\":2010:2350   */\n      swap3\n      swap2\n      pop\n      pop\n      jump\t// out\n        /* \"#utility.yul\":2356:2495   */\n    tag_351:\n        /* \"#utility.yul\":2402:2407   */\n      0x00\n        /* \"#utility.yul\":2440:2446   */\n      dup2\n        /* \"#utility.yul\":2427:2447   */\n      calldataload\n        /* \"#utility.yul\":2418:2447   */\n      swap1\n      pop\n        /* \"#utility.yul\":2456:2489   */\n      tag_353\n        /* \"#utility.yul\":2483:2488   */\n      dup2\n        /* \"#utility.yul\":2456:2489   */\n      tag_354\n      jump\t// in\n    tag_353:\n        /* \"#utility.yul\":2356:2495   */\n      swap3\n      swap2\n      pop\n      pop\n      jump\t// out\n        /* \"#utility.yul\":2501:2830   */\n    tag_104:\n        /* \"#utility.yul\":2560:2566   */\n      0x00\n        /* \"#utility.yul\":2609:2611   */\n      0x20\n        /* \"#utility.yul\":2597:2606   */\n      dup3\n        /* \"#utility.yul\":2588:2595   */\n      dup5\n        /* \"#utility.yul\":2584:2607   */\n      sub\n        /* \"#utility.yul\":2580:2612   */\n      slt\n        /* \"#utility.yul\":2577:2696   */\n      iszero\n      tag_356\n      jumpi\n        /* \"#utility.yul\":2615:2694   */\n      tag_357\n      tag_358\n      jump\t// in\n    tag_357:\n        /* \"#utility.yul\":2577:2696   */\n    tag_356:\n        /* \"#utility.yul\":2735:2736   */\n      0x00\n        /* \"#utility.yul\":2760:2813   */\n      tag_359\n        /* \"#utility.yul\":2805:2812   */\n      dup5\n        /* \"#utility.yul\":2796:2802   */\n      dup3\n        /* \"#utility.yul\":2785:2794   */\n      dup6\n        /* \"#utility.yul\":2781:2803   */\n      add\n        /* \"#utility.yul\":2760:2813   */\n      tag_318\n      jump\t// in\n    tag_359:\n        /* \"#utility.yul\":2750:2813   */\n      swap2\n      pop\n        /* \"#utility.yul\":2706:2823   */\n      pop\n        /* \"#utility.yul\":2501:2830   */\n      swap3\n      swap2\n      pop\n      pop\n      jump\t// out\n        /* \"#utility.yul\":2836:3310   */\n    tag_108:\n        /* \"#utility.yul\":2904:2910   */\n      0x00\n        /* \"#utility.yul\":2912:2918   */\n      dup1\n        /* \"#utility.yul\":2961:2963   */\n      0x40\n        /* \"#utility.yul\":2949:2958   */\n      dup4\n        /* \"#utility.yul\":2940:2947   */\n      dup6\n        /* \"#utility.yul\":2936:2959   */\n      sub\n        /* \"#utility.yul\":2932:2964   */\n      slt\n        /* \"#utility.yul\":2929:3048   */\n      iszero\n      tag_361\n      jumpi\n        /* \"#utility.yul\":2967:3046   */\n      tag_362\n      tag_358\n      jump\t// in\n    tag_362:\n        /* \"#utility.yul\":2929:3048   */\n    tag_361:\n        /* \"#utility.yul\":3087:3088   */\n      0x00\n        /* \"#utility.yul\":3112:3165   */\n      tag_363\n        /* \"#utility.yul\":3157:3164   */\n      dup6\n        /* \"#utility.yul\":3148:3154   */\n      dup3\n        /* \"#utility.yul\":3137:3146   */\n      dup7\n        /* \"#utility.yul\":3133:3155   */\n      add\n        /* \"#utility.yul\":3112:3165   */\n      tag_318\n      jump\t// in\n    tag_363:\n        /* \"#utility.yul\":3102:3165   */\n      swap3\n      pop\n        /* \"#utility.yul\":3058:3175   */\n      pop\n        /* \"#utility.yul\":3214:3216   */\n      0x20\n        /* \"#utility.yul\":3240:3293   */\n      tag_364\n        /* \"#utility.yul\":3285:3292   */\n      dup6\n        /* \"#utility.yul\":3276:3282   */\n      dup3\n        /* \"#utility.yul\":3265:3274   */\n      dup7\n        /* \"#utility.yul\":3261:3283   */\n      add\n        /* \"#utility.yul\":3240:3293   */\n      tag_351\n      jump\t// in\n    tag_364:\n        /* \"#utility.yul\":3230:3293   */\n      swap2\n      pop\n        /* \"#utility.yul\":3185:3303   */\n      pop\n        /* \"#utility.yul\":2836:3310   */\n      swap3\n      pop\n      swap3\n      swap1\n      pop\n      jump\t// out\n        /* \"#utility.yul\":3316:4145   */\n    tag_62:\n        /* \"#utility.yul\":3418:3424   */\n      0x00\n        /* \"#utility.yul\":3426:3432   */\n      dup1\n        /* \"#utility.yul\":3434:3440   */\n      0x00\n        /* \"#utility.yul\":3483:3485   */\n      0x60\n        /* \"#utility.yul\":3471:3480   */\n      dup5\n        /* \"#utility.yul\":3462:3469   */\n      dup7\n        /* \"#utility.yul\":3458:3481   */\n      sub\n        /* \"#utility.yul\":3454:3486   */\n      slt\n        /* \"#utility.yul\":3451:3570   */\n      iszero\n      tag_366\n      jumpi\n        /* \"#utility.yul\":3489:3568   */\n      tag_367\n      tag_358\n      jump\t// in\n    tag_367:\n        /* \"#utility.yul\":3451:3570   */\n    tag_366:\n        /* \"#utility.yul\":3637:3638   */\n      0x00\n        /* \"#utility.yul\":3626:3635   */\n      dup5\n        /* \"#utility.yul\":3622:3639   */\n      add\n        /* \"#utility.yul\":3609:3640   */\n      calldataload\n        /* \"#utility.yul\":3667:3685   */\n      0xffffffffffffffff\n        /* \"#utility.yul\":3659:3665   */\n      dup2\n        /* \"#utility.yul\":3656:3686   */\n      gt\n        /* \"#utility.yul\":3653:3770   */\n      iszero\n      tag_368\n      jumpi\n        /* \"#utility.yul\":3689:3768   */\n      tag_369\n      tag_370\n      jump\t// in\n    tag_369:\n        /* \"#utility.yul\":3653:3770   */\n    tag_368:\n        /* \"#utility.yul\":3794:3872   */\n      tag_371\n        /* \"#utility.yul\":3864:3871   */\n      dup7\n        /* \"#utility.yul\":3855:3861   */\n      dup3\n        /* \"#utility.yul\":3844:3853   */\n      dup8\n        /* \"#utility.yul\":3840:3862   */\n      add\n        /* \"#utility.yul\":3794:3872   */\n      tag_332\n      jump\t// in\n    tag_371:\n        /* \"#utility.yul\":3784:3872   */\n      swap4\n      pop\n        /* \"#utility.yul\":3580:3882   */\n      pop\n        /* \"#utility.yul\":3921:3923   */\n      0x20\n        /* \"#utility.yul\":3947:4000   */\n      tag_372\n        /* \"#utility.yul\":3992:3999   */\n      dup7\n        /* \"#utility.yul\":3983:3989   */\n      dup3\n        /* \"#utility.yul\":3972:3981   */\n      dup8\n        /* \"#utility.yul\":3968:3990   */\n      add\n        /* \"#utility.yul\":3947:4000   */\n      tag_351\n      jump\t// in\n    tag_372:\n        /* \"#utility.yul\":3937:4000   */\n      swap3\n      pop\n        /* \"#utility.yul\":3892:4010   */\n      pop\n        /* \"#utility.yul\":4049:4051   */\n      0x40\n        /* \"#utility.yul\":4075:4128   */\n      tag_373\n        /* \"#utility.yul\":4120:4127   */\n      dup7\n        /* \"#utility.yul\":4111:4117   */\n      dup3\n        /* \"#utility.yul\":4100:4109   */\n      dup8\n        /* \"#utility.yul\":4096:4118   */\n      add\n        /* \"#utility.yul\":4075:4128   */\n      tag_351\n      jump\t// in\n    tag_373:\n        /* \"#utility.yul\":4065:4128   */\n      swap2\n      pop\n        /* \"#utility.yul\":4020:4138   */\n      pop\n        /* \"#utility.yul\":3316:4145   */\n      swap3\n      pop\n      swap3\n      pop\n      swap3\n      jump\t// out\n        /* \"#utility.yul\":4151:4480   */\n    tag_35:\n        /* \"#utility.yul\":4210:4216   */\n      0x00\n        /* \"#utility.yul\":4259:4261   */\n      0x20\n        /* \"#utility.yul\":4247:4256   */\n      dup3\n        /* \"#utility.yul\":4238:4245   */\n      dup5\n        /* \"#utility.yul\":4234:4257   */\n      sub\n        /* \"#utility.yul\":4230:4262   */\n      slt\n        /* \"#utility.yul\":4227:4346   */\n      iszero\n      tag_375\n      jumpi\n        /* \"#utility.yul\":4265:4344   */\n      tag_376\n      tag_358\n      jump\t// in\n    tag_376:\n        /* \"#utility.yul\":4227:4346   */\n    tag_375:\n        /* \"#utility.yul\":4385:4386   */\n      0x00\n        /* \"#utility.yul\":4410:4463   */\n      tag_377\n        /* \"#utility.yul\":4455:4462   */\n      dup5\n        /* \"#utility.yul\":4446:4452   */\n      dup3\n        /* \"#utility.yul\":4435:4444   */\n      dup6\n        /* \"#utility.yul\":4431:4453   */\n      add\n        /* \"#utility.yul\":4410:4463   */\n      tag_338\n      jump\t// in\n    tag_377:\n        /* \"#utility.yul\":4400:4463   */\n      swap2\n      pop\n        /* \"#utility.yul\":4356:4473   */\n      pop\n        /* \"#utility.yul\":4151:4480   */\n      swap3\n      swap2\n      pop\n      pop\n      jump\t// out\n        /* \"#utility.yul\":4486:4960   */\n    tag_50:\n        /* \"#utility.yul\":4554:4560   */\n      0x00\n        /* \"#utility.yul\":4562:4568   */\n      dup1\n        /* \"#utility.yul\":4611:4613   */\n      0x40\n        /* \"#utility.yul\":4599:4608   */\n      dup4\n        /* \"#utility.yul\":4590:4597   */\n      dup6\n        /* \"#utility.yul\":4586:4609   */\n      sub\n        /* \"#utility.yul\":4582:4614   */\n      slt\n        /* \"#utility.yul\":4579:4698   */\n      iszero\n      tag_379\n      jumpi\n        /* \"#utility.yul\":4617:4696   */\n      tag_380\n      tag_358\n      jump\t// in\n    tag_380:\n        /* \"#utility.yul\":4579:4698   */\n    tag_379:\n        /* \"#utility.yul\":4737:4738   */\n      0x00\n        /* \"#utility.yul\":4762:4815   */\n      tag_381\n        /* \"#utility.yul\":4807:4814   */\n      dup6\n        /* \"#utility.yul\":4798:4804   */\n      dup3\n        /* \"#utility.yul\":4787:4796   */\n      dup7\n        /* \"#utility.yul\":4783:4805   */\n      add\n        /* \"#utility.yul\":4762:4815   */\n      tag_338\n      jump\t// in\n    tag_381:\n        /* \"#utility.yul\":4752:4815   */\n      swap3\n      pop\n        /* \"#utility.yul\":4708:4825   */\n      pop\n        /* \"#utility.yul\":4864:4866   */\n      0x20\n        /* \"#utility.yul\":4890:4943   */\n      tag_382\n        /* \"#utility.yul\":4935:4942   */\n      dup6\n        /* \"#utility.yul\":4926:4932   */\n      dup3\n        /* \"#utility.yul\":4915:4924   */\n      dup7\n        /* \"#utility.yul\":4911:4933   */\n      add\n        /* \"#utility.yul\":4890:4943   */\n      tag_318\n      jump\t// in\n    tag_382:\n        /* \"#utility.yul\":4880:4943   */\n      swap2\n      pop\n        /* \"#utility.yul\":4835:4953   */\n      pop\n        /* \"#utility.yul\":4486:4960   */\n      swap3\n      pop\n      swap3\n      swap1\n      pop\n      jump\t// out\n        /* \"#utility.yul\":4966:5293   */\n    tag_29:\n        /* \"#utility.yul\":5024:5030   */\n      0x00\n        /* \"#utility.yul\":5073:5075   */\n      0x20\n        /* \"#utility.yul\":5061:5070   */\n      dup3\n        /* \"#utility.yul\":5052:5059   */\n      dup5\n        /* \"#utility.yul\":5048:5071   */\n      sub\n        /* \"#utility.yul\":5044:5076   */\n      slt\n        /* \"#utility.yul\":5041:5160   */\n      iszero\n      tag_384\n      jumpi\n        /* \"#utility.yul\":5079:5158   */\n      tag_385\n      tag_358\n      jump\t// in\n    tag_385:\n        /* \"#utility.yul\":5041:5160   */\n    tag_384:\n        /* \"#utility.yul\":5199:5200   */\n      0x00\n        /* \"#utility.yul\":5224:5276   */\n      tag_386\n        /* \"#utility.yul\":5268:5275   */\n      dup5\n        /* \"#utility.yul\":5259:5265   */\n      dup3\n        /* \"#utility.yul\":5248:5257   */\n      dup6\n        /* \"#utility.yul\":5244:5266   */\n      add\n        /* \"#utility.yul\":5224:5276   */\n      tag_342\n      jump\t// in\n    tag_386:\n        /* \"#utility.yul\":5214:5276   */\n      swap2\n      pop\n        /* \"#utility.yul\":5170:5286   */\n      pop\n        /* \"#utility.yul\":4966:5293   */\n      swap3\n      swap2\n      pop\n      pop\n      jump\t// out\n        /* \"#utility.yul\":5299:6098   */\n    tag_100:\n        /* \"#utility.yul\":5386:5392   */\n      0x00\n        /* \"#utility.yul\":5394:5400   */\n      dup1\n        /* \"#utility.yul\":5402:5408   */\n      0x00\n        /* \"#utility.yul\":5451:5453   */\n      0x60\n        /* \"#utility.yul\":5439:5448   */\n      dup5\n        /* \"#utility.yul\":5430:5437   */\n      dup7\n        /* \"#utility.yul\":5426:5449   */\n      sub\n        /* \"#utility.yul\":5422:5454   */\n      slt\n        /* \"#utility.yul\":5419:5538   */\n      iszero\n      tag_388\n      jumpi\n        /* \"#utility.yul\":5457:5536   */\n      tag_389\n      tag_358\n      jump\t// in\n    tag_389:\n        /* \"#utility.yul\":5419:5538   */\n    tag_388:\n        /* \"#utility.yul\":5605:5606   */\n      0x00\n        /* \"#utility.yul\":5594:5603   */\n      dup5\n        /* \"#utility.yul\":5590:5607   */\n      add\n        /* \"#utility.yul\":5577:5608   */\n      calldataload\n        /* \"#utility.yul\":5635:5653   */\n      0xffffffffffffffff\n        /* \"#utility.yul\":5627:5633   */\n      dup2\n        /* \"#utility.yul\":5624:5654   */\n      gt\n        /* \"#utility.yul\":5621:5738   */\n      iszero\n      tag_390\n      jumpi\n        /* \"#utility.yul\":5657:5736   */\n      tag_391\n      tag_370\n      jump\t// in\n    tag_391:\n        /* \"#utility.yul\":5621:5738   */\n    tag_390:\n        /* \"#utility.yul\":5762:5825   */\n      tag_392\n        /* \"#utility.yul\":5817:5824   */\n      dup7\n        /* \"#utility.yul\":5808:5814   */\n      dup3\n        /* \"#utility.yul\":5797:5806   */\n      dup8\n        /* \"#utility.yul\":5793:5815   */\n      add\n        /* \"#utility.yul\":5762:5825   */\n      tag_346\n      jump\t// in\n    tag_392:\n        /* \"#utility.yul\":5752:5825   */\n      swap4\n      pop\n        /* \"#utility.yul\":5548:5835   */\n      pop\n        /* \"#utility.yul\":5874:5876   */\n      0x20\n        /* \"#utility.yul\":5900:5953   */\n      tag_393\n        /* \"#utility.yul\":5945:5952   */\n      dup7\n        /* \"#utility.yul\":5936:5942   */\n      dup3\n        /* \"#utility.yul\":5925:5934   */\n      dup8\n        /* \"#utility.yul\":5921:5943   */\n      add\n        /* \"#utility.yul\":5900:5953   */\n      tag_318\n      jump\t// in\n    tag_393:\n        /* \"#utility.yul\":5890:5953   */\n      swap3\n      pop\n        /* \"#utility.yul\":5845:5963   */\n      pop\n        /* \"#utility.yul\":6002:6004   */\n      0x40\n        /* \"#utility.yul\":6028:6081   */\n      tag_394\n        /* \"#utility.yul\":6073:6080   */\n      dup7\n        /* \"#utility.yul\":6064:6070   */\n      dup3\n        /* \"#utility.yul\":6053:6062   */\n      dup8\n        /* \"#utility.yul\":6049:6071   */\n      add\n        /* \"#utility.yul\":6028:6081   */\n      tag_351\n      jump\t// in\n    tag_394:\n        /* \"#utility.yul\":6018:6081   */\n      swap2\n      pop\n        /* \"#utility.yul\":5973:6091   */\n      pop\n        /* \"#utility.yul\":5299:6098   */\n      swap3\n      pop\n      swap3\n      pop\n      swap3\n      jump\t// out\n        /* \"#utility.yul\":6104:6433   */\n    tag_41:\n        /* \"#utility.yul\":6163:6169   */\n      0x00\n        /* \"#utility.yul\":6212:6214   */\n      0x20\n        /* \"#utility.yul\":6200:6209   */\n      dup3\n        /* \"#utility.yul\":6191:6198   */\n      dup5\n        /* \"#utility.yul\":6187:6210   */\n      sub\n        /* \"#utility.yul\":6183:6215   */\n      slt\n        /* \"#utility.yul\":6180:6299   */\n      iszero\n      tag_396\n      jumpi\n        /* \"#utility.yul\":6218:6297   */\n      tag_397\n      tag_358\n      jump\t// in\n    tag_397:\n        /* \"#utility.yul\":6180:6299   */\n    tag_396:\n        /* \"#utility.yul\":6338:6339   */\n      0x00\n        /* \"#utility.yul\":6363:6416   */\n      tag_398\n        /* \"#utility.yul\":6408:6415   */\n      dup5\n        /* \"#utility.yul\":6399:6405   */\n      dup3\n        /* \"#utility.yul\":6388:6397   */\n      dup6\n        /* \"#utility.yul\":6384:6406   */\n      add\n        /* \"#utility.yul\":6363:6416   */\n      tag_351\n      jump\t// in\n    tag_398:\n        /* \"#utility.yul\":6353:6416   */\n      swap2\n      pop\n        /* \"#utility.yul\":6309:6426   */\n      pop\n        /* \"#utility.yul\":6104:6433   */\n      swap3\n      swap2\n      pop\n      pop\n      jump\t// out\n        /* \"#utility.yul\":6439:6618   */\n    tag_399:\n        /* \"#utility.yul\":6508:6518   */\n      0x00\n        /* \"#utility.yul\":6529:6575   */\n      tag_401\n        /* \"#utility.yul\":6571:6574   */\n      dup4\n        /* \"#utility.yul\":6563:6569   */\n      dup4\n        /* \"#utility.yul\":6529:6575   */\n      tag_402\n      jump\t// in\n    tag_401:\n        /* \"#utility.yul\":6607:6611   */\n      0x20\n        /* \"#utility.yul\":6602:6605   */\n      dup4\n        /* \"#utility.yul\":6598:6612   */\n      add\n        /* \"#utility.yul\":6584:6612   */\n      swap1\n      pop\n        /* \"#utility.yul\":6439:6618   */\n      swap3\n      swap2\n      pop\n      pop\n      jump\t// out\n        /* \"#utility.yul\":6624:6803   */\n    tag_403:\n        /* \"#utility.yul\":6693:6703   */\n      0x00\n        /* \"#utility.yul\":6714:6760   */\n      tag_405\n        /* \"#utility.yul\":6756:6759   */\n      dup4\n        /* \"#utility.yul\":6748:6754   */\n      dup4\n        /* \"#utility.yul\":6714:6760   */\n      tag_406\n      jump\t// in\n    tag_405:\n        /* \"#utility.yul\":6792:6796   */\n      0x20\n        /* \"#utility.yul\":6787:6790   */\n      dup4\n        /* \"#utility.yul\":6783:6797   */\n      add\n        /* \"#utility.yul\":6769:6797   */\n      swap1\n      pop\n        /* \"#utility.yul\":6624:6803   */\n      swap3\n      swap2\n      pop\n      pop\n      jump\t// out\n        /* \"#utility.yul\":6809:6917   */\n    tag_402:\n        /* \"#utility.yul\":6886:6910   */\n      tag_408\n        /* \"#utility.yul\":6904:6909   */\n      dup2\n        /* \"#utility.yul\":6886:6910   */\n      tag_409\n      jump\t// in\n    tag_408:\n        /* \"#utility.yul\":6881:6884   */\n      dup3\n        /* \"#utility.yul\":6874:6911   */\n      mstore\n        /* \"#utility.yul\":6809:6917   */\n      pop\n      pop\n      jump\t// out\n        /* \"#utility.yul\":6923:7041   */\n    tag_410:\n        /* \"#utility.yul\":7010:7034   */\n      tag_412\n        /* \"#utility.yul\":7028:7033   */\n      dup2\n        /* \"#utility.yul\":7010:7034   */\n      tag_409\n      jump\t// in\n    tag_412:\n        /* \"#utility.yul\":7005:7008   */\n      dup3\n        /* \"#utility.yul\":6998:7035   */\n      mstore\n        /* \"#utility.yul\":6923:7041   */\n      pop\n      pop\n      jump\t// out\n        /* \"#utility.yul\":7077:7789   */\n    tag_413:\n        /* \"#utility.yul\":7186:7189   */\n      0x00\n        /* \"#utility.yul\":7215:7269   */\n      tag_415\n        /* \"#utility.yul\":7263:7268   */\n      dup3\n        /* \"#utility.yul\":7215:7269   */\n      tag_416\n      jump\t// in\n    tag_415:\n        /* \"#utility.yul\":7285:7361   */\n      tag_417\n        /* \"#utility.yul\":7354:7360   */\n      dup2\n        /* \"#utility.yul\":7349:7352   */\n      dup6\n        /* \"#utility.yul\":7285:7361   */\n      tag_418\n      jump\t// in\n    tag_417:\n        /* \"#utility.yul\":7278:7361   */\n      swap4\n      pop\n        /* \"#utility.yul\":7385:7441   */\n      tag_419\n        /* \"#utility.yul\":7435:7440   */\n      dup4\n        /* \"#utility.yul\":7385:7441   */\n      tag_420\n      jump\t// in\n    tag_419:\n        /* \"#utility.yul\":7464:7471   */\n      dup1\n        /* \"#utility.yul\":7495:7496   */\n      0x00\n        /* \"#utility.yul\":7480:7764   */\n    tag_421:\n        /* \"#utility.yul\":7505:7511   */\n      dup4\n        /* \"#utility.yul\":7502:7503   */\n      dup2\n        /* \"#utility.yul\":7499:7512   */\n      lt\n        /* \"#utility.yul\":7480:7764   */\n      iszero\n      tag_423\n      jumpi\n        /* \"#utility.yul\":7581:7587   */\n      dup2\n        /* \"#utility.yul\":7575:7588   */\n      mload\n        /* \"#utility.yul\":7608:7671   */\n      tag_424\n        /* \"#utility.yul\":7667:7670   */\n      dup9\n        /* \"#utility.yul\":7652:7665   */\n      dup3\n        /* \"#utility.yul\":7608:7671   */\n      tag_399\n      jump\t// in\n    tag_424:\n        /* \"#utility.yul\":7601:7671   */\n      swap8\n      pop\n        /* \"#utility.yul\":7694:7754   */\n      tag_425\n        /* \"#utility.yul\":7747:7753   */\n      dup4\n        /* \"#utility.yul\":7694:7754   */\n      tag_426\n      jump\t// in\n    tag_425:\n        /* \"#utility.yul\":7684:7754   */\n      swap3\n      pop\n        /* \"#utility.yul\":7540:7764   */\n      pop\n        /* \"#utility.yul\":7527:7528   */\n      0x01\n        /* \"#utility.yul\":7524:7525   */\n      dup2\n        /* \"#utility.yul\":7520:7529   */\n      add\n        /* \"#utility.yul\":7515:7529   */\n      swap1\n      pop\n        /* \"#utility.yul\":7480:7764   */\n      jump(tag_421)\n    tag_423:\n        /* \"#utility.yul\":7484:7498   */\n      pop\n        /* \"#utility.yul\":7780:7783   */\n      dup6\n        /* \"#utility.yul\":7773:7783   */\n      swap4\n      pop\n        /* \"#utility.yul\":7191:7789   */\n      pop\n      pop\n      pop\n        /* \"#utility.yul\":7077:7789   */\n      swap3\n      swap2\n      pop\n      pop\n      jump\t// out\n        /* \"#utility.yul\":7825:8537   */\n    tag_427:\n        /* \"#utility.yul\":7934:7937   */\n      0x00\n        /* \"#utility.yul\":7963:8017   */\n      tag_429\n        /* \"#utility.yul\":8011:8016   */\n      dup3\n        /* \"#utility.yul\":7963:8017   */\n      tag_430\n      jump\t// in\n    tag_429:\n        /* \"#utility.yul\":8033:8109   */\n      tag_431\n        /* \"#utility.yul\":8102:8108   */\n      dup2\n        /* \"#utility.yul\":8097:8100   */\n      dup6\n        /* \"#utility.yul\":8033:8109   */\n      tag_432\n      jump\t// in\n    tag_431:\n        /* \"#utility.yul\":8026:8109   */\n      swap4\n      pop\n        /* \"#utility.yul\":8133:8189   */\n      tag_433\n        /* \"#utility.yul\":8183:8188   */\n      dup4\n        /* \"#utility.yul\":8133:8189   */\n      tag_434\n      jump\t// in\n    tag_433:\n        /* \"#utility.yul\":8212:8219   */\n      dup1\n        /* \"#utility.yul\":8243:8244   */\n      0x00\n        /* \"#utility.yul\":8228:8512   */\n    tag_435:\n        /* \"#utility.yul\":8253:8259   */\n      dup4\n        /* \"#utility.yul\":8250:8251   */\n      dup2\n        /* \"#utility.yul\":8247:8260   */\n      lt\n        /* \"#utility.yul\":8228:8512   */\n      iszero\n      tag_437\n      jumpi\n        /* \"#utility.yul\":8329:8335   */\n      dup2\n        /* \"#utility.yul\":8323:8336   */\n      mload\n        /* \"#utility.yul\":8356:8419   */\n      tag_438\n        /* \"#utility.yul\":8415:8418   */\n      dup9\n        /* \"#utility.yul\":8400:8413   */\n      dup3\n        /* \"#utility.yul\":8356:8419   */\n      tag_403\n      jump\t// in\n    tag_438:\n        /* \"#utility.yul\":8349:8419   */\n      swap8\n      pop\n        /* \"#utility.yul\":8442:8502   */\n      tag_439\n        /* \"#utility.yul\":8495:8501   */\n      dup4\n        /* \"#utility.yul\":8442:8502   */\n      tag_440\n      jump\t// in\n    tag_439:\n        /* \"#utility.yul\":8432:8502   */\n      swap3\n      pop\n        /* \"#utility.yul\":8288:8512   */\n      pop\n        /* \"#utility.yul\":8275:8276   */\n      0x01\n        /* \"#utility.yul\":8272:8273   */\n      dup2\n        /* \"#utility.yul\":8268:8277   */\n      add\n        /* \"#utility.yul\":8263:8277   */\n      swap1\n      pop\n        /* \"#utility.yul\":8228:8512   */\n      jump(tag_435)\n    tag_437:\n        /* \"#utility.yul\":8232:8246   */\n      pop\n        /* \"#utility.yul\":8528:8531   */\n      dup6\n        /* \"#utility.yul\":8521:8531   */\n      swap4\n      pop\n        /* \"#utility.yul\":7939:8537   */\n      pop\n      pop\n      pop\n        /* \"#utility.yul\":7825:8537   */\n      swap3\n      swap2\n      pop\n      pop\n      jump\t// out\n        /* \"#utility.yul\":8543:8642   */\n    tag_441:\n        /* \"#utility.yul\":8614:8635   */\n      tag_443\n        /* \"#utility.yul\":8629:8634   */\n      dup2\n        /* \"#utility.yul\":8614:8635   */\n      tag_444\n      jump\t// in\n    tag_443:\n        /* \"#utility.yul\":8609:8612   */\n      dup3\n        /* \"#utility.yul\":8602:8636   */\n      mstore\n        /* \"#utility.yul\":8543:8642   */\n      pop\n      pop\n      jump\t// out\n        /* \"#utility.yul\":8648:8757   */\n    tag_445:\n        /* \"#utility.yul\":8729:8750   */\n      tag_447\n        /* \"#utility.yul\":8744:8749   */\n      dup2\n        /* \"#utility.yul\":8729:8750   */\n      tag_444\n      jump\t// in\n    tag_447:\n        /* \"#utility.yul\":8724:8727   */\n      dup3\n        /* \"#utility.yul\":8717:8751   */\n      mstore\n        /* \"#utility.yul\":8648:8757   */\n      pop\n      pop\n      jump\t// out\n        /* \"#utility.yul\":8763:8881   */\n    tag_448:\n        /* \"#utility.yul\":8850:8874   */\n      tag_450\n        /* \"#utility.yul\":8868:8873   */\n      dup2\n        /* \"#utility.yul\":8850:8874   */\n      tag_451\n      jump\t// in\n    tag_450:\n        /* \"#utility.yul\":8845:8848   */\n      dup3\n        /* \"#utility.yul\":8838:8875   */\n      mstore\n        /* \"#utility.yul\":8763:8881   */\n      pop\n      pop\n      jump\t// out\n        /* \"#utility.yul\":8887:9231   */\n    tag_452:\n        /* \"#utility.yul\":8965:8968   */\n      0x00\n        /* \"#utility.yul\":8993:9032   */\n      tag_454\n        /* \"#utility.yul\":9026:9031   */\n      dup3\n        /* \"#utility.yul\":8993:9032   */\n      tag_455\n      jump\t// in\n    tag_454:\n        /* \"#utility.yul\":9048:9109   */\n      tag_456\n        /* \"#utility.yul\":9102:9108   */\n      dup2\n        /* \"#utility.yul\":9097:9100   */\n      dup6\n        /* \"#utility.yul\":9048:9109   */\n      tag_457\n      jump\t// in\n    tag_456:\n        /* \"#utility.yul\":9041:9109   */\n      swap4\n      pop\n        /* \"#utility.yul\":9118:9170   */\n      tag_458\n        /* \"#utility.yul\":9163:9169   */\n      dup2\n        /* \"#utility.yul\":9158:9161   */\n      dup6\n        /* \"#utility.yul\":9151:9155   */\n      0x20\n        /* \"#utility.yul\":9144:9149   */\n      dup7\n        /* \"#utility.yul\":9140:9156   */\n      add\n        /* \"#utility.yul\":9118:9170   */\n      tag_459\n      jump\t// in\n    tag_458:\n        /* \"#utility.yul\":9195:9224   */\n      tag_460\n        /* \"#utility.yul\":9217:9223   */\n      dup2\n        /* \"#utility.yul\":9195:9224   */\n      tag_461\n      jump\t// in\n    tag_460:\n        /* \"#utility.yul\":9190:9193   */\n      dup5\n        /* \"#utility.yul\":9186:9225   */\n      add\n        /* \"#utility.yul\":9179:9225   */\n      swap2\n      pop\n        /* \"#utility.yul\":8969:9231   */\n      pop\n        /* \"#utility.yul\":8887:9231   */\n      swap3\n      swap2\n      pop\n      pop\n      jump\t// out\n        /* \"#utility.yul\":9237:9601   */\n    tag_462:\n        /* \"#utility.yul\":9325:9328   */\n      0x00\n        /* \"#utility.yul\":9353:9392   */\n      tag_464\n        /* \"#utility.yul\":9386:9391   */\n      dup3\n        /* \"#utility.yul\":9353:9392   */\n      tag_455\n      jump\t// in\n    tag_464:\n        /* \"#utility.yul\":9408:9479   */\n      tag_465\n        /* \"#utility.yul\":9472:9478   */\n      dup2\n        /* \"#utility.yul\":9467:9470   */\n      dup6\n        /* \"#utility.yul\":9408:9479   */\n      tag_466\n      jump\t// in\n    tag_465:\n        /* \"#utility.yul\":9401:9479   */\n      swap4\n      pop\n        /* \"#utility.yul\":9488:9540   */\n      tag_467\n        /* \"#utility.yul\":9533:9539   */\n      dup2\n        /* \"#utility.yul\":9528:9531   */\n      dup6\n        /* \"#utility.yul\":9521:9525   */\n      0x20\n        /* \"#utility.yul\":9514:9519   */\n      dup7\n        /* \"#utility.yul\":9510:9526   */\n      add\n        /* \"#utility.yul\":9488:9540   */\n      tag_459\n      jump\t// in\n    tag_467:\n        /* \"#utility.yul\":9565:9594   */\n      tag_468\n        /* \"#utility.yul\":9587:9593   */\n      dup2\n        /* \"#utility.yul\":9565:9594   */\n      tag_461\n      jump\t// in\n    tag_468:\n        /* \"#utility.yul\":9560:9563   */\n      dup5\n        /* \"#utility.yul\":9556:9595   */\n      add\n        /* \"#utility.yul\":9549:9595   */\n      swap2\n      pop\n        /* \"#utility.yul\":9329:9601   */\n      pop\n        /* \"#utility.yul\":9237:9601   */\n      swap3\n      swap2\n      pop\n      pop\n      jump\t// out\n        /* \"#utility.yul\":9607:9984   */\n    tag_469:\n        /* \"#utility.yul\":9713:9716   */\n      0x00\n        /* \"#utility.yul\":9741:9780   */\n      tag_471\n        /* \"#utility.yul\":9774:9779   */\n      dup3\n        /* \"#utility.yul\":9741:9780   */\n      tag_455\n      jump\t// in\n    tag_471:\n        /* \"#utility.yul\":9796:9885   */\n      tag_472\n        /* \"#utility.yul\":9878:9884   */\n      dup2\n        /* \"#utility.yul\":9873:9876   */\n      dup6\n        /* \"#utility.yul\":9796:9885   */\n      tag_473\n      jump\t// in\n    tag_472:\n        /* \"#utility.yul\":9789:9885   */\n      swap4\n      pop\n        /* \"#utility.yul\":9894:9946   */\n      tag_474\n        /* \"#utility.yul\":9939:9945   */\n      dup2\n        /* \"#utility.yul\":9934:9937   */\n      dup6\n        /* \"#utility.yul\":9927:9931   */\n      0x20\n        /* \"#utility.yul\":9920:9925   */\n      dup7\n        /* \"#utility.yul\":9916:9932   */\n      add\n        /* \"#utility.yul\":9894:9946   */\n      tag_459\n      jump\t// in\n    tag_474:\n        /* \"#utility.yul\":9971:9977   */\n      dup1\n        /* \"#utility.yul\":9966:9969   */\n      dup5\n        /* \"#utility.yul\":9962:9978   */\n      add\n        /* \"#utility.yul\":9955:9978   */\n      swap2\n      pop\n        /* \"#utility.yul\":9717:9984   */\n      pop\n        /* \"#utility.yul\":9607:9984   */\n      swap3\n      swap2\n      pop\n      pop\n      jump\t// out\n        /* \"#utility.yul\":9990:10356   */\n    tag_475:\n        /* \"#utility.yul\":10132:10135   */\n      0x00\n        /* \"#utility.yul\":10153:10220   */\n      tag_477\n        /* \"#utility.yul\":10217:10219   */\n      0x20\n        /* \"#utility.yul\":10212:10215   */\n      dup4\n        /* \"#utility.yul\":10153:10220   */\n      tag_466\n      jump\t// in\n    tag_477:\n        /* \"#utility.yul\":10146:10220   */\n      swap2\n      pop\n        /* \"#utility.yul\":10229:10322   */\n      tag_478\n        /* \"#utility.yul\":10318:10321   */\n      dup3\n        /* \"#utility.yul\":10229:10322   */\n      tag_479\n      jump\t// in\n    tag_478:\n        /* \"#utility.yul\":10347:10349   */\n      0x20\n        /* \"#utility.yul\":10342:10345   */\n      dup3\n        /* \"#utility.yul\":10338:10350   */\n      add\n        /* \"#utility.yul\":10331:10350   */\n      swap1\n      pop\n        /* \"#utility.yul\":9990:10356   */\n      swap2\n      swap1\n      pop\n      jump\t// out\n        /* \"#utility.yul\":10362:10728   */\n    tag_480:\n        /* \"#utility.yul\":10504:10507   */\n      0x00\n        /* \"#utility.yul\":10525:10592   */\n      tag_482\n        /* \"#utility.yul\":10589:10591   */\n      0x26\n        /* \"#utility.yul\":10584:10587   */\n      dup4\n        /* \"#utility.yul\":10525:10592   */\n      tag_466\n      jump\t// in\n    tag_482:\n        /* \"#utility.yul\":10518:10592   */\n      swap2\n      pop\n        /* \"#utility.yul\":10601:10694   */\n      tag_483\n        /* \"#utility.yul\":10690:10693   */\n      dup3\n        /* \"#utility.yul\":10601:10694   */\n      tag_484\n      jump\t// in\n    tag_483:\n        /* \"#utility.yul\":10719:10721   */\n      0x40\n        /* \"#utility.yul\":10714:10717   */\n      dup3\n        /* \"#utility.yul\":10710:10722   */\n      add\n        /* \"#utility.yul\":10703:10722   */\n      swap1\n      pop\n        /* \"#utility.yul\":10362:10728   */\n      swap2\n      swap1\n      pop\n      jump\t// out\n        /* \"#utility.yul\":10734:11100   */\n    tag_485:\n        /* \"#utility.yul\":10876:10879   */\n      0x00\n        /* \"#utility.yul\":10897:10964   */\n      tag_487\n        /* \"#utility.yul\":10961:10963   */\n      0x1f\n        /* \"#utility.yul\":10956:10959   */\n      dup4\n        /* \"#utility.yul\":10897:10964   */\n      tag_466\n      jump\t// in\n    tag_487:\n        /* \"#utility.yul\":10890:10964   */\n      swap2\n      pop\n        /* \"#utility.yul\":10973:11066   */\n      tag_488\n        /* \"#utility.yul\":11062:11065   */\n      dup3\n        /* \"#utility.yul\":10973:11066   */\n      tag_489\n      jump\t// in\n    tag_488:\n        /* \"#utility.yul\":11091:11093   */\n      0x20\n        /* \"#utility.yul\":11086:11089   */\n      dup3\n        /* \"#utility.yul\":11082:11094   */\n      add\n        /* \"#utility.yul\":11075:11094   */\n      swap1\n      pop\n        /* \"#utility.yul\":10734:11100   */\n      swap2\n      swap1\n      pop\n      jump\t// out\n        /* \"#utility.yul\":11106:11472   */\n    tag_490:\n        /* \"#utility.yul\":11248:11251   */\n      0x00\n        /* \"#utility.yul\":11269:11336   */\n      tag_492\n        /* \"#utility.yul\":11333:11335   */\n      0x20\n        /* \"#utility.yul\":11328:11331   */\n      dup4\n        /* \"#utility.yul\":11269:11336   */\n      tag_466\n      jump\t// in\n    tag_492:\n        /* \"#utility.yul\":11262:11336   */\n      swap2\n      pop\n        /* \"#utility.yul\":11345:11438   */\n      tag_493\n        /* \"#utility.yul\":11434:11437   */\n      dup3\n        /* \"#utility.yul\":11345:11438   */\n      tag_494\n      jump\t// in\n    tag_493:\n        /* \"#utility.yul\":11463:11465   */\n      0x20\n        /* \"#utility.yul\":11458:11461   */\n      dup3\n        /* \"#utility.yul\":11454:11466   */\n      add\n        /* \"#utility.yul\":11447:11466   */\n      swap1\n      pop\n        /* \"#utility.yul\":11106:11472   */\n      swap2\n      swap1\n      pop\n      jump\t// out\n        /* \"#utility.yul\":11478:11880   */\n    tag_495:\n        /* \"#utility.yul\":11638:11641   */\n      0x00\n        /* \"#utility.yul\":11659:11744   */\n      tag_497\n        /* \"#utility.yul\":11741:11743   */\n      0x17\n        /* \"#utility.yul\":11736:11739   */\n      dup4\n        /* \"#utility.yul\":11659:11744   */\n      tag_473\n      jump\t// in\n    tag_497:\n        /* \"#utility.yul\":11652:11744   */\n      swap2\n      pop\n        /* \"#utility.yul\":11753:11846   */\n      tag_498\n        /* \"#utility.yul\":11842:11845   */\n      dup3\n        /* \"#utility.yul\":11753:11846   */\n      tag_499\n      jump\t// in\n    tag_498:\n        /* \"#utility.yul\":11871:11873   */\n      0x17\n        /* \"#utility.yul\":11866:11869   */\n      dup3\n        /* \"#utility.yul\":11862:11874   */\n      add\n        /* \"#utility.yul\":11855:11874   */\n      swap1\n      pop\n        /* \"#utility.yul\":11478:11880   */\n      swap2\n      swap1\n      pop\n      jump\t// out\n        /* \"#utility.yul\":11886:12288   */\n    tag_500:\n        /* \"#utility.yul\":12046:12049   */\n      0x00\n        /* \"#utility.yul\":12067:12152   */\n      tag_502\n        /* \"#utility.yul\":12149:12151   */\n      0x11\n        /* \"#utility.yul\":12144:12147   */\n      dup4\n        /* \"#utility.yul\":12067:12152   */\n      tag_473\n      jump\t// in\n    tag_502:\n        /* \"#utility.yul\":12060:12152   */\n      swap2\n      pop\n        /* \"#utility.yul\":12161:12254   */\n      tag_503\n        /* \"#utility.yul\":12250:12253   */\n      dup3\n        /* \"#utility.yul\":12161:12254   */\n      tag_504\n      jump\t// in\n    tag_503:\n        /* \"#utility.yul\":12279:12281   */\n      0x11\n        /* \"#utility.yul\":12274:12277   */\n      dup3\n        /* \"#utility.yul\":12270:12282   */\n      add\n        /* \"#utility.yul\":12263:12282   */\n      swap1\n      pop\n        /* \"#utility.yul\":11886:12288   */\n      swap2\n      swap1\n      pop\n      jump\t// out\n        /* \"#utility.yul\":12294:12660   */\n    tag_505:\n        /* \"#utility.yul\":12436:12439   */\n      0x00\n        /* \"#utility.yul\":12457:12524   */\n      tag_507\n        /* \"#utility.yul\":12521:12523   */\n      0x2f\n        /* \"#utility.yul\":12516:12519   */\n      dup4\n        /* \"#utility.yul\":12457:12524   */\n      tag_466\n      jump\t// in\n    tag_507:\n        /* \"#utility.yul\":12450:12524   */\n      swap2\n      pop\n        /* \"#utility.yul\":12533:12626   */\n      tag_508\n        /* \"#utility.yul\":12622:12625   */\n      dup3\n        /* \"#utility.yul\":12533:12626   */\n      tag_509\n      jump\t// in\n    tag_508:\n        /* \"#utility.yul\":12651:12653   */\n      0x40\n        /* \"#utility.yul\":12646:12649   */\n      dup3\n        /* \"#utility.yul\":12642:12654   */\n      add\n        /* \"#utility.yul\":12635:12654   */\n      swap1\n      pop\n        /* \"#utility.yul\":12294:12660   */\n      swap2\n      swap1\n      pop\n      jump\t// out\n        /* \"#utility.yul\":12720:13574   */\n    tag_510:\n        /* \"#utility.yul\":12841:12844   */\n      0x00\n        /* \"#utility.yul\":12877:12881   */\n      0x60\n        /* \"#utility.yul\":12872:12875   */\n      dup4\n        /* \"#utility.yul\":12868:12882   */\n      add\n        /* \"#utility.yul\":12964:12968   */\n      0x00\n        /* \"#utility.yul\":12957:12962   */\n      dup4\n        /* \"#utility.yul\":12953:12969   */\n      add\n        /* \"#utility.yul\":12947:12970   */\n      mload\n        /* \"#utility.yul\":13017:13020   */\n      dup5\n        /* \"#utility.yul\":13011:13015   */\n      dup3\n        /* \"#utility.yul\":13007:13021   */\n      sub\n        /* \"#utility.yul\":13000:13004   */\n      0x00\n        /* \"#utility.yul\":12995:12998   */\n      dup7\n        /* \"#utility.yul\":12991:13005   */\n      add\n        /* \"#utility.yul\":12984:13022   */\n      mstore\n        /* \"#utility.yul\":13043:13116   */\n      tag_512\n        /* \"#utility.yul\":13111:13115   */\n      dup3\n        /* \"#utility.yul\":13097:13109   */\n      dup3\n        /* \"#utility.yul\":13043:13116   */\n      tag_452\n      jump\t// in\n    tag_512:\n        /* \"#utility.yul\":13035:13116   */\n      swap2\n      pop\n        /* \"#utility.yul\":12892:13127   */\n      pop\n        /* \"#utility.yul\":13209:13213   */\n      0x20\n        /* \"#utility.yul\":13202:13207   */\n      dup4\n        /* \"#utility.yul\":13198:13214   */\n      add\n        /* \"#utility.yul\":13192:13215   */\n      mload\n        /* \"#utility.yul\":13228:13291   */\n      tag_513\n        /* \"#utility.yul\":13285:13289   */\n      0x20\n        /* \"#utility.yul\":13280:13283   */\n      dup7\n        /* \"#utility.yul\":13276:13290   */\n      add\n        /* \"#utility.yul\":13262:13274   */\n      dup3\n        /* \"#utility.yul\":13228:13291   */\n      tag_402\n      jump\t// in\n    tag_513:\n        /* \"#utility.yul\":13137:13301   */\n      pop\n        /* \"#utility.yul\":13384:13388   */\n      0x40\n        /* \"#utility.yul\":13377:13382   */\n      dup4\n        /* \"#utility.yul\":13373:13389   */\n      add\n        /* \"#utility.yul\":13367:13390   */\n      mload\n        /* \"#utility.yul\":13437:13440   */\n      dup5\n        /* \"#utility.yul\":13431:13435   */\n      dup3\n        /* \"#utility.yul\":13427:13441   */\n      sub\n        /* \"#utility.yul\":13420:13424   */\n      0x40\n        /* \"#utility.yul\":13415:13418   */\n      dup7\n        /* \"#utility.yul\":13411:13425   */\n      add\n        /* \"#utility.yul\":13404:13442   */\n      mstore\n        /* \"#utility.yul\":13463:13536   */\n      tag_514\n        /* \"#utility.yul\":13531:13535   */\n      dup3\n        /* \"#utility.yul\":13517:13529   */\n      dup3\n        /* \"#utility.yul\":13463:13536   */\n      tag_452\n      jump\t// in\n    tag_514:\n        /* \"#utility.yul\":13455:13536   */\n      swap2\n      pop\n        /* \"#utility.yul\":13311:13547   */\n      pop\n        /* \"#utility.yul\":13564:13568   */\n      dup1\n        /* \"#utility.yul\":13557:13568   */\n      swap2\n      pop\n        /* \"#utility.yul\":12846:13574   */\n      pop\n        /* \"#utility.yul\":12720:13574   */\n      swap3\n      swap2\n      pop\n      pop\n      jump\t// out\n        /* \"#utility.yul\":13632:14908   */\n    tag_515:\n        /* \"#utility.yul\":13751:13754   */\n      0x00\n        /* \"#utility.yul\":13787:13791   */\n      0xa0\n        /* \"#utility.yul\":13782:13785   */\n      dup4\n        /* \"#utility.yul\":13778:13792   */\n      add\n        /* \"#utility.yul\":13879:13883   */\n      0x00\n        /* \"#utility.yul\":13872:13877   */\n      dup4\n        /* \"#utility.yul\":13868:13884   */\n      add\n        /* \"#utility.yul\":13862:13885   */\n      mload\n        /* \"#utility.yul\":13932:13935   */\n      dup5\n        /* \"#utility.yul\":13926:13930   */\n      dup3\n        /* \"#utility.yul\":13922:13936   */\n      sub\n        /* \"#utility.yul\":13915:13919   */\n      0x00\n        /* \"#utility.yul\":13910:13913   */\n      dup7\n        /* \"#utility.yul\":13906:13920   */\n      add\n        /* \"#utility.yul\":13899:13937   */\n      mstore\n        /* \"#utility.yul\":13958:14061   */\n      tag_517\n        /* \"#utility.yul\":14056:14060   */\n      dup3\n        /* \"#utility.yul\":14042:14054   */\n      dup3\n        /* \"#utility.yul\":13958:14061   */\n      tag_413\n      jump\t// in\n    tag_517:\n        /* \"#utility.yul\":13950:14061   */\n      swap2\n      pop\n        /* \"#utility.yul\":13802:14072   */\n      pop\n        /* \"#utility.yul\":14163:14167   */\n      0x20\n        /* \"#utility.yul\":14156:14161   */\n      dup4\n        /* \"#utility.yul\":14152:14168   */\n      add\n        /* \"#utility.yul\":14146:14169   */\n      mload\n        /* \"#utility.yul\":14216:14219   */\n      dup5\n        /* \"#utility.yul\":14210:14214   */\n      dup3\n        /* \"#utility.yul\":14206:14220   */\n      sub\n        /* \"#utility.yul\":14199:14203   */\n      0x20\n        /* \"#utility.yul\":14194:14197   */\n      dup7\n        /* \"#utility.yul\":14190:14204   */\n      add\n        /* \"#utility.yul\":14183:14221   */\n      mstore\n        /* \"#utility.yul\":14242:14345   */\n      tag_518\n        /* \"#utility.yul\":14340:14344   */\n      dup3\n        /* \"#utility.yul\":14326:14338   */\n      dup3\n        /* \"#utility.yul\":14242:14345   */\n      tag_427\n      jump\t// in\n    tag_518:\n        /* \"#utility.yul\":14234:14345   */\n      swap2\n      pop\n        /* \"#utility.yul\":14082:14356   */\n      pop\n        /* \"#utility.yul\":14439:14443   */\n      0x40\n        /* \"#utility.yul\":14432:14437   */\n      dup4\n        /* \"#utility.yul\":14428:14444   */\n      add\n        /* \"#utility.yul\":14422:14445   */\n      mload\n        /* \"#utility.yul\":14458:14521   */\n      tag_519\n        /* \"#utility.yul\":14515:14519   */\n      0x40\n        /* \"#utility.yul\":14510:14513   */\n      dup7\n        /* \"#utility.yul\":14506:14520   */\n      add\n        /* \"#utility.yul\":14492:14504   */\n      dup3\n        /* \"#utility.yul\":14458:14521   */\n      tag_406\n      jump\t// in\n    tag_519:\n        /* \"#utility.yul\":14366:14531   */\n      pop\n        /* \"#utility.yul\":14617:14621   */\n      0x60\n        /* \"#utility.yul\":14610:14615   */\n      dup4\n        /* \"#utility.yul\":14606:14622   */\n      add\n        /* \"#utility.yul\":14600:14623   */\n      mload\n        /* \"#utility.yul\":14636:14699   */\n      tag_520\n        /* \"#utility.yul\":14693:14697   */\n      0x60\n        /* \"#utility.yul\":14688:14691   */\n      dup7\n        /* \"#utility.yul\":14684:14698   */\n      add\n        /* \"#utility.yul\":14670:14682   */\n      dup3\n        /* \"#utility.yul\":14636:14699   */\n      tag_406\n      jump\t// in\n    tag_520:\n        /* \"#utility.yul\":14541:14709   */\n      pop\n        /* \"#utility.yul\":14795:14799   */\n      0x80\n        /* \"#utility.yul\":14788:14793   */\n      dup4\n        /* \"#utility.yul\":14784:14800   */\n      add\n        /* \"#utility.yul\":14778:14801   */\n      mload\n        /* \"#utility.yul\":14814:14871   */\n      tag_521\n        /* \"#utility.yul\":14865:14869   */\n      0x80\n        /* \"#utility.yul\":14860:14863   */\n      dup7\n        /* \"#utility.yul\":14856:14870   */\n      add\n        /* \"#utility.yul\":14842:14854   */\n      dup3\n        /* \"#utility.yul\":14814:14871   */\n      tag_441\n      jump\t// in\n    tag_521:\n        /* \"#utility.yul\":14719:14881   */\n      pop\n        /* \"#utility.yul\":14898:14902   */\n      dup1\n        /* \"#utility.yul\":14891:14902   */\n      swap2\n      pop\n        /* \"#utility.yul\":13756:14908   */\n      pop\n        /* \"#utility.yul\":13632:14908   */\n      swap3\n      swap2\n      pop\n      pop\n      jump\t// out\n        /* \"#utility.yul\":14914:15022   */\n    tag_406:\n        /* \"#utility.yul\":14991:15015   */\n      tag_523\n        /* \"#utility.yul\":15009:15014   */\n      dup2\n        /* \"#utility.yul\":14991:15015   */\n      tag_524\n      jump\t// in\n    tag_523:\n        /* \"#utility.yul\":14986:14989   */\n      dup3\n        /* \"#utility.yul\":14979:15016   */\n      mstore\n        /* \"#utility.yul\":14914:15022   */\n      pop\n      pop\n      jump\t// out\n        /* \"#utility.yul\":15028:15146   */\n    tag_525:\n        /* \"#utility.yul\":15115:15139   */\n      tag_527\n        /* \"#utility.yul\":15133:15138   */\n      dup2\n        /* \"#utility.yul\":15115:15139   */\n      tag_524\n      jump\t// in\n    tag_527:\n        /* \"#utility.yul\":15110:15113   */\n      dup3\n        /* \"#utility.yul\":15103:15140   */\n      mstore\n        /* \"#utility.yul\":15028:15146   */\n      pop\n      pop\n      jump\t// out\n        /* \"#utility.yul\":15152:16119   */\n    tag_258:\n        /* \"#utility.yul\":15534:15537   */\n      0x00\n        /* \"#utility.yul\":15556:15704   */\n      tag_529\n        /* \"#utility.yul\":15700:15703   */\n      dup3\n        /* \"#utility.yul\":15556:15704   */\n      tag_495\n      jump\t// in\n    tag_529:\n        /* \"#utility.yul\":15549:15704   */\n      swap2\n      pop\n        /* \"#utility.yul\":15721:15816   */\n      tag_530\n        /* \"#utility.yul\":15812:15815   */\n      dup3\n        /* \"#utility.yul\":15803:15809   */\n      dup6\n        /* \"#utility.yul\":15721:15816   */\n      tag_469\n      jump\t// in\n    tag_530:\n        /* \"#utility.yul\":15714:15816   */\n      swap2\n      pop\n        /* \"#utility.yul\":15833:15981   */\n      tag_531\n        /* \"#utility.yul\":15977:15980   */\n      dup3\n        /* \"#utility.yul\":15833:15981   */\n      tag_500\n      jump\t// in\n    tag_531:\n        /* \"#utility.yul\":15826:15981   */\n      swap2\n      pop\n        /* \"#utility.yul\":15998:16093   */\n      tag_532\n        /* \"#utility.yul\":16089:16092   */\n      dup3\n        /* \"#utility.yul\":16080:16086   */\n      dup5\n        /* \"#utility.yul\":15998:16093   */\n      tag_469\n      jump\t// in\n    tag_532:\n        /* \"#utility.yul\":15991:16093   */\n      swap2\n      pop\n        /* \"#utility.yul\":16110:16113   */\n      dup2\n        /* \"#utility.yul\":16103:16113   */\n      swap1\n      pop\n        /* \"#utility.yul\":15152:16119   */\n      swap4\n      swap3\n      pop\n      pop\n      pop\n      jump\t// out\n        /* \"#utility.yul\":16125:16347   */\n    tag_69:\n        /* \"#utility.yul\":16218:16222   */\n      0x00\n        /* \"#utility.yul\":16256:16258   */\n      0x20\n        /* \"#utility.yul\":16245:16254   */\n      dup3\n        /* \"#utility.yul\":16241:16259   */\n      add\n        /* \"#utility.yul\":16233:16259   */\n      swap1\n      pop\n        /* \"#utility.yul\":16269:16340   */\n      tag_534\n        /* \"#utility.yul\":16337:16338   */\n      0x00\n        /* \"#utility.yul\":16326:16335   */\n      dup4\n        /* \"#utility.yul\":16322:16339   */\n      add\n        /* \"#utility.yul\":16313:16319   */\n      dup5\n        /* \"#utility.yul\":16269:16340   */\n      tag_410\n      jump\t// in\n    tag_534:\n        /* \"#utility.yul\":16125:16347   */\n      swap3\n      swap2\n      pop\n      pop\n      jump\t// out\n        /* \"#utility.yul\":16353:16894   */\n    tag_78:\n        /* \"#utility.yul\":16524:16528   */\n      0x00\n        /* \"#utility.yul\":16562:16565   */\n      0x80\n        /* \"#utility.yul\":16551:16560   */\n      dup3\n        /* \"#utility.yul\":16547:16566   */\n      add\n        /* \"#utility.yul\":16539:16566   */\n      swap1\n      pop\n        /* \"#utility.yul\":16576:16647   */\n      tag_536\n        /* \"#utility.yul\":16644:16645   */\n      0x00\n        /* \"#utility.yul\":16633:16642   */\n      dup4\n        /* \"#utility.yul\":16629:16646   */\n      add\n        /* \"#utility.yul\":16620:16626   */\n      dup8\n        /* \"#utility.yul\":16576:16647   */\n      tag_410\n      jump\t// in\n    tag_536:\n        /* \"#utility.yul\":16657:16729   */\n      tag_537\n        /* \"#utility.yul\":16725:16727   */\n      0x20\n        /* \"#utility.yul\":16714:16723   */\n      dup4\n        /* \"#utility.yul\":16710:16728   */\n      add\n        /* \"#utility.yul\":16701:16707   */\n      dup7\n        /* \"#utility.yul\":16657:16729   */\n      tag_525\n      jump\t// in\n    tag_537:\n        /* \"#utility.yul\":16739:16811   */\n      tag_538\n        /* \"#utility.yul\":16807:16809   */\n      0x40\n        /* \"#utility.yul\":16796:16805   */\n      dup4\n        /* \"#utility.yul\":16792:16810   */\n      add\n        /* \"#utility.yul\":16783:16789   */\n      dup6\n        /* \"#utility.yul\":16739:16811   */\n      tag_525\n      jump\t// in\n    tag_538:\n        /* \"#utility.yul\":16821:16887   */\n      tag_539\n        /* \"#utility.yul\":16883:16885   */\n      0x60\n        /* \"#utility.yul\":16872:16881   */\n      dup4\n        /* \"#utility.yul\":16868:16886   */\n      add\n        /* \"#utility.yul\":16859:16865   */\n      dup5\n        /* \"#utility.yul\":16821:16887   */\n      tag_445\n      jump\t// in\n    tag_539:\n        /* \"#utility.yul\":16353:16894   */\n      swap6\n      swap5\n      pop\n      pop\n      pop\n      pop\n      pop\n      jump\t// out\n        /* \"#utility.yul\":16900:17110   */\n    tag_32:\n        /* \"#utility.yul\":16987:16991   */\n      0x00\n        /* \"#utility.yul\":17025:17027   */\n      0x20\n        /* \"#utility.yul\":17014:17023   */\n      dup3\n        /* \"#utility.yul\":17010:17028   */\n      add\n        /* \"#utility.yul\":17002:17028   */\n      swap1\n      pop\n        /* \"#utility.yul\":17038:17103   */\n      tag_541\n        /* \"#utility.yul\":17100:17101   */\n      0x00\n        /* \"#utility.yul\":17089:17098   */\n      dup4\n        /* \"#utility.yul\":17085:17102   */\n      add\n        /* \"#utility.yul\":17076:17082   */\n      dup5\n        /* \"#utility.yul\":17038:17103   */\n      tag_445\n      jump\t// in\n    tag_541:\n        /* \"#utility.yul\":16900:17110   */\n      swap3\n      swap2\n      pop\n      pop\n      jump\t// out\n        /* \"#utility.yul\":17116:17338   */\n    tag_38:\n        /* \"#utility.yul\":17209:17213   */\n      0x00\n        /* \"#utility.yul\":17247:17249   */\n      0x20\n        /* \"#utility.yul\":17236:17245   */\n      dup3\n        /* \"#utility.yul\":17232:17250   */\n      add\n        /* \"#utility.yul\":17224:17250   */\n      swap1\n      pop\n        /* \"#utility.yul\":17260:17331   */\n      tag_543\n        /* \"#utility.yul\":17328:17329   */\n      0x00\n        /* \"#utility.yul\":17317:17326   */\n      dup4\n        /* \"#utility.yul\":17313:17330   */\n      add\n        /* \"#utility.yul\":17304:17310   */\n      dup5\n        /* \"#utility.yul\":17260:17331   */\n      tag_448\n      jump\t// in\n    tag_543:\n        /* \"#utility.yul\":17116:17338   */\n      swap3\n      swap2\n      pop\n      pop\n      jump\t// out\n        /* \"#utility.yul\":17344:17657   */\n    tag_56:\n        /* \"#utility.yul\":17457:17461   */\n      0x00\n        /* \"#utility.yul\":17495:17497   */\n      0x20\n        /* \"#utility.yul\":17484:17493   */\n      dup3\n        /* \"#utility.yul\":17480:17498   */\n      add\n        /* \"#utility.yul\":17472:17498   */\n      swap1\n      pop\n        /* \"#utility.yul\":17544:17553   */\n      dup2\n        /* \"#utility.yul\":17538:17542   */\n      dup2\n        /* \"#utility.yul\":17534:17554   */\n      sub\n        /* \"#utility.yul\":17530:17531   */\n      0x00\n        /* \"#utility.yul\":17519:17528   */\n      dup4\n        /* \"#utility.yul\":17515:17532   */\n      add\n        /* \"#utility.yul\":17508:17555   */\n      mstore\n        /* \"#utility.yul\":17572:17650   */\n      tag_545\n        /* \"#utility.yul\":17645:17649   */\n      dup2\n        /* \"#utility.yul\":17636:17642   */\n      dup5\n        /* \"#utility.yul\":17572:17650   */\n      tag_462\n      jump\t// in\n    tag_545:\n        /* \"#utility.yul\":17564:17650   */\n      swap1\n      pop\n        /* \"#utility.yul\":17344:17657   */\n      swap3\n      swap2\n      pop\n      pop\n      jump\t// out\n        /* \"#utility.yul\":17663:18287   */\n    tag_44:\n        /* \"#utility.yul\":17852:17856   */\n      0x00\n        /* \"#utility.yul\":17890:17892   */\n      0x60\n        /* \"#utility.yul\":17879:17888   */\n      dup3\n        /* \"#utility.yul\":17875:17893   */\n      add\n        /* \"#utility.yul\":17867:17893   */\n      swap1\n      pop\n        /* \"#utility.yul\":17939:17948   */\n      dup2\n        /* \"#utility.yul\":17933:17937   */\n      dup2\n        /* \"#utility.yul\":17929:17949   */\n      sub\n        /* \"#utility.yul\":17925:17926   */\n      0x00\n        /* \"#utility.yul\":17914:17923   */\n      dup4\n        /* \"#utility.yul\":17910:17927   */\n      add\n        /* \"#utility.yul\":17903:17950   */\n      mstore\n        /* \"#utility.yul\":17967:18045   */\n      tag_547\n        /* \"#utility.yul\":18040:18044   */\n      dup2\n        /* \"#utility.yul\":18031:18037   */\n      dup7\n        /* \"#utility.yul\":17967:18045   */\n      tag_462\n      jump\t// in\n    tag_547:\n        /* \"#utility.yul\":17959:18045   */\n      swap1\n      pop\n        /* \"#utility.yul\":18055:18127   */\n      tag_548\n        /* \"#utility.yul\":18123:18125   */\n      0x20\n        /* \"#utility.yul\":18112:18121   */\n      dup4\n        /* \"#utility.yul\":18108:18126   */\n      add\n        /* \"#utility.yul\":18099:18105   */\n      dup6\n        /* \"#utility.yul\":18055:18127   */\n      tag_410\n      jump\t// in\n    tag_548:\n        /* \"#utility.yul\":18174:18183   */\n      dup2\n        /* \"#utility.yul\":18168:18172   */\n      dup2\n        /* \"#utility.yul\":18164:18184   */\n      sub\n        /* \"#utility.yul\":18159:18161   */\n      0x40\n        /* \"#utility.yul\":18148:18157   */\n      dup4\n        /* \"#utility.yul\":18144:18162   */\n      add\n        /* \"#utility.yul\":18137:18185   */\n      mstore\n        /* \"#utility.yul\":18202:18280   */\n      tag_549\n        /* \"#utility.yul\":18275:18279   */\n      dup2\n        /* \"#utility.yul\":18266:18272   */\n      dup5\n        /* \"#utility.yul\":18202:18280   */\n      tag_462\n      jump\t// in\n    tag_549:\n        /* \"#utility.yul\":18194:18280   */\n      swap1\n      pop\n        /* \"#utility.yul\":17663:18287   */\n      swap5\n      swap4\n      pop\n      pop\n      pop\n      pop\n      jump\t// out\n        /* \"#utility.yul\":18293:18712   */\n    tag_286:\n        /* \"#utility.yul\":18459:18463   */\n      0x00\n        /* \"#utility.yul\":18497:18499   */\n      0x20\n        /* \"#utility.yul\":18486:18495   */\n      dup3\n        /* \"#utility.yul\":18482:18500   */\n      add\n        /* \"#utility.yul\":18474:18500   */\n      swap1\n      pop\n        /* \"#utility.yul\":18546:18555   */\n      dup2\n        /* \"#utility.yul\":18540:18544   */\n      dup2\n        /* \"#utility.yul\":18536:18556   */\n      sub\n        /* \"#utility.yul\":18532:18533   */\n      0x00\n        /* \"#utility.yul\":18521:18530   */\n      dup4\n        /* \"#utility.yul\":18517:18534   */\n      add\n        /* \"#utility.yul\":18510:18557   */\n      mstore\n        /* \"#utility.yul\":18574:18705   */\n      tag_551\n        /* \"#utility.yul\":18700:18704   */\n      dup2\n        /* \"#utility.yul\":18574:18705   */\n      tag_475\n      jump\t// in\n    tag_551:\n        /* \"#utility.yul\":18566:18705   */\n      swap1\n      pop\n        /* \"#utility.yul\":18293:18712   */\n      swap2\n      swap1\n      pop\n      jump\t// out\n        /* \"#utility.yul\":18718:19137   */\n    tag_226:\n        /* \"#utility.yul\":18884:18888   */\n      0x00\n        /* \"#utility.yul\":18922:18924   */\n      0x20\n        /* \"#utility.yul\":18911:18920   */\n      dup3\n        /* \"#utility.yul\":18907:18925   */\n      add\n        /* \"#utility.yul\":18899:18925   */\n      swap1\n      pop\n        /* \"#utility.yul\":18971:18980   */\n      dup2\n        /* \"#utility.yul\":18965:18969   */\n      dup2\n        /* \"#utility.yul\":18961:18981   */\n      sub\n        /* \"#utility.yul\":18957:18958   */\n      0x00\n        /* \"#utility.yul\":18946:18955   */\n      dup4\n        /* \"#utility.yul\":18942:18959   */\n      add\n        /* \"#utility.yul\":18935:18982   */\n      mstore\n        /* \"#utility.yul\":18999:19130   */\n      tag_553\n        /* \"#utility.yul\":19125:19129   */\n      dup2\n        /* \"#utility.yul\":18999:19130   */\n      tag_480\n      jump\t// in\n    tag_553:\n        /* \"#utility.yul\":18991:19130   */\n      swap1\n      pop\n        /* \"#utility.yul\":18718:19137   */\n      swap2\n      swap1\n      pop\n      jump\t// out\n        /* \"#utility.yul\":19143:19562   */\n    tag_155:\n        /* \"#utility.yul\":19309:19313   */\n      0x00\n        /* \"#utility.yul\":19347:19349   */\n      0x20\n        /* \"#utility.yul\":19336:19345   */\n      dup3\n        /* \"#utility.yul\":19332:19350   */\n      add\n        /* \"#utility.yul\":19324:19350   */\n      swap1\n      pop\n        /* \"#utility.yul\":19396:19405   */\n      dup2\n        /* \"#utility.yul\":19390:19394   */\n      dup2\n        /* \"#utility.yul\":19386:19406   */\n      sub\n        /* \"#utility.yul\":19382:19383   */\n      0x00\n        /* \"#utility.yul\":19371:19380   */\n      dup4\n        /* \"#utility.yul\":19367:19384   */\n      add\n        /* \"#utility.yul\":19360:19407   */\n      mstore\n        /* \"#utility.yul\":19424:19555   */\n      tag_555\n        /* \"#utility.yul\":19550:19554   */\n      dup2\n        /* \"#utility.yul\":19424:19555   */\n      tag_485\n      jump\t// in\n    tag_555:\n        /* \"#utility.yul\":19416:19555   */\n      swap1\n      pop\n        /* \"#utility.yul\":19143:19562   */\n      swap2\n      swap1\n      pop\n      jump\t// out\n        /* \"#utility.yul\":19568:19987   */\n    tag_247:\n        /* \"#utility.yul\":19734:19738   */\n      0x00\n        /* \"#utility.yul\":19772:19774   */\n      0x20\n        /* \"#utility.yul\":19761:19770   */\n      dup3\n        /* \"#utility.yul\":19757:19775   */\n      add\n        /* \"#utility.yul\":19749:19775   */\n      swap1\n      pop\n        /* \"#utility.yul\":19821:19830   */\n      dup2\n        /* \"#utility.yul\":19815:19819   */\n      dup2\n        /* \"#utility.yul\":19811:19831   */\n      sub\n        /* \"#utility.yul\":19807:19808   */\n      0x00\n        /* \"#utility.yul\":19796:19805   */\n      dup4\n        /* \"#utility.yul\":19792:19809   */\n      add\n        /* \"#utility.yul\":19785:19832   */\n      mstore\n        /* \"#utility.yul\":19849:19980   */\n      tag_557\n        /* \"#utility.yul\":19975:19979   */\n      dup2\n        /* \"#utility.yul\":19849:19980   */\n      tag_490\n      jump\t// in\n    tag_557:\n        /* \"#utility.yul\":19841:19980   */\n      swap1\n      pop\n        /* \"#utility.yul\":19568:19987   */\n      swap2\n      swap1\n      pop\n      jump\t// out\n        /* \"#utility.yul\":19993:20412   */\n    tag_148:\n        /* \"#utility.yul\":20159:20163   */\n      0x00\n        /* \"#utility.yul\":20197:20199   */\n      0x20\n        /* \"#utility.yul\":20186:20195   */\n      dup3\n        /* \"#utility.yul\":20182:20200   */\n      add\n        /* \"#utility.yul\":20174:20200   */\n      swap1\n      pop\n        /* \"#utility.yul\":20246:20255   */\n      dup2\n        /* \"#utility.yul\":20240:20244   */\n      dup2\n        /* \"#utility.yul\":20236:20256   */\n      sub\n        /* \"#utility.yul\":20232:20233   */\n      0x00\n        /* \"#utility.yul\":20221:20230   */\n      dup4\n        /* \"#utility.yul\":20217:20234   */\n      add\n        /* \"#utility.yul\":20210:20257   */\n      mstore\n        /* \"#utility.yul\":20274:20405   */\n      tag_559\n        /* \"#utility.yul\":20400:20404   */\n      dup2\n        /* \"#utility.yul\":20274:20405   */\n      tag_505\n      jump\t// in\n    tag_559:\n        /* \"#utility.yul\":20266:20405   */\n      swap1\n      pop\n        /* \"#utility.yul\":19993:20412   */\n      swap2\n      swap1\n      pop\n      jump\t// out\n        /* \"#utility.yul\":20418:20795   */\n    tag_88:\n        /* \"#utility.yul\":20563:20567   */\n      0x00\n        /* \"#utility.yul\":20601:20603   */\n      0x20\n        /* \"#utility.yul\":20590:20599   */\n      dup3\n        /* \"#utility.yul\":20586:20604   */\n      add\n        /* \"#utility.yul\":20578:20604   */\n      swap1\n      pop\n        /* \"#utility.yul\":20650:20659   */\n      dup2\n        /* \"#utility.yul\":20644:20648   */\n      dup2\n        /* \"#utility.yul\":20640:20660   */\n      sub\n        /* \"#utility.yul\":20636:20637   */\n      0x00\n        /* \"#utility.yul\":20625:20634   */\n      dup4\n        /* \"#utility.yul\":20621:20638   */\n      add\n        /* \"#utility.yul\":20614:20661   */\n      mstore\n        /* \"#utility.yul\":20678:20788   */\n      tag_561\n        /* \"#utility.yul\":20783:20787   */\n      dup2\n        /* \"#utility.yul\":20774:20780   */\n      dup5\n        /* \"#utility.yul\":20678:20788   */\n      tag_510\n      jump\t// in\n    tag_561:\n        /* \"#utility.yul\":20670:20788   */\n      swap1\n      pop\n        /* \"#utility.yul\":20418:20795   */\n      swap3\n      swap2\n      pop\n      pop\n      jump\t// out\n        /* \"#utility.yul\":20801:21174   */\n    tag_83:\n        /* \"#utility.yul\":20944:20948   */\n      0x00\n        /* \"#utility.yul\":20982:20984   */\n      0x20\n        /* \"#utility.yul\":20971:20980   */\n      dup3\n        /* \"#utility.yul\":20967:20985   */\n      add\n        /* \"#utility.yul\":20959:20985   */\n      swap1\n      pop\n        /* \"#utility.yul\":21031:21040   */\n      dup2\n        /* \"#utility.yul\":21025:21029   */\n      dup2\n        /* \"#utility.yul\":21021:21041   */\n      sub\n        /* \"#utility.yul\":21017:21018   */\n      0x00\n        /* \"#utility.yul\":21006:21015   */\n      dup4\n        /* \"#utility.yul\":21002:21019   */\n      add\n        /* \"#utility.yul\":20995:21042   */\n      mstore\n        /* \"#utility.yul\":21059:21167   */\n      tag_563\n        /* \"#utility.yul\":21162:21166   */\n      dup2\n        /* \"#utility.yul\":21153:21159   */\n      dup5\n        /* \"#utility.yul\":21059:21167   */\n      tag_515\n      jump\t// in\n    tag_563:\n        /* \"#utility.yul\":21051:21167   */\n      swap1\n      pop\n        /* \"#utility.yul\":20801:21174   */\n      swap3\n      swap2\n      pop\n      pop\n      jump\t// out\n        /* \"#utility.yul\":21180:21309   */\n    tag_310:\n        /* \"#utility.yul\":21214:21220   */\n      0x00\n        /* \"#utility.yul\":21241:21261   */\n      tag_565\n      tag_566\n      jump\t// in\n    tag_565:\n        /* \"#utility.yul\":21231:21261   */\n      swap1\n      pop\n        /* \"#utility.yul\":21270:21303   */\n      tag_567\n        /* \"#utility.yul\":21298:21302   */\n      dup3\n        /* \"#utility.yul\":21290:21296   */\n      dup3\n        /* \"#utility.yul\":21270:21303   */\n      tag_568\n      jump\t// in\n    tag_567:\n        /* \"#utility.yul\":21180:21309   */\n      swap2\n      swap1\n      pop\n      jump\t// out\n        /* \"#utility.yul\":21315:21390   */\n    tag_566:\n        /* \"#utility.yul\":21348:21354   */\n      0x00\n        /* \"#utility.yul\":21381:21383   */\n      0x40\n        /* \"#utility.yul\":21375:21384   */\n      mload\n        /* \"#utility.yul\":21365:21384   */\n      swap1\n      pop\n        /* \"#utility.yul\":21315:21390   */\n      swap1\n      jump\t// out\n        /* \"#utility.yul\":21396:21707   */\n    tag_309:\n        /* \"#utility.yul\":21473:21477   */\n      0x00\n        /* \"#utility.yul\":21563:21581   */\n      0xffffffffffffffff\n        /* \"#utility.yul\":21555:21561   */\n      dup3\n        /* \"#utility.yul\":21552:21582   */\n      gt\n        /* \"#utility.yul\":21549:21605   */\n      iszero\n      tag_571\n      jumpi\n        /* \"#utility.yul\":21585:21603   */\n      tag_572\n      tag_267\n      jump\t// in\n    tag_572:\n        /* \"#utility.yul\":21549:21605   */\n    tag_571:\n        /* \"#utility.yul\":21635:21639   */\n      0x20\n        /* \"#utility.yul\":21627:21633   */\n      dup3\n        /* \"#utility.yul\":21623:21640   */\n      mul\n        /* \"#utility.yul\":21615:21640   */\n      swap1\n      pop\n        /* \"#utility.yul\":21695:21699   */\n      0x20\n        /* \"#utility.yul\":21689:21693   */\n      dup2\n        /* \"#utility.yul\":21685:21700   */\n      add\n        /* \"#utility.yul\":21677:21700   */\n      swap1\n      pop\n        /* \"#utility.yul\":21396:21707   */\n      swap2\n      swap1\n      pop\n      jump\t// out\n        /* \"#utility.yul\":21713:22021   */\n    tag_323:\n        /* \"#utility.yul\":21775:21779   */\n      0x00\n        /* \"#utility.yul\":21865:21883   */\n      0xffffffffffffffff\n        /* \"#utility.yul\":21857:21863   */\n      dup3\n        /* \"#utility.yul\":21854:21884   */\n      gt\n        /* \"#utility.yul\":21851:21907   */\n      iszero\n      tag_574\n      jumpi\n        /* \"#utility.yul\":21887:21905   */\n      tag_575\n      tag_267\n      jump\t// in\n    tag_575:\n        /* \"#utility.yul\":21851:21907   */\n    tag_574:\n        /* \"#utility.yul\":21925:21954   */\n      tag_576\n        /* \"#utility.yul\":21947:21953   */\n      dup3\n        /* \"#utility.yul\":21925:21954   */\n      tag_461\n      jump\t// in\n    tag_576:\n        /* \"#utility.yul\":21917:21954   */\n      swap1\n      pop\n        /* \"#utility.yul\":22009:22013   */\n      0x20\n        /* \"#utility.yul\":22003:22007   */\n      dup2\n        /* \"#utility.yul\":21999:22014   */\n      add\n        /* \"#utility.yul\":21991:22014   */\n      swap1\n      pop\n        /* \"#utility.yul\":21713:22021   */\n      swap2\n      swap1\n      pop\n      jump\t// out\n        /* \"#utility.yul\":22027:22159   */\n    tag_420:\n        /* \"#utility.yul\":22094:22098   */\n      0x00\n        /* \"#utility.yul\":22117:22120   */\n      dup2\n        /* \"#utility.yul\":22109:22120   */\n      swap1\n      pop\n        /* \"#utility.yul\":22147:22151   */\n      0x20\n        /* \"#utility.yul\":22142:22145   */\n      dup3\n        /* \"#utility.yul\":22138:22152   */\n      add\n        /* \"#utility.yul\":22130:22152   */\n      swap1\n      pop\n        /* \"#utility.yul\":22027:22159   */\n      swap2\n      swap1\n      pop\n      jump\t// out\n        /* \"#utility.yul\":22165:22297   */\n    tag_434:\n        /* \"#utility.yul\":22232:22236   */\n      0x00\n        /* \"#utility.yul\":22255:22258   */\n      dup2\n        /* \"#utility.yul\":22247:22258   */\n      swap1\n      pop\n        /* \"#utility.yul\":22285:22289   */\n      0x20\n        /* \"#utility.yul\":22280:22283   */\n      dup3\n        /* \"#utility.yul\":22276:22290   */\n      add\n        /* \"#utility.yul\":22268:22290   */\n      swap1\n      pop\n        /* \"#utility.yul\":22165:22297   */\n      swap2\n      swap1\n      pop\n      jump\t// out\n        /* \"#utility.yul\":22303:22417   */\n    tag_416:\n        /* \"#utility.yul\":22370:22376   */\n      0x00\n        /* \"#utility.yul\":22404:22409   */\n      dup2\n        /* \"#utility.yul\":22398:22410   */\n      mload\n        /* \"#utility.yul\":22388:22410   */\n      swap1\n      pop\n        /* \"#utility.yul\":22303:22417   */\n      swap2\n      swap1\n      pop\n      jump\t// out\n        /* \"#utility.yul\":22423:22537   */\n    tag_430:\n        /* \"#utility.yul\":22490:22496   */\n      0x00\n        /* \"#utility.yul\":22524:22529   */\n      dup2\n        /* \"#utility.yul\":22518:22530   */\n      mload\n        /* \"#utility.yul\":22508:22530   */\n      swap1\n      pop\n        /* \"#utility.yul\":22423:22537   */\n      swap2\n      swap1\n      pop\n      jump\t// out\n        /* \"#utility.yul\":22543:22642   */\n    tag_455:\n        /* \"#utility.yul\":22595:22601   */\n      0x00\n        /* \"#utility.yul\":22629:22634   */\n      dup2\n        /* \"#utility.yul\":22623:22635   */\n      mload\n        /* \"#utility.yul\":22613:22635   */\n      swap1\n      pop\n        /* \"#utility.yul\":22543:22642   */\n      swap2\n      swap1\n      pop\n      jump\t// out\n        /* \"#utility.yul\":22648:22761   */\n    tag_426:\n        /* \"#utility.yul\":22718:22722   */\n      0x00\n        /* \"#utility.yul\":22750:22754   */\n      0x20\n        /* \"#utility.yul\":22745:22748   */\n      dup3\n        /* \"#utility.yul\":22741:22755   */\n      add\n        /* \"#utility.yul\":22733:22755   */\n      swap1\n      pop\n        /* \"#utility.yul\":22648:22761   */\n      swap2\n      swap1\n      pop\n      jump\t// out\n        /* \"#utility.yul\":22767:22880   */\n    tag_440:\n        /* \"#utility.yul\":22837:22841   */\n      0x00\n        /* \"#utility.yul\":22869:22873   */\n      0x20\n        /* \"#utility.yul\":22864:22867   */\n      dup3\n        /* \"#utility.yul\":22860:22874   */\n      add\n        /* \"#utility.yul\":22852:22874   */\n      swap1\n      pop\n        /* \"#utility.yul\":22767:22880   */\n      swap2\n      swap1\n      pop\n      jump\t// out\n        /* \"#utility.yul\":22886:23060   */\n    tag_418:\n        /* \"#utility.yul\":22975:22986   */\n      0x00\n        /* \"#utility.yul\":23009:23015   */\n      dup3\n        /* \"#utility.yul\":23004:23007   */\n      dup3\n        /* \"#utility.yul\":22997:23016   */\n      mstore\n        /* \"#utility.yul\":23049:23053   */\n      0x20\n        /* \"#utility.yul\":23044:23047   */\n      dup3\n        /* \"#utility.yul\":23040:23054   */\n      add\n        /* \"#utility.yul\":23025:23054   */\n      swap1\n      pop\n        /* \"#utility.yul\":22886:23060   */\n      swap3\n      swap2\n      pop\n      pop\n      jump\t// out\n        /* \"#utility.yul\":23066:23240   */\n    tag_432:\n        /* \"#utility.yul\":23155:23166   */\n      0x00\n        /* \"#utility.yul\":23189:23195   */\n      dup3\n        /* \"#utility.yul\":23184:23187   */\n      dup3\n        /* \"#utility.yul\":23177:23196   */\n      mstore\n        /* \"#utility.yul\":23229:23233   */\n      0x20\n        /* \"#utility.yul\":23224:23227   */\n      dup3\n        /* \"#utility.yul\":23220:23234   */\n      add\n        /* \"#utility.yul\":23205:23234   */\n      swap1\n      pop\n        /* \"#utility.yul\":23066:23240   */\n      swap3\n      swap2\n      pop\n      pop\n      jump\t// out\n        /* \"#utility.yul\":23246:23405   */\n    tag_457:\n        /* \"#utility.yul\":23320:23331   */\n      0x00\n        /* \"#utility.yul\":23354:23360   */\n      dup3\n        /* \"#utility.yul\":23349:23352   */\n      dup3\n        /* \"#utility.yul\":23342:23361   */\n      mstore\n        /* \"#utility.yul\":23394:23398   */\n      0x20\n        /* \"#utility.yul\":23389:23392   */\n      dup3\n        /* \"#utility.yul\":23385:23399   */\n      add\n        /* \"#utility.yul\":23370:23399   */\n      swap1\n      pop\n        /* \"#utility.yul\":23246:23405   */\n      swap3\n      swap2\n      pop\n      pop\n      jump\t// out\n        /* \"#utility.yul\":23411:23580   */\n    tag_466:\n        /* \"#utility.yul\":23495:23506   */\n      0x00\n        /* \"#utility.yul\":23529:23535   */\n      dup3\n        /* \"#utility.yul\":23524:23527   */\n      dup3\n        /* \"#utility.yul\":23517:23536   */\n      mstore\n        /* \"#utility.yul\":23569:23573   */\n      0x20\n        /* \"#utility.yul\":23564:23567   */\n      dup3\n        /* \"#utility.yul\":23560:23574   */\n      add\n        /* \"#utility.yul\":23545:23574   */\n      swap1\n      pop\n        /* \"#utility.yul\":23411:23580   */\n      swap3\n      swap2\n      pop\n      pop\n      jump\t// out\n        /* \"#utility.yul\":23586:23734   */\n    tag_473:\n        /* \"#utility.yul\":23688:23699   */\n      0x00\n        /* \"#utility.yul\":23725:23728   */\n      dup2\n        /* \"#utility.yul\":23710:23728   */\n      swap1\n      pop\n        /* \"#utility.yul\":23586:23734   */\n      swap3\n      swap2\n      pop\n      pop\n      jump\t// out\n        /* \"#utility.yul\":23740:24045   */\n    tag_264:\n        /* \"#utility.yul\":23780:23783   */\n      0x00\n        /* \"#utility.yul\":23799:23819   */\n      tag_590\n        /* \"#utility.yul\":23817:23818   */\n      dup3\n        /* \"#utility.yul\":23799:23819   */\n      tag_524\n      jump\t// in\n    tag_590:\n        /* \"#utility.yul\":23794:23819   */\n      swap2\n      pop\n        /* \"#utility.yul\":23833:23853   */\n      tag_591\n        /* \"#utility.yul\":23851:23852   */\n      dup4\n        /* \"#utility.yul\":23833:23853   */\n      tag_524\n      jump\t// in\n    tag_591:\n        /* \"#utility.yul\":23828:23853   */\n      swap3\n      pop\n        /* \"#utility.yul\":23987:23988   */\n      dup3\n        /* \"#utility.yul\":23919:23985   */\n      0xffffffffffffffffffffffffffffffffffffffffffffffffffffffffffffffff\n        /* \"#utility.yul\":23915:23989   */\n      sub\n        /* \"#utility.yul\":23912:23913   */\n      dup3\n        /* \"#utility.yul\":23909:23990   */\n      gt\n        /* \"#utility.yul\":23906:24013   */\n      iszero\n      tag_592\n      jumpi\n        /* \"#utility.yul\":23993:24011   */\n      tag_593\n      tag_594\n      jump\t// in\n    tag_593:\n        /* \"#utility.yul\":23906:24013   */\n    tag_592:\n        /* \"#utility.yul\":24037:24038   */\n      dup3\n        /* \"#utility.yul\":24034:24035   */\n      dup3\n        /* \"#utility.yul\":24030:24039   */\n      add\n        /* \"#utility.yul\":24023:24039   */\n      swap1\n      pop\n        /* \"#utility.yul\":23740:24045   */\n      swap3\n      swap2\n      pop\n      pop\n      jump\t// out\n        /* \"#utility.yul\":24051:24399   */\n    tag_262:\n        /* \"#utility.yul\":24091:24098   */\n      0x00\n        /* \"#utility.yul\":24114:24134   */\n      tag_596\n        /* \"#utility.yul\":24132:24133   */\n      dup3\n        /* \"#utility.yul\":24114:24134   */\n      tag_524\n      jump\t// in\n    tag_596:\n        /* \"#utility.yul\":24109:24134   */\n      swap2\n      pop\n        /* \"#utility.yul\":24148:24168   */\n      tag_597\n        /* \"#utility.yul\":24166:24167   */\n      dup4\n        /* \"#utility.yul\":24148:24168   */\n      tag_524\n      jump\t// in\n    tag_597:\n        /* \"#utility.yul\":24143:24168   */\n      swap3\n      pop\n        /* \"#utility.yul\":24336:24337   */\n      dup2\n        /* \"#utility.yul\":24268:24334   */\n      0xffffffffffffffffffffffffffffffffffffffffffffffffffffffffffffffff\n        /* \"#utility.yul\":24264:24338   */\n      div\n        /* \"#utility.yul\":24261:24262   */\n      dup4\n        /* \"#utility.yul\":24258:24339   */\n      gt\n        /* \"#utility.yul\":24253:24254   */\n      dup3\n        /* \"#utility.yul\":24246:24255   */\n      iszero\n        /* \"#utility.yul\":24239:24256   */\n      iszero\n        /* \"#utility.yul\":24235:24340   */\n      and\n        /* \"#utility.yul\":24232:24363   */\n      iszero\n      tag_598\n      jumpi\n        /* \"#utility.yul\":24343:24361   */\n      tag_599\n      tag_594\n      jump\t// in\n    tag_599:\n        /* \"#utility.yul\":24232:24363   */\n    tag_598:\n        /* \"#utility.yul\":24391:24392   */\n      dup3\n        /* \"#utility.yul\":24388:24389   */\n      dup3\n        /* \"#utility.yul\":24384:24393   */\n      mul\n        /* \"#utility.yul\":24373:24393   */\n      swap1\n      pop\n        /* \"#utility.yul\":24051:24399   */\n      swap3\n      swap2\n      pop\n      pop\n      jump\t// out\n        /* \"#utility.yul\":24405:24501   */\n    tag_409:\n        /* \"#utility.yul\":24442:24449   */\n      0x00\n        /* \"#utility.yul\":24471:24495   */\n      tag_601\n        /* \"#utility.yul\":24489:24494   */\n      dup3\n        /* \"#utility.yul\":24471:24495   */\n      tag_602\n      jump\t// in\n    tag_601:\n        /* \"#utility.yul\":24460:24495   */\n      swap1\n      pop\n        /* \"#utility.yul\":24405:24501   */\n      swap2\n      swap1\n      pop\n      jump\t// out\n        /* \"#utility.yul\":24507:24597   */\n    tag_444:\n        /* \"#utility.yul\":24541:24548   */\n      0x00\n        /* \"#utility.yul\":24584:24589   */\n      dup2\n        /* \"#utility.yul\":24577:24590   */\n      iszero\n        /* \"#utility.yul\":24570:24591   */\n      iszero\n        /* \"#utility.yul\":24559:24591   */\n      swap1\n      pop\n        /* \"#utility.yul\":24507:24597   */\n      swap2\n      swap1\n      pop\n      jump\t// out\n        /* \"#utility.yul\":24603:24680   */\n    tag_451:\n        /* \"#utility.yul\":24640:24647   */\n      0x00\n        /* \"#utility.yul\":24669:24674   */\n      dup2\n        /* \"#utility.yul\":24658:24674   */\n      swap1\n      pop\n        /* \"#utility.yul\":24603:24680   */\n      swap2\n      swap1\n      pop\n      jump\t// out\n        /* \"#utility.yul\":24686:24835   */\n    tag_605:\n        /* \"#utility.yul\":24722:24729   */\n      0x00\n        /* \"#utility.yul\":24762:24828   */\n      0xffffffff00000000000000000000000000000000000000000000000000000000\n        /* \"#utility.yul\":24755:24760   */\n      dup3\n        /* \"#utility.yul\":24751:24829   */\n      and\n        /* \"#utility.yul\":24740:24829   */\n      swap1\n      pop\n        /* \"#utility.yul\":24686:24835   */\n      swap2\n      swap1\n      pop\n      jump\t// out\n        /* \"#utility.yul\":24841:24967   */\n    tag_602:\n        /* \"#utility.yul\":24878:24885   */\n      0x00\n        /* \"#utility.yul\":24918:24960   */\n      0xffffffffffffffffffffffffffffffffffffffff\n        /* \"#utility.yul\":24911:24916   */\n      dup3\n        /* \"#utility.yul\":24907:24961   */\n      and\n        /* \"#utility.yul\":24896:24961   */\n      swap1\n      pop\n        /* \"#utility.yul\":24841:24967   */\n      swap2\n      swap1\n      pop\n      jump\t// out\n        /* \"#utility.yul\":24973:25050   */\n    tag_524:\n        /* \"#utility.yul\":25010:25017   */\n      0x00\n        /* \"#utility.yul\":25039:25044   */\n      dup2\n        /* \"#utility.yul\":25028:25044   */\n      swap1\n      pop\n        /* \"#utility.yul\":24973:25050   */\n      swap2\n      swap1\n      pop\n      jump\t// out\n        /* \"#utility.yul\":25056:25210   */\n    tag_328:\n        /* \"#utility.yul\":25140:25146   */\n      dup3\n        /* \"#utility.yul\":25135:25138   */\n      dup2\n        /* \"#utility.yul\":25130:25133   */\n      dup4\n        /* \"#utility.yul\":25117:25147   */\n      calldatacopy\n        /* \"#utility.yul\":25202:25203   */\n      0x00\n        /* \"#utility.yul\":25193:25199   */\n      dup4\n        /* \"#utility.yul\":25188:25191   */\n      dup4\n        /* \"#utility.yul\":25184:25200   */\n      add\n        /* \"#utility.yul\":25177:25204   */\n      mstore\n        /* \"#utility.yul\":25056:25210   */\n      pop\n      pop\n      pop\n      jump\t// out\n        /* \"#utility.yul\":25216:25523   */\n    tag_459:\n        /* \"#utility.yul\":25284:25285   */\n      0x00\n        /* \"#utility.yul\":25294:25407   */\n    tag_611:\n        /* \"#utility.yul\":25308:25314   */\n      dup4\n        /* \"#utility.yul\":25305:25306   */\n      dup2\n        /* \"#utility.yul\":25302:25315   */\n      lt\n        /* \"#utility.yul\":25294:25407   */\n      iszero\n      tag_613\n      jumpi\n        /* \"#utility.yul\":25393:25394   */\n      dup1\n        /* \"#utility.yul\":25388:25391   */\n      dup3\n        /* \"#utility.yul\":25384:25395   */\n      add\n        /* \"#utility.yul\":25378:25396   */\n      mload\n        /* \"#utility.yul\":25374:25375   */\n      dup2\n        /* \"#utility.yul\":25369:25372   */\n      dup5\n        /* \"#utility.yul\":25365:25376   */\n      add\n        /* \"#utility.yul\":25358:25397   */\n      mstore\n        /* \"#utility.yul\":25330:25332   */\n      0x20\n        /* \"#utility.yul\":25327:25328   */\n      dup2\n        /* \"#utility.yul\":25323:25333   */\n      add\n        /* \"#utility.yul\":25318:25333   */\n      swap1\n      pop\n        /* \"#utility.yul\":25294:25407   */\n      jump(tag_611)\n    tag_613:\n        /* \"#utility.yul\":25425:25431   */\n      dup4\n        /* \"#utility.yul\":25422:25423   */\n      dup2\n        /* \"#utility.yul\":25419:25432   */\n      gt\n        /* \"#utility.yul\":25416:25517   */\n      iszero\n      tag_614\n      jumpi\n        /* \"#utility.yul\":25505:25506   */\n      0x00\n        /* \"#utility.yul\":25496:25502   */\n      dup5\n        /* \"#utility.yul\":25491:25494   */\n      dup5\n        /* \"#utility.yul\":25487:25503   */\n      add\n        /* \"#utility.yul\":25480:25507   */\n      mstore\n        /* \"#utility.yul\":25416:25517   */\n    tag_614:\n        /* \"#utility.yul\":25265:25523   */\n      pop\n        /* \"#utility.yul\":25216:25523   */\n      pop\n      pop\n      pop\n      jump\t// out\n        /* \"#utility.yul\":25529:25700   */\n    tag_283:\n        /* \"#utility.yul\":25568:25571   */\n      0x00\n        /* \"#utility.yul\":25591:25615   */\n      tag_616\n        /* \"#utility.yul\":25609:25614   */\n      dup3\n        /* \"#utility.yul\":25591:25615   */\n      tag_524\n      jump\t// in\n    tag_616:\n        /* \"#utility.yul\":25582:25615   */\n      swap2\n      pop\n        /* \"#utility.yul\":25637:25641   */\n      0x00\n        /* \"#utility.yul\":25630:25635   */\n      dup3\n        /* \"#utility.yul\":25627:25642   */\n      eq\n        /* \"#utility.yul\":25624:25665   */\n      iszero\n      tag_617\n      jumpi\n        /* \"#utility.yul\":25645:25663   */\n      tag_618\n      tag_594\n      jump\t// in\n    tag_618:\n        /* \"#utility.yul\":25624:25665   */\n    tag_617:\n        /* \"#utility.yul\":25692:25693   */\n      0x01\n        /* \"#utility.yul\":25685:25690   */\n      dup3\n        /* \"#utility.yul\":25681:25694   */\n      sub\n        /* \"#utility.yul\":25674:25694   */\n      swap1\n      pop\n        /* \"#utility.yul\":25529:25700   */\n      swap2\n      swap1\n      pop\n      jump\t// out\n        /* \"#utility.yul\":25706:26026   */\n    tag_119:\n        /* \"#utility.yul\":25750:25756   */\n      0x00\n        /* \"#utility.yul\":25787:25788   */\n      0x02\n        /* \"#utility.yul\":25781:25785   */\n      dup3\n        /* \"#utility.yul\":25777:25789   */\n      div\n        /* \"#utility.yul\":25767:25789   */\n      swap1\n      pop\n        /* \"#utility.yul\":25834:25835   */\n      0x01\n        /* \"#utility.yul\":25828:25832   */\n      dup3\n        /* \"#utility.yul\":25824:25836   */\n      and\n        /* \"#utility.yul\":25855:25873   */\n      dup1\n        /* \"#utility.yul\":25845:25926   */\n      tag_620\n      jumpi\n        /* \"#utility.yul\":25911:25915   */\n      0x7f\n        /* \"#utility.yul\":25903:25909   */\n      dup3\n        /* \"#utility.yul\":25899:25916   */\n      and\n        /* \"#utility.yul\":25889:25916   */\n      swap2\n      pop\n        /* \"#utility.yul\":25845:25926   */\n    tag_620:\n        /* \"#utility.yul\":25973:25975   */\n      0x20\n        /* \"#utility.yul\":25965:25971   */\n      dup3\n        /* \"#utility.yul\":25962:25976   */\n      lt\n        /* \"#utility.yul\":25942:25960   */\n      dup2\n        /* \"#utility.yul\":25939:25977   */\n      eq\n        /* \"#utility.yul\":25936:26020   */\n      iszero\n      tag_621\n      jumpi\n        /* \"#utility.yul\":25992:26010   */\n      tag_622\n      tag_623\n      jump\t// in\n    tag_622:\n        /* \"#utility.yul\":25936:26020   */\n    tag_621:\n        /* \"#utility.yul\":25757:26026   */\n      pop\n        /* \"#utility.yul\":25706:26026   */\n      swap2\n      swap1\n      pop\n      jump\t// out\n        /* \"#utility.yul\":26032:26313   */\n    tag_568:\n        /* \"#utility.yul\":26115:26142   */\n      tag_625\n        /* \"#utility.yul\":26137:26141   */\n      dup3\n        /* \"#utility.yul\":26115:26142   */\n      tag_461\n      jump\t// in\n    tag_625:\n        /* \"#utility.yul\":26107:26113   */\n      dup2\n        /* \"#utility.yul\":26103:26143   */\n      add\n        /* \"#utility.yul\":26245:26251   */\n      dup2\n        /* \"#utility.yul\":26233:26243   */\n      dup2\n        /* \"#utility.yul\":26230:26252   */\n      lt\n        /* \"#utility.yul\":26209:26227   */\n      0xffffffffffffffff\n        /* \"#utility.yul\":26197:26207   */\n      dup3\n        /* \"#utility.yul\":26194:26228   */\n      gt\n        /* \"#utility.yul\":26191:26253   */\n      or\n        /* \"#utility.yul\":26188:26276   */\n      iszero\n      tag_626\n      jumpi\n        /* \"#utility.yul\":26256:26274   */\n      tag_627\n      tag_267\n      jump\t// in\n    tag_627:\n        /* \"#utility.yul\":26188:26276   */\n    tag_626:\n        /* \"#utility.yul\":26296:26306   */\n      dup1\n        /* \"#utility.yul\":26292:26294   */\n      0x40\n        /* \"#utility.yul\":26285:26307   */\n      mstore\n        /* \"#utility.yul\":26075:26313   */\n      pop\n        /* \"#utility.yul\":26032:26313   */\n      pop\n      pop\n      jump\t// out\n        /* \"#utility.yul\":26319:26552   */\n    tag_165:\n        /* \"#utility.yul\":26358:26361   */\n      0x00\n        /* \"#utility.yul\":26381:26405   */\n      tag_629\n        /* \"#utility.yul\":26399:26404   */\n      dup3\n        /* \"#utility.yul\":26381:26405   */\n      tag_524\n      jump\t// in\n    tag_629:\n        /* \"#utility.yul\":26372:26405   */\n      swap2\n      pop\n        /* \"#utility.yul\":26427:26493   */\n      0xffffffffffffffffffffffffffffffffffffffffffffffffffffffffffffffff\n        /* \"#utility.yul\":26420:26425   */\n      dup3\n        /* \"#utility.yul\":26417:26494   */\n      eq\n        /* \"#utility.yul\":26414:26517   */\n      iszero\n      tag_630\n      jumpi\n        /* \"#utility.yul\":26497:26515   */\n      tag_631\n      tag_594\n      jump\t// in\n    tag_631:\n        /* \"#utility.yul\":26414:26517   */\n    tag_630:\n        /* \"#utility.yul\":26544:26545   */\n      0x01\n        /* \"#utility.yul\":26537:26542   */\n      dup3\n        /* \"#utility.yul\":26533:26546   */\n      add\n        /* \"#utility.yul\":26526:26546   */\n      swap1\n      pop\n        /* \"#utility.yul\":26319:26552   */\n      swap2\n      swap1\n      pop\n      jump\t// out\n        /* \"#utility.yul\":26558:26738   */\n    tag_594:\n        /* \"#utility.yul\":26606:26683   */\n      0x4e487b7100000000000000000000000000000000000000000000000000000000\n        /* \"#utility.yul\":26603:26604   */\n      0x00\n        /* \"#utility.yul\":26596:26684   */\n      mstore\n        /* \"#utility.yul\":26703:26707   */\n      0x11\n        /* \"#utility.yul\":26700:26701   */\n      0x04\n        /* \"#utility.yul\":26693:26708   */\n      mstore\n        /* \"#utility.yul\":26727:26731   */\n      0x24\n        /* \"#utility.yul\":26724:26725   */\n      0x00\n        /* \"#utility.yul\":26717:26732   */\n      revert\n        /* \"#utility.yul\":26744:26924   */\n    tag_623:\n        /* \"#utility.yul\":26792:26869   */\n      0x4e487b7100000000000000000000000000000000000000000000000000000000\n        /* \"#utility.yul\":26789:26790   */\n      0x00\n        /* \"#utility.yul\":26782:26870   */\n      mstore\n        /* \"#utility.yul\":26889:26893   */\n      0x22\n        /* \"#utility.yul\":26886:26887   */\n      0x04\n        /* \"#utility.yul\":26879:26894   */\n      mstore\n        /* \"#utility.yul\":26913:26917   */\n      0x24\n        /* \"#utility.yul\":26910:26911   */\n      0x00\n        /* \"#utility.yul\":26903:26918   */\n      revert\n        /* \"#utility.yul\":26930:27110   */\n    tag_162:\n        /* \"#utility.yul\":26978:27055   */\n      0x4e487b7100000000000000000000000000000000000000000000000000000000\n        /* \"#utility.yul\":26975:26976   */\n      0x00\n        /* \"#utility.yul\":26968:27056   */\n      mstore\n        /* \"#utility.yul\":27075:27079   */\n      0x32\n        /* \"#utility.yul\":27072:27073   */\n      0x04\n        /* \"#utility.yul\":27065:27080   */\n      mstore\n        /* \"#utility.yul\":27099:27103   */\n      0x24\n        /* \"#utility.yul\":27096:27097   */\n      0x00\n        /* \"#utility.yul\":27089:27104   */\n      revert\n        /* \"#utility.yul\":27116:27296   */\n    tag_267:\n        /* \"#utility.yul\":27164:27241   */\n      0x4e487b7100000000000000000000000000000000000000000000000000000000\n        /* \"#utility.yul\":27161:27162   */\n      0x00\n        /* \"#utility.yul\":27154:27242   */\n      mstore\n        /* \"#utility.yul\":27261:27265   */\n      0x41\n        /* \"#utility.yul\":27258:27259   */\n      0x04\n        /* \"#utility.yul\":27251:27266   */\n      mstore\n        /* \"#utility.yul\":27285:27289   */\n      0x24\n        /* \"#utility.yul\":27282:27283   */\n      0x00\n        /* \"#utility.yul\":27275:27290   */\n      revert\n        /* \"#utility.yul\":27302:27419   */\n    tag_336:\n        /* \"#utility.yul\":27411:27412   */\n      0x00\n        /* \"#utility.yul\":27408:27409   */\n      dup1\n        /* \"#utility.yul\":27401:27413   */\n      revert\n        /* \"#utility.yul\":27425:27542   */\n    tag_313:\n        /* \"#utility.yul\":27534:27535   */\n      0x00\n        /* \"#utility.yul\":27531:27532   */\n      dup1\n        /* \"#utility.yul\":27524:27536   */\n      revert\n        /* \"#utility.yul\":27548:27665   */\n    tag_326:\n        /* \"#utility.yul\":27657:27658   */\n      0x00\n        /* \"#utility.yul\":27654:27655   */\n      dup1\n        /* \"#utility.yul\":27647:27659   */\n      revert\n        /* \"#utility.yul\":27671:27788   */\n    tag_370:\n        /* \"#utility.yul\":27780:27781   */\n      0x00\n        /* \"#utility.yul\":27777:27778   */\n      dup1\n        /* \"#utility.yul\":27770:27782   */\n      revert\n        /* \"#utility.yul\":27794:27911   */\n    tag_358:\n        /* \"#utility.yul\":27903:27904   */\n      0x00\n        /* \"#utility.yul\":27900:27901   */\n      dup1\n        /* \"#utility.yul\":27893:27905   */\n      revert\n        /* \"#utility.yul\":27917:28019   */\n    tag_461:\n        /* \"#utility.yul\":27958:27964   */\n      0x00\n        /* \"#utility.yul\":28009:28011   */\n      0x1f\n        /* \"#utility.yul\":28005:28012   */\n      not\n        /* \"#utility.yul\":28000:28002   */\n      0x1f\n        /* \"#utility.yul\":27993:27998   */\n      dup4\n        /* \"#utility.yul\":27989:28003   */\n      add\n        /* \"#utility.yul\":27985:28013   */\n      and\n        /* \"#utility.yul\":27975:28013   */\n      swap1\n      pop\n        /* \"#utility.yul\":27917:28019   */\n      swap2\n      swap1\n      pop\n      jump\t// out\n        /* \"#utility.yul\":28025:28207   */\n    tag_479:\n        /* \"#utility.yul\":28165:28199   */\n      0x537472696e67733a20686578206c656e67746820696e73756666696369656e74\n        /* \"#utility.yul\":28161:28162   */\n      0x00\n        /* \"#utility.yul\":28153:28159   */\n      dup3\n        /* \"#utility.yul\":28149:28163   */\n      add\n        /* \"#utility.yul\":28142:28200   */\n      mstore\n        /* \"#utility.yul\":28025:28207   */\n      pop\n      jump\t// out\n        /* \"#utility.yul\":28213:28438   */\n    tag_484:\n        /* \"#utility.yul\":28353:28387   */\n      0x4f776e61626c653a206e6577206f776e657220697320746865207a65726f2061\n        /* \"#utility.yul\":28349:28350   */\n      0x00\n        /* \"#utility.yul\":28341:28347   */\n      dup3\n        /* \"#utility.yul\":28337:28351   */\n      add\n        /* \"#utility.yul\":28330:28388   */\n      mstore\n        /* \"#utility.yul\":28422:28430   */\n      0x6464726573730000000000000000000000000000000000000000000000000000\n        /* \"#utility.yul\":28417:28419   */\n      0x20\n        /* \"#utility.yul\":28409:28415   */\n      dup3\n        /* \"#utility.yul\":28405:28420   */\n      add\n        /* \"#utility.yul\":28398:28431   */\n      mstore\n        /* \"#utility.yul\":28213:28438   */\n      pop\n      jump\t// out\n        /* \"#utility.yul\":28444:28625   */\n    tag_489:\n        /* \"#utility.yul\":28584:28617   */\n      0x43616c6c6572206973206e6f7420616e20494e45432065786563757469766500\n        /* \"#utility.yul\":28580:28581   */\n      0x00\n        /* \"#utility.yul\":28572:28578   */\n      dup3\n        /* \"#utility.yul\":28568:28582   */\n      add\n        /* \"#utility.yul\":28561:28618   */\n      mstore\n        /* \"#utility.yul\":28444:28625   */\n      pop\n      jump\t// out\n        /* \"#utility.yul\":28631:28813   */\n    tag_494:\n        /* \"#utility.yul\":28771:28805   */\n      0x4f776e61626c653a2063616c6c6572206973206e6f7420746865206f776e6572\n        /* \"#utility.yul\":28767:28768   */\n      0x00\n        /* \"#utility.yul\":28759:28765   */\n      dup3\n        /* \"#utility.yul\":28755:28769   */\n      add\n        /* \"#utility.yul\":28748:28806   */\n      mstore\n        /* \"#utility.yul\":28631:28813   */\n      pop\n      jump\t// out\n        /* \"#utility.yul\":28819:28992   */\n    tag_499:\n        /* \"#utility.yul\":28959:28984   */\n      0x416363657373436f6e74726f6c3a206163636f756e7420000000000000000000\n        /* \"#utility.yul\":28955:28956   */\n      0x00\n        /* \"#utility.yul\":28947:28953   */\n      dup3\n        /* \"#utility.yul\":28943:28957   */\n      add\n        /* \"#utility.yul\":28936:28985   */\n      mstore\n        /* \"#utility.yul\":28819:28992   */\n      pop\n      jump\t// out\n        /* \"#utility.yul\":28998:29165   */\n    tag_504:\n        /* \"#utility.yul\":29138:29157   */\n      0x206973206d697373696e6720726f6c6520000000000000000000000000000000\n        /* \"#utility.yul\":29134:29135   */\n      0x00\n        /* \"#utility.yul\":29126:29132   */\n      dup3\n        /* \"#utility.yul\":29122:29136   */\n      add\n        /* \"#utility.yul\":29115:29158   */\n      mstore\n        /* \"#utility.yul\":28998:29165   */\n      pop\n      jump\t// out\n        /* \"#utility.yul\":29171:29405   */\n    tag_509:\n        /* \"#utility.yul\":29311:29345   */\n      0x416363657373436f6e74726f6c3a2063616e206f6e6c792072656e6f756e6365\n        /* \"#utility.yul\":29307:29308   */\n      0x00\n        /* \"#utility.yul\":29299:29305   */\n      dup3\n        /* \"#utility.yul\":29295:29309   */\n      add\n        /* \"#utility.yul\":29288:29346   */\n      mstore\n        /* \"#utility.yul\":29380:29397   */\n      0x20726f6c657320666f722073656c660000000000000000000000000000000000\n        /* \"#utility.yul\":29375:29377   */\n      0x20\n        /* \"#utility.yul\":29367:29373   */\n      dup3\n        /* \"#utility.yul\":29363:29378   */\n      add\n        /* \"#utility.yul\":29356:29398   */\n      mstore\n        /* \"#utility.yul\":29171:29405   */\n      pop\n      jump\t// out\n        /* \"#utility.yul\":29411:29533   */\n    tag_331:\n        /* \"#utility.yul\":29484:29508   */\n      tag_650\n        /* \"#utility.yul\":29502:29507   */\n      dup2\n        /* \"#utility.yul\":29484:29508   */\n      tag_409\n      jump\t// in\n    tag_650:\n        /* \"#utility.yul\":29477:29482   */\n      dup2\n        /* \"#utility.yul\":29474:29509   */\n      eq\n        /* \"#utility.yul\":29464:29527   */\n      tag_651\n      jumpi\n        /* \"#utility.yul\":29523:29524   */\n      0x00\n        /* \"#utility.yul\":29520:29521   */\n      dup1\n        /* \"#utility.yul\":29513:29525   */\n      revert\n        /* \"#utility.yul\":29464:29527   */\n    tag_651:\n        /* \"#utility.yul\":29411:29533   */\n      pop\n      jump\t// out\n        /* \"#utility.yul\":29539:29661   */\n    tag_341:\n        /* \"#utility.yul\":29612:29636   */\n      tag_653\n        /* \"#utility.yul\":29630:29635   */\n      dup2\n        /* \"#utility.yul\":29612:29636   */\n      tag_451\n      jump\t// in\n    tag_653:\n        /* \"#utility.yul\":29605:29610   */\n      dup2\n        /* \"#utility.yul\":29602:29637   */\n      eq\n        /* \"#utility.yul\":29592:29655   */\n      tag_654\n      jumpi\n        /* \"#utility.yul\":29651:29652   */\n      0x00\n        /* \"#utility.yul\":29648:29649   */\n      dup1\n        /* \"#utility.yul\":29641:29653   */\n      revert\n        /* \"#utility.yul\":29592:29655   */\n    tag_654:\n        /* \"#utility.yul\":29539:29661   */\n      pop\n      jump\t// out\n        /* \"#utility.yul\":29667:29787   */\n    tag_345:\n        /* \"#utility.yul\":29739:29762   */\n      tag_656\n        /* \"#utility.yul\":29756:29761   */\n      dup2\n        /* \"#utility.yul\":29739:29762   */\n      tag_605\n      jump\t// in\n    tag_656:\n        /* \"#utility.yul\":29732:29737   */\n      dup2\n        /* \"#utility.yul\":29729:29763   */\n      eq\n        /* \"#utility.yul\":29719:29781   */\n      tag_657\n      jumpi\n        /* \"#utility.yul\":29777:29778   */\n      0x00\n        /* \"#utility.yul\":29774:29775   */\n      dup1\n        /* \"#utility.yul\":29767:29779   */\n      revert\n        /* \"#utility.yul\":29719:29781   */\n    tag_657:\n        /* \"#utility.yul\":29667:29787   */\n      pop\n      jump\t// out\n        /* \"#utility.yul\":29793:29915   */\n    tag_354:\n        /* \"#utility.yul\":29866:29890   */\n      tag_659\n        /* \"#utility.yul\":29884:29889   */\n      dup2\n        /* \"#utility.yul\":29866:29890   */\n      tag_524\n      jump\t// in\n    tag_659:\n        /* \"#utility.yul\":29859:29864   */\n      dup2\n        /* \"#utility.yul\":29856:29891   */\n      eq\n        /* \"#utility.yul\":29846:29909   */\n      tag_660\n      jumpi\n        /* \"#utility.yul\":29905:29906   */\n      0x00\n        /* \"#utility.yul\":29902:29903   */\n      dup1\n        /* \"#utility.yul\":29895:29907   */\n      revert\n        /* \"#utility.yul\":29846:29909   */\n    tag_660:\n        /* \"#utility.yul\":29793:29915   */\n      pop\n      jump\t// out\n\n    auxdata: 0xa2646970667358221220bfc7e3749cc1dd63e603ca61cf3d5cb2de46691da626cc859a22ec6131a2b44e64736f6c63430008070033\n}\n",
				"bytecode": {
					"linkReferences": {},
					"object": "608060405260405180608001604052806040518060400160405280600381526020017f415043000000000000000000000000000000000000000000000000000000000081525081526020016040518060400160405280600381526020017f504450000000000000000000000000000000000000000000000000000000000081525081526020016040518060400160405280600281526020017f4c5000000000000000000000000000000000000000000000000000000000000081525081526020016040518060400160405280600481526020017f4e4e50500000000000000000000000000000000000000000000000000000000081525081525060069060046200010b92919062000393565b503480156200011957600080fd5b506200013a6200012e6200015560201b60201c565b6200015d60201b60201c565b6200014f6000801b336200022160201b60201c565b6200057d565b600033905090565b60008060009054906101000a900473ffffffffffffffffffffffffffffffffffffffff169050816000806101000a81548173ffffffffffffffffffffffffffffffffffffffff021916908373ffffffffffffffffffffffffffffffffffffffff1602179055508173ffffffffffffffffffffffffffffffffffffffff168173ffffffffffffffffffffffffffffffffffffffff167f8be0079c531659141344cd1fd0a4f28419497f9722a3daafe3b4186f6b6457e060405160405180910390a35050565b6200023382826200023760201b60201c565b5050565b6200024982826200032860201b60201c565b6200032457600180600084815260200190815260200160002060000160008373ffffffffffffffffffffffffffffffffffffffff1673ffffffffffffffffffffffffffffffffffffffff16815260200190815260200160002060006101000a81548160ff021916908315150217905550620002c96200015560201b60201c565b73ffffffffffffffffffffffffffffffffffffffff168173ffffffffffffffffffffffffffffffffffffffff16837f2f8788117e7eff1d82e926ec794901d17c78024a50270940304540a733656f0d60405160405180910390a45b5050565b60006001600084815260200190815260200160002060000160008373ffffffffffffffffffffffffffffffffffffffff1673ffffffffffffffffffffffffffffffffffffffff16815260200190815260200160002060009054906101000a900460ff16905092915050565b828054828255906000526020600020908101928215620003e7579160200282015b82811115620003e6578251829080519060200190620003d5929190620003fa565b5091602001919060010190620003b4565b5b509050620003f691906200048b565b5090565b828054620004089062000518565b90600052602060002090601f0160209004810192826200042c576000855562000478565b82601f106200044757805160ff191683800117855562000478565b8280016001018555821562000478579182015b82811115620004775782518255916020019190600101906200045a565b5b509050620004879190620004b3565b5090565b5b80821115620004af5760008181620004a59190620004d2565b506001016200048c565b5090565b5b80821115620004ce576000816000905550600101620004b4565b5090565b508054620004e09062000518565b6000825580601f10620004f4575062000515565b601f016020900490600052602060002090810190620005149190620004b3565b5b50565b600060028204905060018216806200053157607f821691505b602082108114156200054857620005476200054e565b5b50919050565b7f4e487b7100000000000000000000000000000000000000000000000000000000600052602260045260246000fd5b612799806200058d6000396000f3fe608060405234801561001057600080fd5b50600436106101375760003560e01c806391d14854116100b8578063a94015c81161007c578063a94015c814610379578063d547741f14610397578063d59d2a58146103b3578063dfd8459e146103cf578063ef49f4aa146103eb578063f2fde38b1461040757610137565b806391d14854146102985780639c35d98b146102c85780639d710777146102fb5780639e5f03491461032b578063a217fddf1461035b57610137565b8063314fd68f116100ff578063314fd68f1461020857806336568abe146102385780634f05dba814610254578063715018a6146102705780638da5cb5b1461027a57610137565b806301ffc9a71461013c578063248a9ca31461016c578063290e92121461019c5780632e0d37bb146101ce5780632f2ff15d146101ec575b600080fd5b61015660048036038101906101519190611a9f565b610423565b6040516101639190611fc3565b60405180910390f35b61018660048036038101906101819190611a32565b61049d565b6040516101939190611fde565b60405180910390f35b6101b660048036038101906101b19190611b3b565b6104bd565b6040516101c59392919061201b565b60405180910390f35b6101d6610617565b6040516101e39190611fde565b60405180910390f35b61020660048036038101906102019190611a5f565b61063b565b005b610222600480360381019061021d9190611b3b565b61065c565b60405161022f9190611ff9565b60405180910390f35b610252600480360381019061024d9190611a5f565b610708565b005b61026e600480360381019061026991906119c3565b61078b565b005b6102786108fe565b005b610282610912565b60405161028f9190611f63565b60405180910390f35b6102b260048036038101906102ad9190611a5f565b61093b565b6040516102bf9190611fc3565b60405180910390f35b6102e260048036038101906102dd9190611b3b565b6109a6565b6040516102f29493929190611f7e565b60405180910390f35b61031560048036038101906103109190611b3b565b610a03565b6040516103229190612122565b60405180910390f35b61034560048036038101906103409190611b3b565b610b45565b6040516103529190612100565b60405180910390f35b610363610cec565b6040516103709190611fde565b60405180910390f35b610381610cf3565b60405161038e9190611fde565b60405180910390f35b6103b160048036038101906103ac9190611a5f565b610d17565b005b6103cd60048036038101906103c89190611acc565b610d38565b005b6103e960048036038101906103e49190611956565b610e90565b005b61040560048036038101906104009190611983565b610ec5565b005b610421600480360381019061041c9190611956565b610f67565b005b60007f7965db0b000000000000000000000000000000000000000000000000000000007bffffffffffffffffffffffffffffffffffffffffffffffffffffffff1916827bffffffffffffffffffffffffffffffffffffffffffffffffffffffff19161480610496575061049582610feb565b5b9050919050565b600060016000838152602001908152602001600020600101549050919050565b60076020528060005260406000206000915090508060000180546104e09061240a565b80601f016020809104026020016040519081016040528092919081815260200182805461050c9061240a565b80156105595780601f1061052e57610100808354040283529160200191610559565b820191906000526020600020905b81548152906001019060200180831161053c57829003601f168201915b5050505050908060010160009054906101000a900473ffffffffffffffffffffffffffffffffffffffff16908060020180546105949061240a565b80601f01602080910402602001604051908101604052809291908181526020018280546105c09061240a565b801561060d5780601f106105e25761010080835404028352916020019161060d565b820191906000526020600020905b8154815290600101906020018083116105f057829003601f168201915b5050505050905083565b7f082f6ed76e0352438e6a6e35c77719c3f04bf277fdc8fec7e5ff5f65e001d90281565b6106448261049d565b61064d81611055565b6106578383611069565b505050565b6006818154811061066c57600080fd5b9060005260206000200160009150905080546106879061240a565b80601f01602080910402602001604051908101604052809291908181526020018280546106b39061240a565b80156107005780601f106106d557610100808354040283529160200191610700565b820191906000526020600020905b8154815290600101906020018083116106e357829003601f168201915b505050505081565b610710611149565b73ffffffffffffffffffffffffffffffffffffffff168173ffffffffffffffffffffffffffffffffffffffff161461077d576040517f08c379a0000000000000000000000000000000000000000000000000000000008152600401610774906120e0565b60405180910390fd5b6107878282611151565b5050565b6107b57f082f6ed76e0352438e6a6e35c77719c3f04bf277fdc8fec7e5ff5f65e001d9023361093b565b6107f4576040517f08c379a00000000000000000000000000000000000000000000000000000000081526004016107eb906120a0565b60405180910390fd5b8160096000600554815260200190815260200160002060020181905550806009600060055481526020019081526020016000206003018190555060005b83518110156108e05760096000600554815260200190815260200160002060000184828151811061086557610864612514565b5b60200260200101519080600181540180825580915050600190039060005260206000200160009091909190916101000a81548173ffffffffffffffffffffffffffffffffffffffff021916908373ffffffffffffffffffffffffffffffffffffffff16021790555080806108d89061246d565b915050610831565b50600560008154809291906108f49061246d565b9190505550505050565b610906611233565b61091060006112b1565b565b60008060009054906101000a900473ffffffffffffffffffffffffffffffffffffffff16905090565b60006001600084815260200190815260200160002060000160008373ffffffffffffffffffffffffffffffffffffffff1673ffffffffffffffffffffffffffffffffffffffff16815260200190815260200160002060009054906101000a900460ff16905092915050565b60086020528060005260406000206000915090508060000160009054906101000a900473ffffffffffffffffffffffffffffffffffffffff16908060010154908060020154908060030160009054906101000a900460ff16905084565b610a0b61165c565b600960008381526020019081526020016000206040518060a001604052908160008201805480602002602001604051908101604052809291908181526020018280548015610aae57602002820191906000526020600020905b8160009054906101000a900473ffffffffffffffffffffffffffffffffffffffff1673ffffffffffffffffffffffffffffffffffffffff1681526020019060010190808311610a64575b5050505050815260200160018201805480602002602001604051908101604052809291908181526020018280548015610b0657602002820191906000526020600020905b815481526020019060010190808311610af2575b5050505050815260200160028201548152602001600382015481526020016004820160009054906101000a900460ff1615151515815250509050919050565b610b4d61168d565b60076000838152602001908152602001600020604051806060016040529081600082018054610b7b9061240a565b80601f0160208091040260200160405190810160405280929190818152602001828054610ba79061240a565b8015610bf45780601f10610bc957610100808354040283529160200191610bf4565b820191906000526020600020905b815481529060010190602001808311610bd757829003601f168201915b505050505081526020016001820160009054906101000a900473ffffffffffffffffffffffffffffffffffffffff1673ffffffffffffffffffffffffffffffffffffffff1673ffffffffffffffffffffffffffffffffffffffff168152602001600282018054610c639061240a565b80601f0160208091040260200160405190810160405280929190818152602001828054610c8f9061240a565b8015610cdc5780601f10610cb157610100808354040283529160200191610cdc565b820191906000526020600020905b815481529060010190602001808311610cbf57829003601f168201915b5050505050815250509050919050565b6000801b81565b7f15283fd96aa656c9df35ac2fcb112678a5f24f1ca97e591a97d1d16003dbfc9c81565b610d208261049d565b610d2981611055565b610d338383611151565b505050565b610d627f082f6ed76e0352438e6a6e35c77719c3f04bf277fdc8fec7e5ff5f65e001d9023361093b565b610da1576040517f08c379a0000000000000000000000000000000000000000000000000000000008152600401610d98906120a0565b60405180910390fd5b826007600060035481526020019081526020016000206000019080519060200190610dcd9291906116c4565b508160076000600354815260200190815260200160002060010160006101000a81548173ffffffffffffffffffffffffffffffffffffffff021916908373ffffffffffffffffffffffffffffffffffffffff16021790555060068181548110610e3957610e38612514565b5b90600052602060002001600760006003548152602001908152602001600020600201908054610e679061240a565b610e7292919061174a565b5060036000815480929190610e869061246d565b9190505550505050565b610e98611233565b610ec27f082f6ed76e0352438e6a6e35c77719c3f04bf277fdc8fec7e5ff5f65e001d9028261063b565b50565b8160086000600454815260200190815260200160002060000160006101000a81548173ffffffffffffffffffffffffffffffffffffffff021916908373ffffffffffffffffffffffffffffffffffffffff1602179055508060086000600454815260200190815260200160002060010181905550610f637f15283fd96aa656c9df35ac2fcb112678a5f24f1ca97e591a97d1d16003dbfc9c83611375565b5050565b610f6f611233565b600073ffffffffffffffffffffffffffffffffffffffff168173ffffffffffffffffffffffffffffffffffffffff161415610fdf576040517f08c379a0000000000000000000000000000000000000000000000000000000008152600401610fd690612080565b60405180910390fd5b610fe8816112b1565b50565b60007f01ffc9a7000000000000000000000000000000000000000000000000000000007bffffffffffffffffffffffffffffffffffffffffffffffffffffffff1916827bffffffffffffffffffffffffffffffffffffffffffffffffffffffff1916149050919050565b61106681611061611149565b611383565b50565b611073828261093b565b61114557600180600084815260200190815260200160002060000160008373ffffffffffffffffffffffffffffffffffffffff1673ffffffffffffffffffffffffffffffffffffffff16815260200190815260200160002060006101000a81548160ff0219169083151502179055506110ea611149565b73ffffffffffffffffffffffffffffffffffffffff168173ffffffffffffffffffffffffffffffffffffffff16837f2f8788117e7eff1d82e926ec794901d17c78024a50270940304540a733656f0d60405160405180910390a45b5050565b600033905090565b61115b828261093b565b1561122f5760006001600084815260200190815260200160002060000160008373ffffffffffffffffffffffffffffffffffffffff1673ffffffffffffffffffffffffffffffffffffffff16815260200190815260200160002060006101000a81548160ff0219169083151502179055506111d4611149565b73ffffffffffffffffffffffffffffffffffffffff168173ffffffffffffffffffffffffffffffffffffffff16837ff6391f5c32d9c69d2a47ea670b442974b53935d1edc7fd64eb21e047a839171b60405160405180910390a45b5050565b61123b611149565b73ffffffffffffffffffffffffffffffffffffffff16611259610912565b73ffffffffffffffffffffffffffffffffffffffff16146112af576040517f08c379a00000000000000000000000000000000000000000000000000000000081526004016112a6906120c0565b60405180910390fd5b565b60008060009054906101000a900473ffffffffffffffffffffffffffffffffffffffff169050816000806101000a81548173ffffffffffffffffffffffffffffffffffffffff021916908373ffffffffffffffffffffffffffffffffffffffff1602179055508173ffffffffffffffffffffffffffffffffffffffff168173ffffffffffffffffffffffffffffffffffffffff167f8be0079c531659141344cd1fd0a4f28419497f9722a3daafe3b4186f6b6457e060405160405180910390a35050565b61137f8282611069565b5050565b61138d828261093b565b61141c576113b28173ffffffffffffffffffffffffffffffffffffffff166014611420565b6113c08360001c6020611420565b6040516020016113d1929190611f29565b6040516020818303038152906040526040517f08c379a00000000000000000000000000000000000000000000000000000000081526004016114139190611ff9565b60405180910390fd5b5050565b60606000600283600261143391906122c6565b61143d9190612270565b67ffffffffffffffff81111561145657611455612543565b5b6040519080825280601f01601f1916602001820160405280156114885781602001600182028036833780820191505090505b5090507f3000000000000000000000000000000000000000000000000000000000000000816000815181106114c0576114bf612514565b5b60200101907effffffffffffffffffffffffffffffffffffffffffffffffffffffffffffff1916908160001a9053507f78000000000000000000000000000000000000000000000000000000000000008160018151811061152457611523612514565b5b60200101907effffffffffffffffffffffffffffffffffffffffffffffffffffffffffffff1916908160001a9053506000600184600261156491906122c6565b61156e9190612270565b90505b600181111561160e577f3031323334353637383961626364656600000000000000000000000000000000600f8616601081106115b0576115af612514565b5b1a60f81b8282815181106115c7576115c6612514565b5b60200101907effffffffffffffffffffffffffffffffffffffffffffffffffffffffffffff1916908160001a905350600485901c945080611607906123e0565b9050611571565b5060008414611652576040517f08c379a000000000000000000000000000000000000000000000000000000000815260040161164990612060565b60405180910390fd5b8091505092915050565b6040518060a00160405280606081526020016060815260200160008152602001600081526020016000151581525090565b604051806060016040528060608152602001600073ffffffffffffffffffffffffffffffffffffffff168152602001606081525090565b8280546116d09061240a565b90600052602060002090601f0160209004810192826116f25760008555611739565b82601f1061170b57805160ff1916838001178555611739565b82800160010185558215611739579182015b8281111561173857825182559160200191906001019061171d565b5b50905061174691906117d7565b5090565b8280546117569061240a565b90600052602060002090601f01602090048101928261177857600085556117c6565b82601f1061178957805485556117c6565b828001600101855582156117c657600052602060002091601f016020900482015b828111156117c55782548255916001019190600101906117aa565b5b5090506117d391906117d7565b5090565b5b808211156117f05760008160009055506001016117d8565b5090565b600061180761180284612169565b612144565b9050808382526020820190508285602086028201111561182a57611829612577565b5b60005b8581101561185a578161184088826118a6565b84526020840193506020830192505060018101905061182d565b5050509392505050565b600061187761187284612195565b612144565b9050828152602081018484840111156118935761189261257c565b5b61189e84828561239e565b509392505050565b6000813590506118b581612707565b92915050565b600082601f8301126118d0576118cf612572565b5b81356118e08482602086016117f4565b91505092915050565b6000813590506118f88161271e565b92915050565b60008135905061190d81612735565b92915050565b600082601f83011261192857611927612572565b5b8135611938848260208601611864565b91505092915050565b6000813590506119508161274c565b92915050565b60006020828403121561196c5761196b612586565b5b600061197a848285016118a6565b91505092915050565b6000806040838503121561199a57611999612586565b5b60006119a8858286016118a6565b92505060206119b985828601611941565b9150509250929050565b6000806000606084860312156119dc576119db612586565b5b600084013567ffffffffffffffff8111156119fa576119f9612581565b5b611a06868287016118bb565b9350506020611a1786828701611941565b9250506040611a2886828701611941565b9150509250925092565b600060208284031215611a4857611a47612586565b5b6000611a56848285016118e9565b91505092915050565b60008060408385031215611a7657611a75612586565b5b6000611a84858286016118e9565b9250506020611a95858286016118a6565b9150509250929050565b600060208284031215611ab557611ab4612586565b5b6000611ac3848285016118fe565b91505092915050565b600080600060608486031215611ae557611ae4612586565b5b600084013567ffffffffffffffff811115611b0357611b02612581565b5b611b0f86828701611913565b9350506020611b20868287016118a6565b9250506040611b3186828701611941565b9150509250925092565b600060208284031215611b5157611b50612586565b5b6000611b5f84828501611941565b91505092915050565b6000611b748383611b98565b60208301905092915050565b6000611b8c8383611f0b565b60208301905092915050565b611ba181612320565b82525050565b611bb081612320565b82525050565b6000611bc1826121e6565b611bcb8185612221565b9350611bd6836121c6565b8060005b83811015611c07578151611bee8882611b68565b9750611bf983612207565b925050600181019050611bda565b5085935050505092915050565b6000611c1f826121f1565b611c298185612232565b9350611c34836121d6565b8060005b83811015611c65578151611c4c8882611b80565b9750611c5783612214565b925050600181019050611c38565b5085935050505092915050565b611c7b81612332565b82525050565b611c8a81612332565b82525050565b611c998161233e565b82525050565b6000611caa826121fc565b611cb48185612243565b9350611cc48185602086016123ad565b611ccd8161258b565b840191505092915050565b6000611ce3826121fc565b611ced8185612254565b9350611cfd8185602086016123ad565b611d068161258b565b840191505092915050565b6000611d1c826121fc565b611d268185612265565b9350611d368185602086016123ad565b80840191505092915050565b6000611d4f602083612254565b9150611d5a8261259c565b602082019050919050565b6000611d72602683612254565b9150611d7d826125c5565b604082019050919050565b6000611d95601f83612254565b9150611da082612614565b602082019050919050565b6000611db8602083612254565b9150611dc38261263d565b602082019050919050565b6000611ddb601783612265565b9150611de682612666565b601782019050919050565b6000611dfe601183612265565b9150611e098261268f565b601182019050919050565b6000611e21602f83612254565b9150611e2c826126b8565b604082019050919050565b60006060830160008301518482036000860152611e548282611c9f565b9150506020830151611e696020860182611b98565b5060408301518482036040860152611e818282611c9f565b9150508091505092915050565b600060a0830160008301518482036000860152611eab8282611bb6565b91505060208301518482036020860152611ec58282611c14565b9150506040830151611eda6040860182611f0b565b506060830151611eed6060860182611f0b565b506080830151611f006080860182611c72565b508091505092915050565b611f1481612394565b82525050565b611f2381612394565b82525050565b6000611f3482611dce565b9150611f408285611d11565b9150611f4b82611df1565b9150611f578284611d11565b91508190509392505050565b6000602082019050611f786000830184611ba7565b92915050565b6000608082019050611f936000830187611ba7565b611fa06020830186611f1a565b611fad6040830185611f1a565b611fba6060830184611c81565b95945050505050565b6000602082019050611fd86000830184611c81565b92915050565b6000602082019050611ff36000830184611c90565b92915050565b600060208201905081810360008301526120138184611cd8565b905092915050565b600060608201905081810360008301526120358186611cd8565b90506120446020830185611ba7565b81810360408301526120568184611cd8565b9050949350505050565b6000602082019050818103600083015261207981611d42565b9050919050565b6000602082019050818103600083015261209981611d65565b9050919050565b600060208201905081810360008301526120b981611d88565b9050919050565b600060208201905081810360008301526120d981611dab565b9050919050565b600060208201905081810360008301526120f981611e14565b9050919050565b6000602082019050818103600083015261211a8184611e37565b905092915050565b6000602082019050818103600083015261213c8184611e8e565b905092915050565b600061214e61215f565b905061215a828261243c565b919050565b6000604051905090565b600067ffffffffffffffff82111561218457612183612543565b5b602082029050602081019050919050565b600067ffffffffffffffff8211156121b0576121af612543565b5b6121b98261258b565b9050602081019050919050565b6000819050602082019050919050565b6000819050602082019050919050565b600081519050919050565b600081519050919050565b600081519050919050565b6000602082019050919050565b6000602082019050919050565b600082825260208201905092915050565b600082825260208201905092915050565b600082825260208201905092915050565b600082825260208201905092915050565b600081905092915050565b600061227b82612394565b915061228683612394565b9250827fffffffffffffffffffffffffffffffffffffffffffffffffffffffffffffffff038211156122bb576122ba6124b6565b5b828201905092915050565b60006122d182612394565b91506122dc83612394565b9250817fffffffffffffffffffffffffffffffffffffffffffffffffffffffffffffffff0483118215151615612315576123146124b6565b5b828202905092915050565b600061232b82612374565b9050919050565b60008115159050919050565b6000819050919050565b60007fffffffff0000000000000000000000000000000000000000000000000000000082169050919050565b600073ffffffffffffffffffffffffffffffffffffffff82169050919050565b6000819050919050565b82818337600083830152505050565b60005b838110156123cb5780820151818401526020810190506123b0565b838111156123da576000848401525b50505050565b60006123eb82612394565b915060008214156123ff576123fe6124b6565b5b600182039050919050565b6000600282049050600182168061242257607f821691505b60208210811415612436576124356124e5565b5b50919050565b6124458261258b565b810181811067ffffffffffffffff8211171561246457612463612543565b5b80604052505050565b600061247882612394565b91507fffffffffffffffffffffffffffffffffffffffffffffffffffffffffffffffff8214156124ab576124aa6124b6565b5b600182019050919050565b7f4e487b7100000000000000000000000000000000000000000000000000000000600052601160045260246000fd5b7f4e487b7100000000000000000000000000000000000000000000000000000000600052602260045260246000fd5b7f4e487b7100000000000000000000000000000000000000000000000000000000600052603260045260246000fd5b7f4e487b7100000000000000000000000000000000000000000000000000000000600052604160045260246000fd5b600080fd5b600080fd5b600080fd5b600080fd5b600080fd5b6000601f19601f8301169050919050565b7f537472696e67733a20686578206c656e67746820696e73756666696369656e74600082015250565b7f4f776e61626c653a206e6577206f776e657220697320746865207a65726f206160008201527f6464726573730000000000000000000000000000000000000000000000000000602082015250565b7f43616c6c6572206973206e6f7420616e20494e45432065786563757469766500600082015250565b7f4f776e61626c653a2063616c6c6572206973206e6f7420746865206f776e6572600082015250565b7f416363657373436f6e74726f6c3a206163636f756e7420000000000000000000600082015250565b7f206973206d697373696e6720726f6c6520000000000000000000000000000000600082015250565b7f416363657373436f6e74726f6c3a2063616e206f6e6c792072656e6f756e636560008201527f20726f6c657320666f722073656c660000000000000000000000000000000000602082015250565b61271081612320565b811461271b57600080fd5b50565b6127278161233e565b811461273257600080fd5b50565b61273e81612348565b811461274957600080fd5b50565b61275581612394565b811461276057600080fd5b5056fea2646970667358221220bfc7e3749cc1dd63e603ca61cf3d5cb2de46691da626cc859a22ec6131a2b44e64736f6c63430008070033",
					"opcodes": "PUSH1 0x80 PUSH1 0x40 MSTORE PUSH1 0x40 MLOAD DUP1 PUSH1 0x80 ADD PUSH1 0x40 MSTORE DUP1 PUSH1 0x40 MLOAD DUP1 PUSH1 0x40 ADD PUSH1 0x40 MSTORE DUP1 PUSH1 0x3 DUP2 MSTORE PUSH1 0x20 ADD PUSH32 0x4150430000000000000000000000000000000000000000000000000000000000 DUP2 MSTORE POP DUP2 MSTORE PUSH1 0x20 ADD PUSH1 0x40 MLOAD DUP1 PUSH1 0x40 ADD PUSH1 0x40 MSTORE DUP1 PUSH1 0x3 DUP2 MSTORE PUSH1 0x20 ADD PUSH32 0x5044500000000000000000000000000000000000000000000000000000000000 DUP2 MSTORE POP DUP2 MSTORE PUSH1 0x20 ADD PUSH1 0x40 MLOAD DUP1 PUSH1 0x40 ADD PUSH1 0x40 MSTORE DUP1 PUSH1 0x2 DUP2 MSTORE PUSH1 0x20 ADD PUSH32 0x4C50000000000000000000000000000000000000000000000000000000000000 DUP2 MSTORE POP DUP2 MSTORE PUSH1 0x20 ADD PUSH1 0x40 MLOAD DUP1 PUSH1 0x40 ADD PUSH1 0x40 MSTORE DUP1 PUSH1 0x4 DUP2 MSTORE PUSH1 0x20 ADD PUSH32 0x4E4E505000000000000000000000000000000000000000000000000000000000 DUP2 MSTORE POP DUP2 MSTORE POP PUSH1 0x6 SWAP1 PUSH1 0x4 PUSH3 0x10B SWAP3 SWAP2 SWAP1 PUSH3 0x393 JUMP JUMPDEST POP CALLVALUE DUP1 ISZERO PUSH3 0x119 JUMPI PUSH1 0x0 DUP1 REVERT JUMPDEST POP PUSH3 0x13A PUSH3 0x12E PUSH3 0x155 PUSH1 0x20 SHL PUSH1 0x20 SHR JUMP JUMPDEST PUSH3 0x15D PUSH1 0x20 SHL PUSH1 0x20 SHR JUMP JUMPDEST PUSH3 0x14F PUSH1 0x0 DUP1 SHL CALLER PUSH3 0x221 PUSH1 0x20 SHL PUSH1 0x20 SHR JUMP JUMPDEST PUSH3 0x57D JUMP JUMPDEST PUSH1 0x0 CALLER SWAP1 POP SWAP1 JUMP JUMPDEST PUSH1 0x0 DUP1 PUSH1 0x0 SWAP1 SLOAD SWAP1 PUSH2 0x100 EXP SWAP1 DIV PUSH20 0xFFFFFFFFFFFFFFFFFFFFFFFFFFFFFFFFFFFFFFFF AND SWAP1 POP DUP2 PUSH1 0x0 DUP1 PUSH2 0x100 EXP DUP2 SLOAD DUP2 PUSH20 0xFFFFFFFFFFFFFFFFFFFFFFFFFFFFFFFFFFFFFFFF MUL NOT AND SWAP1 DUP4 PUSH20 0xFFFFFFFFFFFFFFFFFFFFFFFFFFFFFFFFFFFFFFFF AND MUL OR SWAP1 SSTORE POP DUP2 PUSH20 0xFFFFFFFFFFFFFFFFFFFFFFFFFFFFFFFFFFFFFFFF AND DUP2 PUSH20 0xFFFFFFFFFFFFFFFFFFFFFFFFFFFFFFFFFFFFFFFF AND PUSH32 0x8BE0079C531659141344CD1FD0A4F28419497F9722A3DAAFE3B4186F6B6457E0 PUSH1 0x40 MLOAD PUSH1 0x40 MLOAD DUP1 SWAP2 SUB SWAP1 LOG3 POP POP JUMP JUMPDEST PUSH3 0x233 DUP3 DUP3 PUSH3 0x237 PUSH1 0x20 SHL PUSH1 0x20 SHR JUMP JUMPDEST POP POP JUMP JUMPDEST PUSH3 0x249 DUP3 DUP3 PUSH3 0x328 PUSH1 0x20 SHL PUSH1 0x20 SHR JUMP JUMPDEST PUSH3 0x324 JUMPI PUSH1 0x1 DUP1 PUSH1 0x0 DUP5 DUP2 MSTORE PUSH1 0x20 ADD SWAP1 DUP2 MSTORE PUSH1 0x20 ADD PUSH1 0x0 KECCAK256 PUSH1 0x0 ADD PUSH1 0x0 DUP4 PUSH20 0xFFFFFFFFFFFFFFFFFFFFFFFFFFFFFFFFFFFFFFFF AND PUSH20 0xFFFFFFFFFFFFFFFFFFFFFFFFFFFFFFFFFFFFFFFF AND DUP2 MSTORE PUSH1 0x20 ADD SWAP1 DUP2 MSTORE PUSH1 0x20 ADD PUSH1 0x0 KECCAK256 PUSH1 0x0 PUSH2 0x100 EXP DUP2 SLOAD DUP2 PUSH1 0xFF MUL NOT AND SWAP1 DUP4 ISZERO ISZERO MUL OR SWAP1 SSTORE POP PUSH3 0x2C9 PUSH3 0x155 PUSH1 0x20 SHL PUSH1 0x20 SHR JUMP JUMPDEST PUSH20 0xFFFFFFFFFFFFFFFFFFFFFFFFFFFFFFFFFFFFFFFF AND DUP2 PUSH20 0xFFFFFFFFFFFFFFFFFFFFFFFFFFFFFFFFFFFFFFFF AND DUP4 PUSH32 0x2F8788117E7EFF1D82E926EC794901D17C78024A50270940304540A733656F0D PUSH1 0x40 MLOAD PUSH1 0x40 MLOAD DUP1 SWAP2 SUB SWAP1 LOG4 JUMPDEST POP POP JUMP JUMPDEST PUSH1 0x0 PUSH1 0x1 PUSH1 0x0 DUP5 DUP2 MSTORE PUSH1 0x20 ADD SWAP1 DUP2 MSTORE PUSH1 0x20 ADD PUSH1 0x0 KECCAK256 PUSH1 0x0 ADD PUSH1 0x0 DUP4 PUSH20 0xFFFFFFFFFFFFFFFFFFFFFFFFFFFFFFFFFFFFFFFF AND PUSH20 0xFFFFFFFFFFFFFFFFFFFFFFFFFFFFFFFFFFFFFFFF AND DUP2 MSTORE PUSH1 0x20 ADD SWAP1 DUP2 MSTORE PUSH1 0x20 ADD PUSH1 0x0 KECCAK256 PUSH1 0x0 SWAP1 SLOAD SWAP1 PUSH2 0x100 EXP SWAP1 DIV PUSH1 0xFF AND SWAP1 POP SWAP3 SWAP2 POP POP JUMP JUMPDEST DUP3 DUP1 SLOAD DUP3 DUP3 SSTORE SWAP1 PUSH1 0x0 MSTORE PUSH1 0x20 PUSH1 0x0 KECCAK256 SWAP1 DUP2 ADD SWAP3 DUP3 ISZERO PUSH3 0x3E7 JUMPI SWAP2 PUSH1 0x20 MUL DUP3 ADD JUMPDEST DUP3 DUP2 GT ISZERO PUSH3 0x3E6 JUMPI DUP3 MLOAD DUP3 SWAP1 DUP1 MLOAD SWAP1 PUSH1 0x20 ADD SWAP1 PUSH3 0x3D5 SWAP3 SWAP2 SWAP1 PUSH3 0x3FA JUMP JUMPDEST POP SWAP2 PUSH1 0x20 ADD SWAP2 SWAP1 PUSH1 0x1 ADD SWAP1 PUSH3 0x3B4 JUMP JUMPDEST JUMPDEST POP SWAP1 POP PUSH3 0x3F6 SWAP2 SWAP1 PUSH3 0x48B JUMP JUMPDEST POP SWAP1 JUMP JUMPDEST DUP3 DUP1 SLOAD PUSH3 0x408 SWAP1 PUSH3 0x518 JUMP JUMPDEST SWAP1 PUSH1 0x0 MSTORE PUSH1 0x20 PUSH1 0x0 KECCAK256 SWAP1 PUSH1 0x1F ADD PUSH1 0x20 SWAP1 DIV DUP2 ADD SWAP3 DUP3 PUSH3 0x42C JUMPI PUSH1 0x0 DUP6 SSTORE PUSH3 0x478 JUMP JUMPDEST DUP3 PUSH1 0x1F LT PUSH3 0x447 JUMPI DUP1 MLOAD PUSH1 0xFF NOT AND DUP4 DUP1 ADD OR DUP6 SSTORE PUSH3 0x478 JUMP JUMPDEST DUP3 DUP1 ADD PUSH1 0x1 ADD DUP6 SSTORE DUP3 ISZERO PUSH3 0x478 JUMPI SWAP2 DUP3 ADD JUMPDEST DUP3 DUP2 GT ISZERO PUSH3 0x477 JUMPI DUP3 MLOAD DUP3 SSTORE SWAP2 PUSH1 0x20 ADD SWAP2 SWAP1 PUSH1 0x1 ADD SWAP1 PUSH3 0x45A JUMP JUMPDEST JUMPDEST POP SWAP1 POP PUSH3 0x487 SWAP2 SWAP1 PUSH3 0x4B3 JUMP JUMPDEST POP SWAP1 JUMP JUMPDEST JUMPDEST DUP1 DUP3 GT ISZERO PUSH3 0x4AF JUMPI PUSH1 0x0 DUP2 DUP2 PUSH3 0x4A5 SWAP2 SWAP1 PUSH3 0x4D2 JUMP JUMPDEST POP PUSH1 0x1 ADD PUSH3 0x48C JUMP JUMPDEST POP SWAP1 JUMP JUMPDEST JUMPDEST DUP1 DUP3 GT ISZERO PUSH3 0x4CE JUMPI PUSH1 0x0 DUP2 PUSH1 0x0 SWAP1 SSTORE POP PUSH1 0x1 ADD PUSH3 0x4B4 JUMP JUMPDEST POP SWAP1 JUMP JUMPDEST POP DUP1 SLOAD PUSH3 0x4E0 SWAP1 PUSH3 0x518 JUMP JUMPDEST PUSH1 0x0 DUP3 SSTORE DUP1 PUSH1 0x1F LT PUSH3 0x4F4 JUMPI POP PUSH3 0x515 JUMP JUMPDEST PUSH1 0x1F ADD PUSH1 0x20 SWAP1 DIV SWAP1 PUSH1 0x0 MSTORE PUSH1 0x20 PUSH1 0x0 KECCAK256 SWAP1 DUP2 ADD SWAP1 PUSH3 0x514 SWAP2 SWAP1 PUSH3 0x4B3 JUMP JUMPDEST JUMPDEST POP JUMP JUMPDEST PUSH1 0x0 PUSH1 0x2 DUP3 DIV SWAP1 POP PUSH1 0x1 DUP3 AND DUP1 PUSH3 0x531 JUMPI PUSH1 0x7F DUP3 AND SWAP2 POP JUMPDEST PUSH1 0x20 DUP3 LT DUP2 EQ ISZERO PUSH3 0x548 JUMPI PUSH3 0x547 PUSH3 0x54E JUMP JUMPDEST JUMPDEST POP SWAP2 SWAP1 POP JUMP JUMPDEST PUSH32 0x4E487B7100000000000000000000000000000000000000000000000000000000 PUSH1 0x0 MSTORE PUSH1 0x22 PUSH1 0x4 MSTORE PUSH1 0x24 PUSH1 0x0 REVERT JUMPDEST PUSH2 0x2799 DUP1 PUSH3 0x58D PUSH1 0x0 CODECOPY PUSH1 0x0 RETURN INVALID PUSH1 0x80 PUSH1 0x40 MSTORE CALLVALUE DUP1 ISZERO PUSH2 0x10 JUMPI PUSH1 0x0 DUP1 REVERT JUMPDEST POP PUSH1 0x4 CALLDATASIZE LT PUSH2 0x137 JUMPI PUSH1 0x0 CALLDATALOAD PUSH1 0xE0 SHR DUP1 PUSH4 0x91D14854 GT PUSH2 0xB8 JUMPI DUP1 PUSH4 0xA94015C8 GT PUSH2 0x7C JUMPI DUP1 PUSH4 0xA94015C8 EQ PUSH2 0x379 JUMPI DUP1 PUSH4 0xD547741F EQ PUSH2 0x397 JUMPI DUP1 PUSH4 0xD59D2A58 EQ PUSH2 0x3B3 JUMPI DUP1 PUSH4 0xDFD8459E EQ PUSH2 0x3CF JUMPI DUP1 PUSH4 0xEF49F4AA EQ PUSH2 0x3EB JUMPI DUP1 PUSH4 0xF2FDE38B EQ PUSH2 0x407 JUMPI PUSH2 0x137 JUMP JUMPDEST DUP1 PUSH4 0x91D14854 EQ PUSH2 0x298 JUMPI DUP1 PUSH4 0x9C35D98B EQ PUSH2 0x2C8 JUMPI DUP1 PUSH4 0x9D710777 EQ PUSH2 0x2FB JUMPI DUP1 PUSH4 0x9E5F0349 EQ PUSH2 0x32B JUMPI DUP1 PUSH4 0xA217FDDF EQ PUSH2 0x35B JUMPI PUSH2 0x137 JUMP JUMPDEST DUP1 PUSH4 0x314FD68F GT PUSH2 0xFF JUMPI DUP1 PUSH4 0x314FD68F EQ PUSH2 0x208 JUMPI DUP1 PUSH4 0x36568ABE EQ PUSH2 0x238 JUMPI DUP1 PUSH4 0x4F05DBA8 EQ PUSH2 0x254 JUMPI DUP1 PUSH4 0x715018A6 EQ PUSH2 0x270 JUMPI DUP1 PUSH4 0x8DA5CB5B EQ PUSH2 0x27A JUMPI PUSH2 0x137 JUMP JUMPDEST DUP1 PUSH4 0x1FFC9A7 EQ PUSH2 0x13C JUMPI DUP1 PUSH4 0x248A9CA3 EQ PUSH2 0x16C JUMPI DUP1 PUSH4 0x290E9212 EQ PUSH2 0x19C JUMPI DUP1 PUSH4 0x2E0D37BB EQ PUSH2 0x1CE JUMPI DUP1 PUSH4 0x2F2FF15D EQ PUSH2 0x1EC JUMPI JUMPDEST PUSH1 0x0 DUP1 REVERT JUMPDEST PUSH2 0x156 PUSH1 0x4 DUP1 CALLDATASIZE SUB DUP2 ADD SWAP1 PUSH2 0x151 SWAP2 SWAP1 PUSH2 0x1A9F JUMP JUMPDEST PUSH2 0x423 JUMP JUMPDEST PUSH1 0x40 MLOAD PUSH2 0x163 SWAP2 SWAP1 PUSH2 0x1FC3 JUMP JUMPDEST PUSH1 0x40 MLOAD DUP1 SWAP2 SUB SWAP1 RETURN JUMPDEST PUSH2 0x186 PUSH1 0x4 DUP1 CALLDATASIZE SUB DUP2 ADD SWAP1 PUSH2 0x181 SWAP2 SWAP1 PUSH2 0x1A32 JUMP JUMPDEST PUSH2 0x49D JUMP JUMPDEST PUSH1 0x40 MLOAD PUSH2 0x193 SWAP2 SWAP1 PUSH2 0x1FDE JUMP JUMPDEST PUSH1 0x40 MLOAD DUP1 SWAP2 SUB SWAP1 RETURN JUMPDEST PUSH2 0x1B6 PUSH1 0x4 DUP1 CALLDATASIZE SUB DUP2 ADD SWAP1 PUSH2 0x1B1 SWAP2 SWAP1 PUSH2 0x1B3B JUMP JUMPDEST PUSH2 0x4BD JUMP JUMPDEST PUSH1 0x40 MLOAD PUSH2 0x1C5 SWAP4 SWAP3 SWAP2 SWAP1 PUSH2 0x201B JUMP JUMPDEST PUSH1 0x40 MLOAD DUP1 SWAP2 SUB SWAP1 RETURN JUMPDEST PUSH2 0x1D6 PUSH2 0x617 JUMP JUMPDEST PUSH1 0x40 MLOAD PUSH2 0x1E3 SWAP2 SWAP1 PUSH2 0x1FDE JUMP JUMPDEST PUSH1 0x40 MLOAD DUP1 SWAP2 SUB SWAP1 RETURN JUMPDEST PUSH2 0x206 PUSH1 0x4 DUP1 CALLDATASIZE SUB DUP2 ADD SWAP1 PUSH2 0x201 SWAP2 SWAP1 PUSH2 0x1A5F JUMP JUMPDEST PUSH2 0x63B JUMP JUMPDEST STOP JUMPDEST PUSH2 0x222 PUSH1 0x4 DUP1 CALLDATASIZE SUB DUP2 ADD SWAP1 PUSH2 0x21D SWAP2 SWAP1 PUSH2 0x1B3B JUMP JUMPDEST PUSH2 0x65C JUMP JUMPDEST PUSH1 0x40 MLOAD PUSH2 0x22F SWAP2 SWAP1 PUSH2 0x1FF9 JUMP JUMPDEST PUSH1 0x40 MLOAD DUP1 SWAP2 SUB SWAP1 RETURN JUMPDEST PUSH2 0x252 PUSH1 0x4 DUP1 CALLDATASIZE SUB DUP2 ADD SWAP1 PUSH2 0x24D SWAP2 SWAP1 PUSH2 0x1A5F JUMP JUMPDEST PUSH2 0x708 JUMP JUMPDEST STOP JUMPDEST PUSH2 0x26E PUSH1 0x4 DUP1 CALLDATASIZE SUB DUP2 ADD SWAP1 PUSH2 0x269 SWAP2 SWAP1 PUSH2 0x19C3 JUMP JUMPDEST PUSH2 0x78B JUMP JUMPDEST STOP JUMPDEST PUSH2 0x278 PUSH2 0x8FE JUMP JUMPDEST STOP JUMPDEST PUSH2 0x282 PUSH2 0x912 JUMP JUMPDEST PUSH1 0x40 MLOAD PUSH2 0x28F SWAP2 SWAP1 PUSH2 0x1F63 JUMP JUMPDEST PUSH1 0x40 MLOAD DUP1 SWAP2 SUB SWAP1 RETURN JUMPDEST PUSH2 0x2B2 PUSH1 0x4 DUP1 CALLDATASIZE SUB DUP2 ADD SWAP1 PUSH2 0x2AD SWAP2 SWAP1 PUSH2 0x1A5F JUMP JUMPDEST PUSH2 0x93B JUMP JUMPDEST PUSH1 0x40 MLOAD PUSH2 0x2BF SWAP2 SWAP1 PUSH2 0x1FC3 JUMP JUMPDEST PUSH1 0x40 MLOAD DUP1 SWAP2 SUB SWAP1 RETURN JUMPDEST PUSH2 0x2E2 PUSH1 0x4 DUP1 CALLDATASIZE SUB DUP2 ADD SWAP1 PUSH2 0x2DD SWAP2 SWAP1 PUSH2 0x1B3B JUMP JUMPDEST PUSH2 0x9A6 JUMP JUMPDEST PUSH1 0x40 MLOAD PUSH2 0x2F2 SWAP5 SWAP4 SWAP3 SWAP2 SWAP1 PUSH2 0x1F7E JUMP JUMPDEST PUSH1 0x40 MLOAD DUP1 SWAP2 SUB SWAP1 RETURN JUMPDEST PUSH2 0x315 PUSH1 0x4 DUP1 CALLDATASIZE SUB DUP2 ADD SWAP1 PUSH2 0x310 SWAP2 SWAP1 PUSH2 0x1B3B JUMP JUMPDEST PUSH2 0xA03 JUMP JUMPDEST PUSH1 0x40 MLOAD PUSH2 0x322 SWAP2 SWAP1 PUSH2 0x2122 JUMP JUMPDEST PUSH1 0x40 MLOAD DUP1 SWAP2 SUB SWAP1 RETURN JUMPDEST PUSH2 0x345 PUSH1 0x4 DUP1 CALLDATASIZE SUB DUP2 ADD SWAP1 PUSH2 0x340 SWAP2 SWAP1 PUSH2 0x1B3B JUMP JUMPDEST PUSH2 0xB45 JUMP JUMPDEST PUSH1 0x40 MLOAD PUSH2 0x352 SWAP2 SWAP1 PUSH2 0x2100 JUMP JUMPDEST PUSH1 0x40 MLOAD DUP1 SWAP2 SUB SWAP1 RETURN JUMPDEST PUSH2 0x363 PUSH2 0xCEC JUMP JUMPDEST PUSH1 0x40 MLOAD PUSH2 0x370 SWAP2 SWAP1 PUSH2 0x1FDE JUMP JUMPDEST PUSH1 0x40 MLOAD DUP1 SWAP2 SUB SWAP1 RETURN JUMPDEST PUSH2 0x381 PUSH2 0xCF3 JUMP JUMPDEST PUSH1 0x40 MLOAD PUSH2 0x38E SWAP2 SWAP1 PUSH2 0x1FDE JUMP JUMPDEST PUSH1 0x40 MLOAD DUP1 SWAP2 SUB SWAP1 RETURN JUMPDEST PUSH2 0x3B1 PUSH1 0x4 DUP1 CALLDATASIZE SUB DUP2 ADD SWAP1 PUSH2 0x3AC SWAP2 SWAP1 PUSH2 0x1A5F JUMP JUMPDEST PUSH2 0xD17 JUMP JUMPDEST STOP JUMPDEST PUSH2 0x3CD PUSH1 0x4 DUP1 CALLDATASIZE SUB DUP2 ADD SWAP1 PUSH2 0x3C8 SWAP2 SWAP1 PUSH2 0x1ACC JUMP JUMPDEST PUSH2 0xD38 JUMP JUMPDEST STOP JUMPDEST PUSH2 0x3E9 PUSH1 0x4 DUP1 CALLDATASIZE SUB DUP2 ADD SWAP1 PUSH2 0x3E4 SWAP2 SWAP1 PUSH2 0x1956 JUMP JUMPDEST PUSH2 0xE90 JUMP JUMPDEST STOP JUMPDEST PUSH2 0x405 PUSH1 0x4 DUP1 CALLDATASIZE SUB DUP2 ADD SWAP1 PUSH2 0x400 SWAP2 SWAP1 PUSH2 0x1983 JUMP JUMPDEST PUSH2 0xEC5 JUMP JUMPDEST STOP JUMPDEST PUSH2 0x421 PUSH1 0x4 DUP1 CALLDATASIZE SUB DUP2 ADD SWAP1 PUSH2 0x41C SWAP2 SWAP1 PUSH2 0x1956 JUMP JUMPDEST PUSH2 0xF67 JUMP JUMPDEST STOP JUMPDEST PUSH1 0x0 PUSH32 0x7965DB0B00000000000000000000000000000000000000000000000000000000 PUSH28 0xFFFFFFFFFFFFFFFFFFFFFFFFFFFFFFFFFFFFFFFFFFFFFFFFFFFFFFFF NOT AND DUP3 PUSH28 0xFFFFFFFFFFFFFFFFFFFFFFFFFFFFFFFFFFFFFFFFFFFFFFFFFFFFFFFF NOT AND EQ DUP1 PUSH2 0x496 JUMPI POP PUSH2 0x495 DUP3 PUSH2 0xFEB JUMP JUMPDEST JUMPDEST SWAP1 POP SWAP2 SWAP1 POP JUMP JUMPDEST PUSH1 0x0 PUSH1 0x1 PUSH1 0x0 DUP4 DUP2 MSTORE PUSH1 0x20 ADD SWAP1 DUP2 MSTORE PUSH1 0x20 ADD PUSH1 0x0 KECCAK256 PUSH1 0x1 ADD SLOAD SWAP1 POP SWAP2 SWAP1 POP JUMP JUMPDEST PUSH1 0x7 PUSH1 0x20 MSTORE DUP1 PUSH1 0x0 MSTORE PUSH1 0x40 PUSH1 0x0 KECCAK256 PUSH1 0x0 SWAP2 POP SWAP1 POP DUP1 PUSH1 0x0 ADD DUP1 SLOAD PUSH2 0x4E0 SWAP1 PUSH2 0x240A JUMP JUMPDEST DUP1 PUSH1 0x1F ADD PUSH1 0x20 DUP1 SWAP2 DIV MUL PUSH1 0x20 ADD PUSH1 0x40 MLOAD SWAP1 DUP2 ADD PUSH1 0x40 MSTORE DUP1 SWAP3 SWAP2 SWAP1 DUP2 DUP2 MSTORE PUSH1 0x20 ADD DUP3 DUP1 SLOAD PUSH2 0x50C SWAP1 PUSH2 0x240A JUMP JUMPDEST DUP1 ISZERO PUSH2 0x559 JUMPI DUP1 PUSH1 0x1F LT PUSH2 0x52E JUMPI PUSH2 0x100 DUP1 DUP4 SLOAD DIV MUL DUP4 MSTORE SWAP2 PUSH1 0x20 ADD SWAP2 PUSH2 0x559 JUMP JUMPDEST DUP3 ADD SWAP2 SWAP1 PUSH1 0x0 MSTORE PUSH1 0x20 PUSH1 0x0 KECCAK256 SWAP1 JUMPDEST DUP2 SLOAD DUP2 MSTORE SWAP1 PUSH1 0x1 ADD SWAP1 PUSH1 0x20 ADD DUP1 DUP4 GT PUSH2 0x53C JUMPI DUP3 SWAP1 SUB PUSH1 0x1F AND DUP3 ADD SWAP2 JUMPDEST POP POP POP POP POP SWAP1 DUP1 PUSH1 0x1 ADD PUSH1 0x0 SWAP1 SLOAD SWAP1 PUSH2 0x100 EXP SWAP1 DIV PUSH20 0xFFFFFFFFFFFFFFFFFFFFFFFFFFFFFFFFFFFFFFFF AND SWAP1 DUP1 PUSH1 0x2 ADD DUP1 SLOAD PUSH2 0x594 SWAP1 PUSH2 0x240A JUMP JUMPDEST DUP1 PUSH1 0x1F ADD PUSH1 0x20 DUP1 SWAP2 DIV MUL PUSH1 0x20 ADD PUSH1 0x40 MLOAD SWAP1 DUP2 ADD PUSH1 0x40 MSTORE DUP1 SWAP3 SWAP2 SWAP1 DUP2 DUP2 MSTORE PUSH1 0x20 ADD DUP3 DUP1 SLOAD PUSH2 0x5C0 SWAP1 PUSH2 0x240A JUMP JUMPDEST DUP1 ISZERO PUSH2 0x60D JUMPI DUP1 PUSH1 0x1F LT PUSH2 0x5E2 JUMPI PUSH2 0x100 DUP1 DUP4 SLOAD DIV MUL DUP4 MSTORE SWAP2 PUSH1 0x20 ADD SWAP2 PUSH2 0x60D JUMP JUMPDEST DUP3 ADD SWAP2 SWAP1 PUSH1 0x0 MSTORE PUSH1 0x20 PUSH1 0x0 KECCAK256 SWAP1 JUMPDEST DUP2 SLOAD DUP2 MSTORE SWAP1 PUSH1 0x1 ADD SWAP1 PUSH1 0x20 ADD DUP1 DUP4 GT PUSH2 0x5F0 JUMPI DUP3 SWAP1 SUB PUSH1 0x1F AND DUP3 ADD SWAP2 JUMPDEST POP POP POP POP POP SWAP1 POP DUP4 JUMP JUMPDEST PUSH32 0x82F6ED76E0352438E6A6E35C77719C3F04BF277FDC8FEC7E5FF5F65E001D902 DUP2 JUMP JUMPDEST PUSH2 0x644 DUP3 PUSH2 0x49D JUMP JUMPDEST PUSH2 0x64D DUP2 PUSH2 0x1055 JUMP JUMPDEST PUSH2 0x657 DUP4 DUP4 PUSH2 0x1069 JUMP JUMPDEST POP POP POP JUMP JUMPDEST PUSH1 0x6 DUP2 DUP2 SLOAD DUP2 LT PUSH2 0x66C JUMPI PUSH1 0x0 DUP1 REVERT JUMPDEST SWAP1 PUSH1 0x0 MSTORE PUSH1 0x20 PUSH1 0x0 KECCAK256 ADD PUSH1 0x0 SWAP2 POP SWAP1 POP DUP1 SLOAD PUSH2 0x687 SWAP1 PUSH2 0x240A JUMP JUMPDEST DUP1 PUSH1 0x1F ADD PUSH1 0x20 DUP1 SWAP2 DIV MUL PUSH1 0x20 ADD PUSH1 0x40 MLOAD SWAP1 DUP2 ADD PUSH1 0x40 MSTORE DUP1 SWAP3 SWAP2 SWAP1 DUP2 DUP2 MSTORE PUSH1 0x20 ADD DUP3 DUP1 SLOAD PUSH2 0x6B3 SWAP1 PUSH2 0x240A JUMP JUMPDEST DUP1 ISZERO PUSH2 0x700 JUMPI DUP1 PUSH1 0x1F LT PUSH2 0x6D5 JUMPI PUSH2 0x100 DUP1 DUP4 SLOAD DIV MUL DUP4 MSTORE SWAP2 PUSH1 0x20 ADD SWAP2 PUSH2 0x700 JUMP JUMPDEST DUP3 ADD SWAP2 SWAP1 PUSH1 0x0 MSTORE PUSH1 0x20 PUSH1 0x0 KECCAK256 SWAP1 JUMPDEST DUP2 SLOAD DUP2 MSTORE SWAP1 PUSH1 0x1 ADD SWAP1 PUSH1 0x20 ADD DUP1 DUP4 GT PUSH2 0x6E3 JUMPI DUP3 SWAP1 SUB PUSH1 0x1F AND DUP3 ADD SWAP2 JUMPDEST POP POP POP POP POP DUP2 JUMP JUMPDEST PUSH2 0x710 PUSH2 0x1149 JUMP JUMPDEST PUSH20 0xFFFFFFFFFFFFFFFFFFFFFFFFFFFFFFFFFFFFFFFF AND DUP2 PUSH20 0xFFFFFFFFFFFFFFFFFFFFFFFFFFFFFFFFFFFFFFFF AND EQ PUSH2 0x77D JUMPI PUSH1 0x40 MLOAD PUSH32 0x8C379A000000000000000000000000000000000000000000000000000000000 DUP2 MSTORE PUSH1 0x4 ADD PUSH2 0x774 SWAP1 PUSH2 0x20E0 JUMP JUMPDEST PUSH1 0x40 MLOAD DUP1 SWAP2 SUB SWAP1 REVERT JUMPDEST PUSH2 0x787 DUP3 DUP3 PUSH2 0x1151 JUMP JUMPDEST POP POP JUMP JUMPDEST PUSH2 0x7B5 PUSH32 0x82F6ED76E0352438E6A6E35C77719C3F04BF277FDC8FEC7E5FF5F65E001D902 CALLER PUSH2 0x93B JUMP JUMPDEST PUSH2 0x7F4 JUMPI PUSH1 0x40 MLOAD PUSH32 0x8C379A000000000000000000000000000000000000000000000000000000000 DUP2 MSTORE PUSH1 0x4 ADD PUSH2 0x7EB SWAP1 PUSH2 0x20A0 JUMP JUMPDEST PUSH1 0x40 MLOAD DUP1 SWAP2 SUB SWAP1 REVERT JUMPDEST DUP2 PUSH1 0x9 PUSH1 0x0 PUSH1 0x5 SLOAD DUP2 MSTORE PUSH1 0x20 ADD SWAP1 DUP2 MSTORE PUSH1 0x20 ADD PUSH1 0x0 KECCAK256 PUSH1 0x2 ADD DUP2 SWAP1 SSTORE POP DUP1 PUSH1 0x9 PUSH1 0x0 PUSH1 0x5 SLOAD DUP2 MSTORE PUSH1 0x20 ADD SWAP1 DUP2 MSTORE PUSH1 0x20 ADD PUSH1 0x0 KECCAK256 PUSH1 0x3 ADD DUP2 SWAP1 SSTORE POP PUSH1 0x0 JUMPDEST DUP4 MLOAD DUP2 LT ISZERO PUSH2 0x8E0 JUMPI PUSH1 0x9 PUSH1 0x0 PUSH1 0x5 SLOAD DUP2 MSTORE PUSH1 0x20 ADD SWAP1 DUP2 MSTORE PUSH1 0x20 ADD PUSH1 0x0 KECCAK256 PUSH1 0x0 ADD DUP5 DUP3 DUP2 MLOAD DUP2 LT PUSH2 0x865 JUMPI PUSH2 0x864 PUSH2 0x2514 JUMP JUMPDEST JUMPDEST PUSH1 0x20 MUL PUSH1 0x20 ADD ADD MLOAD SWAP1 DUP1 PUSH1 0x1 DUP2 SLOAD ADD DUP1 DUP3 SSTORE DUP1 SWAP2 POP POP PUSH1 0x1 SWAP1 SUB SWAP1 PUSH1 0x0 MSTORE PUSH1 0x20 PUSH1 0x0 KECCAK256 ADD PUSH1 0x0 SWAP1 SWAP2 SWAP1 SWAP2 SWAP1 SWAP2 PUSH2 0x100 EXP DUP2 SLOAD DUP2 PUSH20 0xFFFFFFFFFFFFFFFFFFFFFFFFFFFFFFFFFFFFFFFF MUL NOT AND SWAP1 DUP4 PUSH20 0xFFFFFFFFFFFFFFFFFFFFFFFFFFFFFFFFFFFFFFFF AND MUL OR SWAP1 SSTORE POP DUP1 DUP1 PUSH2 0x8D8 SWAP1 PUSH2 0x246D JUMP JUMPDEST SWAP2 POP POP PUSH2 0x831 JUMP JUMPDEST POP PUSH1 0x5 PUSH1 0x0 DUP2 SLOAD DUP1 SWAP3 SWAP2 SWAP1 PUSH2 0x8F4 SWAP1 PUSH2 0x246D JUMP JUMPDEST SWAP2 SWAP1 POP SSTORE POP POP POP POP JUMP JUMPDEST PUSH2 0x906 PUSH2 0x1233 JUMP JUMPDEST PUSH2 0x910 PUSH1 0x0 PUSH2 0x12B1 JUMP JUMPDEST JUMP JUMPDEST PUSH1 0x0 DUP1 PUSH1 0x0 SWAP1 SLOAD SWAP1 PUSH2 0x100 EXP SWAP1 DIV PUSH20 0xFFFFFFFFFFFFFFFFFFFFFFFFFFFFFFFFFFFFFFFF AND SWAP1 POP SWAP1 JUMP JUMPDEST PUSH1 0x0 PUSH1 0x1 PUSH1 0x0 DUP5 DUP2 MSTORE PUSH1 0x20 ADD SWAP1 DUP2 MSTORE PUSH1 0x20 ADD PUSH1 0x0 KECCAK256 PUSH1 0x0 ADD PUSH1 0x0 DUP4 PUSH20 0xFFFFFFFFFFFFFFFFFFFFFFFFFFFFFFFFFFFFFFFF AND PUSH20 0xFFFFFFFFFFFFFFFFFFFFFFFFFFFFFFFFFFFFFFFF AND DUP2 MSTORE PUSH1 0x20 ADD SWAP1 DUP2 MSTORE PUSH1 0x20 ADD PUSH1 0x0 KECCAK256 PUSH1 0x0 SWAP1 SLOAD SWAP1 PUSH2 0x100 EXP SWAP1 DIV PUSH1 0xFF AND SWAP1 POP SWAP3 SWAP2 POP POP JUMP JUMPDEST PUSH1 0x8 PUSH1 0x20 MSTORE DUP1 PUSH1 0x0 MSTORE PUSH1 0x40 PUSH1 0x0 KECCAK256 PUSH1 0x0 SWAP2 POP SWAP1 POP DUP1 PUSH1 0x0 ADD PUSH1 0x0 SWAP1 SLOAD SWAP1 PUSH2 0x100 EXP SWAP1 DIV PUSH20 0xFFFFFFFFFFFFFFFFFFFFFFFFFFFFFFFFFFFFFFFF AND SWAP1 DUP1 PUSH1 0x1 ADD SLOAD SWAP1 DUP1 PUSH1 0x2 ADD SLOAD SWAP1 DUP1 PUSH1 0x3 ADD PUSH1 0x0 SWAP1 SLOAD SWAP1 PUSH2 0x100 EXP SWAP1 DIV PUSH1 0xFF AND SWAP1 POP DUP5 JUMP JUMPDEST PUSH2 0xA0B PUSH2 0x165C JUMP JUMPDEST PUSH1 0x9 PUSH1 0x0 DUP4 DUP2 MSTORE PUSH1 0x20 ADD SWAP1 DUP2 MSTORE PUSH1 0x20 ADD PUSH1 0x0 KECCAK256 PUSH1 0x40 MLOAD DUP1 PUSH1 0xA0 ADD PUSH1 0x40 MSTORE SWAP1 DUP2 PUSH1 0x0 DUP3 ADD DUP1 SLOAD DUP1 PUSH1 0x20 MUL PUSH1 0x20 ADD PUSH1 0x40 MLOAD SWAP1 DUP2 ADD PUSH1 0x40 MSTORE DUP1 SWAP3 SWAP2 SWAP1 DUP2 DUP2 MSTORE PUSH1 0x20 ADD DUP3 DUP1 SLOAD DUP1 ISZERO PUSH2 0xAAE JUMPI PUSH1 0x20 MUL DUP3 ADD SWAP2 SWAP1 PUSH1 0x0 MSTORE PUSH1 0x20 PUSH1 0x0 KECCAK256 SWAP1 JUMPDEST DUP2 PUSH1 0x0 SWAP1 SLOAD SWAP1 PUSH2 0x100 EXP SWAP1 DIV PUSH20 0xFFFFFFFFFFFFFFFFFFFFFFFFFFFFFFFFFFFFFFFF AND PUSH20 0xFFFFFFFFFFFFFFFFFFFFFFFFFFFFFFFFFFFFFFFF AND DUP2 MSTORE PUSH1 0x20 ADD SWAP1 PUSH1 0x1 ADD SWAP1 DUP1 DUP4 GT PUSH2 0xA64 JUMPI JUMPDEST POP POP POP POP POP DUP2 MSTORE PUSH1 0x20 ADD PUSH1 0x1 DUP3 ADD DUP1 SLOAD DUP1 PUSH1 0x20 MUL PUSH1 0x20 ADD PUSH1 0x40 MLOAD SWAP1 DUP2 ADD PUSH1 0x40 MSTORE DUP1 SWAP3 SWAP2 SWAP1 DUP2 DUP2 MSTORE PUSH1 0x20 ADD DUP3 DUP1 SLOAD DUP1 ISZERO PUSH2 0xB06 JUMPI PUSH1 0x20 MUL DUP3 ADD SWAP2 SWAP1 PUSH1 0x0 MSTORE PUSH1 0x20 PUSH1 0x0 KECCAK256 SWAP1 JUMPDEST DUP2 SLOAD DUP2 MSTORE PUSH1 0x20 ADD SWAP1 PUSH1 0x1 ADD SWAP1 DUP1 DUP4 GT PUSH2 0xAF2 JUMPI JUMPDEST POP POP POP POP POP DUP2 MSTORE PUSH1 0x20 ADD PUSH1 0x2 DUP3 ADD SLOAD DUP2 MSTORE PUSH1 0x20 ADD PUSH1 0x3 DUP3 ADD SLOAD DUP2 MSTORE PUSH1 0x20 ADD PUSH1 0x4 DUP3 ADD PUSH1 0x0 SWAP1 SLOAD SWAP1 PUSH2 0x100 EXP SWAP1 DIV PUSH1 0xFF AND ISZERO ISZERO ISZERO ISZERO DUP2 MSTORE POP POP SWAP1 POP SWAP2 SWAP1 POP JUMP JUMPDEST PUSH2 0xB4D PUSH2 0x168D JUMP JUMPDEST PUSH1 0x7 PUSH1 0x0 DUP4 DUP2 MSTORE PUSH1 0x20 ADD SWAP1 DUP2 MSTORE PUSH1 0x20 ADD PUSH1 0x0 KECCAK256 PUSH1 0x40 MLOAD DUP1 PUSH1 0x60 ADD PUSH1 0x40 MSTORE SWAP1 DUP2 PUSH1 0x0 DUP3 ADD DUP1 SLOAD PUSH2 0xB7B SWAP1 PUSH2 0x240A JUMP JUMPDEST DUP1 PUSH1 0x1F ADD PUSH1 0x20 DUP1 SWAP2 DIV MUL PUSH1 0x20 ADD PUSH1 0x40 MLOAD SWAP1 DUP2 ADD PUSH1 0x40 MSTORE DUP1 SWAP3 SWAP2 SWAP1 DUP2 DUP2 MSTORE PUSH1 0x20 ADD DUP3 DUP1 SLOAD PUSH2 0xBA7 SWAP1 PUSH2 0x240A JUMP JUMPDEST DUP1 ISZERO PUSH2 0xBF4 JUMPI DUP1 PUSH1 0x1F LT PUSH2 0xBC9 JUMPI PUSH2 0x100 DUP1 DUP4 SLOAD DIV MUL DUP4 MSTORE SWAP2 PUSH1 0x20 ADD SWAP2 PUSH2 0xBF4 JUMP JUMPDEST DUP3 ADD SWAP2 SWAP1 PUSH1 0x0 MSTORE PUSH1 0x20 PUSH1 0x0 KECCAK256 SWAP1 JUMPDEST DUP2 SLOAD DUP2 MSTORE SWAP1 PUSH1 0x1 ADD SWAP1 PUSH1 0x20 ADD DUP1 DUP4 GT PUSH2 0xBD7 JUMPI DUP3 SWAP1 SUB PUSH1 0x1F AND DUP3 ADD SWAP2 JUMPDEST POP POP POP POP POP DUP2 MSTORE PUSH1 0x20 ADD PUSH1 0x1 DUP3 ADD PUSH1 0x0 SWAP1 SLOAD SWAP1 PUSH2 0x100 EXP SWAP1 DIV PUSH20 0xFFFFFFFFFFFFFFFFFFFFFFFFFFFFFFFFFFFFFFFF AND PUSH20 0xFFFFFFFFFFFFFFFFFFFFFFFFFFFFFFFFFFFFFFFF AND PUSH20 0xFFFFFFFFFFFFFFFFFFFFFFFFFFFFFFFFFFFFFFFF AND DUP2 MSTORE PUSH1 0x20 ADD PUSH1 0x2 DUP3 ADD DUP1 SLOAD PUSH2 0xC63 SWAP1 PUSH2 0x240A JUMP JUMPDEST DUP1 PUSH1 0x1F ADD PUSH1 0x20 DUP1 SWAP2 DIV MUL PUSH1 0x20 ADD PUSH1 0x40 MLOAD SWAP1 DUP2 ADD PUSH1 0x40 MSTORE DUP1 SWAP3 SWAP2 SWAP1 DUP2 DUP2 MSTORE PUSH1 0x20 ADD DUP3 DUP1 SLOAD PUSH2 0xC8F SWAP1 PUSH2 0x240A JUMP JUMPDEST DUP1 ISZERO PUSH2 0xCDC JUMPI DUP1 PUSH1 0x1F LT PUSH2 0xCB1 JUMPI PUSH2 0x100 DUP1 DUP4 SLOAD DIV MUL DUP4 MSTORE SWAP2 PUSH1 0x20 ADD SWAP2 PUSH2 0xCDC JUMP JUMPDEST DUP3 ADD SWAP2 SWAP1 PUSH1 0x0 MSTORE PUSH1 0x20 PUSH1 0x0 KECCAK256 SWAP1 JUMPDEST DUP2 SLOAD DUP2 MSTORE SWAP1 PUSH1 0x1 ADD SWAP1 PUSH1 0x20 ADD DUP1 DUP4 GT PUSH2 0xCBF JUMPI DUP3 SWAP1 SUB PUSH1 0x1F AND DUP3 ADD SWAP2 JUMPDEST POP POP POP POP POP DUP2 MSTORE POP POP SWAP1 POP SWAP2 SWAP1 POP JUMP JUMPDEST PUSH1 0x0 DUP1 SHL DUP2 JUMP JUMPDEST PUSH32 0x15283FD96AA656C9DF35AC2FCB112678A5F24F1CA97E591A97D1D16003DBFC9C DUP2 JUMP JUMPDEST PUSH2 0xD20 DUP3 PUSH2 0x49D JUMP JUMPDEST PUSH2 0xD29 DUP2 PUSH2 0x1055 JUMP JUMPDEST PUSH2 0xD33 DUP4 DUP4 PUSH2 0x1151 JUMP JUMPDEST POP POP POP JUMP JUMPDEST PUSH2 0xD62 PUSH32 0x82F6ED76E0352438E6A6E35C77719C3F04BF277FDC8FEC7E5FF5F65E001D902 CALLER PUSH2 0x93B JUMP JUMPDEST PUSH2 0xDA1 JUMPI PUSH1 0x40 MLOAD PUSH32 0x8C379A000000000000000000000000000000000000000000000000000000000 DUP2 MSTORE PUSH1 0x4 ADD PUSH2 0xD98 SWAP1 PUSH2 0x20A0 JUMP JUMPDEST PUSH1 0x40 MLOAD DUP1 SWAP2 SUB SWAP1 REVERT JUMPDEST DUP3 PUSH1 0x7 PUSH1 0x0 PUSH1 0x3 SLOAD DUP2 MSTORE PUSH1 0x20 ADD SWAP1 DUP2 MSTORE PUSH1 0x20 ADD PUSH1 0x0 KECCAK256 PUSH1 0x0 ADD SWAP1 DUP1 MLOAD SWAP1 PUSH1 0x20 ADD SWAP1 PUSH2 0xDCD SWAP3 SWAP2 SWAP1 PUSH2 0x16C4 JUMP JUMPDEST POP DUP2 PUSH1 0x7 PUSH1 0x0 PUSH1 0x3 SLOAD DUP2 MSTORE PUSH1 0x20 ADD SWAP1 DUP2 MSTORE PUSH1 0x20 ADD PUSH1 0x0 KECCAK256 PUSH1 0x1 ADD PUSH1 0x0 PUSH2 0x100 EXP DUP2 SLOAD DUP2 PUSH20 0xFFFFFFFFFFFFFFFFFFFFFFFFFFFFFFFFFFFFFFFF MUL NOT AND SWAP1 DUP4 PUSH20 0xFFFFFFFFFFFFFFFFFFFFFFFFFFFFFFFFFFFFFFFF AND MUL OR SWAP1 SSTORE POP PUSH1 0x6 DUP2 DUP2 SLOAD DUP2 LT PUSH2 0xE39 JUMPI PUSH2 0xE38 PUSH2 0x2514 JUMP JUMPDEST JUMPDEST SWAP1 PUSH1 0x0 MSTORE PUSH1 0x20 PUSH1 0x0 KECCAK256 ADD PUSH1 0x7 PUSH1 0x0 PUSH1 0x3 SLOAD DUP2 MSTORE PUSH1 0x20 ADD SWAP1 DUP2 MSTORE PUSH1 0x20 ADD PUSH1 0x0 KECCAK256 PUSH1 0x2 ADD SWAP1 DUP1 SLOAD PUSH2 0xE67 SWAP1 PUSH2 0x240A JUMP JUMPDEST PUSH2 0xE72 SWAP3 SWAP2 SWAP1 PUSH2 0x174A JUMP JUMPDEST POP PUSH1 0x3 PUSH1 0x0 DUP2 SLOAD DUP1 SWAP3 SWAP2 SWAP1 PUSH2 0xE86 SWAP1 PUSH2 0x246D JUMP JUMPDEST SWAP2 SWAP1 POP SSTORE POP POP POP POP JUMP JUMPDEST PUSH2 0xE98 PUSH2 0x1233 JUMP JUMPDEST PUSH2 0xEC2 PUSH32 0x82F6ED76E0352438E6A6E35C77719C3F04BF277FDC8FEC7E5FF5F65E001D902 DUP3 PUSH2 0x63B JUMP JUMPDEST POP JUMP JUMPDEST DUP2 PUSH1 0x8 PUSH1 0x0 PUSH1 0x4 SLOAD DUP2 MSTORE PUSH1 0x20 ADD SWAP1 DUP2 MSTORE PUSH1 0x20 ADD PUSH1 0x0 KECCAK256 PUSH1 0x0 ADD PUSH1 0x0 PUSH2 0x100 EXP DUP2 SLOAD DUP2 PUSH20 0xFFFFFFFFFFFFFFFFFFFFFFFFFFFFFFFFFFFFFFFF MUL NOT AND SWAP1 DUP4 PUSH20 0xFFFFFFFFFFFFFFFFFFFFFFFFFFFFFFFFFFFFFFFF AND MUL OR SWAP1 SSTORE POP DUP1 PUSH1 0x8 PUSH1 0x0 PUSH1 0x4 SLOAD DUP2 MSTORE PUSH1 0x20 ADD SWAP1 DUP2 MSTORE PUSH1 0x20 ADD PUSH1 0x0 KECCAK256 PUSH1 0x1 ADD DUP2 SWAP1 SSTORE POP PUSH2 0xF63 PUSH32 0x15283FD96AA656C9DF35AC2FCB112678A5F24F1CA97E591A97D1D16003DBFC9C DUP4 PUSH2 0x1375 JUMP JUMPDEST POP POP JUMP JUMPDEST PUSH2 0xF6F PUSH2 0x1233 JUMP JUMPDEST PUSH1 0x0 PUSH20 0xFFFFFFFFFFFFFFFFFFFFFFFFFFFFFFFFFFFFFFFF AND DUP2 PUSH20 0xFFFFFFFFFFFFFFFFFFFFFFFFFFFFFFFFFFFFFFFF AND EQ ISZERO PUSH2 0xFDF JUMPI PUSH1 0x40 MLOAD PUSH32 0x8C379A000000000000000000000000000000000000000000000000000000000 DUP2 MSTORE PUSH1 0x4 ADD PUSH2 0xFD6 SWAP1 PUSH2 0x2080 JUMP JUMPDEST PUSH1 0x40 MLOAD DUP1 SWAP2 SUB SWAP1 REVERT JUMPDEST PUSH2 0xFE8 DUP2 PUSH2 0x12B1 JUMP JUMPDEST POP JUMP JUMPDEST PUSH1 0x0 PUSH32 0x1FFC9A700000000000000000000000000000000000000000000000000000000 PUSH28 0xFFFFFFFFFFFFFFFFFFFFFFFFFFFFFFFFFFFFFFFFFFFFFFFFFFFFFFFF NOT AND DUP3 PUSH28 0xFFFFFFFFFFFFFFFFFFFFFFFFFFFFFFFFFFFFFFFFFFFFFFFFFFFFFFFF NOT AND EQ SWAP1 POP SWAP2 SWAP1 POP JUMP JUMPDEST PUSH2 0x1066 DUP2 PUSH2 0x1061 PUSH2 0x1149 JUMP JUMPDEST PUSH2 0x1383 JUMP JUMPDEST POP JUMP JUMPDEST PUSH2 0x1073 DUP3 DUP3 PUSH2 0x93B JUMP JUMPDEST PUSH2 0x1145 JUMPI PUSH1 0x1 DUP1 PUSH1 0x0 DUP5 DUP2 MSTORE PUSH1 0x20 ADD SWAP1 DUP2 MSTORE PUSH1 0x20 ADD PUSH1 0x0 KECCAK256 PUSH1 0x0 ADD PUSH1 0x0 DUP4 PUSH20 0xFFFFFFFFFFFFFFFFFFFFFFFFFFFFFFFFFFFFFFFF AND PUSH20 0xFFFFFFFFFFFFFFFFFFFFFFFFFFFFFFFFFFFFFFFF AND DUP2 MSTORE PUSH1 0x20 ADD SWAP1 DUP2 MSTORE PUSH1 0x20 ADD PUSH1 0x0 KECCAK256 PUSH1 0x0 PUSH2 0x100 EXP DUP2 SLOAD DUP2 PUSH1 0xFF MUL NOT AND SWAP1 DUP4 ISZERO ISZERO MUL OR SWAP1 SSTORE POP PUSH2 0x10EA PUSH2 0x1149 JUMP JUMPDEST PUSH20 0xFFFFFFFFFFFFFFFFFFFFFFFFFFFFFFFFFFFFFFFF AND DUP2 PUSH20 0xFFFFFFFFFFFFFFFFFFFFFFFFFFFFFFFFFFFFFFFF AND DUP4 PUSH32 0x2F8788117E7EFF1D82E926EC794901D17C78024A50270940304540A733656F0D PUSH1 0x40 MLOAD PUSH1 0x40 MLOAD DUP1 SWAP2 SUB SWAP1 LOG4 JUMPDEST POP POP JUMP JUMPDEST PUSH1 0x0 CALLER SWAP1 POP SWAP1 JUMP JUMPDEST PUSH2 0x115B DUP3 DUP3 PUSH2 0x93B JUMP JUMPDEST ISZERO PUSH2 0x122F JUMPI PUSH1 0x0 PUSH1 0x1 PUSH1 0x0 DUP5 DUP2 MSTORE PUSH1 0x20 ADD SWAP1 DUP2 MSTORE PUSH1 0x20 ADD PUSH1 0x0 KECCAK256 PUSH1 0x0 ADD PUSH1 0x0 DUP4 PUSH20 0xFFFFFFFFFFFFFFFFFFFFFFFFFFFFFFFFFFFFFFFF AND PUSH20 0xFFFFFFFFFFFFFFFFFFFFFFFFFFFFFFFFFFFFFFFF AND DUP2 MSTORE PUSH1 0x20 ADD SWAP1 DUP2 MSTORE PUSH1 0x20 ADD PUSH1 0x0 KECCAK256 PUSH1 0x0 PUSH2 0x100 EXP DUP2 SLOAD DUP2 PUSH1 0xFF MUL NOT AND SWAP1 DUP4 ISZERO ISZERO MUL OR SWAP1 SSTORE POP PUSH2 0x11D4 PUSH2 0x1149 JUMP JUMPDEST PUSH20 0xFFFFFFFFFFFFFFFFFFFFFFFFFFFFFFFFFFFFFFFF AND DUP2 PUSH20 0xFFFFFFFFFFFFFFFFFFFFFFFFFFFFFFFFFFFFFFFF AND DUP4 PUSH32 0xF6391F5C32D9C69D2A47EA670B442974B53935D1EDC7FD64EB21E047A839171B PUSH1 0x40 MLOAD PUSH1 0x40 MLOAD DUP1 SWAP2 SUB SWAP1 LOG4 JUMPDEST POP POP JUMP JUMPDEST PUSH2 0x123B PUSH2 0x1149 JUMP JUMPDEST PUSH20 0xFFFFFFFFFFFFFFFFFFFFFFFFFFFFFFFFFFFFFFFF AND PUSH2 0x1259 PUSH2 0x912 JUMP JUMPDEST PUSH20 0xFFFFFFFFFFFFFFFFFFFFFFFFFFFFFFFFFFFFFFFF AND EQ PUSH2 0x12AF JUMPI PUSH1 0x40 MLOAD PUSH32 0x8C379A000000000000000000000000000000000000000000000000000000000 DUP2 MSTORE PUSH1 0x4 ADD PUSH2 0x12A6 SWAP1 PUSH2 0x20C0 JUMP JUMPDEST PUSH1 0x40 MLOAD DUP1 SWAP2 SUB SWAP1 REVERT JUMPDEST JUMP JUMPDEST PUSH1 0x0 DUP1 PUSH1 0x0 SWAP1 SLOAD SWAP1 PUSH2 0x100 EXP SWAP1 DIV PUSH20 0xFFFFFFFFFFFFFFFFFFFFFFFFFFFFFFFFFFFFFFFF AND SWAP1 POP DUP2 PUSH1 0x0 DUP1 PUSH2 0x100 EXP DUP2 SLOAD DUP2 PUSH20 0xFFFFFFFFFFFFFFFFFFFFFFFFFFFFFFFFFFFFFFFF MUL NOT AND SWAP1 DUP4 PUSH20 0xFFFFFFFFFFFFFFFFFFFFFFFFFFFFFFFFFFFFFFFF AND MUL OR SWAP1 SSTORE POP DUP2 PUSH20 0xFFFFFFFFFFFFFFFFFFFFFFFFFFFFFFFFFFFFFFFF AND DUP2 PUSH20 0xFFFFFFFFFFFFFFFFFFFFFFFFFFFFFFFFFFFFFFFF AND PUSH32 0x8BE0079C531659141344CD1FD0A4F28419497F9722A3DAAFE3B4186F6B6457E0 PUSH1 0x40 MLOAD PUSH1 0x40 MLOAD DUP1 SWAP2 SUB SWAP1 LOG3 POP POP JUMP JUMPDEST PUSH2 0x137F DUP3 DUP3 PUSH2 0x1069 JUMP JUMPDEST POP POP JUMP JUMPDEST PUSH2 0x138D DUP3 DUP3 PUSH2 0x93B JUMP JUMPDEST PUSH2 0x141C JUMPI PUSH2 0x13B2 DUP2 PUSH20 0xFFFFFFFFFFFFFFFFFFFFFFFFFFFFFFFFFFFFFFFF AND PUSH1 0x14 PUSH2 0x1420 JUMP JUMPDEST PUSH2 0x13C0 DUP4 PUSH1 0x0 SHR PUSH1 0x20 PUSH2 0x1420 JUMP JUMPDEST PUSH1 0x40 MLOAD PUSH1 0x20 ADD PUSH2 0x13D1 SWAP3 SWAP2 SWAP1 PUSH2 0x1F29 JUMP JUMPDEST PUSH1 0x40 MLOAD PUSH1 0x20 DUP2 DUP4 SUB SUB DUP2 MSTORE SWAP1 PUSH1 0x40 MSTORE PUSH1 0x40 MLOAD PUSH32 0x8C379A000000000000000000000000000000000000000000000000000000000 DUP2 MSTORE PUSH1 0x4 ADD PUSH2 0x1413 SWAP2 SWAP1 PUSH2 0x1FF9 JUMP JUMPDEST PUSH1 0x40 MLOAD DUP1 SWAP2 SUB SWAP1 REVERT JUMPDEST POP POP JUMP JUMPDEST PUSH1 0x60 PUSH1 0x0 PUSH1 0x2 DUP4 PUSH1 0x2 PUSH2 0x1433 SWAP2 SWAP1 PUSH2 0x22C6 JUMP JUMPDEST PUSH2 0x143D SWAP2 SWAP1 PUSH2 0x2270 JUMP JUMPDEST PUSH8 0xFFFFFFFFFFFFFFFF DUP2 GT ISZERO PUSH2 0x1456 JUMPI PUSH2 0x1455 PUSH2 0x2543 JUMP JUMPDEST JUMPDEST PUSH1 0x40 MLOAD SWAP1 DUP1 DUP3 MSTORE DUP1 PUSH1 0x1F ADD PUSH1 0x1F NOT AND PUSH1 0x20 ADD DUP3 ADD PUSH1 0x40 MSTORE DUP1 ISZERO PUSH2 0x1488 JUMPI DUP2 PUSH1 0x20 ADD PUSH1 0x1 DUP3 MUL DUP1 CALLDATASIZE DUP4 CALLDATACOPY DUP1 DUP3 ADD SWAP2 POP POP SWAP1 POP JUMPDEST POP SWAP1 POP PUSH32 0x3000000000000000000000000000000000000000000000000000000000000000 DUP2 PUSH1 0x0 DUP2 MLOAD DUP2 LT PUSH2 0x14C0 JUMPI PUSH2 0x14BF PUSH2 0x2514 JUMP JUMPDEST JUMPDEST PUSH1 0x20 ADD ADD SWAP1 PUSH31 0xFFFFFFFFFFFFFFFFFFFFFFFFFFFFFFFFFFFFFFFFFFFFFFFFFFFFFFFFFFFFFF NOT AND SWAP1 DUP2 PUSH1 0x0 BYTE SWAP1 MSTORE8 POP PUSH32 0x7800000000000000000000000000000000000000000000000000000000000000 DUP2 PUSH1 0x1 DUP2 MLOAD DUP2 LT PUSH2 0x1524 JUMPI PUSH2 0x1523 PUSH2 0x2514 JUMP JUMPDEST JUMPDEST PUSH1 0x20 ADD ADD SWAP1 PUSH31 0xFFFFFFFFFFFFFFFFFFFFFFFFFFFFFFFFFFFFFFFFFFFFFFFFFFFFFFFFFFFFFF NOT AND SWAP1 DUP2 PUSH1 0x0 BYTE SWAP1 MSTORE8 POP PUSH1 0x0 PUSH1 0x1 DUP5 PUSH1 0x2 PUSH2 0x1564 SWAP2 SWAP1 PUSH2 0x22C6 JUMP JUMPDEST PUSH2 0x156E SWAP2 SWAP1 PUSH2 0x2270 JUMP JUMPDEST SWAP1 POP JUMPDEST PUSH1 0x1 DUP2 GT ISZERO PUSH2 0x160E JUMPI PUSH32 0x3031323334353637383961626364656600000000000000000000000000000000 PUSH1 0xF DUP7 AND PUSH1 0x10 DUP2 LT PUSH2 0x15B0 JUMPI PUSH2 0x15AF PUSH2 0x2514 JUMP JUMPDEST JUMPDEST BYTE PUSH1 0xF8 SHL DUP3 DUP3 DUP2 MLOAD DUP2 LT PUSH2 0x15C7 JUMPI PUSH2 0x15C6 PUSH2 0x2514 JUMP JUMPDEST JUMPDEST PUSH1 0x20 ADD ADD SWAP1 PUSH31 0xFFFFFFFFFFFFFFFFFFFFFFFFFFFFFFFFFFFFFFFFFFFFFFFFFFFFFFFFFFFFFF NOT AND SWAP1 DUP2 PUSH1 0x0 BYTE SWAP1 MSTORE8 POP PUSH1 0x4 DUP6 SWAP1 SHR SWAP5 POP DUP1 PUSH2 0x1607 SWAP1 PUSH2 0x23E0 JUMP JUMPDEST SWAP1 POP PUSH2 0x1571 JUMP JUMPDEST POP PUSH1 0x0 DUP5 EQ PUSH2 0x1652 JUMPI PUSH1 0x40 MLOAD PUSH32 0x8C379A000000000000000000000000000000000000000000000000000000000 DUP2 MSTORE PUSH1 0x4 ADD PUSH2 0x1649 SWAP1 PUSH2 0x2060 JUMP JUMPDEST PUSH1 0x40 MLOAD DUP1 SWAP2 SUB SWAP1 REVERT JUMPDEST DUP1 SWAP2 POP POP SWAP3 SWAP2 POP POP JUMP JUMPDEST PUSH1 0x40 MLOAD DUP1 PUSH1 0xA0 ADD PUSH1 0x40 MSTORE DUP1 PUSH1 0x60 DUP2 MSTORE PUSH1 0x20 ADD PUSH1 0x60 DUP2 MSTORE PUSH1 0x20 ADD PUSH1 0x0 DUP2 MSTORE PUSH1 0x20 ADD PUSH1 0x0 DUP2 MSTORE PUSH1 0x20 ADD PUSH1 0x0 ISZERO ISZERO DUP2 MSTORE POP SWAP1 JUMP JUMPDEST PUSH1 0x40 MLOAD DUP1 PUSH1 0x60 ADD PUSH1 0x40 MSTORE DUP1 PUSH1 0x60 DUP2 MSTORE PUSH1 0x20 ADD PUSH1 0x0 PUSH20 0xFFFFFFFFFFFFFFFFFFFFFFFFFFFFFFFFFFFFFFFF AND DUP2 MSTORE PUSH1 0x20 ADD PUSH1 0x60 DUP2 MSTORE POP SWAP1 JUMP JUMPDEST DUP3 DUP1 SLOAD PUSH2 0x16D0 SWAP1 PUSH2 0x240A JUMP JUMPDEST SWAP1 PUSH1 0x0 MSTORE PUSH1 0x20 PUSH1 0x0 KECCAK256 SWAP1 PUSH1 0x1F ADD PUSH1 0x20 SWAP1 DIV DUP2 ADD SWAP3 DUP3 PUSH2 0x16F2 JUMPI PUSH1 0x0 DUP6 SSTORE PUSH2 0x1739 JUMP JUMPDEST DUP3 PUSH1 0x1F LT PUSH2 0x170B JUMPI DUP1 MLOAD PUSH1 0xFF NOT AND DUP4 DUP1 ADD OR DUP6 SSTORE PUSH2 0x1739 JUMP JUMPDEST DUP3 DUP1 ADD PUSH1 0x1 ADD DUP6 SSTORE DUP3 ISZERO PUSH2 0x1739 JUMPI SWAP2 DUP3 ADD JUMPDEST DUP3 DUP2 GT ISZERO PUSH2 0x1738 JUMPI DUP3 MLOAD DUP3 SSTORE SWAP2 PUSH1 0x20 ADD SWAP2 SWAP1 PUSH1 0x1 ADD SWAP1 PUSH2 0x171D JUMP JUMPDEST JUMPDEST POP SWAP1 POP PUSH2 0x1746 SWAP2 SWAP1 PUSH2 0x17D7 JUMP JUMPDEST POP SWAP1 JUMP JUMPDEST DUP3 DUP1 SLOAD PUSH2 0x1756 SWAP1 PUSH2 0x240A JUMP JUMPDEST SWAP1 PUSH1 0x0 MSTORE PUSH1 0x20 PUSH1 0x0 KECCAK256 SWAP1 PUSH1 0x1F ADD PUSH1 0x20 SWAP1 DIV DUP2 ADD SWAP3 DUP3 PUSH2 0x1778 JUMPI PUSH1 0x0 DUP6 SSTORE PUSH2 0x17C6 JUMP JUMPDEST DUP3 PUSH1 0x1F LT PUSH2 0x1789 JUMPI DUP1 SLOAD DUP6 SSTORE PUSH2 0x17C6 JUMP JUMPDEST DUP3 DUP1 ADD PUSH1 0x1 ADD DUP6 SSTORE DUP3 ISZERO PUSH2 0x17C6 JUMPI PUSH1 0x0 MSTORE PUSH1 0x20 PUSH1 0x0 KECCAK256 SWAP2 PUSH1 0x1F ADD PUSH1 0x20 SWAP1 DIV DUP3 ADD JUMPDEST DUP3 DUP2 GT ISZERO PUSH2 0x17C5 JUMPI DUP3 SLOAD DUP3 SSTORE SWAP2 PUSH1 0x1 ADD SWAP2 SWAP1 PUSH1 0x1 ADD SWAP1 PUSH2 0x17AA JUMP JUMPDEST JUMPDEST POP SWAP1 POP PUSH2 0x17D3 SWAP2 SWAP1 PUSH2 0x17D7 JUMP JUMPDEST POP SWAP1 JUMP JUMPDEST JUMPDEST DUP1 DUP3 GT ISZERO PUSH2 0x17F0 JUMPI PUSH1 0x0 DUP2 PUSH1 0x0 SWAP1 SSTORE POP PUSH1 0x1 ADD PUSH2 0x17D8 JUMP JUMPDEST POP SWAP1 JUMP JUMPDEST PUSH1 0x0 PUSH2 0x1807 PUSH2 0x1802 DUP5 PUSH2 0x2169 JUMP JUMPDEST PUSH2 0x2144 JUMP JUMPDEST SWAP1 POP DUP1 DUP4 DUP3 MSTORE PUSH1 0x20 DUP3 ADD SWAP1 POP DUP3 DUP6 PUSH1 0x20 DUP7 MUL DUP3 ADD GT ISZERO PUSH2 0x182A JUMPI PUSH2 0x1829 PUSH2 0x2577 JUMP JUMPDEST JUMPDEST PUSH1 0x0 JUMPDEST DUP6 DUP2 LT ISZERO PUSH2 0x185A JUMPI DUP2 PUSH2 0x1840 DUP9 DUP3 PUSH2 0x18A6 JUMP JUMPDEST DUP5 MSTORE PUSH1 0x20 DUP5 ADD SWAP4 POP PUSH1 0x20 DUP4 ADD SWAP3 POP POP PUSH1 0x1 DUP2 ADD SWAP1 POP PUSH2 0x182D JUMP JUMPDEST POP POP POP SWAP4 SWAP3 POP POP POP JUMP JUMPDEST PUSH1 0x0 PUSH2 0x1877 PUSH2 0x1872 DUP5 PUSH2 0x2195 JUMP JUMPDEST PUSH2 0x2144 JUMP JUMPDEST SWAP1 POP DUP3 DUP2 MSTORE PUSH1 0x20 DUP2 ADD DUP5 DUP5 DUP5 ADD GT ISZERO PUSH2 0x1893 JUMPI PUSH2 0x1892 PUSH2 0x257C JUMP JUMPDEST JUMPDEST PUSH2 0x189E DUP5 DUP3 DUP6 PUSH2 0x239E JUMP JUMPDEST POP SWAP4 SWAP3 POP POP POP JUMP JUMPDEST PUSH1 0x0 DUP2 CALLDATALOAD SWAP1 POP PUSH2 0x18B5 DUP2 PUSH2 0x2707 JUMP JUMPDEST SWAP3 SWAP2 POP POP JUMP JUMPDEST PUSH1 0x0 DUP3 PUSH1 0x1F DUP4 ADD SLT PUSH2 0x18D0 JUMPI PUSH2 0x18CF PUSH2 0x2572 JUMP JUMPDEST JUMPDEST DUP2 CALLDATALOAD PUSH2 0x18E0 DUP5 DUP3 PUSH1 0x20 DUP7 ADD PUSH2 0x17F4 JUMP JUMPDEST SWAP2 POP POP SWAP3 SWAP2 POP POP JUMP JUMPDEST PUSH1 0x0 DUP2 CALLDATALOAD SWAP1 POP PUSH2 0x18F8 DUP2 PUSH2 0x271E JUMP JUMPDEST SWAP3 SWAP2 POP POP JUMP JUMPDEST PUSH1 0x0 DUP2 CALLDATALOAD SWAP1 POP PUSH2 0x190D DUP2 PUSH2 0x2735 JUMP JUMPDEST SWAP3 SWAP2 POP POP JUMP JUMPDEST PUSH1 0x0 DUP3 PUSH1 0x1F DUP4 ADD SLT PUSH2 0x1928 JUMPI PUSH2 0x1927 PUSH2 0x2572 JUMP JUMPDEST JUMPDEST DUP2 CALLDATALOAD PUSH2 0x1938 DUP5 DUP3 PUSH1 0x20 DUP7 ADD PUSH2 0x1864 JUMP JUMPDEST SWAP2 POP POP SWAP3 SWAP2 POP POP JUMP JUMPDEST PUSH1 0x0 DUP2 CALLDATALOAD SWAP1 POP PUSH2 0x1950 DUP2 PUSH2 0x274C JUMP JUMPDEST SWAP3 SWAP2 POP POP JUMP JUMPDEST PUSH1 0x0 PUSH1 0x20 DUP3 DUP5 SUB SLT ISZERO PUSH2 0x196C JUMPI PUSH2 0x196B PUSH2 0x2586 JUMP JUMPDEST JUMPDEST PUSH1 0x0 PUSH2 0x197A DUP5 DUP3 DUP6 ADD PUSH2 0x18A6 JUMP JUMPDEST SWAP2 POP POP SWAP3 SWAP2 POP POP JUMP JUMPDEST PUSH1 0x0 DUP1 PUSH1 0x40 DUP4 DUP6 SUB SLT ISZERO PUSH2 0x199A JUMPI PUSH2 0x1999 PUSH2 0x2586 JUMP JUMPDEST JUMPDEST PUSH1 0x0 PUSH2 0x19A8 DUP6 DUP3 DUP7 ADD PUSH2 0x18A6 JUMP JUMPDEST SWAP3 POP POP PUSH1 0x20 PUSH2 0x19B9 DUP6 DUP3 DUP7 ADD PUSH2 0x1941 JUMP JUMPDEST SWAP2 POP POP SWAP3 POP SWAP3 SWAP1 POP JUMP JUMPDEST PUSH1 0x0 DUP1 PUSH1 0x0 PUSH1 0x60 DUP5 DUP7 SUB SLT ISZERO PUSH2 0x19DC JUMPI PUSH2 0x19DB PUSH2 0x2586 JUMP JUMPDEST JUMPDEST PUSH1 0x0 DUP5 ADD CALLDATALOAD PUSH8 0xFFFFFFFFFFFFFFFF DUP2 GT ISZERO PUSH2 0x19FA JUMPI PUSH2 0x19F9 PUSH2 0x2581 JUMP JUMPDEST JUMPDEST PUSH2 0x1A06 DUP7 DUP3 DUP8 ADD PUSH2 0x18BB JUMP JUMPDEST SWAP4 POP POP PUSH1 0x20 PUSH2 0x1A17 DUP7 DUP3 DUP8 ADD PUSH2 0x1941 JUMP JUMPDEST SWAP3 POP POP PUSH1 0x40 PUSH2 0x1A28 DUP7 DUP3 DUP8 ADD PUSH2 0x1941 JUMP JUMPDEST SWAP2 POP POP SWAP3 POP SWAP3 POP SWAP3 JUMP JUMPDEST PUSH1 0x0 PUSH1 0x20 DUP3 DUP5 SUB SLT ISZERO PUSH2 0x1A48 JUMPI PUSH2 0x1A47 PUSH2 0x2586 JUMP JUMPDEST JUMPDEST PUSH1 0x0 PUSH2 0x1A56 DUP5 DUP3 DUP6 ADD PUSH2 0x18E9 JUMP JUMPDEST SWAP2 POP POP SWAP3 SWAP2 POP POP JUMP JUMPDEST PUSH1 0x0 DUP1 PUSH1 0x40 DUP4 DUP6 SUB SLT ISZERO PUSH2 0x1A76 JUMPI PUSH2 0x1A75 PUSH2 0x2586 JUMP JUMPDEST JUMPDEST PUSH1 0x0 PUSH2 0x1A84 DUP6 DUP3 DUP7 ADD PUSH2 0x18E9 JUMP JUMPDEST SWAP3 POP POP PUSH1 0x20 PUSH2 0x1A95 DUP6 DUP3 DUP7 ADD PUSH2 0x18A6 JUMP JUMPDEST SWAP2 POP POP SWAP3 POP SWAP3 SWAP1 POP JUMP JUMPDEST PUSH1 0x0 PUSH1 0x20 DUP3 DUP5 SUB SLT ISZERO PUSH2 0x1AB5 JUMPI PUSH2 0x1AB4 PUSH2 0x2586 JUMP JUMPDEST JUMPDEST PUSH1 0x0 PUSH2 0x1AC3 DUP5 DUP3 DUP6 ADD PUSH2 0x18FE JUMP JUMPDEST SWAP2 POP POP SWAP3 SWAP2 POP POP JUMP JUMPDEST PUSH1 0x0 DUP1 PUSH1 0x0 PUSH1 0x60 DUP5 DUP7 SUB SLT ISZERO PUSH2 0x1AE5 JUMPI PUSH2 0x1AE4 PUSH2 0x2586 JUMP JUMPDEST JUMPDEST PUSH1 0x0 DUP5 ADD CALLDATALOAD PUSH8 0xFFFFFFFFFFFFFFFF DUP2 GT ISZERO PUSH2 0x1B03 JUMPI PUSH2 0x1B02 PUSH2 0x2581 JUMP JUMPDEST JUMPDEST PUSH2 0x1B0F DUP7 DUP3 DUP8 ADD PUSH2 0x1913 JUMP JUMPDEST SWAP4 POP POP PUSH1 0x20 PUSH2 0x1B20 DUP7 DUP3 DUP8 ADD PUSH2 0x18A6 JUMP JUMPDEST SWAP3 POP POP PUSH1 0x40 PUSH2 0x1B31 DUP7 DUP3 DUP8 ADD PUSH2 0x1941 JUMP JUMPDEST SWAP2 POP POP SWAP3 POP SWAP3 POP SWAP3 JUMP JUMPDEST PUSH1 0x0 PUSH1 0x20 DUP3 DUP5 SUB SLT ISZERO PUSH2 0x1B51 JUMPI PUSH2 0x1B50 PUSH2 0x2586 JUMP JUMPDEST JUMPDEST PUSH1 0x0 PUSH2 0x1B5F DUP5 DUP3 DUP6 ADD PUSH2 0x1941 JUMP JUMPDEST SWAP2 POP POP SWAP3 SWAP2 POP POP JUMP JUMPDEST PUSH1 0x0 PUSH2 0x1B74 DUP4 DUP4 PUSH2 0x1B98 JUMP JUMPDEST PUSH1 0x20 DUP4 ADD SWAP1 POP SWAP3 SWAP2 POP POP JUMP JUMPDEST PUSH1 0x0 PUSH2 0x1B8C DUP4 DUP4 PUSH2 0x1F0B JUMP JUMPDEST PUSH1 0x20 DUP4 ADD SWAP1 POP SWAP3 SWAP2 POP POP JUMP JUMPDEST PUSH2 0x1BA1 DUP2 PUSH2 0x2320 JUMP JUMPDEST DUP3 MSTORE POP POP JUMP JUMPDEST PUSH2 0x1BB0 DUP2 PUSH2 0x2320 JUMP JUMPDEST DUP3 MSTORE POP POP JUMP JUMPDEST PUSH1 0x0 PUSH2 0x1BC1 DUP3 PUSH2 0x21E6 JUMP JUMPDEST PUSH2 0x1BCB DUP2 DUP6 PUSH2 0x2221 JUMP JUMPDEST SWAP4 POP PUSH2 0x1BD6 DUP4 PUSH2 0x21C6 JUMP JUMPDEST DUP1 PUSH1 0x0 JUMPDEST DUP4 DUP2 LT ISZERO PUSH2 0x1C07 JUMPI DUP2 MLOAD PUSH2 0x1BEE DUP9 DUP3 PUSH2 0x1B68 JUMP JUMPDEST SWAP8 POP PUSH2 0x1BF9 DUP4 PUSH2 0x2207 JUMP JUMPDEST SWAP3 POP POP PUSH1 0x1 DUP2 ADD SWAP1 POP PUSH2 0x1BDA JUMP JUMPDEST POP DUP6 SWAP4 POP POP POP POP SWAP3 SWAP2 POP POP JUMP JUMPDEST PUSH1 0x0 PUSH2 0x1C1F DUP3 PUSH2 0x21F1 JUMP JUMPDEST PUSH2 0x1C29 DUP2 DUP6 PUSH2 0x2232 JUMP JUMPDEST SWAP4 POP PUSH2 0x1C34 DUP4 PUSH2 0x21D6 JUMP JUMPDEST DUP1 PUSH1 0x0 JUMPDEST DUP4 DUP2 LT ISZERO PUSH2 0x1C65 JUMPI DUP2 MLOAD PUSH2 0x1C4C DUP9 DUP3 PUSH2 0x1B80 JUMP JUMPDEST SWAP8 POP PUSH2 0x1C57 DUP4 PUSH2 0x2214 JUMP JUMPDEST SWAP3 POP POP PUSH1 0x1 DUP2 ADD SWAP1 POP PUSH2 0x1C38 JUMP JUMPDEST POP DUP6 SWAP4 POP POP POP POP SWAP3 SWAP2 POP POP JUMP JUMPDEST PUSH2 0x1C7B DUP2 PUSH2 0x2332 JUMP JUMPDEST DUP3 MSTORE POP POP JUMP JUMPDEST PUSH2 0x1C8A DUP2 PUSH2 0x2332 JUMP JUMPDEST DUP3 MSTORE POP POP JUMP JUMPDEST PUSH2 0x1C99 DUP2 PUSH2 0x233E JUMP JUMPDEST DUP3 MSTORE POP POP JUMP JUMPDEST PUSH1 0x0 PUSH2 0x1CAA DUP3 PUSH2 0x21FC JUMP JUMPDEST PUSH2 0x1CB4 DUP2 DUP6 PUSH2 0x2243 JUMP JUMPDEST SWAP4 POP PUSH2 0x1CC4 DUP2 DUP6 PUSH1 0x20 DUP7 ADD PUSH2 0x23AD JUMP JUMPDEST PUSH2 0x1CCD DUP2 PUSH2 0x258B JUMP JUMPDEST DUP5 ADD SWAP2 POP POP SWAP3 SWAP2 POP POP JUMP JUMPDEST PUSH1 0x0 PUSH2 0x1CE3 DUP3 PUSH2 0x21FC JUMP JUMPDEST PUSH2 0x1CED DUP2 DUP6 PUSH2 0x2254 JUMP JUMPDEST SWAP4 POP PUSH2 0x1CFD DUP2 DUP6 PUSH1 0x20 DUP7 ADD PUSH2 0x23AD JUMP JUMPDEST PUSH2 0x1D06 DUP2 PUSH2 0x258B JUMP JUMPDEST DUP5 ADD SWAP2 POP POP SWAP3 SWAP2 POP POP JUMP JUMPDEST PUSH1 0x0 PUSH2 0x1D1C DUP3 PUSH2 0x21FC JUMP JUMPDEST PUSH2 0x1D26 DUP2 DUP6 PUSH2 0x2265 JUMP JUMPDEST SWAP4 POP PUSH2 0x1D36 DUP2 DUP6 PUSH1 0x20 DUP7 ADD PUSH2 0x23AD JUMP JUMPDEST DUP1 DUP5 ADD SWAP2 POP POP SWAP3 SWAP2 POP POP JUMP JUMPDEST PUSH1 0x0 PUSH2 0x1D4F PUSH1 0x20 DUP4 PUSH2 0x2254 JUMP JUMPDEST SWAP2 POP PUSH2 0x1D5A DUP3 PUSH2 0x259C JUMP JUMPDEST PUSH1 0x20 DUP3 ADD SWAP1 POP SWAP2 SWAP1 POP JUMP JUMPDEST PUSH1 0x0 PUSH2 0x1D72 PUSH1 0x26 DUP4 PUSH2 0x2254 JUMP JUMPDEST SWAP2 POP PUSH2 0x1D7D DUP3 PUSH2 0x25C5 JUMP JUMPDEST PUSH1 0x40 DUP3 ADD SWAP1 POP SWAP2 SWAP1 POP JUMP JUMPDEST PUSH1 0x0 PUSH2 0x1D95 PUSH1 0x1F DUP4 PUSH2 0x2254 JUMP JUMPDEST SWAP2 POP PUSH2 0x1DA0 DUP3 PUSH2 0x2614 JUMP JUMPDEST PUSH1 0x20 DUP3 ADD SWAP1 POP SWAP2 SWAP1 POP JUMP JUMPDEST PUSH1 0x0 PUSH2 0x1DB8 PUSH1 0x20 DUP4 PUSH2 0x2254 JUMP JUMPDEST SWAP2 POP PUSH2 0x1DC3 DUP3 PUSH2 0x263D JUMP JUMPDEST PUSH1 0x20 DUP3 ADD SWAP1 POP SWAP2 SWAP1 POP JUMP JUMPDEST PUSH1 0x0 PUSH2 0x1DDB PUSH1 0x17 DUP4 PUSH2 0x2265 JUMP JUMPDEST SWAP2 POP PUSH2 0x1DE6 DUP3 PUSH2 0x2666 JUMP JUMPDEST PUSH1 0x17 DUP3 ADD SWAP1 POP SWAP2 SWAP1 POP JUMP JUMPDEST PUSH1 0x0 PUSH2 0x1DFE PUSH1 0x11 DUP4 PUSH2 0x2265 JUMP JUMPDEST SWAP2 POP PUSH2 0x1E09 DUP3 PUSH2 0x268F JUMP JUMPDEST PUSH1 0x11 DUP3 ADD SWAP1 POP SWAP2 SWAP1 POP JUMP JUMPDEST PUSH1 0x0 PUSH2 0x1E21 PUSH1 0x2F DUP4 PUSH2 0x2254 JUMP JUMPDEST SWAP2 POP PUSH2 0x1E2C DUP3 PUSH2 0x26B8 JUMP JUMPDEST PUSH1 0x40 DUP3 ADD SWAP1 POP SWAP2 SWAP1 POP JUMP JUMPDEST PUSH1 0x0 PUSH1 0x60 DUP4 ADD PUSH1 0x0 DUP4 ADD MLOAD DUP5 DUP3 SUB PUSH1 0x0 DUP7 ADD MSTORE PUSH2 0x1E54 DUP3 DUP3 PUSH2 0x1C9F JUMP JUMPDEST SWAP2 POP POP PUSH1 0x20 DUP4 ADD MLOAD PUSH2 0x1E69 PUSH1 0x20 DUP7 ADD DUP3 PUSH2 0x1B98 JUMP JUMPDEST POP PUSH1 0x40 DUP4 ADD MLOAD DUP5 DUP3 SUB PUSH1 0x40 DUP7 ADD MSTORE PUSH2 0x1E81 DUP3 DUP3 PUSH2 0x1C9F JUMP JUMPDEST SWAP2 POP POP DUP1 SWAP2 POP POP SWAP3 SWAP2 POP POP JUMP JUMPDEST PUSH1 0x0 PUSH1 0xA0 DUP4 ADD PUSH1 0x0 DUP4 ADD MLOAD DUP5 DUP3 SUB PUSH1 0x0 DUP7 ADD MSTORE PUSH2 0x1EAB DUP3 DUP3 PUSH2 0x1BB6 JUMP JUMPDEST SWAP2 POP POP PUSH1 0x20 DUP4 ADD MLOAD DUP5 DUP3 SUB PUSH1 0x20 DUP7 ADD MSTORE PUSH2 0x1EC5 DUP3 DUP3 PUSH2 0x1C14 JUMP JUMPDEST SWAP2 POP POP PUSH1 0x40 DUP4 ADD MLOAD PUSH2 0x1EDA PUSH1 0x40 DUP7 ADD DUP3 PUSH2 0x1F0B JUMP JUMPDEST POP PUSH1 0x60 DUP4 ADD MLOAD PUSH2 0x1EED PUSH1 0x60 DUP7 ADD DUP3 PUSH2 0x1F0B JUMP JUMPDEST POP PUSH1 0x80 DUP4 ADD MLOAD PUSH2 0x1F00 PUSH1 0x80 DUP7 ADD DUP3 PUSH2 0x1C72 JUMP JUMPDEST POP DUP1 SWAP2 POP POP SWAP3 SWAP2 POP POP JUMP JUMPDEST PUSH2 0x1F14 DUP2 PUSH2 0x2394 JUMP JUMPDEST DUP3 MSTORE POP POP JUMP JUMPDEST PUSH2 0x1F23 DUP2 PUSH2 0x2394 JUMP JUMPDEST DUP3 MSTORE POP POP JUMP JUMPDEST PUSH1 0x0 PUSH2 0x1F34 DUP3 PUSH2 0x1DCE JUMP JUMPDEST SWAP2 POP PUSH2 0x1F40 DUP3 DUP6 PUSH2 0x1D11 JUMP JUMPDEST SWAP2 POP PUSH2 0x1F4B DUP3 PUSH2 0x1DF1 JUMP JUMPDEST SWAP2 POP PUSH2 0x1F57 DUP3 DUP5 PUSH2 0x1D11 JUMP JUMPDEST SWAP2 POP DUP2 SWAP1 POP SWAP4 SWAP3 POP POP POP JUMP JUMPDEST PUSH1 0x0 PUSH1 0x20 DUP3 ADD SWAP1 POP PUSH2 0x1F78 PUSH1 0x0 DUP4 ADD DUP5 PUSH2 0x1BA7 JUMP JUMPDEST SWAP3 SWAP2 POP POP JUMP JUMPDEST PUSH1 0x0 PUSH1 0x80 DUP3 ADD SWAP1 POP PUSH2 0x1F93 PUSH1 0x0 DUP4 ADD DUP8 PUSH2 0x1BA7 JUMP JUMPDEST PUSH2 0x1FA0 PUSH1 0x20 DUP4 ADD DUP7 PUSH2 0x1F1A JUMP JUMPDEST PUSH2 0x1FAD PUSH1 0x40 DUP4 ADD DUP6 PUSH2 0x1F1A JUMP JUMPDEST PUSH2 0x1FBA PUSH1 0x60 DUP4 ADD DUP5 PUSH2 0x1C81 JUMP JUMPDEST SWAP6 SWAP5 POP POP POP POP POP JUMP JUMPDEST PUSH1 0x0 PUSH1 0x20 DUP3 ADD SWAP1 POP PUSH2 0x1FD8 PUSH1 0x0 DUP4 ADD DUP5 PUSH2 0x1C81 JUMP JUMPDEST SWAP3 SWAP2 POP POP JUMP JUMPDEST PUSH1 0x0 PUSH1 0x20 DUP3 ADD SWAP1 POP PUSH2 0x1FF3 PUSH1 0x0 DUP4 ADD DUP5 PUSH2 0x1C90 JUMP JUMPDEST SWAP3 SWAP2 POP POP JUMP JUMPDEST PUSH1 0x0 PUSH1 0x20 DUP3 ADD SWAP1 POP DUP2 DUP2 SUB PUSH1 0x0 DUP4 ADD MSTORE PUSH2 0x2013 DUP2 DUP5 PUSH2 0x1CD8 JUMP JUMPDEST SWAP1 POP SWAP3 SWAP2 POP POP JUMP JUMPDEST PUSH1 0x0 PUSH1 0x60 DUP3 ADD SWAP1 POP DUP2 DUP2 SUB PUSH1 0x0 DUP4 ADD MSTORE PUSH2 0x2035 DUP2 DUP7 PUSH2 0x1CD8 JUMP JUMPDEST SWAP1 POP PUSH2 0x2044 PUSH1 0x20 DUP4 ADD DUP6 PUSH2 0x1BA7 JUMP JUMPDEST DUP2 DUP2 SUB PUSH1 0x40 DUP4 ADD MSTORE PUSH2 0x2056 DUP2 DUP5 PUSH2 0x1CD8 JUMP JUMPDEST SWAP1 POP SWAP5 SWAP4 POP POP POP POP JUMP JUMPDEST PUSH1 0x0 PUSH1 0x20 DUP3 ADD SWAP1 POP DUP2 DUP2 SUB PUSH1 0x0 DUP4 ADD MSTORE PUSH2 0x2079 DUP2 PUSH2 0x1D42 JUMP JUMPDEST SWAP1 POP SWAP2 SWAP1 POP JUMP JUMPDEST PUSH1 0x0 PUSH1 0x20 DUP3 ADD SWAP1 POP DUP2 DUP2 SUB PUSH1 0x0 DUP4 ADD MSTORE PUSH2 0x2099 DUP2 PUSH2 0x1D65 JUMP JUMPDEST SWAP1 POP SWAP2 SWAP1 POP JUMP JUMPDEST PUSH1 0x0 PUSH1 0x20 DUP3 ADD SWAP1 POP DUP2 DUP2 SUB PUSH1 0x0 DUP4 ADD MSTORE PUSH2 0x20B9 DUP2 PUSH2 0x1D88 JUMP JUMPDEST SWAP1 POP SWAP2 SWAP1 POP JUMP JUMPDEST PUSH1 0x0 PUSH1 0x20 DUP3 ADD SWAP1 POP DUP2 DUP2 SUB PUSH1 0x0 DUP4 ADD MSTORE PUSH2 0x20D9 DUP2 PUSH2 0x1DAB JUMP JUMPDEST SWAP1 POP SWAP2 SWAP1 POP JUMP JUMPDEST PUSH1 0x0 PUSH1 0x20 DUP3 ADD SWAP1 POP DUP2 DUP2 SUB PUSH1 0x0 DUP4 ADD MSTORE PUSH2 0x20F9 DUP2 PUSH2 0x1E14 JUMP JUMPDEST SWAP1 POP SWAP2 SWAP1 POP JUMP JUMPDEST PUSH1 0x0 PUSH1 0x20 DUP3 ADD SWAP1 POP DUP2 DUP2 SUB PUSH1 0x0 DUP4 ADD MSTORE PUSH2 0x211A DUP2 DUP5 PUSH2 0x1E37 JUMP JUMPDEST SWAP1 POP SWAP3 SWAP2 POP POP JUMP JUMPDEST PUSH1 0x0 PUSH1 0x20 DUP3 ADD SWAP1 POP DUP2 DUP2 SUB PUSH1 0x0 DUP4 ADD MSTORE PUSH2 0x213C DUP2 DUP5 PUSH2 0x1E8E JUMP JUMPDEST SWAP1 POP SWAP3 SWAP2 POP POP JUMP JUMPDEST PUSH1 0x0 PUSH2 0x214E PUSH2 0x215F JUMP JUMPDEST SWAP1 POP PUSH2 0x215A DUP3 DUP3 PUSH2 0x243C JUMP JUMPDEST SWAP2 SWAP1 POP JUMP JUMPDEST PUSH1 0x0 PUSH1 0x40 MLOAD SWAP1 POP SWAP1 JUMP JUMPDEST PUSH1 0x0 PUSH8 0xFFFFFFFFFFFFFFFF DUP3 GT ISZERO PUSH2 0x2184 JUMPI PUSH2 0x2183 PUSH2 0x2543 JUMP JUMPDEST JUMPDEST PUSH1 0x20 DUP3 MUL SWAP1 POP PUSH1 0x20 DUP2 ADD SWAP1 POP SWAP2 SWAP1 POP JUMP JUMPDEST PUSH1 0x0 PUSH8 0xFFFFFFFFFFFFFFFF DUP3 GT ISZERO PUSH2 0x21B0 JUMPI PUSH2 0x21AF PUSH2 0x2543 JUMP JUMPDEST JUMPDEST PUSH2 0x21B9 DUP3 PUSH2 0x258B JUMP JUMPDEST SWAP1 POP PUSH1 0x20 DUP2 ADD SWAP1 POP SWAP2 SWAP1 POP JUMP JUMPDEST PUSH1 0x0 DUP2 SWAP1 POP PUSH1 0x20 DUP3 ADD SWAP1 POP SWAP2 SWAP1 POP JUMP JUMPDEST PUSH1 0x0 DUP2 SWAP1 POP PUSH1 0x20 DUP3 ADD SWAP1 POP SWAP2 SWAP1 POP JUMP JUMPDEST PUSH1 0x0 DUP2 MLOAD SWAP1 POP SWAP2 SWAP1 POP JUMP JUMPDEST PUSH1 0x0 DUP2 MLOAD SWAP1 POP SWAP2 SWAP1 POP JUMP JUMPDEST PUSH1 0x0 DUP2 MLOAD SWAP1 POP SWAP2 SWAP1 POP JUMP JUMPDEST PUSH1 0x0 PUSH1 0x20 DUP3 ADD SWAP1 POP SWAP2 SWAP1 POP JUMP JUMPDEST PUSH1 0x0 PUSH1 0x20 DUP3 ADD SWAP1 POP SWAP2 SWAP1 POP JUMP JUMPDEST PUSH1 0x0 DUP3 DUP3 MSTORE PUSH1 0x20 DUP3 ADD SWAP1 POP SWAP3 SWAP2 POP POP JUMP JUMPDEST PUSH1 0x0 DUP3 DUP3 MSTORE PUSH1 0x20 DUP3 ADD SWAP1 POP SWAP3 SWAP2 POP POP JUMP JUMPDEST PUSH1 0x0 DUP3 DUP3 MSTORE PUSH1 0x20 DUP3 ADD SWAP1 POP SWAP3 SWAP2 POP POP JUMP JUMPDEST PUSH1 0x0 DUP3 DUP3 MSTORE PUSH1 0x20 DUP3 ADD SWAP1 POP SWAP3 SWAP2 POP POP JUMP JUMPDEST PUSH1 0x0 DUP2 SWAP1 POP SWAP3 SWAP2 POP POP JUMP JUMPDEST PUSH1 0x0 PUSH2 0x227B DUP3 PUSH2 0x2394 JUMP JUMPDEST SWAP2 POP PUSH2 0x2286 DUP4 PUSH2 0x2394 JUMP JUMPDEST SWAP3 POP DUP3 PUSH32 0xFFFFFFFFFFFFFFFFFFFFFFFFFFFFFFFFFFFFFFFFFFFFFFFFFFFFFFFFFFFFFFFF SUB DUP3 GT ISZERO PUSH2 0x22BB JUMPI PUSH2 0x22BA PUSH2 0x24B6 JUMP JUMPDEST JUMPDEST DUP3 DUP3 ADD SWAP1 POP SWAP3 SWAP2 POP POP JUMP JUMPDEST PUSH1 0x0 PUSH2 0x22D1 DUP3 PUSH2 0x2394 JUMP JUMPDEST SWAP2 POP PUSH2 0x22DC DUP4 PUSH2 0x2394 JUMP JUMPDEST SWAP3 POP DUP2 PUSH32 0xFFFFFFFFFFFFFFFFFFFFFFFFFFFFFFFFFFFFFFFFFFFFFFFFFFFFFFFFFFFFFFFF DIV DUP4 GT DUP3 ISZERO ISZERO AND ISZERO PUSH2 0x2315 JUMPI PUSH2 0x2314 PUSH2 0x24B6 JUMP JUMPDEST JUMPDEST DUP3 DUP3 MUL SWAP1 POP SWAP3 SWAP2 POP POP JUMP JUMPDEST PUSH1 0x0 PUSH2 0x232B DUP3 PUSH2 0x2374 JUMP JUMPDEST SWAP1 POP SWAP2 SWAP1 POP JUMP JUMPDEST PUSH1 0x0 DUP2 ISZERO ISZERO SWAP1 POP SWAP2 SWAP1 POP JUMP JUMPDEST PUSH1 0x0 DUP2 SWAP1 POP SWAP2 SWAP1 POP JUMP JUMPDEST PUSH1 0x0 PUSH32 0xFFFFFFFF00000000000000000000000000000000000000000000000000000000 DUP3 AND SWAP1 POP SWAP2 SWAP1 POP JUMP JUMPDEST PUSH1 0x0 PUSH20 0xFFFFFFFFFFFFFFFFFFFFFFFFFFFFFFFFFFFFFFFF DUP3 AND SWAP1 POP SWAP2 SWAP1 POP JUMP JUMPDEST PUSH1 0x0 DUP2 SWAP1 POP SWAP2 SWAP1 POP JUMP JUMPDEST DUP3 DUP2 DUP4 CALLDATACOPY PUSH1 0x0 DUP4 DUP4 ADD MSTORE POP POP POP JUMP JUMPDEST PUSH1 0x0 JUMPDEST DUP4 DUP2 LT ISZERO PUSH2 0x23CB JUMPI DUP1 DUP3 ADD MLOAD DUP2 DUP5 ADD MSTORE PUSH1 0x20 DUP2 ADD SWAP1 POP PUSH2 0x23B0 JUMP JUMPDEST DUP4 DUP2 GT ISZERO PUSH2 0x23DA JUMPI PUSH1 0x0 DUP5 DUP5 ADD MSTORE JUMPDEST POP POP POP POP JUMP JUMPDEST PUSH1 0x0 PUSH2 0x23EB DUP3 PUSH2 0x2394 JUMP JUMPDEST SWAP2 POP PUSH1 0x0 DUP3 EQ ISZERO PUSH2 0x23FF JUMPI PUSH2 0x23FE PUSH2 0x24B6 JUMP JUMPDEST JUMPDEST PUSH1 0x1 DUP3 SUB SWAP1 POP SWAP2 SWAP1 POP JUMP JUMPDEST PUSH1 0x0 PUSH1 0x2 DUP3 DIV SWAP1 POP PUSH1 0x1 DUP3 AND DUP1 PUSH2 0x2422 JUMPI PUSH1 0x7F DUP3 AND SWAP2 POP JUMPDEST PUSH1 0x20 DUP3 LT DUP2 EQ ISZERO PUSH2 0x2436 JUMPI PUSH2 0x2435 PUSH2 0x24E5 JUMP JUMPDEST JUMPDEST POP SWAP2 SWAP1 POP JUMP JUMPDEST PUSH2 0x2445 DUP3 PUSH2 0x258B JUMP JUMPDEST DUP2 ADD DUP2 DUP2 LT PUSH8 0xFFFFFFFFFFFFFFFF DUP3 GT OR ISZERO PUSH2 0x2464 JUMPI PUSH2 0x2463 PUSH2 0x2543 JUMP JUMPDEST JUMPDEST DUP1 PUSH1 0x40 MSTORE POP POP POP JUMP JUMPDEST PUSH1 0x0 PUSH2 0x2478 DUP3 PUSH2 0x2394 JUMP JUMPDEST SWAP2 POP PUSH32 0xFFFFFFFFFFFFFFFFFFFFFFFFFFFFFFFFFFFFFFFFFFFFFFFFFFFFFFFFFFFFFFFF DUP3 EQ ISZERO PUSH2 0x24AB JUMPI PUSH2 0x24AA PUSH2 0x24B6 JUMP JUMPDEST JUMPDEST PUSH1 0x1 DUP3 ADD SWAP1 POP SWAP2 SWAP1 POP JUMP JUMPDEST PUSH32 0x4E487B7100000000000000000000000000000000000000000000000000000000 PUSH1 0x0 MSTORE PUSH1 0x11 PUSH1 0x4 MSTORE PUSH1 0x24 PUSH1 0x0 REVERT JUMPDEST PUSH32 0x4E487B7100000000000000000000000000000000000000000000000000000000 PUSH1 0x0 MSTORE PUSH1 0x22 PUSH1 0x4 MSTORE PUSH1 0x24 PUSH1 0x0 REVERT JUMPDEST PUSH32 0x4E487B7100000000000000000000000000000000000000000000000000000000 PUSH1 0x0 MSTORE PUSH1 0x32 PUSH1 0x4 MSTORE PUSH1 0x24 PUSH1 0x0 REVERT JUMPDEST PUSH32 0x4E487B7100000000000000000000000000000000000000000000000000000000 PUSH1 0x0 MSTORE PUSH1 0x41 PUSH1 0x4 MSTORE PUSH1 0x24 PUSH1 0x0 REVERT JUMPDEST PUSH1 0x0 DUP1 REVERT JUMPDEST PUSH1 0x0 DUP1 REVERT JUMPDEST PUSH1 0x0 DUP1 REVERT JUMPDEST PUSH1 0x0 DUP1 REVERT JUMPDEST PUSH1 0x0 DUP1 REVERT JUMPDEST PUSH1 0x0 PUSH1 0x1F NOT PUSH1 0x1F DUP4 ADD AND SWAP1 POP SWAP2 SWAP1 POP JUMP JUMPDEST PUSH32 0x537472696E67733A20686578206C656E67746820696E73756666696369656E74 PUSH1 0x0 DUP3 ADD MSTORE POP JUMP JUMPDEST PUSH32 0x4F776E61626C653A206E6577206F776E657220697320746865207A65726F2061 PUSH1 0x0 DUP3 ADD MSTORE PUSH32 0x6464726573730000000000000000000000000000000000000000000000000000 PUSH1 0x20 DUP3 ADD MSTORE POP JUMP JUMPDEST PUSH32 0x43616C6C6572206973206E6F7420616E20494E45432065786563757469766500 PUSH1 0x0 DUP3 ADD MSTORE POP JUMP JUMPDEST PUSH32 0x4F776E61626C653A2063616C6C6572206973206E6F7420746865206F776E6572 PUSH1 0x0 DUP3 ADD MSTORE POP JUMP JUMPDEST PUSH32 0x416363657373436F6E74726F6C3A206163636F756E7420000000000000000000 PUSH1 0x0 DUP3 ADD MSTORE POP JUMP JUMPDEST PUSH32 0x206973206D697373696E6720726F6C6520000000000000000000000000000000 PUSH1 0x0 DUP3 ADD MSTORE POP JUMP JUMPDEST PUSH32 0x416363657373436F6E74726F6C3A2063616E206F6E6C792072656E6F756E6365 PUSH1 0x0 DUP3 ADD MSTORE PUSH32 0x20726F6C657320666F722073656C660000000000000000000000000000000000 PUSH1 0x20 DUP3 ADD MSTORE POP JUMP JUMPDEST PUSH2 0x2710 DUP2 PUSH2 0x2320 JUMP JUMPDEST DUP2 EQ PUSH2 0x271B JUMPI PUSH1 0x0 DUP1 REVERT JUMPDEST POP JUMP JUMPDEST PUSH2 0x2727 DUP2 PUSH2 0x233E JUMP JUMPDEST DUP2 EQ PUSH2 0x2732 JUMPI PUSH1 0x0 DUP1 REVERT JUMPDEST POP JUMP JUMPDEST PUSH2 0x273E DUP2 PUSH2 0x2348 JUMP JUMPDEST DUP2 EQ PUSH2 0x2749 JUMPI PUSH1 0x0 DUP1 REVERT JUMPDEST POP JUMP JUMPDEST PUSH2 0x2755 DUP2 PUSH2 0x2394 JUMP JUMPDEST DUP2 EQ PUSH2 0x2760 JUMPI PUSH1 0x0 DUP1 REVERT JUMPDEST POP JUMP INVALID LOG2 PUSH5 0x6970667358 0x22 SLT KECCAK256 0xBF 0xC7 0xE3 PUSH21 0x9CC1DD63E603CA61CF3D5CB2DE46691DA626CC859A 0x22 0xEC PUSH2 0x31A2 0xB4 0x4E PUSH5 0x736F6C6343 STOP ADDMOD SMOD STOP CALLER "
				},
				"gasEstimates": {
					"creation": {
						"codeDepositCost": "2027400",
						"executionCost": "infinite",
						"totalCost": "infinite"
					},
					"external": {
						"Candidates(uint256)": "infinite",
						"DEFAULT_ADMIN_ROLE()": "446",
						"INEC_EXEC_ROLE()": "419",
						"VOTER_ROLE()": "351",
						"Voters(uint256)": "infinite",
						"createCandidate(string,address,uint256)": "infinite",
						"createElection(address[],uint256,uint256)": "infinite",
						"createInecExec(address)": "infinite",
						"getElection(uint256)": "infinite",
						"getRoleAdmin(bytes32)": "infinite",
						"grantRole(bytes32,address)": "infinite",
						"hasRole(bytes32,address)": "3163",
						"owner()": "2633",
						"party(uint256)": "infinite",
						"regVoter(address,uint256)": "80328",
						"renounceOwnership()": "30487",
						"renounceRole(bytes32,address)": "infinite",
						"retrieveCandidate(uint256)": "infinite",
						"revokeRole(bytes32,address)": "infinite",
						"supportsInterface(bytes4)": "751",
						"transferOwnership(address)": "30879"
					}
				},
				"methodIdentifiers": {
					"Candidates(uint256)": "290e9212",
					"DEFAULT_ADMIN_ROLE()": "a217fddf",
					"INEC_EXEC_ROLE()": "2e0d37bb",
					"VOTER_ROLE()": "a94015c8",
					"Voters(uint256)": "9c35d98b",
					"createCandidate(string,address,uint256)": "d59d2a58",
					"createElection(address[],uint256,uint256)": "4f05dba8",
					"createInecExec(address)": "dfd8459e",
					"getElection(uint256)": "9d710777",
					"getRoleAdmin(bytes32)": "248a9ca3",
					"grantRole(bytes32,address)": "2f2ff15d",
					"hasRole(bytes32,address)": "91d14854",
					"owner()": "8da5cb5b",
					"party(uint256)": "314fd68f",
					"regVoter(address,uint256)": "ef49f4aa",
					"renounceOwnership()": "715018a6",
					"renounceRole(bytes32,address)": "36568abe",
					"retrieveCandidate(uint256)": "9e5f0349",
					"revokeRole(bytes32,address)": "d547741f",
					"supportsInterface(bytes4)": "01ffc9a7",
					"transferOwnership(address)": "f2fde38b"
				}
			},
			"storageLayout": {
				"storage": [
					{
						"astId": 400,
						"contract": "contracts/Vote.sol:Vote",
						"label": "_owner",
						"offset": 0,
						"slot": "0",
						"type": "t_address"
					},
					{
						"astId": 24,
						"contract": "contracts/Vote.sol:Vote",
						"label": "_roles",
						"offset": 0,
						"slot": "1",
						"type": "t_mapping(t_bytes32,t_struct(RoleData)19_storage)"
					},
					{
						"astId": 800,
						"contract": "contracts/Vote.sol:Vote",
						"label": "voteFee",
						"offset": 0,
						"slot": "2",
						"type": "t_uint256"
					},
					{
						"astId": 802,
						"contract": "contracts/Vote.sol:Vote",
						"label": "candidateNum",
						"offset": 0,
						"slot": "3",
						"type": "t_uint256"
					},
					{
						"astId": 804,
						"contract": "contracts/Vote.sol:Vote",
						"label": "voterNum",
						"offset": 0,
						"slot": "4",
						"type": "t_uint256"
					},
					{
						"astId": 806,
						"contract": "contracts/Vote.sol:Vote",
						"label": "electionNum",
						"offset": 0,
						"slot": "5",
						"type": "t_uint256"
					},
					{
						"astId": 814,
						"contract": "contracts/Vote.sol:Vote",
						"label": "party",
						"offset": 0,
						"slot": "6",
						"type": "t_array(t_string_storage)dyn_storage"
					},
					{
						"astId": 858,
						"contract": "contracts/Vote.sol:Vote",
						"label": "Candidates",
						"offset": 0,
						"slot": "7",
						"type": "t_mapping(t_uint256,t_struct(candidate)831_storage)"
					},
					{
						"astId": 863,
						"contract": "contracts/Vote.sol:Vote",
						"label": "Voters",
						"offset": 0,
						"slot": "8",
						"type": "t_mapping(t_uint256,t_struct(voter)840_storage)"
					},
					{
						"astId": 868,
						"contract": "contracts/Vote.sol:Vote",
						"label": "Elections",
						"offset": 0,
						"slot": "9",
						"type": "t_mapping(t_uint256,t_struct(election)853_storage)"
					}
				],
				"types": {
					"t_address": {
						"encoding": "inplace",
						"label": "address",
						"numberOfBytes": "20"
					},
					"t_array(t_address)dyn_storage": {
						"base": "t_address",
						"encoding": "dynamic_array",
						"label": "address[]",
						"numberOfBytes": "32"
					},
					"t_array(t_string_storage)dyn_storage": {
						"base": "t_string_storage",
						"encoding": "dynamic_array",
						"label": "string[]",
						"numberOfBytes": "32"
					},
					"t_array(t_uint256)dyn_storage": {
						"base": "t_uint256",
						"encoding": "dynamic_array",
						"label": "uint256[]",
						"numberOfBytes": "32"
					},
					"t_bool": {
						"encoding": "inplace",
						"label": "bool",
						"numberOfBytes": "1"
					},
					"t_bytes32": {
						"encoding": "inplace",
						"label": "bytes32",
						"numberOfBytes": "32"
					},
					"t_mapping(t_address,t_bool)": {
						"encoding": "mapping",
						"key": "t_address",
						"label": "mapping(address => bool)",
						"numberOfBytes": "32",
						"value": "t_bool"
					},
					"t_mapping(t_bytes32,t_struct(RoleData)19_storage)": {
						"encoding": "mapping",
						"key": "t_bytes32",
						"label": "mapping(bytes32 => struct AccessControl.RoleData)",
						"numberOfBytes": "32",
						"value": "t_struct(RoleData)19_storage"
					},
					"t_mapping(t_uint256,t_struct(candidate)831_storage)": {
						"encoding": "mapping",
						"key": "t_uint256",
						"label": "mapping(uint256 => struct Vote.candidate)",
						"numberOfBytes": "32",
						"value": "t_struct(candidate)831_storage"
					},
					"t_mapping(t_uint256,t_struct(election)853_storage)": {
						"encoding": "mapping",
						"key": "t_uint256",
						"label": "mapping(uint256 => struct Vote.election)",
						"numberOfBytes": "32",
						"value": "t_struct(election)853_storage"
					},
					"t_mapping(t_uint256,t_struct(voter)840_storage)": {
						"encoding": "mapping",
						"key": "t_uint256",
						"label": "mapping(uint256 => struct Vote.voter)",
						"numberOfBytes": "32",
						"value": "t_struct(voter)840_storage"
					},
					"t_string_storage": {
						"encoding": "bytes",
						"label": "string",
						"numberOfBytes": "32"
					},
					"t_struct(RoleData)19_storage": {
						"encoding": "inplace",
						"label": "struct AccessControl.RoleData",
						"members": [
							{
								"astId": 16,
								"contract": "contracts/Vote.sol:Vote",
								"label": "members",
								"offset": 0,
								"slot": "0",
								"type": "t_mapping(t_address,t_bool)"
							},
							{
								"astId": 18,
								"contract": "contracts/Vote.sol:Vote",
								"label": "adminRole",
								"offset": 0,
								"slot": "1",
								"type": "t_bytes32"
							}
						],
						"numberOfBytes": "64"
					},
					"t_struct(candidate)831_storage": {
						"encoding": "inplace",
						"label": "struct Vote.candidate",
						"members": [
							{
								"astId": 826,
								"contract": "contracts/Vote.sol:Vote",
								"label": "name",
								"offset": 0,
								"slot": "0",
								"type": "t_string_storage"
							},
							{
								"astId": 828,
								"contract": "contracts/Vote.sol:Vote",
								"label": "addr",
								"offset": 0,
								"slot": "1",
								"type": "t_address"
							},
							{
								"astId": 830,
								"contract": "contracts/Vote.sol:Vote",
								"label": "party",
								"offset": 0,
								"slot": "2",
								"type": "t_string_storage"
							}
						],
						"numberOfBytes": "96"
					},
					"t_struct(election)853_storage": {
						"encoding": "inplace",
						"label": "struct Vote.election",
						"members": [
							{
								"astId": 843,
								"contract": "contracts/Vote.sol:Vote",
								"label": "candidate",
								"offset": 0,
								"slot": "0",
								"type": "t_array(t_address)dyn_storage"
							},
							{
								"astId": 846,
								"contract": "contracts/Vote.sol:Vote",
								"label": "candidateVote",
								"offset": 0,
								"slot": "1",
								"type": "t_array(t_uint256)dyn_storage"
							},
							{
								"astId": 848,
								"contract": "contracts/Vote.sol:Vote",
								"label": "start",
								"offset": 0,
								"slot": "2",
								"type": "t_uint256"
							},
							{
								"astId": 850,
								"contract": "contracts/Vote.sol:Vote",
								"label": "duration",
								"offset": 0,
								"slot": "3",
								"type": "t_uint256"
							},
							{
								"astId": 852,
								"contract": "contracts/Vote.sol:Vote",
								"label": "hasEnded",
								"offset": 0,
								"slot": "4",
								"type": "t_bool"
							}
						],
						"numberOfBytes": "160"
					},
					"t_struct(voter)840_storage": {
						"encoding": "inplace",
						"label": "struct Vote.voter",
						"members": [
							{
								"astId": 833,
								"contract": "contracts/Vote.sol:Vote",
								"label": "addr",
								"offset": 0,
								"slot": "0",
								"type": "t_address"
							},
							{
								"astId": 835,
								"contract": "contracts/Vote.sol:Vote",
								"label": "nin",
								"offset": 0,
								"slot": "1",
								"type": "t_uint256"
							},
							{
								"astId": 837,
								"contract": "contracts/Vote.sol:Vote",
								"label": "partyNum",
								"offset": 0,
								"slot": "2",
								"type": "t_uint256"
							},
							{
								"astId": 839,
								"contract": "contracts/Vote.sol:Vote",
								"label": "hasVoted",
								"offset": 0,
								"slot": "3",
								"type": "t_bool"
							}
						],
						"numberOfBytes": "128"
					},
					"t_uint256": {
						"encoding": "inplace",
						"label": "uint256",
						"numberOfBytes": "32"
					}
				}
			},
			"userdoc": {
				"kind": "user",
				"methods": {},
				"version": 1
			}
		}
	}
}