{
	"contracts/Vote.sol": {
		"Vote": {
			"abi": [
				{
					"anonymous": false,
					"inputs": [
						{
							"indexed": true,
							"internalType": "bytes32",
							"name": "role",
							"type": "bytes32"
						},
						{
							"indexed": true,
							"internalType": "bytes32",
							"name": "previousAdminRole",
							"type": "bytes32"
						},
						{
							"indexed": true,
							"internalType": "bytes32",
							"name": "newAdminRole",
							"type": "bytes32"
						}
					],
					"name": "RoleAdminChanged",
					"type": "event"
				},
				{
					"anonymous": false,
					"inputs": [
						{
							"indexed": true,
							"internalType": "bytes32",
							"name": "role",
							"type": "bytes32"
						},
						{
							"indexed": true,
							"internalType": "address",
							"name": "account",
							"type": "address"
						},
						{
							"indexed": true,
							"internalType": "address",
							"name": "sender",
							"type": "address"
						}
					],
					"name": "RoleGranted",
					"type": "event"
				},
				{
					"anonymous": false,
					"inputs": [
						{
							"indexed": true,
							"internalType": "bytes32",
							"name": "role",
							"type": "bytes32"
						},
						{
							"indexed": true,
							"internalType": "address",
							"name": "account",
							"type": "address"
						},
						{
							"indexed": true,
							"internalType": "address",
							"name": "sender",
							"type": "address"
						}
					],
					"name": "RoleRevoked",
					"type": "event"
				},
				{
					"inputs": [],
					"name": "DEFAULT_ADMIN_ROLE",
					"outputs": [
						{
							"internalType": "bytes32",
							"name": "",
							"type": "bytes32"
						}
					],
					"stateMutability": "view",
					"type": "function"
				},
				{
					"inputs": [],
					"name": "INEC_EXEC_ROLE",
					"outputs": [
						{
							"internalType": "bytes32",
							"name": "",
							"type": "bytes32"
						}
					],
					"stateMutability": "view",
					"type": "function"
				},
				{
					"inputs": [
						{
							"internalType": "string",
							"name": "name",
							"type": "string"
						},
						{
							"internalType": "address",
							"name": "candAddress",
							"type": "address"
						},
						{
							"internalType": "uint256",
							"name": "partyNum",
							"type": "uint256"
						}
					],
					"name": "createCandidate",
					"outputs": [],
					"stateMutability": "nonpayable",
					"type": "function"
				},
				{
					"inputs": [
						{
							"internalType": "bytes32",
							"name": "role",
							"type": "bytes32"
						}
					],
					"name": "getRoleAdmin",
					"outputs": [
						{
							"internalType": "bytes32",
							"name": "",
							"type": "bytes32"
						}
					],
					"stateMutability": "view",
					"type": "function"
				},
				{
					"inputs": [
						{
							"internalType": "bytes32",
							"name": "role",
							"type": "bytes32"
						},
						{
							"internalType": "address",
							"name": "account",
							"type": "address"
						}
					],
					"name": "grantRole",
					"outputs": [],
					"stateMutability": "nonpayable",
					"type": "function"
				},
				{
					"inputs": [
						{
							"internalType": "bytes32",
							"name": "role",
							"type": "bytes32"
						},
						{
							"internalType": "address",
							"name": "account",
							"type": "address"
						}
					],
					"name": "hasRole",
					"outputs": [
						{
							"internalType": "bool",
							"name": "",
							"type": "bool"
						}
					],
					"stateMutability": "view",
					"type": "function"
				},
				{
					"inputs": [
						{
							"internalType": "uint256",
							"name": "",
							"type": "uint256"
						}
					],
					"name": "party",
					"outputs": [
						{
							"internalType": "string",
							"name": "",
							"type": "string"
						}
					],
					"stateMutability": "view",
					"type": "function"
				},
				{
					"inputs": [
						{
							"internalType": "bytes32",
							"name": "role",
							"type": "bytes32"
						},
						{
							"internalType": "address",
							"name": "account",
							"type": "address"
						}
					],
					"name": "renounceRole",
					"outputs": [],
					"stateMutability": "nonpayable",
					"type": "function"
				},
				{
					"inputs": [
						{
							"internalType": "uint256",
							"name": "num",
							"type": "uint256"
						}
					],
					"name": "retrieveCandidate",
					"outputs": [
						{
							"components": [
								{
									"internalType": "string",
									"name": "name",
									"type": "string"
								},
								{
									"internalType": "address",
									"name": "addr",
									"type": "address"
								},
								{
									"internalType": "string",
									"name": "party",
									"type": "string"
								}
							],
							"internalType": "struct Vote.candidate",
							"name": "",
							"type": "tuple"
						}
					],
					"stateMutability": "view",
					"type": "function"
				},
				{
					"inputs": [
						{
							"internalType": "bytes32",
							"name": "role",
							"type": "bytes32"
						},
						{
							"internalType": "address",
							"name": "account",
							"type": "address"
						}
					],
					"name": "revokeRole",
					"outputs": [],
					"stateMutability": "nonpayable",
					"type": "function"
				},
				{
					"inputs": [
						{
							"internalType": "bytes4",
							"name": "interfaceId",
							"type": "bytes4"
						}
					],
					"name": "supportsInterface",
					"outputs": [
						{
							"internalType": "bool",
							"name": "",
							"type": "bool"
						}
					],
					"stateMutability": "view",
					"type": "function"
				}
			],
			"devdoc": {
				"custom:dev-run-script": "./scripts/deploy_with_ethers.ts",
				"details": "Store & retrieve value in a variable",
				"kind": "dev",
				"methods": {
					"createCandidate(string,address,uint256)": {
						"details": "Store value in variable",
						"params": {
							"candAddress": "value for candidate Address",
							"name": "value for candidate name",
							"partyNum": "value for candidate party"
						}
					},
					"getRoleAdmin(bytes32)": {
						"details": "Returns the admin role that controls `role`. See {grantRole} and {revokeRole}. To change a role's admin, use {_setRoleAdmin}."
					},
					"grantRole(bytes32,address)": {
						"details": "Grants `role` to `account`. If `account` had not been already granted `role`, emits a {RoleGranted} event. Requirements: - the caller must have ``role``'s admin role. May emit a {RoleGranted} event."
					},
					"hasRole(bytes32,address)": {
						"details": "Returns `true` if `account` has been granted `role`."
					},
					"renounceRole(bytes32,address)": {
						"details": "Revokes `role` from the calling account. Roles are often managed via {grantRole} and {revokeRole}: this function's purpose is to provide a mechanism for accounts to lose their privileges if they are compromised (such as when a trusted device is misplaced). If the calling account had been revoked `role`, emits a {RoleRevoked} event. Requirements: - the caller must be `account`. May emit a {RoleRevoked} event."
					},
					"retrieveCandidate(uint256)": {
						"details": "Return value ",
						"returns": {
							"_0": "value of 'struct'"
						}
					},
					"revokeRole(bytes32,address)": {
						"details": "Revokes `role` from `account`. If `account` had been granted `role`, emits a {RoleRevoked} event. Requirements: - the caller must have ``role``'s admin role. May emit a {RoleRevoked} event."
					},
					"supportsInterface(bytes4)": {
						"details": "See {IERC165-supportsInterface}."
					}
				},
				"title": "Storage",
				"version": 1
			},
			"evm": {
				"assembly": "    /* \"contracts/Vote.sol\":258:1435  contract Vote is AccessControl {... */\n  mstore(0x40, 0x80)\n    /* \"contracts/Vote.sol\":344:397  string [] public party = [\"APC\", \"PDP\", \"LP\", \"NNPP\"] */\n  mload(0x40)\n  dup1\n  0x80\n  add\n  0x40\n  mstore\n  dup1\n  mload(0x40)\n  dup1\n  0x40\n  add\n  0x40\n  mstore\n  dup1\n  0x03\n  dup2\n  mstore\n  0x20\n  add\n  0x4150430000000000000000000000000000000000000000000000000000000000\n  dup2\n  mstore\n  pop\n  dup2\n  mstore\n  0x20\n  add\n  mload(0x40)\n  dup1\n  0x40\n  add\n  0x40\n  mstore\n  dup1\n  0x03\n  dup2\n  mstore\n  0x20\n  add\n  0x5044500000000000000000000000000000000000000000000000000000000000\n  dup2\n  mstore\n  pop\n  dup2\n  mstore\n  0x20\n  add\n  mload(0x40)\n  dup1\n  0x40\n  add\n  0x40\n  mstore\n  dup1\n  0x02\n  dup2\n  mstore\n  0x20\n  add\n  0x4c50000000000000000000000000000000000000000000000000000000000000\n  dup2\n  mstore\n  pop\n  dup2\n  mstore\n  0x20\n  add\n  mload(0x40)\n  dup1\n  0x40\n  add\n  0x40\n  mstore\n  dup1\n  0x04\n  dup2\n  mstore\n  0x20\n  add\n  0x4e4e505000000000000000000000000000000000000000000000000000000000\n  dup2\n  mstore\n  pop\n  dup2\n  mstore\n  pop\n  0x03\n  swap1\n  0x04\n  tag_1\n  swap3\n  swap2\n  swap1\n  tag_2\n  jump\t// in\ntag_1:\n  pop\n    /* \"contracts/Vote.sol\":258:1435  contract Vote is AccessControl {... */\n  callvalue\n  dup1\n  iszero\n  tag_3\n  jumpi\n  0x00\n  dup1\n  revert\ntag_3:\n  pop\n  jump(tag_4)\ntag_2:\n  dup3\n  dup1\n  sload\n  dup3\n  dup3\n  sstore\n  swap1\n  0x00\n  mstore\n  keccak256(0x00, 0x20)\n  swap1\n  dup2\n  add\n  swap3\n  dup3\n  iszero\n  tag_5\n  jumpi\n  swap2\n  0x20\n  mul\n  dup3\n  add\ntag_6:\n  dup3\n  dup2\n  gt\n  iszero\n  tag_7\n  jumpi\n  dup3\n  mload\n  dup3\n  swap1\n  dup1\n  mload\n  swap1\n  0x20\n  add\n  swap1\n  tag_8\n  swap3\n  swap2\n  swap1\n  tag_9\n  jump\t// in\ntag_8:\n  pop\n  swap2\n  0x20\n  add\n  swap2\n  swap1\n  0x01\n  add\n  swap1\n  jump(tag_6)\ntag_7:\ntag_5:\n  pop\n  swap1\n  pop\n  tag_10\n  swap2\n  swap1\n  tag_11\n  jump\t// in\ntag_10:\n  pop\n  swap1\n  jump\t// out\ntag_9:\n  dup3\n  dup1\n  sload\n  tag_12\n  swap1\n  tag_13\n  jump\t// in\ntag_12:\n  swap1\n  0x00\n  mstore\n  keccak256(0x00, 0x20)\n  swap1\n  0x1f\n  add\n  0x20\n  swap1\n  div\n  dup2\n  add\n  swap3\n  dup3\n  tag_15\n  jumpi\n  0x00\n  dup6\n  sstore\n  jump(tag_14)\ntag_15:\n  dup3\n  0x1f\n  lt\n  tag_16\n  jumpi\n  dup1\n  mload\n  not(0xff)\n  and\n  dup4\n  dup1\n  add\n  or\n  dup6\n  sstore\n  jump(tag_14)\ntag_16:\n  dup3\n  dup1\n  add\n  0x01\n  add\n  dup6\n  sstore\n  dup3\n  iszero\n  tag_14\n  jumpi\n  swap2\n  dup3\n  add\ntag_17:\n  dup3\n  dup2\n  gt\n  iszero\n  tag_18\n  jumpi\n  dup3\n  mload\n  dup3\n  sstore\n  swap2\n  0x20\n  add\n  swap2\n  swap1\n  0x01\n  add\n  swap1\n  jump(tag_17)\ntag_18:\ntag_14:\n  pop\n  swap1\n  pop\n  tag_19\n  swap2\n  swap1\n  tag_20\n  jump\t// in\ntag_19:\n  pop\n  swap1\n  jump\t// out\ntag_11:\ntag_21:\n  dup1\n  dup3\n  gt\n  iszero\n  tag_22\n  jumpi\n  0x00\n  dup2\n  dup2\n  tag_23\n  swap2\n  swap1\n  tag_24\n  jump\t// in\ntag_23:\n  pop\n  0x01\n  add\n  jump(tag_21)\ntag_22:\n  pop\n  swap1\n  jump\t// out\ntag_20:\ntag_25:\n  dup1\n  dup3\n  gt\n  iszero\n  tag_26\n  jumpi\n  0x00\n  dup2\n  0x00\n  swap1\n  sstore\n  pop\n  0x01\n  add\n  jump(tag_25)\ntag_26:\n  pop\n  swap1\n  jump\t// out\ntag_24:\n  pop\n  dup1\n  sload\n  tag_27\n  swap1\n  tag_13\n  jump\t// in\ntag_27:\n  0x00\n  dup3\n  sstore\n  dup1\n  0x1f\n  lt\n  tag_29\n  jumpi\n  pop\n  jump(tag_28)\ntag_29:\n  0x1f\n  add\n  0x20\n  swap1\n  div\n  swap1\n  0x00\n  mstore\n  keccak256(0x00, 0x20)\n  swap1\n  dup2\n  add\n  swap1\n  tag_30\n  swap2\n  swap1\n  tag_20\n  jump\t// in\ntag_30:\ntag_28:\n  pop\n  jump\t// out\n    /* \"#utility.yul\":7:327   */\ntag_13:\n    /* \"#utility.yul\":51:57   */\n  0x00\n    /* \"#utility.yul\":88:89   */\n  0x02\n    /* \"#utility.yul\":82:86   */\n  dup3\n    /* \"#utility.yul\":78:90   */\n  div\n    /* \"#utility.yul\":68:90   */\n  swap1\n  pop\n    /* \"#utility.yul\":135:136   */\n  0x01\n    /* \"#utility.yul\":129:133   */\n  dup3\n    /* \"#utility.yul\":125:137   */\n  and\n    /* \"#utility.yul\":156:174   */\n  dup1\n    /* \"#utility.yul\":146:227   */\n  tag_33\n  jumpi\n    /* \"#utility.yul\":212:216   */\n  0x7f\n    /* \"#utility.yul\":204:210   */\n  dup3\n    /* \"#utility.yul\":200:217   */\n  and\n    /* \"#utility.yul\":190:217   */\n  swap2\n  pop\n    /* \"#utility.yul\":146:227   */\ntag_33:\n    /* \"#utility.yul\":274:276   */\n  0x20\n    /* \"#utility.yul\":266:272   */\n  dup3\n    /* \"#utility.yul\":263:277   */\n  lt\n    /* \"#utility.yul\":243:261   */\n  dup2\n    /* \"#utility.yul\":240:278   */\n  eq\n    /* \"#utility.yul\":237:321   */\n  iszero\n  tag_34\n  jumpi\n    /* \"#utility.yul\":293:311   */\n  tag_35\n  tag_36\n  jump\t// in\ntag_35:\n    /* \"#utility.yul\":237:321   */\ntag_34:\n    /* \"#utility.yul\":58:327   */\n  pop\n    /* \"#utility.yul\":7:327   */\n  swap2\n  swap1\n  pop\n  jump\t// out\n    /* \"#utility.yul\":333:513   */\ntag_36:\n    /* \"#utility.yul\":381:458   */\n  0x4e487b7100000000000000000000000000000000000000000000000000000000\n    /* \"#utility.yul\":378:379   */\n  0x00\n    /* \"#utility.yul\":371:459   */\n  mstore\n    /* \"#utility.yul\":478:482   */\n  0x22\n    /* \"#utility.yul\":475:476   */\n  0x04\n    /* \"#utility.yul\":468:483   */\n  mstore\n    /* \"#utility.yul\":502:506   */\n  0x24\n    /* \"#utility.yul\":499:500   */\n  0x00\n    /* \"#utility.yul\":492:507   */\n  revert\n    /* \"contracts/Vote.sol\":258:1435  contract Vote is AccessControl {... */\ntag_4:\n  dataSize(sub_0)\n  dup1\n  dataOffset(sub_0)\n  0x00\n  codecopy\n  0x00\n  return\nstop\n\nsub_0: assembly {\n        /* \"contracts/Vote.sol\":258:1435  contract Vote is AccessControl {... */\n      mstore(0x40, 0x80)\n      callvalue\n      dup1\n      iszero\n      tag_1\n      jumpi\n      0x00\n      dup1\n      revert\n    tag_1:\n      pop\n      jumpi(tag_2, lt(calldatasize, 0x04))\n      shr(0xe0, calldataload(0x00))\n      dup1\n      0x36568abe\n      gt\n      tag_14\n      jumpi\n      dup1\n      0x36568abe\n      eq\n      tag_8\n      jumpi\n      dup1\n      0x91d14854\n      eq\n      tag_9\n      jumpi\n      dup1\n      0x9e5f0349\n      eq\n      tag_10\n      jumpi\n      dup1\n      0xa217fddf\n      eq\n      tag_11\n      jumpi\n      dup1\n      0xd547741f\n      eq\n      tag_12\n      jumpi\n      dup1\n      0xd59d2a58\n      eq\n      tag_13\n      jumpi\n      jump(tag_2)\n    tag_14:\n      dup1\n      0x01ffc9a7\n      eq\n      tag_3\n      jumpi\n      dup1\n      0x248a9ca3\n      eq\n      tag_4\n      jumpi\n      dup1\n      0x2e0d37bb\n      eq\n      tag_5\n      jumpi\n      dup1\n      0x2f2ff15d\n      eq\n      tag_6\n      jumpi\n      dup1\n      0x314fd68f\n      eq\n      tag_7\n      jumpi\n    tag_2:\n      0x00\n      dup1\n      revert\n        /* \"@openzeppelin/contracts/access/AccessControl.sol\":2606:2808  function supportsInterface(bytes4 interfaceId) public view virtual override returns (bool) {... */\n    tag_3:\n      tag_15\n      0x04\n      dup1\n      calldatasize\n      sub\n      dup2\n      add\n      swap1\n      tag_16\n      swap2\n      swap1\n      tag_17\n      jump\t// in\n    tag_16:\n      tag_18\n      jump\t// in\n    tag_15:\n      mload(0x40)\n      tag_19\n      swap2\n      swap1\n      tag_20\n      jump\t// in\n    tag_19:\n      mload(0x40)\n      dup1\n      swap2\n      sub\n      swap1\n      return\n        /* \"@openzeppelin/contracts/access/AccessControl.sol\":4391:4520  function getRoleAdmin(bytes32 role) public view virtual override returns (bytes32) {... */\n    tag_4:\n      tag_21\n      0x04\n      dup1\n      calldatasize\n      sub\n      dup2\n      add\n      swap1\n      tag_22\n      swap2\n      swap1\n      tag_23\n      jump\t// in\n    tag_22:\n      tag_24\n      jump\t// in\n    tag_21:\n      mload(0x40)\n      tag_25\n      swap2\n      swap1\n      tag_26\n      jump\t// in\n    tag_25:\n      mload(0x40)\n      dup1\n      swap2\n      sub\n      swap1\n      return\n        /* \"contracts/Vote.sol\":404:467  bytes32 public constant INEC_EXEC_ROLE = keccak256(\"INEC_EXEC\") */\n    tag_5:\n      tag_27\n      tag_28\n      jump\t// in\n    tag_27:\n      mload(0x40)\n      tag_29\n      swap2\n      swap1\n      tag_26\n      jump\t// in\n    tag_29:\n      mload(0x40)\n      dup1\n      swap2\n      sub\n      swap1\n      return\n        /* \"@openzeppelin/contracts/access/AccessControl.sol\":4816:4961  function grantRole(bytes32 role, address account) public virtual override onlyRole(getRoleAdmin(role)) {... */\n    tag_6:\n      tag_30\n      0x04\n      dup1\n      calldatasize\n      sub\n      dup2\n      add\n      swap1\n      tag_31\n      swap2\n      swap1\n      tag_32\n      jump\t// in\n    tag_31:\n      tag_33\n      jump\t// in\n    tag_30:\n      stop\n        /* \"contracts/Vote.sol\":344:397  string [] public party = [\"APC\", \"PDP\", \"LP\", \"NNPP\"] */\n    tag_7:\n      tag_34\n      0x04\n      dup1\n      calldatasize\n      sub\n      dup2\n      add\n      swap1\n      tag_35\n      swap2\n      swap1\n      tag_36\n      jump\t// in\n    tag_35:\n      tag_37\n      jump\t// in\n    tag_34:\n      mload(0x40)\n      tag_38\n      swap2\n      swap1\n      tag_39\n      jump\t// in\n    tag_38:\n      mload(0x40)\n      dup1\n      swap2\n      sub\n      swap1\n      return\n        /* \"@openzeppelin/contracts/access/AccessControl.sol\":5925:6139  function renounceRole(bytes32 role, address account) public virtual override {... */\n    tag_8:\n      tag_40\n      0x04\n      dup1\n      calldatasize\n      sub\n      dup2\n      add\n      swap1\n      tag_41\n      swap2\n      swap1\n      tag_32\n      jump\t// in\n    tag_41:\n      tag_42\n      jump\t// in\n    tag_40:\n      stop\n        /* \"@openzeppelin/contracts/access/AccessControl.sol\":2895:3040  function hasRole(bytes32 role, address account) public view virtual override returns (bool) {... */\n    tag_9:\n      tag_43\n      0x04\n      dup1\n      calldatasize\n      sub\n      dup2\n      add\n      swap1\n      tag_44\n      swap2\n      swap1\n      tag_32\n      jump\t// in\n    tag_44:\n      tag_45\n      jump\t// in\n    tag_43:\n      mload(0x40)\n      tag_46\n      swap2\n      swap1\n      tag_20\n      jump\t// in\n    tag_46:\n      mload(0x40)\n      dup1\n      swap2\n      sub\n      swap1\n      return\n        /* \"contracts/Vote.sol\":1316:1433  function retrieveCandidate(uint256 num) public view returns (candidate memory){... */\n    tag_10:\n      tag_47\n      0x04\n      dup1\n      calldatasize\n      sub\n      dup2\n      add\n      swap1\n      tag_48\n      swap2\n      swap1\n      tag_36\n      jump\t// in\n    tag_48:\n      tag_49\n      jump\t// in\n    tag_47:\n      mload(0x40)\n      tag_50\n      swap2\n      swap1\n      tag_51\n      jump\t// in\n    tag_50:\n      mload(0x40)\n      dup1\n      swap2\n      sub\n      swap1\n      return\n        /* \"@openzeppelin/contracts/access/AccessControl.sol\":2027:2076  bytes32 public constant DEFAULT_ADMIN_ROLE = 0x00 */\n    tag_11:\n      tag_52\n      tag_53\n      jump\t// in\n    tag_52:\n      mload(0x40)\n      tag_54\n      swap2\n      swap1\n      tag_26\n      jump\t// in\n    tag_54:\n      mload(0x40)\n      dup1\n      swap2\n      sub\n      swap1\n      return\n        /* \"@openzeppelin/contracts/access/AccessControl.sol\":5241:5388  function revokeRole(bytes32 role, address account) public virtual override onlyRole(getRoleAdmin(role)) {... */\n    tag_12:\n      tag_55\n      0x04\n      dup1\n      calldatasize\n      sub\n      dup2\n      add\n      swap1\n      tag_56\n      swap2\n      swap1\n      tag_32\n      jump\t// in\n    tag_56:\n      tag_57\n      jump\t// in\n    tag_55:\n      stop\n        /* \"contracts/Vote.sol\":947:1235  function createCandidate(string memory name, address candAddress, uint256 partyNum) public {... */\n    tag_13:\n      tag_58\n      0x04\n      dup1\n      calldatasize\n      sub\n      dup2\n      add\n      swap1\n      tag_59\n      swap2\n      swap1\n      tag_60\n      jump\t// in\n    tag_59:\n      tag_61\n      jump\t// in\n    tag_58:\n      stop\n        /* \"@openzeppelin/contracts/access/AccessControl.sol\":2606:2808  function supportsInterface(bytes4 interfaceId) public view virtual override returns (bool) {... */\n    tag_18:\n        /* \"@openzeppelin/contracts/access/AccessControl.sol\":2691:2695  bool */\n      0x00\n        /* \"@openzeppelin/contracts/access/AccessControl.sol\":2729:2761  type(IAccessControl).interfaceId */\n      0x7965db0b00000000000000000000000000000000000000000000000000000000\n        /* \"@openzeppelin/contracts/access/AccessControl.sol\":2714:2761  interfaceId == type(IAccessControl).interfaceId */\n      not(0xffffffffffffffffffffffffffffffffffffffffffffffffffffffff)\n      and\n        /* \"@openzeppelin/contracts/access/AccessControl.sol\":2714:2725  interfaceId */\n      dup3\n        /* \"@openzeppelin/contracts/access/AccessControl.sol\":2714:2761  interfaceId == type(IAccessControl).interfaceId */\n      not(0xffffffffffffffffffffffffffffffffffffffffffffffffffffffff)\n      and\n      eq\n        /* \"@openzeppelin/contracts/access/AccessControl.sol\":2714:2801  interfaceId == type(IAccessControl).interfaceId || super.supportsInterface(interfaceId) */\n      dup1\n      tag_63\n      jumpi\n      pop\n        /* \"@openzeppelin/contracts/access/AccessControl.sol\":2765:2801  super.supportsInterface(interfaceId) */\n      tag_64\n        /* \"@openzeppelin/contracts/access/AccessControl.sol\":2789:2800  interfaceId */\n      dup3\n        /* \"@openzeppelin/contracts/access/AccessControl.sol\":2765:2788  super.supportsInterface */\n      tag_65\n        /* \"@openzeppelin/contracts/access/AccessControl.sol\":2765:2801  super.supportsInterface(interfaceId) */\n      jump\t// in\n    tag_64:\n        /* \"@openzeppelin/contracts/access/AccessControl.sol\":2714:2801  interfaceId == type(IAccessControl).interfaceId || super.supportsInterface(interfaceId) */\n    tag_63:\n        /* \"@openzeppelin/contracts/access/AccessControl.sol\":2707:2801  return interfaceId == type(IAccessControl).interfaceId || super.supportsInterface(interfaceId) */\n      swap1\n      pop\n        /* \"@openzeppelin/contracts/access/AccessControl.sol\":2606:2808  function supportsInterface(bytes4 interfaceId) public view virtual override returns (bool) {... */\n      swap2\n      swap1\n      pop\n      jump\t// out\n        /* \"@openzeppelin/contracts/access/AccessControl.sol\":4391:4520  function getRoleAdmin(bytes32 role) public view virtual override returns (bytes32) {... */\n    tag_24:\n        /* \"@openzeppelin/contracts/access/AccessControl.sol\":4465:4472  bytes32 */\n      0x00\n        /* \"@openzeppelin/contracts/access/AccessControl.sol\":4491:4497  _roles */\n      dup1\n        /* \"@openzeppelin/contracts/access/AccessControl.sol\":4491:4503  _roles[role] */\n      0x00\n        /* \"@openzeppelin/contracts/access/AccessControl.sol\":4498:4502  role */\n      dup4\n        /* \"@openzeppelin/contracts/access/AccessControl.sol\":4491:4503  _roles[role] */\n      dup2\n      mstore\n      0x20\n      add\n      swap1\n      dup2\n      mstore\n      0x20\n      add\n      0x00\n      keccak256\n        /* \"@openzeppelin/contracts/access/AccessControl.sol\":4491:4513  _roles[role].adminRole */\n      0x01\n      add\n      sload\n        /* \"@openzeppelin/contracts/access/AccessControl.sol\":4484:4513  return _roles[role].adminRole */\n      swap1\n      pop\n        /* \"@openzeppelin/contracts/access/AccessControl.sol\":4391:4520  function getRoleAdmin(bytes32 role) public view virtual override returns (bytes32) {... */\n      swap2\n      swap1\n      pop\n      jump\t// out\n        /* \"contracts/Vote.sol\":404:467  bytes32 public constant INEC_EXEC_ROLE = keccak256(\"INEC_EXEC\") */\n    tag_28:\n        /* \"contracts/Vote.sol\":445:467  keccak256(\"INEC_EXEC\") */\n      0x082f6ed76e0352438e6a6e35c77719c3f04bf277fdc8fec7e5ff5f65e001d902\n        /* \"contracts/Vote.sol\":404:467  bytes32 public constant INEC_EXEC_ROLE = keccak256(\"INEC_EXEC\") */\n      dup2\n      jump\t// out\n        /* \"@openzeppelin/contracts/access/AccessControl.sol\":4816:4961  function grantRole(bytes32 role, address account) public virtual override onlyRole(getRoleAdmin(role)) {... */\n    tag_33:\n        /* \"@openzeppelin/contracts/access/AccessControl.sol\":4899:4917  getRoleAdmin(role) */\n      tag_67\n        /* \"@openzeppelin/contracts/access/AccessControl.sol\":4912:4916  role */\n      dup3\n        /* \"@openzeppelin/contracts/access/AccessControl.sol\":4899:4911  getRoleAdmin */\n      tag_24\n        /* \"@openzeppelin/contracts/access/AccessControl.sol\":4899:4917  getRoleAdmin(role) */\n      jump\t// in\n    tag_67:\n        /* \"@openzeppelin/contracts/access/AccessControl.sol\":2505:2521  _checkRole(role) */\n      tag_69\n        /* \"@openzeppelin/contracts/access/AccessControl.sol\":2516:2520  role */\n      dup2\n        /* \"@openzeppelin/contracts/access/AccessControl.sol\":2505:2515  _checkRole */\n      tag_70\n        /* \"@openzeppelin/contracts/access/AccessControl.sol\":2505:2521  _checkRole(role) */\n      jump\t// in\n    tag_69:\n        /* \"@openzeppelin/contracts/access/AccessControl.sol\":4929:4954  _grantRole(role, account) */\n      tag_72\n        /* \"@openzeppelin/contracts/access/AccessControl.sol\":4940:4944  role */\n      dup4\n        /* \"@openzeppelin/contracts/access/AccessControl.sol\":4946:4953  account */\n      dup4\n        /* \"@openzeppelin/contracts/access/AccessControl.sol\":4929:4939  _grantRole */\n      tag_73\n        /* \"@openzeppelin/contracts/access/AccessControl.sol\":4929:4954  _grantRole(role, account) */\n      jump\t// in\n    tag_72:\n        /* \"@openzeppelin/contracts/access/AccessControl.sol\":4816:4961  function grantRole(bytes32 role, address account) public virtual override onlyRole(getRoleAdmin(role)) {... */\n      pop\n      pop\n      pop\n      jump\t// out\n        /* \"contracts/Vote.sol\":344:397  string [] public party = [\"APC\", \"PDP\", \"LP\", \"NNPP\"] */\n    tag_37:\n      0x03\n      dup2\n      dup2\n      sload\n      dup2\n      lt\n      tag_74\n      jumpi\n      0x00\n      dup1\n      revert\n    tag_74:\n      swap1\n      0x00\n      mstore\n      keccak256(0x00, 0x20)\n      add\n      0x00\n      swap2\n      pop\n      swap1\n      pop\n      dup1\n      sload\n      tag_76\n      swap1\n      tag_77\n      jump\t// in\n    tag_76:\n      dup1\n      0x1f\n      add\n      0x20\n      dup1\n      swap2\n      div\n      mul\n      0x20\n      add\n      mload(0x40)\n      swap1\n      dup2\n      add\n      0x40\n      mstore\n      dup1\n      swap3\n      swap2\n      swap1\n      dup2\n      dup2\n      mstore\n      0x20\n      add\n      dup3\n      dup1\n      sload\n      tag_78\n      swap1\n      tag_77\n      jump\t// in\n    tag_78:\n      dup1\n      iszero\n      tag_79\n      jumpi\n      dup1\n      0x1f\n      lt\n      tag_80\n      jumpi\n      0x0100\n      dup1\n      dup4\n      sload\n      div\n      mul\n      dup4\n      mstore\n      swap2\n      0x20\n      add\n      swap2\n      jump(tag_79)\n    tag_80:\n      dup3\n      add\n      swap2\n      swap1\n      0x00\n      mstore\n      keccak256(0x00, 0x20)\n      swap1\n    tag_81:\n      dup2\n      sload\n      dup2\n      mstore\n      swap1\n      0x01\n      add\n      swap1\n      0x20\n      add\n      dup1\n      dup4\n      gt\n      tag_81\n      jumpi\n      dup3\n      swap1\n      sub\n      0x1f\n      and\n      dup3\n      add\n      swap2\n    tag_79:\n      pop\n      pop\n      pop\n      pop\n      pop\n      dup2\n      jump\t// out\n        /* \"@openzeppelin/contracts/access/AccessControl.sol\":5925:6139  function renounceRole(bytes32 role, address account) public virtual override {... */\n    tag_42:\n        /* \"@openzeppelin/contracts/access/AccessControl.sol\":6031:6043  _msgSender() */\n      tag_83\n        /* \"@openzeppelin/contracts/access/AccessControl.sol\":6031:6041  _msgSender */\n      tag_84\n        /* \"@openzeppelin/contracts/access/AccessControl.sol\":6031:6043  _msgSender() */\n      jump\t// in\n    tag_83:\n        /* \"@openzeppelin/contracts/access/AccessControl.sol\":6020:6043  account == _msgSender() */\n      0xffffffffffffffffffffffffffffffffffffffff\n      and\n        /* \"@openzeppelin/contracts/access/AccessControl.sol\":6020:6027  account */\n      dup2\n        /* \"@openzeppelin/contracts/access/AccessControl.sol\":6020:6043  account == _msgSender() */\n      0xffffffffffffffffffffffffffffffffffffffff\n      and\n      eq\n        /* \"@openzeppelin/contracts/access/AccessControl.sol\":6012:6095  require(account == _msgSender(), \"AccessControl: can only renounce roles for self\") */\n      tag_85\n      jumpi\n      mload(0x40)\n      0x08c379a000000000000000000000000000000000000000000000000000000000\n      dup2\n      mstore\n      0x04\n      add\n      tag_86\n      swap1\n      tag_87\n      jump\t// in\n    tag_86:\n      mload(0x40)\n      dup1\n      swap2\n      sub\n      swap1\n      revert\n    tag_85:\n        /* \"@openzeppelin/contracts/access/AccessControl.sol\":6106:6132  _revokeRole(role, account) */\n      tag_88\n        /* \"@openzeppelin/contracts/access/AccessControl.sol\":6118:6122  role */\n      dup3\n        /* \"@openzeppelin/contracts/access/AccessControl.sol\":6124:6131  account */\n      dup3\n        /* \"@openzeppelin/contracts/access/AccessControl.sol\":6106:6117  _revokeRole */\n      tag_89\n        /* \"@openzeppelin/contracts/access/AccessControl.sol\":6106:6132  _revokeRole(role, account) */\n      jump\t// in\n    tag_88:\n        /* \"@openzeppelin/contracts/access/AccessControl.sol\":5925:6139  function renounceRole(bytes32 role, address account) public virtual override {... */\n      pop\n      pop\n      jump\t// out\n        /* \"@openzeppelin/contracts/access/AccessControl.sol\":2895:3040  function hasRole(bytes32 role, address account) public view virtual override returns (bool) {... */\n    tag_45:\n        /* \"@openzeppelin/contracts/access/AccessControl.sol\":2981:2985  bool */\n      0x00\n        /* \"@openzeppelin/contracts/access/AccessControl.sol\":3004:3010  _roles */\n      dup1\n        /* \"@openzeppelin/contracts/access/AccessControl.sol\":3004:3016  _roles[role] */\n      0x00\n        /* \"@openzeppelin/contracts/access/AccessControl.sol\":3011:3015  role */\n      dup5\n        /* \"@openzeppelin/contracts/access/AccessControl.sol\":3004:3016  _roles[role] */\n      dup2\n      mstore\n      0x20\n      add\n      swap1\n      dup2\n      mstore\n      0x20\n      add\n      0x00\n      keccak256\n        /* \"@openzeppelin/contracts/access/AccessControl.sol\":3004:3024  _roles[role].members */\n      0x00\n      add\n        /* \"@openzeppelin/contracts/access/AccessControl.sol\":3004:3033  _roles[role].members[account] */\n      0x00\n        /* \"@openzeppelin/contracts/access/AccessControl.sol\":3025:3032  account */\n      dup4\n        /* \"@openzeppelin/contracts/access/AccessControl.sol\":3004:3033  _roles[role].members[account] */\n      0xffffffffffffffffffffffffffffffffffffffff\n      and\n      0xffffffffffffffffffffffffffffffffffffffff\n      and\n      dup2\n      mstore\n      0x20\n      add\n      swap1\n      dup2\n      mstore\n      0x20\n      add\n      0x00\n      keccak256\n      0x00\n      swap1\n      sload\n      swap1\n      0x0100\n      exp\n      swap1\n      div\n      0xff\n      and\n        /* \"@openzeppelin/contracts/access/AccessControl.sol\":2997:3033  return _roles[role].members[account] */\n      swap1\n      pop\n        /* \"@openzeppelin/contracts/access/AccessControl.sol\":2895:3040  function hasRole(bytes32 role, address account) public view virtual override returns (bool) {... */\n      swap3\n      swap2\n      pop\n      pop\n      jump\t// out\n        /* \"contracts/Vote.sol\":1316:1433  function retrieveCandidate(uint256 num) public view returns (candidate memory){... */\n    tag_49:\n        /* \"contracts/Vote.sol\":1377:1393  candidate memory */\n      tag_91\n      tag_92\n      jump\t// in\n    tag_91:\n        /* \"contracts/Vote.sol\":1411:1421  Candidates */\n      0x04\n        /* \"contracts/Vote.sol\":1411:1426  Candidates[num] */\n      0x00\n        /* \"contracts/Vote.sol\":1422:1425  num */\n      dup4\n        /* \"contracts/Vote.sol\":1411:1426  Candidates[num] */\n      dup2\n      mstore\n      0x20\n      add\n      swap1\n      dup2\n      mstore\n      0x20\n      add\n      0x00\n      keccak256\n        /* \"contracts/Vote.sol\":1404:1426  return Candidates[num] */\n      mload(0x40)\n      dup1\n      0x60\n      add\n      0x40\n      mstore\n      swap1\n      dup2\n      0x00\n      dup3\n      add\n      dup1\n      sload\n      tag_94\n      swap1\n      tag_77\n      jump\t// in\n    tag_94:\n      dup1\n      0x1f\n      add\n      0x20\n      dup1\n      swap2\n      div\n      mul\n      0x20\n      add\n      mload(0x40)\n      swap1\n      dup2\n      add\n      0x40\n      mstore\n      dup1\n      swap3\n      swap2\n      swap1\n      dup2\n      dup2\n      mstore\n      0x20\n      add\n      dup3\n      dup1\n      sload\n      tag_95\n      swap1\n      tag_77\n      jump\t// in\n    tag_95:\n      dup1\n      iszero\n      tag_96\n      jumpi\n      dup1\n      0x1f\n      lt\n      tag_97\n      jumpi\n      0x0100\n      dup1\n      dup4\n      sload\n      div\n      mul\n      dup4\n      mstore\n      swap2\n      0x20\n      add\n      swap2\n      jump(tag_96)\n    tag_97:\n      dup3\n      add\n      swap2\n      swap1\n      0x00\n      mstore\n      keccak256(0x00, 0x20)\n      swap1\n    tag_98:\n      dup2\n      sload\n      dup2\n      mstore\n      swap1\n      0x01\n      add\n      swap1\n      0x20\n      add\n      dup1\n      dup4\n      gt\n      tag_98\n      jumpi\n      dup3\n      swap1\n      sub\n      0x1f\n      and\n      dup3\n      add\n      swap2\n    tag_96:\n      pop\n      pop\n      pop\n      pop\n      pop\n      dup2\n      mstore\n      0x20\n      add\n      0x01\n      dup3\n      add\n      0x00\n      swap1\n      sload\n      swap1\n      0x0100\n      exp\n      swap1\n      div\n      0xffffffffffffffffffffffffffffffffffffffff\n      and\n      0xffffffffffffffffffffffffffffffffffffffff\n      and\n      0xffffffffffffffffffffffffffffffffffffffff\n      and\n      dup2\n      mstore\n      0x20\n      add\n      0x02\n      dup3\n      add\n      dup1\n      sload\n      tag_99\n      swap1\n      tag_77\n      jump\t// in\n    tag_99:\n      dup1\n      0x1f\n      add\n      0x20\n      dup1\n      swap2\n      div\n      mul\n      0x20\n      add\n      mload(0x40)\n      swap1\n      dup2\n      add\n      0x40\n      mstore\n      dup1\n      swap3\n      swap2\n      swap1\n      dup2\n      dup2\n      mstore\n      0x20\n      add\n      dup3\n      dup1\n      sload\n      tag_100\n      swap1\n      tag_77\n      jump\t// in\n    tag_100:\n      dup1\n      iszero\n      tag_101\n      jumpi\n      dup1\n      0x1f\n      lt\n      tag_102\n      jumpi\n      0x0100\n      dup1\n      dup4\n      sload\n      div\n      mul\n      dup4\n      mstore\n      swap2\n      0x20\n      add\n      swap2\n      jump(tag_101)\n    tag_102:\n      dup3\n      add\n      swap2\n      swap1\n      0x00\n      mstore\n      keccak256(0x00, 0x20)\n      swap1\n    tag_103:\n      dup2\n      sload\n      dup2\n      mstore\n      swap1\n      0x01\n      add\n      swap1\n      0x20\n      add\n      dup1\n      dup4\n      gt\n      tag_103\n      jumpi\n      dup3\n      swap1\n      sub\n      0x1f\n      and\n      dup3\n      add\n      swap2\n    tag_101:\n      pop\n      pop\n      pop\n      pop\n      pop\n      dup2\n      mstore\n      pop\n      pop\n      swap1\n      pop\n        /* \"contracts/Vote.sol\":1316:1433  function retrieveCandidate(uint256 num) public view returns (candidate memory){... */\n      swap2\n      swap1\n      pop\n      jump\t// out\n        /* \"@openzeppelin/contracts/access/AccessControl.sol\":2027:2076  bytes32 public constant DEFAULT_ADMIN_ROLE = 0x00 */\n    tag_53:\n        /* \"@openzeppelin/contracts/access/AccessControl.sol\":2072:2076  0x00 */\n      0x00\n        /* \"@openzeppelin/contracts/access/AccessControl.sol\":2027:2076  bytes32 public constant DEFAULT_ADMIN_ROLE = 0x00 */\n      dup1\n      shl\n      dup2\n      jump\t// out\n        /* \"@openzeppelin/contracts/access/AccessControl.sol\":5241:5388  function revokeRole(bytes32 role, address account) public virtual override onlyRole(getRoleAdmin(role)) {... */\n    tag_57:\n        /* \"@openzeppelin/contracts/access/AccessControl.sol\":5325:5343  getRoleAdmin(role) */\n      tag_104\n        /* \"@openzeppelin/contracts/access/AccessControl.sol\":5338:5342  role */\n      dup3\n        /* \"@openzeppelin/contracts/access/AccessControl.sol\":5325:5337  getRoleAdmin */\n      tag_24\n        /* \"@openzeppelin/contracts/access/AccessControl.sol\":5325:5343  getRoleAdmin(role) */\n      jump\t// in\n    tag_104:\n        /* \"@openzeppelin/contracts/access/AccessControl.sol\":2505:2521  _checkRole(role) */\n      tag_106\n        /* \"@openzeppelin/contracts/access/AccessControl.sol\":2516:2520  role */\n      dup2\n        /* \"@openzeppelin/contracts/access/AccessControl.sol\":2505:2515  _checkRole */\n      tag_70\n        /* \"@openzeppelin/contracts/access/AccessControl.sol\":2505:2521  _checkRole(role) */\n      jump\t// in\n    tag_106:\n        /* \"@openzeppelin/contracts/access/AccessControl.sol\":5355:5381  _revokeRole(role, account) */\n      tag_108\n        /* \"@openzeppelin/contracts/access/AccessControl.sol\":5367:5371  role */\n      dup4\n        /* \"@openzeppelin/contracts/access/AccessControl.sol\":5373:5380  account */\n      dup4\n        /* \"@openzeppelin/contracts/access/AccessControl.sol\":5355:5366  _revokeRole */\n      tag_89\n        /* \"@openzeppelin/contracts/access/AccessControl.sol\":5355:5381  _revokeRole(role, account) */\n      jump\t// in\n    tag_108:\n        /* \"@openzeppelin/contracts/access/AccessControl.sol\":5241:5388  function revokeRole(bytes32 role, address account) public virtual override onlyRole(getRoleAdmin(role)) {... */\n      pop\n      pop\n      pop\n      jump\t// out\n        /* \"contracts/Vote.sol\":947:1235  function createCandidate(string memory name, address candAddress, uint256 partyNum) public {... */\n    tag_61:\n        /* \"contracts/Vote.sol\":1080:1084  name */\n      dup3\n        /* \"contracts/Vote.sol\":1048:1058  Candidates */\n      0x04\n        /* \"contracts/Vote.sol\":1048:1072  Candidates[candidateNum] */\n      0x00\n        /* \"contracts/Vote.sol\":1059:1071  candidateNum */\n      sload(0x02)\n        /* \"contracts/Vote.sol\":1048:1072  Candidates[candidateNum] */\n      dup2\n      mstore\n      0x20\n      add\n      swap1\n      dup2\n      mstore\n      0x20\n      add\n      0x00\n      keccak256\n        /* \"contracts/Vote.sol\":1048:1077  Candidates[candidateNum].name */\n      0x00\n      add\n        /* \"contracts/Vote.sol\":1048:1084  Candidates[candidateNum].name = name */\n      swap1\n      dup1\n      mload\n      swap1\n      0x20\n      add\n      swap1\n      tag_110\n      swap3\n      swap2\n      swap1\n      tag_111\n      jump\t// in\n    tag_110:\n      pop\n        /* \"contracts/Vote.sol\":1126:1137  candAddress */\n      dup2\n        /* \"contracts/Vote.sol\":1094:1104  Candidates */\n      0x04\n        /* \"contracts/Vote.sol\":1094:1118  Candidates[candidateNum] */\n      0x00\n        /* \"contracts/Vote.sol\":1105:1117  candidateNum */\n      sload(0x02)\n        /* \"contracts/Vote.sol\":1094:1118  Candidates[candidateNum] */\n      dup2\n      mstore\n      0x20\n      add\n      swap1\n      dup2\n      mstore\n      0x20\n      add\n      0x00\n      keccak256\n        /* \"contracts/Vote.sol\":1094:1123  Candidates[candidateNum].addr */\n      0x01\n      add\n      0x00\n        /* \"contracts/Vote.sol\":1094:1137  Candidates[candidateNum].addr = candAddress */\n      0x0100\n      exp\n      dup2\n      sload\n      dup2\n      0xffffffffffffffffffffffffffffffffffffffff\n      mul\n      not\n      and\n      swap1\n      dup4\n      0xffffffffffffffffffffffffffffffffffffffff\n      and\n      mul\n      or\n      swap1\n      sstore\n      pop\n        /* \"contracts/Vote.sol\":1180:1185  party */\n      0x03\n        /* \"contracts/Vote.sol\":1186:1194  partyNum */\n      dup2\n        /* \"contracts/Vote.sol\":1180:1195  party[partyNum] */\n      dup2\n      sload\n      dup2\n      lt\n      tag_112\n      jumpi\n      tag_113\n      tag_114\n      jump\t// in\n    tag_113:\n    tag_112:\n      swap1\n      0x00\n      mstore\n      keccak256(0x00, 0x20)\n      add\n        /* \"contracts/Vote.sol\":1147:1157  Candidates */\n      0x04\n        /* \"contracts/Vote.sol\":1147:1171  Candidates[candidateNum] */\n      0x00\n        /* \"contracts/Vote.sol\":1158:1170  candidateNum */\n      sload(0x02)\n        /* \"contracts/Vote.sol\":1147:1171  Candidates[candidateNum] */\n      dup2\n      mstore\n      0x20\n      add\n      swap1\n      dup2\n      mstore\n      0x20\n      add\n      0x00\n      keccak256\n        /* \"contracts/Vote.sol\":1147:1177  Candidates[candidateNum].party */\n      0x02\n      add\n        /* \"contracts/Vote.sol\":1147:1195  Candidates[candidateNum].party = party[partyNum] */\n      swap1\n      dup1\n      sload\n      tag_116\n      swap1\n      tag_77\n      jump\t// in\n    tag_116:\n      tag_117\n      swap3\n      swap2\n      swap1\n      tag_118\n      jump\t// in\n    tag_117:\n      pop\n        /* \"contracts/Vote.sol\":1207:1219  candidateNum */\n      0x02\n      0x00\n        /* \"contracts/Vote.sol\":1207:1222  candidateNum ++ */\n      dup2\n      sload\n      dup1\n      swap3\n      swap2\n      swap1\n      tag_119\n      swap1\n      tag_120\n      jump\t// in\n    tag_119:\n      swap2\n      swap1\n      pop\n      sstore\n      pop\n        /* \"contracts/Vote.sol\":947:1235  function createCandidate(string memory name, address candAddress, uint256 partyNum) public {... */\n      pop\n      pop\n      pop\n      jump\t// out\n        /* \"@openzeppelin/contracts/utils/introspection/ERC165.sol\":829:984  function supportsInterface(bytes4 interfaceId) public view virtual override returns (bool) {... */\n    tag_65:\n        /* \"@openzeppelin/contracts/utils/introspection/ERC165.sol\":914:918  bool */\n      0x00\n        /* \"@openzeppelin/contracts/utils/introspection/ERC165.sol\":952:977  type(IERC165).interfaceId */\n      0x01ffc9a700000000000000000000000000000000000000000000000000000000\n        /* \"@openzeppelin/contracts/utils/introspection/ERC165.sol\":937:977  interfaceId == type(IERC165).interfaceId */\n      not(0xffffffffffffffffffffffffffffffffffffffffffffffffffffffff)\n      and\n        /* \"@openzeppelin/contracts/utils/introspection/ERC165.sol\":937:948  interfaceId */\n      dup3\n        /* \"@openzeppelin/contracts/utils/introspection/ERC165.sol\":937:977  interfaceId == type(IERC165).interfaceId */\n      not(0xffffffffffffffffffffffffffffffffffffffffffffffffffffffff)\n      and\n      eq\n        /* \"@openzeppelin/contracts/utils/introspection/ERC165.sol\":930:977  return interfaceId == type(IERC165).interfaceId */\n      swap1\n      pop\n        /* \"@openzeppelin/contracts/utils/introspection/ERC165.sol\":829:984  function supportsInterface(bytes4 interfaceId) public view virtual override returns (bool) {... */\n      swap2\n      swap1\n      pop\n      jump\t// out\n        /* \"@openzeppelin/contracts/access/AccessControl.sol\":3334:3437  function _checkRole(bytes32 role) internal view virtual {... */\n    tag_70:\n        /* \"@openzeppelin/contracts/access/AccessControl.sol\":3400:3430  _checkRole(role, _msgSender()) */\n      tag_123\n        /* \"@openzeppelin/contracts/access/AccessControl.sol\":3411:3415  role */\n      dup2\n        /* \"@openzeppelin/contracts/access/AccessControl.sol\":3417:3429  _msgSender() */\n      tag_124\n        /* \"@openzeppelin/contracts/access/AccessControl.sol\":3417:3427  _msgSender */\n      tag_84\n        /* \"@openzeppelin/contracts/access/AccessControl.sol\":3417:3429  _msgSender() */\n      jump\t// in\n    tag_124:\n        /* \"@openzeppelin/contracts/access/AccessControl.sol\":3400:3410  _checkRole */\n      tag_125\n        /* \"@openzeppelin/contracts/access/AccessControl.sol\":3400:3430  _checkRole(role, _msgSender()) */\n      jump\t// in\n    tag_123:\n        /* \"@openzeppelin/contracts/access/AccessControl.sol\":3334:3437  function _checkRole(bytes32 role) internal view virtual {... */\n      pop\n      jump\t// out\n        /* \"@openzeppelin/contracts/access/AccessControl.sol\":7474:7707  function _grantRole(bytes32 role, address account) internal virtual {... */\n    tag_73:\n        /* \"@openzeppelin/contracts/access/AccessControl.sol\":7557:7579  hasRole(role, account) */\n      tag_127\n        /* \"@openzeppelin/contracts/access/AccessControl.sol\":7565:7569  role */\n      dup3\n        /* \"@openzeppelin/contracts/access/AccessControl.sol\":7571:7578  account */\n      dup3\n        /* \"@openzeppelin/contracts/access/AccessControl.sol\":7557:7564  hasRole */\n      tag_45\n        /* \"@openzeppelin/contracts/access/AccessControl.sol\":7557:7579  hasRole(role, account) */\n      jump\t// in\n    tag_127:\n        /* \"@openzeppelin/contracts/access/AccessControl.sol\":7552:7701  if (!hasRole(role, account)) {... */\n      tag_128\n      jumpi\n        /* \"@openzeppelin/contracts/access/AccessControl.sol\":7627:7631  true */\n      0x01\n        /* \"@openzeppelin/contracts/access/AccessControl.sol\":7595:7601  _roles */\n      0x00\n        /* \"@openzeppelin/contracts/access/AccessControl.sol\":7595:7607  _roles[role] */\n      dup1\n        /* \"@openzeppelin/contracts/access/AccessControl.sol\":7602:7606  role */\n      dup5\n        /* \"@openzeppelin/contracts/access/AccessControl.sol\":7595:7607  _roles[role] */\n      dup2\n      mstore\n      0x20\n      add\n      swap1\n      dup2\n      mstore\n      0x20\n      add\n      0x00\n      keccak256\n        /* \"@openzeppelin/contracts/access/AccessControl.sol\":7595:7615  _roles[role].members */\n      0x00\n      add\n        /* \"@openzeppelin/contracts/access/AccessControl.sol\":7595:7624  _roles[role].members[account] */\n      0x00\n        /* \"@openzeppelin/contracts/access/AccessControl.sol\":7616:7623  account */\n      dup4\n        /* \"@openzeppelin/contracts/access/AccessControl.sol\":7595:7624  _roles[role].members[account] */\n      0xffffffffffffffffffffffffffffffffffffffff\n      and\n      0xffffffffffffffffffffffffffffffffffffffff\n      and\n      dup2\n      mstore\n      0x20\n      add\n      swap1\n      dup2\n      mstore\n      0x20\n      add\n      0x00\n      keccak256\n      0x00\n        /* \"@openzeppelin/contracts/access/AccessControl.sol\":7595:7631  _roles[role].members[account] = true */\n      0x0100\n      exp\n      dup2\n      sload\n      dup2\n      0xff\n      mul\n      not\n      and\n      swap1\n      dup4\n      iszero\n      iszero\n      mul\n      or\n      swap1\n      sstore\n      pop\n        /* \"@openzeppelin/contracts/access/AccessControl.sol\":7677:7689  _msgSender() */\n      tag_129\n        /* \"@openzeppelin/contracts/access/AccessControl.sol\":7677:7687  _msgSender */\n      tag_84\n        /* \"@openzeppelin/contracts/access/AccessControl.sol\":7677:7689  _msgSender() */\n      jump\t// in\n    tag_129:\n        /* \"@openzeppelin/contracts/access/AccessControl.sol\":7650:7690  RoleGranted(role, account, _msgSender()) */\n      0xffffffffffffffffffffffffffffffffffffffff\n      and\n        /* \"@openzeppelin/contracts/access/AccessControl.sol\":7668:7675  account */\n      dup2\n        /* \"@openzeppelin/contracts/access/AccessControl.sol\":7650:7690  RoleGranted(role, account, _msgSender()) */\n      0xffffffffffffffffffffffffffffffffffffffff\n      and\n        /* \"@openzeppelin/contracts/access/AccessControl.sol\":7662:7666  role */\n      dup4\n        /* \"@openzeppelin/contracts/access/AccessControl.sol\":7650:7690  RoleGranted(role, account, _msgSender()) */\n      0x2f8788117e7eff1d82e926ec794901d17c78024a50270940304540a733656f0d\n      mload(0x40)\n      mload(0x40)\n      dup1\n      swap2\n      sub\n      swap1\n      log4\n        /* \"@openzeppelin/contracts/access/AccessControl.sol\":7552:7701  if (!hasRole(role, account)) {... */\n    tag_128:\n        /* \"@openzeppelin/contracts/access/AccessControl.sol\":7474:7707  function _grantRole(bytes32 role, address account) internal virtual {... */\n      pop\n      pop\n      jump\t// out\n        /* \"@openzeppelin/contracts/utils/Context.sol\":640:736  function _msgSender() internal view virtual returns (address) {... */\n    tag_84:\n        /* \"@openzeppelin/contracts/utils/Context.sol\":693:700  address */\n      0x00\n        /* \"@openzeppelin/contracts/utils/Context.sol\":719:729  msg.sender */\n      caller\n        /* \"@openzeppelin/contracts/utils/Context.sol\":712:729  return msg.sender */\n      swap1\n      pop\n        /* \"@openzeppelin/contracts/utils/Context.sol\":640:736  function _msgSender() internal view virtual returns (address) {... */\n      swap1\n      jump\t// out\n        /* \"@openzeppelin/contracts/access/AccessControl.sol\":7878:8112  function _revokeRole(bytes32 role, address account) internal virtual {... */\n    tag_89:\n        /* \"@openzeppelin/contracts/access/AccessControl.sol\":7961:7983  hasRole(role, account) */\n      tag_132\n        /* \"@openzeppelin/contracts/access/AccessControl.sol\":7969:7973  role */\n      dup3\n        /* \"@openzeppelin/contracts/access/AccessControl.sol\":7975:7982  account */\n      dup3\n        /* \"@openzeppelin/contracts/access/AccessControl.sol\":7961:7968  hasRole */\n      tag_45\n        /* \"@openzeppelin/contracts/access/AccessControl.sol\":7961:7983  hasRole(role, account) */\n      jump\t// in\n    tag_132:\n        /* \"@openzeppelin/contracts/access/AccessControl.sol\":7957:8106  if (hasRole(role, account)) {... */\n      iszero\n      tag_133\n      jumpi\n        /* \"@openzeppelin/contracts/access/AccessControl.sol\":8031:8036  false */\n      0x00\n        /* \"@openzeppelin/contracts/access/AccessControl.sol\":7999:8005  _roles */\n      dup1\n        /* \"@openzeppelin/contracts/access/AccessControl.sol\":7999:8011  _roles[role] */\n      0x00\n        /* \"@openzeppelin/contracts/access/AccessControl.sol\":8006:8010  role */\n      dup5\n        /* \"@openzeppelin/contracts/access/AccessControl.sol\":7999:8011  _roles[role] */\n      dup2\n      mstore\n      0x20\n      add\n      swap1\n      dup2\n      mstore\n      0x20\n      add\n      0x00\n      keccak256\n        /* \"@openzeppelin/contracts/access/AccessControl.sol\":7999:8019  _roles[role].members */\n      0x00\n      add\n        /* \"@openzeppelin/contracts/access/AccessControl.sol\":7999:8028  _roles[role].members[account] */\n      0x00\n        /* \"@openzeppelin/contracts/access/AccessControl.sol\":8020:8027  account */\n      dup4\n        /* \"@openzeppelin/contracts/access/AccessControl.sol\":7999:8028  _roles[role].members[account] */\n      0xffffffffffffffffffffffffffffffffffffffff\n      and\n      0xffffffffffffffffffffffffffffffffffffffff\n      and\n      dup2\n      mstore\n      0x20\n      add\n      swap1\n      dup2\n      mstore\n      0x20\n      add\n      0x00\n      keccak256\n      0x00\n        /* \"@openzeppelin/contracts/access/AccessControl.sol\":7999:8036  _roles[role].members[account] = false */\n      0x0100\n      exp\n      dup2\n      sload\n      dup2\n      0xff\n      mul\n      not\n      and\n      swap1\n      dup4\n      iszero\n      iszero\n      mul\n      or\n      swap1\n      sstore\n      pop\n        /* \"@openzeppelin/contracts/access/AccessControl.sol\":8082:8094  _msgSender() */\n      tag_134\n        /* \"@openzeppelin/contracts/access/AccessControl.sol\":8082:8092  _msgSender */\n      tag_84\n        /* \"@openzeppelin/contracts/access/AccessControl.sol\":8082:8094  _msgSender() */\n      jump\t// in\n    tag_134:\n        /* \"@openzeppelin/contracts/access/AccessControl.sol\":8055:8095  RoleRevoked(role, account, _msgSender()) */\n      0xffffffffffffffffffffffffffffffffffffffff\n      and\n        /* \"@openzeppelin/contracts/access/AccessControl.sol\":8073:8080  account */\n      dup2\n        /* \"@openzeppelin/contracts/access/AccessControl.sol\":8055:8095  RoleRevoked(role, account, _msgSender()) */\n      0xffffffffffffffffffffffffffffffffffffffff\n      and\n        /* \"@openzeppelin/contracts/access/AccessControl.sol\":8067:8071  role */\n      dup4\n        /* \"@openzeppelin/contracts/access/AccessControl.sol\":8055:8095  RoleRevoked(role, account, _msgSender()) */\n      0xf6391f5c32d9c69d2a47ea670b442974b53935d1edc7fd64eb21e047a839171b\n      mload(0x40)\n      mload(0x40)\n      dup1\n      swap2\n      sub\n      swap1\n      log4\n        /* \"@openzeppelin/contracts/access/AccessControl.sol\":7957:8106  if (hasRole(role, account)) {... */\n    tag_133:\n        /* \"@openzeppelin/contracts/access/AccessControl.sol\":7878:8112  function _revokeRole(bytes32 role, address account) internal virtual {... */\n      pop\n      pop\n      jump\t// out\n        /* \"@openzeppelin/contracts/access/AccessControl.sol\":3718:4210  function _checkRole(bytes32 role, address account) internal view virtual {... */\n    tag_125:\n        /* \"@openzeppelin/contracts/access/AccessControl.sol\":3806:3828  hasRole(role, account) */\n      tag_136\n        /* \"@openzeppelin/contracts/access/AccessControl.sol\":3814:3818  role */\n      dup3\n        /* \"@openzeppelin/contracts/access/AccessControl.sol\":3820:3827  account */\n      dup3\n        /* \"@openzeppelin/contracts/access/AccessControl.sol\":3806:3813  hasRole */\n      tag_45\n        /* \"@openzeppelin/contracts/access/AccessControl.sol\":3806:3828  hasRole(role, account) */\n      jump\t// in\n    tag_136:\n        /* \"@openzeppelin/contracts/access/AccessControl.sol\":3801:4204  if (!hasRole(role, account)) {... */\n      tag_137\n      jumpi\n        /* \"@openzeppelin/contracts/access/AccessControl.sol\":3989:4030  Strings.toHexString(uint160(account), 20) */\n      tag_138\n        /* \"@openzeppelin/contracts/access/AccessControl.sol\":4017:4024  account */\n      dup2\n        /* \"@openzeppelin/contracts/access/AccessControl.sol\":3989:4030  Strings.toHexString(uint160(account), 20) */\n      0xffffffffffffffffffffffffffffffffffffffff\n      and\n        /* \"@openzeppelin/contracts/access/AccessControl.sol\":4027:4029  20 */\n      0x14\n        /* \"@openzeppelin/contracts/access/AccessControl.sol\":3989:4008  Strings.toHexString */\n      tag_139\n        /* \"@openzeppelin/contracts/access/AccessControl.sol\":3989:4030  Strings.toHexString(uint160(account), 20) */\n      jump\t// in\n    tag_138:\n        /* \"@openzeppelin/contracts/access/AccessControl.sol\":4101:4139  Strings.toHexString(uint256(role), 32) */\n      tag_140\n        /* \"@openzeppelin/contracts/access/AccessControl.sol\":4129:4133  role */\n      dup4\n        /* \"@openzeppelin/contracts/access/AccessControl.sol\":4121:4134  uint256(role) */\n      0x00\n      shr\n        /* \"@openzeppelin/contracts/access/AccessControl.sol\":4136:4138  32 */\n      0x20\n        /* \"@openzeppelin/contracts/access/AccessControl.sol\":4101:4120  Strings.toHexString */\n      tag_139\n        /* \"@openzeppelin/contracts/access/AccessControl.sol\":4101:4139  Strings.toHexString(uint256(role), 32) */\n      jump\t// in\n    tag_140:\n        /* \"@openzeppelin/contracts/access/AccessControl.sol\":3896:4161  abi.encodePacked(... */\n      add(0x20, mload(0x40))\n      tag_141\n      swap3\n      swap2\n      swap1\n      tag_142\n      jump\t// in\n    tag_141:\n      mload(0x40)\n      0x20\n      dup2\n      dup4\n      sub\n      sub\n      dup2\n      mstore\n      swap1\n      0x40\n      mstore\n        /* \"@openzeppelin/contracts/access/AccessControl.sol\":3844:4193  revert(... */\n      mload(0x40)\n      0x08c379a000000000000000000000000000000000000000000000000000000000\n      dup2\n      mstore\n      0x04\n      add\n      tag_143\n      swap2\n      swap1\n      tag_39\n      jump\t// in\n    tag_143:\n      mload(0x40)\n      dup1\n      swap2\n      sub\n      swap1\n      revert\n        /* \"@openzeppelin/contracts/access/AccessControl.sol\":3801:4204  if (!hasRole(role, account)) {... */\n    tag_137:\n        /* \"@openzeppelin/contracts/access/AccessControl.sol\":3718:4210  function _checkRole(bytes32 role, address account) internal view virtual {... */\n      pop\n      pop\n      jump\t// out\n        /* \"@openzeppelin/contracts/utils/Strings.sol\":1652:2093  function toHexString(uint256 value, uint256 length) internal pure returns (string memory) {... */\n    tag_139:\n        /* \"@openzeppelin/contracts/utils/Strings.sol\":1727:1740  string memory */\n      0x60\n        /* \"@openzeppelin/contracts/utils/Strings.sol\":1752:1771  bytes memory buffer */\n      0x00\n        /* \"@openzeppelin/contracts/utils/Strings.sol\":1797:1798  2 */\n      0x02\n        /* \"@openzeppelin/contracts/utils/Strings.sol\":1788:1794  length */\n      dup4\n        /* \"@openzeppelin/contracts/utils/Strings.sol\":1784:1785  2 */\n      0x02\n        /* \"@openzeppelin/contracts/utils/Strings.sol\":1784:1794  2 * length */\n      tag_145\n      swap2\n      swap1\n      tag_146\n      jump\t// in\n    tag_145:\n        /* \"@openzeppelin/contracts/utils/Strings.sol\":1784:1798  2 * length + 2 */\n      tag_147\n      swap2\n      swap1\n      tag_148\n      jump\t// in\n    tag_147:\n        /* \"@openzeppelin/contracts/utils/Strings.sol\":1774:1799  new bytes(2 * length + 2) */\n      0xffffffffffffffff\n      dup2\n      gt\n      iszero\n      tag_149\n      jumpi\n      tag_150\n      tag_151\n      jump\t// in\n    tag_150:\n    tag_149:\n      mload(0x40)\n      swap1\n      dup1\n      dup3\n      mstore\n      dup1\n      0x1f\n      add\n      not(0x1f)\n      and\n      0x20\n      add\n      dup3\n      add\n      0x40\n      mstore\n      dup1\n      iszero\n      tag_152\n      jumpi\n      dup2\n      0x20\n      add\n      0x01\n      dup3\n      mul\n      dup1\n      calldatasize\n      dup4\n      calldatacopy\n      dup1\n      dup3\n      add\n      swap2\n      pop\n      pop\n      swap1\n      pop\n    tag_152:\n      pop\n        /* \"@openzeppelin/contracts/utils/Strings.sol\":1752:1799  bytes memory buffer = new bytes(2 * length + 2) */\n      swap1\n      pop\n        /* \"@openzeppelin/contracts/utils/Strings.sol\":1809:1824  buffer[0] = \"0\" */\n      0x3000000000000000000000000000000000000000000000000000000000000000\n        /* \"@openzeppelin/contracts/utils/Strings.sol\":1809:1815  buffer */\n      dup2\n        /* \"@openzeppelin/contracts/utils/Strings.sol\":1816:1817  0 */\n      0x00\n        /* \"@openzeppelin/contracts/utils/Strings.sol\":1809:1818  buffer[0] */\n      dup2\n      mload\n      dup2\n      lt\n      tag_153\n      jumpi\n      tag_154\n      tag_114\n      jump\t// in\n    tag_154:\n    tag_153:\n      0x20\n      add\n      add\n        /* \"@openzeppelin/contracts/utils/Strings.sol\":1809:1824  buffer[0] = \"0\" */\n      swap1\n      not(0xffffffffffffffffffffffffffffffffffffffffffffffffffffffffffffff)\n      and\n      swap1\n      dup2\n      0x00\n      byte\n      swap1\n      mstore8\n      pop\n        /* \"@openzeppelin/contracts/utils/Strings.sol\":1834:1849  buffer[1] = \"x\" */\n      0x7800000000000000000000000000000000000000000000000000000000000000\n        /* \"@openzeppelin/contracts/utils/Strings.sol\":1834:1840  buffer */\n      dup2\n        /* \"@openzeppelin/contracts/utils/Strings.sol\":1841:1842  1 */\n      0x01\n        /* \"@openzeppelin/contracts/utils/Strings.sol\":1834:1843  buffer[1] */\n      dup2\n      mload\n      dup2\n      lt\n      tag_155\n      jumpi\n      tag_156\n      tag_114\n      jump\t// in\n    tag_156:\n    tag_155:\n      0x20\n      add\n      add\n        /* \"@openzeppelin/contracts/utils/Strings.sol\":1834:1849  buffer[1] = \"x\" */\n      swap1\n      not(0xffffffffffffffffffffffffffffffffffffffffffffffffffffffffffffff)\n      and\n      swap1\n      dup2\n      0x00\n      byte\n      swap1\n      mstore8\n      pop\n        /* \"@openzeppelin/contracts/utils/Strings.sol\":1864:1873  uint256 i */\n      0x00\n        /* \"@openzeppelin/contracts/utils/Strings.sol\":1889:1890  1 */\n      0x01\n        /* \"@openzeppelin/contracts/utils/Strings.sol\":1880:1886  length */\n      dup5\n        /* \"@openzeppelin/contracts/utils/Strings.sol\":1876:1877  2 */\n      0x02\n        /* \"@openzeppelin/contracts/utils/Strings.sol\":1876:1886  2 * length */\n      tag_160\n      swap2\n      swap1\n      tag_146\n      jump\t// in\n    tag_160:\n        /* \"@openzeppelin/contracts/utils/Strings.sol\":1876:1890  2 * length + 1 */\n      tag_161\n      swap2\n      swap1\n      tag_148\n      jump\t// in\n    tag_161:\n        /* \"@openzeppelin/contracts/utils/Strings.sol\":1864:1890  uint256 i = 2 * length + 1 */\n      swap1\n      pop\n        /* \"@openzeppelin/contracts/utils/Strings.sol\":1859:1991  for (uint256 i = 2 * length + 1; i > 1; --i) {... */\n    tag_157:\n        /* \"@openzeppelin/contracts/utils/Strings.sol\":1896:1897  1 */\n      0x01\n        /* \"@openzeppelin/contracts/utils/Strings.sol\":1892:1893  i */\n      dup2\n        /* \"@openzeppelin/contracts/utils/Strings.sol\":1892:1897  i > 1 */\n      gt\n        /* \"@openzeppelin/contracts/utils/Strings.sol\":1859:1991  for (uint256 i = 2 * length + 1; i > 1; --i) {... */\n      iszero\n      tag_158\n      jumpi\n        /* \"@openzeppelin/contracts/utils/Strings.sol\":1930:1942  _HEX_SYMBOLS */\n      0x3031323334353637383961626364656600000000000000000000000000000000\n        /* \"@openzeppelin/contracts/utils/Strings.sol\":1951:1954  0xf */\n      0x0f\n        /* \"@openzeppelin/contracts/utils/Strings.sol\":1943:1948  value */\n      dup7\n        /* \"@openzeppelin/contracts/utils/Strings.sol\":1943:1954  value & 0xf */\n      and\n        /* \"@openzeppelin/contracts/utils/Strings.sol\":1930:1955  _HEX_SYMBOLS[value & 0xf] */\n      0x10\n      dup2\n      lt\n      tag_162\n      jumpi\n      tag_163\n      tag_114\n      jump\t// in\n    tag_163:\n    tag_162:\n      byte\n      0xf8\n      shl\n        /* \"@openzeppelin/contracts/utils/Strings.sol\":1918:1924  buffer */\n      dup3\n        /* \"@openzeppelin/contracts/utils/Strings.sol\":1925:1926  i */\n      dup3\n        /* \"@openzeppelin/contracts/utils/Strings.sol\":1918:1927  buffer[i] */\n      dup2\n      mload\n      dup2\n      lt\n      tag_164\n      jumpi\n      tag_165\n      tag_114\n      jump\t// in\n    tag_165:\n    tag_164:\n      0x20\n      add\n      add\n        /* \"@openzeppelin/contracts/utils/Strings.sol\":1918:1955  buffer[i] = _HEX_SYMBOLS[value & 0xf] */\n      swap1\n      not(0xffffffffffffffffffffffffffffffffffffffffffffffffffffffffffffff)\n      and\n      swap1\n      dup2\n      0x00\n      byte\n      swap1\n      mstore8\n      pop\n        /* \"@openzeppelin/contracts/utils/Strings.sol\":1979:1980  4 */\n      0x04\n        /* \"@openzeppelin/contracts/utils/Strings.sol\":1969:1980  value >>= 4 */\n      dup6\n      swap1\n      shr\n      swap5\n      pop\n        /* \"@openzeppelin/contracts/utils/Strings.sol\":1899:1902  --i */\n      dup1\n      tag_166\n      swap1\n      tag_167\n      jump\t// in\n    tag_166:\n      swap1\n      pop\n        /* \"@openzeppelin/contracts/utils/Strings.sol\":1859:1991  for (uint256 i = 2 * length + 1; i > 1; --i) {... */\n      jump(tag_157)\n    tag_158:\n      pop\n        /* \"@openzeppelin/contracts/utils/Strings.sol\":2017:2018  0 */\n      0x00\n        /* \"@openzeppelin/contracts/utils/Strings.sol\":2008:2013  value */\n      dup5\n        /* \"@openzeppelin/contracts/utils/Strings.sol\":2008:2018  value == 0 */\n      eq\n        /* \"@openzeppelin/contracts/utils/Strings.sol\":2000:2055  require(value == 0, \"Strings: hex length insufficient\") */\n      tag_168\n      jumpi\n      mload(0x40)\n      0x08c379a000000000000000000000000000000000000000000000000000000000\n      dup2\n      mstore\n      0x04\n      add\n      tag_169\n      swap1\n      tag_170\n      jump\t// in\n    tag_169:\n      mload(0x40)\n      dup1\n      swap2\n      sub\n      swap1\n      revert\n    tag_168:\n        /* \"@openzeppelin/contracts/utils/Strings.sol\":2079:2085  buffer */\n      dup1\n        /* \"@openzeppelin/contracts/utils/Strings.sol\":2065:2086  return string(buffer) */\n      swap2\n      pop\n      pop\n        /* \"@openzeppelin/contracts/utils/Strings.sol\":1652:2093  function toHexString(uint256 value, uint256 length) internal pure returns (string memory) {... */\n      swap3\n      swap2\n      pop\n      pop\n      jump\t// out\n    tag_92:\n      mload(0x40)\n      dup1\n      0x60\n      add\n      0x40\n      mstore\n      dup1\n      0x60\n      dup2\n      mstore\n      0x20\n      add\n      and(0xffffffffffffffffffffffffffffffffffffffff, 0x00)\n      dup2\n      mstore\n      0x20\n      add\n      0x60\n      dup2\n      mstore\n      pop\n      swap1\n      jump\t// out\n    tag_111:\n      dup3\n      dup1\n      sload\n      tag_171\n      swap1\n      tag_77\n      jump\t// in\n    tag_171:\n      swap1\n      0x00\n      mstore\n      keccak256(0x00, 0x20)\n      swap1\n      0x1f\n      add\n      0x20\n      swap1\n      div\n      dup2\n      add\n      swap3\n      dup3\n      tag_173\n      jumpi\n      0x00\n      dup6\n      sstore\n      jump(tag_172)\n    tag_173:\n      dup3\n      0x1f\n      lt\n      tag_174\n      jumpi\n      dup1\n      mload\n      not(0xff)\n      and\n      dup4\n      dup1\n      add\n      or\n      dup6\n      sstore\n      jump(tag_172)\n    tag_174:\n      dup3\n      dup1\n      add\n      0x01\n      add\n      dup6\n      sstore\n      dup3\n      iszero\n      tag_172\n      jumpi\n      swap2\n      dup3\n      add\n    tag_175:\n      dup3\n      dup2\n      gt\n      iszero\n      tag_176\n      jumpi\n      dup3\n      mload\n      dup3\n      sstore\n      swap2\n      0x20\n      add\n      swap2\n      swap1\n      0x01\n      add\n      swap1\n      jump(tag_175)\n    tag_176:\n    tag_172:\n      pop\n      swap1\n      pop\n      tag_177\n      swap2\n      swap1\n      tag_178\n      jump\t// in\n    tag_177:\n      pop\n      swap1\n      jump\t// out\n    tag_118:\n      dup3\n      dup1\n      sload\n      tag_179\n      swap1\n      tag_77\n      jump\t// in\n    tag_179:\n      swap1\n      0x00\n      mstore\n      keccak256(0x00, 0x20)\n      swap1\n      0x1f\n      add\n      0x20\n      swap1\n      div\n      dup2\n      add\n      swap3\n      dup3\n      tag_181\n      jumpi\n      0x00\n      dup6\n      sstore\n      jump(tag_180)\n    tag_181:\n      dup3\n      0x1f\n      lt\n      tag_182\n      jumpi\n      dup1\n      sload\n      dup6\n      sstore\n      jump(tag_180)\n    tag_182:\n      dup3\n      dup1\n      add\n      0x01\n      add\n      dup6\n      sstore\n      dup3\n      iszero\n      tag_180\n      jumpi\n      0x00\n      mstore\n      keccak256(0x00, 0x20)\n      swap2\n      0x1f\n      add\n      0x20\n      swap1\n      div\n      dup3\n      add\n    tag_183:\n      dup3\n      dup2\n      gt\n      iszero\n      tag_184\n      jumpi\n      dup3\n      sload\n      dup3\n      sstore\n      swap2\n      0x01\n      add\n      swap2\n      swap1\n      0x01\n      add\n      swap1\n      jump(tag_183)\n    tag_184:\n    tag_180:\n      pop\n      swap1\n      pop\n      tag_185\n      swap2\n      swap1\n      tag_178\n      jump\t// in\n    tag_185:\n      pop\n      swap1\n      jump\t// out\n    tag_178:\n    tag_186:\n      dup1\n      dup3\n      gt\n      iszero\n      tag_187\n      jumpi\n      0x00\n      dup2\n      0x00\n      swap1\n      sstore\n      pop\n      0x01\n      add\n      jump(tag_186)\n    tag_187:\n      pop\n      swap1\n      jump\t// out\n        /* \"#utility.yul\":7:419   */\n    tag_189:\n        /* \"#utility.yul\":85:90   */\n      0x00\n        /* \"#utility.yul\":110:176   */\n      tag_191\n        /* \"#utility.yul\":126:175   */\n      tag_192\n        /* \"#utility.yul\":168:174   */\n      dup5\n        /* \"#utility.yul\":126:175   */\n      tag_193\n      jump\t// in\n    tag_192:\n        /* \"#utility.yul\":110:176   */\n      tag_194\n      jump\t// in\n    tag_191:\n        /* \"#utility.yul\":101:176   */\n      swap1\n      pop\n        /* \"#utility.yul\":199:205   */\n      dup3\n        /* \"#utility.yul\":192:197   */\n      dup2\n        /* \"#utility.yul\":185:206   */\n      mstore\n        /* \"#utility.yul\":237:241   */\n      0x20\n        /* \"#utility.yul\":230:235   */\n      dup2\n        /* \"#utility.yul\":226:242   */\n      add\n        /* \"#utility.yul\":275:278   */\n      dup5\n        /* \"#utility.yul\":266:272   */\n      dup5\n        /* \"#utility.yul\":261:264   */\n      dup5\n        /* \"#utility.yul\":257:273   */\n      add\n        /* \"#utility.yul\":254:279   */\n      gt\n        /* \"#utility.yul\":251:363   */\n      iszero\n      tag_195\n      jumpi\n        /* \"#utility.yul\":282:361   */\n      tag_196\n      tag_197\n      jump\t// in\n    tag_196:\n        /* \"#utility.yul\":251:363   */\n    tag_195:\n        /* \"#utility.yul\":372:413   */\n      tag_198\n        /* \"#utility.yul\":406:412   */\n      dup5\n        /* \"#utility.yul\":401:404   */\n      dup3\n        /* \"#utility.yul\":396:399   */\n      dup6\n        /* \"#utility.yul\":372:413   */\n      tag_199\n      jump\t// in\n    tag_198:\n        /* \"#utility.yul\":91:419   */\n      pop\n        /* \"#utility.yul\":7:419   */\n      swap4\n      swap3\n      pop\n      pop\n      pop\n      jump\t// out\n        /* \"#utility.yul\":425:564   */\n    tag_200:\n        /* \"#utility.yul\":471:476   */\n      0x00\n        /* \"#utility.yul\":509:515   */\n      dup2\n        /* \"#utility.yul\":496:516   */\n      calldataload\n        /* \"#utility.yul\":487:516   */\n      swap1\n      pop\n        /* \"#utility.yul\":525:558   */\n      tag_202\n        /* \"#utility.yul\":552:557   */\n      dup2\n        /* \"#utility.yul\":525:558   */\n      tag_203\n      jump\t// in\n    tag_202:\n        /* \"#utility.yul\":425:564   */\n      swap3\n      swap2\n      pop\n      pop\n      jump\t// out\n        /* \"#utility.yul\":570:709   */\n    tag_204:\n        /* \"#utility.yul\":616:621   */\n      0x00\n        /* \"#utility.yul\":654:660   */\n      dup2\n        /* \"#utility.yul\":641:661   */\n      calldataload\n        /* \"#utility.yul\":632:661   */\n      swap1\n      pop\n        /* \"#utility.yul\":670:703   */\n      tag_206\n        /* \"#utility.yul\":697:702   */\n      dup2\n        /* \"#utility.yul\":670:703   */\n      tag_207\n      jump\t// in\n    tag_206:\n        /* \"#utility.yul\":570:709   */\n      swap3\n      swap2\n      pop\n      pop\n      jump\t// out\n        /* \"#utility.yul\":715:852   */\n    tag_208:\n        /* \"#utility.yul\":760:765   */\n      0x00\n        /* \"#utility.yul\":798:804   */\n      dup2\n        /* \"#utility.yul\":785:805   */\n      calldataload\n        /* \"#utility.yul\":776:805   */\n      swap1\n      pop\n        /* \"#utility.yul\":814:846   */\n      tag_210\n        /* \"#utility.yul\":840:845   */\n      dup2\n        /* \"#utility.yul\":814:846   */\n      tag_211\n      jump\t// in\n    tag_210:\n        /* \"#utility.yul\":715:852   */\n      swap3\n      swap2\n      pop\n      pop\n      jump\t// out\n        /* \"#utility.yul\":872:1212   */\n    tag_212:\n        /* \"#utility.yul\":928:933   */\n      0x00\n        /* \"#utility.yul\":977:980   */\n      dup3\n        /* \"#utility.yul\":970:974   */\n      0x1f\n        /* \"#utility.yul\":962:968   */\n      dup4\n        /* \"#utility.yul\":958:975   */\n      add\n        /* \"#utility.yul\":954:981   */\n      slt\n        /* \"#utility.yul\":944:1066   */\n      tag_214\n      jumpi\n        /* \"#utility.yul\":985:1064   */\n      tag_215\n      tag_216\n      jump\t// in\n    tag_215:\n        /* \"#utility.yul\":944:1066   */\n    tag_214:\n        /* \"#utility.yul\":1102:1108   */\n      dup2\n        /* \"#utility.yul\":1089:1109   */\n      calldataload\n        /* \"#utility.yul\":1127:1206   */\n      tag_217\n        /* \"#utility.yul\":1202:1205   */\n      dup5\n        /* \"#utility.yul\":1194:1200   */\n      dup3\n        /* \"#utility.yul\":1187:1191   */\n      0x20\n        /* \"#utility.yul\":1179:1185   */\n      dup7\n        /* \"#utility.yul\":1175:1192   */\n      add\n        /* \"#utility.yul\":1127:1206   */\n      tag_189\n      jump\t// in\n    tag_217:\n        /* \"#utility.yul\":1118:1206   */\n      swap2\n      pop\n        /* \"#utility.yul\":934:1212   */\n      pop\n        /* \"#utility.yul\":872:1212   */\n      swap3\n      swap2\n      pop\n      pop\n      jump\t// out\n        /* \"#utility.yul\":1218:1357   */\n    tag_218:\n        /* \"#utility.yul\":1264:1269   */\n      0x00\n        /* \"#utility.yul\":1302:1308   */\n      dup2\n        /* \"#utility.yul\":1289:1309   */\n      calldataload\n        /* \"#utility.yul\":1280:1309   */\n      swap1\n      pop\n        /* \"#utility.yul\":1318:1351   */\n      tag_220\n        /* \"#utility.yul\":1345:1350   */\n      dup2\n        /* \"#utility.yul\":1318:1351   */\n      tag_221\n      jump\t// in\n    tag_220:\n        /* \"#utility.yul\":1218:1357   */\n      swap3\n      swap2\n      pop\n      pop\n      jump\t// out\n        /* \"#utility.yul\":1363:1692   */\n    tag_23:\n        /* \"#utility.yul\":1422:1428   */\n      0x00\n        /* \"#utility.yul\":1471:1473   */\n      0x20\n        /* \"#utility.yul\":1459:1468   */\n      dup3\n        /* \"#utility.yul\":1450:1457   */\n      dup5\n        /* \"#utility.yul\":1446:1469   */\n      sub\n        /* \"#utility.yul\":1442:1474   */\n      slt\n        /* \"#utility.yul\":1439:1558   */\n      iszero\n      tag_223\n      jumpi\n        /* \"#utility.yul\":1477:1556   */\n      tag_224\n      tag_225\n      jump\t// in\n    tag_224:\n        /* \"#utility.yul\":1439:1558   */\n    tag_223:\n        /* \"#utility.yul\":1597:1598   */\n      0x00\n        /* \"#utility.yul\":1622:1675   */\n      tag_226\n        /* \"#utility.yul\":1667:1674   */\n      dup5\n        /* \"#utility.yul\":1658:1664   */\n      dup3\n        /* \"#utility.yul\":1647:1656   */\n      dup6\n        /* \"#utility.yul\":1643:1665   */\n      add\n        /* \"#utility.yul\":1622:1675   */\n      tag_204\n      jump\t// in\n    tag_226:\n        /* \"#utility.yul\":1612:1675   */\n      swap2\n      pop\n        /* \"#utility.yul\":1568:1685   */\n      pop\n        /* \"#utility.yul\":1363:1692   */\n      swap3\n      swap2\n      pop\n      pop\n      jump\t// out\n        /* \"#utility.yul\":1698:2172   */\n    tag_32:\n        /* \"#utility.yul\":1766:1772   */\n      0x00\n        /* \"#utility.yul\":1774:1780   */\n      dup1\n        /* \"#utility.yul\":1823:1825   */\n      0x40\n        /* \"#utility.yul\":1811:1820   */\n      dup4\n        /* \"#utility.yul\":1802:1809   */\n      dup6\n        /* \"#utility.yul\":1798:1821   */\n      sub\n        /* \"#utility.yul\":1794:1826   */\n      slt\n        /* \"#utility.yul\":1791:1910   */\n      iszero\n      tag_228\n      jumpi\n        /* \"#utility.yul\":1829:1908   */\n      tag_229\n      tag_225\n      jump\t// in\n    tag_229:\n        /* \"#utility.yul\":1791:1910   */\n    tag_228:\n        /* \"#utility.yul\":1949:1950   */\n      0x00\n        /* \"#utility.yul\":1974:2027   */\n      tag_230\n        /* \"#utility.yul\":2019:2026   */\n      dup6\n        /* \"#utility.yul\":2010:2016   */\n      dup3\n        /* \"#utility.yul\":1999:2008   */\n      dup7\n        /* \"#utility.yul\":1995:2017   */\n      add\n        /* \"#utility.yul\":1974:2027   */\n      tag_204\n      jump\t// in\n    tag_230:\n        /* \"#utility.yul\":1964:2027   */\n      swap3\n      pop\n        /* \"#utility.yul\":1920:2037   */\n      pop\n        /* \"#utility.yul\":2076:2078   */\n      0x20\n        /* \"#utility.yul\":2102:2155   */\n      tag_231\n        /* \"#utility.yul\":2147:2154   */\n      dup6\n        /* \"#utility.yul\":2138:2144   */\n      dup3\n        /* \"#utility.yul\":2127:2136   */\n      dup7\n        /* \"#utility.yul\":2123:2145   */\n      add\n        /* \"#utility.yul\":2102:2155   */\n      tag_200\n      jump\t// in\n    tag_231:\n        /* \"#utility.yul\":2092:2155   */\n      swap2\n      pop\n        /* \"#utility.yul\":2047:2165   */\n      pop\n        /* \"#utility.yul\":1698:2172   */\n      swap3\n      pop\n      swap3\n      swap1\n      pop\n      jump\t// out\n        /* \"#utility.yul\":2178:2505   */\n    tag_17:\n        /* \"#utility.yul\":2236:2242   */\n      0x00\n        /* \"#utility.yul\":2285:2287   */\n      0x20\n        /* \"#utility.yul\":2273:2282   */\n      dup3\n        /* \"#utility.yul\":2264:2271   */\n      dup5\n        /* \"#utility.yul\":2260:2283   */\n      sub\n        /* \"#utility.yul\":2256:2288   */\n      slt\n        /* \"#utility.yul\":2253:2372   */\n      iszero\n      tag_233\n      jumpi\n        /* \"#utility.yul\":2291:2370   */\n      tag_234\n      tag_225\n      jump\t// in\n    tag_234:\n        /* \"#utility.yul\":2253:2372   */\n    tag_233:\n        /* \"#utility.yul\":2411:2412   */\n      0x00\n        /* \"#utility.yul\":2436:2488   */\n      tag_235\n        /* \"#utility.yul\":2480:2487   */\n      dup5\n        /* \"#utility.yul\":2471:2477   */\n      dup3\n        /* \"#utility.yul\":2460:2469   */\n      dup6\n        /* \"#utility.yul\":2456:2478   */\n      add\n        /* \"#utility.yul\":2436:2488   */\n      tag_208\n      jump\t// in\n    tag_235:\n        /* \"#utility.yul\":2426:2488   */\n      swap2\n      pop\n        /* \"#utility.yul\":2382:2498   */\n      pop\n        /* \"#utility.yul\":2178:2505   */\n      swap3\n      swap2\n      pop\n      pop\n      jump\t// out\n        /* \"#utility.yul\":2511:3310   */\n    tag_60:\n        /* \"#utility.yul\":2598:2604   */\n      0x00\n        /* \"#utility.yul\":2606:2612   */\n      dup1\n        /* \"#utility.yul\":2614:2620   */\n      0x00\n        /* \"#utility.yul\":2663:2665   */\n      0x60\n        /* \"#utility.yul\":2651:2660   */\n      dup5\n        /* \"#utility.yul\":2642:2649   */\n      dup7\n        /* \"#utility.yul\":2638:2661   */\n      sub\n        /* \"#utility.yul\":2634:2666   */\n      slt\n        /* \"#utility.yul\":2631:2750   */\n      iszero\n      tag_237\n      jumpi\n        /* \"#utility.yul\":2669:2748   */\n      tag_238\n      tag_225\n      jump\t// in\n    tag_238:\n        /* \"#utility.yul\":2631:2750   */\n    tag_237:\n        /* \"#utility.yul\":2817:2818   */\n      0x00\n        /* \"#utility.yul\":2806:2815   */\n      dup5\n        /* \"#utility.yul\":2802:2819   */\n      add\n        /* \"#utility.yul\":2789:2820   */\n      calldataload\n        /* \"#utility.yul\":2847:2865   */\n      0xffffffffffffffff\n        /* \"#utility.yul\":2839:2845   */\n      dup2\n        /* \"#utility.yul\":2836:2866   */\n      gt\n        /* \"#utility.yul\":2833:2950   */\n      iszero\n      tag_239\n      jumpi\n        /* \"#utility.yul\":2869:2948   */\n      tag_240\n      tag_241\n      jump\t// in\n    tag_240:\n        /* \"#utility.yul\":2833:2950   */\n    tag_239:\n        /* \"#utility.yul\":2974:3037   */\n      tag_242\n        /* \"#utility.yul\":3029:3036   */\n      dup7\n        /* \"#utility.yul\":3020:3026   */\n      dup3\n        /* \"#utility.yul\":3009:3018   */\n      dup8\n        /* \"#utility.yul\":3005:3027   */\n      add\n        /* \"#utility.yul\":2974:3037   */\n      tag_212\n      jump\t// in\n    tag_242:\n        /* \"#utility.yul\":2964:3037   */\n      swap4\n      pop\n        /* \"#utility.yul\":2760:3047   */\n      pop\n        /* \"#utility.yul\":3086:3088   */\n      0x20\n        /* \"#utility.yul\":3112:3165   */\n      tag_243\n        /* \"#utility.yul\":3157:3164   */\n      dup7\n        /* \"#utility.yul\":3148:3154   */\n      dup3\n        /* \"#utility.yul\":3137:3146   */\n      dup8\n        /* \"#utility.yul\":3133:3155   */\n      add\n        /* \"#utility.yul\":3112:3165   */\n      tag_200\n      jump\t// in\n    tag_243:\n        /* \"#utility.yul\":3102:3165   */\n      swap3\n      pop\n        /* \"#utility.yul\":3057:3175   */\n      pop\n        /* \"#utility.yul\":3214:3216   */\n      0x40\n        /* \"#utility.yul\":3240:3293   */\n      tag_244\n        /* \"#utility.yul\":3285:3292   */\n      dup7\n        /* \"#utility.yul\":3276:3282   */\n      dup3\n        /* \"#utility.yul\":3265:3274   */\n      dup8\n        /* \"#utility.yul\":3261:3283   */\n      add\n        /* \"#utility.yul\":3240:3293   */\n      tag_218\n      jump\t// in\n    tag_244:\n        /* \"#utility.yul\":3230:3293   */\n      swap2\n      pop\n        /* \"#utility.yul\":3185:3303   */\n      pop\n        /* \"#utility.yul\":2511:3310   */\n      swap3\n      pop\n      swap3\n      pop\n      swap3\n      jump\t// out\n        /* \"#utility.yul\":3316:3645   */\n    tag_36:\n        /* \"#utility.yul\":3375:3381   */\n      0x00\n        /* \"#utility.yul\":3424:3426   */\n      0x20\n        /* \"#utility.yul\":3412:3421   */\n      dup3\n        /* \"#utility.yul\":3403:3410   */\n      dup5\n        /* \"#utility.yul\":3399:3422   */\n      sub\n        /* \"#utility.yul\":3395:3427   */\n      slt\n        /* \"#utility.yul\":3392:3511   */\n      iszero\n      tag_246\n      jumpi\n        /* \"#utility.yul\":3430:3509   */\n      tag_247\n      tag_225\n      jump\t// in\n    tag_247:\n        /* \"#utility.yul\":3392:3511   */\n    tag_246:\n        /* \"#utility.yul\":3550:3551   */\n      0x00\n        /* \"#utility.yul\":3575:3628   */\n      tag_248\n        /* \"#utility.yul\":3620:3627   */\n      dup5\n        /* \"#utility.yul\":3611:3617   */\n      dup3\n        /* \"#utility.yul\":3600:3609   */\n      dup6\n        /* \"#utility.yul\":3596:3618   */\n      add\n        /* \"#utility.yul\":3575:3628   */\n      tag_218\n      jump\t// in\n    tag_248:\n        /* \"#utility.yul\":3565:3628   */\n      swap2\n      pop\n        /* \"#utility.yul\":3521:3638   */\n      pop\n        /* \"#utility.yul\":3316:3645   */\n      swap3\n      swap2\n      pop\n      pop\n      jump\t// out\n        /* \"#utility.yul\":3651:3759   */\n    tag_249:\n        /* \"#utility.yul\":3728:3752   */\n      tag_251\n        /* \"#utility.yul\":3746:3751   */\n      dup2\n        /* \"#utility.yul\":3728:3752   */\n      tag_252\n      jump\t// in\n    tag_251:\n        /* \"#utility.yul\":3723:3726   */\n      dup3\n        /* \"#utility.yul\":3716:3753   */\n      mstore\n        /* \"#utility.yul\":3651:3759   */\n      pop\n      pop\n      jump\t// out\n        /* \"#utility.yul\":3765:3874   */\n    tag_253:\n        /* \"#utility.yul\":3846:3867   */\n      tag_255\n        /* \"#utility.yul\":3861:3866   */\n      dup2\n        /* \"#utility.yul\":3846:3867   */\n      tag_256\n      jump\t// in\n    tag_255:\n        /* \"#utility.yul\":3841:3844   */\n      dup3\n        /* \"#utility.yul\":3834:3868   */\n      mstore\n        /* \"#utility.yul\":3765:3874   */\n      pop\n      pop\n      jump\t// out\n        /* \"#utility.yul\":3880:3998   */\n    tag_257:\n        /* \"#utility.yul\":3967:3991   */\n      tag_259\n        /* \"#utility.yul\":3985:3990   */\n      dup2\n        /* \"#utility.yul\":3967:3991   */\n      tag_260\n      jump\t// in\n    tag_259:\n        /* \"#utility.yul\":3962:3965   */\n      dup3\n        /* \"#utility.yul\":3955:3992   */\n      mstore\n        /* \"#utility.yul\":3880:3998   */\n      pop\n      pop\n      jump\t// out\n        /* \"#utility.yul\":4004:4348   */\n    tag_261:\n        /* \"#utility.yul\":4082:4085   */\n      0x00\n        /* \"#utility.yul\":4110:4149   */\n      tag_263\n        /* \"#utility.yul\":4143:4148   */\n      dup3\n        /* \"#utility.yul\":4110:4149   */\n      tag_264\n      jump\t// in\n    tag_263:\n        /* \"#utility.yul\":4165:4226   */\n      tag_265\n        /* \"#utility.yul\":4219:4225   */\n      dup2\n        /* \"#utility.yul\":4214:4217   */\n      dup6\n        /* \"#utility.yul\":4165:4226   */\n      tag_266\n      jump\t// in\n    tag_265:\n        /* \"#utility.yul\":4158:4226   */\n      swap4\n      pop\n        /* \"#utility.yul\":4235:4287   */\n      tag_267\n        /* \"#utility.yul\":4280:4286   */\n      dup2\n        /* \"#utility.yul\":4275:4278   */\n      dup6\n        /* \"#utility.yul\":4268:4272   */\n      0x20\n        /* \"#utility.yul\":4261:4266   */\n      dup7\n        /* \"#utility.yul\":4257:4273   */\n      add\n        /* \"#utility.yul\":4235:4287   */\n      tag_268\n      jump\t// in\n    tag_267:\n        /* \"#utility.yul\":4312:4341   */\n      tag_269\n        /* \"#utility.yul\":4334:4340   */\n      dup2\n        /* \"#utility.yul\":4312:4341   */\n      tag_270\n      jump\t// in\n    tag_269:\n        /* \"#utility.yul\":4307:4310   */\n      dup5\n        /* \"#utility.yul\":4303:4342   */\n      add\n        /* \"#utility.yul\":4296:4342   */\n      swap2\n      pop\n        /* \"#utility.yul\":4086:4348   */\n      pop\n        /* \"#utility.yul\":4004:4348   */\n      swap3\n      swap2\n      pop\n      pop\n      jump\t// out\n        /* \"#utility.yul\":4354:4718   */\n    tag_271:\n        /* \"#utility.yul\":4442:4445   */\n      0x00\n        /* \"#utility.yul\":4470:4509   */\n      tag_273\n        /* \"#utility.yul\":4503:4508   */\n      dup3\n        /* \"#utility.yul\":4470:4509   */\n      tag_264\n      jump\t// in\n    tag_273:\n        /* \"#utility.yul\":4525:4596   */\n      tag_274\n        /* \"#utility.yul\":4589:4595   */\n      dup2\n        /* \"#utility.yul\":4584:4587   */\n      dup6\n        /* \"#utility.yul\":4525:4596   */\n      tag_275\n      jump\t// in\n    tag_274:\n        /* \"#utility.yul\":4518:4596   */\n      swap4\n      pop\n        /* \"#utility.yul\":4605:4657   */\n      tag_276\n        /* \"#utility.yul\":4650:4656   */\n      dup2\n        /* \"#utility.yul\":4645:4648   */\n      dup6\n        /* \"#utility.yul\":4638:4642   */\n      0x20\n        /* \"#utility.yul\":4631:4636   */\n      dup7\n        /* \"#utility.yul\":4627:4643   */\n      add\n        /* \"#utility.yul\":4605:4657   */\n      tag_268\n      jump\t// in\n    tag_276:\n        /* \"#utility.yul\":4682:4711   */\n      tag_277\n        /* \"#utility.yul\":4704:4710   */\n      dup2\n        /* \"#utility.yul\":4682:4711   */\n      tag_270\n      jump\t// in\n    tag_277:\n        /* \"#utility.yul\":4677:4680   */\n      dup5\n        /* \"#utility.yul\":4673:4712   */\n      add\n        /* \"#utility.yul\":4666:4712   */\n      swap2\n      pop\n        /* \"#utility.yul\":4446:4718   */\n      pop\n        /* \"#utility.yul\":4354:4718   */\n      swap3\n      swap2\n      pop\n      pop\n      jump\t// out\n        /* \"#utility.yul\":4724:5101   */\n    tag_278:\n        /* \"#utility.yul\":4830:4833   */\n      0x00\n        /* \"#utility.yul\":4858:4897   */\n      tag_280\n        /* \"#utility.yul\":4891:4896   */\n      dup3\n        /* \"#utility.yul\":4858:4897   */\n      tag_264\n      jump\t// in\n    tag_280:\n        /* \"#utility.yul\":4913:5002   */\n      tag_281\n        /* \"#utility.yul\":4995:5001   */\n      dup2\n        /* \"#utility.yul\":4990:4993   */\n      dup6\n        /* \"#utility.yul\":4913:5002   */\n      tag_282\n      jump\t// in\n    tag_281:\n        /* \"#utility.yul\":4906:5002   */\n      swap4\n      pop\n        /* \"#utility.yul\":5011:5063   */\n      tag_283\n        /* \"#utility.yul\":5056:5062   */\n      dup2\n        /* \"#utility.yul\":5051:5054   */\n      dup6\n        /* \"#utility.yul\":5044:5048   */\n      0x20\n        /* \"#utility.yul\":5037:5042   */\n      dup7\n        /* \"#utility.yul\":5033:5049   */\n      add\n        /* \"#utility.yul\":5011:5063   */\n      tag_268\n      jump\t// in\n    tag_283:\n        /* \"#utility.yul\":5088:5094   */\n      dup1\n        /* \"#utility.yul\":5083:5086   */\n      dup5\n        /* \"#utility.yul\":5079:5095   */\n      add\n        /* \"#utility.yul\":5072:5095   */\n      swap2\n      pop\n        /* \"#utility.yul\":4834:5101   */\n      pop\n        /* \"#utility.yul\":4724:5101   */\n      swap3\n      swap2\n      pop\n      pop\n      jump\t// out\n        /* \"#utility.yul\":5107:5473   */\n    tag_284:\n        /* \"#utility.yul\":5249:5252   */\n      0x00\n        /* \"#utility.yul\":5270:5337   */\n      tag_286\n        /* \"#utility.yul\":5334:5336   */\n      0x20\n        /* \"#utility.yul\":5329:5332   */\n      dup4\n        /* \"#utility.yul\":5270:5337   */\n      tag_275\n      jump\t// in\n    tag_286:\n        /* \"#utility.yul\":5263:5337   */\n      swap2\n      pop\n        /* \"#utility.yul\":5346:5439   */\n      tag_287\n        /* \"#utility.yul\":5435:5438   */\n      dup3\n        /* \"#utility.yul\":5346:5439   */\n      tag_288\n      jump\t// in\n    tag_287:\n        /* \"#utility.yul\":5464:5466   */\n      0x20\n        /* \"#utility.yul\":5459:5462   */\n      dup3\n        /* \"#utility.yul\":5455:5467   */\n      add\n        /* \"#utility.yul\":5448:5467   */\n      swap1\n      pop\n        /* \"#utility.yul\":5107:5473   */\n      swap2\n      swap1\n      pop\n      jump\t// out\n        /* \"#utility.yul\":5479:5881   */\n    tag_289:\n        /* \"#utility.yul\":5639:5642   */\n      0x00\n        /* \"#utility.yul\":5660:5745   */\n      tag_291\n        /* \"#utility.yul\":5742:5744   */\n      0x17\n        /* \"#utility.yul\":5737:5740   */\n      dup4\n        /* \"#utility.yul\":5660:5745   */\n      tag_282\n      jump\t// in\n    tag_291:\n        /* \"#utility.yul\":5653:5745   */\n      swap2\n      pop\n        /* \"#utility.yul\":5754:5847   */\n      tag_292\n        /* \"#utility.yul\":5843:5846   */\n      dup3\n        /* \"#utility.yul\":5754:5847   */\n      tag_293\n      jump\t// in\n    tag_292:\n        /* \"#utility.yul\":5872:5874   */\n      0x17\n        /* \"#utility.yul\":5867:5870   */\n      dup3\n        /* \"#utility.yul\":5863:5875   */\n      add\n        /* \"#utility.yul\":5856:5875   */\n      swap1\n      pop\n        /* \"#utility.yul\":5479:5881   */\n      swap2\n      swap1\n      pop\n      jump\t// out\n        /* \"#utility.yul\":5887:6289   */\n    tag_294:\n        /* \"#utility.yul\":6047:6050   */\n      0x00\n        /* \"#utility.yul\":6068:6153   */\n      tag_296\n        /* \"#utility.yul\":6150:6152   */\n      0x11\n        /* \"#utility.yul\":6145:6148   */\n      dup4\n        /* \"#utility.yul\":6068:6153   */\n      tag_282\n      jump\t// in\n    tag_296:\n        /* \"#utility.yul\":6061:6153   */\n      swap2\n      pop\n        /* \"#utility.yul\":6162:6255   */\n      tag_297\n        /* \"#utility.yul\":6251:6254   */\n      dup3\n        /* \"#utility.yul\":6162:6255   */\n      tag_298\n      jump\t// in\n    tag_297:\n        /* \"#utility.yul\":6280:6282   */\n      0x11\n        /* \"#utility.yul\":6275:6278   */\n      dup3\n        /* \"#utility.yul\":6271:6283   */\n      add\n        /* \"#utility.yul\":6264:6283   */\n      swap1\n      pop\n        /* \"#utility.yul\":5887:6289   */\n      swap2\n      swap1\n      pop\n      jump\t// out\n        /* \"#utility.yul\":6295:6661   */\n    tag_299:\n        /* \"#utility.yul\":6437:6440   */\n      0x00\n        /* \"#utility.yul\":6458:6525   */\n      tag_301\n        /* \"#utility.yul\":6522:6524   */\n      0x2f\n        /* \"#utility.yul\":6517:6520   */\n      dup4\n        /* \"#utility.yul\":6458:6525   */\n      tag_275\n      jump\t// in\n    tag_301:\n        /* \"#utility.yul\":6451:6525   */\n      swap2\n      pop\n        /* \"#utility.yul\":6534:6627   */\n      tag_302\n        /* \"#utility.yul\":6623:6626   */\n      dup3\n        /* \"#utility.yul\":6534:6627   */\n      tag_303\n      jump\t// in\n    tag_302:\n        /* \"#utility.yul\":6652:6654   */\n      0x40\n        /* \"#utility.yul\":6647:6650   */\n      dup3\n        /* \"#utility.yul\":6643:6655   */\n      add\n        /* \"#utility.yul\":6636:6655   */\n      swap1\n      pop\n        /* \"#utility.yul\":6295:6661   */\n      swap2\n      swap1\n      pop\n      jump\t// out\n        /* \"#utility.yul\":6721:7575   */\n    tag_304:\n        /* \"#utility.yul\":6842:6845   */\n      0x00\n        /* \"#utility.yul\":6878:6882   */\n      0x60\n        /* \"#utility.yul\":6873:6876   */\n      dup4\n        /* \"#utility.yul\":6869:6883   */\n      add\n        /* \"#utility.yul\":6965:6969   */\n      0x00\n        /* \"#utility.yul\":6958:6963   */\n      dup4\n        /* \"#utility.yul\":6954:6970   */\n      add\n        /* \"#utility.yul\":6948:6971   */\n      mload\n        /* \"#utility.yul\":7018:7021   */\n      dup5\n        /* \"#utility.yul\":7012:7016   */\n      dup3\n        /* \"#utility.yul\":7008:7022   */\n      sub\n        /* \"#utility.yul\":7001:7005   */\n      0x00\n        /* \"#utility.yul\":6996:6999   */\n      dup7\n        /* \"#utility.yul\":6992:7006   */\n      add\n        /* \"#utility.yul\":6985:7023   */\n      mstore\n        /* \"#utility.yul\":7044:7117   */\n      tag_306\n        /* \"#utility.yul\":7112:7116   */\n      dup3\n        /* \"#utility.yul\":7098:7110   */\n      dup3\n        /* \"#utility.yul\":7044:7117   */\n      tag_261\n      jump\t// in\n    tag_306:\n        /* \"#utility.yul\":7036:7117   */\n      swap2\n      pop\n        /* \"#utility.yul\":6893:7128   */\n      pop\n        /* \"#utility.yul\":7210:7214   */\n      0x20\n        /* \"#utility.yul\":7203:7208   */\n      dup4\n        /* \"#utility.yul\":7199:7215   */\n      add\n        /* \"#utility.yul\":7193:7216   */\n      mload\n        /* \"#utility.yul\":7229:7292   */\n      tag_307\n        /* \"#utility.yul\":7286:7290   */\n      0x20\n        /* \"#utility.yul\":7281:7284   */\n      dup7\n        /* \"#utility.yul\":7277:7291   */\n      add\n        /* \"#utility.yul\":7263:7275   */\n      dup3\n        /* \"#utility.yul\":7229:7292   */\n      tag_249\n      jump\t// in\n    tag_307:\n        /* \"#utility.yul\":7138:7302   */\n      pop\n        /* \"#utility.yul\":7385:7389   */\n      0x40\n        /* \"#utility.yul\":7378:7383   */\n      dup4\n        /* \"#utility.yul\":7374:7390   */\n      add\n        /* \"#utility.yul\":7368:7391   */\n      mload\n        /* \"#utility.yul\":7438:7441   */\n      dup5\n        /* \"#utility.yul\":7432:7436   */\n      dup3\n        /* \"#utility.yul\":7428:7442   */\n      sub\n        /* \"#utility.yul\":7421:7425   */\n      0x40\n        /* \"#utility.yul\":7416:7419   */\n      dup7\n        /* \"#utility.yul\":7412:7426   */\n      add\n        /* \"#utility.yul\":7405:7443   */\n      mstore\n        /* \"#utility.yul\":7464:7537   */\n      tag_308\n        /* \"#utility.yul\":7532:7536   */\n      dup3\n        /* \"#utility.yul\":7518:7530   */\n      dup3\n        /* \"#utility.yul\":7464:7537   */\n      tag_261\n      jump\t// in\n    tag_308:\n        /* \"#utility.yul\":7456:7537   */\n      swap2\n      pop\n        /* \"#utility.yul\":7312:7548   */\n      pop\n        /* \"#utility.yul\":7565:7569   */\n      dup1\n        /* \"#utility.yul\":7558:7569   */\n      swap2\n      pop\n        /* \"#utility.yul\":6847:7575   */\n      pop\n        /* \"#utility.yul\":6721:7575   */\n      swap3\n      swap2\n      pop\n      pop\n      jump\t// out\n        /* \"#utility.yul\":7581:8548   */\n    tag_142:\n        /* \"#utility.yul\":7963:7966   */\n      0x00\n        /* \"#utility.yul\":7985:8133   */\n      tag_310\n        /* \"#utility.yul\":8129:8132   */\n      dup3\n        /* \"#utility.yul\":7985:8133   */\n      tag_289\n      jump\t// in\n    tag_310:\n        /* \"#utility.yul\":7978:8133   */\n      swap2\n      pop\n        /* \"#utility.yul\":8150:8245   */\n      tag_311\n        /* \"#utility.yul\":8241:8244   */\n      dup3\n        /* \"#utility.yul\":8232:8238   */\n      dup6\n        /* \"#utility.yul\":8150:8245   */\n      tag_278\n      jump\t// in\n    tag_311:\n        /* \"#utility.yul\":8143:8245   */\n      swap2\n      pop\n        /* \"#utility.yul\":8262:8410   */\n      tag_312\n        /* \"#utility.yul\":8406:8409   */\n      dup3\n        /* \"#utility.yul\":8262:8410   */\n      tag_294\n      jump\t// in\n    tag_312:\n        /* \"#utility.yul\":8255:8410   */\n      swap2\n      pop\n        /* \"#utility.yul\":8427:8522   */\n      tag_313\n        /* \"#utility.yul\":8518:8521   */\n      dup3\n        /* \"#utility.yul\":8509:8515   */\n      dup5\n        /* \"#utility.yul\":8427:8522   */\n      tag_278\n      jump\t// in\n    tag_313:\n        /* \"#utility.yul\":8420:8522   */\n      swap2\n      pop\n        /* \"#utility.yul\":8539:8542   */\n      dup2\n        /* \"#utility.yul\":8532:8542   */\n      swap1\n      pop\n        /* \"#utility.yul\":7581:8548   */\n      swap4\n      swap3\n      pop\n      pop\n      pop\n      jump\t// out\n        /* \"#utility.yul\":8554:8764   */\n    tag_20:\n        /* \"#utility.yul\":8641:8645   */\n      0x00\n        /* \"#utility.yul\":8679:8681   */\n      0x20\n        /* \"#utility.yul\":8668:8677   */\n      dup3\n        /* \"#utility.yul\":8664:8682   */\n      add\n        /* \"#utility.yul\":8656:8682   */\n      swap1\n      pop\n        /* \"#utility.yul\":8692:8757   */\n      tag_315\n        /* \"#utility.yul\":8754:8755   */\n      0x00\n        /* \"#utility.yul\":8743:8752   */\n      dup4\n        /* \"#utility.yul\":8739:8756   */\n      add\n        /* \"#utility.yul\":8730:8736   */\n      dup5\n        /* \"#utility.yul\":8692:8757   */\n      tag_253\n      jump\t// in\n    tag_315:\n        /* \"#utility.yul\":8554:8764   */\n      swap3\n      swap2\n      pop\n      pop\n      jump\t// out\n        /* \"#utility.yul\":8770:8992   */\n    tag_26:\n        /* \"#utility.yul\":8863:8867   */\n      0x00\n        /* \"#utility.yul\":8901:8903   */\n      0x20\n        /* \"#utility.yul\":8890:8899   */\n      dup3\n        /* \"#utility.yul\":8886:8904   */\n      add\n        /* \"#utility.yul\":8878:8904   */\n      swap1\n      pop\n        /* \"#utility.yul\":8914:8985   */\n      tag_317\n        /* \"#utility.yul\":8982:8983   */\n      0x00\n        /* \"#utility.yul\":8971:8980   */\n      dup4\n        /* \"#utility.yul\":8967:8984   */\n      add\n        /* \"#utility.yul\":8958:8964   */\n      dup5\n        /* \"#utility.yul\":8914:8985   */\n      tag_257\n      jump\t// in\n    tag_317:\n        /* \"#utility.yul\":8770:8992   */\n      swap3\n      swap2\n      pop\n      pop\n      jump\t// out\n        /* \"#utility.yul\":8998:9311   */\n    tag_39:\n        /* \"#utility.yul\":9111:9115   */\n      0x00\n        /* \"#utility.yul\":9149:9151   */\n      0x20\n        /* \"#utility.yul\":9138:9147   */\n      dup3\n        /* \"#utility.yul\":9134:9152   */\n      add\n        /* \"#utility.yul\":9126:9152   */\n      swap1\n      pop\n        /* \"#utility.yul\":9198:9207   */\n      dup2\n        /* \"#utility.yul\":9192:9196   */\n      dup2\n        /* \"#utility.yul\":9188:9208   */\n      sub\n        /* \"#utility.yul\":9184:9185   */\n      0x00\n        /* \"#utility.yul\":9173:9182   */\n      dup4\n        /* \"#utility.yul\":9169:9186   */\n      add\n        /* \"#utility.yul\":9162:9209   */\n      mstore\n        /* \"#utility.yul\":9226:9304   */\n      tag_319\n        /* \"#utility.yul\":9299:9303   */\n      dup2\n        /* \"#utility.yul\":9290:9296   */\n      dup5\n        /* \"#utility.yul\":9226:9304   */\n      tag_271\n      jump\t// in\n    tag_319:\n        /* \"#utility.yul\":9218:9304   */\n      swap1\n      pop\n        /* \"#utility.yul\":8998:9311   */\n      swap3\n      swap2\n      pop\n      pop\n      jump\t// out\n        /* \"#utility.yul\":9317:9736   */\n    tag_170:\n        /* \"#utility.yul\":9483:9487   */\n      0x00\n        /* \"#utility.yul\":9521:9523   */\n      0x20\n        /* \"#utility.yul\":9510:9519   */\n      dup3\n        /* \"#utility.yul\":9506:9524   */\n      add\n        /* \"#utility.yul\":9498:9524   */\n      swap1\n      pop\n        /* \"#utility.yul\":9570:9579   */\n      dup2\n        /* \"#utility.yul\":9564:9568   */\n      dup2\n        /* \"#utility.yul\":9560:9580   */\n      sub\n        /* \"#utility.yul\":9556:9557   */\n      0x00\n        /* \"#utility.yul\":9545:9554   */\n      dup4\n        /* \"#utility.yul\":9541:9558   */\n      add\n        /* \"#utility.yul\":9534:9581   */\n      mstore\n        /* \"#utility.yul\":9598:9729   */\n      tag_321\n        /* \"#utility.yul\":9724:9728   */\n      dup2\n        /* \"#utility.yul\":9598:9729   */\n      tag_284\n      jump\t// in\n    tag_321:\n        /* \"#utility.yul\":9590:9729   */\n      swap1\n      pop\n        /* \"#utility.yul\":9317:9736   */\n      swap2\n      swap1\n      pop\n      jump\t// out\n        /* \"#utility.yul\":9742:10161   */\n    tag_87:\n        /* \"#utility.yul\":9908:9912   */\n      0x00\n        /* \"#utility.yul\":9946:9948   */\n      0x20\n        /* \"#utility.yul\":9935:9944   */\n      dup3\n        /* \"#utility.yul\":9931:9949   */\n      add\n        /* \"#utility.yul\":9923:9949   */\n      swap1\n      pop\n        /* \"#utility.yul\":9995:10004   */\n      dup2\n        /* \"#utility.yul\":9989:9993   */\n      dup2\n        /* \"#utility.yul\":9985:10005   */\n      sub\n        /* \"#utility.yul\":9981:9982   */\n      0x00\n        /* \"#utility.yul\":9970:9979   */\n      dup4\n        /* \"#utility.yul\":9966:9983   */\n      add\n        /* \"#utility.yul\":9959:10006   */\n      mstore\n        /* \"#utility.yul\":10023:10154   */\n      tag_323\n        /* \"#utility.yul\":10149:10153   */\n      dup2\n        /* \"#utility.yul\":10023:10154   */\n      tag_299\n      jump\t// in\n    tag_323:\n        /* \"#utility.yul\":10015:10154   */\n      swap1\n      pop\n        /* \"#utility.yul\":9742:10161   */\n      swap2\n      swap1\n      pop\n      jump\t// out\n        /* \"#utility.yul\":10167:10544   */\n    tag_51:\n        /* \"#utility.yul\":10312:10316   */\n      0x00\n        /* \"#utility.yul\":10350:10352   */\n      0x20\n        /* \"#utility.yul\":10339:10348   */\n      dup3\n        /* \"#utility.yul\":10335:10353   */\n      add\n        /* \"#utility.yul\":10327:10353   */\n      swap1\n      pop\n        /* \"#utility.yul\":10399:10408   */\n      dup2\n        /* \"#utility.yul\":10393:10397   */\n      dup2\n        /* \"#utility.yul\":10389:10409   */\n      sub\n        /* \"#utility.yul\":10385:10386   */\n      0x00\n        /* \"#utility.yul\":10374:10383   */\n      dup4\n        /* \"#utility.yul\":10370:10387   */\n      add\n        /* \"#utility.yul\":10363:10410   */\n      mstore\n        /* \"#utility.yul\":10427:10537   */\n      tag_325\n        /* \"#utility.yul\":10532:10536   */\n      dup2\n        /* \"#utility.yul\":10523:10529   */\n      dup5\n        /* \"#utility.yul\":10427:10537   */\n      tag_304\n      jump\t// in\n    tag_325:\n        /* \"#utility.yul\":10419:10537   */\n      swap1\n      pop\n        /* \"#utility.yul\":10167:10544   */\n      swap3\n      swap2\n      pop\n      pop\n      jump\t// out\n        /* \"#utility.yul\":10550:10679   */\n    tag_194:\n        /* \"#utility.yul\":10584:10590   */\n      0x00\n        /* \"#utility.yul\":10611:10631   */\n      tag_327\n      tag_328\n      jump\t// in\n    tag_327:\n        /* \"#utility.yul\":10601:10631   */\n      swap1\n      pop\n        /* \"#utility.yul\":10640:10673   */\n      tag_329\n        /* \"#utility.yul\":10668:10672   */\n      dup3\n        /* \"#utility.yul\":10660:10666   */\n      dup3\n        /* \"#utility.yul\":10640:10673   */\n      tag_330\n      jump\t// in\n    tag_329:\n        /* \"#utility.yul\":10550:10679   */\n      swap2\n      swap1\n      pop\n      jump\t// out\n        /* \"#utility.yul\":10685:10760   */\n    tag_328:\n        /* \"#utility.yul\":10718:10724   */\n      0x00\n        /* \"#utility.yul\":10751:10753   */\n      0x40\n        /* \"#utility.yul\":10745:10754   */\n      mload\n        /* \"#utility.yul\":10735:10754   */\n      swap1\n      pop\n        /* \"#utility.yul\":10685:10760   */\n      swap1\n      jump\t// out\n        /* \"#utility.yul\":10766:11074   */\n    tag_193:\n        /* \"#utility.yul\":10828:10832   */\n      0x00\n        /* \"#utility.yul\":10918:10936   */\n      0xffffffffffffffff\n        /* \"#utility.yul\":10910:10916   */\n      dup3\n        /* \"#utility.yul\":10907:10937   */\n      gt\n        /* \"#utility.yul\":10904:10960   */\n      iszero\n      tag_333\n      jumpi\n        /* \"#utility.yul\":10940:10958   */\n      tag_334\n      tag_151\n      jump\t// in\n    tag_334:\n        /* \"#utility.yul\":10904:10960   */\n    tag_333:\n        /* \"#utility.yul\":10978:11007   */\n      tag_335\n        /* \"#utility.yul\":11000:11006   */\n      dup3\n        /* \"#utility.yul\":10978:11007   */\n      tag_270\n      jump\t// in\n    tag_335:\n        /* \"#utility.yul\":10970:11007   */\n      swap1\n      pop\n        /* \"#utility.yul\":11062:11066   */\n      0x20\n        /* \"#utility.yul\":11056:11060   */\n      dup2\n        /* \"#utility.yul\":11052:11067   */\n      add\n        /* \"#utility.yul\":11044:11067   */\n      swap1\n      pop\n        /* \"#utility.yul\":10766:11074   */\n      swap2\n      swap1\n      pop\n      jump\t// out\n        /* \"#utility.yul\":11080:11179   */\n    tag_264:\n        /* \"#utility.yul\":11132:11138   */\n      0x00\n        /* \"#utility.yul\":11166:11171   */\n      dup2\n        /* \"#utility.yul\":11160:11172   */\n      mload\n        /* \"#utility.yul\":11150:11172   */\n      swap1\n      pop\n        /* \"#utility.yul\":11080:11179   */\n      swap2\n      swap1\n      pop\n      jump\t// out\n        /* \"#utility.yul\":11185:11344   */\n    tag_266:\n        /* \"#utility.yul\":11259:11270   */\n      0x00\n        /* \"#utility.yul\":11293:11299   */\n      dup3\n        /* \"#utility.yul\":11288:11291   */\n      dup3\n        /* \"#utility.yul\":11281:11300   */\n      mstore\n        /* \"#utility.yul\":11333:11337   */\n      0x20\n        /* \"#utility.yul\":11328:11331   */\n      dup3\n        /* \"#utility.yul\":11324:11338   */\n      add\n        /* \"#utility.yul\":11309:11338   */\n      swap1\n      pop\n        /* \"#utility.yul\":11185:11344   */\n      swap3\n      swap2\n      pop\n      pop\n      jump\t// out\n        /* \"#utility.yul\":11350:11519   */\n    tag_275:\n        /* \"#utility.yul\":11434:11445   */\n      0x00\n        /* \"#utility.yul\":11468:11474   */\n      dup3\n        /* \"#utility.yul\":11463:11466   */\n      dup3\n        /* \"#utility.yul\":11456:11475   */\n      mstore\n        /* \"#utility.yul\":11508:11512   */\n      0x20\n        /* \"#utility.yul\":11503:11506   */\n      dup3\n        /* \"#utility.yul\":11499:11513   */\n      add\n        /* \"#utility.yul\":11484:11513   */\n      swap1\n      pop\n        /* \"#utility.yul\":11350:11519   */\n      swap3\n      swap2\n      pop\n      pop\n      jump\t// out\n        /* \"#utility.yul\":11525:11673   */\n    tag_282:\n        /* \"#utility.yul\":11627:11638   */\n      0x00\n        /* \"#utility.yul\":11664:11667   */\n      dup2\n        /* \"#utility.yul\":11649:11667   */\n      swap1\n      pop\n        /* \"#utility.yul\":11525:11673   */\n      swap3\n      swap2\n      pop\n      pop\n      jump\t// out\n        /* \"#utility.yul\":11679:11984   */\n    tag_148:\n        /* \"#utility.yul\":11719:11722   */\n      0x00\n        /* \"#utility.yul\":11738:11758   */\n      tag_341\n        /* \"#utility.yul\":11756:11757   */\n      dup3\n        /* \"#utility.yul\":11738:11758   */\n      tag_342\n      jump\t// in\n    tag_341:\n        /* \"#utility.yul\":11733:11758   */\n      swap2\n      pop\n        /* \"#utility.yul\":11772:11792   */\n      tag_343\n        /* \"#utility.yul\":11790:11791   */\n      dup4\n        /* \"#utility.yul\":11772:11792   */\n      tag_342\n      jump\t// in\n    tag_343:\n        /* \"#utility.yul\":11767:11792   */\n      swap3\n      pop\n        /* \"#utility.yul\":11926:11927   */\n      dup3\n        /* \"#utility.yul\":11858:11924   */\n      0xffffffffffffffffffffffffffffffffffffffffffffffffffffffffffffffff\n        /* \"#utility.yul\":11854:11928   */\n      sub\n        /* \"#utility.yul\":11851:11852   */\n      dup3\n        /* \"#utility.yul\":11848:11929   */\n      gt\n        /* \"#utility.yul\":11845:11952   */\n      iszero\n      tag_344\n      jumpi\n        /* \"#utility.yul\":11932:11950   */\n      tag_345\n      tag_346\n      jump\t// in\n    tag_345:\n        /* \"#utility.yul\":11845:11952   */\n    tag_344:\n        /* \"#utility.yul\":11976:11977   */\n      dup3\n        /* \"#utility.yul\":11973:11974   */\n      dup3\n        /* \"#utility.yul\":11969:11978   */\n      add\n        /* \"#utility.yul\":11962:11978   */\n      swap1\n      pop\n        /* \"#utility.yul\":11679:11984   */\n      swap3\n      swap2\n      pop\n      pop\n      jump\t// out\n        /* \"#utility.yul\":11990:12338   */\n    tag_146:\n        /* \"#utility.yul\":12030:12037   */\n      0x00\n        /* \"#utility.yul\":12053:12073   */\n      tag_348\n        /* \"#utility.yul\":12071:12072   */\n      dup3\n        /* \"#utility.yul\":12053:12073   */\n      tag_342\n      jump\t// in\n    tag_348:\n        /* \"#utility.yul\":12048:12073   */\n      swap2\n      pop\n        /* \"#utility.yul\":12087:12107   */\n      tag_349\n        /* \"#utility.yul\":12105:12106   */\n      dup4\n        /* \"#utility.yul\":12087:12107   */\n      tag_342\n      jump\t// in\n    tag_349:\n        /* \"#utility.yul\":12082:12107   */\n      swap3\n      pop\n        /* \"#utility.yul\":12275:12276   */\n      dup2\n        /* \"#utility.yul\":12207:12273   */\n      0xffffffffffffffffffffffffffffffffffffffffffffffffffffffffffffffff\n        /* \"#utility.yul\":12203:12277   */\n      div\n        /* \"#utility.yul\":12200:12201   */\n      dup4\n        /* \"#utility.yul\":12197:12278   */\n      gt\n        /* \"#utility.yul\":12192:12193   */\n      dup3\n        /* \"#utility.yul\":12185:12194   */\n      iszero\n        /* \"#utility.yul\":12178:12195   */\n      iszero\n        /* \"#utility.yul\":12174:12279   */\n      and\n        /* \"#utility.yul\":12171:12302   */\n      iszero\n      tag_350\n      jumpi\n        /* \"#utility.yul\":12282:12300   */\n      tag_351\n      tag_346\n      jump\t// in\n    tag_351:\n        /* \"#utility.yul\":12171:12302   */\n    tag_350:\n        /* \"#utility.yul\":12330:12331   */\n      dup3\n        /* \"#utility.yul\":12327:12328   */\n      dup3\n        /* \"#utility.yul\":12323:12332   */\n      mul\n        /* \"#utility.yul\":12312:12332   */\n      swap1\n      pop\n        /* \"#utility.yul\":11990:12338   */\n      swap3\n      swap2\n      pop\n      pop\n      jump\t// out\n        /* \"#utility.yul\":12344:12440   */\n    tag_252:\n        /* \"#utility.yul\":12381:12388   */\n      0x00\n        /* \"#utility.yul\":12410:12434   */\n      tag_353\n        /* \"#utility.yul\":12428:12433   */\n      dup3\n        /* \"#utility.yul\":12410:12434   */\n      tag_354\n      jump\t// in\n    tag_353:\n        /* \"#utility.yul\":12399:12434   */\n      swap1\n      pop\n        /* \"#utility.yul\":12344:12440   */\n      swap2\n      swap1\n      pop\n      jump\t// out\n        /* \"#utility.yul\":12446:12536   */\n    tag_256:\n        /* \"#utility.yul\":12480:12487   */\n      0x00\n        /* \"#utility.yul\":12523:12528   */\n      dup2\n        /* \"#utility.yul\":12516:12529   */\n      iszero\n        /* \"#utility.yul\":12509:12530   */\n      iszero\n        /* \"#utility.yul\":12498:12530   */\n      swap1\n      pop\n        /* \"#utility.yul\":12446:12536   */\n      swap2\n      swap1\n      pop\n      jump\t// out\n        /* \"#utility.yul\":12542:12619   */\n    tag_260:\n        /* \"#utility.yul\":12579:12586   */\n      0x00\n        /* \"#utility.yul\":12608:12613   */\n      dup2\n        /* \"#utility.yul\":12597:12613   */\n      swap1\n      pop\n        /* \"#utility.yul\":12542:12619   */\n      swap2\n      swap1\n      pop\n      jump\t// out\n        /* \"#utility.yul\":12625:12774   */\n    tag_357:\n        /* \"#utility.yul\":12661:12668   */\n      0x00\n        /* \"#utility.yul\":12701:12767   */\n      0xffffffff00000000000000000000000000000000000000000000000000000000\n        /* \"#utility.yul\":12694:12699   */\n      dup3\n        /* \"#utility.yul\":12690:12768   */\n      and\n        /* \"#utility.yul\":12679:12768   */\n      swap1\n      pop\n        /* \"#utility.yul\":12625:12774   */\n      swap2\n      swap1\n      pop\n      jump\t// out\n        /* \"#utility.yul\":12780:12906   */\n    tag_354:\n        /* \"#utility.yul\":12817:12824   */\n      0x00\n        /* \"#utility.yul\":12857:12899   */\n      0xffffffffffffffffffffffffffffffffffffffff\n        /* \"#utility.yul\":12850:12855   */\n      dup3\n        /* \"#utility.yul\":12846:12900   */\n      and\n        /* \"#utility.yul\":12835:12900   */\n      swap1\n      pop\n        /* \"#utility.yul\":12780:12906   */\n      swap2\n      swap1\n      pop\n      jump\t// out\n        /* \"#utility.yul\":12912:12989   */\n    tag_342:\n        /* \"#utility.yul\":12949:12956   */\n      0x00\n        /* \"#utility.yul\":12978:12983   */\n      dup2\n        /* \"#utility.yul\":12967:12983   */\n      swap1\n      pop\n        /* \"#utility.yul\":12912:12989   */\n      swap2\n      swap1\n      pop\n      jump\t// out\n        /* \"#utility.yul\":12995:13149   */\n    tag_199:\n        /* \"#utility.yul\":13079:13085   */\n      dup3\n        /* \"#utility.yul\":13074:13077   */\n      dup2\n        /* \"#utility.yul\":13069:13072   */\n      dup4\n        /* \"#utility.yul\":13056:13086   */\n      calldatacopy\n        /* \"#utility.yul\":13141:13142   */\n      0x00\n        /* \"#utility.yul\":13132:13138   */\n      dup4\n        /* \"#utility.yul\":13127:13130   */\n      dup4\n        /* \"#utility.yul\":13123:13139   */\n      add\n        /* \"#utility.yul\":13116:13143   */\n      mstore\n        /* \"#utility.yul\":12995:13149   */\n      pop\n      pop\n      pop\n      jump\t// out\n        /* \"#utility.yul\":13155:13462   */\n    tag_268:\n        /* \"#utility.yul\":13223:13224   */\n      0x00\n        /* \"#utility.yul\":13233:13346   */\n    tag_363:\n        /* \"#utility.yul\":13247:13253   */\n      dup4\n        /* \"#utility.yul\":13244:13245   */\n      dup2\n        /* \"#utility.yul\":13241:13254   */\n      lt\n        /* \"#utility.yul\":13233:13346   */\n      iszero\n      tag_365\n      jumpi\n        /* \"#utility.yul\":13332:13333   */\n      dup1\n        /* \"#utility.yul\":13327:13330   */\n      dup3\n        /* \"#utility.yul\":13323:13334   */\n      add\n        /* \"#utility.yul\":13317:13335   */\n      mload\n        /* \"#utility.yul\":13313:13314   */\n      dup2\n        /* \"#utility.yul\":13308:13311   */\n      dup5\n        /* \"#utility.yul\":13304:13315   */\n      add\n        /* \"#utility.yul\":13297:13336   */\n      mstore\n        /* \"#utility.yul\":13269:13271   */\n      0x20\n        /* \"#utility.yul\":13266:13267   */\n      dup2\n        /* \"#utility.yul\":13262:13272   */\n      add\n        /* \"#utility.yul\":13257:13272   */\n      swap1\n      pop\n        /* \"#utility.yul\":13233:13346   */\n      jump(tag_363)\n    tag_365:\n        /* \"#utility.yul\":13364:13370   */\n      dup4\n        /* \"#utility.yul\":13361:13362   */\n      dup2\n        /* \"#utility.yul\":13358:13371   */\n      gt\n        /* \"#utility.yul\":13355:13456   */\n      iszero\n      tag_366\n      jumpi\n        /* \"#utility.yul\":13444:13445   */\n      0x00\n        /* \"#utility.yul\":13435:13441   */\n      dup5\n        /* \"#utility.yul\":13430:13433   */\n      dup5\n        /* \"#utility.yul\":13426:13442   */\n      add\n        /* \"#utility.yul\":13419:13446   */\n      mstore\n        /* \"#utility.yul\":13355:13456   */\n    tag_366:\n        /* \"#utility.yul\":13204:13462   */\n      pop\n        /* \"#utility.yul\":13155:13462   */\n      pop\n      pop\n      pop\n      jump\t// out\n        /* \"#utility.yul\":13468:13639   */\n    tag_167:\n        /* \"#utility.yul\":13507:13510   */\n      0x00\n        /* \"#utility.yul\":13530:13554   */\n      tag_368\n        /* \"#utility.yul\":13548:13553   */\n      dup3\n        /* \"#utility.yul\":13530:13554   */\n      tag_342\n      jump\t// in\n    tag_368:\n        /* \"#utility.yul\":13521:13554   */\n      swap2\n      pop\n        /* \"#utility.yul\":13576:13580   */\n      0x00\n        /* \"#utility.yul\":13569:13574   */\n      dup3\n        /* \"#utility.yul\":13566:13581   */\n      eq\n        /* \"#utility.yul\":13563:13604   */\n      iszero\n      tag_369\n      jumpi\n        /* \"#utility.yul\":13584:13602   */\n      tag_370\n      tag_346\n      jump\t// in\n    tag_370:\n        /* \"#utility.yul\":13563:13604   */\n    tag_369:\n        /* \"#utility.yul\":13631:13632   */\n      0x01\n        /* \"#utility.yul\":13624:13629   */\n      dup3\n        /* \"#utility.yul\":13620:13633   */\n      sub\n        /* \"#utility.yul\":13613:13633   */\n      swap1\n      pop\n        /* \"#utility.yul\":13468:13639   */\n      swap2\n      swap1\n      pop\n      jump\t// out\n        /* \"#utility.yul\":13645:13965   */\n    tag_77:\n        /* \"#utility.yul\":13689:13695   */\n      0x00\n        /* \"#utility.yul\":13726:13727   */\n      0x02\n        /* \"#utility.yul\":13720:13724   */\n      dup3\n        /* \"#utility.yul\":13716:13728   */\n      div\n        /* \"#utility.yul\":13706:13728   */\n      swap1\n      pop\n        /* \"#utility.yul\":13773:13774   */\n      0x01\n        /* \"#utility.yul\":13767:13771   */\n      dup3\n        /* \"#utility.yul\":13763:13775   */\n      and\n        /* \"#utility.yul\":13794:13812   */\n      dup1\n        /* \"#utility.yul\":13784:13865   */\n      tag_372\n      jumpi\n        /* \"#utility.yul\":13850:13854   */\n      0x7f\n        /* \"#utility.yul\":13842:13848   */\n      dup3\n        /* \"#utility.yul\":13838:13855   */\n      and\n        /* \"#utility.yul\":13828:13855   */\n      swap2\n      pop\n        /* \"#utility.yul\":13784:13865   */\n    tag_372:\n        /* \"#utility.yul\":13912:13914   */\n      0x20\n        /* \"#utility.yul\":13904:13910   */\n      dup3\n        /* \"#utility.yul\":13901:13915   */\n      lt\n        /* \"#utility.yul\":13881:13899   */\n      dup2\n        /* \"#utility.yul\":13878:13916   */\n      eq\n        /* \"#utility.yul\":13875:13959   */\n      iszero\n      tag_373\n      jumpi\n        /* \"#utility.yul\":13931:13949   */\n      tag_374\n      tag_375\n      jump\t// in\n    tag_374:\n        /* \"#utility.yul\":13875:13959   */\n    tag_373:\n        /* \"#utility.yul\":13696:13965   */\n      pop\n        /* \"#utility.yul\":13645:13965   */\n      swap2\n      swap1\n      pop\n      jump\t// out\n        /* \"#utility.yul\":13971:14252   */\n    tag_330:\n        /* \"#utility.yul\":14054:14081   */\n      tag_377\n        /* \"#utility.yul\":14076:14080   */\n      dup3\n        /* \"#utility.yul\":14054:14081   */\n      tag_270\n      jump\t// in\n    tag_377:\n        /* \"#utility.yul\":14046:14052   */\n      dup2\n        /* \"#utility.yul\":14042:14082   */\n      add\n        /* \"#utility.yul\":14184:14190   */\n      dup2\n        /* \"#utility.yul\":14172:14182   */\n      dup2\n        /* \"#utility.yul\":14169:14191   */\n      lt\n        /* \"#utility.yul\":14148:14166   */\n      0xffffffffffffffff\n        /* \"#utility.yul\":14136:14146   */\n      dup3\n        /* \"#utility.yul\":14133:14167   */\n      gt\n        /* \"#utility.yul\":14130:14192   */\n      or\n        /* \"#utility.yul\":14127:14215   */\n      iszero\n      tag_378\n      jumpi\n        /* \"#utility.yul\":14195:14213   */\n      tag_379\n      tag_151\n      jump\t// in\n    tag_379:\n        /* \"#utility.yul\":14127:14215   */\n    tag_378:\n        /* \"#utility.yul\":14235:14245   */\n      dup1\n        /* \"#utility.yul\":14231:14233   */\n      0x40\n        /* \"#utility.yul\":14224:14246   */\n      mstore\n        /* \"#utility.yul\":14014:14252   */\n      pop\n        /* \"#utility.yul\":13971:14252   */\n      pop\n      pop\n      jump\t// out\n        /* \"#utility.yul\":14258:14491   */\n    tag_120:\n        /* \"#utility.yul\":14297:14300   */\n      0x00\n        /* \"#utility.yul\":14320:14344   */\n      tag_381\n        /* \"#utility.yul\":14338:14343   */\n      dup3\n        /* \"#utility.yul\":14320:14344   */\n      tag_342\n      jump\t// in\n    tag_381:\n        /* \"#utility.yul\":14311:14344   */\n      swap2\n      pop\n        /* \"#utility.yul\":14366:14432   */\n      0xffffffffffffffffffffffffffffffffffffffffffffffffffffffffffffffff\n        /* \"#utility.yul\":14359:14364   */\n      dup3\n        /* \"#utility.yul\":14356:14433   */\n      eq\n        /* \"#utility.yul\":14353:14456   */\n      iszero\n      tag_382\n      jumpi\n        /* \"#utility.yul\":14436:14454   */\n      tag_383\n      tag_346\n      jump\t// in\n    tag_383:\n        /* \"#utility.yul\":14353:14456   */\n    tag_382:\n        /* \"#utility.yul\":14483:14484   */\n      0x01\n        /* \"#utility.yul\":14476:14481   */\n      dup3\n        /* \"#utility.yul\":14472:14485   */\n      add\n        /* \"#utility.yul\":14465:14485   */\n      swap1\n      pop\n        /* \"#utility.yul\":14258:14491   */\n      swap2\n      swap1\n      pop\n      jump\t// out\n        /* \"#utility.yul\":14497:14677   */\n    tag_346:\n        /* \"#utility.yul\":14545:14622   */\n      0x4e487b7100000000000000000000000000000000000000000000000000000000\n        /* \"#utility.yul\":14542:14543   */\n      0x00\n        /* \"#utility.yul\":14535:14623   */\n      mstore\n        /* \"#utility.yul\":14642:14646   */\n      0x11\n        /* \"#utility.yul\":14639:14640   */\n      0x04\n        /* \"#utility.yul\":14632:14647   */\n      mstore\n        /* \"#utility.yul\":14666:14670   */\n      0x24\n        /* \"#utility.yul\":14663:14664   */\n      0x00\n        /* \"#utility.yul\":14656:14671   */\n      revert\n        /* \"#utility.yul\":14683:14863   */\n    tag_375:\n        /* \"#utility.yul\":14731:14808   */\n      0x4e487b7100000000000000000000000000000000000000000000000000000000\n        /* \"#utility.yul\":14728:14729   */\n      0x00\n        /* \"#utility.yul\":14721:14809   */\n      mstore\n        /* \"#utility.yul\":14828:14832   */\n      0x22\n        /* \"#utility.yul\":14825:14826   */\n      0x04\n        /* \"#utility.yul\":14818:14833   */\n      mstore\n        /* \"#utility.yul\":14852:14856   */\n      0x24\n        /* \"#utility.yul\":14849:14850   */\n      0x00\n        /* \"#utility.yul\":14842:14857   */\n      revert\n        /* \"#utility.yul\":14869:15049   */\n    tag_114:\n        /* \"#utility.yul\":14917:14994   */\n      0x4e487b7100000000000000000000000000000000000000000000000000000000\n        /* \"#utility.yul\":14914:14915   */\n      0x00\n        /* \"#utility.yul\":14907:14995   */\n      mstore\n        /* \"#utility.yul\":15014:15018   */\n      0x32\n        /* \"#utility.yul\":15011:15012   */\n      0x04\n        /* \"#utility.yul\":15004:15019   */\n      mstore\n        /* \"#utility.yul\":15038:15042   */\n      0x24\n        /* \"#utility.yul\":15035:15036   */\n      0x00\n        /* \"#utility.yul\":15028:15043   */\n      revert\n        /* \"#utility.yul\":15055:15235   */\n    tag_151:\n        /* \"#utility.yul\":15103:15180   */\n      0x4e487b7100000000000000000000000000000000000000000000000000000000\n        /* \"#utility.yul\":15100:15101   */\n      0x00\n        /* \"#utility.yul\":15093:15181   */\n      mstore\n        /* \"#utility.yul\":15200:15204   */\n      0x41\n        /* \"#utility.yul\":15197:15198   */\n      0x04\n        /* \"#utility.yul\":15190:15205   */\n      mstore\n        /* \"#utility.yul\":15224:15228   */\n      0x24\n        /* \"#utility.yul\":15221:15222   */\n      0x00\n        /* \"#utility.yul\":15214:15229   */\n      revert\n        /* \"#utility.yul\":15241:15358   */\n    tag_216:\n        /* \"#utility.yul\":15350:15351   */\n      0x00\n        /* \"#utility.yul\":15347:15348   */\n      dup1\n        /* \"#utility.yul\":15340:15352   */\n      revert\n        /* \"#utility.yul\":15364:15481   */\n    tag_197:\n        /* \"#utility.yul\":15473:15474   */\n      0x00\n        /* \"#utility.yul\":15470:15471   */\n      dup1\n        /* \"#utility.yul\":15463:15475   */\n      revert\n        /* \"#utility.yul\":15487:15604   */\n    tag_241:\n        /* \"#utility.yul\":15596:15597   */\n      0x00\n        /* \"#utility.yul\":15593:15594   */\n      dup1\n        /* \"#utility.yul\":15586:15598   */\n      revert\n        /* \"#utility.yul\":15610:15727   */\n    tag_225:\n        /* \"#utility.yul\":15719:15720   */\n      0x00\n        /* \"#utility.yul\":15716:15717   */\n      dup1\n        /* \"#utility.yul\":15709:15721   */\n      revert\n        /* \"#utility.yul\":15733:15835   */\n    tag_270:\n        /* \"#utility.yul\":15774:15780   */\n      0x00\n        /* \"#utility.yul\":15825:15827   */\n      0x1f\n        /* \"#utility.yul\":15821:15828   */\n      not\n        /* \"#utility.yul\":15816:15818   */\n      0x1f\n        /* \"#utility.yul\":15809:15814   */\n      dup4\n        /* \"#utility.yul\":15805:15819   */\n      add\n        /* \"#utility.yul\":15801:15829   */\n      and\n        /* \"#utility.yul\":15791:15829   */\n      swap1\n      pop\n        /* \"#utility.yul\":15733:15835   */\n      swap2\n      swap1\n      pop\n      jump\t// out\n        /* \"#utility.yul\":15841:16023   */\n    tag_288:\n        /* \"#utility.yul\":15981:16015   */\n      0x537472696e67733a20686578206c656e67746820696e73756666696369656e74\n        /* \"#utility.yul\":15977:15978   */\n      0x00\n        /* \"#utility.yul\":15969:15975   */\n      dup3\n        /* \"#utility.yul\":15965:15979   */\n      add\n        /* \"#utility.yul\":15958:16016   */\n      mstore\n        /* \"#utility.yul\":15841:16023   */\n      pop\n      jump\t// out\n        /* \"#utility.yul\":16029:16202   */\n    tag_293:\n        /* \"#utility.yul\":16169:16194   */\n      0x416363657373436f6e74726f6c3a206163636f756e7420000000000000000000\n        /* \"#utility.yul\":16165:16166   */\n      0x00\n        /* \"#utility.yul\":16157:16163   */\n      dup3\n        /* \"#utility.yul\":16153:16167   */\n      add\n        /* \"#utility.yul\":16146:16195   */\n      mstore\n        /* \"#utility.yul\":16029:16202   */\n      pop\n      jump\t// out\n        /* \"#utility.yul\":16208:16375   */\n    tag_298:\n        /* \"#utility.yul\":16348:16367   */\n      0x206973206d697373696e6720726f6c6520000000000000000000000000000000\n        /* \"#utility.yul\":16344:16345   */\n      0x00\n        /* \"#utility.yul\":16336:16342   */\n      dup3\n        /* \"#utility.yul\":16332:16346   */\n      add\n        /* \"#utility.yul\":16325:16368   */\n      mstore\n        /* \"#utility.yul\":16208:16375   */\n      pop\n      jump\t// out\n        /* \"#utility.yul\":16381:16615   */\n    tag_303:\n        /* \"#utility.yul\":16521:16555   */\n      0x416363657373436f6e74726f6c3a2063616e206f6e6c792072656e6f756e6365\n        /* \"#utility.yul\":16517:16518   */\n      0x00\n        /* \"#utility.yul\":16509:16515   */\n      dup3\n        /* \"#utility.yul\":16505:16519   */\n      add\n        /* \"#utility.yul\":16498:16556   */\n      mstore\n        /* \"#utility.yul\":16590:16607   */\n      0x20726f6c657320666f722073656c660000000000000000000000000000000000\n        /* \"#utility.yul\":16585:16587   */\n      0x20\n        /* \"#utility.yul\":16577:16583   */\n      dup3\n        /* \"#utility.yul\":16573:16588   */\n      add\n        /* \"#utility.yul\":16566:16608   */\n      mstore\n        /* \"#utility.yul\":16381:16615   */\n      pop\n      jump\t// out\n        /* \"#utility.yul\":16621:16743   */\n    tag_203:\n        /* \"#utility.yul\":16694:16718   */\n      tag_398\n        /* \"#utility.yul\":16712:16717   */\n      dup2\n        /* \"#utility.yul\":16694:16718   */\n      tag_252\n      jump\t// in\n    tag_398:\n        /* \"#utility.yul\":16687:16692   */\n      dup2\n        /* \"#utility.yul\":16684:16719   */\n      eq\n        /* \"#utility.yul\":16674:16737   */\n      tag_399\n      jumpi\n        /* \"#utility.yul\":16733:16734   */\n      0x00\n        /* \"#utility.yul\":16730:16731   */\n      dup1\n        /* \"#utility.yul\":16723:16735   */\n      revert\n        /* \"#utility.yul\":16674:16737   */\n    tag_399:\n        /* \"#utility.yul\":16621:16743   */\n      pop\n      jump\t// out\n        /* \"#utility.yul\":16749:16871   */\n    tag_207:\n        /* \"#utility.yul\":16822:16846   */\n      tag_401\n        /* \"#utility.yul\":16840:16845   */\n      dup2\n        /* \"#utility.yul\":16822:16846   */\n      tag_260\n      jump\t// in\n    tag_401:\n        /* \"#utility.yul\":16815:16820   */\n      dup2\n        /* \"#utility.yul\":16812:16847   */\n      eq\n        /* \"#utility.yul\":16802:16865   */\n      tag_402\n      jumpi\n        /* \"#utility.yul\":16861:16862   */\n      0x00\n        /* \"#utility.yul\":16858:16859   */\n      dup1\n        /* \"#utility.yul\":16851:16863   */\n      revert\n        /* \"#utility.yul\":16802:16865   */\n    tag_402:\n        /* \"#utility.yul\":16749:16871   */\n      pop\n      jump\t// out\n        /* \"#utility.yul\":16877:16997   */\n    tag_211:\n        /* \"#utility.yul\":16949:16972   */\n      tag_404\n        /* \"#utility.yul\":16966:16971   */\n      dup2\n        /* \"#utility.yul\":16949:16972   */\n      tag_357\n      jump\t// in\n    tag_404:\n        /* \"#utility.yul\":16942:16947   */\n      dup2\n        /* \"#utility.yul\":16939:16973   */\n      eq\n        /* \"#utility.yul\":16929:16991   */\n      tag_405\n      jumpi\n        /* \"#utility.yul\":16987:16988   */\n      0x00\n        /* \"#utility.yul\":16984:16985   */\n      dup1\n        /* \"#utility.yul\":16977:16989   */\n      revert\n        /* \"#utility.yul\":16929:16991   */\n    tag_405:\n        /* \"#utility.yul\":16877:16997   */\n      pop\n      jump\t// out\n        /* \"#utility.yul\":17003:17125   */\n    tag_221:\n        /* \"#utility.yul\":17076:17100   */\n      tag_407\n        /* \"#utility.yul\":17094:17099   */\n      dup2\n        /* \"#utility.yul\":17076:17100   */\n      tag_342\n      jump\t// in\n    tag_407:\n        /* \"#utility.yul\":17069:17074   */\n      dup2\n        /* \"#utility.yul\":17066:17101   */\n      eq\n        /* \"#utility.yul\":17056:17119   */\n      tag_408\n      jumpi\n        /* \"#utility.yul\":17115:17116   */\n      0x00\n        /* \"#utility.yul\":17112:17113   */\n      dup1\n        /* \"#utility.yul\":17105:17117   */\n      revert\n        /* \"#utility.yul\":17056:17119   */\n    tag_408:\n        /* \"#utility.yul\":17003:17125   */\n      pop\n      jump\t// out\n\n    auxdata: 0xa2646970667358221220dc5f5e91b91f6a76f176be21c6cd908a805c86d23c52eca8ba7c4a964c73774964736f6c63430008070033\n}\n",
				"bytecode": {
					"linkReferences": {},
					"object": "608060405260405180608001604052806040518060400160405280600381526020017f415043000000000000000000000000000000000000000000000000000000000081525081526020016040518060400160405280600381526020017f504450000000000000000000000000000000000000000000000000000000000081525081526020016040518060400160405280600281526020017f4c5000000000000000000000000000000000000000000000000000000000000081525081526020016040518060400160405280600481526020017f4e4e50500000000000000000000000000000000000000000000000000000000081525081525060039060046200010b92919062000120565b503480156200011957600080fd5b506200030a565b82805482825590600052602060002090810192821562000174579160200282015b82811115620001735782518290805190602001906200016292919062000187565b509160200191906001019062000141565b5b50905062000183919062000218565b5090565b8280546200019590620002a5565b90600052602060002090601f016020900481019282620001b9576000855562000205565b82601f10620001d457805160ff191683800117855562000205565b8280016001018555821562000205579182015b8281111562000204578251825591602001919060010190620001e7565b5b50905062000214919062000240565b5090565b5b808211156200023c57600081816200023291906200025f565b5060010162000219565b5090565b5b808211156200025b57600081600090555060010162000241565b5090565b5080546200026d90620002a5565b6000825580601f10620002815750620002a2565b601f016020900490600052602060002090810190620002a1919062000240565b5b50565b60006002820490506001821680620002be57607f821691505b60208210811415620002d557620002d4620002db565b5b50919050565b7f4e487b7100000000000000000000000000000000000000000000000000000000600052602260045260246000fd5b6117b8806200031a6000396000f3fe608060405234801561001057600080fd5b50600436106100a95760003560e01c806336568abe1161007157806336568abe1461017857806391d14854146101945780639e5f0349146101c4578063a217fddf146101f4578063d547741f14610212578063d59d2a581461022e576100a9565b806301ffc9a7146100ae578063248a9ca3146100de5780632e0d37bb1461010e5780632f2ff15d1461012c578063314fd68f14610148575b600080fd5b6100c860048036038101906100c39190610f37565b61024a565b6040516100d591906111ed565b60405180910390f35b6100f860048036038101906100f39190610eca565b6102c4565b6040516101059190611208565b60405180910390f35b6101166102e3565b6040516101239190611208565b60405180910390f35b61014660048036038101906101419190610ef7565b610307565b005b610162600480360381019061015d9190610fd3565b610328565b60405161016f9190611223565b60405180910390f35b610192600480360381019061018d9190610ef7565b6103d4565b005b6101ae60048036038101906101a99190610ef7565b610457565b6040516101bb91906111ed565b60405180910390f35b6101de60048036038101906101d99190610fd3565b6104c1565b6040516101eb9190611285565b60405180910390f35b6101fc610668565b6040516102099190611208565b60405180910390f35b61022c60048036038101906102279190610ef7565b61066f565b005b61024860048036038101906102439190610f64565b610690565b005b60007f7965db0b000000000000000000000000000000000000000000000000000000007bffffffffffffffffffffffffffffffffffffffffffffffffffffffff1916827bffffffffffffffffffffffffffffffffffffffffffffffffffffffff191614806102bd57506102bc8261077f565b5b9050919050565b6000806000838152602001908152602001600020600101549050919050565b7f082f6ed76e0352438e6a6e35c77719c3f04bf277fdc8fec7e5ff5f65e001d90281565b610310826102c4565b610319816107e9565b61032383836107fd565b505050565b6003818154811061033857600080fd5b906000526020600020016000915090508054610353906114cf565b80601f016020809104026020016040519081016040528092919081815260200182805461037f906114cf565b80156103cc5780601f106103a1576101008083540402835291602001916103cc565b820191906000526020600020905b8154815290600101906020018083116103af57829003601f168201915b505050505081565b6103dc6108dd565b73ffffffffffffffffffffffffffffffffffffffff168173ffffffffffffffffffffffffffffffffffffffff1614610449576040517f08c379a000000000000000000000000000000000000000000000000000000000815260040161044090611265565b60405180910390fd5b61045382826108e5565b5050565b600080600084815260200190815260200160002060000160008373ffffffffffffffffffffffffffffffffffffffff1673ffffffffffffffffffffffffffffffffffffffff16815260200190815260200160002060009054906101000a900460ff16905092915050565b6104c9610c9f565b600460008381526020019081526020016000206040518060600160405290816000820180546104f7906114cf565b80601f0160208091040260200160405190810160405280929190818152602001828054610523906114cf565b80156105705780601f1061054557610100808354040283529160200191610570565b820191906000526020600020905b81548152906001019060200180831161055357829003601f168201915b505050505081526020016001820160009054906101000a900473ffffffffffffffffffffffffffffffffffffffff1673ffffffffffffffffffffffffffffffffffffffff1673ffffffffffffffffffffffffffffffffffffffff1681526020016002820180546105df906114cf565b80601f016020809104026020016040519081016040528092919081815260200182805461060b906114cf565b80156106585780601f1061062d57610100808354040283529160200191610658565b820191906000526020600020905b81548152906001019060200180831161063b57829003601f168201915b5050505050815250509050919050565b6000801b81565b610678826102c4565b610681816107e9565b61068b83836108e5565b505050565b8260046000600254815260200190815260200160002060000190805190602001906106bc929190610cd6565b508160046000600254815260200190815260200160002060010160006101000a81548173ffffffffffffffffffffffffffffffffffffffff021916908373ffffffffffffffffffffffffffffffffffffffff16021790555060038181548110610728576107276115d9565b5b90600052602060002001600460006002548152602001908152602001600020600201908054610756906114cf565b610761929190610d5c565b506002600081548092919061077590611532565b9190505550505050565b60007f01ffc9a7000000000000000000000000000000000000000000000000000000007bffffffffffffffffffffffffffffffffffffffffffffffffffffffff1916827bffffffffffffffffffffffffffffffffffffffffffffffffffffffff1916149050919050565b6107fa816107f56108dd565b6109c6565b50565b6108078282610457565b6108d957600160008084815260200190815260200160002060000160008373ffffffffffffffffffffffffffffffffffffffff1673ffffffffffffffffffffffffffffffffffffffff16815260200190815260200160002060006101000a81548160ff02191690831515021790555061087e6108dd565b73ffffffffffffffffffffffffffffffffffffffff168173ffffffffffffffffffffffffffffffffffffffff16837f2f8788117e7eff1d82e926ec794901d17c78024a50270940304540a733656f0d60405160405180910390a45b5050565b600033905090565b6108ef8282610457565b156109c257600080600084815260200190815260200160002060000160008373ffffffffffffffffffffffffffffffffffffffff1673ffffffffffffffffffffffffffffffffffffffff16815260200190815260200160002060006101000a81548160ff0219169083151502179055506109676108dd565b73ffffffffffffffffffffffffffffffffffffffff168173ffffffffffffffffffffffffffffffffffffffff16837ff6391f5c32d9c69d2a47ea670b442974b53935d1edc7fd64eb21e047a839171b60405160405180910390a45b5050565b6109d08282610457565b610a5f576109f58173ffffffffffffffffffffffffffffffffffffffff166014610a63565b610a038360001c6020610a63565b604051602001610a149291906111b3565b6040516020818303038152906040526040517f08c379a0000000000000000000000000000000000000000000000000000000008152600401610a569190611223565b60405180910390fd5b5050565b606060006002836002610a76919061138b565b610a809190611335565b67ffffffffffffffff811115610a9957610a98611608565b5b6040519080825280601f01601f191660200182016040528015610acb5781602001600182028036833780820191505090505b5090507f300000000000000000000000000000000000000000000000000000000000000081600081518110610b0357610b026115d9565b5b60200101907effffffffffffffffffffffffffffffffffffffffffffffffffffffffffffff1916908160001a9053507f780000000000000000000000000000000000000000000000000000000000000081600181518110610b6757610b666115d9565b5b60200101907effffffffffffffffffffffffffffffffffffffffffffffffffffffffffffff1916908160001a90535060006001846002610ba7919061138b565b610bb19190611335565b90505b6001811115610c51577f3031323334353637383961626364656600000000000000000000000000000000600f861660108110610bf357610bf26115d9565b5b1a60f81b828281518110610c0a57610c096115d9565b5b60200101907effffffffffffffffffffffffffffffffffffffffffffffffffffffffffffff1916908160001a905350600485901c945080610c4a906114a5565b9050610bb4565b5060008414610c95576040517f08c379a0000000000000000000000000000000000000000000000000000000008152600401610c8c90611245565b60405180910390fd5b8091505092915050565b604051806060016040528060608152602001600073ffffffffffffffffffffffffffffffffffffffff168152602001606081525090565b828054610ce2906114cf565b90600052602060002090601f016020900481019282610d045760008555610d4b565b82601f10610d1d57805160ff1916838001178555610d4b565b82800160010185558215610d4b579182015b82811115610d4a578251825591602001919060010190610d2f565b5b509050610d589190610de9565b5090565b828054610d68906114cf565b90600052602060002090601f016020900481019282610d8a5760008555610dd8565b82601f10610d9b5780548555610dd8565b82800160010185558215610dd857600052602060002091601f016020900482015b82811115610dd7578254825591600101919060010190610dbc565b5b509050610de59190610de9565b5090565b5b80821115610e02576000816000905550600101610dea565b5090565b6000610e19610e14846112cc565b6112a7565b905082815260208101848484011115610e3557610e3461163c565b5b610e40848285611463565b509392505050565b600081359050610e5781611726565b92915050565b600081359050610e6c8161173d565b92915050565b600081359050610e8181611754565b92915050565b600082601f830112610e9c57610e9b611637565b5b8135610eac848260208601610e06565b91505092915050565b600081359050610ec48161176b565b92915050565b600060208284031215610ee057610edf611646565b5b6000610eee84828501610e5d565b91505092915050565b60008060408385031215610f0e57610f0d611646565b5b6000610f1c85828601610e5d565b9250506020610f2d85828601610e48565b9150509250929050565b600060208284031215610f4d57610f4c611646565b5b6000610f5b84828501610e72565b91505092915050565b600080600060608486031215610f7d57610f7c611646565b5b600084013567ffffffffffffffff811115610f9b57610f9a611641565b5b610fa786828701610e87565b9350506020610fb886828701610e48565b9250506040610fc986828701610eb5565b9150509250925092565b600060208284031215610fe957610fe8611646565b5b6000610ff784828501610eb5565b91505092915050565b611009816113e5565b82525050565b611018816113f7565b82525050565b61102781611403565b82525050565b6000611038826112fd565b6110428185611308565b9350611052818560208601611472565b61105b8161164b565b840191505092915050565b6000611071826112fd565b61107b8185611319565b935061108b818560208601611472565b6110948161164b565b840191505092915050565b60006110aa826112fd565b6110b4818561132a565b93506110c4818560208601611472565b80840191505092915050565b60006110dd602083611319565b91506110e88261165c565b602082019050919050565b600061110060178361132a565b915061110b82611685565b601782019050919050565b600061112360118361132a565b915061112e826116ae565b601182019050919050565b6000611146602f83611319565b9150611151826116d7565b604082019050919050565b60006060830160008301518482036000860152611179828261102d565b915050602083015161118e6020860182611000565b50604083015184820360408601526111a6828261102d565b9150508091505092915050565b60006111be826110f3565b91506111ca828561109f565b91506111d582611116565b91506111e1828461109f565b91508190509392505050565b6000602082019050611202600083018461100f565b92915050565b600060208201905061121d600083018461101e565b92915050565b6000602082019050818103600083015261123d8184611066565b905092915050565b6000602082019050818103600083015261125e816110d0565b9050919050565b6000602082019050818103600083015261127e81611139565b9050919050565b6000602082019050818103600083015261129f818461115c565b905092915050565b60006112b16112c2565b90506112bd8282611501565b919050565b6000604051905090565b600067ffffffffffffffff8211156112e7576112e6611608565b5b6112f08261164b565b9050602081019050919050565b600081519050919050565b600082825260208201905092915050565b600082825260208201905092915050565b600081905092915050565b600061134082611459565b915061134b83611459565b9250827fffffffffffffffffffffffffffffffffffffffffffffffffffffffffffffffff038211156113805761137f61157b565b5b828201905092915050565b600061139682611459565b91506113a183611459565b9250817fffffffffffffffffffffffffffffffffffffffffffffffffffffffffffffffff04831182151516156113da576113d961157b565b5b828202905092915050565b60006113f082611439565b9050919050565b60008115159050919050565b6000819050919050565b60007fffffffff0000000000000000000000000000000000000000000000000000000082169050919050565b600073ffffffffffffffffffffffffffffffffffffffff82169050919050565b6000819050919050565b82818337600083830152505050565b60005b83811015611490578082015181840152602081019050611475565b8381111561149f576000848401525b50505050565b60006114b082611459565b915060008214156114c4576114c361157b565b5b600182039050919050565b600060028204905060018216806114e757607f821691505b602082108114156114fb576114fa6115aa565b5b50919050565b61150a8261164b565b810181811067ffffffffffffffff8211171561152957611528611608565b5b80604052505050565b600061153d82611459565b91507fffffffffffffffffffffffffffffffffffffffffffffffffffffffffffffffff8214156115705761156f61157b565b5b600182019050919050565b7f4e487b7100000000000000000000000000000000000000000000000000000000600052601160045260246000fd5b7f4e487b7100000000000000000000000000000000000000000000000000000000600052602260045260246000fd5b7f4e487b7100000000000000000000000000000000000000000000000000000000600052603260045260246000fd5b7f4e487b7100000000000000000000000000000000000000000000000000000000600052604160045260246000fd5b600080fd5b600080fd5b600080fd5b600080fd5b6000601f19601f8301169050919050565b7f537472696e67733a20686578206c656e67746820696e73756666696369656e74600082015250565b7f416363657373436f6e74726f6c3a206163636f756e7420000000000000000000600082015250565b7f206973206d697373696e6720726f6c6520000000000000000000000000000000600082015250565b7f416363657373436f6e74726f6c3a2063616e206f6e6c792072656e6f756e636560008201527f20726f6c657320666f722073656c660000000000000000000000000000000000602082015250565b61172f816113e5565b811461173a57600080fd5b50565b61174681611403565b811461175157600080fd5b50565b61175d8161140d565b811461176857600080fd5b50565b61177481611459565b811461177f57600080fd5b5056fea2646970667358221220dc5f5e91b91f6a76f176be21c6cd908a805c86d23c52eca8ba7c4a964c73774964736f6c63430008070033",
					"opcodes": "PUSH1 0x80 PUSH1 0x40 MSTORE PUSH1 0x40 MLOAD DUP1 PUSH1 0x80 ADD PUSH1 0x40 MSTORE DUP1 PUSH1 0x40 MLOAD DUP1 PUSH1 0x40 ADD PUSH1 0x40 MSTORE DUP1 PUSH1 0x3 DUP2 MSTORE PUSH1 0x20 ADD PUSH32 0x4150430000000000000000000000000000000000000000000000000000000000 DUP2 MSTORE POP DUP2 MSTORE PUSH1 0x20 ADD PUSH1 0x40 MLOAD DUP1 PUSH1 0x40 ADD PUSH1 0x40 MSTORE DUP1 PUSH1 0x3 DUP2 MSTORE PUSH1 0x20 ADD PUSH32 0x5044500000000000000000000000000000000000000000000000000000000000 DUP2 MSTORE POP DUP2 MSTORE PUSH1 0x20 ADD PUSH1 0x40 MLOAD DUP1 PUSH1 0x40 ADD PUSH1 0x40 MSTORE DUP1 PUSH1 0x2 DUP2 MSTORE PUSH1 0x20 ADD PUSH32 0x4C50000000000000000000000000000000000000000000000000000000000000 DUP2 MSTORE POP DUP2 MSTORE PUSH1 0x20 ADD PUSH1 0x40 MLOAD DUP1 PUSH1 0x40 ADD PUSH1 0x40 MSTORE DUP1 PUSH1 0x4 DUP2 MSTORE PUSH1 0x20 ADD PUSH32 0x4E4E505000000000000000000000000000000000000000000000000000000000 DUP2 MSTORE POP DUP2 MSTORE POP PUSH1 0x3 SWAP1 PUSH1 0x4 PUSH3 0x10B SWAP3 SWAP2 SWAP1 PUSH3 0x120 JUMP JUMPDEST POP CALLVALUE DUP1 ISZERO PUSH3 0x119 JUMPI PUSH1 0x0 DUP1 REVERT JUMPDEST POP PUSH3 0x30A JUMP JUMPDEST DUP3 DUP1 SLOAD DUP3 DUP3 SSTORE SWAP1 PUSH1 0x0 MSTORE PUSH1 0x20 PUSH1 0x0 KECCAK256 SWAP1 DUP2 ADD SWAP3 DUP3 ISZERO PUSH3 0x174 JUMPI SWAP2 PUSH1 0x20 MUL DUP3 ADD JUMPDEST DUP3 DUP2 GT ISZERO PUSH3 0x173 JUMPI DUP3 MLOAD DUP3 SWAP1 DUP1 MLOAD SWAP1 PUSH1 0x20 ADD SWAP1 PUSH3 0x162 SWAP3 SWAP2 SWAP1 PUSH3 0x187 JUMP JUMPDEST POP SWAP2 PUSH1 0x20 ADD SWAP2 SWAP1 PUSH1 0x1 ADD SWAP1 PUSH3 0x141 JUMP JUMPDEST JUMPDEST POP SWAP1 POP PUSH3 0x183 SWAP2 SWAP1 PUSH3 0x218 JUMP JUMPDEST POP SWAP1 JUMP JUMPDEST DUP3 DUP1 SLOAD PUSH3 0x195 SWAP1 PUSH3 0x2A5 JUMP JUMPDEST SWAP1 PUSH1 0x0 MSTORE PUSH1 0x20 PUSH1 0x0 KECCAK256 SWAP1 PUSH1 0x1F ADD PUSH1 0x20 SWAP1 DIV DUP2 ADD SWAP3 DUP3 PUSH3 0x1B9 JUMPI PUSH1 0x0 DUP6 SSTORE PUSH3 0x205 JUMP JUMPDEST DUP3 PUSH1 0x1F LT PUSH3 0x1D4 JUMPI DUP1 MLOAD PUSH1 0xFF NOT AND DUP4 DUP1 ADD OR DUP6 SSTORE PUSH3 0x205 JUMP JUMPDEST DUP3 DUP1 ADD PUSH1 0x1 ADD DUP6 SSTORE DUP3 ISZERO PUSH3 0x205 JUMPI SWAP2 DUP3 ADD JUMPDEST DUP3 DUP2 GT ISZERO PUSH3 0x204 JUMPI DUP3 MLOAD DUP3 SSTORE SWAP2 PUSH1 0x20 ADD SWAP2 SWAP1 PUSH1 0x1 ADD SWAP1 PUSH3 0x1E7 JUMP JUMPDEST JUMPDEST POP SWAP1 POP PUSH3 0x214 SWAP2 SWAP1 PUSH3 0x240 JUMP JUMPDEST POP SWAP1 JUMP JUMPDEST JUMPDEST DUP1 DUP3 GT ISZERO PUSH3 0x23C JUMPI PUSH1 0x0 DUP2 DUP2 PUSH3 0x232 SWAP2 SWAP1 PUSH3 0x25F JUMP JUMPDEST POP PUSH1 0x1 ADD PUSH3 0x219 JUMP JUMPDEST POP SWAP1 JUMP JUMPDEST JUMPDEST DUP1 DUP3 GT ISZERO PUSH3 0x25B JUMPI PUSH1 0x0 DUP2 PUSH1 0x0 SWAP1 SSTORE POP PUSH1 0x1 ADD PUSH3 0x241 JUMP JUMPDEST POP SWAP1 JUMP JUMPDEST POP DUP1 SLOAD PUSH3 0x26D SWAP1 PUSH3 0x2A5 JUMP JUMPDEST PUSH1 0x0 DUP3 SSTORE DUP1 PUSH1 0x1F LT PUSH3 0x281 JUMPI POP PUSH3 0x2A2 JUMP JUMPDEST PUSH1 0x1F ADD PUSH1 0x20 SWAP1 DIV SWAP1 PUSH1 0x0 MSTORE PUSH1 0x20 PUSH1 0x0 KECCAK256 SWAP1 DUP2 ADD SWAP1 PUSH3 0x2A1 SWAP2 SWAP1 PUSH3 0x240 JUMP JUMPDEST JUMPDEST POP JUMP JUMPDEST PUSH1 0x0 PUSH1 0x2 DUP3 DIV SWAP1 POP PUSH1 0x1 DUP3 AND DUP1 PUSH3 0x2BE JUMPI PUSH1 0x7F DUP3 AND SWAP2 POP JUMPDEST PUSH1 0x20 DUP3 LT DUP2 EQ ISZERO PUSH3 0x2D5 JUMPI PUSH3 0x2D4 PUSH3 0x2DB JUMP JUMPDEST JUMPDEST POP SWAP2 SWAP1 POP JUMP JUMPDEST PUSH32 0x4E487B7100000000000000000000000000000000000000000000000000000000 PUSH1 0x0 MSTORE PUSH1 0x22 PUSH1 0x4 MSTORE PUSH1 0x24 PUSH1 0x0 REVERT JUMPDEST PUSH2 0x17B8 DUP1 PUSH3 0x31A PUSH1 0x0 CODECOPY PUSH1 0x0 RETURN INVALID PUSH1 0x80 PUSH1 0x40 MSTORE CALLVALUE DUP1 ISZERO PUSH2 0x10 JUMPI PUSH1 0x0 DUP1 REVERT JUMPDEST POP PUSH1 0x4 CALLDATASIZE LT PUSH2 0xA9 JUMPI PUSH1 0x0 CALLDATALOAD PUSH1 0xE0 SHR DUP1 PUSH4 0x36568ABE GT PUSH2 0x71 JUMPI DUP1 PUSH4 0x36568ABE EQ PUSH2 0x178 JUMPI DUP1 PUSH4 0x91D14854 EQ PUSH2 0x194 JUMPI DUP1 PUSH4 0x9E5F0349 EQ PUSH2 0x1C4 JUMPI DUP1 PUSH4 0xA217FDDF EQ PUSH2 0x1F4 JUMPI DUP1 PUSH4 0xD547741F EQ PUSH2 0x212 JUMPI DUP1 PUSH4 0xD59D2A58 EQ PUSH2 0x22E JUMPI PUSH2 0xA9 JUMP JUMPDEST DUP1 PUSH4 0x1FFC9A7 EQ PUSH2 0xAE JUMPI DUP1 PUSH4 0x248A9CA3 EQ PUSH2 0xDE JUMPI DUP1 PUSH4 0x2E0D37BB EQ PUSH2 0x10E JUMPI DUP1 PUSH4 0x2F2FF15D EQ PUSH2 0x12C JUMPI DUP1 PUSH4 0x314FD68F EQ PUSH2 0x148 JUMPI JUMPDEST PUSH1 0x0 DUP1 REVERT JUMPDEST PUSH2 0xC8 PUSH1 0x4 DUP1 CALLDATASIZE SUB DUP2 ADD SWAP1 PUSH2 0xC3 SWAP2 SWAP1 PUSH2 0xF37 JUMP JUMPDEST PUSH2 0x24A JUMP JUMPDEST PUSH1 0x40 MLOAD PUSH2 0xD5 SWAP2 SWAP1 PUSH2 0x11ED JUMP JUMPDEST PUSH1 0x40 MLOAD DUP1 SWAP2 SUB SWAP1 RETURN JUMPDEST PUSH2 0xF8 PUSH1 0x4 DUP1 CALLDATASIZE SUB DUP2 ADD SWAP1 PUSH2 0xF3 SWAP2 SWAP1 PUSH2 0xECA JUMP JUMPDEST PUSH2 0x2C4 JUMP JUMPDEST PUSH1 0x40 MLOAD PUSH2 0x105 SWAP2 SWAP1 PUSH2 0x1208 JUMP JUMPDEST PUSH1 0x40 MLOAD DUP1 SWAP2 SUB SWAP1 RETURN JUMPDEST PUSH2 0x116 PUSH2 0x2E3 JUMP JUMPDEST PUSH1 0x40 MLOAD PUSH2 0x123 SWAP2 SWAP1 PUSH2 0x1208 JUMP JUMPDEST PUSH1 0x40 MLOAD DUP1 SWAP2 SUB SWAP1 RETURN JUMPDEST PUSH2 0x146 PUSH1 0x4 DUP1 CALLDATASIZE SUB DUP2 ADD SWAP1 PUSH2 0x141 SWAP2 SWAP1 PUSH2 0xEF7 JUMP JUMPDEST PUSH2 0x307 JUMP JUMPDEST STOP JUMPDEST PUSH2 0x162 PUSH1 0x4 DUP1 CALLDATASIZE SUB DUP2 ADD SWAP1 PUSH2 0x15D SWAP2 SWAP1 PUSH2 0xFD3 JUMP JUMPDEST PUSH2 0x328 JUMP JUMPDEST PUSH1 0x40 MLOAD PUSH2 0x16F SWAP2 SWAP1 PUSH2 0x1223 JUMP JUMPDEST PUSH1 0x40 MLOAD DUP1 SWAP2 SUB SWAP1 RETURN JUMPDEST PUSH2 0x192 PUSH1 0x4 DUP1 CALLDATASIZE SUB DUP2 ADD SWAP1 PUSH2 0x18D SWAP2 SWAP1 PUSH2 0xEF7 JUMP JUMPDEST PUSH2 0x3D4 JUMP JUMPDEST STOP JUMPDEST PUSH2 0x1AE PUSH1 0x4 DUP1 CALLDATASIZE SUB DUP2 ADD SWAP1 PUSH2 0x1A9 SWAP2 SWAP1 PUSH2 0xEF7 JUMP JUMPDEST PUSH2 0x457 JUMP JUMPDEST PUSH1 0x40 MLOAD PUSH2 0x1BB SWAP2 SWAP1 PUSH2 0x11ED JUMP JUMPDEST PUSH1 0x40 MLOAD DUP1 SWAP2 SUB SWAP1 RETURN JUMPDEST PUSH2 0x1DE PUSH1 0x4 DUP1 CALLDATASIZE SUB DUP2 ADD SWAP1 PUSH2 0x1D9 SWAP2 SWAP1 PUSH2 0xFD3 JUMP JUMPDEST PUSH2 0x4C1 JUMP JUMPDEST PUSH1 0x40 MLOAD PUSH2 0x1EB SWAP2 SWAP1 PUSH2 0x1285 JUMP JUMPDEST PUSH1 0x40 MLOAD DUP1 SWAP2 SUB SWAP1 RETURN JUMPDEST PUSH2 0x1FC PUSH2 0x668 JUMP JUMPDEST PUSH1 0x40 MLOAD PUSH2 0x209 SWAP2 SWAP1 PUSH2 0x1208 JUMP JUMPDEST PUSH1 0x40 MLOAD DUP1 SWAP2 SUB SWAP1 RETURN JUMPDEST PUSH2 0x22C PUSH1 0x4 DUP1 CALLDATASIZE SUB DUP2 ADD SWAP1 PUSH2 0x227 SWAP2 SWAP1 PUSH2 0xEF7 JUMP JUMPDEST PUSH2 0x66F JUMP JUMPDEST STOP JUMPDEST PUSH2 0x248 PUSH1 0x4 DUP1 CALLDATASIZE SUB DUP2 ADD SWAP1 PUSH2 0x243 SWAP2 SWAP1 PUSH2 0xF64 JUMP JUMPDEST PUSH2 0x690 JUMP JUMPDEST STOP JUMPDEST PUSH1 0x0 PUSH32 0x7965DB0B00000000000000000000000000000000000000000000000000000000 PUSH28 0xFFFFFFFFFFFFFFFFFFFFFFFFFFFFFFFFFFFFFFFFFFFFFFFFFFFFFFFF NOT AND DUP3 PUSH28 0xFFFFFFFFFFFFFFFFFFFFFFFFFFFFFFFFFFFFFFFFFFFFFFFFFFFFFFFF NOT AND EQ DUP1 PUSH2 0x2BD JUMPI POP PUSH2 0x2BC DUP3 PUSH2 0x77F JUMP JUMPDEST JUMPDEST SWAP1 POP SWAP2 SWAP1 POP JUMP JUMPDEST PUSH1 0x0 DUP1 PUSH1 0x0 DUP4 DUP2 MSTORE PUSH1 0x20 ADD SWAP1 DUP2 MSTORE PUSH1 0x20 ADD PUSH1 0x0 KECCAK256 PUSH1 0x1 ADD SLOAD SWAP1 POP SWAP2 SWAP1 POP JUMP JUMPDEST PUSH32 0x82F6ED76E0352438E6A6E35C77719C3F04BF277FDC8FEC7E5FF5F65E001D902 DUP2 JUMP JUMPDEST PUSH2 0x310 DUP3 PUSH2 0x2C4 JUMP JUMPDEST PUSH2 0x319 DUP2 PUSH2 0x7E9 JUMP JUMPDEST PUSH2 0x323 DUP4 DUP4 PUSH2 0x7FD JUMP JUMPDEST POP POP POP JUMP JUMPDEST PUSH1 0x3 DUP2 DUP2 SLOAD DUP2 LT PUSH2 0x338 JUMPI PUSH1 0x0 DUP1 REVERT JUMPDEST SWAP1 PUSH1 0x0 MSTORE PUSH1 0x20 PUSH1 0x0 KECCAK256 ADD PUSH1 0x0 SWAP2 POP SWAP1 POP DUP1 SLOAD PUSH2 0x353 SWAP1 PUSH2 0x14CF JUMP JUMPDEST DUP1 PUSH1 0x1F ADD PUSH1 0x20 DUP1 SWAP2 DIV MUL PUSH1 0x20 ADD PUSH1 0x40 MLOAD SWAP1 DUP2 ADD PUSH1 0x40 MSTORE DUP1 SWAP3 SWAP2 SWAP1 DUP2 DUP2 MSTORE PUSH1 0x20 ADD DUP3 DUP1 SLOAD PUSH2 0x37F SWAP1 PUSH2 0x14CF JUMP JUMPDEST DUP1 ISZERO PUSH2 0x3CC JUMPI DUP1 PUSH1 0x1F LT PUSH2 0x3A1 JUMPI PUSH2 0x100 DUP1 DUP4 SLOAD DIV MUL DUP4 MSTORE SWAP2 PUSH1 0x20 ADD SWAP2 PUSH2 0x3CC JUMP JUMPDEST DUP3 ADD SWAP2 SWAP1 PUSH1 0x0 MSTORE PUSH1 0x20 PUSH1 0x0 KECCAK256 SWAP1 JUMPDEST DUP2 SLOAD DUP2 MSTORE SWAP1 PUSH1 0x1 ADD SWAP1 PUSH1 0x20 ADD DUP1 DUP4 GT PUSH2 0x3AF JUMPI DUP3 SWAP1 SUB PUSH1 0x1F AND DUP3 ADD SWAP2 JUMPDEST POP POP POP POP POP DUP2 JUMP JUMPDEST PUSH2 0x3DC PUSH2 0x8DD JUMP JUMPDEST PUSH20 0xFFFFFFFFFFFFFFFFFFFFFFFFFFFFFFFFFFFFFFFF AND DUP2 PUSH20 0xFFFFFFFFFFFFFFFFFFFFFFFFFFFFFFFFFFFFFFFF AND EQ PUSH2 0x449 JUMPI PUSH1 0x40 MLOAD PUSH32 0x8C379A000000000000000000000000000000000000000000000000000000000 DUP2 MSTORE PUSH1 0x4 ADD PUSH2 0x440 SWAP1 PUSH2 0x1265 JUMP JUMPDEST PUSH1 0x40 MLOAD DUP1 SWAP2 SUB SWAP1 REVERT JUMPDEST PUSH2 0x453 DUP3 DUP3 PUSH2 0x8E5 JUMP JUMPDEST POP POP JUMP JUMPDEST PUSH1 0x0 DUP1 PUSH1 0x0 DUP5 DUP2 MSTORE PUSH1 0x20 ADD SWAP1 DUP2 MSTORE PUSH1 0x20 ADD PUSH1 0x0 KECCAK256 PUSH1 0x0 ADD PUSH1 0x0 DUP4 PUSH20 0xFFFFFFFFFFFFFFFFFFFFFFFFFFFFFFFFFFFFFFFF AND PUSH20 0xFFFFFFFFFFFFFFFFFFFFFFFFFFFFFFFFFFFFFFFF AND DUP2 MSTORE PUSH1 0x20 ADD SWAP1 DUP2 MSTORE PUSH1 0x20 ADD PUSH1 0x0 KECCAK256 PUSH1 0x0 SWAP1 SLOAD SWAP1 PUSH2 0x100 EXP SWAP1 DIV PUSH1 0xFF AND SWAP1 POP SWAP3 SWAP2 POP POP JUMP JUMPDEST PUSH2 0x4C9 PUSH2 0xC9F JUMP JUMPDEST PUSH1 0x4 PUSH1 0x0 DUP4 DUP2 MSTORE PUSH1 0x20 ADD SWAP1 DUP2 MSTORE PUSH1 0x20 ADD PUSH1 0x0 KECCAK256 PUSH1 0x40 MLOAD DUP1 PUSH1 0x60 ADD PUSH1 0x40 MSTORE SWAP1 DUP2 PUSH1 0x0 DUP3 ADD DUP1 SLOAD PUSH2 0x4F7 SWAP1 PUSH2 0x14CF JUMP JUMPDEST DUP1 PUSH1 0x1F ADD PUSH1 0x20 DUP1 SWAP2 DIV MUL PUSH1 0x20 ADD PUSH1 0x40 MLOAD SWAP1 DUP2 ADD PUSH1 0x40 MSTORE DUP1 SWAP3 SWAP2 SWAP1 DUP2 DUP2 MSTORE PUSH1 0x20 ADD DUP3 DUP1 SLOAD PUSH2 0x523 SWAP1 PUSH2 0x14CF JUMP JUMPDEST DUP1 ISZERO PUSH2 0x570 JUMPI DUP1 PUSH1 0x1F LT PUSH2 0x545 JUMPI PUSH2 0x100 DUP1 DUP4 SLOAD DIV MUL DUP4 MSTORE SWAP2 PUSH1 0x20 ADD SWAP2 PUSH2 0x570 JUMP JUMPDEST DUP3 ADD SWAP2 SWAP1 PUSH1 0x0 MSTORE PUSH1 0x20 PUSH1 0x0 KECCAK256 SWAP1 JUMPDEST DUP2 SLOAD DUP2 MSTORE SWAP1 PUSH1 0x1 ADD SWAP1 PUSH1 0x20 ADD DUP1 DUP4 GT PUSH2 0x553 JUMPI DUP3 SWAP1 SUB PUSH1 0x1F AND DUP3 ADD SWAP2 JUMPDEST POP POP POP POP POP DUP2 MSTORE PUSH1 0x20 ADD PUSH1 0x1 DUP3 ADD PUSH1 0x0 SWAP1 SLOAD SWAP1 PUSH2 0x100 EXP SWAP1 DIV PUSH20 0xFFFFFFFFFFFFFFFFFFFFFFFFFFFFFFFFFFFFFFFF AND PUSH20 0xFFFFFFFFFFFFFFFFFFFFFFFFFFFFFFFFFFFFFFFF AND PUSH20 0xFFFFFFFFFFFFFFFFFFFFFFFFFFFFFFFFFFFFFFFF AND DUP2 MSTORE PUSH1 0x20 ADD PUSH1 0x2 DUP3 ADD DUP1 SLOAD PUSH2 0x5DF SWAP1 PUSH2 0x14CF JUMP JUMPDEST DUP1 PUSH1 0x1F ADD PUSH1 0x20 DUP1 SWAP2 DIV MUL PUSH1 0x20 ADD PUSH1 0x40 MLOAD SWAP1 DUP2 ADD PUSH1 0x40 MSTORE DUP1 SWAP3 SWAP2 SWAP1 DUP2 DUP2 MSTORE PUSH1 0x20 ADD DUP3 DUP1 SLOAD PUSH2 0x60B SWAP1 PUSH2 0x14CF JUMP JUMPDEST DUP1 ISZERO PUSH2 0x658 JUMPI DUP1 PUSH1 0x1F LT PUSH2 0x62D JUMPI PUSH2 0x100 DUP1 DUP4 SLOAD DIV MUL DUP4 MSTORE SWAP2 PUSH1 0x20 ADD SWAP2 PUSH2 0x658 JUMP JUMPDEST DUP3 ADD SWAP2 SWAP1 PUSH1 0x0 MSTORE PUSH1 0x20 PUSH1 0x0 KECCAK256 SWAP1 JUMPDEST DUP2 SLOAD DUP2 MSTORE SWAP1 PUSH1 0x1 ADD SWAP1 PUSH1 0x20 ADD DUP1 DUP4 GT PUSH2 0x63B JUMPI DUP3 SWAP1 SUB PUSH1 0x1F AND DUP3 ADD SWAP2 JUMPDEST POP POP POP POP POP DUP2 MSTORE POP POP SWAP1 POP SWAP2 SWAP1 POP JUMP JUMPDEST PUSH1 0x0 DUP1 SHL DUP2 JUMP JUMPDEST PUSH2 0x678 DUP3 PUSH2 0x2C4 JUMP JUMPDEST PUSH2 0x681 DUP2 PUSH2 0x7E9 JUMP JUMPDEST PUSH2 0x68B DUP4 DUP4 PUSH2 0x8E5 JUMP JUMPDEST POP POP POP JUMP JUMPDEST DUP3 PUSH1 0x4 PUSH1 0x0 PUSH1 0x2 SLOAD DUP2 MSTORE PUSH1 0x20 ADD SWAP1 DUP2 MSTORE PUSH1 0x20 ADD PUSH1 0x0 KECCAK256 PUSH1 0x0 ADD SWAP1 DUP1 MLOAD SWAP1 PUSH1 0x20 ADD SWAP1 PUSH2 0x6BC SWAP3 SWAP2 SWAP1 PUSH2 0xCD6 JUMP JUMPDEST POP DUP2 PUSH1 0x4 PUSH1 0x0 PUSH1 0x2 SLOAD DUP2 MSTORE PUSH1 0x20 ADD SWAP1 DUP2 MSTORE PUSH1 0x20 ADD PUSH1 0x0 KECCAK256 PUSH1 0x1 ADD PUSH1 0x0 PUSH2 0x100 EXP DUP2 SLOAD DUP2 PUSH20 0xFFFFFFFFFFFFFFFFFFFFFFFFFFFFFFFFFFFFFFFF MUL NOT AND SWAP1 DUP4 PUSH20 0xFFFFFFFFFFFFFFFFFFFFFFFFFFFFFFFFFFFFFFFF AND MUL OR SWAP1 SSTORE POP PUSH1 0x3 DUP2 DUP2 SLOAD DUP2 LT PUSH2 0x728 JUMPI PUSH2 0x727 PUSH2 0x15D9 JUMP JUMPDEST JUMPDEST SWAP1 PUSH1 0x0 MSTORE PUSH1 0x20 PUSH1 0x0 KECCAK256 ADD PUSH1 0x4 PUSH1 0x0 PUSH1 0x2 SLOAD DUP2 MSTORE PUSH1 0x20 ADD SWAP1 DUP2 MSTORE PUSH1 0x20 ADD PUSH1 0x0 KECCAK256 PUSH1 0x2 ADD SWAP1 DUP1 SLOAD PUSH2 0x756 SWAP1 PUSH2 0x14CF JUMP JUMPDEST PUSH2 0x761 SWAP3 SWAP2 SWAP1 PUSH2 0xD5C JUMP JUMPDEST POP PUSH1 0x2 PUSH1 0x0 DUP2 SLOAD DUP1 SWAP3 SWAP2 SWAP1 PUSH2 0x775 SWAP1 PUSH2 0x1532 JUMP JUMPDEST SWAP2 SWAP1 POP SSTORE POP POP POP POP JUMP JUMPDEST PUSH1 0x0 PUSH32 0x1FFC9A700000000000000000000000000000000000000000000000000000000 PUSH28 0xFFFFFFFFFFFFFFFFFFFFFFFFFFFFFFFFFFFFFFFFFFFFFFFFFFFFFFFF NOT AND DUP3 PUSH28 0xFFFFFFFFFFFFFFFFFFFFFFFFFFFFFFFFFFFFFFFFFFFFFFFFFFFFFFFF NOT AND EQ SWAP1 POP SWAP2 SWAP1 POP JUMP JUMPDEST PUSH2 0x7FA DUP2 PUSH2 0x7F5 PUSH2 0x8DD JUMP JUMPDEST PUSH2 0x9C6 JUMP JUMPDEST POP JUMP JUMPDEST PUSH2 0x807 DUP3 DUP3 PUSH2 0x457 JUMP JUMPDEST PUSH2 0x8D9 JUMPI PUSH1 0x1 PUSH1 0x0 DUP1 DUP5 DUP2 MSTORE PUSH1 0x20 ADD SWAP1 DUP2 MSTORE PUSH1 0x20 ADD PUSH1 0x0 KECCAK256 PUSH1 0x0 ADD PUSH1 0x0 DUP4 PUSH20 0xFFFFFFFFFFFFFFFFFFFFFFFFFFFFFFFFFFFFFFFF AND PUSH20 0xFFFFFFFFFFFFFFFFFFFFFFFFFFFFFFFFFFFFFFFF AND DUP2 MSTORE PUSH1 0x20 ADD SWAP1 DUP2 MSTORE PUSH1 0x20 ADD PUSH1 0x0 KECCAK256 PUSH1 0x0 PUSH2 0x100 EXP DUP2 SLOAD DUP2 PUSH1 0xFF MUL NOT AND SWAP1 DUP4 ISZERO ISZERO MUL OR SWAP1 SSTORE POP PUSH2 0x87E PUSH2 0x8DD JUMP JUMPDEST PUSH20 0xFFFFFFFFFFFFFFFFFFFFFFFFFFFFFFFFFFFFFFFF AND DUP2 PUSH20 0xFFFFFFFFFFFFFFFFFFFFFFFFFFFFFFFFFFFFFFFF AND DUP4 PUSH32 0x2F8788117E7EFF1D82E926EC794901D17C78024A50270940304540A733656F0D PUSH1 0x40 MLOAD PUSH1 0x40 MLOAD DUP1 SWAP2 SUB SWAP1 LOG4 JUMPDEST POP POP JUMP JUMPDEST PUSH1 0x0 CALLER SWAP1 POP SWAP1 JUMP JUMPDEST PUSH2 0x8EF DUP3 DUP3 PUSH2 0x457 JUMP JUMPDEST ISZERO PUSH2 0x9C2 JUMPI PUSH1 0x0 DUP1 PUSH1 0x0 DUP5 DUP2 MSTORE PUSH1 0x20 ADD SWAP1 DUP2 MSTORE PUSH1 0x20 ADD PUSH1 0x0 KECCAK256 PUSH1 0x0 ADD PUSH1 0x0 DUP4 PUSH20 0xFFFFFFFFFFFFFFFFFFFFFFFFFFFFFFFFFFFFFFFF AND PUSH20 0xFFFFFFFFFFFFFFFFFFFFFFFFFFFFFFFFFFFFFFFF AND DUP2 MSTORE PUSH1 0x20 ADD SWAP1 DUP2 MSTORE PUSH1 0x20 ADD PUSH1 0x0 KECCAK256 PUSH1 0x0 PUSH2 0x100 EXP DUP2 SLOAD DUP2 PUSH1 0xFF MUL NOT AND SWAP1 DUP4 ISZERO ISZERO MUL OR SWAP1 SSTORE POP PUSH2 0x967 PUSH2 0x8DD JUMP JUMPDEST PUSH20 0xFFFFFFFFFFFFFFFFFFFFFFFFFFFFFFFFFFFFFFFF AND DUP2 PUSH20 0xFFFFFFFFFFFFFFFFFFFFFFFFFFFFFFFFFFFFFFFF AND DUP4 PUSH32 0xF6391F5C32D9C69D2A47EA670B442974B53935D1EDC7FD64EB21E047A839171B PUSH1 0x40 MLOAD PUSH1 0x40 MLOAD DUP1 SWAP2 SUB SWAP1 LOG4 JUMPDEST POP POP JUMP JUMPDEST PUSH2 0x9D0 DUP3 DUP3 PUSH2 0x457 JUMP JUMPDEST PUSH2 0xA5F JUMPI PUSH2 0x9F5 DUP2 PUSH20 0xFFFFFFFFFFFFFFFFFFFFFFFFFFFFFFFFFFFFFFFF AND PUSH1 0x14 PUSH2 0xA63 JUMP JUMPDEST PUSH2 0xA03 DUP4 PUSH1 0x0 SHR PUSH1 0x20 PUSH2 0xA63 JUMP JUMPDEST PUSH1 0x40 MLOAD PUSH1 0x20 ADD PUSH2 0xA14 SWAP3 SWAP2 SWAP1 PUSH2 0x11B3 JUMP JUMPDEST PUSH1 0x40 MLOAD PUSH1 0x20 DUP2 DUP4 SUB SUB DUP2 MSTORE SWAP1 PUSH1 0x40 MSTORE PUSH1 0x40 MLOAD PUSH32 0x8C379A000000000000000000000000000000000000000000000000000000000 DUP2 MSTORE PUSH1 0x4 ADD PUSH2 0xA56 SWAP2 SWAP1 PUSH2 0x1223 JUMP JUMPDEST PUSH1 0x40 MLOAD DUP1 SWAP2 SUB SWAP1 REVERT JUMPDEST POP POP JUMP JUMPDEST PUSH1 0x60 PUSH1 0x0 PUSH1 0x2 DUP4 PUSH1 0x2 PUSH2 0xA76 SWAP2 SWAP1 PUSH2 0x138B JUMP JUMPDEST PUSH2 0xA80 SWAP2 SWAP1 PUSH2 0x1335 JUMP JUMPDEST PUSH8 0xFFFFFFFFFFFFFFFF DUP2 GT ISZERO PUSH2 0xA99 JUMPI PUSH2 0xA98 PUSH2 0x1608 JUMP JUMPDEST JUMPDEST PUSH1 0x40 MLOAD SWAP1 DUP1 DUP3 MSTORE DUP1 PUSH1 0x1F ADD PUSH1 0x1F NOT AND PUSH1 0x20 ADD DUP3 ADD PUSH1 0x40 MSTORE DUP1 ISZERO PUSH2 0xACB JUMPI DUP2 PUSH1 0x20 ADD PUSH1 0x1 DUP3 MUL DUP1 CALLDATASIZE DUP4 CALLDATACOPY DUP1 DUP3 ADD SWAP2 POP POP SWAP1 POP JUMPDEST POP SWAP1 POP PUSH32 0x3000000000000000000000000000000000000000000000000000000000000000 DUP2 PUSH1 0x0 DUP2 MLOAD DUP2 LT PUSH2 0xB03 JUMPI PUSH2 0xB02 PUSH2 0x15D9 JUMP JUMPDEST JUMPDEST PUSH1 0x20 ADD ADD SWAP1 PUSH31 0xFFFFFFFFFFFFFFFFFFFFFFFFFFFFFFFFFFFFFFFFFFFFFFFFFFFFFFFFFFFFFF NOT AND SWAP1 DUP2 PUSH1 0x0 BYTE SWAP1 MSTORE8 POP PUSH32 0x7800000000000000000000000000000000000000000000000000000000000000 DUP2 PUSH1 0x1 DUP2 MLOAD DUP2 LT PUSH2 0xB67 JUMPI PUSH2 0xB66 PUSH2 0x15D9 JUMP JUMPDEST JUMPDEST PUSH1 0x20 ADD ADD SWAP1 PUSH31 0xFFFFFFFFFFFFFFFFFFFFFFFFFFFFFFFFFFFFFFFFFFFFFFFFFFFFFFFFFFFFFF NOT AND SWAP1 DUP2 PUSH1 0x0 BYTE SWAP1 MSTORE8 POP PUSH1 0x0 PUSH1 0x1 DUP5 PUSH1 0x2 PUSH2 0xBA7 SWAP2 SWAP1 PUSH2 0x138B JUMP JUMPDEST PUSH2 0xBB1 SWAP2 SWAP1 PUSH2 0x1335 JUMP JUMPDEST SWAP1 POP JUMPDEST PUSH1 0x1 DUP2 GT ISZERO PUSH2 0xC51 JUMPI PUSH32 0x3031323334353637383961626364656600000000000000000000000000000000 PUSH1 0xF DUP7 AND PUSH1 0x10 DUP2 LT PUSH2 0xBF3 JUMPI PUSH2 0xBF2 PUSH2 0x15D9 JUMP JUMPDEST JUMPDEST BYTE PUSH1 0xF8 SHL DUP3 DUP3 DUP2 MLOAD DUP2 LT PUSH2 0xC0A JUMPI PUSH2 0xC09 PUSH2 0x15D9 JUMP JUMPDEST JUMPDEST PUSH1 0x20 ADD ADD SWAP1 PUSH31 0xFFFFFFFFFFFFFFFFFFFFFFFFFFFFFFFFFFFFFFFFFFFFFFFFFFFFFFFFFFFFFF NOT AND SWAP1 DUP2 PUSH1 0x0 BYTE SWAP1 MSTORE8 POP PUSH1 0x4 DUP6 SWAP1 SHR SWAP5 POP DUP1 PUSH2 0xC4A SWAP1 PUSH2 0x14A5 JUMP JUMPDEST SWAP1 POP PUSH2 0xBB4 JUMP JUMPDEST POP PUSH1 0x0 DUP5 EQ PUSH2 0xC95 JUMPI PUSH1 0x40 MLOAD PUSH32 0x8C379A000000000000000000000000000000000000000000000000000000000 DUP2 MSTORE PUSH1 0x4 ADD PUSH2 0xC8C SWAP1 PUSH2 0x1245 JUMP JUMPDEST PUSH1 0x40 MLOAD DUP1 SWAP2 SUB SWAP1 REVERT JUMPDEST DUP1 SWAP2 POP POP SWAP3 SWAP2 POP POP JUMP JUMPDEST PUSH1 0x40 MLOAD DUP1 PUSH1 0x60 ADD PUSH1 0x40 MSTORE DUP1 PUSH1 0x60 DUP2 MSTORE PUSH1 0x20 ADD PUSH1 0x0 PUSH20 0xFFFFFFFFFFFFFFFFFFFFFFFFFFFFFFFFFFFFFFFF AND DUP2 MSTORE PUSH1 0x20 ADD PUSH1 0x60 DUP2 MSTORE POP SWAP1 JUMP JUMPDEST DUP3 DUP1 SLOAD PUSH2 0xCE2 SWAP1 PUSH2 0x14CF JUMP JUMPDEST SWAP1 PUSH1 0x0 MSTORE PUSH1 0x20 PUSH1 0x0 KECCAK256 SWAP1 PUSH1 0x1F ADD PUSH1 0x20 SWAP1 DIV DUP2 ADD SWAP3 DUP3 PUSH2 0xD04 JUMPI PUSH1 0x0 DUP6 SSTORE PUSH2 0xD4B JUMP JUMPDEST DUP3 PUSH1 0x1F LT PUSH2 0xD1D JUMPI DUP1 MLOAD PUSH1 0xFF NOT AND DUP4 DUP1 ADD OR DUP6 SSTORE PUSH2 0xD4B JUMP JUMPDEST DUP3 DUP1 ADD PUSH1 0x1 ADD DUP6 SSTORE DUP3 ISZERO PUSH2 0xD4B JUMPI SWAP2 DUP3 ADD JUMPDEST DUP3 DUP2 GT ISZERO PUSH2 0xD4A JUMPI DUP3 MLOAD DUP3 SSTORE SWAP2 PUSH1 0x20 ADD SWAP2 SWAP1 PUSH1 0x1 ADD SWAP1 PUSH2 0xD2F JUMP JUMPDEST JUMPDEST POP SWAP1 POP PUSH2 0xD58 SWAP2 SWAP1 PUSH2 0xDE9 JUMP JUMPDEST POP SWAP1 JUMP JUMPDEST DUP3 DUP1 SLOAD PUSH2 0xD68 SWAP1 PUSH2 0x14CF JUMP JUMPDEST SWAP1 PUSH1 0x0 MSTORE PUSH1 0x20 PUSH1 0x0 KECCAK256 SWAP1 PUSH1 0x1F ADD PUSH1 0x20 SWAP1 DIV DUP2 ADD SWAP3 DUP3 PUSH2 0xD8A JUMPI PUSH1 0x0 DUP6 SSTORE PUSH2 0xDD8 JUMP JUMPDEST DUP3 PUSH1 0x1F LT PUSH2 0xD9B JUMPI DUP1 SLOAD DUP6 SSTORE PUSH2 0xDD8 JUMP JUMPDEST DUP3 DUP1 ADD PUSH1 0x1 ADD DUP6 SSTORE DUP3 ISZERO PUSH2 0xDD8 JUMPI PUSH1 0x0 MSTORE PUSH1 0x20 PUSH1 0x0 KECCAK256 SWAP2 PUSH1 0x1F ADD PUSH1 0x20 SWAP1 DIV DUP3 ADD JUMPDEST DUP3 DUP2 GT ISZERO PUSH2 0xDD7 JUMPI DUP3 SLOAD DUP3 SSTORE SWAP2 PUSH1 0x1 ADD SWAP2 SWAP1 PUSH1 0x1 ADD SWAP1 PUSH2 0xDBC JUMP JUMPDEST JUMPDEST POP SWAP1 POP PUSH2 0xDE5 SWAP2 SWAP1 PUSH2 0xDE9 JUMP JUMPDEST POP SWAP1 JUMP JUMPDEST JUMPDEST DUP1 DUP3 GT ISZERO PUSH2 0xE02 JUMPI PUSH1 0x0 DUP2 PUSH1 0x0 SWAP1 SSTORE POP PUSH1 0x1 ADD PUSH2 0xDEA JUMP JUMPDEST POP SWAP1 JUMP JUMPDEST PUSH1 0x0 PUSH2 0xE19 PUSH2 0xE14 DUP5 PUSH2 0x12CC JUMP JUMPDEST PUSH2 0x12A7 JUMP JUMPDEST SWAP1 POP DUP3 DUP2 MSTORE PUSH1 0x20 DUP2 ADD DUP5 DUP5 DUP5 ADD GT ISZERO PUSH2 0xE35 JUMPI PUSH2 0xE34 PUSH2 0x163C JUMP JUMPDEST JUMPDEST PUSH2 0xE40 DUP5 DUP3 DUP6 PUSH2 0x1463 JUMP JUMPDEST POP SWAP4 SWAP3 POP POP POP JUMP JUMPDEST PUSH1 0x0 DUP2 CALLDATALOAD SWAP1 POP PUSH2 0xE57 DUP2 PUSH2 0x1726 JUMP JUMPDEST SWAP3 SWAP2 POP POP JUMP JUMPDEST PUSH1 0x0 DUP2 CALLDATALOAD SWAP1 POP PUSH2 0xE6C DUP2 PUSH2 0x173D JUMP JUMPDEST SWAP3 SWAP2 POP POP JUMP JUMPDEST PUSH1 0x0 DUP2 CALLDATALOAD SWAP1 POP PUSH2 0xE81 DUP2 PUSH2 0x1754 JUMP JUMPDEST SWAP3 SWAP2 POP POP JUMP JUMPDEST PUSH1 0x0 DUP3 PUSH1 0x1F DUP4 ADD SLT PUSH2 0xE9C JUMPI PUSH2 0xE9B PUSH2 0x1637 JUMP JUMPDEST JUMPDEST DUP2 CALLDATALOAD PUSH2 0xEAC DUP5 DUP3 PUSH1 0x20 DUP7 ADD PUSH2 0xE06 JUMP JUMPDEST SWAP2 POP POP SWAP3 SWAP2 POP POP JUMP JUMPDEST PUSH1 0x0 DUP2 CALLDATALOAD SWAP1 POP PUSH2 0xEC4 DUP2 PUSH2 0x176B JUMP JUMPDEST SWAP3 SWAP2 POP POP JUMP JUMPDEST PUSH1 0x0 PUSH1 0x20 DUP3 DUP5 SUB SLT ISZERO PUSH2 0xEE0 JUMPI PUSH2 0xEDF PUSH2 0x1646 JUMP JUMPDEST JUMPDEST PUSH1 0x0 PUSH2 0xEEE DUP5 DUP3 DUP6 ADD PUSH2 0xE5D JUMP JUMPDEST SWAP2 POP POP SWAP3 SWAP2 POP POP JUMP JUMPDEST PUSH1 0x0 DUP1 PUSH1 0x40 DUP4 DUP6 SUB SLT ISZERO PUSH2 0xF0E JUMPI PUSH2 0xF0D PUSH2 0x1646 JUMP JUMPDEST JUMPDEST PUSH1 0x0 PUSH2 0xF1C DUP6 DUP3 DUP7 ADD PUSH2 0xE5D JUMP JUMPDEST SWAP3 POP POP PUSH1 0x20 PUSH2 0xF2D DUP6 DUP3 DUP7 ADD PUSH2 0xE48 JUMP JUMPDEST SWAP2 POP POP SWAP3 POP SWAP3 SWAP1 POP JUMP JUMPDEST PUSH1 0x0 PUSH1 0x20 DUP3 DUP5 SUB SLT ISZERO PUSH2 0xF4D JUMPI PUSH2 0xF4C PUSH2 0x1646 JUMP JUMPDEST JUMPDEST PUSH1 0x0 PUSH2 0xF5B DUP5 DUP3 DUP6 ADD PUSH2 0xE72 JUMP JUMPDEST SWAP2 POP POP SWAP3 SWAP2 POP POP JUMP JUMPDEST PUSH1 0x0 DUP1 PUSH1 0x0 PUSH1 0x60 DUP5 DUP7 SUB SLT ISZERO PUSH2 0xF7D JUMPI PUSH2 0xF7C PUSH2 0x1646 JUMP JUMPDEST JUMPDEST PUSH1 0x0 DUP5 ADD CALLDATALOAD PUSH8 0xFFFFFFFFFFFFFFFF DUP2 GT ISZERO PUSH2 0xF9B JUMPI PUSH2 0xF9A PUSH2 0x1641 JUMP JUMPDEST JUMPDEST PUSH2 0xFA7 DUP7 DUP3 DUP8 ADD PUSH2 0xE87 JUMP JUMPDEST SWAP4 POP POP PUSH1 0x20 PUSH2 0xFB8 DUP7 DUP3 DUP8 ADD PUSH2 0xE48 JUMP JUMPDEST SWAP3 POP POP PUSH1 0x40 PUSH2 0xFC9 DUP7 DUP3 DUP8 ADD PUSH2 0xEB5 JUMP JUMPDEST SWAP2 POP POP SWAP3 POP SWAP3 POP SWAP3 JUMP JUMPDEST PUSH1 0x0 PUSH1 0x20 DUP3 DUP5 SUB SLT ISZERO PUSH2 0xFE9 JUMPI PUSH2 0xFE8 PUSH2 0x1646 JUMP JUMPDEST JUMPDEST PUSH1 0x0 PUSH2 0xFF7 DUP5 DUP3 DUP6 ADD PUSH2 0xEB5 JUMP JUMPDEST SWAP2 POP POP SWAP3 SWAP2 POP POP JUMP JUMPDEST PUSH2 0x1009 DUP2 PUSH2 0x13E5 JUMP JUMPDEST DUP3 MSTORE POP POP JUMP JUMPDEST PUSH2 0x1018 DUP2 PUSH2 0x13F7 JUMP JUMPDEST DUP3 MSTORE POP POP JUMP JUMPDEST PUSH2 0x1027 DUP2 PUSH2 0x1403 JUMP JUMPDEST DUP3 MSTORE POP POP JUMP JUMPDEST PUSH1 0x0 PUSH2 0x1038 DUP3 PUSH2 0x12FD JUMP JUMPDEST PUSH2 0x1042 DUP2 DUP6 PUSH2 0x1308 JUMP JUMPDEST SWAP4 POP PUSH2 0x1052 DUP2 DUP6 PUSH1 0x20 DUP7 ADD PUSH2 0x1472 JUMP JUMPDEST PUSH2 0x105B DUP2 PUSH2 0x164B JUMP JUMPDEST DUP5 ADD SWAP2 POP POP SWAP3 SWAP2 POP POP JUMP JUMPDEST PUSH1 0x0 PUSH2 0x1071 DUP3 PUSH2 0x12FD JUMP JUMPDEST PUSH2 0x107B DUP2 DUP6 PUSH2 0x1319 JUMP JUMPDEST SWAP4 POP PUSH2 0x108B DUP2 DUP6 PUSH1 0x20 DUP7 ADD PUSH2 0x1472 JUMP JUMPDEST PUSH2 0x1094 DUP2 PUSH2 0x164B JUMP JUMPDEST DUP5 ADD SWAP2 POP POP SWAP3 SWAP2 POP POP JUMP JUMPDEST PUSH1 0x0 PUSH2 0x10AA DUP3 PUSH2 0x12FD JUMP JUMPDEST PUSH2 0x10B4 DUP2 DUP6 PUSH2 0x132A JUMP JUMPDEST SWAP4 POP PUSH2 0x10C4 DUP2 DUP6 PUSH1 0x20 DUP7 ADD PUSH2 0x1472 JUMP JUMPDEST DUP1 DUP5 ADD SWAP2 POP POP SWAP3 SWAP2 POP POP JUMP JUMPDEST PUSH1 0x0 PUSH2 0x10DD PUSH1 0x20 DUP4 PUSH2 0x1319 JUMP JUMPDEST SWAP2 POP PUSH2 0x10E8 DUP3 PUSH2 0x165C JUMP JUMPDEST PUSH1 0x20 DUP3 ADD SWAP1 POP SWAP2 SWAP1 POP JUMP JUMPDEST PUSH1 0x0 PUSH2 0x1100 PUSH1 0x17 DUP4 PUSH2 0x132A JUMP JUMPDEST SWAP2 POP PUSH2 0x110B DUP3 PUSH2 0x1685 JUMP JUMPDEST PUSH1 0x17 DUP3 ADD SWAP1 POP SWAP2 SWAP1 POP JUMP JUMPDEST PUSH1 0x0 PUSH2 0x1123 PUSH1 0x11 DUP4 PUSH2 0x132A JUMP JUMPDEST SWAP2 POP PUSH2 0x112E DUP3 PUSH2 0x16AE JUMP JUMPDEST PUSH1 0x11 DUP3 ADD SWAP1 POP SWAP2 SWAP1 POP JUMP JUMPDEST PUSH1 0x0 PUSH2 0x1146 PUSH1 0x2F DUP4 PUSH2 0x1319 JUMP JUMPDEST SWAP2 POP PUSH2 0x1151 DUP3 PUSH2 0x16D7 JUMP JUMPDEST PUSH1 0x40 DUP3 ADD SWAP1 POP SWAP2 SWAP1 POP JUMP JUMPDEST PUSH1 0x0 PUSH1 0x60 DUP4 ADD PUSH1 0x0 DUP4 ADD MLOAD DUP5 DUP3 SUB PUSH1 0x0 DUP7 ADD MSTORE PUSH2 0x1179 DUP3 DUP3 PUSH2 0x102D JUMP JUMPDEST SWAP2 POP POP PUSH1 0x20 DUP4 ADD MLOAD PUSH2 0x118E PUSH1 0x20 DUP7 ADD DUP3 PUSH2 0x1000 JUMP JUMPDEST POP PUSH1 0x40 DUP4 ADD MLOAD DUP5 DUP3 SUB PUSH1 0x40 DUP7 ADD MSTORE PUSH2 0x11A6 DUP3 DUP3 PUSH2 0x102D JUMP JUMPDEST SWAP2 POP POP DUP1 SWAP2 POP POP SWAP3 SWAP2 POP POP JUMP JUMPDEST PUSH1 0x0 PUSH2 0x11BE DUP3 PUSH2 0x10F3 JUMP JUMPDEST SWAP2 POP PUSH2 0x11CA DUP3 DUP6 PUSH2 0x109F JUMP JUMPDEST SWAP2 POP PUSH2 0x11D5 DUP3 PUSH2 0x1116 JUMP JUMPDEST SWAP2 POP PUSH2 0x11E1 DUP3 DUP5 PUSH2 0x109F JUMP JUMPDEST SWAP2 POP DUP2 SWAP1 POP SWAP4 SWAP3 POP POP POP JUMP JUMPDEST PUSH1 0x0 PUSH1 0x20 DUP3 ADD SWAP1 POP PUSH2 0x1202 PUSH1 0x0 DUP4 ADD DUP5 PUSH2 0x100F JUMP JUMPDEST SWAP3 SWAP2 POP POP JUMP JUMPDEST PUSH1 0x0 PUSH1 0x20 DUP3 ADD SWAP1 POP PUSH2 0x121D PUSH1 0x0 DUP4 ADD DUP5 PUSH2 0x101E JUMP JUMPDEST SWAP3 SWAP2 POP POP JUMP JUMPDEST PUSH1 0x0 PUSH1 0x20 DUP3 ADD SWAP1 POP DUP2 DUP2 SUB PUSH1 0x0 DUP4 ADD MSTORE PUSH2 0x123D DUP2 DUP5 PUSH2 0x1066 JUMP JUMPDEST SWAP1 POP SWAP3 SWAP2 POP POP JUMP JUMPDEST PUSH1 0x0 PUSH1 0x20 DUP3 ADD SWAP1 POP DUP2 DUP2 SUB PUSH1 0x0 DUP4 ADD MSTORE PUSH2 0x125E DUP2 PUSH2 0x10D0 JUMP JUMPDEST SWAP1 POP SWAP2 SWAP1 POP JUMP JUMPDEST PUSH1 0x0 PUSH1 0x20 DUP3 ADD SWAP1 POP DUP2 DUP2 SUB PUSH1 0x0 DUP4 ADD MSTORE PUSH2 0x127E DUP2 PUSH2 0x1139 JUMP JUMPDEST SWAP1 POP SWAP2 SWAP1 POP JUMP JUMPDEST PUSH1 0x0 PUSH1 0x20 DUP3 ADD SWAP1 POP DUP2 DUP2 SUB PUSH1 0x0 DUP4 ADD MSTORE PUSH2 0x129F DUP2 DUP5 PUSH2 0x115C JUMP JUMPDEST SWAP1 POP SWAP3 SWAP2 POP POP JUMP JUMPDEST PUSH1 0x0 PUSH2 0x12B1 PUSH2 0x12C2 JUMP JUMPDEST SWAP1 POP PUSH2 0x12BD DUP3 DUP3 PUSH2 0x1501 JUMP JUMPDEST SWAP2 SWAP1 POP JUMP JUMPDEST PUSH1 0x0 PUSH1 0x40 MLOAD SWAP1 POP SWAP1 JUMP JUMPDEST PUSH1 0x0 PUSH8 0xFFFFFFFFFFFFFFFF DUP3 GT ISZERO PUSH2 0x12E7 JUMPI PUSH2 0x12E6 PUSH2 0x1608 JUMP JUMPDEST JUMPDEST PUSH2 0x12F0 DUP3 PUSH2 0x164B JUMP JUMPDEST SWAP1 POP PUSH1 0x20 DUP2 ADD SWAP1 POP SWAP2 SWAP1 POP JUMP JUMPDEST PUSH1 0x0 DUP2 MLOAD SWAP1 POP SWAP2 SWAP1 POP JUMP JUMPDEST PUSH1 0x0 DUP3 DUP3 MSTORE PUSH1 0x20 DUP3 ADD SWAP1 POP SWAP3 SWAP2 POP POP JUMP JUMPDEST PUSH1 0x0 DUP3 DUP3 MSTORE PUSH1 0x20 DUP3 ADD SWAP1 POP SWAP3 SWAP2 POP POP JUMP JUMPDEST PUSH1 0x0 DUP2 SWAP1 POP SWAP3 SWAP2 POP POP JUMP JUMPDEST PUSH1 0x0 PUSH2 0x1340 DUP3 PUSH2 0x1459 JUMP JUMPDEST SWAP2 POP PUSH2 0x134B DUP4 PUSH2 0x1459 JUMP JUMPDEST SWAP3 POP DUP3 PUSH32 0xFFFFFFFFFFFFFFFFFFFFFFFFFFFFFFFFFFFFFFFFFFFFFFFFFFFFFFFFFFFFFFFF SUB DUP3 GT ISZERO PUSH2 0x1380 JUMPI PUSH2 0x137F PUSH2 0x157B JUMP JUMPDEST JUMPDEST DUP3 DUP3 ADD SWAP1 POP SWAP3 SWAP2 POP POP JUMP JUMPDEST PUSH1 0x0 PUSH2 0x1396 DUP3 PUSH2 0x1459 JUMP JUMPDEST SWAP2 POP PUSH2 0x13A1 DUP4 PUSH2 0x1459 JUMP JUMPDEST SWAP3 POP DUP2 PUSH32 0xFFFFFFFFFFFFFFFFFFFFFFFFFFFFFFFFFFFFFFFFFFFFFFFFFFFFFFFFFFFFFFFF DIV DUP4 GT DUP3 ISZERO ISZERO AND ISZERO PUSH2 0x13DA JUMPI PUSH2 0x13D9 PUSH2 0x157B JUMP JUMPDEST JUMPDEST DUP3 DUP3 MUL SWAP1 POP SWAP3 SWAP2 POP POP JUMP JUMPDEST PUSH1 0x0 PUSH2 0x13F0 DUP3 PUSH2 0x1439 JUMP JUMPDEST SWAP1 POP SWAP2 SWAP1 POP JUMP JUMPDEST PUSH1 0x0 DUP2 ISZERO ISZERO SWAP1 POP SWAP2 SWAP1 POP JUMP JUMPDEST PUSH1 0x0 DUP2 SWAP1 POP SWAP2 SWAP1 POP JUMP JUMPDEST PUSH1 0x0 PUSH32 0xFFFFFFFF00000000000000000000000000000000000000000000000000000000 DUP3 AND SWAP1 POP SWAP2 SWAP1 POP JUMP JUMPDEST PUSH1 0x0 PUSH20 0xFFFFFFFFFFFFFFFFFFFFFFFFFFFFFFFFFFFFFFFF DUP3 AND SWAP1 POP SWAP2 SWAP1 POP JUMP JUMPDEST PUSH1 0x0 DUP2 SWAP1 POP SWAP2 SWAP1 POP JUMP JUMPDEST DUP3 DUP2 DUP4 CALLDATACOPY PUSH1 0x0 DUP4 DUP4 ADD MSTORE POP POP POP JUMP JUMPDEST PUSH1 0x0 JUMPDEST DUP4 DUP2 LT ISZERO PUSH2 0x1490 JUMPI DUP1 DUP3 ADD MLOAD DUP2 DUP5 ADD MSTORE PUSH1 0x20 DUP2 ADD SWAP1 POP PUSH2 0x1475 JUMP JUMPDEST DUP4 DUP2 GT ISZERO PUSH2 0x149F JUMPI PUSH1 0x0 DUP5 DUP5 ADD MSTORE JUMPDEST POP POP POP POP JUMP JUMPDEST PUSH1 0x0 PUSH2 0x14B0 DUP3 PUSH2 0x1459 JUMP JUMPDEST SWAP2 POP PUSH1 0x0 DUP3 EQ ISZERO PUSH2 0x14C4 JUMPI PUSH2 0x14C3 PUSH2 0x157B JUMP JUMPDEST JUMPDEST PUSH1 0x1 DUP3 SUB SWAP1 POP SWAP2 SWAP1 POP JUMP JUMPDEST PUSH1 0x0 PUSH1 0x2 DUP3 DIV SWAP1 POP PUSH1 0x1 DUP3 AND DUP1 PUSH2 0x14E7 JUMPI PUSH1 0x7F DUP3 AND SWAP2 POP JUMPDEST PUSH1 0x20 DUP3 LT DUP2 EQ ISZERO PUSH2 0x14FB JUMPI PUSH2 0x14FA PUSH2 0x15AA JUMP JUMPDEST JUMPDEST POP SWAP2 SWAP1 POP JUMP JUMPDEST PUSH2 0x150A DUP3 PUSH2 0x164B JUMP JUMPDEST DUP2 ADD DUP2 DUP2 LT PUSH8 0xFFFFFFFFFFFFFFFF DUP3 GT OR ISZERO PUSH2 0x1529 JUMPI PUSH2 0x1528 PUSH2 0x1608 JUMP JUMPDEST JUMPDEST DUP1 PUSH1 0x40 MSTORE POP POP POP JUMP JUMPDEST PUSH1 0x0 PUSH2 0x153D DUP3 PUSH2 0x1459 JUMP JUMPDEST SWAP2 POP PUSH32 0xFFFFFFFFFFFFFFFFFFFFFFFFFFFFFFFFFFFFFFFFFFFFFFFFFFFFFFFFFFFFFFFF DUP3 EQ ISZERO PUSH2 0x1570 JUMPI PUSH2 0x156F PUSH2 0x157B JUMP JUMPDEST JUMPDEST PUSH1 0x1 DUP3 ADD SWAP1 POP SWAP2 SWAP1 POP JUMP JUMPDEST PUSH32 0x4E487B7100000000000000000000000000000000000000000000000000000000 PUSH1 0x0 MSTORE PUSH1 0x11 PUSH1 0x4 MSTORE PUSH1 0x24 PUSH1 0x0 REVERT JUMPDEST PUSH32 0x4E487B7100000000000000000000000000000000000000000000000000000000 PUSH1 0x0 MSTORE PUSH1 0x22 PUSH1 0x4 MSTORE PUSH1 0x24 PUSH1 0x0 REVERT JUMPDEST PUSH32 0x4E487B7100000000000000000000000000000000000000000000000000000000 PUSH1 0x0 MSTORE PUSH1 0x32 PUSH1 0x4 MSTORE PUSH1 0x24 PUSH1 0x0 REVERT JUMPDEST PUSH32 0x4E487B7100000000000000000000000000000000000000000000000000000000 PUSH1 0x0 MSTORE PUSH1 0x41 PUSH1 0x4 MSTORE PUSH1 0x24 PUSH1 0x0 REVERT JUMPDEST PUSH1 0x0 DUP1 REVERT JUMPDEST PUSH1 0x0 DUP1 REVERT JUMPDEST PUSH1 0x0 DUP1 REVERT JUMPDEST PUSH1 0x0 DUP1 REVERT JUMPDEST PUSH1 0x0 PUSH1 0x1F NOT PUSH1 0x1F DUP4 ADD AND SWAP1 POP SWAP2 SWAP1 POP JUMP JUMPDEST PUSH32 0x537472696E67733A20686578206C656E67746820696E73756666696369656E74 PUSH1 0x0 DUP3 ADD MSTORE POP JUMP JUMPDEST PUSH32 0x416363657373436F6E74726F6C3A206163636F756E7420000000000000000000 PUSH1 0x0 DUP3 ADD MSTORE POP JUMP JUMPDEST PUSH32 0x206973206D697373696E6720726F6C6520000000000000000000000000000000 PUSH1 0x0 DUP3 ADD MSTORE POP JUMP JUMPDEST PUSH32 0x416363657373436F6E74726F6C3A2063616E206F6E6C792072656E6F756E6365 PUSH1 0x0 DUP3 ADD MSTORE PUSH32 0x20726F6C657320666F722073656C660000000000000000000000000000000000 PUSH1 0x20 DUP3 ADD MSTORE POP JUMP JUMPDEST PUSH2 0x172F DUP2 PUSH2 0x13E5 JUMP JUMPDEST DUP2 EQ PUSH2 0x173A JUMPI PUSH1 0x0 DUP1 REVERT JUMPDEST POP JUMP JUMPDEST PUSH2 0x1746 DUP2 PUSH2 0x1403 JUMP JUMPDEST DUP2 EQ PUSH2 0x1751 JUMPI PUSH1 0x0 DUP1 REVERT JUMPDEST POP JUMP JUMPDEST PUSH2 0x175D DUP2 PUSH2 0x140D JUMP JUMPDEST DUP2 EQ PUSH2 0x1768 JUMPI PUSH1 0x0 DUP1 REVERT JUMPDEST POP JUMP JUMPDEST PUSH2 0x1774 DUP2 PUSH2 0x1459 JUMP JUMPDEST DUP2 EQ PUSH2 0x177F JUMPI PUSH1 0x0 DUP1 REVERT JUMPDEST POP JUMP INVALID LOG2 PUSH5 0x6970667358 0x22 SLT KECCAK256 0xDC 0x5F 0x5E SWAP2 0xB9 0x1F PUSH11 0x76F176BE21C6CD908A805C DUP7 0xD2 EXTCODECOPY MSTORE 0xEC 0xA8 0xBA PUSH29 0x4A964C73774964736F6C63430008070033000000000000000000000000 "
				},
				"gasEstimates": {
					"creation": {
						"codeDepositCost": "1214400",
						"executionCost": "infinite",
						"totalCost": "infinite"
					},
					"external": {
						"DEFAULT_ADMIN_ROLE()": "401",
						"INEC_EXEC_ROLE()": "374",
						"createCandidate(string,address,uint256)": "infinite",
						"getRoleAdmin(bytes32)": "infinite",
						"grantRole(bytes32,address)": "infinite",
						"hasRole(bytes32,address)": "3162",
						"party(uint256)": "infinite",
						"renounceRole(bytes32,address)": "infinite",
						"retrieveCandidate(uint256)": "infinite",
						"revokeRole(bytes32,address)": "infinite",
						"supportsInterface(bytes4)": "728"
					}
				},
				"methodIdentifiers": {
					"DEFAULT_ADMIN_ROLE()": "a217fddf",
					"INEC_EXEC_ROLE()": "2e0d37bb",
					"createCandidate(string,address,uint256)": "d59d2a58",
					"getRoleAdmin(bytes32)": "248a9ca3",
					"grantRole(bytes32,address)": "2f2ff15d",
					"hasRole(bytes32,address)": "91d14854",
					"party(uint256)": "314fd68f",
					"renounceRole(bytes32,address)": "36568abe",
					"retrieveCandidate(uint256)": "9e5f0349",
					"revokeRole(bytes32,address)": "d547741f",
					"supportsInterface(bytes4)": "01ffc9a7"
				}
			},
			"storageLayout": {
				"storage": [
					{
						"astId": 24,
						"contract": "contracts/Vote.sol:Vote",
						"label": "_roles",
						"offset": 0,
						"slot": "0",
						"type": "t_mapping(t_bytes32,t_struct(RoleData)19_storage)"
					},
					{
						"astId": 684,
						"contract": "contracts/Vote.sol:Vote",
						"label": "voteFee",
						"offset": 0,
						"slot": "1",
						"type": "t_uint256"
					},
					{
						"astId": 686,
						"contract": "contracts/Vote.sol:Vote",
						"label": "candidateNum",
						"offset": 0,
						"slot": "2",
						"type": "t_uint256"
					},
					{
						"astId": 694,
						"contract": "contracts/Vote.sol:Vote",
						"label": "party",
						"offset": 0,
						"slot": "3",
						"type": "t_array(t_string_storage)dyn_storage"
					},
					{
						"astId": 711,
						"contract": "contracts/Vote.sol:Vote",
						"label": "Candidates",
						"offset": 0,
						"slot": "4",
						"type": "t_mapping(t_uint256,t_struct(candidate)706_storage)"
					}
				],
				"types": {
					"t_address": {
						"encoding": "inplace",
						"label": "address",
						"numberOfBytes": "20"
					},
					"t_array(t_string_storage)dyn_storage": {
						"base": "t_string_storage",
						"encoding": "dynamic_array",
						"label": "string[]",
						"numberOfBytes": "32"
					},
					"t_bool": {
						"encoding": "inplace",
						"label": "bool",
						"numberOfBytes": "1"
					},
					"t_bytes32": {
						"encoding": "inplace",
						"label": "bytes32",
						"numberOfBytes": "32"
					},
					"t_mapping(t_address,t_bool)": {
						"encoding": "mapping",
						"key": "t_address",
						"label": "mapping(address => bool)",
						"numberOfBytes": "32",
						"value": "t_bool"
					},
					"t_mapping(t_bytes32,t_struct(RoleData)19_storage)": {
						"encoding": "mapping",
						"key": "t_bytes32",
						"label": "mapping(bytes32 => struct AccessControl.RoleData)",
						"numberOfBytes": "32",
						"value": "t_struct(RoleData)19_storage"
					},
					"t_mapping(t_uint256,t_struct(candidate)706_storage)": {
						"encoding": "mapping",
						"key": "t_uint256",
						"label": "mapping(uint256 => struct Vote.candidate)",
						"numberOfBytes": "32",
						"value": "t_struct(candidate)706_storage"
					},
					"t_string_storage": {
						"encoding": "bytes",
						"label": "string",
						"numberOfBytes": "32"
					},
					"t_struct(RoleData)19_storage": {
						"encoding": "inplace",
						"label": "struct AccessControl.RoleData",
						"members": [
							{
								"astId": 16,
								"contract": "contracts/Vote.sol:Vote",
								"label": "members",
								"offset": 0,
								"slot": "0",
								"type": "t_mapping(t_address,t_bool)"
							},
							{
								"astId": 18,
								"contract": "contracts/Vote.sol:Vote",
								"label": "adminRole",
								"offset": 0,
								"slot": "1",
								"type": "t_bytes32"
							}
						],
						"numberOfBytes": "64"
					},
					"t_struct(candidate)706_storage": {
						"encoding": "inplace",
						"label": "struct Vote.candidate",
						"members": [
							{
								"astId": 701,
								"contract": "contracts/Vote.sol:Vote",
								"label": "name",
								"offset": 0,
								"slot": "0",
								"type": "t_string_storage"
							},
							{
								"astId": 703,
								"contract": "contracts/Vote.sol:Vote",
								"label": "addr",
								"offset": 0,
								"slot": "1",
								"type": "t_address"
							},
							{
								"astId": 705,
								"contract": "contracts/Vote.sol:Vote",
								"label": "party",
								"offset": 0,
								"slot": "2",
								"type": "t_string_storage"
							}
						],
						"numberOfBytes": "96"
					},
					"t_uint256": {
						"encoding": "inplace",
						"label": "uint256",
						"numberOfBytes": "32"
					}
				}
			},
			"userdoc": {
				"kind": "user",
				"methods": {},
				"version": 1
			}
		}
	}
}