{
	"contracts/Vote.sol": {
		"Vote": {
			"abi": [
				{
					"inputs": [],
					"stateMutability": "nonpayable",
					"type": "constructor"
				},
				{
					"anonymous": false,
					"inputs": [
						{
							"indexed": true,
							"internalType": "address",
							"name": "previousOwner",
							"type": "address"
						},
						{
							"indexed": true,
							"internalType": "address",
							"name": "newOwner",
							"type": "address"
						}
					],
					"name": "OwnershipTransferred",
					"type": "event"
				},
				{
					"anonymous": false,
					"inputs": [
						{
							"indexed": true,
							"internalType": "bytes32",
							"name": "role",
							"type": "bytes32"
						},
						{
							"indexed": true,
							"internalType": "bytes32",
							"name": "previousAdminRole",
							"type": "bytes32"
						},
						{
							"indexed": true,
							"internalType": "bytes32",
							"name": "newAdminRole",
							"type": "bytes32"
						}
					],
					"name": "RoleAdminChanged",
					"type": "event"
				},
				{
					"anonymous": false,
					"inputs": [
						{
							"indexed": true,
							"internalType": "bytes32",
							"name": "role",
							"type": "bytes32"
						},
						{
							"indexed": true,
							"internalType": "address",
							"name": "account",
							"type": "address"
						},
						{
							"indexed": true,
							"internalType": "address",
							"name": "sender",
							"type": "address"
						}
					],
					"name": "RoleGranted",
					"type": "event"
				},
				{
					"anonymous": false,
					"inputs": [
						{
							"indexed": true,
							"internalType": "bytes32",
							"name": "role",
							"type": "bytes32"
						},
						{
							"indexed": true,
							"internalType": "address",
							"name": "account",
							"type": "address"
						},
						{
							"indexed": true,
							"internalType": "address",
							"name": "sender",
							"type": "address"
						}
					],
					"name": "RoleRevoked",
					"type": "event"
				},
				{
					"inputs": [],
					"name": "DEFAULT_ADMIN_ROLE",
					"outputs": [
						{
							"internalType": "bytes32",
							"name": "",
							"type": "bytes32"
						}
					],
					"stateMutability": "view",
					"type": "function"
				},
				{
					"inputs": [],
					"name": "INEC_EXEC_ROLE",
					"outputs": [
						{
							"internalType": "bytes32",
							"name": "",
							"type": "bytes32"
						}
					],
					"stateMutability": "view",
					"type": "function"
				},
				{
					"inputs": [
						{
							"internalType": "string",
							"name": "name",
							"type": "string"
						},
						{
							"internalType": "address",
							"name": "candAddress",
							"type": "address"
						},
						{
							"internalType": "uint256",
							"name": "partyNum",
							"type": "uint256"
						}
					],
					"name": "createCandidate",
					"outputs": [],
					"stateMutability": "nonpayable",
					"type": "function"
				},
				{
					"inputs": [
						{
							"internalType": "address",
							"name": "_account",
							"type": "address"
						}
					],
					"name": "createInecExec",
					"outputs": [],
					"stateMutability": "nonpayable",
					"type": "function"
				},
				{
					"inputs": [
						{
							"internalType": "bytes32",
							"name": "role",
							"type": "bytes32"
						}
					],
					"name": "getRoleAdmin",
					"outputs": [
						{
							"internalType": "bytes32",
							"name": "",
							"type": "bytes32"
						}
					],
					"stateMutability": "view",
					"type": "function"
				},
				{
					"inputs": [
						{
							"internalType": "bytes32",
							"name": "role",
							"type": "bytes32"
						},
						{
							"internalType": "address",
							"name": "account",
							"type": "address"
						}
					],
					"name": "grantRole",
					"outputs": [],
					"stateMutability": "nonpayable",
					"type": "function"
				},
				{
					"inputs": [
						{
							"internalType": "bytes32",
							"name": "role",
							"type": "bytes32"
						},
						{
							"internalType": "address",
							"name": "account",
							"type": "address"
						}
					],
					"name": "hasRole",
					"outputs": [
						{
							"internalType": "bool",
							"name": "",
							"type": "bool"
						}
					],
					"stateMutability": "view",
					"type": "function"
				},
				{
					"inputs": [],
					"name": "owner",
					"outputs": [
						{
							"internalType": "address",
							"name": "",
							"type": "address"
						}
					],
					"stateMutability": "view",
					"type": "function"
				},
				{
					"inputs": [
						{
							"internalType": "uint256",
							"name": "",
							"type": "uint256"
						}
					],
					"name": "party",
					"outputs": [
						{
							"internalType": "string",
							"name": "",
							"type": "string"
						}
					],
					"stateMutability": "view",
					"type": "function"
				},
				{
					"inputs": [
						{
							"internalType": "address",
							"name": "_account",
							"type": "address"
						},
						{
							"internalType": "uint256",
							"name": "_nin",
							"type": "uint256"
						}
					],
					"name": "regVoter",
					"outputs": [],
					"stateMutability": "nonpayable",
					"type": "function"
				},
				{
					"inputs": [],
					"name": "renounceOwnership",
					"outputs": [],
					"stateMutability": "nonpayable",
					"type": "function"
				},
				{
					"inputs": [
						{
							"internalType": "bytes32",
							"name": "role",
							"type": "bytes32"
						},
						{
							"internalType": "address",
							"name": "account",
							"type": "address"
						}
					],
					"name": "renounceRole",
					"outputs": [],
					"stateMutability": "nonpayable",
					"type": "function"
				},
				{
					"inputs": [
						{
							"internalType": "uint256",
							"name": "num",
							"type": "uint256"
						}
					],
					"name": "retrieveCandidate",
					"outputs": [
						{
							"components": [
								{
									"internalType": "string",
									"name": "name",
									"type": "string"
								},
								{
									"internalType": "address",
									"name": "addr",
									"type": "address"
								},
								{
									"internalType": "string",
									"name": "party",
									"type": "string"
								}
							],
							"internalType": "struct Vote.candidate",
							"name": "",
							"type": "tuple"
						}
					],
					"stateMutability": "view",
					"type": "function"
				},
				{
					"inputs": [
						{
							"internalType": "bytes32",
							"name": "role",
							"type": "bytes32"
						},
						{
							"internalType": "address",
							"name": "account",
							"type": "address"
						}
					],
					"name": "revokeRole",
					"outputs": [],
					"stateMutability": "nonpayable",
					"type": "function"
				},
				{
					"inputs": [
						{
							"internalType": "bytes4",
							"name": "interfaceId",
							"type": "bytes4"
						}
					],
					"name": "supportsInterface",
					"outputs": [
						{
							"internalType": "bool",
							"name": "",
							"type": "bool"
						}
					],
					"stateMutability": "view",
					"type": "function"
				},
				{
					"inputs": [
						{
							"internalType": "address",
							"name": "newOwner",
							"type": "address"
						}
					],
					"name": "transferOwnership",
					"outputs": [],
					"stateMutability": "nonpayable",
					"type": "function"
				}
			],
			"devdoc": {
				"custom:dev-run-script": "./scripts/deploy_with_ethers.ts",
				"details": "Store & retrieve value in a variable",
				"kind": "dev",
				"methods": {
					"createCandidate(string,address,uint256)": {
						"details": "Store value in variable",
						"params": {
							"candAddress": "value for candidate Address",
							"name": "value for candidate name",
							"partyNum": "value for candidate party"
						}
					},
					"createInecExec(address)": {
						"details": "Grant INEC executive role to an address ",
						"params": {
							"_account": "value for the role'"
						}
					},
					"getRoleAdmin(bytes32)": {
						"details": "Returns the admin role that controls `role`. See {grantRole} and {revokeRole}. To change a role's admin, use {_setRoleAdmin}."
					},
					"grantRole(bytes32,address)": {
						"details": "Grants `role` to `account`. If `account` had not been already granted `role`, emits a {RoleGranted} event. Requirements: - the caller must have ``role``'s admin role. May emit a {RoleGranted} event."
					},
					"hasRole(bytes32,address)": {
						"details": "Returns `true` if `account` has been granted `role`."
					},
					"owner()": {
						"details": "Returns the address of the current owner."
					},
					"regVoter(address,uint256)": {
						"details": "registers a voter",
						"params": {
							"_account": "address of voter, _nin is the voters identifier'"
						}
					},
					"renounceOwnership()": {
						"details": "Leaves the contract without owner. It will not be possible to call `onlyOwner` functions anymore. Can only be called by the current owner. NOTE: Renouncing ownership will leave the contract without an owner, thereby removing any functionality that is only available to the owner."
					},
					"renounceRole(bytes32,address)": {
						"details": "Revokes `role` from the calling account. Roles are often managed via {grantRole} and {revokeRole}: this function's purpose is to provide a mechanism for accounts to lose their privileges if they are compromised (such as when a trusted device is misplaced). If the calling account had been revoked `role`, emits a {RoleRevoked} event. Requirements: - the caller must be `account`. May emit a {RoleRevoked} event."
					},
					"retrieveCandidate(uint256)": {
						"details": "Return value ",
						"returns": {
							"_0": "value of 'struct'"
						}
					},
					"revokeRole(bytes32,address)": {
						"details": "Revokes `role` from `account`. If `account` had been granted `role`, emits a {RoleRevoked} event. Requirements: - the caller must have ``role``'s admin role. May emit a {RoleRevoked} event."
					},
					"supportsInterface(bytes4)": {
						"details": "See {IERC165-supportsInterface}."
					},
					"transferOwnership(address)": {
						"details": "Transfers ownership of the contract to a new account (`newOwner`). Can only be called by the current owner."
					}
				},
				"title": "Storage",
				"version": 1
			},
			"evm": {
				"assembly": "    /* \"contracts/Vote.sol\":311:2633  contract Vote is Ownable, AccessControl {... */\n  mstore(0x40, 0x80)\n    /* \"contracts/Vote.sol\":432:485  string [] public party = [\"APC\", \"PDP\", \"LP\", \"NNPP\"] */\n  mload(0x40)\n  dup1\n  0x80\n  add\n  0x40\n  mstore\n  dup1\n  mload(0x40)\n  dup1\n  0x40\n  add\n  0x40\n  mstore\n  dup1\n  0x03\n  dup2\n  mstore\n  0x20\n  add\n  0x4150430000000000000000000000000000000000000000000000000000000000\n  dup2\n  mstore\n  pop\n  dup2\n  mstore\n  0x20\n  add\n  mload(0x40)\n  dup1\n  0x40\n  add\n  0x40\n  mstore\n  dup1\n  0x03\n  dup2\n  mstore\n  0x20\n  add\n  0x5044500000000000000000000000000000000000000000000000000000000000\n  dup2\n  mstore\n  pop\n  dup2\n  mstore\n  0x20\n  add\n  mload(0x40)\n  dup1\n  0x40\n  add\n  0x40\n  mstore\n  dup1\n  0x02\n  dup2\n  mstore\n  0x20\n  add\n  0x4c50000000000000000000000000000000000000000000000000000000000000\n  dup2\n  mstore\n  pop\n  dup2\n  mstore\n  0x20\n  add\n  mload(0x40)\n  dup1\n  0x40\n  add\n  0x40\n  mstore\n  dup1\n  0x04\n  dup2\n  mstore\n  0x20\n  add\n  0x4e4e505000000000000000000000000000000000000000000000000000000000\n  dup2\n  mstore\n  pop\n  dup2\n  mstore\n  pop\n  0x05\n  swap1\n  0x04\n  tag_1\n  swap3\n  swap2\n  swap1\n  tag_2\n  jump\t// in\ntag_1:\n  pop\n    /* \"contracts/Vote.sol\":1220:1413  constructor() {... */\n  callvalue\n  dup1\n  iszero\n  tag_3\n  jumpi\n  0x00\n  dup1\n  revert\ntag_3:\n  pop\n    /* \"@openzeppelin/contracts/access/Ownable.sol\":936:968  _transferOwnership(_msgSender()) */\n  tag_7\n    /* \"@openzeppelin/contracts/access/Ownable.sol\":955:967  _msgSender() */\n  tag_8\n    /* \"@openzeppelin/contracts/access/Ownable.sol\":955:965  _msgSender */\n  shl(0x20, tag_9)\n    /* \"@openzeppelin/contracts/access/Ownable.sol\":955:967  _msgSender() */\n  0x20\n  shr\n  jump\t// in\ntag_8:\n    /* \"@openzeppelin/contracts/access/Ownable.sol\":936:954  _transferOwnership */\n  shl(0x20, tag_10)\n    /* \"@openzeppelin/contracts/access/Ownable.sol\":936:968  _transferOwnership(_msgSender()) */\n  0x20\n  shr\n  jump\t// in\ntag_7:\n    /* \"contracts/Vote.sol\":1364:1406  _setupRole(DEFAULT_ADMIN_ROLE, msg.sender) */\n  tag_12\n    /* \"@openzeppelin/contracts/access/AccessControl.sol\":2072:2076  0x00 */\n  0x00\n    /* \"contracts/Vote.sol\":1375:1393  DEFAULT_ADMIN_ROLE */\n  dup1\n  shl\n    /* \"contracts/Vote.sol\":1395:1405  msg.sender */\n  caller\n    /* \"contracts/Vote.sol\":1364:1374  _setupRole */\n  shl(0x20, tag_13)\n    /* \"contracts/Vote.sol\":1364:1406  _setupRole(DEFAULT_ADMIN_ROLE, msg.sender) */\n  0x20\n  shr\n  jump\t// in\ntag_12:\n    /* \"contracts/Vote.sol\":311:2633  contract Vote is Ownable, AccessControl {... */\n  jump(tag_14)\n    /* \"@openzeppelin/contracts/utils/Context.sol\":640:736  function _msgSender() internal view virtual returns (address) {... */\ntag_9:\n    /* \"@openzeppelin/contracts/utils/Context.sol\":693:700  address */\n  0x00\n    /* \"@openzeppelin/contracts/utils/Context.sol\":719:729  msg.sender */\n  caller\n    /* \"@openzeppelin/contracts/utils/Context.sol\":712:729  return msg.sender */\n  swap1\n  pop\n    /* \"@openzeppelin/contracts/utils/Context.sol\":640:736  function _msgSender() internal view virtual returns (address) {... */\n  swap1\n  jump\t// out\n    /* \"@openzeppelin/contracts/access/Ownable.sol\":2433:2620  function _transferOwnership(address newOwner) internal virtual {... */\ntag_10:\n    /* \"@openzeppelin/contracts/access/Ownable.sol\":2506:2522  address oldOwner */\n  0x00\n    /* \"@openzeppelin/contracts/access/Ownable.sol\":2525:2531  _owner */\n  dup1\n  0x00\n  swap1\n  sload\n  swap1\n  0x0100\n  exp\n  swap1\n  div\n  0xffffffffffffffffffffffffffffffffffffffff\n  and\n    /* \"@openzeppelin/contracts/access/Ownable.sol\":2506:2531  address oldOwner = _owner */\n  swap1\n  pop\n    /* \"@openzeppelin/contracts/access/Ownable.sol\":2550:2558  newOwner */\n  dup2\n    /* \"@openzeppelin/contracts/access/Ownable.sol\":2541:2547  _owner */\n  0x00\n  dup1\n    /* \"@openzeppelin/contracts/access/Ownable.sol\":2541:2558  _owner = newOwner */\n  0x0100\n  exp\n  dup2\n  sload\n  dup2\n  0xffffffffffffffffffffffffffffffffffffffff\n  mul\n  not\n  and\n  swap1\n  dup4\n  0xffffffffffffffffffffffffffffffffffffffff\n  and\n  mul\n  or\n  swap1\n  sstore\n  pop\n    /* \"@openzeppelin/contracts/access/Ownable.sol\":2604:2612  newOwner */\n  dup2\n    /* \"@openzeppelin/contracts/access/Ownable.sol\":2573:2613  OwnershipTransferred(oldOwner, newOwner) */\n  0xffffffffffffffffffffffffffffffffffffffff\n  and\n    /* \"@openzeppelin/contracts/access/Ownable.sol\":2594:2602  oldOwner */\n  dup2\n    /* \"@openzeppelin/contracts/access/Ownable.sol\":2573:2613  OwnershipTransferred(oldOwner, newOwner) */\n  0xffffffffffffffffffffffffffffffffffffffff\n  and\n  0x8be0079c531659141344cd1fd0a4f28419497f9722a3daafe3b4186f6b6457e0\n  mload(0x40)\n  mload(0x40)\n  dup1\n  swap2\n  sub\n  swap1\n  log3\n    /* \"@openzeppelin/contracts/access/Ownable.sol\":2496:2620  {... */\n  pop\n    /* \"@openzeppelin/contracts/access/Ownable.sol\":2433:2620  function _transferOwnership(address newOwner) internal virtual {... */\n  pop\n  jump\t// out\n    /* \"@openzeppelin/contracts/access/AccessControl.sol\":6824:6934  function _setupRole(bytes32 role, address account) internal virtual {... */\ntag_13:\n    /* \"@openzeppelin/contracts/access/AccessControl.sol\":6902:6927  _grantRole(role, account) */\n  tag_18\n    /* \"@openzeppelin/contracts/access/AccessControl.sol\":6913:6917  role */\n  dup3\n    /* \"@openzeppelin/contracts/access/AccessControl.sol\":6919:6926  account */\n  dup3\n    /* \"@openzeppelin/contracts/access/AccessControl.sol\":6902:6912  _grantRole */\n  shl(0x20, tag_19)\n    /* \"@openzeppelin/contracts/access/AccessControl.sol\":6902:6927  _grantRole(role, account) */\n  0x20\n  shr\n  jump\t// in\ntag_18:\n    /* \"@openzeppelin/contracts/access/AccessControl.sol\":6824:6934  function _setupRole(bytes32 role, address account) internal virtual {... */\n  pop\n  pop\n  jump\t// out\n    /* \"@openzeppelin/contracts/access/AccessControl.sol\":7474:7707  function _grantRole(bytes32 role, address account) internal virtual {... */\ntag_19:\n    /* \"@openzeppelin/contracts/access/AccessControl.sol\":7557:7579  hasRole(role, account) */\n  tag_21\n    /* \"@openzeppelin/contracts/access/AccessControl.sol\":7565:7569  role */\n  dup3\n    /* \"@openzeppelin/contracts/access/AccessControl.sol\":7571:7578  account */\n  dup3\n    /* \"@openzeppelin/contracts/access/AccessControl.sol\":7557:7564  hasRole */\n  shl(0x20, tag_22)\n    /* \"@openzeppelin/contracts/access/AccessControl.sol\":7557:7579  hasRole(role, account) */\n  0x20\n  shr\n  jump\t// in\ntag_21:\n    /* \"@openzeppelin/contracts/access/AccessControl.sol\":7552:7701  if (!hasRole(role, account)) {... */\n  tag_23\n  jumpi\n    /* \"@openzeppelin/contracts/access/AccessControl.sol\":7627:7631  true */\n  0x01\n    /* \"@openzeppelin/contracts/access/AccessControl.sol\":7595:7601  _roles */\n  dup1\n    /* \"@openzeppelin/contracts/access/AccessControl.sol\":7595:7607  _roles[role] */\n  0x00\n    /* \"@openzeppelin/contracts/access/AccessControl.sol\":7602:7606  role */\n  dup5\n    /* \"@openzeppelin/contracts/access/AccessControl.sol\":7595:7607  _roles[role] */\n  dup2\n  mstore\n  0x20\n  add\n  swap1\n  dup2\n  mstore\n  0x20\n  add\n  0x00\n  keccak256\n    /* \"@openzeppelin/contracts/access/AccessControl.sol\":7595:7615  _roles[role].members */\n  0x00\n  add\n    /* \"@openzeppelin/contracts/access/AccessControl.sol\":7595:7624  _roles[role].members[account] */\n  0x00\n    /* \"@openzeppelin/contracts/access/AccessControl.sol\":7616:7623  account */\n  dup4\n    /* \"@openzeppelin/contracts/access/AccessControl.sol\":7595:7624  _roles[role].members[account] */\n  0xffffffffffffffffffffffffffffffffffffffff\n  and\n  0xffffffffffffffffffffffffffffffffffffffff\n  and\n  dup2\n  mstore\n  0x20\n  add\n  swap1\n  dup2\n  mstore\n  0x20\n  add\n  0x00\n  keccak256\n  0x00\n    /* \"@openzeppelin/contracts/access/AccessControl.sol\":7595:7631  _roles[role].members[account] = true */\n  0x0100\n  exp\n  dup2\n  sload\n  dup2\n  0xff\n  mul\n  not\n  and\n  swap1\n  dup4\n  iszero\n  iszero\n  mul\n  or\n  swap1\n  sstore\n  pop\n    /* \"@openzeppelin/contracts/access/AccessControl.sol\":7677:7689  _msgSender() */\n  tag_24\n    /* \"@openzeppelin/contracts/access/AccessControl.sol\":7677:7687  _msgSender */\n  shl(0x20, tag_9)\n    /* \"@openzeppelin/contracts/access/AccessControl.sol\":7677:7689  _msgSender() */\n  0x20\n  shr\n  jump\t// in\ntag_24:\n    /* \"@openzeppelin/contracts/access/AccessControl.sol\":7650:7690  RoleGranted(role, account, _msgSender()) */\n  0xffffffffffffffffffffffffffffffffffffffff\n  and\n    /* \"@openzeppelin/contracts/access/AccessControl.sol\":7668:7675  account */\n  dup2\n    /* \"@openzeppelin/contracts/access/AccessControl.sol\":7650:7690  RoleGranted(role, account, _msgSender()) */\n  0xffffffffffffffffffffffffffffffffffffffff\n  and\n    /* \"@openzeppelin/contracts/access/AccessControl.sol\":7662:7666  role */\n  dup4\n    /* \"@openzeppelin/contracts/access/AccessControl.sol\":7650:7690  RoleGranted(role, account, _msgSender()) */\n  0x2f8788117e7eff1d82e926ec794901d17c78024a50270940304540a733656f0d\n  mload(0x40)\n  mload(0x40)\n  dup1\n  swap2\n  sub\n  swap1\n  log4\n    /* \"@openzeppelin/contracts/access/AccessControl.sol\":7552:7701  if (!hasRole(role, account)) {... */\ntag_23:\n    /* \"@openzeppelin/contracts/access/AccessControl.sol\":7474:7707  function _grantRole(bytes32 role, address account) internal virtual {... */\n  pop\n  pop\n  jump\t// out\n    /* \"@openzeppelin/contracts/access/AccessControl.sol\":2895:3040  function hasRole(bytes32 role, address account) public view virtual override returns (bool) {... */\ntag_22:\n    /* \"@openzeppelin/contracts/access/AccessControl.sol\":2981:2985  bool */\n  0x00\n    /* \"@openzeppelin/contracts/access/AccessControl.sol\":3004:3010  _roles */\n  0x01\n    /* \"@openzeppelin/contracts/access/AccessControl.sol\":3004:3016  _roles[role] */\n  0x00\n    /* \"@openzeppelin/contracts/access/AccessControl.sol\":3011:3015  role */\n  dup5\n    /* \"@openzeppelin/contracts/access/AccessControl.sol\":3004:3016  _roles[role] */\n  dup2\n  mstore\n  0x20\n  add\n  swap1\n  dup2\n  mstore\n  0x20\n  add\n  0x00\n  keccak256\n    /* \"@openzeppelin/contracts/access/AccessControl.sol\":3004:3024  _roles[role].members */\n  0x00\n  add\n    /* \"@openzeppelin/contracts/access/AccessControl.sol\":3004:3033  _roles[role].members[account] */\n  0x00\n    /* \"@openzeppelin/contracts/access/AccessControl.sol\":3025:3032  account */\n  dup4\n    /* \"@openzeppelin/contracts/access/AccessControl.sol\":3004:3033  _roles[role].members[account] */\n  0xffffffffffffffffffffffffffffffffffffffff\n  and\n  0xffffffffffffffffffffffffffffffffffffffff\n  and\n  dup2\n  mstore\n  0x20\n  add\n  swap1\n  dup2\n  mstore\n  0x20\n  add\n  0x00\n  keccak256\n  0x00\n  swap1\n  sload\n  swap1\n  0x0100\n  exp\n  swap1\n  div\n  0xff\n  and\n    /* \"@openzeppelin/contracts/access/AccessControl.sol\":2997:3033  return _roles[role].members[account] */\n  swap1\n  pop\n    /* \"@openzeppelin/contracts/access/AccessControl.sol\":2895:3040  function hasRole(bytes32 role, address account) public view virtual override returns (bool) {... */\n  swap3\n  swap2\n  pop\n  pop\n  jump\t// out\n    /* \"contracts/Vote.sol\":311:2633  contract Vote is Ownable, AccessControl {... */\ntag_2:\n  dup3\n  dup1\n  sload\n  dup3\n  dup3\n  sstore\n  swap1\n  0x00\n  mstore\n  keccak256(0x00, 0x20)\n  swap1\n  dup2\n  add\n  swap3\n  dup3\n  iszero\n  tag_26\n  jumpi\n  swap2\n  0x20\n  mul\n  dup3\n  add\ntag_27:\n  dup3\n  dup2\n  gt\n  iszero\n  tag_28\n  jumpi\n  dup3\n  mload\n  dup3\n  swap1\n  dup1\n  mload\n  swap1\n  0x20\n  add\n  swap1\n  tag_29\n  swap3\n  swap2\n  swap1\n  tag_30\n  jump\t// in\ntag_29:\n  pop\n  swap2\n  0x20\n  add\n  swap2\n  swap1\n  0x01\n  add\n  swap1\n  jump(tag_27)\ntag_28:\ntag_26:\n  pop\n  swap1\n  pop\n  tag_31\n  swap2\n  swap1\n  tag_32\n  jump\t// in\ntag_31:\n  pop\n  swap1\n  jump\t// out\ntag_30:\n  dup3\n  dup1\n  sload\n  tag_33\n  swap1\n  tag_34\n  jump\t// in\ntag_33:\n  swap1\n  0x00\n  mstore\n  keccak256(0x00, 0x20)\n  swap1\n  0x1f\n  add\n  0x20\n  swap1\n  div\n  dup2\n  add\n  swap3\n  dup3\n  tag_36\n  jumpi\n  0x00\n  dup6\n  sstore\n  jump(tag_35)\ntag_36:\n  dup3\n  0x1f\n  lt\n  tag_37\n  jumpi\n  dup1\n  mload\n  not(0xff)\n  and\n  dup4\n  dup1\n  add\n  or\n  dup6\n  sstore\n  jump(tag_35)\ntag_37:\n  dup3\n  dup1\n  add\n  0x01\n  add\n  dup6\n  sstore\n  dup3\n  iszero\n  tag_35\n  jumpi\n  swap2\n  dup3\n  add\ntag_38:\n  dup3\n  dup2\n  gt\n  iszero\n  tag_39\n  jumpi\n  dup3\n  mload\n  dup3\n  sstore\n  swap2\n  0x20\n  add\n  swap2\n  swap1\n  0x01\n  add\n  swap1\n  jump(tag_38)\ntag_39:\ntag_35:\n  pop\n  swap1\n  pop\n  tag_40\n  swap2\n  swap1\n  tag_41\n  jump\t// in\ntag_40:\n  pop\n  swap1\n  jump\t// out\ntag_32:\ntag_42:\n  dup1\n  dup3\n  gt\n  iszero\n  tag_43\n  jumpi\n  0x00\n  dup2\n  dup2\n  tag_44\n  swap2\n  swap1\n  tag_45\n  jump\t// in\ntag_44:\n  pop\n  0x01\n  add\n  jump(tag_42)\ntag_43:\n  pop\n  swap1\n  jump\t// out\ntag_41:\ntag_46:\n  dup1\n  dup3\n  gt\n  iszero\n  tag_47\n  jumpi\n  0x00\n  dup2\n  0x00\n  swap1\n  sstore\n  pop\n  0x01\n  add\n  jump(tag_46)\ntag_47:\n  pop\n  swap1\n  jump\t// out\ntag_45:\n  pop\n  dup1\n  sload\n  tag_48\n  swap1\n  tag_34\n  jump\t// in\ntag_48:\n  0x00\n  dup3\n  sstore\n  dup1\n  0x1f\n  lt\n  tag_50\n  jumpi\n  pop\n  jump(tag_49)\ntag_50:\n  0x1f\n  add\n  0x20\n  swap1\n  div\n  swap1\n  0x00\n  mstore\n  keccak256(0x00, 0x20)\n  swap1\n  dup2\n  add\n  swap1\n  tag_51\n  swap2\n  swap1\n  tag_41\n  jump\t// in\ntag_51:\ntag_49:\n  pop\n  jump\t// out\n    /* \"#utility.yul\":7:327   */\ntag_34:\n    /* \"#utility.yul\":51:57   */\n  0x00\n    /* \"#utility.yul\":88:89   */\n  0x02\n    /* \"#utility.yul\":82:86   */\n  dup3\n    /* \"#utility.yul\":78:90   */\n  div\n    /* \"#utility.yul\":68:90   */\n  swap1\n  pop\n    /* \"#utility.yul\":135:136   */\n  0x01\n    /* \"#utility.yul\":129:133   */\n  dup3\n    /* \"#utility.yul\":125:137   */\n  and\n    /* \"#utility.yul\":156:174   */\n  dup1\n    /* \"#utility.yul\":146:227   */\n  tag_54\n  jumpi\n    /* \"#utility.yul\":212:216   */\n  0x7f\n    /* \"#utility.yul\":204:210   */\n  dup3\n    /* \"#utility.yul\":200:217   */\n  and\n    /* \"#utility.yul\":190:217   */\n  swap2\n  pop\n    /* \"#utility.yul\":146:227   */\ntag_54:\n    /* \"#utility.yul\":274:276   */\n  0x20\n    /* \"#utility.yul\":266:272   */\n  dup3\n    /* \"#utility.yul\":263:277   */\n  lt\n    /* \"#utility.yul\":243:261   */\n  dup2\n    /* \"#utility.yul\":240:278   */\n  eq\n    /* \"#utility.yul\":237:321   */\n  iszero\n  tag_55\n  jumpi\n    /* \"#utility.yul\":293:311   */\n  tag_56\n  tag_57\n  jump\t// in\ntag_56:\n    /* \"#utility.yul\":237:321   */\ntag_55:\n    /* \"#utility.yul\":58:327   */\n  pop\n    /* \"#utility.yul\":7:327   */\n  swap2\n  swap1\n  pop\n  jump\t// out\n    /* \"#utility.yul\":333:513   */\ntag_57:\n    /* \"#utility.yul\":381:458   */\n  0x4e487b7100000000000000000000000000000000000000000000000000000000\n    /* \"#utility.yul\":378:379   */\n  0x00\n    /* \"#utility.yul\":371:459   */\n  mstore\n    /* \"#utility.yul\":478:482   */\n  0x22\n    /* \"#utility.yul\":475:476   */\n  0x04\n    /* \"#utility.yul\":468:483   */\n  mstore\n    /* \"#utility.yul\":502:506   */\n  0x24\n    /* \"#utility.yul\":499:500   */\n  0x00\n    /* \"#utility.yul\":492:507   */\n  revert\n    /* \"contracts/Vote.sol\":311:2633  contract Vote is Ownable, AccessControl {... */\ntag_14:\n  dataSize(sub_0)\n  dup1\n  dataOffset(sub_0)\n  0x00\n  codecopy\n  0x00\n  return\nstop\n\nsub_0: assembly {\n        /* \"contracts/Vote.sol\":311:2633  contract Vote is Ownable, AccessControl {... */\n      mstore(0x40, 0x80)\n      callvalue\n      dup1\n      iszero\n      tag_1\n      jumpi\n      0x00\n      dup1\n      revert\n    tag_1:\n      pop\n      jumpi(tag_2, lt(calldatasize, 0x04))\n      shr(0xe0, calldataload(0x00))\n      dup1\n      0x91d14854\n      gt\n      tag_19\n      jumpi\n      dup1\n      0xd59d2a58\n      gt\n      tag_20\n      jumpi\n      dup1\n      0xd59d2a58\n      eq\n      tag_15\n      jumpi\n      dup1\n      0xdfd8459e\n      eq\n      tag_16\n      jumpi\n      dup1\n      0xef49f4aa\n      eq\n      tag_17\n      jumpi\n      dup1\n      0xf2fde38b\n      eq\n      tag_18\n      jumpi\n      jump(tag_2)\n    tag_20:\n      dup1\n      0x91d14854\n      eq\n      tag_11\n      jumpi\n      dup1\n      0x9e5f0349\n      eq\n      tag_12\n      jumpi\n      dup1\n      0xa217fddf\n      eq\n      tag_13\n      jumpi\n      dup1\n      0xd547741f\n      eq\n      tag_14\n      jumpi\n      jump(tag_2)\n    tag_19:\n      dup1\n      0x314fd68f\n      gt\n      tag_21\n      jumpi\n      dup1\n      0x314fd68f\n      eq\n      tag_7\n      jumpi\n      dup1\n      0x36568abe\n      eq\n      tag_8\n      jumpi\n      dup1\n      0x715018a6\n      eq\n      tag_9\n      jumpi\n      dup1\n      0x8da5cb5b\n      eq\n      tag_10\n      jumpi\n      jump(tag_2)\n    tag_21:\n      dup1\n      0x01ffc9a7\n      eq\n      tag_3\n      jumpi\n      dup1\n      0x248a9ca3\n      eq\n      tag_4\n      jumpi\n      dup1\n      0x2e0d37bb\n      eq\n      tag_5\n      jumpi\n      dup1\n      0x2f2ff15d\n      eq\n      tag_6\n      jumpi\n    tag_2:\n      0x00\n      dup1\n      revert\n        /* \"@openzeppelin/contracts/access/AccessControl.sol\":2606:2808  function supportsInterface(bytes4 interfaceId) public view virtual override returns (bool) {... */\n    tag_3:\n      tag_22\n      0x04\n      dup1\n      calldatasize\n      sub\n      dup2\n      add\n      swap1\n      tag_23\n      swap2\n      swap1\n      tag_24\n      jump\t// in\n    tag_23:\n      tag_25\n      jump\t// in\n    tag_22:\n      mload(0x40)\n      tag_26\n      swap2\n      swap1\n      tag_27\n      jump\t// in\n    tag_26:\n      mload(0x40)\n      dup1\n      swap2\n      sub\n      swap1\n      return\n        /* \"@openzeppelin/contracts/access/AccessControl.sol\":4391:4520  function getRoleAdmin(bytes32 role) public view virtual override returns (bytes32) {... */\n    tag_4:\n      tag_28\n      0x04\n      dup1\n      calldatasize\n      sub\n      dup2\n      add\n      swap1\n      tag_29\n      swap2\n      swap1\n      tag_30\n      jump\t// in\n    tag_29:\n      tag_31\n      jump\t// in\n    tag_28:\n      mload(0x40)\n      tag_32\n      swap2\n      swap1\n      tag_33\n      jump\t// in\n    tag_32:\n      mload(0x40)\n      dup1\n      swap2\n      sub\n      swap1\n      return\n        /* \"contracts/Vote.sol\":492:555  bytes32 public constant INEC_EXEC_ROLE = keccak256(\"INEC_EXEC\") */\n    tag_5:\n      tag_34\n      tag_35\n      jump\t// in\n    tag_34:\n      mload(0x40)\n      tag_36\n      swap2\n      swap1\n      tag_33\n      jump\t// in\n    tag_36:\n      mload(0x40)\n      dup1\n      swap2\n      sub\n      swap1\n      return\n        /* \"@openzeppelin/contracts/access/AccessControl.sol\":4816:4961  function grantRole(bytes32 role, address account) public virtual override onlyRole(getRoleAdmin(role)) {... */\n    tag_6:\n      tag_37\n      0x04\n      dup1\n      calldatasize\n      sub\n      dup2\n      add\n      swap1\n      tag_38\n      swap2\n      swap1\n      tag_39\n      jump\t// in\n    tag_38:\n      tag_40\n      jump\t// in\n    tag_37:\n      stop\n        /* \"contracts/Vote.sol\":432:485  string [] public party = [\"APC\", \"PDP\", \"LP\", \"NNPP\"] */\n    tag_7:\n      tag_41\n      0x04\n      dup1\n      calldatasize\n      sub\n      dup2\n      add\n      swap1\n      tag_42\n      swap2\n      swap1\n      tag_43\n      jump\t// in\n    tag_42:\n      tag_44\n      jump\t// in\n    tag_41:\n      mload(0x40)\n      tag_45\n      swap2\n      swap1\n      tag_46\n      jump\t// in\n    tag_45:\n      mload(0x40)\n      dup1\n      swap2\n      sub\n      swap1\n      return\n        /* \"@openzeppelin/contracts/access/AccessControl.sol\":5925:6139  function renounceRole(bytes32 role, address account) public virtual override {... */\n    tag_8:\n      tag_47\n      0x04\n      dup1\n      calldatasize\n      sub\n      dup2\n      add\n      swap1\n      tag_48\n      swap2\n      swap1\n      tag_39\n      jump\t// in\n    tag_48:\n      tag_49\n      jump\t// in\n    tag_47:\n      stop\n        /* \"@openzeppelin/contracts/access/Ownable.sol\":1831:1932  function renounceOwnership() public virtual onlyOwner {... */\n    tag_9:\n      tag_50\n      tag_51\n      jump\t// in\n    tag_50:\n      stop\n        /* \"@openzeppelin/contracts/access/Ownable.sol\":1201:1286  function owner() public view virtual returns (address) {... */\n    tag_10:\n      tag_52\n      tag_53\n      jump\t// in\n    tag_52:\n      mload(0x40)\n      tag_54\n      swap2\n      swap1\n      tag_55\n      jump\t// in\n    tag_54:\n      mload(0x40)\n      dup1\n      swap2\n      sub\n      swap1\n      return\n        /* \"@openzeppelin/contracts/access/AccessControl.sol\":2895:3040  function hasRole(bytes32 role, address account) public view virtual override returns (bool) {... */\n    tag_11:\n      tag_56\n      0x04\n      dup1\n      calldatasize\n      sub\n      dup2\n      add\n      swap1\n      tag_57\n      swap2\n      swap1\n      tag_39\n      jump\t// in\n    tag_57:\n      tag_58\n      jump\t// in\n    tag_56:\n      mload(0x40)\n      tag_59\n      swap2\n      swap1\n      tag_27\n      jump\t// in\n    tag_59:\n      mload(0x40)\n      dup1\n      swap2\n      sub\n      swap1\n      return\n        /* \"contracts/Vote.sol\":2508:2625  function retrieveCandidate(uint256 num) public view returns (candidate memory){... */\n    tag_12:\n      tag_60\n      0x04\n      dup1\n      calldatasize\n      sub\n      dup2\n      add\n      swap1\n      tag_61\n      swap2\n      swap1\n      tag_43\n      jump\t// in\n    tag_61:\n      tag_62\n      jump\t// in\n    tag_60:\n      mload(0x40)\n      tag_63\n      swap2\n      swap1\n      tag_64\n      jump\t// in\n    tag_63:\n      mload(0x40)\n      dup1\n      swap2\n      sub\n      swap1\n      return\n        /* \"@openzeppelin/contracts/access/AccessControl.sol\":2027:2076  bytes32 public constant DEFAULT_ADMIN_ROLE = 0x00 */\n    tag_13:\n      tag_65\n      tag_66\n      jump\t// in\n    tag_65:\n      mload(0x40)\n      tag_67\n      swap2\n      swap1\n      tag_33\n      jump\t// in\n    tag_67:\n      mload(0x40)\n      dup1\n      swap2\n      sub\n      swap1\n      return\n        /* \"@openzeppelin/contracts/access/AccessControl.sol\":5241:5388  function revokeRole(bytes32 role, address account) public virtual override onlyRole(getRoleAdmin(role)) {... */\n    tag_14:\n      tag_68\n      0x04\n      dup1\n      calldatasize\n      sub\n      dup2\n      add\n      swap1\n      tag_69\n      swap2\n      swap1\n      tag_39\n      jump\t// in\n    tag_69:\n      tag_70\n      jump\t// in\n    tag_68:\n      stop\n        /* \"contracts/Vote.sol\":1851:2150  function createCandidate(string memory name, address candAddress, uint256 partyNum) public isInecExec {... */\n    tag_15:\n      tag_71\n      0x04\n      dup1\n      calldatasize\n      sub\n      dup2\n      add\n      swap1\n      tag_72\n      swap2\n      swap1\n      tag_73\n      jump\t// in\n    tag_72:\n      tag_74\n      jump\t// in\n    tag_71:\n      stop\n        /* \"contracts/Vote.sol\":1531:1641  function createInecExec(address _account) public onlyOwner{... */\n    tag_16:\n      tag_75\n      0x04\n      dup1\n      calldatasize\n      sub\n      dup2\n      add\n      swap1\n      tag_76\n      swap2\n      swap1\n      tag_77\n      jump\t// in\n    tag_76:\n      tag_78\n      jump\t// in\n    tag_75:\n      stop\n        /* \"contracts/Vote.sol\":2275:2427  function regVoter(address _account, uint256 _nin) public onlyOwner{... */\n    tag_17:\n      tag_79\n      0x04\n      dup1\n      calldatasize\n      sub\n      dup2\n      add\n      swap1\n      tag_80\n      swap2\n      swap1\n      tag_81\n      jump\t// in\n    tag_80:\n      tag_82\n      jump\t// in\n    tag_79:\n      stop\n        /* \"@openzeppelin/contracts/access/Ownable.sol\":2081:2279  function transferOwnership(address newOwner) public virtual onlyOwner {... */\n    tag_18:\n      tag_83\n      0x04\n      dup1\n      calldatasize\n      sub\n      dup2\n      add\n      swap1\n      tag_84\n      swap2\n      swap1\n      tag_77\n      jump\t// in\n    tag_84:\n      tag_85\n      jump\t// in\n    tag_83:\n      stop\n        /* \"@openzeppelin/contracts/access/AccessControl.sol\":2606:2808  function supportsInterface(bytes4 interfaceId) public view virtual override returns (bool) {... */\n    tag_25:\n        /* \"@openzeppelin/contracts/access/AccessControl.sol\":2691:2695  bool */\n      0x00\n        /* \"@openzeppelin/contracts/access/AccessControl.sol\":2729:2761  type(IAccessControl).interfaceId */\n      0x7965db0b00000000000000000000000000000000000000000000000000000000\n        /* \"@openzeppelin/contracts/access/AccessControl.sol\":2714:2761  interfaceId == type(IAccessControl).interfaceId */\n      not(0xffffffffffffffffffffffffffffffffffffffffffffffffffffffff)\n      and\n        /* \"@openzeppelin/contracts/access/AccessControl.sol\":2714:2725  interfaceId */\n      dup3\n        /* \"@openzeppelin/contracts/access/AccessControl.sol\":2714:2761  interfaceId == type(IAccessControl).interfaceId */\n      not(0xffffffffffffffffffffffffffffffffffffffffffffffffffffffff)\n      and\n      eq\n        /* \"@openzeppelin/contracts/access/AccessControl.sol\":2714:2801  interfaceId == type(IAccessControl).interfaceId || super.supportsInterface(interfaceId) */\n      dup1\n      tag_87\n      jumpi\n      pop\n        /* \"@openzeppelin/contracts/access/AccessControl.sol\":2765:2801  super.supportsInterface(interfaceId) */\n      tag_88\n        /* \"@openzeppelin/contracts/access/AccessControl.sol\":2789:2800  interfaceId */\n      dup3\n        /* \"@openzeppelin/contracts/access/AccessControl.sol\":2765:2788  super.supportsInterface */\n      tag_89\n        /* \"@openzeppelin/contracts/access/AccessControl.sol\":2765:2801  super.supportsInterface(interfaceId) */\n      jump\t// in\n    tag_88:\n        /* \"@openzeppelin/contracts/access/AccessControl.sol\":2714:2801  interfaceId == type(IAccessControl).interfaceId || super.supportsInterface(interfaceId) */\n    tag_87:\n        /* \"@openzeppelin/contracts/access/AccessControl.sol\":2707:2801  return interfaceId == type(IAccessControl).interfaceId || super.supportsInterface(interfaceId) */\n      swap1\n      pop\n        /* \"@openzeppelin/contracts/access/AccessControl.sol\":2606:2808  function supportsInterface(bytes4 interfaceId) public view virtual override returns (bool) {... */\n      swap2\n      swap1\n      pop\n      jump\t// out\n        /* \"@openzeppelin/contracts/access/AccessControl.sol\":4391:4520  function getRoleAdmin(bytes32 role) public view virtual override returns (bytes32) {... */\n    tag_31:\n        /* \"@openzeppelin/contracts/access/AccessControl.sol\":4465:4472  bytes32 */\n      0x00\n        /* \"@openzeppelin/contracts/access/AccessControl.sol\":4491:4497  _roles */\n      0x01\n        /* \"@openzeppelin/contracts/access/AccessControl.sol\":4491:4503  _roles[role] */\n      0x00\n        /* \"@openzeppelin/contracts/access/AccessControl.sol\":4498:4502  role */\n      dup4\n        /* \"@openzeppelin/contracts/access/AccessControl.sol\":4491:4503  _roles[role] */\n      dup2\n      mstore\n      0x20\n      add\n      swap1\n      dup2\n      mstore\n      0x20\n      add\n      0x00\n      keccak256\n        /* \"@openzeppelin/contracts/access/AccessControl.sol\":4491:4513  _roles[role].adminRole */\n      0x01\n      add\n      sload\n        /* \"@openzeppelin/contracts/access/AccessControl.sol\":4484:4513  return _roles[role].adminRole */\n      swap1\n      pop\n        /* \"@openzeppelin/contracts/access/AccessControl.sol\":4391:4520  function getRoleAdmin(bytes32 role) public view virtual override returns (bytes32) {... */\n      swap2\n      swap1\n      pop\n      jump\t// out\n        /* \"contracts/Vote.sol\":492:555  bytes32 public constant INEC_EXEC_ROLE = keccak256(\"INEC_EXEC\") */\n    tag_35:\n        /* \"contracts/Vote.sol\":533:555  keccak256(\"INEC_EXEC\") */\n      0x082f6ed76e0352438e6a6e35c77719c3f04bf277fdc8fec7e5ff5f65e001d902\n        /* \"contracts/Vote.sol\":492:555  bytes32 public constant INEC_EXEC_ROLE = keccak256(\"INEC_EXEC\") */\n      dup2\n      jump\t// out\n        /* \"@openzeppelin/contracts/access/AccessControl.sol\":4816:4961  function grantRole(bytes32 role, address account) public virtual override onlyRole(getRoleAdmin(role)) {... */\n    tag_40:\n        /* \"@openzeppelin/contracts/access/AccessControl.sol\":4899:4917  getRoleAdmin(role) */\n      tag_91\n        /* \"@openzeppelin/contracts/access/AccessControl.sol\":4912:4916  role */\n      dup3\n        /* \"@openzeppelin/contracts/access/AccessControl.sol\":4899:4911  getRoleAdmin */\n      tag_31\n        /* \"@openzeppelin/contracts/access/AccessControl.sol\":4899:4917  getRoleAdmin(role) */\n      jump\t// in\n    tag_91:\n        /* \"@openzeppelin/contracts/access/AccessControl.sol\":2505:2521  _checkRole(role) */\n      tag_93\n        /* \"@openzeppelin/contracts/access/AccessControl.sol\":2516:2520  role */\n      dup2\n        /* \"@openzeppelin/contracts/access/AccessControl.sol\":2505:2515  _checkRole */\n      tag_94\n        /* \"@openzeppelin/contracts/access/AccessControl.sol\":2505:2521  _checkRole(role) */\n      jump\t// in\n    tag_93:\n        /* \"@openzeppelin/contracts/access/AccessControl.sol\":4929:4954  _grantRole(role, account) */\n      tag_96\n        /* \"@openzeppelin/contracts/access/AccessControl.sol\":4940:4944  role */\n      dup4\n        /* \"@openzeppelin/contracts/access/AccessControl.sol\":4946:4953  account */\n      dup4\n        /* \"@openzeppelin/contracts/access/AccessControl.sol\":4929:4939  _grantRole */\n      tag_97\n        /* \"@openzeppelin/contracts/access/AccessControl.sol\":4929:4954  _grantRole(role, account) */\n      jump\t// in\n    tag_96:\n        /* \"@openzeppelin/contracts/access/AccessControl.sol\":4816:4961  function grantRole(bytes32 role, address account) public virtual override onlyRole(getRoleAdmin(role)) {... */\n      pop\n      pop\n      pop\n      jump\t// out\n        /* \"contracts/Vote.sol\":432:485  string [] public party = [\"APC\", \"PDP\", \"LP\", \"NNPP\"] */\n    tag_44:\n      0x05\n      dup2\n      dup2\n      sload\n      dup2\n      lt\n      tag_98\n      jumpi\n      0x00\n      dup1\n      revert\n    tag_98:\n      swap1\n      0x00\n      mstore\n      keccak256(0x00, 0x20)\n      add\n      0x00\n      swap2\n      pop\n      swap1\n      pop\n      dup1\n      sload\n      tag_100\n      swap1\n      tag_101\n      jump\t// in\n    tag_100:\n      dup1\n      0x1f\n      add\n      0x20\n      dup1\n      swap2\n      div\n      mul\n      0x20\n      add\n      mload(0x40)\n      swap1\n      dup2\n      add\n      0x40\n      mstore\n      dup1\n      swap3\n      swap2\n      swap1\n      dup2\n      dup2\n      mstore\n      0x20\n      add\n      dup3\n      dup1\n      sload\n      tag_102\n      swap1\n      tag_101\n      jump\t// in\n    tag_102:\n      dup1\n      iszero\n      tag_103\n      jumpi\n      dup1\n      0x1f\n      lt\n      tag_104\n      jumpi\n      0x0100\n      dup1\n      dup4\n      sload\n      div\n      mul\n      dup4\n      mstore\n      swap2\n      0x20\n      add\n      swap2\n      jump(tag_103)\n    tag_104:\n      dup3\n      add\n      swap2\n      swap1\n      0x00\n      mstore\n      keccak256(0x00, 0x20)\n      swap1\n    tag_105:\n      dup2\n      sload\n      dup2\n      mstore\n      swap1\n      0x01\n      add\n      swap1\n      0x20\n      add\n      dup1\n      dup4\n      gt\n      tag_105\n      jumpi\n      dup3\n      swap1\n      sub\n      0x1f\n      and\n      dup3\n      add\n      swap2\n    tag_103:\n      pop\n      pop\n      pop\n      pop\n      pop\n      dup2\n      jump\t// out\n        /* \"@openzeppelin/contracts/access/AccessControl.sol\":5925:6139  function renounceRole(bytes32 role, address account) public virtual override {... */\n    tag_49:\n        /* \"@openzeppelin/contracts/access/AccessControl.sol\":6031:6043  _msgSender() */\n      tag_107\n        /* \"@openzeppelin/contracts/access/AccessControl.sol\":6031:6041  _msgSender */\n      tag_108\n        /* \"@openzeppelin/contracts/access/AccessControl.sol\":6031:6043  _msgSender() */\n      jump\t// in\n    tag_107:\n        /* \"@openzeppelin/contracts/access/AccessControl.sol\":6020:6043  account == _msgSender() */\n      0xffffffffffffffffffffffffffffffffffffffff\n      and\n        /* \"@openzeppelin/contracts/access/AccessControl.sol\":6020:6027  account */\n      dup2\n        /* \"@openzeppelin/contracts/access/AccessControl.sol\":6020:6043  account == _msgSender() */\n      0xffffffffffffffffffffffffffffffffffffffff\n      and\n      eq\n        /* \"@openzeppelin/contracts/access/AccessControl.sol\":6012:6095  require(account == _msgSender(), \"AccessControl: can only renounce roles for self\") */\n      tag_109\n      jumpi\n      mload(0x40)\n      0x08c379a000000000000000000000000000000000000000000000000000000000\n      dup2\n      mstore\n      0x04\n      add\n      tag_110\n      swap1\n      tag_111\n      jump\t// in\n    tag_110:\n      mload(0x40)\n      dup1\n      swap2\n      sub\n      swap1\n      revert\n    tag_109:\n        /* \"@openzeppelin/contracts/access/AccessControl.sol\":6106:6132  _revokeRole(role, account) */\n      tag_112\n        /* \"@openzeppelin/contracts/access/AccessControl.sol\":6118:6122  role */\n      dup3\n        /* \"@openzeppelin/contracts/access/AccessControl.sol\":6124:6131  account */\n      dup3\n        /* \"@openzeppelin/contracts/access/AccessControl.sol\":6106:6117  _revokeRole */\n      tag_113\n        /* \"@openzeppelin/contracts/access/AccessControl.sol\":6106:6132  _revokeRole(role, account) */\n      jump\t// in\n    tag_112:\n        /* \"@openzeppelin/contracts/access/AccessControl.sol\":5925:6139  function renounceRole(bytes32 role, address account) public virtual override {... */\n      pop\n      pop\n      jump\t// out\n        /* \"@openzeppelin/contracts/access/Ownable.sol\":1831:1932  function renounceOwnership() public virtual onlyOwner {... */\n    tag_51:\n        /* \"@openzeppelin/contracts/access/Ownable.sol\":1094:1107  _checkOwner() */\n      tag_115\n        /* \"@openzeppelin/contracts/access/Ownable.sol\":1094:1105  _checkOwner */\n      tag_116\n        /* \"@openzeppelin/contracts/access/Ownable.sol\":1094:1107  _checkOwner() */\n      jump\t// in\n    tag_115:\n        /* \"@openzeppelin/contracts/access/Ownable.sol\":1895:1925  _transferOwnership(address(0)) */\n      tag_118\n        /* \"@openzeppelin/contracts/access/Ownable.sol\":1922:1923  0 */\n      0x00\n        /* \"@openzeppelin/contracts/access/Ownable.sol\":1895:1913  _transferOwnership */\n      tag_119\n        /* \"@openzeppelin/contracts/access/Ownable.sol\":1895:1925  _transferOwnership(address(0)) */\n      jump\t// in\n    tag_118:\n        /* \"@openzeppelin/contracts/access/Ownable.sol\":1831:1932  function renounceOwnership() public virtual onlyOwner {... */\n      jump\t// out\n        /* \"@openzeppelin/contracts/access/Ownable.sol\":1201:1286  function owner() public view virtual returns (address) {... */\n    tag_53:\n        /* \"@openzeppelin/contracts/access/Ownable.sol\":1247:1254  address */\n      0x00\n        /* \"@openzeppelin/contracts/access/Ownable.sol\":1273:1279  _owner */\n      dup1\n      0x00\n      swap1\n      sload\n      swap1\n      0x0100\n      exp\n      swap1\n      div\n      0xffffffffffffffffffffffffffffffffffffffff\n      and\n        /* \"@openzeppelin/contracts/access/Ownable.sol\":1266:1279  return _owner */\n      swap1\n      pop\n        /* \"@openzeppelin/contracts/access/Ownable.sol\":1201:1286  function owner() public view virtual returns (address) {... */\n      swap1\n      jump\t// out\n        /* \"@openzeppelin/contracts/access/AccessControl.sol\":2895:3040  function hasRole(bytes32 role, address account) public view virtual override returns (bool) {... */\n    tag_58:\n        /* \"@openzeppelin/contracts/access/AccessControl.sol\":2981:2985  bool */\n      0x00\n        /* \"@openzeppelin/contracts/access/AccessControl.sol\":3004:3010  _roles */\n      0x01\n        /* \"@openzeppelin/contracts/access/AccessControl.sol\":3004:3016  _roles[role] */\n      0x00\n        /* \"@openzeppelin/contracts/access/AccessControl.sol\":3011:3015  role */\n      dup5\n        /* \"@openzeppelin/contracts/access/AccessControl.sol\":3004:3016  _roles[role] */\n      dup2\n      mstore\n      0x20\n      add\n      swap1\n      dup2\n      mstore\n      0x20\n      add\n      0x00\n      keccak256\n        /* \"@openzeppelin/contracts/access/AccessControl.sol\":3004:3024  _roles[role].members */\n      0x00\n      add\n        /* \"@openzeppelin/contracts/access/AccessControl.sol\":3004:3033  _roles[role].members[account] */\n      0x00\n        /* \"@openzeppelin/contracts/access/AccessControl.sol\":3025:3032  account */\n      dup4\n        /* \"@openzeppelin/contracts/access/AccessControl.sol\":3004:3033  _roles[role].members[account] */\n      0xffffffffffffffffffffffffffffffffffffffff\n      and\n      0xffffffffffffffffffffffffffffffffffffffff\n      and\n      dup2\n      mstore\n      0x20\n      add\n      swap1\n      dup2\n      mstore\n      0x20\n      add\n      0x00\n      keccak256\n      0x00\n      swap1\n      sload\n      swap1\n      0x0100\n      exp\n      swap1\n      div\n      0xff\n      and\n        /* \"@openzeppelin/contracts/access/AccessControl.sol\":2997:3033  return _roles[role].members[account] */\n      swap1\n      pop\n        /* \"@openzeppelin/contracts/access/AccessControl.sol\":2895:3040  function hasRole(bytes32 role, address account) public view virtual override returns (bool) {... */\n      swap3\n      swap2\n      pop\n      pop\n      jump\t// out\n        /* \"contracts/Vote.sol\":2508:2625  function retrieveCandidate(uint256 num) public view returns (candidate memory){... */\n    tag_62:\n        /* \"contracts/Vote.sol\":2569:2585  candidate memory */\n      tag_122\n      tag_123\n      jump\t// in\n    tag_122:\n        /* \"contracts/Vote.sol\":2603:2613  Candidates */\n      0x06\n        /* \"contracts/Vote.sol\":2603:2618  Candidates[num] */\n      0x00\n        /* \"contracts/Vote.sol\":2614:2617  num */\n      dup4\n        /* \"contracts/Vote.sol\":2603:2618  Candidates[num] */\n      dup2\n      mstore\n      0x20\n      add\n      swap1\n      dup2\n      mstore\n      0x20\n      add\n      0x00\n      keccak256\n        /* \"contracts/Vote.sol\":2596:2618  return Candidates[num] */\n      mload(0x40)\n      dup1\n      0x60\n      add\n      0x40\n      mstore\n      swap1\n      dup2\n      0x00\n      dup3\n      add\n      dup1\n      sload\n      tag_125\n      swap1\n      tag_101\n      jump\t// in\n    tag_125:\n      dup1\n      0x1f\n      add\n      0x20\n      dup1\n      swap2\n      div\n      mul\n      0x20\n      add\n      mload(0x40)\n      swap1\n      dup2\n      add\n      0x40\n      mstore\n      dup1\n      swap3\n      swap2\n      swap1\n      dup2\n      dup2\n      mstore\n      0x20\n      add\n      dup3\n      dup1\n      sload\n      tag_126\n      swap1\n      tag_101\n      jump\t// in\n    tag_126:\n      dup1\n      iszero\n      tag_127\n      jumpi\n      dup1\n      0x1f\n      lt\n      tag_128\n      jumpi\n      0x0100\n      dup1\n      dup4\n      sload\n      div\n      mul\n      dup4\n      mstore\n      swap2\n      0x20\n      add\n      swap2\n      jump(tag_127)\n    tag_128:\n      dup3\n      add\n      swap2\n      swap1\n      0x00\n      mstore\n      keccak256(0x00, 0x20)\n      swap1\n    tag_129:\n      dup2\n      sload\n      dup2\n      mstore\n      swap1\n      0x01\n      add\n      swap1\n      0x20\n      add\n      dup1\n      dup4\n      gt\n      tag_129\n      jumpi\n      dup3\n      swap1\n      sub\n      0x1f\n      and\n      dup3\n      add\n      swap2\n    tag_127:\n      pop\n      pop\n      pop\n      pop\n      pop\n      dup2\n      mstore\n      0x20\n      add\n      0x01\n      dup3\n      add\n      0x00\n      swap1\n      sload\n      swap1\n      0x0100\n      exp\n      swap1\n      div\n      0xffffffffffffffffffffffffffffffffffffffff\n      and\n      0xffffffffffffffffffffffffffffffffffffffff\n      and\n      0xffffffffffffffffffffffffffffffffffffffff\n      and\n      dup2\n      mstore\n      0x20\n      add\n      0x02\n      dup3\n      add\n      dup1\n      sload\n      tag_130\n      swap1\n      tag_101\n      jump\t// in\n    tag_130:\n      dup1\n      0x1f\n      add\n      0x20\n      dup1\n      swap2\n      div\n      mul\n      0x20\n      add\n      mload(0x40)\n      swap1\n      dup2\n      add\n      0x40\n      mstore\n      dup1\n      swap3\n      swap2\n      swap1\n      dup2\n      dup2\n      mstore\n      0x20\n      add\n      dup3\n      dup1\n      sload\n      tag_131\n      swap1\n      tag_101\n      jump\t// in\n    tag_131:\n      dup1\n      iszero\n      tag_132\n      jumpi\n      dup1\n      0x1f\n      lt\n      tag_133\n      jumpi\n      0x0100\n      dup1\n      dup4\n      sload\n      div\n      mul\n      dup4\n      mstore\n      swap2\n      0x20\n      add\n      swap2\n      jump(tag_132)\n    tag_133:\n      dup3\n      add\n      swap2\n      swap1\n      0x00\n      mstore\n      keccak256(0x00, 0x20)\n      swap1\n    tag_134:\n      dup2\n      sload\n      dup2\n      mstore\n      swap1\n      0x01\n      add\n      swap1\n      0x20\n      add\n      dup1\n      dup4\n      gt\n      tag_134\n      jumpi\n      dup3\n      swap1\n      sub\n      0x1f\n      and\n      dup3\n      add\n      swap2\n    tag_132:\n      pop\n      pop\n      pop\n      pop\n      pop\n      dup2\n      mstore\n      pop\n      pop\n      swap1\n      pop\n        /* \"contracts/Vote.sol\":2508:2625  function retrieveCandidate(uint256 num) public view returns (candidate memory){... */\n      swap2\n      swap1\n      pop\n      jump\t// out\n        /* \"@openzeppelin/contracts/access/AccessControl.sol\":2027:2076  bytes32 public constant DEFAULT_ADMIN_ROLE = 0x00 */\n    tag_66:\n        /* \"@openzeppelin/contracts/access/AccessControl.sol\":2072:2076  0x00 */\n      0x00\n        /* \"@openzeppelin/contracts/access/AccessControl.sol\":2027:2076  bytes32 public constant DEFAULT_ADMIN_ROLE = 0x00 */\n      dup1\n      shl\n      dup2\n      jump\t// out\n        /* \"@openzeppelin/contracts/access/AccessControl.sol\":5241:5388  function revokeRole(bytes32 role, address account) public virtual override onlyRole(getRoleAdmin(role)) {... */\n    tag_70:\n        /* \"@openzeppelin/contracts/access/AccessControl.sol\":5325:5343  getRoleAdmin(role) */\n      tag_135\n        /* \"@openzeppelin/contracts/access/AccessControl.sol\":5338:5342  role */\n      dup3\n        /* \"@openzeppelin/contracts/access/AccessControl.sol\":5325:5337  getRoleAdmin */\n      tag_31\n        /* \"@openzeppelin/contracts/access/AccessControl.sol\":5325:5343  getRoleAdmin(role) */\n      jump\t// in\n    tag_135:\n        /* \"@openzeppelin/contracts/access/AccessControl.sol\":2505:2521  _checkRole(role) */\n      tag_137\n        /* \"@openzeppelin/contracts/access/AccessControl.sol\":2516:2520  role */\n      dup2\n        /* \"@openzeppelin/contracts/access/AccessControl.sol\":2505:2515  _checkRole */\n      tag_94\n        /* \"@openzeppelin/contracts/access/AccessControl.sol\":2505:2521  _checkRole(role) */\n      jump\t// in\n    tag_137:\n        /* \"@openzeppelin/contracts/access/AccessControl.sol\":5355:5381  _revokeRole(role, account) */\n      tag_139\n        /* \"@openzeppelin/contracts/access/AccessControl.sol\":5367:5371  role */\n      dup4\n        /* \"@openzeppelin/contracts/access/AccessControl.sol\":5373:5380  account */\n      dup4\n        /* \"@openzeppelin/contracts/access/AccessControl.sol\":5355:5366  _revokeRole */\n      tag_113\n        /* \"@openzeppelin/contracts/access/AccessControl.sol\":5355:5381  _revokeRole(role, account) */\n      jump\t// in\n    tag_139:\n        /* \"@openzeppelin/contracts/access/AccessControl.sol\":5241:5388  function revokeRole(bytes32 role, address account) public virtual override onlyRole(getRoleAdmin(role)) {... */\n      pop\n      pop\n      pop\n      jump\t// out\n        /* \"contracts/Vote.sol\":1851:2150  function createCandidate(string memory name, address candAddress, uint256 partyNum) public isInecExec {... */\n    tag_74:\n        /* \"contracts/Vote.sol\":1124:1159  hasRole(INEC_EXEC_ROLE, msg.sender) */\n      tag_141\n        /* \"contracts/Vote.sol\":533:555  keccak256(\"INEC_EXEC\") */\n      0x082f6ed76e0352438e6a6e35c77719c3f04bf277fdc8fec7e5ff5f65e001d902\n        /* \"contracts/Vote.sol\":1148:1158  msg.sender */\n      caller\n        /* \"contracts/Vote.sol\":1124:1131  hasRole */\n      tag_58\n        /* \"contracts/Vote.sol\":1124:1159  hasRole(INEC_EXEC_ROLE, msg.sender) */\n      jump\t// in\n    tag_141:\n        /* \"contracts/Vote.sol\":1116:1195  require(hasRole(INEC_EXEC_ROLE, msg.sender), \"Caller is not an INEC executive\") */\n      tag_142\n      jumpi\n      mload(0x40)\n      0x08c379a000000000000000000000000000000000000000000000000000000000\n      dup2\n      mstore\n      0x04\n      add\n      tag_143\n      swap1\n      tag_144\n      jump\t// in\n    tag_143:\n      mload(0x40)\n      dup1\n      swap2\n      sub\n      swap1\n      revert\n    tag_142:\n        /* \"contracts/Vote.sol\":1995:1999  name */\n      dup3\n        /* \"contracts/Vote.sol\":1963:1973  Candidates */\n      0x06\n        /* \"contracts/Vote.sol\":1963:1987  Candidates[candidateNum] */\n      0x00\n        /* \"contracts/Vote.sol\":1974:1986  candidateNum */\n      sload(0x03)\n        /* \"contracts/Vote.sol\":1963:1987  Candidates[candidateNum] */\n      dup2\n      mstore\n      0x20\n      add\n      swap1\n      dup2\n      mstore\n      0x20\n      add\n      0x00\n      keccak256\n        /* \"contracts/Vote.sol\":1963:1992  Candidates[candidateNum].name */\n      0x00\n      add\n        /* \"contracts/Vote.sol\":1963:1999  Candidates[candidateNum].name = name */\n      swap1\n      dup1\n      mload\n      swap1\n      0x20\n      add\n      swap1\n      tag_146\n      swap3\n      swap2\n      swap1\n      tag_147\n      jump\t// in\n    tag_146:\n      pop\n        /* \"contracts/Vote.sol\":2041:2052  candAddress */\n      dup2\n        /* \"contracts/Vote.sol\":2009:2019  Candidates */\n      0x06\n        /* \"contracts/Vote.sol\":2009:2033  Candidates[candidateNum] */\n      0x00\n        /* \"contracts/Vote.sol\":2020:2032  candidateNum */\n      sload(0x03)\n        /* \"contracts/Vote.sol\":2009:2033  Candidates[candidateNum] */\n      dup2\n      mstore\n      0x20\n      add\n      swap1\n      dup2\n      mstore\n      0x20\n      add\n      0x00\n      keccak256\n        /* \"contracts/Vote.sol\":2009:2038  Candidates[candidateNum].addr */\n      0x01\n      add\n      0x00\n        /* \"contracts/Vote.sol\":2009:2052  Candidates[candidateNum].addr = candAddress */\n      0x0100\n      exp\n      dup2\n      sload\n      dup2\n      0xffffffffffffffffffffffffffffffffffffffff\n      mul\n      not\n      and\n      swap1\n      dup4\n      0xffffffffffffffffffffffffffffffffffffffff\n      and\n      mul\n      or\n      swap1\n      sstore\n      pop\n        /* \"contracts/Vote.sol\":2095:2100  party */\n      0x05\n        /* \"contracts/Vote.sol\":2101:2109  partyNum */\n      dup2\n        /* \"contracts/Vote.sol\":2095:2110  party[partyNum] */\n      dup2\n      sload\n      dup2\n      lt\n      tag_148\n      jumpi\n      tag_149\n      tag_150\n      jump\t// in\n    tag_149:\n    tag_148:\n      swap1\n      0x00\n      mstore\n      keccak256(0x00, 0x20)\n      add\n        /* \"contracts/Vote.sol\":2062:2072  Candidates */\n      0x06\n        /* \"contracts/Vote.sol\":2062:2086  Candidates[candidateNum] */\n      0x00\n        /* \"contracts/Vote.sol\":2073:2085  candidateNum */\n      sload(0x03)\n        /* \"contracts/Vote.sol\":2062:2086  Candidates[candidateNum] */\n      dup2\n      mstore\n      0x20\n      add\n      swap1\n      dup2\n      mstore\n      0x20\n      add\n      0x00\n      keccak256\n        /* \"contracts/Vote.sol\":2062:2092  Candidates[candidateNum].party */\n      0x02\n      add\n        /* \"contracts/Vote.sol\":2062:2110  Candidates[candidateNum].party = party[partyNum] */\n      swap1\n      dup1\n      sload\n      tag_152\n      swap1\n      tag_101\n      jump\t// in\n    tag_152:\n      tag_153\n      swap3\n      swap2\n      swap1\n      tag_154\n      jump\t// in\n    tag_153:\n      pop\n        /* \"contracts/Vote.sol\":2122:2134  candidateNum */\n      0x03\n      0x00\n        /* \"contracts/Vote.sol\":2122:2137  candidateNum ++ */\n      dup2\n      sload\n      dup1\n      swap3\n      swap2\n      swap1\n      tag_155\n      swap1\n      tag_156\n      jump\t// in\n    tag_155:\n      swap2\n      swap1\n      pop\n      sstore\n      pop\n        /* \"contracts/Vote.sol\":1851:2150  function createCandidate(string memory name, address candAddress, uint256 partyNum) public isInecExec {... */\n      pop\n      pop\n      pop\n      jump\t// out\n        /* \"contracts/Vote.sol\":1531:1641  function createInecExec(address _account) public onlyOwner{... */\n    tag_78:\n        /* \"@openzeppelin/contracts/access/Ownable.sol\":1094:1107  _checkOwner() */\n      tag_158\n        /* \"@openzeppelin/contracts/access/Ownable.sol\":1094:1105  _checkOwner */\n      tag_116\n        /* \"@openzeppelin/contracts/access/Ownable.sol\":1094:1107  _checkOwner() */\n      jump\t// in\n    tag_158:\n        /* \"contracts/Vote.sol\":1599:1634  grantRole(INEC_EXEC_ROLE, _account) */\n      tag_160\n        /* \"contracts/Vote.sol\":533:555  keccak256(\"INEC_EXEC\") */\n      0x082f6ed76e0352438e6a6e35c77719c3f04bf277fdc8fec7e5ff5f65e001d902\n        /* \"contracts/Vote.sol\":1625:1633  _account */\n      dup3\n        /* \"contracts/Vote.sol\":1599:1608  grantRole */\n      tag_40\n        /* \"contracts/Vote.sol\":1599:1634  grantRole(INEC_EXEC_ROLE, _account) */\n      jump\t// in\n    tag_160:\n        /* \"contracts/Vote.sol\":1531:1641  function createInecExec(address _account) public onlyOwner{... */\n      pop\n      jump\t// out\n        /* \"contracts/Vote.sol\":2275:2427  function regVoter(address _account, uint256 _nin) public onlyOwner{... */\n    tag_82:\n        /* \"@openzeppelin/contracts/access/Ownable.sol\":1094:1107  _checkOwner() */\n      tag_162\n        /* \"@openzeppelin/contracts/access/Ownable.sol\":1094:1105  _checkOwner */\n      tag_116\n        /* \"@openzeppelin/contracts/access/Ownable.sol\":1094:1107  _checkOwner() */\n      jump\t// in\n    tag_162:\n        /* \"contracts/Vote.sol\":2375:2383  _account */\n      dup2\n        /* \"contracts/Vote.sol\":2351:2357  Voters */\n      0x07\n        /* \"contracts/Vote.sol\":2351:2367  Voters[voterNum] */\n      0x00\n        /* \"contracts/Vote.sol\":2358:2366  voterNum */\n      sload(0x04)\n        /* \"contracts/Vote.sol\":2351:2367  Voters[voterNum] */\n      dup2\n      mstore\n      0x20\n      add\n      swap1\n      dup2\n      mstore\n      0x20\n      add\n      0x00\n      keccak256\n        /* \"contracts/Vote.sol\":2351:2372  Voters[voterNum].addr */\n      0x00\n      add\n      0x00\n        /* \"contracts/Vote.sol\":2351:2383  Voters[voterNum].addr = _account */\n      0x0100\n      exp\n      dup2\n      sload\n      dup2\n      0xffffffffffffffffffffffffffffffffffffffff\n      mul\n      not\n      and\n      swap1\n      dup4\n      0xffffffffffffffffffffffffffffffffffffffff\n      and\n      mul\n      or\n      swap1\n      sstore\n      pop\n        /* \"contracts/Vote.sol\":2416:2420  _nin */\n      dup1\n        /* \"contracts/Vote.sol\":2393:2399  Voters */\n      0x07\n        /* \"contracts/Vote.sol\":2393:2409  Voters[voterNum] */\n      0x00\n        /* \"contracts/Vote.sol\":2400:2408  voterNum */\n      sload(0x04)\n        /* \"contracts/Vote.sol\":2393:2409  Voters[voterNum] */\n      dup2\n      mstore\n      0x20\n      add\n      swap1\n      dup2\n      mstore\n      0x20\n      add\n      0x00\n      keccak256\n        /* \"contracts/Vote.sol\":2393:2413  Voters[voterNum].nin */\n      0x01\n      add\n        /* \"contracts/Vote.sol\":2393:2420  Voters[voterNum].nin = _nin */\n      dup2\n      swap1\n      sstore\n      pop\n        /* \"contracts/Vote.sol\":2275:2427  function regVoter(address _account, uint256 _nin) public onlyOwner{... */\n      pop\n      pop\n      jump\t// out\n        /* \"@openzeppelin/contracts/access/Ownable.sol\":2081:2279  function transferOwnership(address newOwner) public virtual onlyOwner {... */\n    tag_85:\n        /* \"@openzeppelin/contracts/access/Ownable.sol\":1094:1107  _checkOwner() */\n      tag_165\n        /* \"@openzeppelin/contracts/access/Ownable.sol\":1094:1105  _checkOwner */\n      tag_116\n        /* \"@openzeppelin/contracts/access/Ownable.sol\":1094:1107  _checkOwner() */\n      jump\t// in\n    tag_165:\n        /* \"@openzeppelin/contracts/access/Ownable.sol\":2189:2190  0 */\n      0x00\n        /* \"@openzeppelin/contracts/access/Ownable.sol\":2169:2191  newOwner != address(0) */\n      0xffffffffffffffffffffffffffffffffffffffff\n      and\n        /* \"@openzeppelin/contracts/access/Ownable.sol\":2169:2177  newOwner */\n      dup2\n        /* \"@openzeppelin/contracts/access/Ownable.sol\":2169:2191  newOwner != address(0) */\n      0xffffffffffffffffffffffffffffffffffffffff\n      and\n      eq\n      iszero\n        /* \"@openzeppelin/contracts/access/Ownable.sol\":2161:2234  require(newOwner != address(0), \"Ownable: new owner is the zero address\") */\n      tag_167\n      jumpi\n      mload(0x40)\n      0x08c379a000000000000000000000000000000000000000000000000000000000\n      dup2\n      mstore\n      0x04\n      add\n      tag_168\n      swap1\n      tag_169\n      jump\t// in\n    tag_168:\n      mload(0x40)\n      dup1\n      swap2\n      sub\n      swap1\n      revert\n    tag_167:\n        /* \"@openzeppelin/contracts/access/Ownable.sol\":2244:2272  _transferOwnership(newOwner) */\n      tag_170\n        /* \"@openzeppelin/contracts/access/Ownable.sol\":2263:2271  newOwner */\n      dup2\n        /* \"@openzeppelin/contracts/access/Ownable.sol\":2244:2262  _transferOwnership */\n      tag_119\n        /* \"@openzeppelin/contracts/access/Ownable.sol\":2244:2272  _transferOwnership(newOwner) */\n      jump\t// in\n    tag_170:\n        /* \"@openzeppelin/contracts/access/Ownable.sol\":2081:2279  function transferOwnership(address newOwner) public virtual onlyOwner {... */\n      pop\n      jump\t// out\n        /* \"@openzeppelin/contracts/utils/introspection/ERC165.sol\":829:984  function supportsInterface(bytes4 interfaceId) public view virtual override returns (bool) {... */\n    tag_89:\n        /* \"@openzeppelin/contracts/utils/introspection/ERC165.sol\":914:918  bool */\n      0x00\n        /* \"@openzeppelin/contracts/utils/introspection/ERC165.sol\":952:977  type(IERC165).interfaceId */\n      0x01ffc9a700000000000000000000000000000000000000000000000000000000\n        /* \"@openzeppelin/contracts/utils/introspection/ERC165.sol\":937:977  interfaceId == type(IERC165).interfaceId */\n      not(0xffffffffffffffffffffffffffffffffffffffffffffffffffffffff)\n      and\n        /* \"@openzeppelin/contracts/utils/introspection/ERC165.sol\":937:948  interfaceId */\n      dup3\n        /* \"@openzeppelin/contracts/utils/introspection/ERC165.sol\":937:977  interfaceId == type(IERC165).interfaceId */\n      not(0xffffffffffffffffffffffffffffffffffffffffffffffffffffffff)\n      and\n      eq\n        /* \"@openzeppelin/contracts/utils/introspection/ERC165.sol\":930:977  return interfaceId == type(IERC165).interfaceId */\n      swap1\n      pop\n        /* \"@openzeppelin/contracts/utils/introspection/ERC165.sol\":829:984  function supportsInterface(bytes4 interfaceId) public view virtual override returns (bool) {... */\n      swap2\n      swap1\n      pop\n      jump\t// out\n        /* \"@openzeppelin/contracts/access/AccessControl.sol\":3334:3437  function _checkRole(bytes32 role) internal view virtual {... */\n    tag_94:\n        /* \"@openzeppelin/contracts/access/AccessControl.sol\":3400:3430  _checkRole(role, _msgSender()) */\n      tag_173\n        /* \"@openzeppelin/contracts/access/AccessControl.sol\":3411:3415  role */\n      dup2\n        /* \"@openzeppelin/contracts/access/AccessControl.sol\":3417:3429  _msgSender() */\n      tag_174\n        /* \"@openzeppelin/contracts/access/AccessControl.sol\":3417:3427  _msgSender */\n      tag_108\n        /* \"@openzeppelin/contracts/access/AccessControl.sol\":3417:3429  _msgSender() */\n      jump\t// in\n    tag_174:\n        /* \"@openzeppelin/contracts/access/AccessControl.sol\":3400:3410  _checkRole */\n      tag_175\n        /* \"@openzeppelin/contracts/access/AccessControl.sol\":3400:3430  _checkRole(role, _msgSender()) */\n      jump\t// in\n    tag_173:\n        /* \"@openzeppelin/contracts/access/AccessControl.sol\":3334:3437  function _checkRole(bytes32 role) internal view virtual {... */\n      pop\n      jump\t// out\n        /* \"@openzeppelin/contracts/access/AccessControl.sol\":7474:7707  function _grantRole(bytes32 role, address account) internal virtual {... */\n    tag_97:\n        /* \"@openzeppelin/contracts/access/AccessControl.sol\":7557:7579  hasRole(role, account) */\n      tag_177\n        /* \"@openzeppelin/contracts/access/AccessControl.sol\":7565:7569  role */\n      dup3\n        /* \"@openzeppelin/contracts/access/AccessControl.sol\":7571:7578  account */\n      dup3\n        /* \"@openzeppelin/contracts/access/AccessControl.sol\":7557:7564  hasRole */\n      tag_58\n        /* \"@openzeppelin/contracts/access/AccessControl.sol\":7557:7579  hasRole(role, account) */\n      jump\t// in\n    tag_177:\n        /* \"@openzeppelin/contracts/access/AccessControl.sol\":7552:7701  if (!hasRole(role, account)) {... */\n      tag_178\n      jumpi\n        /* \"@openzeppelin/contracts/access/AccessControl.sol\":7627:7631  true */\n      0x01\n        /* \"@openzeppelin/contracts/access/AccessControl.sol\":7595:7601  _roles */\n      dup1\n        /* \"@openzeppelin/contracts/access/AccessControl.sol\":7595:7607  _roles[role] */\n      0x00\n        /* \"@openzeppelin/contracts/access/AccessControl.sol\":7602:7606  role */\n      dup5\n        /* \"@openzeppelin/contracts/access/AccessControl.sol\":7595:7607  _roles[role] */\n      dup2\n      mstore\n      0x20\n      add\n      swap1\n      dup2\n      mstore\n      0x20\n      add\n      0x00\n      keccak256\n        /* \"@openzeppelin/contracts/access/AccessControl.sol\":7595:7615  _roles[role].members */\n      0x00\n      add\n        /* \"@openzeppelin/contracts/access/AccessControl.sol\":7595:7624  _roles[role].members[account] */\n      0x00\n        /* \"@openzeppelin/contracts/access/AccessControl.sol\":7616:7623  account */\n      dup4\n        /* \"@openzeppelin/contracts/access/AccessControl.sol\":7595:7624  _roles[role].members[account] */\n      0xffffffffffffffffffffffffffffffffffffffff\n      and\n      0xffffffffffffffffffffffffffffffffffffffff\n      and\n      dup2\n      mstore\n      0x20\n      add\n      swap1\n      dup2\n      mstore\n      0x20\n      add\n      0x00\n      keccak256\n      0x00\n        /* \"@openzeppelin/contracts/access/AccessControl.sol\":7595:7631  _roles[role].members[account] = true */\n      0x0100\n      exp\n      dup2\n      sload\n      dup2\n      0xff\n      mul\n      not\n      and\n      swap1\n      dup4\n      iszero\n      iszero\n      mul\n      or\n      swap1\n      sstore\n      pop\n        /* \"@openzeppelin/contracts/access/AccessControl.sol\":7677:7689  _msgSender() */\n      tag_179\n        /* \"@openzeppelin/contracts/access/AccessControl.sol\":7677:7687  _msgSender */\n      tag_108\n        /* \"@openzeppelin/contracts/access/AccessControl.sol\":7677:7689  _msgSender() */\n      jump\t// in\n    tag_179:\n        /* \"@openzeppelin/contracts/access/AccessControl.sol\":7650:7690  RoleGranted(role, account, _msgSender()) */\n      0xffffffffffffffffffffffffffffffffffffffff\n      and\n        /* \"@openzeppelin/contracts/access/AccessControl.sol\":7668:7675  account */\n      dup2\n        /* \"@openzeppelin/contracts/access/AccessControl.sol\":7650:7690  RoleGranted(role, account, _msgSender()) */\n      0xffffffffffffffffffffffffffffffffffffffff\n      and\n        /* \"@openzeppelin/contracts/access/AccessControl.sol\":7662:7666  role */\n      dup4\n        /* \"@openzeppelin/contracts/access/AccessControl.sol\":7650:7690  RoleGranted(role, account, _msgSender()) */\n      0x2f8788117e7eff1d82e926ec794901d17c78024a50270940304540a733656f0d\n      mload(0x40)\n      mload(0x40)\n      dup1\n      swap2\n      sub\n      swap1\n      log4\n        /* \"@openzeppelin/contracts/access/AccessControl.sol\":7552:7701  if (!hasRole(role, account)) {... */\n    tag_178:\n        /* \"@openzeppelin/contracts/access/AccessControl.sol\":7474:7707  function _grantRole(bytes32 role, address account) internal virtual {... */\n      pop\n      pop\n      jump\t// out\n        /* \"@openzeppelin/contracts/utils/Context.sol\":640:736  function _msgSender() internal view virtual returns (address) {... */\n    tag_108:\n        /* \"@openzeppelin/contracts/utils/Context.sol\":693:700  address */\n      0x00\n        /* \"@openzeppelin/contracts/utils/Context.sol\":719:729  msg.sender */\n      caller\n        /* \"@openzeppelin/contracts/utils/Context.sol\":712:729  return msg.sender */\n      swap1\n      pop\n        /* \"@openzeppelin/contracts/utils/Context.sol\":640:736  function _msgSender() internal view virtual returns (address) {... */\n      swap1\n      jump\t// out\n        /* \"@openzeppelin/contracts/access/AccessControl.sol\":7878:8112  function _revokeRole(bytes32 role, address account) internal virtual {... */\n    tag_113:\n        /* \"@openzeppelin/contracts/access/AccessControl.sol\":7961:7983  hasRole(role, account) */\n      tag_182\n        /* \"@openzeppelin/contracts/access/AccessControl.sol\":7969:7973  role */\n      dup3\n        /* \"@openzeppelin/contracts/access/AccessControl.sol\":7975:7982  account */\n      dup3\n        /* \"@openzeppelin/contracts/access/AccessControl.sol\":7961:7968  hasRole */\n      tag_58\n        /* \"@openzeppelin/contracts/access/AccessControl.sol\":7961:7983  hasRole(role, account) */\n      jump\t// in\n    tag_182:\n        /* \"@openzeppelin/contracts/access/AccessControl.sol\":7957:8106  if (hasRole(role, account)) {... */\n      iszero\n      tag_183\n      jumpi\n        /* \"@openzeppelin/contracts/access/AccessControl.sol\":8031:8036  false */\n      0x00\n        /* \"@openzeppelin/contracts/access/AccessControl.sol\":7999:8005  _roles */\n      0x01\n        /* \"@openzeppelin/contracts/access/AccessControl.sol\":7999:8011  _roles[role] */\n      0x00\n        /* \"@openzeppelin/contracts/access/AccessControl.sol\":8006:8010  role */\n      dup5\n        /* \"@openzeppelin/contracts/access/AccessControl.sol\":7999:8011  _roles[role] */\n      dup2\n      mstore\n      0x20\n      add\n      swap1\n      dup2\n      mstore\n      0x20\n      add\n      0x00\n      keccak256\n        /* \"@openzeppelin/contracts/access/AccessControl.sol\":7999:8019  _roles[role].members */\n      0x00\n      add\n        /* \"@openzeppelin/contracts/access/AccessControl.sol\":7999:8028  _roles[role].members[account] */\n      0x00\n        /* \"@openzeppelin/contracts/access/AccessControl.sol\":8020:8027  account */\n      dup4\n        /* \"@openzeppelin/contracts/access/AccessControl.sol\":7999:8028  _roles[role].members[account] */\n      0xffffffffffffffffffffffffffffffffffffffff\n      and\n      0xffffffffffffffffffffffffffffffffffffffff\n      and\n      dup2\n      mstore\n      0x20\n      add\n      swap1\n      dup2\n      mstore\n      0x20\n      add\n      0x00\n      keccak256\n      0x00\n        /* \"@openzeppelin/contracts/access/AccessControl.sol\":7999:8036  _roles[role].members[account] = false */\n      0x0100\n      exp\n      dup2\n      sload\n      dup2\n      0xff\n      mul\n      not\n      and\n      swap1\n      dup4\n      iszero\n      iszero\n      mul\n      or\n      swap1\n      sstore\n      pop\n        /* \"@openzeppelin/contracts/access/AccessControl.sol\":8082:8094  _msgSender() */\n      tag_184\n        /* \"@openzeppelin/contracts/access/AccessControl.sol\":8082:8092  _msgSender */\n      tag_108\n        /* \"@openzeppelin/contracts/access/AccessControl.sol\":8082:8094  _msgSender() */\n      jump\t// in\n    tag_184:\n        /* \"@openzeppelin/contracts/access/AccessControl.sol\":8055:8095  RoleRevoked(role, account, _msgSender()) */\n      0xffffffffffffffffffffffffffffffffffffffff\n      and\n        /* \"@openzeppelin/contracts/access/AccessControl.sol\":8073:8080  account */\n      dup2\n        /* \"@openzeppelin/contracts/access/AccessControl.sol\":8055:8095  RoleRevoked(role, account, _msgSender()) */\n      0xffffffffffffffffffffffffffffffffffffffff\n      and\n        /* \"@openzeppelin/contracts/access/AccessControl.sol\":8067:8071  role */\n      dup4\n        /* \"@openzeppelin/contracts/access/AccessControl.sol\":8055:8095  RoleRevoked(role, account, _msgSender()) */\n      0xf6391f5c32d9c69d2a47ea670b442974b53935d1edc7fd64eb21e047a839171b\n      mload(0x40)\n      mload(0x40)\n      dup1\n      swap2\n      sub\n      swap1\n      log4\n        /* \"@openzeppelin/contracts/access/AccessControl.sol\":7957:8106  if (hasRole(role, account)) {... */\n    tag_183:\n        /* \"@openzeppelin/contracts/access/AccessControl.sol\":7878:8112  function _revokeRole(bytes32 role, address account) internal virtual {... */\n      pop\n      pop\n      jump\t// out\n        /* \"@openzeppelin/contracts/access/Ownable.sol\":1359:1489  function _checkOwner() internal view virtual {... */\n    tag_116:\n        /* \"@openzeppelin/contracts/access/Ownable.sol\":1433:1445  _msgSender() */\n      tag_186\n        /* \"@openzeppelin/contracts/access/Ownable.sol\":1433:1443  _msgSender */\n      tag_108\n        /* \"@openzeppelin/contracts/access/Ownable.sol\":1433:1445  _msgSender() */\n      jump\t// in\n    tag_186:\n        /* \"@openzeppelin/contracts/access/Ownable.sol\":1422:1445  owner() == _msgSender() */\n      0xffffffffffffffffffffffffffffffffffffffff\n      and\n        /* \"@openzeppelin/contracts/access/Ownable.sol\":1422:1429  owner() */\n      tag_187\n        /* \"@openzeppelin/contracts/access/Ownable.sol\":1422:1427  owner */\n      tag_53\n        /* \"@openzeppelin/contracts/access/Ownable.sol\":1422:1429  owner() */\n      jump\t// in\n    tag_187:\n        /* \"@openzeppelin/contracts/access/Ownable.sol\":1422:1445  owner() == _msgSender() */\n      0xffffffffffffffffffffffffffffffffffffffff\n      and\n      eq\n        /* \"@openzeppelin/contracts/access/Ownable.sol\":1414:1482  require(owner() == _msgSender(), \"Ownable: caller is not the owner\") */\n      tag_188\n      jumpi\n      mload(0x40)\n      0x08c379a000000000000000000000000000000000000000000000000000000000\n      dup2\n      mstore\n      0x04\n      add\n      tag_189\n      swap1\n      tag_190\n      jump\t// in\n    tag_189:\n      mload(0x40)\n      dup1\n      swap2\n      sub\n      swap1\n      revert\n    tag_188:\n        /* \"@openzeppelin/contracts/access/Ownable.sol\":1359:1489  function _checkOwner() internal view virtual {... */\n      jump\t// out\n        /* \"@openzeppelin/contracts/access/Ownable.sol\":2433:2620  function _transferOwnership(address newOwner) internal virtual {... */\n    tag_119:\n        /* \"@openzeppelin/contracts/access/Ownable.sol\":2506:2522  address oldOwner */\n      0x00\n        /* \"@openzeppelin/contracts/access/Ownable.sol\":2525:2531  _owner */\n      dup1\n      0x00\n      swap1\n      sload\n      swap1\n      0x0100\n      exp\n      swap1\n      div\n      0xffffffffffffffffffffffffffffffffffffffff\n      and\n        /* \"@openzeppelin/contracts/access/Ownable.sol\":2506:2531  address oldOwner = _owner */\n      swap1\n      pop\n        /* \"@openzeppelin/contracts/access/Ownable.sol\":2550:2558  newOwner */\n      dup2\n        /* \"@openzeppelin/contracts/access/Ownable.sol\":2541:2547  _owner */\n      0x00\n      dup1\n        /* \"@openzeppelin/contracts/access/Ownable.sol\":2541:2558  _owner = newOwner */\n      0x0100\n      exp\n      dup2\n      sload\n      dup2\n      0xffffffffffffffffffffffffffffffffffffffff\n      mul\n      not\n      and\n      swap1\n      dup4\n      0xffffffffffffffffffffffffffffffffffffffff\n      and\n      mul\n      or\n      swap1\n      sstore\n      pop\n        /* \"@openzeppelin/contracts/access/Ownable.sol\":2604:2612  newOwner */\n      dup2\n        /* \"@openzeppelin/contracts/access/Ownable.sol\":2573:2613  OwnershipTransferred(oldOwner, newOwner) */\n      0xffffffffffffffffffffffffffffffffffffffff\n      and\n        /* \"@openzeppelin/contracts/access/Ownable.sol\":2594:2602  oldOwner */\n      dup2\n        /* \"@openzeppelin/contracts/access/Ownable.sol\":2573:2613  OwnershipTransferred(oldOwner, newOwner) */\n      0xffffffffffffffffffffffffffffffffffffffff\n      and\n      0x8be0079c531659141344cd1fd0a4f28419497f9722a3daafe3b4186f6b6457e0\n      mload(0x40)\n      mload(0x40)\n      dup1\n      swap2\n      sub\n      swap1\n      log3\n        /* \"@openzeppelin/contracts/access/Ownable.sol\":2496:2620  {... */\n      pop\n        /* \"@openzeppelin/contracts/access/Ownable.sol\":2433:2620  function _transferOwnership(address newOwner) internal virtual {... */\n      pop\n      jump\t// out\n        /* \"@openzeppelin/contracts/access/AccessControl.sol\":3718:4210  function _checkRole(bytes32 role, address account) internal view virtual {... */\n    tag_175:\n        /* \"@openzeppelin/contracts/access/AccessControl.sol\":3806:3828  hasRole(role, account) */\n      tag_193\n        /* \"@openzeppelin/contracts/access/AccessControl.sol\":3814:3818  role */\n      dup3\n        /* \"@openzeppelin/contracts/access/AccessControl.sol\":3820:3827  account */\n      dup3\n        /* \"@openzeppelin/contracts/access/AccessControl.sol\":3806:3813  hasRole */\n      tag_58\n        /* \"@openzeppelin/contracts/access/AccessControl.sol\":3806:3828  hasRole(role, account) */\n      jump\t// in\n    tag_193:\n        /* \"@openzeppelin/contracts/access/AccessControl.sol\":3801:4204  if (!hasRole(role, account)) {... */\n      tag_194\n      jumpi\n        /* \"@openzeppelin/contracts/access/AccessControl.sol\":3989:4030  Strings.toHexString(uint160(account), 20) */\n      tag_195\n        /* \"@openzeppelin/contracts/access/AccessControl.sol\":4017:4024  account */\n      dup2\n        /* \"@openzeppelin/contracts/access/AccessControl.sol\":3989:4030  Strings.toHexString(uint160(account), 20) */\n      0xffffffffffffffffffffffffffffffffffffffff\n      and\n        /* \"@openzeppelin/contracts/access/AccessControl.sol\":4027:4029  20 */\n      0x14\n        /* \"@openzeppelin/contracts/access/AccessControl.sol\":3989:4008  Strings.toHexString */\n      tag_196\n        /* \"@openzeppelin/contracts/access/AccessControl.sol\":3989:4030  Strings.toHexString(uint160(account), 20) */\n      jump\t// in\n    tag_195:\n        /* \"@openzeppelin/contracts/access/AccessControl.sol\":4101:4139  Strings.toHexString(uint256(role), 32) */\n      tag_197\n        /* \"@openzeppelin/contracts/access/AccessControl.sol\":4129:4133  role */\n      dup4\n        /* \"@openzeppelin/contracts/access/AccessControl.sol\":4121:4134  uint256(role) */\n      0x00\n      shr\n        /* \"@openzeppelin/contracts/access/AccessControl.sol\":4136:4138  32 */\n      0x20\n        /* \"@openzeppelin/contracts/access/AccessControl.sol\":4101:4120  Strings.toHexString */\n      tag_196\n        /* \"@openzeppelin/contracts/access/AccessControl.sol\":4101:4139  Strings.toHexString(uint256(role), 32) */\n      jump\t// in\n    tag_197:\n        /* \"@openzeppelin/contracts/access/AccessControl.sol\":3896:4161  abi.encodePacked(... */\n      add(0x20, mload(0x40))\n      tag_198\n      swap3\n      swap2\n      swap1\n      tag_199\n      jump\t// in\n    tag_198:\n      mload(0x40)\n      0x20\n      dup2\n      dup4\n      sub\n      sub\n      dup2\n      mstore\n      swap1\n      0x40\n      mstore\n        /* \"@openzeppelin/contracts/access/AccessControl.sol\":3844:4193  revert(... */\n      mload(0x40)\n      0x08c379a000000000000000000000000000000000000000000000000000000000\n      dup2\n      mstore\n      0x04\n      add\n      tag_200\n      swap2\n      swap1\n      tag_46\n      jump\t// in\n    tag_200:\n      mload(0x40)\n      dup1\n      swap2\n      sub\n      swap1\n      revert\n        /* \"@openzeppelin/contracts/access/AccessControl.sol\":3801:4204  if (!hasRole(role, account)) {... */\n    tag_194:\n        /* \"@openzeppelin/contracts/access/AccessControl.sol\":3718:4210  function _checkRole(bytes32 role, address account) internal view virtual {... */\n      pop\n      pop\n      jump\t// out\n        /* \"@openzeppelin/contracts/utils/Strings.sol\":1652:2093  function toHexString(uint256 value, uint256 length) internal pure returns (string memory) {... */\n    tag_196:\n        /* \"@openzeppelin/contracts/utils/Strings.sol\":1727:1740  string memory */\n      0x60\n        /* \"@openzeppelin/contracts/utils/Strings.sol\":1752:1771  bytes memory buffer */\n      0x00\n        /* \"@openzeppelin/contracts/utils/Strings.sol\":1797:1798  2 */\n      0x02\n        /* \"@openzeppelin/contracts/utils/Strings.sol\":1788:1794  length */\n      dup4\n        /* \"@openzeppelin/contracts/utils/Strings.sol\":1784:1785  2 */\n      0x02\n        /* \"@openzeppelin/contracts/utils/Strings.sol\":1784:1794  2 * length */\n      tag_202\n      swap2\n      swap1\n      tag_203\n      jump\t// in\n    tag_202:\n        /* \"@openzeppelin/contracts/utils/Strings.sol\":1784:1798  2 * length + 2 */\n      tag_204\n      swap2\n      swap1\n      tag_205\n      jump\t// in\n    tag_204:\n        /* \"@openzeppelin/contracts/utils/Strings.sol\":1774:1799  new bytes(2 * length + 2) */\n      0xffffffffffffffff\n      dup2\n      gt\n      iszero\n      tag_206\n      jumpi\n      tag_207\n      tag_208\n      jump\t// in\n    tag_207:\n    tag_206:\n      mload(0x40)\n      swap1\n      dup1\n      dup3\n      mstore\n      dup1\n      0x1f\n      add\n      not(0x1f)\n      and\n      0x20\n      add\n      dup3\n      add\n      0x40\n      mstore\n      dup1\n      iszero\n      tag_209\n      jumpi\n      dup2\n      0x20\n      add\n      0x01\n      dup3\n      mul\n      dup1\n      calldatasize\n      dup4\n      calldatacopy\n      dup1\n      dup3\n      add\n      swap2\n      pop\n      pop\n      swap1\n      pop\n    tag_209:\n      pop\n        /* \"@openzeppelin/contracts/utils/Strings.sol\":1752:1799  bytes memory buffer = new bytes(2 * length + 2) */\n      swap1\n      pop\n        /* \"@openzeppelin/contracts/utils/Strings.sol\":1809:1824  buffer[0] = \"0\" */\n      0x3000000000000000000000000000000000000000000000000000000000000000\n        /* \"@openzeppelin/contracts/utils/Strings.sol\":1809:1815  buffer */\n      dup2\n        /* \"@openzeppelin/contracts/utils/Strings.sol\":1816:1817  0 */\n      0x00\n        /* \"@openzeppelin/contracts/utils/Strings.sol\":1809:1818  buffer[0] */\n      dup2\n      mload\n      dup2\n      lt\n      tag_210\n      jumpi\n      tag_211\n      tag_150\n      jump\t// in\n    tag_211:\n    tag_210:\n      0x20\n      add\n      add\n        /* \"@openzeppelin/contracts/utils/Strings.sol\":1809:1824  buffer[0] = \"0\" */\n      swap1\n      not(0xffffffffffffffffffffffffffffffffffffffffffffffffffffffffffffff)\n      and\n      swap1\n      dup2\n      0x00\n      byte\n      swap1\n      mstore8\n      pop\n        /* \"@openzeppelin/contracts/utils/Strings.sol\":1834:1849  buffer[1] = \"x\" */\n      0x7800000000000000000000000000000000000000000000000000000000000000\n        /* \"@openzeppelin/contracts/utils/Strings.sol\":1834:1840  buffer */\n      dup2\n        /* \"@openzeppelin/contracts/utils/Strings.sol\":1841:1842  1 */\n      0x01\n        /* \"@openzeppelin/contracts/utils/Strings.sol\":1834:1843  buffer[1] */\n      dup2\n      mload\n      dup2\n      lt\n      tag_212\n      jumpi\n      tag_213\n      tag_150\n      jump\t// in\n    tag_213:\n    tag_212:\n      0x20\n      add\n      add\n        /* \"@openzeppelin/contracts/utils/Strings.sol\":1834:1849  buffer[1] = \"x\" */\n      swap1\n      not(0xffffffffffffffffffffffffffffffffffffffffffffffffffffffffffffff)\n      and\n      swap1\n      dup2\n      0x00\n      byte\n      swap1\n      mstore8\n      pop\n        /* \"@openzeppelin/contracts/utils/Strings.sol\":1864:1873  uint256 i */\n      0x00\n        /* \"@openzeppelin/contracts/utils/Strings.sol\":1889:1890  1 */\n      0x01\n        /* \"@openzeppelin/contracts/utils/Strings.sol\":1880:1886  length */\n      dup5\n        /* \"@openzeppelin/contracts/utils/Strings.sol\":1876:1877  2 */\n      0x02\n        /* \"@openzeppelin/contracts/utils/Strings.sol\":1876:1886  2 * length */\n      tag_217\n      swap2\n      swap1\n      tag_203\n      jump\t// in\n    tag_217:\n        /* \"@openzeppelin/contracts/utils/Strings.sol\":1876:1890  2 * length + 1 */\n      tag_218\n      swap2\n      swap1\n      tag_205\n      jump\t// in\n    tag_218:\n        /* \"@openzeppelin/contracts/utils/Strings.sol\":1864:1890  uint256 i = 2 * length + 1 */\n      swap1\n      pop\n        /* \"@openzeppelin/contracts/utils/Strings.sol\":1859:1991  for (uint256 i = 2 * length + 1; i > 1; --i) {... */\n    tag_214:\n        /* \"@openzeppelin/contracts/utils/Strings.sol\":1896:1897  1 */\n      0x01\n        /* \"@openzeppelin/contracts/utils/Strings.sol\":1892:1893  i */\n      dup2\n        /* \"@openzeppelin/contracts/utils/Strings.sol\":1892:1897  i > 1 */\n      gt\n        /* \"@openzeppelin/contracts/utils/Strings.sol\":1859:1991  for (uint256 i = 2 * length + 1; i > 1; --i) {... */\n      iszero\n      tag_215\n      jumpi\n        /* \"@openzeppelin/contracts/utils/Strings.sol\":1930:1942  _HEX_SYMBOLS */\n      0x3031323334353637383961626364656600000000000000000000000000000000\n        /* \"@openzeppelin/contracts/utils/Strings.sol\":1951:1954  0xf */\n      0x0f\n        /* \"@openzeppelin/contracts/utils/Strings.sol\":1943:1948  value */\n      dup7\n        /* \"@openzeppelin/contracts/utils/Strings.sol\":1943:1954  value & 0xf */\n      and\n        /* \"@openzeppelin/contracts/utils/Strings.sol\":1930:1955  _HEX_SYMBOLS[value & 0xf] */\n      0x10\n      dup2\n      lt\n      tag_219\n      jumpi\n      tag_220\n      tag_150\n      jump\t// in\n    tag_220:\n    tag_219:\n      byte\n      0xf8\n      shl\n        /* \"@openzeppelin/contracts/utils/Strings.sol\":1918:1924  buffer */\n      dup3\n        /* \"@openzeppelin/contracts/utils/Strings.sol\":1925:1926  i */\n      dup3\n        /* \"@openzeppelin/contracts/utils/Strings.sol\":1918:1927  buffer[i] */\n      dup2\n      mload\n      dup2\n      lt\n      tag_221\n      jumpi\n      tag_222\n      tag_150\n      jump\t// in\n    tag_222:\n    tag_221:\n      0x20\n      add\n      add\n        /* \"@openzeppelin/contracts/utils/Strings.sol\":1918:1955  buffer[i] = _HEX_SYMBOLS[value & 0xf] */\n      swap1\n      not(0xffffffffffffffffffffffffffffffffffffffffffffffffffffffffffffff)\n      and\n      swap1\n      dup2\n      0x00\n      byte\n      swap1\n      mstore8\n      pop\n        /* \"@openzeppelin/contracts/utils/Strings.sol\":1979:1980  4 */\n      0x04\n        /* \"@openzeppelin/contracts/utils/Strings.sol\":1969:1980  value >>= 4 */\n      dup6\n      swap1\n      shr\n      swap5\n      pop\n        /* \"@openzeppelin/contracts/utils/Strings.sol\":1899:1902  --i */\n      dup1\n      tag_223\n      swap1\n      tag_224\n      jump\t// in\n    tag_223:\n      swap1\n      pop\n        /* \"@openzeppelin/contracts/utils/Strings.sol\":1859:1991  for (uint256 i = 2 * length + 1; i > 1; --i) {... */\n      jump(tag_214)\n    tag_215:\n      pop\n        /* \"@openzeppelin/contracts/utils/Strings.sol\":2017:2018  0 */\n      0x00\n        /* \"@openzeppelin/contracts/utils/Strings.sol\":2008:2013  value */\n      dup5\n        /* \"@openzeppelin/contracts/utils/Strings.sol\":2008:2018  value == 0 */\n      eq\n        /* \"@openzeppelin/contracts/utils/Strings.sol\":2000:2055  require(value == 0, \"Strings: hex length insufficient\") */\n      tag_225\n      jumpi\n      mload(0x40)\n      0x08c379a000000000000000000000000000000000000000000000000000000000\n      dup2\n      mstore\n      0x04\n      add\n      tag_226\n      swap1\n      tag_227\n      jump\t// in\n    tag_226:\n      mload(0x40)\n      dup1\n      swap2\n      sub\n      swap1\n      revert\n    tag_225:\n        /* \"@openzeppelin/contracts/utils/Strings.sol\":2079:2085  buffer */\n      dup1\n        /* \"@openzeppelin/contracts/utils/Strings.sol\":2065:2086  return string(buffer) */\n      swap2\n      pop\n      pop\n        /* \"@openzeppelin/contracts/utils/Strings.sol\":1652:2093  function toHexString(uint256 value, uint256 length) internal pure returns (string memory) {... */\n      swap3\n      swap2\n      pop\n      pop\n      jump\t// out\n    tag_123:\n      mload(0x40)\n      dup1\n      0x60\n      add\n      0x40\n      mstore\n      dup1\n      0x60\n      dup2\n      mstore\n      0x20\n      add\n      and(0xffffffffffffffffffffffffffffffffffffffff, 0x00)\n      dup2\n      mstore\n      0x20\n      add\n      0x60\n      dup2\n      mstore\n      pop\n      swap1\n      jump\t// out\n    tag_147:\n      dup3\n      dup1\n      sload\n      tag_228\n      swap1\n      tag_101\n      jump\t// in\n    tag_228:\n      swap1\n      0x00\n      mstore\n      keccak256(0x00, 0x20)\n      swap1\n      0x1f\n      add\n      0x20\n      swap1\n      div\n      dup2\n      add\n      swap3\n      dup3\n      tag_230\n      jumpi\n      0x00\n      dup6\n      sstore\n      jump(tag_229)\n    tag_230:\n      dup3\n      0x1f\n      lt\n      tag_231\n      jumpi\n      dup1\n      mload\n      not(0xff)\n      and\n      dup4\n      dup1\n      add\n      or\n      dup6\n      sstore\n      jump(tag_229)\n    tag_231:\n      dup3\n      dup1\n      add\n      0x01\n      add\n      dup6\n      sstore\n      dup3\n      iszero\n      tag_229\n      jumpi\n      swap2\n      dup3\n      add\n    tag_232:\n      dup3\n      dup2\n      gt\n      iszero\n      tag_233\n      jumpi\n      dup3\n      mload\n      dup3\n      sstore\n      swap2\n      0x20\n      add\n      swap2\n      swap1\n      0x01\n      add\n      swap1\n      jump(tag_232)\n    tag_233:\n    tag_229:\n      pop\n      swap1\n      pop\n      tag_234\n      swap2\n      swap1\n      tag_235\n      jump\t// in\n    tag_234:\n      pop\n      swap1\n      jump\t// out\n    tag_154:\n      dup3\n      dup1\n      sload\n      tag_236\n      swap1\n      tag_101\n      jump\t// in\n    tag_236:\n      swap1\n      0x00\n      mstore\n      keccak256(0x00, 0x20)\n      swap1\n      0x1f\n      add\n      0x20\n      swap1\n      div\n      dup2\n      add\n      swap3\n      dup3\n      tag_238\n      jumpi\n      0x00\n      dup6\n      sstore\n      jump(tag_237)\n    tag_238:\n      dup3\n      0x1f\n      lt\n      tag_239\n      jumpi\n      dup1\n      sload\n      dup6\n      sstore\n      jump(tag_237)\n    tag_239:\n      dup3\n      dup1\n      add\n      0x01\n      add\n      dup6\n      sstore\n      dup3\n      iszero\n      tag_237\n      jumpi\n      0x00\n      mstore\n      keccak256(0x00, 0x20)\n      swap2\n      0x1f\n      add\n      0x20\n      swap1\n      div\n      dup3\n      add\n    tag_240:\n      dup3\n      dup2\n      gt\n      iszero\n      tag_241\n      jumpi\n      dup3\n      sload\n      dup3\n      sstore\n      swap2\n      0x01\n      add\n      swap2\n      swap1\n      0x01\n      add\n      swap1\n      jump(tag_240)\n    tag_241:\n    tag_237:\n      pop\n      swap1\n      pop\n      tag_242\n      swap2\n      swap1\n      tag_235\n      jump\t// in\n    tag_242:\n      pop\n      swap1\n      jump\t// out\n    tag_235:\n    tag_243:\n      dup1\n      dup3\n      gt\n      iszero\n      tag_244\n      jumpi\n      0x00\n      dup2\n      0x00\n      swap1\n      sstore\n      pop\n      0x01\n      add\n      jump(tag_243)\n    tag_244:\n      pop\n      swap1\n      jump\t// out\n        /* \"#utility.yul\":7:419   */\n    tag_246:\n        /* \"#utility.yul\":85:90   */\n      0x00\n        /* \"#utility.yul\":110:176   */\n      tag_248\n        /* \"#utility.yul\":126:175   */\n      tag_249\n        /* \"#utility.yul\":168:174   */\n      dup5\n        /* \"#utility.yul\":126:175   */\n      tag_250\n      jump\t// in\n    tag_249:\n        /* \"#utility.yul\":110:176   */\n      tag_251\n      jump\t// in\n    tag_248:\n        /* \"#utility.yul\":101:176   */\n      swap1\n      pop\n        /* \"#utility.yul\":199:205   */\n      dup3\n        /* \"#utility.yul\":192:197   */\n      dup2\n        /* \"#utility.yul\":185:206   */\n      mstore\n        /* \"#utility.yul\":237:241   */\n      0x20\n        /* \"#utility.yul\":230:235   */\n      dup2\n        /* \"#utility.yul\":226:242   */\n      add\n        /* \"#utility.yul\":275:278   */\n      dup5\n        /* \"#utility.yul\":266:272   */\n      dup5\n        /* \"#utility.yul\":261:264   */\n      dup5\n        /* \"#utility.yul\":257:273   */\n      add\n        /* \"#utility.yul\":254:279   */\n      gt\n        /* \"#utility.yul\":251:363   */\n      iszero\n      tag_252\n      jumpi\n        /* \"#utility.yul\":282:361   */\n      tag_253\n      tag_254\n      jump\t// in\n    tag_253:\n        /* \"#utility.yul\":251:363   */\n    tag_252:\n        /* \"#utility.yul\":372:413   */\n      tag_255\n        /* \"#utility.yul\":406:412   */\n      dup5\n        /* \"#utility.yul\":401:404   */\n      dup3\n        /* \"#utility.yul\":396:399   */\n      dup6\n        /* \"#utility.yul\":372:413   */\n      tag_256\n      jump\t// in\n    tag_255:\n        /* \"#utility.yul\":91:419   */\n      pop\n        /* \"#utility.yul\":7:419   */\n      swap4\n      swap3\n      pop\n      pop\n      pop\n      jump\t// out\n        /* \"#utility.yul\":425:564   */\n    tag_257:\n        /* \"#utility.yul\":471:476   */\n      0x00\n        /* \"#utility.yul\":509:515   */\n      dup2\n        /* \"#utility.yul\":496:516   */\n      calldataload\n        /* \"#utility.yul\":487:516   */\n      swap1\n      pop\n        /* \"#utility.yul\":525:558   */\n      tag_259\n        /* \"#utility.yul\":552:557   */\n      dup2\n        /* \"#utility.yul\":525:558   */\n      tag_260\n      jump\t// in\n    tag_259:\n        /* \"#utility.yul\":425:564   */\n      swap3\n      swap2\n      pop\n      pop\n      jump\t// out\n        /* \"#utility.yul\":570:709   */\n    tag_261:\n        /* \"#utility.yul\":616:621   */\n      0x00\n        /* \"#utility.yul\":654:660   */\n      dup2\n        /* \"#utility.yul\":641:661   */\n      calldataload\n        /* \"#utility.yul\":632:661   */\n      swap1\n      pop\n        /* \"#utility.yul\":670:703   */\n      tag_263\n        /* \"#utility.yul\":697:702   */\n      dup2\n        /* \"#utility.yul\":670:703   */\n      tag_264\n      jump\t// in\n    tag_263:\n        /* \"#utility.yul\":570:709   */\n      swap3\n      swap2\n      pop\n      pop\n      jump\t// out\n        /* \"#utility.yul\":715:852   */\n    tag_265:\n        /* \"#utility.yul\":760:765   */\n      0x00\n        /* \"#utility.yul\":798:804   */\n      dup2\n        /* \"#utility.yul\":785:805   */\n      calldataload\n        /* \"#utility.yul\":776:805   */\n      swap1\n      pop\n        /* \"#utility.yul\":814:846   */\n      tag_267\n        /* \"#utility.yul\":840:845   */\n      dup2\n        /* \"#utility.yul\":814:846   */\n      tag_268\n      jump\t// in\n    tag_267:\n        /* \"#utility.yul\":715:852   */\n      swap3\n      swap2\n      pop\n      pop\n      jump\t// out\n        /* \"#utility.yul\":872:1212   */\n    tag_269:\n        /* \"#utility.yul\":928:933   */\n      0x00\n        /* \"#utility.yul\":977:980   */\n      dup3\n        /* \"#utility.yul\":970:974   */\n      0x1f\n        /* \"#utility.yul\":962:968   */\n      dup4\n        /* \"#utility.yul\":958:975   */\n      add\n        /* \"#utility.yul\":954:981   */\n      slt\n        /* \"#utility.yul\":944:1066   */\n      tag_271\n      jumpi\n        /* \"#utility.yul\":985:1064   */\n      tag_272\n      tag_273\n      jump\t// in\n    tag_272:\n        /* \"#utility.yul\":944:1066   */\n    tag_271:\n        /* \"#utility.yul\":1102:1108   */\n      dup2\n        /* \"#utility.yul\":1089:1109   */\n      calldataload\n        /* \"#utility.yul\":1127:1206   */\n      tag_274\n        /* \"#utility.yul\":1202:1205   */\n      dup5\n        /* \"#utility.yul\":1194:1200   */\n      dup3\n        /* \"#utility.yul\":1187:1191   */\n      0x20\n        /* \"#utility.yul\":1179:1185   */\n      dup7\n        /* \"#utility.yul\":1175:1192   */\n      add\n        /* \"#utility.yul\":1127:1206   */\n      tag_246\n      jump\t// in\n    tag_274:\n        /* \"#utility.yul\":1118:1206   */\n      swap2\n      pop\n        /* \"#utility.yul\":934:1212   */\n      pop\n        /* \"#utility.yul\":872:1212   */\n      swap3\n      swap2\n      pop\n      pop\n      jump\t// out\n        /* \"#utility.yul\":1218:1357   */\n    tag_275:\n        /* \"#utility.yul\":1264:1269   */\n      0x00\n        /* \"#utility.yul\":1302:1308   */\n      dup2\n        /* \"#utility.yul\":1289:1309   */\n      calldataload\n        /* \"#utility.yul\":1280:1309   */\n      swap1\n      pop\n        /* \"#utility.yul\":1318:1351   */\n      tag_277\n        /* \"#utility.yul\":1345:1350   */\n      dup2\n        /* \"#utility.yul\":1318:1351   */\n      tag_278\n      jump\t// in\n    tag_277:\n        /* \"#utility.yul\":1218:1357   */\n      swap3\n      swap2\n      pop\n      pop\n      jump\t// out\n        /* \"#utility.yul\":1363:1692   */\n    tag_77:\n        /* \"#utility.yul\":1422:1428   */\n      0x00\n        /* \"#utility.yul\":1471:1473   */\n      0x20\n        /* \"#utility.yul\":1459:1468   */\n      dup3\n        /* \"#utility.yul\":1450:1457   */\n      dup5\n        /* \"#utility.yul\":1446:1469   */\n      sub\n        /* \"#utility.yul\":1442:1474   */\n      slt\n        /* \"#utility.yul\":1439:1558   */\n      iszero\n      tag_280\n      jumpi\n        /* \"#utility.yul\":1477:1556   */\n      tag_281\n      tag_282\n      jump\t// in\n    tag_281:\n        /* \"#utility.yul\":1439:1558   */\n    tag_280:\n        /* \"#utility.yul\":1597:1598   */\n      0x00\n        /* \"#utility.yul\":1622:1675   */\n      tag_283\n        /* \"#utility.yul\":1667:1674   */\n      dup5\n        /* \"#utility.yul\":1658:1664   */\n      dup3\n        /* \"#utility.yul\":1647:1656   */\n      dup6\n        /* \"#utility.yul\":1643:1665   */\n      add\n        /* \"#utility.yul\":1622:1675   */\n      tag_257\n      jump\t// in\n    tag_283:\n        /* \"#utility.yul\":1612:1675   */\n      swap2\n      pop\n        /* \"#utility.yul\":1568:1685   */\n      pop\n        /* \"#utility.yul\":1363:1692   */\n      swap3\n      swap2\n      pop\n      pop\n      jump\t// out\n        /* \"#utility.yul\":1698:2172   */\n    tag_81:\n        /* \"#utility.yul\":1766:1772   */\n      0x00\n        /* \"#utility.yul\":1774:1780   */\n      dup1\n        /* \"#utility.yul\":1823:1825   */\n      0x40\n        /* \"#utility.yul\":1811:1820   */\n      dup4\n        /* \"#utility.yul\":1802:1809   */\n      dup6\n        /* \"#utility.yul\":1798:1821   */\n      sub\n        /* \"#utility.yul\":1794:1826   */\n      slt\n        /* \"#utility.yul\":1791:1910   */\n      iszero\n      tag_285\n      jumpi\n        /* \"#utility.yul\":1829:1908   */\n      tag_286\n      tag_282\n      jump\t// in\n    tag_286:\n        /* \"#utility.yul\":1791:1910   */\n    tag_285:\n        /* \"#utility.yul\":1949:1950   */\n      0x00\n        /* \"#utility.yul\":1974:2027   */\n      tag_287\n        /* \"#utility.yul\":2019:2026   */\n      dup6\n        /* \"#utility.yul\":2010:2016   */\n      dup3\n        /* \"#utility.yul\":1999:2008   */\n      dup7\n        /* \"#utility.yul\":1995:2017   */\n      add\n        /* \"#utility.yul\":1974:2027   */\n      tag_257\n      jump\t// in\n    tag_287:\n        /* \"#utility.yul\":1964:2027   */\n      swap3\n      pop\n        /* \"#utility.yul\":1920:2037   */\n      pop\n        /* \"#utility.yul\":2076:2078   */\n      0x20\n        /* \"#utility.yul\":2102:2155   */\n      tag_288\n        /* \"#utility.yul\":2147:2154   */\n      dup6\n        /* \"#utility.yul\":2138:2144   */\n      dup3\n        /* \"#utility.yul\":2127:2136   */\n      dup7\n        /* \"#utility.yul\":2123:2145   */\n      add\n        /* \"#utility.yul\":2102:2155   */\n      tag_275\n      jump\t// in\n    tag_288:\n        /* \"#utility.yul\":2092:2155   */\n      swap2\n      pop\n        /* \"#utility.yul\":2047:2165   */\n      pop\n        /* \"#utility.yul\":1698:2172   */\n      swap3\n      pop\n      swap3\n      swap1\n      pop\n      jump\t// out\n        /* \"#utility.yul\":2178:2507   */\n    tag_30:\n        /* \"#utility.yul\":2237:2243   */\n      0x00\n        /* \"#utility.yul\":2286:2288   */\n      0x20\n        /* \"#utility.yul\":2274:2283   */\n      dup3\n        /* \"#utility.yul\":2265:2272   */\n      dup5\n        /* \"#utility.yul\":2261:2284   */\n      sub\n        /* \"#utility.yul\":2257:2289   */\n      slt\n        /* \"#utility.yul\":2254:2373   */\n      iszero\n      tag_290\n      jumpi\n        /* \"#utility.yul\":2292:2371   */\n      tag_291\n      tag_282\n      jump\t// in\n    tag_291:\n        /* \"#utility.yul\":2254:2373   */\n    tag_290:\n        /* \"#utility.yul\":2412:2413   */\n      0x00\n        /* \"#utility.yul\":2437:2490   */\n      tag_292\n        /* \"#utility.yul\":2482:2489   */\n      dup5\n        /* \"#utility.yul\":2473:2479   */\n      dup3\n        /* \"#utility.yul\":2462:2471   */\n      dup6\n        /* \"#utility.yul\":2458:2480   */\n      add\n        /* \"#utility.yul\":2437:2490   */\n      tag_261\n      jump\t// in\n    tag_292:\n        /* \"#utility.yul\":2427:2490   */\n      swap2\n      pop\n        /* \"#utility.yul\":2383:2500   */\n      pop\n        /* \"#utility.yul\":2178:2507   */\n      swap3\n      swap2\n      pop\n      pop\n      jump\t// out\n        /* \"#utility.yul\":2513:2987   */\n    tag_39:\n        /* \"#utility.yul\":2581:2587   */\n      0x00\n        /* \"#utility.yul\":2589:2595   */\n      dup1\n        /* \"#utility.yul\":2638:2640   */\n      0x40\n        /* \"#utility.yul\":2626:2635   */\n      dup4\n        /* \"#utility.yul\":2617:2624   */\n      dup6\n        /* \"#utility.yul\":2613:2636   */\n      sub\n        /* \"#utility.yul\":2609:2641   */\n      slt\n        /* \"#utility.yul\":2606:2725   */\n      iszero\n      tag_294\n      jumpi\n        /* \"#utility.yul\":2644:2723   */\n      tag_295\n      tag_282\n      jump\t// in\n    tag_295:\n        /* \"#utility.yul\":2606:2725   */\n    tag_294:\n        /* \"#utility.yul\":2764:2765   */\n      0x00\n        /* \"#utility.yul\":2789:2842   */\n      tag_296\n        /* \"#utility.yul\":2834:2841   */\n      dup6\n        /* \"#utility.yul\":2825:2831   */\n      dup3\n        /* \"#utility.yul\":2814:2823   */\n      dup7\n        /* \"#utility.yul\":2810:2832   */\n      add\n        /* \"#utility.yul\":2789:2842   */\n      tag_261\n      jump\t// in\n    tag_296:\n        /* \"#utility.yul\":2779:2842   */\n      swap3\n      pop\n        /* \"#utility.yul\":2735:2852   */\n      pop\n        /* \"#utility.yul\":2891:2893   */\n      0x20\n        /* \"#utility.yul\":2917:2970   */\n      tag_297\n        /* \"#utility.yul\":2962:2969   */\n      dup6\n        /* \"#utility.yul\":2953:2959   */\n      dup3\n        /* \"#utility.yul\":2942:2951   */\n      dup7\n        /* \"#utility.yul\":2938:2960   */\n      add\n        /* \"#utility.yul\":2917:2970   */\n      tag_257\n      jump\t// in\n    tag_297:\n        /* \"#utility.yul\":2907:2970   */\n      swap2\n      pop\n        /* \"#utility.yul\":2862:2980   */\n      pop\n        /* \"#utility.yul\":2513:2987   */\n      swap3\n      pop\n      swap3\n      swap1\n      pop\n      jump\t// out\n        /* \"#utility.yul\":2993:3320   */\n    tag_24:\n        /* \"#utility.yul\":3051:3057   */\n      0x00\n        /* \"#utility.yul\":3100:3102   */\n      0x20\n        /* \"#utility.yul\":3088:3097   */\n      dup3\n        /* \"#utility.yul\":3079:3086   */\n      dup5\n        /* \"#utility.yul\":3075:3098   */\n      sub\n        /* \"#utility.yul\":3071:3103   */\n      slt\n        /* \"#utility.yul\":3068:3187   */\n      iszero\n      tag_299\n      jumpi\n        /* \"#utility.yul\":3106:3185   */\n      tag_300\n      tag_282\n      jump\t// in\n    tag_300:\n        /* \"#utility.yul\":3068:3187   */\n    tag_299:\n        /* \"#utility.yul\":3226:3227   */\n      0x00\n        /* \"#utility.yul\":3251:3303   */\n      tag_301\n        /* \"#utility.yul\":3295:3302   */\n      dup5\n        /* \"#utility.yul\":3286:3292   */\n      dup3\n        /* \"#utility.yul\":3275:3284   */\n      dup6\n        /* \"#utility.yul\":3271:3293   */\n      add\n        /* \"#utility.yul\":3251:3303   */\n      tag_265\n      jump\t// in\n    tag_301:\n        /* \"#utility.yul\":3241:3303   */\n      swap2\n      pop\n        /* \"#utility.yul\":3197:3313   */\n      pop\n        /* \"#utility.yul\":2993:3320   */\n      swap3\n      swap2\n      pop\n      pop\n      jump\t// out\n        /* \"#utility.yul\":3326:4125   */\n    tag_73:\n        /* \"#utility.yul\":3413:3419   */\n      0x00\n        /* \"#utility.yul\":3421:3427   */\n      dup1\n        /* \"#utility.yul\":3429:3435   */\n      0x00\n        /* \"#utility.yul\":3478:3480   */\n      0x60\n        /* \"#utility.yul\":3466:3475   */\n      dup5\n        /* \"#utility.yul\":3457:3464   */\n      dup7\n        /* \"#utility.yul\":3453:3476   */\n      sub\n        /* \"#utility.yul\":3449:3481   */\n      slt\n        /* \"#utility.yul\":3446:3565   */\n      iszero\n      tag_303\n      jumpi\n        /* \"#utility.yul\":3484:3563   */\n      tag_304\n      tag_282\n      jump\t// in\n    tag_304:\n        /* \"#utility.yul\":3446:3565   */\n    tag_303:\n        /* \"#utility.yul\":3632:3633   */\n      0x00\n        /* \"#utility.yul\":3621:3630   */\n      dup5\n        /* \"#utility.yul\":3617:3634   */\n      add\n        /* \"#utility.yul\":3604:3635   */\n      calldataload\n        /* \"#utility.yul\":3662:3680   */\n      0xffffffffffffffff\n        /* \"#utility.yul\":3654:3660   */\n      dup2\n        /* \"#utility.yul\":3651:3681   */\n      gt\n        /* \"#utility.yul\":3648:3765   */\n      iszero\n      tag_305\n      jumpi\n        /* \"#utility.yul\":3684:3763   */\n      tag_306\n      tag_307\n      jump\t// in\n    tag_306:\n        /* \"#utility.yul\":3648:3765   */\n    tag_305:\n        /* \"#utility.yul\":3789:3852   */\n      tag_308\n        /* \"#utility.yul\":3844:3851   */\n      dup7\n        /* \"#utility.yul\":3835:3841   */\n      dup3\n        /* \"#utility.yul\":3824:3833   */\n      dup8\n        /* \"#utility.yul\":3820:3842   */\n      add\n        /* \"#utility.yul\":3789:3852   */\n      tag_269\n      jump\t// in\n    tag_308:\n        /* \"#utility.yul\":3779:3852   */\n      swap4\n      pop\n        /* \"#utility.yul\":3575:3862   */\n      pop\n        /* \"#utility.yul\":3901:3903   */\n      0x20\n        /* \"#utility.yul\":3927:3980   */\n      tag_309\n        /* \"#utility.yul\":3972:3979   */\n      dup7\n        /* \"#utility.yul\":3963:3969   */\n      dup3\n        /* \"#utility.yul\":3952:3961   */\n      dup8\n        /* \"#utility.yul\":3948:3970   */\n      add\n        /* \"#utility.yul\":3927:3980   */\n      tag_257\n      jump\t// in\n    tag_309:\n        /* \"#utility.yul\":3917:3980   */\n      swap3\n      pop\n        /* \"#utility.yul\":3872:3990   */\n      pop\n        /* \"#utility.yul\":4029:4031   */\n      0x40\n        /* \"#utility.yul\":4055:4108   */\n      tag_310\n        /* \"#utility.yul\":4100:4107   */\n      dup7\n        /* \"#utility.yul\":4091:4097   */\n      dup3\n        /* \"#utility.yul\":4080:4089   */\n      dup8\n        /* \"#utility.yul\":4076:4098   */\n      add\n        /* \"#utility.yul\":4055:4108   */\n      tag_275\n      jump\t// in\n    tag_310:\n        /* \"#utility.yul\":4045:4108   */\n      swap2\n      pop\n        /* \"#utility.yul\":4000:4118   */\n      pop\n        /* \"#utility.yul\":3326:4125   */\n      swap3\n      pop\n      swap3\n      pop\n      swap3\n      jump\t// out\n        /* \"#utility.yul\":4131:4460   */\n    tag_43:\n        /* \"#utility.yul\":4190:4196   */\n      0x00\n        /* \"#utility.yul\":4239:4241   */\n      0x20\n        /* \"#utility.yul\":4227:4236   */\n      dup3\n        /* \"#utility.yul\":4218:4225   */\n      dup5\n        /* \"#utility.yul\":4214:4237   */\n      sub\n        /* \"#utility.yul\":4210:4242   */\n      slt\n        /* \"#utility.yul\":4207:4326   */\n      iszero\n      tag_312\n      jumpi\n        /* \"#utility.yul\":4245:4324   */\n      tag_313\n      tag_282\n      jump\t// in\n    tag_313:\n        /* \"#utility.yul\":4207:4326   */\n    tag_312:\n        /* \"#utility.yul\":4365:4366   */\n      0x00\n        /* \"#utility.yul\":4390:4443   */\n      tag_314\n        /* \"#utility.yul\":4435:4442   */\n      dup5\n        /* \"#utility.yul\":4426:4432   */\n      dup3\n        /* \"#utility.yul\":4415:4424   */\n      dup6\n        /* \"#utility.yul\":4411:4433   */\n      add\n        /* \"#utility.yul\":4390:4443   */\n      tag_275\n      jump\t// in\n    tag_314:\n        /* \"#utility.yul\":4380:4443   */\n      swap2\n      pop\n        /* \"#utility.yul\":4336:4453   */\n      pop\n        /* \"#utility.yul\":4131:4460   */\n      swap3\n      swap2\n      pop\n      pop\n      jump\t// out\n        /* \"#utility.yul\":4466:4574   */\n    tag_315:\n        /* \"#utility.yul\":4543:4567   */\n      tag_317\n        /* \"#utility.yul\":4561:4566   */\n      dup2\n        /* \"#utility.yul\":4543:4567   */\n      tag_318\n      jump\t// in\n    tag_317:\n        /* \"#utility.yul\":4538:4541   */\n      dup3\n        /* \"#utility.yul\":4531:4568   */\n      mstore\n        /* \"#utility.yul\":4466:4574   */\n      pop\n      pop\n      jump\t// out\n        /* \"#utility.yul\":4580:4698   */\n    tag_319:\n        /* \"#utility.yul\":4667:4691   */\n      tag_321\n        /* \"#utility.yul\":4685:4690   */\n      dup2\n        /* \"#utility.yul\":4667:4691   */\n      tag_318\n      jump\t// in\n    tag_321:\n        /* \"#utility.yul\":4662:4665   */\n      dup3\n        /* \"#utility.yul\":4655:4692   */\n      mstore\n        /* \"#utility.yul\":4580:4698   */\n      pop\n      pop\n      jump\t// out\n        /* \"#utility.yul\":4704:4813   */\n    tag_322:\n        /* \"#utility.yul\":4785:4806   */\n      tag_324\n        /* \"#utility.yul\":4800:4805   */\n      dup2\n        /* \"#utility.yul\":4785:4806   */\n      tag_325\n      jump\t// in\n    tag_324:\n        /* \"#utility.yul\":4780:4783   */\n      dup3\n        /* \"#utility.yul\":4773:4807   */\n      mstore\n        /* \"#utility.yul\":4704:4813   */\n      pop\n      pop\n      jump\t// out\n        /* \"#utility.yul\":4819:4937   */\n    tag_326:\n        /* \"#utility.yul\":4906:4930   */\n      tag_328\n        /* \"#utility.yul\":4924:4929   */\n      dup2\n        /* \"#utility.yul\":4906:4930   */\n      tag_329\n      jump\t// in\n    tag_328:\n        /* \"#utility.yul\":4901:4904   */\n      dup3\n        /* \"#utility.yul\":4894:4931   */\n      mstore\n        /* \"#utility.yul\":4819:4937   */\n      pop\n      pop\n      jump\t// out\n        /* \"#utility.yul\":4943:5287   */\n    tag_330:\n        /* \"#utility.yul\":5021:5024   */\n      0x00\n        /* \"#utility.yul\":5049:5088   */\n      tag_332\n        /* \"#utility.yul\":5082:5087   */\n      dup3\n        /* \"#utility.yul\":5049:5088   */\n      tag_333\n      jump\t// in\n    tag_332:\n        /* \"#utility.yul\":5104:5165   */\n      tag_334\n        /* \"#utility.yul\":5158:5164   */\n      dup2\n        /* \"#utility.yul\":5153:5156   */\n      dup6\n        /* \"#utility.yul\":5104:5165   */\n      tag_335\n      jump\t// in\n    tag_334:\n        /* \"#utility.yul\":5097:5165   */\n      swap4\n      pop\n        /* \"#utility.yul\":5174:5226   */\n      tag_336\n        /* \"#utility.yul\":5219:5225   */\n      dup2\n        /* \"#utility.yul\":5214:5217   */\n      dup6\n        /* \"#utility.yul\":5207:5211   */\n      0x20\n        /* \"#utility.yul\":5200:5205   */\n      dup7\n        /* \"#utility.yul\":5196:5212   */\n      add\n        /* \"#utility.yul\":5174:5226   */\n      tag_337\n      jump\t// in\n    tag_336:\n        /* \"#utility.yul\":5251:5280   */\n      tag_338\n        /* \"#utility.yul\":5273:5279   */\n      dup2\n        /* \"#utility.yul\":5251:5280   */\n      tag_339\n      jump\t// in\n    tag_338:\n        /* \"#utility.yul\":5246:5249   */\n      dup5\n        /* \"#utility.yul\":5242:5281   */\n      add\n        /* \"#utility.yul\":5235:5281   */\n      swap2\n      pop\n        /* \"#utility.yul\":5025:5287   */\n      pop\n        /* \"#utility.yul\":4943:5287   */\n      swap3\n      swap2\n      pop\n      pop\n      jump\t// out\n        /* \"#utility.yul\":5293:5657   */\n    tag_340:\n        /* \"#utility.yul\":5381:5384   */\n      0x00\n        /* \"#utility.yul\":5409:5448   */\n      tag_342\n        /* \"#utility.yul\":5442:5447   */\n      dup3\n        /* \"#utility.yul\":5409:5448   */\n      tag_333\n      jump\t// in\n    tag_342:\n        /* \"#utility.yul\":5464:5535   */\n      tag_343\n        /* \"#utility.yul\":5528:5534   */\n      dup2\n        /* \"#utility.yul\":5523:5526   */\n      dup6\n        /* \"#utility.yul\":5464:5535   */\n      tag_344\n      jump\t// in\n    tag_343:\n        /* \"#utility.yul\":5457:5535   */\n      swap4\n      pop\n        /* \"#utility.yul\":5544:5596   */\n      tag_345\n        /* \"#utility.yul\":5589:5595   */\n      dup2\n        /* \"#utility.yul\":5584:5587   */\n      dup6\n        /* \"#utility.yul\":5577:5581   */\n      0x20\n        /* \"#utility.yul\":5570:5575   */\n      dup7\n        /* \"#utility.yul\":5566:5582   */\n      add\n        /* \"#utility.yul\":5544:5596   */\n      tag_337\n      jump\t// in\n    tag_345:\n        /* \"#utility.yul\":5621:5650   */\n      tag_346\n        /* \"#utility.yul\":5643:5649   */\n      dup2\n        /* \"#utility.yul\":5621:5650   */\n      tag_339\n      jump\t// in\n    tag_346:\n        /* \"#utility.yul\":5616:5619   */\n      dup5\n        /* \"#utility.yul\":5612:5651   */\n      add\n        /* \"#utility.yul\":5605:5651   */\n      swap2\n      pop\n        /* \"#utility.yul\":5385:5657   */\n      pop\n        /* \"#utility.yul\":5293:5657   */\n      swap3\n      swap2\n      pop\n      pop\n      jump\t// out\n        /* \"#utility.yul\":5663:6040   */\n    tag_347:\n        /* \"#utility.yul\":5769:5772   */\n      0x00\n        /* \"#utility.yul\":5797:5836   */\n      tag_349\n        /* \"#utility.yul\":5830:5835   */\n      dup3\n        /* \"#utility.yul\":5797:5836   */\n      tag_333\n      jump\t// in\n    tag_349:\n        /* \"#utility.yul\":5852:5941   */\n      tag_350\n        /* \"#utility.yul\":5934:5940   */\n      dup2\n        /* \"#utility.yul\":5929:5932   */\n      dup6\n        /* \"#utility.yul\":5852:5941   */\n      tag_351\n      jump\t// in\n    tag_350:\n        /* \"#utility.yul\":5845:5941   */\n      swap4\n      pop\n        /* \"#utility.yul\":5950:6002   */\n      tag_352\n        /* \"#utility.yul\":5995:6001   */\n      dup2\n        /* \"#utility.yul\":5990:5993   */\n      dup6\n        /* \"#utility.yul\":5983:5987   */\n      0x20\n        /* \"#utility.yul\":5976:5981   */\n      dup7\n        /* \"#utility.yul\":5972:5988   */\n      add\n        /* \"#utility.yul\":5950:6002   */\n      tag_337\n      jump\t// in\n    tag_352:\n        /* \"#utility.yul\":6027:6033   */\n      dup1\n        /* \"#utility.yul\":6022:6025   */\n      dup5\n        /* \"#utility.yul\":6018:6034   */\n      add\n        /* \"#utility.yul\":6011:6034   */\n      swap2\n      pop\n        /* \"#utility.yul\":5773:6040   */\n      pop\n        /* \"#utility.yul\":5663:6040   */\n      swap3\n      swap2\n      pop\n      pop\n      jump\t// out\n        /* \"#utility.yul\":6046:6412   */\n    tag_353:\n        /* \"#utility.yul\":6188:6191   */\n      0x00\n        /* \"#utility.yul\":6209:6276   */\n      tag_355\n        /* \"#utility.yul\":6273:6275   */\n      0x20\n        /* \"#utility.yul\":6268:6271   */\n      dup4\n        /* \"#utility.yul\":6209:6276   */\n      tag_344\n      jump\t// in\n    tag_355:\n        /* \"#utility.yul\":6202:6276   */\n      swap2\n      pop\n        /* \"#utility.yul\":6285:6378   */\n      tag_356\n        /* \"#utility.yul\":6374:6377   */\n      dup3\n        /* \"#utility.yul\":6285:6378   */\n      tag_357\n      jump\t// in\n    tag_356:\n        /* \"#utility.yul\":6403:6405   */\n      0x20\n        /* \"#utility.yul\":6398:6401   */\n      dup3\n        /* \"#utility.yul\":6394:6406   */\n      add\n        /* \"#utility.yul\":6387:6406   */\n      swap1\n      pop\n        /* \"#utility.yul\":6046:6412   */\n      swap2\n      swap1\n      pop\n      jump\t// out\n        /* \"#utility.yul\":6418:6784   */\n    tag_358:\n        /* \"#utility.yul\":6560:6563   */\n      0x00\n        /* \"#utility.yul\":6581:6648   */\n      tag_360\n        /* \"#utility.yul\":6645:6647   */\n      0x26\n        /* \"#utility.yul\":6640:6643   */\n      dup4\n        /* \"#utility.yul\":6581:6648   */\n      tag_344\n      jump\t// in\n    tag_360:\n        /* \"#utility.yul\":6574:6648   */\n      swap2\n      pop\n        /* \"#utility.yul\":6657:6750   */\n      tag_361\n        /* \"#utility.yul\":6746:6749   */\n      dup3\n        /* \"#utility.yul\":6657:6750   */\n      tag_362\n      jump\t// in\n    tag_361:\n        /* \"#utility.yul\":6775:6777   */\n      0x40\n        /* \"#utility.yul\":6770:6773   */\n      dup3\n        /* \"#utility.yul\":6766:6778   */\n      add\n        /* \"#utility.yul\":6759:6778   */\n      swap1\n      pop\n        /* \"#utility.yul\":6418:6784   */\n      swap2\n      swap1\n      pop\n      jump\t// out\n        /* \"#utility.yul\":6790:7156   */\n    tag_363:\n        /* \"#utility.yul\":6932:6935   */\n      0x00\n        /* \"#utility.yul\":6953:7020   */\n      tag_365\n        /* \"#utility.yul\":7017:7019   */\n      0x1f\n        /* \"#utility.yul\":7012:7015   */\n      dup4\n        /* \"#utility.yul\":6953:7020   */\n      tag_344\n      jump\t// in\n    tag_365:\n        /* \"#utility.yul\":6946:7020   */\n      swap2\n      pop\n        /* \"#utility.yul\":7029:7122   */\n      tag_366\n        /* \"#utility.yul\":7118:7121   */\n      dup3\n        /* \"#utility.yul\":7029:7122   */\n      tag_367\n      jump\t// in\n    tag_366:\n        /* \"#utility.yul\":7147:7149   */\n      0x20\n        /* \"#utility.yul\":7142:7145   */\n      dup3\n        /* \"#utility.yul\":7138:7150   */\n      add\n        /* \"#utility.yul\":7131:7150   */\n      swap1\n      pop\n        /* \"#utility.yul\":6790:7156   */\n      swap2\n      swap1\n      pop\n      jump\t// out\n        /* \"#utility.yul\":7162:7528   */\n    tag_368:\n        /* \"#utility.yul\":7304:7307   */\n      0x00\n        /* \"#utility.yul\":7325:7392   */\n      tag_370\n        /* \"#utility.yul\":7389:7391   */\n      0x20\n        /* \"#utility.yul\":7384:7387   */\n      dup4\n        /* \"#utility.yul\":7325:7392   */\n      tag_344\n      jump\t// in\n    tag_370:\n        /* \"#utility.yul\":7318:7392   */\n      swap2\n      pop\n        /* \"#utility.yul\":7401:7494   */\n      tag_371\n        /* \"#utility.yul\":7490:7493   */\n      dup3\n        /* \"#utility.yul\":7401:7494   */\n      tag_372\n      jump\t// in\n    tag_371:\n        /* \"#utility.yul\":7519:7521   */\n      0x20\n        /* \"#utility.yul\":7514:7517   */\n      dup3\n        /* \"#utility.yul\":7510:7522   */\n      add\n        /* \"#utility.yul\":7503:7522   */\n      swap1\n      pop\n        /* \"#utility.yul\":7162:7528   */\n      swap2\n      swap1\n      pop\n      jump\t// out\n        /* \"#utility.yul\":7534:7936   */\n    tag_373:\n        /* \"#utility.yul\":7694:7697   */\n      0x00\n        /* \"#utility.yul\":7715:7800   */\n      tag_375\n        /* \"#utility.yul\":7797:7799   */\n      0x17\n        /* \"#utility.yul\":7792:7795   */\n      dup4\n        /* \"#utility.yul\":7715:7800   */\n      tag_351\n      jump\t// in\n    tag_375:\n        /* \"#utility.yul\":7708:7800   */\n      swap2\n      pop\n        /* \"#utility.yul\":7809:7902   */\n      tag_376\n        /* \"#utility.yul\":7898:7901   */\n      dup3\n        /* \"#utility.yul\":7809:7902   */\n      tag_377\n      jump\t// in\n    tag_376:\n        /* \"#utility.yul\":7927:7929   */\n      0x17\n        /* \"#utility.yul\":7922:7925   */\n      dup3\n        /* \"#utility.yul\":7918:7930   */\n      add\n        /* \"#utility.yul\":7911:7930   */\n      swap1\n      pop\n        /* \"#utility.yul\":7534:7936   */\n      swap2\n      swap1\n      pop\n      jump\t// out\n        /* \"#utility.yul\":7942:8344   */\n    tag_378:\n        /* \"#utility.yul\":8102:8105   */\n      0x00\n        /* \"#utility.yul\":8123:8208   */\n      tag_380\n        /* \"#utility.yul\":8205:8207   */\n      0x11\n        /* \"#utility.yul\":8200:8203   */\n      dup4\n        /* \"#utility.yul\":8123:8208   */\n      tag_351\n      jump\t// in\n    tag_380:\n        /* \"#utility.yul\":8116:8208   */\n      swap2\n      pop\n        /* \"#utility.yul\":8217:8310   */\n      tag_381\n        /* \"#utility.yul\":8306:8309   */\n      dup3\n        /* \"#utility.yul\":8217:8310   */\n      tag_382\n      jump\t// in\n    tag_381:\n        /* \"#utility.yul\":8335:8337   */\n      0x11\n        /* \"#utility.yul\":8330:8333   */\n      dup3\n        /* \"#utility.yul\":8326:8338   */\n      add\n        /* \"#utility.yul\":8319:8338   */\n      swap1\n      pop\n        /* \"#utility.yul\":7942:8344   */\n      swap2\n      swap1\n      pop\n      jump\t// out\n        /* \"#utility.yul\":8350:8716   */\n    tag_383:\n        /* \"#utility.yul\":8492:8495   */\n      0x00\n        /* \"#utility.yul\":8513:8580   */\n      tag_385\n        /* \"#utility.yul\":8577:8579   */\n      0x2f\n        /* \"#utility.yul\":8572:8575   */\n      dup4\n        /* \"#utility.yul\":8513:8580   */\n      tag_344\n      jump\t// in\n    tag_385:\n        /* \"#utility.yul\":8506:8580   */\n      swap2\n      pop\n        /* \"#utility.yul\":8589:8682   */\n      tag_386\n        /* \"#utility.yul\":8678:8681   */\n      dup3\n        /* \"#utility.yul\":8589:8682   */\n      tag_387\n      jump\t// in\n    tag_386:\n        /* \"#utility.yul\":8707:8709   */\n      0x40\n        /* \"#utility.yul\":8702:8705   */\n      dup3\n        /* \"#utility.yul\":8698:8710   */\n      add\n        /* \"#utility.yul\":8691:8710   */\n      swap1\n      pop\n        /* \"#utility.yul\":8350:8716   */\n      swap2\n      swap1\n      pop\n      jump\t// out\n        /* \"#utility.yul\":8776:9630   */\n    tag_388:\n        /* \"#utility.yul\":8897:8900   */\n      0x00\n        /* \"#utility.yul\":8933:8937   */\n      0x60\n        /* \"#utility.yul\":8928:8931   */\n      dup4\n        /* \"#utility.yul\":8924:8938   */\n      add\n        /* \"#utility.yul\":9020:9024   */\n      0x00\n        /* \"#utility.yul\":9013:9018   */\n      dup4\n        /* \"#utility.yul\":9009:9025   */\n      add\n        /* \"#utility.yul\":9003:9026   */\n      mload\n        /* \"#utility.yul\":9073:9076   */\n      dup5\n        /* \"#utility.yul\":9067:9071   */\n      dup3\n        /* \"#utility.yul\":9063:9077   */\n      sub\n        /* \"#utility.yul\":9056:9060   */\n      0x00\n        /* \"#utility.yul\":9051:9054   */\n      dup7\n        /* \"#utility.yul\":9047:9061   */\n      add\n        /* \"#utility.yul\":9040:9078   */\n      mstore\n        /* \"#utility.yul\":9099:9172   */\n      tag_390\n        /* \"#utility.yul\":9167:9171   */\n      dup3\n        /* \"#utility.yul\":9153:9165   */\n      dup3\n        /* \"#utility.yul\":9099:9172   */\n      tag_330\n      jump\t// in\n    tag_390:\n        /* \"#utility.yul\":9091:9172   */\n      swap2\n      pop\n        /* \"#utility.yul\":8948:9183   */\n      pop\n        /* \"#utility.yul\":9265:9269   */\n      0x20\n        /* \"#utility.yul\":9258:9263   */\n      dup4\n        /* \"#utility.yul\":9254:9270   */\n      add\n        /* \"#utility.yul\":9248:9271   */\n      mload\n        /* \"#utility.yul\":9284:9347   */\n      tag_391\n        /* \"#utility.yul\":9341:9345   */\n      0x20\n        /* \"#utility.yul\":9336:9339   */\n      dup7\n        /* \"#utility.yul\":9332:9346   */\n      add\n        /* \"#utility.yul\":9318:9330   */\n      dup3\n        /* \"#utility.yul\":9284:9347   */\n      tag_315\n      jump\t// in\n    tag_391:\n        /* \"#utility.yul\":9193:9357   */\n      pop\n        /* \"#utility.yul\":9440:9444   */\n      0x40\n        /* \"#utility.yul\":9433:9438   */\n      dup4\n        /* \"#utility.yul\":9429:9445   */\n      add\n        /* \"#utility.yul\":9423:9446   */\n      mload\n        /* \"#utility.yul\":9493:9496   */\n      dup5\n        /* \"#utility.yul\":9487:9491   */\n      dup3\n        /* \"#utility.yul\":9483:9497   */\n      sub\n        /* \"#utility.yul\":9476:9480   */\n      0x40\n        /* \"#utility.yul\":9471:9474   */\n      dup7\n        /* \"#utility.yul\":9467:9481   */\n      add\n        /* \"#utility.yul\":9460:9498   */\n      mstore\n        /* \"#utility.yul\":9519:9592   */\n      tag_392\n        /* \"#utility.yul\":9587:9591   */\n      dup3\n        /* \"#utility.yul\":9573:9585   */\n      dup3\n        /* \"#utility.yul\":9519:9592   */\n      tag_330\n      jump\t// in\n    tag_392:\n        /* \"#utility.yul\":9511:9592   */\n      swap2\n      pop\n        /* \"#utility.yul\":9367:9603   */\n      pop\n        /* \"#utility.yul\":9620:9624   */\n      dup1\n        /* \"#utility.yul\":9613:9624   */\n      swap2\n      pop\n        /* \"#utility.yul\":8902:9630   */\n      pop\n        /* \"#utility.yul\":8776:9630   */\n      swap3\n      swap2\n      pop\n      pop\n      jump\t// out\n        /* \"#utility.yul\":9636:10603   */\n    tag_199:\n        /* \"#utility.yul\":10018:10021   */\n      0x00\n        /* \"#utility.yul\":10040:10188   */\n      tag_394\n        /* \"#utility.yul\":10184:10187   */\n      dup3\n        /* \"#utility.yul\":10040:10188   */\n      tag_373\n      jump\t// in\n    tag_394:\n        /* \"#utility.yul\":10033:10188   */\n      swap2\n      pop\n        /* \"#utility.yul\":10205:10300   */\n      tag_395\n        /* \"#utility.yul\":10296:10299   */\n      dup3\n        /* \"#utility.yul\":10287:10293   */\n      dup6\n        /* \"#utility.yul\":10205:10300   */\n      tag_347\n      jump\t// in\n    tag_395:\n        /* \"#utility.yul\":10198:10300   */\n      swap2\n      pop\n        /* \"#utility.yul\":10317:10465   */\n      tag_396\n        /* \"#utility.yul\":10461:10464   */\n      dup3\n        /* \"#utility.yul\":10317:10465   */\n      tag_378\n      jump\t// in\n    tag_396:\n        /* \"#utility.yul\":10310:10465   */\n      swap2\n      pop\n        /* \"#utility.yul\":10482:10577   */\n      tag_397\n        /* \"#utility.yul\":10573:10576   */\n      dup3\n        /* \"#utility.yul\":10564:10570   */\n      dup5\n        /* \"#utility.yul\":10482:10577   */\n      tag_347\n      jump\t// in\n    tag_397:\n        /* \"#utility.yul\":10475:10577   */\n      swap2\n      pop\n        /* \"#utility.yul\":10594:10597   */\n      dup2\n        /* \"#utility.yul\":10587:10597   */\n      swap1\n      pop\n        /* \"#utility.yul\":9636:10603   */\n      swap4\n      swap3\n      pop\n      pop\n      pop\n      jump\t// out\n        /* \"#utility.yul\":10609:10831   */\n    tag_55:\n        /* \"#utility.yul\":10702:10706   */\n      0x00\n        /* \"#utility.yul\":10740:10742   */\n      0x20\n        /* \"#utility.yul\":10729:10738   */\n      dup3\n        /* \"#utility.yul\":10725:10743   */\n      add\n        /* \"#utility.yul\":10717:10743   */\n      swap1\n      pop\n        /* \"#utility.yul\":10753:10824   */\n      tag_399\n        /* \"#utility.yul\":10821:10822   */\n      0x00\n        /* \"#utility.yul\":10810:10819   */\n      dup4\n        /* \"#utility.yul\":10806:10823   */\n      add\n        /* \"#utility.yul\":10797:10803   */\n      dup5\n        /* \"#utility.yul\":10753:10824   */\n      tag_319\n      jump\t// in\n    tag_399:\n        /* \"#utility.yul\":10609:10831   */\n      swap3\n      swap2\n      pop\n      pop\n      jump\t// out\n        /* \"#utility.yul\":10837:11047   */\n    tag_27:\n        /* \"#utility.yul\":10924:10928   */\n      0x00\n        /* \"#utility.yul\":10962:10964   */\n      0x20\n        /* \"#utility.yul\":10951:10960   */\n      dup3\n        /* \"#utility.yul\":10947:10965   */\n      add\n        /* \"#utility.yul\":10939:10965   */\n      swap1\n      pop\n        /* \"#utility.yul\":10975:11040   */\n      tag_401\n        /* \"#utility.yul\":11037:11038   */\n      0x00\n        /* \"#utility.yul\":11026:11035   */\n      dup4\n        /* \"#utility.yul\":11022:11039   */\n      add\n        /* \"#utility.yul\":11013:11019   */\n      dup5\n        /* \"#utility.yul\":10975:11040   */\n      tag_322\n      jump\t// in\n    tag_401:\n        /* \"#utility.yul\":10837:11047   */\n      swap3\n      swap2\n      pop\n      pop\n      jump\t// out\n        /* \"#utility.yul\":11053:11275   */\n    tag_33:\n        /* \"#utility.yul\":11146:11150   */\n      0x00\n        /* \"#utility.yul\":11184:11186   */\n      0x20\n        /* \"#utility.yul\":11173:11182   */\n      dup3\n        /* \"#utility.yul\":11169:11187   */\n      add\n        /* \"#utility.yul\":11161:11187   */\n      swap1\n      pop\n        /* \"#utility.yul\":11197:11268   */\n      tag_403\n        /* \"#utility.yul\":11265:11266   */\n      0x00\n        /* \"#utility.yul\":11254:11263   */\n      dup4\n        /* \"#utility.yul\":11250:11267   */\n      add\n        /* \"#utility.yul\":11241:11247   */\n      dup5\n        /* \"#utility.yul\":11197:11268   */\n      tag_326\n      jump\t// in\n    tag_403:\n        /* \"#utility.yul\":11053:11275   */\n      swap3\n      swap2\n      pop\n      pop\n      jump\t// out\n        /* \"#utility.yul\":11281:11594   */\n    tag_46:\n        /* \"#utility.yul\":11394:11398   */\n      0x00\n        /* \"#utility.yul\":11432:11434   */\n      0x20\n        /* \"#utility.yul\":11421:11430   */\n      dup3\n        /* \"#utility.yul\":11417:11435   */\n      add\n        /* \"#utility.yul\":11409:11435   */\n      swap1\n      pop\n        /* \"#utility.yul\":11481:11490   */\n      dup2\n        /* \"#utility.yul\":11475:11479   */\n      dup2\n        /* \"#utility.yul\":11471:11491   */\n      sub\n        /* \"#utility.yul\":11467:11468   */\n      0x00\n        /* \"#utility.yul\":11456:11465   */\n      dup4\n        /* \"#utility.yul\":11452:11469   */\n      add\n        /* \"#utility.yul\":11445:11492   */\n      mstore\n        /* \"#utility.yul\":11509:11587   */\n      tag_405\n        /* \"#utility.yul\":11582:11586   */\n      dup2\n        /* \"#utility.yul\":11573:11579   */\n      dup5\n        /* \"#utility.yul\":11509:11587   */\n      tag_340\n      jump\t// in\n    tag_405:\n        /* \"#utility.yul\":11501:11587   */\n      swap1\n      pop\n        /* \"#utility.yul\":11281:11594   */\n      swap3\n      swap2\n      pop\n      pop\n      jump\t// out\n        /* \"#utility.yul\":11600:12019   */\n    tag_227:\n        /* \"#utility.yul\":11766:11770   */\n      0x00\n        /* \"#utility.yul\":11804:11806   */\n      0x20\n        /* \"#utility.yul\":11793:11802   */\n      dup3\n        /* \"#utility.yul\":11789:11807   */\n      add\n        /* \"#utility.yul\":11781:11807   */\n      swap1\n      pop\n        /* \"#utility.yul\":11853:11862   */\n      dup2\n        /* \"#utility.yul\":11847:11851   */\n      dup2\n        /* \"#utility.yul\":11843:11863   */\n      sub\n        /* \"#utility.yul\":11839:11840   */\n      0x00\n        /* \"#utility.yul\":11828:11837   */\n      dup4\n        /* \"#utility.yul\":11824:11841   */\n      add\n        /* \"#utility.yul\":11817:11864   */\n      mstore\n        /* \"#utility.yul\":11881:12012   */\n      tag_407\n        /* \"#utility.yul\":12007:12011   */\n      dup2\n        /* \"#utility.yul\":11881:12012   */\n      tag_353\n      jump\t// in\n    tag_407:\n        /* \"#utility.yul\":11873:12012   */\n      swap1\n      pop\n        /* \"#utility.yul\":11600:12019   */\n      swap2\n      swap1\n      pop\n      jump\t// out\n        /* \"#utility.yul\":12025:12444   */\n    tag_169:\n        /* \"#utility.yul\":12191:12195   */\n      0x00\n        /* \"#utility.yul\":12229:12231   */\n      0x20\n        /* \"#utility.yul\":12218:12227   */\n      dup3\n        /* \"#utility.yul\":12214:12232   */\n      add\n        /* \"#utility.yul\":12206:12232   */\n      swap1\n      pop\n        /* \"#utility.yul\":12278:12287   */\n      dup2\n        /* \"#utility.yul\":12272:12276   */\n      dup2\n        /* \"#utility.yul\":12268:12288   */\n      sub\n        /* \"#utility.yul\":12264:12265   */\n      0x00\n        /* \"#utility.yul\":12253:12262   */\n      dup4\n        /* \"#utility.yul\":12249:12266   */\n      add\n        /* \"#utility.yul\":12242:12289   */\n      mstore\n        /* \"#utility.yul\":12306:12437   */\n      tag_409\n        /* \"#utility.yul\":12432:12436   */\n      dup2\n        /* \"#utility.yul\":12306:12437   */\n      tag_358\n      jump\t// in\n    tag_409:\n        /* \"#utility.yul\":12298:12437   */\n      swap1\n      pop\n        /* \"#utility.yul\":12025:12444   */\n      swap2\n      swap1\n      pop\n      jump\t// out\n        /* \"#utility.yul\":12450:12869   */\n    tag_144:\n        /* \"#utility.yul\":12616:12620   */\n      0x00\n        /* \"#utility.yul\":12654:12656   */\n      0x20\n        /* \"#utility.yul\":12643:12652   */\n      dup3\n        /* \"#utility.yul\":12639:12657   */\n      add\n        /* \"#utility.yul\":12631:12657   */\n      swap1\n      pop\n        /* \"#utility.yul\":12703:12712   */\n      dup2\n        /* \"#utility.yul\":12697:12701   */\n      dup2\n        /* \"#utility.yul\":12693:12713   */\n      sub\n        /* \"#utility.yul\":12689:12690   */\n      0x00\n        /* \"#utility.yul\":12678:12687   */\n      dup4\n        /* \"#utility.yul\":12674:12691   */\n      add\n        /* \"#utility.yul\":12667:12714   */\n      mstore\n        /* \"#utility.yul\":12731:12862   */\n      tag_411\n        /* \"#utility.yul\":12857:12861   */\n      dup2\n        /* \"#utility.yul\":12731:12862   */\n      tag_363\n      jump\t// in\n    tag_411:\n        /* \"#utility.yul\":12723:12862   */\n      swap1\n      pop\n        /* \"#utility.yul\":12450:12869   */\n      swap2\n      swap1\n      pop\n      jump\t// out\n        /* \"#utility.yul\":12875:13294   */\n    tag_190:\n        /* \"#utility.yul\":13041:13045   */\n      0x00\n        /* \"#utility.yul\":13079:13081   */\n      0x20\n        /* \"#utility.yul\":13068:13077   */\n      dup3\n        /* \"#utility.yul\":13064:13082   */\n      add\n        /* \"#utility.yul\":13056:13082   */\n      swap1\n      pop\n        /* \"#utility.yul\":13128:13137   */\n      dup2\n        /* \"#utility.yul\":13122:13126   */\n      dup2\n        /* \"#utility.yul\":13118:13138   */\n      sub\n        /* \"#utility.yul\":13114:13115   */\n      0x00\n        /* \"#utility.yul\":13103:13112   */\n      dup4\n        /* \"#utility.yul\":13099:13116   */\n      add\n        /* \"#utility.yul\":13092:13139   */\n      mstore\n        /* \"#utility.yul\":13156:13287   */\n      tag_413\n        /* \"#utility.yul\":13282:13286   */\n      dup2\n        /* \"#utility.yul\":13156:13287   */\n      tag_368\n      jump\t// in\n    tag_413:\n        /* \"#utility.yul\":13148:13287   */\n      swap1\n      pop\n        /* \"#utility.yul\":12875:13294   */\n      swap2\n      swap1\n      pop\n      jump\t// out\n        /* \"#utility.yul\":13300:13719   */\n    tag_111:\n        /* \"#utility.yul\":13466:13470   */\n      0x00\n        /* \"#utility.yul\":13504:13506   */\n      0x20\n        /* \"#utility.yul\":13493:13502   */\n      dup3\n        /* \"#utility.yul\":13489:13507   */\n      add\n        /* \"#utility.yul\":13481:13507   */\n      swap1\n      pop\n        /* \"#utility.yul\":13553:13562   */\n      dup2\n        /* \"#utility.yul\":13547:13551   */\n      dup2\n        /* \"#utility.yul\":13543:13563   */\n      sub\n        /* \"#utility.yul\":13539:13540   */\n      0x00\n        /* \"#utility.yul\":13528:13537   */\n      dup4\n        /* \"#utility.yul\":13524:13541   */\n      add\n        /* \"#utility.yul\":13517:13564   */\n      mstore\n        /* \"#utility.yul\":13581:13712   */\n      tag_415\n        /* \"#utility.yul\":13707:13711   */\n      dup2\n        /* \"#utility.yul\":13581:13712   */\n      tag_383\n      jump\t// in\n    tag_415:\n        /* \"#utility.yul\":13573:13712   */\n      swap1\n      pop\n        /* \"#utility.yul\":13300:13719   */\n      swap2\n      swap1\n      pop\n      jump\t// out\n        /* \"#utility.yul\":13725:14102   */\n    tag_64:\n        /* \"#utility.yul\":13870:13874   */\n      0x00\n        /* \"#utility.yul\":13908:13910   */\n      0x20\n        /* \"#utility.yul\":13897:13906   */\n      dup3\n        /* \"#utility.yul\":13893:13911   */\n      add\n        /* \"#utility.yul\":13885:13911   */\n      swap1\n      pop\n        /* \"#utility.yul\":13957:13966   */\n      dup2\n        /* \"#utility.yul\":13951:13955   */\n      dup2\n        /* \"#utility.yul\":13947:13967   */\n      sub\n        /* \"#utility.yul\":13943:13944   */\n      0x00\n        /* \"#utility.yul\":13932:13941   */\n      dup4\n        /* \"#utility.yul\":13928:13945   */\n      add\n        /* \"#utility.yul\":13921:13968   */\n      mstore\n        /* \"#utility.yul\":13985:14095   */\n      tag_417\n        /* \"#utility.yul\":14090:14094   */\n      dup2\n        /* \"#utility.yul\":14081:14087   */\n      dup5\n        /* \"#utility.yul\":13985:14095   */\n      tag_388\n      jump\t// in\n    tag_417:\n        /* \"#utility.yul\":13977:14095   */\n      swap1\n      pop\n        /* \"#utility.yul\":13725:14102   */\n      swap3\n      swap2\n      pop\n      pop\n      jump\t// out\n        /* \"#utility.yul\":14108:14237   */\n    tag_251:\n        /* \"#utility.yul\":14142:14148   */\n      0x00\n        /* \"#utility.yul\":14169:14189   */\n      tag_419\n      tag_420\n      jump\t// in\n    tag_419:\n        /* \"#utility.yul\":14159:14189   */\n      swap1\n      pop\n        /* \"#utility.yul\":14198:14231   */\n      tag_421\n        /* \"#utility.yul\":14226:14230   */\n      dup3\n        /* \"#utility.yul\":14218:14224   */\n      dup3\n        /* \"#utility.yul\":14198:14231   */\n      tag_422\n      jump\t// in\n    tag_421:\n        /* \"#utility.yul\":14108:14237   */\n      swap2\n      swap1\n      pop\n      jump\t// out\n        /* \"#utility.yul\":14243:14318   */\n    tag_420:\n        /* \"#utility.yul\":14276:14282   */\n      0x00\n        /* \"#utility.yul\":14309:14311   */\n      0x40\n        /* \"#utility.yul\":14303:14312   */\n      mload\n        /* \"#utility.yul\":14293:14312   */\n      swap1\n      pop\n        /* \"#utility.yul\":14243:14318   */\n      swap1\n      jump\t// out\n        /* \"#utility.yul\":14324:14632   */\n    tag_250:\n        /* \"#utility.yul\":14386:14390   */\n      0x00\n        /* \"#utility.yul\":14476:14494   */\n      0xffffffffffffffff\n        /* \"#utility.yul\":14468:14474   */\n      dup3\n        /* \"#utility.yul\":14465:14495   */\n      gt\n        /* \"#utility.yul\":14462:14518   */\n      iszero\n      tag_425\n      jumpi\n        /* \"#utility.yul\":14498:14516   */\n      tag_426\n      tag_208\n      jump\t// in\n    tag_426:\n        /* \"#utility.yul\":14462:14518   */\n    tag_425:\n        /* \"#utility.yul\":14536:14565   */\n      tag_427\n        /* \"#utility.yul\":14558:14564   */\n      dup3\n        /* \"#utility.yul\":14536:14565   */\n      tag_339\n      jump\t// in\n    tag_427:\n        /* \"#utility.yul\":14528:14565   */\n      swap1\n      pop\n        /* \"#utility.yul\":14620:14624   */\n      0x20\n        /* \"#utility.yul\":14614:14618   */\n      dup2\n        /* \"#utility.yul\":14610:14625   */\n      add\n        /* \"#utility.yul\":14602:14625   */\n      swap1\n      pop\n        /* \"#utility.yul\":14324:14632   */\n      swap2\n      swap1\n      pop\n      jump\t// out\n        /* \"#utility.yul\":14638:14737   */\n    tag_333:\n        /* \"#utility.yul\":14690:14696   */\n      0x00\n        /* \"#utility.yul\":14724:14729   */\n      dup2\n        /* \"#utility.yul\":14718:14730   */\n      mload\n        /* \"#utility.yul\":14708:14730   */\n      swap1\n      pop\n        /* \"#utility.yul\":14638:14737   */\n      swap2\n      swap1\n      pop\n      jump\t// out\n        /* \"#utility.yul\":14743:14902   */\n    tag_335:\n        /* \"#utility.yul\":14817:14828   */\n      0x00\n        /* \"#utility.yul\":14851:14857   */\n      dup3\n        /* \"#utility.yul\":14846:14849   */\n      dup3\n        /* \"#utility.yul\":14839:14858   */\n      mstore\n        /* \"#utility.yul\":14891:14895   */\n      0x20\n        /* \"#utility.yul\":14886:14889   */\n      dup3\n        /* \"#utility.yul\":14882:14896   */\n      add\n        /* \"#utility.yul\":14867:14896   */\n      swap1\n      pop\n        /* \"#utility.yul\":14743:14902   */\n      swap3\n      swap2\n      pop\n      pop\n      jump\t// out\n        /* \"#utility.yul\":14908:15077   */\n    tag_344:\n        /* \"#utility.yul\":14992:15003   */\n      0x00\n        /* \"#utility.yul\":15026:15032   */\n      dup3\n        /* \"#utility.yul\":15021:15024   */\n      dup3\n        /* \"#utility.yul\":15014:15033   */\n      mstore\n        /* \"#utility.yul\":15066:15070   */\n      0x20\n        /* \"#utility.yul\":15061:15064   */\n      dup3\n        /* \"#utility.yul\":15057:15071   */\n      add\n        /* \"#utility.yul\":15042:15071   */\n      swap1\n      pop\n        /* \"#utility.yul\":14908:15077   */\n      swap3\n      swap2\n      pop\n      pop\n      jump\t// out\n        /* \"#utility.yul\":15083:15231   */\n    tag_351:\n        /* \"#utility.yul\":15185:15196   */\n      0x00\n        /* \"#utility.yul\":15222:15225   */\n      dup2\n        /* \"#utility.yul\":15207:15225   */\n      swap1\n      pop\n        /* \"#utility.yul\":15083:15231   */\n      swap3\n      swap2\n      pop\n      pop\n      jump\t// out\n        /* \"#utility.yul\":15237:15542   */\n    tag_205:\n        /* \"#utility.yul\":15277:15280   */\n      0x00\n        /* \"#utility.yul\":15296:15316   */\n      tag_433\n        /* \"#utility.yul\":15314:15315   */\n      dup3\n        /* \"#utility.yul\":15296:15316   */\n      tag_434\n      jump\t// in\n    tag_433:\n        /* \"#utility.yul\":15291:15316   */\n      swap2\n      pop\n        /* \"#utility.yul\":15330:15350   */\n      tag_435\n        /* \"#utility.yul\":15348:15349   */\n      dup4\n        /* \"#utility.yul\":15330:15350   */\n      tag_434\n      jump\t// in\n    tag_435:\n        /* \"#utility.yul\":15325:15350   */\n      swap3\n      pop\n        /* \"#utility.yul\":15484:15485   */\n      dup3\n        /* \"#utility.yul\":15416:15482   */\n      0xffffffffffffffffffffffffffffffffffffffffffffffffffffffffffffffff\n        /* \"#utility.yul\":15412:15486   */\n      sub\n        /* \"#utility.yul\":15409:15410   */\n      dup3\n        /* \"#utility.yul\":15406:15487   */\n      gt\n        /* \"#utility.yul\":15403:15510   */\n      iszero\n      tag_436\n      jumpi\n        /* \"#utility.yul\":15490:15508   */\n      tag_437\n      tag_438\n      jump\t// in\n    tag_437:\n        /* \"#utility.yul\":15403:15510   */\n    tag_436:\n        /* \"#utility.yul\":15534:15535   */\n      dup3\n        /* \"#utility.yul\":15531:15532   */\n      dup3\n        /* \"#utility.yul\":15527:15536   */\n      add\n        /* \"#utility.yul\":15520:15536   */\n      swap1\n      pop\n        /* \"#utility.yul\":15237:15542   */\n      swap3\n      swap2\n      pop\n      pop\n      jump\t// out\n        /* \"#utility.yul\":15548:15896   */\n    tag_203:\n        /* \"#utility.yul\":15588:15595   */\n      0x00\n        /* \"#utility.yul\":15611:15631   */\n      tag_440\n        /* \"#utility.yul\":15629:15630   */\n      dup3\n        /* \"#utility.yul\":15611:15631   */\n      tag_434\n      jump\t// in\n    tag_440:\n        /* \"#utility.yul\":15606:15631   */\n      swap2\n      pop\n        /* \"#utility.yul\":15645:15665   */\n      tag_441\n        /* \"#utility.yul\":15663:15664   */\n      dup4\n        /* \"#utility.yul\":15645:15665   */\n      tag_434\n      jump\t// in\n    tag_441:\n        /* \"#utility.yul\":15640:15665   */\n      swap3\n      pop\n        /* \"#utility.yul\":15833:15834   */\n      dup2\n        /* \"#utility.yul\":15765:15831   */\n      0xffffffffffffffffffffffffffffffffffffffffffffffffffffffffffffffff\n        /* \"#utility.yul\":15761:15835   */\n      div\n        /* \"#utility.yul\":15758:15759   */\n      dup4\n        /* \"#utility.yul\":15755:15836   */\n      gt\n        /* \"#utility.yul\":15750:15751   */\n      dup3\n        /* \"#utility.yul\":15743:15752   */\n      iszero\n        /* \"#utility.yul\":15736:15753   */\n      iszero\n        /* \"#utility.yul\":15732:15837   */\n      and\n        /* \"#utility.yul\":15729:15860   */\n      iszero\n      tag_442\n      jumpi\n        /* \"#utility.yul\":15840:15858   */\n      tag_443\n      tag_438\n      jump\t// in\n    tag_443:\n        /* \"#utility.yul\":15729:15860   */\n    tag_442:\n        /* \"#utility.yul\":15888:15889   */\n      dup3\n        /* \"#utility.yul\":15885:15886   */\n      dup3\n        /* \"#utility.yul\":15881:15890   */\n      mul\n        /* \"#utility.yul\":15870:15890   */\n      swap1\n      pop\n        /* \"#utility.yul\":15548:15896   */\n      swap3\n      swap2\n      pop\n      pop\n      jump\t// out\n        /* \"#utility.yul\":15902:15998   */\n    tag_318:\n        /* \"#utility.yul\":15939:15946   */\n      0x00\n        /* \"#utility.yul\":15968:15992   */\n      tag_445\n        /* \"#utility.yul\":15986:15991   */\n      dup3\n        /* \"#utility.yul\":15968:15992   */\n      tag_446\n      jump\t// in\n    tag_445:\n        /* \"#utility.yul\":15957:15992   */\n      swap1\n      pop\n        /* \"#utility.yul\":15902:15998   */\n      swap2\n      swap1\n      pop\n      jump\t// out\n        /* \"#utility.yul\":16004:16094   */\n    tag_325:\n        /* \"#utility.yul\":16038:16045   */\n      0x00\n        /* \"#utility.yul\":16081:16086   */\n      dup2\n        /* \"#utility.yul\":16074:16087   */\n      iszero\n        /* \"#utility.yul\":16067:16088   */\n      iszero\n        /* \"#utility.yul\":16056:16088   */\n      swap1\n      pop\n        /* \"#utility.yul\":16004:16094   */\n      swap2\n      swap1\n      pop\n      jump\t// out\n        /* \"#utility.yul\":16100:16177   */\n    tag_329:\n        /* \"#utility.yul\":16137:16144   */\n      0x00\n        /* \"#utility.yul\":16166:16171   */\n      dup2\n        /* \"#utility.yul\":16155:16171   */\n      swap1\n      pop\n        /* \"#utility.yul\":16100:16177   */\n      swap2\n      swap1\n      pop\n      jump\t// out\n        /* \"#utility.yul\":16183:16332   */\n    tag_449:\n        /* \"#utility.yul\":16219:16226   */\n      0x00\n        /* \"#utility.yul\":16259:16325   */\n      0xffffffff00000000000000000000000000000000000000000000000000000000\n        /* \"#utility.yul\":16252:16257   */\n      dup3\n        /* \"#utility.yul\":16248:16326   */\n      and\n        /* \"#utility.yul\":16237:16326   */\n      swap1\n      pop\n        /* \"#utility.yul\":16183:16332   */\n      swap2\n      swap1\n      pop\n      jump\t// out\n        /* \"#utility.yul\":16338:16464   */\n    tag_446:\n        /* \"#utility.yul\":16375:16382   */\n      0x00\n        /* \"#utility.yul\":16415:16457   */\n      0xffffffffffffffffffffffffffffffffffffffff\n        /* \"#utility.yul\":16408:16413   */\n      dup3\n        /* \"#utility.yul\":16404:16458   */\n      and\n        /* \"#utility.yul\":16393:16458   */\n      swap1\n      pop\n        /* \"#utility.yul\":16338:16464   */\n      swap2\n      swap1\n      pop\n      jump\t// out\n        /* \"#utility.yul\":16470:16547   */\n    tag_434:\n        /* \"#utility.yul\":16507:16514   */\n      0x00\n        /* \"#utility.yul\":16536:16541   */\n      dup2\n        /* \"#utility.yul\":16525:16541   */\n      swap1\n      pop\n        /* \"#utility.yul\":16470:16547   */\n      swap2\n      swap1\n      pop\n      jump\t// out\n        /* \"#utility.yul\":16553:16707   */\n    tag_256:\n        /* \"#utility.yul\":16637:16643   */\n      dup3\n        /* \"#utility.yul\":16632:16635   */\n      dup2\n        /* \"#utility.yul\":16627:16630   */\n      dup4\n        /* \"#utility.yul\":16614:16644   */\n      calldatacopy\n        /* \"#utility.yul\":16699:16700   */\n      0x00\n        /* \"#utility.yul\":16690:16696   */\n      dup4\n        /* \"#utility.yul\":16685:16688   */\n      dup4\n        /* \"#utility.yul\":16681:16697   */\n      add\n        /* \"#utility.yul\":16674:16701   */\n      mstore\n        /* \"#utility.yul\":16553:16707   */\n      pop\n      pop\n      pop\n      jump\t// out\n        /* \"#utility.yul\":16713:17020   */\n    tag_337:\n        /* \"#utility.yul\":16781:16782   */\n      0x00\n        /* \"#utility.yul\":16791:16904   */\n    tag_455:\n        /* \"#utility.yul\":16805:16811   */\n      dup4\n        /* \"#utility.yul\":16802:16803   */\n      dup2\n        /* \"#utility.yul\":16799:16812   */\n      lt\n        /* \"#utility.yul\":16791:16904   */\n      iszero\n      tag_457\n      jumpi\n        /* \"#utility.yul\":16890:16891   */\n      dup1\n        /* \"#utility.yul\":16885:16888   */\n      dup3\n        /* \"#utility.yul\":16881:16892   */\n      add\n        /* \"#utility.yul\":16875:16893   */\n      mload\n        /* \"#utility.yul\":16871:16872   */\n      dup2\n        /* \"#utility.yul\":16866:16869   */\n      dup5\n        /* \"#utility.yul\":16862:16873   */\n      add\n        /* \"#utility.yul\":16855:16894   */\n      mstore\n        /* \"#utility.yul\":16827:16829   */\n      0x20\n        /* \"#utility.yul\":16824:16825   */\n      dup2\n        /* \"#utility.yul\":16820:16830   */\n      add\n        /* \"#utility.yul\":16815:16830   */\n      swap1\n      pop\n        /* \"#utility.yul\":16791:16904   */\n      jump(tag_455)\n    tag_457:\n        /* \"#utility.yul\":16922:16928   */\n      dup4\n        /* \"#utility.yul\":16919:16920   */\n      dup2\n        /* \"#utility.yul\":16916:16929   */\n      gt\n        /* \"#utility.yul\":16913:17014   */\n      iszero\n      tag_458\n      jumpi\n        /* \"#utility.yul\":17002:17003   */\n      0x00\n        /* \"#utility.yul\":16993:16999   */\n      dup5\n        /* \"#utility.yul\":16988:16991   */\n      dup5\n        /* \"#utility.yul\":16984:17000   */\n      add\n        /* \"#utility.yul\":16977:17004   */\n      mstore\n        /* \"#utility.yul\":16913:17014   */\n    tag_458:\n        /* \"#utility.yul\":16762:17020   */\n      pop\n        /* \"#utility.yul\":16713:17020   */\n      pop\n      pop\n      pop\n      jump\t// out\n        /* \"#utility.yul\":17026:17197   */\n    tag_224:\n        /* \"#utility.yul\":17065:17068   */\n      0x00\n        /* \"#utility.yul\":17088:17112   */\n      tag_460\n        /* \"#utility.yul\":17106:17111   */\n      dup3\n        /* \"#utility.yul\":17088:17112   */\n      tag_434\n      jump\t// in\n    tag_460:\n        /* \"#utility.yul\":17079:17112   */\n      swap2\n      pop\n        /* \"#utility.yul\":17134:17138   */\n      0x00\n        /* \"#utility.yul\":17127:17132   */\n      dup3\n        /* \"#utility.yul\":17124:17139   */\n      eq\n        /* \"#utility.yul\":17121:17162   */\n      iszero\n      tag_461\n      jumpi\n        /* \"#utility.yul\":17142:17160   */\n      tag_462\n      tag_438\n      jump\t// in\n    tag_462:\n        /* \"#utility.yul\":17121:17162   */\n    tag_461:\n        /* \"#utility.yul\":17189:17190   */\n      0x01\n        /* \"#utility.yul\":17182:17187   */\n      dup3\n        /* \"#utility.yul\":17178:17191   */\n      sub\n        /* \"#utility.yul\":17171:17191   */\n      swap1\n      pop\n        /* \"#utility.yul\":17026:17197   */\n      swap2\n      swap1\n      pop\n      jump\t// out\n        /* \"#utility.yul\":17203:17523   */\n    tag_101:\n        /* \"#utility.yul\":17247:17253   */\n      0x00\n        /* \"#utility.yul\":17284:17285   */\n      0x02\n        /* \"#utility.yul\":17278:17282   */\n      dup3\n        /* \"#utility.yul\":17274:17286   */\n      div\n        /* \"#utility.yul\":17264:17286   */\n      swap1\n      pop\n        /* \"#utility.yul\":17331:17332   */\n      0x01\n        /* \"#utility.yul\":17325:17329   */\n      dup3\n        /* \"#utility.yul\":17321:17333   */\n      and\n        /* \"#utility.yul\":17352:17370   */\n      dup1\n        /* \"#utility.yul\":17342:17423   */\n      tag_464\n      jumpi\n        /* \"#utility.yul\":17408:17412   */\n      0x7f\n        /* \"#utility.yul\":17400:17406   */\n      dup3\n        /* \"#utility.yul\":17396:17413   */\n      and\n        /* \"#utility.yul\":17386:17413   */\n      swap2\n      pop\n        /* \"#utility.yul\":17342:17423   */\n    tag_464:\n        /* \"#utility.yul\":17470:17472   */\n      0x20\n        /* \"#utility.yul\":17462:17468   */\n      dup3\n        /* \"#utility.yul\":17459:17473   */\n      lt\n        /* \"#utility.yul\":17439:17457   */\n      dup2\n        /* \"#utility.yul\":17436:17474   */\n      eq\n        /* \"#utility.yul\":17433:17517   */\n      iszero\n      tag_465\n      jumpi\n        /* \"#utility.yul\":17489:17507   */\n      tag_466\n      tag_467\n      jump\t// in\n    tag_466:\n        /* \"#utility.yul\":17433:17517   */\n    tag_465:\n        /* \"#utility.yul\":17254:17523   */\n      pop\n        /* \"#utility.yul\":17203:17523   */\n      swap2\n      swap1\n      pop\n      jump\t// out\n        /* \"#utility.yul\":17529:17810   */\n    tag_422:\n        /* \"#utility.yul\":17612:17639   */\n      tag_469\n        /* \"#utility.yul\":17634:17638   */\n      dup3\n        /* \"#utility.yul\":17612:17639   */\n      tag_339\n      jump\t// in\n    tag_469:\n        /* \"#utility.yul\":17604:17610   */\n      dup2\n        /* \"#utility.yul\":17600:17640   */\n      add\n        /* \"#utility.yul\":17742:17748   */\n      dup2\n        /* \"#utility.yul\":17730:17740   */\n      dup2\n        /* \"#utility.yul\":17727:17749   */\n      lt\n        /* \"#utility.yul\":17706:17724   */\n      0xffffffffffffffff\n        /* \"#utility.yul\":17694:17704   */\n      dup3\n        /* \"#utility.yul\":17691:17725   */\n      gt\n        /* \"#utility.yul\":17688:17750   */\n      or\n        /* \"#utility.yul\":17685:17773   */\n      iszero\n      tag_470\n      jumpi\n        /* \"#utility.yul\":17753:17771   */\n      tag_471\n      tag_208\n      jump\t// in\n    tag_471:\n        /* \"#utility.yul\":17685:17773   */\n    tag_470:\n        /* \"#utility.yul\":17793:17803   */\n      dup1\n        /* \"#utility.yul\":17789:17791   */\n      0x40\n        /* \"#utility.yul\":17782:17804   */\n      mstore\n        /* \"#utility.yul\":17572:17810   */\n      pop\n        /* \"#utility.yul\":17529:17810   */\n      pop\n      pop\n      jump\t// out\n        /* \"#utility.yul\":17816:18049   */\n    tag_156:\n        /* \"#utility.yul\":17855:17858   */\n      0x00\n        /* \"#utility.yul\":17878:17902   */\n      tag_473\n        /* \"#utility.yul\":17896:17901   */\n      dup3\n        /* \"#utility.yul\":17878:17902   */\n      tag_434\n      jump\t// in\n    tag_473:\n        /* \"#utility.yul\":17869:17902   */\n      swap2\n      pop\n        /* \"#utility.yul\":17924:17990   */\n      0xffffffffffffffffffffffffffffffffffffffffffffffffffffffffffffffff\n        /* \"#utility.yul\":17917:17922   */\n      dup3\n        /* \"#utility.yul\":17914:17991   */\n      eq\n        /* \"#utility.yul\":17911:18014   */\n      iszero\n      tag_474\n      jumpi\n        /* \"#utility.yul\":17994:18012   */\n      tag_475\n      tag_438\n      jump\t// in\n    tag_475:\n        /* \"#utility.yul\":17911:18014   */\n    tag_474:\n        /* \"#utility.yul\":18041:18042   */\n      0x01\n        /* \"#utility.yul\":18034:18039   */\n      dup3\n        /* \"#utility.yul\":18030:18043   */\n      add\n        /* \"#utility.yul\":18023:18043   */\n      swap1\n      pop\n        /* \"#utility.yul\":17816:18049   */\n      swap2\n      swap1\n      pop\n      jump\t// out\n        /* \"#utility.yul\":18055:18235   */\n    tag_438:\n        /* \"#utility.yul\":18103:18180   */\n      0x4e487b7100000000000000000000000000000000000000000000000000000000\n        /* \"#utility.yul\":18100:18101   */\n      0x00\n        /* \"#utility.yul\":18093:18181   */\n      mstore\n        /* \"#utility.yul\":18200:18204   */\n      0x11\n        /* \"#utility.yul\":18197:18198   */\n      0x04\n        /* \"#utility.yul\":18190:18205   */\n      mstore\n        /* \"#utility.yul\":18224:18228   */\n      0x24\n        /* \"#utility.yul\":18221:18222   */\n      0x00\n        /* \"#utility.yul\":18214:18229   */\n      revert\n        /* \"#utility.yul\":18241:18421   */\n    tag_467:\n        /* \"#utility.yul\":18289:18366   */\n      0x4e487b7100000000000000000000000000000000000000000000000000000000\n        /* \"#utility.yul\":18286:18287   */\n      0x00\n        /* \"#utility.yul\":18279:18367   */\n      mstore\n        /* \"#utility.yul\":18386:18390   */\n      0x22\n        /* \"#utility.yul\":18383:18384   */\n      0x04\n        /* \"#utility.yul\":18376:18391   */\n      mstore\n        /* \"#utility.yul\":18410:18414   */\n      0x24\n        /* \"#utility.yul\":18407:18408   */\n      0x00\n        /* \"#utility.yul\":18400:18415   */\n      revert\n        /* \"#utility.yul\":18427:18607   */\n    tag_150:\n        /* \"#utility.yul\":18475:18552   */\n      0x4e487b7100000000000000000000000000000000000000000000000000000000\n        /* \"#utility.yul\":18472:18473   */\n      0x00\n        /* \"#utility.yul\":18465:18553   */\n      mstore\n        /* \"#utility.yul\":18572:18576   */\n      0x32\n        /* \"#utility.yul\":18569:18570   */\n      0x04\n        /* \"#utility.yul\":18562:18577   */\n      mstore\n        /* \"#utility.yul\":18596:18600   */\n      0x24\n        /* \"#utility.yul\":18593:18594   */\n      0x00\n        /* \"#utility.yul\":18586:18601   */\n      revert\n        /* \"#utility.yul\":18613:18793   */\n    tag_208:\n        /* \"#utility.yul\":18661:18738   */\n      0x4e487b7100000000000000000000000000000000000000000000000000000000\n        /* \"#utility.yul\":18658:18659   */\n      0x00\n        /* \"#utility.yul\":18651:18739   */\n      mstore\n        /* \"#utility.yul\":18758:18762   */\n      0x41\n        /* \"#utility.yul\":18755:18756   */\n      0x04\n        /* \"#utility.yul\":18748:18763   */\n      mstore\n        /* \"#utility.yul\":18782:18786   */\n      0x24\n        /* \"#utility.yul\":18779:18780   */\n      0x00\n        /* \"#utility.yul\":18772:18787   */\n      revert\n        /* \"#utility.yul\":18799:18916   */\n    tag_273:\n        /* \"#utility.yul\":18908:18909   */\n      0x00\n        /* \"#utility.yul\":18905:18906   */\n      dup1\n        /* \"#utility.yul\":18898:18910   */\n      revert\n        /* \"#utility.yul\":18922:19039   */\n    tag_254:\n        /* \"#utility.yul\":19031:19032   */\n      0x00\n        /* \"#utility.yul\":19028:19029   */\n      dup1\n        /* \"#utility.yul\":19021:19033   */\n      revert\n        /* \"#utility.yul\":19045:19162   */\n    tag_307:\n        /* \"#utility.yul\":19154:19155   */\n      0x00\n        /* \"#utility.yul\":19151:19152   */\n      dup1\n        /* \"#utility.yul\":19144:19156   */\n      revert\n        /* \"#utility.yul\":19168:19285   */\n    tag_282:\n        /* \"#utility.yul\":19277:19278   */\n      0x00\n        /* \"#utility.yul\":19274:19275   */\n      dup1\n        /* \"#utility.yul\":19267:19279   */\n      revert\n        /* \"#utility.yul\":19291:19393   */\n    tag_339:\n        /* \"#utility.yul\":19332:19338   */\n      0x00\n        /* \"#utility.yul\":19383:19385   */\n      0x1f\n        /* \"#utility.yul\":19379:19386   */\n      not\n        /* \"#utility.yul\":19374:19376   */\n      0x1f\n        /* \"#utility.yul\":19367:19372   */\n      dup4\n        /* \"#utility.yul\":19363:19377   */\n      add\n        /* \"#utility.yul\":19359:19387   */\n      and\n        /* \"#utility.yul\":19349:19387   */\n      swap1\n      pop\n        /* \"#utility.yul\":19291:19393   */\n      swap2\n      swap1\n      pop\n      jump\t// out\n        /* \"#utility.yul\":19399:19581   */\n    tag_357:\n        /* \"#utility.yul\":19539:19573   */\n      0x537472696e67733a20686578206c656e67746820696e73756666696369656e74\n        /* \"#utility.yul\":19535:19536   */\n      0x00\n        /* \"#utility.yul\":19527:19533   */\n      dup3\n        /* \"#utility.yul\":19523:19537   */\n      add\n        /* \"#utility.yul\":19516:19574   */\n      mstore\n        /* \"#utility.yul\":19399:19581   */\n      pop\n      jump\t// out\n        /* \"#utility.yul\":19587:19812   */\n    tag_362:\n        /* \"#utility.yul\":19727:19761   */\n      0x4f776e61626c653a206e6577206f776e657220697320746865207a65726f2061\n        /* \"#utility.yul\":19723:19724   */\n      0x00\n        /* \"#utility.yul\":19715:19721   */\n      dup3\n        /* \"#utility.yul\":19711:19725   */\n      add\n        /* \"#utility.yul\":19704:19762   */\n      mstore\n        /* \"#utility.yul\":19796:19804   */\n      0x6464726573730000000000000000000000000000000000000000000000000000\n        /* \"#utility.yul\":19791:19793   */\n      0x20\n        /* \"#utility.yul\":19783:19789   */\n      dup3\n        /* \"#utility.yul\":19779:19794   */\n      add\n        /* \"#utility.yul\":19772:19805   */\n      mstore\n        /* \"#utility.yul\":19587:19812   */\n      pop\n      jump\t// out\n        /* \"#utility.yul\":19818:19999   */\n    tag_367:\n        /* \"#utility.yul\":19958:19991   */\n      0x43616c6c6572206973206e6f7420616e20494e45432065786563757469766500\n        /* \"#utility.yul\":19954:19955   */\n      0x00\n        /* \"#utility.yul\":19946:19952   */\n      dup3\n        /* \"#utility.yul\":19942:19956   */\n      add\n        /* \"#utility.yul\":19935:19992   */\n      mstore\n        /* \"#utility.yul\":19818:19999   */\n      pop\n      jump\t// out\n        /* \"#utility.yul\":20005:20187   */\n    tag_372:\n        /* \"#utility.yul\":20145:20179   */\n      0x4f776e61626c653a2063616c6c6572206973206e6f7420746865206f776e6572\n        /* \"#utility.yul\":20141:20142   */\n      0x00\n        /* \"#utility.yul\":20133:20139   */\n      dup3\n        /* \"#utility.yul\":20129:20143   */\n      add\n        /* \"#utility.yul\":20122:20180   */\n      mstore\n        /* \"#utility.yul\":20005:20187   */\n      pop\n      jump\t// out\n        /* \"#utility.yul\":20193:20366   */\n    tag_377:\n        /* \"#utility.yul\":20333:20358   */\n      0x416363657373436f6e74726f6c3a206163636f756e7420000000000000000000\n        /* \"#utility.yul\":20329:20330   */\n      0x00\n        /* \"#utility.yul\":20321:20327   */\n      dup3\n        /* \"#utility.yul\":20317:20331   */\n      add\n        /* \"#utility.yul\":20310:20359   */\n      mstore\n        /* \"#utility.yul\":20193:20366   */\n      pop\n      jump\t// out\n        /* \"#utility.yul\":20372:20539   */\n    tag_382:\n        /* \"#utility.yul\":20512:20531   */\n      0x206973206d697373696e6720726f6c6520000000000000000000000000000000\n        /* \"#utility.yul\":20508:20509   */\n      0x00\n        /* \"#utility.yul\":20500:20506   */\n      dup3\n        /* \"#utility.yul\":20496:20510   */\n      add\n        /* \"#utility.yul\":20489:20532   */\n      mstore\n        /* \"#utility.yul\":20372:20539   */\n      pop\n      jump\t// out\n        /* \"#utility.yul\":20545:20779   */\n    tag_387:\n        /* \"#utility.yul\":20685:20719   */\n      0x416363657373436f6e74726f6c3a2063616e206f6e6c792072656e6f756e6365\n        /* \"#utility.yul\":20681:20682   */\n      0x00\n        /* \"#utility.yul\":20673:20679   */\n      dup3\n        /* \"#utility.yul\":20669:20683   */\n      add\n        /* \"#utility.yul\":20662:20720   */\n      mstore\n        /* \"#utility.yul\":20754:20771   */\n      0x20726f6c657320666f722073656c660000000000000000000000000000000000\n        /* \"#utility.yul\":20749:20751   */\n      0x20\n        /* \"#utility.yul\":20741:20747   */\n      dup3\n        /* \"#utility.yul\":20737:20752   */\n      add\n        /* \"#utility.yul\":20730:20772   */\n      mstore\n        /* \"#utility.yul\":20545:20779   */\n      pop\n      jump\t// out\n        /* \"#utility.yul\":20785:20907   */\n    tag_260:\n        /* \"#utility.yul\":20858:20882   */\n      tag_493\n        /* \"#utility.yul\":20876:20881   */\n      dup2\n        /* \"#utility.yul\":20858:20882   */\n      tag_318\n      jump\t// in\n    tag_493:\n        /* \"#utility.yul\":20851:20856   */\n      dup2\n        /* \"#utility.yul\":20848:20883   */\n      eq\n        /* \"#utility.yul\":20838:20901   */\n      tag_494\n      jumpi\n        /* \"#utility.yul\":20897:20898   */\n      0x00\n        /* \"#utility.yul\":20894:20895   */\n      dup1\n        /* \"#utility.yul\":20887:20899   */\n      revert\n        /* \"#utility.yul\":20838:20901   */\n    tag_494:\n        /* \"#utility.yul\":20785:20907   */\n      pop\n      jump\t// out\n        /* \"#utility.yul\":20913:21035   */\n    tag_264:\n        /* \"#utility.yul\":20986:21010   */\n      tag_496\n        /* \"#utility.yul\":21004:21009   */\n      dup2\n        /* \"#utility.yul\":20986:21010   */\n      tag_329\n      jump\t// in\n    tag_496:\n        /* \"#utility.yul\":20979:20984   */\n      dup2\n        /* \"#utility.yul\":20976:21011   */\n      eq\n        /* \"#utility.yul\":20966:21029   */\n      tag_497\n      jumpi\n        /* \"#utility.yul\":21025:21026   */\n      0x00\n        /* \"#utility.yul\":21022:21023   */\n      dup1\n        /* \"#utility.yul\":21015:21027   */\n      revert\n        /* \"#utility.yul\":20966:21029   */\n    tag_497:\n        /* \"#utility.yul\":20913:21035   */\n      pop\n      jump\t// out\n        /* \"#utility.yul\":21041:21161   */\n    tag_268:\n        /* \"#utility.yul\":21113:21136   */\n      tag_499\n        /* \"#utility.yul\":21130:21135   */\n      dup2\n        /* \"#utility.yul\":21113:21136   */\n      tag_449\n      jump\t// in\n    tag_499:\n        /* \"#utility.yul\":21106:21111   */\n      dup2\n        /* \"#utility.yul\":21103:21137   */\n      eq\n        /* \"#utility.yul\":21093:21155   */\n      tag_500\n      jumpi\n        /* \"#utility.yul\":21151:21152   */\n      0x00\n        /* \"#utility.yul\":21148:21149   */\n      dup1\n        /* \"#utility.yul\":21141:21153   */\n      revert\n        /* \"#utility.yul\":21093:21155   */\n    tag_500:\n        /* \"#utility.yul\":21041:21161   */\n      pop\n      jump\t// out\n        /* \"#utility.yul\":21167:21289   */\n    tag_278:\n        /* \"#utility.yul\":21240:21264   */\n      tag_502\n        /* \"#utility.yul\":21258:21263   */\n      dup2\n        /* \"#utility.yul\":21240:21264   */\n      tag_434\n      jump\t// in\n    tag_502:\n        /* \"#utility.yul\":21233:21238   */\n      dup2\n        /* \"#utility.yul\":21230:21265   */\n      eq\n        /* \"#utility.yul\":21220:21283   */\n      tag_503\n      jumpi\n        /* \"#utility.yul\":21279:21280   */\n      0x00\n        /* \"#utility.yul\":21276:21277   */\n      dup1\n        /* \"#utility.yul\":21269:21281   */\n      revert\n        /* \"#utility.yul\":21220:21283   */\n    tag_503:\n        /* \"#utility.yul\":21167:21289   */\n      pop\n      jump\t// out\n\n    auxdata: 0xa2646970667358221220b6218f94a6a8774a8e541dccbcd3a888ce0d3833f0008b3763b1b9145731edad64736f6c63430008070033\n}\n",
				"bytecode": {
					"linkReferences": {},
					"object": "608060405260405180608001604052806040518060400160405280600381526020017f415043000000000000000000000000000000000000000000000000000000000081525081526020016040518060400160405280600381526020017f504450000000000000000000000000000000000000000000000000000000000081525081526020016040518060400160405280600281526020017f4c5000000000000000000000000000000000000000000000000000000000000081525081526020016040518060400160405280600481526020017f4e4e50500000000000000000000000000000000000000000000000000000000081525081525060059060046200010b92919062000393565b503480156200011957600080fd5b506200013a6200012e6200015560201b60201c565b6200015d60201b60201c565b6200014f6000801b336200022160201b60201c565b6200057d565b600033905090565b60008060009054906101000a900473ffffffffffffffffffffffffffffffffffffffff169050816000806101000a81548173ffffffffffffffffffffffffffffffffffffffff021916908373ffffffffffffffffffffffffffffffffffffffff1602179055508173ffffffffffffffffffffffffffffffffffffffff168173ffffffffffffffffffffffffffffffffffffffff167f8be0079c531659141344cd1fd0a4f28419497f9722a3daafe3b4186f6b6457e060405160405180910390a35050565b6200023382826200023760201b60201c565b5050565b6200024982826200032860201b60201c565b6200032457600180600084815260200190815260200160002060000160008373ffffffffffffffffffffffffffffffffffffffff1673ffffffffffffffffffffffffffffffffffffffff16815260200190815260200160002060006101000a81548160ff021916908315150217905550620002c96200015560201b60201c565b73ffffffffffffffffffffffffffffffffffffffff168173ffffffffffffffffffffffffffffffffffffffff16837f2f8788117e7eff1d82e926ec794901d17c78024a50270940304540a733656f0d60405160405180910390a45b5050565b60006001600084815260200190815260200160002060000160008373ffffffffffffffffffffffffffffffffffffffff1673ffffffffffffffffffffffffffffffffffffffff16815260200190815260200160002060009054906101000a900460ff16905092915050565b828054828255906000526020600020908101928215620003e7579160200282015b82811115620003e6578251829080519060200190620003d5929190620003fa565b5091602001919060010190620003b4565b5b509050620003f691906200048b565b5090565b828054620004089062000518565b90600052602060002090601f0160209004810192826200042c576000855562000478565b82601f106200044757805160ff191683800117855562000478565b8280016001018555821562000478579182015b82811115620004775782518255916020019190600101906200045a565b5b509050620004879190620004b3565b5090565b5b80821115620004af5760008181620004a59190620004d2565b506001016200048c565b5090565b5b80821115620004ce576000816000905550600101620004b4565b5090565b508054620004e09062000518565b6000825580601f10620004f4575062000515565b601f016020900490600052602060002090810190620005149190620004b3565b5b50565b600060028204905060018216806200053157607f821691505b602082108114156200054857620005476200054e565b5b50919050565b7f4e487b7100000000000000000000000000000000000000000000000000000000600052602260045260246000fd5b611db0806200058d6000396000f3fe608060405234801561001057600080fd5b50600436106101005760003560e01c806391d1485411610097578063d59d2a5811610066578063d59d2a58146102ad578063dfd8459e146102c9578063ef49f4aa146102e5578063f2fde38b1461030157610100565b806391d14854146102135780639e5f034914610243578063a217fddf14610273578063d547741f1461029157610100565b8063314fd68f116100d3578063314fd68f1461019f57806336568abe146101cf578063715018a6146101eb5780638da5cb5b146101f557610100565b806301ffc9a714610105578063248a9ca3146101355780632e0d37bb146101655780632f2ff15d14610183575b600080fd5b61011f600480360381019061011a919061139b565b61031d565b60405161012c91906116e4565b60405180910390f35b61014f600480360381019061014a919061132e565b610397565b60405161015c91906116ff565b60405180910390f35b61016d6103b7565b60405161017a91906116ff565b60405180910390f35b61019d6004803603810190610198919061135b565b6103db565b005b6101b960048036038101906101b49190611437565b6103fc565b6040516101c6919061171a565b60405180910390f35b6101e960048036038101906101e4919061135b565b6104a8565b005b6101f361052b565b005b6101fd61053f565b60405161020a91906116c9565b60405180910390f35b61022d6004803603810190610228919061135b565b610568565b60405161023a91906116e4565b60405180910390f35b61025d60048036038101906102589190611437565b6105d3565b60405161026a91906117dc565b60405180910390f35b61027b61077a565b60405161028891906116ff565b60405180910390f35b6102ab60048036038101906102a6919061135b565b610781565b005b6102c760048036038101906102c291906113c8565b6107a2565b005b6102e360048036038101906102de91906112c1565b6108fa565b005b6102ff60048036038101906102fa91906112ee565b61092f565b005b61031b600480360381019061031691906112c1565b6109af565b005b60007f7965db0b000000000000000000000000000000000000000000000000000000007bffffffffffffffffffffffffffffffffffffffffffffffffffffffff1916827bffffffffffffffffffffffffffffffffffffffffffffffffffffffff19161480610390575061038f82610a33565b5b9050919050565b600060016000838152602001908152602001600020600101549050919050565b7f082f6ed76e0352438e6a6e35c77719c3f04bf277fdc8fec7e5ff5f65e001d90281565b6103e482610397565b6103ed81610a9d565b6103f78383610ab1565b505050565b6005818154811061040c57600080fd5b90600052602060002001600091509050805461042790611a26565b80601f016020809104026020016040519081016040528092919081815260200182805461045390611a26565b80156104a05780601f10610475576101008083540402835291602001916104a0565b820191906000526020600020905b81548152906001019060200180831161048357829003601f168201915b505050505081565b6104b0610b91565b73ffffffffffffffffffffffffffffffffffffffff168173ffffffffffffffffffffffffffffffffffffffff161461051d576040517f08c379a0000000000000000000000000000000000000000000000000000000008152600401610514906117bc565b60405180910390fd5b6105278282610b99565b5050565b610533610c7b565b61053d6000610cf9565b565b60008060009054906101000a900473ffffffffffffffffffffffffffffffffffffffff16905090565b60006001600084815260200190815260200160002060000160008373ffffffffffffffffffffffffffffffffffffffff1673ffffffffffffffffffffffffffffffffffffffff16815260200190815260200160002060009054906101000a900460ff16905092915050565b6105db611096565b6006600083815260200190815260200160002060405180606001604052908160008201805461060990611a26565b80601f016020809104026020016040519081016040528092919081815260200182805461063590611a26565b80156106825780601f1061065757610100808354040283529160200191610682565b820191906000526020600020905b81548152906001019060200180831161066557829003601f168201915b505050505081526020016001820160009054906101000a900473ffffffffffffffffffffffffffffffffffffffff1673ffffffffffffffffffffffffffffffffffffffff1673ffffffffffffffffffffffffffffffffffffffff1681526020016002820180546106f190611a26565b80601f016020809104026020016040519081016040528092919081815260200182805461071d90611a26565b801561076a5780601f1061073f5761010080835404028352916020019161076a565b820191906000526020600020905b81548152906001019060200180831161074d57829003601f168201915b5050505050815250509050919050565b6000801b81565b61078a82610397565b61079381610a9d565b61079d8383610b99565b505050565b6107cc7f082f6ed76e0352438e6a6e35c77719c3f04bf277fdc8fec7e5ff5f65e001d90233610568565b61080b576040517f08c379a00000000000000000000000000000000000000000000000000000000081526004016108029061177c565b60405180910390fd5b8260066000600354815260200190815260200160002060000190805190602001906108379291906110cd565b508160066000600354815260200190815260200160002060010160006101000a81548173ffffffffffffffffffffffffffffffffffffffff021916908373ffffffffffffffffffffffffffffffffffffffff160217905550600581815481106108a3576108a2611b30565b5b906000526020600020016006600060035481526020019081526020016000206002019080546108d190611a26565b6108dc929190611153565b50600360008154809291906108f090611a89565b9190505550505050565b610902610c7b565b61092c7f082f6ed76e0352438e6a6e35c77719c3f04bf277fdc8fec7e5ff5f65e001d902826103db565b50565b610937610c7b565b8160076000600454815260200190815260200160002060000160006101000a81548173ffffffffffffffffffffffffffffffffffffffff021916908373ffffffffffffffffffffffffffffffffffffffff16021790555080600760006004548152602001908152602001600020600101819055505050565b6109b7610c7b565b600073ffffffffffffffffffffffffffffffffffffffff168173ffffffffffffffffffffffffffffffffffffffff161415610a27576040517f08c379a0000000000000000000000000000000000000000000000000000000008152600401610a1e9061175c565b60405180910390fd5b610a3081610cf9565b50565b60007f01ffc9a7000000000000000000000000000000000000000000000000000000007bffffffffffffffffffffffffffffffffffffffffffffffffffffffff1916827bffffffffffffffffffffffffffffffffffffffffffffffffffffffff1916149050919050565b610aae81610aa9610b91565b610dbd565b50565b610abb8282610568565b610b8d57600180600084815260200190815260200160002060000160008373ffffffffffffffffffffffffffffffffffffffff1673ffffffffffffffffffffffffffffffffffffffff16815260200190815260200160002060006101000a81548160ff021916908315150217905550610b32610b91565b73ffffffffffffffffffffffffffffffffffffffff168173ffffffffffffffffffffffffffffffffffffffff16837f2f8788117e7eff1d82e926ec794901d17c78024a50270940304540a733656f0d60405160405180910390a45b5050565b600033905090565b610ba38282610568565b15610c775760006001600084815260200190815260200160002060000160008373ffffffffffffffffffffffffffffffffffffffff1673ffffffffffffffffffffffffffffffffffffffff16815260200190815260200160002060006101000a81548160ff021916908315150217905550610c1c610b91565b73ffffffffffffffffffffffffffffffffffffffff168173ffffffffffffffffffffffffffffffffffffffff16837ff6391f5c32d9c69d2a47ea670b442974b53935d1edc7fd64eb21e047a839171b60405160405180910390a45b5050565b610c83610b91565b73ffffffffffffffffffffffffffffffffffffffff16610ca161053f565b73ffffffffffffffffffffffffffffffffffffffff1614610cf7576040517f08c379a0000000000000000000000000000000000000000000000000000000008152600401610cee9061179c565b60405180910390fd5b565b60008060009054906101000a900473ffffffffffffffffffffffffffffffffffffffff169050816000806101000a81548173ffffffffffffffffffffffffffffffffffffffff021916908373ffffffffffffffffffffffffffffffffffffffff1602179055508173ffffffffffffffffffffffffffffffffffffffff168173ffffffffffffffffffffffffffffffffffffffff167f8be0079c531659141344cd1fd0a4f28419497f9722a3daafe3b4186f6b6457e060405160405180910390a35050565b610dc78282610568565b610e5657610dec8173ffffffffffffffffffffffffffffffffffffffff166014610e5a565b610dfa8360001c6020610e5a565b604051602001610e0b92919061168f565b6040516020818303038152906040526040517f08c379a0000000000000000000000000000000000000000000000000000000008152600401610e4d919061171a565b60405180910390fd5b5050565b606060006002836002610e6d91906118e2565b610e77919061188c565b67ffffffffffffffff811115610e9057610e8f611b5f565b5b6040519080825280601f01601f191660200182016040528015610ec25781602001600182028036833780820191505090505b5090507f300000000000000000000000000000000000000000000000000000000000000081600081518110610efa57610ef9611b30565b5b60200101907effffffffffffffffffffffffffffffffffffffffffffffffffffffffffffff1916908160001a9053507f780000000000000000000000000000000000000000000000000000000000000081600181518110610f5e57610f5d611b30565b5b60200101907effffffffffffffffffffffffffffffffffffffffffffffffffffffffffffff1916908160001a90535060006001846002610f9e91906118e2565b610fa8919061188c565b90505b6001811115611048577f3031323334353637383961626364656600000000000000000000000000000000600f861660108110610fea57610fe9611b30565b5b1a60f81b82828151811061100157611000611b30565b5b60200101907effffffffffffffffffffffffffffffffffffffffffffffffffffffffffffff1916908160001a905350600485901c945080611041906119fc565b9050610fab565b506000841461108c576040517f08c379a00000000000000000000000000000000000000000000000000000000081526004016110839061173c565b60405180910390fd5b8091505092915050565b604051806060016040528060608152602001600073ffffffffffffffffffffffffffffffffffffffff168152602001606081525090565b8280546110d990611a26565b90600052602060002090601f0160209004810192826110fb5760008555611142565b82601f1061111457805160ff1916838001178555611142565b82800160010185558215611142579182015b82811115611141578251825591602001919060010190611126565b5b50905061114f91906111e0565b5090565b82805461115f90611a26565b90600052602060002090601f01602090048101928261118157600085556111cf565b82601f1061119257805485556111cf565b828001600101855582156111cf57600052602060002091601f016020900482015b828111156111ce5782548255916001019190600101906111b3565b5b5090506111dc91906111e0565b5090565b5b808211156111f95760008160009055506001016111e1565b5090565b600061121061120b84611823565b6117fe565b90508281526020810184848401111561122c5761122b611b93565b5b6112378482856119ba565b509392505050565b60008135905061124e81611d1e565b92915050565b60008135905061126381611d35565b92915050565b60008135905061127881611d4c565b92915050565b600082601f83011261129357611292611b8e565b5b81356112a38482602086016111fd565b91505092915050565b6000813590506112bb81611d63565b92915050565b6000602082840312156112d7576112d6611b9d565b5b60006112e58482850161123f565b91505092915050565b6000806040838503121561130557611304611b9d565b5b60006113138582860161123f565b9250506020611324858286016112ac565b9150509250929050565b60006020828403121561134457611343611b9d565b5b600061135284828501611254565b91505092915050565b6000806040838503121561137257611371611b9d565b5b600061138085828601611254565b92505060206113918582860161123f565b9150509250929050565b6000602082840312156113b1576113b0611b9d565b5b60006113bf84828501611269565b91505092915050565b6000806000606084860312156113e1576113e0611b9d565b5b600084013567ffffffffffffffff8111156113ff576113fe611b98565b5b61140b8682870161127e565b935050602061141c8682870161123f565b925050604061142d868287016112ac565b9150509250925092565b60006020828403121561144d5761144c611b9d565b5b600061145b848285016112ac565b91505092915050565b61146d8161193c565b82525050565b61147c8161193c565b82525050565b61148b8161194e565b82525050565b61149a8161195a565b82525050565b60006114ab82611854565b6114b5818561185f565b93506114c58185602086016119c9565b6114ce81611ba2565b840191505092915050565b60006114e482611854565b6114ee8185611870565b93506114fe8185602086016119c9565b61150781611ba2565b840191505092915050565b600061151d82611854565b6115278185611881565b93506115378185602086016119c9565b80840191505092915050565b6000611550602083611870565b915061155b82611bb3565b602082019050919050565b6000611573602683611870565b915061157e82611bdc565b604082019050919050565b6000611596601f83611870565b91506115a182611c2b565b602082019050919050565b60006115b9602083611870565b91506115c482611c54565b602082019050919050565b60006115dc601783611881565b91506115e782611c7d565b601782019050919050565b60006115ff601183611881565b915061160a82611ca6565b601182019050919050565b6000611622602f83611870565b915061162d82611ccf565b604082019050919050565b6000606083016000830151848203600086015261165582826114a0565b915050602083015161166a6020860182611464565b506040830151848203604086015261168282826114a0565b9150508091505092915050565b600061169a826115cf565b91506116a68285611512565b91506116b1826115f2565b91506116bd8284611512565b91508190509392505050565b60006020820190506116de6000830184611473565b92915050565b60006020820190506116f96000830184611482565b92915050565b60006020820190506117146000830184611491565b92915050565b6000602082019050818103600083015261173481846114d9565b905092915050565b6000602082019050818103600083015261175581611543565b9050919050565b6000602082019050818103600083015261177581611566565b9050919050565b6000602082019050818103600083015261179581611589565b9050919050565b600060208201905081810360008301526117b5816115ac565b9050919050565b600060208201905081810360008301526117d581611615565b9050919050565b600060208201905081810360008301526117f68184611638565b905092915050565b6000611808611819565b90506118148282611a58565b919050565b6000604051905090565b600067ffffffffffffffff82111561183e5761183d611b5f565b5b61184782611ba2565b9050602081019050919050565b600081519050919050565b600082825260208201905092915050565b600082825260208201905092915050565b600081905092915050565b6000611897826119b0565b91506118a2836119b0565b9250827fffffffffffffffffffffffffffffffffffffffffffffffffffffffffffffffff038211156118d7576118d6611ad2565b5b828201905092915050565b60006118ed826119b0565b91506118f8836119b0565b9250817fffffffffffffffffffffffffffffffffffffffffffffffffffffffffffffffff048311821515161561193157611930611ad2565b5b828202905092915050565b600061194782611990565b9050919050565b60008115159050919050565b6000819050919050565b60007fffffffff0000000000000000000000000000000000000000000000000000000082169050919050565b600073ffffffffffffffffffffffffffffffffffffffff82169050919050565b6000819050919050565b82818337600083830152505050565b60005b838110156119e75780820151818401526020810190506119cc565b838111156119f6576000848401525b50505050565b6000611a07826119b0565b91506000821415611a1b57611a1a611ad2565b5b600182039050919050565b60006002820490506001821680611a3e57607f821691505b60208210811415611a5257611a51611b01565b5b50919050565b611a6182611ba2565b810181811067ffffffffffffffff82111715611a8057611a7f611b5f565b5b80604052505050565b6000611a94826119b0565b91507fffffffffffffffffffffffffffffffffffffffffffffffffffffffffffffffff821415611ac757611ac6611ad2565b5b600182019050919050565b7f4e487b7100000000000000000000000000000000000000000000000000000000600052601160045260246000fd5b7f4e487b7100000000000000000000000000000000000000000000000000000000600052602260045260246000fd5b7f4e487b7100000000000000000000000000000000000000000000000000000000600052603260045260246000fd5b7f4e487b7100000000000000000000000000000000000000000000000000000000600052604160045260246000fd5b600080fd5b600080fd5b600080fd5b600080fd5b6000601f19601f8301169050919050565b7f537472696e67733a20686578206c656e67746820696e73756666696369656e74600082015250565b7f4f776e61626c653a206e6577206f776e657220697320746865207a65726f206160008201527f6464726573730000000000000000000000000000000000000000000000000000602082015250565b7f43616c6c6572206973206e6f7420616e20494e45432065786563757469766500600082015250565b7f4f776e61626c653a2063616c6c6572206973206e6f7420746865206f776e6572600082015250565b7f416363657373436f6e74726f6c3a206163636f756e7420000000000000000000600082015250565b7f206973206d697373696e6720726f6c6520000000000000000000000000000000600082015250565b7f416363657373436f6e74726f6c3a2063616e206f6e6c792072656e6f756e636560008201527f20726f6c657320666f722073656c660000000000000000000000000000000000602082015250565b611d278161193c565b8114611d3257600080fd5b50565b611d3e8161195a565b8114611d4957600080fd5b50565b611d5581611964565b8114611d6057600080fd5b50565b611d6c816119b0565b8114611d7757600080fd5b5056fea2646970667358221220b6218f94a6a8774a8e541dccbcd3a888ce0d3833f0008b3763b1b9145731edad64736f6c63430008070033",
					"opcodes": "PUSH1 0x80 PUSH1 0x40 MSTORE PUSH1 0x40 MLOAD DUP1 PUSH1 0x80 ADD PUSH1 0x40 MSTORE DUP1 PUSH1 0x40 MLOAD DUP1 PUSH1 0x40 ADD PUSH1 0x40 MSTORE DUP1 PUSH1 0x3 DUP2 MSTORE PUSH1 0x20 ADD PUSH32 0x4150430000000000000000000000000000000000000000000000000000000000 DUP2 MSTORE POP DUP2 MSTORE PUSH1 0x20 ADD PUSH1 0x40 MLOAD DUP1 PUSH1 0x40 ADD PUSH1 0x40 MSTORE DUP1 PUSH1 0x3 DUP2 MSTORE PUSH1 0x20 ADD PUSH32 0x5044500000000000000000000000000000000000000000000000000000000000 DUP2 MSTORE POP DUP2 MSTORE PUSH1 0x20 ADD PUSH1 0x40 MLOAD DUP1 PUSH1 0x40 ADD PUSH1 0x40 MSTORE DUP1 PUSH1 0x2 DUP2 MSTORE PUSH1 0x20 ADD PUSH32 0x4C50000000000000000000000000000000000000000000000000000000000000 DUP2 MSTORE POP DUP2 MSTORE PUSH1 0x20 ADD PUSH1 0x40 MLOAD DUP1 PUSH1 0x40 ADD PUSH1 0x40 MSTORE DUP1 PUSH1 0x4 DUP2 MSTORE PUSH1 0x20 ADD PUSH32 0x4E4E505000000000000000000000000000000000000000000000000000000000 DUP2 MSTORE POP DUP2 MSTORE POP PUSH1 0x5 SWAP1 PUSH1 0x4 PUSH3 0x10B SWAP3 SWAP2 SWAP1 PUSH3 0x393 JUMP JUMPDEST POP CALLVALUE DUP1 ISZERO PUSH3 0x119 JUMPI PUSH1 0x0 DUP1 REVERT JUMPDEST POP PUSH3 0x13A PUSH3 0x12E PUSH3 0x155 PUSH1 0x20 SHL PUSH1 0x20 SHR JUMP JUMPDEST PUSH3 0x15D PUSH1 0x20 SHL PUSH1 0x20 SHR JUMP JUMPDEST PUSH3 0x14F PUSH1 0x0 DUP1 SHL CALLER PUSH3 0x221 PUSH1 0x20 SHL PUSH1 0x20 SHR JUMP JUMPDEST PUSH3 0x57D JUMP JUMPDEST PUSH1 0x0 CALLER SWAP1 POP SWAP1 JUMP JUMPDEST PUSH1 0x0 DUP1 PUSH1 0x0 SWAP1 SLOAD SWAP1 PUSH2 0x100 EXP SWAP1 DIV PUSH20 0xFFFFFFFFFFFFFFFFFFFFFFFFFFFFFFFFFFFFFFFF AND SWAP1 POP DUP2 PUSH1 0x0 DUP1 PUSH2 0x100 EXP DUP2 SLOAD DUP2 PUSH20 0xFFFFFFFFFFFFFFFFFFFFFFFFFFFFFFFFFFFFFFFF MUL NOT AND SWAP1 DUP4 PUSH20 0xFFFFFFFFFFFFFFFFFFFFFFFFFFFFFFFFFFFFFFFF AND MUL OR SWAP1 SSTORE POP DUP2 PUSH20 0xFFFFFFFFFFFFFFFFFFFFFFFFFFFFFFFFFFFFFFFF AND DUP2 PUSH20 0xFFFFFFFFFFFFFFFFFFFFFFFFFFFFFFFFFFFFFFFF AND PUSH32 0x8BE0079C531659141344CD1FD0A4F28419497F9722A3DAAFE3B4186F6B6457E0 PUSH1 0x40 MLOAD PUSH1 0x40 MLOAD DUP1 SWAP2 SUB SWAP1 LOG3 POP POP JUMP JUMPDEST PUSH3 0x233 DUP3 DUP3 PUSH3 0x237 PUSH1 0x20 SHL PUSH1 0x20 SHR JUMP JUMPDEST POP POP JUMP JUMPDEST PUSH3 0x249 DUP3 DUP3 PUSH3 0x328 PUSH1 0x20 SHL PUSH1 0x20 SHR JUMP JUMPDEST PUSH3 0x324 JUMPI PUSH1 0x1 DUP1 PUSH1 0x0 DUP5 DUP2 MSTORE PUSH1 0x20 ADD SWAP1 DUP2 MSTORE PUSH1 0x20 ADD PUSH1 0x0 KECCAK256 PUSH1 0x0 ADD PUSH1 0x0 DUP4 PUSH20 0xFFFFFFFFFFFFFFFFFFFFFFFFFFFFFFFFFFFFFFFF AND PUSH20 0xFFFFFFFFFFFFFFFFFFFFFFFFFFFFFFFFFFFFFFFF AND DUP2 MSTORE PUSH1 0x20 ADD SWAP1 DUP2 MSTORE PUSH1 0x20 ADD PUSH1 0x0 KECCAK256 PUSH1 0x0 PUSH2 0x100 EXP DUP2 SLOAD DUP2 PUSH1 0xFF MUL NOT AND SWAP1 DUP4 ISZERO ISZERO MUL OR SWAP1 SSTORE POP PUSH3 0x2C9 PUSH3 0x155 PUSH1 0x20 SHL PUSH1 0x20 SHR JUMP JUMPDEST PUSH20 0xFFFFFFFFFFFFFFFFFFFFFFFFFFFFFFFFFFFFFFFF AND DUP2 PUSH20 0xFFFFFFFFFFFFFFFFFFFFFFFFFFFFFFFFFFFFFFFF AND DUP4 PUSH32 0x2F8788117E7EFF1D82E926EC794901D17C78024A50270940304540A733656F0D PUSH1 0x40 MLOAD PUSH1 0x40 MLOAD DUP1 SWAP2 SUB SWAP1 LOG4 JUMPDEST POP POP JUMP JUMPDEST PUSH1 0x0 PUSH1 0x1 PUSH1 0x0 DUP5 DUP2 MSTORE PUSH1 0x20 ADD SWAP1 DUP2 MSTORE PUSH1 0x20 ADD PUSH1 0x0 KECCAK256 PUSH1 0x0 ADD PUSH1 0x0 DUP4 PUSH20 0xFFFFFFFFFFFFFFFFFFFFFFFFFFFFFFFFFFFFFFFF AND PUSH20 0xFFFFFFFFFFFFFFFFFFFFFFFFFFFFFFFFFFFFFFFF AND DUP2 MSTORE PUSH1 0x20 ADD SWAP1 DUP2 MSTORE PUSH1 0x20 ADD PUSH1 0x0 KECCAK256 PUSH1 0x0 SWAP1 SLOAD SWAP1 PUSH2 0x100 EXP SWAP1 DIV PUSH1 0xFF AND SWAP1 POP SWAP3 SWAP2 POP POP JUMP JUMPDEST DUP3 DUP1 SLOAD DUP3 DUP3 SSTORE SWAP1 PUSH1 0x0 MSTORE PUSH1 0x20 PUSH1 0x0 KECCAK256 SWAP1 DUP2 ADD SWAP3 DUP3 ISZERO PUSH3 0x3E7 JUMPI SWAP2 PUSH1 0x20 MUL DUP3 ADD JUMPDEST DUP3 DUP2 GT ISZERO PUSH3 0x3E6 JUMPI DUP3 MLOAD DUP3 SWAP1 DUP1 MLOAD SWAP1 PUSH1 0x20 ADD SWAP1 PUSH3 0x3D5 SWAP3 SWAP2 SWAP1 PUSH3 0x3FA JUMP JUMPDEST POP SWAP2 PUSH1 0x20 ADD SWAP2 SWAP1 PUSH1 0x1 ADD SWAP1 PUSH3 0x3B4 JUMP JUMPDEST JUMPDEST POP SWAP1 POP PUSH3 0x3F6 SWAP2 SWAP1 PUSH3 0x48B JUMP JUMPDEST POP SWAP1 JUMP JUMPDEST DUP3 DUP1 SLOAD PUSH3 0x408 SWAP1 PUSH3 0x518 JUMP JUMPDEST SWAP1 PUSH1 0x0 MSTORE PUSH1 0x20 PUSH1 0x0 KECCAK256 SWAP1 PUSH1 0x1F ADD PUSH1 0x20 SWAP1 DIV DUP2 ADD SWAP3 DUP3 PUSH3 0x42C JUMPI PUSH1 0x0 DUP6 SSTORE PUSH3 0x478 JUMP JUMPDEST DUP3 PUSH1 0x1F LT PUSH3 0x447 JUMPI DUP1 MLOAD PUSH1 0xFF NOT AND DUP4 DUP1 ADD OR DUP6 SSTORE PUSH3 0x478 JUMP JUMPDEST DUP3 DUP1 ADD PUSH1 0x1 ADD DUP6 SSTORE DUP3 ISZERO PUSH3 0x478 JUMPI SWAP2 DUP3 ADD JUMPDEST DUP3 DUP2 GT ISZERO PUSH3 0x477 JUMPI DUP3 MLOAD DUP3 SSTORE SWAP2 PUSH1 0x20 ADD SWAP2 SWAP1 PUSH1 0x1 ADD SWAP1 PUSH3 0x45A JUMP JUMPDEST JUMPDEST POP SWAP1 POP PUSH3 0x487 SWAP2 SWAP1 PUSH3 0x4B3 JUMP JUMPDEST POP SWAP1 JUMP JUMPDEST JUMPDEST DUP1 DUP3 GT ISZERO PUSH3 0x4AF JUMPI PUSH1 0x0 DUP2 DUP2 PUSH3 0x4A5 SWAP2 SWAP1 PUSH3 0x4D2 JUMP JUMPDEST POP PUSH1 0x1 ADD PUSH3 0x48C JUMP JUMPDEST POP SWAP1 JUMP JUMPDEST JUMPDEST DUP1 DUP3 GT ISZERO PUSH3 0x4CE JUMPI PUSH1 0x0 DUP2 PUSH1 0x0 SWAP1 SSTORE POP PUSH1 0x1 ADD PUSH3 0x4B4 JUMP JUMPDEST POP SWAP1 JUMP JUMPDEST POP DUP1 SLOAD PUSH3 0x4E0 SWAP1 PUSH3 0x518 JUMP JUMPDEST PUSH1 0x0 DUP3 SSTORE DUP1 PUSH1 0x1F LT PUSH3 0x4F4 JUMPI POP PUSH3 0x515 JUMP JUMPDEST PUSH1 0x1F ADD PUSH1 0x20 SWAP1 DIV SWAP1 PUSH1 0x0 MSTORE PUSH1 0x20 PUSH1 0x0 KECCAK256 SWAP1 DUP2 ADD SWAP1 PUSH3 0x514 SWAP2 SWAP1 PUSH3 0x4B3 JUMP JUMPDEST JUMPDEST POP JUMP JUMPDEST PUSH1 0x0 PUSH1 0x2 DUP3 DIV SWAP1 POP PUSH1 0x1 DUP3 AND DUP1 PUSH3 0x531 JUMPI PUSH1 0x7F DUP3 AND SWAP2 POP JUMPDEST PUSH1 0x20 DUP3 LT DUP2 EQ ISZERO PUSH3 0x548 JUMPI PUSH3 0x547 PUSH3 0x54E JUMP JUMPDEST JUMPDEST POP SWAP2 SWAP1 POP JUMP JUMPDEST PUSH32 0x4E487B7100000000000000000000000000000000000000000000000000000000 PUSH1 0x0 MSTORE PUSH1 0x22 PUSH1 0x4 MSTORE PUSH1 0x24 PUSH1 0x0 REVERT JUMPDEST PUSH2 0x1DB0 DUP1 PUSH3 0x58D PUSH1 0x0 CODECOPY PUSH1 0x0 RETURN INVALID PUSH1 0x80 PUSH1 0x40 MSTORE CALLVALUE DUP1 ISZERO PUSH2 0x10 JUMPI PUSH1 0x0 DUP1 REVERT JUMPDEST POP PUSH1 0x4 CALLDATASIZE LT PUSH2 0x100 JUMPI PUSH1 0x0 CALLDATALOAD PUSH1 0xE0 SHR DUP1 PUSH4 0x91D14854 GT PUSH2 0x97 JUMPI DUP1 PUSH4 0xD59D2A58 GT PUSH2 0x66 JUMPI DUP1 PUSH4 0xD59D2A58 EQ PUSH2 0x2AD JUMPI DUP1 PUSH4 0xDFD8459E EQ PUSH2 0x2C9 JUMPI DUP1 PUSH4 0xEF49F4AA EQ PUSH2 0x2E5 JUMPI DUP1 PUSH4 0xF2FDE38B EQ PUSH2 0x301 JUMPI PUSH2 0x100 JUMP JUMPDEST DUP1 PUSH4 0x91D14854 EQ PUSH2 0x213 JUMPI DUP1 PUSH4 0x9E5F0349 EQ PUSH2 0x243 JUMPI DUP1 PUSH4 0xA217FDDF EQ PUSH2 0x273 JUMPI DUP1 PUSH4 0xD547741F EQ PUSH2 0x291 JUMPI PUSH2 0x100 JUMP JUMPDEST DUP1 PUSH4 0x314FD68F GT PUSH2 0xD3 JUMPI DUP1 PUSH4 0x314FD68F EQ PUSH2 0x19F JUMPI DUP1 PUSH4 0x36568ABE EQ PUSH2 0x1CF JUMPI DUP1 PUSH4 0x715018A6 EQ PUSH2 0x1EB JUMPI DUP1 PUSH4 0x8DA5CB5B EQ PUSH2 0x1F5 JUMPI PUSH2 0x100 JUMP JUMPDEST DUP1 PUSH4 0x1FFC9A7 EQ PUSH2 0x105 JUMPI DUP1 PUSH4 0x248A9CA3 EQ PUSH2 0x135 JUMPI DUP1 PUSH4 0x2E0D37BB EQ PUSH2 0x165 JUMPI DUP1 PUSH4 0x2F2FF15D EQ PUSH2 0x183 JUMPI JUMPDEST PUSH1 0x0 DUP1 REVERT JUMPDEST PUSH2 0x11F PUSH1 0x4 DUP1 CALLDATASIZE SUB DUP2 ADD SWAP1 PUSH2 0x11A SWAP2 SWAP1 PUSH2 0x139B JUMP JUMPDEST PUSH2 0x31D JUMP JUMPDEST PUSH1 0x40 MLOAD PUSH2 0x12C SWAP2 SWAP1 PUSH2 0x16E4 JUMP JUMPDEST PUSH1 0x40 MLOAD DUP1 SWAP2 SUB SWAP1 RETURN JUMPDEST PUSH2 0x14F PUSH1 0x4 DUP1 CALLDATASIZE SUB DUP2 ADD SWAP1 PUSH2 0x14A SWAP2 SWAP1 PUSH2 0x132E JUMP JUMPDEST PUSH2 0x397 JUMP JUMPDEST PUSH1 0x40 MLOAD PUSH2 0x15C SWAP2 SWAP1 PUSH2 0x16FF JUMP JUMPDEST PUSH1 0x40 MLOAD DUP1 SWAP2 SUB SWAP1 RETURN JUMPDEST PUSH2 0x16D PUSH2 0x3B7 JUMP JUMPDEST PUSH1 0x40 MLOAD PUSH2 0x17A SWAP2 SWAP1 PUSH2 0x16FF JUMP JUMPDEST PUSH1 0x40 MLOAD DUP1 SWAP2 SUB SWAP1 RETURN JUMPDEST PUSH2 0x19D PUSH1 0x4 DUP1 CALLDATASIZE SUB DUP2 ADD SWAP1 PUSH2 0x198 SWAP2 SWAP1 PUSH2 0x135B JUMP JUMPDEST PUSH2 0x3DB JUMP JUMPDEST STOP JUMPDEST PUSH2 0x1B9 PUSH1 0x4 DUP1 CALLDATASIZE SUB DUP2 ADD SWAP1 PUSH2 0x1B4 SWAP2 SWAP1 PUSH2 0x1437 JUMP JUMPDEST PUSH2 0x3FC JUMP JUMPDEST PUSH1 0x40 MLOAD PUSH2 0x1C6 SWAP2 SWAP1 PUSH2 0x171A JUMP JUMPDEST PUSH1 0x40 MLOAD DUP1 SWAP2 SUB SWAP1 RETURN JUMPDEST PUSH2 0x1E9 PUSH1 0x4 DUP1 CALLDATASIZE SUB DUP2 ADD SWAP1 PUSH2 0x1E4 SWAP2 SWAP1 PUSH2 0x135B JUMP JUMPDEST PUSH2 0x4A8 JUMP JUMPDEST STOP JUMPDEST PUSH2 0x1F3 PUSH2 0x52B JUMP JUMPDEST STOP JUMPDEST PUSH2 0x1FD PUSH2 0x53F JUMP JUMPDEST PUSH1 0x40 MLOAD PUSH2 0x20A SWAP2 SWAP1 PUSH2 0x16C9 JUMP JUMPDEST PUSH1 0x40 MLOAD DUP1 SWAP2 SUB SWAP1 RETURN JUMPDEST PUSH2 0x22D PUSH1 0x4 DUP1 CALLDATASIZE SUB DUP2 ADD SWAP1 PUSH2 0x228 SWAP2 SWAP1 PUSH2 0x135B JUMP JUMPDEST PUSH2 0x568 JUMP JUMPDEST PUSH1 0x40 MLOAD PUSH2 0x23A SWAP2 SWAP1 PUSH2 0x16E4 JUMP JUMPDEST PUSH1 0x40 MLOAD DUP1 SWAP2 SUB SWAP1 RETURN JUMPDEST PUSH2 0x25D PUSH1 0x4 DUP1 CALLDATASIZE SUB DUP2 ADD SWAP1 PUSH2 0x258 SWAP2 SWAP1 PUSH2 0x1437 JUMP JUMPDEST PUSH2 0x5D3 JUMP JUMPDEST PUSH1 0x40 MLOAD PUSH2 0x26A SWAP2 SWAP1 PUSH2 0x17DC JUMP JUMPDEST PUSH1 0x40 MLOAD DUP1 SWAP2 SUB SWAP1 RETURN JUMPDEST PUSH2 0x27B PUSH2 0x77A JUMP JUMPDEST PUSH1 0x40 MLOAD PUSH2 0x288 SWAP2 SWAP1 PUSH2 0x16FF JUMP JUMPDEST PUSH1 0x40 MLOAD DUP1 SWAP2 SUB SWAP1 RETURN JUMPDEST PUSH2 0x2AB PUSH1 0x4 DUP1 CALLDATASIZE SUB DUP2 ADD SWAP1 PUSH2 0x2A6 SWAP2 SWAP1 PUSH2 0x135B JUMP JUMPDEST PUSH2 0x781 JUMP JUMPDEST STOP JUMPDEST PUSH2 0x2C7 PUSH1 0x4 DUP1 CALLDATASIZE SUB DUP2 ADD SWAP1 PUSH2 0x2C2 SWAP2 SWAP1 PUSH2 0x13C8 JUMP JUMPDEST PUSH2 0x7A2 JUMP JUMPDEST STOP JUMPDEST PUSH2 0x2E3 PUSH1 0x4 DUP1 CALLDATASIZE SUB DUP2 ADD SWAP1 PUSH2 0x2DE SWAP2 SWAP1 PUSH2 0x12C1 JUMP JUMPDEST PUSH2 0x8FA JUMP JUMPDEST STOP JUMPDEST PUSH2 0x2FF PUSH1 0x4 DUP1 CALLDATASIZE SUB DUP2 ADD SWAP1 PUSH2 0x2FA SWAP2 SWAP1 PUSH2 0x12EE JUMP JUMPDEST PUSH2 0x92F JUMP JUMPDEST STOP JUMPDEST PUSH2 0x31B PUSH1 0x4 DUP1 CALLDATASIZE SUB DUP2 ADD SWAP1 PUSH2 0x316 SWAP2 SWAP1 PUSH2 0x12C1 JUMP JUMPDEST PUSH2 0x9AF JUMP JUMPDEST STOP JUMPDEST PUSH1 0x0 PUSH32 0x7965DB0B00000000000000000000000000000000000000000000000000000000 PUSH28 0xFFFFFFFFFFFFFFFFFFFFFFFFFFFFFFFFFFFFFFFFFFFFFFFFFFFFFFFF NOT AND DUP3 PUSH28 0xFFFFFFFFFFFFFFFFFFFFFFFFFFFFFFFFFFFFFFFFFFFFFFFFFFFFFFFF NOT AND EQ DUP1 PUSH2 0x390 JUMPI POP PUSH2 0x38F DUP3 PUSH2 0xA33 JUMP JUMPDEST JUMPDEST SWAP1 POP SWAP2 SWAP1 POP JUMP JUMPDEST PUSH1 0x0 PUSH1 0x1 PUSH1 0x0 DUP4 DUP2 MSTORE PUSH1 0x20 ADD SWAP1 DUP2 MSTORE PUSH1 0x20 ADD PUSH1 0x0 KECCAK256 PUSH1 0x1 ADD SLOAD SWAP1 POP SWAP2 SWAP1 POP JUMP JUMPDEST PUSH32 0x82F6ED76E0352438E6A6E35C77719C3F04BF277FDC8FEC7E5FF5F65E001D902 DUP2 JUMP JUMPDEST PUSH2 0x3E4 DUP3 PUSH2 0x397 JUMP JUMPDEST PUSH2 0x3ED DUP2 PUSH2 0xA9D JUMP JUMPDEST PUSH2 0x3F7 DUP4 DUP4 PUSH2 0xAB1 JUMP JUMPDEST POP POP POP JUMP JUMPDEST PUSH1 0x5 DUP2 DUP2 SLOAD DUP2 LT PUSH2 0x40C JUMPI PUSH1 0x0 DUP1 REVERT JUMPDEST SWAP1 PUSH1 0x0 MSTORE PUSH1 0x20 PUSH1 0x0 KECCAK256 ADD PUSH1 0x0 SWAP2 POP SWAP1 POP DUP1 SLOAD PUSH2 0x427 SWAP1 PUSH2 0x1A26 JUMP JUMPDEST DUP1 PUSH1 0x1F ADD PUSH1 0x20 DUP1 SWAP2 DIV MUL PUSH1 0x20 ADD PUSH1 0x40 MLOAD SWAP1 DUP2 ADD PUSH1 0x40 MSTORE DUP1 SWAP3 SWAP2 SWAP1 DUP2 DUP2 MSTORE PUSH1 0x20 ADD DUP3 DUP1 SLOAD PUSH2 0x453 SWAP1 PUSH2 0x1A26 JUMP JUMPDEST DUP1 ISZERO PUSH2 0x4A0 JUMPI DUP1 PUSH1 0x1F LT PUSH2 0x475 JUMPI PUSH2 0x100 DUP1 DUP4 SLOAD DIV MUL DUP4 MSTORE SWAP2 PUSH1 0x20 ADD SWAP2 PUSH2 0x4A0 JUMP JUMPDEST DUP3 ADD SWAP2 SWAP1 PUSH1 0x0 MSTORE PUSH1 0x20 PUSH1 0x0 KECCAK256 SWAP1 JUMPDEST DUP2 SLOAD DUP2 MSTORE SWAP1 PUSH1 0x1 ADD SWAP1 PUSH1 0x20 ADD DUP1 DUP4 GT PUSH2 0x483 JUMPI DUP3 SWAP1 SUB PUSH1 0x1F AND DUP3 ADD SWAP2 JUMPDEST POP POP POP POP POP DUP2 JUMP JUMPDEST PUSH2 0x4B0 PUSH2 0xB91 JUMP JUMPDEST PUSH20 0xFFFFFFFFFFFFFFFFFFFFFFFFFFFFFFFFFFFFFFFF AND DUP2 PUSH20 0xFFFFFFFFFFFFFFFFFFFFFFFFFFFFFFFFFFFFFFFF AND EQ PUSH2 0x51D JUMPI PUSH1 0x40 MLOAD PUSH32 0x8C379A000000000000000000000000000000000000000000000000000000000 DUP2 MSTORE PUSH1 0x4 ADD PUSH2 0x514 SWAP1 PUSH2 0x17BC JUMP JUMPDEST PUSH1 0x40 MLOAD DUP1 SWAP2 SUB SWAP1 REVERT JUMPDEST PUSH2 0x527 DUP3 DUP3 PUSH2 0xB99 JUMP JUMPDEST POP POP JUMP JUMPDEST PUSH2 0x533 PUSH2 0xC7B JUMP JUMPDEST PUSH2 0x53D PUSH1 0x0 PUSH2 0xCF9 JUMP JUMPDEST JUMP JUMPDEST PUSH1 0x0 DUP1 PUSH1 0x0 SWAP1 SLOAD SWAP1 PUSH2 0x100 EXP SWAP1 DIV PUSH20 0xFFFFFFFFFFFFFFFFFFFFFFFFFFFFFFFFFFFFFFFF AND SWAP1 POP SWAP1 JUMP JUMPDEST PUSH1 0x0 PUSH1 0x1 PUSH1 0x0 DUP5 DUP2 MSTORE PUSH1 0x20 ADD SWAP1 DUP2 MSTORE PUSH1 0x20 ADD PUSH1 0x0 KECCAK256 PUSH1 0x0 ADD PUSH1 0x0 DUP4 PUSH20 0xFFFFFFFFFFFFFFFFFFFFFFFFFFFFFFFFFFFFFFFF AND PUSH20 0xFFFFFFFFFFFFFFFFFFFFFFFFFFFFFFFFFFFFFFFF AND DUP2 MSTORE PUSH1 0x20 ADD SWAP1 DUP2 MSTORE PUSH1 0x20 ADD PUSH1 0x0 KECCAK256 PUSH1 0x0 SWAP1 SLOAD SWAP1 PUSH2 0x100 EXP SWAP1 DIV PUSH1 0xFF AND SWAP1 POP SWAP3 SWAP2 POP POP JUMP JUMPDEST PUSH2 0x5DB PUSH2 0x1096 JUMP JUMPDEST PUSH1 0x6 PUSH1 0x0 DUP4 DUP2 MSTORE PUSH1 0x20 ADD SWAP1 DUP2 MSTORE PUSH1 0x20 ADD PUSH1 0x0 KECCAK256 PUSH1 0x40 MLOAD DUP1 PUSH1 0x60 ADD PUSH1 0x40 MSTORE SWAP1 DUP2 PUSH1 0x0 DUP3 ADD DUP1 SLOAD PUSH2 0x609 SWAP1 PUSH2 0x1A26 JUMP JUMPDEST DUP1 PUSH1 0x1F ADD PUSH1 0x20 DUP1 SWAP2 DIV MUL PUSH1 0x20 ADD PUSH1 0x40 MLOAD SWAP1 DUP2 ADD PUSH1 0x40 MSTORE DUP1 SWAP3 SWAP2 SWAP1 DUP2 DUP2 MSTORE PUSH1 0x20 ADD DUP3 DUP1 SLOAD PUSH2 0x635 SWAP1 PUSH2 0x1A26 JUMP JUMPDEST DUP1 ISZERO PUSH2 0x682 JUMPI DUP1 PUSH1 0x1F LT PUSH2 0x657 JUMPI PUSH2 0x100 DUP1 DUP4 SLOAD DIV MUL DUP4 MSTORE SWAP2 PUSH1 0x20 ADD SWAP2 PUSH2 0x682 JUMP JUMPDEST DUP3 ADD SWAP2 SWAP1 PUSH1 0x0 MSTORE PUSH1 0x20 PUSH1 0x0 KECCAK256 SWAP1 JUMPDEST DUP2 SLOAD DUP2 MSTORE SWAP1 PUSH1 0x1 ADD SWAP1 PUSH1 0x20 ADD DUP1 DUP4 GT PUSH2 0x665 JUMPI DUP3 SWAP1 SUB PUSH1 0x1F AND DUP3 ADD SWAP2 JUMPDEST POP POP POP POP POP DUP2 MSTORE PUSH1 0x20 ADD PUSH1 0x1 DUP3 ADD PUSH1 0x0 SWAP1 SLOAD SWAP1 PUSH2 0x100 EXP SWAP1 DIV PUSH20 0xFFFFFFFFFFFFFFFFFFFFFFFFFFFFFFFFFFFFFFFF AND PUSH20 0xFFFFFFFFFFFFFFFFFFFFFFFFFFFFFFFFFFFFFFFF AND PUSH20 0xFFFFFFFFFFFFFFFFFFFFFFFFFFFFFFFFFFFFFFFF AND DUP2 MSTORE PUSH1 0x20 ADD PUSH1 0x2 DUP3 ADD DUP1 SLOAD PUSH2 0x6F1 SWAP1 PUSH2 0x1A26 JUMP JUMPDEST DUP1 PUSH1 0x1F ADD PUSH1 0x20 DUP1 SWAP2 DIV MUL PUSH1 0x20 ADD PUSH1 0x40 MLOAD SWAP1 DUP2 ADD PUSH1 0x40 MSTORE DUP1 SWAP3 SWAP2 SWAP1 DUP2 DUP2 MSTORE PUSH1 0x20 ADD DUP3 DUP1 SLOAD PUSH2 0x71D SWAP1 PUSH2 0x1A26 JUMP JUMPDEST DUP1 ISZERO PUSH2 0x76A JUMPI DUP1 PUSH1 0x1F LT PUSH2 0x73F JUMPI PUSH2 0x100 DUP1 DUP4 SLOAD DIV MUL DUP4 MSTORE SWAP2 PUSH1 0x20 ADD SWAP2 PUSH2 0x76A JUMP JUMPDEST DUP3 ADD SWAP2 SWAP1 PUSH1 0x0 MSTORE PUSH1 0x20 PUSH1 0x0 KECCAK256 SWAP1 JUMPDEST DUP2 SLOAD DUP2 MSTORE SWAP1 PUSH1 0x1 ADD SWAP1 PUSH1 0x20 ADD DUP1 DUP4 GT PUSH2 0x74D JUMPI DUP3 SWAP1 SUB PUSH1 0x1F AND DUP3 ADD SWAP2 JUMPDEST POP POP POP POP POP DUP2 MSTORE POP POP SWAP1 POP SWAP2 SWAP1 POP JUMP JUMPDEST PUSH1 0x0 DUP1 SHL DUP2 JUMP JUMPDEST PUSH2 0x78A DUP3 PUSH2 0x397 JUMP JUMPDEST PUSH2 0x793 DUP2 PUSH2 0xA9D JUMP JUMPDEST PUSH2 0x79D DUP4 DUP4 PUSH2 0xB99 JUMP JUMPDEST POP POP POP JUMP JUMPDEST PUSH2 0x7CC PUSH32 0x82F6ED76E0352438E6A6E35C77719C3F04BF277FDC8FEC7E5FF5F65E001D902 CALLER PUSH2 0x568 JUMP JUMPDEST PUSH2 0x80B JUMPI PUSH1 0x40 MLOAD PUSH32 0x8C379A000000000000000000000000000000000000000000000000000000000 DUP2 MSTORE PUSH1 0x4 ADD PUSH2 0x802 SWAP1 PUSH2 0x177C JUMP JUMPDEST PUSH1 0x40 MLOAD DUP1 SWAP2 SUB SWAP1 REVERT JUMPDEST DUP3 PUSH1 0x6 PUSH1 0x0 PUSH1 0x3 SLOAD DUP2 MSTORE PUSH1 0x20 ADD SWAP1 DUP2 MSTORE PUSH1 0x20 ADD PUSH1 0x0 KECCAK256 PUSH1 0x0 ADD SWAP1 DUP1 MLOAD SWAP1 PUSH1 0x20 ADD SWAP1 PUSH2 0x837 SWAP3 SWAP2 SWAP1 PUSH2 0x10CD JUMP JUMPDEST POP DUP2 PUSH1 0x6 PUSH1 0x0 PUSH1 0x3 SLOAD DUP2 MSTORE PUSH1 0x20 ADD SWAP1 DUP2 MSTORE PUSH1 0x20 ADD PUSH1 0x0 KECCAK256 PUSH1 0x1 ADD PUSH1 0x0 PUSH2 0x100 EXP DUP2 SLOAD DUP2 PUSH20 0xFFFFFFFFFFFFFFFFFFFFFFFFFFFFFFFFFFFFFFFF MUL NOT AND SWAP1 DUP4 PUSH20 0xFFFFFFFFFFFFFFFFFFFFFFFFFFFFFFFFFFFFFFFF AND MUL OR SWAP1 SSTORE POP PUSH1 0x5 DUP2 DUP2 SLOAD DUP2 LT PUSH2 0x8A3 JUMPI PUSH2 0x8A2 PUSH2 0x1B30 JUMP JUMPDEST JUMPDEST SWAP1 PUSH1 0x0 MSTORE PUSH1 0x20 PUSH1 0x0 KECCAK256 ADD PUSH1 0x6 PUSH1 0x0 PUSH1 0x3 SLOAD DUP2 MSTORE PUSH1 0x20 ADD SWAP1 DUP2 MSTORE PUSH1 0x20 ADD PUSH1 0x0 KECCAK256 PUSH1 0x2 ADD SWAP1 DUP1 SLOAD PUSH2 0x8D1 SWAP1 PUSH2 0x1A26 JUMP JUMPDEST PUSH2 0x8DC SWAP3 SWAP2 SWAP1 PUSH2 0x1153 JUMP JUMPDEST POP PUSH1 0x3 PUSH1 0x0 DUP2 SLOAD DUP1 SWAP3 SWAP2 SWAP1 PUSH2 0x8F0 SWAP1 PUSH2 0x1A89 JUMP JUMPDEST SWAP2 SWAP1 POP SSTORE POP POP POP POP JUMP JUMPDEST PUSH2 0x902 PUSH2 0xC7B JUMP JUMPDEST PUSH2 0x92C PUSH32 0x82F6ED76E0352438E6A6E35C77719C3F04BF277FDC8FEC7E5FF5F65E001D902 DUP3 PUSH2 0x3DB JUMP JUMPDEST POP JUMP JUMPDEST PUSH2 0x937 PUSH2 0xC7B JUMP JUMPDEST DUP2 PUSH1 0x7 PUSH1 0x0 PUSH1 0x4 SLOAD DUP2 MSTORE PUSH1 0x20 ADD SWAP1 DUP2 MSTORE PUSH1 0x20 ADD PUSH1 0x0 KECCAK256 PUSH1 0x0 ADD PUSH1 0x0 PUSH2 0x100 EXP DUP2 SLOAD DUP2 PUSH20 0xFFFFFFFFFFFFFFFFFFFFFFFFFFFFFFFFFFFFFFFF MUL NOT AND SWAP1 DUP4 PUSH20 0xFFFFFFFFFFFFFFFFFFFFFFFFFFFFFFFFFFFFFFFF AND MUL OR SWAP1 SSTORE POP DUP1 PUSH1 0x7 PUSH1 0x0 PUSH1 0x4 SLOAD DUP2 MSTORE PUSH1 0x20 ADD SWAP1 DUP2 MSTORE PUSH1 0x20 ADD PUSH1 0x0 KECCAK256 PUSH1 0x1 ADD DUP2 SWAP1 SSTORE POP POP POP JUMP JUMPDEST PUSH2 0x9B7 PUSH2 0xC7B JUMP JUMPDEST PUSH1 0x0 PUSH20 0xFFFFFFFFFFFFFFFFFFFFFFFFFFFFFFFFFFFFFFFF AND DUP2 PUSH20 0xFFFFFFFFFFFFFFFFFFFFFFFFFFFFFFFFFFFFFFFF AND EQ ISZERO PUSH2 0xA27 JUMPI PUSH1 0x40 MLOAD PUSH32 0x8C379A000000000000000000000000000000000000000000000000000000000 DUP2 MSTORE PUSH1 0x4 ADD PUSH2 0xA1E SWAP1 PUSH2 0x175C JUMP JUMPDEST PUSH1 0x40 MLOAD DUP1 SWAP2 SUB SWAP1 REVERT JUMPDEST PUSH2 0xA30 DUP2 PUSH2 0xCF9 JUMP JUMPDEST POP JUMP JUMPDEST PUSH1 0x0 PUSH32 0x1FFC9A700000000000000000000000000000000000000000000000000000000 PUSH28 0xFFFFFFFFFFFFFFFFFFFFFFFFFFFFFFFFFFFFFFFFFFFFFFFFFFFFFFFF NOT AND DUP3 PUSH28 0xFFFFFFFFFFFFFFFFFFFFFFFFFFFFFFFFFFFFFFFFFFFFFFFFFFFFFFFF NOT AND EQ SWAP1 POP SWAP2 SWAP1 POP JUMP JUMPDEST PUSH2 0xAAE DUP2 PUSH2 0xAA9 PUSH2 0xB91 JUMP JUMPDEST PUSH2 0xDBD JUMP JUMPDEST POP JUMP JUMPDEST PUSH2 0xABB DUP3 DUP3 PUSH2 0x568 JUMP JUMPDEST PUSH2 0xB8D JUMPI PUSH1 0x1 DUP1 PUSH1 0x0 DUP5 DUP2 MSTORE PUSH1 0x20 ADD SWAP1 DUP2 MSTORE PUSH1 0x20 ADD PUSH1 0x0 KECCAK256 PUSH1 0x0 ADD PUSH1 0x0 DUP4 PUSH20 0xFFFFFFFFFFFFFFFFFFFFFFFFFFFFFFFFFFFFFFFF AND PUSH20 0xFFFFFFFFFFFFFFFFFFFFFFFFFFFFFFFFFFFFFFFF AND DUP2 MSTORE PUSH1 0x20 ADD SWAP1 DUP2 MSTORE PUSH1 0x20 ADD PUSH1 0x0 KECCAK256 PUSH1 0x0 PUSH2 0x100 EXP DUP2 SLOAD DUP2 PUSH1 0xFF MUL NOT AND SWAP1 DUP4 ISZERO ISZERO MUL OR SWAP1 SSTORE POP PUSH2 0xB32 PUSH2 0xB91 JUMP JUMPDEST PUSH20 0xFFFFFFFFFFFFFFFFFFFFFFFFFFFFFFFFFFFFFFFF AND DUP2 PUSH20 0xFFFFFFFFFFFFFFFFFFFFFFFFFFFFFFFFFFFFFFFF AND DUP4 PUSH32 0x2F8788117E7EFF1D82E926EC794901D17C78024A50270940304540A733656F0D PUSH1 0x40 MLOAD PUSH1 0x40 MLOAD DUP1 SWAP2 SUB SWAP1 LOG4 JUMPDEST POP POP JUMP JUMPDEST PUSH1 0x0 CALLER SWAP1 POP SWAP1 JUMP JUMPDEST PUSH2 0xBA3 DUP3 DUP3 PUSH2 0x568 JUMP JUMPDEST ISZERO PUSH2 0xC77 JUMPI PUSH1 0x0 PUSH1 0x1 PUSH1 0x0 DUP5 DUP2 MSTORE PUSH1 0x20 ADD SWAP1 DUP2 MSTORE PUSH1 0x20 ADD PUSH1 0x0 KECCAK256 PUSH1 0x0 ADD PUSH1 0x0 DUP4 PUSH20 0xFFFFFFFFFFFFFFFFFFFFFFFFFFFFFFFFFFFFFFFF AND PUSH20 0xFFFFFFFFFFFFFFFFFFFFFFFFFFFFFFFFFFFFFFFF AND DUP2 MSTORE PUSH1 0x20 ADD SWAP1 DUP2 MSTORE PUSH1 0x20 ADD PUSH1 0x0 KECCAK256 PUSH1 0x0 PUSH2 0x100 EXP DUP2 SLOAD DUP2 PUSH1 0xFF MUL NOT AND SWAP1 DUP4 ISZERO ISZERO MUL OR SWAP1 SSTORE POP PUSH2 0xC1C PUSH2 0xB91 JUMP JUMPDEST PUSH20 0xFFFFFFFFFFFFFFFFFFFFFFFFFFFFFFFFFFFFFFFF AND DUP2 PUSH20 0xFFFFFFFFFFFFFFFFFFFFFFFFFFFFFFFFFFFFFFFF AND DUP4 PUSH32 0xF6391F5C32D9C69D2A47EA670B442974B53935D1EDC7FD64EB21E047A839171B PUSH1 0x40 MLOAD PUSH1 0x40 MLOAD DUP1 SWAP2 SUB SWAP1 LOG4 JUMPDEST POP POP JUMP JUMPDEST PUSH2 0xC83 PUSH2 0xB91 JUMP JUMPDEST PUSH20 0xFFFFFFFFFFFFFFFFFFFFFFFFFFFFFFFFFFFFFFFF AND PUSH2 0xCA1 PUSH2 0x53F JUMP JUMPDEST PUSH20 0xFFFFFFFFFFFFFFFFFFFFFFFFFFFFFFFFFFFFFFFF AND EQ PUSH2 0xCF7 JUMPI PUSH1 0x40 MLOAD PUSH32 0x8C379A000000000000000000000000000000000000000000000000000000000 DUP2 MSTORE PUSH1 0x4 ADD PUSH2 0xCEE SWAP1 PUSH2 0x179C JUMP JUMPDEST PUSH1 0x40 MLOAD DUP1 SWAP2 SUB SWAP1 REVERT JUMPDEST JUMP JUMPDEST PUSH1 0x0 DUP1 PUSH1 0x0 SWAP1 SLOAD SWAP1 PUSH2 0x100 EXP SWAP1 DIV PUSH20 0xFFFFFFFFFFFFFFFFFFFFFFFFFFFFFFFFFFFFFFFF AND SWAP1 POP DUP2 PUSH1 0x0 DUP1 PUSH2 0x100 EXP DUP2 SLOAD DUP2 PUSH20 0xFFFFFFFFFFFFFFFFFFFFFFFFFFFFFFFFFFFFFFFF MUL NOT AND SWAP1 DUP4 PUSH20 0xFFFFFFFFFFFFFFFFFFFFFFFFFFFFFFFFFFFFFFFF AND MUL OR SWAP1 SSTORE POP DUP2 PUSH20 0xFFFFFFFFFFFFFFFFFFFFFFFFFFFFFFFFFFFFFFFF AND DUP2 PUSH20 0xFFFFFFFFFFFFFFFFFFFFFFFFFFFFFFFFFFFFFFFF AND PUSH32 0x8BE0079C531659141344CD1FD0A4F28419497F9722A3DAAFE3B4186F6B6457E0 PUSH1 0x40 MLOAD PUSH1 0x40 MLOAD DUP1 SWAP2 SUB SWAP1 LOG3 POP POP JUMP JUMPDEST PUSH2 0xDC7 DUP3 DUP3 PUSH2 0x568 JUMP JUMPDEST PUSH2 0xE56 JUMPI PUSH2 0xDEC DUP2 PUSH20 0xFFFFFFFFFFFFFFFFFFFFFFFFFFFFFFFFFFFFFFFF AND PUSH1 0x14 PUSH2 0xE5A JUMP JUMPDEST PUSH2 0xDFA DUP4 PUSH1 0x0 SHR PUSH1 0x20 PUSH2 0xE5A JUMP JUMPDEST PUSH1 0x40 MLOAD PUSH1 0x20 ADD PUSH2 0xE0B SWAP3 SWAP2 SWAP1 PUSH2 0x168F JUMP JUMPDEST PUSH1 0x40 MLOAD PUSH1 0x20 DUP2 DUP4 SUB SUB DUP2 MSTORE SWAP1 PUSH1 0x40 MSTORE PUSH1 0x40 MLOAD PUSH32 0x8C379A000000000000000000000000000000000000000000000000000000000 DUP2 MSTORE PUSH1 0x4 ADD PUSH2 0xE4D SWAP2 SWAP1 PUSH2 0x171A JUMP JUMPDEST PUSH1 0x40 MLOAD DUP1 SWAP2 SUB SWAP1 REVERT JUMPDEST POP POP JUMP JUMPDEST PUSH1 0x60 PUSH1 0x0 PUSH1 0x2 DUP4 PUSH1 0x2 PUSH2 0xE6D SWAP2 SWAP1 PUSH2 0x18E2 JUMP JUMPDEST PUSH2 0xE77 SWAP2 SWAP1 PUSH2 0x188C JUMP JUMPDEST PUSH8 0xFFFFFFFFFFFFFFFF DUP2 GT ISZERO PUSH2 0xE90 JUMPI PUSH2 0xE8F PUSH2 0x1B5F JUMP JUMPDEST JUMPDEST PUSH1 0x40 MLOAD SWAP1 DUP1 DUP3 MSTORE DUP1 PUSH1 0x1F ADD PUSH1 0x1F NOT AND PUSH1 0x20 ADD DUP3 ADD PUSH1 0x40 MSTORE DUP1 ISZERO PUSH2 0xEC2 JUMPI DUP2 PUSH1 0x20 ADD PUSH1 0x1 DUP3 MUL DUP1 CALLDATASIZE DUP4 CALLDATACOPY DUP1 DUP3 ADD SWAP2 POP POP SWAP1 POP JUMPDEST POP SWAP1 POP PUSH32 0x3000000000000000000000000000000000000000000000000000000000000000 DUP2 PUSH1 0x0 DUP2 MLOAD DUP2 LT PUSH2 0xEFA JUMPI PUSH2 0xEF9 PUSH2 0x1B30 JUMP JUMPDEST JUMPDEST PUSH1 0x20 ADD ADD SWAP1 PUSH31 0xFFFFFFFFFFFFFFFFFFFFFFFFFFFFFFFFFFFFFFFFFFFFFFFFFFFFFFFFFFFFFF NOT AND SWAP1 DUP2 PUSH1 0x0 BYTE SWAP1 MSTORE8 POP PUSH32 0x7800000000000000000000000000000000000000000000000000000000000000 DUP2 PUSH1 0x1 DUP2 MLOAD DUP2 LT PUSH2 0xF5E JUMPI PUSH2 0xF5D PUSH2 0x1B30 JUMP JUMPDEST JUMPDEST PUSH1 0x20 ADD ADD SWAP1 PUSH31 0xFFFFFFFFFFFFFFFFFFFFFFFFFFFFFFFFFFFFFFFFFFFFFFFFFFFFFFFFFFFFFF NOT AND SWAP1 DUP2 PUSH1 0x0 BYTE SWAP1 MSTORE8 POP PUSH1 0x0 PUSH1 0x1 DUP5 PUSH1 0x2 PUSH2 0xF9E SWAP2 SWAP1 PUSH2 0x18E2 JUMP JUMPDEST PUSH2 0xFA8 SWAP2 SWAP1 PUSH2 0x188C JUMP JUMPDEST SWAP1 POP JUMPDEST PUSH1 0x1 DUP2 GT ISZERO PUSH2 0x1048 JUMPI PUSH32 0x3031323334353637383961626364656600000000000000000000000000000000 PUSH1 0xF DUP7 AND PUSH1 0x10 DUP2 LT PUSH2 0xFEA JUMPI PUSH2 0xFE9 PUSH2 0x1B30 JUMP JUMPDEST JUMPDEST BYTE PUSH1 0xF8 SHL DUP3 DUP3 DUP2 MLOAD DUP2 LT PUSH2 0x1001 JUMPI PUSH2 0x1000 PUSH2 0x1B30 JUMP JUMPDEST JUMPDEST PUSH1 0x20 ADD ADD SWAP1 PUSH31 0xFFFFFFFFFFFFFFFFFFFFFFFFFFFFFFFFFFFFFFFFFFFFFFFFFFFFFFFFFFFFFF NOT AND SWAP1 DUP2 PUSH1 0x0 BYTE SWAP1 MSTORE8 POP PUSH1 0x4 DUP6 SWAP1 SHR SWAP5 POP DUP1 PUSH2 0x1041 SWAP1 PUSH2 0x19FC JUMP JUMPDEST SWAP1 POP PUSH2 0xFAB JUMP JUMPDEST POP PUSH1 0x0 DUP5 EQ PUSH2 0x108C JUMPI PUSH1 0x40 MLOAD PUSH32 0x8C379A000000000000000000000000000000000000000000000000000000000 DUP2 MSTORE PUSH1 0x4 ADD PUSH2 0x1083 SWAP1 PUSH2 0x173C JUMP JUMPDEST PUSH1 0x40 MLOAD DUP1 SWAP2 SUB SWAP1 REVERT JUMPDEST DUP1 SWAP2 POP POP SWAP3 SWAP2 POP POP JUMP JUMPDEST PUSH1 0x40 MLOAD DUP1 PUSH1 0x60 ADD PUSH1 0x40 MSTORE DUP1 PUSH1 0x60 DUP2 MSTORE PUSH1 0x20 ADD PUSH1 0x0 PUSH20 0xFFFFFFFFFFFFFFFFFFFFFFFFFFFFFFFFFFFFFFFF AND DUP2 MSTORE PUSH1 0x20 ADD PUSH1 0x60 DUP2 MSTORE POP SWAP1 JUMP JUMPDEST DUP3 DUP1 SLOAD PUSH2 0x10D9 SWAP1 PUSH2 0x1A26 JUMP JUMPDEST SWAP1 PUSH1 0x0 MSTORE PUSH1 0x20 PUSH1 0x0 KECCAK256 SWAP1 PUSH1 0x1F ADD PUSH1 0x20 SWAP1 DIV DUP2 ADD SWAP3 DUP3 PUSH2 0x10FB JUMPI PUSH1 0x0 DUP6 SSTORE PUSH2 0x1142 JUMP JUMPDEST DUP3 PUSH1 0x1F LT PUSH2 0x1114 JUMPI DUP1 MLOAD PUSH1 0xFF NOT AND DUP4 DUP1 ADD OR DUP6 SSTORE PUSH2 0x1142 JUMP JUMPDEST DUP3 DUP1 ADD PUSH1 0x1 ADD DUP6 SSTORE DUP3 ISZERO PUSH2 0x1142 JUMPI SWAP2 DUP3 ADD JUMPDEST DUP3 DUP2 GT ISZERO PUSH2 0x1141 JUMPI DUP3 MLOAD DUP3 SSTORE SWAP2 PUSH1 0x20 ADD SWAP2 SWAP1 PUSH1 0x1 ADD SWAP1 PUSH2 0x1126 JUMP JUMPDEST JUMPDEST POP SWAP1 POP PUSH2 0x114F SWAP2 SWAP1 PUSH2 0x11E0 JUMP JUMPDEST POP SWAP1 JUMP JUMPDEST DUP3 DUP1 SLOAD PUSH2 0x115F SWAP1 PUSH2 0x1A26 JUMP JUMPDEST SWAP1 PUSH1 0x0 MSTORE PUSH1 0x20 PUSH1 0x0 KECCAK256 SWAP1 PUSH1 0x1F ADD PUSH1 0x20 SWAP1 DIV DUP2 ADD SWAP3 DUP3 PUSH2 0x1181 JUMPI PUSH1 0x0 DUP6 SSTORE PUSH2 0x11CF JUMP JUMPDEST DUP3 PUSH1 0x1F LT PUSH2 0x1192 JUMPI DUP1 SLOAD DUP6 SSTORE PUSH2 0x11CF JUMP JUMPDEST DUP3 DUP1 ADD PUSH1 0x1 ADD DUP6 SSTORE DUP3 ISZERO PUSH2 0x11CF JUMPI PUSH1 0x0 MSTORE PUSH1 0x20 PUSH1 0x0 KECCAK256 SWAP2 PUSH1 0x1F ADD PUSH1 0x20 SWAP1 DIV DUP3 ADD JUMPDEST DUP3 DUP2 GT ISZERO PUSH2 0x11CE JUMPI DUP3 SLOAD DUP3 SSTORE SWAP2 PUSH1 0x1 ADD SWAP2 SWAP1 PUSH1 0x1 ADD SWAP1 PUSH2 0x11B3 JUMP JUMPDEST JUMPDEST POP SWAP1 POP PUSH2 0x11DC SWAP2 SWAP1 PUSH2 0x11E0 JUMP JUMPDEST POP SWAP1 JUMP JUMPDEST JUMPDEST DUP1 DUP3 GT ISZERO PUSH2 0x11F9 JUMPI PUSH1 0x0 DUP2 PUSH1 0x0 SWAP1 SSTORE POP PUSH1 0x1 ADD PUSH2 0x11E1 JUMP JUMPDEST POP SWAP1 JUMP JUMPDEST PUSH1 0x0 PUSH2 0x1210 PUSH2 0x120B DUP5 PUSH2 0x1823 JUMP JUMPDEST PUSH2 0x17FE JUMP JUMPDEST SWAP1 POP DUP3 DUP2 MSTORE PUSH1 0x20 DUP2 ADD DUP5 DUP5 DUP5 ADD GT ISZERO PUSH2 0x122C JUMPI PUSH2 0x122B PUSH2 0x1B93 JUMP JUMPDEST JUMPDEST PUSH2 0x1237 DUP5 DUP3 DUP6 PUSH2 0x19BA JUMP JUMPDEST POP SWAP4 SWAP3 POP POP POP JUMP JUMPDEST PUSH1 0x0 DUP2 CALLDATALOAD SWAP1 POP PUSH2 0x124E DUP2 PUSH2 0x1D1E JUMP JUMPDEST SWAP3 SWAP2 POP POP JUMP JUMPDEST PUSH1 0x0 DUP2 CALLDATALOAD SWAP1 POP PUSH2 0x1263 DUP2 PUSH2 0x1D35 JUMP JUMPDEST SWAP3 SWAP2 POP POP JUMP JUMPDEST PUSH1 0x0 DUP2 CALLDATALOAD SWAP1 POP PUSH2 0x1278 DUP2 PUSH2 0x1D4C JUMP JUMPDEST SWAP3 SWAP2 POP POP JUMP JUMPDEST PUSH1 0x0 DUP3 PUSH1 0x1F DUP4 ADD SLT PUSH2 0x1293 JUMPI PUSH2 0x1292 PUSH2 0x1B8E JUMP JUMPDEST JUMPDEST DUP2 CALLDATALOAD PUSH2 0x12A3 DUP5 DUP3 PUSH1 0x20 DUP7 ADD PUSH2 0x11FD JUMP JUMPDEST SWAP2 POP POP SWAP3 SWAP2 POP POP JUMP JUMPDEST PUSH1 0x0 DUP2 CALLDATALOAD SWAP1 POP PUSH2 0x12BB DUP2 PUSH2 0x1D63 JUMP JUMPDEST SWAP3 SWAP2 POP POP JUMP JUMPDEST PUSH1 0x0 PUSH1 0x20 DUP3 DUP5 SUB SLT ISZERO PUSH2 0x12D7 JUMPI PUSH2 0x12D6 PUSH2 0x1B9D JUMP JUMPDEST JUMPDEST PUSH1 0x0 PUSH2 0x12E5 DUP5 DUP3 DUP6 ADD PUSH2 0x123F JUMP JUMPDEST SWAP2 POP POP SWAP3 SWAP2 POP POP JUMP JUMPDEST PUSH1 0x0 DUP1 PUSH1 0x40 DUP4 DUP6 SUB SLT ISZERO PUSH2 0x1305 JUMPI PUSH2 0x1304 PUSH2 0x1B9D JUMP JUMPDEST JUMPDEST PUSH1 0x0 PUSH2 0x1313 DUP6 DUP3 DUP7 ADD PUSH2 0x123F JUMP JUMPDEST SWAP3 POP POP PUSH1 0x20 PUSH2 0x1324 DUP6 DUP3 DUP7 ADD PUSH2 0x12AC JUMP JUMPDEST SWAP2 POP POP SWAP3 POP SWAP3 SWAP1 POP JUMP JUMPDEST PUSH1 0x0 PUSH1 0x20 DUP3 DUP5 SUB SLT ISZERO PUSH2 0x1344 JUMPI PUSH2 0x1343 PUSH2 0x1B9D JUMP JUMPDEST JUMPDEST PUSH1 0x0 PUSH2 0x1352 DUP5 DUP3 DUP6 ADD PUSH2 0x1254 JUMP JUMPDEST SWAP2 POP POP SWAP3 SWAP2 POP POP JUMP JUMPDEST PUSH1 0x0 DUP1 PUSH1 0x40 DUP4 DUP6 SUB SLT ISZERO PUSH2 0x1372 JUMPI PUSH2 0x1371 PUSH2 0x1B9D JUMP JUMPDEST JUMPDEST PUSH1 0x0 PUSH2 0x1380 DUP6 DUP3 DUP7 ADD PUSH2 0x1254 JUMP JUMPDEST SWAP3 POP POP PUSH1 0x20 PUSH2 0x1391 DUP6 DUP3 DUP7 ADD PUSH2 0x123F JUMP JUMPDEST SWAP2 POP POP SWAP3 POP SWAP3 SWAP1 POP JUMP JUMPDEST PUSH1 0x0 PUSH1 0x20 DUP3 DUP5 SUB SLT ISZERO PUSH2 0x13B1 JUMPI PUSH2 0x13B0 PUSH2 0x1B9D JUMP JUMPDEST JUMPDEST PUSH1 0x0 PUSH2 0x13BF DUP5 DUP3 DUP6 ADD PUSH2 0x1269 JUMP JUMPDEST SWAP2 POP POP SWAP3 SWAP2 POP POP JUMP JUMPDEST PUSH1 0x0 DUP1 PUSH1 0x0 PUSH1 0x60 DUP5 DUP7 SUB SLT ISZERO PUSH2 0x13E1 JUMPI PUSH2 0x13E0 PUSH2 0x1B9D JUMP JUMPDEST JUMPDEST PUSH1 0x0 DUP5 ADD CALLDATALOAD PUSH8 0xFFFFFFFFFFFFFFFF DUP2 GT ISZERO PUSH2 0x13FF JUMPI PUSH2 0x13FE PUSH2 0x1B98 JUMP JUMPDEST JUMPDEST PUSH2 0x140B DUP7 DUP3 DUP8 ADD PUSH2 0x127E JUMP JUMPDEST SWAP4 POP POP PUSH1 0x20 PUSH2 0x141C DUP7 DUP3 DUP8 ADD PUSH2 0x123F JUMP JUMPDEST SWAP3 POP POP PUSH1 0x40 PUSH2 0x142D DUP7 DUP3 DUP8 ADD PUSH2 0x12AC JUMP JUMPDEST SWAP2 POP POP SWAP3 POP SWAP3 POP SWAP3 JUMP JUMPDEST PUSH1 0x0 PUSH1 0x20 DUP3 DUP5 SUB SLT ISZERO PUSH2 0x144D JUMPI PUSH2 0x144C PUSH2 0x1B9D JUMP JUMPDEST JUMPDEST PUSH1 0x0 PUSH2 0x145B DUP5 DUP3 DUP6 ADD PUSH2 0x12AC JUMP JUMPDEST SWAP2 POP POP SWAP3 SWAP2 POP POP JUMP JUMPDEST PUSH2 0x146D DUP2 PUSH2 0x193C JUMP JUMPDEST DUP3 MSTORE POP POP JUMP JUMPDEST PUSH2 0x147C DUP2 PUSH2 0x193C JUMP JUMPDEST DUP3 MSTORE POP POP JUMP JUMPDEST PUSH2 0x148B DUP2 PUSH2 0x194E JUMP JUMPDEST DUP3 MSTORE POP POP JUMP JUMPDEST PUSH2 0x149A DUP2 PUSH2 0x195A JUMP JUMPDEST DUP3 MSTORE POP POP JUMP JUMPDEST PUSH1 0x0 PUSH2 0x14AB DUP3 PUSH2 0x1854 JUMP JUMPDEST PUSH2 0x14B5 DUP2 DUP6 PUSH2 0x185F JUMP JUMPDEST SWAP4 POP PUSH2 0x14C5 DUP2 DUP6 PUSH1 0x20 DUP7 ADD PUSH2 0x19C9 JUMP JUMPDEST PUSH2 0x14CE DUP2 PUSH2 0x1BA2 JUMP JUMPDEST DUP5 ADD SWAP2 POP POP SWAP3 SWAP2 POP POP JUMP JUMPDEST PUSH1 0x0 PUSH2 0x14E4 DUP3 PUSH2 0x1854 JUMP JUMPDEST PUSH2 0x14EE DUP2 DUP6 PUSH2 0x1870 JUMP JUMPDEST SWAP4 POP PUSH2 0x14FE DUP2 DUP6 PUSH1 0x20 DUP7 ADD PUSH2 0x19C9 JUMP JUMPDEST PUSH2 0x1507 DUP2 PUSH2 0x1BA2 JUMP JUMPDEST DUP5 ADD SWAP2 POP POP SWAP3 SWAP2 POP POP JUMP JUMPDEST PUSH1 0x0 PUSH2 0x151D DUP3 PUSH2 0x1854 JUMP JUMPDEST PUSH2 0x1527 DUP2 DUP6 PUSH2 0x1881 JUMP JUMPDEST SWAP4 POP PUSH2 0x1537 DUP2 DUP6 PUSH1 0x20 DUP7 ADD PUSH2 0x19C9 JUMP JUMPDEST DUP1 DUP5 ADD SWAP2 POP POP SWAP3 SWAP2 POP POP JUMP JUMPDEST PUSH1 0x0 PUSH2 0x1550 PUSH1 0x20 DUP4 PUSH2 0x1870 JUMP JUMPDEST SWAP2 POP PUSH2 0x155B DUP3 PUSH2 0x1BB3 JUMP JUMPDEST PUSH1 0x20 DUP3 ADD SWAP1 POP SWAP2 SWAP1 POP JUMP JUMPDEST PUSH1 0x0 PUSH2 0x1573 PUSH1 0x26 DUP4 PUSH2 0x1870 JUMP JUMPDEST SWAP2 POP PUSH2 0x157E DUP3 PUSH2 0x1BDC JUMP JUMPDEST PUSH1 0x40 DUP3 ADD SWAP1 POP SWAP2 SWAP1 POP JUMP JUMPDEST PUSH1 0x0 PUSH2 0x1596 PUSH1 0x1F DUP4 PUSH2 0x1870 JUMP JUMPDEST SWAP2 POP PUSH2 0x15A1 DUP3 PUSH2 0x1C2B JUMP JUMPDEST PUSH1 0x20 DUP3 ADD SWAP1 POP SWAP2 SWAP1 POP JUMP JUMPDEST PUSH1 0x0 PUSH2 0x15B9 PUSH1 0x20 DUP4 PUSH2 0x1870 JUMP JUMPDEST SWAP2 POP PUSH2 0x15C4 DUP3 PUSH2 0x1C54 JUMP JUMPDEST PUSH1 0x20 DUP3 ADD SWAP1 POP SWAP2 SWAP1 POP JUMP JUMPDEST PUSH1 0x0 PUSH2 0x15DC PUSH1 0x17 DUP4 PUSH2 0x1881 JUMP JUMPDEST SWAP2 POP PUSH2 0x15E7 DUP3 PUSH2 0x1C7D JUMP JUMPDEST PUSH1 0x17 DUP3 ADD SWAP1 POP SWAP2 SWAP1 POP JUMP JUMPDEST PUSH1 0x0 PUSH2 0x15FF PUSH1 0x11 DUP4 PUSH2 0x1881 JUMP JUMPDEST SWAP2 POP PUSH2 0x160A DUP3 PUSH2 0x1CA6 JUMP JUMPDEST PUSH1 0x11 DUP3 ADD SWAP1 POP SWAP2 SWAP1 POP JUMP JUMPDEST PUSH1 0x0 PUSH2 0x1622 PUSH1 0x2F DUP4 PUSH2 0x1870 JUMP JUMPDEST SWAP2 POP PUSH2 0x162D DUP3 PUSH2 0x1CCF JUMP JUMPDEST PUSH1 0x40 DUP3 ADD SWAP1 POP SWAP2 SWAP1 POP JUMP JUMPDEST PUSH1 0x0 PUSH1 0x60 DUP4 ADD PUSH1 0x0 DUP4 ADD MLOAD DUP5 DUP3 SUB PUSH1 0x0 DUP7 ADD MSTORE PUSH2 0x1655 DUP3 DUP3 PUSH2 0x14A0 JUMP JUMPDEST SWAP2 POP POP PUSH1 0x20 DUP4 ADD MLOAD PUSH2 0x166A PUSH1 0x20 DUP7 ADD DUP3 PUSH2 0x1464 JUMP JUMPDEST POP PUSH1 0x40 DUP4 ADD MLOAD DUP5 DUP3 SUB PUSH1 0x40 DUP7 ADD MSTORE PUSH2 0x1682 DUP3 DUP3 PUSH2 0x14A0 JUMP JUMPDEST SWAP2 POP POP DUP1 SWAP2 POP POP SWAP3 SWAP2 POP POP JUMP JUMPDEST PUSH1 0x0 PUSH2 0x169A DUP3 PUSH2 0x15CF JUMP JUMPDEST SWAP2 POP PUSH2 0x16A6 DUP3 DUP6 PUSH2 0x1512 JUMP JUMPDEST SWAP2 POP PUSH2 0x16B1 DUP3 PUSH2 0x15F2 JUMP JUMPDEST SWAP2 POP PUSH2 0x16BD DUP3 DUP5 PUSH2 0x1512 JUMP JUMPDEST SWAP2 POP DUP2 SWAP1 POP SWAP4 SWAP3 POP POP POP JUMP JUMPDEST PUSH1 0x0 PUSH1 0x20 DUP3 ADD SWAP1 POP PUSH2 0x16DE PUSH1 0x0 DUP4 ADD DUP5 PUSH2 0x1473 JUMP JUMPDEST SWAP3 SWAP2 POP POP JUMP JUMPDEST PUSH1 0x0 PUSH1 0x20 DUP3 ADD SWAP1 POP PUSH2 0x16F9 PUSH1 0x0 DUP4 ADD DUP5 PUSH2 0x1482 JUMP JUMPDEST SWAP3 SWAP2 POP POP JUMP JUMPDEST PUSH1 0x0 PUSH1 0x20 DUP3 ADD SWAP1 POP PUSH2 0x1714 PUSH1 0x0 DUP4 ADD DUP5 PUSH2 0x1491 JUMP JUMPDEST SWAP3 SWAP2 POP POP JUMP JUMPDEST PUSH1 0x0 PUSH1 0x20 DUP3 ADD SWAP1 POP DUP2 DUP2 SUB PUSH1 0x0 DUP4 ADD MSTORE PUSH2 0x1734 DUP2 DUP5 PUSH2 0x14D9 JUMP JUMPDEST SWAP1 POP SWAP3 SWAP2 POP POP JUMP JUMPDEST PUSH1 0x0 PUSH1 0x20 DUP3 ADD SWAP1 POP DUP2 DUP2 SUB PUSH1 0x0 DUP4 ADD MSTORE PUSH2 0x1755 DUP2 PUSH2 0x1543 JUMP JUMPDEST SWAP1 POP SWAP2 SWAP1 POP JUMP JUMPDEST PUSH1 0x0 PUSH1 0x20 DUP3 ADD SWAP1 POP DUP2 DUP2 SUB PUSH1 0x0 DUP4 ADD MSTORE PUSH2 0x1775 DUP2 PUSH2 0x1566 JUMP JUMPDEST SWAP1 POP SWAP2 SWAP1 POP JUMP JUMPDEST PUSH1 0x0 PUSH1 0x20 DUP3 ADD SWAP1 POP DUP2 DUP2 SUB PUSH1 0x0 DUP4 ADD MSTORE PUSH2 0x1795 DUP2 PUSH2 0x1589 JUMP JUMPDEST SWAP1 POP SWAP2 SWAP1 POP JUMP JUMPDEST PUSH1 0x0 PUSH1 0x20 DUP3 ADD SWAP1 POP DUP2 DUP2 SUB PUSH1 0x0 DUP4 ADD MSTORE PUSH2 0x17B5 DUP2 PUSH2 0x15AC JUMP JUMPDEST SWAP1 POP SWAP2 SWAP1 POP JUMP JUMPDEST PUSH1 0x0 PUSH1 0x20 DUP3 ADD SWAP1 POP DUP2 DUP2 SUB PUSH1 0x0 DUP4 ADD MSTORE PUSH2 0x17D5 DUP2 PUSH2 0x1615 JUMP JUMPDEST SWAP1 POP SWAP2 SWAP1 POP JUMP JUMPDEST PUSH1 0x0 PUSH1 0x20 DUP3 ADD SWAP1 POP DUP2 DUP2 SUB PUSH1 0x0 DUP4 ADD MSTORE PUSH2 0x17F6 DUP2 DUP5 PUSH2 0x1638 JUMP JUMPDEST SWAP1 POP SWAP3 SWAP2 POP POP JUMP JUMPDEST PUSH1 0x0 PUSH2 0x1808 PUSH2 0x1819 JUMP JUMPDEST SWAP1 POP PUSH2 0x1814 DUP3 DUP3 PUSH2 0x1A58 JUMP JUMPDEST SWAP2 SWAP1 POP JUMP JUMPDEST PUSH1 0x0 PUSH1 0x40 MLOAD SWAP1 POP SWAP1 JUMP JUMPDEST PUSH1 0x0 PUSH8 0xFFFFFFFFFFFFFFFF DUP3 GT ISZERO PUSH2 0x183E JUMPI PUSH2 0x183D PUSH2 0x1B5F JUMP JUMPDEST JUMPDEST PUSH2 0x1847 DUP3 PUSH2 0x1BA2 JUMP JUMPDEST SWAP1 POP PUSH1 0x20 DUP2 ADD SWAP1 POP SWAP2 SWAP1 POP JUMP JUMPDEST PUSH1 0x0 DUP2 MLOAD SWAP1 POP SWAP2 SWAP1 POP JUMP JUMPDEST PUSH1 0x0 DUP3 DUP3 MSTORE PUSH1 0x20 DUP3 ADD SWAP1 POP SWAP3 SWAP2 POP POP JUMP JUMPDEST PUSH1 0x0 DUP3 DUP3 MSTORE PUSH1 0x20 DUP3 ADD SWAP1 POP SWAP3 SWAP2 POP POP JUMP JUMPDEST PUSH1 0x0 DUP2 SWAP1 POP SWAP3 SWAP2 POP POP JUMP JUMPDEST PUSH1 0x0 PUSH2 0x1897 DUP3 PUSH2 0x19B0 JUMP JUMPDEST SWAP2 POP PUSH2 0x18A2 DUP4 PUSH2 0x19B0 JUMP JUMPDEST SWAP3 POP DUP3 PUSH32 0xFFFFFFFFFFFFFFFFFFFFFFFFFFFFFFFFFFFFFFFFFFFFFFFFFFFFFFFFFFFFFFFF SUB DUP3 GT ISZERO PUSH2 0x18D7 JUMPI PUSH2 0x18D6 PUSH2 0x1AD2 JUMP JUMPDEST JUMPDEST DUP3 DUP3 ADD SWAP1 POP SWAP3 SWAP2 POP POP JUMP JUMPDEST PUSH1 0x0 PUSH2 0x18ED DUP3 PUSH2 0x19B0 JUMP JUMPDEST SWAP2 POP PUSH2 0x18F8 DUP4 PUSH2 0x19B0 JUMP JUMPDEST SWAP3 POP DUP2 PUSH32 0xFFFFFFFFFFFFFFFFFFFFFFFFFFFFFFFFFFFFFFFFFFFFFFFFFFFFFFFFFFFFFFFF DIV DUP4 GT DUP3 ISZERO ISZERO AND ISZERO PUSH2 0x1931 JUMPI PUSH2 0x1930 PUSH2 0x1AD2 JUMP JUMPDEST JUMPDEST DUP3 DUP3 MUL SWAP1 POP SWAP3 SWAP2 POP POP JUMP JUMPDEST PUSH1 0x0 PUSH2 0x1947 DUP3 PUSH2 0x1990 JUMP JUMPDEST SWAP1 POP SWAP2 SWAP1 POP JUMP JUMPDEST PUSH1 0x0 DUP2 ISZERO ISZERO SWAP1 POP SWAP2 SWAP1 POP JUMP JUMPDEST PUSH1 0x0 DUP2 SWAP1 POP SWAP2 SWAP1 POP JUMP JUMPDEST PUSH1 0x0 PUSH32 0xFFFFFFFF00000000000000000000000000000000000000000000000000000000 DUP3 AND SWAP1 POP SWAP2 SWAP1 POP JUMP JUMPDEST PUSH1 0x0 PUSH20 0xFFFFFFFFFFFFFFFFFFFFFFFFFFFFFFFFFFFFFFFF DUP3 AND SWAP1 POP SWAP2 SWAP1 POP JUMP JUMPDEST PUSH1 0x0 DUP2 SWAP1 POP SWAP2 SWAP1 POP JUMP JUMPDEST DUP3 DUP2 DUP4 CALLDATACOPY PUSH1 0x0 DUP4 DUP4 ADD MSTORE POP POP POP JUMP JUMPDEST PUSH1 0x0 JUMPDEST DUP4 DUP2 LT ISZERO PUSH2 0x19E7 JUMPI DUP1 DUP3 ADD MLOAD DUP2 DUP5 ADD MSTORE PUSH1 0x20 DUP2 ADD SWAP1 POP PUSH2 0x19CC JUMP JUMPDEST DUP4 DUP2 GT ISZERO PUSH2 0x19F6 JUMPI PUSH1 0x0 DUP5 DUP5 ADD MSTORE JUMPDEST POP POP POP POP JUMP JUMPDEST PUSH1 0x0 PUSH2 0x1A07 DUP3 PUSH2 0x19B0 JUMP JUMPDEST SWAP2 POP PUSH1 0x0 DUP3 EQ ISZERO PUSH2 0x1A1B JUMPI PUSH2 0x1A1A PUSH2 0x1AD2 JUMP JUMPDEST JUMPDEST PUSH1 0x1 DUP3 SUB SWAP1 POP SWAP2 SWAP1 POP JUMP JUMPDEST PUSH1 0x0 PUSH1 0x2 DUP3 DIV SWAP1 POP PUSH1 0x1 DUP3 AND DUP1 PUSH2 0x1A3E JUMPI PUSH1 0x7F DUP3 AND SWAP2 POP JUMPDEST PUSH1 0x20 DUP3 LT DUP2 EQ ISZERO PUSH2 0x1A52 JUMPI PUSH2 0x1A51 PUSH2 0x1B01 JUMP JUMPDEST JUMPDEST POP SWAP2 SWAP1 POP JUMP JUMPDEST PUSH2 0x1A61 DUP3 PUSH2 0x1BA2 JUMP JUMPDEST DUP2 ADD DUP2 DUP2 LT PUSH8 0xFFFFFFFFFFFFFFFF DUP3 GT OR ISZERO PUSH2 0x1A80 JUMPI PUSH2 0x1A7F PUSH2 0x1B5F JUMP JUMPDEST JUMPDEST DUP1 PUSH1 0x40 MSTORE POP POP POP JUMP JUMPDEST PUSH1 0x0 PUSH2 0x1A94 DUP3 PUSH2 0x19B0 JUMP JUMPDEST SWAP2 POP PUSH32 0xFFFFFFFFFFFFFFFFFFFFFFFFFFFFFFFFFFFFFFFFFFFFFFFFFFFFFFFFFFFFFFFF DUP3 EQ ISZERO PUSH2 0x1AC7 JUMPI PUSH2 0x1AC6 PUSH2 0x1AD2 JUMP JUMPDEST JUMPDEST PUSH1 0x1 DUP3 ADD SWAP1 POP SWAP2 SWAP1 POP JUMP JUMPDEST PUSH32 0x4E487B7100000000000000000000000000000000000000000000000000000000 PUSH1 0x0 MSTORE PUSH1 0x11 PUSH1 0x4 MSTORE PUSH1 0x24 PUSH1 0x0 REVERT JUMPDEST PUSH32 0x4E487B7100000000000000000000000000000000000000000000000000000000 PUSH1 0x0 MSTORE PUSH1 0x22 PUSH1 0x4 MSTORE PUSH1 0x24 PUSH1 0x0 REVERT JUMPDEST PUSH32 0x4E487B7100000000000000000000000000000000000000000000000000000000 PUSH1 0x0 MSTORE PUSH1 0x32 PUSH1 0x4 MSTORE PUSH1 0x24 PUSH1 0x0 REVERT JUMPDEST PUSH32 0x4E487B7100000000000000000000000000000000000000000000000000000000 PUSH1 0x0 MSTORE PUSH1 0x41 PUSH1 0x4 MSTORE PUSH1 0x24 PUSH1 0x0 REVERT JUMPDEST PUSH1 0x0 DUP1 REVERT JUMPDEST PUSH1 0x0 DUP1 REVERT JUMPDEST PUSH1 0x0 DUP1 REVERT JUMPDEST PUSH1 0x0 DUP1 REVERT JUMPDEST PUSH1 0x0 PUSH1 0x1F NOT PUSH1 0x1F DUP4 ADD AND SWAP1 POP SWAP2 SWAP1 POP JUMP JUMPDEST PUSH32 0x537472696E67733A20686578206C656E67746820696E73756666696369656E74 PUSH1 0x0 DUP3 ADD MSTORE POP JUMP JUMPDEST PUSH32 0x4F776E61626C653A206E6577206F776E657220697320746865207A65726F2061 PUSH1 0x0 DUP3 ADD MSTORE PUSH32 0x6464726573730000000000000000000000000000000000000000000000000000 PUSH1 0x20 DUP3 ADD MSTORE POP JUMP JUMPDEST PUSH32 0x43616C6C6572206973206E6F7420616E20494E45432065786563757469766500 PUSH1 0x0 DUP3 ADD MSTORE POP JUMP JUMPDEST PUSH32 0x4F776E61626C653A2063616C6C6572206973206E6F7420746865206F776E6572 PUSH1 0x0 DUP3 ADD MSTORE POP JUMP JUMPDEST PUSH32 0x416363657373436F6E74726F6C3A206163636F756E7420000000000000000000 PUSH1 0x0 DUP3 ADD MSTORE POP JUMP JUMPDEST PUSH32 0x206973206D697373696E6720726F6C6520000000000000000000000000000000 PUSH1 0x0 DUP3 ADD MSTORE POP JUMP JUMPDEST PUSH32 0x416363657373436F6E74726F6C3A2063616E206F6E6C792072656E6F756E6365 PUSH1 0x0 DUP3 ADD MSTORE PUSH32 0x20726F6C657320666F722073656C660000000000000000000000000000000000 PUSH1 0x20 DUP3 ADD MSTORE POP JUMP JUMPDEST PUSH2 0x1D27 DUP2 PUSH2 0x193C JUMP JUMPDEST DUP2 EQ PUSH2 0x1D32 JUMPI PUSH1 0x0 DUP1 REVERT JUMPDEST POP JUMP JUMPDEST PUSH2 0x1D3E DUP2 PUSH2 0x195A JUMP JUMPDEST DUP2 EQ PUSH2 0x1D49 JUMPI PUSH1 0x0 DUP1 REVERT JUMPDEST POP JUMP JUMPDEST PUSH2 0x1D55 DUP2 PUSH2 0x1964 JUMP JUMPDEST DUP2 EQ PUSH2 0x1D60 JUMPI PUSH1 0x0 DUP1 REVERT JUMPDEST POP JUMP JUMPDEST PUSH2 0x1D6C DUP2 PUSH2 0x19B0 JUMP JUMPDEST DUP2 EQ PUSH2 0x1D77 JUMPI PUSH1 0x0 DUP1 REVERT JUMPDEST POP JUMP INVALID LOG2 PUSH5 0x6970667358 0x22 SLT KECCAK256 0xB6 0x21 DUP16 SWAP5 0xA6 0xA8 PUSH24 0x4A8E541DCCBCD3A888CE0D3833F0008B3763B1B9145731ED 0xAD PUSH5 0x736F6C6343 STOP ADDMOD SMOD STOP CALLER "
				},
				"gasEstimates": {
					"creation": {
						"codeDepositCost": "1520000",
						"executionCost": "infinite",
						"totalCost": "infinite"
					},
					"external": {
						"DEFAULT_ADMIN_ROLE()": "402",
						"INEC_EXEC_ROLE()": "397",
						"createCandidate(string,address,uint256)": "infinite",
						"createInecExec(address)": "infinite",
						"getRoleAdmin(bytes32)": "infinite",
						"grantRole(bytes32,address)": "infinite",
						"hasRole(bytes32,address)": "3163",
						"owner()": "2611",
						"party(uint256)": "infinite",
						"regVoter(address,uint256)": "53707",
						"renounceOwnership()": "30465",
						"renounceRole(bytes32,address)": "infinite",
						"retrieveCandidate(uint256)": "infinite",
						"revokeRole(bytes32,address)": "infinite",
						"supportsInterface(bytes4)": "751",
						"transferOwnership(address)": "30835"
					}
				},
				"methodIdentifiers": {
					"DEFAULT_ADMIN_ROLE()": "a217fddf",
					"INEC_EXEC_ROLE()": "2e0d37bb",
					"createCandidate(string,address,uint256)": "d59d2a58",
					"createInecExec(address)": "dfd8459e",
					"getRoleAdmin(bytes32)": "248a9ca3",
					"grantRole(bytes32,address)": "2f2ff15d",
					"hasRole(bytes32,address)": "91d14854",
					"owner()": "8da5cb5b",
					"party(uint256)": "314fd68f",
					"regVoter(address,uint256)": "ef49f4aa",
					"renounceOwnership()": "715018a6",
					"renounceRole(bytes32,address)": "36568abe",
					"retrieveCandidate(uint256)": "9e5f0349",
					"revokeRole(bytes32,address)": "d547741f",
					"supportsInterface(bytes4)": "01ffc9a7",
					"transferOwnership(address)": "f2fde38b"
				}
			},
			"storageLayout": {
				"storage": [
					{
						"astId": 400,
						"contract": "contracts/Vote.sol:Vote",
						"label": "_owner",
						"offset": 0,
						"slot": "0",
						"type": "t_address"
					},
					{
						"astId": 24,
						"contract": "contracts/Vote.sol:Vote",
						"label": "_roles",
						"offset": 0,
						"slot": "1",
						"type": "t_mapping(t_bytes32,t_struct(RoleData)19_storage)"
					},
					{
						"astId": 800,
						"contract": "contracts/Vote.sol:Vote",
						"label": "voteFee",
						"offset": 0,
						"slot": "2",
						"type": "t_uint256"
					},
					{
						"astId": 802,
						"contract": "contracts/Vote.sol:Vote",
						"label": "candidateNum",
						"offset": 0,
						"slot": "3",
						"type": "t_uint256"
					},
					{
						"astId": 804,
						"contract": "contracts/Vote.sol:Vote",
						"label": "voterNum",
						"offset": 0,
						"slot": "4",
						"type": "t_uint256"
					},
					{
						"astId": 812,
						"contract": "contracts/Vote.sol:Vote",
						"label": "party",
						"offset": 0,
						"slot": "5",
						"type": "t_array(t_string_storage)dyn_storage"
					},
					{
						"astId": 838,
						"contract": "contracts/Vote.sol:Vote",
						"label": "Candidates",
						"offset": 0,
						"slot": "6",
						"type": "t_mapping(t_uint256,t_struct(candidate)824_storage)"
					},
					{
						"astId": 843,
						"contract": "contracts/Vote.sol:Vote",
						"label": "Voters",
						"offset": 0,
						"slot": "7",
						"type": "t_mapping(t_uint256,t_struct(voter)833_storage)"
					}
				],
				"types": {
					"t_address": {
						"encoding": "inplace",
						"label": "address",
						"numberOfBytes": "20"
					},
					"t_array(t_string_storage)dyn_storage": {
						"base": "t_string_storage",
						"encoding": "dynamic_array",
						"label": "string[]",
						"numberOfBytes": "32"
					},
					"t_bool": {
						"encoding": "inplace",
						"label": "bool",
						"numberOfBytes": "1"
					},
					"t_bytes32": {
						"encoding": "inplace",
						"label": "bytes32",
						"numberOfBytes": "32"
					},
					"t_mapping(t_address,t_bool)": {
						"encoding": "mapping",
						"key": "t_address",
						"label": "mapping(address => bool)",
						"numberOfBytes": "32",
						"value": "t_bool"
					},
					"t_mapping(t_bytes32,t_struct(RoleData)19_storage)": {
						"encoding": "mapping",
						"key": "t_bytes32",
						"label": "mapping(bytes32 => struct AccessControl.RoleData)",
						"numberOfBytes": "32",
						"value": "t_struct(RoleData)19_storage"
					},
					"t_mapping(t_uint256,t_struct(candidate)824_storage)": {
						"encoding": "mapping",
						"key": "t_uint256",
						"label": "mapping(uint256 => struct Vote.candidate)",
						"numberOfBytes": "32",
						"value": "t_struct(candidate)824_storage"
					},
					"t_mapping(t_uint256,t_struct(voter)833_storage)": {
						"encoding": "mapping",
						"key": "t_uint256",
						"label": "mapping(uint256 => struct Vote.voter)",
						"numberOfBytes": "32",
						"value": "t_struct(voter)833_storage"
					},
					"t_string_storage": {
						"encoding": "bytes",
						"label": "string",
						"numberOfBytes": "32"
					},
					"t_struct(RoleData)19_storage": {
						"encoding": "inplace",
						"label": "struct AccessControl.RoleData",
						"members": [
							{
								"astId": 16,
								"contract": "contracts/Vote.sol:Vote",
								"label": "members",
								"offset": 0,
								"slot": "0",
								"type": "t_mapping(t_address,t_bool)"
							},
							{
								"astId": 18,
								"contract": "contracts/Vote.sol:Vote",
								"label": "adminRole",
								"offset": 0,
								"slot": "1",
								"type": "t_bytes32"
							}
						],
						"numberOfBytes": "64"
					},
					"t_struct(candidate)824_storage": {
						"encoding": "inplace",
						"label": "struct Vote.candidate",
						"members": [
							{
								"astId": 819,
								"contract": "contracts/Vote.sol:Vote",
								"label": "name",
								"offset": 0,
								"slot": "0",
								"type": "t_string_storage"
							},
							{
								"astId": 821,
								"contract": "contracts/Vote.sol:Vote",
								"label": "addr",
								"offset": 0,
								"slot": "1",
								"type": "t_address"
							},
							{
								"astId": 823,
								"contract": "contracts/Vote.sol:Vote",
								"label": "party",
								"offset": 0,
								"slot": "2",
								"type": "t_string_storage"
							}
						],
						"numberOfBytes": "96"
					},
					"t_struct(voter)833_storage": {
						"encoding": "inplace",
						"label": "struct Vote.voter",
						"members": [
							{
								"astId": 826,
								"contract": "contracts/Vote.sol:Vote",
								"label": "addr",
								"offset": 0,
								"slot": "0",
								"type": "t_address"
							},
							{
								"astId": 828,
								"contract": "contracts/Vote.sol:Vote",
								"label": "nin",
								"offset": 0,
								"slot": "1",
								"type": "t_uint256"
							},
							{
								"astId": 830,
								"contract": "contracts/Vote.sol:Vote",
								"label": "partyNum",
								"offset": 0,
								"slot": "2",
								"type": "t_uint256"
							},
							{
								"astId": 832,
								"contract": "contracts/Vote.sol:Vote",
								"label": "hasVoted",
								"offset": 0,
								"slot": "3",
								"type": "t_bool"
							}
						],
						"numberOfBytes": "128"
					},
					"t_uint256": {
						"encoding": "inplace",
						"label": "uint256",
						"numberOfBytes": "32"
					}
				}
			},
			"userdoc": {
				"kind": "user",
				"methods": {},
				"version": 1
			}
		}
	}
}