{
	"contracts/Vote.sol": {
		"Vote": {
			"abi": [
				{
					"inputs": [],
					"stateMutability": "nonpayable",
					"type": "constructor"
				},
				{
					"anonymous": false,
					"inputs": [
						{
							"indexed": true,
							"internalType": "address",
							"name": "previousOwner",
							"type": "address"
						},
						{
							"indexed": true,
							"internalType": "address",
							"name": "newOwner",
							"type": "address"
						}
					],
					"name": "OwnershipTransferred",
					"type": "event"
				},
				{
					"anonymous": false,
					"inputs": [
						{
							"indexed": true,
							"internalType": "bytes32",
							"name": "role",
							"type": "bytes32"
						},
						{
							"indexed": true,
							"internalType": "bytes32",
							"name": "previousAdminRole",
							"type": "bytes32"
						},
						{
							"indexed": true,
							"internalType": "bytes32",
							"name": "newAdminRole",
							"type": "bytes32"
						}
					],
					"name": "RoleAdminChanged",
					"type": "event"
				},
				{
					"anonymous": false,
					"inputs": [
						{
							"indexed": true,
							"internalType": "bytes32",
							"name": "role",
							"type": "bytes32"
						},
						{
							"indexed": true,
							"internalType": "address",
							"name": "account",
							"type": "address"
						},
						{
							"indexed": true,
							"internalType": "address",
							"name": "sender",
							"type": "address"
						}
					],
					"name": "RoleGranted",
					"type": "event"
				},
				{
					"anonymous": false,
					"inputs": [
						{
							"indexed": true,
							"internalType": "bytes32",
							"name": "role",
							"type": "bytes32"
						},
						{
							"indexed": true,
							"internalType": "address",
							"name": "account",
							"type": "address"
						},
						{
							"indexed": true,
							"internalType": "address",
							"name": "sender",
							"type": "address"
						}
					],
					"name": "RoleRevoked",
					"type": "event"
				},
				{
					"inputs": [
						{
							"internalType": "uint256",
							"name": "",
							"type": "uint256"
						}
					],
					"name": "Candidates",
					"outputs": [
						{
							"internalType": "string",
							"name": "name",
							"type": "string"
						},
						{
							"internalType": "address",
							"name": "addr",
							"type": "address"
						},
						{
							"internalType": "string",
							"name": "party",
							"type": "string"
						}
					],
					"stateMutability": "view",
					"type": "function"
				},
				{
					"inputs": [],
					"name": "DEFAULT_ADMIN_ROLE",
					"outputs": [
						{
							"internalType": "bytes32",
							"name": "",
							"type": "bytes32"
						}
					],
					"stateMutability": "view",
					"type": "function"
				},
				{
					"inputs": [],
					"name": "INEC_EXEC_ROLE",
					"outputs": [
						{
							"internalType": "bytes32",
							"name": "",
							"type": "bytes32"
						}
					],
					"stateMutability": "view",
					"type": "function"
				},
				{
					"inputs": [],
					"name": "VOTER_ROLE",
					"outputs": [
						{
							"internalType": "bytes32",
							"name": "",
							"type": "bytes32"
						}
					],
					"stateMutability": "view",
					"type": "function"
				},
				{
					"inputs": [
						{
							"internalType": "uint256",
							"name": "",
							"type": "uint256"
						}
					],
					"name": "Voters",
					"outputs": [
						{
							"internalType": "address",
							"name": "addr",
							"type": "address"
						},
						{
							"internalType": "uint256",
							"name": "nin",
							"type": "uint256"
						},
						{
							"internalType": "uint256",
							"name": "partyNum",
							"type": "uint256"
						},
						{
							"internalType": "bool",
							"name": "hasVoted",
							"type": "bool"
						}
					],
					"stateMutability": "view",
					"type": "function"
				},
				{
					"inputs": [
						{
							"internalType": "uint256",
							"name": "partyNum",
							"type": "uint256"
						}
					],
					"name": "Voting",
					"outputs": [],
					"stateMutability": "payable",
					"type": "function"
				},
				{
					"inputs": [
						{
							"internalType": "string",
							"name": "name",
							"type": "string"
						},
						{
							"internalType": "address",
							"name": "candAddress",
							"type": "address"
						},
						{
							"internalType": "uint256",
							"name": "partyNum",
							"type": "uint256"
						}
					],
					"name": "createCandidate",
					"outputs": [],
					"stateMutability": "nonpayable",
					"type": "function"
				},
				{
					"inputs": [
						{
							"internalType": "address[]",
							"name": "_candidateNum",
							"type": "address[]"
						},
						{
							"internalType": "uint256",
							"name": "_date",
							"type": "uint256"
						},
						{
							"internalType": "uint256",
							"name": "_duration",
							"type": "uint256"
						}
					],
					"name": "createElection",
					"outputs": [],
					"stateMutability": "nonpayable",
					"type": "function"
				},
				{
					"inputs": [
						{
							"internalType": "address",
							"name": "_account",
							"type": "address"
						}
					],
					"name": "createInecExec",
					"outputs": [],
					"stateMutability": "nonpayable",
					"type": "function"
				},
				{
					"inputs": [
						{
							"internalType": "uint256",
							"name": "num",
							"type": "uint256"
						}
					],
					"name": "getElection",
					"outputs": [
						{
							"components": [
								{
									"internalType": "address[]",
									"name": "candidate",
									"type": "address[]"
								},
								{
									"internalType": "uint256[]",
									"name": "candidateVote",
									"type": "uint256[]"
								},
								{
									"internalType": "uint256",
									"name": "start",
									"type": "uint256"
								},
								{
									"internalType": "uint256",
									"name": "duration",
									"type": "uint256"
								},
								{
									"internalType": "bool",
									"name": "hasEnded",
									"type": "bool"
								}
							],
							"internalType": "struct Vote.election",
							"name": "",
							"type": "tuple"
						}
					],
					"stateMutability": "view",
					"type": "function"
				},
				{
					"inputs": [
						{
							"internalType": "bytes32",
							"name": "role",
							"type": "bytes32"
						}
					],
					"name": "getRoleAdmin",
					"outputs": [
						{
							"internalType": "bytes32",
							"name": "",
							"type": "bytes32"
						}
					],
					"stateMutability": "view",
					"type": "function"
				},
				{
					"inputs": [
						{
							"internalType": "bytes32",
							"name": "role",
							"type": "bytes32"
						},
						{
							"internalType": "address",
							"name": "account",
							"type": "address"
						}
					],
					"name": "grantRole",
					"outputs": [],
					"stateMutability": "nonpayable",
					"type": "function"
				},
				{
					"inputs": [
						{
							"internalType": "bytes32",
							"name": "role",
							"type": "bytes32"
						},
						{
							"internalType": "address",
							"name": "account",
							"type": "address"
						}
					],
					"name": "hasRole",
					"outputs": [
						{
							"internalType": "bool",
							"name": "",
							"type": "bool"
						}
					],
					"stateMutability": "view",
					"type": "function"
				},
				{
					"inputs": [],
					"name": "owner",
					"outputs": [
						{
							"internalType": "address",
							"name": "",
							"type": "address"
						}
					],
					"stateMutability": "view",
					"type": "function"
				},
				{
					"inputs": [
						{
							"internalType": "uint256",
							"name": "",
							"type": "uint256"
						}
					],
					"name": "party",
					"outputs": [
						{
							"internalType": "string",
							"name": "",
							"type": "string"
						}
					],
					"stateMutability": "view",
					"type": "function"
				},
				{
					"inputs": [
						{
							"internalType": "uint256",
							"name": "_nin",
							"type": "uint256"
						}
					],
					"name": "regVoter",
					"outputs": [],
					"stateMutability": "nonpayable",
					"type": "function"
				},
				{
					"inputs": [],
					"name": "renounceOwnership",
					"outputs": [],
					"stateMutability": "nonpayable",
					"type": "function"
				},
				{
					"inputs": [
						{
							"internalType": "bytes32",
							"name": "role",
							"type": "bytes32"
						},
						{
							"internalType": "address",
							"name": "account",
							"type": "address"
						}
					],
					"name": "renounceRole",
					"outputs": [],
					"stateMutability": "nonpayable",
					"type": "function"
				},
				{
					"inputs": [
						{
							"internalType": "uint256",
							"name": "num",
							"type": "uint256"
						}
					],
					"name": "retrieveCandidate",
					"outputs": [
						{
							"components": [
								{
									"internalType": "string",
									"name": "name",
									"type": "string"
								},
								{
									"internalType": "address",
									"name": "addr",
									"type": "address"
								},
								{
									"internalType": "string",
									"name": "party",
									"type": "string"
								}
							],
							"internalType": "struct Vote.candidate",
							"name": "",
							"type": "tuple"
						}
					],
					"stateMutability": "view",
					"type": "function"
				},
				{
					"inputs": [
						{
							"internalType": "bytes32",
							"name": "role",
							"type": "bytes32"
						},
						{
							"internalType": "address",
							"name": "account",
							"type": "address"
						}
					],
					"name": "revokeRole",
					"outputs": [],
					"stateMutability": "nonpayable",
					"type": "function"
				},
				{
					"inputs": [
						{
							"internalType": "bytes4",
							"name": "interfaceId",
							"type": "bytes4"
						}
					],
					"name": "supportsInterface",
					"outputs": [
						{
							"internalType": "bool",
							"name": "",
							"type": "bool"
						}
					],
					"stateMutability": "view",
					"type": "function"
				},
				{
					"inputs": [
						{
							"internalType": "address",
							"name": "newOwner",
							"type": "address"
						}
					],
					"name": "transferOwnership",
					"outputs": [],
					"stateMutability": "nonpayable",
					"type": "function"
				}
			],
			"devdoc": {
				"custom:dev-run-script": "./scripts/deploy_with_ethers.ts",
				"details": "Store & retrieve value in a variable",
				"kind": "dev",
				"methods": {
					"createCandidate(string,address,uint256)": {
						"details": "Store value in variable",
						"params": {
							"candAddress": "value for candidate Address",
							"name": "value for candidate name",
							"partyNum": "value for candidate party"
						}
					},
					"createElection(address[],uint256,uint256)": {
						"details": "registers a voter",
						"params": {
							"_candidateNum": "is an arrat of candidates, _nin is the voters identifier'"
						}
					},
					"createInecExec(address)": {
						"details": "Grant INEC executive role to an address ",
						"params": {
							"_account": "value for the role'"
						}
					},
					"getElection(uint256)": {
						"details": "Return value ",
						"returns": {
							"_0": "value of 'struct'"
						}
					},
					"getRoleAdmin(bytes32)": {
						"details": "Returns the admin role that controls `role`. See {grantRole} and {revokeRole}. To change a role's admin, use {_setRoleAdmin}."
					},
					"grantRole(bytes32,address)": {
						"details": "Grants `role` to `account`. If `account` had not been already granted `role`, emits a {RoleGranted} event. Requirements: - the caller must have ``role``'s admin role. May emit a {RoleGranted} event."
					},
					"hasRole(bytes32,address)": {
						"details": "Returns `true` if `account` has been granted `role`."
					},
					"owner()": {
						"details": "Returns the address of the current owner."
					},
					"regVoter(uint256)": {
						"details": "registers a voter",
						"params": {
							"_nin": "is the voters identifier'"
						}
					},
					"renounceOwnership()": {
						"details": "Leaves the contract without owner. It will not be possible to call `onlyOwner` functions anymore. Can only be called by the current owner. NOTE: Renouncing ownership will leave the contract without an owner, thereby removing any functionality that is only available to the owner."
					},
					"renounceRole(bytes32,address)": {
						"details": "Revokes `role` from the calling account. Roles are often managed via {grantRole} and {revokeRole}: this function's purpose is to provide a mechanism for accounts to lose their privileges if they are compromised (such as when a trusted device is misplaced). If the calling account had been revoked `role`, emits a {RoleRevoked} event. Requirements: - the caller must be `account`. May emit a {RoleRevoked} event."
					},
					"retrieveCandidate(uint256)": {
						"details": "Return value ",
						"returns": {
							"_0": "value of 'struct'"
						}
					},
					"revokeRole(bytes32,address)": {
						"details": "Revokes `role` from `account`. If `account` had been granted `role`, emits a {RoleRevoked} event. Requirements: - the caller must have ``role``'s admin role. May emit a {RoleRevoked} event."
					},
					"supportsInterface(bytes4)": {
						"details": "See {IERC165-supportsInterface}."
					},
					"transferOwnership(address)": {
						"details": "Transfers ownership of the contract to a new account (`newOwner`). Can only be called by the current owner."
					}
				},
				"title": "Storage",
				"version": 1
			},
			"evm": {
				"assembly": "    /* \"contracts/Vote.sol\":311:3980  contract Vote is Ownable, AccessControl {... */\n  mstore(0x40, 0x80)\n    /* \"contracts/Vote.sol\":457:510  string [] public party = [\"APC\", \"PDP\", \"LP\", \"NNPP\"] */\n  mload(0x40)\n  dup1\n  0x80\n  add\n  0x40\n  mstore\n  dup1\n  mload(0x40)\n  dup1\n  0x40\n  add\n  0x40\n  mstore\n  dup1\n  0x03\n  dup2\n  mstore\n  0x20\n  add\n  0x4150430000000000000000000000000000000000000000000000000000000000\n  dup2\n  mstore\n  pop\n  dup2\n  mstore\n  0x20\n  add\n  mload(0x40)\n  dup1\n  0x40\n  add\n  0x40\n  mstore\n  dup1\n  0x03\n  dup2\n  mstore\n  0x20\n  add\n  0x5044500000000000000000000000000000000000000000000000000000000000\n  dup2\n  mstore\n  pop\n  dup2\n  mstore\n  0x20\n  add\n  mload(0x40)\n  dup1\n  0x40\n  add\n  0x40\n  mstore\n  dup1\n  0x02\n  dup2\n  mstore\n  0x20\n  add\n  0x4c50000000000000000000000000000000000000000000000000000000000000\n  dup2\n  mstore\n  pop\n  dup2\n  mstore\n  0x20\n  add\n  mload(0x40)\n  dup1\n  0x40\n  add\n  0x40\n  mstore\n  dup1\n  0x04\n  dup2\n  mstore\n  0x20\n  add\n  0x4e4e505000000000000000000000000000000000000000000000000000000000\n  dup2\n  mstore\n  pop\n  dup2\n  mstore\n  pop\n  0x06\n  swap1\n  0x04\n  tag_1\n  swap3\n  swap2\n  swap1\n  tag_2\n  jump\t// in\ntag_1:\n  pop\n    /* \"contracts/Vote.sol\":1745:1938  constructor() {... */\n  callvalue\n  dup1\n  iszero\n  tag_3\n  jumpi\n  0x00\n  dup1\n  revert\ntag_3:\n  pop\n    /* \"@openzeppelin/contracts/access/Ownable.sol\":936:968  _transferOwnership(_msgSender()) */\n  tag_7\n    /* \"@openzeppelin/contracts/access/Ownable.sol\":955:967  _msgSender() */\n  tag_8\n    /* \"@openzeppelin/contracts/access/Ownable.sol\":955:965  _msgSender */\n  shl(0x20, tag_9)\n    /* \"@openzeppelin/contracts/access/Ownable.sol\":955:967  _msgSender() */\n  0x20\n  shr\n  jump\t// in\ntag_8:\n    /* \"@openzeppelin/contracts/access/Ownable.sol\":936:954  _transferOwnership */\n  shl(0x20, tag_10)\n    /* \"@openzeppelin/contracts/access/Ownable.sol\":936:968  _transferOwnership(_msgSender()) */\n  0x20\n  shr\n  jump\t// in\ntag_7:\n    /* \"contracts/Vote.sol\":1889:1931  _setupRole(DEFAULT_ADMIN_ROLE, msg.sender) */\n  tag_12\n    /* \"@openzeppelin/contracts/access/AccessControl.sol\":2072:2076  0x00 */\n  0x00\n    /* \"contracts/Vote.sol\":1900:1918  DEFAULT_ADMIN_ROLE */\n  dup1\n  shl\n    /* \"contracts/Vote.sol\":1920:1930  msg.sender */\n  caller\n    /* \"contracts/Vote.sol\":1889:1899  _setupRole */\n  shl(0x20, tag_13)\n    /* \"contracts/Vote.sol\":1889:1931  _setupRole(DEFAULT_ADMIN_ROLE, msg.sender) */\n  0x20\n  shr\n  jump\t// in\ntag_12:\n    /* \"contracts/Vote.sol\":311:3980  contract Vote is Ownable, AccessControl {... */\n  jump(tag_14)\n    /* \"@openzeppelin/contracts/utils/Context.sol\":640:736  function _msgSender() internal view virtual returns (address) {... */\ntag_9:\n    /* \"@openzeppelin/contracts/utils/Context.sol\":693:700  address */\n  0x00\n    /* \"@openzeppelin/contracts/utils/Context.sol\":719:729  msg.sender */\n  caller\n    /* \"@openzeppelin/contracts/utils/Context.sol\":712:729  return msg.sender */\n  swap1\n  pop\n    /* \"@openzeppelin/contracts/utils/Context.sol\":640:736  function _msgSender() internal view virtual returns (address) {... */\n  swap1\n  jump\t// out\n    /* \"@openzeppelin/contracts/access/Ownable.sol\":2433:2620  function _transferOwnership(address newOwner) internal virtual {... */\ntag_10:\n    /* \"@openzeppelin/contracts/access/Ownable.sol\":2506:2522  address oldOwner */\n  0x00\n    /* \"@openzeppelin/contracts/access/Ownable.sol\":2525:2531  _owner */\n  dup1\n  0x00\n  swap1\n  sload\n  swap1\n  0x0100\n  exp\n  swap1\n  div\n  0xffffffffffffffffffffffffffffffffffffffff\n  and\n    /* \"@openzeppelin/contracts/access/Ownable.sol\":2506:2531  address oldOwner = _owner */\n  swap1\n  pop\n    /* \"@openzeppelin/contracts/access/Ownable.sol\":2550:2558  newOwner */\n  dup2\n    /* \"@openzeppelin/contracts/access/Ownable.sol\":2541:2547  _owner */\n  0x00\n  dup1\n    /* \"@openzeppelin/contracts/access/Ownable.sol\":2541:2558  _owner = newOwner */\n  0x0100\n  exp\n  dup2\n  sload\n  dup2\n  0xffffffffffffffffffffffffffffffffffffffff\n  mul\n  not\n  and\n  swap1\n  dup4\n  0xffffffffffffffffffffffffffffffffffffffff\n  and\n  mul\n  or\n  swap1\n  sstore\n  pop\n    /* \"@openzeppelin/contracts/access/Ownable.sol\":2604:2612  newOwner */\n  dup2\n    /* \"@openzeppelin/contracts/access/Ownable.sol\":2573:2613  OwnershipTransferred(oldOwner, newOwner) */\n  0xffffffffffffffffffffffffffffffffffffffff\n  and\n    /* \"@openzeppelin/contracts/access/Ownable.sol\":2594:2602  oldOwner */\n  dup2\n    /* \"@openzeppelin/contracts/access/Ownable.sol\":2573:2613  OwnershipTransferred(oldOwner, newOwner) */\n  0xffffffffffffffffffffffffffffffffffffffff\n  and\n  0x8be0079c531659141344cd1fd0a4f28419497f9722a3daafe3b4186f6b6457e0\n  mload(0x40)\n  mload(0x40)\n  dup1\n  swap2\n  sub\n  swap1\n  log3\n    /* \"@openzeppelin/contracts/access/Ownable.sol\":2496:2620  {... */\n  pop\n    /* \"@openzeppelin/contracts/access/Ownable.sol\":2433:2620  function _transferOwnership(address newOwner) internal virtual {... */\n  pop\n  jump\t// out\n    /* \"@openzeppelin/contracts/access/AccessControl.sol\":6824:6934  function _setupRole(bytes32 role, address account) internal virtual {... */\ntag_13:\n    /* \"@openzeppelin/contracts/access/AccessControl.sol\":6902:6927  _grantRole(role, account) */\n  tag_18\n    /* \"@openzeppelin/contracts/access/AccessControl.sol\":6913:6917  role */\n  dup3\n    /* \"@openzeppelin/contracts/access/AccessControl.sol\":6919:6926  account */\n  dup3\n    /* \"@openzeppelin/contracts/access/AccessControl.sol\":6902:6912  _grantRole */\n  shl(0x20, tag_19)\n    /* \"@openzeppelin/contracts/access/AccessControl.sol\":6902:6927  _grantRole(role, account) */\n  0x20\n  shr\n  jump\t// in\ntag_18:\n    /* \"@openzeppelin/contracts/access/AccessControl.sol\":6824:6934  function _setupRole(bytes32 role, address account) internal virtual {... */\n  pop\n  pop\n  jump\t// out\n    /* \"@openzeppelin/contracts/access/AccessControl.sol\":7474:7707  function _grantRole(bytes32 role, address account) internal virtual {... */\ntag_19:\n    /* \"@openzeppelin/contracts/access/AccessControl.sol\":7557:7579  hasRole(role, account) */\n  tag_21\n    /* \"@openzeppelin/contracts/access/AccessControl.sol\":7565:7569  role */\n  dup3\n    /* \"@openzeppelin/contracts/access/AccessControl.sol\":7571:7578  account */\n  dup3\n    /* \"@openzeppelin/contracts/access/AccessControl.sol\":7557:7564  hasRole */\n  shl(0x20, tag_22)\n    /* \"@openzeppelin/contracts/access/AccessControl.sol\":7557:7579  hasRole(role, account) */\n  0x20\n  shr\n  jump\t// in\ntag_21:\n    /* \"@openzeppelin/contracts/access/AccessControl.sol\":7552:7701  if (!hasRole(role, account)) {... */\n  tag_23\n  jumpi\n    /* \"@openzeppelin/contracts/access/AccessControl.sol\":7627:7631  true */\n  0x01\n    /* \"@openzeppelin/contracts/access/AccessControl.sol\":7595:7601  _roles */\n  dup1\n    /* \"@openzeppelin/contracts/access/AccessControl.sol\":7595:7607  _roles[role] */\n  0x00\n    /* \"@openzeppelin/contracts/access/AccessControl.sol\":7602:7606  role */\n  dup5\n    /* \"@openzeppelin/contracts/access/AccessControl.sol\":7595:7607  _roles[role] */\n  dup2\n  mstore\n  0x20\n  add\n  swap1\n  dup2\n  mstore\n  0x20\n  add\n  0x00\n  keccak256\n    /* \"@openzeppelin/contracts/access/AccessControl.sol\":7595:7615  _roles[role].members */\n  0x00\n  add\n    /* \"@openzeppelin/contracts/access/AccessControl.sol\":7595:7624  _roles[role].members[account] */\n  0x00\n    /* \"@openzeppelin/contracts/access/AccessControl.sol\":7616:7623  account */\n  dup4\n    /* \"@openzeppelin/contracts/access/AccessControl.sol\":7595:7624  _roles[role].members[account] */\n  0xffffffffffffffffffffffffffffffffffffffff\n  and\n  0xffffffffffffffffffffffffffffffffffffffff\n  and\n  dup2\n  mstore\n  0x20\n  add\n  swap1\n  dup2\n  mstore\n  0x20\n  add\n  0x00\n  keccak256\n  0x00\n    /* \"@openzeppelin/contracts/access/AccessControl.sol\":7595:7631  _roles[role].members[account] = true */\n  0x0100\n  exp\n  dup2\n  sload\n  dup2\n  0xff\n  mul\n  not\n  and\n  swap1\n  dup4\n  iszero\n  iszero\n  mul\n  or\n  swap1\n  sstore\n  pop\n    /* \"@openzeppelin/contracts/access/AccessControl.sol\":7677:7689  _msgSender() */\n  tag_24\n    /* \"@openzeppelin/contracts/access/AccessControl.sol\":7677:7687  _msgSender */\n  shl(0x20, tag_9)\n    /* \"@openzeppelin/contracts/access/AccessControl.sol\":7677:7689  _msgSender() */\n  0x20\n  shr\n  jump\t// in\ntag_24:\n    /* \"@openzeppelin/contracts/access/AccessControl.sol\":7650:7690  RoleGranted(role, account, _msgSender()) */\n  0xffffffffffffffffffffffffffffffffffffffff\n  and\n    /* \"@openzeppelin/contracts/access/AccessControl.sol\":7668:7675  account */\n  dup2\n    /* \"@openzeppelin/contracts/access/AccessControl.sol\":7650:7690  RoleGranted(role, account, _msgSender()) */\n  0xffffffffffffffffffffffffffffffffffffffff\n  and\n    /* \"@openzeppelin/contracts/access/AccessControl.sol\":7662:7666  role */\n  dup4\n    /* \"@openzeppelin/contracts/access/AccessControl.sol\":7650:7690  RoleGranted(role, account, _msgSender()) */\n  0x2f8788117e7eff1d82e926ec794901d17c78024a50270940304540a733656f0d\n  mload(0x40)\n  mload(0x40)\n  dup1\n  swap2\n  sub\n  swap1\n  log4\n    /* \"@openzeppelin/contracts/access/AccessControl.sol\":7552:7701  if (!hasRole(role, account)) {... */\ntag_23:\n    /* \"@openzeppelin/contracts/access/AccessControl.sol\":7474:7707  function _grantRole(bytes32 role, address account) internal virtual {... */\n  pop\n  pop\n  jump\t// out\n    /* \"@openzeppelin/contracts/access/AccessControl.sol\":2895:3040  function hasRole(bytes32 role, address account) public view virtual override returns (bool) {... */\ntag_22:\n    /* \"@openzeppelin/contracts/access/AccessControl.sol\":2981:2985  bool */\n  0x00\n    /* \"@openzeppelin/contracts/access/AccessControl.sol\":3004:3010  _roles */\n  0x01\n    /* \"@openzeppelin/contracts/access/AccessControl.sol\":3004:3016  _roles[role] */\n  0x00\n    /* \"@openzeppelin/contracts/access/AccessControl.sol\":3011:3015  role */\n  dup5\n    /* \"@openzeppelin/contracts/access/AccessControl.sol\":3004:3016  _roles[role] */\n  dup2\n  mstore\n  0x20\n  add\n  swap1\n  dup2\n  mstore\n  0x20\n  add\n  0x00\n  keccak256\n    /* \"@openzeppelin/contracts/access/AccessControl.sol\":3004:3024  _roles[role].members */\n  0x00\n  add\n    /* \"@openzeppelin/contracts/access/AccessControl.sol\":3004:3033  _roles[role].members[account] */\n  0x00\n    /* \"@openzeppelin/contracts/access/AccessControl.sol\":3025:3032  account */\n  dup4\n    /* \"@openzeppelin/contracts/access/AccessControl.sol\":3004:3033  _roles[role].members[account] */\n  0xffffffffffffffffffffffffffffffffffffffff\n  and\n  0xffffffffffffffffffffffffffffffffffffffff\n  and\n  dup2\n  mstore\n  0x20\n  add\n  swap1\n  dup2\n  mstore\n  0x20\n  add\n  0x00\n  keccak256\n  0x00\n  swap1\n  sload\n  swap1\n  0x0100\n  exp\n  swap1\n  div\n  0xff\n  and\n    /* \"@openzeppelin/contracts/access/AccessControl.sol\":2997:3033  return _roles[role].members[account] */\n  swap1\n  pop\n    /* \"@openzeppelin/contracts/access/AccessControl.sol\":2895:3040  function hasRole(bytes32 role, address account) public view virtual override returns (bool) {... */\n  swap3\n  swap2\n  pop\n  pop\n  jump\t// out\n    /* \"contracts/Vote.sol\":311:3980  contract Vote is Ownable, AccessControl {... */\ntag_2:\n  dup3\n  dup1\n  sload\n  dup3\n  dup3\n  sstore\n  swap1\n  0x00\n  mstore\n  keccak256(0x00, 0x20)\n  swap1\n  dup2\n  add\n  swap3\n  dup3\n  iszero\n  tag_26\n  jumpi\n  swap2\n  0x20\n  mul\n  dup3\n  add\ntag_27:\n  dup3\n  dup2\n  gt\n  iszero\n  tag_28\n  jumpi\n  dup3\n  mload\n  dup3\n  swap1\n  dup1\n  mload\n  swap1\n  0x20\n  add\n  swap1\n  tag_29\n  swap3\n  swap2\n  swap1\n  tag_30\n  jump\t// in\ntag_29:\n  pop\n  swap2\n  0x20\n  add\n  swap2\n  swap1\n  0x01\n  add\n  swap1\n  jump(tag_27)\ntag_28:\ntag_26:\n  pop\n  swap1\n  pop\n  tag_31\n  swap2\n  swap1\n  tag_32\n  jump\t// in\ntag_31:\n  pop\n  swap1\n  jump\t// out\ntag_30:\n  dup3\n  dup1\n  sload\n  tag_33\n  swap1\n  tag_34\n  jump\t// in\ntag_33:\n  swap1\n  0x00\n  mstore\n  keccak256(0x00, 0x20)\n  swap1\n  0x1f\n  add\n  0x20\n  swap1\n  div\n  dup2\n  add\n  swap3\n  dup3\n  tag_36\n  jumpi\n  0x00\n  dup6\n  sstore\n  jump(tag_35)\ntag_36:\n  dup3\n  0x1f\n  lt\n  tag_37\n  jumpi\n  dup1\n  mload\n  not(0xff)\n  and\n  dup4\n  dup1\n  add\n  or\n  dup6\n  sstore\n  jump(tag_35)\ntag_37:\n  dup3\n  dup1\n  add\n  0x01\n  add\n  dup6\n  sstore\n  dup3\n  iszero\n  tag_35\n  jumpi\n  swap2\n  dup3\n  add\ntag_38:\n  dup3\n  dup2\n  gt\n  iszero\n  tag_39\n  jumpi\n  dup3\n  mload\n  dup3\n  sstore\n  swap2\n  0x20\n  add\n  swap2\n  swap1\n  0x01\n  add\n  swap1\n  jump(tag_38)\ntag_39:\ntag_35:\n  pop\n  swap1\n  pop\n  tag_40\n  swap2\n  swap1\n  tag_41\n  jump\t// in\ntag_40:\n  pop\n  swap1\n  jump\t// out\ntag_32:\ntag_42:\n  dup1\n  dup3\n  gt\n  iszero\n  tag_43\n  jumpi\n  0x00\n  dup2\n  dup2\n  tag_44\n  swap2\n  swap1\n  tag_45\n  jump\t// in\ntag_44:\n  pop\n  0x01\n  add\n  jump(tag_42)\ntag_43:\n  pop\n  swap1\n  jump\t// out\ntag_41:\ntag_46:\n  dup1\n  dup3\n  gt\n  iszero\n  tag_47\n  jumpi\n  0x00\n  dup2\n  0x00\n  swap1\n  sstore\n  pop\n  0x01\n  add\n  jump(tag_46)\ntag_47:\n  pop\n  swap1\n  jump\t// out\ntag_45:\n  pop\n  dup1\n  sload\n  tag_48\n  swap1\n  tag_34\n  jump\t// in\ntag_48:\n  0x00\n  dup3\n  sstore\n  dup1\n  0x1f\n  lt\n  tag_50\n  jumpi\n  pop\n  jump(tag_49)\ntag_50:\n  0x1f\n  add\n  0x20\n  swap1\n  div\n  swap1\n  0x00\n  mstore\n  keccak256(0x00, 0x20)\n  swap1\n  dup2\n  add\n  swap1\n  tag_51\n  swap2\n  swap1\n  tag_41\n  jump\t// in\ntag_51:\ntag_49:\n  pop\n  jump\t// out\n    /* \"#utility.yul\":7:327   */\ntag_34:\n    /* \"#utility.yul\":51:57   */\n  0x00\n    /* \"#utility.yul\":88:89   */\n  0x02\n    /* \"#utility.yul\":82:86   */\n  dup3\n    /* \"#utility.yul\":78:90   */\n  div\n    /* \"#utility.yul\":68:90   */\n  swap1\n  pop\n    /* \"#utility.yul\":135:136   */\n  0x01\n    /* \"#utility.yul\":129:133   */\n  dup3\n    /* \"#utility.yul\":125:137   */\n  and\n    /* \"#utility.yul\":156:174   */\n  dup1\n    /* \"#utility.yul\":146:227   */\n  tag_54\n  jumpi\n    /* \"#utility.yul\":212:216   */\n  0x7f\n    /* \"#utility.yul\":204:210   */\n  dup3\n    /* \"#utility.yul\":200:217   */\n  and\n    /* \"#utility.yul\":190:217   */\n  swap2\n  pop\n    /* \"#utility.yul\":146:227   */\ntag_54:\n    /* \"#utility.yul\":274:276   */\n  0x20\n    /* \"#utility.yul\":266:272   */\n  dup3\n    /* \"#utility.yul\":263:277   */\n  lt\n    /* \"#utility.yul\":243:261   */\n  dup2\n    /* \"#utility.yul\":240:278   */\n  eq\n    /* \"#utility.yul\":237:321   */\n  iszero\n  tag_55\n  jumpi\n    /* \"#utility.yul\":293:311   */\n  tag_56\n  tag_57\n  jump\t// in\ntag_56:\n    /* \"#utility.yul\":237:321   */\ntag_55:\n    /* \"#utility.yul\":58:327   */\n  pop\n    /* \"#utility.yul\":7:327   */\n  swap2\n  swap1\n  pop\n  jump\t// out\n    /* \"#utility.yul\":333:513   */\ntag_57:\n    /* \"#utility.yul\":381:458   */\n  0x4e487b7100000000000000000000000000000000000000000000000000000000\n    /* \"#utility.yul\":378:379   */\n  0x00\n    /* \"#utility.yul\":371:459   */\n  mstore\n    /* \"#utility.yul\":478:482   */\n  0x22\n    /* \"#utility.yul\":475:476   */\n  0x04\n    /* \"#utility.yul\":468:483   */\n  mstore\n    /* \"#utility.yul\":502:506   */\n  0x24\n    /* \"#utility.yul\":499:500   */\n  0x00\n    /* \"#utility.yul\":492:507   */\n  revert\n    /* \"contracts/Vote.sol\":311:3980  contract Vote is Ownable, AccessControl {... */\ntag_14:\n  dataSize(sub_0)\n  dup1\n  dataOffset(sub_0)\n  0x00\n  codecopy\n  0x00\n  return\nstop\n\nsub_0: assembly {\n        /* \"contracts/Vote.sol\":311:3980  contract Vote is Ownable, AccessControl {... */\n      mstore(0x40, 0x80)\n      jumpi(tag_1, lt(calldatasize, 0x04))\n      shr(0xe0, calldataload(0x00))\n      dup1\n      0x91d14854\n      gt\n      tag_24\n      jumpi\n      dup1\n      0xa94015c8\n      gt\n      tag_25\n      jumpi\n      dup1\n      0xa94015c8\n      eq\n      tag_18\n      jumpi\n      dup1\n      0xd547741f\n      eq\n      tag_19\n      jumpi\n      dup1\n      0xd59d2a58\n      eq\n      tag_20\n      jumpi\n      dup1\n      0xd9d55ba0\n      eq\n      tag_21\n      jumpi\n      dup1\n      0xdfd8459e\n      eq\n      tag_22\n      jumpi\n      dup1\n      0xf2fde38b\n      eq\n      tag_23\n      jumpi\n      jump(tag_1)\n    tag_25:\n      dup1\n      0x91d14854\n      eq\n      tag_13\n      jumpi\n      dup1\n      0x9c35d98b\n      eq\n      tag_14\n      jumpi\n      dup1\n      0x9d710777\n      eq\n      tag_15\n      jumpi\n      dup1\n      0x9e5f0349\n      eq\n      tag_16\n      jumpi\n      dup1\n      0xa217fddf\n      eq\n      tag_17\n      jumpi\n      jump(tag_1)\n    tag_24:\n      dup1\n      0x2f2ff15d\n      gt\n      tag_26\n      jumpi\n      dup1\n      0x2f2ff15d\n      eq\n      tag_7\n      jumpi\n      dup1\n      0x314fd68f\n      eq\n      tag_8\n      jumpi\n      dup1\n      0x36568abe\n      eq\n      tag_9\n      jumpi\n      dup1\n      0x4f05dba8\n      eq\n      tag_10\n      jumpi\n      dup1\n      0x715018a6\n      eq\n      tag_11\n      jumpi\n      dup1\n      0x8da5cb5b\n      eq\n      tag_12\n      jumpi\n      jump(tag_1)\n    tag_26:\n      dup1\n      0x01ffc9a7\n      eq\n      tag_2\n      jumpi\n      dup1\n      0x14ad08ba\n      eq\n      tag_3\n      jumpi\n      dup1\n      0x248a9ca3\n      eq\n      tag_4\n      jumpi\n      dup1\n      0x290e9212\n      eq\n      tag_5\n      jumpi\n      dup1\n      0x2e0d37bb\n      eq\n      tag_6\n      jumpi\n    tag_1:\n      0x00\n      dup1\n      revert\n        /* \"@openzeppelin/contracts/access/AccessControl.sol\":2606:2808  function supportsInterface(bytes4 interfaceId) public view virtual override returns (bool) {... */\n    tag_2:\n      callvalue\n      dup1\n      iszero\n      tag_27\n      jumpi\n      0x00\n      dup1\n      revert\n    tag_27:\n      pop\n      tag_28\n      0x04\n      dup1\n      calldatasize\n      sub\n      dup2\n      add\n      swap1\n      tag_29\n      swap2\n      swap1\n      tag_30\n      jump\t// in\n    tag_29:\n      tag_31\n      jump\t// in\n    tag_28:\n      mload(0x40)\n      tag_32\n      swap2\n      swap1\n      tag_33\n      jump\t// in\n    tag_32:\n      mload(0x40)\n      dup1\n      swap2\n      sub\n      swap1\n      return\n        /* \"contracts/Vote.sol\":3458:3583  function Voting(uint256 partyNum) payable public {... */\n    tag_3:\n      tag_34\n      0x04\n      dup1\n      calldatasize\n      sub\n      dup2\n      add\n      swap1\n      tag_35\n      swap2\n      swap1\n      tag_36\n      jump\t// in\n    tag_35:\n      tag_37\n      jump\t// in\n    tag_34:\n      stop\n        /* \"@openzeppelin/contracts/access/AccessControl.sol\":4391:4520  function getRoleAdmin(bytes32 role) public view virtual override returns (bytes32) {... */\n    tag_4:\n      callvalue\n      dup1\n      iszero\n      tag_38\n      jumpi\n      0x00\n      dup1\n      revert\n    tag_38:\n      pop\n      tag_39\n      0x04\n      dup1\n      calldatasize\n      sub\n      dup2\n      add\n      swap1\n      tag_40\n      swap2\n      swap1\n      tag_41\n      jump\t// in\n    tag_40:\n      tag_42\n      jump\t// in\n    tag_39:\n      mload(0x40)\n      tag_43\n      swap2\n      swap1\n      tag_44\n      jump\t// in\n    tag_43:\n      mload(0x40)\n      dup1\n      swap2\n      sub\n      swap1\n      return\n        /* \"contracts/Vote.sol\":1102:1149  mapping(uint256 => candidate) public Candidates */\n    tag_5:\n      callvalue\n      dup1\n      iszero\n      tag_45\n      jumpi\n      0x00\n      dup1\n      revert\n    tag_45:\n      pop\n      tag_46\n      0x04\n      dup1\n      calldatasize\n      sub\n      dup2\n      add\n      swap1\n      tag_47\n      swap2\n      swap1\n      tag_36\n      jump\t// in\n    tag_47:\n      tag_48\n      jump\t// in\n    tag_46:\n      mload(0x40)\n      tag_49\n      swap4\n      swap3\n      swap2\n      swap1\n      tag_50\n      jump\t// in\n    tag_49:\n      mload(0x40)\n      dup1\n      swap2\n      sub\n      swap1\n      return\n        /* \"contracts/Vote.sol\":517:580  bytes32 public constant INEC_EXEC_ROLE = keccak256(\"INEC_EXEC\") */\n    tag_6:\n      callvalue\n      dup1\n      iszero\n      tag_51\n      jumpi\n      0x00\n      dup1\n      revert\n    tag_51:\n      pop\n      tag_52\n      tag_53\n      jump\t// in\n    tag_52:\n      mload(0x40)\n      tag_54\n      swap2\n      swap1\n      tag_44\n      jump\t// in\n    tag_54:\n      mload(0x40)\n      dup1\n      swap2\n      sub\n      swap1\n      return\n        /* \"@openzeppelin/contracts/access/AccessControl.sol\":4816:4961  function grantRole(bytes32 role, address account) public virtual override onlyRole(getRoleAdmin(role)) {... */\n    tag_7:\n      callvalue\n      dup1\n      iszero\n      tag_55\n      jumpi\n      0x00\n      dup1\n      revert\n    tag_55:\n      pop\n      tag_56\n      0x04\n      dup1\n      calldatasize\n      sub\n      dup2\n      add\n      swap1\n      tag_57\n      swap2\n      swap1\n      tag_58\n      jump\t// in\n    tag_57:\n      tag_59\n      jump\t// in\n    tag_56:\n      stop\n        /* \"contracts/Vote.sol\":457:510  string [] public party = [\"APC\", \"PDP\", \"LP\", \"NNPP\"] */\n    tag_8:\n      callvalue\n      dup1\n      iszero\n      tag_60\n      jumpi\n      0x00\n      dup1\n      revert\n    tag_60:\n      pop\n      tag_61\n      0x04\n      dup1\n      calldatasize\n      sub\n      dup2\n      add\n      swap1\n      tag_62\n      swap2\n      swap1\n      tag_36\n      jump\t// in\n    tag_62:\n      tag_63\n      jump\t// in\n    tag_61:\n      mload(0x40)\n      tag_64\n      swap2\n      swap1\n      tag_65\n      jump\t// in\n    tag_64:\n      mload(0x40)\n      dup1\n      swap2\n      sub\n      swap1\n      return\n        /* \"@openzeppelin/contracts/access/AccessControl.sol\":5925:6139  function renounceRole(bytes32 role, address account) public virtual override {... */\n    tag_9:\n      callvalue\n      dup1\n      iszero\n      tag_66\n      jumpi\n      0x00\n      dup1\n      revert\n    tag_66:\n      pop\n      tag_67\n      0x04\n      dup1\n      calldatasize\n      sub\n      dup2\n      add\n      swap1\n      tag_68\n      swap2\n      swap1\n      tag_58\n      jump\t// in\n    tag_68:\n      tag_69\n      jump\t// in\n    tag_67:\n      stop\n        /* \"contracts/Vote.sol\":3083:3452  function createElection(address[] memory _candidateNum, uint256 _date, uint256 _duration) public isInecExec {... */\n    tag_10:\n      callvalue\n      dup1\n      iszero\n      tag_70\n      jumpi\n      0x00\n      dup1\n      revert\n    tag_70:\n      pop\n      tag_71\n      0x04\n      dup1\n      calldatasize\n      sub\n      dup2\n      add\n      swap1\n      tag_72\n      swap2\n      swap1\n      tag_73\n      jump\t// in\n    tag_72:\n      tag_74\n      jump\t// in\n    tag_71:\n      stop\n        /* \"@openzeppelin/contracts/access/Ownable.sol\":1831:1932  function renounceOwnership() public virtual onlyOwner {... */\n    tag_11:\n      callvalue\n      dup1\n      iszero\n      tag_75\n      jumpi\n      0x00\n      dup1\n      revert\n    tag_75:\n      pop\n      tag_76\n      tag_77\n      jump\t// in\n    tag_76:\n      stop\n        /* \"@openzeppelin/contracts/access/Ownable.sol\":1201:1286  function owner() public view virtual returns (address) {... */\n    tag_12:\n      callvalue\n      dup1\n      iszero\n      tag_78\n      jumpi\n      0x00\n      dup1\n      revert\n    tag_78:\n      pop\n      tag_79\n      tag_80\n      jump\t// in\n    tag_79:\n      mload(0x40)\n      tag_81\n      swap2\n      swap1\n      tag_82\n      jump\t// in\n    tag_81:\n      mload(0x40)\n      dup1\n      swap2\n      sub\n      swap1\n      return\n        /* \"@openzeppelin/contracts/access/AccessControl.sol\":2895:3040  function hasRole(bytes32 role, address account) public view virtual override returns (bool) {... */\n    tag_13:\n      callvalue\n      dup1\n      iszero\n      tag_83\n      jumpi\n      0x00\n      dup1\n      revert\n    tag_83:\n      pop\n      tag_84\n      0x04\n      dup1\n      calldatasize\n      sub\n      dup2\n      add\n      swap1\n      tag_85\n      swap2\n      swap1\n      tag_58\n      jump\t// in\n    tag_85:\n      tag_86\n      jump\t// in\n    tag_84:\n      mload(0x40)\n      tag_87\n      swap2\n      swap1\n      tag_33\n      jump\t// in\n    tag_87:\n      mload(0x40)\n      dup1\n      swap2\n      sub\n      swap1\n      return\n        /* \"contracts/Vote.sol\":1224:1263  mapping(uint256 => voter) public Voters */\n    tag_14:\n      callvalue\n      dup1\n      iszero\n      tag_88\n      jumpi\n      0x00\n      dup1\n      revert\n    tag_88:\n      pop\n      tag_89\n      0x04\n      dup1\n      calldatasize\n      sub\n      dup2\n      add\n      swap1\n      tag_90\n      swap2\n      swap1\n      tag_36\n      jump\t// in\n    tag_90:\n      tag_91\n      jump\t// in\n    tag_89:\n      mload(0x40)\n      tag_92\n      swap5\n      swap4\n      swap3\n      swap2\n      swap1\n      tag_93\n      jump\t// in\n    tag_92:\n      mload(0x40)\n      dup1\n      swap2\n      sub\n      swap1\n      return\n        /* \"contracts/Vote.sol\":3863:3972  function getElection(uint256 num) public view returns (election memory){... */\n    tag_15:\n      callvalue\n      dup1\n      iszero\n      tag_94\n      jumpi\n      0x00\n      dup1\n      revert\n    tag_94:\n      pop\n      tag_95\n      0x04\n      dup1\n      calldatasize\n      sub\n      dup2\n      add\n      swap1\n      tag_96\n      swap2\n      swap1\n      tag_36\n      jump\t// in\n    tag_96:\n      tag_97\n      jump\t// in\n    tag_95:\n      mload(0x40)\n      tag_98\n      swap2\n      swap1\n      tag_99\n      jump\t// in\n    tag_98:\n      mload(0x40)\n      dup1\n      swap2\n      sub\n      swap1\n      return\n        /* \"contracts/Vote.sol\":3665:3782  function retrieveCandidate(uint256 num) public view returns (candidate memory){... */\n    tag_16:\n      callvalue\n      dup1\n      iszero\n      tag_100\n      jumpi\n      0x00\n      dup1\n      revert\n    tag_100:\n      pop\n      tag_101\n      0x04\n      dup1\n      calldatasize\n      sub\n      dup2\n      add\n      swap1\n      tag_102\n      swap2\n      swap1\n      tag_36\n      jump\t// in\n    tag_102:\n      tag_103\n      jump\t// in\n    tag_101:\n      mload(0x40)\n      tag_104\n      swap2\n      swap1\n      tag_105\n      jump\t// in\n    tag_104:\n      mload(0x40)\n      dup1\n      swap2\n      sub\n      swap1\n      return\n        /* \"@openzeppelin/contracts/access/AccessControl.sol\":2027:2076  bytes32 public constant DEFAULT_ADMIN_ROLE = 0x00 */\n    tag_17:\n      callvalue\n      dup1\n      iszero\n      tag_106\n      jumpi\n      0x00\n      dup1\n      revert\n    tag_106:\n      pop\n      tag_107\n      tag_108\n      jump\t// in\n    tag_107:\n      mload(0x40)\n      tag_109\n      swap2\n      swap1\n      tag_44\n      jump\t// in\n    tag_109:\n      mload(0x40)\n      dup1\n      swap2\n      sub\n      swap1\n      return\n        /* \"contracts/Vote.sol\":586:641  bytes32 public constant VOTER_ROLE = keccak256(\"VOTER\") */\n    tag_18:\n      callvalue\n      dup1\n      iszero\n      tag_110\n      jumpi\n      0x00\n      dup1\n      revert\n    tag_110:\n      pop\n      tag_111\n      tag_112\n      jump\t// in\n    tag_111:\n      mload(0x40)\n      tag_113\n      swap2\n      swap1\n      tag_44\n      jump\t// in\n    tag_113:\n      mload(0x40)\n      dup1\n      swap2\n      sub\n      swap1\n      return\n        /* \"@openzeppelin/contracts/access/AccessControl.sol\":5241:5388  function revokeRole(bytes32 role, address account) public virtual override onlyRole(getRoleAdmin(role)) {... */\n    tag_19:\n      callvalue\n      dup1\n      iszero\n      tag_114\n      jumpi\n      0x00\n      dup1\n      revert\n    tag_114:\n      pop\n      tag_115\n      0x04\n      dup1\n      calldatasize\n      sub\n      dup2\n      add\n      swap1\n      tag_116\n      swap2\n      swap1\n      tag_58\n      jump\t// in\n    tag_116:\n      tag_117\n      jump\t// in\n    tag_115:\n      stop\n        /* \"contracts/Vote.sol\":2376:2675  function createCandidate(string memory name, address candAddress, uint256 partyNum) public isInecExec {... */\n    tag_20:\n      callvalue\n      dup1\n      iszero\n      tag_118\n      jumpi\n      0x00\n      dup1\n      revert\n    tag_118:\n      pop\n      tag_119\n      0x04\n      dup1\n      calldatasize\n      sub\n      dup2\n      add\n      swap1\n      tag_120\n      swap2\n      swap1\n      tag_121\n      jump\t// in\n    tag_120:\n      tag_122\n      jump\t// in\n    tag_119:\n      stop\n        /* \"contracts/Vote.sol\":2773:2945  function regVoter(uint256 _nin) public {... */\n    tag_21:\n      callvalue\n      dup1\n      iszero\n      tag_123\n      jumpi\n      0x00\n      dup1\n      revert\n    tag_123:\n      pop\n      tag_124\n      0x04\n      dup1\n      calldatasize\n      sub\n      dup2\n      add\n      swap1\n      tag_125\n      swap2\n      swap1\n      tag_36\n      jump\t// in\n    tag_125:\n      tag_126\n      jump\t// in\n    tag_124:\n      stop\n        /* \"contracts/Vote.sol\":2056:2166  function createInecExec(address _account) public onlyOwner{... */\n    tag_22:\n      callvalue\n      dup1\n      iszero\n      tag_127\n      jumpi\n      0x00\n      dup1\n      revert\n    tag_127:\n      pop\n      tag_128\n      0x04\n      dup1\n      calldatasize\n      sub\n      dup2\n      add\n      swap1\n      tag_129\n      swap2\n      swap1\n      tag_130\n      jump\t// in\n    tag_129:\n      tag_131\n      jump\t// in\n    tag_128:\n      stop\n        /* \"@openzeppelin/contracts/access/Ownable.sol\":2081:2279  function transferOwnership(address newOwner) public virtual onlyOwner {... */\n    tag_23:\n      callvalue\n      dup1\n      iszero\n      tag_132\n      jumpi\n      0x00\n      dup1\n      revert\n    tag_132:\n      pop\n      tag_133\n      0x04\n      dup1\n      calldatasize\n      sub\n      dup2\n      add\n      swap1\n      tag_134\n      swap2\n      swap1\n      tag_130\n      jump\t// in\n    tag_134:\n      tag_135\n      jump\t// in\n    tag_133:\n      stop\n        /* \"@openzeppelin/contracts/access/AccessControl.sol\":2606:2808  function supportsInterface(bytes4 interfaceId) public view virtual override returns (bool) {... */\n    tag_31:\n        /* \"@openzeppelin/contracts/access/AccessControl.sol\":2691:2695  bool */\n      0x00\n        /* \"@openzeppelin/contracts/access/AccessControl.sol\":2729:2761  type(IAccessControl).interfaceId */\n      0x7965db0b00000000000000000000000000000000000000000000000000000000\n        /* \"@openzeppelin/contracts/access/AccessControl.sol\":2714:2761  interfaceId == type(IAccessControl).interfaceId */\n      not(0xffffffffffffffffffffffffffffffffffffffffffffffffffffffff)\n      and\n        /* \"@openzeppelin/contracts/access/AccessControl.sol\":2714:2725  interfaceId */\n      dup3\n        /* \"@openzeppelin/contracts/access/AccessControl.sol\":2714:2761  interfaceId == type(IAccessControl).interfaceId */\n      not(0xffffffffffffffffffffffffffffffffffffffffffffffffffffffff)\n      and\n      eq\n        /* \"@openzeppelin/contracts/access/AccessControl.sol\":2714:2801  interfaceId == type(IAccessControl).interfaceId || super.supportsInterface(interfaceId) */\n      dup1\n      tag_137\n      jumpi\n      pop\n        /* \"@openzeppelin/contracts/access/AccessControl.sol\":2765:2801  super.supportsInterface(interfaceId) */\n      tag_138\n        /* \"@openzeppelin/contracts/access/AccessControl.sol\":2789:2800  interfaceId */\n      dup3\n        /* \"@openzeppelin/contracts/access/AccessControl.sol\":2765:2788  super.supportsInterface */\n      tag_139\n        /* \"@openzeppelin/contracts/access/AccessControl.sol\":2765:2801  super.supportsInterface(interfaceId) */\n      jump\t// in\n    tag_138:\n        /* \"@openzeppelin/contracts/access/AccessControl.sol\":2714:2801  interfaceId == type(IAccessControl).interfaceId || super.supportsInterface(interfaceId) */\n    tag_137:\n        /* \"@openzeppelin/contracts/access/AccessControl.sol\":2707:2801  return interfaceId == type(IAccessControl).interfaceId || super.supportsInterface(interfaceId) */\n      swap1\n      pop\n        /* \"@openzeppelin/contracts/access/AccessControl.sol\":2606:2808  function supportsInterface(bytes4 interfaceId) public view virtual override returns (bool) {... */\n      swap2\n      swap1\n      pop\n      jump\t// out\n        /* \"contracts/Vote.sol\":3458:3583  function Voting(uint256 partyNum) payable public {... */\n    tag_37:\n        /* \"contracts/Vote.sol\":3538:3545  voteFee */\n      sload(0x02)\n        /* \"contracts/Vote.sol\":3525:3534  msg.value */\n      callvalue\n        /* \"contracts/Vote.sol\":3525:3545  msg.value >= voteFee */\n      lt\n      iszero\n        /* \"contracts/Vote.sol\":3517:3576  require(msg.value >= voteFee, \"Vote Fee is not sufficient\") */\n      tag_141\n      jumpi\n      mload(0x40)\n      0x08c379a000000000000000000000000000000000000000000000000000000000\n      dup2\n      mstore\n      0x04\n      add\n      tag_142\n      swap1\n      tag_143\n      jump\t// in\n    tag_142:\n      mload(0x40)\n      dup1\n      swap2\n      sub\n      swap1\n      revert\n    tag_141:\n        /* \"contracts/Vote.sol\":3458:3583  function Voting(uint256 partyNum) payable public {... */\n      pop\n      jump\t// out\n        /* \"@openzeppelin/contracts/access/AccessControl.sol\":4391:4520  function getRoleAdmin(bytes32 role) public view virtual override returns (bytes32) {... */\n    tag_42:\n        /* \"@openzeppelin/contracts/access/AccessControl.sol\":4465:4472  bytes32 */\n      0x00\n        /* \"@openzeppelin/contracts/access/AccessControl.sol\":4491:4497  _roles */\n      0x01\n        /* \"@openzeppelin/contracts/access/AccessControl.sol\":4491:4503  _roles[role] */\n      0x00\n        /* \"@openzeppelin/contracts/access/AccessControl.sol\":4498:4502  role */\n      dup4\n        /* \"@openzeppelin/contracts/access/AccessControl.sol\":4491:4503  _roles[role] */\n      dup2\n      mstore\n      0x20\n      add\n      swap1\n      dup2\n      mstore\n      0x20\n      add\n      0x00\n      keccak256\n        /* \"@openzeppelin/contracts/access/AccessControl.sol\":4491:4513  _roles[role].adminRole */\n      0x01\n      add\n      sload\n        /* \"@openzeppelin/contracts/access/AccessControl.sol\":4484:4513  return _roles[role].adminRole */\n      swap1\n      pop\n        /* \"@openzeppelin/contracts/access/AccessControl.sol\":4391:4520  function getRoleAdmin(bytes32 role) public view virtual override returns (bytes32) {... */\n      swap2\n      swap1\n      pop\n      jump\t// out\n        /* \"contracts/Vote.sol\":1102:1149  mapping(uint256 => candidate) public Candidates */\n    tag_48:\n      mstore(0x20, 0x07)\n      dup1\n      0x00\n      mstore\n      keccak256(0x00, 0x40)\n      0x00\n      swap2\n      pop\n      swap1\n      pop\n      dup1\n      0x00\n      add\n      dup1\n      sload\n      tag_145\n      swap1\n      tag_146\n      jump\t// in\n    tag_145:\n      dup1\n      0x1f\n      add\n      0x20\n      dup1\n      swap2\n      div\n      mul\n      0x20\n      add\n      mload(0x40)\n      swap1\n      dup2\n      add\n      0x40\n      mstore\n      dup1\n      swap3\n      swap2\n      swap1\n      dup2\n      dup2\n      mstore\n      0x20\n      add\n      dup3\n      dup1\n      sload\n      tag_147\n      swap1\n      tag_146\n      jump\t// in\n    tag_147:\n      dup1\n      iszero\n      tag_148\n      jumpi\n      dup1\n      0x1f\n      lt\n      tag_149\n      jumpi\n      0x0100\n      dup1\n      dup4\n      sload\n      div\n      mul\n      dup4\n      mstore\n      swap2\n      0x20\n      add\n      swap2\n      jump(tag_148)\n    tag_149:\n      dup3\n      add\n      swap2\n      swap1\n      0x00\n      mstore\n      keccak256(0x00, 0x20)\n      swap1\n    tag_150:\n      dup2\n      sload\n      dup2\n      mstore\n      swap1\n      0x01\n      add\n      swap1\n      0x20\n      add\n      dup1\n      dup4\n      gt\n      tag_150\n      jumpi\n      dup3\n      swap1\n      sub\n      0x1f\n      and\n      dup3\n      add\n      swap2\n    tag_148:\n      pop\n      pop\n      pop\n      pop\n      pop\n      swap1\n      dup1\n      0x01\n      add\n      0x00\n      swap1\n      sload\n      swap1\n      0x0100\n      exp\n      swap1\n      div\n      0xffffffffffffffffffffffffffffffffffffffff\n      and\n      swap1\n      dup1\n      0x02\n      add\n      dup1\n      sload\n      tag_151\n      swap1\n      tag_146\n      jump\t// in\n    tag_151:\n      dup1\n      0x1f\n      add\n      0x20\n      dup1\n      swap2\n      div\n      mul\n      0x20\n      add\n      mload(0x40)\n      swap1\n      dup2\n      add\n      0x40\n      mstore\n      dup1\n      swap3\n      swap2\n      swap1\n      dup2\n      dup2\n      mstore\n      0x20\n      add\n      dup3\n      dup1\n      sload\n      tag_152\n      swap1\n      tag_146\n      jump\t// in\n    tag_152:\n      dup1\n      iszero\n      tag_153\n      jumpi\n      dup1\n      0x1f\n      lt\n      tag_154\n      jumpi\n      0x0100\n      dup1\n      dup4\n      sload\n      div\n      mul\n      dup4\n      mstore\n      swap2\n      0x20\n      add\n      swap2\n      jump(tag_153)\n    tag_154:\n      dup3\n      add\n      swap2\n      swap1\n      0x00\n      mstore\n      keccak256(0x00, 0x20)\n      swap1\n    tag_155:\n      dup2\n      sload\n      dup2\n      mstore\n      swap1\n      0x01\n      add\n      swap1\n      0x20\n      add\n      dup1\n      dup4\n      gt\n      tag_155\n      jumpi\n      dup3\n      swap1\n      sub\n      0x1f\n      and\n      dup3\n      add\n      swap2\n    tag_153:\n      pop\n      pop\n      pop\n      pop\n      pop\n      swap1\n      pop\n      dup4\n      jump\t// out\n        /* \"contracts/Vote.sol\":517:580  bytes32 public constant INEC_EXEC_ROLE = keccak256(\"INEC_EXEC\") */\n    tag_53:\n        /* \"contracts/Vote.sol\":558:580  keccak256(\"INEC_EXEC\") */\n      0x082f6ed76e0352438e6a6e35c77719c3f04bf277fdc8fec7e5ff5f65e001d902\n        /* \"contracts/Vote.sol\":517:580  bytes32 public constant INEC_EXEC_ROLE = keccak256(\"INEC_EXEC\") */\n      dup2\n      jump\t// out\n        /* \"@openzeppelin/contracts/access/AccessControl.sol\":4816:4961  function grantRole(bytes32 role, address account) public virtual override onlyRole(getRoleAdmin(role)) {... */\n    tag_59:\n        /* \"@openzeppelin/contracts/access/AccessControl.sol\":4899:4917  getRoleAdmin(role) */\n      tag_156\n        /* \"@openzeppelin/contracts/access/AccessControl.sol\":4912:4916  role */\n      dup3\n        /* \"@openzeppelin/contracts/access/AccessControl.sol\":4899:4911  getRoleAdmin */\n      tag_42\n        /* \"@openzeppelin/contracts/access/AccessControl.sol\":4899:4917  getRoleAdmin(role) */\n      jump\t// in\n    tag_156:\n        /* \"@openzeppelin/contracts/access/AccessControl.sol\":2505:2521  _checkRole(role) */\n      tag_158\n        /* \"@openzeppelin/contracts/access/AccessControl.sol\":2516:2520  role */\n      dup2\n        /* \"@openzeppelin/contracts/access/AccessControl.sol\":2505:2515  _checkRole */\n      tag_159\n        /* \"@openzeppelin/contracts/access/AccessControl.sol\":2505:2521  _checkRole(role) */\n      jump\t// in\n    tag_158:\n        /* \"@openzeppelin/contracts/access/AccessControl.sol\":4929:4954  _grantRole(role, account) */\n      tag_161\n        /* \"@openzeppelin/contracts/access/AccessControl.sol\":4940:4944  role */\n      dup4\n        /* \"@openzeppelin/contracts/access/AccessControl.sol\":4946:4953  account */\n      dup4\n        /* \"@openzeppelin/contracts/access/AccessControl.sol\":4929:4939  _grantRole */\n      tag_162\n        /* \"@openzeppelin/contracts/access/AccessControl.sol\":4929:4954  _grantRole(role, account) */\n      jump\t// in\n    tag_161:\n        /* \"@openzeppelin/contracts/access/AccessControl.sol\":4816:4961  function grantRole(bytes32 role, address account) public virtual override onlyRole(getRoleAdmin(role)) {... */\n      pop\n      pop\n      pop\n      jump\t// out\n        /* \"contracts/Vote.sol\":457:510  string [] public party = [\"APC\", \"PDP\", \"LP\", \"NNPP\"] */\n    tag_63:\n      0x06\n      dup2\n      dup2\n      sload\n      dup2\n      lt\n      tag_163\n      jumpi\n      0x00\n      dup1\n      revert\n    tag_163:\n      swap1\n      0x00\n      mstore\n      keccak256(0x00, 0x20)\n      add\n      0x00\n      swap2\n      pop\n      swap1\n      pop\n      dup1\n      sload\n      tag_165\n      swap1\n      tag_146\n      jump\t// in\n    tag_165:\n      dup1\n      0x1f\n      add\n      0x20\n      dup1\n      swap2\n      div\n      mul\n      0x20\n      add\n      mload(0x40)\n      swap1\n      dup2\n      add\n      0x40\n      mstore\n      dup1\n      swap3\n      swap2\n      swap1\n      dup2\n      dup2\n      mstore\n      0x20\n      add\n      dup3\n      dup1\n      sload\n      tag_166\n      swap1\n      tag_146\n      jump\t// in\n    tag_166:\n      dup1\n      iszero\n      tag_167\n      jumpi\n      dup1\n      0x1f\n      lt\n      tag_168\n      jumpi\n      0x0100\n      dup1\n      dup4\n      sload\n      div\n      mul\n      dup4\n      mstore\n      swap2\n      0x20\n      add\n      swap2\n      jump(tag_167)\n    tag_168:\n      dup3\n      add\n      swap2\n      swap1\n      0x00\n      mstore\n      keccak256(0x00, 0x20)\n      swap1\n    tag_169:\n      dup2\n      sload\n      dup2\n      mstore\n      swap1\n      0x01\n      add\n      swap1\n      0x20\n      add\n      dup1\n      dup4\n      gt\n      tag_169\n      jumpi\n      dup3\n      swap1\n      sub\n      0x1f\n      and\n      dup3\n      add\n      swap2\n    tag_167:\n      pop\n      pop\n      pop\n      pop\n      pop\n      dup2\n      jump\t// out\n        /* \"@openzeppelin/contracts/access/AccessControl.sol\":5925:6139  function renounceRole(bytes32 role, address account) public virtual override {... */\n    tag_69:\n        /* \"@openzeppelin/contracts/access/AccessControl.sol\":6031:6043  _msgSender() */\n      tag_171\n        /* \"@openzeppelin/contracts/access/AccessControl.sol\":6031:6041  _msgSender */\n      tag_172\n        /* \"@openzeppelin/contracts/access/AccessControl.sol\":6031:6043  _msgSender() */\n      jump\t// in\n    tag_171:\n        /* \"@openzeppelin/contracts/access/AccessControl.sol\":6020:6043  account == _msgSender() */\n      0xffffffffffffffffffffffffffffffffffffffff\n      and\n        /* \"@openzeppelin/contracts/access/AccessControl.sol\":6020:6027  account */\n      dup2\n        /* \"@openzeppelin/contracts/access/AccessControl.sol\":6020:6043  account == _msgSender() */\n      0xffffffffffffffffffffffffffffffffffffffff\n      and\n      eq\n        /* \"@openzeppelin/contracts/access/AccessControl.sol\":6012:6095  require(account == _msgSender(), \"AccessControl: can only renounce roles for self\") */\n      tag_173\n      jumpi\n      mload(0x40)\n      0x08c379a000000000000000000000000000000000000000000000000000000000\n      dup2\n      mstore\n      0x04\n      add\n      tag_174\n      swap1\n      tag_175\n      jump\t// in\n    tag_174:\n      mload(0x40)\n      dup1\n      swap2\n      sub\n      swap1\n      revert\n    tag_173:\n        /* \"@openzeppelin/contracts/access/AccessControl.sol\":6106:6132  _revokeRole(role, account) */\n      tag_176\n        /* \"@openzeppelin/contracts/access/AccessControl.sol\":6118:6122  role */\n      dup3\n        /* \"@openzeppelin/contracts/access/AccessControl.sol\":6124:6131  account */\n      dup3\n        /* \"@openzeppelin/contracts/access/AccessControl.sol\":6106:6117  _revokeRole */\n      tag_177\n        /* \"@openzeppelin/contracts/access/AccessControl.sol\":6106:6132  _revokeRole(role, account) */\n      jump\t// in\n    tag_176:\n        /* \"@openzeppelin/contracts/access/AccessControl.sol\":5925:6139  function renounceRole(bytes32 role, address account) public virtual override {... */\n      pop\n      pop\n      jump\t// out\n        /* \"contracts/Vote.sol\":3083:3452  function createElection(address[] memory _candidateNum, uint256 _date, uint256 _duration) public isInecExec {... */\n    tag_74:\n        /* \"contracts/Vote.sol\":1520:1555  hasRole(INEC_EXEC_ROLE, msg.sender) */\n      tag_179\n        /* \"contracts/Vote.sol\":558:580  keccak256(\"INEC_EXEC\") */\n      0x082f6ed76e0352438e6a6e35c77719c3f04bf277fdc8fec7e5ff5f65e001d902\n        /* \"contracts/Vote.sol\":1544:1554  msg.sender */\n      caller\n        /* \"contracts/Vote.sol\":1520:1527  hasRole */\n      tag_86\n        /* \"contracts/Vote.sol\":1520:1555  hasRole(INEC_EXEC_ROLE, msg.sender) */\n      jump\t// in\n    tag_179:\n        /* \"contracts/Vote.sol\":1512:1591  require(hasRole(INEC_EXEC_ROLE, msg.sender), \"Caller is not an INEC executive\") */\n      tag_180\n      jumpi\n      mload(0x40)\n      0x08c379a000000000000000000000000000000000000000000000000000000000\n      dup2\n      mstore\n      0x04\n      add\n      tag_181\n      swap1\n      tag_182\n      jump\t// in\n    tag_181:\n      mload(0x40)\n      dup1\n      swap2\n      sub\n      swap1\n      revert\n    tag_180:\n        /* \"contracts/Vote.sol\":3231:3236  _date */\n      dup2\n        /* \"contracts/Vote.sol\":3200:3209  Elections */\n      0x09\n        /* \"contracts/Vote.sol\":3200:3222  Elections[electionNum] */\n      0x00\n        /* \"contracts/Vote.sol\":3210:3221  electionNum */\n      sload(0x05)\n        /* \"contracts/Vote.sol\":3200:3222  Elections[electionNum] */\n      dup2\n      mstore\n      0x20\n      add\n      swap1\n      dup2\n      mstore\n      0x20\n      add\n      0x00\n      keccak256\n        /* \"contracts/Vote.sol\":3200:3228  Elections[electionNum].start */\n      0x02\n      add\n        /* \"contracts/Vote.sol\":3200:3236  Elections[electionNum].start = _date */\n      dup2\n      swap1\n      sstore\n      pop\n        /* \"contracts/Vote.sol\":3279:3288  _duration */\n      dup1\n        /* \"contracts/Vote.sol\":3245:3254  Elections */\n      0x09\n        /* \"contracts/Vote.sol\":3245:3267  Elections[electionNum] */\n      0x00\n        /* \"contracts/Vote.sol\":3255:3266  electionNum */\n      sload(0x05)\n        /* \"contracts/Vote.sol\":3245:3267  Elections[electionNum] */\n      dup2\n      mstore\n      0x20\n      add\n      swap1\n      dup2\n      mstore\n      0x20\n      add\n      0x00\n      keccak256\n        /* \"contracts/Vote.sol\":3245:3276  Elections[electionNum].duration */\n      0x03\n      add\n        /* \"contracts/Vote.sol\":3245:3288  Elections[electionNum].duration = _duration */\n      dup2\n      swap1\n      sstore\n      pop\n        /* \"contracts/Vote.sol\":3302:3308  uint i */\n      0x00\n        /* \"contracts/Vote.sol\":3298:3422  for(uint i = 0; i < _candidateNum.length; i++){... */\n    tag_184:\n        /* \"contracts/Vote.sol\":3318:3331  _candidateNum */\n      dup4\n        /* \"contracts/Vote.sol\":3318:3338  _candidateNum.length */\n      mload\n        /* \"contracts/Vote.sol\":3314:3315  i */\n      dup2\n        /* \"contracts/Vote.sol\":3314:3338  i < _candidateNum.length */\n      lt\n        /* \"contracts/Vote.sol\":3298:3422  for(uint i = 0; i < _candidateNum.length; i++){... */\n      iszero\n      tag_185\n      jumpi\n        /* \"contracts/Vote.sol\":3357:3366  Elections */\n      0x09\n        /* \"contracts/Vote.sol\":3357:3379  Elections[electionNum] */\n      0x00\n        /* \"contracts/Vote.sol\":3367:3378  electionNum */\n      sload(0x05)\n        /* \"contracts/Vote.sol\":3357:3379  Elections[electionNum] */\n      dup2\n      mstore\n      0x20\n      add\n      swap1\n      dup2\n      mstore\n      0x20\n      add\n      0x00\n      keccak256\n        /* \"contracts/Vote.sol\":3357:3389  Elections[electionNum].candidate */\n      0x00\n      add\n        /* \"contracts/Vote.sol\":3395:3408  _candidateNum */\n      dup5\n        /* \"contracts/Vote.sol\":3409:3410  i */\n      dup3\n        /* \"contracts/Vote.sol\":3395:3411  _candidateNum[i] */\n      dup2\n      mload\n      dup2\n      lt\n      tag_187\n      jumpi\n      tag_188\n      tag_189\n      jump\t// in\n    tag_188:\n    tag_187:\n      0x20\n      mul\n      0x20\n      add\n      add\n      mload\n        /* \"contracts/Vote.sol\":3357:3412  Elections[electionNum].candidate.push(_candidateNum[i]) */\n      swap1\n      dup1\n      0x01\n      dup2\n      sload\n      add\n      dup1\n      dup3\n      sstore\n      dup1\n      swap2\n      pop\n      pop\n      0x01\n      swap1\n      sub\n      swap1\n      0x00\n      mstore\n      keccak256(0x00, 0x20)\n      add\n      0x00\n      swap1\n      swap2\n      swap1\n      swap2\n      swap1\n      swap2\n      0x0100\n      exp\n      dup2\n      sload\n      dup2\n      0xffffffffffffffffffffffffffffffffffffffff\n      mul\n      not\n      and\n      swap1\n      dup4\n      0xffffffffffffffffffffffffffffffffffffffff\n      and\n      mul\n      or\n      swap1\n      sstore\n      pop\n        /* \"contracts/Vote.sol\":3340:3343  i++ */\n      dup1\n      dup1\n      tag_191\n      swap1\n      tag_192\n      jump\t// in\n    tag_191:\n      swap2\n      pop\n      pop\n        /* \"contracts/Vote.sol\":3298:3422  for(uint i = 0; i < _candidateNum.length; i++){... */\n      jump(tag_184)\n    tag_185:\n      pop\n        /* \"contracts/Vote.sol\":3431:3442  electionNum */\n      0x05\n      0x00\n        /* \"contracts/Vote.sol\":3431:3445  electionNum ++ */\n      dup2\n      sload\n      dup1\n      swap3\n      swap2\n      swap1\n      tag_193\n      swap1\n      tag_192\n      jump\t// in\n    tag_193:\n      swap2\n      swap1\n      pop\n      sstore\n      pop\n        /* \"contracts/Vote.sol\":3083:3452  function createElection(address[] memory _candidateNum, uint256 _date, uint256 _duration) public isInecExec {... */\n      pop\n      pop\n      pop\n      jump\t// out\n        /* \"@openzeppelin/contracts/access/Ownable.sol\":1831:1932  function renounceOwnership() public virtual onlyOwner {... */\n    tag_77:\n        /* \"@openzeppelin/contracts/access/Ownable.sol\":1094:1107  _checkOwner() */\n      tag_195\n        /* \"@openzeppelin/contracts/access/Ownable.sol\":1094:1105  _checkOwner */\n      tag_196\n        /* \"@openzeppelin/contracts/access/Ownable.sol\":1094:1107  _checkOwner() */\n      jump\t// in\n    tag_195:\n        /* \"@openzeppelin/contracts/access/Ownable.sol\":1895:1925  _transferOwnership(address(0)) */\n      tag_198\n        /* \"@openzeppelin/contracts/access/Ownable.sol\":1922:1923  0 */\n      0x00\n        /* \"@openzeppelin/contracts/access/Ownable.sol\":1895:1913  _transferOwnership */\n      tag_199\n        /* \"@openzeppelin/contracts/access/Ownable.sol\":1895:1925  _transferOwnership(address(0)) */\n      jump\t// in\n    tag_198:\n        /* \"@openzeppelin/contracts/access/Ownable.sol\":1831:1932  function renounceOwnership() public virtual onlyOwner {... */\n      jump\t// out\n        /* \"@openzeppelin/contracts/access/Ownable.sol\":1201:1286  function owner() public view virtual returns (address) {... */\n    tag_80:\n        /* \"@openzeppelin/contracts/access/Ownable.sol\":1247:1254  address */\n      0x00\n        /* \"@openzeppelin/contracts/access/Ownable.sol\":1273:1279  _owner */\n      dup1\n      0x00\n      swap1\n      sload\n      swap1\n      0x0100\n      exp\n      swap1\n      div\n      0xffffffffffffffffffffffffffffffffffffffff\n      and\n        /* \"@openzeppelin/contracts/access/Ownable.sol\":1266:1279  return _owner */\n      swap1\n      pop\n        /* \"@openzeppelin/contracts/access/Ownable.sol\":1201:1286  function owner() public view virtual returns (address) {... */\n      swap1\n      jump\t// out\n        /* \"@openzeppelin/contracts/access/AccessControl.sol\":2895:3040  function hasRole(bytes32 role, address account) public view virtual override returns (bool) {... */\n    tag_86:\n        /* \"@openzeppelin/contracts/access/AccessControl.sol\":2981:2985  bool */\n      0x00\n        /* \"@openzeppelin/contracts/access/AccessControl.sol\":3004:3010  _roles */\n      0x01\n        /* \"@openzeppelin/contracts/access/AccessControl.sol\":3004:3016  _roles[role] */\n      0x00\n        /* \"@openzeppelin/contracts/access/AccessControl.sol\":3011:3015  role */\n      dup5\n        /* \"@openzeppelin/contracts/access/AccessControl.sol\":3004:3016  _roles[role] */\n      dup2\n      mstore\n      0x20\n      add\n      swap1\n      dup2\n      mstore\n      0x20\n      add\n      0x00\n      keccak256\n        /* \"@openzeppelin/contracts/access/AccessControl.sol\":3004:3024  _roles[role].members */\n      0x00\n      add\n        /* \"@openzeppelin/contracts/access/AccessControl.sol\":3004:3033  _roles[role].members[account] */\n      0x00\n        /* \"@openzeppelin/contracts/access/AccessControl.sol\":3025:3032  account */\n      dup4\n        /* \"@openzeppelin/contracts/access/AccessControl.sol\":3004:3033  _roles[role].members[account] */\n      0xffffffffffffffffffffffffffffffffffffffff\n      and\n      0xffffffffffffffffffffffffffffffffffffffff\n      and\n      dup2\n      mstore\n      0x20\n      add\n      swap1\n      dup2\n      mstore\n      0x20\n      add\n      0x00\n      keccak256\n      0x00\n      swap1\n      sload\n      swap1\n      0x0100\n      exp\n      swap1\n      div\n      0xff\n      and\n        /* \"@openzeppelin/contracts/access/AccessControl.sol\":2997:3033  return _roles[role].members[account] */\n      swap1\n      pop\n        /* \"@openzeppelin/contracts/access/AccessControl.sol\":2895:3040  function hasRole(bytes32 role, address account) public view virtual override returns (bool) {... */\n      swap3\n      swap2\n      pop\n      pop\n      jump\t// out\n        /* \"contracts/Vote.sol\":1224:1263  mapping(uint256 => voter) public Voters */\n    tag_91:\n      mstore(0x20, 0x08)\n      dup1\n      0x00\n      mstore\n      keccak256(0x00, 0x40)\n      0x00\n      swap2\n      pop\n      swap1\n      pop\n      dup1\n      0x00\n      add\n      0x00\n      swap1\n      sload\n      swap1\n      0x0100\n      exp\n      swap1\n      div\n      0xffffffffffffffffffffffffffffffffffffffff\n      and\n      swap1\n      dup1\n      0x01\n      add\n      sload\n      swap1\n      dup1\n      0x02\n      add\n      sload\n      swap1\n      dup1\n      0x03\n      add\n      0x00\n      swap1\n      sload\n      swap1\n      0x0100\n      exp\n      swap1\n      div\n      0xff\n      and\n      swap1\n      pop\n      dup5\n      jump\t// out\n        /* \"contracts/Vote.sol\":3863:3972  function getElection(uint256 num) public view returns (election memory){... */\n    tag_97:\n        /* \"contracts/Vote.sol\":3918:3933  election memory */\n      tag_202\n      tag_203\n      jump\t// in\n    tag_202:\n        /* \"contracts/Vote.sol\":3951:3960  Elections */\n      0x09\n        /* \"contracts/Vote.sol\":3951:3965  Elections[num] */\n      0x00\n        /* \"contracts/Vote.sol\":3961:3964  num */\n      dup4\n        /* \"contracts/Vote.sol\":3951:3965  Elections[num] */\n      dup2\n      mstore\n      0x20\n      add\n      swap1\n      dup2\n      mstore\n      0x20\n      add\n      0x00\n      keccak256\n        /* \"contracts/Vote.sol\":3944:3965  return Elections[num] */\n      mload(0x40)\n      dup1\n      0xa0\n      add\n      0x40\n      mstore\n      swap1\n      dup2\n      0x00\n      dup3\n      add\n      dup1\n      sload\n      dup1\n      0x20\n      mul\n      0x20\n      add\n      mload(0x40)\n      swap1\n      dup2\n      add\n      0x40\n      mstore\n      dup1\n      swap3\n      swap2\n      swap1\n      dup2\n      dup2\n      mstore\n      0x20\n      add\n      dup3\n      dup1\n      sload\n      dup1\n      iszero\n      tag_205\n      jumpi\n      0x20\n      mul\n      dup3\n      add\n      swap2\n      swap1\n      0x00\n      mstore\n      keccak256(0x00, 0x20)\n      swap1\n    tag_206:\n      dup2\n      0x00\n      swap1\n      sload\n      swap1\n      0x0100\n      exp\n      swap1\n      div\n      0xffffffffffffffffffffffffffffffffffffffff\n      and\n      0xffffffffffffffffffffffffffffffffffffffff\n      and\n      dup2\n      mstore\n      0x20\n      add\n      swap1\n      0x01\n      add\n      swap1\n      dup1\n      dup4\n      gt\n      tag_206\n      jumpi\n    tag_205:\n      pop\n      pop\n      pop\n      pop\n      pop\n      dup2\n      mstore\n      0x20\n      add\n      0x01\n      dup3\n      add\n      dup1\n      sload\n      dup1\n      0x20\n      mul\n      0x20\n      add\n      mload(0x40)\n      swap1\n      dup2\n      add\n      0x40\n      mstore\n      dup1\n      swap3\n      swap2\n      swap1\n      dup2\n      dup2\n      mstore\n      0x20\n      add\n      dup3\n      dup1\n      sload\n      dup1\n      iszero\n      tag_207\n      jumpi\n      0x20\n      mul\n      dup3\n      add\n      swap2\n      swap1\n      0x00\n      mstore\n      keccak256(0x00, 0x20)\n      swap1\n    tag_208:\n      dup2\n      sload\n      dup2\n      mstore\n      0x20\n      add\n      swap1\n      0x01\n      add\n      swap1\n      dup1\n      dup4\n      gt\n      tag_208\n      jumpi\n    tag_207:\n      pop\n      pop\n      pop\n      pop\n      pop\n      dup2\n      mstore\n      0x20\n      add\n      0x02\n      dup3\n      add\n      sload\n      dup2\n      mstore\n      0x20\n      add\n      0x03\n      dup3\n      add\n      sload\n      dup2\n      mstore\n      0x20\n      add\n      0x04\n      dup3\n      add\n      0x00\n      swap1\n      sload\n      swap1\n      0x0100\n      exp\n      swap1\n      div\n      0xff\n      and\n      iszero\n      iszero\n      iszero\n      iszero\n      dup2\n      mstore\n      pop\n      pop\n      swap1\n      pop\n        /* \"contracts/Vote.sol\":3863:3972  function getElection(uint256 num) public view returns (election memory){... */\n      swap2\n      swap1\n      pop\n      jump\t// out\n        /* \"contracts/Vote.sol\":3665:3782  function retrieveCandidate(uint256 num) public view returns (candidate memory){... */\n    tag_103:\n        /* \"contracts/Vote.sol\":3726:3742  candidate memory */\n      tag_209\n      tag_210\n      jump\t// in\n    tag_209:\n        /* \"contracts/Vote.sol\":3760:3770  Candidates */\n      0x07\n        /* \"contracts/Vote.sol\":3760:3775  Candidates[num] */\n      0x00\n        /* \"contracts/Vote.sol\":3771:3774  num */\n      dup4\n        /* \"contracts/Vote.sol\":3760:3775  Candidates[num] */\n      dup2\n      mstore\n      0x20\n      add\n      swap1\n      dup2\n      mstore\n      0x20\n      add\n      0x00\n      keccak256\n        /* \"contracts/Vote.sol\":3753:3775  return Candidates[num] */\n      mload(0x40)\n      dup1\n      0x60\n      add\n      0x40\n      mstore\n      swap1\n      dup2\n      0x00\n      dup3\n      add\n      dup1\n      sload\n      tag_212\n      swap1\n      tag_146\n      jump\t// in\n    tag_212:\n      dup1\n      0x1f\n      add\n      0x20\n      dup1\n      swap2\n      div\n      mul\n      0x20\n      add\n      mload(0x40)\n      swap1\n      dup2\n      add\n      0x40\n      mstore\n      dup1\n      swap3\n      swap2\n      swap1\n      dup2\n      dup2\n      mstore\n      0x20\n      add\n      dup3\n      dup1\n      sload\n      tag_213\n      swap1\n      tag_146\n      jump\t// in\n    tag_213:\n      dup1\n      iszero\n      tag_214\n      jumpi\n      dup1\n      0x1f\n      lt\n      tag_215\n      jumpi\n      0x0100\n      dup1\n      dup4\n      sload\n      div\n      mul\n      dup4\n      mstore\n      swap2\n      0x20\n      add\n      swap2\n      jump(tag_214)\n    tag_215:\n      dup3\n      add\n      swap2\n      swap1\n      0x00\n      mstore\n      keccak256(0x00, 0x20)\n      swap1\n    tag_216:\n      dup2\n      sload\n      dup2\n      mstore\n      swap1\n      0x01\n      add\n      swap1\n      0x20\n      add\n      dup1\n      dup4\n      gt\n      tag_216\n      jumpi\n      dup3\n      swap1\n      sub\n      0x1f\n      and\n      dup3\n      add\n      swap2\n    tag_214:\n      pop\n      pop\n      pop\n      pop\n      pop\n      dup2\n      mstore\n      0x20\n      add\n      0x01\n      dup3\n      add\n      0x00\n      swap1\n      sload\n      swap1\n      0x0100\n      exp\n      swap1\n      div\n      0xffffffffffffffffffffffffffffffffffffffff\n      and\n      0xffffffffffffffffffffffffffffffffffffffff\n      and\n      0xffffffffffffffffffffffffffffffffffffffff\n      and\n      dup2\n      mstore\n      0x20\n      add\n      0x02\n      dup3\n      add\n      dup1\n      sload\n      tag_217\n      swap1\n      tag_146\n      jump\t// in\n    tag_217:\n      dup1\n      0x1f\n      add\n      0x20\n      dup1\n      swap2\n      div\n      mul\n      0x20\n      add\n      mload(0x40)\n      swap1\n      dup2\n      add\n      0x40\n      mstore\n      dup1\n      swap3\n      swap2\n      swap1\n      dup2\n      dup2\n      mstore\n      0x20\n      add\n      dup3\n      dup1\n      sload\n      tag_218\n      swap1\n      tag_146\n      jump\t// in\n    tag_218:\n      dup1\n      iszero\n      tag_219\n      jumpi\n      dup1\n      0x1f\n      lt\n      tag_220\n      jumpi\n      0x0100\n      dup1\n      dup4\n      sload\n      div\n      mul\n      dup4\n      mstore\n      swap2\n      0x20\n      add\n      swap2\n      jump(tag_219)\n    tag_220:\n      dup3\n      add\n      swap2\n      swap1\n      0x00\n      mstore\n      keccak256(0x00, 0x20)\n      swap1\n    tag_221:\n      dup2\n      sload\n      dup2\n      mstore\n      swap1\n      0x01\n      add\n      swap1\n      0x20\n      add\n      dup1\n      dup4\n      gt\n      tag_221\n      jumpi\n      dup3\n      swap1\n      sub\n      0x1f\n      and\n      dup3\n      add\n      swap2\n    tag_219:\n      pop\n      pop\n      pop\n      pop\n      pop\n      dup2\n      mstore\n      pop\n      pop\n      swap1\n      pop\n        /* \"contracts/Vote.sol\":3665:3782  function retrieveCandidate(uint256 num) public view returns (candidate memory){... */\n      swap2\n      swap1\n      pop\n      jump\t// out\n        /* \"@openzeppelin/contracts/access/AccessControl.sol\":2027:2076  bytes32 public constant DEFAULT_ADMIN_ROLE = 0x00 */\n    tag_108:\n        /* \"@openzeppelin/contracts/access/AccessControl.sol\":2072:2076  0x00 */\n      0x00\n        /* \"@openzeppelin/contracts/access/AccessControl.sol\":2027:2076  bytes32 public constant DEFAULT_ADMIN_ROLE = 0x00 */\n      dup1\n      shl\n      dup2\n      jump\t// out\n        /* \"contracts/Vote.sol\":586:641  bytes32 public constant VOTER_ROLE = keccak256(\"VOTER\") */\n    tag_112:\n        /* \"contracts/Vote.sol\":623:641  keccak256(\"VOTER\") */\n      0x15283fd96aa656c9df35ac2fcb112678a5f24f1ca97e591a97d1d16003dbfc9c\n        /* \"contracts/Vote.sol\":586:641  bytes32 public constant VOTER_ROLE = keccak256(\"VOTER\") */\n      dup2\n      jump\t// out\n        /* \"@openzeppelin/contracts/access/AccessControl.sol\":5241:5388  function revokeRole(bytes32 role, address account) public virtual override onlyRole(getRoleAdmin(role)) {... */\n    tag_117:\n        /* \"@openzeppelin/contracts/access/AccessControl.sol\":5325:5343  getRoleAdmin(role) */\n      tag_222\n        /* \"@openzeppelin/contracts/access/AccessControl.sol\":5338:5342  role */\n      dup3\n        /* \"@openzeppelin/contracts/access/AccessControl.sol\":5325:5337  getRoleAdmin */\n      tag_42\n        /* \"@openzeppelin/contracts/access/AccessControl.sol\":5325:5343  getRoleAdmin(role) */\n      jump\t// in\n    tag_222:\n        /* \"@openzeppelin/contracts/access/AccessControl.sol\":2505:2521  _checkRole(role) */\n      tag_224\n        /* \"@openzeppelin/contracts/access/AccessControl.sol\":2516:2520  role */\n      dup2\n        /* \"@openzeppelin/contracts/access/AccessControl.sol\":2505:2515  _checkRole */\n      tag_159\n        /* \"@openzeppelin/contracts/access/AccessControl.sol\":2505:2521  _checkRole(role) */\n      jump\t// in\n    tag_224:\n        /* \"@openzeppelin/contracts/access/AccessControl.sol\":5355:5381  _revokeRole(role, account) */\n      tag_226\n        /* \"@openzeppelin/contracts/access/AccessControl.sol\":5367:5371  role */\n      dup4\n        /* \"@openzeppelin/contracts/access/AccessControl.sol\":5373:5380  account */\n      dup4\n        /* \"@openzeppelin/contracts/access/AccessControl.sol\":5355:5366  _revokeRole */\n      tag_177\n        /* \"@openzeppelin/contracts/access/AccessControl.sol\":5355:5381  _revokeRole(role, account) */\n      jump\t// in\n    tag_226:\n        /* \"@openzeppelin/contracts/access/AccessControl.sol\":5241:5388  function revokeRole(bytes32 role, address account) public virtual override onlyRole(getRoleAdmin(role)) {... */\n      pop\n      pop\n      pop\n      jump\t// out\n        /* \"contracts/Vote.sol\":2376:2675  function createCandidate(string memory name, address candAddress, uint256 partyNum) public isInecExec {... */\n    tag_122:\n        /* \"contracts/Vote.sol\":1520:1555  hasRole(INEC_EXEC_ROLE, msg.sender) */\n      tag_228\n        /* \"contracts/Vote.sol\":558:580  keccak256(\"INEC_EXEC\") */\n      0x082f6ed76e0352438e6a6e35c77719c3f04bf277fdc8fec7e5ff5f65e001d902\n        /* \"contracts/Vote.sol\":1544:1554  msg.sender */\n      caller\n        /* \"contracts/Vote.sol\":1520:1527  hasRole */\n      tag_86\n        /* \"contracts/Vote.sol\":1520:1555  hasRole(INEC_EXEC_ROLE, msg.sender) */\n      jump\t// in\n    tag_228:\n        /* \"contracts/Vote.sol\":1512:1591  require(hasRole(INEC_EXEC_ROLE, msg.sender), \"Caller is not an INEC executive\") */\n      tag_229\n      jumpi\n      mload(0x40)\n      0x08c379a000000000000000000000000000000000000000000000000000000000\n      dup2\n      mstore\n      0x04\n      add\n      tag_230\n      swap1\n      tag_182\n      jump\t// in\n    tag_230:\n      mload(0x40)\n      dup1\n      swap2\n      sub\n      swap1\n      revert\n    tag_229:\n        /* \"contracts/Vote.sol\":2520:2524  name */\n      dup3\n        /* \"contracts/Vote.sol\":2488:2498  Candidates */\n      0x07\n        /* \"contracts/Vote.sol\":2488:2512  Candidates[candidateNum] */\n      0x00\n        /* \"contracts/Vote.sol\":2499:2511  candidateNum */\n      sload(0x03)\n        /* \"contracts/Vote.sol\":2488:2512  Candidates[candidateNum] */\n      dup2\n      mstore\n      0x20\n      add\n      swap1\n      dup2\n      mstore\n      0x20\n      add\n      0x00\n      keccak256\n        /* \"contracts/Vote.sol\":2488:2517  Candidates[candidateNum].name */\n      0x00\n      add\n        /* \"contracts/Vote.sol\":2488:2524  Candidates[candidateNum].name = name */\n      swap1\n      dup1\n      mload\n      swap1\n      0x20\n      add\n      swap1\n      tag_232\n      swap3\n      swap2\n      swap1\n      tag_233\n      jump\t// in\n    tag_232:\n      pop\n        /* \"contracts/Vote.sol\":2566:2577  candAddress */\n      dup2\n        /* \"contracts/Vote.sol\":2534:2544  Candidates */\n      0x07\n        /* \"contracts/Vote.sol\":2534:2558  Candidates[candidateNum] */\n      0x00\n        /* \"contracts/Vote.sol\":2545:2557  candidateNum */\n      sload(0x03)\n        /* \"contracts/Vote.sol\":2534:2558  Candidates[candidateNum] */\n      dup2\n      mstore\n      0x20\n      add\n      swap1\n      dup2\n      mstore\n      0x20\n      add\n      0x00\n      keccak256\n        /* \"contracts/Vote.sol\":2534:2563  Candidates[candidateNum].addr */\n      0x01\n      add\n      0x00\n        /* \"contracts/Vote.sol\":2534:2577  Candidates[candidateNum].addr = candAddress */\n      0x0100\n      exp\n      dup2\n      sload\n      dup2\n      0xffffffffffffffffffffffffffffffffffffffff\n      mul\n      not\n      and\n      swap1\n      dup4\n      0xffffffffffffffffffffffffffffffffffffffff\n      and\n      mul\n      or\n      swap1\n      sstore\n      pop\n        /* \"contracts/Vote.sol\":2620:2625  party */\n      0x06\n        /* \"contracts/Vote.sol\":2626:2634  partyNum */\n      dup2\n        /* \"contracts/Vote.sol\":2620:2635  party[partyNum] */\n      dup2\n      sload\n      dup2\n      lt\n      tag_234\n      jumpi\n      tag_235\n      tag_189\n      jump\t// in\n    tag_235:\n    tag_234:\n      swap1\n      0x00\n      mstore\n      keccak256(0x00, 0x20)\n      add\n        /* \"contracts/Vote.sol\":2587:2597  Candidates */\n      0x07\n        /* \"contracts/Vote.sol\":2587:2611  Candidates[candidateNum] */\n      0x00\n        /* \"contracts/Vote.sol\":2598:2610  candidateNum */\n      sload(0x03)\n        /* \"contracts/Vote.sol\":2587:2611  Candidates[candidateNum] */\n      dup2\n      mstore\n      0x20\n      add\n      swap1\n      dup2\n      mstore\n      0x20\n      add\n      0x00\n      keccak256\n        /* \"contracts/Vote.sol\":2587:2617  Candidates[candidateNum].party */\n      0x02\n      add\n        /* \"contracts/Vote.sol\":2587:2635  Candidates[candidateNum].party = party[partyNum] */\n      swap1\n      dup1\n      sload\n      tag_237\n      swap1\n      tag_146\n      jump\t// in\n    tag_237:\n      tag_238\n      swap3\n      swap2\n      swap1\n      tag_239\n      jump\t// in\n    tag_238:\n      pop\n        /* \"contracts/Vote.sol\":2647:2659  candidateNum */\n      0x03\n      0x00\n        /* \"contracts/Vote.sol\":2647:2662  candidateNum ++ */\n      dup2\n      sload\n      dup1\n      swap3\n      swap2\n      swap1\n      tag_240\n      swap1\n      tag_192\n      jump\t// in\n    tag_240:\n      swap2\n      swap1\n      pop\n      sstore\n      pop\n        /* \"contracts/Vote.sol\":2376:2675  function createCandidate(string memory name, address candAddress, uint256 partyNum) public isInecExec {... */\n      pop\n      pop\n      pop\n      jump\t// out\n        /* \"contracts/Vote.sol\":2773:2945  function regVoter(uint256 _nin) public {... */\n    tag_126:\n        /* \"contracts/Vote.sol\":2846:2856  msg.sender */\n      caller\n        /* \"contracts/Vote.sol\":2822:2828  Voters */\n      0x08\n        /* \"contracts/Vote.sol\":2822:2838  Voters[voterNum] */\n      0x00\n        /* \"contracts/Vote.sol\":2829:2837  voterNum */\n      sload(0x04)\n        /* \"contracts/Vote.sol\":2822:2838  Voters[voterNum] */\n      dup2\n      mstore\n      0x20\n      add\n      swap1\n      dup2\n      mstore\n      0x20\n      add\n      0x00\n      keccak256\n        /* \"contracts/Vote.sol\":2822:2843  Voters[voterNum].addr */\n      0x00\n      add\n      0x00\n        /* \"contracts/Vote.sol\":2822:2856  Voters[voterNum].addr = msg.sender */\n      0x0100\n      exp\n      dup2\n      sload\n      dup2\n      0xffffffffffffffffffffffffffffffffffffffff\n      mul\n      not\n      and\n      swap1\n      dup4\n      0xffffffffffffffffffffffffffffffffffffffff\n      and\n      mul\n      or\n      swap1\n      sstore\n      pop\n        /* \"contracts/Vote.sol\":2889:2893  _nin */\n      dup1\n        /* \"contracts/Vote.sol\":2866:2872  Voters */\n      0x08\n        /* \"contracts/Vote.sol\":2866:2882  Voters[voterNum] */\n      0x00\n        /* \"contracts/Vote.sol\":2873:2881  voterNum */\n      sload(0x04)\n        /* \"contracts/Vote.sol\":2866:2882  Voters[voterNum] */\n      dup2\n      mstore\n      0x20\n      add\n      swap1\n      dup2\n      mstore\n      0x20\n      add\n      0x00\n      keccak256\n        /* \"contracts/Vote.sol\":2866:2886  Voters[voterNum].nin */\n      0x01\n      add\n        /* \"contracts/Vote.sol\":2866:2893  Voters[voterNum].nin = _nin */\n      dup2\n      swap1\n      sstore\n      pop\n        /* \"contracts/Vote.sol\":2904:2938  _setupRole(VOTER_ROLE, msg.sender) */\n      tag_242\n        /* \"contracts/Vote.sol\":623:641  keccak256(\"VOTER\") */\n      0x15283fd96aa656c9df35ac2fcb112678a5f24f1ca97e591a97d1d16003dbfc9c\n        /* \"contracts/Vote.sol\":2927:2937  msg.sender */\n      caller\n        /* \"contracts/Vote.sol\":2904:2914  _setupRole */\n      tag_243\n        /* \"contracts/Vote.sol\":2904:2938  _setupRole(VOTER_ROLE, msg.sender) */\n      jump\t// in\n    tag_242:\n        /* \"contracts/Vote.sol\":2773:2945  function regVoter(uint256 _nin) public {... */\n      pop\n      jump\t// out\n        /* \"contracts/Vote.sol\":2056:2166  function createInecExec(address _account) public onlyOwner{... */\n    tag_131:\n        /* \"@openzeppelin/contracts/access/Ownable.sol\":1094:1107  _checkOwner() */\n      tag_245\n        /* \"@openzeppelin/contracts/access/Ownable.sol\":1094:1105  _checkOwner */\n      tag_196\n        /* \"@openzeppelin/contracts/access/Ownable.sol\":1094:1107  _checkOwner() */\n      jump\t// in\n    tag_245:\n        /* \"contracts/Vote.sol\":2124:2159  grantRole(INEC_EXEC_ROLE, _account) */\n      tag_247\n        /* \"contracts/Vote.sol\":558:580  keccak256(\"INEC_EXEC\") */\n      0x082f6ed76e0352438e6a6e35c77719c3f04bf277fdc8fec7e5ff5f65e001d902\n        /* \"contracts/Vote.sol\":2150:2158  _account */\n      dup3\n        /* \"contracts/Vote.sol\":2124:2133  grantRole */\n      tag_59\n        /* \"contracts/Vote.sol\":2124:2159  grantRole(INEC_EXEC_ROLE, _account) */\n      jump\t// in\n    tag_247:\n        /* \"contracts/Vote.sol\":2056:2166  function createInecExec(address _account) public onlyOwner{... */\n      pop\n      jump\t// out\n        /* \"@openzeppelin/contracts/access/Ownable.sol\":2081:2279  function transferOwnership(address newOwner) public virtual onlyOwner {... */\n    tag_135:\n        /* \"@openzeppelin/contracts/access/Ownable.sol\":1094:1107  _checkOwner() */\n      tag_249\n        /* \"@openzeppelin/contracts/access/Ownable.sol\":1094:1105  _checkOwner */\n      tag_196\n        /* \"@openzeppelin/contracts/access/Ownable.sol\":1094:1107  _checkOwner() */\n      jump\t// in\n    tag_249:\n        /* \"@openzeppelin/contracts/access/Ownable.sol\":2189:2190  0 */\n      0x00\n        /* \"@openzeppelin/contracts/access/Ownable.sol\":2169:2191  newOwner != address(0) */\n      0xffffffffffffffffffffffffffffffffffffffff\n      and\n        /* \"@openzeppelin/contracts/access/Ownable.sol\":2169:2177  newOwner */\n      dup2\n        /* \"@openzeppelin/contracts/access/Ownable.sol\":2169:2191  newOwner != address(0) */\n      0xffffffffffffffffffffffffffffffffffffffff\n      and\n      eq\n      iszero\n        /* \"@openzeppelin/contracts/access/Ownable.sol\":2161:2234  require(newOwner != address(0), \"Ownable: new owner is the zero address\") */\n      tag_251\n      jumpi\n      mload(0x40)\n      0x08c379a000000000000000000000000000000000000000000000000000000000\n      dup2\n      mstore\n      0x04\n      add\n      tag_252\n      swap1\n      tag_253\n      jump\t// in\n    tag_252:\n      mload(0x40)\n      dup1\n      swap2\n      sub\n      swap1\n      revert\n    tag_251:\n        /* \"@openzeppelin/contracts/access/Ownable.sol\":2244:2272  _transferOwnership(newOwner) */\n      tag_254\n        /* \"@openzeppelin/contracts/access/Ownable.sol\":2263:2271  newOwner */\n      dup2\n        /* \"@openzeppelin/contracts/access/Ownable.sol\":2244:2262  _transferOwnership */\n      tag_199\n        /* \"@openzeppelin/contracts/access/Ownable.sol\":2244:2272  _transferOwnership(newOwner) */\n      jump\t// in\n    tag_254:\n        /* \"@openzeppelin/contracts/access/Ownable.sol\":2081:2279  function transferOwnership(address newOwner) public virtual onlyOwner {... */\n      pop\n      jump\t// out\n        /* \"@openzeppelin/contracts/utils/introspection/ERC165.sol\":829:984  function supportsInterface(bytes4 interfaceId) public view virtual override returns (bool) {... */\n    tag_139:\n        /* \"@openzeppelin/contracts/utils/introspection/ERC165.sol\":914:918  bool */\n      0x00\n        /* \"@openzeppelin/contracts/utils/introspection/ERC165.sol\":952:977  type(IERC165).interfaceId */\n      0x01ffc9a700000000000000000000000000000000000000000000000000000000\n        /* \"@openzeppelin/contracts/utils/introspection/ERC165.sol\":937:977  interfaceId == type(IERC165).interfaceId */\n      not(0xffffffffffffffffffffffffffffffffffffffffffffffffffffffff)\n      and\n        /* \"@openzeppelin/contracts/utils/introspection/ERC165.sol\":937:948  interfaceId */\n      dup3\n        /* \"@openzeppelin/contracts/utils/introspection/ERC165.sol\":937:977  interfaceId == type(IERC165).interfaceId */\n      not(0xffffffffffffffffffffffffffffffffffffffffffffffffffffffff)\n      and\n      eq\n        /* \"@openzeppelin/contracts/utils/introspection/ERC165.sol\":930:977  return interfaceId == type(IERC165).interfaceId */\n      swap1\n      pop\n        /* \"@openzeppelin/contracts/utils/introspection/ERC165.sol\":829:984  function supportsInterface(bytes4 interfaceId) public view virtual override returns (bool) {... */\n      swap2\n      swap1\n      pop\n      jump\t// out\n        /* \"@openzeppelin/contracts/access/AccessControl.sol\":3334:3437  function _checkRole(bytes32 role) internal view virtual {... */\n    tag_159:\n        /* \"@openzeppelin/contracts/access/AccessControl.sol\":3400:3430  _checkRole(role, _msgSender()) */\n      tag_257\n        /* \"@openzeppelin/contracts/access/AccessControl.sol\":3411:3415  role */\n      dup2\n        /* \"@openzeppelin/contracts/access/AccessControl.sol\":3417:3429  _msgSender() */\n      tag_258\n        /* \"@openzeppelin/contracts/access/AccessControl.sol\":3417:3427  _msgSender */\n      tag_172\n        /* \"@openzeppelin/contracts/access/AccessControl.sol\":3417:3429  _msgSender() */\n      jump\t// in\n    tag_258:\n        /* \"@openzeppelin/contracts/access/AccessControl.sol\":3400:3410  _checkRole */\n      tag_259\n        /* \"@openzeppelin/contracts/access/AccessControl.sol\":3400:3430  _checkRole(role, _msgSender()) */\n      jump\t// in\n    tag_257:\n        /* \"@openzeppelin/contracts/access/AccessControl.sol\":3334:3437  function _checkRole(bytes32 role) internal view virtual {... */\n      pop\n      jump\t// out\n        /* \"@openzeppelin/contracts/access/AccessControl.sol\":7474:7707  function _grantRole(bytes32 role, address account) internal virtual {... */\n    tag_162:\n        /* \"@openzeppelin/contracts/access/AccessControl.sol\":7557:7579  hasRole(role, account) */\n      tag_261\n        /* \"@openzeppelin/contracts/access/AccessControl.sol\":7565:7569  role */\n      dup3\n        /* \"@openzeppelin/contracts/access/AccessControl.sol\":7571:7578  account */\n      dup3\n        /* \"@openzeppelin/contracts/access/AccessControl.sol\":7557:7564  hasRole */\n      tag_86\n        /* \"@openzeppelin/contracts/access/AccessControl.sol\":7557:7579  hasRole(role, account) */\n      jump\t// in\n    tag_261:\n        /* \"@openzeppelin/contracts/access/AccessControl.sol\":7552:7701  if (!hasRole(role, account)) {... */\n      tag_262\n      jumpi\n        /* \"@openzeppelin/contracts/access/AccessControl.sol\":7627:7631  true */\n      0x01\n        /* \"@openzeppelin/contracts/access/AccessControl.sol\":7595:7601  _roles */\n      dup1\n        /* \"@openzeppelin/contracts/access/AccessControl.sol\":7595:7607  _roles[role] */\n      0x00\n        /* \"@openzeppelin/contracts/access/AccessControl.sol\":7602:7606  role */\n      dup5\n        /* \"@openzeppelin/contracts/access/AccessControl.sol\":7595:7607  _roles[role] */\n      dup2\n      mstore\n      0x20\n      add\n      swap1\n      dup2\n      mstore\n      0x20\n      add\n      0x00\n      keccak256\n        /* \"@openzeppelin/contracts/access/AccessControl.sol\":7595:7615  _roles[role].members */\n      0x00\n      add\n        /* \"@openzeppelin/contracts/access/AccessControl.sol\":7595:7624  _roles[role].members[account] */\n      0x00\n        /* \"@openzeppelin/contracts/access/AccessControl.sol\":7616:7623  account */\n      dup4\n        /* \"@openzeppelin/contracts/access/AccessControl.sol\":7595:7624  _roles[role].members[account] */\n      0xffffffffffffffffffffffffffffffffffffffff\n      and\n      0xffffffffffffffffffffffffffffffffffffffff\n      and\n      dup2\n      mstore\n      0x20\n      add\n      swap1\n      dup2\n      mstore\n      0x20\n      add\n      0x00\n      keccak256\n      0x00\n        /* \"@openzeppelin/contracts/access/AccessControl.sol\":7595:7631  _roles[role].members[account] = true */\n      0x0100\n      exp\n      dup2\n      sload\n      dup2\n      0xff\n      mul\n      not\n      and\n      swap1\n      dup4\n      iszero\n      iszero\n      mul\n      or\n      swap1\n      sstore\n      pop\n        /* \"@openzeppelin/contracts/access/AccessControl.sol\":7677:7689  _msgSender() */\n      tag_263\n        /* \"@openzeppelin/contracts/access/AccessControl.sol\":7677:7687  _msgSender */\n      tag_172\n        /* \"@openzeppelin/contracts/access/AccessControl.sol\":7677:7689  _msgSender() */\n      jump\t// in\n    tag_263:\n        /* \"@openzeppelin/contracts/access/AccessControl.sol\":7650:7690  RoleGranted(role, account, _msgSender()) */\n      0xffffffffffffffffffffffffffffffffffffffff\n      and\n        /* \"@openzeppelin/contracts/access/AccessControl.sol\":7668:7675  account */\n      dup2\n        /* \"@openzeppelin/contracts/access/AccessControl.sol\":7650:7690  RoleGranted(role, account, _msgSender()) */\n      0xffffffffffffffffffffffffffffffffffffffff\n      and\n        /* \"@openzeppelin/contracts/access/AccessControl.sol\":7662:7666  role */\n      dup4\n        /* \"@openzeppelin/contracts/access/AccessControl.sol\":7650:7690  RoleGranted(role, account, _msgSender()) */\n      0x2f8788117e7eff1d82e926ec794901d17c78024a50270940304540a733656f0d\n      mload(0x40)\n      mload(0x40)\n      dup1\n      swap2\n      sub\n      swap1\n      log4\n        /* \"@openzeppelin/contracts/access/AccessControl.sol\":7552:7701  if (!hasRole(role, account)) {... */\n    tag_262:\n        /* \"@openzeppelin/contracts/access/AccessControl.sol\":7474:7707  function _grantRole(bytes32 role, address account) internal virtual {... */\n      pop\n      pop\n      jump\t// out\n        /* \"@openzeppelin/contracts/utils/Context.sol\":640:736  function _msgSender() internal view virtual returns (address) {... */\n    tag_172:\n        /* \"@openzeppelin/contracts/utils/Context.sol\":693:700  address */\n      0x00\n        /* \"@openzeppelin/contracts/utils/Context.sol\":719:729  msg.sender */\n      caller\n        /* \"@openzeppelin/contracts/utils/Context.sol\":712:729  return msg.sender */\n      swap1\n      pop\n        /* \"@openzeppelin/contracts/utils/Context.sol\":640:736  function _msgSender() internal view virtual returns (address) {... */\n      swap1\n      jump\t// out\n        /* \"@openzeppelin/contracts/access/AccessControl.sol\":7878:8112  function _revokeRole(bytes32 role, address account) internal virtual {... */\n    tag_177:\n        /* \"@openzeppelin/contracts/access/AccessControl.sol\":7961:7983  hasRole(role, account) */\n      tag_266\n        /* \"@openzeppelin/contracts/access/AccessControl.sol\":7969:7973  role */\n      dup3\n        /* \"@openzeppelin/contracts/access/AccessControl.sol\":7975:7982  account */\n      dup3\n        /* \"@openzeppelin/contracts/access/AccessControl.sol\":7961:7968  hasRole */\n      tag_86\n        /* \"@openzeppelin/contracts/access/AccessControl.sol\":7961:7983  hasRole(role, account) */\n      jump\t// in\n    tag_266:\n        /* \"@openzeppelin/contracts/access/AccessControl.sol\":7957:8106  if (hasRole(role, account)) {... */\n      iszero\n      tag_267\n      jumpi\n        /* \"@openzeppelin/contracts/access/AccessControl.sol\":8031:8036  false */\n      0x00\n        /* \"@openzeppelin/contracts/access/AccessControl.sol\":7999:8005  _roles */\n      0x01\n        /* \"@openzeppelin/contracts/access/AccessControl.sol\":7999:8011  _roles[role] */\n      0x00\n        /* \"@openzeppelin/contracts/access/AccessControl.sol\":8006:8010  role */\n      dup5\n        /* \"@openzeppelin/contracts/access/AccessControl.sol\":7999:8011  _roles[role] */\n      dup2\n      mstore\n      0x20\n      add\n      swap1\n      dup2\n      mstore\n      0x20\n      add\n      0x00\n      keccak256\n        /* \"@openzeppelin/contracts/access/AccessControl.sol\":7999:8019  _roles[role].members */\n      0x00\n      add\n        /* \"@openzeppelin/contracts/access/AccessControl.sol\":7999:8028  _roles[role].members[account] */\n      0x00\n        /* \"@openzeppelin/contracts/access/AccessControl.sol\":8020:8027  account */\n      dup4\n        /* \"@openzeppelin/contracts/access/AccessControl.sol\":7999:8028  _roles[role].members[account] */\n      0xffffffffffffffffffffffffffffffffffffffff\n      and\n      0xffffffffffffffffffffffffffffffffffffffff\n      and\n      dup2\n      mstore\n      0x20\n      add\n      swap1\n      dup2\n      mstore\n      0x20\n      add\n      0x00\n      keccak256\n      0x00\n        /* \"@openzeppelin/contracts/access/AccessControl.sol\":7999:8036  _roles[role].members[account] = false */\n      0x0100\n      exp\n      dup2\n      sload\n      dup2\n      0xff\n      mul\n      not\n      and\n      swap1\n      dup4\n      iszero\n      iszero\n      mul\n      or\n      swap1\n      sstore\n      pop\n        /* \"@openzeppelin/contracts/access/AccessControl.sol\":8082:8094  _msgSender() */\n      tag_268\n        /* \"@openzeppelin/contracts/access/AccessControl.sol\":8082:8092  _msgSender */\n      tag_172\n        /* \"@openzeppelin/contracts/access/AccessControl.sol\":8082:8094  _msgSender() */\n      jump\t// in\n    tag_268:\n        /* \"@openzeppelin/contracts/access/AccessControl.sol\":8055:8095  RoleRevoked(role, account, _msgSender()) */\n      0xffffffffffffffffffffffffffffffffffffffff\n      and\n        /* \"@openzeppelin/contracts/access/AccessControl.sol\":8073:8080  account */\n      dup2\n        /* \"@openzeppelin/contracts/access/AccessControl.sol\":8055:8095  RoleRevoked(role, account, _msgSender()) */\n      0xffffffffffffffffffffffffffffffffffffffff\n      and\n        /* \"@openzeppelin/contracts/access/AccessControl.sol\":8067:8071  role */\n      dup4\n        /* \"@openzeppelin/contracts/access/AccessControl.sol\":8055:8095  RoleRevoked(role, account, _msgSender()) */\n      0xf6391f5c32d9c69d2a47ea670b442974b53935d1edc7fd64eb21e047a839171b\n      mload(0x40)\n      mload(0x40)\n      dup1\n      swap2\n      sub\n      swap1\n      log4\n        /* \"@openzeppelin/contracts/access/AccessControl.sol\":7957:8106  if (hasRole(role, account)) {... */\n    tag_267:\n        /* \"@openzeppelin/contracts/access/AccessControl.sol\":7878:8112  function _revokeRole(bytes32 role, address account) internal virtual {... */\n      pop\n      pop\n      jump\t// out\n        /* \"@openzeppelin/contracts/access/Ownable.sol\":1359:1489  function _checkOwner() internal view virtual {... */\n    tag_196:\n        /* \"@openzeppelin/contracts/access/Ownable.sol\":1433:1445  _msgSender() */\n      tag_270\n        /* \"@openzeppelin/contracts/access/Ownable.sol\":1433:1443  _msgSender */\n      tag_172\n        /* \"@openzeppelin/contracts/access/Ownable.sol\":1433:1445  _msgSender() */\n      jump\t// in\n    tag_270:\n        /* \"@openzeppelin/contracts/access/Ownable.sol\":1422:1445  owner() == _msgSender() */\n      0xffffffffffffffffffffffffffffffffffffffff\n      and\n        /* \"@openzeppelin/contracts/access/Ownable.sol\":1422:1429  owner() */\n      tag_271\n        /* \"@openzeppelin/contracts/access/Ownable.sol\":1422:1427  owner */\n      tag_80\n        /* \"@openzeppelin/contracts/access/Ownable.sol\":1422:1429  owner() */\n      jump\t// in\n    tag_271:\n        /* \"@openzeppelin/contracts/access/Ownable.sol\":1422:1445  owner() == _msgSender() */\n      0xffffffffffffffffffffffffffffffffffffffff\n      and\n      eq\n        /* \"@openzeppelin/contracts/access/Ownable.sol\":1414:1482  require(owner() == _msgSender(), \"Ownable: caller is not the owner\") */\n      tag_272\n      jumpi\n      mload(0x40)\n      0x08c379a000000000000000000000000000000000000000000000000000000000\n      dup2\n      mstore\n      0x04\n      add\n      tag_273\n      swap1\n      tag_274\n      jump\t// in\n    tag_273:\n      mload(0x40)\n      dup1\n      swap2\n      sub\n      swap1\n      revert\n    tag_272:\n        /* \"@openzeppelin/contracts/access/Ownable.sol\":1359:1489  function _checkOwner() internal view virtual {... */\n      jump\t// out\n        /* \"@openzeppelin/contracts/access/Ownable.sol\":2433:2620  function _transferOwnership(address newOwner) internal virtual {... */\n    tag_199:\n        /* \"@openzeppelin/contracts/access/Ownable.sol\":2506:2522  address oldOwner */\n      0x00\n        /* \"@openzeppelin/contracts/access/Ownable.sol\":2525:2531  _owner */\n      dup1\n      0x00\n      swap1\n      sload\n      swap1\n      0x0100\n      exp\n      swap1\n      div\n      0xffffffffffffffffffffffffffffffffffffffff\n      and\n        /* \"@openzeppelin/contracts/access/Ownable.sol\":2506:2531  address oldOwner = _owner */\n      swap1\n      pop\n        /* \"@openzeppelin/contracts/access/Ownable.sol\":2550:2558  newOwner */\n      dup2\n        /* \"@openzeppelin/contracts/access/Ownable.sol\":2541:2547  _owner */\n      0x00\n      dup1\n        /* \"@openzeppelin/contracts/access/Ownable.sol\":2541:2558  _owner = newOwner */\n      0x0100\n      exp\n      dup2\n      sload\n      dup2\n      0xffffffffffffffffffffffffffffffffffffffff\n      mul\n      not\n      and\n      swap1\n      dup4\n      0xffffffffffffffffffffffffffffffffffffffff\n      and\n      mul\n      or\n      swap1\n      sstore\n      pop\n        /* \"@openzeppelin/contracts/access/Ownable.sol\":2604:2612  newOwner */\n      dup2\n        /* \"@openzeppelin/contracts/access/Ownable.sol\":2573:2613  OwnershipTransferred(oldOwner, newOwner) */\n      0xffffffffffffffffffffffffffffffffffffffff\n      and\n        /* \"@openzeppelin/contracts/access/Ownable.sol\":2594:2602  oldOwner */\n      dup2\n        /* \"@openzeppelin/contracts/access/Ownable.sol\":2573:2613  OwnershipTransferred(oldOwner, newOwner) */\n      0xffffffffffffffffffffffffffffffffffffffff\n      and\n      0x8be0079c531659141344cd1fd0a4f28419497f9722a3daafe3b4186f6b6457e0\n      mload(0x40)\n      mload(0x40)\n      dup1\n      swap2\n      sub\n      swap1\n      log3\n        /* \"@openzeppelin/contracts/access/Ownable.sol\":2496:2620  {... */\n      pop\n        /* \"@openzeppelin/contracts/access/Ownable.sol\":2433:2620  function _transferOwnership(address newOwner) internal virtual {... */\n      pop\n      jump\t// out\n        /* \"@openzeppelin/contracts/access/AccessControl.sol\":6824:6934  function _setupRole(bytes32 role, address account) internal virtual {... */\n    tag_243:\n        /* \"@openzeppelin/contracts/access/AccessControl.sol\":6902:6927  _grantRole(role, account) */\n      tag_277\n        /* \"@openzeppelin/contracts/access/AccessControl.sol\":6913:6917  role */\n      dup3\n        /* \"@openzeppelin/contracts/access/AccessControl.sol\":6919:6926  account */\n      dup3\n        /* \"@openzeppelin/contracts/access/AccessControl.sol\":6902:6912  _grantRole */\n      tag_162\n        /* \"@openzeppelin/contracts/access/AccessControl.sol\":6902:6927  _grantRole(role, account) */\n      jump\t// in\n    tag_277:\n        /* \"@openzeppelin/contracts/access/AccessControl.sol\":6824:6934  function _setupRole(bytes32 role, address account) internal virtual {... */\n      pop\n      pop\n      jump\t// out\n        /* \"@openzeppelin/contracts/access/AccessControl.sol\":3718:4210  function _checkRole(bytes32 role, address account) internal view virtual {... */\n    tag_259:\n        /* \"@openzeppelin/contracts/access/AccessControl.sol\":3806:3828  hasRole(role, account) */\n      tag_279\n        /* \"@openzeppelin/contracts/access/AccessControl.sol\":3814:3818  role */\n      dup3\n        /* \"@openzeppelin/contracts/access/AccessControl.sol\":3820:3827  account */\n      dup3\n        /* \"@openzeppelin/contracts/access/AccessControl.sol\":3806:3813  hasRole */\n      tag_86\n        /* \"@openzeppelin/contracts/access/AccessControl.sol\":3806:3828  hasRole(role, account) */\n      jump\t// in\n    tag_279:\n        /* \"@openzeppelin/contracts/access/AccessControl.sol\":3801:4204  if (!hasRole(role, account)) {... */\n      tag_280\n      jumpi\n        /* \"@openzeppelin/contracts/access/AccessControl.sol\":3989:4030  Strings.toHexString(uint160(account), 20) */\n      tag_281\n        /* \"@openzeppelin/contracts/access/AccessControl.sol\":4017:4024  account */\n      dup2\n        /* \"@openzeppelin/contracts/access/AccessControl.sol\":3989:4030  Strings.toHexString(uint160(account), 20) */\n      0xffffffffffffffffffffffffffffffffffffffff\n      and\n        /* \"@openzeppelin/contracts/access/AccessControl.sol\":4027:4029  20 */\n      0x14\n        /* \"@openzeppelin/contracts/access/AccessControl.sol\":3989:4008  Strings.toHexString */\n      tag_282\n        /* \"@openzeppelin/contracts/access/AccessControl.sol\":3989:4030  Strings.toHexString(uint160(account), 20) */\n      jump\t// in\n    tag_281:\n        /* \"@openzeppelin/contracts/access/AccessControl.sol\":4101:4139  Strings.toHexString(uint256(role), 32) */\n      tag_283\n        /* \"@openzeppelin/contracts/access/AccessControl.sol\":4129:4133  role */\n      dup4\n        /* \"@openzeppelin/contracts/access/AccessControl.sol\":4121:4134  uint256(role) */\n      0x00\n      shr\n        /* \"@openzeppelin/contracts/access/AccessControl.sol\":4136:4138  32 */\n      0x20\n        /* \"@openzeppelin/contracts/access/AccessControl.sol\":4101:4120  Strings.toHexString */\n      tag_282\n        /* \"@openzeppelin/contracts/access/AccessControl.sol\":4101:4139  Strings.toHexString(uint256(role), 32) */\n      jump\t// in\n    tag_283:\n        /* \"@openzeppelin/contracts/access/AccessControl.sol\":3896:4161  abi.encodePacked(... */\n      add(0x20, mload(0x40))\n      tag_284\n      swap3\n      swap2\n      swap1\n      tag_285\n      jump\t// in\n    tag_284:\n      mload(0x40)\n      0x20\n      dup2\n      dup4\n      sub\n      sub\n      dup2\n      mstore\n      swap1\n      0x40\n      mstore\n        /* \"@openzeppelin/contracts/access/AccessControl.sol\":3844:4193  revert(... */\n      mload(0x40)\n      0x08c379a000000000000000000000000000000000000000000000000000000000\n      dup2\n      mstore\n      0x04\n      add\n      tag_286\n      swap2\n      swap1\n      tag_65\n      jump\t// in\n    tag_286:\n      mload(0x40)\n      dup1\n      swap2\n      sub\n      swap1\n      revert\n        /* \"@openzeppelin/contracts/access/AccessControl.sol\":3801:4204  if (!hasRole(role, account)) {... */\n    tag_280:\n        /* \"@openzeppelin/contracts/access/AccessControl.sol\":3718:4210  function _checkRole(bytes32 role, address account) internal view virtual {... */\n      pop\n      pop\n      jump\t// out\n        /* \"@openzeppelin/contracts/utils/Strings.sol\":1652:2093  function toHexString(uint256 value, uint256 length) internal pure returns (string memory) {... */\n    tag_282:\n        /* \"@openzeppelin/contracts/utils/Strings.sol\":1727:1740  string memory */\n      0x60\n        /* \"@openzeppelin/contracts/utils/Strings.sol\":1752:1771  bytes memory buffer */\n      0x00\n        /* \"@openzeppelin/contracts/utils/Strings.sol\":1797:1798  2 */\n      0x02\n        /* \"@openzeppelin/contracts/utils/Strings.sol\":1788:1794  length */\n      dup4\n        /* \"@openzeppelin/contracts/utils/Strings.sol\":1784:1785  2 */\n      0x02\n        /* \"@openzeppelin/contracts/utils/Strings.sol\":1784:1794  2 * length */\n      tag_288\n      swap2\n      swap1\n      tag_289\n      jump\t// in\n    tag_288:\n        /* \"@openzeppelin/contracts/utils/Strings.sol\":1784:1798  2 * length + 2 */\n      tag_290\n      swap2\n      swap1\n      tag_291\n      jump\t// in\n    tag_290:\n        /* \"@openzeppelin/contracts/utils/Strings.sol\":1774:1799  new bytes(2 * length + 2) */\n      0xffffffffffffffff\n      dup2\n      gt\n      iszero\n      tag_292\n      jumpi\n      tag_293\n      tag_294\n      jump\t// in\n    tag_293:\n    tag_292:\n      mload(0x40)\n      swap1\n      dup1\n      dup3\n      mstore\n      dup1\n      0x1f\n      add\n      not(0x1f)\n      and\n      0x20\n      add\n      dup3\n      add\n      0x40\n      mstore\n      dup1\n      iszero\n      tag_295\n      jumpi\n      dup2\n      0x20\n      add\n      0x01\n      dup3\n      mul\n      dup1\n      calldatasize\n      dup4\n      calldatacopy\n      dup1\n      dup3\n      add\n      swap2\n      pop\n      pop\n      swap1\n      pop\n    tag_295:\n      pop\n        /* \"@openzeppelin/contracts/utils/Strings.sol\":1752:1799  bytes memory buffer = new bytes(2 * length + 2) */\n      swap1\n      pop\n        /* \"@openzeppelin/contracts/utils/Strings.sol\":1809:1824  buffer[0] = \"0\" */\n      0x3000000000000000000000000000000000000000000000000000000000000000\n        /* \"@openzeppelin/contracts/utils/Strings.sol\":1809:1815  buffer */\n      dup2\n        /* \"@openzeppelin/contracts/utils/Strings.sol\":1816:1817  0 */\n      0x00\n        /* \"@openzeppelin/contracts/utils/Strings.sol\":1809:1818  buffer[0] */\n      dup2\n      mload\n      dup2\n      lt\n      tag_296\n      jumpi\n      tag_297\n      tag_189\n      jump\t// in\n    tag_297:\n    tag_296:\n      0x20\n      add\n      add\n        /* \"@openzeppelin/contracts/utils/Strings.sol\":1809:1824  buffer[0] = \"0\" */\n      swap1\n      not(0xffffffffffffffffffffffffffffffffffffffffffffffffffffffffffffff)\n      and\n      swap1\n      dup2\n      0x00\n      byte\n      swap1\n      mstore8\n      pop\n        /* \"@openzeppelin/contracts/utils/Strings.sol\":1834:1849  buffer[1] = \"x\" */\n      0x7800000000000000000000000000000000000000000000000000000000000000\n        /* \"@openzeppelin/contracts/utils/Strings.sol\":1834:1840  buffer */\n      dup2\n        /* \"@openzeppelin/contracts/utils/Strings.sol\":1841:1842  1 */\n      0x01\n        /* \"@openzeppelin/contracts/utils/Strings.sol\":1834:1843  buffer[1] */\n      dup2\n      mload\n      dup2\n      lt\n      tag_298\n      jumpi\n      tag_299\n      tag_189\n      jump\t// in\n    tag_299:\n    tag_298:\n      0x20\n      add\n      add\n        /* \"@openzeppelin/contracts/utils/Strings.sol\":1834:1849  buffer[1] = \"x\" */\n      swap1\n      not(0xffffffffffffffffffffffffffffffffffffffffffffffffffffffffffffff)\n      and\n      swap1\n      dup2\n      0x00\n      byte\n      swap1\n      mstore8\n      pop\n        /* \"@openzeppelin/contracts/utils/Strings.sol\":1864:1873  uint256 i */\n      0x00\n        /* \"@openzeppelin/contracts/utils/Strings.sol\":1889:1890  1 */\n      0x01\n        /* \"@openzeppelin/contracts/utils/Strings.sol\":1880:1886  length */\n      dup5\n        /* \"@openzeppelin/contracts/utils/Strings.sol\":1876:1877  2 */\n      0x02\n        /* \"@openzeppelin/contracts/utils/Strings.sol\":1876:1886  2 * length */\n      tag_303\n      swap2\n      swap1\n      tag_289\n      jump\t// in\n    tag_303:\n        /* \"@openzeppelin/contracts/utils/Strings.sol\":1876:1890  2 * length + 1 */\n      tag_304\n      swap2\n      swap1\n      tag_291\n      jump\t// in\n    tag_304:\n        /* \"@openzeppelin/contracts/utils/Strings.sol\":1864:1890  uint256 i = 2 * length + 1 */\n      swap1\n      pop\n        /* \"@openzeppelin/contracts/utils/Strings.sol\":1859:1991  for (uint256 i = 2 * length + 1; i > 1; --i) {... */\n    tag_300:\n        /* \"@openzeppelin/contracts/utils/Strings.sol\":1896:1897  1 */\n      0x01\n        /* \"@openzeppelin/contracts/utils/Strings.sol\":1892:1893  i */\n      dup2\n        /* \"@openzeppelin/contracts/utils/Strings.sol\":1892:1897  i > 1 */\n      gt\n        /* \"@openzeppelin/contracts/utils/Strings.sol\":1859:1991  for (uint256 i = 2 * length + 1; i > 1; --i) {... */\n      iszero\n      tag_301\n      jumpi\n        /* \"@openzeppelin/contracts/utils/Strings.sol\":1930:1942  _HEX_SYMBOLS */\n      0x3031323334353637383961626364656600000000000000000000000000000000\n        /* \"@openzeppelin/contracts/utils/Strings.sol\":1951:1954  0xf */\n      0x0f\n        /* \"@openzeppelin/contracts/utils/Strings.sol\":1943:1948  value */\n      dup7\n        /* \"@openzeppelin/contracts/utils/Strings.sol\":1943:1954  value & 0xf */\n      and\n        /* \"@openzeppelin/contracts/utils/Strings.sol\":1930:1955  _HEX_SYMBOLS[value & 0xf] */\n      0x10\n      dup2\n      lt\n      tag_305\n      jumpi\n      tag_306\n      tag_189\n      jump\t// in\n    tag_306:\n    tag_305:\n      byte\n      0xf8\n      shl\n        /* \"@openzeppelin/contracts/utils/Strings.sol\":1918:1924  buffer */\n      dup3\n        /* \"@openzeppelin/contracts/utils/Strings.sol\":1925:1926  i */\n      dup3\n        /* \"@openzeppelin/contracts/utils/Strings.sol\":1918:1927  buffer[i] */\n      dup2\n      mload\n      dup2\n      lt\n      tag_307\n      jumpi\n      tag_308\n      tag_189\n      jump\t// in\n    tag_308:\n    tag_307:\n      0x20\n      add\n      add\n        /* \"@openzeppelin/contracts/utils/Strings.sol\":1918:1955  buffer[i] = _HEX_SYMBOLS[value & 0xf] */\n      swap1\n      not(0xffffffffffffffffffffffffffffffffffffffffffffffffffffffffffffff)\n      and\n      swap1\n      dup2\n      0x00\n      byte\n      swap1\n      mstore8\n      pop\n        /* \"@openzeppelin/contracts/utils/Strings.sol\":1979:1980  4 */\n      0x04\n        /* \"@openzeppelin/contracts/utils/Strings.sol\":1969:1980  value >>= 4 */\n      dup6\n      swap1\n      shr\n      swap5\n      pop\n        /* \"@openzeppelin/contracts/utils/Strings.sol\":1899:1902  --i */\n      dup1\n      tag_309\n      swap1\n      tag_310\n      jump\t// in\n    tag_309:\n      swap1\n      pop\n        /* \"@openzeppelin/contracts/utils/Strings.sol\":1859:1991  for (uint256 i = 2 * length + 1; i > 1; --i) {... */\n      jump(tag_300)\n    tag_301:\n      pop\n        /* \"@openzeppelin/contracts/utils/Strings.sol\":2017:2018  0 */\n      0x00\n        /* \"@openzeppelin/contracts/utils/Strings.sol\":2008:2013  value */\n      dup5\n        /* \"@openzeppelin/contracts/utils/Strings.sol\":2008:2018  value == 0 */\n      eq\n        /* \"@openzeppelin/contracts/utils/Strings.sol\":2000:2055  require(value == 0, \"Strings: hex length insufficient\") */\n      tag_311\n      jumpi\n      mload(0x40)\n      0x08c379a000000000000000000000000000000000000000000000000000000000\n      dup2\n      mstore\n      0x04\n      add\n      tag_312\n      swap1\n      tag_313\n      jump\t// in\n    tag_312:\n      mload(0x40)\n      dup1\n      swap2\n      sub\n      swap1\n      revert\n    tag_311:\n        /* \"@openzeppelin/contracts/utils/Strings.sol\":2079:2085  buffer */\n      dup1\n        /* \"@openzeppelin/contracts/utils/Strings.sol\":2065:2086  return string(buffer) */\n      swap2\n      pop\n      pop\n        /* \"@openzeppelin/contracts/utils/Strings.sol\":1652:2093  function toHexString(uint256 value, uint256 length) internal pure returns (string memory) {... */\n      swap3\n      swap2\n      pop\n      pop\n      jump\t// out\n    tag_203:\n      mload(0x40)\n      dup1\n      0xa0\n      add\n      0x40\n      mstore\n      dup1\n      0x60\n      dup2\n      mstore\n      0x20\n      add\n      0x60\n      dup2\n      mstore\n      0x20\n      add\n      0x00\n      dup2\n      mstore\n      0x20\n      add\n      0x00\n      dup2\n      mstore\n      0x20\n      add\n      iszero(iszero(0x00))\n      dup2\n      mstore\n      pop\n      swap1\n      jump\t// out\n    tag_210:\n      mload(0x40)\n      dup1\n      0x60\n      add\n      0x40\n      mstore\n      dup1\n      0x60\n      dup2\n      mstore\n      0x20\n      add\n      and(0xffffffffffffffffffffffffffffffffffffffff, 0x00)\n      dup2\n      mstore\n      0x20\n      add\n      0x60\n      dup2\n      mstore\n      pop\n      swap1\n      jump\t// out\n    tag_233:\n      dup3\n      dup1\n      sload\n      tag_314\n      swap1\n      tag_146\n      jump\t// in\n    tag_314:\n      swap1\n      0x00\n      mstore\n      keccak256(0x00, 0x20)\n      swap1\n      0x1f\n      add\n      0x20\n      swap1\n      div\n      dup2\n      add\n      swap3\n      dup3\n      tag_316\n      jumpi\n      0x00\n      dup6\n      sstore\n      jump(tag_315)\n    tag_316:\n      dup3\n      0x1f\n      lt\n      tag_317\n      jumpi\n      dup1\n      mload\n      not(0xff)\n      and\n      dup4\n      dup1\n      add\n      or\n      dup6\n      sstore\n      jump(tag_315)\n    tag_317:\n      dup3\n      dup1\n      add\n      0x01\n      add\n      dup6\n      sstore\n      dup3\n      iszero\n      tag_315\n      jumpi\n      swap2\n      dup3\n      add\n    tag_318:\n      dup3\n      dup2\n      gt\n      iszero\n      tag_319\n      jumpi\n      dup3\n      mload\n      dup3\n      sstore\n      swap2\n      0x20\n      add\n      swap2\n      swap1\n      0x01\n      add\n      swap1\n      jump(tag_318)\n    tag_319:\n    tag_315:\n      pop\n      swap1\n      pop\n      tag_320\n      swap2\n      swap1\n      tag_321\n      jump\t// in\n    tag_320:\n      pop\n      swap1\n      jump\t// out\n    tag_239:\n      dup3\n      dup1\n      sload\n      tag_322\n      swap1\n      tag_146\n      jump\t// in\n    tag_322:\n      swap1\n      0x00\n      mstore\n      keccak256(0x00, 0x20)\n      swap1\n      0x1f\n      add\n      0x20\n      swap1\n      div\n      dup2\n      add\n      swap3\n      dup3\n      tag_324\n      jumpi\n      0x00\n      dup6\n      sstore\n      jump(tag_323)\n    tag_324:\n      dup3\n      0x1f\n      lt\n      tag_325\n      jumpi\n      dup1\n      sload\n      dup6\n      sstore\n      jump(tag_323)\n    tag_325:\n      dup3\n      dup1\n      add\n      0x01\n      add\n      dup6\n      sstore\n      dup3\n      iszero\n      tag_323\n      jumpi\n      0x00\n      mstore\n      keccak256(0x00, 0x20)\n      swap2\n      0x1f\n      add\n      0x20\n      swap1\n      div\n      dup3\n      add\n    tag_326:\n      dup3\n      dup2\n      gt\n      iszero\n      tag_327\n      jumpi\n      dup3\n      sload\n      dup3\n      sstore\n      swap2\n      0x01\n      add\n      swap2\n      swap1\n      0x01\n      add\n      swap1\n      jump(tag_326)\n    tag_327:\n    tag_323:\n      pop\n      swap1\n      pop\n      tag_328\n      swap2\n      swap1\n      tag_321\n      jump\t// in\n    tag_328:\n      pop\n      swap1\n      jump\t// out\n    tag_321:\n    tag_329:\n      dup1\n      dup3\n      gt\n      iszero\n      tag_330\n      jumpi\n      0x00\n      dup2\n      0x00\n      swap1\n      sstore\n      pop\n      0x01\n      add\n      jump(tag_329)\n    tag_330:\n      pop\n      swap1\n      jump\t// out\n        /* \"#utility.yul\":24:746   */\n    tag_332:\n        /* \"#utility.yul\":120:125   */\n      0x00\n        /* \"#utility.yul\":145:226   */\n      tag_334\n        /* \"#utility.yul\":161:225   */\n      tag_335\n        /* \"#utility.yul\":218:224   */\n      dup5\n        /* \"#utility.yul\":161:225   */\n      tag_336\n      jump\t// in\n    tag_335:\n        /* \"#utility.yul\":145:226   */\n      tag_337\n      jump\t// in\n    tag_334:\n        /* \"#utility.yul\":136:226   */\n      swap1\n      pop\n        /* \"#utility.yul\":246:251   */\n      dup1\n        /* \"#utility.yul\":275:281   */\n      dup4\n        /* \"#utility.yul\":268:273   */\n      dup3\n        /* \"#utility.yul\":261:282   */\n      mstore\n        /* \"#utility.yul\":309:313   */\n      0x20\n        /* \"#utility.yul\":302:307   */\n      dup3\n        /* \"#utility.yul\":298:314   */\n      add\n        /* \"#utility.yul\":291:314   */\n      swap1\n      pop\n        /* \"#utility.yul\":335:341   */\n      dup3\n        /* \"#utility.yul\":385:388   */\n      dup6\n        /* \"#utility.yul\":377:381   */\n      0x20\n        /* \"#utility.yul\":369:375   */\n      dup7\n        /* \"#utility.yul\":365:382   */\n      mul\n        /* \"#utility.yul\":360:363   */\n      dup3\n        /* \"#utility.yul\":356:383   */\n      add\n        /* \"#utility.yul\":353:389   */\n      gt\n        /* \"#utility.yul\":350:493   */\n      iszero\n      tag_338\n      jumpi\n        /* \"#utility.yul\":404:483   */\n      tag_339\n      tag_340\n      jump\t// in\n    tag_339:\n        /* \"#utility.yul\":350:493   */\n    tag_338:\n        /* \"#utility.yul\":517:518   */\n      0x00\n        /* \"#utility.yul\":502:740   */\n    tag_341:\n        /* \"#utility.yul\":527:533   */\n      dup6\n        /* \"#utility.yul\":524:525   */\n      dup2\n        /* \"#utility.yul\":521:534   */\n      lt\n        /* \"#utility.yul\":502:740   */\n      iszero\n      tag_343\n      jumpi\n        /* \"#utility.yul\":595:598   */\n      dup2\n        /* \"#utility.yul\":624:661   */\n      tag_344\n        /* \"#utility.yul\":657:660   */\n      dup9\n        /* \"#utility.yul\":645:655   */\n      dup3\n        /* \"#utility.yul\":624:661   */\n      tag_345\n      jump\t// in\n    tag_344:\n        /* \"#utility.yul\":619:622   */\n      dup5\n        /* \"#utility.yul\":612:662   */\n      mstore\n        /* \"#utility.yul\":691:695   */\n      0x20\n        /* \"#utility.yul\":686:689   */\n      dup5\n        /* \"#utility.yul\":682:696   */\n      add\n        /* \"#utility.yul\":675:696   */\n      swap4\n      pop\n        /* \"#utility.yul\":725:729   */\n      0x20\n        /* \"#utility.yul\":720:723   */\n      dup4\n        /* \"#utility.yul\":716:730   */\n      add\n        /* \"#utility.yul\":709:730   */\n      swap3\n      pop\n        /* \"#utility.yul\":562:740   */\n      pop\n        /* \"#utility.yul\":549:550   */\n      0x01\n        /* \"#utility.yul\":546:547   */\n      dup2\n        /* \"#utility.yul\":542:551   */\n      add\n        /* \"#utility.yul\":537:551   */\n      swap1\n      pop\n        /* \"#utility.yul\":502:740   */\n      jump(tag_341)\n    tag_343:\n        /* \"#utility.yul\":506:520   */\n      pop\n        /* \"#utility.yul\":126:746   */\n      pop\n      pop\n        /* \"#utility.yul\":24:746   */\n      swap4\n      swap3\n      pop\n      pop\n      pop\n      jump\t// out\n        /* \"#utility.yul\":752:1164   */\n    tag_346:\n        /* \"#utility.yul\":830:835   */\n      0x00\n        /* \"#utility.yul\":855:921   */\n      tag_348\n        /* \"#utility.yul\":871:920   */\n      tag_349\n        /* \"#utility.yul\":913:919   */\n      dup5\n        /* \"#utility.yul\":871:920   */\n      tag_350\n      jump\t// in\n    tag_349:\n        /* \"#utility.yul\":855:921   */\n      tag_337\n      jump\t// in\n    tag_348:\n        /* \"#utility.yul\":846:921   */\n      swap1\n      pop\n        /* \"#utility.yul\":944:950   */\n      dup3\n        /* \"#utility.yul\":937:942   */\n      dup2\n        /* \"#utility.yul\":930:951   */\n      mstore\n        /* \"#utility.yul\":982:986   */\n      0x20\n        /* \"#utility.yul\":975:980   */\n      dup2\n        /* \"#utility.yul\":971:987   */\n      add\n        /* \"#utility.yul\":1020:1023   */\n      dup5\n        /* \"#utility.yul\":1011:1017   */\n      dup5\n        /* \"#utility.yul\":1006:1009   */\n      dup5\n        /* \"#utility.yul\":1002:1018   */\n      add\n        /* \"#utility.yul\":999:1024   */\n      gt\n        /* \"#utility.yul\":996:1108   */\n      iszero\n      tag_351\n      jumpi\n        /* \"#utility.yul\":1027:1106   */\n      tag_352\n      tag_353\n      jump\t// in\n    tag_352:\n        /* \"#utility.yul\":996:1108   */\n    tag_351:\n        /* \"#utility.yul\":1117:1158   */\n      tag_354\n        /* \"#utility.yul\":1151:1157   */\n      dup5\n        /* \"#utility.yul\":1146:1149   */\n      dup3\n        /* \"#utility.yul\":1141:1144   */\n      dup6\n        /* \"#utility.yul\":1117:1158   */\n      tag_355\n      jump\t// in\n    tag_354:\n        /* \"#utility.yul\":836:1164   */\n      pop\n        /* \"#utility.yul\":752:1164   */\n      swap4\n      swap3\n      pop\n      pop\n      pop\n      jump\t// out\n        /* \"#utility.yul\":1170:1309   */\n    tag_345:\n        /* \"#utility.yul\":1216:1221   */\n      0x00\n        /* \"#utility.yul\":1254:1260   */\n      dup2\n        /* \"#utility.yul\":1241:1261   */\n      calldataload\n        /* \"#utility.yul\":1232:1261   */\n      swap1\n      pop\n        /* \"#utility.yul\":1270:1303   */\n      tag_357\n        /* \"#utility.yul\":1297:1302   */\n      dup2\n        /* \"#utility.yul\":1270:1303   */\n      tag_358\n      jump\t// in\n    tag_357:\n        /* \"#utility.yul\":1170:1309   */\n      swap3\n      swap2\n      pop\n      pop\n      jump\t// out\n        /* \"#utility.yul\":1332:1702   */\n    tag_359:\n        /* \"#utility.yul\":1403:1408   */\n      0x00\n        /* \"#utility.yul\":1452:1455   */\n      dup3\n        /* \"#utility.yul\":1445:1449   */\n      0x1f\n        /* \"#utility.yul\":1437:1443   */\n      dup4\n        /* \"#utility.yul\":1433:1450   */\n      add\n        /* \"#utility.yul\":1429:1456   */\n      slt\n        /* \"#utility.yul\":1419:1541   */\n      tag_361\n      jumpi\n        /* \"#utility.yul\":1460:1539   */\n      tag_362\n      tag_363\n      jump\t// in\n    tag_362:\n        /* \"#utility.yul\":1419:1541   */\n    tag_361:\n        /* \"#utility.yul\":1577:1583   */\n      dup2\n        /* \"#utility.yul\":1564:1584   */\n      calldataload\n        /* \"#utility.yul\":1602:1696   */\n      tag_364\n        /* \"#utility.yul\":1692:1695   */\n      dup5\n        /* \"#utility.yul\":1684:1690   */\n      dup3\n        /* \"#utility.yul\":1677:1681   */\n      0x20\n        /* \"#utility.yul\":1669:1675   */\n      dup7\n        /* \"#utility.yul\":1665:1682   */\n      add\n        /* \"#utility.yul\":1602:1696   */\n      tag_332\n      jump\t// in\n    tag_364:\n        /* \"#utility.yul\":1593:1696   */\n      swap2\n      pop\n        /* \"#utility.yul\":1409:1702   */\n      pop\n        /* \"#utility.yul\":1332:1702   */\n      swap3\n      swap2\n      pop\n      pop\n      jump\t// out\n        /* \"#utility.yul\":1708:1847   */\n    tag_365:\n        /* \"#utility.yul\":1754:1759   */\n      0x00\n        /* \"#utility.yul\":1792:1798   */\n      dup2\n        /* \"#utility.yul\":1779:1799   */\n      calldataload\n        /* \"#utility.yul\":1770:1799   */\n      swap1\n      pop\n        /* \"#utility.yul\":1808:1841   */\n      tag_367\n        /* \"#utility.yul\":1835:1840   */\n      dup2\n        /* \"#utility.yul\":1808:1841   */\n      tag_368\n      jump\t// in\n    tag_367:\n        /* \"#utility.yul\":1708:1847   */\n      swap3\n      swap2\n      pop\n      pop\n      jump\t// out\n        /* \"#utility.yul\":1853:1990   */\n    tag_369:\n        /* \"#utility.yul\":1898:1903   */\n      0x00\n        /* \"#utility.yul\":1936:1942   */\n      dup2\n        /* \"#utility.yul\":1923:1943   */\n      calldataload\n        /* \"#utility.yul\":1914:1943   */\n      swap1\n      pop\n        /* \"#utility.yul\":1952:1984   */\n      tag_371\n        /* \"#utility.yul\":1978:1983   */\n      dup2\n        /* \"#utility.yul\":1952:1984   */\n      tag_372\n      jump\t// in\n    tag_371:\n        /* \"#utility.yul\":1853:1990   */\n      swap3\n      swap2\n      pop\n      pop\n      jump\t// out\n        /* \"#utility.yul\":2010:2350   */\n    tag_373:\n        /* \"#utility.yul\":2066:2071   */\n      0x00\n        /* \"#utility.yul\":2115:2118   */\n      dup3\n        /* \"#utility.yul\":2108:2112   */\n      0x1f\n        /* \"#utility.yul\":2100:2106   */\n      dup4\n        /* \"#utility.yul\":2096:2113   */\n      add\n        /* \"#utility.yul\":2092:2119   */\n      slt\n        /* \"#utility.yul\":2082:2204   */\n      tag_375\n      jumpi\n        /* \"#utility.yul\":2123:2202   */\n      tag_376\n      tag_363\n      jump\t// in\n    tag_376:\n        /* \"#utility.yul\":2082:2204   */\n    tag_375:\n        /* \"#utility.yul\":2240:2246   */\n      dup2\n        /* \"#utility.yul\":2227:2247   */\n      calldataload\n        /* \"#utility.yul\":2265:2344   */\n      tag_377\n        /* \"#utility.yul\":2340:2343   */\n      dup5\n        /* \"#utility.yul\":2332:2338   */\n      dup3\n        /* \"#utility.yul\":2325:2329   */\n      0x20\n        /* \"#utility.yul\":2317:2323   */\n      dup7\n        /* \"#utility.yul\":2313:2330   */\n      add\n        /* \"#utility.yul\":2265:2344   */\n      tag_346\n      jump\t// in\n    tag_377:\n        /* \"#utility.yul\":2256:2344   */\n      swap2\n      pop\n        /* \"#utility.yul\":2072:2350   */\n      pop\n        /* \"#utility.yul\":2010:2350   */\n      swap3\n      swap2\n      pop\n      pop\n      jump\t// out\n        /* \"#utility.yul\":2356:2495   */\n    tag_378:\n        /* \"#utility.yul\":2402:2407   */\n      0x00\n        /* \"#utility.yul\":2440:2446   */\n      dup2\n        /* \"#utility.yul\":2427:2447   */\n      calldataload\n        /* \"#utility.yul\":2418:2447   */\n      swap1\n      pop\n        /* \"#utility.yul\":2456:2489   */\n      tag_380\n        /* \"#utility.yul\":2483:2488   */\n      dup2\n        /* \"#utility.yul\":2456:2489   */\n      tag_381\n      jump\t// in\n    tag_380:\n        /* \"#utility.yul\":2356:2495   */\n      swap3\n      swap2\n      pop\n      pop\n      jump\t// out\n        /* \"#utility.yul\":2501:2830   */\n    tag_130:\n        /* \"#utility.yul\":2560:2566   */\n      0x00\n        /* \"#utility.yul\":2609:2611   */\n      0x20\n        /* \"#utility.yul\":2597:2606   */\n      dup3\n        /* \"#utility.yul\":2588:2595   */\n      dup5\n        /* \"#utility.yul\":2584:2607   */\n      sub\n        /* \"#utility.yul\":2580:2612   */\n      slt\n        /* \"#utility.yul\":2577:2696   */\n      iszero\n      tag_383\n      jumpi\n        /* \"#utility.yul\":2615:2694   */\n      tag_384\n      tag_385\n      jump\t// in\n    tag_384:\n        /* \"#utility.yul\":2577:2696   */\n    tag_383:\n        /* \"#utility.yul\":2735:2736   */\n      0x00\n        /* \"#utility.yul\":2760:2813   */\n      tag_386\n        /* \"#utility.yul\":2805:2812   */\n      dup5\n        /* \"#utility.yul\":2796:2802   */\n      dup3\n        /* \"#utility.yul\":2785:2794   */\n      dup6\n        /* \"#utility.yul\":2781:2803   */\n      add\n        /* \"#utility.yul\":2760:2813   */\n      tag_345\n      jump\t// in\n    tag_386:\n        /* \"#utility.yul\":2750:2813   */\n      swap2\n      pop\n        /* \"#utility.yul\":2706:2823   */\n      pop\n        /* \"#utility.yul\":2501:2830   */\n      swap3\n      swap2\n      pop\n      pop\n      jump\t// out\n        /* \"#utility.yul\":2836:3665   */\n    tag_73:\n        /* \"#utility.yul\":2938:2944   */\n      0x00\n        /* \"#utility.yul\":2946:2952   */\n      dup1\n        /* \"#utility.yul\":2954:2960   */\n      0x00\n        /* \"#utility.yul\":3003:3005   */\n      0x60\n        /* \"#utility.yul\":2991:3000   */\n      dup5\n        /* \"#utility.yul\":2982:2989   */\n      dup7\n        /* \"#utility.yul\":2978:3001   */\n      sub\n        /* \"#utility.yul\":2974:3006   */\n      slt\n        /* \"#utility.yul\":2971:3090   */\n      iszero\n      tag_388\n      jumpi\n        /* \"#utility.yul\":3009:3088   */\n      tag_389\n      tag_385\n      jump\t// in\n    tag_389:\n        /* \"#utility.yul\":2971:3090   */\n    tag_388:\n        /* \"#utility.yul\":3157:3158   */\n      0x00\n        /* \"#utility.yul\":3146:3155   */\n      dup5\n        /* \"#utility.yul\":3142:3159   */\n      add\n        /* \"#utility.yul\":3129:3160   */\n      calldataload\n        /* \"#utility.yul\":3187:3205   */\n      0xffffffffffffffff\n        /* \"#utility.yul\":3179:3185   */\n      dup2\n        /* \"#utility.yul\":3176:3206   */\n      gt\n        /* \"#utility.yul\":3173:3290   */\n      iszero\n      tag_390\n      jumpi\n        /* \"#utility.yul\":3209:3288   */\n      tag_391\n      tag_392\n      jump\t// in\n    tag_391:\n        /* \"#utility.yul\":3173:3290   */\n    tag_390:\n        /* \"#utility.yul\":3314:3392   */\n      tag_393\n        /* \"#utility.yul\":3384:3391   */\n      dup7\n        /* \"#utility.yul\":3375:3381   */\n      dup3\n        /* \"#utility.yul\":3364:3373   */\n      dup8\n        /* \"#utility.yul\":3360:3382   */\n      add\n        /* \"#utility.yul\":3314:3392   */\n      tag_359\n      jump\t// in\n    tag_393:\n        /* \"#utility.yul\":3304:3392   */\n      swap4\n      pop\n        /* \"#utility.yul\":3100:3402   */\n      pop\n        /* \"#utility.yul\":3441:3443   */\n      0x20\n        /* \"#utility.yul\":3467:3520   */\n      tag_394\n        /* \"#utility.yul\":3512:3519   */\n      dup7\n        /* \"#utility.yul\":3503:3509   */\n      dup3\n        /* \"#utility.yul\":3492:3501   */\n      dup8\n        /* \"#utility.yul\":3488:3510   */\n      add\n        /* \"#utility.yul\":3467:3520   */\n      tag_378\n      jump\t// in\n    tag_394:\n        /* \"#utility.yul\":3457:3520   */\n      swap3\n      pop\n        /* \"#utility.yul\":3412:3530   */\n      pop\n        /* \"#utility.yul\":3569:3571   */\n      0x40\n        /* \"#utility.yul\":3595:3648   */\n      tag_395\n        /* \"#utility.yul\":3640:3647   */\n      dup7\n        /* \"#utility.yul\":3631:3637   */\n      dup3\n        /* \"#utility.yul\":3620:3629   */\n      dup8\n        /* \"#utility.yul\":3616:3638   */\n      add\n        /* \"#utility.yul\":3595:3648   */\n      tag_378\n      jump\t// in\n    tag_395:\n        /* \"#utility.yul\":3585:3648   */\n      swap2\n      pop\n        /* \"#utility.yul\":3540:3658   */\n      pop\n        /* \"#utility.yul\":2836:3665   */\n      swap3\n      pop\n      swap3\n      pop\n      swap3\n      jump\t// out\n        /* \"#utility.yul\":3671:4000   */\n    tag_41:\n        /* \"#utility.yul\":3730:3736   */\n      0x00\n        /* \"#utility.yul\":3779:3781   */\n      0x20\n        /* \"#utility.yul\":3767:3776   */\n      dup3\n        /* \"#utility.yul\":3758:3765   */\n      dup5\n        /* \"#utility.yul\":3754:3777   */\n      sub\n        /* \"#utility.yul\":3750:3782   */\n      slt\n        /* \"#utility.yul\":3747:3866   */\n      iszero\n      tag_397\n      jumpi\n        /* \"#utility.yul\":3785:3864   */\n      tag_398\n      tag_385\n      jump\t// in\n    tag_398:\n        /* \"#utility.yul\":3747:3866   */\n    tag_397:\n        /* \"#utility.yul\":3905:3906   */\n      0x00\n        /* \"#utility.yul\":3930:3983   */\n      tag_399\n        /* \"#utility.yul\":3975:3982   */\n      dup5\n        /* \"#utility.yul\":3966:3972   */\n      dup3\n        /* \"#utility.yul\":3955:3964   */\n      dup6\n        /* \"#utility.yul\":3951:3973   */\n      add\n        /* \"#utility.yul\":3930:3983   */\n      tag_365\n      jump\t// in\n    tag_399:\n        /* \"#utility.yul\":3920:3983   */\n      swap2\n      pop\n        /* \"#utility.yul\":3876:3993   */\n      pop\n        /* \"#utility.yul\":3671:4000   */\n      swap3\n      swap2\n      pop\n      pop\n      jump\t// out\n        /* \"#utility.yul\":4006:4480   */\n    tag_58:\n        /* \"#utility.yul\":4074:4080   */\n      0x00\n        /* \"#utility.yul\":4082:4088   */\n      dup1\n        /* \"#utility.yul\":4131:4133   */\n      0x40\n        /* \"#utility.yul\":4119:4128   */\n      dup4\n        /* \"#utility.yul\":4110:4117   */\n      dup6\n        /* \"#utility.yul\":4106:4129   */\n      sub\n        /* \"#utility.yul\":4102:4134   */\n      slt\n        /* \"#utility.yul\":4099:4218   */\n      iszero\n      tag_401\n      jumpi\n        /* \"#utility.yul\":4137:4216   */\n      tag_402\n      tag_385\n      jump\t// in\n    tag_402:\n        /* \"#utility.yul\":4099:4218   */\n    tag_401:\n        /* \"#utility.yul\":4257:4258   */\n      0x00\n        /* \"#utility.yul\":4282:4335   */\n      tag_403\n        /* \"#utility.yul\":4327:4334   */\n      dup6\n        /* \"#utility.yul\":4318:4324   */\n      dup3\n        /* \"#utility.yul\":4307:4316   */\n      dup7\n        /* \"#utility.yul\":4303:4325   */\n      add\n        /* \"#utility.yul\":4282:4335   */\n      tag_365\n      jump\t// in\n    tag_403:\n        /* \"#utility.yul\":4272:4335   */\n      swap3\n      pop\n        /* \"#utility.yul\":4228:4345   */\n      pop\n        /* \"#utility.yul\":4384:4386   */\n      0x20\n        /* \"#utility.yul\":4410:4463   */\n      tag_404\n        /* \"#utility.yul\":4455:4462   */\n      dup6\n        /* \"#utility.yul\":4446:4452   */\n      dup3\n        /* \"#utility.yul\":4435:4444   */\n      dup7\n        /* \"#utility.yul\":4431:4453   */\n      add\n        /* \"#utility.yul\":4410:4463   */\n      tag_345\n      jump\t// in\n    tag_404:\n        /* \"#utility.yul\":4400:4463   */\n      swap2\n      pop\n        /* \"#utility.yul\":4355:4473   */\n      pop\n        /* \"#utility.yul\":4006:4480   */\n      swap3\n      pop\n      swap3\n      swap1\n      pop\n      jump\t// out\n        /* \"#utility.yul\":4486:4813   */\n    tag_30:\n        /* \"#utility.yul\":4544:4550   */\n      0x00\n        /* \"#utility.yul\":4593:4595   */\n      0x20\n        /* \"#utility.yul\":4581:4590   */\n      dup3\n        /* \"#utility.yul\":4572:4579   */\n      dup5\n        /* \"#utility.yul\":4568:4591   */\n      sub\n        /* \"#utility.yul\":4564:4596   */\n      slt\n        /* \"#utility.yul\":4561:4680   */\n      iszero\n      tag_406\n      jumpi\n        /* \"#utility.yul\":4599:4678   */\n      tag_407\n      tag_385\n      jump\t// in\n    tag_407:\n        /* \"#utility.yul\":4561:4680   */\n    tag_406:\n        /* \"#utility.yul\":4719:4720   */\n      0x00\n        /* \"#utility.yul\":4744:4796   */\n      tag_408\n        /* \"#utility.yul\":4788:4795   */\n      dup5\n        /* \"#utility.yul\":4779:4785   */\n      dup3\n        /* \"#utility.yul\":4768:4777   */\n      dup6\n        /* \"#utility.yul\":4764:4786   */\n      add\n        /* \"#utility.yul\":4744:4796   */\n      tag_369\n      jump\t// in\n    tag_408:\n        /* \"#utility.yul\":4734:4796   */\n      swap2\n      pop\n        /* \"#utility.yul\":4690:4806   */\n      pop\n        /* \"#utility.yul\":4486:4813   */\n      swap3\n      swap2\n      pop\n      pop\n      jump\t// out\n        /* \"#utility.yul\":4819:5618   */\n    tag_121:\n        /* \"#utility.yul\":4906:4912   */\n      0x00\n        /* \"#utility.yul\":4914:4920   */\n      dup1\n        /* \"#utility.yul\":4922:4928   */\n      0x00\n        /* \"#utility.yul\":4971:4973   */\n      0x60\n        /* \"#utility.yul\":4959:4968   */\n      dup5\n        /* \"#utility.yul\":4950:4957   */\n      dup7\n        /* \"#utility.yul\":4946:4969   */\n      sub\n        /* \"#utility.yul\":4942:4974   */\n      slt\n        /* \"#utility.yul\":4939:5058   */\n      iszero\n      tag_410\n      jumpi\n        /* \"#utility.yul\":4977:5056   */\n      tag_411\n      tag_385\n      jump\t// in\n    tag_411:\n        /* \"#utility.yul\":4939:5058   */\n    tag_410:\n        /* \"#utility.yul\":5125:5126   */\n      0x00\n        /* \"#utility.yul\":5114:5123   */\n      dup5\n        /* \"#utility.yul\":5110:5127   */\n      add\n        /* \"#utility.yul\":5097:5128   */\n      calldataload\n        /* \"#utility.yul\":5155:5173   */\n      0xffffffffffffffff\n        /* \"#utility.yul\":5147:5153   */\n      dup2\n        /* \"#utility.yul\":5144:5174   */\n      gt\n        /* \"#utility.yul\":5141:5258   */\n      iszero\n      tag_412\n      jumpi\n        /* \"#utility.yul\":5177:5256   */\n      tag_413\n      tag_392\n      jump\t// in\n    tag_413:\n        /* \"#utility.yul\":5141:5258   */\n    tag_412:\n        /* \"#utility.yul\":5282:5345   */\n      tag_414\n        /* \"#utility.yul\":5337:5344   */\n      dup7\n        /* \"#utility.yul\":5328:5334   */\n      dup3\n        /* \"#utility.yul\":5317:5326   */\n      dup8\n        /* \"#utility.yul\":5313:5335   */\n      add\n        /* \"#utility.yul\":5282:5345   */\n      tag_373\n      jump\t// in\n    tag_414:\n        /* \"#utility.yul\":5272:5345   */\n      swap4\n      pop\n        /* \"#utility.yul\":5068:5355   */\n      pop\n        /* \"#utility.yul\":5394:5396   */\n      0x20\n        /* \"#utility.yul\":5420:5473   */\n      tag_415\n        /* \"#utility.yul\":5465:5472   */\n      dup7\n        /* \"#utility.yul\":5456:5462   */\n      dup3\n        /* \"#utility.yul\":5445:5454   */\n      dup8\n        /* \"#utility.yul\":5441:5463   */\n      add\n        /* \"#utility.yul\":5420:5473   */\n      tag_345\n      jump\t// in\n    tag_415:\n        /* \"#utility.yul\":5410:5473   */\n      swap3\n      pop\n        /* \"#utility.yul\":5365:5483   */\n      pop\n        /* \"#utility.yul\":5522:5524   */\n      0x40\n        /* \"#utility.yul\":5548:5601   */\n      tag_416\n        /* \"#utility.yul\":5593:5600   */\n      dup7\n        /* \"#utility.yul\":5584:5590   */\n      dup3\n        /* \"#utility.yul\":5573:5582   */\n      dup8\n        /* \"#utility.yul\":5569:5591   */\n      add\n        /* \"#utility.yul\":5548:5601   */\n      tag_378\n      jump\t// in\n    tag_416:\n        /* \"#utility.yul\":5538:5601   */\n      swap2\n      pop\n        /* \"#utility.yul\":5493:5611   */\n      pop\n        /* \"#utility.yul\":4819:5618   */\n      swap3\n      pop\n      swap3\n      pop\n      swap3\n      jump\t// out\n        /* \"#utility.yul\":5624:5953   */\n    tag_36:\n        /* \"#utility.yul\":5683:5689   */\n      0x00\n        /* \"#utility.yul\":5732:5734   */\n      0x20\n        /* \"#utility.yul\":5720:5729   */\n      dup3\n        /* \"#utility.yul\":5711:5718   */\n      dup5\n        /* \"#utility.yul\":5707:5730   */\n      sub\n        /* \"#utility.yul\":5703:5735   */\n      slt\n        /* \"#utility.yul\":5700:5819   */\n      iszero\n      tag_418\n      jumpi\n        /* \"#utility.yul\":5738:5817   */\n      tag_419\n      tag_385\n      jump\t// in\n    tag_419:\n        /* \"#utility.yul\":5700:5819   */\n    tag_418:\n        /* \"#utility.yul\":5858:5859   */\n      0x00\n        /* \"#utility.yul\":5883:5936   */\n      tag_420\n        /* \"#utility.yul\":5928:5935   */\n      dup5\n        /* \"#utility.yul\":5919:5925   */\n      dup3\n        /* \"#utility.yul\":5908:5917   */\n      dup6\n        /* \"#utility.yul\":5904:5926   */\n      add\n        /* \"#utility.yul\":5883:5936   */\n      tag_378\n      jump\t// in\n    tag_420:\n        /* \"#utility.yul\":5873:5936   */\n      swap2\n      pop\n        /* \"#utility.yul\":5829:5946   */\n      pop\n        /* \"#utility.yul\":5624:5953   */\n      swap3\n      swap2\n      pop\n      pop\n      jump\t// out\n        /* \"#utility.yul\":5959:6138   */\n    tag_421:\n        /* \"#utility.yul\":6028:6038   */\n      0x00\n        /* \"#utility.yul\":6049:6095   */\n      tag_423\n        /* \"#utility.yul\":6091:6094   */\n      dup4\n        /* \"#utility.yul\":6083:6089   */\n      dup4\n        /* \"#utility.yul\":6049:6095   */\n      tag_424\n      jump\t// in\n    tag_423:\n        /* \"#utility.yul\":6127:6131   */\n      0x20\n        /* \"#utility.yul\":6122:6125   */\n      dup4\n        /* \"#utility.yul\":6118:6132   */\n      add\n        /* \"#utility.yul\":6104:6132   */\n      swap1\n      pop\n        /* \"#utility.yul\":5959:6138   */\n      swap3\n      swap2\n      pop\n      pop\n      jump\t// out\n        /* \"#utility.yul\":6144:6323   */\n    tag_425:\n        /* \"#utility.yul\":6213:6223   */\n      0x00\n        /* \"#utility.yul\":6234:6280   */\n      tag_427\n        /* \"#utility.yul\":6276:6279   */\n      dup4\n        /* \"#utility.yul\":6268:6274   */\n      dup4\n        /* \"#utility.yul\":6234:6280   */\n      tag_428\n      jump\t// in\n    tag_427:\n        /* \"#utility.yul\":6312:6316   */\n      0x20\n        /* \"#utility.yul\":6307:6310   */\n      dup4\n        /* \"#utility.yul\":6303:6317   */\n      add\n        /* \"#utility.yul\":6289:6317   */\n      swap1\n      pop\n        /* \"#utility.yul\":6144:6323   */\n      swap3\n      swap2\n      pop\n      pop\n      jump\t// out\n        /* \"#utility.yul\":6329:6437   */\n    tag_424:\n        /* \"#utility.yul\":6406:6430   */\n      tag_430\n        /* \"#utility.yul\":6424:6429   */\n      dup2\n        /* \"#utility.yul\":6406:6430   */\n      tag_431\n      jump\t// in\n    tag_430:\n        /* \"#utility.yul\":6401:6404   */\n      dup3\n        /* \"#utility.yul\":6394:6431   */\n      mstore\n        /* \"#utility.yul\":6329:6437   */\n      pop\n      pop\n      jump\t// out\n        /* \"#utility.yul\":6443:6561   */\n    tag_432:\n        /* \"#utility.yul\":6530:6554   */\n      tag_434\n        /* \"#utility.yul\":6548:6553   */\n      dup2\n        /* \"#utility.yul\":6530:6554   */\n      tag_431\n      jump\t// in\n    tag_434:\n        /* \"#utility.yul\":6525:6528   */\n      dup3\n        /* \"#utility.yul\":6518:6555   */\n      mstore\n        /* \"#utility.yul\":6443:6561   */\n      pop\n      pop\n      jump\t// out\n        /* \"#utility.yul\":6597:7309   */\n    tag_435:\n        /* \"#utility.yul\":6706:6709   */\n      0x00\n        /* \"#utility.yul\":6735:6789   */\n      tag_437\n        /* \"#utility.yul\":6783:6788   */\n      dup3\n        /* \"#utility.yul\":6735:6789   */\n      tag_438\n      jump\t// in\n    tag_437:\n        /* \"#utility.yul\":6805:6881   */\n      tag_439\n        /* \"#utility.yul\":6874:6880   */\n      dup2\n        /* \"#utility.yul\":6869:6872   */\n      dup6\n        /* \"#utility.yul\":6805:6881   */\n      tag_440\n      jump\t// in\n    tag_439:\n        /* \"#utility.yul\":6798:6881   */\n      swap4\n      pop\n        /* \"#utility.yul\":6905:6961   */\n      tag_441\n        /* \"#utility.yul\":6955:6960   */\n      dup4\n        /* \"#utility.yul\":6905:6961   */\n      tag_442\n      jump\t// in\n    tag_441:\n        /* \"#utility.yul\":6984:6991   */\n      dup1\n        /* \"#utility.yul\":7015:7016   */\n      0x00\n        /* \"#utility.yul\":7000:7284   */\n    tag_443:\n        /* \"#utility.yul\":7025:7031   */\n      dup4\n        /* \"#utility.yul\":7022:7023   */\n      dup2\n        /* \"#utility.yul\":7019:7032   */\n      lt\n        /* \"#utility.yul\":7000:7284   */\n      iszero\n      tag_445\n      jumpi\n        /* \"#utility.yul\":7101:7107   */\n      dup2\n        /* \"#utility.yul\":7095:7108   */\n      mload\n        /* \"#utility.yul\":7128:7191   */\n      tag_446\n        /* \"#utility.yul\":7187:7190   */\n      dup9\n        /* \"#utility.yul\":7172:7185   */\n      dup3\n        /* \"#utility.yul\":7128:7191   */\n      tag_421\n      jump\t// in\n    tag_446:\n        /* \"#utility.yul\":7121:7191   */\n      swap8\n      pop\n        /* \"#utility.yul\":7214:7274   */\n      tag_447\n        /* \"#utility.yul\":7267:7273   */\n      dup4\n        /* \"#utility.yul\":7214:7274   */\n      tag_448\n      jump\t// in\n    tag_447:\n        /* \"#utility.yul\":7204:7274   */\n      swap3\n      pop\n        /* \"#utility.yul\":7060:7284   */\n      pop\n        /* \"#utility.yul\":7047:7048   */\n      0x01\n        /* \"#utility.yul\":7044:7045   */\n      dup2\n        /* \"#utility.yul\":7040:7049   */\n      add\n        /* \"#utility.yul\":7035:7049   */\n      swap1\n      pop\n        /* \"#utility.yul\":7000:7284   */\n      jump(tag_443)\n    tag_445:\n        /* \"#utility.yul\":7004:7018   */\n      pop\n        /* \"#utility.yul\":7300:7303   */\n      dup6\n        /* \"#utility.yul\":7293:7303   */\n      swap4\n      pop\n        /* \"#utility.yul\":6711:7309   */\n      pop\n      pop\n      pop\n        /* \"#utility.yul\":6597:7309   */\n      swap3\n      swap2\n      pop\n      pop\n      jump\t// out\n        /* \"#utility.yul\":7345:8057   */\n    tag_449:\n        /* \"#utility.yul\":7454:7457   */\n      0x00\n        /* \"#utility.yul\":7483:7537   */\n      tag_451\n        /* \"#utility.yul\":7531:7536   */\n      dup3\n        /* \"#utility.yul\":7483:7537   */\n      tag_452\n      jump\t// in\n    tag_451:\n        /* \"#utility.yul\":7553:7629   */\n      tag_453\n        /* \"#utility.yul\":7622:7628   */\n      dup2\n        /* \"#utility.yul\":7617:7620   */\n      dup6\n        /* \"#utility.yul\":7553:7629   */\n      tag_454\n      jump\t// in\n    tag_453:\n        /* \"#utility.yul\":7546:7629   */\n      swap4\n      pop\n        /* \"#utility.yul\":7653:7709   */\n      tag_455\n        /* \"#utility.yul\":7703:7708   */\n      dup4\n        /* \"#utility.yul\":7653:7709   */\n      tag_456\n      jump\t// in\n    tag_455:\n        /* \"#utility.yul\":7732:7739   */\n      dup1\n        /* \"#utility.yul\":7763:7764   */\n      0x00\n        /* \"#utility.yul\":7748:8032   */\n    tag_457:\n        /* \"#utility.yul\":7773:7779   */\n      dup4\n        /* \"#utility.yul\":7770:7771   */\n      dup2\n        /* \"#utility.yul\":7767:7780   */\n      lt\n        /* \"#utility.yul\":7748:8032   */\n      iszero\n      tag_459\n      jumpi\n        /* \"#utility.yul\":7849:7855   */\n      dup2\n        /* \"#utility.yul\":7843:7856   */\n      mload\n        /* \"#utility.yul\":7876:7939   */\n      tag_460\n        /* \"#utility.yul\":7935:7938   */\n      dup9\n        /* \"#utility.yul\":7920:7933   */\n      dup3\n        /* \"#utility.yul\":7876:7939   */\n      tag_425\n      jump\t// in\n    tag_460:\n        /* \"#utility.yul\":7869:7939   */\n      swap8\n      pop\n        /* \"#utility.yul\":7962:8022   */\n      tag_461\n        /* \"#utility.yul\":8015:8021   */\n      dup4\n        /* \"#utility.yul\":7962:8022   */\n      tag_462\n      jump\t// in\n    tag_461:\n        /* \"#utility.yul\":7952:8022   */\n      swap3\n      pop\n        /* \"#utility.yul\":7808:8032   */\n      pop\n        /* \"#utility.yul\":7795:7796   */\n      0x01\n        /* \"#utility.yul\":7792:7793   */\n      dup2\n        /* \"#utility.yul\":7788:7797   */\n      add\n        /* \"#utility.yul\":7783:7797   */\n      swap1\n      pop\n        /* \"#utility.yul\":7748:8032   */\n      jump(tag_457)\n    tag_459:\n        /* \"#utility.yul\":7752:7766   */\n      pop\n        /* \"#utility.yul\":8048:8051   */\n      dup6\n        /* \"#utility.yul\":8041:8051   */\n      swap4\n      pop\n        /* \"#utility.yul\":7459:8057   */\n      pop\n      pop\n      pop\n        /* \"#utility.yul\":7345:8057   */\n      swap3\n      swap2\n      pop\n      pop\n      jump\t// out\n        /* \"#utility.yul\":8063:8162   */\n    tag_463:\n        /* \"#utility.yul\":8134:8155   */\n      tag_465\n        /* \"#utility.yul\":8149:8154   */\n      dup2\n        /* \"#utility.yul\":8134:8155   */\n      tag_466\n      jump\t// in\n    tag_465:\n        /* \"#utility.yul\":8129:8132   */\n      dup3\n        /* \"#utility.yul\":8122:8156   */\n      mstore\n        /* \"#utility.yul\":8063:8162   */\n      pop\n      pop\n      jump\t// out\n        /* \"#utility.yul\":8168:8277   */\n    tag_467:\n        /* \"#utility.yul\":8249:8270   */\n      tag_469\n        /* \"#utility.yul\":8264:8269   */\n      dup2\n        /* \"#utility.yul\":8249:8270   */\n      tag_466\n      jump\t// in\n    tag_469:\n        /* \"#utility.yul\":8244:8247   */\n      dup3\n        /* \"#utility.yul\":8237:8271   */\n      mstore\n        /* \"#utility.yul\":8168:8277   */\n      pop\n      pop\n      jump\t// out\n        /* \"#utility.yul\":8283:8401   */\n    tag_470:\n        /* \"#utility.yul\":8370:8394   */\n      tag_472\n        /* \"#utility.yul\":8388:8393   */\n      dup2\n        /* \"#utility.yul\":8370:8394   */\n      tag_473\n      jump\t// in\n    tag_472:\n        /* \"#utility.yul\":8365:8368   */\n      dup3\n        /* \"#utility.yul\":8358:8395   */\n      mstore\n        /* \"#utility.yul\":8283:8401   */\n      pop\n      pop\n      jump\t// out\n        /* \"#utility.yul\":8407:8751   */\n    tag_474:\n        /* \"#utility.yul\":8485:8488   */\n      0x00\n        /* \"#utility.yul\":8513:8552   */\n      tag_476\n        /* \"#utility.yul\":8546:8551   */\n      dup3\n        /* \"#utility.yul\":8513:8552   */\n      tag_477\n      jump\t// in\n    tag_476:\n        /* \"#utility.yul\":8568:8629   */\n      tag_478\n        /* \"#utility.yul\":8622:8628   */\n      dup2\n        /* \"#utility.yul\":8617:8620   */\n      dup6\n        /* \"#utility.yul\":8568:8629   */\n      tag_479\n      jump\t// in\n    tag_478:\n        /* \"#utility.yul\":8561:8629   */\n      swap4\n      pop\n        /* \"#utility.yul\":8638:8690   */\n      tag_480\n        /* \"#utility.yul\":8683:8689   */\n      dup2\n        /* \"#utility.yul\":8678:8681   */\n      dup6\n        /* \"#utility.yul\":8671:8675   */\n      0x20\n        /* \"#utility.yul\":8664:8669   */\n      dup7\n        /* \"#utility.yul\":8660:8676   */\n      add\n        /* \"#utility.yul\":8638:8690   */\n      tag_481\n      jump\t// in\n    tag_480:\n        /* \"#utility.yul\":8715:8744   */\n      tag_482\n        /* \"#utility.yul\":8737:8743   */\n      dup2\n        /* \"#utility.yul\":8715:8744   */\n      tag_483\n      jump\t// in\n    tag_482:\n        /* \"#utility.yul\":8710:8713   */\n      dup5\n        /* \"#utility.yul\":8706:8745   */\n      add\n        /* \"#utility.yul\":8699:8745   */\n      swap2\n      pop\n        /* \"#utility.yul\":8489:8751   */\n      pop\n        /* \"#utility.yul\":8407:8751   */\n      swap3\n      swap2\n      pop\n      pop\n      jump\t// out\n        /* \"#utility.yul\":8757:9121   */\n    tag_484:\n        /* \"#utility.yul\":8845:8848   */\n      0x00\n        /* \"#utility.yul\":8873:8912   */\n      tag_486\n        /* \"#utility.yul\":8906:8911   */\n      dup3\n        /* \"#utility.yul\":8873:8912   */\n      tag_477\n      jump\t// in\n    tag_486:\n        /* \"#utility.yul\":8928:8999   */\n      tag_487\n        /* \"#utility.yul\":8992:8998   */\n      dup2\n        /* \"#utility.yul\":8987:8990   */\n      dup6\n        /* \"#utility.yul\":8928:8999   */\n      tag_488\n      jump\t// in\n    tag_487:\n        /* \"#utility.yul\":8921:8999   */\n      swap4\n      pop\n        /* \"#utility.yul\":9008:9060   */\n      tag_489\n        /* \"#utility.yul\":9053:9059   */\n      dup2\n        /* \"#utility.yul\":9048:9051   */\n      dup6\n        /* \"#utility.yul\":9041:9045   */\n      0x20\n        /* \"#utility.yul\":9034:9039   */\n      dup7\n        /* \"#utility.yul\":9030:9046   */\n      add\n        /* \"#utility.yul\":9008:9060   */\n      tag_481\n      jump\t// in\n    tag_489:\n        /* \"#utility.yul\":9085:9114   */\n      tag_490\n        /* \"#utility.yul\":9107:9113   */\n      dup2\n        /* \"#utility.yul\":9085:9114   */\n      tag_483\n      jump\t// in\n    tag_490:\n        /* \"#utility.yul\":9080:9083   */\n      dup5\n        /* \"#utility.yul\":9076:9115   */\n      add\n        /* \"#utility.yul\":9069:9115   */\n      swap2\n      pop\n        /* \"#utility.yul\":8849:9121   */\n      pop\n        /* \"#utility.yul\":8757:9121   */\n      swap3\n      swap2\n      pop\n      pop\n      jump\t// out\n        /* \"#utility.yul\":9127:9504   */\n    tag_491:\n        /* \"#utility.yul\":9233:9236   */\n      0x00\n        /* \"#utility.yul\":9261:9300   */\n      tag_493\n        /* \"#utility.yul\":9294:9299   */\n      dup3\n        /* \"#utility.yul\":9261:9300   */\n      tag_477\n      jump\t// in\n    tag_493:\n        /* \"#utility.yul\":9316:9405   */\n      tag_494\n        /* \"#utility.yul\":9398:9404   */\n      dup2\n        /* \"#utility.yul\":9393:9396   */\n      dup6\n        /* \"#utility.yul\":9316:9405   */\n      tag_495\n      jump\t// in\n    tag_494:\n        /* \"#utility.yul\":9309:9405   */\n      swap4\n      pop\n        /* \"#utility.yul\":9414:9466   */\n      tag_496\n        /* \"#utility.yul\":9459:9465   */\n      dup2\n        /* \"#utility.yul\":9454:9457   */\n      dup6\n        /* \"#utility.yul\":9447:9451   */\n      0x20\n        /* \"#utility.yul\":9440:9445   */\n      dup7\n        /* \"#utility.yul\":9436:9452   */\n      add\n        /* \"#utility.yul\":9414:9466   */\n      tag_481\n      jump\t// in\n    tag_496:\n        /* \"#utility.yul\":9491:9497   */\n      dup1\n        /* \"#utility.yul\":9486:9489   */\n      dup5\n        /* \"#utility.yul\":9482:9498   */\n      add\n        /* \"#utility.yul\":9475:9498   */\n      swap2\n      pop\n        /* \"#utility.yul\":9237:9504   */\n      pop\n        /* \"#utility.yul\":9127:9504   */\n      swap3\n      swap2\n      pop\n      pop\n      jump\t// out\n        /* \"#utility.yul\":9510:9876   */\n    tag_497:\n        /* \"#utility.yul\":9652:9655   */\n      0x00\n        /* \"#utility.yul\":9673:9740   */\n      tag_499\n        /* \"#utility.yul\":9737:9739   */\n      0x20\n        /* \"#utility.yul\":9732:9735   */\n      dup4\n        /* \"#utility.yul\":9673:9740   */\n      tag_488\n      jump\t// in\n    tag_499:\n        /* \"#utility.yul\":9666:9740   */\n      swap2\n      pop\n        /* \"#utility.yul\":9749:9842   */\n      tag_500\n        /* \"#utility.yul\":9838:9841   */\n      dup3\n        /* \"#utility.yul\":9749:9842   */\n      tag_501\n      jump\t// in\n    tag_500:\n        /* \"#utility.yul\":9867:9869   */\n      0x20\n        /* \"#utility.yul\":9862:9865   */\n      dup3\n        /* \"#utility.yul\":9858:9870   */\n      add\n        /* \"#utility.yul\":9851:9870   */\n      swap1\n      pop\n        /* \"#utility.yul\":9510:9876   */\n      swap2\n      swap1\n      pop\n      jump\t// out\n        /* \"#utility.yul\":9882:10248   */\n    tag_502:\n        /* \"#utility.yul\":10024:10027   */\n      0x00\n        /* \"#utility.yul\":10045:10112   */\n      tag_504\n        /* \"#utility.yul\":10109:10111   */\n      0x26\n        /* \"#utility.yul\":10104:10107   */\n      dup4\n        /* \"#utility.yul\":10045:10112   */\n      tag_488\n      jump\t// in\n    tag_504:\n        /* \"#utility.yul\":10038:10112   */\n      swap2\n      pop\n        /* \"#utility.yul\":10121:10214   */\n      tag_505\n        /* \"#utility.yul\":10210:10213   */\n      dup3\n        /* \"#utility.yul\":10121:10214   */\n      tag_506\n      jump\t// in\n    tag_505:\n        /* \"#utility.yul\":10239:10241   */\n      0x40\n        /* \"#utility.yul\":10234:10237   */\n      dup3\n        /* \"#utility.yul\":10230:10242   */\n      add\n        /* \"#utility.yul\":10223:10242   */\n      swap1\n      pop\n        /* \"#utility.yul\":9882:10248   */\n      swap2\n      swap1\n      pop\n      jump\t// out\n        /* \"#utility.yul\":10254:10620   */\n    tag_507:\n        /* \"#utility.yul\":10396:10399   */\n      0x00\n        /* \"#utility.yul\":10417:10484   */\n      tag_509\n        /* \"#utility.yul\":10481:10483   */\n      0x1f\n        /* \"#utility.yul\":10476:10479   */\n      dup4\n        /* \"#utility.yul\":10417:10484   */\n      tag_488\n      jump\t// in\n    tag_509:\n        /* \"#utility.yul\":10410:10484   */\n      swap2\n      pop\n        /* \"#utility.yul\":10493:10586   */\n      tag_510\n        /* \"#utility.yul\":10582:10585   */\n      dup3\n        /* \"#utility.yul\":10493:10586   */\n      tag_511\n      jump\t// in\n    tag_510:\n        /* \"#utility.yul\":10611:10613   */\n      0x20\n        /* \"#utility.yul\":10606:10609   */\n      dup3\n        /* \"#utility.yul\":10602:10614   */\n      add\n        /* \"#utility.yul\":10595:10614   */\n      swap1\n      pop\n        /* \"#utility.yul\":10254:10620   */\n      swap2\n      swap1\n      pop\n      jump\t// out\n        /* \"#utility.yul\":10626:10992   */\n    tag_512:\n        /* \"#utility.yul\":10768:10771   */\n      0x00\n        /* \"#utility.yul\":10789:10856   */\n      tag_514\n        /* \"#utility.yul\":10853:10855   */\n      0x1a\n        /* \"#utility.yul\":10848:10851   */\n      dup4\n        /* \"#utility.yul\":10789:10856   */\n      tag_488\n      jump\t// in\n    tag_514:\n        /* \"#utility.yul\":10782:10856   */\n      swap2\n      pop\n        /* \"#utility.yul\":10865:10958   */\n      tag_515\n        /* \"#utility.yul\":10954:10957   */\n      dup3\n        /* \"#utility.yul\":10865:10958   */\n      tag_516\n      jump\t// in\n    tag_515:\n        /* \"#utility.yul\":10983:10985   */\n      0x20\n        /* \"#utility.yul\":10978:10981   */\n      dup3\n        /* \"#utility.yul\":10974:10986   */\n      add\n        /* \"#utility.yul\":10967:10986   */\n      swap1\n      pop\n        /* \"#utility.yul\":10626:10992   */\n      swap2\n      swap1\n      pop\n      jump\t// out\n        /* \"#utility.yul\":10998:11364   */\n    tag_517:\n        /* \"#utility.yul\":11140:11143   */\n      0x00\n        /* \"#utility.yul\":11161:11228   */\n      tag_519\n        /* \"#utility.yul\":11225:11227   */\n      0x20\n        /* \"#utility.yul\":11220:11223   */\n      dup4\n        /* \"#utility.yul\":11161:11228   */\n      tag_488\n      jump\t// in\n    tag_519:\n        /* \"#utility.yul\":11154:11228   */\n      swap2\n      pop\n        /* \"#utility.yul\":11237:11330   */\n      tag_520\n        /* \"#utility.yul\":11326:11329   */\n      dup3\n        /* \"#utility.yul\":11237:11330   */\n      tag_521\n      jump\t// in\n    tag_520:\n        /* \"#utility.yul\":11355:11357   */\n      0x20\n        /* \"#utility.yul\":11350:11353   */\n      dup3\n        /* \"#utility.yul\":11346:11358   */\n      add\n        /* \"#utility.yul\":11339:11358   */\n      swap1\n      pop\n        /* \"#utility.yul\":10998:11364   */\n      swap2\n      swap1\n      pop\n      jump\t// out\n        /* \"#utility.yul\":11370:11772   */\n    tag_522:\n        /* \"#utility.yul\":11530:11533   */\n      0x00\n        /* \"#utility.yul\":11551:11636   */\n      tag_524\n        /* \"#utility.yul\":11633:11635   */\n      0x17\n        /* \"#utility.yul\":11628:11631   */\n      dup4\n        /* \"#utility.yul\":11551:11636   */\n      tag_495\n      jump\t// in\n    tag_524:\n        /* \"#utility.yul\":11544:11636   */\n      swap2\n      pop\n        /* \"#utility.yul\":11645:11738   */\n      tag_525\n        /* \"#utility.yul\":11734:11737   */\n      dup3\n        /* \"#utility.yul\":11645:11738   */\n      tag_526\n      jump\t// in\n    tag_525:\n        /* \"#utility.yul\":11763:11765   */\n      0x17\n        /* \"#utility.yul\":11758:11761   */\n      dup3\n        /* \"#utility.yul\":11754:11766   */\n      add\n        /* \"#utility.yul\":11747:11766   */\n      swap1\n      pop\n        /* \"#utility.yul\":11370:11772   */\n      swap2\n      swap1\n      pop\n      jump\t// out\n        /* \"#utility.yul\":11778:12180   */\n    tag_527:\n        /* \"#utility.yul\":11938:11941   */\n      0x00\n        /* \"#utility.yul\":11959:12044   */\n      tag_529\n        /* \"#utility.yul\":12041:12043   */\n      0x11\n        /* \"#utility.yul\":12036:12039   */\n      dup4\n        /* \"#utility.yul\":11959:12044   */\n      tag_495\n      jump\t// in\n    tag_529:\n        /* \"#utility.yul\":11952:12044   */\n      swap2\n      pop\n        /* \"#utility.yul\":12053:12146   */\n      tag_530\n        /* \"#utility.yul\":12142:12145   */\n      dup3\n        /* \"#utility.yul\":12053:12146   */\n      tag_531\n      jump\t// in\n    tag_530:\n        /* \"#utility.yul\":12171:12173   */\n      0x11\n        /* \"#utility.yul\":12166:12169   */\n      dup3\n        /* \"#utility.yul\":12162:12174   */\n      add\n        /* \"#utility.yul\":12155:12174   */\n      swap1\n      pop\n        /* \"#utility.yul\":11778:12180   */\n      swap2\n      swap1\n      pop\n      jump\t// out\n        /* \"#utility.yul\":12186:12552   */\n    tag_532:\n        /* \"#utility.yul\":12328:12331   */\n      0x00\n        /* \"#utility.yul\":12349:12416   */\n      tag_534\n        /* \"#utility.yul\":12413:12415   */\n      0x2f\n        /* \"#utility.yul\":12408:12411   */\n      dup4\n        /* \"#utility.yul\":12349:12416   */\n      tag_488\n      jump\t// in\n    tag_534:\n        /* \"#utility.yul\":12342:12416   */\n      swap2\n      pop\n        /* \"#utility.yul\":12425:12518   */\n      tag_535\n        /* \"#utility.yul\":12514:12517   */\n      dup3\n        /* \"#utility.yul\":12425:12518   */\n      tag_536\n      jump\t// in\n    tag_535:\n        /* \"#utility.yul\":12543:12545   */\n      0x40\n        /* \"#utility.yul\":12538:12541   */\n      dup3\n        /* \"#utility.yul\":12534:12546   */\n      add\n        /* \"#utility.yul\":12527:12546   */\n      swap1\n      pop\n        /* \"#utility.yul\":12186:12552   */\n      swap2\n      swap1\n      pop\n      jump\t// out\n        /* \"#utility.yul\":12612:13466   */\n    tag_537:\n        /* \"#utility.yul\":12733:12736   */\n      0x00\n        /* \"#utility.yul\":12769:12773   */\n      0x60\n        /* \"#utility.yul\":12764:12767   */\n      dup4\n        /* \"#utility.yul\":12760:12774   */\n      add\n        /* \"#utility.yul\":12856:12860   */\n      0x00\n        /* \"#utility.yul\":12849:12854   */\n      dup4\n        /* \"#utility.yul\":12845:12861   */\n      add\n        /* \"#utility.yul\":12839:12862   */\n      mload\n        /* \"#utility.yul\":12909:12912   */\n      dup5\n        /* \"#utility.yul\":12903:12907   */\n      dup3\n        /* \"#utility.yul\":12899:12913   */\n      sub\n        /* \"#utility.yul\":12892:12896   */\n      0x00\n        /* \"#utility.yul\":12887:12890   */\n      dup7\n        /* \"#utility.yul\":12883:12897   */\n      add\n        /* \"#utility.yul\":12876:12914   */\n      mstore\n        /* \"#utility.yul\":12935:13008   */\n      tag_539\n        /* \"#utility.yul\":13003:13007   */\n      dup3\n        /* \"#utility.yul\":12989:13001   */\n      dup3\n        /* \"#utility.yul\":12935:13008   */\n      tag_474\n      jump\t// in\n    tag_539:\n        /* \"#utility.yul\":12927:13008   */\n      swap2\n      pop\n        /* \"#utility.yul\":12784:13019   */\n      pop\n        /* \"#utility.yul\":13101:13105   */\n      0x20\n        /* \"#utility.yul\":13094:13099   */\n      dup4\n        /* \"#utility.yul\":13090:13106   */\n      add\n        /* \"#utility.yul\":13084:13107   */\n      mload\n        /* \"#utility.yul\":13120:13183   */\n      tag_540\n        /* \"#utility.yul\":13177:13181   */\n      0x20\n        /* \"#utility.yul\":13172:13175   */\n      dup7\n        /* \"#utility.yul\":13168:13182   */\n      add\n        /* \"#utility.yul\":13154:13166   */\n      dup3\n        /* \"#utility.yul\":13120:13183   */\n      tag_424\n      jump\t// in\n    tag_540:\n        /* \"#utility.yul\":13029:13193   */\n      pop\n        /* \"#utility.yul\":13276:13280   */\n      0x40\n        /* \"#utility.yul\":13269:13274   */\n      dup4\n        /* \"#utility.yul\":13265:13281   */\n      add\n        /* \"#utility.yul\":13259:13282   */\n      mload\n        /* \"#utility.yul\":13329:13332   */\n      dup5\n        /* \"#utility.yul\":13323:13327   */\n      dup3\n        /* \"#utility.yul\":13319:13333   */\n      sub\n        /* \"#utility.yul\":13312:13316   */\n      0x40\n        /* \"#utility.yul\":13307:13310   */\n      dup7\n        /* \"#utility.yul\":13303:13317   */\n      add\n        /* \"#utility.yul\":13296:13334   */\n      mstore\n        /* \"#utility.yul\":13355:13428   */\n      tag_541\n        /* \"#utility.yul\":13423:13427   */\n      dup3\n        /* \"#utility.yul\":13409:13421   */\n      dup3\n        /* \"#utility.yul\":13355:13428   */\n      tag_474\n      jump\t// in\n    tag_541:\n        /* \"#utility.yul\":13347:13428   */\n      swap2\n      pop\n        /* \"#utility.yul\":13203:13439   */\n      pop\n        /* \"#utility.yul\":13456:13460   */\n      dup1\n        /* \"#utility.yul\":13449:13460   */\n      swap2\n      pop\n        /* \"#utility.yul\":12738:13466   */\n      pop\n        /* \"#utility.yul\":12612:13466   */\n      swap3\n      swap2\n      pop\n      pop\n      jump\t// out\n        /* \"#utility.yul\":13524:14800   */\n    tag_542:\n        /* \"#utility.yul\":13643:13646   */\n      0x00\n        /* \"#utility.yul\":13679:13683   */\n      0xa0\n        /* \"#utility.yul\":13674:13677   */\n      dup4\n        /* \"#utility.yul\":13670:13684   */\n      add\n        /* \"#utility.yul\":13771:13775   */\n      0x00\n        /* \"#utility.yul\":13764:13769   */\n      dup4\n        /* \"#utility.yul\":13760:13776   */\n      add\n        /* \"#utility.yul\":13754:13777   */\n      mload\n        /* \"#utility.yul\":13824:13827   */\n      dup5\n        /* \"#utility.yul\":13818:13822   */\n      dup3\n        /* \"#utility.yul\":13814:13828   */\n      sub\n        /* \"#utility.yul\":13807:13811   */\n      0x00\n        /* \"#utility.yul\":13802:13805   */\n      dup7\n        /* \"#utility.yul\":13798:13812   */\n      add\n        /* \"#utility.yul\":13791:13829   */\n      mstore\n        /* \"#utility.yul\":13850:13953   */\n      tag_544\n        /* \"#utility.yul\":13948:13952   */\n      dup3\n        /* \"#utility.yul\":13934:13946   */\n      dup3\n        /* \"#utility.yul\":13850:13953   */\n      tag_435\n      jump\t// in\n    tag_544:\n        /* \"#utility.yul\":13842:13953   */\n      swap2\n      pop\n        /* \"#utility.yul\":13694:13964   */\n      pop\n        /* \"#utility.yul\":14055:14059   */\n      0x20\n        /* \"#utility.yul\":14048:14053   */\n      dup4\n        /* \"#utility.yul\":14044:14060   */\n      add\n        /* \"#utility.yul\":14038:14061   */\n      mload\n        /* \"#utility.yul\":14108:14111   */\n      dup5\n        /* \"#utility.yul\":14102:14106   */\n      dup3\n        /* \"#utility.yul\":14098:14112   */\n      sub\n        /* \"#utility.yul\":14091:14095   */\n      0x20\n        /* \"#utility.yul\":14086:14089   */\n      dup7\n        /* \"#utility.yul\":14082:14096   */\n      add\n        /* \"#utility.yul\":14075:14113   */\n      mstore\n        /* \"#utility.yul\":14134:14237   */\n      tag_545\n        /* \"#utility.yul\":14232:14236   */\n      dup3\n        /* \"#utility.yul\":14218:14230   */\n      dup3\n        /* \"#utility.yul\":14134:14237   */\n      tag_449\n      jump\t// in\n    tag_545:\n        /* \"#utility.yul\":14126:14237   */\n      swap2\n      pop\n        /* \"#utility.yul\":13974:14248   */\n      pop\n        /* \"#utility.yul\":14331:14335   */\n      0x40\n        /* \"#utility.yul\":14324:14329   */\n      dup4\n        /* \"#utility.yul\":14320:14336   */\n      add\n        /* \"#utility.yul\":14314:14337   */\n      mload\n        /* \"#utility.yul\":14350:14413   */\n      tag_546\n        /* \"#utility.yul\":14407:14411   */\n      0x40\n        /* \"#utility.yul\":14402:14405   */\n      dup7\n        /* \"#utility.yul\":14398:14412   */\n      add\n        /* \"#utility.yul\":14384:14396   */\n      dup3\n        /* \"#utility.yul\":14350:14413   */\n      tag_428\n      jump\t// in\n    tag_546:\n        /* \"#utility.yul\":14258:14423   */\n      pop\n        /* \"#utility.yul\":14509:14513   */\n      0x60\n        /* \"#utility.yul\":14502:14507   */\n      dup4\n        /* \"#utility.yul\":14498:14514   */\n      add\n        /* \"#utility.yul\":14492:14515   */\n      mload\n        /* \"#utility.yul\":14528:14591   */\n      tag_547\n        /* \"#utility.yul\":14585:14589   */\n      0x60\n        /* \"#utility.yul\":14580:14583   */\n      dup7\n        /* \"#utility.yul\":14576:14590   */\n      add\n        /* \"#utility.yul\":14562:14574   */\n      dup3\n        /* \"#utility.yul\":14528:14591   */\n      tag_428\n      jump\t// in\n    tag_547:\n        /* \"#utility.yul\":14433:14601   */\n      pop\n        /* \"#utility.yul\":14687:14691   */\n      0x80\n        /* \"#utility.yul\":14680:14685   */\n      dup4\n        /* \"#utility.yul\":14676:14692   */\n      add\n        /* \"#utility.yul\":14670:14693   */\n      mload\n        /* \"#utility.yul\":14706:14763   */\n      tag_548\n        /* \"#utility.yul\":14757:14761   */\n      0x80\n        /* \"#utility.yul\":14752:14755   */\n      dup7\n        /* \"#utility.yul\":14748:14762   */\n      add\n        /* \"#utility.yul\":14734:14746   */\n      dup3\n        /* \"#utility.yul\":14706:14763   */\n      tag_463\n      jump\t// in\n    tag_548:\n        /* \"#utility.yul\":14611:14773   */\n      pop\n        /* \"#utility.yul\":14790:14794   */\n      dup1\n        /* \"#utility.yul\":14783:14794   */\n      swap2\n      pop\n        /* \"#utility.yul\":13648:14800   */\n      pop\n        /* \"#utility.yul\":13524:14800   */\n      swap3\n      swap2\n      pop\n      pop\n      jump\t// out\n        /* \"#utility.yul\":14806:14914   */\n    tag_428:\n        /* \"#utility.yul\":14883:14907   */\n      tag_550\n        /* \"#utility.yul\":14901:14906   */\n      dup2\n        /* \"#utility.yul\":14883:14907   */\n      tag_551\n      jump\t// in\n    tag_550:\n        /* \"#utility.yul\":14878:14881   */\n      dup3\n        /* \"#utility.yul\":14871:14908   */\n      mstore\n        /* \"#utility.yul\":14806:14914   */\n      pop\n      pop\n      jump\t// out\n        /* \"#utility.yul\":14920:15038   */\n    tag_552:\n        /* \"#utility.yul\":15007:15031   */\n      tag_554\n        /* \"#utility.yul\":15025:15030   */\n      dup2\n        /* \"#utility.yul\":15007:15031   */\n      tag_551\n      jump\t// in\n    tag_554:\n        /* \"#utility.yul\":15002:15005   */\n      dup3\n        /* \"#utility.yul\":14995:15032   */\n      mstore\n        /* \"#utility.yul\":14920:15038   */\n      pop\n      pop\n      jump\t// out\n        /* \"#utility.yul\":15044:16011   */\n    tag_285:\n        /* \"#utility.yul\":15426:15429   */\n      0x00\n        /* \"#utility.yul\":15448:15596   */\n      tag_556\n        /* \"#utility.yul\":15592:15595   */\n      dup3\n        /* \"#utility.yul\":15448:15596   */\n      tag_522\n      jump\t// in\n    tag_556:\n        /* \"#utility.yul\":15441:15596   */\n      swap2\n      pop\n        /* \"#utility.yul\":15613:15708   */\n      tag_557\n        /* \"#utility.yul\":15704:15707   */\n      dup3\n        /* \"#utility.yul\":15695:15701   */\n      dup6\n        /* \"#utility.yul\":15613:15708   */\n      tag_491\n      jump\t// in\n    tag_557:\n        /* \"#utility.yul\":15606:15708   */\n      swap2\n      pop\n        /* \"#utility.yul\":15725:15873   */\n      tag_558\n        /* \"#utility.yul\":15869:15872   */\n      dup3\n        /* \"#utility.yul\":15725:15873   */\n      tag_527\n      jump\t// in\n    tag_558:\n        /* \"#utility.yul\":15718:15873   */\n      swap2\n      pop\n        /* \"#utility.yul\":15890:15985   */\n      tag_559\n        /* \"#utility.yul\":15981:15984   */\n      dup3\n        /* \"#utility.yul\":15972:15978   */\n      dup5\n        /* \"#utility.yul\":15890:15985   */\n      tag_491\n      jump\t// in\n    tag_559:\n        /* \"#utility.yul\":15883:15985   */\n      swap2\n      pop\n        /* \"#utility.yul\":16002:16005   */\n      dup2\n        /* \"#utility.yul\":15995:16005   */\n      swap1\n      pop\n        /* \"#utility.yul\":15044:16011   */\n      swap4\n      swap3\n      pop\n      pop\n      pop\n      jump\t// out\n        /* \"#utility.yul\":16017:16239   */\n    tag_82:\n        /* \"#utility.yul\":16110:16114   */\n      0x00\n        /* \"#utility.yul\":16148:16150   */\n      0x20\n        /* \"#utility.yul\":16137:16146   */\n      dup3\n        /* \"#utility.yul\":16133:16151   */\n      add\n        /* \"#utility.yul\":16125:16151   */\n      swap1\n      pop\n        /* \"#utility.yul\":16161:16232   */\n      tag_561\n        /* \"#utility.yul\":16229:16230   */\n      0x00\n        /* \"#utility.yul\":16218:16227   */\n      dup4\n        /* \"#utility.yul\":16214:16231   */\n      add\n        /* \"#utility.yul\":16205:16211   */\n      dup5\n        /* \"#utility.yul\":16161:16232   */\n      tag_432\n      jump\t// in\n    tag_561:\n        /* \"#utility.yul\":16017:16239   */\n      swap3\n      swap2\n      pop\n      pop\n      jump\t// out\n        /* \"#utility.yul\":16245:16786   */\n    tag_93:\n        /* \"#utility.yul\":16416:16420   */\n      0x00\n        /* \"#utility.yul\":16454:16457   */\n      0x80\n        /* \"#utility.yul\":16443:16452   */\n      dup3\n        /* \"#utility.yul\":16439:16458   */\n      add\n        /* \"#utility.yul\":16431:16458   */\n      swap1\n      pop\n        /* \"#utility.yul\":16468:16539   */\n      tag_563\n        /* \"#utility.yul\":16536:16537   */\n      0x00\n        /* \"#utility.yul\":16525:16534   */\n      dup4\n        /* \"#utility.yul\":16521:16538   */\n      add\n        /* \"#utility.yul\":16512:16518   */\n      dup8\n        /* \"#utility.yul\":16468:16539   */\n      tag_432\n      jump\t// in\n    tag_563:\n        /* \"#utility.yul\":16549:16621   */\n      tag_564\n        /* \"#utility.yul\":16617:16619   */\n      0x20\n        /* \"#utility.yul\":16606:16615   */\n      dup4\n        /* \"#utility.yul\":16602:16620   */\n      add\n        /* \"#utility.yul\":16593:16599   */\n      dup7\n        /* \"#utility.yul\":16549:16621   */\n      tag_552\n      jump\t// in\n    tag_564:\n        /* \"#utility.yul\":16631:16703   */\n      tag_565\n        /* \"#utility.yul\":16699:16701   */\n      0x40\n        /* \"#utility.yul\":16688:16697   */\n      dup4\n        /* \"#utility.yul\":16684:16702   */\n      add\n        /* \"#utility.yul\":16675:16681   */\n      dup6\n        /* \"#utility.yul\":16631:16703   */\n      tag_552\n      jump\t// in\n    tag_565:\n        /* \"#utility.yul\":16713:16779   */\n      tag_566\n        /* \"#utility.yul\":16775:16777   */\n      0x60\n        /* \"#utility.yul\":16764:16773   */\n      dup4\n        /* \"#utility.yul\":16760:16778   */\n      add\n        /* \"#utility.yul\":16751:16757   */\n      dup5\n        /* \"#utility.yul\":16713:16779   */\n      tag_467\n      jump\t// in\n    tag_566:\n        /* \"#utility.yul\":16245:16786   */\n      swap6\n      swap5\n      pop\n      pop\n      pop\n      pop\n      pop\n      jump\t// out\n        /* \"#utility.yul\":16792:17002   */\n    tag_33:\n        /* \"#utility.yul\":16879:16883   */\n      0x00\n        /* \"#utility.yul\":16917:16919   */\n      0x20\n        /* \"#utility.yul\":16906:16915   */\n      dup3\n        /* \"#utility.yul\":16902:16920   */\n      add\n        /* \"#utility.yul\":16894:16920   */\n      swap1\n      pop\n        /* \"#utility.yul\":16930:16995   */\n      tag_568\n        /* \"#utility.yul\":16992:16993   */\n      0x00\n        /* \"#utility.yul\":16981:16990   */\n      dup4\n        /* \"#utility.yul\":16977:16994   */\n      add\n        /* \"#utility.yul\":16968:16974   */\n      dup5\n        /* \"#utility.yul\":16930:16995   */\n      tag_467\n      jump\t// in\n    tag_568:\n        /* \"#utility.yul\":16792:17002   */\n      swap3\n      swap2\n      pop\n      pop\n      jump\t// out\n        /* \"#utility.yul\":17008:17230   */\n    tag_44:\n        /* \"#utility.yul\":17101:17105   */\n      0x00\n        /* \"#utility.yul\":17139:17141   */\n      0x20\n        /* \"#utility.yul\":17128:17137   */\n      dup3\n        /* \"#utility.yul\":17124:17142   */\n      add\n        /* \"#utility.yul\":17116:17142   */\n      swap1\n      pop\n        /* \"#utility.yul\":17152:17223   */\n      tag_570\n        /* \"#utility.yul\":17220:17221   */\n      0x00\n        /* \"#utility.yul\":17209:17218   */\n      dup4\n        /* \"#utility.yul\":17205:17222   */\n      add\n        /* \"#utility.yul\":17196:17202   */\n      dup5\n        /* \"#utility.yul\":17152:17223   */\n      tag_470\n      jump\t// in\n    tag_570:\n        /* \"#utility.yul\":17008:17230   */\n      swap3\n      swap2\n      pop\n      pop\n      jump\t// out\n        /* \"#utility.yul\":17236:17549   */\n    tag_65:\n        /* \"#utility.yul\":17349:17353   */\n      0x00\n        /* \"#utility.yul\":17387:17389   */\n      0x20\n        /* \"#utility.yul\":17376:17385   */\n      dup3\n        /* \"#utility.yul\":17372:17390   */\n      add\n        /* \"#utility.yul\":17364:17390   */\n      swap1\n      pop\n        /* \"#utility.yul\":17436:17445   */\n      dup2\n        /* \"#utility.yul\":17430:17434   */\n      dup2\n        /* \"#utility.yul\":17426:17446   */\n      sub\n        /* \"#utility.yul\":17422:17423   */\n      0x00\n        /* \"#utility.yul\":17411:17420   */\n      dup4\n        /* \"#utility.yul\":17407:17424   */\n      add\n        /* \"#utility.yul\":17400:17447   */\n      mstore\n        /* \"#utility.yul\":17464:17542   */\n      tag_572\n        /* \"#utility.yul\":17537:17541   */\n      dup2\n        /* \"#utility.yul\":17528:17534   */\n      dup5\n        /* \"#utility.yul\":17464:17542   */\n      tag_484\n      jump\t// in\n    tag_572:\n        /* \"#utility.yul\":17456:17542   */\n      swap1\n      pop\n        /* \"#utility.yul\":17236:17549   */\n      swap3\n      swap2\n      pop\n      pop\n      jump\t// out\n        /* \"#utility.yul\":17555:18179   */\n    tag_50:\n        /* \"#utility.yul\":17744:17748   */\n      0x00\n        /* \"#utility.yul\":17782:17784   */\n      0x60\n        /* \"#utility.yul\":17771:17780   */\n      dup3\n        /* \"#utility.yul\":17767:17785   */\n      add\n        /* \"#utility.yul\":17759:17785   */\n      swap1\n      pop\n        /* \"#utility.yul\":17831:17840   */\n      dup2\n        /* \"#utility.yul\":17825:17829   */\n      dup2\n        /* \"#utility.yul\":17821:17841   */\n      sub\n        /* \"#utility.yul\":17817:17818   */\n      0x00\n        /* \"#utility.yul\":17806:17815   */\n      dup4\n        /* \"#utility.yul\":17802:17819   */\n      add\n        /* \"#utility.yul\":17795:17842   */\n      mstore\n        /* \"#utility.yul\":17859:17937   */\n      tag_574\n        /* \"#utility.yul\":17932:17936   */\n      dup2\n        /* \"#utility.yul\":17923:17929   */\n      dup7\n        /* \"#utility.yul\":17859:17937   */\n      tag_484\n      jump\t// in\n    tag_574:\n        /* \"#utility.yul\":17851:17937   */\n      swap1\n      pop\n        /* \"#utility.yul\":17947:18019   */\n      tag_575\n        /* \"#utility.yul\":18015:18017   */\n      0x20\n        /* \"#utility.yul\":18004:18013   */\n      dup4\n        /* \"#utility.yul\":18000:18018   */\n      add\n        /* \"#utility.yul\":17991:17997   */\n      dup6\n        /* \"#utility.yul\":17947:18019   */\n      tag_432\n      jump\t// in\n    tag_575:\n        /* \"#utility.yul\":18066:18075   */\n      dup2\n        /* \"#utility.yul\":18060:18064   */\n      dup2\n        /* \"#utility.yul\":18056:18076   */\n      sub\n        /* \"#utility.yul\":18051:18053   */\n      0x40\n        /* \"#utility.yul\":18040:18049   */\n      dup4\n        /* \"#utility.yul\":18036:18054   */\n      add\n        /* \"#utility.yul\":18029:18077   */\n      mstore\n        /* \"#utility.yul\":18094:18172   */\n      tag_576\n        /* \"#utility.yul\":18167:18171   */\n      dup2\n        /* \"#utility.yul\":18158:18164   */\n      dup5\n        /* \"#utility.yul\":18094:18172   */\n      tag_484\n      jump\t// in\n    tag_576:\n        /* \"#utility.yul\":18086:18172   */\n      swap1\n      pop\n        /* \"#utility.yul\":17555:18179   */\n      swap5\n      swap4\n      pop\n      pop\n      pop\n      pop\n      jump\t// out\n        /* \"#utility.yul\":18185:18604   */\n    tag_313:\n        /* \"#utility.yul\":18351:18355   */\n      0x00\n        /* \"#utility.yul\":18389:18391   */\n      0x20\n        /* \"#utility.yul\":18378:18387   */\n      dup3\n        /* \"#utility.yul\":18374:18392   */\n      add\n        /* \"#utility.yul\":18366:18392   */\n      swap1\n      pop\n        /* \"#utility.yul\":18438:18447   */\n      dup2\n        /* \"#utility.yul\":18432:18436   */\n      dup2\n        /* \"#utility.yul\":18428:18448   */\n      sub\n        /* \"#utility.yul\":18424:18425   */\n      0x00\n        /* \"#utility.yul\":18413:18422   */\n      dup4\n        /* \"#utility.yul\":18409:18426   */\n      add\n        /* \"#utility.yul\":18402:18449   */\n      mstore\n        /* \"#utility.yul\":18466:18597   */\n      tag_578\n        /* \"#utility.yul\":18592:18596   */\n      dup2\n        /* \"#utility.yul\":18466:18597   */\n      tag_497\n      jump\t// in\n    tag_578:\n        /* \"#utility.yul\":18458:18597   */\n      swap1\n      pop\n        /* \"#utility.yul\":18185:18604   */\n      swap2\n      swap1\n      pop\n      jump\t// out\n        /* \"#utility.yul\":18610:19029   */\n    tag_253:\n        /* \"#utility.yul\":18776:18780   */\n      0x00\n        /* \"#utility.yul\":18814:18816   */\n      0x20\n        /* \"#utility.yul\":18803:18812   */\n      dup3\n        /* \"#utility.yul\":18799:18817   */\n      add\n        /* \"#utility.yul\":18791:18817   */\n      swap1\n      pop\n        /* \"#utility.yul\":18863:18872   */\n      dup2\n        /* \"#utility.yul\":18857:18861   */\n      dup2\n        /* \"#utility.yul\":18853:18873   */\n      sub\n        /* \"#utility.yul\":18849:18850   */\n      0x00\n        /* \"#utility.yul\":18838:18847   */\n      dup4\n        /* \"#utility.yul\":18834:18851   */\n      add\n        /* \"#utility.yul\":18827:18874   */\n      mstore\n        /* \"#utility.yul\":18891:19022   */\n      tag_580\n        /* \"#utility.yul\":19017:19021   */\n      dup2\n        /* \"#utility.yul\":18891:19022   */\n      tag_502\n      jump\t// in\n    tag_580:\n        /* \"#utility.yul\":18883:19022   */\n      swap1\n      pop\n        /* \"#utility.yul\":18610:19029   */\n      swap2\n      swap1\n      pop\n      jump\t// out\n        /* \"#utility.yul\":19035:19454   */\n    tag_182:\n        /* \"#utility.yul\":19201:19205   */\n      0x00\n        /* \"#utility.yul\":19239:19241   */\n      0x20\n        /* \"#utility.yul\":19228:19237   */\n      dup3\n        /* \"#utility.yul\":19224:19242   */\n      add\n        /* \"#utility.yul\":19216:19242   */\n      swap1\n      pop\n        /* \"#utility.yul\":19288:19297   */\n      dup2\n        /* \"#utility.yul\":19282:19286   */\n      dup2\n        /* \"#utility.yul\":19278:19298   */\n      sub\n        /* \"#utility.yul\":19274:19275   */\n      0x00\n        /* \"#utility.yul\":19263:19272   */\n      dup4\n        /* \"#utility.yul\":19259:19276   */\n      add\n        /* \"#utility.yul\":19252:19299   */\n      mstore\n        /* \"#utility.yul\":19316:19447   */\n      tag_582\n        /* \"#utility.yul\":19442:19446   */\n      dup2\n        /* \"#utility.yul\":19316:19447   */\n      tag_507\n      jump\t// in\n    tag_582:\n        /* \"#utility.yul\":19308:19447   */\n      swap1\n      pop\n        /* \"#utility.yul\":19035:19454   */\n      swap2\n      swap1\n      pop\n      jump\t// out\n        /* \"#utility.yul\":19460:19879   */\n    tag_143:\n        /* \"#utility.yul\":19626:19630   */\n      0x00\n        /* \"#utility.yul\":19664:19666   */\n      0x20\n        /* \"#utility.yul\":19653:19662   */\n      dup3\n        /* \"#utility.yul\":19649:19667   */\n      add\n        /* \"#utility.yul\":19641:19667   */\n      swap1\n      pop\n        /* \"#utility.yul\":19713:19722   */\n      dup2\n        /* \"#utility.yul\":19707:19711   */\n      dup2\n        /* \"#utility.yul\":19703:19723   */\n      sub\n        /* \"#utility.yul\":19699:19700   */\n      0x00\n        /* \"#utility.yul\":19688:19697   */\n      dup4\n        /* \"#utility.yul\":19684:19701   */\n      add\n        /* \"#utility.yul\":19677:19724   */\n      mstore\n        /* \"#utility.yul\":19741:19872   */\n      tag_584\n        /* \"#utility.yul\":19867:19871   */\n      dup2\n        /* \"#utility.yul\":19741:19872   */\n      tag_512\n      jump\t// in\n    tag_584:\n        /* \"#utility.yul\":19733:19872   */\n      swap1\n      pop\n        /* \"#utility.yul\":19460:19879   */\n      swap2\n      swap1\n      pop\n      jump\t// out\n        /* \"#utility.yul\":19885:20304   */\n    tag_274:\n        /* \"#utility.yul\":20051:20055   */\n      0x00\n        /* \"#utility.yul\":20089:20091   */\n      0x20\n        /* \"#utility.yul\":20078:20087   */\n      dup3\n        /* \"#utility.yul\":20074:20092   */\n      add\n        /* \"#utility.yul\":20066:20092   */\n      swap1\n      pop\n        /* \"#utility.yul\":20138:20147   */\n      dup2\n        /* \"#utility.yul\":20132:20136   */\n      dup2\n        /* \"#utility.yul\":20128:20148   */\n      sub\n        /* \"#utility.yul\":20124:20125   */\n      0x00\n        /* \"#utility.yul\":20113:20122   */\n      dup4\n        /* \"#utility.yul\":20109:20126   */\n      add\n        /* \"#utility.yul\":20102:20149   */\n      mstore\n        /* \"#utility.yul\":20166:20297   */\n      tag_586\n        /* \"#utility.yul\":20292:20296   */\n      dup2\n        /* \"#utility.yul\":20166:20297   */\n      tag_517\n      jump\t// in\n    tag_586:\n        /* \"#utility.yul\":20158:20297   */\n      swap1\n      pop\n        /* \"#utility.yul\":19885:20304   */\n      swap2\n      swap1\n      pop\n      jump\t// out\n        /* \"#utility.yul\":20310:20729   */\n    tag_175:\n        /* \"#utility.yul\":20476:20480   */\n      0x00\n        /* \"#utility.yul\":20514:20516   */\n      0x20\n        /* \"#utility.yul\":20503:20512   */\n      dup3\n        /* \"#utility.yul\":20499:20517   */\n      add\n        /* \"#utility.yul\":20491:20517   */\n      swap1\n      pop\n        /* \"#utility.yul\":20563:20572   */\n      dup2\n        /* \"#utility.yul\":20557:20561   */\n      dup2\n        /* \"#utility.yul\":20553:20573   */\n      sub\n        /* \"#utility.yul\":20549:20550   */\n      0x00\n        /* \"#utility.yul\":20538:20547   */\n      dup4\n        /* \"#utility.yul\":20534:20551   */\n      add\n        /* \"#utility.yul\":20527:20574   */\n      mstore\n        /* \"#utility.yul\":20591:20722   */\n      tag_588\n        /* \"#utility.yul\":20717:20721   */\n      dup2\n        /* \"#utility.yul\":20591:20722   */\n      tag_532\n      jump\t// in\n    tag_588:\n        /* \"#utility.yul\":20583:20722   */\n      swap1\n      pop\n        /* \"#utility.yul\":20310:20729   */\n      swap2\n      swap1\n      pop\n      jump\t// out\n        /* \"#utility.yul\":20735:21112   */\n    tag_105:\n        /* \"#utility.yul\":20880:20884   */\n      0x00\n        /* \"#utility.yul\":20918:20920   */\n      0x20\n        /* \"#utility.yul\":20907:20916   */\n      dup3\n        /* \"#utility.yul\":20903:20921   */\n      add\n        /* \"#utility.yul\":20895:20921   */\n      swap1\n      pop\n        /* \"#utility.yul\":20967:20976   */\n      dup2\n        /* \"#utility.yul\":20961:20965   */\n      dup2\n        /* \"#utility.yul\":20957:20977   */\n      sub\n        /* \"#utility.yul\":20953:20954   */\n      0x00\n        /* \"#utility.yul\":20942:20951   */\n      dup4\n        /* \"#utility.yul\":20938:20955   */\n      add\n        /* \"#utility.yul\":20931:20978   */\n      mstore\n        /* \"#utility.yul\":20995:21105   */\n      tag_590\n        /* \"#utility.yul\":21100:21104   */\n      dup2\n        /* \"#utility.yul\":21091:21097   */\n      dup5\n        /* \"#utility.yul\":20995:21105   */\n      tag_537\n      jump\t// in\n    tag_590:\n        /* \"#utility.yul\":20987:21105   */\n      swap1\n      pop\n        /* \"#utility.yul\":20735:21112   */\n      swap3\n      swap2\n      pop\n      pop\n      jump\t// out\n        /* \"#utility.yul\":21118:21491   */\n    tag_99:\n        /* \"#utility.yul\":21261:21265   */\n      0x00\n        /* \"#utility.yul\":21299:21301   */\n      0x20\n        /* \"#utility.yul\":21288:21297   */\n      dup3\n        /* \"#utility.yul\":21284:21302   */\n      add\n        /* \"#utility.yul\":21276:21302   */\n      swap1\n      pop\n        /* \"#utility.yul\":21348:21357   */\n      dup2\n        /* \"#utility.yul\":21342:21346   */\n      dup2\n        /* \"#utility.yul\":21338:21358   */\n      sub\n        /* \"#utility.yul\":21334:21335   */\n      0x00\n        /* \"#utility.yul\":21323:21332   */\n      dup4\n        /* \"#utility.yul\":21319:21336   */\n      add\n        /* \"#utility.yul\":21312:21359   */\n      mstore\n        /* \"#utility.yul\":21376:21484   */\n      tag_592\n        /* \"#utility.yul\":21479:21483   */\n      dup2\n        /* \"#utility.yul\":21470:21476   */\n      dup5\n        /* \"#utility.yul\":21376:21484   */\n      tag_542\n      jump\t// in\n    tag_592:\n        /* \"#utility.yul\":21368:21484   */\n      swap1\n      pop\n        /* \"#utility.yul\":21118:21491   */\n      swap3\n      swap2\n      pop\n      pop\n      jump\t// out\n        /* \"#utility.yul\":21497:21626   */\n    tag_337:\n        /* \"#utility.yul\":21531:21537   */\n      0x00\n        /* \"#utility.yul\":21558:21578   */\n      tag_594\n      tag_595\n      jump\t// in\n    tag_594:\n        /* \"#utility.yul\":21548:21578   */\n      swap1\n      pop\n        /* \"#utility.yul\":21587:21620   */\n      tag_596\n        /* \"#utility.yul\":21615:21619   */\n      dup3\n        /* \"#utility.yul\":21607:21613   */\n      dup3\n        /* \"#utility.yul\":21587:21620   */\n      tag_597\n      jump\t// in\n    tag_596:\n        /* \"#utility.yul\":21497:21626   */\n      swap2\n      swap1\n      pop\n      jump\t// out\n        /* \"#utility.yul\":21632:21707   */\n    tag_595:\n        /* \"#utility.yul\":21665:21671   */\n      0x00\n        /* \"#utility.yul\":21698:21700   */\n      0x40\n        /* \"#utility.yul\":21692:21701   */\n      mload\n        /* \"#utility.yul\":21682:21701   */\n      swap1\n      pop\n        /* \"#utility.yul\":21632:21707   */\n      swap1\n      jump\t// out\n        /* \"#utility.yul\":21713:22024   */\n    tag_336:\n        /* \"#utility.yul\":21790:21794   */\n      0x00\n        /* \"#utility.yul\":21880:21898   */\n      0xffffffffffffffff\n        /* \"#utility.yul\":21872:21878   */\n      dup3\n        /* \"#utility.yul\":21869:21899   */\n      gt\n        /* \"#utility.yul\":21866:21922   */\n      iszero\n      tag_600\n      jumpi\n        /* \"#utility.yul\":21902:21920   */\n      tag_601\n      tag_294\n      jump\t// in\n    tag_601:\n        /* \"#utility.yul\":21866:21922   */\n    tag_600:\n        /* \"#utility.yul\":21952:21956   */\n      0x20\n        /* \"#utility.yul\":21944:21950   */\n      dup3\n        /* \"#utility.yul\":21940:21957   */\n      mul\n        /* \"#utility.yul\":21932:21957   */\n      swap1\n      pop\n        /* \"#utility.yul\":22012:22016   */\n      0x20\n        /* \"#utility.yul\":22006:22010   */\n      dup2\n        /* \"#utility.yul\":22002:22017   */\n      add\n        /* \"#utility.yul\":21994:22017   */\n      swap1\n      pop\n        /* \"#utility.yul\":21713:22024   */\n      swap2\n      swap1\n      pop\n      jump\t// out\n        /* \"#utility.yul\":22030:22338   */\n    tag_350:\n        /* \"#utility.yul\":22092:22096   */\n      0x00\n        /* \"#utility.yul\":22182:22200   */\n      0xffffffffffffffff\n        /* \"#utility.yul\":22174:22180   */\n      dup3\n        /* \"#utility.yul\":22171:22201   */\n      gt\n        /* \"#utility.yul\":22168:22224   */\n      iszero\n      tag_603\n      jumpi\n        /* \"#utility.yul\":22204:22222   */\n      tag_604\n      tag_294\n      jump\t// in\n    tag_604:\n        /* \"#utility.yul\":22168:22224   */\n    tag_603:\n        /* \"#utility.yul\":22242:22271   */\n      tag_605\n        /* \"#utility.yul\":22264:22270   */\n      dup3\n        /* \"#utility.yul\":22242:22271   */\n      tag_483\n      jump\t// in\n    tag_605:\n        /* \"#utility.yul\":22234:22271   */\n      swap1\n      pop\n        /* \"#utility.yul\":22326:22330   */\n      0x20\n        /* \"#utility.yul\":22320:22324   */\n      dup2\n        /* \"#utility.yul\":22316:22331   */\n      add\n        /* \"#utility.yul\":22308:22331   */\n      swap1\n      pop\n        /* \"#utility.yul\":22030:22338   */\n      swap2\n      swap1\n      pop\n      jump\t// out\n        /* \"#utility.yul\":22344:22476   */\n    tag_442:\n        /* \"#utility.yul\":22411:22415   */\n      0x00\n        /* \"#utility.yul\":22434:22437   */\n      dup2\n        /* \"#utility.yul\":22426:22437   */\n      swap1\n      pop\n        /* \"#utility.yul\":22464:22468   */\n      0x20\n        /* \"#utility.yul\":22459:22462   */\n      dup3\n        /* \"#utility.yul\":22455:22469   */\n      add\n        /* \"#utility.yul\":22447:22469   */\n      swap1\n      pop\n        /* \"#utility.yul\":22344:22476   */\n      swap2\n      swap1\n      pop\n      jump\t// out\n        /* \"#utility.yul\":22482:22614   */\n    tag_456:\n        /* \"#utility.yul\":22549:22553   */\n      0x00\n        /* \"#utility.yul\":22572:22575   */\n      dup2\n        /* \"#utility.yul\":22564:22575   */\n      swap1\n      pop\n        /* \"#utility.yul\":22602:22606   */\n      0x20\n        /* \"#utility.yul\":22597:22600   */\n      dup3\n        /* \"#utility.yul\":22593:22607   */\n      add\n        /* \"#utility.yul\":22585:22607   */\n      swap1\n      pop\n        /* \"#utility.yul\":22482:22614   */\n      swap2\n      swap1\n      pop\n      jump\t// out\n        /* \"#utility.yul\":22620:22734   */\n    tag_438:\n        /* \"#utility.yul\":22687:22693   */\n      0x00\n        /* \"#utility.yul\":22721:22726   */\n      dup2\n        /* \"#utility.yul\":22715:22727   */\n      mload\n        /* \"#utility.yul\":22705:22727   */\n      swap1\n      pop\n        /* \"#utility.yul\":22620:22734   */\n      swap2\n      swap1\n      pop\n      jump\t// out\n        /* \"#utility.yul\":22740:22854   */\n    tag_452:\n        /* \"#utility.yul\":22807:22813   */\n      0x00\n        /* \"#utility.yul\":22841:22846   */\n      dup2\n        /* \"#utility.yul\":22835:22847   */\n      mload\n        /* \"#utility.yul\":22825:22847   */\n      swap1\n      pop\n        /* \"#utility.yul\":22740:22854   */\n      swap2\n      swap1\n      pop\n      jump\t// out\n        /* \"#utility.yul\":22860:22959   */\n    tag_477:\n        /* \"#utility.yul\":22912:22918   */\n      0x00\n        /* \"#utility.yul\":22946:22951   */\n      dup2\n        /* \"#utility.yul\":22940:22952   */\n      mload\n        /* \"#utility.yul\":22930:22952   */\n      swap1\n      pop\n        /* \"#utility.yul\":22860:22959   */\n      swap2\n      swap1\n      pop\n      jump\t// out\n        /* \"#utility.yul\":22965:23078   */\n    tag_448:\n        /* \"#utility.yul\":23035:23039   */\n      0x00\n        /* \"#utility.yul\":23067:23071   */\n      0x20\n        /* \"#utility.yul\":23062:23065   */\n      dup3\n        /* \"#utility.yul\":23058:23072   */\n      add\n        /* \"#utility.yul\":23050:23072   */\n      swap1\n      pop\n        /* \"#utility.yul\":22965:23078   */\n      swap2\n      swap1\n      pop\n      jump\t// out\n        /* \"#utility.yul\":23084:23197   */\n    tag_462:\n        /* \"#utility.yul\":23154:23158   */\n      0x00\n        /* \"#utility.yul\":23186:23190   */\n      0x20\n        /* \"#utility.yul\":23181:23184   */\n      dup3\n        /* \"#utility.yul\":23177:23191   */\n      add\n        /* \"#utility.yul\":23169:23191   */\n      swap1\n      pop\n        /* \"#utility.yul\":23084:23197   */\n      swap2\n      swap1\n      pop\n      jump\t// out\n        /* \"#utility.yul\":23203:23377   */\n    tag_440:\n        /* \"#utility.yul\":23292:23303   */\n      0x00\n        /* \"#utility.yul\":23326:23332   */\n      dup3\n        /* \"#utility.yul\":23321:23324   */\n      dup3\n        /* \"#utility.yul\":23314:23333   */\n      mstore\n        /* \"#utility.yul\":23366:23370   */\n      0x20\n        /* \"#utility.yul\":23361:23364   */\n      dup3\n        /* \"#utility.yul\":23357:23371   */\n      add\n        /* \"#utility.yul\":23342:23371   */\n      swap1\n      pop\n        /* \"#utility.yul\":23203:23377   */\n      swap3\n      swap2\n      pop\n      pop\n      jump\t// out\n        /* \"#utility.yul\":23383:23557   */\n    tag_454:\n        /* \"#utility.yul\":23472:23483   */\n      0x00\n        /* \"#utility.yul\":23506:23512   */\n      dup3\n        /* \"#utility.yul\":23501:23504   */\n      dup3\n        /* \"#utility.yul\":23494:23513   */\n      mstore\n        /* \"#utility.yul\":23546:23550   */\n      0x20\n        /* \"#utility.yul\":23541:23544   */\n      dup3\n        /* \"#utility.yul\":23537:23551   */\n      add\n        /* \"#utility.yul\":23522:23551   */\n      swap1\n      pop\n        /* \"#utility.yul\":23383:23557   */\n      swap3\n      swap2\n      pop\n      pop\n      jump\t// out\n        /* \"#utility.yul\":23563:23722   */\n    tag_479:\n        /* \"#utility.yul\":23637:23648   */\n      0x00\n        /* \"#utility.yul\":23671:23677   */\n      dup3\n        /* \"#utility.yul\":23666:23669   */\n      dup3\n        /* \"#utility.yul\":23659:23678   */\n      mstore\n        /* \"#utility.yul\":23711:23715   */\n      0x20\n        /* \"#utility.yul\":23706:23709   */\n      dup3\n        /* \"#utility.yul\":23702:23716   */\n      add\n        /* \"#utility.yul\":23687:23716   */\n      swap1\n      pop\n        /* \"#utility.yul\":23563:23722   */\n      swap3\n      swap2\n      pop\n      pop\n      jump\t// out\n        /* \"#utility.yul\":23728:23897   */\n    tag_488:\n        /* \"#utility.yul\":23812:23823   */\n      0x00\n        /* \"#utility.yul\":23846:23852   */\n      dup3\n        /* \"#utility.yul\":23841:23844   */\n      dup3\n        /* \"#utility.yul\":23834:23853   */\n      mstore\n        /* \"#utility.yul\":23886:23890   */\n      0x20\n        /* \"#utility.yul\":23881:23884   */\n      dup3\n        /* \"#utility.yul\":23877:23891   */\n      add\n        /* \"#utility.yul\":23862:23891   */\n      swap1\n      pop\n        /* \"#utility.yul\":23728:23897   */\n      swap3\n      swap2\n      pop\n      pop\n      jump\t// out\n        /* \"#utility.yul\":23903:24051   */\n    tag_495:\n        /* \"#utility.yul\":24005:24016   */\n      0x00\n        /* \"#utility.yul\":24042:24045   */\n      dup2\n        /* \"#utility.yul\":24027:24045   */\n      swap1\n      pop\n        /* \"#utility.yul\":23903:24051   */\n      swap3\n      swap2\n      pop\n      pop\n      jump\t// out\n        /* \"#utility.yul\":24057:24362   */\n    tag_291:\n        /* \"#utility.yul\":24097:24100   */\n      0x00\n        /* \"#utility.yul\":24116:24136   */\n      tag_619\n        /* \"#utility.yul\":24134:24135   */\n      dup3\n        /* \"#utility.yul\":24116:24136   */\n      tag_551\n      jump\t// in\n    tag_619:\n        /* \"#utility.yul\":24111:24136   */\n      swap2\n      pop\n        /* \"#utility.yul\":24150:24170   */\n      tag_620\n        /* \"#utility.yul\":24168:24169   */\n      dup4\n        /* \"#utility.yul\":24150:24170   */\n      tag_551\n      jump\t// in\n    tag_620:\n        /* \"#utility.yul\":24145:24170   */\n      swap3\n      pop\n        /* \"#utility.yul\":24304:24305   */\n      dup3\n        /* \"#utility.yul\":24236:24302   */\n      0xffffffffffffffffffffffffffffffffffffffffffffffffffffffffffffffff\n        /* \"#utility.yul\":24232:24306   */\n      sub\n        /* \"#utility.yul\":24229:24230   */\n      dup3\n        /* \"#utility.yul\":24226:24307   */\n      gt\n        /* \"#utility.yul\":24223:24330   */\n      iszero\n      tag_621\n      jumpi\n        /* \"#utility.yul\":24310:24328   */\n      tag_622\n      tag_623\n      jump\t// in\n    tag_622:\n        /* \"#utility.yul\":24223:24330   */\n    tag_621:\n        /* \"#utility.yul\":24354:24355   */\n      dup3\n        /* \"#utility.yul\":24351:24352   */\n      dup3\n        /* \"#utility.yul\":24347:24356   */\n      add\n        /* \"#utility.yul\":24340:24356   */\n      swap1\n      pop\n        /* \"#utility.yul\":24057:24362   */\n      swap3\n      swap2\n      pop\n      pop\n      jump\t// out\n        /* \"#utility.yul\":24368:24716   */\n    tag_289:\n        /* \"#utility.yul\":24408:24415   */\n      0x00\n        /* \"#utility.yul\":24431:24451   */\n      tag_625\n        /* \"#utility.yul\":24449:24450   */\n      dup3\n        /* \"#utility.yul\":24431:24451   */\n      tag_551\n      jump\t// in\n    tag_625:\n        /* \"#utility.yul\":24426:24451   */\n      swap2\n      pop\n        /* \"#utility.yul\":24465:24485   */\n      tag_626\n        /* \"#utility.yul\":24483:24484   */\n      dup4\n        /* \"#utility.yul\":24465:24485   */\n      tag_551\n      jump\t// in\n    tag_626:\n        /* \"#utility.yul\":24460:24485   */\n      swap3\n      pop\n        /* \"#utility.yul\":24653:24654   */\n      dup2\n        /* \"#utility.yul\":24585:24651   */\n      0xffffffffffffffffffffffffffffffffffffffffffffffffffffffffffffffff\n        /* \"#utility.yul\":24581:24655   */\n      div\n        /* \"#utility.yul\":24578:24579   */\n      dup4\n        /* \"#utility.yul\":24575:24656   */\n      gt\n        /* \"#utility.yul\":24570:24571   */\n      dup3\n        /* \"#utility.yul\":24563:24572   */\n      iszero\n        /* \"#utility.yul\":24556:24573   */\n      iszero\n        /* \"#utility.yul\":24552:24657   */\n      and\n        /* \"#utility.yul\":24549:24680   */\n      iszero\n      tag_627\n      jumpi\n        /* \"#utility.yul\":24660:24678   */\n      tag_628\n      tag_623\n      jump\t// in\n    tag_628:\n        /* \"#utility.yul\":24549:24680   */\n    tag_627:\n        /* \"#utility.yul\":24708:24709   */\n      dup3\n        /* \"#utility.yul\":24705:24706   */\n      dup3\n        /* \"#utility.yul\":24701:24710   */\n      mul\n        /* \"#utility.yul\":24690:24710   */\n      swap1\n      pop\n        /* \"#utility.yul\":24368:24716   */\n      swap3\n      swap2\n      pop\n      pop\n      jump\t// out\n        /* \"#utility.yul\":24722:24818   */\n    tag_431:\n        /* \"#utility.yul\":24759:24766   */\n      0x00\n        /* \"#utility.yul\":24788:24812   */\n      tag_630\n        /* \"#utility.yul\":24806:24811   */\n      dup3\n        /* \"#utility.yul\":24788:24812   */\n      tag_631\n      jump\t// in\n    tag_630:\n        /* \"#utility.yul\":24777:24812   */\n      swap1\n      pop\n        /* \"#utility.yul\":24722:24818   */\n      swap2\n      swap1\n      pop\n      jump\t// out\n        /* \"#utility.yul\":24824:24914   */\n    tag_466:\n        /* \"#utility.yul\":24858:24865   */\n      0x00\n        /* \"#utility.yul\":24901:24906   */\n      dup2\n        /* \"#utility.yul\":24894:24907   */\n      iszero\n        /* \"#utility.yul\":24887:24908   */\n      iszero\n        /* \"#utility.yul\":24876:24908   */\n      swap1\n      pop\n        /* \"#utility.yul\":24824:24914   */\n      swap2\n      swap1\n      pop\n      jump\t// out\n        /* \"#utility.yul\":24920:24997   */\n    tag_473:\n        /* \"#utility.yul\":24957:24964   */\n      0x00\n        /* \"#utility.yul\":24986:24991   */\n      dup2\n        /* \"#utility.yul\":24975:24991   */\n      swap1\n      pop\n        /* \"#utility.yul\":24920:24997   */\n      swap2\n      swap1\n      pop\n      jump\t// out\n        /* \"#utility.yul\":25003:25152   */\n    tag_634:\n        /* \"#utility.yul\":25039:25046   */\n      0x00\n        /* \"#utility.yul\":25079:25145   */\n      0xffffffff00000000000000000000000000000000000000000000000000000000\n        /* \"#utility.yul\":25072:25077   */\n      dup3\n        /* \"#utility.yul\":25068:25146   */\n      and\n        /* \"#utility.yul\":25057:25146   */\n      swap1\n      pop\n        /* \"#utility.yul\":25003:25152   */\n      swap2\n      swap1\n      pop\n      jump\t// out\n        /* \"#utility.yul\":25158:25284   */\n    tag_631:\n        /* \"#utility.yul\":25195:25202   */\n      0x00\n        /* \"#utility.yul\":25235:25277   */\n      0xffffffffffffffffffffffffffffffffffffffff\n        /* \"#utility.yul\":25228:25233   */\n      dup3\n        /* \"#utility.yul\":25224:25278   */\n      and\n        /* \"#utility.yul\":25213:25278   */\n      swap1\n      pop\n        /* \"#utility.yul\":25158:25284   */\n      swap2\n      swap1\n      pop\n      jump\t// out\n        /* \"#utility.yul\":25290:25367   */\n    tag_551:\n        /* \"#utility.yul\":25327:25334   */\n      0x00\n        /* \"#utility.yul\":25356:25361   */\n      dup2\n        /* \"#utility.yul\":25345:25361   */\n      swap1\n      pop\n        /* \"#utility.yul\":25290:25367   */\n      swap2\n      swap1\n      pop\n      jump\t// out\n        /* \"#utility.yul\":25373:25527   */\n    tag_355:\n        /* \"#utility.yul\":25457:25463   */\n      dup3\n        /* \"#utility.yul\":25452:25455   */\n      dup2\n        /* \"#utility.yul\":25447:25450   */\n      dup4\n        /* \"#utility.yul\":25434:25464   */\n      calldatacopy\n        /* \"#utility.yul\":25519:25520   */\n      0x00\n        /* \"#utility.yul\":25510:25516   */\n      dup4\n        /* \"#utility.yul\":25505:25508   */\n      dup4\n        /* \"#utility.yul\":25501:25517   */\n      add\n        /* \"#utility.yul\":25494:25521   */\n      mstore\n        /* \"#utility.yul\":25373:25527   */\n      pop\n      pop\n      pop\n      jump\t// out\n        /* \"#utility.yul\":25533:25840   */\n    tag_481:\n        /* \"#utility.yul\":25601:25602   */\n      0x00\n        /* \"#utility.yul\":25611:25724   */\n    tag_640:\n        /* \"#utility.yul\":25625:25631   */\n      dup4\n        /* \"#utility.yul\":25622:25623   */\n      dup2\n        /* \"#utility.yul\":25619:25632   */\n      lt\n        /* \"#utility.yul\":25611:25724   */\n      iszero\n      tag_642\n      jumpi\n        /* \"#utility.yul\":25710:25711   */\n      dup1\n        /* \"#utility.yul\":25705:25708   */\n      dup3\n        /* \"#utility.yul\":25701:25712   */\n      add\n        /* \"#utility.yul\":25695:25713   */\n      mload\n        /* \"#utility.yul\":25691:25692   */\n      dup2\n        /* \"#utility.yul\":25686:25689   */\n      dup5\n        /* \"#utility.yul\":25682:25693   */\n      add\n        /* \"#utility.yul\":25675:25714   */\n      mstore\n        /* \"#utility.yul\":25647:25649   */\n      0x20\n        /* \"#utility.yul\":25644:25645   */\n      dup2\n        /* \"#utility.yul\":25640:25650   */\n      add\n        /* \"#utility.yul\":25635:25650   */\n      swap1\n      pop\n        /* \"#utility.yul\":25611:25724   */\n      jump(tag_640)\n    tag_642:\n        /* \"#utility.yul\":25742:25748   */\n      dup4\n        /* \"#utility.yul\":25739:25740   */\n      dup2\n        /* \"#utility.yul\":25736:25749   */\n      gt\n        /* \"#utility.yul\":25733:25834   */\n      iszero\n      tag_643\n      jumpi\n        /* \"#utility.yul\":25822:25823   */\n      0x00\n        /* \"#utility.yul\":25813:25819   */\n      dup5\n        /* \"#utility.yul\":25808:25811   */\n      dup5\n        /* \"#utility.yul\":25804:25820   */\n      add\n        /* \"#utility.yul\":25797:25824   */\n      mstore\n        /* \"#utility.yul\":25733:25834   */\n    tag_643:\n        /* \"#utility.yul\":25582:25840   */\n      pop\n        /* \"#utility.yul\":25533:25840   */\n      pop\n      pop\n      pop\n      jump\t// out\n        /* \"#utility.yul\":25846:26017   */\n    tag_310:\n        /* \"#utility.yul\":25885:25888   */\n      0x00\n        /* \"#utility.yul\":25908:25932   */\n      tag_645\n        /* \"#utility.yul\":25926:25931   */\n      dup3\n        /* \"#utility.yul\":25908:25932   */\n      tag_551\n      jump\t// in\n    tag_645:\n        /* \"#utility.yul\":25899:25932   */\n      swap2\n      pop\n        /* \"#utility.yul\":25954:25958   */\n      0x00\n        /* \"#utility.yul\":25947:25952   */\n      dup3\n        /* \"#utility.yul\":25944:25959   */\n      eq\n        /* \"#utility.yul\":25941:25982   */\n      iszero\n      tag_646\n      jumpi\n        /* \"#utility.yul\":25962:25980   */\n      tag_647\n      tag_623\n      jump\t// in\n    tag_647:\n        /* \"#utility.yul\":25941:25982   */\n    tag_646:\n        /* \"#utility.yul\":26009:26010   */\n      0x01\n        /* \"#utility.yul\":26002:26007   */\n      dup3\n        /* \"#utility.yul\":25998:26011   */\n      sub\n        /* \"#utility.yul\":25991:26011   */\n      swap1\n      pop\n        /* \"#utility.yul\":25846:26017   */\n      swap2\n      swap1\n      pop\n      jump\t// out\n        /* \"#utility.yul\":26023:26343   */\n    tag_146:\n        /* \"#utility.yul\":26067:26073   */\n      0x00\n        /* \"#utility.yul\":26104:26105   */\n      0x02\n        /* \"#utility.yul\":26098:26102   */\n      dup3\n        /* \"#utility.yul\":26094:26106   */\n      div\n        /* \"#utility.yul\":26084:26106   */\n      swap1\n      pop\n        /* \"#utility.yul\":26151:26152   */\n      0x01\n        /* \"#utility.yul\":26145:26149   */\n      dup3\n        /* \"#utility.yul\":26141:26153   */\n      and\n        /* \"#utility.yul\":26172:26190   */\n      dup1\n        /* \"#utility.yul\":26162:26243   */\n      tag_649\n      jumpi\n        /* \"#utility.yul\":26228:26232   */\n      0x7f\n        /* \"#utility.yul\":26220:26226   */\n      dup3\n        /* \"#utility.yul\":26216:26233   */\n      and\n        /* \"#utility.yul\":26206:26233   */\n      swap2\n      pop\n        /* \"#utility.yul\":26162:26243   */\n    tag_649:\n        /* \"#utility.yul\":26290:26292   */\n      0x20\n        /* \"#utility.yul\":26282:26288   */\n      dup3\n        /* \"#utility.yul\":26279:26293   */\n      lt\n        /* \"#utility.yul\":26259:26277   */\n      dup2\n        /* \"#utility.yul\":26256:26294   */\n      eq\n        /* \"#utility.yul\":26253:26337   */\n      iszero\n      tag_650\n      jumpi\n        /* \"#utility.yul\":26309:26327   */\n      tag_651\n      tag_652\n      jump\t// in\n    tag_651:\n        /* \"#utility.yul\":26253:26337   */\n    tag_650:\n        /* \"#utility.yul\":26074:26343   */\n      pop\n        /* \"#utility.yul\":26023:26343   */\n      swap2\n      swap1\n      pop\n      jump\t// out\n        /* \"#utility.yul\":26349:26630   */\n    tag_597:\n        /* \"#utility.yul\":26432:26459   */\n      tag_654\n        /* \"#utility.yul\":26454:26458   */\n      dup3\n        /* \"#utility.yul\":26432:26459   */\n      tag_483\n      jump\t// in\n    tag_654:\n        /* \"#utility.yul\":26424:26430   */\n      dup2\n        /* \"#utility.yul\":26420:26460   */\n      add\n        /* \"#utility.yul\":26562:26568   */\n      dup2\n        /* \"#utility.yul\":26550:26560   */\n      dup2\n        /* \"#utility.yul\":26547:26569   */\n      lt\n        /* \"#utility.yul\":26526:26544   */\n      0xffffffffffffffff\n        /* \"#utility.yul\":26514:26524   */\n      dup3\n        /* \"#utility.yul\":26511:26545   */\n      gt\n        /* \"#utility.yul\":26508:26570   */\n      or\n        /* \"#utility.yul\":26505:26593   */\n      iszero\n      tag_655\n      jumpi\n        /* \"#utility.yul\":26573:26591   */\n      tag_656\n      tag_294\n      jump\t// in\n    tag_656:\n        /* \"#utility.yul\":26505:26593   */\n    tag_655:\n        /* \"#utility.yul\":26613:26623   */\n      dup1\n        /* \"#utility.yul\":26609:26611   */\n      0x40\n        /* \"#utility.yul\":26602:26624   */\n      mstore\n        /* \"#utility.yul\":26392:26630   */\n      pop\n        /* \"#utility.yul\":26349:26630   */\n      pop\n      pop\n      jump\t// out\n        /* \"#utility.yul\":26636:26869   */\n    tag_192:\n        /* \"#utility.yul\":26675:26678   */\n      0x00\n        /* \"#utility.yul\":26698:26722   */\n      tag_658\n        /* \"#utility.yul\":26716:26721   */\n      dup3\n        /* \"#utility.yul\":26698:26722   */\n      tag_551\n      jump\t// in\n    tag_658:\n        /* \"#utility.yul\":26689:26722   */\n      swap2\n      pop\n        /* \"#utility.yul\":26744:26810   */\n      0xffffffffffffffffffffffffffffffffffffffffffffffffffffffffffffffff\n        /* \"#utility.yul\":26737:26742   */\n      dup3\n        /* \"#utility.yul\":26734:26811   */\n      eq\n        /* \"#utility.yul\":26731:26834   */\n      iszero\n      tag_659\n      jumpi\n        /* \"#utility.yul\":26814:26832   */\n      tag_660\n      tag_623\n      jump\t// in\n    tag_660:\n        /* \"#utility.yul\":26731:26834   */\n    tag_659:\n        /* \"#utility.yul\":26861:26862   */\n      0x01\n        /* \"#utility.yul\":26854:26859   */\n      dup3\n        /* \"#utility.yul\":26850:26863   */\n      add\n        /* \"#utility.yul\":26843:26863   */\n      swap1\n      pop\n        /* \"#utility.yul\":26636:26869   */\n      swap2\n      swap1\n      pop\n      jump\t// out\n        /* \"#utility.yul\":26875:27055   */\n    tag_623:\n        /* \"#utility.yul\":26923:27000   */\n      0x4e487b7100000000000000000000000000000000000000000000000000000000\n        /* \"#utility.yul\":26920:26921   */\n      0x00\n        /* \"#utility.yul\":26913:27001   */\n      mstore\n        /* \"#utility.yul\":27020:27024   */\n      0x11\n        /* \"#utility.yul\":27017:27018   */\n      0x04\n        /* \"#utility.yul\":27010:27025   */\n      mstore\n        /* \"#utility.yul\":27044:27048   */\n      0x24\n        /* \"#utility.yul\":27041:27042   */\n      0x00\n        /* \"#utility.yul\":27034:27049   */\n      revert\n        /* \"#utility.yul\":27061:27241   */\n    tag_652:\n        /* \"#utility.yul\":27109:27186   */\n      0x4e487b7100000000000000000000000000000000000000000000000000000000\n        /* \"#utility.yul\":27106:27107   */\n      0x00\n        /* \"#utility.yul\":27099:27187   */\n      mstore\n        /* \"#utility.yul\":27206:27210   */\n      0x22\n        /* \"#utility.yul\":27203:27204   */\n      0x04\n        /* \"#utility.yul\":27196:27211   */\n      mstore\n        /* \"#utility.yul\":27230:27234   */\n      0x24\n        /* \"#utility.yul\":27227:27228   */\n      0x00\n        /* \"#utility.yul\":27220:27235   */\n      revert\n        /* \"#utility.yul\":27247:27427   */\n    tag_189:\n        /* \"#utility.yul\":27295:27372   */\n      0x4e487b7100000000000000000000000000000000000000000000000000000000\n        /* \"#utility.yul\":27292:27293   */\n      0x00\n        /* \"#utility.yul\":27285:27373   */\n      mstore\n        /* \"#utility.yul\":27392:27396   */\n      0x32\n        /* \"#utility.yul\":27389:27390   */\n      0x04\n        /* \"#utility.yul\":27382:27397   */\n      mstore\n        /* \"#utility.yul\":27416:27420   */\n      0x24\n        /* \"#utility.yul\":27413:27414   */\n      0x00\n        /* \"#utility.yul\":27406:27421   */\n      revert\n        /* \"#utility.yul\":27433:27613   */\n    tag_294:\n        /* \"#utility.yul\":27481:27558   */\n      0x4e487b7100000000000000000000000000000000000000000000000000000000\n        /* \"#utility.yul\":27478:27479   */\n      0x00\n        /* \"#utility.yul\":27471:27559   */\n      mstore\n        /* \"#utility.yul\":27578:27582   */\n      0x41\n        /* \"#utility.yul\":27575:27576   */\n      0x04\n        /* \"#utility.yul\":27568:27583   */\n      mstore\n        /* \"#utility.yul\":27602:27606   */\n      0x24\n        /* \"#utility.yul\":27599:27600   */\n      0x00\n        /* \"#utility.yul\":27592:27607   */\n      revert\n        /* \"#utility.yul\":27619:27736   */\n    tag_363:\n        /* \"#utility.yul\":27728:27729   */\n      0x00\n        /* \"#utility.yul\":27725:27726   */\n      dup1\n        /* \"#utility.yul\":27718:27730   */\n      revert\n        /* \"#utility.yul\":27742:27859   */\n    tag_340:\n        /* \"#utility.yul\":27851:27852   */\n      0x00\n        /* \"#utility.yul\":27848:27849   */\n      dup1\n        /* \"#utility.yul\":27841:27853   */\n      revert\n        /* \"#utility.yul\":27865:27982   */\n    tag_353:\n        /* \"#utility.yul\":27974:27975   */\n      0x00\n        /* \"#utility.yul\":27971:27972   */\n      dup1\n        /* \"#utility.yul\":27964:27976   */\n      revert\n        /* \"#utility.yul\":27988:28105   */\n    tag_392:\n        /* \"#utility.yul\":28097:28098   */\n      0x00\n        /* \"#utility.yul\":28094:28095   */\n      dup1\n        /* \"#utility.yul\":28087:28099   */\n      revert\n        /* \"#utility.yul\":28111:28228   */\n    tag_385:\n        /* \"#utility.yul\":28220:28221   */\n      0x00\n        /* \"#utility.yul\":28217:28218   */\n      dup1\n        /* \"#utility.yul\":28210:28222   */\n      revert\n        /* \"#utility.yul\":28234:28336   */\n    tag_483:\n        /* \"#utility.yul\":28275:28281   */\n      0x00\n        /* \"#utility.yul\":28326:28328   */\n      0x1f\n        /* \"#utility.yul\":28322:28329   */\n      not\n        /* \"#utility.yul\":28317:28319   */\n      0x1f\n        /* \"#utility.yul\":28310:28315   */\n      dup4\n        /* \"#utility.yul\":28306:28320   */\n      add\n        /* \"#utility.yul\":28302:28330   */\n      and\n        /* \"#utility.yul\":28292:28330   */\n      swap1\n      pop\n        /* \"#utility.yul\":28234:28336   */\n      swap2\n      swap1\n      pop\n      jump\t// out\n        /* \"#utility.yul\":28342:28524   */\n    tag_501:\n        /* \"#utility.yul\":28482:28516   */\n      0x537472696e67733a20686578206c656e67746820696e73756666696369656e74\n        /* \"#utility.yul\":28478:28479   */\n      0x00\n        /* \"#utility.yul\":28470:28476   */\n      dup3\n        /* \"#utility.yul\":28466:28480   */\n      add\n        /* \"#utility.yul\":28459:28517   */\n      mstore\n        /* \"#utility.yul\":28342:28524   */\n      pop\n      jump\t// out\n        /* \"#utility.yul\":28530:28755   */\n    tag_506:\n        /* \"#utility.yul\":28670:28704   */\n      0x4f776e61626c653a206e6577206f776e657220697320746865207a65726f2061\n        /* \"#utility.yul\":28666:28667   */\n      0x00\n        /* \"#utility.yul\":28658:28664   */\n      dup3\n        /* \"#utility.yul\":28654:28668   */\n      add\n        /* \"#utility.yul\":28647:28705   */\n      mstore\n        /* \"#utility.yul\":28739:28747   */\n      0x6464726573730000000000000000000000000000000000000000000000000000\n        /* \"#utility.yul\":28734:28736   */\n      0x20\n        /* \"#utility.yul\":28726:28732   */\n      dup3\n        /* \"#utility.yul\":28722:28737   */\n      add\n        /* \"#utility.yul\":28715:28748   */\n      mstore\n        /* \"#utility.yul\":28530:28755   */\n      pop\n      jump\t// out\n        /* \"#utility.yul\":28761:28942   */\n    tag_511:\n        /* \"#utility.yul\":28901:28934   */\n      0x43616c6c6572206973206e6f7420616e20494e45432065786563757469766500\n        /* \"#utility.yul\":28897:28898   */\n      0x00\n        /* \"#utility.yul\":28889:28895   */\n      dup3\n        /* \"#utility.yul\":28885:28899   */\n      add\n        /* \"#utility.yul\":28878:28935   */\n      mstore\n        /* \"#utility.yul\":28761:28942   */\n      pop\n      jump\t// out\n        /* \"#utility.yul\":28948:29124   */\n    tag_516:\n        /* \"#utility.yul\":29088:29116   */\n      0x566f746520466565206973206e6f742073756666696369656e74000000000000\n        /* \"#utility.yul\":29084:29085   */\n      0x00\n        /* \"#utility.yul\":29076:29082   */\n      dup3\n        /* \"#utility.yul\":29072:29086   */\n      add\n        /* \"#utility.yul\":29065:29117   */\n      mstore\n        /* \"#utility.yul\":28948:29124   */\n      pop\n      jump\t// out\n        /* \"#utility.yul\":29130:29312   */\n    tag_521:\n        /* \"#utility.yul\":29270:29304   */\n      0x4f776e61626c653a2063616c6c6572206973206e6f7420746865206f776e6572\n        /* \"#utility.yul\":29266:29267   */\n      0x00\n        /* \"#utility.yul\":29258:29264   */\n      dup3\n        /* \"#utility.yul\":29254:29268   */\n      add\n        /* \"#utility.yul\":29247:29305   */\n      mstore\n        /* \"#utility.yul\":29130:29312   */\n      pop\n      jump\t// out\n        /* \"#utility.yul\":29318:29491   */\n    tag_526:\n        /* \"#utility.yul\":29458:29483   */\n      0x416363657373436f6e74726f6c3a206163636f756e7420000000000000000000\n        /* \"#utility.yul\":29454:29455   */\n      0x00\n        /* \"#utility.yul\":29446:29452   */\n      dup3\n        /* \"#utility.yul\":29442:29456   */\n      add\n        /* \"#utility.yul\":29435:29484   */\n      mstore\n        /* \"#utility.yul\":29318:29491   */\n      pop\n      jump\t// out\n        /* \"#utility.yul\":29497:29664   */\n    tag_531:\n        /* \"#utility.yul\":29637:29656   */\n      0x206973206d697373696e6720726f6c6520000000000000000000000000000000\n        /* \"#utility.yul\":29633:29634   */\n      0x00\n        /* \"#utility.yul\":29625:29631   */\n      dup3\n        /* \"#utility.yul\":29621:29635   */\n      add\n        /* \"#utility.yul\":29614:29657   */\n      mstore\n        /* \"#utility.yul\":29497:29664   */\n      pop\n      jump\t// out\n        /* \"#utility.yul\":29670:29904   */\n    tag_536:\n        /* \"#utility.yul\":29810:29844   */\n      0x416363657373436f6e74726f6c3a2063616e206f6e6c792072656e6f756e6365\n        /* \"#utility.yul\":29806:29807   */\n      0x00\n        /* \"#utility.yul\":29798:29804   */\n      dup3\n        /* \"#utility.yul\":29794:29808   */\n      add\n        /* \"#utility.yul\":29787:29845   */\n      mstore\n        /* \"#utility.yul\":29879:29896   */\n      0x20726f6c657320666f722073656c660000000000000000000000000000000000\n        /* \"#utility.yul\":29874:29876   */\n      0x20\n        /* \"#utility.yul\":29866:29872   */\n      dup3\n        /* \"#utility.yul\":29862:29877   */\n      add\n        /* \"#utility.yul\":29855:29897   */\n      mstore\n        /* \"#utility.yul\":29670:29904   */\n      pop\n      jump\t// out\n        /* \"#utility.yul\":29910:30032   */\n    tag_358:\n        /* \"#utility.yul\":29983:30007   */\n      tag_680\n        /* \"#utility.yul\":30001:30006   */\n      dup2\n        /* \"#utility.yul\":29983:30007   */\n      tag_431\n      jump\t// in\n    tag_680:\n        /* \"#utility.yul\":29976:29981   */\n      dup2\n        /* \"#utility.yul\":29973:30008   */\n      eq\n        /* \"#utility.yul\":29963:30026   */\n      tag_681\n      jumpi\n        /* \"#utility.yul\":30022:30023   */\n      0x00\n        /* \"#utility.yul\":30019:30020   */\n      dup1\n        /* \"#utility.yul\":30012:30024   */\n      revert\n        /* \"#utility.yul\":29963:30026   */\n    tag_681:\n        /* \"#utility.yul\":29910:30032   */\n      pop\n      jump\t// out\n        /* \"#utility.yul\":30038:30160   */\n    tag_368:\n        /* \"#utility.yul\":30111:30135   */\n      tag_683\n        /* \"#utility.yul\":30129:30134   */\n      dup2\n        /* \"#utility.yul\":30111:30135   */\n      tag_473\n      jump\t// in\n    tag_683:\n        /* \"#utility.yul\":30104:30109   */\n      dup2\n        /* \"#utility.yul\":30101:30136   */\n      eq\n        /* \"#utility.yul\":30091:30154   */\n      tag_684\n      jumpi\n        /* \"#utility.yul\":30150:30151   */\n      0x00\n        /* \"#utility.yul\":30147:30148   */\n      dup1\n        /* \"#utility.yul\":30140:30152   */\n      revert\n        /* \"#utility.yul\":30091:30154   */\n    tag_684:\n        /* \"#utility.yul\":30038:30160   */\n      pop\n      jump\t// out\n        /* \"#utility.yul\":30166:30286   */\n    tag_372:\n        /* \"#utility.yul\":30238:30261   */\n      tag_686\n        /* \"#utility.yul\":30255:30260   */\n      dup2\n        /* \"#utility.yul\":30238:30261   */\n      tag_634\n      jump\t// in\n    tag_686:\n        /* \"#utility.yul\":30231:30236   */\n      dup2\n        /* \"#utility.yul\":30228:30262   */\n      eq\n        /* \"#utility.yul\":30218:30280   */\n      tag_687\n      jumpi\n        /* \"#utility.yul\":30276:30277   */\n      0x00\n        /* \"#utility.yul\":30273:30274   */\n      dup1\n        /* \"#utility.yul\":30266:30278   */\n      revert\n        /* \"#utility.yul\":30218:30280   */\n    tag_687:\n        /* \"#utility.yul\":30166:30286   */\n      pop\n      jump\t// out\n        /* \"#utility.yul\":30292:30414   */\n    tag_381:\n        /* \"#utility.yul\":30365:30389   */\n      tag_689\n        /* \"#utility.yul\":30383:30388   */\n      dup2\n        /* \"#utility.yul\":30365:30389   */\n      tag_551\n      jump\t// in\n    tag_689:\n        /* \"#utility.yul\":30358:30363   */\n      dup2\n        /* \"#utility.yul\":30355:30390   */\n      eq\n        /* \"#utility.yul\":30345:30408   */\n      tag_690\n      jumpi\n        /* \"#utility.yul\":30404:30405   */\n      0x00\n        /* \"#utility.yul\":30401:30402   */\n      dup1\n        /* \"#utility.yul\":30394:30406   */\n      revert\n        /* \"#utility.yul\":30345:30408   */\n    tag_690:\n        /* \"#utility.yul\":30292:30414   */\n      pop\n      jump\t// out\n\n    auxdata: 0xa264697066735822122078fce723ba31d95c70dbb3d2f5b9b424683502b5cb0c0595af656e94f614b72464736f6c63430008070033\n}\n",
				"bytecode": {
					"linkReferences": {},
					"object": "608060405260405180608001604052806040518060400160405280600381526020017f415043000000000000000000000000000000000000000000000000000000000081525081526020016040518060400160405280600381526020017f504450000000000000000000000000000000000000000000000000000000000081525081526020016040518060400160405280600281526020017f4c5000000000000000000000000000000000000000000000000000000000000081525081526020016040518060400160405280600481526020017f4e4e50500000000000000000000000000000000000000000000000000000000081525081525060069060046200010b92919062000393565b503480156200011957600080fd5b506200013a6200012e6200015560201b60201c565b6200015d60201b60201c565b6200014f6000801b336200022160201b60201c565b6200057d565b600033905090565b60008060009054906101000a900473ffffffffffffffffffffffffffffffffffffffff169050816000806101000a81548173ffffffffffffffffffffffffffffffffffffffff021916908373ffffffffffffffffffffffffffffffffffffffff1602179055508173ffffffffffffffffffffffffffffffffffffffff168173ffffffffffffffffffffffffffffffffffffffff167f8be0079c531659141344cd1fd0a4f28419497f9722a3daafe3b4186f6b6457e060405160405180910390a35050565b6200023382826200023760201b60201c565b5050565b6200024982826200032860201b60201c565b6200032457600180600084815260200190815260200160002060000160008373ffffffffffffffffffffffffffffffffffffffff1673ffffffffffffffffffffffffffffffffffffffff16815260200190815260200160002060006101000a81548160ff021916908315150217905550620002c96200015560201b60201c565b73ffffffffffffffffffffffffffffffffffffffff168173ffffffffffffffffffffffffffffffffffffffff16837f2f8788117e7eff1d82e926ec794901d17c78024a50270940304540a733656f0d60405160405180910390a45b5050565b60006001600084815260200190815260200160002060000160008373ffffffffffffffffffffffffffffffffffffffff1673ffffffffffffffffffffffffffffffffffffffff16815260200190815260200160002060009054906101000a900460ff16905092915050565b828054828255906000526020600020908101928215620003e7579160200282015b82811115620003e6578251829080519060200190620003d5929190620003fa565b5091602001919060010190620003b4565b5b509050620003f691906200048b565b5090565b828054620004089062000518565b90600052602060002090601f0160209004810192826200042c576000855562000478565b82601f106200044757805160ff191683800117855562000478565b8280016001018555821562000478579182015b82811115620004775782518255916020019190600101906200045a565b5b509050620004879190620004b3565b5090565b5b80821115620004af5760008181620004a59190620004d2565b506001016200048c565b5090565b5b80821115620004ce576000816000905550600101620004b4565b5090565b508054620004e09062000518565b6000825580601f10620004f4575062000515565b601f016020900490600052602060002090810190620005149190620004b3565b5b50565b600060028204905060018216806200053157607f821691505b602082108114156200054857620005476200054e565b5b50919050565b7f4e487b7100000000000000000000000000000000000000000000000000000000600052602260045260246000fd5b612937806200058d6000396000f3fe6080604052600436106101355760003560e01c806391d14854116100ab578063a94015c81161006f578063a94015c814610456578063d547741f14610481578063d59d2a58146104aa578063d9d55ba0146104d3578063dfd8459e146104fc578063f2fde38b1461052557610135565b806391d14854146103345780639c35d98b146103715780639d710777146103b15780639e5f0349146103ee578063a217fddf1461042b57610135565b80632f2ff15d116100fd5780632f2ff15d1461023a578063314fd68f1461026357806336568abe146102a05780634f05dba8146102c9578063715018a6146102f25780638da5cb5b1461030957610135565b806301ffc9a71461013a57806314ad08ba14610177578063248a9ca314610193578063290e9212146101d05780632e0d37bb1461020f575b600080fd5b34801561014657600080fd5b50610161600480360381019061015c9190611bd1565b61054e565b60405161016e9190612118565b60405180910390f35b610191600480360381019061018c9190611c6d565b6105c8565b005b34801561019f57600080fd5b506101ba60048036038101906101b59190611b64565b610610565b6040516101c79190612133565b60405180910390f35b3480156101dc57600080fd5b506101f760048036038101906101f29190611c6d565b610630565b60405161020693929190612170565b60405180910390f35b34801561021b57600080fd5b5061022461078a565b6040516102319190612133565b60405180910390f35b34801561024657600080fd5b50610261600480360381019061025c9190611b91565b6107ae565b005b34801561026f57600080fd5b5061028a60048036038101906102859190611c6d565b6107cf565b604051610297919061214e565b60405180910390f35b3480156102ac57600080fd5b506102c760048036038101906102c29190611b91565b61087b565b005b3480156102d557600080fd5b506102f060048036038101906102eb9190611af5565b6108fe565b005b3480156102fe57600080fd5b50610307610a71565b005b34801561031557600080fd5b5061031e610a85565b60405161032b91906120b8565b60405180910390f35b34801561034057600080fd5b5061035b60048036038101906103569190611b91565b610aae565b6040516103689190612118565b60405180910390f35b34801561037d57600080fd5b5061039860048036038101906103939190611c6d565b610b19565b6040516103a894939291906120d3565b60405180910390f35b3480156103bd57600080fd5b506103d860048036038101906103d39190611c6d565b610b76565b6040516103e59190612297565b60405180910390f35b3480156103fa57600080fd5b5061041560048036038101906104109190611c6d565b610cb8565b6040516104229190612275565b60405180910390f35b34801561043757600080fd5b50610440610e5f565b60405161044d9190612133565b60405180910390f35b34801561046257600080fd5b5061046b610e66565b6040516104789190612133565b60405180910390f35b34801561048d57600080fd5b506104a860048036038101906104a39190611b91565b610e8a565b005b3480156104b657600080fd5b506104d160048036038101906104cc9190611bfe565b610eab565b005b3480156104df57600080fd5b506104fa60048036038101906104f59190611c6d565b611003565b005b34801561050857600080fd5b50610523600480360381019061051e9190611ac8565b6110a4565b005b34801561053157600080fd5b5061054c60048036038101906105479190611ac8565b6110d9565b005b60007f7965db0b000000000000000000000000000000000000000000000000000000007bffffffffffffffffffffffffffffffffffffffffffffffffffffffff1916827bffffffffffffffffffffffffffffffffffffffffffffffffffffffff191614806105c157506105c08261115d565b5b9050919050565b60025434101561060d576040517f08c379a000000000000000000000000000000000000000000000000000000000815260040161060490612215565b60405180910390fd5b50565b600060016000838152602001908152602001600020600101549050919050565b60076020528060005260406000206000915090508060000180546106539061257f565b80601f016020809104026020016040519081016040528092919081815260200182805461067f9061257f565b80156106cc5780601f106106a1576101008083540402835291602001916106cc565b820191906000526020600020905b8154815290600101906020018083116106af57829003601f168201915b5050505050908060010160009054906101000a900473ffffffffffffffffffffffffffffffffffffffff16908060020180546107079061257f565b80601f01602080910402602001604051908101604052809291908181526020018280546107339061257f565b80156107805780601f1061075557610100808354040283529160200191610780565b820191906000526020600020905b81548152906001019060200180831161076357829003601f168201915b5050505050905083565b7f082f6ed76e0352438e6a6e35c77719c3f04bf277fdc8fec7e5ff5f65e001d90281565b6107b782610610565b6107c0816111c7565b6107ca83836111db565b505050565b600681815481106107df57600080fd5b9060005260206000200160009150905080546107fa9061257f565b80601f01602080910402602001604051908101604052809291908181526020018280546108269061257f565b80156108735780601f1061084857610100808354040283529160200191610873565b820191906000526020600020905b81548152906001019060200180831161085657829003601f168201915b505050505081565b6108836112bb565b73ffffffffffffffffffffffffffffffffffffffff168173ffffffffffffffffffffffffffffffffffffffff16146108f0576040517f08c379a00000000000000000000000000000000000000000000000000000000081526004016108e790612255565b60405180910390fd5b6108fa82826112c3565b5050565b6109287f082f6ed76e0352438e6a6e35c77719c3f04bf277fdc8fec7e5ff5f65e001d90233610aae565b610967576040517f08c379a000000000000000000000000000000000000000000000000000000000815260040161095e906121f5565b60405180910390fd5b8160096000600554815260200190815260200160002060020181905550806009600060055481526020019081526020016000206003018190555060005b8351811015610a53576009600060055481526020019081526020016000206000018482815181106109d8576109d7612689565b5b60200260200101519080600181540180825580915050600190039060005260206000200160009091909190916101000a81548173ffffffffffffffffffffffffffffffffffffffff021916908373ffffffffffffffffffffffffffffffffffffffff1602179055508080610a4b906125e2565b9150506109a4565b5060056000815480929190610a67906125e2565b9190505550505050565b610a796113a5565b610a836000611423565b565b60008060009054906101000a900473ffffffffffffffffffffffffffffffffffffffff16905090565b60006001600084815260200190815260200160002060000160008373ffffffffffffffffffffffffffffffffffffffff1673ffffffffffffffffffffffffffffffffffffffff16815260200190815260200160002060009054906101000a900460ff16905092915050565b60086020528060005260406000206000915090508060000160009054906101000a900473ffffffffffffffffffffffffffffffffffffffff16908060010154908060020154908060030160009054906101000a900460ff16905084565b610b7e6117ce565b600960008381526020019081526020016000206040518060a001604052908160008201805480602002602001604051908101604052809291908181526020018280548015610c2157602002820191906000526020600020905b8160009054906101000a900473ffffffffffffffffffffffffffffffffffffffff1673ffffffffffffffffffffffffffffffffffffffff1681526020019060010190808311610bd7575b5050505050815260200160018201805480602002602001604051908101604052809291908181526020018280548015610c7957602002820191906000526020600020905b815481526020019060010190808311610c65575b5050505050815260200160028201548152602001600382015481526020016004820160009054906101000a900460ff1615151515815250509050919050565b610cc06117ff565b60076000838152602001908152602001600020604051806060016040529081600082018054610cee9061257f565b80601f0160208091040260200160405190810160405280929190818152602001828054610d1a9061257f565b8015610d675780601f10610d3c57610100808354040283529160200191610d67565b820191906000526020600020905b815481529060010190602001808311610d4a57829003601f168201915b505050505081526020016001820160009054906101000a900473ffffffffffffffffffffffffffffffffffffffff1673ffffffffffffffffffffffffffffffffffffffff1673ffffffffffffffffffffffffffffffffffffffff168152602001600282018054610dd69061257f565b80601f0160208091040260200160405190810160405280929190818152602001828054610e029061257f565b8015610e4f5780601f10610e2457610100808354040283529160200191610e4f565b820191906000526020600020905b815481529060010190602001808311610e3257829003601f168201915b5050505050815250509050919050565b6000801b81565b7f15283fd96aa656c9df35ac2fcb112678a5f24f1ca97e591a97d1d16003dbfc9c81565b610e9382610610565b610e9c816111c7565b610ea683836112c3565b505050565b610ed57f082f6ed76e0352438e6a6e35c77719c3f04bf277fdc8fec7e5ff5f65e001d90233610aae565b610f14576040517f08c379a0000000000000000000000000000000000000000000000000000000008152600401610f0b906121f5565b60405180910390fd5b826007600060035481526020019081526020016000206000019080519060200190610f40929190611836565b508160076000600354815260200190815260200160002060010160006101000a81548173ffffffffffffffffffffffffffffffffffffffff021916908373ffffffffffffffffffffffffffffffffffffffff16021790555060068181548110610fac57610fab612689565b5b90600052602060002001600760006003548152602001908152602001600020600201908054610fda9061257f565b610fe59291906118bc565b5060036000815480929190610ff9906125e2565b9190505550505050565b3360086000600454815260200190815260200160002060000160006101000a81548173ffffffffffffffffffffffffffffffffffffffff021916908373ffffffffffffffffffffffffffffffffffffffff16021790555080600860006004548152602001908152602001600020600101819055506110a17f15283fd96aa656c9df35ac2fcb112678a5f24f1ca97e591a97d1d16003dbfc9c336114e7565b50565b6110ac6113a5565b6110d67f082f6ed76e0352438e6a6e35c77719c3f04bf277fdc8fec7e5ff5f65e001d902826107ae565b50565b6110e16113a5565b600073ffffffffffffffffffffffffffffffffffffffff168173ffffffffffffffffffffffffffffffffffffffff161415611151576040517f08c379a0000000000000000000000000000000000000000000000000000000008152600401611148906121d5565b60405180910390fd5b61115a81611423565b50565b60007f01ffc9a7000000000000000000000000000000000000000000000000000000007bffffffffffffffffffffffffffffffffffffffffffffffffffffffff1916827bffffffffffffffffffffffffffffffffffffffffffffffffffffffff1916149050919050565b6111d8816111d36112bb565b6114f5565b50565b6111e58282610aae565b6112b757600180600084815260200190815260200160002060000160008373ffffffffffffffffffffffffffffffffffffffff1673ffffffffffffffffffffffffffffffffffffffff16815260200190815260200160002060006101000a81548160ff02191690831515021790555061125c6112bb565b73ffffffffffffffffffffffffffffffffffffffff168173ffffffffffffffffffffffffffffffffffffffff16837f2f8788117e7eff1d82e926ec794901d17c78024a50270940304540a733656f0d60405160405180910390a45b5050565b600033905090565b6112cd8282610aae565b156113a15760006001600084815260200190815260200160002060000160008373ffffffffffffffffffffffffffffffffffffffff1673ffffffffffffffffffffffffffffffffffffffff16815260200190815260200160002060006101000a81548160ff0219169083151502179055506113466112bb565b73ffffffffffffffffffffffffffffffffffffffff168173ffffffffffffffffffffffffffffffffffffffff16837ff6391f5c32d9c69d2a47ea670b442974b53935d1edc7fd64eb21e047a839171b60405160405180910390a45b5050565b6113ad6112bb565b73ffffffffffffffffffffffffffffffffffffffff166113cb610a85565b73ffffffffffffffffffffffffffffffffffffffff1614611421576040517f08c379a000000000000000000000000000000000000000000000000000000000815260040161141890612235565b60405180910390fd5b565b60008060009054906101000a900473ffffffffffffffffffffffffffffffffffffffff169050816000806101000a81548173ffffffffffffffffffffffffffffffffffffffff021916908373ffffffffffffffffffffffffffffffffffffffff1602179055508173ffffffffffffffffffffffffffffffffffffffff168173ffffffffffffffffffffffffffffffffffffffff167f8be0079c531659141344cd1fd0a4f28419497f9722a3daafe3b4186f6b6457e060405160405180910390a35050565b6114f182826111db565b5050565b6114ff8282610aae565b61158e576115248173ffffffffffffffffffffffffffffffffffffffff166014611592565b6115328360001c6020611592565b60405160200161154392919061207e565b6040516020818303038152906040526040517f08c379a0000000000000000000000000000000000000000000000000000000008152600401611585919061214e565b60405180910390fd5b5050565b6060600060028360026115a5919061243b565b6115af91906123e5565b67ffffffffffffffff8111156115c8576115c76126b8565b5b6040519080825280601f01601f1916602001820160405280156115fa5781602001600182028036833780820191505090505b5090507f30000000000000000000000000000000000000000000000000000000000000008160008151811061163257611631612689565b5b60200101907effffffffffffffffffffffffffffffffffffffffffffffffffffffffffffff1916908160001a9053507f78000000000000000000000000000000000000000000000000000000000000008160018151811061169657611695612689565b5b60200101907effffffffffffffffffffffffffffffffffffffffffffffffffffffffffffff1916908160001a905350600060018460026116d6919061243b565b6116e091906123e5565b90505b6001811115611780577f3031323334353637383961626364656600000000000000000000000000000000600f86166010811061172257611721612689565b5b1a60f81b82828151811061173957611738612689565b5b60200101907effffffffffffffffffffffffffffffffffffffffffffffffffffffffffffff1916908160001a905350600485901c94508061177990612555565b90506116e3565b50600084146117c4576040517f08c379a00000000000000000000000000000000000000000000000000000000081526004016117bb906121b5565b60405180910390fd5b8091505092915050565b6040518060a00160405280606081526020016060815260200160008152602001600081526020016000151581525090565b604051806060016040528060608152602001600073ffffffffffffffffffffffffffffffffffffffff168152602001606081525090565b8280546118429061257f565b90600052602060002090601f01602090048101928261186457600085556118ab565b82601f1061187d57805160ff19168380011785556118ab565b828001600101855582156118ab579182015b828111156118aa57825182559160200191906001019061188f565b5b5090506118b89190611949565b5090565b8280546118c89061257f565b90600052602060002090601f0160209004810192826118ea5760008555611938565b82601f106118fb5780548555611938565b8280016001018555821561193857600052602060002091601f016020900482015b8281111561193757825482559160010191906001019061191c565b5b5090506119459190611949565b5090565b5b8082111561196257600081600090555060010161194a565b5090565b6000611979611974846122de565b6122b9565b9050808382526020820190508285602086028201111561199c5761199b6126ec565b5b60005b858110156119cc57816119b28882611a18565b84526020840193506020830192505060018101905061199f565b5050509392505050565b60006119e96119e48461230a565b6122b9565b905082815260208101848484011115611a0557611a046126f1565b5b611a10848285612513565b509392505050565b600081359050611a27816128a5565b92915050565b600082601f830112611a4257611a416126e7565b5b8135611a52848260208601611966565b91505092915050565b600081359050611a6a816128bc565b92915050565b600081359050611a7f816128d3565b92915050565b600082601f830112611a9a57611a996126e7565b5b8135611aaa8482602086016119d6565b91505092915050565b600081359050611ac2816128ea565b92915050565b600060208284031215611ade57611add6126fb565b5b6000611aec84828501611a18565b91505092915050565b600080600060608486031215611b0e57611b0d6126fb565b5b600084013567ffffffffffffffff811115611b2c57611b2b6126f6565b5b611b3886828701611a2d565b9350506020611b4986828701611ab3565b9250506040611b5a86828701611ab3565b9150509250925092565b600060208284031215611b7a57611b796126fb565b5b6000611b8884828501611a5b565b91505092915050565b60008060408385031215611ba857611ba76126fb565b5b6000611bb685828601611a5b565b9250506020611bc785828601611a18565b9150509250929050565b600060208284031215611be757611be66126fb565b5b6000611bf584828501611a70565b91505092915050565b600080600060608486031215611c1757611c166126fb565b5b600084013567ffffffffffffffff811115611c3557611c346126f6565b5b611c4186828701611a85565b9350506020611c5286828701611a18565b9250506040611c6386828701611ab3565b9150509250925092565b600060208284031215611c8357611c826126fb565b5b6000611c9184828501611ab3565b91505092915050565b6000611ca68383611cca565b60208301905092915050565b6000611cbe8383612060565b60208301905092915050565b611cd381612495565b82525050565b611ce281612495565b82525050565b6000611cf38261235b565b611cfd8185612396565b9350611d088361233b565b8060005b83811015611d39578151611d208882611c9a565b9750611d2b8361237c565b925050600181019050611d0c565b5085935050505092915050565b6000611d5182612366565b611d5b81856123a7565b9350611d668361234b565b8060005b83811015611d97578151611d7e8882611cb2565b9750611d8983612389565b925050600181019050611d6a565b5085935050505092915050565b611dad816124a7565b82525050565b611dbc816124a7565b82525050565b611dcb816124b3565b82525050565b6000611ddc82612371565b611de681856123b8565b9350611df6818560208601612522565b611dff81612700565b840191505092915050565b6000611e1582612371565b611e1f81856123c9565b9350611e2f818560208601612522565b611e3881612700565b840191505092915050565b6000611e4e82612371565b611e5881856123da565b9350611e68818560208601612522565b80840191505092915050565b6000611e816020836123c9565b9150611e8c82612711565b602082019050919050565b6000611ea46026836123c9565b9150611eaf8261273a565b604082019050919050565b6000611ec7601f836123c9565b9150611ed282612789565b602082019050919050565b6000611eea601a836123c9565b9150611ef5826127b2565b602082019050919050565b6000611f0d6020836123c9565b9150611f18826127db565b602082019050919050565b6000611f306017836123da565b9150611f3b82612804565b601782019050919050565b6000611f536011836123da565b9150611f5e8261282d565b601182019050919050565b6000611f76602f836123c9565b9150611f8182612856565b604082019050919050565b60006060830160008301518482036000860152611fa98282611dd1565b9150506020830151611fbe6020860182611cca565b5060408301518482036040860152611fd68282611dd1565b9150508091505092915050565b600060a08301600083015184820360008601526120008282611ce8565b9150506020830151848203602086015261201a8282611d46565b915050604083015161202f6040860182612060565b5060608301516120426060860182612060565b5060808301516120556080860182611da4565b508091505092915050565b61206981612509565b82525050565b61207881612509565b82525050565b600061208982611f23565b91506120958285611e43565b91506120a082611f46565b91506120ac8284611e43565b91508190509392505050565b60006020820190506120cd6000830184611cd9565b92915050565b60006080820190506120e86000830187611cd9565b6120f5602083018661206f565b612102604083018561206f565b61210f6060830184611db3565b95945050505050565b600060208201905061212d6000830184611db3565b92915050565b60006020820190506121486000830184611dc2565b92915050565b600060208201905081810360008301526121688184611e0a565b905092915050565b6000606082019050818103600083015261218a8186611e0a565b90506121996020830185611cd9565b81810360408301526121ab8184611e0a565b9050949350505050565b600060208201905081810360008301526121ce81611e74565b9050919050565b600060208201905081810360008301526121ee81611e97565b9050919050565b6000602082019050818103600083015261220e81611eba565b9050919050565b6000602082019050818103600083015261222e81611edd565b9050919050565b6000602082019050818103600083015261224e81611f00565b9050919050565b6000602082019050818103600083015261226e81611f69565b9050919050565b6000602082019050818103600083015261228f8184611f8c565b905092915050565b600060208201905081810360008301526122b18184611fe3565b905092915050565b60006122c36122d4565b90506122cf82826125b1565b919050565b6000604051905090565b600067ffffffffffffffff8211156122f9576122f86126b8565b5b602082029050602081019050919050565b600067ffffffffffffffff821115612325576123246126b8565b5b61232e82612700565b9050602081019050919050565b6000819050602082019050919050565b6000819050602082019050919050565b600081519050919050565b600081519050919050565b600081519050919050565b6000602082019050919050565b6000602082019050919050565b600082825260208201905092915050565b600082825260208201905092915050565b600082825260208201905092915050565b600082825260208201905092915050565b600081905092915050565b60006123f082612509565b91506123fb83612509565b9250827fffffffffffffffffffffffffffffffffffffffffffffffffffffffffffffffff038211156124305761242f61262b565b5b828201905092915050565b600061244682612509565b915061245183612509565b9250817fffffffffffffffffffffffffffffffffffffffffffffffffffffffffffffffff048311821515161561248a5761248961262b565b5b828202905092915050565b60006124a0826124e9565b9050919050565b60008115159050919050565b6000819050919050565b60007fffffffff0000000000000000000000000000000000000000000000000000000082169050919050565b600073ffffffffffffffffffffffffffffffffffffffff82169050919050565b6000819050919050565b82818337600083830152505050565b60005b83811015612540578082015181840152602081019050612525565b8381111561254f576000848401525b50505050565b600061256082612509565b915060008214156125745761257361262b565b5b600182039050919050565b6000600282049050600182168061259757607f821691505b602082108114156125ab576125aa61265a565b5b50919050565b6125ba82612700565b810181811067ffffffffffffffff821117156125d9576125d86126b8565b5b80604052505050565b60006125ed82612509565b91507fffffffffffffffffffffffffffffffffffffffffffffffffffffffffffffffff8214156126205761261f61262b565b5b600182019050919050565b7f4e487b7100000000000000000000000000000000000000000000000000000000600052601160045260246000fd5b7f4e487b7100000000000000000000000000000000000000000000000000000000600052602260045260246000fd5b7f4e487b7100000000000000000000000000000000000000000000000000000000600052603260045260246000fd5b7f4e487b7100000000000000000000000000000000000000000000000000000000600052604160045260246000fd5b600080fd5b600080fd5b600080fd5b600080fd5b600080fd5b6000601f19601f8301169050919050565b7f537472696e67733a20686578206c656e67746820696e73756666696369656e74600082015250565b7f4f776e61626c653a206e6577206f776e657220697320746865207a65726f206160008201527f6464726573730000000000000000000000000000000000000000000000000000602082015250565b7f43616c6c6572206973206e6f7420616e20494e45432065786563757469766500600082015250565b7f566f746520466565206973206e6f742073756666696369656e74000000000000600082015250565b7f4f776e61626c653a2063616c6c6572206973206e6f7420746865206f776e6572600082015250565b7f416363657373436f6e74726f6c3a206163636f756e7420000000000000000000600082015250565b7f206973206d697373696e6720726f6c6520000000000000000000000000000000600082015250565b7f416363657373436f6e74726f6c3a2063616e206f6e6c792072656e6f756e636560008201527f20726f6c657320666f722073656c660000000000000000000000000000000000602082015250565b6128ae81612495565b81146128b957600080fd5b50565b6128c5816124b3565b81146128d057600080fd5b50565b6128dc816124bd565b81146128e757600080fd5b50565b6128f381612509565b81146128fe57600080fd5b5056fea264697066735822122078fce723ba31d95c70dbb3d2f5b9b424683502b5cb0c0595af656e94f614b72464736f6c63430008070033",
					"opcodes": "PUSH1 0x80 PUSH1 0x40 MSTORE PUSH1 0x40 MLOAD DUP1 PUSH1 0x80 ADD PUSH1 0x40 MSTORE DUP1 PUSH1 0x40 MLOAD DUP1 PUSH1 0x40 ADD PUSH1 0x40 MSTORE DUP1 PUSH1 0x3 DUP2 MSTORE PUSH1 0x20 ADD PUSH32 0x4150430000000000000000000000000000000000000000000000000000000000 DUP2 MSTORE POP DUP2 MSTORE PUSH1 0x20 ADD PUSH1 0x40 MLOAD DUP1 PUSH1 0x40 ADD PUSH1 0x40 MSTORE DUP1 PUSH1 0x3 DUP2 MSTORE PUSH1 0x20 ADD PUSH32 0x5044500000000000000000000000000000000000000000000000000000000000 DUP2 MSTORE POP DUP2 MSTORE PUSH1 0x20 ADD PUSH1 0x40 MLOAD DUP1 PUSH1 0x40 ADD PUSH1 0x40 MSTORE DUP1 PUSH1 0x2 DUP2 MSTORE PUSH1 0x20 ADD PUSH32 0x4C50000000000000000000000000000000000000000000000000000000000000 DUP2 MSTORE POP DUP2 MSTORE PUSH1 0x20 ADD PUSH1 0x40 MLOAD DUP1 PUSH1 0x40 ADD PUSH1 0x40 MSTORE DUP1 PUSH1 0x4 DUP2 MSTORE PUSH1 0x20 ADD PUSH32 0x4E4E505000000000000000000000000000000000000000000000000000000000 DUP2 MSTORE POP DUP2 MSTORE POP PUSH1 0x6 SWAP1 PUSH1 0x4 PUSH3 0x10B SWAP3 SWAP2 SWAP1 PUSH3 0x393 JUMP JUMPDEST POP CALLVALUE DUP1 ISZERO PUSH3 0x119 JUMPI PUSH1 0x0 DUP1 REVERT JUMPDEST POP PUSH3 0x13A PUSH3 0x12E PUSH3 0x155 PUSH1 0x20 SHL PUSH1 0x20 SHR JUMP JUMPDEST PUSH3 0x15D PUSH1 0x20 SHL PUSH1 0x20 SHR JUMP JUMPDEST PUSH3 0x14F PUSH1 0x0 DUP1 SHL CALLER PUSH3 0x221 PUSH1 0x20 SHL PUSH1 0x20 SHR JUMP JUMPDEST PUSH3 0x57D JUMP JUMPDEST PUSH1 0x0 CALLER SWAP1 POP SWAP1 JUMP JUMPDEST PUSH1 0x0 DUP1 PUSH1 0x0 SWAP1 SLOAD SWAP1 PUSH2 0x100 EXP SWAP1 DIV PUSH20 0xFFFFFFFFFFFFFFFFFFFFFFFFFFFFFFFFFFFFFFFF AND SWAP1 POP DUP2 PUSH1 0x0 DUP1 PUSH2 0x100 EXP DUP2 SLOAD DUP2 PUSH20 0xFFFFFFFFFFFFFFFFFFFFFFFFFFFFFFFFFFFFFFFF MUL NOT AND SWAP1 DUP4 PUSH20 0xFFFFFFFFFFFFFFFFFFFFFFFFFFFFFFFFFFFFFFFF AND MUL OR SWAP1 SSTORE POP DUP2 PUSH20 0xFFFFFFFFFFFFFFFFFFFFFFFFFFFFFFFFFFFFFFFF AND DUP2 PUSH20 0xFFFFFFFFFFFFFFFFFFFFFFFFFFFFFFFFFFFFFFFF AND PUSH32 0x8BE0079C531659141344CD1FD0A4F28419497F9722A3DAAFE3B4186F6B6457E0 PUSH1 0x40 MLOAD PUSH1 0x40 MLOAD DUP1 SWAP2 SUB SWAP1 LOG3 POP POP JUMP JUMPDEST PUSH3 0x233 DUP3 DUP3 PUSH3 0x237 PUSH1 0x20 SHL PUSH1 0x20 SHR JUMP JUMPDEST POP POP JUMP JUMPDEST PUSH3 0x249 DUP3 DUP3 PUSH3 0x328 PUSH1 0x20 SHL PUSH1 0x20 SHR JUMP JUMPDEST PUSH3 0x324 JUMPI PUSH1 0x1 DUP1 PUSH1 0x0 DUP5 DUP2 MSTORE PUSH1 0x20 ADD SWAP1 DUP2 MSTORE PUSH1 0x20 ADD PUSH1 0x0 KECCAK256 PUSH1 0x0 ADD PUSH1 0x0 DUP4 PUSH20 0xFFFFFFFFFFFFFFFFFFFFFFFFFFFFFFFFFFFFFFFF AND PUSH20 0xFFFFFFFFFFFFFFFFFFFFFFFFFFFFFFFFFFFFFFFF AND DUP2 MSTORE PUSH1 0x20 ADD SWAP1 DUP2 MSTORE PUSH1 0x20 ADD PUSH1 0x0 KECCAK256 PUSH1 0x0 PUSH2 0x100 EXP DUP2 SLOAD DUP2 PUSH1 0xFF MUL NOT AND SWAP1 DUP4 ISZERO ISZERO MUL OR SWAP1 SSTORE POP PUSH3 0x2C9 PUSH3 0x155 PUSH1 0x20 SHL PUSH1 0x20 SHR JUMP JUMPDEST PUSH20 0xFFFFFFFFFFFFFFFFFFFFFFFFFFFFFFFFFFFFFFFF AND DUP2 PUSH20 0xFFFFFFFFFFFFFFFFFFFFFFFFFFFFFFFFFFFFFFFF AND DUP4 PUSH32 0x2F8788117E7EFF1D82E926EC794901D17C78024A50270940304540A733656F0D PUSH1 0x40 MLOAD PUSH1 0x40 MLOAD DUP1 SWAP2 SUB SWAP1 LOG4 JUMPDEST POP POP JUMP JUMPDEST PUSH1 0x0 PUSH1 0x1 PUSH1 0x0 DUP5 DUP2 MSTORE PUSH1 0x20 ADD SWAP1 DUP2 MSTORE PUSH1 0x20 ADD PUSH1 0x0 KECCAK256 PUSH1 0x0 ADD PUSH1 0x0 DUP4 PUSH20 0xFFFFFFFFFFFFFFFFFFFFFFFFFFFFFFFFFFFFFFFF AND PUSH20 0xFFFFFFFFFFFFFFFFFFFFFFFFFFFFFFFFFFFFFFFF AND DUP2 MSTORE PUSH1 0x20 ADD SWAP1 DUP2 MSTORE PUSH1 0x20 ADD PUSH1 0x0 KECCAK256 PUSH1 0x0 SWAP1 SLOAD SWAP1 PUSH2 0x100 EXP SWAP1 DIV PUSH1 0xFF AND SWAP1 POP SWAP3 SWAP2 POP POP JUMP JUMPDEST DUP3 DUP1 SLOAD DUP3 DUP3 SSTORE SWAP1 PUSH1 0x0 MSTORE PUSH1 0x20 PUSH1 0x0 KECCAK256 SWAP1 DUP2 ADD SWAP3 DUP3 ISZERO PUSH3 0x3E7 JUMPI SWAP2 PUSH1 0x20 MUL DUP3 ADD JUMPDEST DUP3 DUP2 GT ISZERO PUSH3 0x3E6 JUMPI DUP3 MLOAD DUP3 SWAP1 DUP1 MLOAD SWAP1 PUSH1 0x20 ADD SWAP1 PUSH3 0x3D5 SWAP3 SWAP2 SWAP1 PUSH3 0x3FA JUMP JUMPDEST POP SWAP2 PUSH1 0x20 ADD SWAP2 SWAP1 PUSH1 0x1 ADD SWAP1 PUSH3 0x3B4 JUMP JUMPDEST JUMPDEST POP SWAP1 POP PUSH3 0x3F6 SWAP2 SWAP1 PUSH3 0x48B JUMP JUMPDEST POP SWAP1 JUMP JUMPDEST DUP3 DUP1 SLOAD PUSH3 0x408 SWAP1 PUSH3 0x518 JUMP JUMPDEST SWAP1 PUSH1 0x0 MSTORE PUSH1 0x20 PUSH1 0x0 KECCAK256 SWAP1 PUSH1 0x1F ADD PUSH1 0x20 SWAP1 DIV DUP2 ADD SWAP3 DUP3 PUSH3 0x42C JUMPI PUSH1 0x0 DUP6 SSTORE PUSH3 0x478 JUMP JUMPDEST DUP3 PUSH1 0x1F LT PUSH3 0x447 JUMPI DUP1 MLOAD PUSH1 0xFF NOT AND DUP4 DUP1 ADD OR DUP6 SSTORE PUSH3 0x478 JUMP JUMPDEST DUP3 DUP1 ADD PUSH1 0x1 ADD DUP6 SSTORE DUP3 ISZERO PUSH3 0x478 JUMPI SWAP2 DUP3 ADD JUMPDEST DUP3 DUP2 GT ISZERO PUSH3 0x477 JUMPI DUP3 MLOAD DUP3 SSTORE SWAP2 PUSH1 0x20 ADD SWAP2 SWAP1 PUSH1 0x1 ADD SWAP1 PUSH3 0x45A JUMP JUMPDEST JUMPDEST POP SWAP1 POP PUSH3 0x487 SWAP2 SWAP1 PUSH3 0x4B3 JUMP JUMPDEST POP SWAP1 JUMP JUMPDEST JUMPDEST DUP1 DUP3 GT ISZERO PUSH3 0x4AF JUMPI PUSH1 0x0 DUP2 DUP2 PUSH3 0x4A5 SWAP2 SWAP1 PUSH3 0x4D2 JUMP JUMPDEST POP PUSH1 0x1 ADD PUSH3 0x48C JUMP JUMPDEST POP SWAP1 JUMP JUMPDEST JUMPDEST DUP1 DUP3 GT ISZERO PUSH3 0x4CE JUMPI PUSH1 0x0 DUP2 PUSH1 0x0 SWAP1 SSTORE POP PUSH1 0x1 ADD PUSH3 0x4B4 JUMP JUMPDEST POP SWAP1 JUMP JUMPDEST POP DUP1 SLOAD PUSH3 0x4E0 SWAP1 PUSH3 0x518 JUMP JUMPDEST PUSH1 0x0 DUP3 SSTORE DUP1 PUSH1 0x1F LT PUSH3 0x4F4 JUMPI POP PUSH3 0x515 JUMP JUMPDEST PUSH1 0x1F ADD PUSH1 0x20 SWAP1 DIV SWAP1 PUSH1 0x0 MSTORE PUSH1 0x20 PUSH1 0x0 KECCAK256 SWAP1 DUP2 ADD SWAP1 PUSH3 0x514 SWAP2 SWAP1 PUSH3 0x4B3 JUMP JUMPDEST JUMPDEST POP JUMP JUMPDEST PUSH1 0x0 PUSH1 0x2 DUP3 DIV SWAP1 POP PUSH1 0x1 DUP3 AND DUP1 PUSH3 0x531 JUMPI PUSH1 0x7F DUP3 AND SWAP2 POP JUMPDEST PUSH1 0x20 DUP3 LT DUP2 EQ ISZERO PUSH3 0x548 JUMPI PUSH3 0x547 PUSH3 0x54E JUMP JUMPDEST JUMPDEST POP SWAP2 SWAP1 POP JUMP JUMPDEST PUSH32 0x4E487B7100000000000000000000000000000000000000000000000000000000 PUSH1 0x0 MSTORE PUSH1 0x22 PUSH1 0x4 MSTORE PUSH1 0x24 PUSH1 0x0 REVERT JUMPDEST PUSH2 0x2937 DUP1 PUSH3 0x58D PUSH1 0x0 CODECOPY PUSH1 0x0 RETURN INVALID PUSH1 0x80 PUSH1 0x40 MSTORE PUSH1 0x4 CALLDATASIZE LT PUSH2 0x135 JUMPI PUSH1 0x0 CALLDATALOAD PUSH1 0xE0 SHR DUP1 PUSH4 0x91D14854 GT PUSH2 0xAB JUMPI DUP1 PUSH4 0xA94015C8 GT PUSH2 0x6F JUMPI DUP1 PUSH4 0xA94015C8 EQ PUSH2 0x456 JUMPI DUP1 PUSH4 0xD547741F EQ PUSH2 0x481 JUMPI DUP1 PUSH4 0xD59D2A58 EQ PUSH2 0x4AA JUMPI DUP1 PUSH4 0xD9D55BA0 EQ PUSH2 0x4D3 JUMPI DUP1 PUSH4 0xDFD8459E EQ PUSH2 0x4FC JUMPI DUP1 PUSH4 0xF2FDE38B EQ PUSH2 0x525 JUMPI PUSH2 0x135 JUMP JUMPDEST DUP1 PUSH4 0x91D14854 EQ PUSH2 0x334 JUMPI DUP1 PUSH4 0x9C35D98B EQ PUSH2 0x371 JUMPI DUP1 PUSH4 0x9D710777 EQ PUSH2 0x3B1 JUMPI DUP1 PUSH4 0x9E5F0349 EQ PUSH2 0x3EE JUMPI DUP1 PUSH4 0xA217FDDF EQ PUSH2 0x42B JUMPI PUSH2 0x135 JUMP JUMPDEST DUP1 PUSH4 0x2F2FF15D GT PUSH2 0xFD JUMPI DUP1 PUSH4 0x2F2FF15D EQ PUSH2 0x23A JUMPI DUP1 PUSH4 0x314FD68F EQ PUSH2 0x263 JUMPI DUP1 PUSH4 0x36568ABE EQ PUSH2 0x2A0 JUMPI DUP1 PUSH4 0x4F05DBA8 EQ PUSH2 0x2C9 JUMPI DUP1 PUSH4 0x715018A6 EQ PUSH2 0x2F2 JUMPI DUP1 PUSH4 0x8DA5CB5B EQ PUSH2 0x309 JUMPI PUSH2 0x135 JUMP JUMPDEST DUP1 PUSH4 0x1FFC9A7 EQ PUSH2 0x13A JUMPI DUP1 PUSH4 0x14AD08BA EQ PUSH2 0x177 JUMPI DUP1 PUSH4 0x248A9CA3 EQ PUSH2 0x193 JUMPI DUP1 PUSH4 0x290E9212 EQ PUSH2 0x1D0 JUMPI DUP1 PUSH4 0x2E0D37BB EQ PUSH2 0x20F JUMPI JUMPDEST PUSH1 0x0 DUP1 REVERT JUMPDEST CALLVALUE DUP1 ISZERO PUSH2 0x146 JUMPI PUSH1 0x0 DUP1 REVERT JUMPDEST POP PUSH2 0x161 PUSH1 0x4 DUP1 CALLDATASIZE SUB DUP2 ADD SWAP1 PUSH2 0x15C SWAP2 SWAP1 PUSH2 0x1BD1 JUMP JUMPDEST PUSH2 0x54E JUMP JUMPDEST PUSH1 0x40 MLOAD PUSH2 0x16E SWAP2 SWAP1 PUSH2 0x2118 JUMP JUMPDEST PUSH1 0x40 MLOAD DUP1 SWAP2 SUB SWAP1 RETURN JUMPDEST PUSH2 0x191 PUSH1 0x4 DUP1 CALLDATASIZE SUB DUP2 ADD SWAP1 PUSH2 0x18C SWAP2 SWAP1 PUSH2 0x1C6D JUMP JUMPDEST PUSH2 0x5C8 JUMP JUMPDEST STOP JUMPDEST CALLVALUE DUP1 ISZERO PUSH2 0x19F JUMPI PUSH1 0x0 DUP1 REVERT JUMPDEST POP PUSH2 0x1BA PUSH1 0x4 DUP1 CALLDATASIZE SUB DUP2 ADD SWAP1 PUSH2 0x1B5 SWAP2 SWAP1 PUSH2 0x1B64 JUMP JUMPDEST PUSH2 0x610 JUMP JUMPDEST PUSH1 0x40 MLOAD PUSH2 0x1C7 SWAP2 SWAP1 PUSH2 0x2133 JUMP JUMPDEST PUSH1 0x40 MLOAD DUP1 SWAP2 SUB SWAP1 RETURN JUMPDEST CALLVALUE DUP1 ISZERO PUSH2 0x1DC JUMPI PUSH1 0x0 DUP1 REVERT JUMPDEST POP PUSH2 0x1F7 PUSH1 0x4 DUP1 CALLDATASIZE SUB DUP2 ADD SWAP1 PUSH2 0x1F2 SWAP2 SWAP1 PUSH2 0x1C6D JUMP JUMPDEST PUSH2 0x630 JUMP JUMPDEST PUSH1 0x40 MLOAD PUSH2 0x206 SWAP4 SWAP3 SWAP2 SWAP1 PUSH2 0x2170 JUMP JUMPDEST PUSH1 0x40 MLOAD DUP1 SWAP2 SUB SWAP1 RETURN JUMPDEST CALLVALUE DUP1 ISZERO PUSH2 0x21B JUMPI PUSH1 0x0 DUP1 REVERT JUMPDEST POP PUSH2 0x224 PUSH2 0x78A JUMP JUMPDEST PUSH1 0x40 MLOAD PUSH2 0x231 SWAP2 SWAP1 PUSH2 0x2133 JUMP JUMPDEST PUSH1 0x40 MLOAD DUP1 SWAP2 SUB SWAP1 RETURN JUMPDEST CALLVALUE DUP1 ISZERO PUSH2 0x246 JUMPI PUSH1 0x0 DUP1 REVERT JUMPDEST POP PUSH2 0x261 PUSH1 0x4 DUP1 CALLDATASIZE SUB DUP2 ADD SWAP1 PUSH2 0x25C SWAP2 SWAP1 PUSH2 0x1B91 JUMP JUMPDEST PUSH2 0x7AE JUMP JUMPDEST STOP JUMPDEST CALLVALUE DUP1 ISZERO PUSH2 0x26F JUMPI PUSH1 0x0 DUP1 REVERT JUMPDEST POP PUSH2 0x28A PUSH1 0x4 DUP1 CALLDATASIZE SUB DUP2 ADD SWAP1 PUSH2 0x285 SWAP2 SWAP1 PUSH2 0x1C6D JUMP JUMPDEST PUSH2 0x7CF JUMP JUMPDEST PUSH1 0x40 MLOAD PUSH2 0x297 SWAP2 SWAP1 PUSH2 0x214E JUMP JUMPDEST PUSH1 0x40 MLOAD DUP1 SWAP2 SUB SWAP1 RETURN JUMPDEST CALLVALUE DUP1 ISZERO PUSH2 0x2AC JUMPI PUSH1 0x0 DUP1 REVERT JUMPDEST POP PUSH2 0x2C7 PUSH1 0x4 DUP1 CALLDATASIZE SUB DUP2 ADD SWAP1 PUSH2 0x2C2 SWAP2 SWAP1 PUSH2 0x1B91 JUMP JUMPDEST PUSH2 0x87B JUMP JUMPDEST STOP JUMPDEST CALLVALUE DUP1 ISZERO PUSH2 0x2D5 JUMPI PUSH1 0x0 DUP1 REVERT JUMPDEST POP PUSH2 0x2F0 PUSH1 0x4 DUP1 CALLDATASIZE SUB DUP2 ADD SWAP1 PUSH2 0x2EB SWAP2 SWAP1 PUSH2 0x1AF5 JUMP JUMPDEST PUSH2 0x8FE JUMP JUMPDEST STOP JUMPDEST CALLVALUE DUP1 ISZERO PUSH2 0x2FE JUMPI PUSH1 0x0 DUP1 REVERT JUMPDEST POP PUSH2 0x307 PUSH2 0xA71 JUMP JUMPDEST STOP JUMPDEST CALLVALUE DUP1 ISZERO PUSH2 0x315 JUMPI PUSH1 0x0 DUP1 REVERT JUMPDEST POP PUSH2 0x31E PUSH2 0xA85 JUMP JUMPDEST PUSH1 0x40 MLOAD PUSH2 0x32B SWAP2 SWAP1 PUSH2 0x20B8 JUMP JUMPDEST PUSH1 0x40 MLOAD DUP1 SWAP2 SUB SWAP1 RETURN JUMPDEST CALLVALUE DUP1 ISZERO PUSH2 0x340 JUMPI PUSH1 0x0 DUP1 REVERT JUMPDEST POP PUSH2 0x35B PUSH1 0x4 DUP1 CALLDATASIZE SUB DUP2 ADD SWAP1 PUSH2 0x356 SWAP2 SWAP1 PUSH2 0x1B91 JUMP JUMPDEST PUSH2 0xAAE JUMP JUMPDEST PUSH1 0x40 MLOAD PUSH2 0x368 SWAP2 SWAP1 PUSH2 0x2118 JUMP JUMPDEST PUSH1 0x40 MLOAD DUP1 SWAP2 SUB SWAP1 RETURN JUMPDEST CALLVALUE DUP1 ISZERO PUSH2 0x37D JUMPI PUSH1 0x0 DUP1 REVERT JUMPDEST POP PUSH2 0x398 PUSH1 0x4 DUP1 CALLDATASIZE SUB DUP2 ADD SWAP1 PUSH2 0x393 SWAP2 SWAP1 PUSH2 0x1C6D JUMP JUMPDEST PUSH2 0xB19 JUMP JUMPDEST PUSH1 0x40 MLOAD PUSH2 0x3A8 SWAP5 SWAP4 SWAP3 SWAP2 SWAP1 PUSH2 0x20D3 JUMP JUMPDEST PUSH1 0x40 MLOAD DUP1 SWAP2 SUB SWAP1 RETURN JUMPDEST CALLVALUE DUP1 ISZERO PUSH2 0x3BD JUMPI PUSH1 0x0 DUP1 REVERT JUMPDEST POP PUSH2 0x3D8 PUSH1 0x4 DUP1 CALLDATASIZE SUB DUP2 ADD SWAP1 PUSH2 0x3D3 SWAP2 SWAP1 PUSH2 0x1C6D JUMP JUMPDEST PUSH2 0xB76 JUMP JUMPDEST PUSH1 0x40 MLOAD PUSH2 0x3E5 SWAP2 SWAP1 PUSH2 0x2297 JUMP JUMPDEST PUSH1 0x40 MLOAD DUP1 SWAP2 SUB SWAP1 RETURN JUMPDEST CALLVALUE DUP1 ISZERO PUSH2 0x3FA JUMPI PUSH1 0x0 DUP1 REVERT JUMPDEST POP PUSH2 0x415 PUSH1 0x4 DUP1 CALLDATASIZE SUB DUP2 ADD SWAP1 PUSH2 0x410 SWAP2 SWAP1 PUSH2 0x1C6D JUMP JUMPDEST PUSH2 0xCB8 JUMP JUMPDEST PUSH1 0x40 MLOAD PUSH2 0x422 SWAP2 SWAP1 PUSH2 0x2275 JUMP JUMPDEST PUSH1 0x40 MLOAD DUP1 SWAP2 SUB SWAP1 RETURN JUMPDEST CALLVALUE DUP1 ISZERO PUSH2 0x437 JUMPI PUSH1 0x0 DUP1 REVERT JUMPDEST POP PUSH2 0x440 PUSH2 0xE5F JUMP JUMPDEST PUSH1 0x40 MLOAD PUSH2 0x44D SWAP2 SWAP1 PUSH2 0x2133 JUMP JUMPDEST PUSH1 0x40 MLOAD DUP1 SWAP2 SUB SWAP1 RETURN JUMPDEST CALLVALUE DUP1 ISZERO PUSH2 0x462 JUMPI PUSH1 0x0 DUP1 REVERT JUMPDEST POP PUSH2 0x46B PUSH2 0xE66 JUMP JUMPDEST PUSH1 0x40 MLOAD PUSH2 0x478 SWAP2 SWAP1 PUSH2 0x2133 JUMP JUMPDEST PUSH1 0x40 MLOAD DUP1 SWAP2 SUB SWAP1 RETURN JUMPDEST CALLVALUE DUP1 ISZERO PUSH2 0x48D JUMPI PUSH1 0x0 DUP1 REVERT JUMPDEST POP PUSH2 0x4A8 PUSH1 0x4 DUP1 CALLDATASIZE SUB DUP2 ADD SWAP1 PUSH2 0x4A3 SWAP2 SWAP1 PUSH2 0x1B91 JUMP JUMPDEST PUSH2 0xE8A JUMP JUMPDEST STOP JUMPDEST CALLVALUE DUP1 ISZERO PUSH2 0x4B6 JUMPI PUSH1 0x0 DUP1 REVERT JUMPDEST POP PUSH2 0x4D1 PUSH1 0x4 DUP1 CALLDATASIZE SUB DUP2 ADD SWAP1 PUSH2 0x4CC SWAP2 SWAP1 PUSH2 0x1BFE JUMP JUMPDEST PUSH2 0xEAB JUMP JUMPDEST STOP JUMPDEST CALLVALUE DUP1 ISZERO PUSH2 0x4DF JUMPI PUSH1 0x0 DUP1 REVERT JUMPDEST POP PUSH2 0x4FA PUSH1 0x4 DUP1 CALLDATASIZE SUB DUP2 ADD SWAP1 PUSH2 0x4F5 SWAP2 SWAP1 PUSH2 0x1C6D JUMP JUMPDEST PUSH2 0x1003 JUMP JUMPDEST STOP JUMPDEST CALLVALUE DUP1 ISZERO PUSH2 0x508 JUMPI PUSH1 0x0 DUP1 REVERT JUMPDEST POP PUSH2 0x523 PUSH1 0x4 DUP1 CALLDATASIZE SUB DUP2 ADD SWAP1 PUSH2 0x51E SWAP2 SWAP1 PUSH2 0x1AC8 JUMP JUMPDEST PUSH2 0x10A4 JUMP JUMPDEST STOP JUMPDEST CALLVALUE DUP1 ISZERO PUSH2 0x531 JUMPI PUSH1 0x0 DUP1 REVERT JUMPDEST POP PUSH2 0x54C PUSH1 0x4 DUP1 CALLDATASIZE SUB DUP2 ADD SWAP1 PUSH2 0x547 SWAP2 SWAP1 PUSH2 0x1AC8 JUMP JUMPDEST PUSH2 0x10D9 JUMP JUMPDEST STOP JUMPDEST PUSH1 0x0 PUSH32 0x7965DB0B00000000000000000000000000000000000000000000000000000000 PUSH28 0xFFFFFFFFFFFFFFFFFFFFFFFFFFFFFFFFFFFFFFFFFFFFFFFFFFFFFFFF NOT AND DUP3 PUSH28 0xFFFFFFFFFFFFFFFFFFFFFFFFFFFFFFFFFFFFFFFFFFFFFFFFFFFFFFFF NOT AND EQ DUP1 PUSH2 0x5C1 JUMPI POP PUSH2 0x5C0 DUP3 PUSH2 0x115D JUMP JUMPDEST JUMPDEST SWAP1 POP SWAP2 SWAP1 POP JUMP JUMPDEST PUSH1 0x2 SLOAD CALLVALUE LT ISZERO PUSH2 0x60D JUMPI PUSH1 0x40 MLOAD PUSH32 0x8C379A000000000000000000000000000000000000000000000000000000000 DUP2 MSTORE PUSH1 0x4 ADD PUSH2 0x604 SWAP1 PUSH2 0x2215 JUMP JUMPDEST PUSH1 0x40 MLOAD DUP1 SWAP2 SUB SWAP1 REVERT JUMPDEST POP JUMP JUMPDEST PUSH1 0x0 PUSH1 0x1 PUSH1 0x0 DUP4 DUP2 MSTORE PUSH1 0x20 ADD SWAP1 DUP2 MSTORE PUSH1 0x20 ADD PUSH1 0x0 KECCAK256 PUSH1 0x1 ADD SLOAD SWAP1 POP SWAP2 SWAP1 POP JUMP JUMPDEST PUSH1 0x7 PUSH1 0x20 MSTORE DUP1 PUSH1 0x0 MSTORE PUSH1 0x40 PUSH1 0x0 KECCAK256 PUSH1 0x0 SWAP2 POP SWAP1 POP DUP1 PUSH1 0x0 ADD DUP1 SLOAD PUSH2 0x653 SWAP1 PUSH2 0x257F JUMP JUMPDEST DUP1 PUSH1 0x1F ADD PUSH1 0x20 DUP1 SWAP2 DIV MUL PUSH1 0x20 ADD PUSH1 0x40 MLOAD SWAP1 DUP2 ADD PUSH1 0x40 MSTORE DUP1 SWAP3 SWAP2 SWAP1 DUP2 DUP2 MSTORE PUSH1 0x20 ADD DUP3 DUP1 SLOAD PUSH2 0x67F SWAP1 PUSH2 0x257F JUMP JUMPDEST DUP1 ISZERO PUSH2 0x6CC JUMPI DUP1 PUSH1 0x1F LT PUSH2 0x6A1 JUMPI PUSH2 0x100 DUP1 DUP4 SLOAD DIV MUL DUP4 MSTORE SWAP2 PUSH1 0x20 ADD SWAP2 PUSH2 0x6CC JUMP JUMPDEST DUP3 ADD SWAP2 SWAP1 PUSH1 0x0 MSTORE PUSH1 0x20 PUSH1 0x0 KECCAK256 SWAP1 JUMPDEST DUP2 SLOAD DUP2 MSTORE SWAP1 PUSH1 0x1 ADD SWAP1 PUSH1 0x20 ADD DUP1 DUP4 GT PUSH2 0x6AF JUMPI DUP3 SWAP1 SUB PUSH1 0x1F AND DUP3 ADD SWAP2 JUMPDEST POP POP POP POP POP SWAP1 DUP1 PUSH1 0x1 ADD PUSH1 0x0 SWAP1 SLOAD SWAP1 PUSH2 0x100 EXP SWAP1 DIV PUSH20 0xFFFFFFFFFFFFFFFFFFFFFFFFFFFFFFFFFFFFFFFF AND SWAP1 DUP1 PUSH1 0x2 ADD DUP1 SLOAD PUSH2 0x707 SWAP1 PUSH2 0x257F JUMP JUMPDEST DUP1 PUSH1 0x1F ADD PUSH1 0x20 DUP1 SWAP2 DIV MUL PUSH1 0x20 ADD PUSH1 0x40 MLOAD SWAP1 DUP2 ADD PUSH1 0x40 MSTORE DUP1 SWAP3 SWAP2 SWAP1 DUP2 DUP2 MSTORE PUSH1 0x20 ADD DUP3 DUP1 SLOAD PUSH2 0x733 SWAP1 PUSH2 0x257F JUMP JUMPDEST DUP1 ISZERO PUSH2 0x780 JUMPI DUP1 PUSH1 0x1F LT PUSH2 0x755 JUMPI PUSH2 0x100 DUP1 DUP4 SLOAD DIV MUL DUP4 MSTORE SWAP2 PUSH1 0x20 ADD SWAP2 PUSH2 0x780 JUMP JUMPDEST DUP3 ADD SWAP2 SWAP1 PUSH1 0x0 MSTORE PUSH1 0x20 PUSH1 0x0 KECCAK256 SWAP1 JUMPDEST DUP2 SLOAD DUP2 MSTORE SWAP1 PUSH1 0x1 ADD SWAP1 PUSH1 0x20 ADD DUP1 DUP4 GT PUSH2 0x763 JUMPI DUP3 SWAP1 SUB PUSH1 0x1F AND DUP3 ADD SWAP2 JUMPDEST POP POP POP POP POP SWAP1 POP DUP4 JUMP JUMPDEST PUSH32 0x82F6ED76E0352438E6A6E35C77719C3F04BF277FDC8FEC7E5FF5F65E001D902 DUP2 JUMP JUMPDEST PUSH2 0x7B7 DUP3 PUSH2 0x610 JUMP JUMPDEST PUSH2 0x7C0 DUP2 PUSH2 0x11C7 JUMP JUMPDEST PUSH2 0x7CA DUP4 DUP4 PUSH2 0x11DB JUMP JUMPDEST POP POP POP JUMP JUMPDEST PUSH1 0x6 DUP2 DUP2 SLOAD DUP2 LT PUSH2 0x7DF JUMPI PUSH1 0x0 DUP1 REVERT JUMPDEST SWAP1 PUSH1 0x0 MSTORE PUSH1 0x20 PUSH1 0x0 KECCAK256 ADD PUSH1 0x0 SWAP2 POP SWAP1 POP DUP1 SLOAD PUSH2 0x7FA SWAP1 PUSH2 0x257F JUMP JUMPDEST DUP1 PUSH1 0x1F ADD PUSH1 0x20 DUP1 SWAP2 DIV MUL PUSH1 0x20 ADD PUSH1 0x40 MLOAD SWAP1 DUP2 ADD PUSH1 0x40 MSTORE DUP1 SWAP3 SWAP2 SWAP1 DUP2 DUP2 MSTORE PUSH1 0x20 ADD DUP3 DUP1 SLOAD PUSH2 0x826 SWAP1 PUSH2 0x257F JUMP JUMPDEST DUP1 ISZERO PUSH2 0x873 JUMPI DUP1 PUSH1 0x1F LT PUSH2 0x848 JUMPI PUSH2 0x100 DUP1 DUP4 SLOAD DIV MUL DUP4 MSTORE SWAP2 PUSH1 0x20 ADD SWAP2 PUSH2 0x873 JUMP JUMPDEST DUP3 ADD SWAP2 SWAP1 PUSH1 0x0 MSTORE PUSH1 0x20 PUSH1 0x0 KECCAK256 SWAP1 JUMPDEST DUP2 SLOAD DUP2 MSTORE SWAP1 PUSH1 0x1 ADD SWAP1 PUSH1 0x20 ADD DUP1 DUP4 GT PUSH2 0x856 JUMPI DUP3 SWAP1 SUB PUSH1 0x1F AND DUP3 ADD SWAP2 JUMPDEST POP POP POP POP POP DUP2 JUMP JUMPDEST PUSH2 0x883 PUSH2 0x12BB JUMP JUMPDEST PUSH20 0xFFFFFFFFFFFFFFFFFFFFFFFFFFFFFFFFFFFFFFFF AND DUP2 PUSH20 0xFFFFFFFFFFFFFFFFFFFFFFFFFFFFFFFFFFFFFFFF AND EQ PUSH2 0x8F0 JUMPI PUSH1 0x40 MLOAD PUSH32 0x8C379A000000000000000000000000000000000000000000000000000000000 DUP2 MSTORE PUSH1 0x4 ADD PUSH2 0x8E7 SWAP1 PUSH2 0x2255 JUMP JUMPDEST PUSH1 0x40 MLOAD DUP1 SWAP2 SUB SWAP1 REVERT JUMPDEST PUSH2 0x8FA DUP3 DUP3 PUSH2 0x12C3 JUMP JUMPDEST POP POP JUMP JUMPDEST PUSH2 0x928 PUSH32 0x82F6ED76E0352438E6A6E35C77719C3F04BF277FDC8FEC7E5FF5F65E001D902 CALLER PUSH2 0xAAE JUMP JUMPDEST PUSH2 0x967 JUMPI PUSH1 0x40 MLOAD PUSH32 0x8C379A000000000000000000000000000000000000000000000000000000000 DUP2 MSTORE PUSH1 0x4 ADD PUSH2 0x95E SWAP1 PUSH2 0x21F5 JUMP JUMPDEST PUSH1 0x40 MLOAD DUP1 SWAP2 SUB SWAP1 REVERT JUMPDEST DUP2 PUSH1 0x9 PUSH1 0x0 PUSH1 0x5 SLOAD DUP2 MSTORE PUSH1 0x20 ADD SWAP1 DUP2 MSTORE PUSH1 0x20 ADD PUSH1 0x0 KECCAK256 PUSH1 0x2 ADD DUP2 SWAP1 SSTORE POP DUP1 PUSH1 0x9 PUSH1 0x0 PUSH1 0x5 SLOAD DUP2 MSTORE PUSH1 0x20 ADD SWAP1 DUP2 MSTORE PUSH1 0x20 ADD PUSH1 0x0 KECCAK256 PUSH1 0x3 ADD DUP2 SWAP1 SSTORE POP PUSH1 0x0 JUMPDEST DUP4 MLOAD DUP2 LT ISZERO PUSH2 0xA53 JUMPI PUSH1 0x9 PUSH1 0x0 PUSH1 0x5 SLOAD DUP2 MSTORE PUSH1 0x20 ADD SWAP1 DUP2 MSTORE PUSH1 0x20 ADD PUSH1 0x0 KECCAK256 PUSH1 0x0 ADD DUP5 DUP3 DUP2 MLOAD DUP2 LT PUSH2 0x9D8 JUMPI PUSH2 0x9D7 PUSH2 0x2689 JUMP JUMPDEST JUMPDEST PUSH1 0x20 MUL PUSH1 0x20 ADD ADD MLOAD SWAP1 DUP1 PUSH1 0x1 DUP2 SLOAD ADD DUP1 DUP3 SSTORE DUP1 SWAP2 POP POP PUSH1 0x1 SWAP1 SUB SWAP1 PUSH1 0x0 MSTORE PUSH1 0x20 PUSH1 0x0 KECCAK256 ADD PUSH1 0x0 SWAP1 SWAP2 SWAP1 SWAP2 SWAP1 SWAP2 PUSH2 0x100 EXP DUP2 SLOAD DUP2 PUSH20 0xFFFFFFFFFFFFFFFFFFFFFFFFFFFFFFFFFFFFFFFF MUL NOT AND SWAP1 DUP4 PUSH20 0xFFFFFFFFFFFFFFFFFFFFFFFFFFFFFFFFFFFFFFFF AND MUL OR SWAP1 SSTORE POP DUP1 DUP1 PUSH2 0xA4B SWAP1 PUSH2 0x25E2 JUMP JUMPDEST SWAP2 POP POP PUSH2 0x9A4 JUMP JUMPDEST POP PUSH1 0x5 PUSH1 0x0 DUP2 SLOAD DUP1 SWAP3 SWAP2 SWAP1 PUSH2 0xA67 SWAP1 PUSH2 0x25E2 JUMP JUMPDEST SWAP2 SWAP1 POP SSTORE POP POP POP POP JUMP JUMPDEST PUSH2 0xA79 PUSH2 0x13A5 JUMP JUMPDEST PUSH2 0xA83 PUSH1 0x0 PUSH2 0x1423 JUMP JUMPDEST JUMP JUMPDEST PUSH1 0x0 DUP1 PUSH1 0x0 SWAP1 SLOAD SWAP1 PUSH2 0x100 EXP SWAP1 DIV PUSH20 0xFFFFFFFFFFFFFFFFFFFFFFFFFFFFFFFFFFFFFFFF AND SWAP1 POP SWAP1 JUMP JUMPDEST PUSH1 0x0 PUSH1 0x1 PUSH1 0x0 DUP5 DUP2 MSTORE PUSH1 0x20 ADD SWAP1 DUP2 MSTORE PUSH1 0x20 ADD PUSH1 0x0 KECCAK256 PUSH1 0x0 ADD PUSH1 0x0 DUP4 PUSH20 0xFFFFFFFFFFFFFFFFFFFFFFFFFFFFFFFFFFFFFFFF AND PUSH20 0xFFFFFFFFFFFFFFFFFFFFFFFFFFFFFFFFFFFFFFFF AND DUP2 MSTORE PUSH1 0x20 ADD SWAP1 DUP2 MSTORE PUSH1 0x20 ADD PUSH1 0x0 KECCAK256 PUSH1 0x0 SWAP1 SLOAD SWAP1 PUSH2 0x100 EXP SWAP1 DIV PUSH1 0xFF AND SWAP1 POP SWAP3 SWAP2 POP POP JUMP JUMPDEST PUSH1 0x8 PUSH1 0x20 MSTORE DUP1 PUSH1 0x0 MSTORE PUSH1 0x40 PUSH1 0x0 KECCAK256 PUSH1 0x0 SWAP2 POP SWAP1 POP DUP1 PUSH1 0x0 ADD PUSH1 0x0 SWAP1 SLOAD SWAP1 PUSH2 0x100 EXP SWAP1 DIV PUSH20 0xFFFFFFFFFFFFFFFFFFFFFFFFFFFFFFFFFFFFFFFF AND SWAP1 DUP1 PUSH1 0x1 ADD SLOAD SWAP1 DUP1 PUSH1 0x2 ADD SLOAD SWAP1 DUP1 PUSH1 0x3 ADD PUSH1 0x0 SWAP1 SLOAD SWAP1 PUSH2 0x100 EXP SWAP1 DIV PUSH1 0xFF AND SWAP1 POP DUP5 JUMP JUMPDEST PUSH2 0xB7E PUSH2 0x17CE JUMP JUMPDEST PUSH1 0x9 PUSH1 0x0 DUP4 DUP2 MSTORE PUSH1 0x20 ADD SWAP1 DUP2 MSTORE PUSH1 0x20 ADD PUSH1 0x0 KECCAK256 PUSH1 0x40 MLOAD DUP1 PUSH1 0xA0 ADD PUSH1 0x40 MSTORE SWAP1 DUP2 PUSH1 0x0 DUP3 ADD DUP1 SLOAD DUP1 PUSH1 0x20 MUL PUSH1 0x20 ADD PUSH1 0x40 MLOAD SWAP1 DUP2 ADD PUSH1 0x40 MSTORE DUP1 SWAP3 SWAP2 SWAP1 DUP2 DUP2 MSTORE PUSH1 0x20 ADD DUP3 DUP1 SLOAD DUP1 ISZERO PUSH2 0xC21 JUMPI PUSH1 0x20 MUL DUP3 ADD SWAP2 SWAP1 PUSH1 0x0 MSTORE PUSH1 0x20 PUSH1 0x0 KECCAK256 SWAP1 JUMPDEST DUP2 PUSH1 0x0 SWAP1 SLOAD SWAP1 PUSH2 0x100 EXP SWAP1 DIV PUSH20 0xFFFFFFFFFFFFFFFFFFFFFFFFFFFFFFFFFFFFFFFF AND PUSH20 0xFFFFFFFFFFFFFFFFFFFFFFFFFFFFFFFFFFFFFFFF AND DUP2 MSTORE PUSH1 0x20 ADD SWAP1 PUSH1 0x1 ADD SWAP1 DUP1 DUP4 GT PUSH2 0xBD7 JUMPI JUMPDEST POP POP POP POP POP DUP2 MSTORE PUSH1 0x20 ADD PUSH1 0x1 DUP3 ADD DUP1 SLOAD DUP1 PUSH1 0x20 MUL PUSH1 0x20 ADD PUSH1 0x40 MLOAD SWAP1 DUP2 ADD PUSH1 0x40 MSTORE DUP1 SWAP3 SWAP2 SWAP1 DUP2 DUP2 MSTORE PUSH1 0x20 ADD DUP3 DUP1 SLOAD DUP1 ISZERO PUSH2 0xC79 JUMPI PUSH1 0x20 MUL DUP3 ADD SWAP2 SWAP1 PUSH1 0x0 MSTORE PUSH1 0x20 PUSH1 0x0 KECCAK256 SWAP1 JUMPDEST DUP2 SLOAD DUP2 MSTORE PUSH1 0x20 ADD SWAP1 PUSH1 0x1 ADD SWAP1 DUP1 DUP4 GT PUSH2 0xC65 JUMPI JUMPDEST POP POP POP POP POP DUP2 MSTORE PUSH1 0x20 ADD PUSH1 0x2 DUP3 ADD SLOAD DUP2 MSTORE PUSH1 0x20 ADD PUSH1 0x3 DUP3 ADD SLOAD DUP2 MSTORE PUSH1 0x20 ADD PUSH1 0x4 DUP3 ADD PUSH1 0x0 SWAP1 SLOAD SWAP1 PUSH2 0x100 EXP SWAP1 DIV PUSH1 0xFF AND ISZERO ISZERO ISZERO ISZERO DUP2 MSTORE POP POP SWAP1 POP SWAP2 SWAP1 POP JUMP JUMPDEST PUSH2 0xCC0 PUSH2 0x17FF JUMP JUMPDEST PUSH1 0x7 PUSH1 0x0 DUP4 DUP2 MSTORE PUSH1 0x20 ADD SWAP1 DUP2 MSTORE PUSH1 0x20 ADD PUSH1 0x0 KECCAK256 PUSH1 0x40 MLOAD DUP1 PUSH1 0x60 ADD PUSH1 0x40 MSTORE SWAP1 DUP2 PUSH1 0x0 DUP3 ADD DUP1 SLOAD PUSH2 0xCEE SWAP1 PUSH2 0x257F JUMP JUMPDEST DUP1 PUSH1 0x1F ADD PUSH1 0x20 DUP1 SWAP2 DIV MUL PUSH1 0x20 ADD PUSH1 0x40 MLOAD SWAP1 DUP2 ADD PUSH1 0x40 MSTORE DUP1 SWAP3 SWAP2 SWAP1 DUP2 DUP2 MSTORE PUSH1 0x20 ADD DUP3 DUP1 SLOAD PUSH2 0xD1A SWAP1 PUSH2 0x257F JUMP JUMPDEST DUP1 ISZERO PUSH2 0xD67 JUMPI DUP1 PUSH1 0x1F LT PUSH2 0xD3C JUMPI PUSH2 0x100 DUP1 DUP4 SLOAD DIV MUL DUP4 MSTORE SWAP2 PUSH1 0x20 ADD SWAP2 PUSH2 0xD67 JUMP JUMPDEST DUP3 ADD SWAP2 SWAP1 PUSH1 0x0 MSTORE PUSH1 0x20 PUSH1 0x0 KECCAK256 SWAP1 JUMPDEST DUP2 SLOAD DUP2 MSTORE SWAP1 PUSH1 0x1 ADD SWAP1 PUSH1 0x20 ADD DUP1 DUP4 GT PUSH2 0xD4A JUMPI DUP3 SWAP1 SUB PUSH1 0x1F AND DUP3 ADD SWAP2 JUMPDEST POP POP POP POP POP DUP2 MSTORE PUSH1 0x20 ADD PUSH1 0x1 DUP3 ADD PUSH1 0x0 SWAP1 SLOAD SWAP1 PUSH2 0x100 EXP SWAP1 DIV PUSH20 0xFFFFFFFFFFFFFFFFFFFFFFFFFFFFFFFFFFFFFFFF AND PUSH20 0xFFFFFFFFFFFFFFFFFFFFFFFFFFFFFFFFFFFFFFFF AND PUSH20 0xFFFFFFFFFFFFFFFFFFFFFFFFFFFFFFFFFFFFFFFF AND DUP2 MSTORE PUSH1 0x20 ADD PUSH1 0x2 DUP3 ADD DUP1 SLOAD PUSH2 0xDD6 SWAP1 PUSH2 0x257F JUMP JUMPDEST DUP1 PUSH1 0x1F ADD PUSH1 0x20 DUP1 SWAP2 DIV MUL PUSH1 0x20 ADD PUSH1 0x40 MLOAD SWAP1 DUP2 ADD PUSH1 0x40 MSTORE DUP1 SWAP3 SWAP2 SWAP1 DUP2 DUP2 MSTORE PUSH1 0x20 ADD DUP3 DUP1 SLOAD PUSH2 0xE02 SWAP1 PUSH2 0x257F JUMP JUMPDEST DUP1 ISZERO PUSH2 0xE4F JUMPI DUP1 PUSH1 0x1F LT PUSH2 0xE24 JUMPI PUSH2 0x100 DUP1 DUP4 SLOAD DIV MUL DUP4 MSTORE SWAP2 PUSH1 0x20 ADD SWAP2 PUSH2 0xE4F JUMP JUMPDEST DUP3 ADD SWAP2 SWAP1 PUSH1 0x0 MSTORE PUSH1 0x20 PUSH1 0x0 KECCAK256 SWAP1 JUMPDEST DUP2 SLOAD DUP2 MSTORE SWAP1 PUSH1 0x1 ADD SWAP1 PUSH1 0x20 ADD DUP1 DUP4 GT PUSH2 0xE32 JUMPI DUP3 SWAP1 SUB PUSH1 0x1F AND DUP3 ADD SWAP2 JUMPDEST POP POP POP POP POP DUP2 MSTORE POP POP SWAP1 POP SWAP2 SWAP1 POP JUMP JUMPDEST PUSH1 0x0 DUP1 SHL DUP2 JUMP JUMPDEST PUSH32 0x15283FD96AA656C9DF35AC2FCB112678A5F24F1CA97E591A97D1D16003DBFC9C DUP2 JUMP JUMPDEST PUSH2 0xE93 DUP3 PUSH2 0x610 JUMP JUMPDEST PUSH2 0xE9C DUP2 PUSH2 0x11C7 JUMP JUMPDEST PUSH2 0xEA6 DUP4 DUP4 PUSH2 0x12C3 JUMP JUMPDEST POP POP POP JUMP JUMPDEST PUSH2 0xED5 PUSH32 0x82F6ED76E0352438E6A6E35C77719C3F04BF277FDC8FEC7E5FF5F65E001D902 CALLER PUSH2 0xAAE JUMP JUMPDEST PUSH2 0xF14 JUMPI PUSH1 0x40 MLOAD PUSH32 0x8C379A000000000000000000000000000000000000000000000000000000000 DUP2 MSTORE PUSH1 0x4 ADD PUSH2 0xF0B SWAP1 PUSH2 0x21F5 JUMP JUMPDEST PUSH1 0x40 MLOAD DUP1 SWAP2 SUB SWAP1 REVERT JUMPDEST DUP3 PUSH1 0x7 PUSH1 0x0 PUSH1 0x3 SLOAD DUP2 MSTORE PUSH1 0x20 ADD SWAP1 DUP2 MSTORE PUSH1 0x20 ADD PUSH1 0x0 KECCAK256 PUSH1 0x0 ADD SWAP1 DUP1 MLOAD SWAP1 PUSH1 0x20 ADD SWAP1 PUSH2 0xF40 SWAP3 SWAP2 SWAP1 PUSH2 0x1836 JUMP JUMPDEST POP DUP2 PUSH1 0x7 PUSH1 0x0 PUSH1 0x3 SLOAD DUP2 MSTORE PUSH1 0x20 ADD SWAP1 DUP2 MSTORE PUSH1 0x20 ADD PUSH1 0x0 KECCAK256 PUSH1 0x1 ADD PUSH1 0x0 PUSH2 0x100 EXP DUP2 SLOAD DUP2 PUSH20 0xFFFFFFFFFFFFFFFFFFFFFFFFFFFFFFFFFFFFFFFF MUL NOT AND SWAP1 DUP4 PUSH20 0xFFFFFFFFFFFFFFFFFFFFFFFFFFFFFFFFFFFFFFFF AND MUL OR SWAP1 SSTORE POP PUSH1 0x6 DUP2 DUP2 SLOAD DUP2 LT PUSH2 0xFAC JUMPI PUSH2 0xFAB PUSH2 0x2689 JUMP JUMPDEST JUMPDEST SWAP1 PUSH1 0x0 MSTORE PUSH1 0x20 PUSH1 0x0 KECCAK256 ADD PUSH1 0x7 PUSH1 0x0 PUSH1 0x3 SLOAD DUP2 MSTORE PUSH1 0x20 ADD SWAP1 DUP2 MSTORE PUSH1 0x20 ADD PUSH1 0x0 KECCAK256 PUSH1 0x2 ADD SWAP1 DUP1 SLOAD PUSH2 0xFDA SWAP1 PUSH2 0x257F JUMP JUMPDEST PUSH2 0xFE5 SWAP3 SWAP2 SWAP1 PUSH2 0x18BC JUMP JUMPDEST POP PUSH1 0x3 PUSH1 0x0 DUP2 SLOAD DUP1 SWAP3 SWAP2 SWAP1 PUSH2 0xFF9 SWAP1 PUSH2 0x25E2 JUMP JUMPDEST SWAP2 SWAP1 POP SSTORE POP POP POP POP JUMP JUMPDEST CALLER PUSH1 0x8 PUSH1 0x0 PUSH1 0x4 SLOAD DUP2 MSTORE PUSH1 0x20 ADD SWAP1 DUP2 MSTORE PUSH1 0x20 ADD PUSH1 0x0 KECCAK256 PUSH1 0x0 ADD PUSH1 0x0 PUSH2 0x100 EXP DUP2 SLOAD DUP2 PUSH20 0xFFFFFFFFFFFFFFFFFFFFFFFFFFFFFFFFFFFFFFFF MUL NOT AND SWAP1 DUP4 PUSH20 0xFFFFFFFFFFFFFFFFFFFFFFFFFFFFFFFFFFFFFFFF AND MUL OR SWAP1 SSTORE POP DUP1 PUSH1 0x8 PUSH1 0x0 PUSH1 0x4 SLOAD DUP2 MSTORE PUSH1 0x20 ADD SWAP1 DUP2 MSTORE PUSH1 0x20 ADD PUSH1 0x0 KECCAK256 PUSH1 0x1 ADD DUP2 SWAP1 SSTORE POP PUSH2 0x10A1 PUSH32 0x15283FD96AA656C9DF35AC2FCB112678A5F24F1CA97E591A97D1D16003DBFC9C CALLER PUSH2 0x14E7 JUMP JUMPDEST POP JUMP JUMPDEST PUSH2 0x10AC PUSH2 0x13A5 JUMP JUMPDEST PUSH2 0x10D6 PUSH32 0x82F6ED76E0352438E6A6E35C77719C3F04BF277FDC8FEC7E5FF5F65E001D902 DUP3 PUSH2 0x7AE JUMP JUMPDEST POP JUMP JUMPDEST PUSH2 0x10E1 PUSH2 0x13A5 JUMP JUMPDEST PUSH1 0x0 PUSH20 0xFFFFFFFFFFFFFFFFFFFFFFFFFFFFFFFFFFFFFFFF AND DUP2 PUSH20 0xFFFFFFFFFFFFFFFFFFFFFFFFFFFFFFFFFFFFFFFF AND EQ ISZERO PUSH2 0x1151 JUMPI PUSH1 0x40 MLOAD PUSH32 0x8C379A000000000000000000000000000000000000000000000000000000000 DUP2 MSTORE PUSH1 0x4 ADD PUSH2 0x1148 SWAP1 PUSH2 0x21D5 JUMP JUMPDEST PUSH1 0x40 MLOAD DUP1 SWAP2 SUB SWAP1 REVERT JUMPDEST PUSH2 0x115A DUP2 PUSH2 0x1423 JUMP JUMPDEST POP JUMP JUMPDEST PUSH1 0x0 PUSH32 0x1FFC9A700000000000000000000000000000000000000000000000000000000 PUSH28 0xFFFFFFFFFFFFFFFFFFFFFFFFFFFFFFFFFFFFFFFFFFFFFFFFFFFFFFFF NOT AND DUP3 PUSH28 0xFFFFFFFFFFFFFFFFFFFFFFFFFFFFFFFFFFFFFFFFFFFFFFFFFFFFFFFF NOT AND EQ SWAP1 POP SWAP2 SWAP1 POP JUMP JUMPDEST PUSH2 0x11D8 DUP2 PUSH2 0x11D3 PUSH2 0x12BB JUMP JUMPDEST PUSH2 0x14F5 JUMP JUMPDEST POP JUMP JUMPDEST PUSH2 0x11E5 DUP3 DUP3 PUSH2 0xAAE JUMP JUMPDEST PUSH2 0x12B7 JUMPI PUSH1 0x1 DUP1 PUSH1 0x0 DUP5 DUP2 MSTORE PUSH1 0x20 ADD SWAP1 DUP2 MSTORE PUSH1 0x20 ADD PUSH1 0x0 KECCAK256 PUSH1 0x0 ADD PUSH1 0x0 DUP4 PUSH20 0xFFFFFFFFFFFFFFFFFFFFFFFFFFFFFFFFFFFFFFFF AND PUSH20 0xFFFFFFFFFFFFFFFFFFFFFFFFFFFFFFFFFFFFFFFF AND DUP2 MSTORE PUSH1 0x20 ADD SWAP1 DUP2 MSTORE PUSH1 0x20 ADD PUSH1 0x0 KECCAK256 PUSH1 0x0 PUSH2 0x100 EXP DUP2 SLOAD DUP2 PUSH1 0xFF MUL NOT AND SWAP1 DUP4 ISZERO ISZERO MUL OR SWAP1 SSTORE POP PUSH2 0x125C PUSH2 0x12BB JUMP JUMPDEST PUSH20 0xFFFFFFFFFFFFFFFFFFFFFFFFFFFFFFFFFFFFFFFF AND DUP2 PUSH20 0xFFFFFFFFFFFFFFFFFFFFFFFFFFFFFFFFFFFFFFFF AND DUP4 PUSH32 0x2F8788117E7EFF1D82E926EC794901D17C78024A50270940304540A733656F0D PUSH1 0x40 MLOAD PUSH1 0x40 MLOAD DUP1 SWAP2 SUB SWAP1 LOG4 JUMPDEST POP POP JUMP JUMPDEST PUSH1 0x0 CALLER SWAP1 POP SWAP1 JUMP JUMPDEST PUSH2 0x12CD DUP3 DUP3 PUSH2 0xAAE JUMP JUMPDEST ISZERO PUSH2 0x13A1 JUMPI PUSH1 0x0 PUSH1 0x1 PUSH1 0x0 DUP5 DUP2 MSTORE PUSH1 0x20 ADD SWAP1 DUP2 MSTORE PUSH1 0x20 ADD PUSH1 0x0 KECCAK256 PUSH1 0x0 ADD PUSH1 0x0 DUP4 PUSH20 0xFFFFFFFFFFFFFFFFFFFFFFFFFFFFFFFFFFFFFFFF AND PUSH20 0xFFFFFFFFFFFFFFFFFFFFFFFFFFFFFFFFFFFFFFFF AND DUP2 MSTORE PUSH1 0x20 ADD SWAP1 DUP2 MSTORE PUSH1 0x20 ADD PUSH1 0x0 KECCAK256 PUSH1 0x0 PUSH2 0x100 EXP DUP2 SLOAD DUP2 PUSH1 0xFF MUL NOT AND SWAP1 DUP4 ISZERO ISZERO MUL OR SWAP1 SSTORE POP PUSH2 0x1346 PUSH2 0x12BB JUMP JUMPDEST PUSH20 0xFFFFFFFFFFFFFFFFFFFFFFFFFFFFFFFFFFFFFFFF AND DUP2 PUSH20 0xFFFFFFFFFFFFFFFFFFFFFFFFFFFFFFFFFFFFFFFF AND DUP4 PUSH32 0xF6391F5C32D9C69D2A47EA670B442974B53935D1EDC7FD64EB21E047A839171B PUSH1 0x40 MLOAD PUSH1 0x40 MLOAD DUP1 SWAP2 SUB SWAP1 LOG4 JUMPDEST POP POP JUMP JUMPDEST PUSH2 0x13AD PUSH2 0x12BB JUMP JUMPDEST PUSH20 0xFFFFFFFFFFFFFFFFFFFFFFFFFFFFFFFFFFFFFFFF AND PUSH2 0x13CB PUSH2 0xA85 JUMP JUMPDEST PUSH20 0xFFFFFFFFFFFFFFFFFFFFFFFFFFFFFFFFFFFFFFFF AND EQ PUSH2 0x1421 JUMPI PUSH1 0x40 MLOAD PUSH32 0x8C379A000000000000000000000000000000000000000000000000000000000 DUP2 MSTORE PUSH1 0x4 ADD PUSH2 0x1418 SWAP1 PUSH2 0x2235 JUMP JUMPDEST PUSH1 0x40 MLOAD DUP1 SWAP2 SUB SWAP1 REVERT JUMPDEST JUMP JUMPDEST PUSH1 0x0 DUP1 PUSH1 0x0 SWAP1 SLOAD SWAP1 PUSH2 0x100 EXP SWAP1 DIV PUSH20 0xFFFFFFFFFFFFFFFFFFFFFFFFFFFFFFFFFFFFFFFF AND SWAP1 POP DUP2 PUSH1 0x0 DUP1 PUSH2 0x100 EXP DUP2 SLOAD DUP2 PUSH20 0xFFFFFFFFFFFFFFFFFFFFFFFFFFFFFFFFFFFFFFFF MUL NOT AND SWAP1 DUP4 PUSH20 0xFFFFFFFFFFFFFFFFFFFFFFFFFFFFFFFFFFFFFFFF AND MUL OR SWAP1 SSTORE POP DUP2 PUSH20 0xFFFFFFFFFFFFFFFFFFFFFFFFFFFFFFFFFFFFFFFF AND DUP2 PUSH20 0xFFFFFFFFFFFFFFFFFFFFFFFFFFFFFFFFFFFFFFFF AND PUSH32 0x8BE0079C531659141344CD1FD0A4F28419497F9722A3DAAFE3B4186F6B6457E0 PUSH1 0x40 MLOAD PUSH1 0x40 MLOAD DUP1 SWAP2 SUB SWAP1 LOG3 POP POP JUMP JUMPDEST PUSH2 0x14F1 DUP3 DUP3 PUSH2 0x11DB JUMP JUMPDEST POP POP JUMP JUMPDEST PUSH2 0x14FF DUP3 DUP3 PUSH2 0xAAE JUMP JUMPDEST PUSH2 0x158E JUMPI PUSH2 0x1524 DUP2 PUSH20 0xFFFFFFFFFFFFFFFFFFFFFFFFFFFFFFFFFFFFFFFF AND PUSH1 0x14 PUSH2 0x1592 JUMP JUMPDEST PUSH2 0x1532 DUP4 PUSH1 0x0 SHR PUSH1 0x20 PUSH2 0x1592 JUMP JUMPDEST PUSH1 0x40 MLOAD PUSH1 0x20 ADD PUSH2 0x1543 SWAP3 SWAP2 SWAP1 PUSH2 0x207E JUMP JUMPDEST PUSH1 0x40 MLOAD PUSH1 0x20 DUP2 DUP4 SUB SUB DUP2 MSTORE SWAP1 PUSH1 0x40 MSTORE PUSH1 0x40 MLOAD PUSH32 0x8C379A000000000000000000000000000000000000000000000000000000000 DUP2 MSTORE PUSH1 0x4 ADD PUSH2 0x1585 SWAP2 SWAP1 PUSH2 0x214E JUMP JUMPDEST PUSH1 0x40 MLOAD DUP1 SWAP2 SUB SWAP1 REVERT JUMPDEST POP POP JUMP JUMPDEST PUSH1 0x60 PUSH1 0x0 PUSH1 0x2 DUP4 PUSH1 0x2 PUSH2 0x15A5 SWAP2 SWAP1 PUSH2 0x243B JUMP JUMPDEST PUSH2 0x15AF SWAP2 SWAP1 PUSH2 0x23E5 JUMP JUMPDEST PUSH8 0xFFFFFFFFFFFFFFFF DUP2 GT ISZERO PUSH2 0x15C8 JUMPI PUSH2 0x15C7 PUSH2 0x26B8 JUMP JUMPDEST JUMPDEST PUSH1 0x40 MLOAD SWAP1 DUP1 DUP3 MSTORE DUP1 PUSH1 0x1F ADD PUSH1 0x1F NOT AND PUSH1 0x20 ADD DUP3 ADD PUSH1 0x40 MSTORE DUP1 ISZERO PUSH2 0x15FA JUMPI DUP2 PUSH1 0x20 ADD PUSH1 0x1 DUP3 MUL DUP1 CALLDATASIZE DUP4 CALLDATACOPY DUP1 DUP3 ADD SWAP2 POP POP SWAP1 POP JUMPDEST POP SWAP1 POP PUSH32 0x3000000000000000000000000000000000000000000000000000000000000000 DUP2 PUSH1 0x0 DUP2 MLOAD DUP2 LT PUSH2 0x1632 JUMPI PUSH2 0x1631 PUSH2 0x2689 JUMP JUMPDEST JUMPDEST PUSH1 0x20 ADD ADD SWAP1 PUSH31 0xFFFFFFFFFFFFFFFFFFFFFFFFFFFFFFFFFFFFFFFFFFFFFFFFFFFFFFFFFFFFFF NOT AND SWAP1 DUP2 PUSH1 0x0 BYTE SWAP1 MSTORE8 POP PUSH32 0x7800000000000000000000000000000000000000000000000000000000000000 DUP2 PUSH1 0x1 DUP2 MLOAD DUP2 LT PUSH2 0x1696 JUMPI PUSH2 0x1695 PUSH2 0x2689 JUMP JUMPDEST JUMPDEST PUSH1 0x20 ADD ADD SWAP1 PUSH31 0xFFFFFFFFFFFFFFFFFFFFFFFFFFFFFFFFFFFFFFFFFFFFFFFFFFFFFFFFFFFFFF NOT AND SWAP1 DUP2 PUSH1 0x0 BYTE SWAP1 MSTORE8 POP PUSH1 0x0 PUSH1 0x1 DUP5 PUSH1 0x2 PUSH2 0x16D6 SWAP2 SWAP1 PUSH2 0x243B JUMP JUMPDEST PUSH2 0x16E0 SWAP2 SWAP1 PUSH2 0x23E5 JUMP JUMPDEST SWAP1 POP JUMPDEST PUSH1 0x1 DUP2 GT ISZERO PUSH2 0x1780 JUMPI PUSH32 0x3031323334353637383961626364656600000000000000000000000000000000 PUSH1 0xF DUP7 AND PUSH1 0x10 DUP2 LT PUSH2 0x1722 JUMPI PUSH2 0x1721 PUSH2 0x2689 JUMP JUMPDEST JUMPDEST BYTE PUSH1 0xF8 SHL DUP3 DUP3 DUP2 MLOAD DUP2 LT PUSH2 0x1739 JUMPI PUSH2 0x1738 PUSH2 0x2689 JUMP JUMPDEST JUMPDEST PUSH1 0x20 ADD ADD SWAP1 PUSH31 0xFFFFFFFFFFFFFFFFFFFFFFFFFFFFFFFFFFFFFFFFFFFFFFFFFFFFFFFFFFFFFF NOT AND SWAP1 DUP2 PUSH1 0x0 BYTE SWAP1 MSTORE8 POP PUSH1 0x4 DUP6 SWAP1 SHR SWAP5 POP DUP1 PUSH2 0x1779 SWAP1 PUSH2 0x2555 JUMP JUMPDEST SWAP1 POP PUSH2 0x16E3 JUMP JUMPDEST POP PUSH1 0x0 DUP5 EQ PUSH2 0x17C4 JUMPI PUSH1 0x40 MLOAD PUSH32 0x8C379A000000000000000000000000000000000000000000000000000000000 DUP2 MSTORE PUSH1 0x4 ADD PUSH2 0x17BB SWAP1 PUSH2 0x21B5 JUMP JUMPDEST PUSH1 0x40 MLOAD DUP1 SWAP2 SUB SWAP1 REVERT JUMPDEST DUP1 SWAP2 POP POP SWAP3 SWAP2 POP POP JUMP JUMPDEST PUSH1 0x40 MLOAD DUP1 PUSH1 0xA0 ADD PUSH1 0x40 MSTORE DUP1 PUSH1 0x60 DUP2 MSTORE PUSH1 0x20 ADD PUSH1 0x60 DUP2 MSTORE PUSH1 0x20 ADD PUSH1 0x0 DUP2 MSTORE PUSH1 0x20 ADD PUSH1 0x0 DUP2 MSTORE PUSH1 0x20 ADD PUSH1 0x0 ISZERO ISZERO DUP2 MSTORE POP SWAP1 JUMP JUMPDEST PUSH1 0x40 MLOAD DUP1 PUSH1 0x60 ADD PUSH1 0x40 MSTORE DUP1 PUSH1 0x60 DUP2 MSTORE PUSH1 0x20 ADD PUSH1 0x0 PUSH20 0xFFFFFFFFFFFFFFFFFFFFFFFFFFFFFFFFFFFFFFFF AND DUP2 MSTORE PUSH1 0x20 ADD PUSH1 0x60 DUP2 MSTORE POP SWAP1 JUMP JUMPDEST DUP3 DUP1 SLOAD PUSH2 0x1842 SWAP1 PUSH2 0x257F JUMP JUMPDEST SWAP1 PUSH1 0x0 MSTORE PUSH1 0x20 PUSH1 0x0 KECCAK256 SWAP1 PUSH1 0x1F ADD PUSH1 0x20 SWAP1 DIV DUP2 ADD SWAP3 DUP3 PUSH2 0x1864 JUMPI PUSH1 0x0 DUP6 SSTORE PUSH2 0x18AB JUMP JUMPDEST DUP3 PUSH1 0x1F LT PUSH2 0x187D JUMPI DUP1 MLOAD PUSH1 0xFF NOT AND DUP4 DUP1 ADD OR DUP6 SSTORE PUSH2 0x18AB JUMP JUMPDEST DUP3 DUP1 ADD PUSH1 0x1 ADD DUP6 SSTORE DUP3 ISZERO PUSH2 0x18AB JUMPI SWAP2 DUP3 ADD JUMPDEST DUP3 DUP2 GT ISZERO PUSH2 0x18AA JUMPI DUP3 MLOAD DUP3 SSTORE SWAP2 PUSH1 0x20 ADD SWAP2 SWAP1 PUSH1 0x1 ADD SWAP1 PUSH2 0x188F JUMP JUMPDEST JUMPDEST POP SWAP1 POP PUSH2 0x18B8 SWAP2 SWAP1 PUSH2 0x1949 JUMP JUMPDEST POP SWAP1 JUMP JUMPDEST DUP3 DUP1 SLOAD PUSH2 0x18C8 SWAP1 PUSH2 0x257F JUMP JUMPDEST SWAP1 PUSH1 0x0 MSTORE PUSH1 0x20 PUSH1 0x0 KECCAK256 SWAP1 PUSH1 0x1F ADD PUSH1 0x20 SWAP1 DIV DUP2 ADD SWAP3 DUP3 PUSH2 0x18EA JUMPI PUSH1 0x0 DUP6 SSTORE PUSH2 0x1938 JUMP JUMPDEST DUP3 PUSH1 0x1F LT PUSH2 0x18FB JUMPI DUP1 SLOAD DUP6 SSTORE PUSH2 0x1938 JUMP JUMPDEST DUP3 DUP1 ADD PUSH1 0x1 ADD DUP6 SSTORE DUP3 ISZERO PUSH2 0x1938 JUMPI PUSH1 0x0 MSTORE PUSH1 0x20 PUSH1 0x0 KECCAK256 SWAP2 PUSH1 0x1F ADD PUSH1 0x20 SWAP1 DIV DUP3 ADD JUMPDEST DUP3 DUP2 GT ISZERO PUSH2 0x1937 JUMPI DUP3 SLOAD DUP3 SSTORE SWAP2 PUSH1 0x1 ADD SWAP2 SWAP1 PUSH1 0x1 ADD SWAP1 PUSH2 0x191C JUMP JUMPDEST JUMPDEST POP SWAP1 POP PUSH2 0x1945 SWAP2 SWAP1 PUSH2 0x1949 JUMP JUMPDEST POP SWAP1 JUMP JUMPDEST JUMPDEST DUP1 DUP3 GT ISZERO PUSH2 0x1962 JUMPI PUSH1 0x0 DUP2 PUSH1 0x0 SWAP1 SSTORE POP PUSH1 0x1 ADD PUSH2 0x194A JUMP JUMPDEST POP SWAP1 JUMP JUMPDEST PUSH1 0x0 PUSH2 0x1979 PUSH2 0x1974 DUP5 PUSH2 0x22DE JUMP JUMPDEST PUSH2 0x22B9 JUMP JUMPDEST SWAP1 POP DUP1 DUP4 DUP3 MSTORE PUSH1 0x20 DUP3 ADD SWAP1 POP DUP3 DUP6 PUSH1 0x20 DUP7 MUL DUP3 ADD GT ISZERO PUSH2 0x199C JUMPI PUSH2 0x199B PUSH2 0x26EC JUMP JUMPDEST JUMPDEST PUSH1 0x0 JUMPDEST DUP6 DUP2 LT ISZERO PUSH2 0x19CC JUMPI DUP2 PUSH2 0x19B2 DUP9 DUP3 PUSH2 0x1A18 JUMP JUMPDEST DUP5 MSTORE PUSH1 0x20 DUP5 ADD SWAP4 POP PUSH1 0x20 DUP4 ADD SWAP3 POP POP PUSH1 0x1 DUP2 ADD SWAP1 POP PUSH2 0x199F JUMP JUMPDEST POP POP POP SWAP4 SWAP3 POP POP POP JUMP JUMPDEST PUSH1 0x0 PUSH2 0x19E9 PUSH2 0x19E4 DUP5 PUSH2 0x230A JUMP JUMPDEST PUSH2 0x22B9 JUMP JUMPDEST SWAP1 POP DUP3 DUP2 MSTORE PUSH1 0x20 DUP2 ADD DUP5 DUP5 DUP5 ADD GT ISZERO PUSH2 0x1A05 JUMPI PUSH2 0x1A04 PUSH2 0x26F1 JUMP JUMPDEST JUMPDEST PUSH2 0x1A10 DUP5 DUP3 DUP6 PUSH2 0x2513 JUMP JUMPDEST POP SWAP4 SWAP3 POP POP POP JUMP JUMPDEST PUSH1 0x0 DUP2 CALLDATALOAD SWAP1 POP PUSH2 0x1A27 DUP2 PUSH2 0x28A5 JUMP JUMPDEST SWAP3 SWAP2 POP POP JUMP JUMPDEST PUSH1 0x0 DUP3 PUSH1 0x1F DUP4 ADD SLT PUSH2 0x1A42 JUMPI PUSH2 0x1A41 PUSH2 0x26E7 JUMP JUMPDEST JUMPDEST DUP2 CALLDATALOAD PUSH2 0x1A52 DUP5 DUP3 PUSH1 0x20 DUP7 ADD PUSH2 0x1966 JUMP JUMPDEST SWAP2 POP POP SWAP3 SWAP2 POP POP JUMP JUMPDEST PUSH1 0x0 DUP2 CALLDATALOAD SWAP1 POP PUSH2 0x1A6A DUP2 PUSH2 0x28BC JUMP JUMPDEST SWAP3 SWAP2 POP POP JUMP JUMPDEST PUSH1 0x0 DUP2 CALLDATALOAD SWAP1 POP PUSH2 0x1A7F DUP2 PUSH2 0x28D3 JUMP JUMPDEST SWAP3 SWAP2 POP POP JUMP JUMPDEST PUSH1 0x0 DUP3 PUSH1 0x1F DUP4 ADD SLT PUSH2 0x1A9A JUMPI PUSH2 0x1A99 PUSH2 0x26E7 JUMP JUMPDEST JUMPDEST DUP2 CALLDATALOAD PUSH2 0x1AAA DUP5 DUP3 PUSH1 0x20 DUP7 ADD PUSH2 0x19D6 JUMP JUMPDEST SWAP2 POP POP SWAP3 SWAP2 POP POP JUMP JUMPDEST PUSH1 0x0 DUP2 CALLDATALOAD SWAP1 POP PUSH2 0x1AC2 DUP2 PUSH2 0x28EA JUMP JUMPDEST SWAP3 SWAP2 POP POP JUMP JUMPDEST PUSH1 0x0 PUSH1 0x20 DUP3 DUP5 SUB SLT ISZERO PUSH2 0x1ADE JUMPI PUSH2 0x1ADD PUSH2 0x26FB JUMP JUMPDEST JUMPDEST PUSH1 0x0 PUSH2 0x1AEC DUP5 DUP3 DUP6 ADD PUSH2 0x1A18 JUMP JUMPDEST SWAP2 POP POP SWAP3 SWAP2 POP POP JUMP JUMPDEST PUSH1 0x0 DUP1 PUSH1 0x0 PUSH1 0x60 DUP5 DUP7 SUB SLT ISZERO PUSH2 0x1B0E JUMPI PUSH2 0x1B0D PUSH2 0x26FB JUMP JUMPDEST JUMPDEST PUSH1 0x0 DUP5 ADD CALLDATALOAD PUSH8 0xFFFFFFFFFFFFFFFF DUP2 GT ISZERO PUSH2 0x1B2C JUMPI PUSH2 0x1B2B PUSH2 0x26F6 JUMP JUMPDEST JUMPDEST PUSH2 0x1B38 DUP7 DUP3 DUP8 ADD PUSH2 0x1A2D JUMP JUMPDEST SWAP4 POP POP PUSH1 0x20 PUSH2 0x1B49 DUP7 DUP3 DUP8 ADD PUSH2 0x1AB3 JUMP JUMPDEST SWAP3 POP POP PUSH1 0x40 PUSH2 0x1B5A DUP7 DUP3 DUP8 ADD PUSH2 0x1AB3 JUMP JUMPDEST SWAP2 POP POP SWAP3 POP SWAP3 POP SWAP3 JUMP JUMPDEST PUSH1 0x0 PUSH1 0x20 DUP3 DUP5 SUB SLT ISZERO PUSH2 0x1B7A JUMPI PUSH2 0x1B79 PUSH2 0x26FB JUMP JUMPDEST JUMPDEST PUSH1 0x0 PUSH2 0x1B88 DUP5 DUP3 DUP6 ADD PUSH2 0x1A5B JUMP JUMPDEST SWAP2 POP POP SWAP3 SWAP2 POP POP JUMP JUMPDEST PUSH1 0x0 DUP1 PUSH1 0x40 DUP4 DUP6 SUB SLT ISZERO PUSH2 0x1BA8 JUMPI PUSH2 0x1BA7 PUSH2 0x26FB JUMP JUMPDEST JUMPDEST PUSH1 0x0 PUSH2 0x1BB6 DUP6 DUP3 DUP7 ADD PUSH2 0x1A5B JUMP JUMPDEST SWAP3 POP POP PUSH1 0x20 PUSH2 0x1BC7 DUP6 DUP3 DUP7 ADD PUSH2 0x1A18 JUMP JUMPDEST SWAP2 POP POP SWAP3 POP SWAP3 SWAP1 POP JUMP JUMPDEST PUSH1 0x0 PUSH1 0x20 DUP3 DUP5 SUB SLT ISZERO PUSH2 0x1BE7 JUMPI PUSH2 0x1BE6 PUSH2 0x26FB JUMP JUMPDEST JUMPDEST PUSH1 0x0 PUSH2 0x1BF5 DUP5 DUP3 DUP6 ADD PUSH2 0x1A70 JUMP JUMPDEST SWAP2 POP POP SWAP3 SWAP2 POP POP JUMP JUMPDEST PUSH1 0x0 DUP1 PUSH1 0x0 PUSH1 0x60 DUP5 DUP7 SUB SLT ISZERO PUSH2 0x1C17 JUMPI PUSH2 0x1C16 PUSH2 0x26FB JUMP JUMPDEST JUMPDEST PUSH1 0x0 DUP5 ADD CALLDATALOAD PUSH8 0xFFFFFFFFFFFFFFFF DUP2 GT ISZERO PUSH2 0x1C35 JUMPI PUSH2 0x1C34 PUSH2 0x26F6 JUMP JUMPDEST JUMPDEST PUSH2 0x1C41 DUP7 DUP3 DUP8 ADD PUSH2 0x1A85 JUMP JUMPDEST SWAP4 POP POP PUSH1 0x20 PUSH2 0x1C52 DUP7 DUP3 DUP8 ADD PUSH2 0x1A18 JUMP JUMPDEST SWAP3 POP POP PUSH1 0x40 PUSH2 0x1C63 DUP7 DUP3 DUP8 ADD PUSH2 0x1AB3 JUMP JUMPDEST SWAP2 POP POP SWAP3 POP SWAP3 POP SWAP3 JUMP JUMPDEST PUSH1 0x0 PUSH1 0x20 DUP3 DUP5 SUB SLT ISZERO PUSH2 0x1C83 JUMPI PUSH2 0x1C82 PUSH2 0x26FB JUMP JUMPDEST JUMPDEST PUSH1 0x0 PUSH2 0x1C91 DUP5 DUP3 DUP6 ADD PUSH2 0x1AB3 JUMP JUMPDEST SWAP2 POP POP SWAP3 SWAP2 POP POP JUMP JUMPDEST PUSH1 0x0 PUSH2 0x1CA6 DUP4 DUP4 PUSH2 0x1CCA JUMP JUMPDEST PUSH1 0x20 DUP4 ADD SWAP1 POP SWAP3 SWAP2 POP POP JUMP JUMPDEST PUSH1 0x0 PUSH2 0x1CBE DUP4 DUP4 PUSH2 0x2060 JUMP JUMPDEST PUSH1 0x20 DUP4 ADD SWAP1 POP SWAP3 SWAP2 POP POP JUMP JUMPDEST PUSH2 0x1CD3 DUP2 PUSH2 0x2495 JUMP JUMPDEST DUP3 MSTORE POP POP JUMP JUMPDEST PUSH2 0x1CE2 DUP2 PUSH2 0x2495 JUMP JUMPDEST DUP3 MSTORE POP POP JUMP JUMPDEST PUSH1 0x0 PUSH2 0x1CF3 DUP3 PUSH2 0x235B JUMP JUMPDEST PUSH2 0x1CFD DUP2 DUP6 PUSH2 0x2396 JUMP JUMPDEST SWAP4 POP PUSH2 0x1D08 DUP4 PUSH2 0x233B JUMP JUMPDEST DUP1 PUSH1 0x0 JUMPDEST DUP4 DUP2 LT ISZERO PUSH2 0x1D39 JUMPI DUP2 MLOAD PUSH2 0x1D20 DUP9 DUP3 PUSH2 0x1C9A JUMP JUMPDEST SWAP8 POP PUSH2 0x1D2B DUP4 PUSH2 0x237C JUMP JUMPDEST SWAP3 POP POP PUSH1 0x1 DUP2 ADD SWAP1 POP PUSH2 0x1D0C JUMP JUMPDEST POP DUP6 SWAP4 POP POP POP POP SWAP3 SWAP2 POP POP JUMP JUMPDEST PUSH1 0x0 PUSH2 0x1D51 DUP3 PUSH2 0x2366 JUMP JUMPDEST PUSH2 0x1D5B DUP2 DUP6 PUSH2 0x23A7 JUMP JUMPDEST SWAP4 POP PUSH2 0x1D66 DUP4 PUSH2 0x234B JUMP JUMPDEST DUP1 PUSH1 0x0 JUMPDEST DUP4 DUP2 LT ISZERO PUSH2 0x1D97 JUMPI DUP2 MLOAD PUSH2 0x1D7E DUP9 DUP3 PUSH2 0x1CB2 JUMP JUMPDEST SWAP8 POP PUSH2 0x1D89 DUP4 PUSH2 0x2389 JUMP JUMPDEST SWAP3 POP POP PUSH1 0x1 DUP2 ADD SWAP1 POP PUSH2 0x1D6A JUMP JUMPDEST POP DUP6 SWAP4 POP POP POP POP SWAP3 SWAP2 POP POP JUMP JUMPDEST PUSH2 0x1DAD DUP2 PUSH2 0x24A7 JUMP JUMPDEST DUP3 MSTORE POP POP JUMP JUMPDEST PUSH2 0x1DBC DUP2 PUSH2 0x24A7 JUMP JUMPDEST DUP3 MSTORE POP POP JUMP JUMPDEST PUSH2 0x1DCB DUP2 PUSH2 0x24B3 JUMP JUMPDEST DUP3 MSTORE POP POP JUMP JUMPDEST PUSH1 0x0 PUSH2 0x1DDC DUP3 PUSH2 0x2371 JUMP JUMPDEST PUSH2 0x1DE6 DUP2 DUP6 PUSH2 0x23B8 JUMP JUMPDEST SWAP4 POP PUSH2 0x1DF6 DUP2 DUP6 PUSH1 0x20 DUP7 ADD PUSH2 0x2522 JUMP JUMPDEST PUSH2 0x1DFF DUP2 PUSH2 0x2700 JUMP JUMPDEST DUP5 ADD SWAP2 POP POP SWAP3 SWAP2 POP POP JUMP JUMPDEST PUSH1 0x0 PUSH2 0x1E15 DUP3 PUSH2 0x2371 JUMP JUMPDEST PUSH2 0x1E1F DUP2 DUP6 PUSH2 0x23C9 JUMP JUMPDEST SWAP4 POP PUSH2 0x1E2F DUP2 DUP6 PUSH1 0x20 DUP7 ADD PUSH2 0x2522 JUMP JUMPDEST PUSH2 0x1E38 DUP2 PUSH2 0x2700 JUMP JUMPDEST DUP5 ADD SWAP2 POP POP SWAP3 SWAP2 POP POP JUMP JUMPDEST PUSH1 0x0 PUSH2 0x1E4E DUP3 PUSH2 0x2371 JUMP JUMPDEST PUSH2 0x1E58 DUP2 DUP6 PUSH2 0x23DA JUMP JUMPDEST SWAP4 POP PUSH2 0x1E68 DUP2 DUP6 PUSH1 0x20 DUP7 ADD PUSH2 0x2522 JUMP JUMPDEST DUP1 DUP5 ADD SWAP2 POP POP SWAP3 SWAP2 POP POP JUMP JUMPDEST PUSH1 0x0 PUSH2 0x1E81 PUSH1 0x20 DUP4 PUSH2 0x23C9 JUMP JUMPDEST SWAP2 POP PUSH2 0x1E8C DUP3 PUSH2 0x2711 JUMP JUMPDEST PUSH1 0x20 DUP3 ADD SWAP1 POP SWAP2 SWAP1 POP JUMP JUMPDEST PUSH1 0x0 PUSH2 0x1EA4 PUSH1 0x26 DUP4 PUSH2 0x23C9 JUMP JUMPDEST SWAP2 POP PUSH2 0x1EAF DUP3 PUSH2 0x273A JUMP JUMPDEST PUSH1 0x40 DUP3 ADD SWAP1 POP SWAP2 SWAP1 POP JUMP JUMPDEST PUSH1 0x0 PUSH2 0x1EC7 PUSH1 0x1F DUP4 PUSH2 0x23C9 JUMP JUMPDEST SWAP2 POP PUSH2 0x1ED2 DUP3 PUSH2 0x2789 JUMP JUMPDEST PUSH1 0x20 DUP3 ADD SWAP1 POP SWAP2 SWAP1 POP JUMP JUMPDEST PUSH1 0x0 PUSH2 0x1EEA PUSH1 0x1A DUP4 PUSH2 0x23C9 JUMP JUMPDEST SWAP2 POP PUSH2 0x1EF5 DUP3 PUSH2 0x27B2 JUMP JUMPDEST PUSH1 0x20 DUP3 ADD SWAP1 POP SWAP2 SWAP1 POP JUMP JUMPDEST PUSH1 0x0 PUSH2 0x1F0D PUSH1 0x20 DUP4 PUSH2 0x23C9 JUMP JUMPDEST SWAP2 POP PUSH2 0x1F18 DUP3 PUSH2 0x27DB JUMP JUMPDEST PUSH1 0x20 DUP3 ADD SWAP1 POP SWAP2 SWAP1 POP JUMP JUMPDEST PUSH1 0x0 PUSH2 0x1F30 PUSH1 0x17 DUP4 PUSH2 0x23DA JUMP JUMPDEST SWAP2 POP PUSH2 0x1F3B DUP3 PUSH2 0x2804 JUMP JUMPDEST PUSH1 0x17 DUP3 ADD SWAP1 POP SWAP2 SWAP1 POP JUMP JUMPDEST PUSH1 0x0 PUSH2 0x1F53 PUSH1 0x11 DUP4 PUSH2 0x23DA JUMP JUMPDEST SWAP2 POP PUSH2 0x1F5E DUP3 PUSH2 0x282D JUMP JUMPDEST PUSH1 0x11 DUP3 ADD SWAP1 POP SWAP2 SWAP1 POP JUMP JUMPDEST PUSH1 0x0 PUSH2 0x1F76 PUSH1 0x2F DUP4 PUSH2 0x23C9 JUMP JUMPDEST SWAP2 POP PUSH2 0x1F81 DUP3 PUSH2 0x2856 JUMP JUMPDEST PUSH1 0x40 DUP3 ADD SWAP1 POP SWAP2 SWAP1 POP JUMP JUMPDEST PUSH1 0x0 PUSH1 0x60 DUP4 ADD PUSH1 0x0 DUP4 ADD MLOAD DUP5 DUP3 SUB PUSH1 0x0 DUP7 ADD MSTORE PUSH2 0x1FA9 DUP3 DUP3 PUSH2 0x1DD1 JUMP JUMPDEST SWAP2 POP POP PUSH1 0x20 DUP4 ADD MLOAD PUSH2 0x1FBE PUSH1 0x20 DUP7 ADD DUP3 PUSH2 0x1CCA JUMP JUMPDEST POP PUSH1 0x40 DUP4 ADD MLOAD DUP5 DUP3 SUB PUSH1 0x40 DUP7 ADD MSTORE PUSH2 0x1FD6 DUP3 DUP3 PUSH2 0x1DD1 JUMP JUMPDEST SWAP2 POP POP DUP1 SWAP2 POP POP SWAP3 SWAP2 POP POP JUMP JUMPDEST PUSH1 0x0 PUSH1 0xA0 DUP4 ADD PUSH1 0x0 DUP4 ADD MLOAD DUP5 DUP3 SUB PUSH1 0x0 DUP7 ADD MSTORE PUSH2 0x2000 DUP3 DUP3 PUSH2 0x1CE8 JUMP JUMPDEST SWAP2 POP POP PUSH1 0x20 DUP4 ADD MLOAD DUP5 DUP3 SUB PUSH1 0x20 DUP7 ADD MSTORE PUSH2 0x201A DUP3 DUP3 PUSH2 0x1D46 JUMP JUMPDEST SWAP2 POP POP PUSH1 0x40 DUP4 ADD MLOAD PUSH2 0x202F PUSH1 0x40 DUP7 ADD DUP3 PUSH2 0x2060 JUMP JUMPDEST POP PUSH1 0x60 DUP4 ADD MLOAD PUSH2 0x2042 PUSH1 0x60 DUP7 ADD DUP3 PUSH2 0x2060 JUMP JUMPDEST POP PUSH1 0x80 DUP4 ADD MLOAD PUSH2 0x2055 PUSH1 0x80 DUP7 ADD DUP3 PUSH2 0x1DA4 JUMP JUMPDEST POP DUP1 SWAP2 POP POP SWAP3 SWAP2 POP POP JUMP JUMPDEST PUSH2 0x2069 DUP2 PUSH2 0x2509 JUMP JUMPDEST DUP3 MSTORE POP POP JUMP JUMPDEST PUSH2 0x2078 DUP2 PUSH2 0x2509 JUMP JUMPDEST DUP3 MSTORE POP POP JUMP JUMPDEST PUSH1 0x0 PUSH2 0x2089 DUP3 PUSH2 0x1F23 JUMP JUMPDEST SWAP2 POP PUSH2 0x2095 DUP3 DUP6 PUSH2 0x1E43 JUMP JUMPDEST SWAP2 POP PUSH2 0x20A0 DUP3 PUSH2 0x1F46 JUMP JUMPDEST SWAP2 POP PUSH2 0x20AC DUP3 DUP5 PUSH2 0x1E43 JUMP JUMPDEST SWAP2 POP DUP2 SWAP1 POP SWAP4 SWAP3 POP POP POP JUMP JUMPDEST PUSH1 0x0 PUSH1 0x20 DUP3 ADD SWAP1 POP PUSH2 0x20CD PUSH1 0x0 DUP4 ADD DUP5 PUSH2 0x1CD9 JUMP JUMPDEST SWAP3 SWAP2 POP POP JUMP JUMPDEST PUSH1 0x0 PUSH1 0x80 DUP3 ADD SWAP1 POP PUSH2 0x20E8 PUSH1 0x0 DUP4 ADD DUP8 PUSH2 0x1CD9 JUMP JUMPDEST PUSH2 0x20F5 PUSH1 0x20 DUP4 ADD DUP7 PUSH2 0x206F JUMP JUMPDEST PUSH2 0x2102 PUSH1 0x40 DUP4 ADD DUP6 PUSH2 0x206F JUMP JUMPDEST PUSH2 0x210F PUSH1 0x60 DUP4 ADD DUP5 PUSH2 0x1DB3 JUMP JUMPDEST SWAP6 SWAP5 POP POP POP POP POP JUMP JUMPDEST PUSH1 0x0 PUSH1 0x20 DUP3 ADD SWAP1 POP PUSH2 0x212D PUSH1 0x0 DUP4 ADD DUP5 PUSH2 0x1DB3 JUMP JUMPDEST SWAP3 SWAP2 POP POP JUMP JUMPDEST PUSH1 0x0 PUSH1 0x20 DUP3 ADD SWAP1 POP PUSH2 0x2148 PUSH1 0x0 DUP4 ADD DUP5 PUSH2 0x1DC2 JUMP JUMPDEST SWAP3 SWAP2 POP POP JUMP JUMPDEST PUSH1 0x0 PUSH1 0x20 DUP3 ADD SWAP1 POP DUP2 DUP2 SUB PUSH1 0x0 DUP4 ADD MSTORE PUSH2 0x2168 DUP2 DUP5 PUSH2 0x1E0A JUMP JUMPDEST SWAP1 POP SWAP3 SWAP2 POP POP JUMP JUMPDEST PUSH1 0x0 PUSH1 0x60 DUP3 ADD SWAP1 POP DUP2 DUP2 SUB PUSH1 0x0 DUP4 ADD MSTORE PUSH2 0x218A DUP2 DUP7 PUSH2 0x1E0A JUMP JUMPDEST SWAP1 POP PUSH2 0x2199 PUSH1 0x20 DUP4 ADD DUP6 PUSH2 0x1CD9 JUMP JUMPDEST DUP2 DUP2 SUB PUSH1 0x40 DUP4 ADD MSTORE PUSH2 0x21AB DUP2 DUP5 PUSH2 0x1E0A JUMP JUMPDEST SWAP1 POP SWAP5 SWAP4 POP POP POP POP JUMP JUMPDEST PUSH1 0x0 PUSH1 0x20 DUP3 ADD SWAP1 POP DUP2 DUP2 SUB PUSH1 0x0 DUP4 ADD MSTORE PUSH2 0x21CE DUP2 PUSH2 0x1E74 JUMP JUMPDEST SWAP1 POP SWAP2 SWAP1 POP JUMP JUMPDEST PUSH1 0x0 PUSH1 0x20 DUP3 ADD SWAP1 POP DUP2 DUP2 SUB PUSH1 0x0 DUP4 ADD MSTORE PUSH2 0x21EE DUP2 PUSH2 0x1E97 JUMP JUMPDEST SWAP1 POP SWAP2 SWAP1 POP JUMP JUMPDEST PUSH1 0x0 PUSH1 0x20 DUP3 ADD SWAP1 POP DUP2 DUP2 SUB PUSH1 0x0 DUP4 ADD MSTORE PUSH2 0x220E DUP2 PUSH2 0x1EBA JUMP JUMPDEST SWAP1 POP SWAP2 SWAP1 POP JUMP JUMPDEST PUSH1 0x0 PUSH1 0x20 DUP3 ADD SWAP1 POP DUP2 DUP2 SUB PUSH1 0x0 DUP4 ADD MSTORE PUSH2 0x222E DUP2 PUSH2 0x1EDD JUMP JUMPDEST SWAP1 POP SWAP2 SWAP1 POP JUMP JUMPDEST PUSH1 0x0 PUSH1 0x20 DUP3 ADD SWAP1 POP DUP2 DUP2 SUB PUSH1 0x0 DUP4 ADD MSTORE PUSH2 0x224E DUP2 PUSH2 0x1F00 JUMP JUMPDEST SWAP1 POP SWAP2 SWAP1 POP JUMP JUMPDEST PUSH1 0x0 PUSH1 0x20 DUP3 ADD SWAP1 POP DUP2 DUP2 SUB PUSH1 0x0 DUP4 ADD MSTORE PUSH2 0x226E DUP2 PUSH2 0x1F69 JUMP JUMPDEST SWAP1 POP SWAP2 SWAP1 POP JUMP JUMPDEST PUSH1 0x0 PUSH1 0x20 DUP3 ADD SWAP1 POP DUP2 DUP2 SUB PUSH1 0x0 DUP4 ADD MSTORE PUSH2 0x228F DUP2 DUP5 PUSH2 0x1F8C JUMP JUMPDEST SWAP1 POP SWAP3 SWAP2 POP POP JUMP JUMPDEST PUSH1 0x0 PUSH1 0x20 DUP3 ADD SWAP1 POP DUP2 DUP2 SUB PUSH1 0x0 DUP4 ADD MSTORE PUSH2 0x22B1 DUP2 DUP5 PUSH2 0x1FE3 JUMP JUMPDEST SWAP1 POP SWAP3 SWAP2 POP POP JUMP JUMPDEST PUSH1 0x0 PUSH2 0x22C3 PUSH2 0x22D4 JUMP JUMPDEST SWAP1 POP PUSH2 0x22CF DUP3 DUP3 PUSH2 0x25B1 JUMP JUMPDEST SWAP2 SWAP1 POP JUMP JUMPDEST PUSH1 0x0 PUSH1 0x40 MLOAD SWAP1 POP SWAP1 JUMP JUMPDEST PUSH1 0x0 PUSH8 0xFFFFFFFFFFFFFFFF DUP3 GT ISZERO PUSH2 0x22F9 JUMPI PUSH2 0x22F8 PUSH2 0x26B8 JUMP JUMPDEST JUMPDEST PUSH1 0x20 DUP3 MUL SWAP1 POP PUSH1 0x20 DUP2 ADD SWAP1 POP SWAP2 SWAP1 POP JUMP JUMPDEST PUSH1 0x0 PUSH8 0xFFFFFFFFFFFFFFFF DUP3 GT ISZERO PUSH2 0x2325 JUMPI PUSH2 0x2324 PUSH2 0x26B8 JUMP JUMPDEST JUMPDEST PUSH2 0x232E DUP3 PUSH2 0x2700 JUMP JUMPDEST SWAP1 POP PUSH1 0x20 DUP2 ADD SWAP1 POP SWAP2 SWAP1 POP JUMP JUMPDEST PUSH1 0x0 DUP2 SWAP1 POP PUSH1 0x20 DUP3 ADD SWAP1 POP SWAP2 SWAP1 POP JUMP JUMPDEST PUSH1 0x0 DUP2 SWAP1 POP PUSH1 0x20 DUP3 ADD SWAP1 POP SWAP2 SWAP1 POP JUMP JUMPDEST PUSH1 0x0 DUP2 MLOAD SWAP1 POP SWAP2 SWAP1 POP JUMP JUMPDEST PUSH1 0x0 DUP2 MLOAD SWAP1 POP SWAP2 SWAP1 POP JUMP JUMPDEST PUSH1 0x0 DUP2 MLOAD SWAP1 POP SWAP2 SWAP1 POP JUMP JUMPDEST PUSH1 0x0 PUSH1 0x20 DUP3 ADD SWAP1 POP SWAP2 SWAP1 POP JUMP JUMPDEST PUSH1 0x0 PUSH1 0x20 DUP3 ADD SWAP1 POP SWAP2 SWAP1 POP JUMP JUMPDEST PUSH1 0x0 DUP3 DUP3 MSTORE PUSH1 0x20 DUP3 ADD SWAP1 POP SWAP3 SWAP2 POP POP JUMP JUMPDEST PUSH1 0x0 DUP3 DUP3 MSTORE PUSH1 0x20 DUP3 ADD SWAP1 POP SWAP3 SWAP2 POP POP JUMP JUMPDEST PUSH1 0x0 DUP3 DUP3 MSTORE PUSH1 0x20 DUP3 ADD SWAP1 POP SWAP3 SWAP2 POP POP JUMP JUMPDEST PUSH1 0x0 DUP3 DUP3 MSTORE PUSH1 0x20 DUP3 ADD SWAP1 POP SWAP3 SWAP2 POP POP JUMP JUMPDEST PUSH1 0x0 DUP2 SWAP1 POP SWAP3 SWAP2 POP POP JUMP JUMPDEST PUSH1 0x0 PUSH2 0x23F0 DUP3 PUSH2 0x2509 JUMP JUMPDEST SWAP2 POP PUSH2 0x23FB DUP4 PUSH2 0x2509 JUMP JUMPDEST SWAP3 POP DUP3 PUSH32 0xFFFFFFFFFFFFFFFFFFFFFFFFFFFFFFFFFFFFFFFFFFFFFFFFFFFFFFFFFFFFFFFF SUB DUP3 GT ISZERO PUSH2 0x2430 JUMPI PUSH2 0x242F PUSH2 0x262B JUMP JUMPDEST JUMPDEST DUP3 DUP3 ADD SWAP1 POP SWAP3 SWAP2 POP POP JUMP JUMPDEST PUSH1 0x0 PUSH2 0x2446 DUP3 PUSH2 0x2509 JUMP JUMPDEST SWAP2 POP PUSH2 0x2451 DUP4 PUSH2 0x2509 JUMP JUMPDEST SWAP3 POP DUP2 PUSH32 0xFFFFFFFFFFFFFFFFFFFFFFFFFFFFFFFFFFFFFFFFFFFFFFFFFFFFFFFFFFFFFFFF DIV DUP4 GT DUP3 ISZERO ISZERO AND ISZERO PUSH2 0x248A JUMPI PUSH2 0x2489 PUSH2 0x262B JUMP JUMPDEST JUMPDEST DUP3 DUP3 MUL SWAP1 POP SWAP3 SWAP2 POP POP JUMP JUMPDEST PUSH1 0x0 PUSH2 0x24A0 DUP3 PUSH2 0x24E9 JUMP JUMPDEST SWAP1 POP SWAP2 SWAP1 POP JUMP JUMPDEST PUSH1 0x0 DUP2 ISZERO ISZERO SWAP1 POP SWAP2 SWAP1 POP JUMP JUMPDEST PUSH1 0x0 DUP2 SWAP1 POP SWAP2 SWAP1 POP JUMP JUMPDEST PUSH1 0x0 PUSH32 0xFFFFFFFF00000000000000000000000000000000000000000000000000000000 DUP3 AND SWAP1 POP SWAP2 SWAP1 POP JUMP JUMPDEST PUSH1 0x0 PUSH20 0xFFFFFFFFFFFFFFFFFFFFFFFFFFFFFFFFFFFFFFFF DUP3 AND SWAP1 POP SWAP2 SWAP1 POP JUMP JUMPDEST PUSH1 0x0 DUP2 SWAP1 POP SWAP2 SWAP1 POP JUMP JUMPDEST DUP3 DUP2 DUP4 CALLDATACOPY PUSH1 0x0 DUP4 DUP4 ADD MSTORE POP POP POP JUMP JUMPDEST PUSH1 0x0 JUMPDEST DUP4 DUP2 LT ISZERO PUSH2 0x2540 JUMPI DUP1 DUP3 ADD MLOAD DUP2 DUP5 ADD MSTORE PUSH1 0x20 DUP2 ADD SWAP1 POP PUSH2 0x2525 JUMP JUMPDEST DUP4 DUP2 GT ISZERO PUSH2 0x254F JUMPI PUSH1 0x0 DUP5 DUP5 ADD MSTORE JUMPDEST POP POP POP POP JUMP JUMPDEST PUSH1 0x0 PUSH2 0x2560 DUP3 PUSH2 0x2509 JUMP JUMPDEST SWAP2 POP PUSH1 0x0 DUP3 EQ ISZERO PUSH2 0x2574 JUMPI PUSH2 0x2573 PUSH2 0x262B JUMP JUMPDEST JUMPDEST PUSH1 0x1 DUP3 SUB SWAP1 POP SWAP2 SWAP1 POP JUMP JUMPDEST PUSH1 0x0 PUSH1 0x2 DUP3 DIV SWAP1 POP PUSH1 0x1 DUP3 AND DUP1 PUSH2 0x2597 JUMPI PUSH1 0x7F DUP3 AND SWAP2 POP JUMPDEST PUSH1 0x20 DUP3 LT DUP2 EQ ISZERO PUSH2 0x25AB JUMPI PUSH2 0x25AA PUSH2 0x265A JUMP JUMPDEST JUMPDEST POP SWAP2 SWAP1 POP JUMP JUMPDEST PUSH2 0x25BA DUP3 PUSH2 0x2700 JUMP JUMPDEST DUP2 ADD DUP2 DUP2 LT PUSH8 0xFFFFFFFFFFFFFFFF DUP3 GT OR ISZERO PUSH2 0x25D9 JUMPI PUSH2 0x25D8 PUSH2 0x26B8 JUMP JUMPDEST JUMPDEST DUP1 PUSH1 0x40 MSTORE POP POP POP JUMP JUMPDEST PUSH1 0x0 PUSH2 0x25ED DUP3 PUSH2 0x2509 JUMP JUMPDEST SWAP2 POP PUSH32 0xFFFFFFFFFFFFFFFFFFFFFFFFFFFFFFFFFFFFFFFFFFFFFFFFFFFFFFFFFFFFFFFF DUP3 EQ ISZERO PUSH2 0x2620 JUMPI PUSH2 0x261F PUSH2 0x262B JUMP JUMPDEST JUMPDEST PUSH1 0x1 DUP3 ADD SWAP1 POP SWAP2 SWAP1 POP JUMP JUMPDEST PUSH32 0x4E487B7100000000000000000000000000000000000000000000000000000000 PUSH1 0x0 MSTORE PUSH1 0x11 PUSH1 0x4 MSTORE PUSH1 0x24 PUSH1 0x0 REVERT JUMPDEST PUSH32 0x4E487B7100000000000000000000000000000000000000000000000000000000 PUSH1 0x0 MSTORE PUSH1 0x22 PUSH1 0x4 MSTORE PUSH1 0x24 PUSH1 0x0 REVERT JUMPDEST PUSH32 0x4E487B7100000000000000000000000000000000000000000000000000000000 PUSH1 0x0 MSTORE PUSH1 0x32 PUSH1 0x4 MSTORE PUSH1 0x24 PUSH1 0x0 REVERT JUMPDEST PUSH32 0x4E487B7100000000000000000000000000000000000000000000000000000000 PUSH1 0x0 MSTORE PUSH1 0x41 PUSH1 0x4 MSTORE PUSH1 0x24 PUSH1 0x0 REVERT JUMPDEST PUSH1 0x0 DUP1 REVERT JUMPDEST PUSH1 0x0 DUP1 REVERT JUMPDEST PUSH1 0x0 DUP1 REVERT JUMPDEST PUSH1 0x0 DUP1 REVERT JUMPDEST PUSH1 0x0 DUP1 REVERT JUMPDEST PUSH1 0x0 PUSH1 0x1F NOT PUSH1 0x1F DUP4 ADD AND SWAP1 POP SWAP2 SWAP1 POP JUMP JUMPDEST PUSH32 0x537472696E67733A20686578206C656E67746820696E73756666696369656E74 PUSH1 0x0 DUP3 ADD MSTORE POP JUMP JUMPDEST PUSH32 0x4F776E61626C653A206E6577206F776E657220697320746865207A65726F2061 PUSH1 0x0 DUP3 ADD MSTORE PUSH32 0x6464726573730000000000000000000000000000000000000000000000000000 PUSH1 0x20 DUP3 ADD MSTORE POP JUMP JUMPDEST PUSH32 0x43616C6C6572206973206E6F7420616E20494E45432065786563757469766500 PUSH1 0x0 DUP3 ADD MSTORE POP JUMP JUMPDEST PUSH32 0x566F746520466565206973206E6F742073756666696369656E74000000000000 PUSH1 0x0 DUP3 ADD MSTORE POP JUMP JUMPDEST PUSH32 0x4F776E61626C653A2063616C6C6572206973206E6F7420746865206F776E6572 PUSH1 0x0 DUP3 ADD MSTORE POP JUMP JUMPDEST PUSH32 0x416363657373436F6E74726F6C3A206163636F756E7420000000000000000000 PUSH1 0x0 DUP3 ADD MSTORE POP JUMP JUMPDEST PUSH32 0x206973206D697373696E6720726F6C6520000000000000000000000000000000 PUSH1 0x0 DUP3 ADD MSTORE POP JUMP JUMPDEST PUSH32 0x416363657373436F6E74726F6C3A2063616E206F6E6C792072656E6F756E6365 PUSH1 0x0 DUP3 ADD MSTORE PUSH32 0x20726F6C657320666F722073656C660000000000000000000000000000000000 PUSH1 0x20 DUP3 ADD MSTORE POP JUMP JUMPDEST PUSH2 0x28AE DUP2 PUSH2 0x2495 JUMP JUMPDEST DUP2 EQ PUSH2 0x28B9 JUMPI PUSH1 0x0 DUP1 REVERT JUMPDEST POP JUMP JUMPDEST PUSH2 0x28C5 DUP2 PUSH2 0x24B3 JUMP JUMPDEST DUP2 EQ PUSH2 0x28D0 JUMPI PUSH1 0x0 DUP1 REVERT JUMPDEST POP JUMP JUMPDEST PUSH2 0x28DC DUP2 PUSH2 0x24BD JUMP JUMPDEST DUP2 EQ PUSH2 0x28E7 JUMPI PUSH1 0x0 DUP1 REVERT JUMPDEST POP JUMP JUMPDEST PUSH2 0x28F3 DUP2 PUSH2 0x2509 JUMP JUMPDEST DUP2 EQ PUSH2 0x28FE JUMPI PUSH1 0x0 DUP1 REVERT JUMPDEST POP JUMP INVALID LOG2 PUSH5 0x6970667358 0x22 SLT KECCAK256 PUSH25 0xFCE723BA31D95C70DBB3D2F5B9B424683502B5CB0C0595AF65 PUSH15 0x94F614B72464736F6C634300080700 CALLER "
				},
				"gasEstimates": {
					"creation": {
						"codeDepositCost": "2110200",
						"executionCost": "infinite",
						"totalCost": "infinite"
					},
					"external": {
						"Candidates(uint256)": "infinite",
						"DEFAULT_ADMIN_ROLE()": "446",
						"INEC_EXEC_ROLE()": "441",
						"VOTER_ROLE()": "351",
						"Voters(uint256)": "infinite",
						"Voting(uint256)": "2840",
						"createCandidate(string,address,uint256)": "infinite",
						"createElection(address[],uint256,uint256)": "infinite",
						"createInecExec(address)": "infinite",
						"getElection(uint256)": "infinite",
						"getRoleAdmin(bytes32)": "infinite",
						"grantRole(bytes32,address)": "infinite",
						"hasRole(bytes32,address)": "3163",
						"owner()": "2655",
						"party(uint256)": "infinite",
						"regVoter(uint256)": "80082",
						"renounceOwnership()": "30509",
						"renounceRole(bytes32,address)": "infinite",
						"retrieveCandidate(uint256)": "infinite",
						"revokeRole(bytes32,address)": "infinite",
						"supportsInterface(bytes4)": "751",
						"transferOwnership(address)": "30879"
					}
				},
				"methodIdentifiers": {
					"Candidates(uint256)": "290e9212",
					"DEFAULT_ADMIN_ROLE()": "a217fddf",
					"INEC_EXEC_ROLE()": "2e0d37bb",
					"VOTER_ROLE()": "a94015c8",
					"Voters(uint256)": "9c35d98b",
					"Voting(uint256)": "14ad08ba",
					"createCandidate(string,address,uint256)": "d59d2a58",
					"createElection(address[],uint256,uint256)": "4f05dba8",
					"createInecExec(address)": "dfd8459e",
					"getElection(uint256)": "9d710777",
					"getRoleAdmin(bytes32)": "248a9ca3",
					"grantRole(bytes32,address)": "2f2ff15d",
					"hasRole(bytes32,address)": "91d14854",
					"owner()": "8da5cb5b",
					"party(uint256)": "314fd68f",
					"regVoter(uint256)": "d9d55ba0",
					"renounceOwnership()": "715018a6",
					"renounceRole(bytes32,address)": "36568abe",
					"retrieveCandidate(uint256)": "9e5f0349",
					"revokeRole(bytes32,address)": "d547741f",
					"supportsInterface(bytes4)": "01ffc9a7",
					"transferOwnership(address)": "f2fde38b"
				}
			},
			"storageLayout": {
				"storage": [
					{
						"astId": 400,
						"contract": "contracts/Vote.sol:Vote",
						"label": "_owner",
						"offset": 0,
						"slot": "0",
						"type": "t_address"
					},
					{
						"astId": 24,
						"contract": "contracts/Vote.sol:Vote",
						"label": "_roles",
						"offset": 0,
						"slot": "1",
						"type": "t_mapping(t_bytes32,t_struct(RoleData)19_storage)"
					},
					{
						"astId": 800,
						"contract": "contracts/Vote.sol:Vote",
						"label": "voteFee",
						"offset": 0,
						"slot": "2",
						"type": "t_uint256"
					},
					{
						"astId": 802,
						"contract": "contracts/Vote.sol:Vote",
						"label": "candidateNum",
						"offset": 0,
						"slot": "3",
						"type": "t_uint256"
					},
					{
						"astId": 804,
						"contract": "contracts/Vote.sol:Vote",
						"label": "voterNum",
						"offset": 0,
						"slot": "4",
						"type": "t_uint256"
					},
					{
						"astId": 806,
						"contract": "contracts/Vote.sol:Vote",
						"label": "electionNum",
						"offset": 0,
						"slot": "5",
						"type": "t_uint256"
					},
					{
						"astId": 814,
						"contract": "contracts/Vote.sol:Vote",
						"label": "party",
						"offset": 0,
						"slot": "6",
						"type": "t_array(t_string_storage)dyn_storage"
					},
					{
						"astId": 858,
						"contract": "contracts/Vote.sol:Vote",
						"label": "Candidates",
						"offset": 0,
						"slot": "7",
						"type": "t_mapping(t_uint256,t_struct(candidate)831_storage)"
					},
					{
						"astId": 863,
						"contract": "contracts/Vote.sol:Vote",
						"label": "Voters",
						"offset": 0,
						"slot": "8",
						"type": "t_mapping(t_uint256,t_struct(voter)840_storage)"
					},
					{
						"astId": 868,
						"contract": "contracts/Vote.sol:Vote",
						"label": "Elections",
						"offset": 0,
						"slot": "9",
						"type": "t_mapping(t_uint256,t_struct(election)853_storage)"
					}
				],
				"types": {
					"t_address": {
						"encoding": "inplace",
						"label": "address",
						"numberOfBytes": "20"
					},
					"t_array(t_address)dyn_storage": {
						"base": "t_address",
						"encoding": "dynamic_array",
						"label": "address[]",
						"numberOfBytes": "32"
					},
					"t_array(t_string_storage)dyn_storage": {
						"base": "t_string_storage",
						"encoding": "dynamic_array",
						"label": "string[]",
						"numberOfBytes": "32"
					},
					"t_array(t_uint256)dyn_storage": {
						"base": "t_uint256",
						"encoding": "dynamic_array",
						"label": "uint256[]",
						"numberOfBytes": "32"
					},
					"t_bool": {
						"encoding": "inplace",
						"label": "bool",
						"numberOfBytes": "1"
					},
					"t_bytes32": {
						"encoding": "inplace",
						"label": "bytes32",
						"numberOfBytes": "32"
					},
					"t_mapping(t_address,t_bool)": {
						"encoding": "mapping",
						"key": "t_address",
						"label": "mapping(address => bool)",
						"numberOfBytes": "32",
						"value": "t_bool"
					},
					"t_mapping(t_bytes32,t_struct(RoleData)19_storage)": {
						"encoding": "mapping",
						"key": "t_bytes32",
						"label": "mapping(bytes32 => struct AccessControl.RoleData)",
						"numberOfBytes": "32",
						"value": "t_struct(RoleData)19_storage"
					},
					"t_mapping(t_uint256,t_struct(candidate)831_storage)": {
						"encoding": "mapping",
						"key": "t_uint256",
						"label": "mapping(uint256 => struct Vote.candidate)",
						"numberOfBytes": "32",
						"value": "t_struct(candidate)831_storage"
					},
					"t_mapping(t_uint256,t_struct(election)853_storage)": {
						"encoding": "mapping",
						"key": "t_uint256",
						"label": "mapping(uint256 => struct Vote.election)",
						"numberOfBytes": "32",
						"value": "t_struct(election)853_storage"
					},
					"t_mapping(t_uint256,t_struct(voter)840_storage)": {
						"encoding": "mapping",
						"key": "t_uint256",
						"label": "mapping(uint256 => struct Vote.voter)",
						"numberOfBytes": "32",
						"value": "t_struct(voter)840_storage"
					},
					"t_string_storage": {
						"encoding": "bytes",
						"label": "string",
						"numberOfBytes": "32"
					},
					"t_struct(RoleData)19_storage": {
						"encoding": "inplace",
						"label": "struct AccessControl.RoleData",
						"members": [
							{
								"astId": 16,
								"contract": "contracts/Vote.sol:Vote",
								"label": "members",
								"offset": 0,
								"slot": "0",
								"type": "t_mapping(t_address,t_bool)"
							},
							{
								"astId": 18,
								"contract": "contracts/Vote.sol:Vote",
								"label": "adminRole",
								"offset": 0,
								"slot": "1",
								"type": "t_bytes32"
							}
						],
						"numberOfBytes": "64"
					},
					"t_struct(candidate)831_storage": {
						"encoding": "inplace",
						"label": "struct Vote.candidate",
						"members": [
							{
								"astId": 826,
								"contract": "contracts/Vote.sol:Vote",
								"label": "name",
								"offset": 0,
								"slot": "0",
								"type": "t_string_storage"
							},
							{
								"astId": 828,
								"contract": "contracts/Vote.sol:Vote",
								"label": "addr",
								"offset": 0,
								"slot": "1",
								"type": "t_address"
							},
							{
								"astId": 830,
								"contract": "contracts/Vote.sol:Vote",
								"label": "party",
								"offset": 0,
								"slot": "2",
								"type": "t_string_storage"
							}
						],
						"numberOfBytes": "96"
					},
					"t_struct(election)853_storage": {
						"encoding": "inplace",
						"label": "struct Vote.election",
						"members": [
							{
								"astId": 843,
								"contract": "contracts/Vote.sol:Vote",
								"label": "candidate",
								"offset": 0,
								"slot": "0",
								"type": "t_array(t_address)dyn_storage"
							},
							{
								"astId": 846,
								"contract": "contracts/Vote.sol:Vote",
								"label": "candidateVote",
								"offset": 0,
								"slot": "1",
								"type": "t_array(t_uint256)dyn_storage"
							},
							{
								"astId": 848,
								"contract": "contracts/Vote.sol:Vote",
								"label": "start",
								"offset": 0,
								"slot": "2",
								"type": "t_uint256"
							},
							{
								"astId": 850,
								"contract": "contracts/Vote.sol:Vote",
								"label": "duration",
								"offset": 0,
								"slot": "3",
								"type": "t_uint256"
							},
							{
								"astId": 852,
								"contract": "contracts/Vote.sol:Vote",
								"label": "hasEnded",
								"offset": 0,
								"slot": "4",
								"type": "t_bool"
							}
						],
						"numberOfBytes": "160"
					},
					"t_struct(voter)840_storage": {
						"encoding": "inplace",
						"label": "struct Vote.voter",
						"members": [
							{
								"astId": 833,
								"contract": "contracts/Vote.sol:Vote",
								"label": "addr",
								"offset": 0,
								"slot": "0",
								"type": "t_address"
							},
							{
								"astId": 835,
								"contract": "contracts/Vote.sol:Vote",
								"label": "nin",
								"offset": 0,
								"slot": "1",
								"type": "t_uint256"
							},
							{
								"astId": 837,
								"contract": "contracts/Vote.sol:Vote",
								"label": "partyNum",
								"offset": 0,
								"slot": "2",
								"type": "t_uint256"
							},
							{
								"astId": 839,
								"contract": "contracts/Vote.sol:Vote",
								"label": "hasVoted",
								"offset": 0,
								"slot": "3",
								"type": "t_bool"
							}
						],
						"numberOfBytes": "128"
					},
					"t_uint256": {
						"encoding": "inplace",
						"label": "uint256",
						"numberOfBytes": "32"
					}
				}
			},
			"userdoc": {
				"kind": "user",
				"methods": {},
				"version": 1
			}
		}
	}
}