{
	"contracts/Vote.sol": {
		"Vote": {
			"abi": [
				{
					"inputs": [],
					"stateMutability": "nonpayable",
					"type": "constructor"
				},
				{
					"anonymous": false,
					"inputs": [
						{
							"indexed": true,
							"internalType": "address",
							"name": "previousOwner",
							"type": "address"
						},
						{
							"indexed": true,
							"internalType": "address",
							"name": "newOwner",
							"type": "address"
						}
					],
					"name": "OwnershipTransferred",
					"type": "event"
				},
				{
					"anonymous": false,
					"inputs": [
						{
							"indexed": true,
							"internalType": "bytes32",
							"name": "role",
							"type": "bytes32"
						},
						{
							"indexed": true,
							"internalType": "bytes32",
							"name": "previousAdminRole",
							"type": "bytes32"
						},
						{
							"indexed": true,
							"internalType": "bytes32",
							"name": "newAdminRole",
							"type": "bytes32"
						}
					],
					"name": "RoleAdminChanged",
					"type": "event"
				},
				{
					"anonymous": false,
					"inputs": [
						{
							"indexed": true,
							"internalType": "bytes32",
							"name": "role",
							"type": "bytes32"
						},
						{
							"indexed": true,
							"internalType": "address",
							"name": "account",
							"type": "address"
						},
						{
							"indexed": true,
							"internalType": "address",
							"name": "sender",
							"type": "address"
						}
					],
					"name": "RoleGranted",
					"type": "event"
				},
				{
					"anonymous": false,
					"inputs": [
						{
							"indexed": true,
							"internalType": "bytes32",
							"name": "role",
							"type": "bytes32"
						},
						{
							"indexed": true,
							"internalType": "address",
							"name": "account",
							"type": "address"
						},
						{
							"indexed": true,
							"internalType": "address",
							"name": "sender",
							"type": "address"
						}
					],
					"name": "RoleRevoked",
					"type": "event"
				},
				{
					"inputs": [],
					"name": "DEFAULT_ADMIN_ROLE",
					"outputs": [
						{
							"internalType": "bytes32",
							"name": "",
							"type": "bytes32"
						}
					],
					"stateMutability": "view",
					"type": "function"
				},
				{
					"inputs": [],
					"name": "INEC_EXEC_ROLE",
					"outputs": [
						{
							"internalType": "bytes32",
							"name": "",
							"type": "bytes32"
						}
					],
					"stateMutability": "view",
					"type": "function"
				},
				{
					"inputs": [
						{
							"internalType": "string",
							"name": "name",
							"type": "string"
						},
						{
							"internalType": "address",
							"name": "candAddress",
							"type": "address"
						},
						{
							"internalType": "uint256",
							"name": "partyNum",
							"type": "uint256"
						}
					],
					"name": "createCandidate",
					"outputs": [],
					"stateMutability": "nonpayable",
					"type": "function"
				},
				{
					"inputs": [
						{
							"internalType": "address",
							"name": "account",
							"type": "address"
						}
					],
					"name": "createInecExec",
					"outputs": [],
					"stateMutability": "nonpayable",
					"type": "function"
				},
				{
					"inputs": [
						{
							"internalType": "bytes32",
							"name": "role",
							"type": "bytes32"
						}
					],
					"name": "getRoleAdmin",
					"outputs": [
						{
							"internalType": "bytes32",
							"name": "",
							"type": "bytes32"
						}
					],
					"stateMutability": "view",
					"type": "function"
				},
				{
					"inputs": [
						{
							"internalType": "bytes32",
							"name": "role",
							"type": "bytes32"
						},
						{
							"internalType": "address",
							"name": "account",
							"type": "address"
						}
					],
					"name": "grantRole",
					"outputs": [],
					"stateMutability": "nonpayable",
					"type": "function"
				},
				{
					"inputs": [
						{
							"internalType": "bytes32",
							"name": "role",
							"type": "bytes32"
						},
						{
							"internalType": "address",
							"name": "account",
							"type": "address"
						}
					],
					"name": "hasRole",
					"outputs": [
						{
							"internalType": "bool",
							"name": "",
							"type": "bool"
						}
					],
					"stateMutability": "view",
					"type": "function"
				},
				{
					"inputs": [],
					"name": "owner",
					"outputs": [
						{
							"internalType": "address",
							"name": "",
							"type": "address"
						}
					],
					"stateMutability": "view",
					"type": "function"
				},
				{
					"inputs": [
						{
							"internalType": "uint256",
							"name": "",
							"type": "uint256"
						}
					],
					"name": "party",
					"outputs": [
						{
							"internalType": "string",
							"name": "",
							"type": "string"
						}
					],
					"stateMutability": "view",
					"type": "function"
				},
				{
					"inputs": [
						{
							"internalType": "address",
							"name": "account",
							"type": "address"
						}
					],
					"name": "regVoter",
					"outputs": [],
					"stateMutability": "nonpayable",
					"type": "function"
				},
				{
					"inputs": [],
					"name": "renounceOwnership",
					"outputs": [],
					"stateMutability": "nonpayable",
					"type": "function"
				},
				{
					"inputs": [
						{
							"internalType": "bytes32",
							"name": "role",
							"type": "bytes32"
						},
						{
							"internalType": "address",
							"name": "account",
							"type": "address"
						}
					],
					"name": "renounceRole",
					"outputs": [],
					"stateMutability": "nonpayable",
					"type": "function"
				},
				{
					"inputs": [
						{
							"internalType": "uint256",
							"name": "num",
							"type": "uint256"
						}
					],
					"name": "retrieveCandidate",
					"outputs": [
						{
							"components": [
								{
									"internalType": "string",
									"name": "name",
									"type": "string"
								},
								{
									"internalType": "address",
									"name": "addr",
									"type": "address"
								},
								{
									"internalType": "string",
									"name": "party",
									"type": "string"
								}
							],
							"internalType": "struct Vote.candidate",
							"name": "",
							"type": "tuple"
						}
					],
					"stateMutability": "view",
					"type": "function"
				},
				{
					"inputs": [
						{
							"internalType": "bytes32",
							"name": "role",
							"type": "bytes32"
						},
						{
							"internalType": "address",
							"name": "account",
							"type": "address"
						}
					],
					"name": "revokeRole",
					"outputs": [],
					"stateMutability": "nonpayable",
					"type": "function"
				},
				{
					"inputs": [
						{
							"internalType": "bytes4",
							"name": "interfaceId",
							"type": "bytes4"
						}
					],
					"name": "supportsInterface",
					"outputs": [
						{
							"internalType": "bool",
							"name": "",
							"type": "bool"
						}
					],
					"stateMutability": "view",
					"type": "function"
				},
				{
					"inputs": [
						{
							"internalType": "address",
							"name": "newOwner",
							"type": "address"
						}
					],
					"name": "transferOwnership",
					"outputs": [],
					"stateMutability": "nonpayable",
					"type": "function"
				}
			],
			"devdoc": {
				"custom:dev-run-script": "./scripts/deploy_with_ethers.ts",
				"details": "Store & retrieve value in a variable",
				"kind": "dev",
				"methods": {
					"createCandidate(string,address,uint256)": {
						"details": "Store value in variable",
						"params": {
							"candAddress": "value for candidate Address",
							"name": "value for candidate name",
							"partyNum": "value for candidate party"
						}
					},
					"createInecExec(address)": {
						"details": "Return value ",
						"params": {
							"account": "value for the role'"
						}
					},
					"getRoleAdmin(bytes32)": {
						"details": "Returns the admin role that controls `role`. See {grantRole} and {revokeRole}. To change a role's admin, use {_setRoleAdmin}."
					},
					"grantRole(bytes32,address)": {
						"details": "Grants `role` to `account`. If `account` had not been already granted `role`, emits a {RoleGranted} event. Requirements: - the caller must have ``role``'s admin role. May emit a {RoleGranted} event."
					},
					"hasRole(bytes32,address)": {
						"details": "Returns `true` if `account` has been granted `role`."
					},
					"owner()": {
						"details": "Returns the address of the current owner."
					},
					"regVoter(address)": {
						"details": "Return value ",
						"params": {
							"account": "value for the role'"
						}
					},
					"renounceOwnership()": {
						"details": "Leaves the contract without owner. It will not be possible to call `onlyOwner` functions anymore. Can only be called by the current owner. NOTE: Renouncing ownership will leave the contract without an owner, thereby removing any functionality that is only available to the owner."
					},
					"renounceRole(bytes32,address)": {
						"details": "Revokes `role` from the calling account. Roles are often managed via {grantRole} and {revokeRole}: this function's purpose is to provide a mechanism for accounts to lose their privileges if they are compromised (such as when a trusted device is misplaced). If the calling account had been revoked `role`, emits a {RoleRevoked} event. Requirements: - the caller must be `account`. May emit a {RoleRevoked} event."
					},
					"retrieveCandidate(uint256)": {
						"details": "Return value ",
						"returns": {
							"_0": "value of 'struct'"
						}
					},
					"revokeRole(bytes32,address)": {
						"details": "Revokes `role` from `account`. If `account` had been granted `role`, emits a {RoleRevoked} event. Requirements: - the caller must have ``role``'s admin role. May emit a {RoleRevoked} event."
					},
					"supportsInterface(bytes4)": {
						"details": "See {IERC165-supportsInterface}."
					},
					"transferOwnership(address)": {
						"details": "Transfers ownership of the contract to a new account (`newOwner`). Can only be called by the current owner."
					}
				},
				"title": "Storage",
				"version": 1
			},
			"evm": {
				"assembly": "    /* \"contracts/Vote.sol\":311:2423  contract Vote is Ownable, AccessControl {... */\n  mstore(0x40, 0x80)\n    /* \"contracts/Vote.sol\":406:459  string [] public party = [\"APC\", \"PDP\", \"LP\", \"NNPP\"] */\n  mload(0x40)\n  dup1\n  0x80\n  add\n  0x40\n  mstore\n  dup1\n  mload(0x40)\n  dup1\n  0x40\n  add\n  0x40\n  mstore\n  dup1\n  0x03\n  dup2\n  mstore\n  0x20\n  add\n  0x4150430000000000000000000000000000000000000000000000000000000000\n  dup2\n  mstore\n  pop\n  dup2\n  mstore\n  0x20\n  add\n  mload(0x40)\n  dup1\n  0x40\n  add\n  0x40\n  mstore\n  dup1\n  0x03\n  dup2\n  mstore\n  0x20\n  add\n  0x5044500000000000000000000000000000000000000000000000000000000000\n  dup2\n  mstore\n  pop\n  dup2\n  mstore\n  0x20\n  add\n  mload(0x40)\n  dup1\n  0x40\n  add\n  0x40\n  mstore\n  dup1\n  0x02\n  dup2\n  mstore\n  0x20\n  add\n  0x4c50000000000000000000000000000000000000000000000000000000000000\n  dup2\n  mstore\n  pop\n  dup2\n  mstore\n  0x20\n  add\n  mload(0x40)\n  dup1\n  0x40\n  add\n  0x40\n  mstore\n  dup1\n  0x04\n  dup2\n  mstore\n  0x20\n  add\n  0x4e4e505000000000000000000000000000000000000000000000000000000000\n  dup2\n  mstore\n  pop\n  dup2\n  mstore\n  pop\n  0x04\n  swap1\n  0x04\n  tag_1\n  swap3\n  swap2\n  swap1\n  tag_2\n  jump\t// in\ntag_1:\n  pop\n    /* \"contracts/Vote.sol\":1120:1313  constructor() {... */\n  callvalue\n  dup1\n  iszero\n  tag_3\n  jumpi\n  0x00\n  dup1\n  revert\ntag_3:\n  pop\n    /* \"@openzeppelin/contracts/access/Ownable.sol\":936:968  _transferOwnership(_msgSender()) */\n  tag_7\n    /* \"@openzeppelin/contracts/access/Ownable.sol\":955:967  _msgSender() */\n  tag_8\n    /* \"@openzeppelin/contracts/access/Ownable.sol\":955:965  _msgSender */\n  shl(0x20, tag_9)\n    /* \"@openzeppelin/contracts/access/Ownable.sol\":955:967  _msgSender() */\n  0x20\n  shr\n  jump\t// in\ntag_8:\n    /* \"@openzeppelin/contracts/access/Ownable.sol\":936:954  _transferOwnership */\n  shl(0x20, tag_10)\n    /* \"@openzeppelin/contracts/access/Ownable.sol\":936:968  _transferOwnership(_msgSender()) */\n  0x20\n  shr\n  jump\t// in\ntag_7:\n    /* \"contracts/Vote.sol\":1264:1306  _setupRole(DEFAULT_ADMIN_ROLE, msg.sender) */\n  tag_12\n    /* \"@openzeppelin/contracts/access/AccessControl.sol\":2072:2076  0x00 */\n  0x00\n    /* \"contracts/Vote.sol\":1275:1293  DEFAULT_ADMIN_ROLE */\n  dup1\n  shl\n    /* \"contracts/Vote.sol\":1295:1305  msg.sender */\n  caller\n    /* \"contracts/Vote.sol\":1264:1274  _setupRole */\n  shl(0x20, tag_13)\n    /* \"contracts/Vote.sol\":1264:1306  _setupRole(DEFAULT_ADMIN_ROLE, msg.sender) */\n  0x20\n  shr\n  jump\t// in\ntag_12:\n    /* \"contracts/Vote.sol\":311:2423  contract Vote is Ownable, AccessControl {... */\n  jump(tag_14)\n    /* \"@openzeppelin/contracts/utils/Context.sol\":640:736  function _msgSender() internal view virtual returns (address) {... */\ntag_9:\n    /* \"@openzeppelin/contracts/utils/Context.sol\":693:700  address */\n  0x00\n    /* \"@openzeppelin/contracts/utils/Context.sol\":719:729  msg.sender */\n  caller\n    /* \"@openzeppelin/contracts/utils/Context.sol\":712:729  return msg.sender */\n  swap1\n  pop\n    /* \"@openzeppelin/contracts/utils/Context.sol\":640:736  function _msgSender() internal view virtual returns (address) {... */\n  swap1\n  jump\t// out\n    /* \"@openzeppelin/contracts/access/Ownable.sol\":2433:2620  function _transferOwnership(address newOwner) internal virtual {... */\ntag_10:\n    /* \"@openzeppelin/contracts/access/Ownable.sol\":2506:2522  address oldOwner */\n  0x00\n    /* \"@openzeppelin/contracts/access/Ownable.sol\":2525:2531  _owner */\n  dup1\n  0x00\n  swap1\n  sload\n  swap1\n  0x0100\n  exp\n  swap1\n  div\n  0xffffffffffffffffffffffffffffffffffffffff\n  and\n    /* \"@openzeppelin/contracts/access/Ownable.sol\":2506:2531  address oldOwner = _owner */\n  swap1\n  pop\n    /* \"@openzeppelin/contracts/access/Ownable.sol\":2550:2558  newOwner */\n  dup2\n    /* \"@openzeppelin/contracts/access/Ownable.sol\":2541:2547  _owner */\n  0x00\n  dup1\n    /* \"@openzeppelin/contracts/access/Ownable.sol\":2541:2558  _owner = newOwner */\n  0x0100\n  exp\n  dup2\n  sload\n  dup2\n  0xffffffffffffffffffffffffffffffffffffffff\n  mul\n  not\n  and\n  swap1\n  dup4\n  0xffffffffffffffffffffffffffffffffffffffff\n  and\n  mul\n  or\n  swap1\n  sstore\n  pop\n    /* \"@openzeppelin/contracts/access/Ownable.sol\":2604:2612  newOwner */\n  dup2\n    /* \"@openzeppelin/contracts/access/Ownable.sol\":2573:2613  OwnershipTransferred(oldOwner, newOwner) */\n  0xffffffffffffffffffffffffffffffffffffffff\n  and\n    /* \"@openzeppelin/contracts/access/Ownable.sol\":2594:2602  oldOwner */\n  dup2\n    /* \"@openzeppelin/contracts/access/Ownable.sol\":2573:2613  OwnershipTransferred(oldOwner, newOwner) */\n  0xffffffffffffffffffffffffffffffffffffffff\n  and\n  0x8be0079c531659141344cd1fd0a4f28419497f9722a3daafe3b4186f6b6457e0\n  mload(0x40)\n  mload(0x40)\n  dup1\n  swap2\n  sub\n  swap1\n  log3\n    /* \"@openzeppelin/contracts/access/Ownable.sol\":2496:2620  {... */\n  pop\n    /* \"@openzeppelin/contracts/access/Ownable.sol\":2433:2620  function _transferOwnership(address newOwner) internal virtual {... */\n  pop\n  jump\t// out\n    /* \"@openzeppelin/contracts/access/AccessControl.sol\":6824:6934  function _setupRole(bytes32 role, address account) internal virtual {... */\ntag_13:\n    /* \"@openzeppelin/contracts/access/AccessControl.sol\":6902:6927  _grantRole(role, account) */\n  tag_18\n    /* \"@openzeppelin/contracts/access/AccessControl.sol\":6913:6917  role */\n  dup3\n    /* \"@openzeppelin/contracts/access/AccessControl.sol\":6919:6926  account */\n  dup3\n    /* \"@openzeppelin/contracts/access/AccessControl.sol\":6902:6912  _grantRole */\n  shl(0x20, tag_19)\n    /* \"@openzeppelin/contracts/access/AccessControl.sol\":6902:6927  _grantRole(role, account) */\n  0x20\n  shr\n  jump\t// in\ntag_18:\n    /* \"@openzeppelin/contracts/access/AccessControl.sol\":6824:6934  function _setupRole(bytes32 role, address account) internal virtual {... */\n  pop\n  pop\n  jump\t// out\n    /* \"@openzeppelin/contracts/access/AccessControl.sol\":7474:7707  function _grantRole(bytes32 role, address account) internal virtual {... */\ntag_19:\n    /* \"@openzeppelin/contracts/access/AccessControl.sol\":7557:7579  hasRole(role, account) */\n  tag_21\n    /* \"@openzeppelin/contracts/access/AccessControl.sol\":7565:7569  role */\n  dup3\n    /* \"@openzeppelin/contracts/access/AccessControl.sol\":7571:7578  account */\n  dup3\n    /* \"@openzeppelin/contracts/access/AccessControl.sol\":7557:7564  hasRole */\n  shl(0x20, tag_22)\n    /* \"@openzeppelin/contracts/access/AccessControl.sol\":7557:7579  hasRole(role, account) */\n  0x20\n  shr\n  jump\t// in\ntag_21:\n    /* \"@openzeppelin/contracts/access/AccessControl.sol\":7552:7701  if (!hasRole(role, account)) {... */\n  tag_23\n  jumpi\n    /* \"@openzeppelin/contracts/access/AccessControl.sol\":7627:7631  true */\n  0x01\n    /* \"@openzeppelin/contracts/access/AccessControl.sol\":7595:7601  _roles */\n  dup1\n    /* \"@openzeppelin/contracts/access/AccessControl.sol\":7595:7607  _roles[role] */\n  0x00\n    /* \"@openzeppelin/contracts/access/AccessControl.sol\":7602:7606  role */\n  dup5\n    /* \"@openzeppelin/contracts/access/AccessControl.sol\":7595:7607  _roles[role] */\n  dup2\n  mstore\n  0x20\n  add\n  swap1\n  dup2\n  mstore\n  0x20\n  add\n  0x00\n  keccak256\n    /* \"@openzeppelin/contracts/access/AccessControl.sol\":7595:7615  _roles[role].members */\n  0x00\n  add\n    /* \"@openzeppelin/contracts/access/AccessControl.sol\":7595:7624  _roles[role].members[account] */\n  0x00\n    /* \"@openzeppelin/contracts/access/AccessControl.sol\":7616:7623  account */\n  dup4\n    /* \"@openzeppelin/contracts/access/AccessControl.sol\":7595:7624  _roles[role].members[account] */\n  0xffffffffffffffffffffffffffffffffffffffff\n  and\n  0xffffffffffffffffffffffffffffffffffffffff\n  and\n  dup2\n  mstore\n  0x20\n  add\n  swap1\n  dup2\n  mstore\n  0x20\n  add\n  0x00\n  keccak256\n  0x00\n    /* \"@openzeppelin/contracts/access/AccessControl.sol\":7595:7631  _roles[role].members[account] = true */\n  0x0100\n  exp\n  dup2\n  sload\n  dup2\n  0xff\n  mul\n  not\n  and\n  swap1\n  dup4\n  iszero\n  iszero\n  mul\n  or\n  swap1\n  sstore\n  pop\n    /* \"@openzeppelin/contracts/access/AccessControl.sol\":7677:7689  _msgSender() */\n  tag_24\n    /* \"@openzeppelin/contracts/access/AccessControl.sol\":7677:7687  _msgSender */\n  shl(0x20, tag_9)\n    /* \"@openzeppelin/contracts/access/AccessControl.sol\":7677:7689  _msgSender() */\n  0x20\n  shr\n  jump\t// in\ntag_24:\n    /* \"@openzeppelin/contracts/access/AccessControl.sol\":7650:7690  RoleGranted(role, account, _msgSender()) */\n  0xffffffffffffffffffffffffffffffffffffffff\n  and\n    /* \"@openzeppelin/contracts/access/AccessControl.sol\":7668:7675  account */\n  dup2\n    /* \"@openzeppelin/contracts/access/AccessControl.sol\":7650:7690  RoleGranted(role, account, _msgSender()) */\n  0xffffffffffffffffffffffffffffffffffffffff\n  and\n    /* \"@openzeppelin/contracts/access/AccessControl.sol\":7662:7666  role */\n  dup4\n    /* \"@openzeppelin/contracts/access/AccessControl.sol\":7650:7690  RoleGranted(role, account, _msgSender()) */\n  0x2f8788117e7eff1d82e926ec794901d17c78024a50270940304540a733656f0d\n  mload(0x40)\n  mload(0x40)\n  dup1\n  swap2\n  sub\n  swap1\n  log4\n    /* \"@openzeppelin/contracts/access/AccessControl.sol\":7552:7701  if (!hasRole(role, account)) {... */\ntag_23:\n    /* \"@openzeppelin/contracts/access/AccessControl.sol\":7474:7707  function _grantRole(bytes32 role, address account) internal virtual {... */\n  pop\n  pop\n  jump\t// out\n    /* \"@openzeppelin/contracts/access/AccessControl.sol\":2895:3040  function hasRole(bytes32 role, address account) public view virtual override returns (bool) {... */\ntag_22:\n    /* \"@openzeppelin/contracts/access/AccessControl.sol\":2981:2985  bool */\n  0x00\n    /* \"@openzeppelin/contracts/access/AccessControl.sol\":3004:3010  _roles */\n  0x01\n    /* \"@openzeppelin/contracts/access/AccessControl.sol\":3004:3016  _roles[role] */\n  0x00\n    /* \"@openzeppelin/contracts/access/AccessControl.sol\":3011:3015  role */\n  dup5\n    /* \"@openzeppelin/contracts/access/AccessControl.sol\":3004:3016  _roles[role] */\n  dup2\n  mstore\n  0x20\n  add\n  swap1\n  dup2\n  mstore\n  0x20\n  add\n  0x00\n  keccak256\n    /* \"@openzeppelin/contracts/access/AccessControl.sol\":3004:3024  _roles[role].members */\n  0x00\n  add\n    /* \"@openzeppelin/contracts/access/AccessControl.sol\":3004:3033  _roles[role].members[account] */\n  0x00\n    /* \"@openzeppelin/contracts/access/AccessControl.sol\":3025:3032  account */\n  dup4\n    /* \"@openzeppelin/contracts/access/AccessControl.sol\":3004:3033  _roles[role].members[account] */\n  0xffffffffffffffffffffffffffffffffffffffff\n  and\n  0xffffffffffffffffffffffffffffffffffffffff\n  and\n  dup2\n  mstore\n  0x20\n  add\n  swap1\n  dup2\n  mstore\n  0x20\n  add\n  0x00\n  keccak256\n  0x00\n  swap1\n  sload\n  swap1\n  0x0100\n  exp\n  swap1\n  div\n  0xff\n  and\n    /* \"@openzeppelin/contracts/access/AccessControl.sol\":2997:3033  return _roles[role].members[account] */\n  swap1\n  pop\n    /* \"@openzeppelin/contracts/access/AccessControl.sol\":2895:3040  function hasRole(bytes32 role, address account) public view virtual override returns (bool) {... */\n  swap3\n  swap2\n  pop\n  pop\n  jump\t// out\n    /* \"contracts/Vote.sol\":311:2423  contract Vote is Ownable, AccessControl {... */\ntag_2:\n  dup3\n  dup1\n  sload\n  dup3\n  dup3\n  sstore\n  swap1\n  0x00\n  mstore\n  keccak256(0x00, 0x20)\n  swap1\n  dup2\n  add\n  swap3\n  dup3\n  iszero\n  tag_26\n  jumpi\n  swap2\n  0x20\n  mul\n  dup3\n  add\ntag_27:\n  dup3\n  dup2\n  gt\n  iszero\n  tag_28\n  jumpi\n  dup3\n  mload\n  dup3\n  swap1\n  dup1\n  mload\n  swap1\n  0x20\n  add\n  swap1\n  tag_29\n  swap3\n  swap2\n  swap1\n  tag_30\n  jump\t// in\ntag_29:\n  pop\n  swap2\n  0x20\n  add\n  swap2\n  swap1\n  0x01\n  add\n  swap1\n  jump(tag_27)\ntag_28:\ntag_26:\n  pop\n  swap1\n  pop\n  tag_31\n  swap2\n  swap1\n  tag_32\n  jump\t// in\ntag_31:\n  pop\n  swap1\n  jump\t// out\ntag_30:\n  dup3\n  dup1\n  sload\n  tag_33\n  swap1\n  tag_34\n  jump\t// in\ntag_33:\n  swap1\n  0x00\n  mstore\n  keccak256(0x00, 0x20)\n  swap1\n  0x1f\n  add\n  0x20\n  swap1\n  div\n  dup2\n  add\n  swap3\n  dup3\n  tag_36\n  jumpi\n  0x00\n  dup6\n  sstore\n  jump(tag_35)\ntag_36:\n  dup3\n  0x1f\n  lt\n  tag_37\n  jumpi\n  dup1\n  mload\n  not(0xff)\n  and\n  dup4\n  dup1\n  add\n  or\n  dup6\n  sstore\n  jump(tag_35)\ntag_37:\n  dup3\n  dup1\n  add\n  0x01\n  add\n  dup6\n  sstore\n  dup3\n  iszero\n  tag_35\n  jumpi\n  swap2\n  dup3\n  add\ntag_38:\n  dup3\n  dup2\n  gt\n  iszero\n  tag_39\n  jumpi\n  dup3\n  mload\n  dup3\n  sstore\n  swap2\n  0x20\n  add\n  swap2\n  swap1\n  0x01\n  add\n  swap1\n  jump(tag_38)\ntag_39:\ntag_35:\n  pop\n  swap1\n  pop\n  tag_40\n  swap2\n  swap1\n  tag_41\n  jump\t// in\ntag_40:\n  pop\n  swap1\n  jump\t// out\ntag_32:\ntag_42:\n  dup1\n  dup3\n  gt\n  iszero\n  tag_43\n  jumpi\n  0x00\n  dup2\n  dup2\n  tag_44\n  swap2\n  swap1\n  tag_45\n  jump\t// in\ntag_44:\n  pop\n  0x01\n  add\n  jump(tag_42)\ntag_43:\n  pop\n  swap1\n  jump\t// out\ntag_41:\ntag_46:\n  dup1\n  dup3\n  gt\n  iszero\n  tag_47\n  jumpi\n  0x00\n  dup2\n  0x00\n  swap1\n  sstore\n  pop\n  0x01\n  add\n  jump(tag_46)\ntag_47:\n  pop\n  swap1\n  jump\t// out\ntag_45:\n  pop\n  dup1\n  sload\n  tag_48\n  swap1\n  tag_34\n  jump\t// in\ntag_48:\n  0x00\n  dup3\n  sstore\n  dup1\n  0x1f\n  lt\n  tag_50\n  jumpi\n  pop\n  jump(tag_49)\ntag_50:\n  0x1f\n  add\n  0x20\n  swap1\n  div\n  swap1\n  0x00\n  mstore\n  keccak256(0x00, 0x20)\n  swap1\n  dup2\n  add\n  swap1\n  tag_51\n  swap2\n  swap1\n  tag_41\n  jump\t// in\ntag_51:\ntag_49:\n  pop\n  jump\t// out\n    /* \"#utility.yul\":7:327   */\ntag_34:\n    /* \"#utility.yul\":51:57   */\n  0x00\n    /* \"#utility.yul\":88:89   */\n  0x02\n    /* \"#utility.yul\":82:86   */\n  dup3\n    /* \"#utility.yul\":78:90   */\n  div\n    /* \"#utility.yul\":68:90   */\n  swap1\n  pop\n    /* \"#utility.yul\":135:136   */\n  0x01\n    /* \"#utility.yul\":129:133   */\n  dup3\n    /* \"#utility.yul\":125:137   */\n  and\n    /* \"#utility.yul\":156:174   */\n  dup1\n    /* \"#utility.yul\":146:227   */\n  tag_54\n  jumpi\n    /* \"#utility.yul\":212:216   */\n  0x7f\n    /* \"#utility.yul\":204:210   */\n  dup3\n    /* \"#utility.yul\":200:217   */\n  and\n    /* \"#utility.yul\":190:217   */\n  swap2\n  pop\n    /* \"#utility.yul\":146:227   */\ntag_54:\n    /* \"#utility.yul\":274:276   */\n  0x20\n    /* \"#utility.yul\":266:272   */\n  dup3\n    /* \"#utility.yul\":263:277   */\n  lt\n    /* \"#utility.yul\":243:261   */\n  dup2\n    /* \"#utility.yul\":240:278   */\n  eq\n    /* \"#utility.yul\":237:321   */\n  iszero\n  tag_55\n  jumpi\n    /* \"#utility.yul\":293:311   */\n  tag_56\n  tag_57\n  jump\t// in\ntag_56:\n    /* \"#utility.yul\":237:321   */\ntag_55:\n    /* \"#utility.yul\":58:327   */\n  pop\n    /* \"#utility.yul\":7:327   */\n  swap2\n  swap1\n  pop\n  jump\t// out\n    /* \"#utility.yul\":333:513   */\ntag_57:\n    /* \"#utility.yul\":381:458   */\n  0x4e487b7100000000000000000000000000000000000000000000000000000000\n    /* \"#utility.yul\":378:379   */\n  0x00\n    /* \"#utility.yul\":371:459   */\n  mstore\n    /* \"#utility.yul\":478:482   */\n  0x22\n    /* \"#utility.yul\":475:476   */\n  0x04\n    /* \"#utility.yul\":468:483   */\n  mstore\n    /* \"#utility.yul\":502:506   */\n  0x24\n    /* \"#utility.yul\":499:500   */\n  0x00\n    /* \"#utility.yul\":492:507   */\n  revert\n    /* \"contracts/Vote.sol\":311:2423  contract Vote is Ownable, AccessControl {... */\ntag_14:\n  dataSize(sub_0)\n  dup1\n  dataOffset(sub_0)\n  0x00\n  codecopy\n  0x00\n  return\nstop\n\nsub_0: assembly {\n        /* \"contracts/Vote.sol\":311:2423  contract Vote is Ownable, AccessControl {... */\n      mstore(0x40, 0x80)\n      callvalue\n      dup1\n      iszero\n      tag_1\n      jumpi\n      0x00\n      dup1\n      revert\n    tag_1:\n      pop\n      jumpi(tag_2, lt(calldatasize, 0x04))\n      shr(0xe0, calldataload(0x00))\n      dup1\n      0x8da5cb5b\n      gt\n      tag_19\n      jumpi\n      dup1\n      0xd547741f\n      gt\n      tag_20\n      jumpi\n      dup1\n      0xd547741f\n      eq\n      tag_15\n      jumpi\n      dup1\n      0xd59d2a58\n      eq\n      tag_16\n      jumpi\n      dup1\n      0xdfd8459e\n      eq\n      tag_17\n      jumpi\n      dup1\n      0xf2fde38b\n      eq\n      tag_18\n      jumpi\n      jump(tag_2)\n    tag_20:\n      dup1\n      0x8da5cb5b\n      eq\n      tag_11\n      jumpi\n      dup1\n      0x91d14854\n      eq\n      tag_12\n      jumpi\n      dup1\n      0x9e5f0349\n      eq\n      tag_13\n      jumpi\n      dup1\n      0xa217fddf\n      eq\n      tag_14\n      jumpi\n      jump(tag_2)\n    tag_19:\n      dup1\n      0x314fd68f\n      gt\n      tag_21\n      jumpi\n      dup1\n      0x314fd68f\n      eq\n      tag_7\n      jumpi\n      dup1\n      0x36568abe\n      eq\n      tag_8\n      jumpi\n      dup1\n      0x463610c2\n      eq\n      tag_9\n      jumpi\n      dup1\n      0x715018a6\n      eq\n      tag_10\n      jumpi\n      jump(tag_2)\n    tag_21:\n      dup1\n      0x01ffc9a7\n      eq\n      tag_3\n      jumpi\n      dup1\n      0x248a9ca3\n      eq\n      tag_4\n      jumpi\n      dup1\n      0x2e0d37bb\n      eq\n      tag_5\n      jumpi\n      dup1\n      0x2f2ff15d\n      eq\n      tag_6\n      jumpi\n    tag_2:\n      0x00\n      dup1\n      revert\n        /* \"@openzeppelin/contracts/access/AccessControl.sol\":2606:2808  function supportsInterface(bytes4 interfaceId) public view virtual override returns (bool) {... */\n    tag_3:\n      tag_22\n      0x04\n      dup1\n      calldatasize\n      sub\n      dup2\n      add\n      swap1\n      tag_23\n      swap2\n      swap1\n      tag_24\n      jump\t// in\n    tag_23:\n      tag_25\n      jump\t// in\n    tag_22:\n      mload(0x40)\n      tag_26\n      swap2\n      swap1\n      tag_27\n      jump\t// in\n    tag_26:\n      mload(0x40)\n      dup1\n      swap2\n      sub\n      swap1\n      return\n        /* \"@openzeppelin/contracts/access/AccessControl.sol\":4391:4520  function getRoleAdmin(bytes32 role) public view virtual override returns (bytes32) {... */\n    tag_4:\n      tag_28\n      0x04\n      dup1\n      calldatasize\n      sub\n      dup2\n      add\n      swap1\n      tag_29\n      swap2\n      swap1\n      tag_30\n      jump\t// in\n    tag_29:\n      tag_31\n      jump\t// in\n    tag_28:\n      mload(0x40)\n      tag_32\n      swap2\n      swap1\n      tag_33\n      jump\t// in\n    tag_32:\n      mload(0x40)\n      dup1\n      swap2\n      sub\n      swap1\n      return\n        /* \"contracts/Vote.sol\":466:529  bytes32 public constant INEC_EXEC_ROLE = keccak256(\"INEC_EXEC\") */\n    tag_5:\n      tag_34\n      tag_35\n      jump\t// in\n    tag_34:\n      mload(0x40)\n      tag_36\n      swap2\n      swap1\n      tag_33\n      jump\t// in\n    tag_36:\n      mload(0x40)\n      dup1\n      swap2\n      sub\n      swap1\n      return\n        /* \"@openzeppelin/contracts/access/AccessControl.sol\":4816:4961  function grantRole(bytes32 role, address account) public virtual override onlyRole(getRoleAdmin(role)) {... */\n    tag_6:\n      tag_37\n      0x04\n      dup1\n      calldatasize\n      sub\n      dup2\n      add\n      swap1\n      tag_38\n      swap2\n      swap1\n      tag_39\n      jump\t// in\n    tag_38:\n      tag_40\n      jump\t// in\n    tag_37:\n      stop\n        /* \"contracts/Vote.sol\":406:459  string [] public party = [\"APC\", \"PDP\", \"LP\", \"NNPP\"] */\n    tag_7:\n      tag_41\n      0x04\n      dup1\n      calldatasize\n      sub\n      dup2\n      add\n      swap1\n      tag_42\n      swap2\n      swap1\n      tag_43\n      jump\t// in\n    tag_42:\n      tag_44\n      jump\t// in\n    tag_41:\n      mload(0x40)\n      tag_45\n      swap2\n      swap1\n      tag_46\n      jump\t// in\n    tag_45:\n      mload(0x40)\n      dup1\n      swap2\n      sub\n      swap1\n      return\n        /* \"@openzeppelin/contracts/access/AccessControl.sol\":5925:6139  function renounceRole(bytes32 role, address account) public virtual override {... */\n    tag_8:\n      tag_47\n      0x04\n      dup1\n      calldatasize\n      sub\n      dup2\n      add\n      swap1\n      tag_48\n      swap2\n      swap1\n      tag_39\n      jump\t// in\n    tag_48:\n      tag_49\n      jump\t// in\n    tag_47:\n      stop\n        /* \"contracts/Vote.sol\":2111:2213  function regVoter(address account) public onlyOwner{... */\n    tag_9:\n      tag_50\n      0x04\n      dup1\n      calldatasize\n      sub\n      dup2\n      add\n      swap1\n      tag_51\n      swap2\n      swap1\n      tag_52\n      jump\t// in\n    tag_51:\n      tag_53\n      jump\t// in\n    tag_50:\n      stop\n        /* \"@openzeppelin/contracts/access/Ownable.sol\":1831:1932  function renounceOwnership() public virtual onlyOwner {... */\n    tag_10:\n      tag_54\n      tag_55\n      jump\t// in\n    tag_54:\n      stop\n        /* \"@openzeppelin/contracts/access/Ownable.sol\":1201:1286  function owner() public view virtual returns (address) {... */\n    tag_11:\n      tag_56\n      tag_57\n      jump\t// in\n    tag_56:\n      mload(0x40)\n      tag_58\n      swap2\n      swap1\n      tag_59\n      jump\t// in\n    tag_58:\n      mload(0x40)\n      dup1\n      swap2\n      sub\n      swap1\n      return\n        /* \"@openzeppelin/contracts/access/AccessControl.sol\":2895:3040  function hasRole(bytes32 role, address account) public view virtual override returns (bool) {... */\n    tag_12:\n      tag_60\n      0x04\n      dup1\n      calldatasize\n      sub\n      dup2\n      add\n      swap1\n      tag_61\n      swap2\n      swap1\n      tag_39\n      jump\t// in\n    tag_61:\n      tag_62\n      jump\t// in\n    tag_60:\n      mload(0x40)\n      tag_63\n      swap2\n      swap1\n      tag_27\n      jump\t// in\n    tag_63:\n      mload(0x40)\n      dup1\n      swap2\n      sub\n      swap1\n      return\n        /* \"contracts/Vote.sol\":2294:2411  function retrieveCandidate(uint256 num) public view returns (candidate memory){... */\n    tag_13:\n      tag_64\n      0x04\n      dup1\n      calldatasize\n      sub\n      dup2\n      add\n      swap1\n      tag_65\n      swap2\n      swap1\n      tag_43\n      jump\t// in\n    tag_65:\n      tag_66\n      jump\t// in\n    tag_64:\n      mload(0x40)\n      tag_67\n      swap2\n      swap1\n      tag_68\n      jump\t// in\n    tag_67:\n      mload(0x40)\n      dup1\n      swap2\n      sub\n      swap1\n      return\n        /* \"@openzeppelin/contracts/access/AccessControl.sol\":2027:2076  bytes32 public constant DEFAULT_ADMIN_ROLE = 0x00 */\n    tag_14:\n      tag_69\n      tag_70\n      jump\t// in\n    tag_69:\n      mload(0x40)\n      tag_71\n      swap2\n      swap1\n      tag_33\n      jump\t// in\n    tag_71:\n      mload(0x40)\n      dup1\n      swap2\n      sub\n      swap1\n      return\n        /* \"@openzeppelin/contracts/access/AccessControl.sol\":5241:5388  function revokeRole(bytes32 role, address account) public virtual override onlyRole(getRoleAdmin(role)) {... */\n    tag_15:\n      tag_72\n      0x04\n      dup1\n      calldatasize\n      sub\n      dup2\n      add\n      swap1\n      tag_73\n      swap2\n      swap1\n      tag_39\n      jump\t// in\n    tag_73:\n      tag_74\n      jump\t// in\n    tag_72:\n      stop\n        /* \"contracts/Vote.sol\":1721:2020  function createCandidate(string memory name, address candAddress, uint256 partyNum) public isInecExec {... */\n    tag_16:\n      tag_75\n      0x04\n      dup1\n      calldatasize\n      sub\n      dup2\n      add\n      swap1\n      tag_76\n      swap2\n      swap1\n      tag_77\n      jump\t// in\n    tag_76:\n      tag_78\n      jump\t// in\n    tag_75:\n      stop\n        /* \"contracts/Vote.sol\":1403:1511  function createInecExec(address account) public onlyOwner{... */\n    tag_17:\n      tag_79\n      0x04\n      dup1\n      calldatasize\n      sub\n      dup2\n      add\n      swap1\n      tag_80\n      swap2\n      swap1\n      tag_52\n      jump\t// in\n    tag_80:\n      tag_81\n      jump\t// in\n    tag_79:\n      stop\n        /* \"@openzeppelin/contracts/access/Ownable.sol\":2081:2279  function transferOwnership(address newOwner) public virtual onlyOwner {... */\n    tag_18:\n      tag_82\n      0x04\n      dup1\n      calldatasize\n      sub\n      dup2\n      add\n      swap1\n      tag_83\n      swap2\n      swap1\n      tag_52\n      jump\t// in\n    tag_83:\n      tag_84\n      jump\t// in\n    tag_82:\n      stop\n        /* \"@openzeppelin/contracts/access/AccessControl.sol\":2606:2808  function supportsInterface(bytes4 interfaceId) public view virtual override returns (bool) {... */\n    tag_25:\n        /* \"@openzeppelin/contracts/access/AccessControl.sol\":2691:2695  bool */\n      0x00\n        /* \"@openzeppelin/contracts/access/AccessControl.sol\":2729:2761  type(IAccessControl).interfaceId */\n      0x7965db0b00000000000000000000000000000000000000000000000000000000\n        /* \"@openzeppelin/contracts/access/AccessControl.sol\":2714:2761  interfaceId == type(IAccessControl).interfaceId */\n      not(0xffffffffffffffffffffffffffffffffffffffffffffffffffffffff)\n      and\n        /* \"@openzeppelin/contracts/access/AccessControl.sol\":2714:2725  interfaceId */\n      dup3\n        /* \"@openzeppelin/contracts/access/AccessControl.sol\":2714:2761  interfaceId == type(IAccessControl).interfaceId */\n      not(0xffffffffffffffffffffffffffffffffffffffffffffffffffffffff)\n      and\n      eq\n        /* \"@openzeppelin/contracts/access/AccessControl.sol\":2714:2801  interfaceId == type(IAccessControl).interfaceId || super.supportsInterface(interfaceId) */\n      dup1\n      tag_86\n      jumpi\n      pop\n        /* \"@openzeppelin/contracts/access/AccessControl.sol\":2765:2801  super.supportsInterface(interfaceId) */\n      tag_87\n        /* \"@openzeppelin/contracts/access/AccessControl.sol\":2789:2800  interfaceId */\n      dup3\n        /* \"@openzeppelin/contracts/access/AccessControl.sol\":2765:2788  super.supportsInterface */\n      tag_88\n        /* \"@openzeppelin/contracts/access/AccessControl.sol\":2765:2801  super.supportsInterface(interfaceId) */\n      jump\t// in\n    tag_87:\n        /* \"@openzeppelin/contracts/access/AccessControl.sol\":2714:2801  interfaceId == type(IAccessControl).interfaceId || super.supportsInterface(interfaceId) */\n    tag_86:\n        /* \"@openzeppelin/contracts/access/AccessControl.sol\":2707:2801  return interfaceId == type(IAccessControl).interfaceId || super.supportsInterface(interfaceId) */\n      swap1\n      pop\n        /* \"@openzeppelin/contracts/access/AccessControl.sol\":2606:2808  function supportsInterface(bytes4 interfaceId) public view virtual override returns (bool) {... */\n      swap2\n      swap1\n      pop\n      jump\t// out\n        /* \"@openzeppelin/contracts/access/AccessControl.sol\":4391:4520  function getRoleAdmin(bytes32 role) public view virtual override returns (bytes32) {... */\n    tag_31:\n        /* \"@openzeppelin/contracts/access/AccessControl.sol\":4465:4472  bytes32 */\n      0x00\n        /* \"@openzeppelin/contracts/access/AccessControl.sol\":4491:4497  _roles */\n      0x01\n        /* \"@openzeppelin/contracts/access/AccessControl.sol\":4491:4503  _roles[role] */\n      0x00\n        /* \"@openzeppelin/contracts/access/AccessControl.sol\":4498:4502  role */\n      dup4\n        /* \"@openzeppelin/contracts/access/AccessControl.sol\":4491:4503  _roles[role] */\n      dup2\n      mstore\n      0x20\n      add\n      swap1\n      dup2\n      mstore\n      0x20\n      add\n      0x00\n      keccak256\n        /* \"@openzeppelin/contracts/access/AccessControl.sol\":4491:4513  _roles[role].adminRole */\n      0x01\n      add\n      sload\n        /* \"@openzeppelin/contracts/access/AccessControl.sol\":4484:4513  return _roles[role].adminRole */\n      swap1\n      pop\n        /* \"@openzeppelin/contracts/access/AccessControl.sol\":4391:4520  function getRoleAdmin(bytes32 role) public view virtual override returns (bytes32) {... */\n      swap2\n      swap1\n      pop\n      jump\t// out\n        /* \"contracts/Vote.sol\":466:529  bytes32 public constant INEC_EXEC_ROLE = keccak256(\"INEC_EXEC\") */\n    tag_35:\n        /* \"contracts/Vote.sol\":507:529  keccak256(\"INEC_EXEC\") */\n      0x082f6ed76e0352438e6a6e35c77719c3f04bf277fdc8fec7e5ff5f65e001d902\n        /* \"contracts/Vote.sol\":466:529  bytes32 public constant INEC_EXEC_ROLE = keccak256(\"INEC_EXEC\") */\n      dup2\n      jump\t// out\n        /* \"@openzeppelin/contracts/access/AccessControl.sol\":4816:4961  function grantRole(bytes32 role, address account) public virtual override onlyRole(getRoleAdmin(role)) {... */\n    tag_40:\n        /* \"@openzeppelin/contracts/access/AccessControl.sol\":4899:4917  getRoleAdmin(role) */\n      tag_90\n        /* \"@openzeppelin/contracts/access/AccessControl.sol\":4912:4916  role */\n      dup3\n        /* \"@openzeppelin/contracts/access/AccessControl.sol\":4899:4911  getRoleAdmin */\n      tag_31\n        /* \"@openzeppelin/contracts/access/AccessControl.sol\":4899:4917  getRoleAdmin(role) */\n      jump\t// in\n    tag_90:\n        /* \"@openzeppelin/contracts/access/AccessControl.sol\":2505:2521  _checkRole(role) */\n      tag_92\n        /* \"@openzeppelin/contracts/access/AccessControl.sol\":2516:2520  role */\n      dup2\n        /* \"@openzeppelin/contracts/access/AccessControl.sol\":2505:2515  _checkRole */\n      tag_93\n        /* \"@openzeppelin/contracts/access/AccessControl.sol\":2505:2521  _checkRole(role) */\n      jump\t// in\n    tag_92:\n        /* \"@openzeppelin/contracts/access/AccessControl.sol\":4929:4954  _grantRole(role, account) */\n      tag_95\n        /* \"@openzeppelin/contracts/access/AccessControl.sol\":4940:4944  role */\n      dup4\n        /* \"@openzeppelin/contracts/access/AccessControl.sol\":4946:4953  account */\n      dup4\n        /* \"@openzeppelin/contracts/access/AccessControl.sol\":4929:4939  _grantRole */\n      tag_96\n        /* \"@openzeppelin/contracts/access/AccessControl.sol\":4929:4954  _grantRole(role, account) */\n      jump\t// in\n    tag_95:\n        /* \"@openzeppelin/contracts/access/AccessControl.sol\":4816:4961  function grantRole(bytes32 role, address account) public virtual override onlyRole(getRoleAdmin(role)) {... */\n      pop\n      pop\n      pop\n      jump\t// out\n        /* \"contracts/Vote.sol\":406:459  string [] public party = [\"APC\", \"PDP\", \"LP\", \"NNPP\"] */\n    tag_44:\n      0x04\n      dup2\n      dup2\n      sload\n      dup2\n      lt\n      tag_97\n      jumpi\n      0x00\n      dup1\n      revert\n    tag_97:\n      swap1\n      0x00\n      mstore\n      keccak256(0x00, 0x20)\n      add\n      0x00\n      swap2\n      pop\n      swap1\n      pop\n      dup1\n      sload\n      tag_99\n      swap1\n      tag_100\n      jump\t// in\n    tag_99:\n      dup1\n      0x1f\n      add\n      0x20\n      dup1\n      swap2\n      div\n      mul\n      0x20\n      add\n      mload(0x40)\n      swap1\n      dup2\n      add\n      0x40\n      mstore\n      dup1\n      swap3\n      swap2\n      swap1\n      dup2\n      dup2\n      mstore\n      0x20\n      add\n      dup3\n      dup1\n      sload\n      tag_101\n      swap1\n      tag_100\n      jump\t// in\n    tag_101:\n      dup1\n      iszero\n      tag_102\n      jumpi\n      dup1\n      0x1f\n      lt\n      tag_103\n      jumpi\n      0x0100\n      dup1\n      dup4\n      sload\n      div\n      mul\n      dup4\n      mstore\n      swap2\n      0x20\n      add\n      swap2\n      jump(tag_102)\n    tag_103:\n      dup3\n      add\n      swap2\n      swap1\n      0x00\n      mstore\n      keccak256(0x00, 0x20)\n      swap1\n    tag_104:\n      dup2\n      sload\n      dup2\n      mstore\n      swap1\n      0x01\n      add\n      swap1\n      0x20\n      add\n      dup1\n      dup4\n      gt\n      tag_104\n      jumpi\n      dup3\n      swap1\n      sub\n      0x1f\n      and\n      dup3\n      add\n      swap2\n    tag_102:\n      pop\n      pop\n      pop\n      pop\n      pop\n      dup2\n      jump\t// out\n        /* \"@openzeppelin/contracts/access/AccessControl.sol\":5925:6139  function renounceRole(bytes32 role, address account) public virtual override {... */\n    tag_49:\n        /* \"@openzeppelin/contracts/access/AccessControl.sol\":6031:6043  _msgSender() */\n      tag_106\n        /* \"@openzeppelin/contracts/access/AccessControl.sol\":6031:6041  _msgSender */\n      tag_107\n        /* \"@openzeppelin/contracts/access/AccessControl.sol\":6031:6043  _msgSender() */\n      jump\t// in\n    tag_106:\n        /* \"@openzeppelin/contracts/access/AccessControl.sol\":6020:6043  account == _msgSender() */\n      0xffffffffffffffffffffffffffffffffffffffff\n      and\n        /* \"@openzeppelin/contracts/access/AccessControl.sol\":6020:6027  account */\n      dup2\n        /* \"@openzeppelin/contracts/access/AccessControl.sol\":6020:6043  account == _msgSender() */\n      0xffffffffffffffffffffffffffffffffffffffff\n      and\n      eq\n        /* \"@openzeppelin/contracts/access/AccessControl.sol\":6012:6095  require(account == _msgSender(), \"AccessControl: can only renounce roles for self\") */\n      tag_108\n      jumpi\n      mload(0x40)\n      0x08c379a000000000000000000000000000000000000000000000000000000000\n      dup2\n      mstore\n      0x04\n      add\n      tag_109\n      swap1\n      tag_110\n      jump\t// in\n    tag_109:\n      mload(0x40)\n      dup1\n      swap2\n      sub\n      swap1\n      revert\n    tag_108:\n        /* \"@openzeppelin/contracts/access/AccessControl.sol\":6106:6132  _revokeRole(role, account) */\n      tag_111\n        /* \"@openzeppelin/contracts/access/AccessControl.sol\":6118:6122  role */\n      dup3\n        /* \"@openzeppelin/contracts/access/AccessControl.sol\":6124:6131  account */\n      dup3\n        /* \"@openzeppelin/contracts/access/AccessControl.sol\":6106:6117  _revokeRole */\n      tag_112\n        /* \"@openzeppelin/contracts/access/AccessControl.sol\":6106:6132  _revokeRole(role, account) */\n      jump\t// in\n    tag_111:\n        /* \"@openzeppelin/contracts/access/AccessControl.sol\":5925:6139  function renounceRole(bytes32 role, address account) public virtual override {... */\n      pop\n      pop\n      jump\t// out\n        /* \"contracts/Vote.sol\":2111:2213  function regVoter(address account) public onlyOwner{... */\n    tag_53:\n        /* \"@openzeppelin/contracts/access/Ownable.sol\":1094:1107  _checkOwner() */\n      tag_114\n        /* \"@openzeppelin/contracts/access/Ownable.sol\":1094:1105  _checkOwner */\n      tag_115\n        /* \"@openzeppelin/contracts/access/Ownable.sol\":1094:1107  _checkOwner() */\n      jump\t// in\n    tag_114:\n        /* \"contracts/Vote.sol\":2172:2206  grantRole(INEC_EXEC_ROLE, account) */\n      tag_117\n        /* \"contracts/Vote.sol\":507:529  keccak256(\"INEC_EXEC\") */\n      0x082f6ed76e0352438e6a6e35c77719c3f04bf277fdc8fec7e5ff5f65e001d902\n        /* \"contracts/Vote.sol\":2198:2205  account */\n      dup3\n        /* \"contracts/Vote.sol\":2172:2181  grantRole */\n      tag_40\n        /* \"contracts/Vote.sol\":2172:2206  grantRole(INEC_EXEC_ROLE, account) */\n      jump\t// in\n    tag_117:\n        /* \"contracts/Vote.sol\":2111:2213  function regVoter(address account) public onlyOwner{... */\n      pop\n      jump\t// out\n        /* \"@openzeppelin/contracts/access/Ownable.sol\":1831:1932  function renounceOwnership() public virtual onlyOwner {... */\n    tag_55:\n        /* \"@openzeppelin/contracts/access/Ownable.sol\":1094:1107  _checkOwner() */\n      tag_119\n        /* \"@openzeppelin/contracts/access/Ownable.sol\":1094:1105  _checkOwner */\n      tag_115\n        /* \"@openzeppelin/contracts/access/Ownable.sol\":1094:1107  _checkOwner() */\n      jump\t// in\n    tag_119:\n        /* \"@openzeppelin/contracts/access/Ownable.sol\":1895:1925  _transferOwnership(address(0)) */\n      tag_121\n        /* \"@openzeppelin/contracts/access/Ownable.sol\":1922:1923  0 */\n      0x00\n        /* \"@openzeppelin/contracts/access/Ownable.sol\":1895:1913  _transferOwnership */\n      tag_122\n        /* \"@openzeppelin/contracts/access/Ownable.sol\":1895:1925  _transferOwnership(address(0)) */\n      jump\t// in\n    tag_121:\n        /* \"@openzeppelin/contracts/access/Ownable.sol\":1831:1932  function renounceOwnership() public virtual onlyOwner {... */\n      jump\t// out\n        /* \"@openzeppelin/contracts/access/Ownable.sol\":1201:1286  function owner() public view virtual returns (address) {... */\n    tag_57:\n        /* \"@openzeppelin/contracts/access/Ownable.sol\":1247:1254  address */\n      0x00\n        /* \"@openzeppelin/contracts/access/Ownable.sol\":1273:1279  _owner */\n      dup1\n      0x00\n      swap1\n      sload\n      swap1\n      0x0100\n      exp\n      swap1\n      div\n      0xffffffffffffffffffffffffffffffffffffffff\n      and\n        /* \"@openzeppelin/contracts/access/Ownable.sol\":1266:1279  return _owner */\n      swap1\n      pop\n        /* \"@openzeppelin/contracts/access/Ownable.sol\":1201:1286  function owner() public view virtual returns (address) {... */\n      swap1\n      jump\t// out\n        /* \"@openzeppelin/contracts/access/AccessControl.sol\":2895:3040  function hasRole(bytes32 role, address account) public view virtual override returns (bool) {... */\n    tag_62:\n        /* \"@openzeppelin/contracts/access/AccessControl.sol\":2981:2985  bool */\n      0x00\n        /* \"@openzeppelin/contracts/access/AccessControl.sol\":3004:3010  _roles */\n      0x01\n        /* \"@openzeppelin/contracts/access/AccessControl.sol\":3004:3016  _roles[role] */\n      0x00\n        /* \"@openzeppelin/contracts/access/AccessControl.sol\":3011:3015  role */\n      dup5\n        /* \"@openzeppelin/contracts/access/AccessControl.sol\":3004:3016  _roles[role] */\n      dup2\n      mstore\n      0x20\n      add\n      swap1\n      dup2\n      mstore\n      0x20\n      add\n      0x00\n      keccak256\n        /* \"@openzeppelin/contracts/access/AccessControl.sol\":3004:3024  _roles[role].members */\n      0x00\n      add\n        /* \"@openzeppelin/contracts/access/AccessControl.sol\":3004:3033  _roles[role].members[account] */\n      0x00\n        /* \"@openzeppelin/contracts/access/AccessControl.sol\":3025:3032  account */\n      dup4\n        /* \"@openzeppelin/contracts/access/AccessControl.sol\":3004:3033  _roles[role].members[account] */\n      0xffffffffffffffffffffffffffffffffffffffff\n      and\n      0xffffffffffffffffffffffffffffffffffffffff\n      and\n      dup2\n      mstore\n      0x20\n      add\n      swap1\n      dup2\n      mstore\n      0x20\n      add\n      0x00\n      keccak256\n      0x00\n      swap1\n      sload\n      swap1\n      0x0100\n      exp\n      swap1\n      div\n      0xff\n      and\n        /* \"@openzeppelin/contracts/access/AccessControl.sol\":2997:3033  return _roles[role].members[account] */\n      swap1\n      pop\n        /* \"@openzeppelin/contracts/access/AccessControl.sol\":2895:3040  function hasRole(bytes32 role, address account) public view virtual override returns (bool) {... */\n      swap3\n      swap2\n      pop\n      pop\n      jump\t// out\n        /* \"contracts/Vote.sol\":2294:2411  function retrieveCandidate(uint256 num) public view returns (candidate memory){... */\n    tag_66:\n        /* \"contracts/Vote.sol\":2355:2371  candidate memory */\n      tag_125\n      tag_126\n      jump\t// in\n    tag_125:\n        /* \"contracts/Vote.sol\":2389:2399  Candidates */\n      0x05\n        /* \"contracts/Vote.sol\":2389:2404  Candidates[num] */\n      0x00\n        /* \"contracts/Vote.sol\":2400:2403  num */\n      dup4\n        /* \"contracts/Vote.sol\":2389:2404  Candidates[num] */\n      dup2\n      mstore\n      0x20\n      add\n      swap1\n      dup2\n      mstore\n      0x20\n      add\n      0x00\n      keccak256\n        /* \"contracts/Vote.sol\":2382:2404  return Candidates[num] */\n      mload(0x40)\n      dup1\n      0x60\n      add\n      0x40\n      mstore\n      swap1\n      dup2\n      0x00\n      dup3\n      add\n      dup1\n      sload\n      tag_128\n      swap1\n      tag_100\n      jump\t// in\n    tag_128:\n      dup1\n      0x1f\n      add\n      0x20\n      dup1\n      swap2\n      div\n      mul\n      0x20\n      add\n      mload(0x40)\n      swap1\n      dup2\n      add\n      0x40\n      mstore\n      dup1\n      swap3\n      swap2\n      swap1\n      dup2\n      dup2\n      mstore\n      0x20\n      add\n      dup3\n      dup1\n      sload\n      tag_129\n      swap1\n      tag_100\n      jump\t// in\n    tag_129:\n      dup1\n      iszero\n      tag_130\n      jumpi\n      dup1\n      0x1f\n      lt\n      tag_131\n      jumpi\n      0x0100\n      dup1\n      dup4\n      sload\n      div\n      mul\n      dup4\n      mstore\n      swap2\n      0x20\n      add\n      swap2\n      jump(tag_130)\n    tag_131:\n      dup3\n      add\n      swap2\n      swap1\n      0x00\n      mstore\n      keccak256(0x00, 0x20)\n      swap1\n    tag_132:\n      dup2\n      sload\n      dup2\n      mstore\n      swap1\n      0x01\n      add\n      swap1\n      0x20\n      add\n      dup1\n      dup4\n      gt\n      tag_132\n      jumpi\n      dup3\n      swap1\n      sub\n      0x1f\n      and\n      dup3\n      add\n      swap2\n    tag_130:\n      pop\n      pop\n      pop\n      pop\n      pop\n      dup2\n      mstore\n      0x20\n      add\n      0x01\n      dup3\n      add\n      0x00\n      swap1\n      sload\n      swap1\n      0x0100\n      exp\n      swap1\n      div\n      0xffffffffffffffffffffffffffffffffffffffff\n      and\n      0xffffffffffffffffffffffffffffffffffffffff\n      and\n      0xffffffffffffffffffffffffffffffffffffffff\n      and\n      dup2\n      mstore\n      0x20\n      add\n      0x02\n      dup3\n      add\n      dup1\n      sload\n      tag_133\n      swap1\n      tag_100\n      jump\t// in\n    tag_133:\n      dup1\n      0x1f\n      add\n      0x20\n      dup1\n      swap2\n      div\n      mul\n      0x20\n      add\n      mload(0x40)\n      swap1\n      dup2\n      add\n      0x40\n      mstore\n      dup1\n      swap3\n      swap2\n      swap1\n      dup2\n      dup2\n      mstore\n      0x20\n      add\n      dup3\n      dup1\n      sload\n      tag_134\n      swap1\n      tag_100\n      jump\t// in\n    tag_134:\n      dup1\n      iszero\n      tag_135\n      jumpi\n      dup1\n      0x1f\n      lt\n      tag_136\n      jumpi\n      0x0100\n      dup1\n      dup4\n      sload\n      div\n      mul\n      dup4\n      mstore\n      swap2\n      0x20\n      add\n      swap2\n      jump(tag_135)\n    tag_136:\n      dup3\n      add\n      swap2\n      swap1\n      0x00\n      mstore\n      keccak256(0x00, 0x20)\n      swap1\n    tag_137:\n      dup2\n      sload\n      dup2\n      mstore\n      swap1\n      0x01\n      add\n      swap1\n      0x20\n      add\n      dup1\n      dup4\n      gt\n      tag_137\n      jumpi\n      dup3\n      swap1\n      sub\n      0x1f\n      and\n      dup3\n      add\n      swap2\n    tag_135:\n      pop\n      pop\n      pop\n      pop\n      pop\n      dup2\n      mstore\n      pop\n      pop\n      swap1\n      pop\n        /* \"contracts/Vote.sol\":2294:2411  function retrieveCandidate(uint256 num) public view returns (candidate memory){... */\n      swap2\n      swap1\n      pop\n      jump\t// out\n        /* \"@openzeppelin/contracts/access/AccessControl.sol\":2027:2076  bytes32 public constant DEFAULT_ADMIN_ROLE = 0x00 */\n    tag_70:\n        /* \"@openzeppelin/contracts/access/AccessControl.sol\":2072:2076  0x00 */\n      0x00\n        /* \"@openzeppelin/contracts/access/AccessControl.sol\":2027:2076  bytes32 public constant DEFAULT_ADMIN_ROLE = 0x00 */\n      dup1\n      shl\n      dup2\n      jump\t// out\n        /* \"@openzeppelin/contracts/access/AccessControl.sol\":5241:5388  function revokeRole(bytes32 role, address account) public virtual override onlyRole(getRoleAdmin(role)) {... */\n    tag_74:\n        /* \"@openzeppelin/contracts/access/AccessControl.sol\":5325:5343  getRoleAdmin(role) */\n      tag_138\n        /* \"@openzeppelin/contracts/access/AccessControl.sol\":5338:5342  role */\n      dup3\n        /* \"@openzeppelin/contracts/access/AccessControl.sol\":5325:5337  getRoleAdmin */\n      tag_31\n        /* \"@openzeppelin/contracts/access/AccessControl.sol\":5325:5343  getRoleAdmin(role) */\n      jump\t// in\n    tag_138:\n        /* \"@openzeppelin/contracts/access/AccessControl.sol\":2505:2521  _checkRole(role) */\n      tag_140\n        /* \"@openzeppelin/contracts/access/AccessControl.sol\":2516:2520  role */\n      dup2\n        /* \"@openzeppelin/contracts/access/AccessControl.sol\":2505:2515  _checkRole */\n      tag_93\n        /* \"@openzeppelin/contracts/access/AccessControl.sol\":2505:2521  _checkRole(role) */\n      jump\t// in\n    tag_140:\n        /* \"@openzeppelin/contracts/access/AccessControl.sol\":5355:5381  _revokeRole(role, account) */\n      tag_142\n        /* \"@openzeppelin/contracts/access/AccessControl.sol\":5367:5371  role */\n      dup4\n        /* \"@openzeppelin/contracts/access/AccessControl.sol\":5373:5380  account */\n      dup4\n        /* \"@openzeppelin/contracts/access/AccessControl.sol\":5355:5366  _revokeRole */\n      tag_112\n        /* \"@openzeppelin/contracts/access/AccessControl.sol\":5355:5381  _revokeRole(role, account) */\n      jump\t// in\n    tag_142:\n        /* \"@openzeppelin/contracts/access/AccessControl.sol\":5241:5388  function revokeRole(bytes32 role, address account) public virtual override onlyRole(getRoleAdmin(role)) {... */\n      pop\n      pop\n      pop\n      jump\t// out\n        /* \"contracts/Vote.sol\":1721:2020  function createCandidate(string memory name, address candAddress, uint256 partyNum) public isInecExec {... */\n    tag_78:\n        /* \"contracts/Vote.sol\":1024:1059  hasRole(INEC_EXEC_ROLE, msg.sender) */\n      tag_144\n        /* \"contracts/Vote.sol\":507:529  keccak256(\"INEC_EXEC\") */\n      0x082f6ed76e0352438e6a6e35c77719c3f04bf277fdc8fec7e5ff5f65e001d902\n        /* \"contracts/Vote.sol\":1048:1058  msg.sender */\n      caller\n        /* \"contracts/Vote.sol\":1024:1031  hasRole */\n      tag_62\n        /* \"contracts/Vote.sol\":1024:1059  hasRole(INEC_EXEC_ROLE, msg.sender) */\n      jump\t// in\n    tag_144:\n        /* \"contracts/Vote.sol\":1016:1095  require(hasRole(INEC_EXEC_ROLE, msg.sender), \"Caller is not an INEC executive\") */\n      tag_145\n      jumpi\n      mload(0x40)\n      0x08c379a000000000000000000000000000000000000000000000000000000000\n      dup2\n      mstore\n      0x04\n      add\n      tag_146\n      swap1\n      tag_147\n      jump\t// in\n    tag_146:\n      mload(0x40)\n      dup1\n      swap2\n      sub\n      swap1\n      revert\n    tag_145:\n        /* \"contracts/Vote.sol\":1865:1869  name */\n      dup3\n        /* \"contracts/Vote.sol\":1833:1843  Candidates */\n      0x05\n        /* \"contracts/Vote.sol\":1833:1857  Candidates[candidateNum] */\n      0x00\n        /* \"contracts/Vote.sol\":1844:1856  candidateNum */\n      sload(0x03)\n        /* \"contracts/Vote.sol\":1833:1857  Candidates[candidateNum] */\n      dup2\n      mstore\n      0x20\n      add\n      swap1\n      dup2\n      mstore\n      0x20\n      add\n      0x00\n      keccak256\n        /* \"contracts/Vote.sol\":1833:1862  Candidates[candidateNum].name */\n      0x00\n      add\n        /* \"contracts/Vote.sol\":1833:1869  Candidates[candidateNum].name = name */\n      swap1\n      dup1\n      mload\n      swap1\n      0x20\n      add\n      swap1\n      tag_149\n      swap3\n      swap2\n      swap1\n      tag_150\n      jump\t// in\n    tag_149:\n      pop\n        /* \"contracts/Vote.sol\":1911:1922  candAddress */\n      dup2\n        /* \"contracts/Vote.sol\":1879:1889  Candidates */\n      0x05\n        /* \"contracts/Vote.sol\":1879:1903  Candidates[candidateNum] */\n      0x00\n        /* \"contracts/Vote.sol\":1890:1902  candidateNum */\n      sload(0x03)\n        /* \"contracts/Vote.sol\":1879:1903  Candidates[candidateNum] */\n      dup2\n      mstore\n      0x20\n      add\n      swap1\n      dup2\n      mstore\n      0x20\n      add\n      0x00\n      keccak256\n        /* \"contracts/Vote.sol\":1879:1908  Candidates[candidateNum].addr */\n      0x01\n      add\n      0x00\n        /* \"contracts/Vote.sol\":1879:1922  Candidates[candidateNum].addr = candAddress */\n      0x0100\n      exp\n      dup2\n      sload\n      dup2\n      0xffffffffffffffffffffffffffffffffffffffff\n      mul\n      not\n      and\n      swap1\n      dup4\n      0xffffffffffffffffffffffffffffffffffffffff\n      and\n      mul\n      or\n      swap1\n      sstore\n      pop\n        /* \"contracts/Vote.sol\":1965:1970  party */\n      0x04\n        /* \"contracts/Vote.sol\":1971:1979  partyNum */\n      dup2\n        /* \"contracts/Vote.sol\":1965:1980  party[partyNum] */\n      dup2\n      sload\n      dup2\n      lt\n      tag_151\n      jumpi\n      tag_152\n      tag_153\n      jump\t// in\n    tag_152:\n    tag_151:\n      swap1\n      0x00\n      mstore\n      keccak256(0x00, 0x20)\n      add\n        /* \"contracts/Vote.sol\":1932:1942  Candidates */\n      0x05\n        /* \"contracts/Vote.sol\":1932:1956  Candidates[candidateNum] */\n      0x00\n        /* \"contracts/Vote.sol\":1943:1955  candidateNum */\n      sload(0x03)\n        /* \"contracts/Vote.sol\":1932:1956  Candidates[candidateNum] */\n      dup2\n      mstore\n      0x20\n      add\n      swap1\n      dup2\n      mstore\n      0x20\n      add\n      0x00\n      keccak256\n        /* \"contracts/Vote.sol\":1932:1962  Candidates[candidateNum].party */\n      0x02\n      add\n        /* \"contracts/Vote.sol\":1932:1980  Candidates[candidateNum].party = party[partyNum] */\n      swap1\n      dup1\n      sload\n      tag_155\n      swap1\n      tag_100\n      jump\t// in\n    tag_155:\n      tag_156\n      swap3\n      swap2\n      swap1\n      tag_157\n      jump\t// in\n    tag_156:\n      pop\n        /* \"contracts/Vote.sol\":1992:2004  candidateNum */\n      0x03\n      0x00\n        /* \"contracts/Vote.sol\":1992:2007  candidateNum ++ */\n      dup2\n      sload\n      dup1\n      swap3\n      swap2\n      swap1\n      tag_158\n      swap1\n      tag_159\n      jump\t// in\n    tag_158:\n      swap2\n      swap1\n      pop\n      sstore\n      pop\n        /* \"contracts/Vote.sol\":1721:2020  function createCandidate(string memory name, address candAddress, uint256 partyNum) public isInecExec {... */\n      pop\n      pop\n      pop\n      jump\t// out\n        /* \"contracts/Vote.sol\":1403:1511  function createInecExec(address account) public onlyOwner{... */\n    tag_81:\n        /* \"@openzeppelin/contracts/access/Ownable.sol\":1094:1107  _checkOwner() */\n      tag_161\n        /* \"@openzeppelin/contracts/access/Ownable.sol\":1094:1105  _checkOwner */\n      tag_115\n        /* \"@openzeppelin/contracts/access/Ownable.sol\":1094:1107  _checkOwner() */\n      jump\t// in\n    tag_161:\n        /* \"contracts/Vote.sol\":1470:1504  grantRole(INEC_EXEC_ROLE, account) */\n      tag_163\n        /* \"contracts/Vote.sol\":507:529  keccak256(\"INEC_EXEC\") */\n      0x082f6ed76e0352438e6a6e35c77719c3f04bf277fdc8fec7e5ff5f65e001d902\n        /* \"contracts/Vote.sol\":1496:1503  account */\n      dup3\n        /* \"contracts/Vote.sol\":1470:1479  grantRole */\n      tag_40\n        /* \"contracts/Vote.sol\":1470:1504  grantRole(INEC_EXEC_ROLE, account) */\n      jump\t// in\n    tag_163:\n        /* \"contracts/Vote.sol\":1403:1511  function createInecExec(address account) public onlyOwner{... */\n      pop\n      jump\t// out\n        /* \"@openzeppelin/contracts/access/Ownable.sol\":2081:2279  function transferOwnership(address newOwner) public virtual onlyOwner {... */\n    tag_84:\n        /* \"@openzeppelin/contracts/access/Ownable.sol\":1094:1107  _checkOwner() */\n      tag_165\n        /* \"@openzeppelin/contracts/access/Ownable.sol\":1094:1105  _checkOwner */\n      tag_115\n        /* \"@openzeppelin/contracts/access/Ownable.sol\":1094:1107  _checkOwner() */\n      jump\t// in\n    tag_165:\n        /* \"@openzeppelin/contracts/access/Ownable.sol\":2189:2190  0 */\n      0x00\n        /* \"@openzeppelin/contracts/access/Ownable.sol\":2169:2191  newOwner != address(0) */\n      0xffffffffffffffffffffffffffffffffffffffff\n      and\n        /* \"@openzeppelin/contracts/access/Ownable.sol\":2169:2177  newOwner */\n      dup2\n        /* \"@openzeppelin/contracts/access/Ownable.sol\":2169:2191  newOwner != address(0) */\n      0xffffffffffffffffffffffffffffffffffffffff\n      and\n      eq\n      iszero\n        /* \"@openzeppelin/contracts/access/Ownable.sol\":2161:2234  require(newOwner != address(0), \"Ownable: new owner is the zero address\") */\n      tag_167\n      jumpi\n      mload(0x40)\n      0x08c379a000000000000000000000000000000000000000000000000000000000\n      dup2\n      mstore\n      0x04\n      add\n      tag_168\n      swap1\n      tag_169\n      jump\t// in\n    tag_168:\n      mload(0x40)\n      dup1\n      swap2\n      sub\n      swap1\n      revert\n    tag_167:\n        /* \"@openzeppelin/contracts/access/Ownable.sol\":2244:2272  _transferOwnership(newOwner) */\n      tag_170\n        /* \"@openzeppelin/contracts/access/Ownable.sol\":2263:2271  newOwner */\n      dup2\n        /* \"@openzeppelin/contracts/access/Ownable.sol\":2244:2262  _transferOwnership */\n      tag_122\n        /* \"@openzeppelin/contracts/access/Ownable.sol\":2244:2272  _transferOwnership(newOwner) */\n      jump\t// in\n    tag_170:\n        /* \"@openzeppelin/contracts/access/Ownable.sol\":2081:2279  function transferOwnership(address newOwner) public virtual onlyOwner {... */\n      pop\n      jump\t// out\n        /* \"@openzeppelin/contracts/utils/introspection/ERC165.sol\":829:984  function supportsInterface(bytes4 interfaceId) public view virtual override returns (bool) {... */\n    tag_88:\n        /* \"@openzeppelin/contracts/utils/introspection/ERC165.sol\":914:918  bool */\n      0x00\n        /* \"@openzeppelin/contracts/utils/introspection/ERC165.sol\":952:977  type(IERC165).interfaceId */\n      0x01ffc9a700000000000000000000000000000000000000000000000000000000\n        /* \"@openzeppelin/contracts/utils/introspection/ERC165.sol\":937:977  interfaceId == type(IERC165).interfaceId */\n      not(0xffffffffffffffffffffffffffffffffffffffffffffffffffffffff)\n      and\n        /* \"@openzeppelin/contracts/utils/introspection/ERC165.sol\":937:948  interfaceId */\n      dup3\n        /* \"@openzeppelin/contracts/utils/introspection/ERC165.sol\":937:977  interfaceId == type(IERC165).interfaceId */\n      not(0xffffffffffffffffffffffffffffffffffffffffffffffffffffffff)\n      and\n      eq\n        /* \"@openzeppelin/contracts/utils/introspection/ERC165.sol\":930:977  return interfaceId == type(IERC165).interfaceId */\n      swap1\n      pop\n        /* \"@openzeppelin/contracts/utils/introspection/ERC165.sol\":829:984  function supportsInterface(bytes4 interfaceId) public view virtual override returns (bool) {... */\n      swap2\n      swap1\n      pop\n      jump\t// out\n        /* \"@openzeppelin/contracts/access/AccessControl.sol\":3334:3437  function _checkRole(bytes32 role) internal view virtual {... */\n    tag_93:\n        /* \"@openzeppelin/contracts/access/AccessControl.sol\":3400:3430  _checkRole(role, _msgSender()) */\n      tag_173\n        /* \"@openzeppelin/contracts/access/AccessControl.sol\":3411:3415  role */\n      dup2\n        /* \"@openzeppelin/contracts/access/AccessControl.sol\":3417:3429  _msgSender() */\n      tag_174\n        /* \"@openzeppelin/contracts/access/AccessControl.sol\":3417:3427  _msgSender */\n      tag_107\n        /* \"@openzeppelin/contracts/access/AccessControl.sol\":3417:3429  _msgSender() */\n      jump\t// in\n    tag_174:\n        /* \"@openzeppelin/contracts/access/AccessControl.sol\":3400:3410  _checkRole */\n      tag_175\n        /* \"@openzeppelin/contracts/access/AccessControl.sol\":3400:3430  _checkRole(role, _msgSender()) */\n      jump\t// in\n    tag_173:\n        /* \"@openzeppelin/contracts/access/AccessControl.sol\":3334:3437  function _checkRole(bytes32 role) internal view virtual {... */\n      pop\n      jump\t// out\n        /* \"@openzeppelin/contracts/access/AccessControl.sol\":7474:7707  function _grantRole(bytes32 role, address account) internal virtual {... */\n    tag_96:\n        /* \"@openzeppelin/contracts/access/AccessControl.sol\":7557:7579  hasRole(role, account) */\n      tag_177\n        /* \"@openzeppelin/contracts/access/AccessControl.sol\":7565:7569  role */\n      dup3\n        /* \"@openzeppelin/contracts/access/AccessControl.sol\":7571:7578  account */\n      dup3\n        /* \"@openzeppelin/contracts/access/AccessControl.sol\":7557:7564  hasRole */\n      tag_62\n        /* \"@openzeppelin/contracts/access/AccessControl.sol\":7557:7579  hasRole(role, account) */\n      jump\t// in\n    tag_177:\n        /* \"@openzeppelin/contracts/access/AccessControl.sol\":7552:7701  if (!hasRole(role, account)) {... */\n      tag_178\n      jumpi\n        /* \"@openzeppelin/contracts/access/AccessControl.sol\":7627:7631  true */\n      0x01\n        /* \"@openzeppelin/contracts/access/AccessControl.sol\":7595:7601  _roles */\n      dup1\n        /* \"@openzeppelin/contracts/access/AccessControl.sol\":7595:7607  _roles[role] */\n      0x00\n        /* \"@openzeppelin/contracts/access/AccessControl.sol\":7602:7606  role */\n      dup5\n        /* \"@openzeppelin/contracts/access/AccessControl.sol\":7595:7607  _roles[role] */\n      dup2\n      mstore\n      0x20\n      add\n      swap1\n      dup2\n      mstore\n      0x20\n      add\n      0x00\n      keccak256\n        /* \"@openzeppelin/contracts/access/AccessControl.sol\":7595:7615  _roles[role].members */\n      0x00\n      add\n        /* \"@openzeppelin/contracts/access/AccessControl.sol\":7595:7624  _roles[role].members[account] */\n      0x00\n        /* \"@openzeppelin/contracts/access/AccessControl.sol\":7616:7623  account */\n      dup4\n        /* \"@openzeppelin/contracts/access/AccessControl.sol\":7595:7624  _roles[role].members[account] */\n      0xffffffffffffffffffffffffffffffffffffffff\n      and\n      0xffffffffffffffffffffffffffffffffffffffff\n      and\n      dup2\n      mstore\n      0x20\n      add\n      swap1\n      dup2\n      mstore\n      0x20\n      add\n      0x00\n      keccak256\n      0x00\n        /* \"@openzeppelin/contracts/access/AccessControl.sol\":7595:7631  _roles[role].members[account] = true */\n      0x0100\n      exp\n      dup2\n      sload\n      dup2\n      0xff\n      mul\n      not\n      and\n      swap1\n      dup4\n      iszero\n      iszero\n      mul\n      or\n      swap1\n      sstore\n      pop\n        /* \"@openzeppelin/contracts/access/AccessControl.sol\":7677:7689  _msgSender() */\n      tag_179\n        /* \"@openzeppelin/contracts/access/AccessControl.sol\":7677:7687  _msgSender */\n      tag_107\n        /* \"@openzeppelin/contracts/access/AccessControl.sol\":7677:7689  _msgSender() */\n      jump\t// in\n    tag_179:\n        /* \"@openzeppelin/contracts/access/AccessControl.sol\":7650:7690  RoleGranted(role, account, _msgSender()) */\n      0xffffffffffffffffffffffffffffffffffffffff\n      and\n        /* \"@openzeppelin/contracts/access/AccessControl.sol\":7668:7675  account */\n      dup2\n        /* \"@openzeppelin/contracts/access/AccessControl.sol\":7650:7690  RoleGranted(role, account, _msgSender()) */\n      0xffffffffffffffffffffffffffffffffffffffff\n      and\n        /* \"@openzeppelin/contracts/access/AccessControl.sol\":7662:7666  role */\n      dup4\n        /* \"@openzeppelin/contracts/access/AccessControl.sol\":7650:7690  RoleGranted(role, account, _msgSender()) */\n      0x2f8788117e7eff1d82e926ec794901d17c78024a50270940304540a733656f0d\n      mload(0x40)\n      mload(0x40)\n      dup1\n      swap2\n      sub\n      swap1\n      log4\n        /* \"@openzeppelin/contracts/access/AccessControl.sol\":7552:7701  if (!hasRole(role, account)) {... */\n    tag_178:\n        /* \"@openzeppelin/contracts/access/AccessControl.sol\":7474:7707  function _grantRole(bytes32 role, address account) internal virtual {... */\n      pop\n      pop\n      jump\t// out\n        /* \"@openzeppelin/contracts/utils/Context.sol\":640:736  function _msgSender() internal view virtual returns (address) {... */\n    tag_107:\n        /* \"@openzeppelin/contracts/utils/Context.sol\":693:700  address */\n      0x00\n        /* \"@openzeppelin/contracts/utils/Context.sol\":719:729  msg.sender */\n      caller\n        /* \"@openzeppelin/contracts/utils/Context.sol\":712:729  return msg.sender */\n      swap1\n      pop\n        /* \"@openzeppelin/contracts/utils/Context.sol\":640:736  function _msgSender() internal view virtual returns (address) {... */\n      swap1\n      jump\t// out\n        /* \"@openzeppelin/contracts/access/AccessControl.sol\":7878:8112  function _revokeRole(bytes32 role, address account) internal virtual {... */\n    tag_112:\n        /* \"@openzeppelin/contracts/access/AccessControl.sol\":7961:7983  hasRole(role, account) */\n      tag_182\n        /* \"@openzeppelin/contracts/access/AccessControl.sol\":7969:7973  role */\n      dup3\n        /* \"@openzeppelin/contracts/access/AccessControl.sol\":7975:7982  account */\n      dup3\n        /* \"@openzeppelin/contracts/access/AccessControl.sol\":7961:7968  hasRole */\n      tag_62\n        /* \"@openzeppelin/contracts/access/AccessControl.sol\":7961:7983  hasRole(role, account) */\n      jump\t// in\n    tag_182:\n        /* \"@openzeppelin/contracts/access/AccessControl.sol\":7957:8106  if (hasRole(role, account)) {... */\n      iszero\n      tag_183\n      jumpi\n        /* \"@openzeppelin/contracts/access/AccessControl.sol\":8031:8036  false */\n      0x00\n        /* \"@openzeppelin/contracts/access/AccessControl.sol\":7999:8005  _roles */\n      0x01\n        /* \"@openzeppelin/contracts/access/AccessControl.sol\":7999:8011  _roles[role] */\n      0x00\n        /* \"@openzeppelin/contracts/access/AccessControl.sol\":8006:8010  role */\n      dup5\n        /* \"@openzeppelin/contracts/access/AccessControl.sol\":7999:8011  _roles[role] */\n      dup2\n      mstore\n      0x20\n      add\n      swap1\n      dup2\n      mstore\n      0x20\n      add\n      0x00\n      keccak256\n        /* \"@openzeppelin/contracts/access/AccessControl.sol\":7999:8019  _roles[role].members */\n      0x00\n      add\n        /* \"@openzeppelin/contracts/access/AccessControl.sol\":7999:8028  _roles[role].members[account] */\n      0x00\n        /* \"@openzeppelin/contracts/access/AccessControl.sol\":8020:8027  account */\n      dup4\n        /* \"@openzeppelin/contracts/access/AccessControl.sol\":7999:8028  _roles[role].members[account] */\n      0xffffffffffffffffffffffffffffffffffffffff\n      and\n      0xffffffffffffffffffffffffffffffffffffffff\n      and\n      dup2\n      mstore\n      0x20\n      add\n      swap1\n      dup2\n      mstore\n      0x20\n      add\n      0x00\n      keccak256\n      0x00\n        /* \"@openzeppelin/contracts/access/AccessControl.sol\":7999:8036  _roles[role].members[account] = false */\n      0x0100\n      exp\n      dup2\n      sload\n      dup2\n      0xff\n      mul\n      not\n      and\n      swap1\n      dup4\n      iszero\n      iszero\n      mul\n      or\n      swap1\n      sstore\n      pop\n        /* \"@openzeppelin/contracts/access/AccessControl.sol\":8082:8094  _msgSender() */\n      tag_184\n        /* \"@openzeppelin/contracts/access/AccessControl.sol\":8082:8092  _msgSender */\n      tag_107\n        /* \"@openzeppelin/contracts/access/AccessControl.sol\":8082:8094  _msgSender() */\n      jump\t// in\n    tag_184:\n        /* \"@openzeppelin/contracts/access/AccessControl.sol\":8055:8095  RoleRevoked(role, account, _msgSender()) */\n      0xffffffffffffffffffffffffffffffffffffffff\n      and\n        /* \"@openzeppelin/contracts/access/AccessControl.sol\":8073:8080  account */\n      dup2\n        /* \"@openzeppelin/contracts/access/AccessControl.sol\":8055:8095  RoleRevoked(role, account, _msgSender()) */\n      0xffffffffffffffffffffffffffffffffffffffff\n      and\n        /* \"@openzeppelin/contracts/access/AccessControl.sol\":8067:8071  role */\n      dup4\n        /* \"@openzeppelin/contracts/access/AccessControl.sol\":8055:8095  RoleRevoked(role, account, _msgSender()) */\n      0xf6391f5c32d9c69d2a47ea670b442974b53935d1edc7fd64eb21e047a839171b\n      mload(0x40)\n      mload(0x40)\n      dup1\n      swap2\n      sub\n      swap1\n      log4\n        /* \"@openzeppelin/contracts/access/AccessControl.sol\":7957:8106  if (hasRole(role, account)) {... */\n    tag_183:\n        /* \"@openzeppelin/contracts/access/AccessControl.sol\":7878:8112  function _revokeRole(bytes32 role, address account) internal virtual {... */\n      pop\n      pop\n      jump\t// out\n        /* \"@openzeppelin/contracts/access/Ownable.sol\":1359:1489  function _checkOwner() internal view virtual {... */\n    tag_115:\n        /* \"@openzeppelin/contracts/access/Ownable.sol\":1433:1445  _msgSender() */\n      tag_186\n        /* \"@openzeppelin/contracts/access/Ownable.sol\":1433:1443  _msgSender */\n      tag_107\n        /* \"@openzeppelin/contracts/access/Ownable.sol\":1433:1445  _msgSender() */\n      jump\t// in\n    tag_186:\n        /* \"@openzeppelin/contracts/access/Ownable.sol\":1422:1445  owner() == _msgSender() */\n      0xffffffffffffffffffffffffffffffffffffffff\n      and\n        /* \"@openzeppelin/contracts/access/Ownable.sol\":1422:1429  owner() */\n      tag_187\n        /* \"@openzeppelin/contracts/access/Ownable.sol\":1422:1427  owner */\n      tag_57\n        /* \"@openzeppelin/contracts/access/Ownable.sol\":1422:1429  owner() */\n      jump\t// in\n    tag_187:\n        /* \"@openzeppelin/contracts/access/Ownable.sol\":1422:1445  owner() == _msgSender() */\n      0xffffffffffffffffffffffffffffffffffffffff\n      and\n      eq\n        /* \"@openzeppelin/contracts/access/Ownable.sol\":1414:1482  require(owner() == _msgSender(), \"Ownable: caller is not the owner\") */\n      tag_188\n      jumpi\n      mload(0x40)\n      0x08c379a000000000000000000000000000000000000000000000000000000000\n      dup2\n      mstore\n      0x04\n      add\n      tag_189\n      swap1\n      tag_190\n      jump\t// in\n    tag_189:\n      mload(0x40)\n      dup1\n      swap2\n      sub\n      swap1\n      revert\n    tag_188:\n        /* \"@openzeppelin/contracts/access/Ownable.sol\":1359:1489  function _checkOwner() internal view virtual {... */\n      jump\t// out\n        /* \"@openzeppelin/contracts/access/Ownable.sol\":2433:2620  function _transferOwnership(address newOwner) internal virtual {... */\n    tag_122:\n        /* \"@openzeppelin/contracts/access/Ownable.sol\":2506:2522  address oldOwner */\n      0x00\n        /* \"@openzeppelin/contracts/access/Ownable.sol\":2525:2531  _owner */\n      dup1\n      0x00\n      swap1\n      sload\n      swap1\n      0x0100\n      exp\n      swap1\n      div\n      0xffffffffffffffffffffffffffffffffffffffff\n      and\n        /* \"@openzeppelin/contracts/access/Ownable.sol\":2506:2531  address oldOwner = _owner */\n      swap1\n      pop\n        /* \"@openzeppelin/contracts/access/Ownable.sol\":2550:2558  newOwner */\n      dup2\n        /* \"@openzeppelin/contracts/access/Ownable.sol\":2541:2547  _owner */\n      0x00\n      dup1\n        /* \"@openzeppelin/contracts/access/Ownable.sol\":2541:2558  _owner = newOwner */\n      0x0100\n      exp\n      dup2\n      sload\n      dup2\n      0xffffffffffffffffffffffffffffffffffffffff\n      mul\n      not\n      and\n      swap1\n      dup4\n      0xffffffffffffffffffffffffffffffffffffffff\n      and\n      mul\n      or\n      swap1\n      sstore\n      pop\n        /* \"@openzeppelin/contracts/access/Ownable.sol\":2604:2612  newOwner */\n      dup2\n        /* \"@openzeppelin/contracts/access/Ownable.sol\":2573:2613  OwnershipTransferred(oldOwner, newOwner) */\n      0xffffffffffffffffffffffffffffffffffffffff\n      and\n        /* \"@openzeppelin/contracts/access/Ownable.sol\":2594:2602  oldOwner */\n      dup2\n        /* \"@openzeppelin/contracts/access/Ownable.sol\":2573:2613  OwnershipTransferred(oldOwner, newOwner) */\n      0xffffffffffffffffffffffffffffffffffffffff\n      and\n      0x8be0079c531659141344cd1fd0a4f28419497f9722a3daafe3b4186f6b6457e0\n      mload(0x40)\n      mload(0x40)\n      dup1\n      swap2\n      sub\n      swap1\n      log3\n        /* \"@openzeppelin/contracts/access/Ownable.sol\":2496:2620  {... */\n      pop\n        /* \"@openzeppelin/contracts/access/Ownable.sol\":2433:2620  function _transferOwnership(address newOwner) internal virtual {... */\n      pop\n      jump\t// out\n        /* \"@openzeppelin/contracts/access/AccessControl.sol\":3718:4210  function _checkRole(bytes32 role, address account) internal view virtual {... */\n    tag_175:\n        /* \"@openzeppelin/contracts/access/AccessControl.sol\":3806:3828  hasRole(role, account) */\n      tag_193\n        /* \"@openzeppelin/contracts/access/AccessControl.sol\":3814:3818  role */\n      dup3\n        /* \"@openzeppelin/contracts/access/AccessControl.sol\":3820:3827  account */\n      dup3\n        /* \"@openzeppelin/contracts/access/AccessControl.sol\":3806:3813  hasRole */\n      tag_62\n        /* \"@openzeppelin/contracts/access/AccessControl.sol\":3806:3828  hasRole(role, account) */\n      jump\t// in\n    tag_193:\n        /* \"@openzeppelin/contracts/access/AccessControl.sol\":3801:4204  if (!hasRole(role, account)) {... */\n      tag_194\n      jumpi\n        /* \"@openzeppelin/contracts/access/AccessControl.sol\":3989:4030  Strings.toHexString(uint160(account), 20) */\n      tag_195\n        /* \"@openzeppelin/contracts/access/AccessControl.sol\":4017:4024  account */\n      dup2\n        /* \"@openzeppelin/contracts/access/AccessControl.sol\":3989:4030  Strings.toHexString(uint160(account), 20) */\n      0xffffffffffffffffffffffffffffffffffffffff\n      and\n        /* \"@openzeppelin/contracts/access/AccessControl.sol\":4027:4029  20 */\n      0x14\n        /* \"@openzeppelin/contracts/access/AccessControl.sol\":3989:4008  Strings.toHexString */\n      tag_196\n        /* \"@openzeppelin/contracts/access/AccessControl.sol\":3989:4030  Strings.toHexString(uint160(account), 20) */\n      jump\t// in\n    tag_195:\n        /* \"@openzeppelin/contracts/access/AccessControl.sol\":4101:4139  Strings.toHexString(uint256(role), 32) */\n      tag_197\n        /* \"@openzeppelin/contracts/access/AccessControl.sol\":4129:4133  role */\n      dup4\n        /* \"@openzeppelin/contracts/access/AccessControl.sol\":4121:4134  uint256(role) */\n      0x00\n      shr\n        /* \"@openzeppelin/contracts/access/AccessControl.sol\":4136:4138  32 */\n      0x20\n        /* \"@openzeppelin/contracts/access/AccessControl.sol\":4101:4120  Strings.toHexString */\n      tag_196\n        /* \"@openzeppelin/contracts/access/AccessControl.sol\":4101:4139  Strings.toHexString(uint256(role), 32) */\n      jump\t// in\n    tag_197:\n        /* \"@openzeppelin/contracts/access/AccessControl.sol\":3896:4161  abi.encodePacked(... */\n      add(0x20, mload(0x40))\n      tag_198\n      swap3\n      swap2\n      swap1\n      tag_199\n      jump\t// in\n    tag_198:\n      mload(0x40)\n      0x20\n      dup2\n      dup4\n      sub\n      sub\n      dup2\n      mstore\n      swap1\n      0x40\n      mstore\n        /* \"@openzeppelin/contracts/access/AccessControl.sol\":3844:4193  revert(... */\n      mload(0x40)\n      0x08c379a000000000000000000000000000000000000000000000000000000000\n      dup2\n      mstore\n      0x04\n      add\n      tag_200\n      swap2\n      swap1\n      tag_46\n      jump\t// in\n    tag_200:\n      mload(0x40)\n      dup1\n      swap2\n      sub\n      swap1\n      revert\n        /* \"@openzeppelin/contracts/access/AccessControl.sol\":3801:4204  if (!hasRole(role, account)) {... */\n    tag_194:\n        /* \"@openzeppelin/contracts/access/AccessControl.sol\":3718:4210  function _checkRole(bytes32 role, address account) internal view virtual {... */\n      pop\n      pop\n      jump\t// out\n        /* \"@openzeppelin/contracts/utils/Strings.sol\":1652:2093  function toHexString(uint256 value, uint256 length) internal pure returns (string memory) {... */\n    tag_196:\n        /* \"@openzeppelin/contracts/utils/Strings.sol\":1727:1740  string memory */\n      0x60\n        /* \"@openzeppelin/contracts/utils/Strings.sol\":1752:1771  bytes memory buffer */\n      0x00\n        /* \"@openzeppelin/contracts/utils/Strings.sol\":1797:1798  2 */\n      0x02\n        /* \"@openzeppelin/contracts/utils/Strings.sol\":1788:1794  length */\n      dup4\n        /* \"@openzeppelin/contracts/utils/Strings.sol\":1784:1785  2 */\n      0x02\n        /* \"@openzeppelin/contracts/utils/Strings.sol\":1784:1794  2 * length */\n      tag_202\n      swap2\n      swap1\n      tag_203\n      jump\t// in\n    tag_202:\n        /* \"@openzeppelin/contracts/utils/Strings.sol\":1784:1798  2 * length + 2 */\n      tag_204\n      swap2\n      swap1\n      tag_205\n      jump\t// in\n    tag_204:\n        /* \"@openzeppelin/contracts/utils/Strings.sol\":1774:1799  new bytes(2 * length + 2) */\n      0xffffffffffffffff\n      dup2\n      gt\n      iszero\n      tag_206\n      jumpi\n      tag_207\n      tag_208\n      jump\t// in\n    tag_207:\n    tag_206:\n      mload(0x40)\n      swap1\n      dup1\n      dup3\n      mstore\n      dup1\n      0x1f\n      add\n      not(0x1f)\n      and\n      0x20\n      add\n      dup3\n      add\n      0x40\n      mstore\n      dup1\n      iszero\n      tag_209\n      jumpi\n      dup2\n      0x20\n      add\n      0x01\n      dup3\n      mul\n      dup1\n      calldatasize\n      dup4\n      calldatacopy\n      dup1\n      dup3\n      add\n      swap2\n      pop\n      pop\n      swap1\n      pop\n    tag_209:\n      pop\n        /* \"@openzeppelin/contracts/utils/Strings.sol\":1752:1799  bytes memory buffer = new bytes(2 * length + 2) */\n      swap1\n      pop\n        /* \"@openzeppelin/contracts/utils/Strings.sol\":1809:1824  buffer[0] = \"0\" */\n      0x3000000000000000000000000000000000000000000000000000000000000000\n        /* \"@openzeppelin/contracts/utils/Strings.sol\":1809:1815  buffer */\n      dup2\n        /* \"@openzeppelin/contracts/utils/Strings.sol\":1816:1817  0 */\n      0x00\n        /* \"@openzeppelin/contracts/utils/Strings.sol\":1809:1818  buffer[0] */\n      dup2\n      mload\n      dup2\n      lt\n      tag_210\n      jumpi\n      tag_211\n      tag_153\n      jump\t// in\n    tag_211:\n    tag_210:\n      0x20\n      add\n      add\n        /* \"@openzeppelin/contracts/utils/Strings.sol\":1809:1824  buffer[0] = \"0\" */\n      swap1\n      not(0xffffffffffffffffffffffffffffffffffffffffffffffffffffffffffffff)\n      and\n      swap1\n      dup2\n      0x00\n      byte\n      swap1\n      mstore8\n      pop\n        /* \"@openzeppelin/contracts/utils/Strings.sol\":1834:1849  buffer[1] = \"x\" */\n      0x7800000000000000000000000000000000000000000000000000000000000000\n        /* \"@openzeppelin/contracts/utils/Strings.sol\":1834:1840  buffer */\n      dup2\n        /* \"@openzeppelin/contracts/utils/Strings.sol\":1841:1842  1 */\n      0x01\n        /* \"@openzeppelin/contracts/utils/Strings.sol\":1834:1843  buffer[1] */\n      dup2\n      mload\n      dup2\n      lt\n      tag_212\n      jumpi\n      tag_213\n      tag_153\n      jump\t// in\n    tag_213:\n    tag_212:\n      0x20\n      add\n      add\n        /* \"@openzeppelin/contracts/utils/Strings.sol\":1834:1849  buffer[1] = \"x\" */\n      swap1\n      not(0xffffffffffffffffffffffffffffffffffffffffffffffffffffffffffffff)\n      and\n      swap1\n      dup2\n      0x00\n      byte\n      swap1\n      mstore8\n      pop\n        /* \"@openzeppelin/contracts/utils/Strings.sol\":1864:1873  uint256 i */\n      0x00\n        /* \"@openzeppelin/contracts/utils/Strings.sol\":1889:1890  1 */\n      0x01\n        /* \"@openzeppelin/contracts/utils/Strings.sol\":1880:1886  length */\n      dup5\n        /* \"@openzeppelin/contracts/utils/Strings.sol\":1876:1877  2 */\n      0x02\n        /* \"@openzeppelin/contracts/utils/Strings.sol\":1876:1886  2 * length */\n      tag_217\n      swap2\n      swap1\n      tag_203\n      jump\t// in\n    tag_217:\n        /* \"@openzeppelin/contracts/utils/Strings.sol\":1876:1890  2 * length + 1 */\n      tag_218\n      swap2\n      swap1\n      tag_205\n      jump\t// in\n    tag_218:\n        /* \"@openzeppelin/contracts/utils/Strings.sol\":1864:1890  uint256 i = 2 * length + 1 */\n      swap1\n      pop\n        /* \"@openzeppelin/contracts/utils/Strings.sol\":1859:1991  for (uint256 i = 2 * length + 1; i > 1; --i) {... */\n    tag_214:\n        /* \"@openzeppelin/contracts/utils/Strings.sol\":1896:1897  1 */\n      0x01\n        /* \"@openzeppelin/contracts/utils/Strings.sol\":1892:1893  i */\n      dup2\n        /* \"@openzeppelin/contracts/utils/Strings.sol\":1892:1897  i > 1 */\n      gt\n        /* \"@openzeppelin/contracts/utils/Strings.sol\":1859:1991  for (uint256 i = 2 * length + 1; i > 1; --i) {... */\n      iszero\n      tag_215\n      jumpi\n        /* \"@openzeppelin/contracts/utils/Strings.sol\":1930:1942  _HEX_SYMBOLS */\n      0x3031323334353637383961626364656600000000000000000000000000000000\n        /* \"@openzeppelin/contracts/utils/Strings.sol\":1951:1954  0xf */\n      0x0f\n        /* \"@openzeppelin/contracts/utils/Strings.sol\":1943:1948  value */\n      dup7\n        /* \"@openzeppelin/contracts/utils/Strings.sol\":1943:1954  value & 0xf */\n      and\n        /* \"@openzeppelin/contracts/utils/Strings.sol\":1930:1955  _HEX_SYMBOLS[value & 0xf] */\n      0x10\n      dup2\n      lt\n      tag_219\n      jumpi\n      tag_220\n      tag_153\n      jump\t// in\n    tag_220:\n    tag_219:\n      byte\n      0xf8\n      shl\n        /* \"@openzeppelin/contracts/utils/Strings.sol\":1918:1924  buffer */\n      dup3\n        /* \"@openzeppelin/contracts/utils/Strings.sol\":1925:1926  i */\n      dup3\n        /* \"@openzeppelin/contracts/utils/Strings.sol\":1918:1927  buffer[i] */\n      dup2\n      mload\n      dup2\n      lt\n      tag_221\n      jumpi\n      tag_222\n      tag_153\n      jump\t// in\n    tag_222:\n    tag_221:\n      0x20\n      add\n      add\n        /* \"@openzeppelin/contracts/utils/Strings.sol\":1918:1955  buffer[i] = _HEX_SYMBOLS[value & 0xf] */\n      swap1\n      not(0xffffffffffffffffffffffffffffffffffffffffffffffffffffffffffffff)\n      and\n      swap1\n      dup2\n      0x00\n      byte\n      swap1\n      mstore8\n      pop\n        /* \"@openzeppelin/contracts/utils/Strings.sol\":1979:1980  4 */\n      0x04\n        /* \"@openzeppelin/contracts/utils/Strings.sol\":1969:1980  value >>= 4 */\n      dup6\n      swap1\n      shr\n      swap5\n      pop\n        /* \"@openzeppelin/contracts/utils/Strings.sol\":1899:1902  --i */\n      dup1\n      tag_223\n      swap1\n      tag_224\n      jump\t// in\n    tag_223:\n      swap1\n      pop\n        /* \"@openzeppelin/contracts/utils/Strings.sol\":1859:1991  for (uint256 i = 2 * length + 1; i > 1; --i) {... */\n      jump(tag_214)\n    tag_215:\n      pop\n        /* \"@openzeppelin/contracts/utils/Strings.sol\":2017:2018  0 */\n      0x00\n        /* \"@openzeppelin/contracts/utils/Strings.sol\":2008:2013  value */\n      dup5\n        /* \"@openzeppelin/contracts/utils/Strings.sol\":2008:2018  value == 0 */\n      eq\n        /* \"@openzeppelin/contracts/utils/Strings.sol\":2000:2055  require(value == 0, \"Strings: hex length insufficient\") */\n      tag_225\n      jumpi\n      mload(0x40)\n      0x08c379a000000000000000000000000000000000000000000000000000000000\n      dup2\n      mstore\n      0x04\n      add\n      tag_226\n      swap1\n      tag_227\n      jump\t// in\n    tag_226:\n      mload(0x40)\n      dup1\n      swap2\n      sub\n      swap1\n      revert\n    tag_225:\n        /* \"@openzeppelin/contracts/utils/Strings.sol\":2079:2085  buffer */\n      dup1\n        /* \"@openzeppelin/contracts/utils/Strings.sol\":2065:2086  return string(buffer) */\n      swap2\n      pop\n      pop\n        /* \"@openzeppelin/contracts/utils/Strings.sol\":1652:2093  function toHexString(uint256 value, uint256 length) internal pure returns (string memory) {... */\n      swap3\n      swap2\n      pop\n      pop\n      jump\t// out\n    tag_126:\n      mload(0x40)\n      dup1\n      0x60\n      add\n      0x40\n      mstore\n      dup1\n      0x60\n      dup2\n      mstore\n      0x20\n      add\n      and(0xffffffffffffffffffffffffffffffffffffffff, 0x00)\n      dup2\n      mstore\n      0x20\n      add\n      0x60\n      dup2\n      mstore\n      pop\n      swap1\n      jump\t// out\n    tag_150:\n      dup3\n      dup1\n      sload\n      tag_228\n      swap1\n      tag_100\n      jump\t// in\n    tag_228:\n      swap1\n      0x00\n      mstore\n      keccak256(0x00, 0x20)\n      swap1\n      0x1f\n      add\n      0x20\n      swap1\n      div\n      dup2\n      add\n      swap3\n      dup3\n      tag_230\n      jumpi\n      0x00\n      dup6\n      sstore\n      jump(tag_229)\n    tag_230:\n      dup3\n      0x1f\n      lt\n      tag_231\n      jumpi\n      dup1\n      mload\n      not(0xff)\n      and\n      dup4\n      dup1\n      add\n      or\n      dup6\n      sstore\n      jump(tag_229)\n    tag_231:\n      dup3\n      dup1\n      add\n      0x01\n      add\n      dup6\n      sstore\n      dup3\n      iszero\n      tag_229\n      jumpi\n      swap2\n      dup3\n      add\n    tag_232:\n      dup3\n      dup2\n      gt\n      iszero\n      tag_233\n      jumpi\n      dup3\n      mload\n      dup3\n      sstore\n      swap2\n      0x20\n      add\n      swap2\n      swap1\n      0x01\n      add\n      swap1\n      jump(tag_232)\n    tag_233:\n    tag_229:\n      pop\n      swap1\n      pop\n      tag_234\n      swap2\n      swap1\n      tag_235\n      jump\t// in\n    tag_234:\n      pop\n      swap1\n      jump\t// out\n    tag_157:\n      dup3\n      dup1\n      sload\n      tag_236\n      swap1\n      tag_100\n      jump\t// in\n    tag_236:\n      swap1\n      0x00\n      mstore\n      keccak256(0x00, 0x20)\n      swap1\n      0x1f\n      add\n      0x20\n      swap1\n      div\n      dup2\n      add\n      swap3\n      dup3\n      tag_238\n      jumpi\n      0x00\n      dup6\n      sstore\n      jump(tag_237)\n    tag_238:\n      dup3\n      0x1f\n      lt\n      tag_239\n      jumpi\n      dup1\n      sload\n      dup6\n      sstore\n      jump(tag_237)\n    tag_239:\n      dup3\n      dup1\n      add\n      0x01\n      add\n      dup6\n      sstore\n      dup3\n      iszero\n      tag_237\n      jumpi\n      0x00\n      mstore\n      keccak256(0x00, 0x20)\n      swap2\n      0x1f\n      add\n      0x20\n      swap1\n      div\n      dup3\n      add\n    tag_240:\n      dup3\n      dup2\n      gt\n      iszero\n      tag_241\n      jumpi\n      dup3\n      sload\n      dup3\n      sstore\n      swap2\n      0x01\n      add\n      swap2\n      swap1\n      0x01\n      add\n      swap1\n      jump(tag_240)\n    tag_241:\n    tag_237:\n      pop\n      swap1\n      pop\n      tag_242\n      swap2\n      swap1\n      tag_235\n      jump\t// in\n    tag_242:\n      pop\n      swap1\n      jump\t// out\n    tag_235:\n    tag_243:\n      dup1\n      dup3\n      gt\n      iszero\n      tag_244\n      jumpi\n      0x00\n      dup2\n      0x00\n      swap1\n      sstore\n      pop\n      0x01\n      add\n      jump(tag_243)\n    tag_244:\n      pop\n      swap1\n      jump\t// out\n        /* \"#utility.yul\":7:419   */\n    tag_246:\n        /* \"#utility.yul\":85:90   */\n      0x00\n        /* \"#utility.yul\":110:176   */\n      tag_248\n        /* \"#utility.yul\":126:175   */\n      tag_249\n        /* \"#utility.yul\":168:174   */\n      dup5\n        /* \"#utility.yul\":126:175   */\n      tag_250\n      jump\t// in\n    tag_249:\n        /* \"#utility.yul\":110:176   */\n      tag_251\n      jump\t// in\n    tag_248:\n        /* \"#utility.yul\":101:176   */\n      swap1\n      pop\n        /* \"#utility.yul\":199:205   */\n      dup3\n        /* \"#utility.yul\":192:197   */\n      dup2\n        /* \"#utility.yul\":185:206   */\n      mstore\n        /* \"#utility.yul\":237:241   */\n      0x20\n        /* \"#utility.yul\":230:235   */\n      dup2\n        /* \"#utility.yul\":226:242   */\n      add\n        /* \"#utility.yul\":275:278   */\n      dup5\n        /* \"#utility.yul\":266:272   */\n      dup5\n        /* \"#utility.yul\":261:264   */\n      dup5\n        /* \"#utility.yul\":257:273   */\n      add\n        /* \"#utility.yul\":254:279   */\n      gt\n        /* \"#utility.yul\":251:363   */\n      iszero\n      tag_252\n      jumpi\n        /* \"#utility.yul\":282:361   */\n      tag_253\n      tag_254\n      jump\t// in\n    tag_253:\n        /* \"#utility.yul\":251:363   */\n    tag_252:\n        /* \"#utility.yul\":372:413   */\n      tag_255\n        /* \"#utility.yul\":406:412   */\n      dup5\n        /* \"#utility.yul\":401:404   */\n      dup3\n        /* \"#utility.yul\":396:399   */\n      dup6\n        /* \"#utility.yul\":372:413   */\n      tag_256\n      jump\t// in\n    tag_255:\n        /* \"#utility.yul\":91:419   */\n      pop\n        /* \"#utility.yul\":7:419   */\n      swap4\n      swap3\n      pop\n      pop\n      pop\n      jump\t// out\n        /* \"#utility.yul\":425:564   */\n    tag_257:\n        /* \"#utility.yul\":471:476   */\n      0x00\n        /* \"#utility.yul\":509:515   */\n      dup2\n        /* \"#utility.yul\":496:516   */\n      calldataload\n        /* \"#utility.yul\":487:516   */\n      swap1\n      pop\n        /* \"#utility.yul\":525:558   */\n      tag_259\n        /* \"#utility.yul\":552:557   */\n      dup2\n        /* \"#utility.yul\":525:558   */\n      tag_260\n      jump\t// in\n    tag_259:\n        /* \"#utility.yul\":425:564   */\n      swap3\n      swap2\n      pop\n      pop\n      jump\t// out\n        /* \"#utility.yul\":570:709   */\n    tag_261:\n        /* \"#utility.yul\":616:621   */\n      0x00\n        /* \"#utility.yul\":654:660   */\n      dup2\n        /* \"#utility.yul\":641:661   */\n      calldataload\n        /* \"#utility.yul\":632:661   */\n      swap1\n      pop\n        /* \"#utility.yul\":670:703   */\n      tag_263\n        /* \"#utility.yul\":697:702   */\n      dup2\n        /* \"#utility.yul\":670:703   */\n      tag_264\n      jump\t// in\n    tag_263:\n        /* \"#utility.yul\":570:709   */\n      swap3\n      swap2\n      pop\n      pop\n      jump\t// out\n        /* \"#utility.yul\":715:852   */\n    tag_265:\n        /* \"#utility.yul\":760:765   */\n      0x00\n        /* \"#utility.yul\":798:804   */\n      dup2\n        /* \"#utility.yul\":785:805   */\n      calldataload\n        /* \"#utility.yul\":776:805   */\n      swap1\n      pop\n        /* \"#utility.yul\":814:846   */\n      tag_267\n        /* \"#utility.yul\":840:845   */\n      dup2\n        /* \"#utility.yul\":814:846   */\n      tag_268\n      jump\t// in\n    tag_267:\n        /* \"#utility.yul\":715:852   */\n      swap3\n      swap2\n      pop\n      pop\n      jump\t// out\n        /* \"#utility.yul\":872:1212   */\n    tag_269:\n        /* \"#utility.yul\":928:933   */\n      0x00\n        /* \"#utility.yul\":977:980   */\n      dup3\n        /* \"#utility.yul\":970:974   */\n      0x1f\n        /* \"#utility.yul\":962:968   */\n      dup4\n        /* \"#utility.yul\":958:975   */\n      add\n        /* \"#utility.yul\":954:981   */\n      slt\n        /* \"#utility.yul\":944:1066   */\n      tag_271\n      jumpi\n        /* \"#utility.yul\":985:1064   */\n      tag_272\n      tag_273\n      jump\t// in\n    tag_272:\n        /* \"#utility.yul\":944:1066   */\n    tag_271:\n        /* \"#utility.yul\":1102:1108   */\n      dup2\n        /* \"#utility.yul\":1089:1109   */\n      calldataload\n        /* \"#utility.yul\":1127:1206   */\n      tag_274\n        /* \"#utility.yul\":1202:1205   */\n      dup5\n        /* \"#utility.yul\":1194:1200   */\n      dup3\n        /* \"#utility.yul\":1187:1191   */\n      0x20\n        /* \"#utility.yul\":1179:1185   */\n      dup7\n        /* \"#utility.yul\":1175:1192   */\n      add\n        /* \"#utility.yul\":1127:1206   */\n      tag_246\n      jump\t// in\n    tag_274:\n        /* \"#utility.yul\":1118:1206   */\n      swap2\n      pop\n        /* \"#utility.yul\":934:1212   */\n      pop\n        /* \"#utility.yul\":872:1212   */\n      swap3\n      swap2\n      pop\n      pop\n      jump\t// out\n        /* \"#utility.yul\":1218:1357   */\n    tag_275:\n        /* \"#utility.yul\":1264:1269   */\n      0x00\n        /* \"#utility.yul\":1302:1308   */\n      dup2\n        /* \"#utility.yul\":1289:1309   */\n      calldataload\n        /* \"#utility.yul\":1280:1309   */\n      swap1\n      pop\n        /* \"#utility.yul\":1318:1351   */\n      tag_277\n        /* \"#utility.yul\":1345:1350   */\n      dup2\n        /* \"#utility.yul\":1318:1351   */\n      tag_278\n      jump\t// in\n    tag_277:\n        /* \"#utility.yul\":1218:1357   */\n      swap3\n      swap2\n      pop\n      pop\n      jump\t// out\n        /* \"#utility.yul\":1363:1692   */\n    tag_52:\n        /* \"#utility.yul\":1422:1428   */\n      0x00\n        /* \"#utility.yul\":1471:1473   */\n      0x20\n        /* \"#utility.yul\":1459:1468   */\n      dup3\n        /* \"#utility.yul\":1450:1457   */\n      dup5\n        /* \"#utility.yul\":1446:1469   */\n      sub\n        /* \"#utility.yul\":1442:1474   */\n      slt\n        /* \"#utility.yul\":1439:1558   */\n      iszero\n      tag_280\n      jumpi\n        /* \"#utility.yul\":1477:1556   */\n      tag_281\n      tag_282\n      jump\t// in\n    tag_281:\n        /* \"#utility.yul\":1439:1558   */\n    tag_280:\n        /* \"#utility.yul\":1597:1598   */\n      0x00\n        /* \"#utility.yul\":1622:1675   */\n      tag_283\n        /* \"#utility.yul\":1667:1674   */\n      dup5\n        /* \"#utility.yul\":1658:1664   */\n      dup3\n        /* \"#utility.yul\":1647:1656   */\n      dup6\n        /* \"#utility.yul\":1643:1665   */\n      add\n        /* \"#utility.yul\":1622:1675   */\n      tag_257\n      jump\t// in\n    tag_283:\n        /* \"#utility.yul\":1612:1675   */\n      swap2\n      pop\n        /* \"#utility.yul\":1568:1685   */\n      pop\n        /* \"#utility.yul\":1363:1692   */\n      swap3\n      swap2\n      pop\n      pop\n      jump\t// out\n        /* \"#utility.yul\":1698:2027   */\n    tag_30:\n        /* \"#utility.yul\":1757:1763   */\n      0x00\n        /* \"#utility.yul\":1806:1808   */\n      0x20\n        /* \"#utility.yul\":1794:1803   */\n      dup3\n        /* \"#utility.yul\":1785:1792   */\n      dup5\n        /* \"#utility.yul\":1781:1804   */\n      sub\n        /* \"#utility.yul\":1777:1809   */\n      slt\n        /* \"#utility.yul\":1774:1893   */\n      iszero\n      tag_285\n      jumpi\n        /* \"#utility.yul\":1812:1891   */\n      tag_286\n      tag_282\n      jump\t// in\n    tag_286:\n        /* \"#utility.yul\":1774:1893   */\n    tag_285:\n        /* \"#utility.yul\":1932:1933   */\n      0x00\n        /* \"#utility.yul\":1957:2010   */\n      tag_287\n        /* \"#utility.yul\":2002:2009   */\n      dup5\n        /* \"#utility.yul\":1993:1999   */\n      dup3\n        /* \"#utility.yul\":1982:1991   */\n      dup6\n        /* \"#utility.yul\":1978:2000   */\n      add\n        /* \"#utility.yul\":1957:2010   */\n      tag_261\n      jump\t// in\n    tag_287:\n        /* \"#utility.yul\":1947:2010   */\n      swap2\n      pop\n        /* \"#utility.yul\":1903:2020   */\n      pop\n        /* \"#utility.yul\":1698:2027   */\n      swap3\n      swap2\n      pop\n      pop\n      jump\t// out\n        /* \"#utility.yul\":2033:2507   */\n    tag_39:\n        /* \"#utility.yul\":2101:2107   */\n      0x00\n        /* \"#utility.yul\":2109:2115   */\n      dup1\n        /* \"#utility.yul\":2158:2160   */\n      0x40\n        /* \"#utility.yul\":2146:2155   */\n      dup4\n        /* \"#utility.yul\":2137:2144   */\n      dup6\n        /* \"#utility.yul\":2133:2156   */\n      sub\n        /* \"#utility.yul\":2129:2161   */\n      slt\n        /* \"#utility.yul\":2126:2245   */\n      iszero\n      tag_289\n      jumpi\n        /* \"#utility.yul\":2164:2243   */\n      tag_290\n      tag_282\n      jump\t// in\n    tag_290:\n        /* \"#utility.yul\":2126:2245   */\n    tag_289:\n        /* \"#utility.yul\":2284:2285   */\n      0x00\n        /* \"#utility.yul\":2309:2362   */\n      tag_291\n        /* \"#utility.yul\":2354:2361   */\n      dup6\n        /* \"#utility.yul\":2345:2351   */\n      dup3\n        /* \"#utility.yul\":2334:2343   */\n      dup7\n        /* \"#utility.yul\":2330:2352   */\n      add\n        /* \"#utility.yul\":2309:2362   */\n      tag_261\n      jump\t// in\n    tag_291:\n        /* \"#utility.yul\":2299:2362   */\n      swap3\n      pop\n        /* \"#utility.yul\":2255:2372   */\n      pop\n        /* \"#utility.yul\":2411:2413   */\n      0x20\n        /* \"#utility.yul\":2437:2490   */\n      tag_292\n        /* \"#utility.yul\":2482:2489   */\n      dup6\n        /* \"#utility.yul\":2473:2479   */\n      dup3\n        /* \"#utility.yul\":2462:2471   */\n      dup7\n        /* \"#utility.yul\":2458:2480   */\n      add\n        /* \"#utility.yul\":2437:2490   */\n      tag_257\n      jump\t// in\n    tag_292:\n        /* \"#utility.yul\":2427:2490   */\n      swap2\n      pop\n        /* \"#utility.yul\":2382:2500   */\n      pop\n        /* \"#utility.yul\":2033:2507   */\n      swap3\n      pop\n      swap3\n      swap1\n      pop\n      jump\t// out\n        /* \"#utility.yul\":2513:2840   */\n    tag_24:\n        /* \"#utility.yul\":2571:2577   */\n      0x00\n        /* \"#utility.yul\":2620:2622   */\n      0x20\n        /* \"#utility.yul\":2608:2617   */\n      dup3\n        /* \"#utility.yul\":2599:2606   */\n      dup5\n        /* \"#utility.yul\":2595:2618   */\n      sub\n        /* \"#utility.yul\":2591:2623   */\n      slt\n        /* \"#utility.yul\":2588:2707   */\n      iszero\n      tag_294\n      jumpi\n        /* \"#utility.yul\":2626:2705   */\n      tag_295\n      tag_282\n      jump\t// in\n    tag_295:\n        /* \"#utility.yul\":2588:2707   */\n    tag_294:\n        /* \"#utility.yul\":2746:2747   */\n      0x00\n        /* \"#utility.yul\":2771:2823   */\n      tag_296\n        /* \"#utility.yul\":2815:2822   */\n      dup5\n        /* \"#utility.yul\":2806:2812   */\n      dup3\n        /* \"#utility.yul\":2795:2804   */\n      dup6\n        /* \"#utility.yul\":2791:2813   */\n      add\n        /* \"#utility.yul\":2771:2823   */\n      tag_265\n      jump\t// in\n    tag_296:\n        /* \"#utility.yul\":2761:2823   */\n      swap2\n      pop\n        /* \"#utility.yul\":2717:2833   */\n      pop\n        /* \"#utility.yul\":2513:2840   */\n      swap3\n      swap2\n      pop\n      pop\n      jump\t// out\n        /* \"#utility.yul\":2846:3645   */\n    tag_77:\n        /* \"#utility.yul\":2933:2939   */\n      0x00\n        /* \"#utility.yul\":2941:2947   */\n      dup1\n        /* \"#utility.yul\":2949:2955   */\n      0x00\n        /* \"#utility.yul\":2998:3000   */\n      0x60\n        /* \"#utility.yul\":2986:2995   */\n      dup5\n        /* \"#utility.yul\":2977:2984   */\n      dup7\n        /* \"#utility.yul\":2973:2996   */\n      sub\n        /* \"#utility.yul\":2969:3001   */\n      slt\n        /* \"#utility.yul\":2966:3085   */\n      iszero\n      tag_298\n      jumpi\n        /* \"#utility.yul\":3004:3083   */\n      tag_299\n      tag_282\n      jump\t// in\n    tag_299:\n        /* \"#utility.yul\":2966:3085   */\n    tag_298:\n        /* \"#utility.yul\":3152:3153   */\n      0x00\n        /* \"#utility.yul\":3141:3150   */\n      dup5\n        /* \"#utility.yul\":3137:3154   */\n      add\n        /* \"#utility.yul\":3124:3155   */\n      calldataload\n        /* \"#utility.yul\":3182:3200   */\n      0xffffffffffffffff\n        /* \"#utility.yul\":3174:3180   */\n      dup2\n        /* \"#utility.yul\":3171:3201   */\n      gt\n        /* \"#utility.yul\":3168:3285   */\n      iszero\n      tag_300\n      jumpi\n        /* \"#utility.yul\":3204:3283   */\n      tag_301\n      tag_302\n      jump\t// in\n    tag_301:\n        /* \"#utility.yul\":3168:3285   */\n    tag_300:\n        /* \"#utility.yul\":3309:3372   */\n      tag_303\n        /* \"#utility.yul\":3364:3371   */\n      dup7\n        /* \"#utility.yul\":3355:3361   */\n      dup3\n        /* \"#utility.yul\":3344:3353   */\n      dup8\n        /* \"#utility.yul\":3340:3362   */\n      add\n        /* \"#utility.yul\":3309:3372   */\n      tag_269\n      jump\t// in\n    tag_303:\n        /* \"#utility.yul\":3299:3372   */\n      swap4\n      pop\n        /* \"#utility.yul\":3095:3382   */\n      pop\n        /* \"#utility.yul\":3421:3423   */\n      0x20\n        /* \"#utility.yul\":3447:3500   */\n      tag_304\n        /* \"#utility.yul\":3492:3499   */\n      dup7\n        /* \"#utility.yul\":3483:3489   */\n      dup3\n        /* \"#utility.yul\":3472:3481   */\n      dup8\n        /* \"#utility.yul\":3468:3490   */\n      add\n        /* \"#utility.yul\":3447:3500   */\n      tag_257\n      jump\t// in\n    tag_304:\n        /* \"#utility.yul\":3437:3500   */\n      swap3\n      pop\n        /* \"#utility.yul\":3392:3510   */\n      pop\n        /* \"#utility.yul\":3549:3551   */\n      0x40\n        /* \"#utility.yul\":3575:3628   */\n      tag_305\n        /* \"#utility.yul\":3620:3627   */\n      dup7\n        /* \"#utility.yul\":3611:3617   */\n      dup3\n        /* \"#utility.yul\":3600:3609   */\n      dup8\n        /* \"#utility.yul\":3596:3618   */\n      add\n        /* \"#utility.yul\":3575:3628   */\n      tag_275\n      jump\t// in\n    tag_305:\n        /* \"#utility.yul\":3565:3628   */\n      swap2\n      pop\n        /* \"#utility.yul\":3520:3638   */\n      pop\n        /* \"#utility.yul\":2846:3645   */\n      swap3\n      pop\n      swap3\n      pop\n      swap3\n      jump\t// out\n        /* \"#utility.yul\":3651:3980   */\n    tag_43:\n        /* \"#utility.yul\":3710:3716   */\n      0x00\n        /* \"#utility.yul\":3759:3761   */\n      0x20\n        /* \"#utility.yul\":3747:3756   */\n      dup3\n        /* \"#utility.yul\":3738:3745   */\n      dup5\n        /* \"#utility.yul\":3734:3757   */\n      sub\n        /* \"#utility.yul\":3730:3762   */\n      slt\n        /* \"#utility.yul\":3727:3846   */\n      iszero\n      tag_307\n      jumpi\n        /* \"#utility.yul\":3765:3844   */\n      tag_308\n      tag_282\n      jump\t// in\n    tag_308:\n        /* \"#utility.yul\":3727:3846   */\n    tag_307:\n        /* \"#utility.yul\":3885:3886   */\n      0x00\n        /* \"#utility.yul\":3910:3963   */\n      tag_309\n        /* \"#utility.yul\":3955:3962   */\n      dup5\n        /* \"#utility.yul\":3946:3952   */\n      dup3\n        /* \"#utility.yul\":3935:3944   */\n      dup6\n        /* \"#utility.yul\":3931:3953   */\n      add\n        /* \"#utility.yul\":3910:3963   */\n      tag_275\n      jump\t// in\n    tag_309:\n        /* \"#utility.yul\":3900:3963   */\n      swap2\n      pop\n        /* \"#utility.yul\":3856:3973   */\n      pop\n        /* \"#utility.yul\":3651:3980   */\n      swap3\n      swap2\n      pop\n      pop\n      jump\t// out\n        /* \"#utility.yul\":3986:4094   */\n    tag_310:\n        /* \"#utility.yul\":4063:4087   */\n      tag_312\n        /* \"#utility.yul\":4081:4086   */\n      dup2\n        /* \"#utility.yul\":4063:4087   */\n      tag_313\n      jump\t// in\n    tag_312:\n        /* \"#utility.yul\":4058:4061   */\n      dup3\n        /* \"#utility.yul\":4051:4088   */\n      mstore\n        /* \"#utility.yul\":3986:4094   */\n      pop\n      pop\n      jump\t// out\n        /* \"#utility.yul\":4100:4218   */\n    tag_314:\n        /* \"#utility.yul\":4187:4211   */\n      tag_316\n        /* \"#utility.yul\":4205:4210   */\n      dup2\n        /* \"#utility.yul\":4187:4211   */\n      tag_313\n      jump\t// in\n    tag_316:\n        /* \"#utility.yul\":4182:4185   */\n      dup3\n        /* \"#utility.yul\":4175:4212   */\n      mstore\n        /* \"#utility.yul\":4100:4218   */\n      pop\n      pop\n      jump\t// out\n        /* \"#utility.yul\":4224:4333   */\n    tag_317:\n        /* \"#utility.yul\":4305:4326   */\n      tag_319\n        /* \"#utility.yul\":4320:4325   */\n      dup2\n        /* \"#utility.yul\":4305:4326   */\n      tag_320\n      jump\t// in\n    tag_319:\n        /* \"#utility.yul\":4300:4303   */\n      dup3\n        /* \"#utility.yul\":4293:4327   */\n      mstore\n        /* \"#utility.yul\":4224:4333   */\n      pop\n      pop\n      jump\t// out\n        /* \"#utility.yul\":4339:4457   */\n    tag_321:\n        /* \"#utility.yul\":4426:4450   */\n      tag_323\n        /* \"#utility.yul\":4444:4449   */\n      dup2\n        /* \"#utility.yul\":4426:4450   */\n      tag_324\n      jump\t// in\n    tag_323:\n        /* \"#utility.yul\":4421:4424   */\n      dup3\n        /* \"#utility.yul\":4414:4451   */\n      mstore\n        /* \"#utility.yul\":4339:4457   */\n      pop\n      pop\n      jump\t// out\n        /* \"#utility.yul\":4463:4807   */\n    tag_325:\n        /* \"#utility.yul\":4541:4544   */\n      0x00\n        /* \"#utility.yul\":4569:4608   */\n      tag_327\n        /* \"#utility.yul\":4602:4607   */\n      dup3\n        /* \"#utility.yul\":4569:4608   */\n      tag_328\n      jump\t// in\n    tag_327:\n        /* \"#utility.yul\":4624:4685   */\n      tag_329\n        /* \"#utility.yul\":4678:4684   */\n      dup2\n        /* \"#utility.yul\":4673:4676   */\n      dup6\n        /* \"#utility.yul\":4624:4685   */\n      tag_330\n      jump\t// in\n    tag_329:\n        /* \"#utility.yul\":4617:4685   */\n      swap4\n      pop\n        /* \"#utility.yul\":4694:4746   */\n      tag_331\n        /* \"#utility.yul\":4739:4745   */\n      dup2\n        /* \"#utility.yul\":4734:4737   */\n      dup6\n        /* \"#utility.yul\":4727:4731   */\n      0x20\n        /* \"#utility.yul\":4720:4725   */\n      dup7\n        /* \"#utility.yul\":4716:4732   */\n      add\n        /* \"#utility.yul\":4694:4746   */\n      tag_332\n      jump\t// in\n    tag_331:\n        /* \"#utility.yul\":4771:4800   */\n      tag_333\n        /* \"#utility.yul\":4793:4799   */\n      dup2\n        /* \"#utility.yul\":4771:4800   */\n      tag_334\n      jump\t// in\n    tag_333:\n        /* \"#utility.yul\":4766:4769   */\n      dup5\n        /* \"#utility.yul\":4762:4801   */\n      add\n        /* \"#utility.yul\":4755:4801   */\n      swap2\n      pop\n        /* \"#utility.yul\":4545:4807   */\n      pop\n        /* \"#utility.yul\":4463:4807   */\n      swap3\n      swap2\n      pop\n      pop\n      jump\t// out\n        /* \"#utility.yul\":4813:5177   */\n    tag_335:\n        /* \"#utility.yul\":4901:4904   */\n      0x00\n        /* \"#utility.yul\":4929:4968   */\n      tag_337\n        /* \"#utility.yul\":4962:4967   */\n      dup3\n        /* \"#utility.yul\":4929:4968   */\n      tag_328\n      jump\t// in\n    tag_337:\n        /* \"#utility.yul\":4984:5055   */\n      tag_338\n        /* \"#utility.yul\":5048:5054   */\n      dup2\n        /* \"#utility.yul\":5043:5046   */\n      dup6\n        /* \"#utility.yul\":4984:5055   */\n      tag_339\n      jump\t// in\n    tag_338:\n        /* \"#utility.yul\":4977:5055   */\n      swap4\n      pop\n        /* \"#utility.yul\":5064:5116   */\n      tag_340\n        /* \"#utility.yul\":5109:5115   */\n      dup2\n        /* \"#utility.yul\":5104:5107   */\n      dup6\n        /* \"#utility.yul\":5097:5101   */\n      0x20\n        /* \"#utility.yul\":5090:5095   */\n      dup7\n        /* \"#utility.yul\":5086:5102   */\n      add\n        /* \"#utility.yul\":5064:5116   */\n      tag_332\n      jump\t// in\n    tag_340:\n        /* \"#utility.yul\":5141:5170   */\n      tag_341\n        /* \"#utility.yul\":5163:5169   */\n      dup2\n        /* \"#utility.yul\":5141:5170   */\n      tag_334\n      jump\t// in\n    tag_341:\n        /* \"#utility.yul\":5136:5139   */\n      dup5\n        /* \"#utility.yul\":5132:5171   */\n      add\n        /* \"#utility.yul\":5125:5171   */\n      swap2\n      pop\n        /* \"#utility.yul\":4905:5177   */\n      pop\n        /* \"#utility.yul\":4813:5177   */\n      swap3\n      swap2\n      pop\n      pop\n      jump\t// out\n        /* \"#utility.yul\":5183:5560   */\n    tag_342:\n        /* \"#utility.yul\":5289:5292   */\n      0x00\n        /* \"#utility.yul\":5317:5356   */\n      tag_344\n        /* \"#utility.yul\":5350:5355   */\n      dup3\n        /* \"#utility.yul\":5317:5356   */\n      tag_328\n      jump\t// in\n    tag_344:\n        /* \"#utility.yul\":5372:5461   */\n      tag_345\n        /* \"#utility.yul\":5454:5460   */\n      dup2\n        /* \"#utility.yul\":5449:5452   */\n      dup6\n        /* \"#utility.yul\":5372:5461   */\n      tag_346\n      jump\t// in\n    tag_345:\n        /* \"#utility.yul\":5365:5461   */\n      swap4\n      pop\n        /* \"#utility.yul\":5470:5522   */\n      tag_347\n        /* \"#utility.yul\":5515:5521   */\n      dup2\n        /* \"#utility.yul\":5510:5513   */\n      dup6\n        /* \"#utility.yul\":5503:5507   */\n      0x20\n        /* \"#utility.yul\":5496:5501   */\n      dup7\n        /* \"#utility.yul\":5492:5508   */\n      add\n        /* \"#utility.yul\":5470:5522   */\n      tag_332\n      jump\t// in\n    tag_347:\n        /* \"#utility.yul\":5547:5553   */\n      dup1\n        /* \"#utility.yul\":5542:5545   */\n      dup5\n        /* \"#utility.yul\":5538:5554   */\n      add\n        /* \"#utility.yul\":5531:5554   */\n      swap2\n      pop\n        /* \"#utility.yul\":5293:5560   */\n      pop\n        /* \"#utility.yul\":5183:5560   */\n      swap3\n      swap2\n      pop\n      pop\n      jump\t// out\n        /* \"#utility.yul\":5566:5932   */\n    tag_348:\n        /* \"#utility.yul\":5708:5711   */\n      0x00\n        /* \"#utility.yul\":5729:5796   */\n      tag_350\n        /* \"#utility.yul\":5793:5795   */\n      0x20\n        /* \"#utility.yul\":5788:5791   */\n      dup4\n        /* \"#utility.yul\":5729:5796   */\n      tag_339\n      jump\t// in\n    tag_350:\n        /* \"#utility.yul\":5722:5796   */\n      swap2\n      pop\n        /* \"#utility.yul\":5805:5898   */\n      tag_351\n        /* \"#utility.yul\":5894:5897   */\n      dup3\n        /* \"#utility.yul\":5805:5898   */\n      tag_352\n      jump\t// in\n    tag_351:\n        /* \"#utility.yul\":5923:5925   */\n      0x20\n        /* \"#utility.yul\":5918:5921   */\n      dup3\n        /* \"#utility.yul\":5914:5926   */\n      add\n        /* \"#utility.yul\":5907:5926   */\n      swap1\n      pop\n        /* \"#utility.yul\":5566:5932   */\n      swap2\n      swap1\n      pop\n      jump\t// out\n        /* \"#utility.yul\":5938:6304   */\n    tag_353:\n        /* \"#utility.yul\":6080:6083   */\n      0x00\n        /* \"#utility.yul\":6101:6168   */\n      tag_355\n        /* \"#utility.yul\":6165:6167   */\n      0x26\n        /* \"#utility.yul\":6160:6163   */\n      dup4\n        /* \"#utility.yul\":6101:6168   */\n      tag_339\n      jump\t// in\n    tag_355:\n        /* \"#utility.yul\":6094:6168   */\n      swap2\n      pop\n        /* \"#utility.yul\":6177:6270   */\n      tag_356\n        /* \"#utility.yul\":6266:6269   */\n      dup3\n        /* \"#utility.yul\":6177:6270   */\n      tag_357\n      jump\t// in\n    tag_356:\n        /* \"#utility.yul\":6295:6297   */\n      0x40\n        /* \"#utility.yul\":6290:6293   */\n      dup3\n        /* \"#utility.yul\":6286:6298   */\n      add\n        /* \"#utility.yul\":6279:6298   */\n      swap1\n      pop\n        /* \"#utility.yul\":5938:6304   */\n      swap2\n      swap1\n      pop\n      jump\t// out\n        /* \"#utility.yul\":6310:6676   */\n    tag_358:\n        /* \"#utility.yul\":6452:6455   */\n      0x00\n        /* \"#utility.yul\":6473:6540   */\n      tag_360\n        /* \"#utility.yul\":6537:6539   */\n      0x1f\n        /* \"#utility.yul\":6532:6535   */\n      dup4\n        /* \"#utility.yul\":6473:6540   */\n      tag_339\n      jump\t// in\n    tag_360:\n        /* \"#utility.yul\":6466:6540   */\n      swap2\n      pop\n        /* \"#utility.yul\":6549:6642   */\n      tag_361\n        /* \"#utility.yul\":6638:6641   */\n      dup3\n        /* \"#utility.yul\":6549:6642   */\n      tag_362\n      jump\t// in\n    tag_361:\n        /* \"#utility.yul\":6667:6669   */\n      0x20\n        /* \"#utility.yul\":6662:6665   */\n      dup3\n        /* \"#utility.yul\":6658:6670   */\n      add\n        /* \"#utility.yul\":6651:6670   */\n      swap1\n      pop\n        /* \"#utility.yul\":6310:6676   */\n      swap2\n      swap1\n      pop\n      jump\t// out\n        /* \"#utility.yul\":6682:7048   */\n    tag_363:\n        /* \"#utility.yul\":6824:6827   */\n      0x00\n        /* \"#utility.yul\":6845:6912   */\n      tag_365\n        /* \"#utility.yul\":6909:6911   */\n      0x20\n        /* \"#utility.yul\":6904:6907   */\n      dup4\n        /* \"#utility.yul\":6845:6912   */\n      tag_339\n      jump\t// in\n    tag_365:\n        /* \"#utility.yul\":6838:6912   */\n      swap2\n      pop\n        /* \"#utility.yul\":6921:7014   */\n      tag_366\n        /* \"#utility.yul\":7010:7013   */\n      dup3\n        /* \"#utility.yul\":6921:7014   */\n      tag_367\n      jump\t// in\n    tag_366:\n        /* \"#utility.yul\":7039:7041   */\n      0x20\n        /* \"#utility.yul\":7034:7037   */\n      dup3\n        /* \"#utility.yul\":7030:7042   */\n      add\n        /* \"#utility.yul\":7023:7042   */\n      swap1\n      pop\n        /* \"#utility.yul\":6682:7048   */\n      swap2\n      swap1\n      pop\n      jump\t// out\n        /* \"#utility.yul\":7054:7456   */\n    tag_368:\n        /* \"#utility.yul\":7214:7217   */\n      0x00\n        /* \"#utility.yul\":7235:7320   */\n      tag_370\n        /* \"#utility.yul\":7317:7319   */\n      0x17\n        /* \"#utility.yul\":7312:7315   */\n      dup4\n        /* \"#utility.yul\":7235:7320   */\n      tag_346\n      jump\t// in\n    tag_370:\n        /* \"#utility.yul\":7228:7320   */\n      swap2\n      pop\n        /* \"#utility.yul\":7329:7422   */\n      tag_371\n        /* \"#utility.yul\":7418:7421   */\n      dup3\n        /* \"#utility.yul\":7329:7422   */\n      tag_372\n      jump\t// in\n    tag_371:\n        /* \"#utility.yul\":7447:7449   */\n      0x17\n        /* \"#utility.yul\":7442:7445   */\n      dup3\n        /* \"#utility.yul\":7438:7450   */\n      add\n        /* \"#utility.yul\":7431:7450   */\n      swap1\n      pop\n        /* \"#utility.yul\":7054:7456   */\n      swap2\n      swap1\n      pop\n      jump\t// out\n        /* \"#utility.yul\":7462:7864   */\n    tag_373:\n        /* \"#utility.yul\":7622:7625   */\n      0x00\n        /* \"#utility.yul\":7643:7728   */\n      tag_375\n        /* \"#utility.yul\":7725:7727   */\n      0x11\n        /* \"#utility.yul\":7720:7723   */\n      dup4\n        /* \"#utility.yul\":7643:7728   */\n      tag_346\n      jump\t// in\n    tag_375:\n        /* \"#utility.yul\":7636:7728   */\n      swap2\n      pop\n        /* \"#utility.yul\":7737:7830   */\n      tag_376\n        /* \"#utility.yul\":7826:7829   */\n      dup3\n        /* \"#utility.yul\":7737:7830   */\n      tag_377\n      jump\t// in\n    tag_376:\n        /* \"#utility.yul\":7855:7857   */\n      0x11\n        /* \"#utility.yul\":7850:7853   */\n      dup3\n        /* \"#utility.yul\":7846:7858   */\n      add\n        /* \"#utility.yul\":7839:7858   */\n      swap1\n      pop\n        /* \"#utility.yul\":7462:7864   */\n      swap2\n      swap1\n      pop\n      jump\t// out\n        /* \"#utility.yul\":7870:8236   */\n    tag_378:\n        /* \"#utility.yul\":8012:8015   */\n      0x00\n        /* \"#utility.yul\":8033:8100   */\n      tag_380\n        /* \"#utility.yul\":8097:8099   */\n      0x2f\n        /* \"#utility.yul\":8092:8095   */\n      dup4\n        /* \"#utility.yul\":8033:8100   */\n      tag_339\n      jump\t// in\n    tag_380:\n        /* \"#utility.yul\":8026:8100   */\n      swap2\n      pop\n        /* \"#utility.yul\":8109:8202   */\n      tag_381\n        /* \"#utility.yul\":8198:8201   */\n      dup3\n        /* \"#utility.yul\":8109:8202   */\n      tag_382\n      jump\t// in\n    tag_381:\n        /* \"#utility.yul\":8227:8229   */\n      0x40\n        /* \"#utility.yul\":8222:8225   */\n      dup3\n        /* \"#utility.yul\":8218:8230   */\n      add\n        /* \"#utility.yul\":8211:8230   */\n      swap1\n      pop\n        /* \"#utility.yul\":7870:8236   */\n      swap2\n      swap1\n      pop\n      jump\t// out\n        /* \"#utility.yul\":8296:9150   */\n    tag_383:\n        /* \"#utility.yul\":8417:8420   */\n      0x00\n        /* \"#utility.yul\":8453:8457   */\n      0x60\n        /* \"#utility.yul\":8448:8451   */\n      dup4\n        /* \"#utility.yul\":8444:8458   */\n      add\n        /* \"#utility.yul\":8540:8544   */\n      0x00\n        /* \"#utility.yul\":8533:8538   */\n      dup4\n        /* \"#utility.yul\":8529:8545   */\n      add\n        /* \"#utility.yul\":8523:8546   */\n      mload\n        /* \"#utility.yul\":8593:8596   */\n      dup5\n        /* \"#utility.yul\":8587:8591   */\n      dup3\n        /* \"#utility.yul\":8583:8597   */\n      sub\n        /* \"#utility.yul\":8576:8580   */\n      0x00\n        /* \"#utility.yul\":8571:8574   */\n      dup7\n        /* \"#utility.yul\":8567:8581   */\n      add\n        /* \"#utility.yul\":8560:8598   */\n      mstore\n        /* \"#utility.yul\":8619:8692   */\n      tag_385\n        /* \"#utility.yul\":8687:8691   */\n      dup3\n        /* \"#utility.yul\":8673:8685   */\n      dup3\n        /* \"#utility.yul\":8619:8692   */\n      tag_325\n      jump\t// in\n    tag_385:\n        /* \"#utility.yul\":8611:8692   */\n      swap2\n      pop\n        /* \"#utility.yul\":8468:8703   */\n      pop\n        /* \"#utility.yul\":8785:8789   */\n      0x20\n        /* \"#utility.yul\":8778:8783   */\n      dup4\n        /* \"#utility.yul\":8774:8790   */\n      add\n        /* \"#utility.yul\":8768:8791   */\n      mload\n        /* \"#utility.yul\":8804:8867   */\n      tag_386\n        /* \"#utility.yul\":8861:8865   */\n      0x20\n        /* \"#utility.yul\":8856:8859   */\n      dup7\n        /* \"#utility.yul\":8852:8866   */\n      add\n        /* \"#utility.yul\":8838:8850   */\n      dup3\n        /* \"#utility.yul\":8804:8867   */\n      tag_310\n      jump\t// in\n    tag_386:\n        /* \"#utility.yul\":8713:8877   */\n      pop\n        /* \"#utility.yul\":8960:8964   */\n      0x40\n        /* \"#utility.yul\":8953:8958   */\n      dup4\n        /* \"#utility.yul\":8949:8965   */\n      add\n        /* \"#utility.yul\":8943:8966   */\n      mload\n        /* \"#utility.yul\":9013:9016   */\n      dup5\n        /* \"#utility.yul\":9007:9011   */\n      dup3\n        /* \"#utility.yul\":9003:9017   */\n      sub\n        /* \"#utility.yul\":8996:9000   */\n      0x40\n        /* \"#utility.yul\":8991:8994   */\n      dup7\n        /* \"#utility.yul\":8987:9001   */\n      add\n        /* \"#utility.yul\":8980:9018   */\n      mstore\n        /* \"#utility.yul\":9039:9112   */\n      tag_387\n        /* \"#utility.yul\":9107:9111   */\n      dup3\n        /* \"#utility.yul\":9093:9105   */\n      dup3\n        /* \"#utility.yul\":9039:9112   */\n      tag_325\n      jump\t// in\n    tag_387:\n        /* \"#utility.yul\":9031:9112   */\n      swap2\n      pop\n        /* \"#utility.yul\":8887:9123   */\n      pop\n        /* \"#utility.yul\":9140:9144   */\n      dup1\n        /* \"#utility.yul\":9133:9144   */\n      swap2\n      pop\n        /* \"#utility.yul\":8422:9150   */\n      pop\n        /* \"#utility.yul\":8296:9150   */\n      swap3\n      swap2\n      pop\n      pop\n      jump\t// out\n        /* \"#utility.yul\":9156:10123   */\n    tag_199:\n        /* \"#utility.yul\":9538:9541   */\n      0x00\n        /* \"#utility.yul\":9560:9708   */\n      tag_389\n        /* \"#utility.yul\":9704:9707   */\n      dup3\n        /* \"#utility.yul\":9560:9708   */\n      tag_368\n      jump\t// in\n    tag_389:\n        /* \"#utility.yul\":9553:9708   */\n      swap2\n      pop\n        /* \"#utility.yul\":9725:9820   */\n      tag_390\n        /* \"#utility.yul\":9816:9819   */\n      dup3\n        /* \"#utility.yul\":9807:9813   */\n      dup6\n        /* \"#utility.yul\":9725:9820   */\n      tag_342\n      jump\t// in\n    tag_390:\n        /* \"#utility.yul\":9718:9820   */\n      swap2\n      pop\n        /* \"#utility.yul\":9837:9985   */\n      tag_391\n        /* \"#utility.yul\":9981:9984   */\n      dup3\n        /* \"#utility.yul\":9837:9985   */\n      tag_373\n      jump\t// in\n    tag_391:\n        /* \"#utility.yul\":9830:9985   */\n      swap2\n      pop\n        /* \"#utility.yul\":10002:10097   */\n      tag_392\n        /* \"#utility.yul\":10093:10096   */\n      dup3\n        /* \"#utility.yul\":10084:10090   */\n      dup5\n        /* \"#utility.yul\":10002:10097   */\n      tag_342\n      jump\t// in\n    tag_392:\n        /* \"#utility.yul\":9995:10097   */\n      swap2\n      pop\n        /* \"#utility.yul\":10114:10117   */\n      dup2\n        /* \"#utility.yul\":10107:10117   */\n      swap1\n      pop\n        /* \"#utility.yul\":9156:10123   */\n      swap4\n      swap3\n      pop\n      pop\n      pop\n      jump\t// out\n        /* \"#utility.yul\":10129:10351   */\n    tag_59:\n        /* \"#utility.yul\":10222:10226   */\n      0x00\n        /* \"#utility.yul\":10260:10262   */\n      0x20\n        /* \"#utility.yul\":10249:10258   */\n      dup3\n        /* \"#utility.yul\":10245:10263   */\n      add\n        /* \"#utility.yul\":10237:10263   */\n      swap1\n      pop\n        /* \"#utility.yul\":10273:10344   */\n      tag_394\n        /* \"#utility.yul\":10341:10342   */\n      0x00\n        /* \"#utility.yul\":10330:10339   */\n      dup4\n        /* \"#utility.yul\":10326:10343   */\n      add\n        /* \"#utility.yul\":10317:10323   */\n      dup5\n        /* \"#utility.yul\":10273:10344   */\n      tag_314\n      jump\t// in\n    tag_394:\n        /* \"#utility.yul\":10129:10351   */\n      swap3\n      swap2\n      pop\n      pop\n      jump\t// out\n        /* \"#utility.yul\":10357:10567   */\n    tag_27:\n        /* \"#utility.yul\":10444:10448   */\n      0x00\n        /* \"#utility.yul\":10482:10484   */\n      0x20\n        /* \"#utility.yul\":10471:10480   */\n      dup3\n        /* \"#utility.yul\":10467:10485   */\n      add\n        /* \"#utility.yul\":10459:10485   */\n      swap1\n      pop\n        /* \"#utility.yul\":10495:10560   */\n      tag_396\n        /* \"#utility.yul\":10557:10558   */\n      0x00\n        /* \"#utility.yul\":10546:10555   */\n      dup4\n        /* \"#utility.yul\":10542:10559   */\n      add\n        /* \"#utility.yul\":10533:10539   */\n      dup5\n        /* \"#utility.yul\":10495:10560   */\n      tag_317\n      jump\t// in\n    tag_396:\n        /* \"#utility.yul\":10357:10567   */\n      swap3\n      swap2\n      pop\n      pop\n      jump\t// out\n        /* \"#utility.yul\":10573:10795   */\n    tag_33:\n        /* \"#utility.yul\":10666:10670   */\n      0x00\n        /* \"#utility.yul\":10704:10706   */\n      0x20\n        /* \"#utility.yul\":10693:10702   */\n      dup3\n        /* \"#utility.yul\":10689:10707   */\n      add\n        /* \"#utility.yul\":10681:10707   */\n      swap1\n      pop\n        /* \"#utility.yul\":10717:10788   */\n      tag_398\n        /* \"#utility.yul\":10785:10786   */\n      0x00\n        /* \"#utility.yul\":10774:10783   */\n      dup4\n        /* \"#utility.yul\":10770:10787   */\n      add\n        /* \"#utility.yul\":10761:10767   */\n      dup5\n        /* \"#utility.yul\":10717:10788   */\n      tag_321\n      jump\t// in\n    tag_398:\n        /* \"#utility.yul\":10573:10795   */\n      swap3\n      swap2\n      pop\n      pop\n      jump\t// out\n        /* \"#utility.yul\":10801:11114   */\n    tag_46:\n        /* \"#utility.yul\":10914:10918   */\n      0x00\n        /* \"#utility.yul\":10952:10954   */\n      0x20\n        /* \"#utility.yul\":10941:10950   */\n      dup3\n        /* \"#utility.yul\":10937:10955   */\n      add\n        /* \"#utility.yul\":10929:10955   */\n      swap1\n      pop\n        /* \"#utility.yul\":11001:11010   */\n      dup2\n        /* \"#utility.yul\":10995:10999   */\n      dup2\n        /* \"#utility.yul\":10991:11011   */\n      sub\n        /* \"#utility.yul\":10987:10988   */\n      0x00\n        /* \"#utility.yul\":10976:10985   */\n      dup4\n        /* \"#utility.yul\":10972:10989   */\n      add\n        /* \"#utility.yul\":10965:11012   */\n      mstore\n        /* \"#utility.yul\":11029:11107   */\n      tag_400\n        /* \"#utility.yul\":11102:11106   */\n      dup2\n        /* \"#utility.yul\":11093:11099   */\n      dup5\n        /* \"#utility.yul\":11029:11107   */\n      tag_335\n      jump\t// in\n    tag_400:\n        /* \"#utility.yul\":11021:11107   */\n      swap1\n      pop\n        /* \"#utility.yul\":10801:11114   */\n      swap3\n      swap2\n      pop\n      pop\n      jump\t// out\n        /* \"#utility.yul\":11120:11539   */\n    tag_227:\n        /* \"#utility.yul\":11286:11290   */\n      0x00\n        /* \"#utility.yul\":11324:11326   */\n      0x20\n        /* \"#utility.yul\":11313:11322   */\n      dup3\n        /* \"#utility.yul\":11309:11327   */\n      add\n        /* \"#utility.yul\":11301:11327   */\n      swap1\n      pop\n        /* \"#utility.yul\":11373:11382   */\n      dup2\n        /* \"#utility.yul\":11367:11371   */\n      dup2\n        /* \"#utility.yul\":11363:11383   */\n      sub\n        /* \"#utility.yul\":11359:11360   */\n      0x00\n        /* \"#utility.yul\":11348:11357   */\n      dup4\n        /* \"#utility.yul\":11344:11361   */\n      add\n        /* \"#utility.yul\":11337:11384   */\n      mstore\n        /* \"#utility.yul\":11401:11532   */\n      tag_402\n        /* \"#utility.yul\":11527:11531   */\n      dup2\n        /* \"#utility.yul\":11401:11532   */\n      tag_348\n      jump\t// in\n    tag_402:\n        /* \"#utility.yul\":11393:11532   */\n      swap1\n      pop\n        /* \"#utility.yul\":11120:11539   */\n      swap2\n      swap1\n      pop\n      jump\t// out\n        /* \"#utility.yul\":11545:11964   */\n    tag_169:\n        /* \"#utility.yul\":11711:11715   */\n      0x00\n        /* \"#utility.yul\":11749:11751   */\n      0x20\n        /* \"#utility.yul\":11738:11747   */\n      dup3\n        /* \"#utility.yul\":11734:11752   */\n      add\n        /* \"#utility.yul\":11726:11752   */\n      swap1\n      pop\n        /* \"#utility.yul\":11798:11807   */\n      dup2\n        /* \"#utility.yul\":11792:11796   */\n      dup2\n        /* \"#utility.yul\":11788:11808   */\n      sub\n        /* \"#utility.yul\":11784:11785   */\n      0x00\n        /* \"#utility.yul\":11773:11782   */\n      dup4\n        /* \"#utility.yul\":11769:11786   */\n      add\n        /* \"#utility.yul\":11762:11809   */\n      mstore\n        /* \"#utility.yul\":11826:11957   */\n      tag_404\n        /* \"#utility.yul\":11952:11956   */\n      dup2\n        /* \"#utility.yul\":11826:11957   */\n      tag_353\n      jump\t// in\n    tag_404:\n        /* \"#utility.yul\":11818:11957   */\n      swap1\n      pop\n        /* \"#utility.yul\":11545:11964   */\n      swap2\n      swap1\n      pop\n      jump\t// out\n        /* \"#utility.yul\":11970:12389   */\n    tag_147:\n        /* \"#utility.yul\":12136:12140   */\n      0x00\n        /* \"#utility.yul\":12174:12176   */\n      0x20\n        /* \"#utility.yul\":12163:12172   */\n      dup3\n        /* \"#utility.yul\":12159:12177   */\n      add\n        /* \"#utility.yul\":12151:12177   */\n      swap1\n      pop\n        /* \"#utility.yul\":12223:12232   */\n      dup2\n        /* \"#utility.yul\":12217:12221   */\n      dup2\n        /* \"#utility.yul\":12213:12233   */\n      sub\n        /* \"#utility.yul\":12209:12210   */\n      0x00\n        /* \"#utility.yul\":12198:12207   */\n      dup4\n        /* \"#utility.yul\":12194:12211   */\n      add\n        /* \"#utility.yul\":12187:12234   */\n      mstore\n        /* \"#utility.yul\":12251:12382   */\n      tag_406\n        /* \"#utility.yul\":12377:12381   */\n      dup2\n        /* \"#utility.yul\":12251:12382   */\n      tag_358\n      jump\t// in\n    tag_406:\n        /* \"#utility.yul\":12243:12382   */\n      swap1\n      pop\n        /* \"#utility.yul\":11970:12389   */\n      swap2\n      swap1\n      pop\n      jump\t// out\n        /* \"#utility.yul\":12395:12814   */\n    tag_190:\n        /* \"#utility.yul\":12561:12565   */\n      0x00\n        /* \"#utility.yul\":12599:12601   */\n      0x20\n        /* \"#utility.yul\":12588:12597   */\n      dup3\n        /* \"#utility.yul\":12584:12602   */\n      add\n        /* \"#utility.yul\":12576:12602   */\n      swap1\n      pop\n        /* \"#utility.yul\":12648:12657   */\n      dup2\n        /* \"#utility.yul\":12642:12646   */\n      dup2\n        /* \"#utility.yul\":12638:12658   */\n      sub\n        /* \"#utility.yul\":12634:12635   */\n      0x00\n        /* \"#utility.yul\":12623:12632   */\n      dup4\n        /* \"#utility.yul\":12619:12636   */\n      add\n        /* \"#utility.yul\":12612:12659   */\n      mstore\n        /* \"#utility.yul\":12676:12807   */\n      tag_408\n        /* \"#utility.yul\":12802:12806   */\n      dup2\n        /* \"#utility.yul\":12676:12807   */\n      tag_363\n      jump\t// in\n    tag_408:\n        /* \"#utility.yul\":12668:12807   */\n      swap1\n      pop\n        /* \"#utility.yul\":12395:12814   */\n      swap2\n      swap1\n      pop\n      jump\t// out\n        /* \"#utility.yul\":12820:13239   */\n    tag_110:\n        /* \"#utility.yul\":12986:12990   */\n      0x00\n        /* \"#utility.yul\":13024:13026   */\n      0x20\n        /* \"#utility.yul\":13013:13022   */\n      dup3\n        /* \"#utility.yul\":13009:13027   */\n      add\n        /* \"#utility.yul\":13001:13027   */\n      swap1\n      pop\n        /* \"#utility.yul\":13073:13082   */\n      dup2\n        /* \"#utility.yul\":13067:13071   */\n      dup2\n        /* \"#utility.yul\":13063:13083   */\n      sub\n        /* \"#utility.yul\":13059:13060   */\n      0x00\n        /* \"#utility.yul\":13048:13057   */\n      dup4\n        /* \"#utility.yul\":13044:13061   */\n      add\n        /* \"#utility.yul\":13037:13084   */\n      mstore\n        /* \"#utility.yul\":13101:13232   */\n      tag_410\n        /* \"#utility.yul\":13227:13231   */\n      dup2\n        /* \"#utility.yul\":13101:13232   */\n      tag_378\n      jump\t// in\n    tag_410:\n        /* \"#utility.yul\":13093:13232   */\n      swap1\n      pop\n        /* \"#utility.yul\":12820:13239   */\n      swap2\n      swap1\n      pop\n      jump\t// out\n        /* \"#utility.yul\":13245:13622   */\n    tag_68:\n        /* \"#utility.yul\":13390:13394   */\n      0x00\n        /* \"#utility.yul\":13428:13430   */\n      0x20\n        /* \"#utility.yul\":13417:13426   */\n      dup3\n        /* \"#utility.yul\":13413:13431   */\n      add\n        /* \"#utility.yul\":13405:13431   */\n      swap1\n      pop\n        /* \"#utility.yul\":13477:13486   */\n      dup2\n        /* \"#utility.yul\":13471:13475   */\n      dup2\n        /* \"#utility.yul\":13467:13487   */\n      sub\n        /* \"#utility.yul\":13463:13464   */\n      0x00\n        /* \"#utility.yul\":13452:13461   */\n      dup4\n        /* \"#utility.yul\":13448:13465   */\n      add\n        /* \"#utility.yul\":13441:13488   */\n      mstore\n        /* \"#utility.yul\":13505:13615   */\n      tag_412\n        /* \"#utility.yul\":13610:13614   */\n      dup2\n        /* \"#utility.yul\":13601:13607   */\n      dup5\n        /* \"#utility.yul\":13505:13615   */\n      tag_383\n      jump\t// in\n    tag_412:\n        /* \"#utility.yul\":13497:13615   */\n      swap1\n      pop\n        /* \"#utility.yul\":13245:13622   */\n      swap3\n      swap2\n      pop\n      pop\n      jump\t// out\n        /* \"#utility.yul\":13628:13757   */\n    tag_251:\n        /* \"#utility.yul\":13662:13668   */\n      0x00\n        /* \"#utility.yul\":13689:13709   */\n      tag_414\n      tag_415\n      jump\t// in\n    tag_414:\n        /* \"#utility.yul\":13679:13709   */\n      swap1\n      pop\n        /* \"#utility.yul\":13718:13751   */\n      tag_416\n        /* \"#utility.yul\":13746:13750   */\n      dup3\n        /* \"#utility.yul\":13738:13744   */\n      dup3\n        /* \"#utility.yul\":13718:13751   */\n      tag_417\n      jump\t// in\n    tag_416:\n        /* \"#utility.yul\":13628:13757   */\n      swap2\n      swap1\n      pop\n      jump\t// out\n        /* \"#utility.yul\":13763:13838   */\n    tag_415:\n        /* \"#utility.yul\":13796:13802   */\n      0x00\n        /* \"#utility.yul\":13829:13831   */\n      0x40\n        /* \"#utility.yul\":13823:13832   */\n      mload\n        /* \"#utility.yul\":13813:13832   */\n      swap1\n      pop\n        /* \"#utility.yul\":13763:13838   */\n      swap1\n      jump\t// out\n        /* \"#utility.yul\":13844:14152   */\n    tag_250:\n        /* \"#utility.yul\":13906:13910   */\n      0x00\n        /* \"#utility.yul\":13996:14014   */\n      0xffffffffffffffff\n        /* \"#utility.yul\":13988:13994   */\n      dup3\n        /* \"#utility.yul\":13985:14015   */\n      gt\n        /* \"#utility.yul\":13982:14038   */\n      iszero\n      tag_420\n      jumpi\n        /* \"#utility.yul\":14018:14036   */\n      tag_421\n      tag_208\n      jump\t// in\n    tag_421:\n        /* \"#utility.yul\":13982:14038   */\n    tag_420:\n        /* \"#utility.yul\":14056:14085   */\n      tag_422\n        /* \"#utility.yul\":14078:14084   */\n      dup3\n        /* \"#utility.yul\":14056:14085   */\n      tag_334\n      jump\t// in\n    tag_422:\n        /* \"#utility.yul\":14048:14085   */\n      swap1\n      pop\n        /* \"#utility.yul\":14140:14144   */\n      0x20\n        /* \"#utility.yul\":14134:14138   */\n      dup2\n        /* \"#utility.yul\":14130:14145   */\n      add\n        /* \"#utility.yul\":14122:14145   */\n      swap1\n      pop\n        /* \"#utility.yul\":13844:14152   */\n      swap2\n      swap1\n      pop\n      jump\t// out\n        /* \"#utility.yul\":14158:14257   */\n    tag_328:\n        /* \"#utility.yul\":14210:14216   */\n      0x00\n        /* \"#utility.yul\":14244:14249   */\n      dup2\n        /* \"#utility.yul\":14238:14250   */\n      mload\n        /* \"#utility.yul\":14228:14250   */\n      swap1\n      pop\n        /* \"#utility.yul\":14158:14257   */\n      swap2\n      swap1\n      pop\n      jump\t// out\n        /* \"#utility.yul\":14263:14422   */\n    tag_330:\n        /* \"#utility.yul\":14337:14348   */\n      0x00\n        /* \"#utility.yul\":14371:14377   */\n      dup3\n        /* \"#utility.yul\":14366:14369   */\n      dup3\n        /* \"#utility.yul\":14359:14378   */\n      mstore\n        /* \"#utility.yul\":14411:14415   */\n      0x20\n        /* \"#utility.yul\":14406:14409   */\n      dup3\n        /* \"#utility.yul\":14402:14416   */\n      add\n        /* \"#utility.yul\":14387:14416   */\n      swap1\n      pop\n        /* \"#utility.yul\":14263:14422   */\n      swap3\n      swap2\n      pop\n      pop\n      jump\t// out\n        /* \"#utility.yul\":14428:14597   */\n    tag_339:\n        /* \"#utility.yul\":14512:14523   */\n      0x00\n        /* \"#utility.yul\":14546:14552   */\n      dup3\n        /* \"#utility.yul\":14541:14544   */\n      dup3\n        /* \"#utility.yul\":14534:14553   */\n      mstore\n        /* \"#utility.yul\":14586:14590   */\n      0x20\n        /* \"#utility.yul\":14581:14584   */\n      dup3\n        /* \"#utility.yul\":14577:14591   */\n      add\n        /* \"#utility.yul\":14562:14591   */\n      swap1\n      pop\n        /* \"#utility.yul\":14428:14597   */\n      swap3\n      swap2\n      pop\n      pop\n      jump\t// out\n        /* \"#utility.yul\":14603:14751   */\n    tag_346:\n        /* \"#utility.yul\":14705:14716   */\n      0x00\n        /* \"#utility.yul\":14742:14745   */\n      dup2\n        /* \"#utility.yul\":14727:14745   */\n      swap1\n      pop\n        /* \"#utility.yul\":14603:14751   */\n      swap3\n      swap2\n      pop\n      pop\n      jump\t// out\n        /* \"#utility.yul\":14757:15062   */\n    tag_205:\n        /* \"#utility.yul\":14797:14800   */\n      0x00\n        /* \"#utility.yul\":14816:14836   */\n      tag_428\n        /* \"#utility.yul\":14834:14835   */\n      dup3\n        /* \"#utility.yul\":14816:14836   */\n      tag_429\n      jump\t// in\n    tag_428:\n        /* \"#utility.yul\":14811:14836   */\n      swap2\n      pop\n        /* \"#utility.yul\":14850:14870   */\n      tag_430\n        /* \"#utility.yul\":14868:14869   */\n      dup4\n        /* \"#utility.yul\":14850:14870   */\n      tag_429\n      jump\t// in\n    tag_430:\n        /* \"#utility.yul\":14845:14870   */\n      swap3\n      pop\n        /* \"#utility.yul\":15004:15005   */\n      dup3\n        /* \"#utility.yul\":14936:15002   */\n      0xffffffffffffffffffffffffffffffffffffffffffffffffffffffffffffffff\n        /* \"#utility.yul\":14932:15006   */\n      sub\n        /* \"#utility.yul\":14929:14930   */\n      dup3\n        /* \"#utility.yul\":14926:15007   */\n      gt\n        /* \"#utility.yul\":14923:15030   */\n      iszero\n      tag_431\n      jumpi\n        /* \"#utility.yul\":15010:15028   */\n      tag_432\n      tag_433\n      jump\t// in\n    tag_432:\n        /* \"#utility.yul\":14923:15030   */\n    tag_431:\n        /* \"#utility.yul\":15054:15055   */\n      dup3\n        /* \"#utility.yul\":15051:15052   */\n      dup3\n        /* \"#utility.yul\":15047:15056   */\n      add\n        /* \"#utility.yul\":15040:15056   */\n      swap1\n      pop\n        /* \"#utility.yul\":14757:15062   */\n      swap3\n      swap2\n      pop\n      pop\n      jump\t// out\n        /* \"#utility.yul\":15068:15416   */\n    tag_203:\n        /* \"#utility.yul\":15108:15115   */\n      0x00\n        /* \"#utility.yul\":15131:15151   */\n      tag_435\n        /* \"#utility.yul\":15149:15150   */\n      dup3\n        /* \"#utility.yul\":15131:15151   */\n      tag_429\n      jump\t// in\n    tag_435:\n        /* \"#utility.yul\":15126:15151   */\n      swap2\n      pop\n        /* \"#utility.yul\":15165:15185   */\n      tag_436\n        /* \"#utility.yul\":15183:15184   */\n      dup4\n        /* \"#utility.yul\":15165:15185   */\n      tag_429\n      jump\t// in\n    tag_436:\n        /* \"#utility.yul\":15160:15185   */\n      swap3\n      pop\n        /* \"#utility.yul\":15353:15354   */\n      dup2\n        /* \"#utility.yul\":15285:15351   */\n      0xffffffffffffffffffffffffffffffffffffffffffffffffffffffffffffffff\n        /* \"#utility.yul\":15281:15355   */\n      div\n        /* \"#utility.yul\":15278:15279   */\n      dup4\n        /* \"#utility.yul\":15275:15356   */\n      gt\n        /* \"#utility.yul\":15270:15271   */\n      dup3\n        /* \"#utility.yul\":15263:15272   */\n      iszero\n        /* \"#utility.yul\":15256:15273   */\n      iszero\n        /* \"#utility.yul\":15252:15357   */\n      and\n        /* \"#utility.yul\":15249:15380   */\n      iszero\n      tag_437\n      jumpi\n        /* \"#utility.yul\":15360:15378   */\n      tag_438\n      tag_433\n      jump\t// in\n    tag_438:\n        /* \"#utility.yul\":15249:15380   */\n    tag_437:\n        /* \"#utility.yul\":15408:15409   */\n      dup3\n        /* \"#utility.yul\":15405:15406   */\n      dup3\n        /* \"#utility.yul\":15401:15410   */\n      mul\n        /* \"#utility.yul\":15390:15410   */\n      swap1\n      pop\n        /* \"#utility.yul\":15068:15416   */\n      swap3\n      swap2\n      pop\n      pop\n      jump\t// out\n        /* \"#utility.yul\":15422:15518   */\n    tag_313:\n        /* \"#utility.yul\":15459:15466   */\n      0x00\n        /* \"#utility.yul\":15488:15512   */\n      tag_440\n        /* \"#utility.yul\":15506:15511   */\n      dup3\n        /* \"#utility.yul\":15488:15512   */\n      tag_441\n      jump\t// in\n    tag_440:\n        /* \"#utility.yul\":15477:15512   */\n      swap1\n      pop\n        /* \"#utility.yul\":15422:15518   */\n      swap2\n      swap1\n      pop\n      jump\t// out\n        /* \"#utility.yul\":15524:15614   */\n    tag_320:\n        /* \"#utility.yul\":15558:15565   */\n      0x00\n        /* \"#utility.yul\":15601:15606   */\n      dup2\n        /* \"#utility.yul\":15594:15607   */\n      iszero\n        /* \"#utility.yul\":15587:15608   */\n      iszero\n        /* \"#utility.yul\":15576:15608   */\n      swap1\n      pop\n        /* \"#utility.yul\":15524:15614   */\n      swap2\n      swap1\n      pop\n      jump\t// out\n        /* \"#utility.yul\":15620:15697   */\n    tag_324:\n        /* \"#utility.yul\":15657:15664   */\n      0x00\n        /* \"#utility.yul\":15686:15691   */\n      dup2\n        /* \"#utility.yul\":15675:15691   */\n      swap1\n      pop\n        /* \"#utility.yul\":15620:15697   */\n      swap2\n      swap1\n      pop\n      jump\t// out\n        /* \"#utility.yul\":15703:15852   */\n    tag_444:\n        /* \"#utility.yul\":15739:15746   */\n      0x00\n        /* \"#utility.yul\":15779:15845   */\n      0xffffffff00000000000000000000000000000000000000000000000000000000\n        /* \"#utility.yul\":15772:15777   */\n      dup3\n        /* \"#utility.yul\":15768:15846   */\n      and\n        /* \"#utility.yul\":15757:15846   */\n      swap1\n      pop\n        /* \"#utility.yul\":15703:15852   */\n      swap2\n      swap1\n      pop\n      jump\t// out\n        /* \"#utility.yul\":15858:15984   */\n    tag_441:\n        /* \"#utility.yul\":15895:15902   */\n      0x00\n        /* \"#utility.yul\":15935:15977   */\n      0xffffffffffffffffffffffffffffffffffffffff\n        /* \"#utility.yul\":15928:15933   */\n      dup3\n        /* \"#utility.yul\":15924:15978   */\n      and\n        /* \"#utility.yul\":15913:15978   */\n      swap1\n      pop\n        /* \"#utility.yul\":15858:15984   */\n      swap2\n      swap1\n      pop\n      jump\t// out\n        /* \"#utility.yul\":15990:16067   */\n    tag_429:\n        /* \"#utility.yul\":16027:16034   */\n      0x00\n        /* \"#utility.yul\":16056:16061   */\n      dup2\n        /* \"#utility.yul\":16045:16061   */\n      swap1\n      pop\n        /* \"#utility.yul\":15990:16067   */\n      swap2\n      swap1\n      pop\n      jump\t// out\n        /* \"#utility.yul\":16073:16227   */\n    tag_256:\n        /* \"#utility.yul\":16157:16163   */\n      dup3\n        /* \"#utility.yul\":16152:16155   */\n      dup2\n        /* \"#utility.yul\":16147:16150   */\n      dup4\n        /* \"#utility.yul\":16134:16164   */\n      calldatacopy\n        /* \"#utility.yul\":16219:16220   */\n      0x00\n        /* \"#utility.yul\":16210:16216   */\n      dup4\n        /* \"#utility.yul\":16205:16208   */\n      dup4\n        /* \"#utility.yul\":16201:16217   */\n      add\n        /* \"#utility.yul\":16194:16221   */\n      mstore\n        /* \"#utility.yul\":16073:16227   */\n      pop\n      pop\n      pop\n      jump\t// out\n        /* \"#utility.yul\":16233:16540   */\n    tag_332:\n        /* \"#utility.yul\":16301:16302   */\n      0x00\n        /* \"#utility.yul\":16311:16424   */\n    tag_450:\n        /* \"#utility.yul\":16325:16331   */\n      dup4\n        /* \"#utility.yul\":16322:16323   */\n      dup2\n        /* \"#utility.yul\":16319:16332   */\n      lt\n        /* \"#utility.yul\":16311:16424   */\n      iszero\n      tag_452\n      jumpi\n        /* \"#utility.yul\":16410:16411   */\n      dup1\n        /* \"#utility.yul\":16405:16408   */\n      dup3\n        /* \"#utility.yul\":16401:16412   */\n      add\n        /* \"#utility.yul\":16395:16413   */\n      mload\n        /* \"#utility.yul\":16391:16392   */\n      dup2\n        /* \"#utility.yul\":16386:16389   */\n      dup5\n        /* \"#utility.yul\":16382:16393   */\n      add\n        /* \"#utility.yul\":16375:16414   */\n      mstore\n        /* \"#utility.yul\":16347:16349   */\n      0x20\n        /* \"#utility.yul\":16344:16345   */\n      dup2\n        /* \"#utility.yul\":16340:16350   */\n      add\n        /* \"#utility.yul\":16335:16350   */\n      swap1\n      pop\n        /* \"#utility.yul\":16311:16424   */\n      jump(tag_450)\n    tag_452:\n        /* \"#utility.yul\":16442:16448   */\n      dup4\n        /* \"#utility.yul\":16439:16440   */\n      dup2\n        /* \"#utility.yul\":16436:16449   */\n      gt\n        /* \"#utility.yul\":16433:16534   */\n      iszero\n      tag_453\n      jumpi\n        /* \"#utility.yul\":16522:16523   */\n      0x00\n        /* \"#utility.yul\":16513:16519   */\n      dup5\n        /* \"#utility.yul\":16508:16511   */\n      dup5\n        /* \"#utility.yul\":16504:16520   */\n      add\n        /* \"#utility.yul\":16497:16524   */\n      mstore\n        /* \"#utility.yul\":16433:16534   */\n    tag_453:\n        /* \"#utility.yul\":16282:16540   */\n      pop\n        /* \"#utility.yul\":16233:16540   */\n      pop\n      pop\n      pop\n      jump\t// out\n        /* \"#utility.yul\":16546:16717   */\n    tag_224:\n        /* \"#utility.yul\":16585:16588   */\n      0x00\n        /* \"#utility.yul\":16608:16632   */\n      tag_455\n        /* \"#utility.yul\":16626:16631   */\n      dup3\n        /* \"#utility.yul\":16608:16632   */\n      tag_429\n      jump\t// in\n    tag_455:\n        /* \"#utility.yul\":16599:16632   */\n      swap2\n      pop\n        /* \"#utility.yul\":16654:16658   */\n      0x00\n        /* \"#utility.yul\":16647:16652   */\n      dup3\n        /* \"#utility.yul\":16644:16659   */\n      eq\n        /* \"#utility.yul\":16641:16682   */\n      iszero\n      tag_456\n      jumpi\n        /* \"#utility.yul\":16662:16680   */\n      tag_457\n      tag_433\n      jump\t// in\n    tag_457:\n        /* \"#utility.yul\":16641:16682   */\n    tag_456:\n        /* \"#utility.yul\":16709:16710   */\n      0x01\n        /* \"#utility.yul\":16702:16707   */\n      dup3\n        /* \"#utility.yul\":16698:16711   */\n      sub\n        /* \"#utility.yul\":16691:16711   */\n      swap1\n      pop\n        /* \"#utility.yul\":16546:16717   */\n      swap2\n      swap1\n      pop\n      jump\t// out\n        /* \"#utility.yul\":16723:17043   */\n    tag_100:\n        /* \"#utility.yul\":16767:16773   */\n      0x00\n        /* \"#utility.yul\":16804:16805   */\n      0x02\n        /* \"#utility.yul\":16798:16802   */\n      dup3\n        /* \"#utility.yul\":16794:16806   */\n      div\n        /* \"#utility.yul\":16784:16806   */\n      swap1\n      pop\n        /* \"#utility.yul\":16851:16852   */\n      0x01\n        /* \"#utility.yul\":16845:16849   */\n      dup3\n        /* \"#utility.yul\":16841:16853   */\n      and\n        /* \"#utility.yul\":16872:16890   */\n      dup1\n        /* \"#utility.yul\":16862:16943   */\n      tag_459\n      jumpi\n        /* \"#utility.yul\":16928:16932   */\n      0x7f\n        /* \"#utility.yul\":16920:16926   */\n      dup3\n        /* \"#utility.yul\":16916:16933   */\n      and\n        /* \"#utility.yul\":16906:16933   */\n      swap2\n      pop\n        /* \"#utility.yul\":16862:16943   */\n    tag_459:\n        /* \"#utility.yul\":16990:16992   */\n      0x20\n        /* \"#utility.yul\":16982:16988   */\n      dup3\n        /* \"#utility.yul\":16979:16993   */\n      lt\n        /* \"#utility.yul\":16959:16977   */\n      dup2\n        /* \"#utility.yul\":16956:16994   */\n      eq\n        /* \"#utility.yul\":16953:17037   */\n      iszero\n      tag_460\n      jumpi\n        /* \"#utility.yul\":17009:17027   */\n      tag_461\n      tag_462\n      jump\t// in\n    tag_461:\n        /* \"#utility.yul\":16953:17037   */\n    tag_460:\n        /* \"#utility.yul\":16774:17043   */\n      pop\n        /* \"#utility.yul\":16723:17043   */\n      swap2\n      swap1\n      pop\n      jump\t// out\n        /* \"#utility.yul\":17049:17330   */\n    tag_417:\n        /* \"#utility.yul\":17132:17159   */\n      tag_464\n        /* \"#utility.yul\":17154:17158   */\n      dup3\n        /* \"#utility.yul\":17132:17159   */\n      tag_334\n      jump\t// in\n    tag_464:\n        /* \"#utility.yul\":17124:17130   */\n      dup2\n        /* \"#utility.yul\":17120:17160   */\n      add\n        /* \"#utility.yul\":17262:17268   */\n      dup2\n        /* \"#utility.yul\":17250:17260   */\n      dup2\n        /* \"#utility.yul\":17247:17269   */\n      lt\n        /* \"#utility.yul\":17226:17244   */\n      0xffffffffffffffff\n        /* \"#utility.yul\":17214:17224   */\n      dup3\n        /* \"#utility.yul\":17211:17245   */\n      gt\n        /* \"#utility.yul\":17208:17270   */\n      or\n        /* \"#utility.yul\":17205:17293   */\n      iszero\n      tag_465\n      jumpi\n        /* \"#utility.yul\":17273:17291   */\n      tag_466\n      tag_208\n      jump\t// in\n    tag_466:\n        /* \"#utility.yul\":17205:17293   */\n    tag_465:\n        /* \"#utility.yul\":17313:17323   */\n      dup1\n        /* \"#utility.yul\":17309:17311   */\n      0x40\n        /* \"#utility.yul\":17302:17324   */\n      mstore\n        /* \"#utility.yul\":17092:17330   */\n      pop\n        /* \"#utility.yul\":17049:17330   */\n      pop\n      pop\n      jump\t// out\n        /* \"#utility.yul\":17336:17569   */\n    tag_159:\n        /* \"#utility.yul\":17375:17378   */\n      0x00\n        /* \"#utility.yul\":17398:17422   */\n      tag_468\n        /* \"#utility.yul\":17416:17421   */\n      dup3\n        /* \"#utility.yul\":17398:17422   */\n      tag_429\n      jump\t// in\n    tag_468:\n        /* \"#utility.yul\":17389:17422   */\n      swap2\n      pop\n        /* \"#utility.yul\":17444:17510   */\n      0xffffffffffffffffffffffffffffffffffffffffffffffffffffffffffffffff\n        /* \"#utility.yul\":17437:17442   */\n      dup3\n        /* \"#utility.yul\":17434:17511   */\n      eq\n        /* \"#utility.yul\":17431:17534   */\n      iszero\n      tag_469\n      jumpi\n        /* \"#utility.yul\":17514:17532   */\n      tag_470\n      tag_433\n      jump\t// in\n    tag_470:\n        /* \"#utility.yul\":17431:17534   */\n    tag_469:\n        /* \"#utility.yul\":17561:17562   */\n      0x01\n        /* \"#utility.yul\":17554:17559   */\n      dup3\n        /* \"#utility.yul\":17550:17563   */\n      add\n        /* \"#utility.yul\":17543:17563   */\n      swap1\n      pop\n        /* \"#utility.yul\":17336:17569   */\n      swap2\n      swap1\n      pop\n      jump\t// out\n        /* \"#utility.yul\":17575:17755   */\n    tag_433:\n        /* \"#utility.yul\":17623:17700   */\n      0x4e487b7100000000000000000000000000000000000000000000000000000000\n        /* \"#utility.yul\":17620:17621   */\n      0x00\n        /* \"#utility.yul\":17613:17701   */\n      mstore\n        /* \"#utility.yul\":17720:17724   */\n      0x11\n        /* \"#utility.yul\":17717:17718   */\n      0x04\n        /* \"#utility.yul\":17710:17725   */\n      mstore\n        /* \"#utility.yul\":17744:17748   */\n      0x24\n        /* \"#utility.yul\":17741:17742   */\n      0x00\n        /* \"#utility.yul\":17734:17749   */\n      revert\n        /* \"#utility.yul\":17761:17941   */\n    tag_462:\n        /* \"#utility.yul\":17809:17886   */\n      0x4e487b7100000000000000000000000000000000000000000000000000000000\n        /* \"#utility.yul\":17806:17807   */\n      0x00\n        /* \"#utility.yul\":17799:17887   */\n      mstore\n        /* \"#utility.yul\":17906:17910   */\n      0x22\n        /* \"#utility.yul\":17903:17904   */\n      0x04\n        /* \"#utility.yul\":17896:17911   */\n      mstore\n        /* \"#utility.yul\":17930:17934   */\n      0x24\n        /* \"#utility.yul\":17927:17928   */\n      0x00\n        /* \"#utility.yul\":17920:17935   */\n      revert\n        /* \"#utility.yul\":17947:18127   */\n    tag_153:\n        /* \"#utility.yul\":17995:18072   */\n      0x4e487b7100000000000000000000000000000000000000000000000000000000\n        /* \"#utility.yul\":17992:17993   */\n      0x00\n        /* \"#utility.yul\":17985:18073   */\n      mstore\n        /* \"#utility.yul\":18092:18096   */\n      0x32\n        /* \"#utility.yul\":18089:18090   */\n      0x04\n        /* \"#utility.yul\":18082:18097   */\n      mstore\n        /* \"#utility.yul\":18116:18120   */\n      0x24\n        /* \"#utility.yul\":18113:18114   */\n      0x00\n        /* \"#utility.yul\":18106:18121   */\n      revert\n        /* \"#utility.yul\":18133:18313   */\n    tag_208:\n        /* \"#utility.yul\":18181:18258   */\n      0x4e487b7100000000000000000000000000000000000000000000000000000000\n        /* \"#utility.yul\":18178:18179   */\n      0x00\n        /* \"#utility.yul\":18171:18259   */\n      mstore\n        /* \"#utility.yul\":18278:18282   */\n      0x41\n        /* \"#utility.yul\":18275:18276   */\n      0x04\n        /* \"#utility.yul\":18268:18283   */\n      mstore\n        /* \"#utility.yul\":18302:18306   */\n      0x24\n        /* \"#utility.yul\":18299:18300   */\n      0x00\n        /* \"#utility.yul\":18292:18307   */\n      revert\n        /* \"#utility.yul\":18319:18436   */\n    tag_273:\n        /* \"#utility.yul\":18428:18429   */\n      0x00\n        /* \"#utility.yul\":18425:18426   */\n      dup1\n        /* \"#utility.yul\":18418:18430   */\n      revert\n        /* \"#utility.yul\":18442:18559   */\n    tag_254:\n        /* \"#utility.yul\":18551:18552   */\n      0x00\n        /* \"#utility.yul\":18548:18549   */\n      dup1\n        /* \"#utility.yul\":18541:18553   */\n      revert\n        /* \"#utility.yul\":18565:18682   */\n    tag_302:\n        /* \"#utility.yul\":18674:18675   */\n      0x00\n        /* \"#utility.yul\":18671:18672   */\n      dup1\n        /* \"#utility.yul\":18664:18676   */\n      revert\n        /* \"#utility.yul\":18688:18805   */\n    tag_282:\n        /* \"#utility.yul\":18797:18798   */\n      0x00\n        /* \"#utility.yul\":18794:18795   */\n      dup1\n        /* \"#utility.yul\":18787:18799   */\n      revert\n        /* \"#utility.yul\":18811:18913   */\n    tag_334:\n        /* \"#utility.yul\":18852:18858   */\n      0x00\n        /* \"#utility.yul\":18903:18905   */\n      0x1f\n        /* \"#utility.yul\":18899:18906   */\n      not\n        /* \"#utility.yul\":18894:18896   */\n      0x1f\n        /* \"#utility.yul\":18887:18892   */\n      dup4\n        /* \"#utility.yul\":18883:18897   */\n      add\n        /* \"#utility.yul\":18879:18907   */\n      and\n        /* \"#utility.yul\":18869:18907   */\n      swap1\n      pop\n        /* \"#utility.yul\":18811:18913   */\n      swap2\n      swap1\n      pop\n      jump\t// out\n        /* \"#utility.yul\":18919:19101   */\n    tag_352:\n        /* \"#utility.yul\":19059:19093   */\n      0x537472696e67733a20686578206c656e67746820696e73756666696369656e74\n        /* \"#utility.yul\":19055:19056   */\n      0x00\n        /* \"#utility.yul\":19047:19053   */\n      dup3\n        /* \"#utility.yul\":19043:19057   */\n      add\n        /* \"#utility.yul\":19036:19094   */\n      mstore\n        /* \"#utility.yul\":18919:19101   */\n      pop\n      jump\t// out\n        /* \"#utility.yul\":19107:19332   */\n    tag_357:\n        /* \"#utility.yul\":19247:19281   */\n      0x4f776e61626c653a206e6577206f776e657220697320746865207a65726f2061\n        /* \"#utility.yul\":19243:19244   */\n      0x00\n        /* \"#utility.yul\":19235:19241   */\n      dup3\n        /* \"#utility.yul\":19231:19245   */\n      add\n        /* \"#utility.yul\":19224:19282   */\n      mstore\n        /* \"#utility.yul\":19316:19324   */\n      0x6464726573730000000000000000000000000000000000000000000000000000\n        /* \"#utility.yul\":19311:19313   */\n      0x20\n        /* \"#utility.yul\":19303:19309   */\n      dup3\n        /* \"#utility.yul\":19299:19314   */\n      add\n        /* \"#utility.yul\":19292:19325   */\n      mstore\n        /* \"#utility.yul\":19107:19332   */\n      pop\n      jump\t// out\n        /* \"#utility.yul\":19338:19519   */\n    tag_362:\n        /* \"#utility.yul\":19478:19511   */\n      0x43616c6c6572206973206e6f7420616e20494e45432065786563757469766500\n        /* \"#utility.yul\":19474:19475   */\n      0x00\n        /* \"#utility.yul\":19466:19472   */\n      dup3\n        /* \"#utility.yul\":19462:19476   */\n      add\n        /* \"#utility.yul\":19455:19512   */\n      mstore\n        /* \"#utility.yul\":19338:19519   */\n      pop\n      jump\t// out\n        /* \"#utility.yul\":19525:19707   */\n    tag_367:\n        /* \"#utility.yul\":19665:19699   */\n      0x4f776e61626c653a2063616c6c6572206973206e6f7420746865206f776e6572\n        /* \"#utility.yul\":19661:19662   */\n      0x00\n        /* \"#utility.yul\":19653:19659   */\n      dup3\n        /* \"#utility.yul\":19649:19663   */\n      add\n        /* \"#utility.yul\":19642:19700   */\n      mstore\n        /* \"#utility.yul\":19525:19707   */\n      pop\n      jump\t// out\n        /* \"#utility.yul\":19713:19886   */\n    tag_372:\n        /* \"#utility.yul\":19853:19878   */\n      0x416363657373436f6e74726f6c3a206163636f756e7420000000000000000000\n        /* \"#utility.yul\":19849:19850   */\n      0x00\n        /* \"#utility.yul\":19841:19847   */\n      dup3\n        /* \"#utility.yul\":19837:19851   */\n      add\n        /* \"#utility.yul\":19830:19879   */\n      mstore\n        /* \"#utility.yul\":19713:19886   */\n      pop\n      jump\t// out\n        /* \"#utility.yul\":19892:20059   */\n    tag_377:\n        /* \"#utility.yul\":20032:20051   */\n      0x206973206d697373696e6720726f6c6520000000000000000000000000000000\n        /* \"#utility.yul\":20028:20029   */\n      0x00\n        /* \"#utility.yul\":20020:20026   */\n      dup3\n        /* \"#utility.yul\":20016:20030   */\n      add\n        /* \"#utility.yul\":20009:20052   */\n      mstore\n        /* \"#utility.yul\":19892:20059   */\n      pop\n      jump\t// out\n        /* \"#utility.yul\":20065:20299   */\n    tag_382:\n        /* \"#utility.yul\":20205:20239   */\n      0x416363657373436f6e74726f6c3a2063616e206f6e6c792072656e6f756e6365\n        /* \"#utility.yul\":20201:20202   */\n      0x00\n        /* \"#utility.yul\":20193:20199   */\n      dup3\n        /* \"#utility.yul\":20189:20203   */\n      add\n        /* \"#utility.yul\":20182:20240   */\n      mstore\n        /* \"#utility.yul\":20274:20291   */\n      0x20726f6c657320666f722073656c660000000000000000000000000000000000\n        /* \"#utility.yul\":20269:20271   */\n      0x20\n        /* \"#utility.yul\":20261:20267   */\n      dup3\n        /* \"#utility.yul\":20257:20272   */\n      add\n        /* \"#utility.yul\":20250:20292   */\n      mstore\n        /* \"#utility.yul\":20065:20299   */\n      pop\n      jump\t// out\n        /* \"#utility.yul\":20305:20427   */\n    tag_260:\n        /* \"#utility.yul\":20378:20402   */\n      tag_488\n        /* \"#utility.yul\":20396:20401   */\n      dup2\n        /* \"#utility.yul\":20378:20402   */\n      tag_313\n      jump\t// in\n    tag_488:\n        /* \"#utility.yul\":20371:20376   */\n      dup2\n        /* \"#utility.yul\":20368:20403   */\n      eq\n        /* \"#utility.yul\":20358:20421   */\n      tag_489\n      jumpi\n        /* \"#utility.yul\":20417:20418   */\n      0x00\n        /* \"#utility.yul\":20414:20415   */\n      dup1\n        /* \"#utility.yul\":20407:20419   */\n      revert\n        /* \"#utility.yul\":20358:20421   */\n    tag_489:\n        /* \"#utility.yul\":20305:20427   */\n      pop\n      jump\t// out\n        /* \"#utility.yul\":20433:20555   */\n    tag_264:\n        /* \"#utility.yul\":20506:20530   */\n      tag_491\n        /* \"#utility.yul\":20524:20529   */\n      dup2\n        /* \"#utility.yul\":20506:20530   */\n      tag_324\n      jump\t// in\n    tag_491:\n        /* \"#utility.yul\":20499:20504   */\n      dup2\n        /* \"#utility.yul\":20496:20531   */\n      eq\n        /* \"#utility.yul\":20486:20549   */\n      tag_492\n      jumpi\n        /* \"#utility.yul\":20545:20546   */\n      0x00\n        /* \"#utility.yul\":20542:20543   */\n      dup1\n        /* \"#utility.yul\":20535:20547   */\n      revert\n        /* \"#utility.yul\":20486:20549   */\n    tag_492:\n        /* \"#utility.yul\":20433:20555   */\n      pop\n      jump\t// out\n        /* \"#utility.yul\":20561:20681   */\n    tag_268:\n        /* \"#utility.yul\":20633:20656   */\n      tag_494\n        /* \"#utility.yul\":20650:20655   */\n      dup2\n        /* \"#utility.yul\":20633:20656   */\n      tag_444\n      jump\t// in\n    tag_494:\n        /* \"#utility.yul\":20626:20631   */\n      dup2\n        /* \"#utility.yul\":20623:20657   */\n      eq\n        /* \"#utility.yul\":20613:20675   */\n      tag_495\n      jumpi\n        /* \"#utility.yul\":20671:20672   */\n      0x00\n        /* \"#utility.yul\":20668:20669   */\n      dup1\n        /* \"#utility.yul\":20661:20673   */\n      revert\n        /* \"#utility.yul\":20613:20675   */\n    tag_495:\n        /* \"#utility.yul\":20561:20681   */\n      pop\n      jump\t// out\n        /* \"#utility.yul\":20687:20809   */\n    tag_278:\n        /* \"#utility.yul\":20760:20784   */\n      tag_497\n        /* \"#utility.yul\":20778:20783   */\n      dup2\n        /* \"#utility.yul\":20760:20784   */\n      tag_429\n      jump\t// in\n    tag_497:\n        /* \"#utility.yul\":20753:20758   */\n      dup2\n        /* \"#utility.yul\":20750:20785   */\n      eq\n        /* \"#utility.yul\":20740:20803   */\n      tag_498\n      jumpi\n        /* \"#utility.yul\":20799:20800   */\n      0x00\n        /* \"#utility.yul\":20796:20797   */\n      dup1\n        /* \"#utility.yul\":20789:20801   */\n      revert\n        /* \"#utility.yul\":20740:20803   */\n    tag_498:\n        /* \"#utility.yul\":20687:20809   */\n      pop\n      jump\t// out\n\n    auxdata: 0xa26469706673582212204f7321976077fb784621922294abff00332cbbc6365e15d083c754a968f5e6c464736f6c63430008070033\n}\n",
				"bytecode": {
					"linkReferences": {},
					"object": "608060405260405180608001604052806040518060400160405280600381526020017f415043000000000000000000000000000000000000000000000000000000000081525081526020016040518060400160405280600381526020017f504450000000000000000000000000000000000000000000000000000000000081525081526020016040518060400160405280600281526020017f4c5000000000000000000000000000000000000000000000000000000000000081525081526020016040518060400160405280600481526020017f4e4e50500000000000000000000000000000000000000000000000000000000081525081525060049060046200010b92919062000393565b503480156200011957600080fd5b506200013a6200012e6200015560201b60201c565b6200015d60201b60201c565b6200014f6000801b336200022160201b60201c565b6200057d565b600033905090565b60008060009054906101000a900473ffffffffffffffffffffffffffffffffffffffff169050816000806101000a81548173ffffffffffffffffffffffffffffffffffffffff021916908373ffffffffffffffffffffffffffffffffffffffff1602179055508173ffffffffffffffffffffffffffffffffffffffff168173ffffffffffffffffffffffffffffffffffffffff167f8be0079c531659141344cd1fd0a4f28419497f9722a3daafe3b4186f6b6457e060405160405180910390a35050565b6200023382826200023760201b60201c565b5050565b6200024982826200032860201b60201c565b6200032457600180600084815260200190815260200160002060000160008373ffffffffffffffffffffffffffffffffffffffff1673ffffffffffffffffffffffffffffffffffffffff16815260200190815260200160002060006101000a81548160ff021916908315150217905550620002c96200015560201b60201c565b73ffffffffffffffffffffffffffffffffffffffff168173ffffffffffffffffffffffffffffffffffffffff16837f2f8788117e7eff1d82e926ec794901d17c78024a50270940304540a733656f0d60405160405180910390a45b5050565b60006001600084815260200190815260200160002060000160008373ffffffffffffffffffffffffffffffffffffffff1673ffffffffffffffffffffffffffffffffffffffff16815260200190815260200160002060009054906101000a900460ff16905092915050565b828054828255906000526020600020908101928215620003e7579160200282015b82811115620003e6578251829080519060200190620003d5929190620003fa565b5091602001919060010190620003b4565b5b509050620003f691906200048b565b5090565b828054620004089062000518565b90600052602060002090601f0160209004810192826200042c576000855562000478565b82601f106200044757805160ff191683800117855562000478565b8280016001018555821562000478579182015b82811115620004775782518255916020019190600101906200045a565b5b509050620004879190620004b3565b5090565b5b80821115620004af5760008181620004a59190620004d2565b506001016200048c565b5090565b5b80821115620004ce576000816000905550600101620004b4565b5090565b508054620004e09062000518565b6000825580601f10620004f4575062000515565b601f016020900490600052602060002090810190620005149190620004b3565b5b50565b600060028204905060018216806200053157607f821691505b602082108114156200054857620005476200054e565b5b50919050565b7f4e487b7100000000000000000000000000000000000000000000000000000000600052602260045260246000fd5b611d25806200058d6000396000f3fe608060405234801561001057600080fd5b50600436106101005760003560e01c80638da5cb5b11610097578063d547741f11610066578063d547741f146102ad578063d59d2a58146102c9578063dfd8459e146102e5578063f2fde38b1461030157610100565b80638da5cb5b1461021157806391d148541461022f5780639e5f03491461025f578063a217fddf1461028f57610100565b8063314fd68f116100d3578063314fd68f1461019f57806336568abe146101cf578063463610c2146101eb578063715018a61461020757610100565b806301ffc9a714610105578063248a9ca3146101355780632e0d37bb146101655780632f2ff15d14610183575b600080fd5b61011f600480360381019061011a9190611310565b61031d565b60405161012c9190611659565b60405180910390f35b61014f600480360381019061014a91906112a3565b610397565b60405161015c9190611674565b60405180910390f35b61016d6103b7565b60405161017a9190611674565b60405180910390f35b61019d600480360381019061019891906112d0565b6103db565b005b6101b960048036038101906101b491906113ac565b6103fc565b6040516101c6919061168f565b60405180910390f35b6101e960048036038101906101e491906112d0565b6104a8565b005b61020560048036038101906102009190611276565b61052b565b005b61020f610560565b005b610219610574565b604051610226919061163e565b60405180910390f35b610249600480360381019061024491906112d0565b61059d565b6040516102569190611659565b60405180910390f35b610279600480360381019061027491906113ac565b610608565b6040516102869190611751565b60405180910390f35b6102976107af565b6040516102a49190611674565b60405180910390f35b6102c760048036038101906102c291906112d0565b6107b6565b005b6102e360048036038101906102de919061133d565b6107d7565b005b6102ff60048036038101906102fa9190611276565b61092f565b005b61031b60048036038101906103169190611276565b610964565b005b60007f7965db0b000000000000000000000000000000000000000000000000000000007bffffffffffffffffffffffffffffffffffffffffffffffffffffffff1916827bffffffffffffffffffffffffffffffffffffffffffffffffffffffff19161480610390575061038f826109e8565b5b9050919050565b600060016000838152602001908152602001600020600101549050919050565b7f082f6ed76e0352438e6a6e35c77719c3f04bf277fdc8fec7e5ff5f65e001d90281565b6103e482610397565b6103ed81610a52565b6103f78383610a66565b505050565b6004818154811061040c57600080fd5b9060005260206000200160009150905080546104279061199b565b80601f01602080910402602001604051908101604052809291908181526020018280546104539061199b565b80156104a05780601f10610475576101008083540402835291602001916104a0565b820191906000526020600020905b81548152906001019060200180831161048357829003601f168201915b505050505081565b6104b0610b46565b73ffffffffffffffffffffffffffffffffffffffff168173ffffffffffffffffffffffffffffffffffffffff161461051d576040517f08c379a000000000000000000000000000000000000000000000000000000000815260040161051490611731565b60405180910390fd5b6105278282610b4e565b5050565b610533610c30565b61055d7f082f6ed76e0352438e6a6e35c77719c3f04bf277fdc8fec7e5ff5f65e001d902826103db565b50565b610568610c30565b6105726000610cae565b565b60008060009054906101000a900473ffffffffffffffffffffffffffffffffffffffff16905090565b60006001600084815260200190815260200160002060000160008373ffffffffffffffffffffffffffffffffffffffff1673ffffffffffffffffffffffffffffffffffffffff16815260200190815260200160002060009054906101000a900460ff16905092915050565b61061061104b565b6005600083815260200190815260200160002060405180606001604052908160008201805461063e9061199b565b80601f016020809104026020016040519081016040528092919081815260200182805461066a9061199b565b80156106b75780601f1061068c576101008083540402835291602001916106b7565b820191906000526020600020905b81548152906001019060200180831161069a57829003601f168201915b505050505081526020016001820160009054906101000a900473ffffffffffffffffffffffffffffffffffffffff1673ffffffffffffffffffffffffffffffffffffffff1673ffffffffffffffffffffffffffffffffffffffff1681526020016002820180546107269061199b565b80601f01602080910402602001604051908101604052809291908181526020018280546107529061199b565b801561079f5780601f106107745761010080835404028352916020019161079f565b820191906000526020600020905b81548152906001019060200180831161078257829003601f168201915b5050505050815250509050919050565b6000801b81565b6107bf82610397565b6107c881610a52565b6107d28383610b4e565b505050565b6108017f082f6ed76e0352438e6a6e35c77719c3f04bf277fdc8fec7e5ff5f65e001d9023361059d565b610840576040517f08c379a0000000000000000000000000000000000000000000000000000000008152600401610837906116f1565b60405180910390fd5b82600560006003548152602001908152602001600020600001908051906020019061086c929190611082565b508160056000600354815260200190815260200160002060010160006101000a81548173ffffffffffffffffffffffffffffffffffffffff021916908373ffffffffffffffffffffffffffffffffffffffff160217905550600481815481106108d8576108d7611aa5565b5b906000526020600020016005600060035481526020019081526020016000206002019080546109069061199b565b610911929190611108565b5060036000815480929190610925906119fe565b9190505550505050565b610937610c30565b6109617f082f6ed76e0352438e6a6e35c77719c3f04bf277fdc8fec7e5ff5f65e001d902826103db565b50565b61096c610c30565b600073ffffffffffffffffffffffffffffffffffffffff168173ffffffffffffffffffffffffffffffffffffffff1614156109dc576040517f08c379a00000000000000000000000000000000000000000000000000000000081526004016109d3906116d1565b60405180910390fd5b6109e581610cae565b50565b60007f01ffc9a7000000000000000000000000000000000000000000000000000000007bffffffffffffffffffffffffffffffffffffffffffffffffffffffff1916827bffffffffffffffffffffffffffffffffffffffffffffffffffffffff1916149050919050565b610a6381610a5e610b46565b610d72565b50565b610a70828261059d565b610b4257600180600084815260200190815260200160002060000160008373ffffffffffffffffffffffffffffffffffffffff1673ffffffffffffffffffffffffffffffffffffffff16815260200190815260200160002060006101000a81548160ff021916908315150217905550610ae7610b46565b73ffffffffffffffffffffffffffffffffffffffff168173ffffffffffffffffffffffffffffffffffffffff16837f2f8788117e7eff1d82e926ec794901d17c78024a50270940304540a733656f0d60405160405180910390a45b5050565b600033905090565b610b58828261059d565b15610c2c5760006001600084815260200190815260200160002060000160008373ffffffffffffffffffffffffffffffffffffffff1673ffffffffffffffffffffffffffffffffffffffff16815260200190815260200160002060006101000a81548160ff021916908315150217905550610bd1610b46565b73ffffffffffffffffffffffffffffffffffffffff168173ffffffffffffffffffffffffffffffffffffffff16837ff6391f5c32d9c69d2a47ea670b442974b53935d1edc7fd64eb21e047a839171b60405160405180910390a45b5050565b610c38610b46565b73ffffffffffffffffffffffffffffffffffffffff16610c56610574565b73ffffffffffffffffffffffffffffffffffffffff1614610cac576040517f08c379a0000000000000000000000000000000000000000000000000000000008152600401610ca390611711565b60405180910390fd5b565b60008060009054906101000a900473ffffffffffffffffffffffffffffffffffffffff169050816000806101000a81548173ffffffffffffffffffffffffffffffffffffffff021916908373ffffffffffffffffffffffffffffffffffffffff1602179055508173ffffffffffffffffffffffffffffffffffffffff168173ffffffffffffffffffffffffffffffffffffffff167f8be0079c531659141344cd1fd0a4f28419497f9722a3daafe3b4186f6b6457e060405160405180910390a35050565b610d7c828261059d565b610e0b57610da18173ffffffffffffffffffffffffffffffffffffffff166014610e0f565b610daf8360001c6020610e0f565b604051602001610dc0929190611604565b6040516020818303038152906040526040517f08c379a0000000000000000000000000000000000000000000000000000000008152600401610e02919061168f565b60405180910390fd5b5050565b606060006002836002610e229190611857565b610e2c9190611801565b67ffffffffffffffff811115610e4557610e44611ad4565b5b6040519080825280601f01601f191660200182016040528015610e775781602001600182028036833780820191505090505b5090507f300000000000000000000000000000000000000000000000000000000000000081600081518110610eaf57610eae611aa5565b5b60200101907effffffffffffffffffffffffffffffffffffffffffffffffffffffffffffff1916908160001a9053507f780000000000000000000000000000000000000000000000000000000000000081600181518110610f1357610f12611aa5565b5b60200101907effffffffffffffffffffffffffffffffffffffffffffffffffffffffffffff1916908160001a90535060006001846002610f539190611857565b610f5d9190611801565b90505b6001811115610ffd577f3031323334353637383961626364656600000000000000000000000000000000600f861660108110610f9f57610f9e611aa5565b5b1a60f81b828281518110610fb657610fb5611aa5565b5b60200101907effffffffffffffffffffffffffffffffffffffffffffffffffffffffffffff1916908160001a905350600485901c945080610ff690611971565b9050610f60565b5060008414611041576040517f08c379a0000000000000000000000000000000000000000000000000000000008152600401611038906116b1565b60405180910390fd5b8091505092915050565b604051806060016040528060608152602001600073ffffffffffffffffffffffffffffffffffffffff168152602001606081525090565b82805461108e9061199b565b90600052602060002090601f0160209004810192826110b057600085556110f7565b82601f106110c957805160ff19168380011785556110f7565b828001600101855582156110f7579182015b828111156110f65782518255916020019190600101906110db565b5b5090506111049190611195565b5090565b8280546111149061199b565b90600052602060002090601f0160209004810192826111365760008555611184565b82601f106111475780548555611184565b8280016001018555821561118457600052602060002091601f016020900482015b82811115611183578254825591600101919060010190611168565b5b5090506111919190611195565b5090565b5b808211156111ae576000816000905550600101611196565b5090565b60006111c56111c084611798565b611773565b9050828152602081018484840111156111e1576111e0611b08565b5b6111ec84828561192f565b509392505050565b60008135905061120381611c93565b92915050565b60008135905061121881611caa565b92915050565b60008135905061122d81611cc1565b92915050565b600082601f83011261124857611247611b03565b5b81356112588482602086016111b2565b91505092915050565b60008135905061127081611cd8565b92915050565b60006020828403121561128c5761128b611b12565b5b600061129a848285016111f4565b91505092915050565b6000602082840312156112b9576112b8611b12565b5b60006112c784828501611209565b91505092915050565b600080604083850312156112e7576112e6611b12565b5b60006112f585828601611209565b9250506020611306858286016111f4565b9150509250929050565b60006020828403121561132657611325611b12565b5b60006113348482850161121e565b91505092915050565b60008060006060848603121561135657611355611b12565b5b600084013567ffffffffffffffff81111561137457611373611b0d565b5b61138086828701611233565b9350506020611391868287016111f4565b92505060406113a286828701611261565b9150509250925092565b6000602082840312156113c2576113c1611b12565b5b60006113d084828501611261565b91505092915050565b6113e2816118b1565b82525050565b6113f1816118b1565b82525050565b611400816118c3565b82525050565b61140f816118cf565b82525050565b6000611420826117c9565b61142a81856117d4565b935061143a81856020860161193e565b61144381611b17565b840191505092915050565b6000611459826117c9565b61146381856117e5565b935061147381856020860161193e565b61147c81611b17565b840191505092915050565b6000611492826117c9565b61149c81856117f6565b93506114ac81856020860161193e565b80840191505092915050565b60006114c56020836117e5565b91506114d082611b28565b602082019050919050565b60006114e86026836117e5565b91506114f382611b51565b604082019050919050565b600061150b601f836117e5565b915061151682611ba0565b602082019050919050565b600061152e6020836117e5565b915061153982611bc9565b602082019050919050565b60006115516017836117f6565b915061155c82611bf2565b601782019050919050565b60006115746011836117f6565b915061157f82611c1b565b601182019050919050565b6000611597602f836117e5565b91506115a282611c44565b604082019050919050565b600060608301600083015184820360008601526115ca8282611415565b91505060208301516115df60208601826113d9565b50604083015184820360408601526115f78282611415565b9150508091505092915050565b600061160f82611544565b915061161b8285611487565b915061162682611567565b91506116328284611487565b91508190509392505050565b600060208201905061165360008301846113e8565b92915050565b600060208201905061166e60008301846113f7565b92915050565b60006020820190506116896000830184611406565b92915050565b600060208201905081810360008301526116a9818461144e565b905092915050565b600060208201905081810360008301526116ca816114b8565b9050919050565b600060208201905081810360008301526116ea816114db565b9050919050565b6000602082019050818103600083015261170a816114fe565b9050919050565b6000602082019050818103600083015261172a81611521565b9050919050565b6000602082019050818103600083015261174a8161158a565b9050919050565b6000602082019050818103600083015261176b81846115ad565b905092915050565b600061177d61178e565b905061178982826119cd565b919050565b6000604051905090565b600067ffffffffffffffff8211156117b3576117b2611ad4565b5b6117bc82611b17565b9050602081019050919050565b600081519050919050565b600082825260208201905092915050565b600082825260208201905092915050565b600081905092915050565b600061180c82611925565b915061181783611925565b9250827fffffffffffffffffffffffffffffffffffffffffffffffffffffffffffffffff0382111561184c5761184b611a47565b5b828201905092915050565b600061186282611925565b915061186d83611925565b9250817fffffffffffffffffffffffffffffffffffffffffffffffffffffffffffffffff04831182151516156118a6576118a5611a47565b5b828202905092915050565b60006118bc82611905565b9050919050565b60008115159050919050565b6000819050919050565b60007fffffffff0000000000000000000000000000000000000000000000000000000082169050919050565b600073ffffffffffffffffffffffffffffffffffffffff82169050919050565b6000819050919050565b82818337600083830152505050565b60005b8381101561195c578082015181840152602081019050611941565b8381111561196b576000848401525b50505050565b600061197c82611925565b915060008214156119905761198f611a47565b5b600182039050919050565b600060028204905060018216806119b357607f821691505b602082108114156119c7576119c6611a76565b5b50919050565b6119d682611b17565b810181811067ffffffffffffffff821117156119f5576119f4611ad4565b5b80604052505050565b6000611a0982611925565b91507fffffffffffffffffffffffffffffffffffffffffffffffffffffffffffffffff821415611a3c57611a3b611a47565b5b600182019050919050565b7f4e487b7100000000000000000000000000000000000000000000000000000000600052601160045260246000fd5b7f4e487b7100000000000000000000000000000000000000000000000000000000600052602260045260246000fd5b7f4e487b7100000000000000000000000000000000000000000000000000000000600052603260045260246000fd5b7f4e487b7100000000000000000000000000000000000000000000000000000000600052604160045260246000fd5b600080fd5b600080fd5b600080fd5b600080fd5b6000601f19601f8301169050919050565b7f537472696e67733a20686578206c656e67746820696e73756666696369656e74600082015250565b7f4f776e61626c653a206e6577206f776e657220697320746865207a65726f206160008201527f6464726573730000000000000000000000000000000000000000000000000000602082015250565b7f43616c6c6572206973206e6f7420616e20494e45432065786563757469766500600082015250565b7f4f776e61626c653a2063616c6c6572206973206e6f7420746865206f776e6572600082015250565b7f416363657373436f6e74726f6c3a206163636f756e7420000000000000000000600082015250565b7f206973206d697373696e6720726f6c6520000000000000000000000000000000600082015250565b7f416363657373436f6e74726f6c3a2063616e206f6e6c792072656e6f756e636560008201527f20726f6c657320666f722073656c660000000000000000000000000000000000602082015250565b611c9c816118b1565b8114611ca757600080fd5b50565b611cb3816118cf565b8114611cbe57600080fd5b50565b611cca816118d9565b8114611cd557600080fd5b50565b611ce181611925565b8114611cec57600080fd5b5056fea26469706673582212204f7321976077fb784621922294abff00332cbbc6365e15d083c754a968f5e6c464736f6c63430008070033",
					"opcodes": "PUSH1 0x80 PUSH1 0x40 MSTORE PUSH1 0x40 MLOAD DUP1 PUSH1 0x80 ADD PUSH1 0x40 MSTORE DUP1 PUSH1 0x40 MLOAD DUP1 PUSH1 0x40 ADD PUSH1 0x40 MSTORE DUP1 PUSH1 0x3 DUP2 MSTORE PUSH1 0x20 ADD PUSH32 0x4150430000000000000000000000000000000000000000000000000000000000 DUP2 MSTORE POP DUP2 MSTORE PUSH1 0x20 ADD PUSH1 0x40 MLOAD DUP1 PUSH1 0x40 ADD PUSH1 0x40 MSTORE DUP1 PUSH1 0x3 DUP2 MSTORE PUSH1 0x20 ADD PUSH32 0x5044500000000000000000000000000000000000000000000000000000000000 DUP2 MSTORE POP DUP2 MSTORE PUSH1 0x20 ADD PUSH1 0x40 MLOAD DUP1 PUSH1 0x40 ADD PUSH1 0x40 MSTORE DUP1 PUSH1 0x2 DUP2 MSTORE PUSH1 0x20 ADD PUSH32 0x4C50000000000000000000000000000000000000000000000000000000000000 DUP2 MSTORE POP DUP2 MSTORE PUSH1 0x20 ADD PUSH1 0x40 MLOAD DUP1 PUSH1 0x40 ADD PUSH1 0x40 MSTORE DUP1 PUSH1 0x4 DUP2 MSTORE PUSH1 0x20 ADD PUSH32 0x4E4E505000000000000000000000000000000000000000000000000000000000 DUP2 MSTORE POP DUP2 MSTORE POP PUSH1 0x4 SWAP1 PUSH1 0x4 PUSH3 0x10B SWAP3 SWAP2 SWAP1 PUSH3 0x393 JUMP JUMPDEST POP CALLVALUE DUP1 ISZERO PUSH3 0x119 JUMPI PUSH1 0x0 DUP1 REVERT JUMPDEST POP PUSH3 0x13A PUSH3 0x12E PUSH3 0x155 PUSH1 0x20 SHL PUSH1 0x20 SHR JUMP JUMPDEST PUSH3 0x15D PUSH1 0x20 SHL PUSH1 0x20 SHR JUMP JUMPDEST PUSH3 0x14F PUSH1 0x0 DUP1 SHL CALLER PUSH3 0x221 PUSH1 0x20 SHL PUSH1 0x20 SHR JUMP JUMPDEST PUSH3 0x57D JUMP JUMPDEST PUSH1 0x0 CALLER SWAP1 POP SWAP1 JUMP JUMPDEST PUSH1 0x0 DUP1 PUSH1 0x0 SWAP1 SLOAD SWAP1 PUSH2 0x100 EXP SWAP1 DIV PUSH20 0xFFFFFFFFFFFFFFFFFFFFFFFFFFFFFFFFFFFFFFFF AND SWAP1 POP DUP2 PUSH1 0x0 DUP1 PUSH2 0x100 EXP DUP2 SLOAD DUP2 PUSH20 0xFFFFFFFFFFFFFFFFFFFFFFFFFFFFFFFFFFFFFFFF MUL NOT AND SWAP1 DUP4 PUSH20 0xFFFFFFFFFFFFFFFFFFFFFFFFFFFFFFFFFFFFFFFF AND MUL OR SWAP1 SSTORE POP DUP2 PUSH20 0xFFFFFFFFFFFFFFFFFFFFFFFFFFFFFFFFFFFFFFFF AND DUP2 PUSH20 0xFFFFFFFFFFFFFFFFFFFFFFFFFFFFFFFFFFFFFFFF AND PUSH32 0x8BE0079C531659141344CD1FD0A4F28419497F9722A3DAAFE3B4186F6B6457E0 PUSH1 0x40 MLOAD PUSH1 0x40 MLOAD DUP1 SWAP2 SUB SWAP1 LOG3 POP POP JUMP JUMPDEST PUSH3 0x233 DUP3 DUP3 PUSH3 0x237 PUSH1 0x20 SHL PUSH1 0x20 SHR JUMP JUMPDEST POP POP JUMP JUMPDEST PUSH3 0x249 DUP3 DUP3 PUSH3 0x328 PUSH1 0x20 SHL PUSH1 0x20 SHR JUMP JUMPDEST PUSH3 0x324 JUMPI PUSH1 0x1 DUP1 PUSH1 0x0 DUP5 DUP2 MSTORE PUSH1 0x20 ADD SWAP1 DUP2 MSTORE PUSH1 0x20 ADD PUSH1 0x0 KECCAK256 PUSH1 0x0 ADD PUSH1 0x0 DUP4 PUSH20 0xFFFFFFFFFFFFFFFFFFFFFFFFFFFFFFFFFFFFFFFF AND PUSH20 0xFFFFFFFFFFFFFFFFFFFFFFFFFFFFFFFFFFFFFFFF AND DUP2 MSTORE PUSH1 0x20 ADD SWAP1 DUP2 MSTORE PUSH1 0x20 ADD PUSH1 0x0 KECCAK256 PUSH1 0x0 PUSH2 0x100 EXP DUP2 SLOAD DUP2 PUSH1 0xFF MUL NOT AND SWAP1 DUP4 ISZERO ISZERO MUL OR SWAP1 SSTORE POP PUSH3 0x2C9 PUSH3 0x155 PUSH1 0x20 SHL PUSH1 0x20 SHR JUMP JUMPDEST PUSH20 0xFFFFFFFFFFFFFFFFFFFFFFFFFFFFFFFFFFFFFFFF AND DUP2 PUSH20 0xFFFFFFFFFFFFFFFFFFFFFFFFFFFFFFFFFFFFFFFF AND DUP4 PUSH32 0x2F8788117E7EFF1D82E926EC794901D17C78024A50270940304540A733656F0D PUSH1 0x40 MLOAD PUSH1 0x40 MLOAD DUP1 SWAP2 SUB SWAP1 LOG4 JUMPDEST POP POP JUMP JUMPDEST PUSH1 0x0 PUSH1 0x1 PUSH1 0x0 DUP5 DUP2 MSTORE PUSH1 0x20 ADD SWAP1 DUP2 MSTORE PUSH1 0x20 ADD PUSH1 0x0 KECCAK256 PUSH1 0x0 ADD PUSH1 0x0 DUP4 PUSH20 0xFFFFFFFFFFFFFFFFFFFFFFFFFFFFFFFFFFFFFFFF AND PUSH20 0xFFFFFFFFFFFFFFFFFFFFFFFFFFFFFFFFFFFFFFFF AND DUP2 MSTORE PUSH1 0x20 ADD SWAP1 DUP2 MSTORE PUSH1 0x20 ADD PUSH1 0x0 KECCAK256 PUSH1 0x0 SWAP1 SLOAD SWAP1 PUSH2 0x100 EXP SWAP1 DIV PUSH1 0xFF AND SWAP1 POP SWAP3 SWAP2 POP POP JUMP JUMPDEST DUP3 DUP1 SLOAD DUP3 DUP3 SSTORE SWAP1 PUSH1 0x0 MSTORE PUSH1 0x20 PUSH1 0x0 KECCAK256 SWAP1 DUP2 ADD SWAP3 DUP3 ISZERO PUSH3 0x3E7 JUMPI SWAP2 PUSH1 0x20 MUL DUP3 ADD JUMPDEST DUP3 DUP2 GT ISZERO PUSH3 0x3E6 JUMPI DUP3 MLOAD DUP3 SWAP1 DUP1 MLOAD SWAP1 PUSH1 0x20 ADD SWAP1 PUSH3 0x3D5 SWAP3 SWAP2 SWAP1 PUSH3 0x3FA JUMP JUMPDEST POP SWAP2 PUSH1 0x20 ADD SWAP2 SWAP1 PUSH1 0x1 ADD SWAP1 PUSH3 0x3B4 JUMP JUMPDEST JUMPDEST POP SWAP1 POP PUSH3 0x3F6 SWAP2 SWAP1 PUSH3 0x48B JUMP JUMPDEST POP SWAP1 JUMP JUMPDEST DUP3 DUP1 SLOAD PUSH3 0x408 SWAP1 PUSH3 0x518 JUMP JUMPDEST SWAP1 PUSH1 0x0 MSTORE PUSH1 0x20 PUSH1 0x0 KECCAK256 SWAP1 PUSH1 0x1F ADD PUSH1 0x20 SWAP1 DIV DUP2 ADD SWAP3 DUP3 PUSH3 0x42C JUMPI PUSH1 0x0 DUP6 SSTORE PUSH3 0x478 JUMP JUMPDEST DUP3 PUSH1 0x1F LT PUSH3 0x447 JUMPI DUP1 MLOAD PUSH1 0xFF NOT AND DUP4 DUP1 ADD OR DUP6 SSTORE PUSH3 0x478 JUMP JUMPDEST DUP3 DUP1 ADD PUSH1 0x1 ADD DUP6 SSTORE DUP3 ISZERO PUSH3 0x478 JUMPI SWAP2 DUP3 ADD JUMPDEST DUP3 DUP2 GT ISZERO PUSH3 0x477 JUMPI DUP3 MLOAD DUP3 SSTORE SWAP2 PUSH1 0x20 ADD SWAP2 SWAP1 PUSH1 0x1 ADD SWAP1 PUSH3 0x45A JUMP JUMPDEST JUMPDEST POP SWAP1 POP PUSH3 0x487 SWAP2 SWAP1 PUSH3 0x4B3 JUMP JUMPDEST POP SWAP1 JUMP JUMPDEST JUMPDEST DUP1 DUP3 GT ISZERO PUSH3 0x4AF JUMPI PUSH1 0x0 DUP2 DUP2 PUSH3 0x4A5 SWAP2 SWAP1 PUSH3 0x4D2 JUMP JUMPDEST POP PUSH1 0x1 ADD PUSH3 0x48C JUMP JUMPDEST POP SWAP1 JUMP JUMPDEST JUMPDEST DUP1 DUP3 GT ISZERO PUSH3 0x4CE JUMPI PUSH1 0x0 DUP2 PUSH1 0x0 SWAP1 SSTORE POP PUSH1 0x1 ADD PUSH3 0x4B4 JUMP JUMPDEST POP SWAP1 JUMP JUMPDEST POP DUP1 SLOAD PUSH3 0x4E0 SWAP1 PUSH3 0x518 JUMP JUMPDEST PUSH1 0x0 DUP3 SSTORE DUP1 PUSH1 0x1F LT PUSH3 0x4F4 JUMPI POP PUSH3 0x515 JUMP JUMPDEST PUSH1 0x1F ADD PUSH1 0x20 SWAP1 DIV SWAP1 PUSH1 0x0 MSTORE PUSH1 0x20 PUSH1 0x0 KECCAK256 SWAP1 DUP2 ADD SWAP1 PUSH3 0x514 SWAP2 SWAP1 PUSH3 0x4B3 JUMP JUMPDEST JUMPDEST POP JUMP JUMPDEST PUSH1 0x0 PUSH1 0x2 DUP3 DIV SWAP1 POP PUSH1 0x1 DUP3 AND DUP1 PUSH3 0x531 JUMPI PUSH1 0x7F DUP3 AND SWAP2 POP JUMPDEST PUSH1 0x20 DUP3 LT DUP2 EQ ISZERO PUSH3 0x548 JUMPI PUSH3 0x547 PUSH3 0x54E JUMP JUMPDEST JUMPDEST POP SWAP2 SWAP1 POP JUMP JUMPDEST PUSH32 0x4E487B7100000000000000000000000000000000000000000000000000000000 PUSH1 0x0 MSTORE PUSH1 0x22 PUSH1 0x4 MSTORE PUSH1 0x24 PUSH1 0x0 REVERT JUMPDEST PUSH2 0x1D25 DUP1 PUSH3 0x58D PUSH1 0x0 CODECOPY PUSH1 0x0 RETURN INVALID PUSH1 0x80 PUSH1 0x40 MSTORE CALLVALUE DUP1 ISZERO PUSH2 0x10 JUMPI PUSH1 0x0 DUP1 REVERT JUMPDEST POP PUSH1 0x4 CALLDATASIZE LT PUSH2 0x100 JUMPI PUSH1 0x0 CALLDATALOAD PUSH1 0xE0 SHR DUP1 PUSH4 0x8DA5CB5B GT PUSH2 0x97 JUMPI DUP1 PUSH4 0xD547741F GT PUSH2 0x66 JUMPI DUP1 PUSH4 0xD547741F EQ PUSH2 0x2AD JUMPI DUP1 PUSH4 0xD59D2A58 EQ PUSH2 0x2C9 JUMPI DUP1 PUSH4 0xDFD8459E EQ PUSH2 0x2E5 JUMPI DUP1 PUSH4 0xF2FDE38B EQ PUSH2 0x301 JUMPI PUSH2 0x100 JUMP JUMPDEST DUP1 PUSH4 0x8DA5CB5B EQ PUSH2 0x211 JUMPI DUP1 PUSH4 0x91D14854 EQ PUSH2 0x22F JUMPI DUP1 PUSH4 0x9E5F0349 EQ PUSH2 0x25F JUMPI DUP1 PUSH4 0xA217FDDF EQ PUSH2 0x28F JUMPI PUSH2 0x100 JUMP JUMPDEST DUP1 PUSH4 0x314FD68F GT PUSH2 0xD3 JUMPI DUP1 PUSH4 0x314FD68F EQ PUSH2 0x19F JUMPI DUP1 PUSH4 0x36568ABE EQ PUSH2 0x1CF JUMPI DUP1 PUSH4 0x463610C2 EQ PUSH2 0x1EB JUMPI DUP1 PUSH4 0x715018A6 EQ PUSH2 0x207 JUMPI PUSH2 0x100 JUMP JUMPDEST DUP1 PUSH4 0x1FFC9A7 EQ PUSH2 0x105 JUMPI DUP1 PUSH4 0x248A9CA3 EQ PUSH2 0x135 JUMPI DUP1 PUSH4 0x2E0D37BB EQ PUSH2 0x165 JUMPI DUP1 PUSH4 0x2F2FF15D EQ PUSH2 0x183 JUMPI JUMPDEST PUSH1 0x0 DUP1 REVERT JUMPDEST PUSH2 0x11F PUSH1 0x4 DUP1 CALLDATASIZE SUB DUP2 ADD SWAP1 PUSH2 0x11A SWAP2 SWAP1 PUSH2 0x1310 JUMP JUMPDEST PUSH2 0x31D JUMP JUMPDEST PUSH1 0x40 MLOAD PUSH2 0x12C SWAP2 SWAP1 PUSH2 0x1659 JUMP JUMPDEST PUSH1 0x40 MLOAD DUP1 SWAP2 SUB SWAP1 RETURN JUMPDEST PUSH2 0x14F PUSH1 0x4 DUP1 CALLDATASIZE SUB DUP2 ADD SWAP1 PUSH2 0x14A SWAP2 SWAP1 PUSH2 0x12A3 JUMP JUMPDEST PUSH2 0x397 JUMP JUMPDEST PUSH1 0x40 MLOAD PUSH2 0x15C SWAP2 SWAP1 PUSH2 0x1674 JUMP JUMPDEST PUSH1 0x40 MLOAD DUP1 SWAP2 SUB SWAP1 RETURN JUMPDEST PUSH2 0x16D PUSH2 0x3B7 JUMP JUMPDEST PUSH1 0x40 MLOAD PUSH2 0x17A SWAP2 SWAP1 PUSH2 0x1674 JUMP JUMPDEST PUSH1 0x40 MLOAD DUP1 SWAP2 SUB SWAP1 RETURN JUMPDEST PUSH2 0x19D PUSH1 0x4 DUP1 CALLDATASIZE SUB DUP2 ADD SWAP1 PUSH2 0x198 SWAP2 SWAP1 PUSH2 0x12D0 JUMP JUMPDEST PUSH2 0x3DB JUMP JUMPDEST STOP JUMPDEST PUSH2 0x1B9 PUSH1 0x4 DUP1 CALLDATASIZE SUB DUP2 ADD SWAP1 PUSH2 0x1B4 SWAP2 SWAP1 PUSH2 0x13AC JUMP JUMPDEST PUSH2 0x3FC JUMP JUMPDEST PUSH1 0x40 MLOAD PUSH2 0x1C6 SWAP2 SWAP1 PUSH2 0x168F JUMP JUMPDEST PUSH1 0x40 MLOAD DUP1 SWAP2 SUB SWAP1 RETURN JUMPDEST PUSH2 0x1E9 PUSH1 0x4 DUP1 CALLDATASIZE SUB DUP2 ADD SWAP1 PUSH2 0x1E4 SWAP2 SWAP1 PUSH2 0x12D0 JUMP JUMPDEST PUSH2 0x4A8 JUMP JUMPDEST STOP JUMPDEST PUSH2 0x205 PUSH1 0x4 DUP1 CALLDATASIZE SUB DUP2 ADD SWAP1 PUSH2 0x200 SWAP2 SWAP1 PUSH2 0x1276 JUMP JUMPDEST PUSH2 0x52B JUMP JUMPDEST STOP JUMPDEST PUSH2 0x20F PUSH2 0x560 JUMP JUMPDEST STOP JUMPDEST PUSH2 0x219 PUSH2 0x574 JUMP JUMPDEST PUSH1 0x40 MLOAD PUSH2 0x226 SWAP2 SWAP1 PUSH2 0x163E JUMP JUMPDEST PUSH1 0x40 MLOAD DUP1 SWAP2 SUB SWAP1 RETURN JUMPDEST PUSH2 0x249 PUSH1 0x4 DUP1 CALLDATASIZE SUB DUP2 ADD SWAP1 PUSH2 0x244 SWAP2 SWAP1 PUSH2 0x12D0 JUMP JUMPDEST PUSH2 0x59D JUMP JUMPDEST PUSH1 0x40 MLOAD PUSH2 0x256 SWAP2 SWAP1 PUSH2 0x1659 JUMP JUMPDEST PUSH1 0x40 MLOAD DUP1 SWAP2 SUB SWAP1 RETURN JUMPDEST PUSH2 0x279 PUSH1 0x4 DUP1 CALLDATASIZE SUB DUP2 ADD SWAP1 PUSH2 0x274 SWAP2 SWAP1 PUSH2 0x13AC JUMP JUMPDEST PUSH2 0x608 JUMP JUMPDEST PUSH1 0x40 MLOAD PUSH2 0x286 SWAP2 SWAP1 PUSH2 0x1751 JUMP JUMPDEST PUSH1 0x40 MLOAD DUP1 SWAP2 SUB SWAP1 RETURN JUMPDEST PUSH2 0x297 PUSH2 0x7AF JUMP JUMPDEST PUSH1 0x40 MLOAD PUSH2 0x2A4 SWAP2 SWAP1 PUSH2 0x1674 JUMP JUMPDEST PUSH1 0x40 MLOAD DUP1 SWAP2 SUB SWAP1 RETURN JUMPDEST PUSH2 0x2C7 PUSH1 0x4 DUP1 CALLDATASIZE SUB DUP2 ADD SWAP1 PUSH2 0x2C2 SWAP2 SWAP1 PUSH2 0x12D0 JUMP JUMPDEST PUSH2 0x7B6 JUMP JUMPDEST STOP JUMPDEST PUSH2 0x2E3 PUSH1 0x4 DUP1 CALLDATASIZE SUB DUP2 ADD SWAP1 PUSH2 0x2DE SWAP2 SWAP1 PUSH2 0x133D JUMP JUMPDEST PUSH2 0x7D7 JUMP JUMPDEST STOP JUMPDEST PUSH2 0x2FF PUSH1 0x4 DUP1 CALLDATASIZE SUB DUP2 ADD SWAP1 PUSH2 0x2FA SWAP2 SWAP1 PUSH2 0x1276 JUMP JUMPDEST PUSH2 0x92F JUMP JUMPDEST STOP JUMPDEST PUSH2 0x31B PUSH1 0x4 DUP1 CALLDATASIZE SUB DUP2 ADD SWAP1 PUSH2 0x316 SWAP2 SWAP1 PUSH2 0x1276 JUMP JUMPDEST PUSH2 0x964 JUMP JUMPDEST STOP JUMPDEST PUSH1 0x0 PUSH32 0x7965DB0B00000000000000000000000000000000000000000000000000000000 PUSH28 0xFFFFFFFFFFFFFFFFFFFFFFFFFFFFFFFFFFFFFFFFFFFFFFFFFFFFFFFF NOT AND DUP3 PUSH28 0xFFFFFFFFFFFFFFFFFFFFFFFFFFFFFFFFFFFFFFFFFFFFFFFFFFFFFFFF NOT AND EQ DUP1 PUSH2 0x390 JUMPI POP PUSH2 0x38F DUP3 PUSH2 0x9E8 JUMP JUMPDEST JUMPDEST SWAP1 POP SWAP2 SWAP1 POP JUMP JUMPDEST PUSH1 0x0 PUSH1 0x1 PUSH1 0x0 DUP4 DUP2 MSTORE PUSH1 0x20 ADD SWAP1 DUP2 MSTORE PUSH1 0x20 ADD PUSH1 0x0 KECCAK256 PUSH1 0x1 ADD SLOAD SWAP1 POP SWAP2 SWAP1 POP JUMP JUMPDEST PUSH32 0x82F6ED76E0352438E6A6E35C77719C3F04BF277FDC8FEC7E5FF5F65E001D902 DUP2 JUMP JUMPDEST PUSH2 0x3E4 DUP3 PUSH2 0x397 JUMP JUMPDEST PUSH2 0x3ED DUP2 PUSH2 0xA52 JUMP JUMPDEST PUSH2 0x3F7 DUP4 DUP4 PUSH2 0xA66 JUMP JUMPDEST POP POP POP JUMP JUMPDEST PUSH1 0x4 DUP2 DUP2 SLOAD DUP2 LT PUSH2 0x40C JUMPI PUSH1 0x0 DUP1 REVERT JUMPDEST SWAP1 PUSH1 0x0 MSTORE PUSH1 0x20 PUSH1 0x0 KECCAK256 ADD PUSH1 0x0 SWAP2 POP SWAP1 POP DUP1 SLOAD PUSH2 0x427 SWAP1 PUSH2 0x199B JUMP JUMPDEST DUP1 PUSH1 0x1F ADD PUSH1 0x20 DUP1 SWAP2 DIV MUL PUSH1 0x20 ADD PUSH1 0x40 MLOAD SWAP1 DUP2 ADD PUSH1 0x40 MSTORE DUP1 SWAP3 SWAP2 SWAP1 DUP2 DUP2 MSTORE PUSH1 0x20 ADD DUP3 DUP1 SLOAD PUSH2 0x453 SWAP1 PUSH2 0x199B JUMP JUMPDEST DUP1 ISZERO PUSH2 0x4A0 JUMPI DUP1 PUSH1 0x1F LT PUSH2 0x475 JUMPI PUSH2 0x100 DUP1 DUP4 SLOAD DIV MUL DUP4 MSTORE SWAP2 PUSH1 0x20 ADD SWAP2 PUSH2 0x4A0 JUMP JUMPDEST DUP3 ADD SWAP2 SWAP1 PUSH1 0x0 MSTORE PUSH1 0x20 PUSH1 0x0 KECCAK256 SWAP1 JUMPDEST DUP2 SLOAD DUP2 MSTORE SWAP1 PUSH1 0x1 ADD SWAP1 PUSH1 0x20 ADD DUP1 DUP4 GT PUSH2 0x483 JUMPI DUP3 SWAP1 SUB PUSH1 0x1F AND DUP3 ADD SWAP2 JUMPDEST POP POP POP POP POP DUP2 JUMP JUMPDEST PUSH2 0x4B0 PUSH2 0xB46 JUMP JUMPDEST PUSH20 0xFFFFFFFFFFFFFFFFFFFFFFFFFFFFFFFFFFFFFFFF AND DUP2 PUSH20 0xFFFFFFFFFFFFFFFFFFFFFFFFFFFFFFFFFFFFFFFF AND EQ PUSH2 0x51D JUMPI PUSH1 0x40 MLOAD PUSH32 0x8C379A000000000000000000000000000000000000000000000000000000000 DUP2 MSTORE PUSH1 0x4 ADD PUSH2 0x514 SWAP1 PUSH2 0x1731 JUMP JUMPDEST PUSH1 0x40 MLOAD DUP1 SWAP2 SUB SWAP1 REVERT JUMPDEST PUSH2 0x527 DUP3 DUP3 PUSH2 0xB4E JUMP JUMPDEST POP POP JUMP JUMPDEST PUSH2 0x533 PUSH2 0xC30 JUMP JUMPDEST PUSH2 0x55D PUSH32 0x82F6ED76E0352438E6A6E35C77719C3F04BF277FDC8FEC7E5FF5F65E001D902 DUP3 PUSH2 0x3DB JUMP JUMPDEST POP JUMP JUMPDEST PUSH2 0x568 PUSH2 0xC30 JUMP JUMPDEST PUSH2 0x572 PUSH1 0x0 PUSH2 0xCAE JUMP JUMPDEST JUMP JUMPDEST PUSH1 0x0 DUP1 PUSH1 0x0 SWAP1 SLOAD SWAP1 PUSH2 0x100 EXP SWAP1 DIV PUSH20 0xFFFFFFFFFFFFFFFFFFFFFFFFFFFFFFFFFFFFFFFF AND SWAP1 POP SWAP1 JUMP JUMPDEST PUSH1 0x0 PUSH1 0x1 PUSH1 0x0 DUP5 DUP2 MSTORE PUSH1 0x20 ADD SWAP1 DUP2 MSTORE PUSH1 0x20 ADD PUSH1 0x0 KECCAK256 PUSH1 0x0 ADD PUSH1 0x0 DUP4 PUSH20 0xFFFFFFFFFFFFFFFFFFFFFFFFFFFFFFFFFFFFFFFF AND PUSH20 0xFFFFFFFFFFFFFFFFFFFFFFFFFFFFFFFFFFFFFFFF AND DUP2 MSTORE PUSH1 0x20 ADD SWAP1 DUP2 MSTORE PUSH1 0x20 ADD PUSH1 0x0 KECCAK256 PUSH1 0x0 SWAP1 SLOAD SWAP1 PUSH2 0x100 EXP SWAP1 DIV PUSH1 0xFF AND SWAP1 POP SWAP3 SWAP2 POP POP JUMP JUMPDEST PUSH2 0x610 PUSH2 0x104B JUMP JUMPDEST PUSH1 0x5 PUSH1 0x0 DUP4 DUP2 MSTORE PUSH1 0x20 ADD SWAP1 DUP2 MSTORE PUSH1 0x20 ADD PUSH1 0x0 KECCAK256 PUSH1 0x40 MLOAD DUP1 PUSH1 0x60 ADD PUSH1 0x40 MSTORE SWAP1 DUP2 PUSH1 0x0 DUP3 ADD DUP1 SLOAD PUSH2 0x63E SWAP1 PUSH2 0x199B JUMP JUMPDEST DUP1 PUSH1 0x1F ADD PUSH1 0x20 DUP1 SWAP2 DIV MUL PUSH1 0x20 ADD PUSH1 0x40 MLOAD SWAP1 DUP2 ADD PUSH1 0x40 MSTORE DUP1 SWAP3 SWAP2 SWAP1 DUP2 DUP2 MSTORE PUSH1 0x20 ADD DUP3 DUP1 SLOAD PUSH2 0x66A SWAP1 PUSH2 0x199B JUMP JUMPDEST DUP1 ISZERO PUSH2 0x6B7 JUMPI DUP1 PUSH1 0x1F LT PUSH2 0x68C JUMPI PUSH2 0x100 DUP1 DUP4 SLOAD DIV MUL DUP4 MSTORE SWAP2 PUSH1 0x20 ADD SWAP2 PUSH2 0x6B7 JUMP JUMPDEST DUP3 ADD SWAP2 SWAP1 PUSH1 0x0 MSTORE PUSH1 0x20 PUSH1 0x0 KECCAK256 SWAP1 JUMPDEST DUP2 SLOAD DUP2 MSTORE SWAP1 PUSH1 0x1 ADD SWAP1 PUSH1 0x20 ADD DUP1 DUP4 GT PUSH2 0x69A JUMPI DUP3 SWAP1 SUB PUSH1 0x1F AND DUP3 ADD SWAP2 JUMPDEST POP POP POP POP POP DUP2 MSTORE PUSH1 0x20 ADD PUSH1 0x1 DUP3 ADD PUSH1 0x0 SWAP1 SLOAD SWAP1 PUSH2 0x100 EXP SWAP1 DIV PUSH20 0xFFFFFFFFFFFFFFFFFFFFFFFFFFFFFFFFFFFFFFFF AND PUSH20 0xFFFFFFFFFFFFFFFFFFFFFFFFFFFFFFFFFFFFFFFF AND PUSH20 0xFFFFFFFFFFFFFFFFFFFFFFFFFFFFFFFFFFFFFFFF AND DUP2 MSTORE PUSH1 0x20 ADD PUSH1 0x2 DUP3 ADD DUP1 SLOAD PUSH2 0x726 SWAP1 PUSH2 0x199B JUMP JUMPDEST DUP1 PUSH1 0x1F ADD PUSH1 0x20 DUP1 SWAP2 DIV MUL PUSH1 0x20 ADD PUSH1 0x40 MLOAD SWAP1 DUP2 ADD PUSH1 0x40 MSTORE DUP1 SWAP3 SWAP2 SWAP1 DUP2 DUP2 MSTORE PUSH1 0x20 ADD DUP3 DUP1 SLOAD PUSH2 0x752 SWAP1 PUSH2 0x199B JUMP JUMPDEST DUP1 ISZERO PUSH2 0x79F JUMPI DUP1 PUSH1 0x1F LT PUSH2 0x774 JUMPI PUSH2 0x100 DUP1 DUP4 SLOAD DIV MUL DUP4 MSTORE SWAP2 PUSH1 0x20 ADD SWAP2 PUSH2 0x79F JUMP JUMPDEST DUP3 ADD SWAP2 SWAP1 PUSH1 0x0 MSTORE PUSH1 0x20 PUSH1 0x0 KECCAK256 SWAP1 JUMPDEST DUP2 SLOAD DUP2 MSTORE SWAP1 PUSH1 0x1 ADD SWAP1 PUSH1 0x20 ADD DUP1 DUP4 GT PUSH2 0x782 JUMPI DUP3 SWAP1 SUB PUSH1 0x1F AND DUP3 ADD SWAP2 JUMPDEST POP POP POP POP POP DUP2 MSTORE POP POP SWAP1 POP SWAP2 SWAP1 POP JUMP JUMPDEST PUSH1 0x0 DUP1 SHL DUP2 JUMP JUMPDEST PUSH2 0x7BF DUP3 PUSH2 0x397 JUMP JUMPDEST PUSH2 0x7C8 DUP2 PUSH2 0xA52 JUMP JUMPDEST PUSH2 0x7D2 DUP4 DUP4 PUSH2 0xB4E JUMP JUMPDEST POP POP POP JUMP JUMPDEST PUSH2 0x801 PUSH32 0x82F6ED76E0352438E6A6E35C77719C3F04BF277FDC8FEC7E5FF5F65E001D902 CALLER PUSH2 0x59D JUMP JUMPDEST PUSH2 0x840 JUMPI PUSH1 0x40 MLOAD PUSH32 0x8C379A000000000000000000000000000000000000000000000000000000000 DUP2 MSTORE PUSH1 0x4 ADD PUSH2 0x837 SWAP1 PUSH2 0x16F1 JUMP JUMPDEST PUSH1 0x40 MLOAD DUP1 SWAP2 SUB SWAP1 REVERT JUMPDEST DUP3 PUSH1 0x5 PUSH1 0x0 PUSH1 0x3 SLOAD DUP2 MSTORE PUSH1 0x20 ADD SWAP1 DUP2 MSTORE PUSH1 0x20 ADD PUSH1 0x0 KECCAK256 PUSH1 0x0 ADD SWAP1 DUP1 MLOAD SWAP1 PUSH1 0x20 ADD SWAP1 PUSH2 0x86C SWAP3 SWAP2 SWAP1 PUSH2 0x1082 JUMP JUMPDEST POP DUP2 PUSH1 0x5 PUSH1 0x0 PUSH1 0x3 SLOAD DUP2 MSTORE PUSH1 0x20 ADD SWAP1 DUP2 MSTORE PUSH1 0x20 ADD PUSH1 0x0 KECCAK256 PUSH1 0x1 ADD PUSH1 0x0 PUSH2 0x100 EXP DUP2 SLOAD DUP2 PUSH20 0xFFFFFFFFFFFFFFFFFFFFFFFFFFFFFFFFFFFFFFFF MUL NOT AND SWAP1 DUP4 PUSH20 0xFFFFFFFFFFFFFFFFFFFFFFFFFFFFFFFFFFFFFFFF AND MUL OR SWAP1 SSTORE POP PUSH1 0x4 DUP2 DUP2 SLOAD DUP2 LT PUSH2 0x8D8 JUMPI PUSH2 0x8D7 PUSH2 0x1AA5 JUMP JUMPDEST JUMPDEST SWAP1 PUSH1 0x0 MSTORE PUSH1 0x20 PUSH1 0x0 KECCAK256 ADD PUSH1 0x5 PUSH1 0x0 PUSH1 0x3 SLOAD DUP2 MSTORE PUSH1 0x20 ADD SWAP1 DUP2 MSTORE PUSH1 0x20 ADD PUSH1 0x0 KECCAK256 PUSH1 0x2 ADD SWAP1 DUP1 SLOAD PUSH2 0x906 SWAP1 PUSH2 0x199B JUMP JUMPDEST PUSH2 0x911 SWAP3 SWAP2 SWAP1 PUSH2 0x1108 JUMP JUMPDEST POP PUSH1 0x3 PUSH1 0x0 DUP2 SLOAD DUP1 SWAP3 SWAP2 SWAP1 PUSH2 0x925 SWAP1 PUSH2 0x19FE JUMP JUMPDEST SWAP2 SWAP1 POP SSTORE POP POP POP POP JUMP JUMPDEST PUSH2 0x937 PUSH2 0xC30 JUMP JUMPDEST PUSH2 0x961 PUSH32 0x82F6ED76E0352438E6A6E35C77719C3F04BF277FDC8FEC7E5FF5F65E001D902 DUP3 PUSH2 0x3DB JUMP JUMPDEST POP JUMP JUMPDEST PUSH2 0x96C PUSH2 0xC30 JUMP JUMPDEST PUSH1 0x0 PUSH20 0xFFFFFFFFFFFFFFFFFFFFFFFFFFFFFFFFFFFFFFFF AND DUP2 PUSH20 0xFFFFFFFFFFFFFFFFFFFFFFFFFFFFFFFFFFFFFFFF AND EQ ISZERO PUSH2 0x9DC JUMPI PUSH1 0x40 MLOAD PUSH32 0x8C379A000000000000000000000000000000000000000000000000000000000 DUP2 MSTORE PUSH1 0x4 ADD PUSH2 0x9D3 SWAP1 PUSH2 0x16D1 JUMP JUMPDEST PUSH1 0x40 MLOAD DUP1 SWAP2 SUB SWAP1 REVERT JUMPDEST PUSH2 0x9E5 DUP2 PUSH2 0xCAE JUMP JUMPDEST POP JUMP JUMPDEST PUSH1 0x0 PUSH32 0x1FFC9A700000000000000000000000000000000000000000000000000000000 PUSH28 0xFFFFFFFFFFFFFFFFFFFFFFFFFFFFFFFFFFFFFFFFFFFFFFFFFFFFFFFF NOT AND DUP3 PUSH28 0xFFFFFFFFFFFFFFFFFFFFFFFFFFFFFFFFFFFFFFFFFFFFFFFFFFFFFFFF NOT AND EQ SWAP1 POP SWAP2 SWAP1 POP JUMP JUMPDEST PUSH2 0xA63 DUP2 PUSH2 0xA5E PUSH2 0xB46 JUMP JUMPDEST PUSH2 0xD72 JUMP JUMPDEST POP JUMP JUMPDEST PUSH2 0xA70 DUP3 DUP3 PUSH2 0x59D JUMP JUMPDEST PUSH2 0xB42 JUMPI PUSH1 0x1 DUP1 PUSH1 0x0 DUP5 DUP2 MSTORE PUSH1 0x20 ADD SWAP1 DUP2 MSTORE PUSH1 0x20 ADD PUSH1 0x0 KECCAK256 PUSH1 0x0 ADD PUSH1 0x0 DUP4 PUSH20 0xFFFFFFFFFFFFFFFFFFFFFFFFFFFFFFFFFFFFFFFF AND PUSH20 0xFFFFFFFFFFFFFFFFFFFFFFFFFFFFFFFFFFFFFFFF AND DUP2 MSTORE PUSH1 0x20 ADD SWAP1 DUP2 MSTORE PUSH1 0x20 ADD PUSH1 0x0 KECCAK256 PUSH1 0x0 PUSH2 0x100 EXP DUP2 SLOAD DUP2 PUSH1 0xFF MUL NOT AND SWAP1 DUP4 ISZERO ISZERO MUL OR SWAP1 SSTORE POP PUSH2 0xAE7 PUSH2 0xB46 JUMP JUMPDEST PUSH20 0xFFFFFFFFFFFFFFFFFFFFFFFFFFFFFFFFFFFFFFFF AND DUP2 PUSH20 0xFFFFFFFFFFFFFFFFFFFFFFFFFFFFFFFFFFFFFFFF AND DUP4 PUSH32 0x2F8788117E7EFF1D82E926EC794901D17C78024A50270940304540A733656F0D PUSH1 0x40 MLOAD PUSH1 0x40 MLOAD DUP1 SWAP2 SUB SWAP1 LOG4 JUMPDEST POP POP JUMP JUMPDEST PUSH1 0x0 CALLER SWAP1 POP SWAP1 JUMP JUMPDEST PUSH2 0xB58 DUP3 DUP3 PUSH2 0x59D JUMP JUMPDEST ISZERO PUSH2 0xC2C JUMPI PUSH1 0x0 PUSH1 0x1 PUSH1 0x0 DUP5 DUP2 MSTORE PUSH1 0x20 ADD SWAP1 DUP2 MSTORE PUSH1 0x20 ADD PUSH1 0x0 KECCAK256 PUSH1 0x0 ADD PUSH1 0x0 DUP4 PUSH20 0xFFFFFFFFFFFFFFFFFFFFFFFFFFFFFFFFFFFFFFFF AND PUSH20 0xFFFFFFFFFFFFFFFFFFFFFFFFFFFFFFFFFFFFFFFF AND DUP2 MSTORE PUSH1 0x20 ADD SWAP1 DUP2 MSTORE PUSH1 0x20 ADD PUSH1 0x0 KECCAK256 PUSH1 0x0 PUSH2 0x100 EXP DUP2 SLOAD DUP2 PUSH1 0xFF MUL NOT AND SWAP1 DUP4 ISZERO ISZERO MUL OR SWAP1 SSTORE POP PUSH2 0xBD1 PUSH2 0xB46 JUMP JUMPDEST PUSH20 0xFFFFFFFFFFFFFFFFFFFFFFFFFFFFFFFFFFFFFFFF AND DUP2 PUSH20 0xFFFFFFFFFFFFFFFFFFFFFFFFFFFFFFFFFFFFFFFF AND DUP4 PUSH32 0xF6391F5C32D9C69D2A47EA670B442974B53935D1EDC7FD64EB21E047A839171B PUSH1 0x40 MLOAD PUSH1 0x40 MLOAD DUP1 SWAP2 SUB SWAP1 LOG4 JUMPDEST POP POP JUMP JUMPDEST PUSH2 0xC38 PUSH2 0xB46 JUMP JUMPDEST PUSH20 0xFFFFFFFFFFFFFFFFFFFFFFFFFFFFFFFFFFFFFFFF AND PUSH2 0xC56 PUSH2 0x574 JUMP JUMPDEST PUSH20 0xFFFFFFFFFFFFFFFFFFFFFFFFFFFFFFFFFFFFFFFF AND EQ PUSH2 0xCAC JUMPI PUSH1 0x40 MLOAD PUSH32 0x8C379A000000000000000000000000000000000000000000000000000000000 DUP2 MSTORE PUSH1 0x4 ADD PUSH2 0xCA3 SWAP1 PUSH2 0x1711 JUMP JUMPDEST PUSH1 0x40 MLOAD DUP1 SWAP2 SUB SWAP1 REVERT JUMPDEST JUMP JUMPDEST PUSH1 0x0 DUP1 PUSH1 0x0 SWAP1 SLOAD SWAP1 PUSH2 0x100 EXP SWAP1 DIV PUSH20 0xFFFFFFFFFFFFFFFFFFFFFFFFFFFFFFFFFFFFFFFF AND SWAP1 POP DUP2 PUSH1 0x0 DUP1 PUSH2 0x100 EXP DUP2 SLOAD DUP2 PUSH20 0xFFFFFFFFFFFFFFFFFFFFFFFFFFFFFFFFFFFFFFFF MUL NOT AND SWAP1 DUP4 PUSH20 0xFFFFFFFFFFFFFFFFFFFFFFFFFFFFFFFFFFFFFFFF AND MUL OR SWAP1 SSTORE POP DUP2 PUSH20 0xFFFFFFFFFFFFFFFFFFFFFFFFFFFFFFFFFFFFFFFF AND DUP2 PUSH20 0xFFFFFFFFFFFFFFFFFFFFFFFFFFFFFFFFFFFFFFFF AND PUSH32 0x8BE0079C531659141344CD1FD0A4F28419497F9722A3DAAFE3B4186F6B6457E0 PUSH1 0x40 MLOAD PUSH1 0x40 MLOAD DUP1 SWAP2 SUB SWAP1 LOG3 POP POP JUMP JUMPDEST PUSH2 0xD7C DUP3 DUP3 PUSH2 0x59D JUMP JUMPDEST PUSH2 0xE0B JUMPI PUSH2 0xDA1 DUP2 PUSH20 0xFFFFFFFFFFFFFFFFFFFFFFFFFFFFFFFFFFFFFFFF AND PUSH1 0x14 PUSH2 0xE0F JUMP JUMPDEST PUSH2 0xDAF DUP4 PUSH1 0x0 SHR PUSH1 0x20 PUSH2 0xE0F JUMP JUMPDEST PUSH1 0x40 MLOAD PUSH1 0x20 ADD PUSH2 0xDC0 SWAP3 SWAP2 SWAP1 PUSH2 0x1604 JUMP JUMPDEST PUSH1 0x40 MLOAD PUSH1 0x20 DUP2 DUP4 SUB SUB DUP2 MSTORE SWAP1 PUSH1 0x40 MSTORE PUSH1 0x40 MLOAD PUSH32 0x8C379A000000000000000000000000000000000000000000000000000000000 DUP2 MSTORE PUSH1 0x4 ADD PUSH2 0xE02 SWAP2 SWAP1 PUSH2 0x168F JUMP JUMPDEST PUSH1 0x40 MLOAD DUP1 SWAP2 SUB SWAP1 REVERT JUMPDEST POP POP JUMP JUMPDEST PUSH1 0x60 PUSH1 0x0 PUSH1 0x2 DUP4 PUSH1 0x2 PUSH2 0xE22 SWAP2 SWAP1 PUSH2 0x1857 JUMP JUMPDEST PUSH2 0xE2C SWAP2 SWAP1 PUSH2 0x1801 JUMP JUMPDEST PUSH8 0xFFFFFFFFFFFFFFFF DUP2 GT ISZERO PUSH2 0xE45 JUMPI PUSH2 0xE44 PUSH2 0x1AD4 JUMP JUMPDEST JUMPDEST PUSH1 0x40 MLOAD SWAP1 DUP1 DUP3 MSTORE DUP1 PUSH1 0x1F ADD PUSH1 0x1F NOT AND PUSH1 0x20 ADD DUP3 ADD PUSH1 0x40 MSTORE DUP1 ISZERO PUSH2 0xE77 JUMPI DUP2 PUSH1 0x20 ADD PUSH1 0x1 DUP3 MUL DUP1 CALLDATASIZE DUP4 CALLDATACOPY DUP1 DUP3 ADD SWAP2 POP POP SWAP1 POP JUMPDEST POP SWAP1 POP PUSH32 0x3000000000000000000000000000000000000000000000000000000000000000 DUP2 PUSH1 0x0 DUP2 MLOAD DUP2 LT PUSH2 0xEAF JUMPI PUSH2 0xEAE PUSH2 0x1AA5 JUMP JUMPDEST JUMPDEST PUSH1 0x20 ADD ADD SWAP1 PUSH31 0xFFFFFFFFFFFFFFFFFFFFFFFFFFFFFFFFFFFFFFFFFFFFFFFFFFFFFFFFFFFFFF NOT AND SWAP1 DUP2 PUSH1 0x0 BYTE SWAP1 MSTORE8 POP PUSH32 0x7800000000000000000000000000000000000000000000000000000000000000 DUP2 PUSH1 0x1 DUP2 MLOAD DUP2 LT PUSH2 0xF13 JUMPI PUSH2 0xF12 PUSH2 0x1AA5 JUMP JUMPDEST JUMPDEST PUSH1 0x20 ADD ADD SWAP1 PUSH31 0xFFFFFFFFFFFFFFFFFFFFFFFFFFFFFFFFFFFFFFFFFFFFFFFFFFFFFFFFFFFFFF NOT AND SWAP1 DUP2 PUSH1 0x0 BYTE SWAP1 MSTORE8 POP PUSH1 0x0 PUSH1 0x1 DUP5 PUSH1 0x2 PUSH2 0xF53 SWAP2 SWAP1 PUSH2 0x1857 JUMP JUMPDEST PUSH2 0xF5D SWAP2 SWAP1 PUSH2 0x1801 JUMP JUMPDEST SWAP1 POP JUMPDEST PUSH1 0x1 DUP2 GT ISZERO PUSH2 0xFFD JUMPI PUSH32 0x3031323334353637383961626364656600000000000000000000000000000000 PUSH1 0xF DUP7 AND PUSH1 0x10 DUP2 LT PUSH2 0xF9F JUMPI PUSH2 0xF9E PUSH2 0x1AA5 JUMP JUMPDEST JUMPDEST BYTE PUSH1 0xF8 SHL DUP3 DUP3 DUP2 MLOAD DUP2 LT PUSH2 0xFB6 JUMPI PUSH2 0xFB5 PUSH2 0x1AA5 JUMP JUMPDEST JUMPDEST PUSH1 0x20 ADD ADD SWAP1 PUSH31 0xFFFFFFFFFFFFFFFFFFFFFFFFFFFFFFFFFFFFFFFFFFFFFFFFFFFFFFFFFFFFFF NOT AND SWAP1 DUP2 PUSH1 0x0 BYTE SWAP1 MSTORE8 POP PUSH1 0x4 DUP6 SWAP1 SHR SWAP5 POP DUP1 PUSH2 0xFF6 SWAP1 PUSH2 0x1971 JUMP JUMPDEST SWAP1 POP PUSH2 0xF60 JUMP JUMPDEST POP PUSH1 0x0 DUP5 EQ PUSH2 0x1041 JUMPI PUSH1 0x40 MLOAD PUSH32 0x8C379A000000000000000000000000000000000000000000000000000000000 DUP2 MSTORE PUSH1 0x4 ADD PUSH2 0x1038 SWAP1 PUSH2 0x16B1 JUMP JUMPDEST PUSH1 0x40 MLOAD DUP1 SWAP2 SUB SWAP1 REVERT JUMPDEST DUP1 SWAP2 POP POP SWAP3 SWAP2 POP POP JUMP JUMPDEST PUSH1 0x40 MLOAD DUP1 PUSH1 0x60 ADD PUSH1 0x40 MSTORE DUP1 PUSH1 0x60 DUP2 MSTORE PUSH1 0x20 ADD PUSH1 0x0 PUSH20 0xFFFFFFFFFFFFFFFFFFFFFFFFFFFFFFFFFFFFFFFF AND DUP2 MSTORE PUSH1 0x20 ADD PUSH1 0x60 DUP2 MSTORE POP SWAP1 JUMP JUMPDEST DUP3 DUP1 SLOAD PUSH2 0x108E SWAP1 PUSH2 0x199B JUMP JUMPDEST SWAP1 PUSH1 0x0 MSTORE PUSH1 0x20 PUSH1 0x0 KECCAK256 SWAP1 PUSH1 0x1F ADD PUSH1 0x20 SWAP1 DIV DUP2 ADD SWAP3 DUP3 PUSH2 0x10B0 JUMPI PUSH1 0x0 DUP6 SSTORE PUSH2 0x10F7 JUMP JUMPDEST DUP3 PUSH1 0x1F LT PUSH2 0x10C9 JUMPI DUP1 MLOAD PUSH1 0xFF NOT AND DUP4 DUP1 ADD OR DUP6 SSTORE PUSH2 0x10F7 JUMP JUMPDEST DUP3 DUP1 ADD PUSH1 0x1 ADD DUP6 SSTORE DUP3 ISZERO PUSH2 0x10F7 JUMPI SWAP2 DUP3 ADD JUMPDEST DUP3 DUP2 GT ISZERO PUSH2 0x10F6 JUMPI DUP3 MLOAD DUP3 SSTORE SWAP2 PUSH1 0x20 ADD SWAP2 SWAP1 PUSH1 0x1 ADD SWAP1 PUSH2 0x10DB JUMP JUMPDEST JUMPDEST POP SWAP1 POP PUSH2 0x1104 SWAP2 SWAP1 PUSH2 0x1195 JUMP JUMPDEST POP SWAP1 JUMP JUMPDEST DUP3 DUP1 SLOAD PUSH2 0x1114 SWAP1 PUSH2 0x199B JUMP JUMPDEST SWAP1 PUSH1 0x0 MSTORE PUSH1 0x20 PUSH1 0x0 KECCAK256 SWAP1 PUSH1 0x1F ADD PUSH1 0x20 SWAP1 DIV DUP2 ADD SWAP3 DUP3 PUSH2 0x1136 JUMPI PUSH1 0x0 DUP6 SSTORE PUSH2 0x1184 JUMP JUMPDEST DUP3 PUSH1 0x1F LT PUSH2 0x1147 JUMPI DUP1 SLOAD DUP6 SSTORE PUSH2 0x1184 JUMP JUMPDEST DUP3 DUP1 ADD PUSH1 0x1 ADD DUP6 SSTORE DUP3 ISZERO PUSH2 0x1184 JUMPI PUSH1 0x0 MSTORE PUSH1 0x20 PUSH1 0x0 KECCAK256 SWAP2 PUSH1 0x1F ADD PUSH1 0x20 SWAP1 DIV DUP3 ADD JUMPDEST DUP3 DUP2 GT ISZERO PUSH2 0x1183 JUMPI DUP3 SLOAD DUP3 SSTORE SWAP2 PUSH1 0x1 ADD SWAP2 SWAP1 PUSH1 0x1 ADD SWAP1 PUSH2 0x1168 JUMP JUMPDEST JUMPDEST POP SWAP1 POP PUSH2 0x1191 SWAP2 SWAP1 PUSH2 0x1195 JUMP JUMPDEST POP SWAP1 JUMP JUMPDEST JUMPDEST DUP1 DUP3 GT ISZERO PUSH2 0x11AE JUMPI PUSH1 0x0 DUP2 PUSH1 0x0 SWAP1 SSTORE POP PUSH1 0x1 ADD PUSH2 0x1196 JUMP JUMPDEST POP SWAP1 JUMP JUMPDEST PUSH1 0x0 PUSH2 0x11C5 PUSH2 0x11C0 DUP5 PUSH2 0x1798 JUMP JUMPDEST PUSH2 0x1773 JUMP JUMPDEST SWAP1 POP DUP3 DUP2 MSTORE PUSH1 0x20 DUP2 ADD DUP5 DUP5 DUP5 ADD GT ISZERO PUSH2 0x11E1 JUMPI PUSH2 0x11E0 PUSH2 0x1B08 JUMP JUMPDEST JUMPDEST PUSH2 0x11EC DUP5 DUP3 DUP6 PUSH2 0x192F JUMP JUMPDEST POP SWAP4 SWAP3 POP POP POP JUMP JUMPDEST PUSH1 0x0 DUP2 CALLDATALOAD SWAP1 POP PUSH2 0x1203 DUP2 PUSH2 0x1C93 JUMP JUMPDEST SWAP3 SWAP2 POP POP JUMP JUMPDEST PUSH1 0x0 DUP2 CALLDATALOAD SWAP1 POP PUSH2 0x1218 DUP2 PUSH2 0x1CAA JUMP JUMPDEST SWAP3 SWAP2 POP POP JUMP JUMPDEST PUSH1 0x0 DUP2 CALLDATALOAD SWAP1 POP PUSH2 0x122D DUP2 PUSH2 0x1CC1 JUMP JUMPDEST SWAP3 SWAP2 POP POP JUMP JUMPDEST PUSH1 0x0 DUP3 PUSH1 0x1F DUP4 ADD SLT PUSH2 0x1248 JUMPI PUSH2 0x1247 PUSH2 0x1B03 JUMP JUMPDEST JUMPDEST DUP2 CALLDATALOAD PUSH2 0x1258 DUP5 DUP3 PUSH1 0x20 DUP7 ADD PUSH2 0x11B2 JUMP JUMPDEST SWAP2 POP POP SWAP3 SWAP2 POP POP JUMP JUMPDEST PUSH1 0x0 DUP2 CALLDATALOAD SWAP1 POP PUSH2 0x1270 DUP2 PUSH2 0x1CD8 JUMP JUMPDEST SWAP3 SWAP2 POP POP JUMP JUMPDEST PUSH1 0x0 PUSH1 0x20 DUP3 DUP5 SUB SLT ISZERO PUSH2 0x128C JUMPI PUSH2 0x128B PUSH2 0x1B12 JUMP JUMPDEST JUMPDEST PUSH1 0x0 PUSH2 0x129A DUP5 DUP3 DUP6 ADD PUSH2 0x11F4 JUMP JUMPDEST SWAP2 POP POP SWAP3 SWAP2 POP POP JUMP JUMPDEST PUSH1 0x0 PUSH1 0x20 DUP3 DUP5 SUB SLT ISZERO PUSH2 0x12B9 JUMPI PUSH2 0x12B8 PUSH2 0x1B12 JUMP JUMPDEST JUMPDEST PUSH1 0x0 PUSH2 0x12C7 DUP5 DUP3 DUP6 ADD PUSH2 0x1209 JUMP JUMPDEST SWAP2 POP POP SWAP3 SWAP2 POP POP JUMP JUMPDEST PUSH1 0x0 DUP1 PUSH1 0x40 DUP4 DUP6 SUB SLT ISZERO PUSH2 0x12E7 JUMPI PUSH2 0x12E6 PUSH2 0x1B12 JUMP JUMPDEST JUMPDEST PUSH1 0x0 PUSH2 0x12F5 DUP6 DUP3 DUP7 ADD PUSH2 0x1209 JUMP JUMPDEST SWAP3 POP POP PUSH1 0x20 PUSH2 0x1306 DUP6 DUP3 DUP7 ADD PUSH2 0x11F4 JUMP JUMPDEST SWAP2 POP POP SWAP3 POP SWAP3 SWAP1 POP JUMP JUMPDEST PUSH1 0x0 PUSH1 0x20 DUP3 DUP5 SUB SLT ISZERO PUSH2 0x1326 JUMPI PUSH2 0x1325 PUSH2 0x1B12 JUMP JUMPDEST JUMPDEST PUSH1 0x0 PUSH2 0x1334 DUP5 DUP3 DUP6 ADD PUSH2 0x121E JUMP JUMPDEST SWAP2 POP POP SWAP3 SWAP2 POP POP JUMP JUMPDEST PUSH1 0x0 DUP1 PUSH1 0x0 PUSH1 0x60 DUP5 DUP7 SUB SLT ISZERO PUSH2 0x1356 JUMPI PUSH2 0x1355 PUSH2 0x1B12 JUMP JUMPDEST JUMPDEST PUSH1 0x0 DUP5 ADD CALLDATALOAD PUSH8 0xFFFFFFFFFFFFFFFF DUP2 GT ISZERO PUSH2 0x1374 JUMPI PUSH2 0x1373 PUSH2 0x1B0D JUMP JUMPDEST JUMPDEST PUSH2 0x1380 DUP7 DUP3 DUP8 ADD PUSH2 0x1233 JUMP JUMPDEST SWAP4 POP POP PUSH1 0x20 PUSH2 0x1391 DUP7 DUP3 DUP8 ADD PUSH2 0x11F4 JUMP JUMPDEST SWAP3 POP POP PUSH1 0x40 PUSH2 0x13A2 DUP7 DUP3 DUP8 ADD PUSH2 0x1261 JUMP JUMPDEST SWAP2 POP POP SWAP3 POP SWAP3 POP SWAP3 JUMP JUMPDEST PUSH1 0x0 PUSH1 0x20 DUP3 DUP5 SUB SLT ISZERO PUSH2 0x13C2 JUMPI PUSH2 0x13C1 PUSH2 0x1B12 JUMP JUMPDEST JUMPDEST PUSH1 0x0 PUSH2 0x13D0 DUP5 DUP3 DUP6 ADD PUSH2 0x1261 JUMP JUMPDEST SWAP2 POP POP SWAP3 SWAP2 POP POP JUMP JUMPDEST PUSH2 0x13E2 DUP2 PUSH2 0x18B1 JUMP JUMPDEST DUP3 MSTORE POP POP JUMP JUMPDEST PUSH2 0x13F1 DUP2 PUSH2 0x18B1 JUMP JUMPDEST DUP3 MSTORE POP POP JUMP JUMPDEST PUSH2 0x1400 DUP2 PUSH2 0x18C3 JUMP JUMPDEST DUP3 MSTORE POP POP JUMP JUMPDEST PUSH2 0x140F DUP2 PUSH2 0x18CF JUMP JUMPDEST DUP3 MSTORE POP POP JUMP JUMPDEST PUSH1 0x0 PUSH2 0x1420 DUP3 PUSH2 0x17C9 JUMP JUMPDEST PUSH2 0x142A DUP2 DUP6 PUSH2 0x17D4 JUMP JUMPDEST SWAP4 POP PUSH2 0x143A DUP2 DUP6 PUSH1 0x20 DUP7 ADD PUSH2 0x193E JUMP JUMPDEST PUSH2 0x1443 DUP2 PUSH2 0x1B17 JUMP JUMPDEST DUP5 ADD SWAP2 POP POP SWAP3 SWAP2 POP POP JUMP JUMPDEST PUSH1 0x0 PUSH2 0x1459 DUP3 PUSH2 0x17C9 JUMP JUMPDEST PUSH2 0x1463 DUP2 DUP6 PUSH2 0x17E5 JUMP JUMPDEST SWAP4 POP PUSH2 0x1473 DUP2 DUP6 PUSH1 0x20 DUP7 ADD PUSH2 0x193E JUMP JUMPDEST PUSH2 0x147C DUP2 PUSH2 0x1B17 JUMP JUMPDEST DUP5 ADD SWAP2 POP POP SWAP3 SWAP2 POP POP JUMP JUMPDEST PUSH1 0x0 PUSH2 0x1492 DUP3 PUSH2 0x17C9 JUMP JUMPDEST PUSH2 0x149C DUP2 DUP6 PUSH2 0x17F6 JUMP JUMPDEST SWAP4 POP PUSH2 0x14AC DUP2 DUP6 PUSH1 0x20 DUP7 ADD PUSH2 0x193E JUMP JUMPDEST DUP1 DUP5 ADD SWAP2 POP POP SWAP3 SWAP2 POP POP JUMP JUMPDEST PUSH1 0x0 PUSH2 0x14C5 PUSH1 0x20 DUP4 PUSH2 0x17E5 JUMP JUMPDEST SWAP2 POP PUSH2 0x14D0 DUP3 PUSH2 0x1B28 JUMP JUMPDEST PUSH1 0x20 DUP3 ADD SWAP1 POP SWAP2 SWAP1 POP JUMP JUMPDEST PUSH1 0x0 PUSH2 0x14E8 PUSH1 0x26 DUP4 PUSH2 0x17E5 JUMP JUMPDEST SWAP2 POP PUSH2 0x14F3 DUP3 PUSH2 0x1B51 JUMP JUMPDEST PUSH1 0x40 DUP3 ADD SWAP1 POP SWAP2 SWAP1 POP JUMP JUMPDEST PUSH1 0x0 PUSH2 0x150B PUSH1 0x1F DUP4 PUSH2 0x17E5 JUMP JUMPDEST SWAP2 POP PUSH2 0x1516 DUP3 PUSH2 0x1BA0 JUMP JUMPDEST PUSH1 0x20 DUP3 ADD SWAP1 POP SWAP2 SWAP1 POP JUMP JUMPDEST PUSH1 0x0 PUSH2 0x152E PUSH1 0x20 DUP4 PUSH2 0x17E5 JUMP JUMPDEST SWAP2 POP PUSH2 0x1539 DUP3 PUSH2 0x1BC9 JUMP JUMPDEST PUSH1 0x20 DUP3 ADD SWAP1 POP SWAP2 SWAP1 POP JUMP JUMPDEST PUSH1 0x0 PUSH2 0x1551 PUSH1 0x17 DUP4 PUSH2 0x17F6 JUMP JUMPDEST SWAP2 POP PUSH2 0x155C DUP3 PUSH2 0x1BF2 JUMP JUMPDEST PUSH1 0x17 DUP3 ADD SWAP1 POP SWAP2 SWAP1 POP JUMP JUMPDEST PUSH1 0x0 PUSH2 0x1574 PUSH1 0x11 DUP4 PUSH2 0x17F6 JUMP JUMPDEST SWAP2 POP PUSH2 0x157F DUP3 PUSH2 0x1C1B JUMP JUMPDEST PUSH1 0x11 DUP3 ADD SWAP1 POP SWAP2 SWAP1 POP JUMP JUMPDEST PUSH1 0x0 PUSH2 0x1597 PUSH1 0x2F DUP4 PUSH2 0x17E5 JUMP JUMPDEST SWAP2 POP PUSH2 0x15A2 DUP3 PUSH2 0x1C44 JUMP JUMPDEST PUSH1 0x40 DUP3 ADD SWAP1 POP SWAP2 SWAP1 POP JUMP JUMPDEST PUSH1 0x0 PUSH1 0x60 DUP4 ADD PUSH1 0x0 DUP4 ADD MLOAD DUP5 DUP3 SUB PUSH1 0x0 DUP7 ADD MSTORE PUSH2 0x15CA DUP3 DUP3 PUSH2 0x1415 JUMP JUMPDEST SWAP2 POP POP PUSH1 0x20 DUP4 ADD MLOAD PUSH2 0x15DF PUSH1 0x20 DUP7 ADD DUP3 PUSH2 0x13D9 JUMP JUMPDEST POP PUSH1 0x40 DUP4 ADD MLOAD DUP5 DUP3 SUB PUSH1 0x40 DUP7 ADD MSTORE PUSH2 0x15F7 DUP3 DUP3 PUSH2 0x1415 JUMP JUMPDEST SWAP2 POP POP DUP1 SWAP2 POP POP SWAP3 SWAP2 POP POP JUMP JUMPDEST PUSH1 0x0 PUSH2 0x160F DUP3 PUSH2 0x1544 JUMP JUMPDEST SWAP2 POP PUSH2 0x161B DUP3 DUP6 PUSH2 0x1487 JUMP JUMPDEST SWAP2 POP PUSH2 0x1626 DUP3 PUSH2 0x1567 JUMP JUMPDEST SWAP2 POP PUSH2 0x1632 DUP3 DUP5 PUSH2 0x1487 JUMP JUMPDEST SWAP2 POP DUP2 SWAP1 POP SWAP4 SWAP3 POP POP POP JUMP JUMPDEST PUSH1 0x0 PUSH1 0x20 DUP3 ADD SWAP1 POP PUSH2 0x1653 PUSH1 0x0 DUP4 ADD DUP5 PUSH2 0x13E8 JUMP JUMPDEST SWAP3 SWAP2 POP POP JUMP JUMPDEST PUSH1 0x0 PUSH1 0x20 DUP3 ADD SWAP1 POP PUSH2 0x166E PUSH1 0x0 DUP4 ADD DUP5 PUSH2 0x13F7 JUMP JUMPDEST SWAP3 SWAP2 POP POP JUMP JUMPDEST PUSH1 0x0 PUSH1 0x20 DUP3 ADD SWAP1 POP PUSH2 0x1689 PUSH1 0x0 DUP4 ADD DUP5 PUSH2 0x1406 JUMP JUMPDEST SWAP3 SWAP2 POP POP JUMP JUMPDEST PUSH1 0x0 PUSH1 0x20 DUP3 ADD SWAP1 POP DUP2 DUP2 SUB PUSH1 0x0 DUP4 ADD MSTORE PUSH2 0x16A9 DUP2 DUP5 PUSH2 0x144E JUMP JUMPDEST SWAP1 POP SWAP3 SWAP2 POP POP JUMP JUMPDEST PUSH1 0x0 PUSH1 0x20 DUP3 ADD SWAP1 POP DUP2 DUP2 SUB PUSH1 0x0 DUP4 ADD MSTORE PUSH2 0x16CA DUP2 PUSH2 0x14B8 JUMP JUMPDEST SWAP1 POP SWAP2 SWAP1 POP JUMP JUMPDEST PUSH1 0x0 PUSH1 0x20 DUP3 ADD SWAP1 POP DUP2 DUP2 SUB PUSH1 0x0 DUP4 ADD MSTORE PUSH2 0x16EA DUP2 PUSH2 0x14DB JUMP JUMPDEST SWAP1 POP SWAP2 SWAP1 POP JUMP JUMPDEST PUSH1 0x0 PUSH1 0x20 DUP3 ADD SWAP1 POP DUP2 DUP2 SUB PUSH1 0x0 DUP4 ADD MSTORE PUSH2 0x170A DUP2 PUSH2 0x14FE JUMP JUMPDEST SWAP1 POP SWAP2 SWAP1 POP JUMP JUMPDEST PUSH1 0x0 PUSH1 0x20 DUP3 ADD SWAP1 POP DUP2 DUP2 SUB PUSH1 0x0 DUP4 ADD MSTORE PUSH2 0x172A DUP2 PUSH2 0x1521 JUMP JUMPDEST SWAP1 POP SWAP2 SWAP1 POP JUMP JUMPDEST PUSH1 0x0 PUSH1 0x20 DUP3 ADD SWAP1 POP DUP2 DUP2 SUB PUSH1 0x0 DUP4 ADD MSTORE PUSH2 0x174A DUP2 PUSH2 0x158A JUMP JUMPDEST SWAP1 POP SWAP2 SWAP1 POP JUMP JUMPDEST PUSH1 0x0 PUSH1 0x20 DUP3 ADD SWAP1 POP DUP2 DUP2 SUB PUSH1 0x0 DUP4 ADD MSTORE PUSH2 0x176B DUP2 DUP5 PUSH2 0x15AD JUMP JUMPDEST SWAP1 POP SWAP3 SWAP2 POP POP JUMP JUMPDEST PUSH1 0x0 PUSH2 0x177D PUSH2 0x178E JUMP JUMPDEST SWAP1 POP PUSH2 0x1789 DUP3 DUP3 PUSH2 0x19CD JUMP JUMPDEST SWAP2 SWAP1 POP JUMP JUMPDEST PUSH1 0x0 PUSH1 0x40 MLOAD SWAP1 POP SWAP1 JUMP JUMPDEST PUSH1 0x0 PUSH8 0xFFFFFFFFFFFFFFFF DUP3 GT ISZERO PUSH2 0x17B3 JUMPI PUSH2 0x17B2 PUSH2 0x1AD4 JUMP JUMPDEST JUMPDEST PUSH2 0x17BC DUP3 PUSH2 0x1B17 JUMP JUMPDEST SWAP1 POP PUSH1 0x20 DUP2 ADD SWAP1 POP SWAP2 SWAP1 POP JUMP JUMPDEST PUSH1 0x0 DUP2 MLOAD SWAP1 POP SWAP2 SWAP1 POP JUMP JUMPDEST PUSH1 0x0 DUP3 DUP3 MSTORE PUSH1 0x20 DUP3 ADD SWAP1 POP SWAP3 SWAP2 POP POP JUMP JUMPDEST PUSH1 0x0 DUP3 DUP3 MSTORE PUSH1 0x20 DUP3 ADD SWAP1 POP SWAP3 SWAP2 POP POP JUMP JUMPDEST PUSH1 0x0 DUP2 SWAP1 POP SWAP3 SWAP2 POP POP JUMP JUMPDEST PUSH1 0x0 PUSH2 0x180C DUP3 PUSH2 0x1925 JUMP JUMPDEST SWAP2 POP PUSH2 0x1817 DUP4 PUSH2 0x1925 JUMP JUMPDEST SWAP3 POP DUP3 PUSH32 0xFFFFFFFFFFFFFFFFFFFFFFFFFFFFFFFFFFFFFFFFFFFFFFFFFFFFFFFFFFFFFFFF SUB DUP3 GT ISZERO PUSH2 0x184C JUMPI PUSH2 0x184B PUSH2 0x1A47 JUMP JUMPDEST JUMPDEST DUP3 DUP3 ADD SWAP1 POP SWAP3 SWAP2 POP POP JUMP JUMPDEST PUSH1 0x0 PUSH2 0x1862 DUP3 PUSH2 0x1925 JUMP JUMPDEST SWAP2 POP PUSH2 0x186D DUP4 PUSH2 0x1925 JUMP JUMPDEST SWAP3 POP DUP2 PUSH32 0xFFFFFFFFFFFFFFFFFFFFFFFFFFFFFFFFFFFFFFFFFFFFFFFFFFFFFFFFFFFFFFFF DIV DUP4 GT DUP3 ISZERO ISZERO AND ISZERO PUSH2 0x18A6 JUMPI PUSH2 0x18A5 PUSH2 0x1A47 JUMP JUMPDEST JUMPDEST DUP3 DUP3 MUL SWAP1 POP SWAP3 SWAP2 POP POP JUMP JUMPDEST PUSH1 0x0 PUSH2 0x18BC DUP3 PUSH2 0x1905 JUMP JUMPDEST SWAP1 POP SWAP2 SWAP1 POP JUMP JUMPDEST PUSH1 0x0 DUP2 ISZERO ISZERO SWAP1 POP SWAP2 SWAP1 POP JUMP JUMPDEST PUSH1 0x0 DUP2 SWAP1 POP SWAP2 SWAP1 POP JUMP JUMPDEST PUSH1 0x0 PUSH32 0xFFFFFFFF00000000000000000000000000000000000000000000000000000000 DUP3 AND SWAP1 POP SWAP2 SWAP1 POP JUMP JUMPDEST PUSH1 0x0 PUSH20 0xFFFFFFFFFFFFFFFFFFFFFFFFFFFFFFFFFFFFFFFF DUP3 AND SWAP1 POP SWAP2 SWAP1 POP JUMP JUMPDEST PUSH1 0x0 DUP2 SWAP1 POP SWAP2 SWAP1 POP JUMP JUMPDEST DUP3 DUP2 DUP4 CALLDATACOPY PUSH1 0x0 DUP4 DUP4 ADD MSTORE POP POP POP JUMP JUMPDEST PUSH1 0x0 JUMPDEST DUP4 DUP2 LT ISZERO PUSH2 0x195C JUMPI DUP1 DUP3 ADD MLOAD DUP2 DUP5 ADD MSTORE PUSH1 0x20 DUP2 ADD SWAP1 POP PUSH2 0x1941 JUMP JUMPDEST DUP4 DUP2 GT ISZERO PUSH2 0x196B JUMPI PUSH1 0x0 DUP5 DUP5 ADD MSTORE JUMPDEST POP POP POP POP JUMP JUMPDEST PUSH1 0x0 PUSH2 0x197C DUP3 PUSH2 0x1925 JUMP JUMPDEST SWAP2 POP PUSH1 0x0 DUP3 EQ ISZERO PUSH2 0x1990 JUMPI PUSH2 0x198F PUSH2 0x1A47 JUMP JUMPDEST JUMPDEST PUSH1 0x1 DUP3 SUB SWAP1 POP SWAP2 SWAP1 POP JUMP JUMPDEST PUSH1 0x0 PUSH1 0x2 DUP3 DIV SWAP1 POP PUSH1 0x1 DUP3 AND DUP1 PUSH2 0x19B3 JUMPI PUSH1 0x7F DUP3 AND SWAP2 POP JUMPDEST PUSH1 0x20 DUP3 LT DUP2 EQ ISZERO PUSH2 0x19C7 JUMPI PUSH2 0x19C6 PUSH2 0x1A76 JUMP JUMPDEST JUMPDEST POP SWAP2 SWAP1 POP JUMP JUMPDEST PUSH2 0x19D6 DUP3 PUSH2 0x1B17 JUMP JUMPDEST DUP2 ADD DUP2 DUP2 LT PUSH8 0xFFFFFFFFFFFFFFFF DUP3 GT OR ISZERO PUSH2 0x19F5 JUMPI PUSH2 0x19F4 PUSH2 0x1AD4 JUMP JUMPDEST JUMPDEST DUP1 PUSH1 0x40 MSTORE POP POP POP JUMP JUMPDEST PUSH1 0x0 PUSH2 0x1A09 DUP3 PUSH2 0x1925 JUMP JUMPDEST SWAP2 POP PUSH32 0xFFFFFFFFFFFFFFFFFFFFFFFFFFFFFFFFFFFFFFFFFFFFFFFFFFFFFFFFFFFFFFFF DUP3 EQ ISZERO PUSH2 0x1A3C JUMPI PUSH2 0x1A3B PUSH2 0x1A47 JUMP JUMPDEST JUMPDEST PUSH1 0x1 DUP3 ADD SWAP1 POP SWAP2 SWAP1 POP JUMP JUMPDEST PUSH32 0x4E487B7100000000000000000000000000000000000000000000000000000000 PUSH1 0x0 MSTORE PUSH1 0x11 PUSH1 0x4 MSTORE PUSH1 0x24 PUSH1 0x0 REVERT JUMPDEST PUSH32 0x4E487B7100000000000000000000000000000000000000000000000000000000 PUSH1 0x0 MSTORE PUSH1 0x22 PUSH1 0x4 MSTORE PUSH1 0x24 PUSH1 0x0 REVERT JUMPDEST PUSH32 0x4E487B7100000000000000000000000000000000000000000000000000000000 PUSH1 0x0 MSTORE PUSH1 0x32 PUSH1 0x4 MSTORE PUSH1 0x24 PUSH1 0x0 REVERT JUMPDEST PUSH32 0x4E487B7100000000000000000000000000000000000000000000000000000000 PUSH1 0x0 MSTORE PUSH1 0x41 PUSH1 0x4 MSTORE PUSH1 0x24 PUSH1 0x0 REVERT JUMPDEST PUSH1 0x0 DUP1 REVERT JUMPDEST PUSH1 0x0 DUP1 REVERT JUMPDEST PUSH1 0x0 DUP1 REVERT JUMPDEST PUSH1 0x0 DUP1 REVERT JUMPDEST PUSH1 0x0 PUSH1 0x1F NOT PUSH1 0x1F DUP4 ADD AND SWAP1 POP SWAP2 SWAP1 POP JUMP JUMPDEST PUSH32 0x537472696E67733A20686578206C656E67746820696E73756666696369656E74 PUSH1 0x0 DUP3 ADD MSTORE POP JUMP JUMPDEST PUSH32 0x4F776E61626C653A206E6577206F776E657220697320746865207A65726F2061 PUSH1 0x0 DUP3 ADD MSTORE PUSH32 0x6464726573730000000000000000000000000000000000000000000000000000 PUSH1 0x20 DUP3 ADD MSTORE POP JUMP JUMPDEST PUSH32 0x43616C6C6572206973206E6F7420616E20494E45432065786563757469766500 PUSH1 0x0 DUP3 ADD MSTORE POP JUMP JUMPDEST PUSH32 0x4F776E61626C653A2063616C6C6572206973206E6F7420746865206F776E6572 PUSH1 0x0 DUP3 ADD MSTORE POP JUMP JUMPDEST PUSH32 0x416363657373436F6E74726F6C3A206163636F756E7420000000000000000000 PUSH1 0x0 DUP3 ADD MSTORE POP JUMP JUMPDEST PUSH32 0x206973206D697373696E6720726F6C6520000000000000000000000000000000 PUSH1 0x0 DUP3 ADD MSTORE POP JUMP JUMPDEST PUSH32 0x416363657373436F6E74726F6C3A2063616E206F6E6C792072656E6F756E6365 PUSH1 0x0 DUP3 ADD MSTORE PUSH32 0x20726F6C657320666F722073656C660000000000000000000000000000000000 PUSH1 0x20 DUP3 ADD MSTORE POP JUMP JUMPDEST PUSH2 0x1C9C DUP2 PUSH2 0x18B1 JUMP JUMPDEST DUP2 EQ PUSH2 0x1CA7 JUMPI PUSH1 0x0 DUP1 REVERT JUMPDEST POP JUMP JUMPDEST PUSH2 0x1CB3 DUP2 PUSH2 0x18CF JUMP JUMPDEST DUP2 EQ PUSH2 0x1CBE JUMPI PUSH1 0x0 DUP1 REVERT JUMPDEST POP JUMP JUMPDEST PUSH2 0x1CCA DUP2 PUSH2 0x18D9 JUMP JUMPDEST DUP2 EQ PUSH2 0x1CD5 JUMPI PUSH1 0x0 DUP1 REVERT JUMPDEST POP JUMP JUMPDEST PUSH2 0x1CE1 DUP2 PUSH2 0x1925 JUMP JUMPDEST DUP2 EQ PUSH2 0x1CEC JUMPI PUSH1 0x0 DUP1 REVERT JUMPDEST POP JUMP INVALID LOG2 PUSH5 0x6970667358 0x22 SLT KECCAK256 0x4F PUSH20 0x21976077FB784621922294ABFF00332CBBC6365E ISZERO 0xD0 DUP4 0xC7 SLOAD 0xA9 PUSH9 0xF5E6C464736F6C6343 STOP ADDMOD SMOD STOP CALLER "
				},
				"gasEstimates": {
					"creation": {
						"codeDepositCost": "1492200",
						"executionCost": "infinite",
						"totalCost": "infinite"
					},
					"external": {
						"DEFAULT_ADMIN_ROLE()": "424",
						"INEC_EXEC_ROLE()": "397",
						"createCandidate(string,address,uint256)": "infinite",
						"createInecExec(address)": "infinite",
						"getRoleAdmin(bytes32)": "infinite",
						"grantRole(bytes32,address)": "infinite",
						"hasRole(bytes32,address)": "3185",
						"owner()": "2545",
						"party(uint256)": "infinite",
						"regVoter(address)": "infinite",
						"renounceOwnership()": "30487",
						"renounceRole(bytes32,address)": "infinite",
						"retrieveCandidate(uint256)": "infinite",
						"revokeRole(bytes32,address)": "infinite",
						"supportsInterface(bytes4)": "751",
						"transferOwnership(address)": "30835"
					}
				},
				"methodIdentifiers": {
					"DEFAULT_ADMIN_ROLE()": "a217fddf",
					"INEC_EXEC_ROLE()": "2e0d37bb",
					"createCandidate(string,address,uint256)": "d59d2a58",
					"createInecExec(address)": "dfd8459e",
					"getRoleAdmin(bytes32)": "248a9ca3",
					"grantRole(bytes32,address)": "2f2ff15d",
					"hasRole(bytes32,address)": "91d14854",
					"owner()": "8da5cb5b",
					"party(uint256)": "314fd68f",
					"regVoter(address)": "463610c2",
					"renounceOwnership()": "715018a6",
					"renounceRole(bytes32,address)": "36568abe",
					"retrieveCandidate(uint256)": "9e5f0349",
					"revokeRole(bytes32,address)": "d547741f",
					"supportsInterface(bytes4)": "01ffc9a7",
					"transferOwnership(address)": "f2fde38b"
				}
			},
			"storageLayout": {
				"storage": [
					{
						"astId": 400,
						"contract": "contracts/Vote.sol:Vote",
						"label": "_owner",
						"offset": 0,
						"slot": "0",
						"type": "t_address"
					},
					{
						"astId": 24,
						"contract": "contracts/Vote.sol:Vote",
						"label": "_roles",
						"offset": 0,
						"slot": "1",
						"type": "t_mapping(t_bytes32,t_struct(RoleData)19_storage)"
					},
					{
						"astId": 800,
						"contract": "contracts/Vote.sol:Vote",
						"label": "voteFee",
						"offset": 0,
						"slot": "2",
						"type": "t_uint256"
					},
					{
						"astId": 802,
						"contract": "contracts/Vote.sol:Vote",
						"label": "candidateNum",
						"offset": 0,
						"slot": "3",
						"type": "t_uint256"
					},
					{
						"astId": 810,
						"contract": "contracts/Vote.sol:Vote",
						"label": "party",
						"offset": 0,
						"slot": "4",
						"type": "t_array(t_string_storage)dyn_storage"
					},
					{
						"astId": 836,
						"contract": "contracts/Vote.sol:Vote",
						"label": "Candidates",
						"offset": 0,
						"slot": "5",
						"type": "t_mapping(t_uint256,t_struct(candidate)822_storage)"
					},
					{
						"astId": 841,
						"contract": "contracts/Vote.sol:Vote",
						"label": "Voters",
						"offset": 0,
						"slot": "6",
						"type": "t_mapping(t_uint256,t_struct(voter)831_storage)"
					}
				],
				"types": {
					"t_address": {
						"encoding": "inplace",
						"label": "address",
						"numberOfBytes": "20"
					},
					"t_array(t_string_storage)dyn_storage": {
						"base": "t_string_storage",
						"encoding": "dynamic_array",
						"label": "string[]",
						"numberOfBytes": "32"
					},
					"t_bool": {
						"encoding": "inplace",
						"label": "bool",
						"numberOfBytes": "1"
					},
					"t_bytes32": {
						"encoding": "inplace",
						"label": "bytes32",
						"numberOfBytes": "32"
					},
					"t_mapping(t_address,t_bool)": {
						"encoding": "mapping",
						"key": "t_address",
						"label": "mapping(address => bool)",
						"numberOfBytes": "32",
						"value": "t_bool"
					},
					"t_mapping(t_bytes32,t_struct(RoleData)19_storage)": {
						"encoding": "mapping",
						"key": "t_bytes32",
						"label": "mapping(bytes32 => struct AccessControl.RoleData)",
						"numberOfBytes": "32",
						"value": "t_struct(RoleData)19_storage"
					},
					"t_mapping(t_uint256,t_struct(candidate)822_storage)": {
						"encoding": "mapping",
						"key": "t_uint256",
						"label": "mapping(uint256 => struct Vote.candidate)",
						"numberOfBytes": "32",
						"value": "t_struct(candidate)822_storage"
					},
					"t_mapping(t_uint256,t_struct(voter)831_storage)": {
						"encoding": "mapping",
						"key": "t_uint256",
						"label": "mapping(uint256 => struct Vote.voter)",
						"numberOfBytes": "32",
						"value": "t_struct(voter)831_storage"
					},
					"t_string_storage": {
						"encoding": "bytes",
						"label": "string",
						"numberOfBytes": "32"
					},
					"t_struct(RoleData)19_storage": {
						"encoding": "inplace",
						"label": "struct AccessControl.RoleData",
						"members": [
							{
								"astId": 16,
								"contract": "contracts/Vote.sol:Vote",
								"label": "members",
								"offset": 0,
								"slot": "0",
								"type": "t_mapping(t_address,t_bool)"
							},
							{
								"astId": 18,
								"contract": "contracts/Vote.sol:Vote",
								"label": "adminRole",
								"offset": 0,
								"slot": "1",
								"type": "t_bytes32"
							}
						],
						"numberOfBytes": "64"
					},
					"t_struct(candidate)822_storage": {
						"encoding": "inplace",
						"label": "struct Vote.candidate",
						"members": [
							{
								"astId": 817,
								"contract": "contracts/Vote.sol:Vote",
								"label": "name",
								"offset": 0,
								"slot": "0",
								"type": "t_string_storage"
							},
							{
								"astId": 819,
								"contract": "contracts/Vote.sol:Vote",
								"label": "addr",
								"offset": 0,
								"slot": "1",
								"type": "t_address"
							},
							{
								"astId": 821,
								"contract": "contracts/Vote.sol:Vote",
								"label": "party",
								"offset": 0,
								"slot": "2",
								"type": "t_string_storage"
							}
						],
						"numberOfBytes": "96"
					},
					"t_struct(voter)831_storage": {
						"encoding": "inplace",
						"label": "struct Vote.voter",
						"members": [
							{
								"astId": 824,
								"contract": "contracts/Vote.sol:Vote",
								"label": "addr",
								"offset": 0,
								"slot": "0",
								"type": "t_address"
							},
							{
								"astId": 826,
								"contract": "contracts/Vote.sol:Vote",
								"label": "nin",
								"offset": 0,
								"slot": "1",
								"type": "t_uint256"
							},
							{
								"astId": 828,
								"contract": "contracts/Vote.sol:Vote",
								"label": "candidateNum",
								"offset": 0,
								"slot": "2",
								"type": "t_uint256"
							},
							{
								"astId": 830,
								"contract": "contracts/Vote.sol:Vote",
								"label": "hasVoted",
								"offset": 0,
								"slot": "3",
								"type": "t_bool"
							}
						],
						"numberOfBytes": "128"
					},
					"t_uint256": {
						"encoding": "inplace",
						"label": "uint256",
						"numberOfBytes": "32"
					}
				}
			},
			"userdoc": {
				"kind": "user",
				"methods": {},
				"version": 1
			}
		}
	}
}