{
	"contracts/Vote.sol": {
		"Vote": {
			"abi": [
				{
					"inputs": [
						{
							"internalType": "string",
							"name": "name",
							"type": "string"
						},
						{
							"internalType": "address",
							"name": "candAddress",
							"type": "address"
						},
						{
							"internalType": "uint256",
							"name": "partyNum",
							"type": "uint256"
						}
					],
					"name": "createCandidate",
					"outputs": [],
					"stateMutability": "nonpayable",
					"type": "function"
				},
				{
					"inputs": [
						{
							"internalType": "uint256",
							"name": "",
							"type": "uint256"
						}
					],
					"name": "party",
					"outputs": [
						{
							"internalType": "string",
							"name": "",
							"type": "string"
						}
					],
					"stateMutability": "view",
					"type": "function"
				},
				{
					"inputs": [
						{
							"internalType": "uint256",
							"name": "num",
							"type": "uint256"
						}
					],
					"name": "retrieveCandidate",
					"outputs": [
						{
							"components": [
								{
									"internalType": "string",
									"name": "name",
									"type": "string"
								},
								{
									"internalType": "address",
									"name": "addr",
									"type": "address"
								},
								{
									"internalType": "string",
									"name": "party",
									"type": "string"
								}
							],
							"internalType": "struct Vote.candidate",
							"name": "",
							"type": "tuple"
						}
					],
					"stateMutability": "view",
					"type": "function"
				}
			],
			"devdoc": {
				"custom:dev-run-script": "./scripts/deploy_with_ethers.ts",
				"details": "Store & retrieve value in a variable",
				"kind": "dev",
				"methods": {
					"createCandidate(string,address,uint256)": {
						"details": "Store value in variable",
						"params": {
							"candAddress": "value for candidate Address",
							"name": "value for candidate name",
							"partyNum": "value for candidate party"
						}
					},
					"retrieveCandidate(uint256)": {
						"details": "Return value ",
						"returns": {
							"_0": "value of 'struct'"
						}
					}
				},
				"title": "Storage",
				"version": 1
			},
			"evm": {
				"assembly": "    /* \"contracts/Vote.sol\":199:1109  contract Vote {... */\n  mstore(0x40, 0x80)\n    /* \"contracts/Vote.sol\":242:295  string [] public party = [\"APC\", \"PDP\", \"LP\", \"NNPP\"] */\n  mload(0x40)\n  dup1\n  0x80\n  add\n  0x40\n  mstore\n  dup1\n  mload(0x40)\n  dup1\n  0x40\n  add\n  0x40\n  mstore\n  dup1\n  0x03\n  dup2\n  mstore\n  0x20\n  add\n  0x4150430000000000000000000000000000000000000000000000000000000000\n  dup2\n  mstore\n  pop\n  dup2\n  mstore\n  0x20\n  add\n  mload(0x40)\n  dup1\n  0x40\n  add\n  0x40\n  mstore\n  dup1\n  0x03\n  dup2\n  mstore\n  0x20\n  add\n  0x5044500000000000000000000000000000000000000000000000000000000000\n  dup2\n  mstore\n  pop\n  dup2\n  mstore\n  0x20\n  add\n  mload(0x40)\n  dup1\n  0x40\n  add\n  0x40\n  mstore\n  dup1\n  0x02\n  dup2\n  mstore\n  0x20\n  add\n  0x4c50000000000000000000000000000000000000000000000000000000000000\n  dup2\n  mstore\n  pop\n  dup2\n  mstore\n  0x20\n  add\n  mload(0x40)\n  dup1\n  0x40\n  add\n  0x40\n  mstore\n  dup1\n  0x04\n  dup2\n  mstore\n  0x20\n  add\n  0x4e4e505000000000000000000000000000000000000000000000000000000000\n  dup2\n  mstore\n  pop\n  dup2\n  mstore\n  pop\n  0x01\n  swap1\n  0x04\n  tag_1\n  swap3\n  swap2\n  swap1\n  tag_2\n  jump\t// in\ntag_1:\n  pop\n    /* \"contracts/Vote.sol\":199:1109  contract Vote {... */\n  callvalue\n  dup1\n  iszero\n  tag_3\n  jumpi\n  0x00\n  dup1\n  revert\ntag_3:\n  pop\n  jump(tag_4)\ntag_2:\n  dup3\n  dup1\n  sload\n  dup3\n  dup3\n  sstore\n  swap1\n  0x00\n  mstore\n  keccak256(0x00, 0x20)\n  swap1\n  dup2\n  add\n  swap3\n  dup3\n  iszero\n  tag_5\n  jumpi\n  swap2\n  0x20\n  mul\n  dup3\n  add\ntag_6:\n  dup3\n  dup2\n  gt\n  iszero\n  tag_7\n  jumpi\n  dup3\n  mload\n  dup3\n  swap1\n  dup1\n  mload\n  swap1\n  0x20\n  add\n  swap1\n  tag_8\n  swap3\n  swap2\n  swap1\n  tag_9\n  jump\t// in\ntag_8:\n  pop\n  swap2\n  0x20\n  add\n  swap2\n  swap1\n  0x01\n  add\n  swap1\n  jump(tag_6)\ntag_7:\ntag_5:\n  pop\n  swap1\n  pop\n  tag_10\n  swap2\n  swap1\n  tag_11\n  jump\t// in\ntag_10:\n  pop\n  swap1\n  jump\t// out\ntag_9:\n  dup3\n  dup1\n  sload\n  tag_12\n  swap1\n  tag_13\n  jump\t// in\ntag_12:\n  swap1\n  0x00\n  mstore\n  keccak256(0x00, 0x20)\n  swap1\n  0x1f\n  add\n  0x20\n  swap1\n  div\n  dup2\n  add\n  swap3\n  dup3\n  tag_15\n  jumpi\n  0x00\n  dup6\n  sstore\n  jump(tag_14)\ntag_15:\n  dup3\n  0x1f\n  lt\n  tag_16\n  jumpi\n  dup1\n  mload\n  not(0xff)\n  and\n  dup4\n  dup1\n  add\n  or\n  dup6\n  sstore\n  jump(tag_14)\ntag_16:\n  dup3\n  dup1\n  add\n  0x01\n  add\n  dup6\n  sstore\n  dup3\n  iszero\n  tag_14\n  jumpi\n  swap2\n  dup3\n  add\ntag_17:\n  dup3\n  dup2\n  gt\n  iszero\n  tag_18\n  jumpi\n  dup3\n  mload\n  dup3\n  sstore\n  swap2\n  0x20\n  add\n  swap2\n  swap1\n  0x01\n  add\n  swap1\n  jump(tag_17)\ntag_18:\ntag_14:\n  pop\n  swap1\n  pop\n  tag_19\n  swap2\n  swap1\n  tag_20\n  jump\t// in\ntag_19:\n  pop\n  swap1\n  jump\t// out\ntag_11:\ntag_21:\n  dup1\n  dup3\n  gt\n  iszero\n  tag_22\n  jumpi\n  0x00\n  dup2\n  dup2\n  tag_23\n  swap2\n  swap1\n  tag_24\n  jump\t// in\ntag_23:\n  pop\n  0x01\n  add\n  jump(tag_21)\ntag_22:\n  pop\n  swap1\n  jump\t// out\ntag_20:\ntag_25:\n  dup1\n  dup3\n  gt\n  iszero\n  tag_26\n  jumpi\n  0x00\n  dup2\n  0x00\n  swap1\n  sstore\n  pop\n  0x01\n  add\n  jump(tag_25)\ntag_26:\n  pop\n  swap1\n  jump\t// out\ntag_24:\n  pop\n  dup1\n  sload\n  tag_27\n  swap1\n  tag_13\n  jump\t// in\ntag_27:\n  0x00\n  dup3\n  sstore\n  dup1\n  0x1f\n  lt\n  tag_29\n  jumpi\n  pop\n  jump(tag_28)\ntag_29:\n  0x1f\n  add\n  0x20\n  swap1\n  div\n  swap1\n  0x00\n  mstore\n  keccak256(0x00, 0x20)\n  swap1\n  dup2\n  add\n  swap1\n  tag_30\n  swap2\n  swap1\n  tag_20\n  jump\t// in\ntag_30:\ntag_28:\n  pop\n  jump\t// out\n    /* \"#utility.yul\":7:327   */\ntag_13:\n    /* \"#utility.yul\":51:57   */\n  0x00\n    /* \"#utility.yul\":88:89   */\n  0x02\n    /* \"#utility.yul\":82:86   */\n  dup3\n    /* \"#utility.yul\":78:90   */\n  div\n    /* \"#utility.yul\":68:90   */\n  swap1\n  pop\n    /* \"#utility.yul\":135:136   */\n  0x01\n    /* \"#utility.yul\":129:133   */\n  dup3\n    /* \"#utility.yul\":125:137   */\n  and\n    /* \"#utility.yul\":156:174   */\n  dup1\n    /* \"#utility.yul\":146:227   */\n  tag_33\n  jumpi\n    /* \"#utility.yul\":212:216   */\n  0x7f\n    /* \"#utility.yul\":204:210   */\n  dup3\n    /* \"#utility.yul\":200:217   */\n  and\n    /* \"#utility.yul\":190:217   */\n  swap2\n  pop\n    /* \"#utility.yul\":146:227   */\ntag_33:\n    /* \"#utility.yul\":274:276   */\n  0x20\n    /* \"#utility.yul\":266:272   */\n  dup3\n    /* \"#utility.yul\":263:277   */\n  lt\n    /* \"#utility.yul\":243:261   */\n  dup2\n    /* \"#utility.yul\":240:278   */\n  eq\n    /* \"#utility.yul\":237:321   */\n  iszero\n  tag_34\n  jumpi\n    /* \"#utility.yul\":293:311   */\n  tag_35\n  tag_36\n  jump\t// in\ntag_35:\n    /* \"#utility.yul\":237:321   */\ntag_34:\n    /* \"#utility.yul\":58:327   */\n  pop\n    /* \"#utility.yul\":7:327   */\n  swap2\n  swap1\n  pop\n  jump\t// out\n    /* \"#utility.yul\":333:513   */\ntag_36:\n    /* \"#utility.yul\":381:458   */\n  0x4e487b7100000000000000000000000000000000000000000000000000000000\n    /* \"#utility.yul\":378:379   */\n  0x00\n    /* \"#utility.yul\":371:459   */\n  mstore\n    /* \"#utility.yul\":478:482   */\n  0x22\n    /* \"#utility.yul\":475:476   */\n  0x04\n    /* \"#utility.yul\":468:483   */\n  mstore\n    /* \"#utility.yul\":502:506   */\n  0x24\n    /* \"#utility.yul\":499:500   */\n  0x00\n    /* \"#utility.yul\":492:507   */\n  revert\n    /* \"contracts/Vote.sol\":199:1109  contract Vote {... */\ntag_4:\n  dataSize(sub_0)\n  dup1\n  dataOffset(sub_0)\n  0x00\n  codecopy\n  0x00\n  return\nstop\n\nsub_0: assembly {\n        /* \"contracts/Vote.sol\":199:1109  contract Vote {... */\n      mstore(0x40, 0x80)\n      callvalue\n      dup1\n      iszero\n      tag_1\n      jumpi\n      0x00\n      dup1\n      revert\n    tag_1:\n      pop\n      jumpi(tag_2, lt(calldatasize, 0x04))\n      shr(0xe0, calldataload(0x00))\n      dup1\n      0x314fd68f\n      eq\n      tag_3\n      jumpi\n      dup1\n      0x9e5f0349\n      eq\n      tag_4\n      jumpi\n      dup1\n      0xd59d2a58\n      eq\n      tag_5\n      jumpi\n    tag_2:\n      0x00\n      dup1\n      revert\n        /* \"contracts/Vote.sol\":242:295  string [] public party = [\"APC\", \"PDP\", \"LP\", \"NNPP\"] */\n    tag_3:\n      tag_6\n      0x04\n      dup1\n      calldatasize\n      sub\n      dup2\n      add\n      swap1\n      tag_7\n      swap2\n      swap1\n      tag_8\n      jump\t// in\n    tag_7:\n      tag_9\n      jump\t// in\n    tag_6:\n      mload(0x40)\n      tag_10\n      swap2\n      swap1\n      tag_11\n      jump\t// in\n    tag_10:\n      mload(0x40)\n      dup1\n      swap2\n      sub\n      swap1\n      return\n        /* \"contracts/Vote.sol\":990:1107  function retrieveCandidate(uint256 num) public view returns (candidate memory){... */\n    tag_4:\n      tag_12\n      0x04\n      dup1\n      calldatasize\n      sub\n      dup2\n      add\n      swap1\n      tag_13\n      swap2\n      swap1\n      tag_8\n      jump\t// in\n    tag_13:\n      tag_14\n      jump\t// in\n    tag_12:\n      mload(0x40)\n      tag_15\n      swap2\n      swap1\n      tag_16\n      jump\t// in\n    tag_15:\n      mload(0x40)\n      dup1\n      swap2\n      sub\n      swap1\n      return\n        /* \"contracts/Vote.sol\":643:909  function createCandidate(string memory name, address candAddress, uint256 partyNum) public {... */\n    tag_5:\n      tag_17\n      0x04\n      dup1\n      calldatasize\n      sub\n      dup2\n      add\n      swap1\n      tag_18\n      swap2\n      swap1\n      tag_19\n      jump\t// in\n    tag_18:\n      tag_20\n      jump\t// in\n    tag_17:\n      stop\n        /* \"contracts/Vote.sol\":242:295  string [] public party = [\"APC\", \"PDP\", \"LP\", \"NNPP\"] */\n    tag_9:\n      0x01\n      dup2\n      dup2\n      sload\n      dup2\n      lt\n      tag_21\n      jumpi\n      0x00\n      dup1\n      revert\n    tag_21:\n      swap1\n      0x00\n      mstore\n      keccak256(0x00, 0x20)\n      add\n      0x00\n      swap2\n      pop\n      swap1\n      pop\n      dup1\n      sload\n      tag_23\n      swap1\n      tag_24\n      jump\t// in\n    tag_23:\n      dup1\n      0x1f\n      add\n      0x20\n      dup1\n      swap2\n      div\n      mul\n      0x20\n      add\n      mload(0x40)\n      swap1\n      dup2\n      add\n      0x40\n      mstore\n      dup1\n      swap3\n      swap2\n      swap1\n      dup2\n      dup2\n      mstore\n      0x20\n      add\n      dup3\n      dup1\n      sload\n      tag_25\n      swap1\n      tag_24\n      jump\t// in\n    tag_25:\n      dup1\n      iszero\n      tag_26\n      jumpi\n      dup1\n      0x1f\n      lt\n      tag_27\n      jumpi\n      0x0100\n      dup1\n      dup4\n      sload\n      div\n      mul\n      dup4\n      mstore\n      swap2\n      0x20\n      add\n      swap2\n      jump(tag_26)\n    tag_27:\n      dup3\n      add\n      swap2\n      swap1\n      0x00\n      mstore\n      keccak256(0x00, 0x20)\n      swap1\n    tag_28:\n      dup2\n      sload\n      dup2\n      mstore\n      swap1\n      0x01\n      add\n      swap1\n      0x20\n      add\n      dup1\n      dup4\n      gt\n      tag_28\n      jumpi\n      dup3\n      swap1\n      sub\n      0x1f\n      and\n      dup3\n      add\n      swap2\n    tag_26:\n      pop\n      pop\n      pop\n      pop\n      pop\n      dup2\n      jump\t// out\n        /* \"contracts/Vote.sol\":990:1107  function retrieveCandidate(uint256 num) public view returns (candidate memory){... */\n    tag_14:\n        /* \"contracts/Vote.sol\":1051:1067  candidate memory */\n      tag_29\n      tag_30\n      jump\t// in\n    tag_29:\n        /* \"contracts/Vote.sol\":1085:1095  Candidates */\n      0x02\n        /* \"contracts/Vote.sol\":1085:1100  Candidates[num] */\n      0x00\n        /* \"contracts/Vote.sol\":1096:1099  num */\n      dup4\n        /* \"contracts/Vote.sol\":1085:1100  Candidates[num] */\n      dup2\n      mstore\n      0x20\n      add\n      swap1\n      dup2\n      mstore\n      0x20\n      add\n      0x00\n      keccak256\n        /* \"contracts/Vote.sol\":1078:1100  return Candidates[num] */\n      mload(0x40)\n      dup1\n      0x60\n      add\n      0x40\n      mstore\n      swap1\n      dup2\n      0x00\n      dup3\n      add\n      dup1\n      sload\n      tag_32\n      swap1\n      tag_24\n      jump\t// in\n    tag_32:\n      dup1\n      0x1f\n      add\n      0x20\n      dup1\n      swap2\n      div\n      mul\n      0x20\n      add\n      mload(0x40)\n      swap1\n      dup2\n      add\n      0x40\n      mstore\n      dup1\n      swap3\n      swap2\n      swap1\n      dup2\n      dup2\n      mstore\n      0x20\n      add\n      dup3\n      dup1\n      sload\n      tag_33\n      swap1\n      tag_24\n      jump\t// in\n    tag_33:\n      dup1\n      iszero\n      tag_34\n      jumpi\n      dup1\n      0x1f\n      lt\n      tag_35\n      jumpi\n      0x0100\n      dup1\n      dup4\n      sload\n      div\n      mul\n      dup4\n      mstore\n      swap2\n      0x20\n      add\n      swap2\n      jump(tag_34)\n    tag_35:\n      dup3\n      add\n      swap2\n      swap1\n      0x00\n      mstore\n      keccak256(0x00, 0x20)\n      swap1\n    tag_36:\n      dup2\n      sload\n      dup2\n      mstore\n      swap1\n      0x01\n      add\n      swap1\n      0x20\n      add\n      dup1\n      dup4\n      gt\n      tag_36\n      jumpi\n      dup3\n      swap1\n      sub\n      0x1f\n      and\n      dup3\n      add\n      swap2\n    tag_34:\n      pop\n      pop\n      pop\n      pop\n      pop\n      dup2\n      mstore\n      0x20\n      add\n      0x01\n      dup3\n      add\n      0x00\n      swap1\n      sload\n      swap1\n      0x0100\n      exp\n      swap1\n      div\n      0xffffffffffffffffffffffffffffffffffffffff\n      and\n      0xffffffffffffffffffffffffffffffffffffffff\n      and\n      0xffffffffffffffffffffffffffffffffffffffff\n      and\n      dup2\n      mstore\n      0x20\n      add\n      0x02\n      dup3\n      add\n      dup1\n      sload\n      tag_37\n      swap1\n      tag_24\n      jump\t// in\n    tag_37:\n      dup1\n      0x1f\n      add\n      0x20\n      dup1\n      swap2\n      div\n      mul\n      0x20\n      add\n      mload(0x40)\n      swap1\n      dup2\n      add\n      0x40\n      mstore\n      dup1\n      swap3\n      swap2\n      swap1\n      dup2\n      dup2\n      mstore\n      0x20\n      add\n      dup3\n      dup1\n      sload\n      tag_38\n      swap1\n      tag_24\n      jump\t// in\n    tag_38:\n      dup1\n      iszero\n      tag_39\n      jumpi\n      dup1\n      0x1f\n      lt\n      tag_40\n      jumpi\n      0x0100\n      dup1\n      dup4\n      sload\n      div\n      mul\n      dup4\n      mstore\n      swap2\n      0x20\n      add\n      swap2\n      jump(tag_39)\n    tag_40:\n      dup3\n      add\n      swap2\n      swap1\n      0x00\n      mstore\n      keccak256(0x00, 0x20)\n      swap1\n    tag_41:\n      dup2\n      sload\n      dup2\n      mstore\n      swap1\n      0x01\n      add\n      swap1\n      0x20\n      add\n      dup1\n      dup4\n      gt\n      tag_41\n      jumpi\n      dup3\n      swap1\n      sub\n      0x1f\n      and\n      dup3\n      add\n      swap2\n    tag_39:\n      pop\n      pop\n      pop\n      pop\n      pop\n      dup2\n      mstore\n      pop\n      pop\n      swap1\n      pop\n        /* \"contracts/Vote.sol\":990:1107  function retrieveCandidate(uint256 num) public view returns (candidate memory){... */\n      swap2\n      swap1\n      pop\n      jump\t// out\n        /* \"contracts/Vote.sol\":643:909  function createCandidate(string memory name, address candAddress, uint256 partyNum) public {... */\n    tag_20:\n        /* \"contracts/Vote.sol\":744:773  candidate memory NewCandidate */\n      tag_43\n      tag_30\n      jump\t// in\n    tag_43:\n        /* \"contracts/Vote.sol\":803:807  name */\n      dup4\n        /* \"contracts/Vote.sol\":783:795  NewCandidate */\n      dup2\n        /* \"contracts/Vote.sol\":783:800  NewCandidate.name */\n      0x00\n      add\n        /* \"contracts/Vote.sol\":783:807  NewCandidate.name = name */\n      dup2\n      swap1\n      mstore\n      pop\n        /* \"contracts/Vote.sol\":837:848  candAddress */\n      dup3\n        /* \"contracts/Vote.sol\":817:829  NewCandidate */\n      dup2\n        /* \"contracts/Vote.sol\":817:834  NewCandidate.addr */\n      0x20\n      add\n        /* \"contracts/Vote.sol\":817:848  NewCandidate.addr = candAddress */\n      swap1\n      0xffffffffffffffffffffffffffffffffffffffff\n      and\n      swap1\n      dup2\n      0xffffffffffffffffffffffffffffffffffffffff\n      and\n      dup2\n      mstore\n      pop\n      pop\n        /* \"contracts/Vote.sol\":879:884  party */\n      0x01\n        /* \"contracts/Vote.sol\":885:893  partyNum */\n      dup3\n        /* \"contracts/Vote.sol\":879:894  party[partyNum] */\n      dup2\n      sload\n      dup2\n      lt\n      tag_44\n      jumpi\n      tag_45\n      tag_46\n      jump\t// in\n    tag_45:\n    tag_44:\n      swap1\n      0x00\n      mstore\n      keccak256(0x00, 0x20)\n      add\n        /* \"contracts/Vote.sol\":858:894  NewCandidate.party = party[partyNum] */\n      dup1\n      sload\n      tag_48\n      swap1\n      tag_24\n      jump\t// in\n    tag_48:\n      dup1\n      0x1f\n      add\n      0x20\n      dup1\n      swap2\n      div\n      mul\n      0x20\n      add\n      mload(0x40)\n      swap1\n      dup2\n      add\n      0x40\n      mstore\n      dup1\n      swap3\n      swap2\n      swap1\n      dup2\n      dup2\n      mstore\n      0x20\n      add\n      dup3\n      dup1\n      sload\n      tag_49\n      swap1\n      tag_24\n      jump\t// in\n    tag_49:\n      dup1\n      iszero\n      tag_50\n      jumpi\n      dup1\n      0x1f\n      lt\n      tag_51\n      jumpi\n      0x0100\n      dup1\n      dup4\n      sload\n      div\n      mul\n      dup4\n      mstore\n      swap2\n      0x20\n      add\n      swap2\n      jump(tag_50)\n    tag_51:\n      dup3\n      add\n      swap2\n      swap1\n      0x00\n      mstore\n      keccak256(0x00, 0x20)\n      swap1\n    tag_52:\n      dup2\n      sload\n      dup2\n      mstore\n      swap1\n      0x01\n      add\n      swap1\n      0x20\n      add\n      dup1\n      dup4\n      gt\n      tag_52\n      jumpi\n      dup3\n      swap1\n      sub\n      0x1f\n      and\n      dup3\n      add\n      swap2\n    tag_50:\n      pop\n      pop\n      pop\n      pop\n      pop\n        /* \"contracts/Vote.sol\":858:870  NewCandidate */\n      dup2\n        /* \"contracts/Vote.sol\":858:876  NewCandidate.party */\n      0x40\n      add\n        /* \"contracts/Vote.sol\":858:894  NewCandidate.party = party[partyNum] */\n      dup2\n      swap1\n      mstore\n      pop\n        /* \"contracts/Vote.sol\":734:909  {... */\n      pop\n        /* \"contracts/Vote.sol\":643:909  function createCandidate(string memory name, address candAddress, uint256 partyNum) public {... */\n      pop\n      pop\n      pop\n      jump\t// out\n    tag_30:\n      mload(0x40)\n      dup1\n      0x60\n      add\n      0x40\n      mstore\n      dup1\n      0x60\n      dup2\n      mstore\n      0x20\n      add\n      and(0xffffffffffffffffffffffffffffffffffffffff, 0x00)\n      dup2\n      mstore\n      0x20\n      add\n      0x60\n      dup2\n      mstore\n      pop\n      swap1\n      jump\t// out\n        /* \"#utility.yul\":7:419   */\n    tag_54:\n        /* \"#utility.yul\":85:90   */\n      0x00\n        /* \"#utility.yul\":110:176   */\n      tag_56\n        /* \"#utility.yul\":126:175   */\n      tag_57\n        /* \"#utility.yul\":168:174   */\n      dup5\n        /* \"#utility.yul\":126:175   */\n      tag_58\n      jump\t// in\n    tag_57:\n        /* \"#utility.yul\":110:176   */\n      tag_59\n      jump\t// in\n    tag_56:\n        /* \"#utility.yul\":101:176   */\n      swap1\n      pop\n        /* \"#utility.yul\":199:205   */\n      dup3\n        /* \"#utility.yul\":192:197   */\n      dup2\n        /* \"#utility.yul\":185:206   */\n      mstore\n        /* \"#utility.yul\":237:241   */\n      0x20\n        /* \"#utility.yul\":230:235   */\n      dup2\n        /* \"#utility.yul\":226:242   */\n      add\n        /* \"#utility.yul\":275:278   */\n      dup5\n        /* \"#utility.yul\":266:272   */\n      dup5\n        /* \"#utility.yul\":261:264   */\n      dup5\n        /* \"#utility.yul\":257:273   */\n      add\n        /* \"#utility.yul\":254:279   */\n      gt\n        /* \"#utility.yul\":251:363   */\n      iszero\n      tag_60\n      jumpi\n        /* \"#utility.yul\":282:361   */\n      tag_61\n      tag_62\n      jump\t// in\n    tag_61:\n        /* \"#utility.yul\":251:363   */\n    tag_60:\n        /* \"#utility.yul\":372:413   */\n      tag_63\n        /* \"#utility.yul\":406:412   */\n      dup5\n        /* \"#utility.yul\":401:404   */\n      dup3\n        /* \"#utility.yul\":396:399   */\n      dup6\n        /* \"#utility.yul\":372:413   */\n      tag_64\n      jump\t// in\n    tag_63:\n        /* \"#utility.yul\":91:419   */\n      pop\n        /* \"#utility.yul\":7:419   */\n      swap4\n      swap3\n      pop\n      pop\n      pop\n      jump\t// out\n        /* \"#utility.yul\":425:564   */\n    tag_65:\n        /* \"#utility.yul\":471:476   */\n      0x00\n        /* \"#utility.yul\":509:515   */\n      dup2\n        /* \"#utility.yul\":496:516   */\n      calldataload\n        /* \"#utility.yul\":487:516   */\n      swap1\n      pop\n        /* \"#utility.yul\":525:558   */\n      tag_67\n        /* \"#utility.yul\":552:557   */\n      dup2\n        /* \"#utility.yul\":525:558   */\n      tag_68\n      jump\t// in\n    tag_67:\n        /* \"#utility.yul\":425:564   */\n      swap3\n      swap2\n      pop\n      pop\n      jump\t// out\n        /* \"#utility.yul\":584:924   */\n    tag_69:\n        /* \"#utility.yul\":640:645   */\n      0x00\n        /* \"#utility.yul\":689:692   */\n      dup3\n        /* \"#utility.yul\":682:686   */\n      0x1f\n        /* \"#utility.yul\":674:680   */\n      dup4\n        /* \"#utility.yul\":670:687   */\n      add\n        /* \"#utility.yul\":666:693   */\n      slt\n        /* \"#utility.yul\":656:778   */\n      tag_71\n      jumpi\n        /* \"#utility.yul\":697:776   */\n      tag_72\n      tag_73\n      jump\t// in\n    tag_72:\n        /* \"#utility.yul\":656:778   */\n    tag_71:\n        /* \"#utility.yul\":814:820   */\n      dup2\n        /* \"#utility.yul\":801:821   */\n      calldataload\n        /* \"#utility.yul\":839:918   */\n      tag_74\n        /* \"#utility.yul\":914:917   */\n      dup5\n        /* \"#utility.yul\":906:912   */\n      dup3\n        /* \"#utility.yul\":899:903   */\n      0x20\n        /* \"#utility.yul\":891:897   */\n      dup7\n        /* \"#utility.yul\":887:904   */\n      add\n        /* \"#utility.yul\":839:918   */\n      tag_54\n      jump\t// in\n    tag_74:\n        /* \"#utility.yul\":830:918   */\n      swap2\n      pop\n        /* \"#utility.yul\":646:924   */\n      pop\n        /* \"#utility.yul\":584:924   */\n      swap3\n      swap2\n      pop\n      pop\n      jump\t// out\n        /* \"#utility.yul\":930:1069   */\n    tag_75:\n        /* \"#utility.yul\":976:981   */\n      0x00\n        /* \"#utility.yul\":1014:1020   */\n      dup2\n        /* \"#utility.yul\":1001:1021   */\n      calldataload\n        /* \"#utility.yul\":992:1021   */\n      swap1\n      pop\n        /* \"#utility.yul\":1030:1063   */\n      tag_77\n        /* \"#utility.yul\":1057:1062   */\n      dup2\n        /* \"#utility.yul\":1030:1063   */\n      tag_78\n      jump\t// in\n    tag_77:\n        /* \"#utility.yul\":930:1069   */\n      swap3\n      swap2\n      pop\n      pop\n      jump\t// out\n        /* \"#utility.yul\":1075:1874   */\n    tag_19:\n        /* \"#utility.yul\":1162:1168   */\n      0x00\n        /* \"#utility.yul\":1170:1176   */\n      dup1\n        /* \"#utility.yul\":1178:1184   */\n      0x00\n        /* \"#utility.yul\":1227:1229   */\n      0x60\n        /* \"#utility.yul\":1215:1224   */\n      dup5\n        /* \"#utility.yul\":1206:1213   */\n      dup7\n        /* \"#utility.yul\":1202:1225   */\n      sub\n        /* \"#utility.yul\":1198:1230   */\n      slt\n        /* \"#utility.yul\":1195:1314   */\n      iszero\n      tag_80\n      jumpi\n        /* \"#utility.yul\":1233:1312   */\n      tag_81\n      tag_82\n      jump\t// in\n    tag_81:\n        /* \"#utility.yul\":1195:1314   */\n    tag_80:\n        /* \"#utility.yul\":1381:1382   */\n      0x00\n        /* \"#utility.yul\":1370:1379   */\n      dup5\n        /* \"#utility.yul\":1366:1383   */\n      add\n        /* \"#utility.yul\":1353:1384   */\n      calldataload\n        /* \"#utility.yul\":1411:1429   */\n      0xffffffffffffffff\n        /* \"#utility.yul\":1403:1409   */\n      dup2\n        /* \"#utility.yul\":1400:1430   */\n      gt\n        /* \"#utility.yul\":1397:1514   */\n      iszero\n      tag_83\n      jumpi\n        /* \"#utility.yul\":1433:1512   */\n      tag_84\n      tag_85\n      jump\t// in\n    tag_84:\n        /* \"#utility.yul\":1397:1514   */\n    tag_83:\n        /* \"#utility.yul\":1538:1601   */\n      tag_86\n        /* \"#utility.yul\":1593:1600   */\n      dup7\n        /* \"#utility.yul\":1584:1590   */\n      dup3\n        /* \"#utility.yul\":1573:1582   */\n      dup8\n        /* \"#utility.yul\":1569:1591   */\n      add\n        /* \"#utility.yul\":1538:1601   */\n      tag_69\n      jump\t// in\n    tag_86:\n        /* \"#utility.yul\":1528:1601   */\n      swap4\n      pop\n        /* \"#utility.yul\":1324:1611   */\n      pop\n        /* \"#utility.yul\":1650:1652   */\n      0x20\n        /* \"#utility.yul\":1676:1729   */\n      tag_87\n        /* \"#utility.yul\":1721:1728   */\n      dup7\n        /* \"#utility.yul\":1712:1718   */\n      dup3\n        /* \"#utility.yul\":1701:1710   */\n      dup8\n        /* \"#utility.yul\":1697:1719   */\n      add\n        /* \"#utility.yul\":1676:1729   */\n      tag_65\n      jump\t// in\n    tag_87:\n        /* \"#utility.yul\":1666:1729   */\n      swap3\n      pop\n        /* \"#utility.yul\":1621:1739   */\n      pop\n        /* \"#utility.yul\":1778:1780   */\n      0x40\n        /* \"#utility.yul\":1804:1857   */\n      tag_88\n        /* \"#utility.yul\":1849:1856   */\n      dup7\n        /* \"#utility.yul\":1840:1846   */\n      dup3\n        /* \"#utility.yul\":1829:1838   */\n      dup8\n        /* \"#utility.yul\":1825:1847   */\n      add\n        /* \"#utility.yul\":1804:1857   */\n      tag_75\n      jump\t// in\n    tag_88:\n        /* \"#utility.yul\":1794:1857   */\n      swap2\n      pop\n        /* \"#utility.yul\":1749:1867   */\n      pop\n        /* \"#utility.yul\":1075:1874   */\n      swap3\n      pop\n      swap3\n      pop\n      swap3\n      jump\t// out\n        /* \"#utility.yul\":1880:2209   */\n    tag_8:\n        /* \"#utility.yul\":1939:1945   */\n      0x00\n        /* \"#utility.yul\":1988:1990   */\n      0x20\n        /* \"#utility.yul\":1976:1985   */\n      dup3\n        /* \"#utility.yul\":1967:1974   */\n      dup5\n        /* \"#utility.yul\":1963:1986   */\n      sub\n        /* \"#utility.yul\":1959:1991   */\n      slt\n        /* \"#utility.yul\":1956:2075   */\n      iszero\n      tag_90\n      jumpi\n        /* \"#utility.yul\":1994:2073   */\n      tag_91\n      tag_82\n      jump\t// in\n    tag_91:\n        /* \"#utility.yul\":1956:2075   */\n    tag_90:\n        /* \"#utility.yul\":2114:2115   */\n      0x00\n        /* \"#utility.yul\":2139:2192   */\n      tag_92\n        /* \"#utility.yul\":2184:2191   */\n      dup5\n        /* \"#utility.yul\":2175:2181   */\n      dup3\n        /* \"#utility.yul\":2164:2173   */\n      dup6\n        /* \"#utility.yul\":2160:2182   */\n      add\n        /* \"#utility.yul\":2139:2192   */\n      tag_75\n      jump\t// in\n    tag_92:\n        /* \"#utility.yul\":2129:2192   */\n      swap2\n      pop\n        /* \"#utility.yul\":2085:2202   */\n      pop\n        /* \"#utility.yul\":1880:2209   */\n      swap3\n      swap2\n      pop\n      pop\n      jump\t// out\n        /* \"#utility.yul\":2215:2323   */\n    tag_93:\n        /* \"#utility.yul\":2292:2316   */\n      tag_95\n        /* \"#utility.yul\":2310:2315   */\n      dup2\n        /* \"#utility.yul\":2292:2316   */\n      tag_96\n      jump\t// in\n    tag_95:\n        /* \"#utility.yul\":2287:2290   */\n      dup3\n        /* \"#utility.yul\":2280:2317   */\n      mstore\n        /* \"#utility.yul\":2215:2323   */\n      pop\n      pop\n      jump\t// out\n        /* \"#utility.yul\":2329:2673   */\n    tag_97:\n        /* \"#utility.yul\":2407:2410   */\n      0x00\n        /* \"#utility.yul\":2435:2474   */\n      tag_99\n        /* \"#utility.yul\":2468:2473   */\n      dup3\n        /* \"#utility.yul\":2435:2474   */\n      tag_100\n      jump\t// in\n    tag_99:\n        /* \"#utility.yul\":2490:2551   */\n      tag_101\n        /* \"#utility.yul\":2544:2550   */\n      dup2\n        /* \"#utility.yul\":2539:2542   */\n      dup6\n        /* \"#utility.yul\":2490:2551   */\n      tag_102\n      jump\t// in\n    tag_101:\n        /* \"#utility.yul\":2483:2551   */\n      swap4\n      pop\n        /* \"#utility.yul\":2560:2612   */\n      tag_103\n        /* \"#utility.yul\":2605:2611   */\n      dup2\n        /* \"#utility.yul\":2600:2603   */\n      dup6\n        /* \"#utility.yul\":2593:2597   */\n      0x20\n        /* \"#utility.yul\":2586:2591   */\n      dup7\n        /* \"#utility.yul\":2582:2598   */\n      add\n        /* \"#utility.yul\":2560:2612   */\n      tag_104\n      jump\t// in\n    tag_103:\n        /* \"#utility.yul\":2637:2666   */\n      tag_105\n        /* \"#utility.yul\":2659:2665   */\n      dup2\n        /* \"#utility.yul\":2637:2666   */\n      tag_106\n      jump\t// in\n    tag_105:\n        /* \"#utility.yul\":2632:2635   */\n      dup5\n        /* \"#utility.yul\":2628:2667   */\n      add\n        /* \"#utility.yul\":2621:2667   */\n      swap2\n      pop\n        /* \"#utility.yul\":2411:2673   */\n      pop\n        /* \"#utility.yul\":2329:2673   */\n      swap3\n      swap2\n      pop\n      pop\n      jump\t// out\n        /* \"#utility.yul\":2679:3043   */\n    tag_107:\n        /* \"#utility.yul\":2767:2770   */\n      0x00\n        /* \"#utility.yul\":2795:2834   */\n      tag_109\n        /* \"#utility.yul\":2828:2833   */\n      dup3\n        /* \"#utility.yul\":2795:2834   */\n      tag_100\n      jump\t// in\n    tag_109:\n        /* \"#utility.yul\":2850:2921   */\n      tag_110\n        /* \"#utility.yul\":2914:2920   */\n      dup2\n        /* \"#utility.yul\":2909:2912   */\n      dup6\n        /* \"#utility.yul\":2850:2921   */\n      tag_111\n      jump\t// in\n    tag_110:\n        /* \"#utility.yul\":2843:2921   */\n      swap4\n      pop\n        /* \"#utility.yul\":2930:2982   */\n      tag_112\n        /* \"#utility.yul\":2975:2981   */\n      dup2\n        /* \"#utility.yul\":2970:2973   */\n      dup6\n        /* \"#utility.yul\":2963:2967   */\n      0x20\n        /* \"#utility.yul\":2956:2961   */\n      dup7\n        /* \"#utility.yul\":2952:2968   */\n      add\n        /* \"#utility.yul\":2930:2982   */\n      tag_104\n      jump\t// in\n    tag_112:\n        /* \"#utility.yul\":3007:3036   */\n      tag_113\n        /* \"#utility.yul\":3029:3035   */\n      dup2\n        /* \"#utility.yul\":3007:3036   */\n      tag_106\n      jump\t// in\n    tag_113:\n        /* \"#utility.yul\":3002:3005   */\n      dup5\n        /* \"#utility.yul\":2998:3037   */\n      add\n        /* \"#utility.yul\":2991:3037   */\n      swap2\n      pop\n        /* \"#utility.yul\":2771:3043   */\n      pop\n        /* \"#utility.yul\":2679:3043   */\n      swap3\n      swap2\n      pop\n      pop\n      jump\t// out\n        /* \"#utility.yul\":3103:3955   */\n    tag_114:\n        /* \"#utility.yul\":3222:3225   */\n      0x00\n        /* \"#utility.yul\":3258:3262   */\n      0x60\n        /* \"#utility.yul\":3253:3256   */\n      dup4\n        /* \"#utility.yul\":3249:3263   */\n      add\n        /* \"#utility.yul\":3345:3349   */\n      0x00\n        /* \"#utility.yul\":3338:3343   */\n      dup4\n        /* \"#utility.yul\":3334:3350   */\n      add\n        /* \"#utility.yul\":3328:3351   */\n      mload\n        /* \"#utility.yul\":3398:3401   */\n      dup5\n        /* \"#utility.yul\":3392:3396   */\n      dup3\n        /* \"#utility.yul\":3388:3402   */\n      sub\n        /* \"#utility.yul\":3381:3385   */\n      0x00\n        /* \"#utility.yul\":3376:3379   */\n      dup7\n        /* \"#utility.yul\":3372:3386   */\n      add\n        /* \"#utility.yul\":3365:3403   */\n      mstore\n        /* \"#utility.yul\":3424:3497   */\n      tag_116\n        /* \"#utility.yul\":3492:3496   */\n      dup3\n        /* \"#utility.yul\":3478:3490   */\n      dup3\n        /* \"#utility.yul\":3424:3497   */\n      tag_97\n      jump\t// in\n    tag_116:\n        /* \"#utility.yul\":3416:3497   */\n      swap2\n      pop\n        /* \"#utility.yul\":3273:3508   */\n      pop\n        /* \"#utility.yul\":3590:3594   */\n      0x20\n        /* \"#utility.yul\":3583:3588   */\n      dup4\n        /* \"#utility.yul\":3579:3595   */\n      add\n        /* \"#utility.yul\":3573:3596   */\n      mload\n        /* \"#utility.yul\":3609:3672   */\n      tag_117\n        /* \"#utility.yul\":3666:3670   */\n      0x20\n        /* \"#utility.yul\":3661:3664   */\n      dup7\n        /* \"#utility.yul\":3657:3671   */\n      add\n        /* \"#utility.yul\":3643:3655   */\n      dup3\n        /* \"#utility.yul\":3609:3672   */\n      tag_93\n      jump\t// in\n    tag_117:\n        /* \"#utility.yul\":3518:3682   */\n      pop\n        /* \"#utility.yul\":3765:3769   */\n      0x40\n        /* \"#utility.yul\":3758:3763   */\n      dup4\n        /* \"#utility.yul\":3754:3770   */\n      add\n        /* \"#utility.yul\":3748:3771   */\n      mload\n        /* \"#utility.yul\":3818:3821   */\n      dup5\n        /* \"#utility.yul\":3812:3816   */\n      dup3\n        /* \"#utility.yul\":3808:3822   */\n      sub\n        /* \"#utility.yul\":3801:3805   */\n      0x40\n        /* \"#utility.yul\":3796:3799   */\n      dup7\n        /* \"#utility.yul\":3792:3806   */\n      add\n        /* \"#utility.yul\":3785:3823   */\n      mstore\n        /* \"#utility.yul\":3844:3917   */\n      tag_118\n        /* \"#utility.yul\":3912:3916   */\n      dup3\n        /* \"#utility.yul\":3898:3910   */\n      dup3\n        /* \"#utility.yul\":3844:3917   */\n      tag_97\n      jump\t// in\n    tag_118:\n        /* \"#utility.yul\":3836:3917   */\n      swap2\n      pop\n        /* \"#utility.yul\":3692:3928   */\n      pop\n        /* \"#utility.yul\":3945:3949   */\n      dup1\n        /* \"#utility.yul\":3938:3949   */\n      swap2\n      pop\n        /* \"#utility.yul\":3227:3955   */\n      pop\n        /* \"#utility.yul\":3103:3955   */\n      swap3\n      swap2\n      pop\n      pop\n      jump\t// out\n        /* \"#utility.yul\":3961:4274   */\n    tag_11:\n        /* \"#utility.yul\":4074:4078   */\n      0x00\n        /* \"#utility.yul\":4112:4114   */\n      0x20\n        /* \"#utility.yul\":4101:4110   */\n      dup3\n        /* \"#utility.yul\":4097:4115   */\n      add\n        /* \"#utility.yul\":4089:4115   */\n      swap1\n      pop\n        /* \"#utility.yul\":4161:4170   */\n      dup2\n        /* \"#utility.yul\":4155:4159   */\n      dup2\n        /* \"#utility.yul\":4151:4171   */\n      sub\n        /* \"#utility.yul\":4147:4148   */\n      0x00\n        /* \"#utility.yul\":4136:4145   */\n      dup4\n        /* \"#utility.yul\":4132:4149   */\n      add\n        /* \"#utility.yul\":4125:4172   */\n      mstore\n        /* \"#utility.yul\":4189:4267   */\n      tag_120\n        /* \"#utility.yul\":4262:4266   */\n      dup2\n        /* \"#utility.yul\":4253:4259   */\n      dup5\n        /* \"#utility.yul\":4189:4267   */\n      tag_107\n      jump\t// in\n    tag_120:\n        /* \"#utility.yul\":4181:4267   */\n      swap1\n      pop\n        /* \"#utility.yul\":3961:4274   */\n      swap3\n      swap2\n      pop\n      pop\n      jump\t// out\n        /* \"#utility.yul\":4280:4653   */\n    tag_16:\n        /* \"#utility.yul\":4423:4427   */\n      0x00\n        /* \"#utility.yul\":4461:4463   */\n      0x20\n        /* \"#utility.yul\":4450:4459   */\n      dup3\n        /* \"#utility.yul\":4446:4464   */\n      add\n        /* \"#utility.yul\":4438:4464   */\n      swap1\n      pop\n        /* \"#utility.yul\":4510:4519   */\n      dup2\n        /* \"#utility.yul\":4504:4508   */\n      dup2\n        /* \"#utility.yul\":4500:4520   */\n      sub\n        /* \"#utility.yul\":4496:4497   */\n      0x00\n        /* \"#utility.yul\":4485:4494   */\n      dup4\n        /* \"#utility.yul\":4481:4498   */\n      add\n        /* \"#utility.yul\":4474:4521   */\n      mstore\n        /* \"#utility.yul\":4538:4646   */\n      tag_122\n        /* \"#utility.yul\":4641:4645   */\n      dup2\n        /* \"#utility.yul\":4632:4638   */\n      dup5\n        /* \"#utility.yul\":4538:4646   */\n      tag_114\n      jump\t// in\n    tag_122:\n        /* \"#utility.yul\":4530:4646   */\n      swap1\n      pop\n        /* \"#utility.yul\":4280:4653   */\n      swap3\n      swap2\n      pop\n      pop\n      jump\t// out\n        /* \"#utility.yul\":4659:4788   */\n    tag_59:\n        /* \"#utility.yul\":4693:4699   */\n      0x00\n        /* \"#utility.yul\":4720:4740   */\n      tag_124\n      tag_125\n      jump\t// in\n    tag_124:\n        /* \"#utility.yul\":4710:4740   */\n      swap1\n      pop\n        /* \"#utility.yul\":4749:4782   */\n      tag_126\n        /* \"#utility.yul\":4777:4781   */\n      dup3\n        /* \"#utility.yul\":4769:4775   */\n      dup3\n        /* \"#utility.yul\":4749:4782   */\n      tag_127\n      jump\t// in\n    tag_126:\n        /* \"#utility.yul\":4659:4788   */\n      swap2\n      swap1\n      pop\n      jump\t// out\n        /* \"#utility.yul\":4794:4869   */\n    tag_125:\n        /* \"#utility.yul\":4827:4833   */\n      0x00\n        /* \"#utility.yul\":4860:4862   */\n      0x40\n        /* \"#utility.yul\":4854:4863   */\n      mload\n        /* \"#utility.yul\":4844:4863   */\n      swap1\n      pop\n        /* \"#utility.yul\":4794:4869   */\n      swap1\n      jump\t// out\n        /* \"#utility.yul\":4875:5183   */\n    tag_58:\n        /* \"#utility.yul\":4937:4941   */\n      0x00\n        /* \"#utility.yul\":5027:5045   */\n      0xffffffffffffffff\n        /* \"#utility.yul\":5019:5025   */\n      dup3\n        /* \"#utility.yul\":5016:5046   */\n      gt\n        /* \"#utility.yul\":5013:5069   */\n      iszero\n      tag_130\n      jumpi\n        /* \"#utility.yul\":5049:5067   */\n      tag_131\n      tag_132\n      jump\t// in\n    tag_131:\n        /* \"#utility.yul\":5013:5069   */\n    tag_130:\n        /* \"#utility.yul\":5087:5116   */\n      tag_133\n        /* \"#utility.yul\":5109:5115   */\n      dup3\n        /* \"#utility.yul\":5087:5116   */\n      tag_106\n      jump\t// in\n    tag_133:\n        /* \"#utility.yul\":5079:5116   */\n      swap1\n      pop\n        /* \"#utility.yul\":5171:5175   */\n      0x20\n        /* \"#utility.yul\":5165:5169   */\n      dup2\n        /* \"#utility.yul\":5161:5176   */\n      add\n        /* \"#utility.yul\":5153:5176   */\n      swap1\n      pop\n        /* \"#utility.yul\":4875:5183   */\n      swap2\n      swap1\n      pop\n      jump\t// out\n        /* \"#utility.yul\":5189:5288   */\n    tag_100:\n        /* \"#utility.yul\":5241:5247   */\n      0x00\n        /* \"#utility.yul\":5275:5280   */\n      dup2\n        /* \"#utility.yul\":5269:5281   */\n      mload\n        /* \"#utility.yul\":5259:5281   */\n      swap1\n      pop\n        /* \"#utility.yul\":5189:5288   */\n      swap2\n      swap1\n      pop\n      jump\t// out\n        /* \"#utility.yul\":5294:5453   */\n    tag_102:\n        /* \"#utility.yul\":5368:5379   */\n      0x00\n        /* \"#utility.yul\":5402:5408   */\n      dup3\n        /* \"#utility.yul\":5397:5400   */\n      dup3\n        /* \"#utility.yul\":5390:5409   */\n      mstore\n        /* \"#utility.yul\":5442:5446   */\n      0x20\n        /* \"#utility.yul\":5437:5440   */\n      dup3\n        /* \"#utility.yul\":5433:5447   */\n      add\n        /* \"#utility.yul\":5418:5447   */\n      swap1\n      pop\n        /* \"#utility.yul\":5294:5453   */\n      swap3\n      swap2\n      pop\n      pop\n      jump\t// out\n        /* \"#utility.yul\":5459:5628   */\n    tag_111:\n        /* \"#utility.yul\":5543:5554   */\n      0x00\n        /* \"#utility.yul\":5577:5583   */\n      dup3\n        /* \"#utility.yul\":5572:5575   */\n      dup3\n        /* \"#utility.yul\":5565:5584   */\n      mstore\n        /* \"#utility.yul\":5617:5621   */\n      0x20\n        /* \"#utility.yul\":5612:5615   */\n      dup3\n        /* \"#utility.yul\":5608:5622   */\n      add\n        /* \"#utility.yul\":5593:5622   */\n      swap1\n      pop\n        /* \"#utility.yul\":5459:5628   */\n      swap3\n      swap2\n      pop\n      pop\n      jump\t// out\n        /* \"#utility.yul\":5634:5730   */\n    tag_96:\n        /* \"#utility.yul\":5671:5678   */\n      0x00\n        /* \"#utility.yul\":5700:5724   */\n      tag_138\n        /* \"#utility.yul\":5718:5723   */\n      dup3\n        /* \"#utility.yul\":5700:5724   */\n      tag_139\n      jump\t// in\n    tag_138:\n        /* \"#utility.yul\":5689:5724   */\n      swap1\n      pop\n        /* \"#utility.yul\":5634:5730   */\n      swap2\n      swap1\n      pop\n      jump\t// out\n        /* \"#utility.yul\":5736:5862   */\n    tag_139:\n        /* \"#utility.yul\":5773:5780   */\n      0x00\n        /* \"#utility.yul\":5813:5855   */\n      0xffffffffffffffffffffffffffffffffffffffff\n        /* \"#utility.yul\":5806:5811   */\n      dup3\n        /* \"#utility.yul\":5802:5856   */\n      and\n        /* \"#utility.yul\":5791:5856   */\n      swap1\n      pop\n        /* \"#utility.yul\":5736:5862   */\n      swap2\n      swap1\n      pop\n      jump\t// out\n        /* \"#utility.yul\":5868:5945   */\n    tag_141:\n        /* \"#utility.yul\":5905:5912   */\n      0x00\n        /* \"#utility.yul\":5934:5939   */\n      dup2\n        /* \"#utility.yul\":5923:5939   */\n      swap1\n      pop\n        /* \"#utility.yul\":5868:5945   */\n      swap2\n      swap1\n      pop\n      jump\t// out\n        /* \"#utility.yul\":5951:6105   */\n    tag_64:\n        /* \"#utility.yul\":6035:6041   */\n      dup3\n        /* \"#utility.yul\":6030:6033   */\n      dup2\n        /* \"#utility.yul\":6025:6028   */\n      dup4\n        /* \"#utility.yul\":6012:6042   */\n      calldatacopy\n        /* \"#utility.yul\":6097:6098   */\n      0x00\n        /* \"#utility.yul\":6088:6094   */\n      dup4\n        /* \"#utility.yul\":6083:6086   */\n      dup4\n        /* \"#utility.yul\":6079:6095   */\n      add\n        /* \"#utility.yul\":6072:6099   */\n      mstore\n        /* \"#utility.yul\":5951:6105   */\n      pop\n      pop\n      pop\n      jump\t// out\n        /* \"#utility.yul\":6111:6418   */\n    tag_104:\n        /* \"#utility.yul\":6179:6180   */\n      0x00\n        /* \"#utility.yul\":6189:6302   */\n    tag_145:\n        /* \"#utility.yul\":6203:6209   */\n      dup4\n        /* \"#utility.yul\":6200:6201   */\n      dup2\n        /* \"#utility.yul\":6197:6210   */\n      lt\n        /* \"#utility.yul\":6189:6302   */\n      iszero\n      tag_147\n      jumpi\n        /* \"#utility.yul\":6288:6289   */\n      dup1\n        /* \"#utility.yul\":6283:6286   */\n      dup3\n        /* \"#utility.yul\":6279:6290   */\n      add\n        /* \"#utility.yul\":6273:6291   */\n      mload\n        /* \"#utility.yul\":6269:6270   */\n      dup2\n        /* \"#utility.yul\":6264:6267   */\n      dup5\n        /* \"#utility.yul\":6260:6271   */\n      add\n        /* \"#utility.yul\":6253:6292   */\n      mstore\n        /* \"#utility.yul\":6225:6227   */\n      0x20\n        /* \"#utility.yul\":6222:6223   */\n      dup2\n        /* \"#utility.yul\":6218:6228   */\n      add\n        /* \"#utility.yul\":6213:6228   */\n      swap1\n      pop\n        /* \"#utility.yul\":6189:6302   */\n      jump(tag_145)\n    tag_147:\n        /* \"#utility.yul\":6320:6326   */\n      dup4\n        /* \"#utility.yul\":6317:6318   */\n      dup2\n        /* \"#utility.yul\":6314:6327   */\n      gt\n        /* \"#utility.yul\":6311:6412   */\n      iszero\n      tag_148\n      jumpi\n        /* \"#utility.yul\":6400:6401   */\n      0x00\n        /* \"#utility.yul\":6391:6397   */\n      dup5\n        /* \"#utility.yul\":6386:6389   */\n      dup5\n        /* \"#utility.yul\":6382:6398   */\n      add\n        /* \"#utility.yul\":6375:6402   */\n      mstore\n        /* \"#utility.yul\":6311:6412   */\n    tag_148:\n        /* \"#utility.yul\":6160:6418   */\n      pop\n        /* \"#utility.yul\":6111:6418   */\n      pop\n      pop\n      pop\n      jump\t// out\n        /* \"#utility.yul\":6424:6744   */\n    tag_24:\n        /* \"#utility.yul\":6468:6474   */\n      0x00\n        /* \"#utility.yul\":6505:6506   */\n      0x02\n        /* \"#utility.yul\":6499:6503   */\n      dup3\n        /* \"#utility.yul\":6495:6507   */\n      div\n        /* \"#utility.yul\":6485:6507   */\n      swap1\n      pop\n        /* \"#utility.yul\":6552:6553   */\n      0x01\n        /* \"#utility.yul\":6546:6550   */\n      dup3\n        /* \"#utility.yul\":6542:6554   */\n      and\n        /* \"#utility.yul\":6573:6591   */\n      dup1\n        /* \"#utility.yul\":6563:6644   */\n      tag_150\n      jumpi\n        /* \"#utility.yul\":6629:6633   */\n      0x7f\n        /* \"#utility.yul\":6621:6627   */\n      dup3\n        /* \"#utility.yul\":6617:6634   */\n      and\n        /* \"#utility.yul\":6607:6634   */\n      swap2\n      pop\n        /* \"#utility.yul\":6563:6644   */\n    tag_150:\n        /* \"#utility.yul\":6691:6693   */\n      0x20\n        /* \"#utility.yul\":6683:6689   */\n      dup3\n        /* \"#utility.yul\":6680:6694   */\n      lt\n        /* \"#utility.yul\":6660:6678   */\n      dup2\n        /* \"#utility.yul\":6657:6695   */\n      eq\n        /* \"#utility.yul\":6654:6738   */\n      iszero\n      tag_151\n      jumpi\n        /* \"#utility.yul\":6710:6728   */\n      tag_152\n      tag_153\n      jump\t// in\n    tag_152:\n        /* \"#utility.yul\":6654:6738   */\n    tag_151:\n        /* \"#utility.yul\":6475:6744   */\n      pop\n        /* \"#utility.yul\":6424:6744   */\n      swap2\n      swap1\n      pop\n      jump\t// out\n        /* \"#utility.yul\":6750:7031   */\n    tag_127:\n        /* \"#utility.yul\":6833:6860   */\n      tag_155\n        /* \"#utility.yul\":6855:6859   */\n      dup3\n        /* \"#utility.yul\":6833:6860   */\n      tag_106\n      jump\t// in\n    tag_155:\n        /* \"#utility.yul\":6825:6831   */\n      dup2\n        /* \"#utility.yul\":6821:6861   */\n      add\n        /* \"#utility.yul\":6963:6969   */\n      dup2\n        /* \"#utility.yul\":6951:6961   */\n      dup2\n        /* \"#utility.yul\":6948:6970   */\n      lt\n        /* \"#utility.yul\":6927:6945   */\n      0xffffffffffffffff\n        /* \"#utility.yul\":6915:6925   */\n      dup3\n        /* \"#utility.yul\":6912:6946   */\n      gt\n        /* \"#utility.yul\":6909:6971   */\n      or\n        /* \"#utility.yul\":6906:6994   */\n      iszero\n      tag_156\n      jumpi\n        /* \"#utility.yul\":6974:6992   */\n      tag_157\n      tag_132\n      jump\t// in\n    tag_157:\n        /* \"#utility.yul\":6906:6994   */\n    tag_156:\n        /* \"#utility.yul\":7014:7024   */\n      dup1\n        /* \"#utility.yul\":7010:7012   */\n      0x40\n        /* \"#utility.yul\":7003:7025   */\n      mstore\n        /* \"#utility.yul\":6793:7031   */\n      pop\n        /* \"#utility.yul\":6750:7031   */\n      pop\n      pop\n      jump\t// out\n        /* \"#utility.yul\":7037:7217   */\n    tag_153:\n        /* \"#utility.yul\":7085:7162   */\n      0x4e487b7100000000000000000000000000000000000000000000000000000000\n        /* \"#utility.yul\":7082:7083   */\n      0x00\n        /* \"#utility.yul\":7075:7163   */\n      mstore\n        /* \"#utility.yul\":7182:7186   */\n      0x22\n        /* \"#utility.yul\":7179:7180   */\n      0x04\n        /* \"#utility.yul\":7172:7187   */\n      mstore\n        /* \"#utility.yul\":7206:7210   */\n      0x24\n        /* \"#utility.yul\":7203:7204   */\n      0x00\n        /* \"#utility.yul\":7196:7211   */\n      revert\n        /* \"#utility.yul\":7223:7403   */\n    tag_46:\n        /* \"#utility.yul\":7271:7348   */\n      0x4e487b7100000000000000000000000000000000000000000000000000000000\n        /* \"#utility.yul\":7268:7269   */\n      0x00\n        /* \"#utility.yul\":7261:7349   */\n      mstore\n        /* \"#utility.yul\":7368:7372   */\n      0x32\n        /* \"#utility.yul\":7365:7366   */\n      0x04\n        /* \"#utility.yul\":7358:7373   */\n      mstore\n        /* \"#utility.yul\":7392:7396   */\n      0x24\n        /* \"#utility.yul\":7389:7390   */\n      0x00\n        /* \"#utility.yul\":7382:7397   */\n      revert\n        /* \"#utility.yul\":7409:7589   */\n    tag_132:\n        /* \"#utility.yul\":7457:7534   */\n      0x4e487b7100000000000000000000000000000000000000000000000000000000\n        /* \"#utility.yul\":7454:7455   */\n      0x00\n        /* \"#utility.yul\":7447:7535   */\n      mstore\n        /* \"#utility.yul\":7554:7558   */\n      0x41\n        /* \"#utility.yul\":7551:7552   */\n      0x04\n        /* \"#utility.yul\":7544:7559   */\n      mstore\n        /* \"#utility.yul\":7578:7582   */\n      0x24\n        /* \"#utility.yul\":7575:7576   */\n      0x00\n        /* \"#utility.yul\":7568:7583   */\n      revert\n        /* \"#utility.yul\":7595:7712   */\n    tag_73:\n        /* \"#utility.yul\":7704:7705   */\n      0x00\n        /* \"#utility.yul\":7701:7702   */\n      dup1\n        /* \"#utility.yul\":7694:7706   */\n      revert\n        /* \"#utility.yul\":7718:7835   */\n    tag_62:\n        /* \"#utility.yul\":7827:7828   */\n      0x00\n        /* \"#utility.yul\":7824:7825   */\n      dup1\n        /* \"#utility.yul\":7817:7829   */\n      revert\n        /* \"#utility.yul\":7841:7958   */\n    tag_85:\n        /* \"#utility.yul\":7950:7951   */\n      0x00\n        /* \"#utility.yul\":7947:7948   */\n      dup1\n        /* \"#utility.yul\":7940:7952   */\n      revert\n        /* \"#utility.yul\":7964:8081   */\n    tag_82:\n        /* \"#utility.yul\":8073:8074   */\n      0x00\n        /* \"#utility.yul\":8070:8071   */\n      dup1\n        /* \"#utility.yul\":8063:8075   */\n      revert\n        /* \"#utility.yul\":8087:8189   */\n    tag_106:\n        /* \"#utility.yul\":8128:8134   */\n      0x00\n        /* \"#utility.yul\":8179:8181   */\n      0x1f\n        /* \"#utility.yul\":8175:8182   */\n      not\n        /* \"#utility.yul\":8170:8172   */\n      0x1f\n        /* \"#utility.yul\":8163:8168   */\n      dup4\n        /* \"#utility.yul\":8159:8173   */\n      add\n        /* \"#utility.yul\":8155:8183   */\n      and\n        /* \"#utility.yul\":8145:8183   */\n      swap1\n      pop\n        /* \"#utility.yul\":8087:8189   */\n      swap2\n      swap1\n      pop\n      jump\t// out\n        /* \"#utility.yul\":8195:8317   */\n    tag_68:\n        /* \"#utility.yul\":8268:8292   */\n      tag_167\n        /* \"#utility.yul\":8286:8291   */\n      dup2\n        /* \"#utility.yul\":8268:8292   */\n      tag_96\n      jump\t// in\n    tag_167:\n        /* \"#utility.yul\":8261:8266   */\n      dup2\n        /* \"#utility.yul\":8258:8293   */\n      eq\n        /* \"#utility.yul\":8248:8311   */\n      tag_168\n      jumpi\n        /* \"#utility.yul\":8307:8308   */\n      0x00\n        /* \"#utility.yul\":8304:8305   */\n      dup1\n        /* \"#utility.yul\":8297:8309   */\n      revert\n        /* \"#utility.yul\":8248:8311   */\n    tag_168:\n        /* \"#utility.yul\":8195:8317   */\n      pop\n      jump\t// out\n        /* \"#utility.yul\":8323:8445   */\n    tag_78:\n        /* \"#utility.yul\":8396:8420   */\n      tag_170\n        /* \"#utility.yul\":8414:8419   */\n      dup2\n        /* \"#utility.yul\":8396:8420   */\n      tag_141\n      jump\t// in\n    tag_170:\n        /* \"#utility.yul\":8389:8394   */\n      dup2\n        /* \"#utility.yul\":8386:8421   */\n      eq\n        /* \"#utility.yul\":8376:8439   */\n      tag_171\n      jumpi\n        /* \"#utility.yul\":8435:8436   */\n      0x00\n        /* \"#utility.yul\":8432:8433   */\n      dup1\n        /* \"#utility.yul\":8425:8437   */\n      revert\n        /* \"#utility.yul\":8376:8439   */\n    tag_171:\n        /* \"#utility.yul\":8323:8445   */\n      pop\n      jump\t// out\n\n    auxdata: 0xa26469706673582212205fd1da5d88289bd9c4f32418025294267ed982748617f482b441c4d324c6e54c64736f6c63430008070033\n}\n",
				"bytecode": {
					"linkReferences": {},
					"object": "608060405260405180608001604052806040518060400160405280600381526020017f415043000000000000000000000000000000000000000000000000000000000081525081526020016040518060400160405280600381526020017f504450000000000000000000000000000000000000000000000000000000000081525081526020016040518060400160405280600281526020017f4c5000000000000000000000000000000000000000000000000000000000000081525081526020016040518060400160405280600481526020017f4e4e50500000000000000000000000000000000000000000000000000000000081525081525060019060046200010b92919062000120565b503480156200011957600080fd5b506200030a565b82805482825590600052602060002090810192821562000174579160200282015b82811115620001735782518290805190602001906200016292919062000187565b509160200191906001019062000141565b5b50905062000183919062000218565b5090565b8280546200019590620002a5565b90600052602060002090601f016020900481019282620001b9576000855562000205565b82601f10620001d457805160ff191683800117855562000205565b8280016001018555821562000205579182015b8281111562000204578251825591602001919060010190620001e7565b5b50905062000214919062000240565b5090565b5b808211156200023c57600081816200023291906200025f565b5060010162000219565b5090565b5b808211156200025b57600081600090555060010162000241565b5090565b5080546200026d90620002a5565b6000825580601f10620002815750620002a2565b601f016020900490600052602060002090810190620002a1919062000240565b5b50565b60006002820490506001821680620002be57607f821691505b60208210811415620002d557620002d4620002db565b5b50919050565b7f4e487b7100000000000000000000000000000000000000000000000000000000600052602260045260246000fd5b610916806200031a6000396000f3fe608060405234801561001057600080fd5b50600436106100415760003560e01c8063314fd68f146100465780639e5f034914610076578063d59d2a58146100a6575b600080fd5b610060600480360381019061005b9190610553565b6100c2565b60405161006d9190610658565b60405180910390f35b610090600480360381019061008b9190610553565b61016e565b60405161009d919061067a565b60405180910390f35b6100c060048036038101906100bb91906104e4565b610315565b005b600181815481106100d257600080fd5b9060005260206000200160009150905080546100ed9061079d565b80601f01602080910402602001604051908101604052809291908181526020018280546101199061079d565b80156101665780601f1061013b57610100808354040283529160200191610166565b820191906000526020600020905b81548152906001019060200180831161014957829003601f168201915b505050505081565b610176610413565b600260008381526020019081526020016000206040518060600160405290816000820180546101a49061079d565b80601f01602080910402602001604051908101604052809291908181526020018280546101d09061079d565b801561021d5780601f106101f25761010080835404028352916020019161021d565b820191906000526020600020905b81548152906001019060200180831161020057829003601f168201915b505050505081526020016001820160009054906101000a900473ffffffffffffffffffffffffffffffffffffffff1673ffffffffffffffffffffffffffffffffffffffff1673ffffffffffffffffffffffffffffffffffffffff16815260200160028201805461028c9061079d565b80601f01602080910402602001604051908101604052809291908181526020018280546102b89061079d565b80156103055780601f106102da57610100808354040283529160200191610305565b820191906000526020600020905b8154815290600101906020018083116102e857829003601f168201915b5050505050815250509050919050565b61031d610413565b83816000018190525082816020019073ffffffffffffffffffffffffffffffffffffffff16908173ffffffffffffffffffffffffffffffffffffffff1681525050600182815481106103725761037161082f565b5b9060005260206000200180546103879061079d565b80601f01602080910402602001604051908101604052809291908181526020018280546103b39061079d565b80156104005780601f106103d557610100808354040283529160200191610400565b820191906000526020600020905b8154815290600101906020018083116103e357829003601f168201915b5050505050816040018190525050505050565b604051806060016040528060608152602001600073ffffffffffffffffffffffffffffffffffffffff168152602001606081525090565b600061045d610458846106c1565b61069c565b90508281526020810184848401111561047957610478610892565b5b61048484828561075b565b509392505050565b60008135905061049b816108b2565b92915050565b600082601f8301126104b6576104b561088d565b5b81356104c684826020860161044a565b91505092915050565b6000813590506104de816108c9565b92915050565b6000806000606084860312156104fd576104fc61089c565b5b600084013567ffffffffffffffff81111561051b5761051a610897565b5b610527868287016104a1565b93505060206105388682870161048c565b9250506040610549868287016104cf565b9150509250925092565b6000602082840312156105695761056861089c565b5b6000610577848285016104cf565b91505092915050565b6105898161071f565b82525050565b600061059a826106f2565b6105a481856106fd565b93506105b481856020860161076a565b6105bd816108a1565b840191505092915050565b60006105d3826106f2565b6105dd818561070e565b93506105ed81856020860161076a565b6105f6816108a1565b840191505092915050565b6000606083016000830151848203600086015261061e828261058f565b91505060208301516106336020860182610580565b506040830151848203604086015261064b828261058f565b9150508091505092915050565b6000602082019050818103600083015261067281846105c8565b905092915050565b600060208201905081810360008301526106948184610601565b905092915050565b60006106a66106b7565b90506106b282826107cf565b919050565b6000604051905090565b600067ffffffffffffffff8211156106dc576106db61085e565b5b6106e5826108a1565b9050602081019050919050565b600081519050919050565b600082825260208201905092915050565b600082825260208201905092915050565b600061072a82610731565b9050919050565b600073ffffffffffffffffffffffffffffffffffffffff82169050919050565b6000819050919050565b82818337600083830152505050565b60005b8381101561078857808201518184015260208101905061076d565b83811115610797576000848401525b50505050565b600060028204905060018216806107b557607f821691505b602082108114156107c9576107c8610800565b5b50919050565b6107d8826108a1565b810181811067ffffffffffffffff821117156107f7576107f661085e565b5b80604052505050565b7f4e487b7100000000000000000000000000000000000000000000000000000000600052602260045260246000fd5b7f4e487b7100000000000000000000000000000000000000000000000000000000600052603260045260246000fd5b7f4e487b7100000000000000000000000000000000000000000000000000000000600052604160045260246000fd5b600080fd5b600080fd5b600080fd5b600080fd5b6000601f19601f8301169050919050565b6108bb8161071f565b81146108c657600080fd5b50565b6108d281610751565b81146108dd57600080fd5b5056fea26469706673582212205fd1da5d88289bd9c4f32418025294267ed982748617f482b441c4d324c6e54c64736f6c63430008070033",
					"opcodes": "PUSH1 0x80 PUSH1 0x40 MSTORE PUSH1 0x40 MLOAD DUP1 PUSH1 0x80 ADD PUSH1 0x40 MSTORE DUP1 PUSH1 0x40 MLOAD DUP1 PUSH1 0x40 ADD PUSH1 0x40 MSTORE DUP1 PUSH1 0x3 DUP2 MSTORE PUSH1 0x20 ADD PUSH32 0x4150430000000000000000000000000000000000000000000000000000000000 DUP2 MSTORE POP DUP2 MSTORE PUSH1 0x20 ADD PUSH1 0x40 MLOAD DUP1 PUSH1 0x40 ADD PUSH1 0x40 MSTORE DUP1 PUSH1 0x3 DUP2 MSTORE PUSH1 0x20 ADD PUSH32 0x5044500000000000000000000000000000000000000000000000000000000000 DUP2 MSTORE POP DUP2 MSTORE PUSH1 0x20 ADD PUSH1 0x40 MLOAD DUP1 PUSH1 0x40 ADD PUSH1 0x40 MSTORE DUP1 PUSH1 0x2 DUP2 MSTORE PUSH1 0x20 ADD PUSH32 0x4C50000000000000000000000000000000000000000000000000000000000000 DUP2 MSTORE POP DUP2 MSTORE PUSH1 0x20 ADD PUSH1 0x40 MLOAD DUP1 PUSH1 0x40 ADD PUSH1 0x40 MSTORE DUP1 PUSH1 0x4 DUP2 MSTORE PUSH1 0x20 ADD PUSH32 0x4E4E505000000000000000000000000000000000000000000000000000000000 DUP2 MSTORE POP DUP2 MSTORE POP PUSH1 0x1 SWAP1 PUSH1 0x4 PUSH3 0x10B SWAP3 SWAP2 SWAP1 PUSH3 0x120 JUMP JUMPDEST POP CALLVALUE DUP1 ISZERO PUSH3 0x119 JUMPI PUSH1 0x0 DUP1 REVERT JUMPDEST POP PUSH3 0x30A JUMP JUMPDEST DUP3 DUP1 SLOAD DUP3 DUP3 SSTORE SWAP1 PUSH1 0x0 MSTORE PUSH1 0x20 PUSH1 0x0 KECCAK256 SWAP1 DUP2 ADD SWAP3 DUP3 ISZERO PUSH3 0x174 JUMPI SWAP2 PUSH1 0x20 MUL DUP3 ADD JUMPDEST DUP3 DUP2 GT ISZERO PUSH3 0x173 JUMPI DUP3 MLOAD DUP3 SWAP1 DUP1 MLOAD SWAP1 PUSH1 0x20 ADD SWAP1 PUSH3 0x162 SWAP3 SWAP2 SWAP1 PUSH3 0x187 JUMP JUMPDEST POP SWAP2 PUSH1 0x20 ADD SWAP2 SWAP1 PUSH1 0x1 ADD SWAP1 PUSH3 0x141 JUMP JUMPDEST JUMPDEST POP SWAP1 POP PUSH3 0x183 SWAP2 SWAP1 PUSH3 0x218 JUMP JUMPDEST POP SWAP1 JUMP JUMPDEST DUP3 DUP1 SLOAD PUSH3 0x195 SWAP1 PUSH3 0x2A5 JUMP JUMPDEST SWAP1 PUSH1 0x0 MSTORE PUSH1 0x20 PUSH1 0x0 KECCAK256 SWAP1 PUSH1 0x1F ADD PUSH1 0x20 SWAP1 DIV DUP2 ADD SWAP3 DUP3 PUSH3 0x1B9 JUMPI PUSH1 0x0 DUP6 SSTORE PUSH3 0x205 JUMP JUMPDEST DUP3 PUSH1 0x1F LT PUSH3 0x1D4 JUMPI DUP1 MLOAD PUSH1 0xFF NOT AND DUP4 DUP1 ADD OR DUP6 SSTORE PUSH3 0x205 JUMP JUMPDEST DUP3 DUP1 ADD PUSH1 0x1 ADD DUP6 SSTORE DUP3 ISZERO PUSH3 0x205 JUMPI SWAP2 DUP3 ADD JUMPDEST DUP3 DUP2 GT ISZERO PUSH3 0x204 JUMPI DUP3 MLOAD DUP3 SSTORE SWAP2 PUSH1 0x20 ADD SWAP2 SWAP1 PUSH1 0x1 ADD SWAP1 PUSH3 0x1E7 JUMP JUMPDEST JUMPDEST POP SWAP1 POP PUSH3 0x214 SWAP2 SWAP1 PUSH3 0x240 JUMP JUMPDEST POP SWAP1 JUMP JUMPDEST JUMPDEST DUP1 DUP3 GT ISZERO PUSH3 0x23C JUMPI PUSH1 0x0 DUP2 DUP2 PUSH3 0x232 SWAP2 SWAP1 PUSH3 0x25F JUMP JUMPDEST POP PUSH1 0x1 ADD PUSH3 0x219 JUMP JUMPDEST POP SWAP1 JUMP JUMPDEST JUMPDEST DUP1 DUP3 GT ISZERO PUSH3 0x25B JUMPI PUSH1 0x0 DUP2 PUSH1 0x0 SWAP1 SSTORE POP PUSH1 0x1 ADD PUSH3 0x241 JUMP JUMPDEST POP SWAP1 JUMP JUMPDEST POP DUP1 SLOAD PUSH3 0x26D SWAP1 PUSH3 0x2A5 JUMP JUMPDEST PUSH1 0x0 DUP3 SSTORE DUP1 PUSH1 0x1F LT PUSH3 0x281 JUMPI POP PUSH3 0x2A2 JUMP JUMPDEST PUSH1 0x1F ADD PUSH1 0x20 SWAP1 DIV SWAP1 PUSH1 0x0 MSTORE PUSH1 0x20 PUSH1 0x0 KECCAK256 SWAP1 DUP2 ADD SWAP1 PUSH3 0x2A1 SWAP2 SWAP1 PUSH3 0x240 JUMP JUMPDEST JUMPDEST POP JUMP JUMPDEST PUSH1 0x0 PUSH1 0x2 DUP3 DIV SWAP1 POP PUSH1 0x1 DUP3 AND DUP1 PUSH3 0x2BE JUMPI PUSH1 0x7F DUP3 AND SWAP2 POP JUMPDEST PUSH1 0x20 DUP3 LT DUP2 EQ ISZERO PUSH3 0x2D5 JUMPI PUSH3 0x2D4 PUSH3 0x2DB JUMP JUMPDEST JUMPDEST POP SWAP2 SWAP1 POP JUMP JUMPDEST PUSH32 0x4E487B7100000000000000000000000000000000000000000000000000000000 PUSH1 0x0 MSTORE PUSH1 0x22 PUSH1 0x4 MSTORE PUSH1 0x24 PUSH1 0x0 REVERT JUMPDEST PUSH2 0x916 DUP1 PUSH3 0x31A PUSH1 0x0 CODECOPY PUSH1 0x0 RETURN INVALID PUSH1 0x80 PUSH1 0x40 MSTORE CALLVALUE DUP1 ISZERO PUSH2 0x10 JUMPI PUSH1 0x0 DUP1 REVERT JUMPDEST POP PUSH1 0x4 CALLDATASIZE LT PUSH2 0x41 JUMPI PUSH1 0x0 CALLDATALOAD PUSH1 0xE0 SHR DUP1 PUSH4 0x314FD68F EQ PUSH2 0x46 JUMPI DUP1 PUSH4 0x9E5F0349 EQ PUSH2 0x76 JUMPI DUP1 PUSH4 0xD59D2A58 EQ PUSH2 0xA6 JUMPI JUMPDEST PUSH1 0x0 DUP1 REVERT JUMPDEST PUSH2 0x60 PUSH1 0x4 DUP1 CALLDATASIZE SUB DUP2 ADD SWAP1 PUSH2 0x5B SWAP2 SWAP1 PUSH2 0x553 JUMP JUMPDEST PUSH2 0xC2 JUMP JUMPDEST PUSH1 0x40 MLOAD PUSH2 0x6D SWAP2 SWAP1 PUSH2 0x658 JUMP JUMPDEST PUSH1 0x40 MLOAD DUP1 SWAP2 SUB SWAP1 RETURN JUMPDEST PUSH2 0x90 PUSH1 0x4 DUP1 CALLDATASIZE SUB DUP2 ADD SWAP1 PUSH2 0x8B SWAP2 SWAP1 PUSH2 0x553 JUMP JUMPDEST PUSH2 0x16E JUMP JUMPDEST PUSH1 0x40 MLOAD PUSH2 0x9D SWAP2 SWAP1 PUSH2 0x67A JUMP JUMPDEST PUSH1 0x40 MLOAD DUP1 SWAP2 SUB SWAP1 RETURN JUMPDEST PUSH2 0xC0 PUSH1 0x4 DUP1 CALLDATASIZE SUB DUP2 ADD SWAP1 PUSH2 0xBB SWAP2 SWAP1 PUSH2 0x4E4 JUMP JUMPDEST PUSH2 0x315 JUMP JUMPDEST STOP JUMPDEST PUSH1 0x1 DUP2 DUP2 SLOAD DUP2 LT PUSH2 0xD2 JUMPI PUSH1 0x0 DUP1 REVERT JUMPDEST SWAP1 PUSH1 0x0 MSTORE PUSH1 0x20 PUSH1 0x0 KECCAK256 ADD PUSH1 0x0 SWAP2 POP SWAP1 POP DUP1 SLOAD PUSH2 0xED SWAP1 PUSH2 0x79D JUMP JUMPDEST DUP1 PUSH1 0x1F ADD PUSH1 0x20 DUP1 SWAP2 DIV MUL PUSH1 0x20 ADD PUSH1 0x40 MLOAD SWAP1 DUP2 ADD PUSH1 0x40 MSTORE DUP1 SWAP3 SWAP2 SWAP1 DUP2 DUP2 MSTORE PUSH1 0x20 ADD DUP3 DUP1 SLOAD PUSH2 0x119 SWAP1 PUSH2 0x79D JUMP JUMPDEST DUP1 ISZERO PUSH2 0x166 JUMPI DUP1 PUSH1 0x1F LT PUSH2 0x13B JUMPI PUSH2 0x100 DUP1 DUP4 SLOAD DIV MUL DUP4 MSTORE SWAP2 PUSH1 0x20 ADD SWAP2 PUSH2 0x166 JUMP JUMPDEST DUP3 ADD SWAP2 SWAP1 PUSH1 0x0 MSTORE PUSH1 0x20 PUSH1 0x0 KECCAK256 SWAP1 JUMPDEST DUP2 SLOAD DUP2 MSTORE SWAP1 PUSH1 0x1 ADD SWAP1 PUSH1 0x20 ADD DUP1 DUP4 GT PUSH2 0x149 JUMPI DUP3 SWAP1 SUB PUSH1 0x1F AND DUP3 ADD SWAP2 JUMPDEST POP POP POP POP POP DUP2 JUMP JUMPDEST PUSH2 0x176 PUSH2 0x413 JUMP JUMPDEST PUSH1 0x2 PUSH1 0x0 DUP4 DUP2 MSTORE PUSH1 0x20 ADD SWAP1 DUP2 MSTORE PUSH1 0x20 ADD PUSH1 0x0 KECCAK256 PUSH1 0x40 MLOAD DUP1 PUSH1 0x60 ADD PUSH1 0x40 MSTORE SWAP1 DUP2 PUSH1 0x0 DUP3 ADD DUP1 SLOAD PUSH2 0x1A4 SWAP1 PUSH2 0x79D JUMP JUMPDEST DUP1 PUSH1 0x1F ADD PUSH1 0x20 DUP1 SWAP2 DIV MUL PUSH1 0x20 ADD PUSH1 0x40 MLOAD SWAP1 DUP2 ADD PUSH1 0x40 MSTORE DUP1 SWAP3 SWAP2 SWAP1 DUP2 DUP2 MSTORE PUSH1 0x20 ADD DUP3 DUP1 SLOAD PUSH2 0x1D0 SWAP1 PUSH2 0x79D JUMP JUMPDEST DUP1 ISZERO PUSH2 0x21D JUMPI DUP1 PUSH1 0x1F LT PUSH2 0x1F2 JUMPI PUSH2 0x100 DUP1 DUP4 SLOAD DIV MUL DUP4 MSTORE SWAP2 PUSH1 0x20 ADD SWAP2 PUSH2 0x21D JUMP JUMPDEST DUP3 ADD SWAP2 SWAP1 PUSH1 0x0 MSTORE PUSH1 0x20 PUSH1 0x0 KECCAK256 SWAP1 JUMPDEST DUP2 SLOAD DUP2 MSTORE SWAP1 PUSH1 0x1 ADD SWAP1 PUSH1 0x20 ADD DUP1 DUP4 GT PUSH2 0x200 JUMPI DUP3 SWAP1 SUB PUSH1 0x1F AND DUP3 ADD SWAP2 JUMPDEST POP POP POP POP POP DUP2 MSTORE PUSH1 0x20 ADD PUSH1 0x1 DUP3 ADD PUSH1 0x0 SWAP1 SLOAD SWAP1 PUSH2 0x100 EXP SWAP1 DIV PUSH20 0xFFFFFFFFFFFFFFFFFFFFFFFFFFFFFFFFFFFFFFFF AND PUSH20 0xFFFFFFFFFFFFFFFFFFFFFFFFFFFFFFFFFFFFFFFF AND PUSH20 0xFFFFFFFFFFFFFFFFFFFFFFFFFFFFFFFFFFFFFFFF AND DUP2 MSTORE PUSH1 0x20 ADD PUSH1 0x2 DUP3 ADD DUP1 SLOAD PUSH2 0x28C SWAP1 PUSH2 0x79D JUMP JUMPDEST DUP1 PUSH1 0x1F ADD PUSH1 0x20 DUP1 SWAP2 DIV MUL PUSH1 0x20 ADD PUSH1 0x40 MLOAD SWAP1 DUP2 ADD PUSH1 0x40 MSTORE DUP1 SWAP3 SWAP2 SWAP1 DUP2 DUP2 MSTORE PUSH1 0x20 ADD DUP3 DUP1 SLOAD PUSH2 0x2B8 SWAP1 PUSH2 0x79D JUMP JUMPDEST DUP1 ISZERO PUSH2 0x305 JUMPI DUP1 PUSH1 0x1F LT PUSH2 0x2DA JUMPI PUSH2 0x100 DUP1 DUP4 SLOAD DIV MUL DUP4 MSTORE SWAP2 PUSH1 0x20 ADD SWAP2 PUSH2 0x305 JUMP JUMPDEST DUP3 ADD SWAP2 SWAP1 PUSH1 0x0 MSTORE PUSH1 0x20 PUSH1 0x0 KECCAK256 SWAP1 JUMPDEST DUP2 SLOAD DUP2 MSTORE SWAP1 PUSH1 0x1 ADD SWAP1 PUSH1 0x20 ADD DUP1 DUP4 GT PUSH2 0x2E8 JUMPI DUP3 SWAP1 SUB PUSH1 0x1F AND DUP3 ADD SWAP2 JUMPDEST POP POP POP POP POP DUP2 MSTORE POP POP SWAP1 POP SWAP2 SWAP1 POP JUMP JUMPDEST PUSH2 0x31D PUSH2 0x413 JUMP JUMPDEST DUP4 DUP2 PUSH1 0x0 ADD DUP2 SWAP1 MSTORE POP DUP3 DUP2 PUSH1 0x20 ADD SWAP1 PUSH20 0xFFFFFFFFFFFFFFFFFFFFFFFFFFFFFFFFFFFFFFFF AND SWAP1 DUP2 PUSH20 0xFFFFFFFFFFFFFFFFFFFFFFFFFFFFFFFFFFFFFFFF AND DUP2 MSTORE POP POP PUSH1 0x1 DUP3 DUP2 SLOAD DUP2 LT PUSH2 0x372 JUMPI PUSH2 0x371 PUSH2 0x82F JUMP JUMPDEST JUMPDEST SWAP1 PUSH1 0x0 MSTORE PUSH1 0x20 PUSH1 0x0 KECCAK256 ADD DUP1 SLOAD PUSH2 0x387 SWAP1 PUSH2 0x79D JUMP JUMPDEST DUP1 PUSH1 0x1F ADD PUSH1 0x20 DUP1 SWAP2 DIV MUL PUSH1 0x20 ADD PUSH1 0x40 MLOAD SWAP1 DUP2 ADD PUSH1 0x40 MSTORE DUP1 SWAP3 SWAP2 SWAP1 DUP2 DUP2 MSTORE PUSH1 0x20 ADD DUP3 DUP1 SLOAD PUSH2 0x3B3 SWAP1 PUSH2 0x79D JUMP JUMPDEST DUP1 ISZERO PUSH2 0x400 JUMPI DUP1 PUSH1 0x1F LT PUSH2 0x3D5 JUMPI PUSH2 0x100 DUP1 DUP4 SLOAD DIV MUL DUP4 MSTORE SWAP2 PUSH1 0x20 ADD SWAP2 PUSH2 0x400 JUMP JUMPDEST DUP3 ADD SWAP2 SWAP1 PUSH1 0x0 MSTORE PUSH1 0x20 PUSH1 0x0 KECCAK256 SWAP1 JUMPDEST DUP2 SLOAD DUP2 MSTORE SWAP1 PUSH1 0x1 ADD SWAP1 PUSH1 0x20 ADD DUP1 DUP4 GT PUSH2 0x3E3 JUMPI DUP3 SWAP1 SUB PUSH1 0x1F AND DUP3 ADD SWAP2 JUMPDEST POP POP POP POP POP DUP2 PUSH1 0x40 ADD DUP2 SWAP1 MSTORE POP POP POP POP POP JUMP JUMPDEST PUSH1 0x40 MLOAD DUP1 PUSH1 0x60 ADD PUSH1 0x40 MSTORE DUP1 PUSH1 0x60 DUP2 MSTORE PUSH1 0x20 ADD PUSH1 0x0 PUSH20 0xFFFFFFFFFFFFFFFFFFFFFFFFFFFFFFFFFFFFFFFF AND DUP2 MSTORE PUSH1 0x20 ADD PUSH1 0x60 DUP2 MSTORE POP SWAP1 JUMP JUMPDEST PUSH1 0x0 PUSH2 0x45D PUSH2 0x458 DUP5 PUSH2 0x6C1 JUMP JUMPDEST PUSH2 0x69C JUMP JUMPDEST SWAP1 POP DUP3 DUP2 MSTORE PUSH1 0x20 DUP2 ADD DUP5 DUP5 DUP5 ADD GT ISZERO PUSH2 0x479 JUMPI PUSH2 0x478 PUSH2 0x892 JUMP JUMPDEST JUMPDEST PUSH2 0x484 DUP5 DUP3 DUP6 PUSH2 0x75B JUMP JUMPDEST POP SWAP4 SWAP3 POP POP POP JUMP JUMPDEST PUSH1 0x0 DUP2 CALLDATALOAD SWAP1 POP PUSH2 0x49B DUP2 PUSH2 0x8B2 JUMP JUMPDEST SWAP3 SWAP2 POP POP JUMP JUMPDEST PUSH1 0x0 DUP3 PUSH1 0x1F DUP4 ADD SLT PUSH2 0x4B6 JUMPI PUSH2 0x4B5 PUSH2 0x88D JUMP JUMPDEST JUMPDEST DUP2 CALLDATALOAD PUSH2 0x4C6 DUP5 DUP3 PUSH1 0x20 DUP7 ADD PUSH2 0x44A JUMP JUMPDEST SWAP2 POP POP SWAP3 SWAP2 POP POP JUMP JUMPDEST PUSH1 0x0 DUP2 CALLDATALOAD SWAP1 POP PUSH2 0x4DE DUP2 PUSH2 0x8C9 JUMP JUMPDEST SWAP3 SWAP2 POP POP JUMP JUMPDEST PUSH1 0x0 DUP1 PUSH1 0x0 PUSH1 0x60 DUP5 DUP7 SUB SLT ISZERO PUSH2 0x4FD JUMPI PUSH2 0x4FC PUSH2 0x89C JUMP JUMPDEST JUMPDEST PUSH1 0x0 DUP5 ADD CALLDATALOAD PUSH8 0xFFFFFFFFFFFFFFFF DUP2 GT ISZERO PUSH2 0x51B JUMPI PUSH2 0x51A PUSH2 0x897 JUMP JUMPDEST JUMPDEST PUSH2 0x527 DUP7 DUP3 DUP8 ADD PUSH2 0x4A1 JUMP JUMPDEST SWAP4 POP POP PUSH1 0x20 PUSH2 0x538 DUP7 DUP3 DUP8 ADD PUSH2 0x48C JUMP JUMPDEST SWAP3 POP POP PUSH1 0x40 PUSH2 0x549 DUP7 DUP3 DUP8 ADD PUSH2 0x4CF JUMP JUMPDEST SWAP2 POP POP SWAP3 POP SWAP3 POP SWAP3 JUMP JUMPDEST PUSH1 0x0 PUSH1 0x20 DUP3 DUP5 SUB SLT ISZERO PUSH2 0x569 JUMPI PUSH2 0x568 PUSH2 0x89C JUMP JUMPDEST JUMPDEST PUSH1 0x0 PUSH2 0x577 DUP5 DUP3 DUP6 ADD PUSH2 0x4CF JUMP JUMPDEST SWAP2 POP POP SWAP3 SWAP2 POP POP JUMP JUMPDEST PUSH2 0x589 DUP2 PUSH2 0x71F JUMP JUMPDEST DUP3 MSTORE POP POP JUMP JUMPDEST PUSH1 0x0 PUSH2 0x59A DUP3 PUSH2 0x6F2 JUMP JUMPDEST PUSH2 0x5A4 DUP2 DUP6 PUSH2 0x6FD JUMP JUMPDEST SWAP4 POP PUSH2 0x5B4 DUP2 DUP6 PUSH1 0x20 DUP7 ADD PUSH2 0x76A JUMP JUMPDEST PUSH2 0x5BD DUP2 PUSH2 0x8A1 JUMP JUMPDEST DUP5 ADD SWAP2 POP POP SWAP3 SWAP2 POP POP JUMP JUMPDEST PUSH1 0x0 PUSH2 0x5D3 DUP3 PUSH2 0x6F2 JUMP JUMPDEST PUSH2 0x5DD DUP2 DUP6 PUSH2 0x70E JUMP JUMPDEST SWAP4 POP PUSH2 0x5ED DUP2 DUP6 PUSH1 0x20 DUP7 ADD PUSH2 0x76A JUMP JUMPDEST PUSH2 0x5F6 DUP2 PUSH2 0x8A1 JUMP JUMPDEST DUP5 ADD SWAP2 POP POP SWAP3 SWAP2 POP POP JUMP JUMPDEST PUSH1 0x0 PUSH1 0x60 DUP4 ADD PUSH1 0x0 DUP4 ADD MLOAD DUP5 DUP3 SUB PUSH1 0x0 DUP7 ADD MSTORE PUSH2 0x61E DUP3 DUP3 PUSH2 0x58F JUMP JUMPDEST SWAP2 POP POP PUSH1 0x20 DUP4 ADD MLOAD PUSH2 0x633 PUSH1 0x20 DUP7 ADD DUP3 PUSH2 0x580 JUMP JUMPDEST POP PUSH1 0x40 DUP4 ADD MLOAD DUP5 DUP3 SUB PUSH1 0x40 DUP7 ADD MSTORE PUSH2 0x64B DUP3 DUP3 PUSH2 0x58F JUMP JUMPDEST SWAP2 POP POP DUP1 SWAP2 POP POP SWAP3 SWAP2 POP POP JUMP JUMPDEST PUSH1 0x0 PUSH1 0x20 DUP3 ADD SWAP1 POP DUP2 DUP2 SUB PUSH1 0x0 DUP4 ADD MSTORE PUSH2 0x672 DUP2 DUP5 PUSH2 0x5C8 JUMP JUMPDEST SWAP1 POP SWAP3 SWAP2 POP POP JUMP JUMPDEST PUSH1 0x0 PUSH1 0x20 DUP3 ADD SWAP1 POP DUP2 DUP2 SUB PUSH1 0x0 DUP4 ADD MSTORE PUSH2 0x694 DUP2 DUP5 PUSH2 0x601 JUMP JUMPDEST SWAP1 POP SWAP3 SWAP2 POP POP JUMP JUMPDEST PUSH1 0x0 PUSH2 0x6A6 PUSH2 0x6B7 JUMP JUMPDEST SWAP1 POP PUSH2 0x6B2 DUP3 DUP3 PUSH2 0x7CF JUMP JUMPDEST SWAP2 SWAP1 POP JUMP JUMPDEST PUSH1 0x0 PUSH1 0x40 MLOAD SWAP1 POP SWAP1 JUMP JUMPDEST PUSH1 0x0 PUSH8 0xFFFFFFFFFFFFFFFF DUP3 GT ISZERO PUSH2 0x6DC JUMPI PUSH2 0x6DB PUSH2 0x85E JUMP JUMPDEST JUMPDEST PUSH2 0x6E5 DUP3 PUSH2 0x8A1 JUMP JUMPDEST SWAP1 POP PUSH1 0x20 DUP2 ADD SWAP1 POP SWAP2 SWAP1 POP JUMP JUMPDEST PUSH1 0x0 DUP2 MLOAD SWAP1 POP SWAP2 SWAP1 POP JUMP JUMPDEST PUSH1 0x0 DUP3 DUP3 MSTORE PUSH1 0x20 DUP3 ADD SWAP1 POP SWAP3 SWAP2 POP POP JUMP JUMPDEST PUSH1 0x0 DUP3 DUP3 MSTORE PUSH1 0x20 DUP3 ADD SWAP1 POP SWAP3 SWAP2 POP POP JUMP JUMPDEST PUSH1 0x0 PUSH2 0x72A DUP3 PUSH2 0x731 JUMP JUMPDEST SWAP1 POP SWAP2 SWAP1 POP JUMP JUMPDEST PUSH1 0x0 PUSH20 0xFFFFFFFFFFFFFFFFFFFFFFFFFFFFFFFFFFFFFFFF DUP3 AND SWAP1 POP SWAP2 SWAP1 POP JUMP JUMPDEST PUSH1 0x0 DUP2 SWAP1 POP SWAP2 SWAP1 POP JUMP JUMPDEST DUP3 DUP2 DUP4 CALLDATACOPY PUSH1 0x0 DUP4 DUP4 ADD MSTORE POP POP POP JUMP JUMPDEST PUSH1 0x0 JUMPDEST DUP4 DUP2 LT ISZERO PUSH2 0x788 JUMPI DUP1 DUP3 ADD MLOAD DUP2 DUP5 ADD MSTORE PUSH1 0x20 DUP2 ADD SWAP1 POP PUSH2 0x76D JUMP JUMPDEST DUP4 DUP2 GT ISZERO PUSH2 0x797 JUMPI PUSH1 0x0 DUP5 DUP5 ADD MSTORE JUMPDEST POP POP POP POP JUMP JUMPDEST PUSH1 0x0 PUSH1 0x2 DUP3 DIV SWAP1 POP PUSH1 0x1 DUP3 AND DUP1 PUSH2 0x7B5 JUMPI PUSH1 0x7F DUP3 AND SWAP2 POP JUMPDEST PUSH1 0x20 DUP3 LT DUP2 EQ ISZERO PUSH2 0x7C9 JUMPI PUSH2 0x7C8 PUSH2 0x800 JUMP JUMPDEST JUMPDEST POP SWAP2 SWAP1 POP JUMP JUMPDEST PUSH2 0x7D8 DUP3 PUSH2 0x8A1 JUMP JUMPDEST DUP2 ADD DUP2 DUP2 LT PUSH8 0xFFFFFFFFFFFFFFFF DUP3 GT OR ISZERO PUSH2 0x7F7 JUMPI PUSH2 0x7F6 PUSH2 0x85E JUMP JUMPDEST JUMPDEST DUP1 PUSH1 0x40 MSTORE POP POP POP JUMP JUMPDEST PUSH32 0x4E487B7100000000000000000000000000000000000000000000000000000000 PUSH1 0x0 MSTORE PUSH1 0x22 PUSH1 0x4 MSTORE PUSH1 0x24 PUSH1 0x0 REVERT JUMPDEST PUSH32 0x4E487B7100000000000000000000000000000000000000000000000000000000 PUSH1 0x0 MSTORE PUSH1 0x32 PUSH1 0x4 MSTORE PUSH1 0x24 PUSH1 0x0 REVERT JUMPDEST PUSH32 0x4E487B7100000000000000000000000000000000000000000000000000000000 PUSH1 0x0 MSTORE PUSH1 0x41 PUSH1 0x4 MSTORE PUSH1 0x24 PUSH1 0x0 REVERT JUMPDEST PUSH1 0x0 DUP1 REVERT JUMPDEST PUSH1 0x0 DUP1 REVERT JUMPDEST PUSH1 0x0 DUP1 REVERT JUMPDEST PUSH1 0x0 DUP1 REVERT JUMPDEST PUSH1 0x0 PUSH1 0x1F NOT PUSH1 0x1F DUP4 ADD AND SWAP1 POP SWAP2 SWAP1 POP JUMP JUMPDEST PUSH2 0x8BB DUP2 PUSH2 0x71F JUMP JUMPDEST DUP2 EQ PUSH2 0x8C6 JUMPI PUSH1 0x0 DUP1 REVERT JUMPDEST POP JUMP JUMPDEST PUSH2 0x8D2 DUP2 PUSH2 0x751 JUMP JUMPDEST DUP2 EQ PUSH2 0x8DD JUMPI PUSH1 0x0 DUP1 REVERT JUMPDEST POP JUMP INVALID LOG2 PUSH5 0x6970667358 0x22 SLT KECCAK256 0x5F 0xD1 0xDA 0x5D DUP9 0x28 SWAP12 0xD9 0xC4 RETURN 0x24 XOR MUL MSTORE SWAP5 0x26 PUSH31 0xD982748617F482B441C4D324C6E54C64736F6C634300080700330000000000 "
				},
				"gasEstimates": {
					"creation": {
						"codeDepositCost": "465200",
						"executionCost": "infinite",
						"totalCost": "infinite"
					},
					"external": {
						"createCandidate(string,address,uint256)": "infinite",
						"party(uint256)": "infinite",
						"retrieveCandidate(uint256)": "infinite"
					}
				},
				"methodIdentifiers": {
					"createCandidate(string,address,uint256)": "d59d2a58",
					"party(uint256)": "314fd68f",
					"retrieveCandidate(uint256)": "9e5f0349"
				}
			},
			"storageLayout": {
				"storage": [
					{
						"astId": 4,
						"contract": "contracts/Vote.sol:Vote",
						"label": "voteFee",
						"offset": 0,
						"slot": "0",
						"type": "t_uint256"
					},
					{
						"astId": 12,
						"contract": "contracts/Vote.sol:Vote",
						"label": "party",
						"offset": 0,
						"slot": "1",
						"type": "t_array(t_string_storage)dyn_storage"
					},
					{
						"astId": 24,
						"contract": "contracts/Vote.sol:Vote",
						"label": "Candidates",
						"offset": 0,
						"slot": "2",
						"type": "t_mapping(t_uint256,t_struct(candidate)19_storage)"
					}
				],
				"types": {
					"t_address": {
						"encoding": "inplace",
						"label": "address",
						"numberOfBytes": "20"
					},
					"t_array(t_string_storage)dyn_storage": {
						"base": "t_string_storage",
						"encoding": "dynamic_array",
						"label": "string[]",
						"numberOfBytes": "32"
					},
					"t_mapping(t_uint256,t_struct(candidate)19_storage)": {
						"encoding": "mapping",
						"key": "t_uint256",
						"label": "mapping(uint256 => struct Vote.candidate)",
						"numberOfBytes": "32",
						"value": "t_struct(candidate)19_storage"
					},
					"t_string_storage": {
						"encoding": "bytes",
						"label": "string",
						"numberOfBytes": "32"
					},
					"t_struct(candidate)19_storage": {
						"encoding": "inplace",
						"label": "struct Vote.candidate",
						"members": [
							{
								"astId": 14,
								"contract": "contracts/Vote.sol:Vote",
								"label": "name",
								"offset": 0,
								"slot": "0",
								"type": "t_string_storage"
							},
							{
								"astId": 16,
								"contract": "contracts/Vote.sol:Vote",
								"label": "addr",
								"offset": 0,
								"slot": "1",
								"type": "t_address"
							},
							{
								"astId": 18,
								"contract": "contracts/Vote.sol:Vote",
								"label": "party",
								"offset": 0,
								"slot": "2",
								"type": "t_string_storage"
							}
						],
						"numberOfBytes": "96"
					},
					"t_uint256": {
						"encoding": "inplace",
						"label": "uint256",
						"numberOfBytes": "32"
					}
				}
			},
			"userdoc": {
				"kind": "user",
				"methods": {},
				"version": 1
			}
		}
	}
}