{
	"contracts/Vote.sol": {
		"Vote": {
			"abi": [
				{
					"inputs": [],
					"stateMutability": "nonpayable",
					"type": "constructor"
				},
				{
					"anonymous": false,
					"inputs": [
						{
							"indexed": true,
							"internalType": "address",
							"name": "previousOwner",
							"type": "address"
						},
						{
							"indexed": true,
							"internalType": "address",
							"name": "newOwner",
							"type": "address"
						}
					],
					"name": "OwnershipTransferred",
					"type": "event"
				},
				{
					"anonymous": false,
					"inputs": [
						{
							"indexed": true,
							"internalType": "bytes32",
							"name": "role",
							"type": "bytes32"
						},
						{
							"indexed": true,
							"internalType": "bytes32",
							"name": "previousAdminRole",
							"type": "bytes32"
						},
						{
							"indexed": true,
							"internalType": "bytes32",
							"name": "newAdminRole",
							"type": "bytes32"
						}
					],
					"name": "RoleAdminChanged",
					"type": "event"
				},
				{
					"anonymous": false,
					"inputs": [
						{
							"indexed": true,
							"internalType": "bytes32",
							"name": "role",
							"type": "bytes32"
						},
						{
							"indexed": true,
							"internalType": "address",
							"name": "account",
							"type": "address"
						},
						{
							"indexed": true,
							"internalType": "address",
							"name": "sender",
							"type": "address"
						}
					],
					"name": "RoleGranted",
					"type": "event"
				},
				{
					"anonymous": false,
					"inputs": [
						{
							"indexed": true,
							"internalType": "bytes32",
							"name": "role",
							"type": "bytes32"
						},
						{
							"indexed": true,
							"internalType": "address",
							"name": "account",
							"type": "address"
						},
						{
							"indexed": true,
							"internalType": "address",
							"name": "sender",
							"type": "address"
						}
					],
					"name": "RoleRevoked",
					"type": "event"
				},
				{
					"inputs": [
						{
							"internalType": "uint256",
							"name": "",
							"type": "uint256"
						}
					],
					"name": "Candidates",
					"outputs": [
						{
							"internalType": "string",
							"name": "name",
							"type": "string"
						},
						{
							"internalType": "address",
							"name": "addr",
							"type": "address"
						},
						{
							"internalType": "string",
							"name": "party",
							"type": "string"
						}
					],
					"stateMutability": "view",
					"type": "function"
				},
				{
					"inputs": [],
					"name": "DEFAULT_ADMIN_ROLE",
					"outputs": [
						{
							"internalType": "bytes32",
							"name": "",
							"type": "bytes32"
						}
					],
					"stateMutability": "view",
					"type": "function"
				},
				{
					"inputs": [
						{
							"internalType": "uint256",
							"name": "",
							"type": "uint256"
						}
					],
					"name": "Elections",
					"outputs": [
						{
							"internalType": "uint256",
							"name": "start",
							"type": "uint256"
						},
						{
							"internalType": "uint256",
							"name": "duration",
							"type": "uint256"
						},
						{
							"internalType": "bool",
							"name": "hasEnded",
							"type": "bool"
						}
					],
					"stateMutability": "view",
					"type": "function"
				},
				{
					"inputs": [],
					"name": "INEC_EXEC_ROLE",
					"outputs": [
						{
							"internalType": "bytes32",
							"name": "",
							"type": "bytes32"
						}
					],
					"stateMutability": "view",
					"type": "function"
				},
				{
					"inputs": [],
					"name": "VOTER_ROLE",
					"outputs": [
						{
							"internalType": "bytes32",
							"name": "",
							"type": "bytes32"
						}
					],
					"stateMutability": "view",
					"type": "function"
				},
				{
					"inputs": [
						{
							"internalType": "uint256",
							"name": "",
							"type": "uint256"
						}
					],
					"name": "Voters",
					"outputs": [
						{
							"internalType": "address",
							"name": "addr",
							"type": "address"
						},
						{
							"internalType": "uint256",
							"name": "nin",
							"type": "uint256"
						},
						{
							"internalType": "uint256",
							"name": "partyNum",
							"type": "uint256"
						},
						{
							"internalType": "bool",
							"name": "hasVoted",
							"type": "bool"
						}
					],
					"stateMutability": "view",
					"type": "function"
				},
				{
					"inputs": [
						{
							"internalType": "string",
							"name": "name",
							"type": "string"
						},
						{
							"internalType": "address",
							"name": "candAddress",
							"type": "address"
						},
						{
							"internalType": "uint256",
							"name": "partyNum",
							"type": "uint256"
						}
					],
					"name": "createCandidate",
					"outputs": [],
					"stateMutability": "nonpayable",
					"type": "function"
				},
				{
					"inputs": [
						{
							"internalType": "address[]",
							"name": "_candidateNum",
							"type": "address[]"
						},
						{
							"internalType": "uint256",
							"name": "_date",
							"type": "uint256"
						},
						{
							"internalType": "uint256",
							"name": "_duration",
							"type": "uint256"
						}
					],
					"name": "createElection",
					"outputs": [],
					"stateMutability": "nonpayable",
					"type": "function"
				},
				{
					"inputs": [
						{
							"internalType": "address",
							"name": "_account",
							"type": "address"
						}
					],
					"name": "createInecExec",
					"outputs": [],
					"stateMutability": "nonpayable",
					"type": "function"
				},
				{
					"inputs": [
						{
							"internalType": "bytes32",
							"name": "role",
							"type": "bytes32"
						}
					],
					"name": "getRoleAdmin",
					"outputs": [
						{
							"internalType": "bytes32",
							"name": "",
							"type": "bytes32"
						}
					],
					"stateMutability": "view",
					"type": "function"
				},
				{
					"inputs": [
						{
							"internalType": "bytes32",
							"name": "role",
							"type": "bytes32"
						},
						{
							"internalType": "address",
							"name": "account",
							"type": "address"
						}
					],
					"name": "grantRole",
					"outputs": [],
					"stateMutability": "nonpayable",
					"type": "function"
				},
				{
					"inputs": [
						{
							"internalType": "bytes32",
							"name": "role",
							"type": "bytes32"
						},
						{
							"internalType": "address",
							"name": "account",
							"type": "address"
						}
					],
					"name": "hasRole",
					"outputs": [
						{
							"internalType": "bool",
							"name": "",
							"type": "bool"
						}
					],
					"stateMutability": "view",
					"type": "function"
				},
				{
					"inputs": [],
					"name": "owner",
					"outputs": [
						{
							"internalType": "address",
							"name": "",
							"type": "address"
						}
					],
					"stateMutability": "view",
					"type": "function"
				},
				{
					"inputs": [
						{
							"internalType": "uint256",
							"name": "",
							"type": "uint256"
						}
					],
					"name": "party",
					"outputs": [
						{
							"internalType": "string",
							"name": "",
							"type": "string"
						}
					],
					"stateMutability": "view",
					"type": "function"
				},
				{
					"inputs": [
						{
							"internalType": "address",
							"name": "_account",
							"type": "address"
						},
						{
							"internalType": "uint256",
							"name": "_nin",
							"type": "uint256"
						}
					],
					"name": "regVoter",
					"outputs": [],
					"stateMutability": "nonpayable",
					"type": "function"
				},
				{
					"inputs": [],
					"name": "renounceOwnership",
					"outputs": [],
					"stateMutability": "nonpayable",
					"type": "function"
				},
				{
					"inputs": [
						{
							"internalType": "bytes32",
							"name": "role",
							"type": "bytes32"
						},
						{
							"internalType": "address",
							"name": "account",
							"type": "address"
						}
					],
					"name": "renounceRole",
					"outputs": [],
					"stateMutability": "nonpayable",
					"type": "function"
				},
				{
					"inputs": [
						{
							"internalType": "uint256",
							"name": "num",
							"type": "uint256"
						}
					],
					"name": "retrieveCandidate",
					"outputs": [
						{
							"components": [
								{
									"internalType": "string",
									"name": "name",
									"type": "string"
								},
								{
									"internalType": "address",
									"name": "addr",
									"type": "address"
								},
								{
									"internalType": "string",
									"name": "party",
									"type": "string"
								}
							],
							"internalType": "struct Vote.candidate",
							"name": "",
							"type": "tuple"
						}
					],
					"stateMutability": "view",
					"type": "function"
				},
				{
					"inputs": [
						{
							"internalType": "bytes32",
							"name": "role",
							"type": "bytes32"
						},
						{
							"internalType": "address",
							"name": "account",
							"type": "address"
						}
					],
					"name": "revokeRole",
					"outputs": [],
					"stateMutability": "nonpayable",
					"type": "function"
				},
				{
					"inputs": [
						{
							"internalType": "bytes4",
							"name": "interfaceId",
							"type": "bytes4"
						}
					],
					"name": "supportsInterface",
					"outputs": [
						{
							"internalType": "bool",
							"name": "",
							"type": "bool"
						}
					],
					"stateMutability": "view",
					"type": "function"
				},
				{
					"inputs": [
						{
							"internalType": "address",
							"name": "newOwner",
							"type": "address"
						}
					],
					"name": "transferOwnership",
					"outputs": [],
					"stateMutability": "nonpayable",
					"type": "function"
				}
			],
			"devdoc": {
				"custom:dev-run-script": "./scripts/deploy_with_ethers.ts",
				"details": "Store & retrieve value in a variable",
				"kind": "dev",
				"methods": {
					"createCandidate(string,address,uint256)": {
						"details": "Store value in variable",
						"params": {
							"candAddress": "value for candidate Address",
							"name": "value for candidate name",
							"partyNum": "value for candidate party"
						}
					},
					"createElection(address[],uint256,uint256)": {
						"details": "registers a voter",
						"params": {
							"_candidateNum": "is an arrat of candidates, _nin is the voters identifier'"
						}
					},
					"createInecExec(address)": {
						"details": "Grant INEC executive role to an address ",
						"params": {
							"_account": "value for the role'"
						}
					},
					"getRoleAdmin(bytes32)": {
						"details": "Returns the admin role that controls `role`. See {grantRole} and {revokeRole}. To change a role's admin, use {_setRoleAdmin}."
					},
					"grantRole(bytes32,address)": {
						"details": "Grants `role` to `account`. If `account` had not been already granted `role`, emits a {RoleGranted} event. Requirements: - the caller must have ``role``'s admin role. May emit a {RoleGranted} event."
					},
					"hasRole(bytes32,address)": {
						"details": "Returns `true` if `account` has been granted `role`."
					},
					"owner()": {
						"details": "Returns the address of the current owner."
					},
					"regVoter(address,uint256)": {
						"details": "registers a voter",
						"params": {
							"_account": "address of voter, _nin is the voters identifier'"
						}
					},
					"renounceOwnership()": {
						"details": "Leaves the contract without owner. It will not be possible to call `onlyOwner` functions anymore. Can only be called by the current owner. NOTE: Renouncing ownership will leave the contract without an owner, thereby removing any functionality that is only available to the owner."
					},
					"renounceRole(bytes32,address)": {
						"details": "Revokes `role` from the calling account. Roles are often managed via {grantRole} and {revokeRole}: this function's purpose is to provide a mechanism for accounts to lose their privileges if they are compromised (such as when a trusted device is misplaced). If the calling account had been revoked `role`, emits a {RoleRevoked} event. Requirements: - the caller must be `account`. May emit a {RoleRevoked} event."
					},
					"retrieveCandidate(uint256)": {
						"details": "Return value ",
						"returns": {
							"_0": "value of 'struct'"
						}
					},
					"revokeRole(bytes32,address)": {
						"details": "Revokes `role` from `account`. If `account` had been granted `role`, emits a {RoleRevoked} event. Requirements: - the caller must have ``role``'s admin role. May emit a {RoleRevoked} event."
					},
					"supportsInterface(bytes4)": {
						"details": "See {IERC165-supportsInterface}."
					},
					"transferOwnership(address)": {
						"details": "Transfers ownership of the contract to a new account (`newOwner`). Can only be called by the current owner."
					}
				},
				"title": "Storage",
				"version": 1
			},
			"evm": {
				"assembly": "    /* \"contracts/Vote.sol\":311:3659  contract Vote is Ownable, AccessControl {... */\n  mstore(0x40, 0x80)\n    /* \"contracts/Vote.sol\":457:510  string [] public party = [\"APC\", \"PDP\", \"LP\", \"NNPP\"] */\n  mload(0x40)\n  dup1\n  0x80\n  add\n  0x40\n  mstore\n  dup1\n  mload(0x40)\n  dup1\n  0x40\n  add\n  0x40\n  mstore\n  dup1\n  0x03\n  dup2\n  mstore\n  0x20\n  add\n  0x4150430000000000000000000000000000000000000000000000000000000000\n  dup2\n  mstore\n  pop\n  dup2\n  mstore\n  0x20\n  add\n  mload(0x40)\n  dup1\n  0x40\n  add\n  0x40\n  mstore\n  dup1\n  0x03\n  dup2\n  mstore\n  0x20\n  add\n  0x5044500000000000000000000000000000000000000000000000000000000000\n  dup2\n  mstore\n  pop\n  dup2\n  mstore\n  0x20\n  add\n  mload(0x40)\n  dup1\n  0x40\n  add\n  0x40\n  mstore\n  dup1\n  0x02\n  dup2\n  mstore\n  0x20\n  add\n  0x4c50000000000000000000000000000000000000000000000000000000000000\n  dup2\n  mstore\n  pop\n  dup2\n  mstore\n  0x20\n  add\n  mload(0x40)\n  dup1\n  0x40\n  add\n  0x40\n  mstore\n  dup1\n  0x04\n  dup2\n  mstore\n  0x20\n  add\n  0x4e4e505000000000000000000000000000000000000000000000000000000000\n  dup2\n  mstore\n  pop\n  dup2\n  mstore\n  pop\n  0x06\n  swap1\n  0x04\n  tag_1\n  swap3\n  swap2\n  swap1\n  tag_2\n  jump\t// in\ntag_1:\n  pop\n    /* \"contracts/Vote.sol\":1631:1824  constructor() {... */\n  callvalue\n  dup1\n  iszero\n  tag_3\n  jumpi\n  0x00\n  dup1\n  revert\ntag_3:\n  pop\n    /* \"@openzeppelin/contracts/access/Ownable.sol\":936:968  _transferOwnership(_msgSender()) */\n  tag_7\n    /* \"@openzeppelin/contracts/access/Ownable.sol\":955:967  _msgSender() */\n  tag_8\n    /* \"@openzeppelin/contracts/access/Ownable.sol\":955:965  _msgSender */\n  shl(0x20, tag_9)\n    /* \"@openzeppelin/contracts/access/Ownable.sol\":955:967  _msgSender() */\n  0x20\n  shr\n  jump\t// in\ntag_8:\n    /* \"@openzeppelin/contracts/access/Ownable.sol\":936:954  _transferOwnership */\n  shl(0x20, tag_10)\n    /* \"@openzeppelin/contracts/access/Ownable.sol\":936:968  _transferOwnership(_msgSender()) */\n  0x20\n  shr\n  jump\t// in\ntag_7:\n    /* \"contracts/Vote.sol\":1775:1817  _setupRole(DEFAULT_ADMIN_ROLE, msg.sender) */\n  tag_12\n    /* \"@openzeppelin/contracts/access/AccessControl.sol\":2072:2076  0x00 */\n  0x00\n    /* \"contracts/Vote.sol\":1786:1804  DEFAULT_ADMIN_ROLE */\n  dup1\n  shl\n    /* \"contracts/Vote.sol\":1806:1816  msg.sender */\n  caller\n    /* \"contracts/Vote.sol\":1775:1785  _setupRole */\n  shl(0x20, tag_13)\n    /* \"contracts/Vote.sol\":1775:1817  _setupRole(DEFAULT_ADMIN_ROLE, msg.sender) */\n  0x20\n  shr\n  jump\t// in\ntag_12:\n    /* \"contracts/Vote.sol\":311:3659  contract Vote is Ownable, AccessControl {... */\n  jump(tag_14)\n    /* \"@openzeppelin/contracts/utils/Context.sol\":640:736  function _msgSender() internal view virtual returns (address) {... */\ntag_9:\n    /* \"@openzeppelin/contracts/utils/Context.sol\":693:700  address */\n  0x00\n    /* \"@openzeppelin/contracts/utils/Context.sol\":719:729  msg.sender */\n  caller\n    /* \"@openzeppelin/contracts/utils/Context.sol\":712:729  return msg.sender */\n  swap1\n  pop\n    /* \"@openzeppelin/contracts/utils/Context.sol\":640:736  function _msgSender() internal view virtual returns (address) {... */\n  swap1\n  jump\t// out\n    /* \"@openzeppelin/contracts/access/Ownable.sol\":2433:2620  function _transferOwnership(address newOwner) internal virtual {... */\ntag_10:\n    /* \"@openzeppelin/contracts/access/Ownable.sol\":2506:2522  address oldOwner */\n  0x00\n    /* \"@openzeppelin/contracts/access/Ownable.sol\":2525:2531  _owner */\n  dup1\n  0x00\n  swap1\n  sload\n  swap1\n  0x0100\n  exp\n  swap1\n  div\n  0xffffffffffffffffffffffffffffffffffffffff\n  and\n    /* \"@openzeppelin/contracts/access/Ownable.sol\":2506:2531  address oldOwner = _owner */\n  swap1\n  pop\n    /* \"@openzeppelin/contracts/access/Ownable.sol\":2550:2558  newOwner */\n  dup2\n    /* \"@openzeppelin/contracts/access/Ownable.sol\":2541:2547  _owner */\n  0x00\n  dup1\n    /* \"@openzeppelin/contracts/access/Ownable.sol\":2541:2558  _owner = newOwner */\n  0x0100\n  exp\n  dup2\n  sload\n  dup2\n  0xffffffffffffffffffffffffffffffffffffffff\n  mul\n  not\n  and\n  swap1\n  dup4\n  0xffffffffffffffffffffffffffffffffffffffff\n  and\n  mul\n  or\n  swap1\n  sstore\n  pop\n    /* \"@openzeppelin/contracts/access/Ownable.sol\":2604:2612  newOwner */\n  dup2\n    /* \"@openzeppelin/contracts/access/Ownable.sol\":2573:2613  OwnershipTransferred(oldOwner, newOwner) */\n  0xffffffffffffffffffffffffffffffffffffffff\n  and\n    /* \"@openzeppelin/contracts/access/Ownable.sol\":2594:2602  oldOwner */\n  dup2\n    /* \"@openzeppelin/contracts/access/Ownable.sol\":2573:2613  OwnershipTransferred(oldOwner, newOwner) */\n  0xffffffffffffffffffffffffffffffffffffffff\n  and\n  0x8be0079c531659141344cd1fd0a4f28419497f9722a3daafe3b4186f6b6457e0\n  mload(0x40)\n  mload(0x40)\n  dup1\n  swap2\n  sub\n  swap1\n  log3\n    /* \"@openzeppelin/contracts/access/Ownable.sol\":2496:2620  {... */\n  pop\n    /* \"@openzeppelin/contracts/access/Ownable.sol\":2433:2620  function _transferOwnership(address newOwner) internal virtual {... */\n  pop\n  jump\t// out\n    /* \"@openzeppelin/contracts/access/AccessControl.sol\":6824:6934  function _setupRole(bytes32 role, address account) internal virtual {... */\ntag_13:\n    /* \"@openzeppelin/contracts/access/AccessControl.sol\":6902:6927  _grantRole(role, account) */\n  tag_18\n    /* \"@openzeppelin/contracts/access/AccessControl.sol\":6913:6917  role */\n  dup3\n    /* \"@openzeppelin/contracts/access/AccessControl.sol\":6919:6926  account */\n  dup3\n    /* \"@openzeppelin/contracts/access/AccessControl.sol\":6902:6912  _grantRole */\n  shl(0x20, tag_19)\n    /* \"@openzeppelin/contracts/access/AccessControl.sol\":6902:6927  _grantRole(role, account) */\n  0x20\n  shr\n  jump\t// in\ntag_18:\n    /* \"@openzeppelin/contracts/access/AccessControl.sol\":6824:6934  function _setupRole(bytes32 role, address account) internal virtual {... */\n  pop\n  pop\n  jump\t// out\n    /* \"@openzeppelin/contracts/access/AccessControl.sol\":7474:7707  function _grantRole(bytes32 role, address account) internal virtual {... */\ntag_19:\n    /* \"@openzeppelin/contracts/access/AccessControl.sol\":7557:7579  hasRole(role, account) */\n  tag_21\n    /* \"@openzeppelin/contracts/access/AccessControl.sol\":7565:7569  role */\n  dup3\n    /* \"@openzeppelin/contracts/access/AccessControl.sol\":7571:7578  account */\n  dup3\n    /* \"@openzeppelin/contracts/access/AccessControl.sol\":7557:7564  hasRole */\n  shl(0x20, tag_22)\n    /* \"@openzeppelin/contracts/access/AccessControl.sol\":7557:7579  hasRole(role, account) */\n  0x20\n  shr\n  jump\t// in\ntag_21:\n    /* \"@openzeppelin/contracts/access/AccessControl.sol\":7552:7701  if (!hasRole(role, account)) {... */\n  tag_23\n  jumpi\n    /* \"@openzeppelin/contracts/access/AccessControl.sol\":7627:7631  true */\n  0x01\n    /* \"@openzeppelin/contracts/access/AccessControl.sol\":7595:7601  _roles */\n  dup1\n    /* \"@openzeppelin/contracts/access/AccessControl.sol\":7595:7607  _roles[role] */\n  0x00\n    /* \"@openzeppelin/contracts/access/AccessControl.sol\":7602:7606  role */\n  dup5\n    /* \"@openzeppelin/contracts/access/AccessControl.sol\":7595:7607  _roles[role] */\n  dup2\n  mstore\n  0x20\n  add\n  swap1\n  dup2\n  mstore\n  0x20\n  add\n  0x00\n  keccak256\n    /* \"@openzeppelin/contracts/access/AccessControl.sol\":7595:7615  _roles[role].members */\n  0x00\n  add\n    /* \"@openzeppelin/contracts/access/AccessControl.sol\":7595:7624  _roles[role].members[account] */\n  0x00\n    /* \"@openzeppelin/contracts/access/AccessControl.sol\":7616:7623  account */\n  dup4\n    /* \"@openzeppelin/contracts/access/AccessControl.sol\":7595:7624  _roles[role].members[account] */\n  0xffffffffffffffffffffffffffffffffffffffff\n  and\n  0xffffffffffffffffffffffffffffffffffffffff\n  and\n  dup2\n  mstore\n  0x20\n  add\n  swap1\n  dup2\n  mstore\n  0x20\n  add\n  0x00\n  keccak256\n  0x00\n    /* \"@openzeppelin/contracts/access/AccessControl.sol\":7595:7631  _roles[role].members[account] = true */\n  0x0100\n  exp\n  dup2\n  sload\n  dup2\n  0xff\n  mul\n  not\n  and\n  swap1\n  dup4\n  iszero\n  iszero\n  mul\n  or\n  swap1\n  sstore\n  pop\n    /* \"@openzeppelin/contracts/access/AccessControl.sol\":7677:7689  _msgSender() */\n  tag_24\n    /* \"@openzeppelin/contracts/access/AccessControl.sol\":7677:7687  _msgSender */\n  shl(0x20, tag_9)\n    /* \"@openzeppelin/contracts/access/AccessControl.sol\":7677:7689  _msgSender() */\n  0x20\n  shr\n  jump\t// in\ntag_24:\n    /* \"@openzeppelin/contracts/access/AccessControl.sol\":7650:7690  RoleGranted(role, account, _msgSender()) */\n  0xffffffffffffffffffffffffffffffffffffffff\n  and\n    /* \"@openzeppelin/contracts/access/AccessControl.sol\":7668:7675  account */\n  dup2\n    /* \"@openzeppelin/contracts/access/AccessControl.sol\":7650:7690  RoleGranted(role, account, _msgSender()) */\n  0xffffffffffffffffffffffffffffffffffffffff\n  and\n    /* \"@openzeppelin/contracts/access/AccessControl.sol\":7662:7666  role */\n  dup4\n    /* \"@openzeppelin/contracts/access/AccessControl.sol\":7650:7690  RoleGranted(role, account, _msgSender()) */\n  0x2f8788117e7eff1d82e926ec794901d17c78024a50270940304540a733656f0d\n  mload(0x40)\n  mload(0x40)\n  dup1\n  swap2\n  sub\n  swap1\n  log4\n    /* \"@openzeppelin/contracts/access/AccessControl.sol\":7552:7701  if (!hasRole(role, account)) {... */\ntag_23:\n    /* \"@openzeppelin/contracts/access/AccessControl.sol\":7474:7707  function _grantRole(bytes32 role, address account) internal virtual {... */\n  pop\n  pop\n  jump\t// out\n    /* \"@openzeppelin/contracts/access/AccessControl.sol\":2895:3040  function hasRole(bytes32 role, address account) public view virtual override returns (bool) {... */\ntag_22:\n    /* \"@openzeppelin/contracts/access/AccessControl.sol\":2981:2985  bool */\n  0x00\n    /* \"@openzeppelin/contracts/access/AccessControl.sol\":3004:3010  _roles */\n  0x01\n    /* \"@openzeppelin/contracts/access/AccessControl.sol\":3004:3016  _roles[role] */\n  0x00\n    /* \"@openzeppelin/contracts/access/AccessControl.sol\":3011:3015  role */\n  dup5\n    /* \"@openzeppelin/contracts/access/AccessControl.sol\":3004:3016  _roles[role] */\n  dup2\n  mstore\n  0x20\n  add\n  swap1\n  dup2\n  mstore\n  0x20\n  add\n  0x00\n  keccak256\n    /* \"@openzeppelin/contracts/access/AccessControl.sol\":3004:3024  _roles[role].members */\n  0x00\n  add\n    /* \"@openzeppelin/contracts/access/AccessControl.sol\":3004:3033  _roles[role].members[account] */\n  0x00\n    /* \"@openzeppelin/contracts/access/AccessControl.sol\":3025:3032  account */\n  dup4\n    /* \"@openzeppelin/contracts/access/AccessControl.sol\":3004:3033  _roles[role].members[account] */\n  0xffffffffffffffffffffffffffffffffffffffff\n  and\n  0xffffffffffffffffffffffffffffffffffffffff\n  and\n  dup2\n  mstore\n  0x20\n  add\n  swap1\n  dup2\n  mstore\n  0x20\n  add\n  0x00\n  keccak256\n  0x00\n  swap1\n  sload\n  swap1\n  0x0100\n  exp\n  swap1\n  div\n  0xff\n  and\n    /* \"@openzeppelin/contracts/access/AccessControl.sol\":2997:3033  return _roles[role].members[account] */\n  swap1\n  pop\n    /* \"@openzeppelin/contracts/access/AccessControl.sol\":2895:3040  function hasRole(bytes32 role, address account) public view virtual override returns (bool) {... */\n  swap3\n  swap2\n  pop\n  pop\n  jump\t// out\n    /* \"contracts/Vote.sol\":311:3659  contract Vote is Ownable, AccessControl {... */\ntag_2:\n  dup3\n  dup1\n  sload\n  dup3\n  dup3\n  sstore\n  swap1\n  0x00\n  mstore\n  keccak256(0x00, 0x20)\n  swap1\n  dup2\n  add\n  swap3\n  dup3\n  iszero\n  tag_26\n  jumpi\n  swap2\n  0x20\n  mul\n  dup3\n  add\ntag_27:\n  dup3\n  dup2\n  gt\n  iszero\n  tag_28\n  jumpi\n  dup3\n  mload\n  dup3\n  swap1\n  dup1\n  mload\n  swap1\n  0x20\n  add\n  swap1\n  tag_29\n  swap3\n  swap2\n  swap1\n  tag_30\n  jump\t// in\ntag_29:\n  pop\n  swap2\n  0x20\n  add\n  swap2\n  swap1\n  0x01\n  add\n  swap1\n  jump(tag_27)\ntag_28:\ntag_26:\n  pop\n  swap1\n  pop\n  tag_31\n  swap2\n  swap1\n  tag_32\n  jump\t// in\ntag_31:\n  pop\n  swap1\n  jump\t// out\ntag_30:\n  dup3\n  dup1\n  sload\n  tag_33\n  swap1\n  tag_34\n  jump\t// in\ntag_33:\n  swap1\n  0x00\n  mstore\n  keccak256(0x00, 0x20)\n  swap1\n  0x1f\n  add\n  0x20\n  swap1\n  div\n  dup2\n  add\n  swap3\n  dup3\n  tag_36\n  jumpi\n  0x00\n  dup6\n  sstore\n  jump(tag_35)\ntag_36:\n  dup3\n  0x1f\n  lt\n  tag_37\n  jumpi\n  dup1\n  mload\n  not(0xff)\n  and\n  dup4\n  dup1\n  add\n  or\n  dup6\n  sstore\n  jump(tag_35)\ntag_37:\n  dup3\n  dup1\n  add\n  0x01\n  add\n  dup6\n  sstore\n  dup3\n  iszero\n  tag_35\n  jumpi\n  swap2\n  dup3\n  add\ntag_38:\n  dup3\n  dup2\n  gt\n  iszero\n  tag_39\n  jumpi\n  dup3\n  mload\n  dup3\n  sstore\n  swap2\n  0x20\n  add\n  swap2\n  swap1\n  0x01\n  add\n  swap1\n  jump(tag_38)\ntag_39:\ntag_35:\n  pop\n  swap1\n  pop\n  tag_40\n  swap2\n  swap1\n  tag_41\n  jump\t// in\ntag_40:\n  pop\n  swap1\n  jump\t// out\ntag_32:\ntag_42:\n  dup1\n  dup3\n  gt\n  iszero\n  tag_43\n  jumpi\n  0x00\n  dup2\n  dup2\n  tag_44\n  swap2\n  swap1\n  tag_45\n  jump\t// in\ntag_44:\n  pop\n  0x01\n  add\n  jump(tag_42)\ntag_43:\n  pop\n  swap1\n  jump\t// out\ntag_41:\ntag_46:\n  dup1\n  dup3\n  gt\n  iszero\n  tag_47\n  jumpi\n  0x00\n  dup2\n  0x00\n  swap1\n  sstore\n  pop\n  0x01\n  add\n  jump(tag_46)\ntag_47:\n  pop\n  swap1\n  jump\t// out\ntag_45:\n  pop\n  dup1\n  sload\n  tag_48\n  swap1\n  tag_34\n  jump\t// in\ntag_48:\n  0x00\n  dup3\n  sstore\n  dup1\n  0x1f\n  lt\n  tag_50\n  jumpi\n  pop\n  jump(tag_49)\ntag_50:\n  0x1f\n  add\n  0x20\n  swap1\n  div\n  swap1\n  0x00\n  mstore\n  keccak256(0x00, 0x20)\n  swap1\n  dup2\n  add\n  swap1\n  tag_51\n  swap2\n  swap1\n  tag_41\n  jump\t// in\ntag_51:\ntag_49:\n  pop\n  jump\t// out\n    /* \"#utility.yul\":7:327   */\ntag_34:\n    /* \"#utility.yul\":51:57   */\n  0x00\n    /* \"#utility.yul\":88:89   */\n  0x02\n    /* \"#utility.yul\":82:86   */\n  dup3\n    /* \"#utility.yul\":78:90   */\n  div\n    /* \"#utility.yul\":68:90   */\n  swap1\n  pop\n    /* \"#utility.yul\":135:136   */\n  0x01\n    /* \"#utility.yul\":129:133   */\n  dup3\n    /* \"#utility.yul\":125:137   */\n  and\n    /* \"#utility.yul\":156:174   */\n  dup1\n    /* \"#utility.yul\":146:227   */\n  tag_54\n  jumpi\n    /* \"#utility.yul\":212:216   */\n  0x7f\n    /* \"#utility.yul\":204:210   */\n  dup3\n    /* \"#utility.yul\":200:217   */\n  and\n    /* \"#utility.yul\":190:217   */\n  swap2\n  pop\n    /* \"#utility.yul\":146:227   */\ntag_54:\n    /* \"#utility.yul\":274:276   */\n  0x20\n    /* \"#utility.yul\":266:272   */\n  dup3\n    /* \"#utility.yul\":263:277   */\n  lt\n    /* \"#utility.yul\":243:261   */\n  dup2\n    /* \"#utility.yul\":240:278   */\n  eq\n    /* \"#utility.yul\":237:321   */\n  iszero\n  tag_55\n  jumpi\n    /* \"#utility.yul\":293:311   */\n  tag_56\n  tag_57\n  jump\t// in\ntag_56:\n    /* \"#utility.yul\":237:321   */\ntag_55:\n    /* \"#utility.yul\":58:327   */\n  pop\n    /* \"#utility.yul\":7:327   */\n  swap2\n  swap1\n  pop\n  jump\t// out\n    /* \"#utility.yul\":333:513   */\ntag_57:\n    /* \"#utility.yul\":381:458   */\n  0x4e487b7100000000000000000000000000000000000000000000000000000000\n    /* \"#utility.yul\":378:379   */\n  0x00\n    /* \"#utility.yul\":371:459   */\n  mstore\n    /* \"#utility.yul\":478:482   */\n  0x22\n    /* \"#utility.yul\":475:476   */\n  0x04\n    /* \"#utility.yul\":468:483   */\n  mstore\n    /* \"#utility.yul\":502:506   */\n  0x24\n    /* \"#utility.yul\":499:500   */\n  0x00\n    /* \"#utility.yul\":492:507   */\n  revert\n    /* \"contracts/Vote.sol\":311:3659  contract Vote is Ownable, AccessControl {... */\ntag_14:\n  dataSize(sub_0)\n  dup1\n  dataOffset(sub_0)\n  0x00\n  codecopy\n  0x00\n  return\nstop\n\nsub_0: assembly {\n        /* \"contracts/Vote.sol\":311:3659  contract Vote is Ownable, AccessControl {... */\n      mstore(0x40, 0x80)\n      callvalue\n      dup1\n      iszero\n      tag_1\n      jumpi\n      0x00\n      dup1\n      revert\n    tag_1:\n      pop\n      jumpi(tag_2, lt(calldatasize, 0x04))\n      shr(0xe0, calldataload(0x00))\n      dup1\n      0x8da5cb5b\n      gt\n      tag_24\n      jumpi\n      dup1\n      0xa94015c8\n      gt\n      tag_25\n      jumpi\n      dup1\n      0xa94015c8\n      eq\n      tag_18\n      jumpi\n      dup1\n      0xd547741f\n      eq\n      tag_19\n      jumpi\n      dup1\n      0xd59d2a58\n      eq\n      tag_20\n      jumpi\n      dup1\n      0xdfd8459e\n      eq\n      tag_21\n      jumpi\n      dup1\n      0xef49f4aa\n      eq\n      tag_22\n      jumpi\n      dup1\n      0xf2fde38b\n      eq\n      tag_23\n      jumpi\n      jump(tag_2)\n    tag_25:\n      dup1\n      0x8da5cb5b\n      eq\n      tag_13\n      jumpi\n      dup1\n      0x91d14854\n      eq\n      tag_14\n      jumpi\n      dup1\n      0x9c35d98b\n      eq\n      tag_15\n      jumpi\n      dup1\n      0x9e5f0349\n      eq\n      tag_16\n      jumpi\n      dup1\n      0xa217fddf\n      eq\n      tag_17\n      jumpi\n      jump(tag_2)\n    tag_24:\n      dup1\n      0x2f2ff15d\n      gt\n      tag_26\n      jumpi\n      dup1\n      0x2f2ff15d\n      eq\n      tag_8\n      jumpi\n      dup1\n      0x314fd68f\n      eq\n      tag_9\n      jumpi\n      dup1\n      0x36568abe\n      eq\n      tag_10\n      jumpi\n      dup1\n      0x4f05dba8\n      eq\n      tag_11\n      jumpi\n      dup1\n      0x715018a6\n      eq\n      tag_12\n      jumpi\n      jump(tag_2)\n    tag_26:\n      dup1\n      0x01ffc9a7\n      eq\n      tag_3\n      jumpi\n      dup1\n      0x1e9598e2\n      eq\n      tag_4\n      jumpi\n      dup1\n      0x248a9ca3\n      eq\n      tag_5\n      jumpi\n      dup1\n      0x290e9212\n      eq\n      tag_6\n      jumpi\n      dup1\n      0x2e0d37bb\n      eq\n      tag_7\n      jumpi\n    tag_2:\n      0x00\n      dup1\n      revert\n        /* \"@openzeppelin/contracts/access/AccessControl.sol\":2606:2808  function supportsInterface(bytes4 interfaceId) public view virtual override returns (bool) {... */\n    tag_3:\n      tag_27\n      0x04\n      dup1\n      calldatasize\n      sub\n      dup2\n      add\n      swap1\n      tag_28\n      swap2\n      swap1\n      tag_29\n      jump\t// in\n    tag_28:\n      tag_30\n      jump\t// in\n    tag_27:\n      mload(0x40)\n      tag_31\n      swap2\n      swap1\n      tag_32\n      jump\t// in\n    tag_31:\n      mload(0x40)\n      dup1\n      swap2\n      sub\n      swap1\n      return\n        /* \"contracts/Vote.sol\":1364:1409  mapping(uint256 => election) public Elections */\n    tag_4:\n      tag_33\n      0x04\n      dup1\n      calldatasize\n      sub\n      dup2\n      add\n      swap1\n      tag_34\n      swap2\n      swap1\n      tag_35\n      jump\t// in\n    tag_34:\n      tag_36\n      jump\t// in\n    tag_33:\n      mload(0x40)\n      tag_37\n      swap4\n      swap3\n      swap2\n      swap1\n      tag_38\n      jump\t// in\n    tag_37:\n      mload(0x40)\n      dup1\n      swap2\n      sub\n      swap1\n      return\n        /* \"@openzeppelin/contracts/access/AccessControl.sol\":4391:4520  function getRoleAdmin(bytes32 role) public view virtual override returns (bytes32) {... */\n    tag_5:\n      tag_39\n      0x04\n      dup1\n      calldatasize\n      sub\n      dup2\n      add\n      swap1\n      tag_40\n      swap2\n      swap1\n      tag_41\n      jump\t// in\n    tag_40:\n      tag_42\n      jump\t// in\n    tag_39:\n      mload(0x40)\n      tag_43\n      swap2\n      swap1\n      tag_44\n      jump\t// in\n    tag_43:\n      mload(0x40)\n      dup1\n      swap2\n      sub\n      swap1\n      return\n        /* \"contracts/Vote.sol\":1119:1166  mapping(uint256 => candidate) public Candidates */\n    tag_6:\n      tag_45\n      0x04\n      dup1\n      calldatasize\n      sub\n      dup2\n      add\n      swap1\n      tag_46\n      swap2\n      swap1\n      tag_35\n      jump\t// in\n    tag_46:\n      tag_47\n      jump\t// in\n    tag_45:\n      mload(0x40)\n      tag_48\n      swap4\n      swap3\n      swap2\n      swap1\n      tag_49\n      jump\t// in\n    tag_48:\n      mload(0x40)\n      dup1\n      swap2\n      sub\n      swap1\n      return\n        /* \"contracts/Vote.sol\":517:580  bytes32 public constant INEC_EXEC_ROLE = keccak256(\"INEC_EXEC\") */\n    tag_7:\n      tag_50\n      tag_51\n      jump\t// in\n    tag_50:\n      mload(0x40)\n      tag_52\n      swap2\n      swap1\n      tag_44\n      jump\t// in\n    tag_52:\n      mload(0x40)\n      dup1\n      swap2\n      sub\n      swap1\n      return\n        /* \"@openzeppelin/contracts/access/AccessControl.sol\":4816:4961  function grantRole(bytes32 role, address account) public virtual override onlyRole(getRoleAdmin(role)) {... */\n    tag_8:\n      tag_53\n      0x04\n      dup1\n      calldatasize\n      sub\n      dup2\n      add\n      swap1\n      tag_54\n      swap2\n      swap1\n      tag_55\n      jump\t// in\n    tag_54:\n      tag_56\n      jump\t// in\n    tag_53:\n      stop\n        /* \"contracts/Vote.sol\":457:510  string [] public party = [\"APC\", \"PDP\", \"LP\", \"NNPP\"] */\n    tag_9:\n      tag_57\n      0x04\n      dup1\n      calldatasize\n      sub\n      dup2\n      add\n      swap1\n      tag_58\n      swap2\n      swap1\n      tag_35\n      jump\t// in\n    tag_58:\n      tag_59\n      jump\t// in\n    tag_57:\n      mload(0x40)\n      tag_60\n      swap2\n      swap1\n      tag_61\n      jump\t// in\n    tag_60:\n      mload(0x40)\n      dup1\n      swap2\n      sub\n      swap1\n      return\n        /* \"@openzeppelin/contracts/access/AccessControl.sol\":5925:6139  function renounceRole(bytes32 role, address account) public virtual override {... */\n    tag_10:\n      tag_62\n      0x04\n      dup1\n      calldatasize\n      sub\n      dup2\n      add\n      swap1\n      tag_63\n      swap2\n      swap1\n      tag_55\n      jump\t// in\n    tag_63:\n      tag_64\n      jump\t// in\n    tag_62:\n      stop\n        /* \"contracts/Vote.sol\":3010:3450  function createElection(address[] memory _candidateNum, uint256 _date, uint256 _duration) public isInecExec {... */\n    tag_11:\n      tag_65\n      0x04\n      dup1\n      calldatasize\n      sub\n      dup2\n      add\n      swap1\n      tag_66\n      swap2\n      swap1\n      tag_67\n      jump\t// in\n    tag_66:\n      tag_68\n      jump\t// in\n    tag_65:\n      stop\n        /* \"@openzeppelin/contracts/access/Ownable.sol\":1831:1932  function renounceOwnership() public virtual onlyOwner {... */\n    tag_12:\n      tag_69\n      tag_70\n      jump\t// in\n    tag_69:\n      stop\n        /* \"@openzeppelin/contracts/access/Ownable.sol\":1201:1286  function owner() public view virtual returns (address) {... */\n    tag_13:\n      tag_71\n      tag_72\n      jump\t// in\n    tag_71:\n      mload(0x40)\n      tag_73\n      swap2\n      swap1\n      tag_74\n      jump\t// in\n    tag_73:\n      mload(0x40)\n      dup1\n      swap2\n      sub\n      swap1\n      return\n        /* \"@openzeppelin/contracts/access/AccessControl.sol\":2895:3040  function hasRole(bytes32 role, address account) public view virtual override returns (bool) {... */\n    tag_14:\n      tag_75\n      0x04\n      dup1\n      calldatasize\n      sub\n      dup2\n      add\n      swap1\n      tag_76\n      swap2\n      swap1\n      tag_55\n      jump\t// in\n    tag_76:\n      tag_77\n      jump\t// in\n    tag_75:\n      mload(0x40)\n      tag_78\n      swap2\n      swap1\n      tag_32\n      jump\t// in\n    tag_78:\n      mload(0x40)\n      dup1\n      swap2\n      sub\n      swap1\n      return\n        /* \"contracts/Vote.sol\":1241:1280  mapping(uint256 => voter) public Voters */\n    tag_15:\n      tag_79\n      0x04\n      dup1\n      calldatasize\n      sub\n      dup2\n      add\n      swap1\n      tag_80\n      swap2\n      swap1\n      tag_35\n      jump\t// in\n    tag_80:\n      tag_81\n      jump\t// in\n    tag_79:\n      mload(0x40)\n      tag_82\n      swap5\n      swap4\n      swap3\n      swap2\n      swap1\n      tag_83\n      jump\t// in\n    tag_82:\n      mload(0x40)\n      dup1\n      swap2\n      sub\n      swap1\n      return\n        /* \"contracts/Vote.sol\":3534:3651  function retrieveCandidate(uint256 num) public view returns (candidate memory){... */\n    tag_16:\n      tag_84\n      0x04\n      dup1\n      calldatasize\n      sub\n      dup2\n      add\n      swap1\n      tag_85\n      swap2\n      swap1\n      tag_35\n      jump\t// in\n    tag_85:\n      tag_86\n      jump\t// in\n    tag_84:\n      mload(0x40)\n      tag_87\n      swap2\n      swap1\n      tag_88\n      jump\t// in\n    tag_87:\n      mload(0x40)\n      dup1\n      swap2\n      sub\n      swap1\n      return\n        /* \"@openzeppelin/contracts/access/AccessControl.sol\":2027:2076  bytes32 public constant DEFAULT_ADMIN_ROLE = 0x00 */\n    tag_17:\n      tag_89\n      tag_90\n      jump\t// in\n    tag_89:\n      mload(0x40)\n      tag_91\n      swap2\n      swap1\n      tag_44\n      jump\t// in\n    tag_91:\n      mload(0x40)\n      dup1\n      swap2\n      sub\n      swap1\n      return\n        /* \"contracts/Vote.sol\":586:641  bytes32 public constant VOTER_ROLE = keccak256(\"VOTER\") */\n    tag_18:\n      tag_92\n      tag_93\n      jump\t// in\n    tag_92:\n      mload(0x40)\n      tag_94\n      swap2\n      swap1\n      tag_44\n      jump\t// in\n    tag_94:\n      mload(0x40)\n      dup1\n      swap2\n      sub\n      swap1\n      return\n        /* \"@openzeppelin/contracts/access/AccessControl.sol\":5241:5388  function revokeRole(bytes32 role, address account) public virtual override onlyRole(getRoleAdmin(role)) {... */\n    tag_19:\n      tag_95\n      0x04\n      dup1\n      calldatasize\n      sub\n      dup2\n      add\n      swap1\n      tag_96\n      swap2\n      swap1\n      tag_55\n      jump\t// in\n    tag_96:\n      tag_97\n      jump\t// in\n    tag_95:\n      stop\n        /* \"contracts/Vote.sol\":2262:2561  function createCandidate(string memory name, address candAddress, uint256 partyNum) public isInecExec {... */\n    tag_20:\n      tag_98\n      0x04\n      dup1\n      calldatasize\n      sub\n      dup2\n      add\n      swap1\n      tag_99\n      swap2\n      swap1\n      tag_100\n      jump\t// in\n    tag_99:\n      tag_101\n      jump\t// in\n    tag_98:\n      stop\n        /* \"contracts/Vote.sol\":1942:2052  function createInecExec(address _account) public onlyOwner{... */\n    tag_21:\n      tag_102\n      0x04\n      dup1\n      calldatasize\n      sub\n      dup2\n      add\n      swap1\n      tag_103\n      swap2\n      swap1\n      tag_104\n      jump\t// in\n    tag_103:\n      tag_105\n      jump\t// in\n    tag_102:\n      stop\n        /* \"contracts/Vote.sol\":2686:2872  function regVoter(address _account, uint256 _nin) public {... */\n    tag_22:\n      tag_106\n      0x04\n      dup1\n      calldatasize\n      sub\n      dup2\n      add\n      swap1\n      tag_107\n      swap2\n      swap1\n      tag_108\n      jump\t// in\n    tag_107:\n      tag_109\n      jump\t// in\n    tag_106:\n      stop\n        /* \"@openzeppelin/contracts/access/Ownable.sol\":2081:2279  function transferOwnership(address newOwner) public virtual onlyOwner {... */\n    tag_23:\n      tag_110\n      0x04\n      dup1\n      calldatasize\n      sub\n      dup2\n      add\n      swap1\n      tag_111\n      swap2\n      swap1\n      tag_104\n      jump\t// in\n    tag_111:\n      tag_112\n      jump\t// in\n    tag_110:\n      stop\n        /* \"@openzeppelin/contracts/access/AccessControl.sol\":2606:2808  function supportsInterface(bytes4 interfaceId) public view virtual override returns (bool) {... */\n    tag_30:\n        /* \"@openzeppelin/contracts/access/AccessControl.sol\":2691:2695  bool */\n      0x00\n        /* \"@openzeppelin/contracts/access/AccessControl.sol\":2729:2761  type(IAccessControl).interfaceId */\n      0x7965db0b00000000000000000000000000000000000000000000000000000000\n        /* \"@openzeppelin/contracts/access/AccessControl.sol\":2714:2761  interfaceId == type(IAccessControl).interfaceId */\n      not(0xffffffffffffffffffffffffffffffffffffffffffffffffffffffff)\n      and\n        /* \"@openzeppelin/contracts/access/AccessControl.sol\":2714:2725  interfaceId */\n      dup3\n        /* \"@openzeppelin/contracts/access/AccessControl.sol\":2714:2761  interfaceId == type(IAccessControl).interfaceId */\n      not(0xffffffffffffffffffffffffffffffffffffffffffffffffffffffff)\n      and\n      eq\n        /* \"@openzeppelin/contracts/access/AccessControl.sol\":2714:2801  interfaceId == type(IAccessControl).interfaceId || super.supportsInterface(interfaceId) */\n      dup1\n      tag_114\n      jumpi\n      pop\n        /* \"@openzeppelin/contracts/access/AccessControl.sol\":2765:2801  super.supportsInterface(interfaceId) */\n      tag_115\n        /* \"@openzeppelin/contracts/access/AccessControl.sol\":2789:2800  interfaceId */\n      dup3\n        /* \"@openzeppelin/contracts/access/AccessControl.sol\":2765:2788  super.supportsInterface */\n      tag_116\n        /* \"@openzeppelin/contracts/access/AccessControl.sol\":2765:2801  super.supportsInterface(interfaceId) */\n      jump\t// in\n    tag_115:\n        /* \"@openzeppelin/contracts/access/AccessControl.sol\":2714:2801  interfaceId == type(IAccessControl).interfaceId || super.supportsInterface(interfaceId) */\n    tag_114:\n        /* \"@openzeppelin/contracts/access/AccessControl.sol\":2707:2801  return interfaceId == type(IAccessControl).interfaceId || super.supportsInterface(interfaceId) */\n      swap1\n      pop\n        /* \"@openzeppelin/contracts/access/AccessControl.sol\":2606:2808  function supportsInterface(bytes4 interfaceId) public view virtual override returns (bool) {... */\n      swap2\n      swap1\n      pop\n      jump\t// out\n        /* \"contracts/Vote.sol\":1364:1409  mapping(uint256 => election) public Elections */\n    tag_36:\n      mstore(0x20, 0x09)\n      dup1\n      0x00\n      mstore\n      keccak256(0x00, 0x40)\n      0x00\n      swap2\n      pop\n      swap1\n      pop\n      dup1\n      0x02\n      add\n      sload\n      swap1\n      dup1\n      0x03\n      add\n      sload\n      swap1\n      dup1\n      0x04\n      add\n      0x00\n      swap1\n      sload\n      swap1\n      0x0100\n      exp\n      swap1\n      div\n      0xff\n      and\n      swap1\n      pop\n      dup4\n      jump\t// out\n        /* \"@openzeppelin/contracts/access/AccessControl.sol\":4391:4520  function getRoleAdmin(bytes32 role) public view virtual override returns (bytes32) {... */\n    tag_42:\n        /* \"@openzeppelin/contracts/access/AccessControl.sol\":4465:4472  bytes32 */\n      0x00\n        /* \"@openzeppelin/contracts/access/AccessControl.sol\":4491:4497  _roles */\n      0x01\n        /* \"@openzeppelin/contracts/access/AccessControl.sol\":4491:4503  _roles[role] */\n      0x00\n        /* \"@openzeppelin/contracts/access/AccessControl.sol\":4498:4502  role */\n      dup4\n        /* \"@openzeppelin/contracts/access/AccessControl.sol\":4491:4503  _roles[role] */\n      dup2\n      mstore\n      0x20\n      add\n      swap1\n      dup2\n      mstore\n      0x20\n      add\n      0x00\n      keccak256\n        /* \"@openzeppelin/contracts/access/AccessControl.sol\":4491:4513  _roles[role].adminRole */\n      0x01\n      add\n      sload\n        /* \"@openzeppelin/contracts/access/AccessControl.sol\":4484:4513  return _roles[role].adminRole */\n      swap1\n      pop\n        /* \"@openzeppelin/contracts/access/AccessControl.sol\":4391:4520  function getRoleAdmin(bytes32 role) public view virtual override returns (bytes32) {... */\n      swap2\n      swap1\n      pop\n      jump\t// out\n        /* \"contracts/Vote.sol\":1119:1166  mapping(uint256 => candidate) public Candidates */\n    tag_47:\n      mstore(0x20, 0x07)\n      dup1\n      0x00\n      mstore\n      keccak256(0x00, 0x40)\n      0x00\n      swap2\n      pop\n      swap1\n      pop\n      dup1\n      0x00\n      add\n      dup1\n      sload\n      tag_118\n      swap1\n      tag_119\n      jump\t// in\n    tag_118:\n      dup1\n      0x1f\n      add\n      0x20\n      dup1\n      swap2\n      div\n      mul\n      0x20\n      add\n      mload(0x40)\n      swap1\n      dup2\n      add\n      0x40\n      mstore\n      dup1\n      swap3\n      swap2\n      swap1\n      dup2\n      dup2\n      mstore\n      0x20\n      add\n      dup3\n      dup1\n      sload\n      tag_120\n      swap1\n      tag_119\n      jump\t// in\n    tag_120:\n      dup1\n      iszero\n      tag_121\n      jumpi\n      dup1\n      0x1f\n      lt\n      tag_122\n      jumpi\n      0x0100\n      dup1\n      dup4\n      sload\n      div\n      mul\n      dup4\n      mstore\n      swap2\n      0x20\n      add\n      swap2\n      jump(tag_121)\n    tag_122:\n      dup3\n      add\n      swap2\n      swap1\n      0x00\n      mstore\n      keccak256(0x00, 0x20)\n      swap1\n    tag_123:\n      dup2\n      sload\n      dup2\n      mstore\n      swap1\n      0x01\n      add\n      swap1\n      0x20\n      add\n      dup1\n      dup4\n      gt\n      tag_123\n      jumpi\n      dup3\n      swap1\n      sub\n      0x1f\n      and\n      dup3\n      add\n      swap2\n    tag_121:\n      pop\n      pop\n      pop\n      pop\n      pop\n      swap1\n      dup1\n      0x01\n      add\n      0x00\n      swap1\n      sload\n      swap1\n      0x0100\n      exp\n      swap1\n      div\n      0xffffffffffffffffffffffffffffffffffffffff\n      and\n      swap1\n      dup1\n      0x02\n      add\n      dup1\n      sload\n      tag_124\n      swap1\n      tag_119\n      jump\t// in\n    tag_124:\n      dup1\n      0x1f\n      add\n      0x20\n      dup1\n      swap2\n      div\n      mul\n      0x20\n      add\n      mload(0x40)\n      swap1\n      dup2\n      add\n      0x40\n      mstore\n      dup1\n      swap3\n      swap2\n      swap1\n      dup2\n      dup2\n      mstore\n      0x20\n      add\n      dup3\n      dup1\n      sload\n      tag_125\n      swap1\n      tag_119\n      jump\t// in\n    tag_125:\n      dup1\n      iszero\n      tag_126\n      jumpi\n      dup1\n      0x1f\n      lt\n      tag_127\n      jumpi\n      0x0100\n      dup1\n      dup4\n      sload\n      div\n      mul\n      dup4\n      mstore\n      swap2\n      0x20\n      add\n      swap2\n      jump(tag_126)\n    tag_127:\n      dup3\n      add\n      swap2\n      swap1\n      0x00\n      mstore\n      keccak256(0x00, 0x20)\n      swap1\n    tag_128:\n      dup2\n      sload\n      dup2\n      mstore\n      swap1\n      0x01\n      add\n      swap1\n      0x20\n      add\n      dup1\n      dup4\n      gt\n      tag_128\n      jumpi\n      dup3\n      swap1\n      sub\n      0x1f\n      and\n      dup3\n      add\n      swap2\n    tag_126:\n      pop\n      pop\n      pop\n      pop\n      pop\n      swap1\n      pop\n      dup4\n      jump\t// out\n        /* \"contracts/Vote.sol\":517:580  bytes32 public constant INEC_EXEC_ROLE = keccak256(\"INEC_EXEC\") */\n    tag_51:\n        /* \"contracts/Vote.sol\":558:580  keccak256(\"INEC_EXEC\") */\n      0x082f6ed76e0352438e6a6e35c77719c3f04bf277fdc8fec7e5ff5f65e001d902\n        /* \"contracts/Vote.sol\":517:580  bytes32 public constant INEC_EXEC_ROLE = keccak256(\"INEC_EXEC\") */\n      dup2\n      jump\t// out\n        /* \"@openzeppelin/contracts/access/AccessControl.sol\":4816:4961  function grantRole(bytes32 role, address account) public virtual override onlyRole(getRoleAdmin(role)) {... */\n    tag_56:\n        /* \"@openzeppelin/contracts/access/AccessControl.sol\":4899:4917  getRoleAdmin(role) */\n      tag_129\n        /* \"@openzeppelin/contracts/access/AccessControl.sol\":4912:4916  role */\n      dup3\n        /* \"@openzeppelin/contracts/access/AccessControl.sol\":4899:4911  getRoleAdmin */\n      tag_42\n        /* \"@openzeppelin/contracts/access/AccessControl.sol\":4899:4917  getRoleAdmin(role) */\n      jump\t// in\n    tag_129:\n        /* \"@openzeppelin/contracts/access/AccessControl.sol\":2505:2521  _checkRole(role) */\n      tag_131\n        /* \"@openzeppelin/contracts/access/AccessControl.sol\":2516:2520  role */\n      dup2\n        /* \"@openzeppelin/contracts/access/AccessControl.sol\":2505:2515  _checkRole */\n      tag_132\n        /* \"@openzeppelin/contracts/access/AccessControl.sol\":2505:2521  _checkRole(role) */\n      jump\t// in\n    tag_131:\n        /* \"@openzeppelin/contracts/access/AccessControl.sol\":4929:4954  _grantRole(role, account) */\n      tag_134\n        /* \"@openzeppelin/contracts/access/AccessControl.sol\":4940:4944  role */\n      dup4\n        /* \"@openzeppelin/contracts/access/AccessControl.sol\":4946:4953  account */\n      dup4\n        /* \"@openzeppelin/contracts/access/AccessControl.sol\":4929:4939  _grantRole */\n      tag_135\n        /* \"@openzeppelin/contracts/access/AccessControl.sol\":4929:4954  _grantRole(role, account) */\n      jump\t// in\n    tag_134:\n        /* \"@openzeppelin/contracts/access/AccessControl.sol\":4816:4961  function grantRole(bytes32 role, address account) public virtual override onlyRole(getRoleAdmin(role)) {... */\n      pop\n      pop\n      pop\n      jump\t// out\n        /* \"contracts/Vote.sol\":457:510  string [] public party = [\"APC\", \"PDP\", \"LP\", \"NNPP\"] */\n    tag_59:\n      0x06\n      dup2\n      dup2\n      sload\n      dup2\n      lt\n      tag_136\n      jumpi\n      0x00\n      dup1\n      revert\n    tag_136:\n      swap1\n      0x00\n      mstore\n      keccak256(0x00, 0x20)\n      add\n      0x00\n      swap2\n      pop\n      swap1\n      pop\n      dup1\n      sload\n      tag_138\n      swap1\n      tag_119\n      jump\t// in\n    tag_138:\n      dup1\n      0x1f\n      add\n      0x20\n      dup1\n      swap2\n      div\n      mul\n      0x20\n      add\n      mload(0x40)\n      swap1\n      dup2\n      add\n      0x40\n      mstore\n      dup1\n      swap3\n      swap2\n      swap1\n      dup2\n      dup2\n      mstore\n      0x20\n      add\n      dup3\n      dup1\n      sload\n      tag_139\n      swap1\n      tag_119\n      jump\t// in\n    tag_139:\n      dup1\n      iszero\n      tag_140\n      jumpi\n      dup1\n      0x1f\n      lt\n      tag_141\n      jumpi\n      0x0100\n      dup1\n      dup4\n      sload\n      div\n      mul\n      dup4\n      mstore\n      swap2\n      0x20\n      add\n      swap2\n      jump(tag_140)\n    tag_141:\n      dup3\n      add\n      swap2\n      swap1\n      0x00\n      mstore\n      keccak256(0x00, 0x20)\n      swap1\n    tag_142:\n      dup2\n      sload\n      dup2\n      mstore\n      swap1\n      0x01\n      add\n      swap1\n      0x20\n      add\n      dup1\n      dup4\n      gt\n      tag_142\n      jumpi\n      dup3\n      swap1\n      sub\n      0x1f\n      and\n      dup3\n      add\n      swap2\n    tag_140:\n      pop\n      pop\n      pop\n      pop\n      pop\n      dup2\n      jump\t// out\n        /* \"@openzeppelin/contracts/access/AccessControl.sol\":5925:6139  function renounceRole(bytes32 role, address account) public virtual override {... */\n    tag_64:\n        /* \"@openzeppelin/contracts/access/AccessControl.sol\":6031:6043  _msgSender() */\n      tag_144\n        /* \"@openzeppelin/contracts/access/AccessControl.sol\":6031:6041  _msgSender */\n      tag_145\n        /* \"@openzeppelin/contracts/access/AccessControl.sol\":6031:6043  _msgSender() */\n      jump\t// in\n    tag_144:\n        /* \"@openzeppelin/contracts/access/AccessControl.sol\":6020:6043  account == _msgSender() */\n      0xffffffffffffffffffffffffffffffffffffffff\n      and\n        /* \"@openzeppelin/contracts/access/AccessControl.sol\":6020:6027  account */\n      dup2\n        /* \"@openzeppelin/contracts/access/AccessControl.sol\":6020:6043  account == _msgSender() */\n      0xffffffffffffffffffffffffffffffffffffffff\n      and\n      eq\n        /* \"@openzeppelin/contracts/access/AccessControl.sol\":6012:6095  require(account == _msgSender(), \"AccessControl: can only renounce roles for self\") */\n      tag_146\n      jumpi\n      mload(0x40)\n      0x08c379a000000000000000000000000000000000000000000000000000000000\n      dup2\n      mstore\n      0x04\n      add\n      tag_147\n      swap1\n      tag_148\n      jump\t// in\n    tag_147:\n      mload(0x40)\n      dup1\n      swap2\n      sub\n      swap1\n      revert\n    tag_146:\n        /* \"@openzeppelin/contracts/access/AccessControl.sol\":6106:6132  _revokeRole(role, account) */\n      tag_149\n        /* \"@openzeppelin/contracts/access/AccessControl.sol\":6118:6122  role */\n      dup3\n        /* \"@openzeppelin/contracts/access/AccessControl.sol\":6124:6131  account */\n      dup3\n        /* \"@openzeppelin/contracts/access/AccessControl.sol\":6106:6117  _revokeRole */\n      tag_150\n        /* \"@openzeppelin/contracts/access/AccessControl.sol\":6106:6132  _revokeRole(role, account) */\n      jump\t// in\n    tag_149:\n        /* \"@openzeppelin/contracts/access/AccessControl.sol\":5925:6139  function renounceRole(bytes32 role, address account) public virtual override {... */\n      pop\n      pop\n      jump\t// out\n        /* \"contracts/Vote.sol\":3010:3450  function createElection(address[] memory _candidateNum, uint256 _date, uint256 _duration) public isInecExec {... */\n    tag_68:\n        /* \"contracts/Vote.sol\":1535:1570  hasRole(INEC_EXEC_ROLE, msg.sender) */\n      tag_152\n        /* \"contracts/Vote.sol\":558:580  keccak256(\"INEC_EXEC\") */\n      0x082f6ed76e0352438e6a6e35c77719c3f04bf277fdc8fec7e5ff5f65e001d902\n        /* \"contracts/Vote.sol\":1559:1569  msg.sender */\n      caller\n        /* \"contracts/Vote.sol\":1535:1542  hasRole */\n      tag_77\n        /* \"contracts/Vote.sol\":1535:1570  hasRole(INEC_EXEC_ROLE, msg.sender) */\n      jump\t// in\n    tag_152:\n        /* \"contracts/Vote.sol\":1527:1606  require(hasRole(INEC_EXEC_ROLE, msg.sender), \"Caller is not an INEC executive\") */\n      tag_153\n      jumpi\n      mload(0x40)\n      0x08c379a000000000000000000000000000000000000000000000000000000000\n      dup2\n      mstore\n      0x04\n      add\n      tag_154\n      swap1\n      tag_155\n      jump\t// in\n    tag_154:\n      mload(0x40)\n      dup1\n      swap2\n      sub\n      swap1\n      revert\n    tag_153:\n        /* \"contracts/Vote.sol\":3158:3163  _date */\n      dup2\n        /* \"contracts/Vote.sol\":3127:3136  Elections */\n      0x09\n        /* \"contracts/Vote.sol\":3127:3149  Elections[electionNum] */\n      0x00\n        /* \"contracts/Vote.sol\":3137:3148  electionNum */\n      sload(0x05)\n        /* \"contracts/Vote.sol\":3127:3149  Elections[electionNum] */\n      dup2\n      mstore\n      0x20\n      add\n      swap1\n      dup2\n      mstore\n      0x20\n      add\n      0x00\n      keccak256\n        /* \"contracts/Vote.sol\":3127:3155  Elections[electionNum].start */\n      0x02\n      add\n        /* \"contracts/Vote.sol\":3127:3163  Elections[electionNum].start = _date */\n      dup2\n      swap1\n      sstore\n      pop\n        /* \"contracts/Vote.sol\":3206:3215  _duration */\n      dup1\n        /* \"contracts/Vote.sol\":3172:3181  Elections */\n      0x09\n        /* \"contracts/Vote.sol\":3172:3194  Elections[electionNum] */\n      0x00\n        /* \"contracts/Vote.sol\":3182:3193  electionNum */\n      sload(0x05)\n        /* \"contracts/Vote.sol\":3172:3194  Elections[electionNum] */\n      dup2\n      mstore\n      0x20\n      add\n      swap1\n      dup2\n      mstore\n      0x20\n      add\n      0x00\n      keccak256\n        /* \"contracts/Vote.sol\":3172:3203  Elections[electionNum].duration */\n      0x03\n      add\n        /* \"contracts/Vote.sol\":3172:3215  Elections[electionNum].duration = _duration */\n      dup2\n      swap1\n      sstore\n      pop\n        /* \"contracts/Vote.sol\":3229:3235  uint i */\n      0x00\n        /* \"contracts/Vote.sol\":3225:3420  for(uint i = 0; i < _candidateNum.length; i++){... */\n    tag_157:\n        /* \"contracts/Vote.sol\":3245:3258  _candidateNum */\n      dup4\n        /* \"contracts/Vote.sol\":3245:3265  _candidateNum.length */\n      mload\n        /* \"contracts/Vote.sol\":3241:3242  i */\n      dup2\n        /* \"contracts/Vote.sol\":3241:3265  i < _candidateNum.length */\n      lt\n        /* \"contracts/Vote.sol\":3225:3420  for(uint i = 0; i < _candidateNum.length; i++){... */\n      iszero\n      tag_158\n      jumpi\n        /* \"contracts/Vote.sol\":3284:3293  Elections */\n      0x09\n        /* \"contracts/Vote.sol\":3284:3306  Elections[electionNum] */\n      0x00\n        /* \"contracts/Vote.sol\":3294:3305  electionNum */\n      sload(0x05)\n        /* \"contracts/Vote.sol\":3284:3306  Elections[electionNum] */\n      dup2\n      mstore\n      0x20\n      add\n      swap1\n      dup2\n      mstore\n      0x20\n      add\n      0x00\n      keccak256\n        /* \"contracts/Vote.sol\":3284:3316  Elections[electionNum].candidate */\n      0x00\n      add\n        /* \"contracts/Vote.sol\":3322:3335  _candidateNum */\n      dup5\n        /* \"contracts/Vote.sol\":3336:3337  i */\n      dup3\n        /* \"contracts/Vote.sol\":3322:3338  _candidateNum[i] */\n      dup2\n      mload\n      dup2\n      lt\n      tag_160\n      jumpi\n      tag_161\n      tag_162\n      jump\t// in\n    tag_161:\n    tag_160:\n      0x20\n      mul\n      0x20\n      add\n      add\n      mload\n        /* \"contracts/Vote.sol\":3284:3339  Elections[electionNum].candidate.push(_candidateNum[i]) */\n      swap1\n      dup1\n      0x01\n      dup2\n      sload\n      add\n      dup1\n      dup3\n      sstore\n      dup1\n      swap2\n      pop\n      pop\n      0x01\n      swap1\n      sub\n      swap1\n      0x00\n      mstore\n      keccak256(0x00, 0x20)\n      add\n      0x00\n      swap1\n      swap2\n      swap1\n      swap2\n      swap1\n      swap2\n      0x0100\n      exp\n      dup2\n      sload\n      dup2\n      0xffffffffffffffffffffffffffffffffffffffff\n      mul\n      not\n      and\n      swap1\n      dup4\n      0xffffffffffffffffffffffffffffffffffffffff\n      and\n      mul\n      or\n      swap1\n      sstore\n      pop\n        /* \"contracts/Vote.sol\":3394:3407  _candidateNum */\n      dup4\n        /* \"contracts/Vote.sol\":3408:3409  i */\n      dup2\n        /* \"contracts/Vote.sol\":3394:3410  _candidateNum[i] */\n      dup2\n      mload\n      dup2\n      lt\n      tag_164\n      jumpi\n      tag_165\n      tag_162\n      jump\t// in\n    tag_165:\n    tag_164:\n      0x20\n      mul\n      0x20\n      add\n      add\n      mload\n        /* \"contracts/Vote.sol\":3352:3361  Elections */\n      0x09\n        /* \"contracts/Vote.sol\":3352:3374  Elections[electionNum] */\n      0x00\n        /* \"contracts/Vote.sol\":3362:3373  electionNum */\n      sload(0x05)\n        /* \"contracts/Vote.sol\":3352:3374  Elections[electionNum] */\n      dup2\n      mstore\n      0x20\n      add\n      swap1\n      dup2\n      mstore\n      0x20\n      add\n      0x00\n      keccak256\n        /* \"contracts/Vote.sol\":3352:3388  Elections[electionNum].candidateVote */\n      0x01\n      add\n        /* \"contracts/Vote.sol\":3352:3391  Elections[electionNum].candidateVote[i] */\n      0x00\n        /* \"contracts/Vote.sol\":3389:3390  i */\n      dup4\n        /* \"contracts/Vote.sol\":3352:3391  Elections[electionNum].candidateVote[i] */\n      dup2\n      mstore\n      0x20\n      add\n      swap1\n      dup2\n      mstore\n      0x20\n      add\n      0x00\n      keccak256\n      0x00\n        /* \"contracts/Vote.sol\":3352:3410  Elections[electionNum].candidateVote[i] = _candidateNum[i] */\n      0x0100\n      exp\n      dup2\n      sload\n      dup2\n      0xffffffffffffffffffffffffffffffffffffffff\n      mul\n      not\n      and\n      swap1\n      dup4\n      0xffffffffffffffffffffffffffffffffffffffff\n      and\n      mul\n      or\n      swap1\n      sstore\n      pop\n        /* \"contracts/Vote.sol\":3267:3270  i++ */\n      dup1\n      dup1\n      tag_166\n      swap1\n      tag_167\n      jump\t// in\n    tag_166:\n      swap2\n      pop\n      pop\n        /* \"contracts/Vote.sol\":3225:3420  for(uint i = 0; i < _candidateNum.length; i++){... */\n      jump(tag_157)\n    tag_158:\n      pop\n        /* \"contracts/Vote.sol\":3429:3440  electionNum */\n      0x05\n      0x00\n        /* \"contracts/Vote.sol\":3429:3443  electionNum ++ */\n      dup2\n      sload\n      dup1\n      swap3\n      swap2\n      swap1\n      tag_168\n      swap1\n      tag_167\n      jump\t// in\n    tag_168:\n      swap2\n      swap1\n      pop\n      sstore\n      pop\n        /* \"contracts/Vote.sol\":3010:3450  function createElection(address[] memory _candidateNum, uint256 _date, uint256 _duration) public isInecExec {... */\n      pop\n      pop\n      pop\n      jump\t// out\n        /* \"@openzeppelin/contracts/access/Ownable.sol\":1831:1932  function renounceOwnership() public virtual onlyOwner {... */\n    tag_70:\n        /* \"@openzeppelin/contracts/access/Ownable.sol\":1094:1107  _checkOwner() */\n      tag_170\n        /* \"@openzeppelin/contracts/access/Ownable.sol\":1094:1105  _checkOwner */\n      tag_171\n        /* \"@openzeppelin/contracts/access/Ownable.sol\":1094:1107  _checkOwner() */\n      jump\t// in\n    tag_170:\n        /* \"@openzeppelin/contracts/access/Ownable.sol\":1895:1925  _transferOwnership(address(0)) */\n      tag_173\n        /* \"@openzeppelin/contracts/access/Ownable.sol\":1922:1923  0 */\n      0x00\n        /* \"@openzeppelin/contracts/access/Ownable.sol\":1895:1913  _transferOwnership */\n      tag_174\n        /* \"@openzeppelin/contracts/access/Ownable.sol\":1895:1925  _transferOwnership(address(0)) */\n      jump\t// in\n    tag_173:\n        /* \"@openzeppelin/contracts/access/Ownable.sol\":1831:1932  function renounceOwnership() public virtual onlyOwner {... */\n      jump\t// out\n        /* \"@openzeppelin/contracts/access/Ownable.sol\":1201:1286  function owner() public view virtual returns (address) {... */\n    tag_72:\n        /* \"@openzeppelin/contracts/access/Ownable.sol\":1247:1254  address */\n      0x00\n        /* \"@openzeppelin/contracts/access/Ownable.sol\":1273:1279  _owner */\n      dup1\n      0x00\n      swap1\n      sload\n      swap1\n      0x0100\n      exp\n      swap1\n      div\n      0xffffffffffffffffffffffffffffffffffffffff\n      and\n        /* \"@openzeppelin/contracts/access/Ownable.sol\":1266:1279  return _owner */\n      swap1\n      pop\n        /* \"@openzeppelin/contracts/access/Ownable.sol\":1201:1286  function owner() public view virtual returns (address) {... */\n      swap1\n      jump\t// out\n        /* \"@openzeppelin/contracts/access/AccessControl.sol\":2895:3040  function hasRole(bytes32 role, address account) public view virtual override returns (bool) {... */\n    tag_77:\n        /* \"@openzeppelin/contracts/access/AccessControl.sol\":2981:2985  bool */\n      0x00\n        /* \"@openzeppelin/contracts/access/AccessControl.sol\":3004:3010  _roles */\n      0x01\n        /* \"@openzeppelin/contracts/access/AccessControl.sol\":3004:3016  _roles[role] */\n      0x00\n        /* \"@openzeppelin/contracts/access/AccessControl.sol\":3011:3015  role */\n      dup5\n        /* \"@openzeppelin/contracts/access/AccessControl.sol\":3004:3016  _roles[role] */\n      dup2\n      mstore\n      0x20\n      add\n      swap1\n      dup2\n      mstore\n      0x20\n      add\n      0x00\n      keccak256\n        /* \"@openzeppelin/contracts/access/AccessControl.sol\":3004:3024  _roles[role].members */\n      0x00\n      add\n        /* \"@openzeppelin/contracts/access/AccessControl.sol\":3004:3033  _roles[role].members[account] */\n      0x00\n        /* \"@openzeppelin/contracts/access/AccessControl.sol\":3025:3032  account */\n      dup4\n        /* \"@openzeppelin/contracts/access/AccessControl.sol\":3004:3033  _roles[role].members[account] */\n      0xffffffffffffffffffffffffffffffffffffffff\n      and\n      0xffffffffffffffffffffffffffffffffffffffff\n      and\n      dup2\n      mstore\n      0x20\n      add\n      swap1\n      dup2\n      mstore\n      0x20\n      add\n      0x00\n      keccak256\n      0x00\n      swap1\n      sload\n      swap1\n      0x0100\n      exp\n      swap1\n      div\n      0xff\n      and\n        /* \"@openzeppelin/contracts/access/AccessControl.sol\":2997:3033  return _roles[role].members[account] */\n      swap1\n      pop\n        /* \"@openzeppelin/contracts/access/AccessControl.sol\":2895:3040  function hasRole(bytes32 role, address account) public view virtual override returns (bool) {... */\n      swap3\n      swap2\n      pop\n      pop\n      jump\t// out\n        /* \"contracts/Vote.sol\":1241:1280  mapping(uint256 => voter) public Voters */\n    tag_81:\n      mstore(0x20, 0x08)\n      dup1\n      0x00\n      mstore\n      keccak256(0x00, 0x40)\n      0x00\n      swap2\n      pop\n      swap1\n      pop\n      dup1\n      0x00\n      add\n      0x00\n      swap1\n      sload\n      swap1\n      0x0100\n      exp\n      swap1\n      div\n      0xffffffffffffffffffffffffffffffffffffffff\n      and\n      swap1\n      dup1\n      0x01\n      add\n      sload\n      swap1\n      dup1\n      0x02\n      add\n      sload\n      swap1\n      dup1\n      0x03\n      add\n      0x00\n      swap1\n      sload\n      swap1\n      0x0100\n      exp\n      swap1\n      div\n      0xff\n      and\n      swap1\n      pop\n      dup5\n      jump\t// out\n        /* \"contracts/Vote.sol\":3534:3651  function retrieveCandidate(uint256 num) public view returns (candidate memory){... */\n    tag_86:\n        /* \"contracts/Vote.sol\":3595:3611  candidate memory */\n      tag_177\n      tag_178\n      jump\t// in\n    tag_177:\n        /* \"contracts/Vote.sol\":3629:3639  Candidates */\n      0x07\n        /* \"contracts/Vote.sol\":3629:3644  Candidates[num] */\n      0x00\n        /* \"contracts/Vote.sol\":3640:3643  num */\n      dup4\n        /* \"contracts/Vote.sol\":3629:3644  Candidates[num] */\n      dup2\n      mstore\n      0x20\n      add\n      swap1\n      dup2\n      mstore\n      0x20\n      add\n      0x00\n      keccak256\n        /* \"contracts/Vote.sol\":3622:3644  return Candidates[num] */\n      mload(0x40)\n      dup1\n      0x60\n      add\n      0x40\n      mstore\n      swap1\n      dup2\n      0x00\n      dup3\n      add\n      dup1\n      sload\n      tag_180\n      swap1\n      tag_119\n      jump\t// in\n    tag_180:\n      dup1\n      0x1f\n      add\n      0x20\n      dup1\n      swap2\n      div\n      mul\n      0x20\n      add\n      mload(0x40)\n      swap1\n      dup2\n      add\n      0x40\n      mstore\n      dup1\n      swap3\n      swap2\n      swap1\n      dup2\n      dup2\n      mstore\n      0x20\n      add\n      dup3\n      dup1\n      sload\n      tag_181\n      swap1\n      tag_119\n      jump\t// in\n    tag_181:\n      dup1\n      iszero\n      tag_182\n      jumpi\n      dup1\n      0x1f\n      lt\n      tag_183\n      jumpi\n      0x0100\n      dup1\n      dup4\n      sload\n      div\n      mul\n      dup4\n      mstore\n      swap2\n      0x20\n      add\n      swap2\n      jump(tag_182)\n    tag_183:\n      dup3\n      add\n      swap2\n      swap1\n      0x00\n      mstore\n      keccak256(0x00, 0x20)\n      swap1\n    tag_184:\n      dup2\n      sload\n      dup2\n      mstore\n      swap1\n      0x01\n      add\n      swap1\n      0x20\n      add\n      dup1\n      dup4\n      gt\n      tag_184\n      jumpi\n      dup3\n      swap1\n      sub\n      0x1f\n      and\n      dup3\n      add\n      swap2\n    tag_182:\n      pop\n      pop\n      pop\n      pop\n      pop\n      dup2\n      mstore\n      0x20\n      add\n      0x01\n      dup3\n      add\n      0x00\n      swap1\n      sload\n      swap1\n      0x0100\n      exp\n      swap1\n      div\n      0xffffffffffffffffffffffffffffffffffffffff\n      and\n      0xffffffffffffffffffffffffffffffffffffffff\n      and\n      0xffffffffffffffffffffffffffffffffffffffff\n      and\n      dup2\n      mstore\n      0x20\n      add\n      0x02\n      dup3\n      add\n      dup1\n      sload\n      tag_185\n      swap1\n      tag_119\n      jump\t// in\n    tag_185:\n      dup1\n      0x1f\n      add\n      0x20\n      dup1\n      swap2\n      div\n      mul\n      0x20\n      add\n      mload(0x40)\n      swap1\n      dup2\n      add\n      0x40\n      mstore\n      dup1\n      swap3\n      swap2\n      swap1\n      dup2\n      dup2\n      mstore\n      0x20\n      add\n      dup3\n      dup1\n      sload\n      tag_186\n      swap1\n      tag_119\n      jump\t// in\n    tag_186:\n      dup1\n      iszero\n      tag_187\n      jumpi\n      dup1\n      0x1f\n      lt\n      tag_188\n      jumpi\n      0x0100\n      dup1\n      dup4\n      sload\n      div\n      mul\n      dup4\n      mstore\n      swap2\n      0x20\n      add\n      swap2\n      jump(tag_187)\n    tag_188:\n      dup3\n      add\n      swap2\n      swap1\n      0x00\n      mstore\n      keccak256(0x00, 0x20)\n      swap1\n    tag_189:\n      dup2\n      sload\n      dup2\n      mstore\n      swap1\n      0x01\n      add\n      swap1\n      0x20\n      add\n      dup1\n      dup4\n      gt\n      tag_189\n      jumpi\n      dup3\n      swap1\n      sub\n      0x1f\n      and\n      dup3\n      add\n      swap2\n    tag_187:\n      pop\n      pop\n      pop\n      pop\n      pop\n      dup2\n      mstore\n      pop\n      pop\n      swap1\n      pop\n        /* \"contracts/Vote.sol\":3534:3651  function retrieveCandidate(uint256 num) public view returns (candidate memory){... */\n      swap2\n      swap1\n      pop\n      jump\t// out\n        /* \"@openzeppelin/contracts/access/AccessControl.sol\":2027:2076  bytes32 public constant DEFAULT_ADMIN_ROLE = 0x00 */\n    tag_90:\n        /* \"@openzeppelin/contracts/access/AccessControl.sol\":2072:2076  0x00 */\n      0x00\n        /* \"@openzeppelin/contracts/access/AccessControl.sol\":2027:2076  bytes32 public constant DEFAULT_ADMIN_ROLE = 0x00 */\n      dup1\n      shl\n      dup2\n      jump\t// out\n        /* \"contracts/Vote.sol\":586:641  bytes32 public constant VOTER_ROLE = keccak256(\"VOTER\") */\n    tag_93:\n        /* \"contracts/Vote.sol\":623:641  keccak256(\"VOTER\") */\n      0x15283fd96aa656c9df35ac2fcb112678a5f24f1ca97e591a97d1d16003dbfc9c\n        /* \"contracts/Vote.sol\":586:641  bytes32 public constant VOTER_ROLE = keccak256(\"VOTER\") */\n      dup2\n      jump\t// out\n        /* \"@openzeppelin/contracts/access/AccessControl.sol\":5241:5388  function revokeRole(bytes32 role, address account) public virtual override onlyRole(getRoleAdmin(role)) {... */\n    tag_97:\n        /* \"@openzeppelin/contracts/access/AccessControl.sol\":5325:5343  getRoleAdmin(role) */\n      tag_190\n        /* \"@openzeppelin/contracts/access/AccessControl.sol\":5338:5342  role */\n      dup3\n        /* \"@openzeppelin/contracts/access/AccessControl.sol\":5325:5337  getRoleAdmin */\n      tag_42\n        /* \"@openzeppelin/contracts/access/AccessControl.sol\":5325:5343  getRoleAdmin(role) */\n      jump\t// in\n    tag_190:\n        /* \"@openzeppelin/contracts/access/AccessControl.sol\":2505:2521  _checkRole(role) */\n      tag_192\n        /* \"@openzeppelin/contracts/access/AccessControl.sol\":2516:2520  role */\n      dup2\n        /* \"@openzeppelin/contracts/access/AccessControl.sol\":2505:2515  _checkRole */\n      tag_132\n        /* \"@openzeppelin/contracts/access/AccessControl.sol\":2505:2521  _checkRole(role) */\n      jump\t// in\n    tag_192:\n        /* \"@openzeppelin/contracts/access/AccessControl.sol\":5355:5381  _revokeRole(role, account) */\n      tag_194\n        /* \"@openzeppelin/contracts/access/AccessControl.sol\":5367:5371  role */\n      dup4\n        /* \"@openzeppelin/contracts/access/AccessControl.sol\":5373:5380  account */\n      dup4\n        /* \"@openzeppelin/contracts/access/AccessControl.sol\":5355:5366  _revokeRole */\n      tag_150\n        /* \"@openzeppelin/contracts/access/AccessControl.sol\":5355:5381  _revokeRole(role, account) */\n      jump\t// in\n    tag_194:\n        /* \"@openzeppelin/contracts/access/AccessControl.sol\":5241:5388  function revokeRole(bytes32 role, address account) public virtual override onlyRole(getRoleAdmin(role)) {... */\n      pop\n      pop\n      pop\n      jump\t// out\n        /* \"contracts/Vote.sol\":2262:2561  function createCandidate(string memory name, address candAddress, uint256 partyNum) public isInecExec {... */\n    tag_101:\n        /* \"contracts/Vote.sol\":1535:1570  hasRole(INEC_EXEC_ROLE, msg.sender) */\n      tag_196\n        /* \"contracts/Vote.sol\":558:580  keccak256(\"INEC_EXEC\") */\n      0x082f6ed76e0352438e6a6e35c77719c3f04bf277fdc8fec7e5ff5f65e001d902\n        /* \"contracts/Vote.sol\":1559:1569  msg.sender */\n      caller\n        /* \"contracts/Vote.sol\":1535:1542  hasRole */\n      tag_77\n        /* \"contracts/Vote.sol\":1535:1570  hasRole(INEC_EXEC_ROLE, msg.sender) */\n      jump\t// in\n    tag_196:\n        /* \"contracts/Vote.sol\":1527:1606  require(hasRole(INEC_EXEC_ROLE, msg.sender), \"Caller is not an INEC executive\") */\n      tag_197\n      jumpi\n      mload(0x40)\n      0x08c379a000000000000000000000000000000000000000000000000000000000\n      dup2\n      mstore\n      0x04\n      add\n      tag_198\n      swap1\n      tag_155\n      jump\t// in\n    tag_198:\n      mload(0x40)\n      dup1\n      swap2\n      sub\n      swap1\n      revert\n    tag_197:\n        /* \"contracts/Vote.sol\":2406:2410  name */\n      dup3\n        /* \"contracts/Vote.sol\":2374:2384  Candidates */\n      0x07\n        /* \"contracts/Vote.sol\":2374:2398  Candidates[candidateNum] */\n      0x00\n        /* \"contracts/Vote.sol\":2385:2397  candidateNum */\n      sload(0x03)\n        /* \"contracts/Vote.sol\":2374:2398  Candidates[candidateNum] */\n      dup2\n      mstore\n      0x20\n      add\n      swap1\n      dup2\n      mstore\n      0x20\n      add\n      0x00\n      keccak256\n        /* \"contracts/Vote.sol\":2374:2403  Candidates[candidateNum].name */\n      0x00\n      add\n        /* \"contracts/Vote.sol\":2374:2410  Candidates[candidateNum].name = name */\n      swap1\n      dup1\n      mload\n      swap1\n      0x20\n      add\n      swap1\n      tag_200\n      swap3\n      swap2\n      swap1\n      tag_201\n      jump\t// in\n    tag_200:\n      pop\n        /* \"contracts/Vote.sol\":2452:2463  candAddress */\n      dup2\n        /* \"contracts/Vote.sol\":2420:2430  Candidates */\n      0x07\n        /* \"contracts/Vote.sol\":2420:2444  Candidates[candidateNum] */\n      0x00\n        /* \"contracts/Vote.sol\":2431:2443  candidateNum */\n      sload(0x03)\n        /* \"contracts/Vote.sol\":2420:2444  Candidates[candidateNum] */\n      dup2\n      mstore\n      0x20\n      add\n      swap1\n      dup2\n      mstore\n      0x20\n      add\n      0x00\n      keccak256\n        /* \"contracts/Vote.sol\":2420:2449  Candidates[candidateNum].addr */\n      0x01\n      add\n      0x00\n        /* \"contracts/Vote.sol\":2420:2463  Candidates[candidateNum].addr = candAddress */\n      0x0100\n      exp\n      dup2\n      sload\n      dup2\n      0xffffffffffffffffffffffffffffffffffffffff\n      mul\n      not\n      and\n      swap1\n      dup4\n      0xffffffffffffffffffffffffffffffffffffffff\n      and\n      mul\n      or\n      swap1\n      sstore\n      pop\n        /* \"contracts/Vote.sol\":2506:2511  party */\n      0x06\n        /* \"contracts/Vote.sol\":2512:2520  partyNum */\n      dup2\n        /* \"contracts/Vote.sol\":2506:2521  party[partyNum] */\n      dup2\n      sload\n      dup2\n      lt\n      tag_202\n      jumpi\n      tag_203\n      tag_162\n      jump\t// in\n    tag_203:\n    tag_202:\n      swap1\n      0x00\n      mstore\n      keccak256(0x00, 0x20)\n      add\n        /* \"contracts/Vote.sol\":2473:2483  Candidates */\n      0x07\n        /* \"contracts/Vote.sol\":2473:2497  Candidates[candidateNum] */\n      0x00\n        /* \"contracts/Vote.sol\":2484:2496  candidateNum */\n      sload(0x03)\n        /* \"contracts/Vote.sol\":2473:2497  Candidates[candidateNum] */\n      dup2\n      mstore\n      0x20\n      add\n      swap1\n      dup2\n      mstore\n      0x20\n      add\n      0x00\n      keccak256\n        /* \"contracts/Vote.sol\":2473:2503  Candidates[candidateNum].party */\n      0x02\n      add\n        /* \"contracts/Vote.sol\":2473:2521  Candidates[candidateNum].party = party[partyNum] */\n      swap1\n      dup1\n      sload\n      tag_205\n      swap1\n      tag_119\n      jump\t// in\n    tag_205:\n      tag_206\n      swap3\n      swap2\n      swap1\n      tag_207\n      jump\t// in\n    tag_206:\n      pop\n        /* \"contracts/Vote.sol\":2533:2545  candidateNum */\n      0x03\n      0x00\n        /* \"contracts/Vote.sol\":2533:2548  candidateNum ++ */\n      dup2\n      sload\n      dup1\n      swap3\n      swap2\n      swap1\n      tag_208\n      swap1\n      tag_167\n      jump\t// in\n    tag_208:\n      swap2\n      swap1\n      pop\n      sstore\n      pop\n        /* \"contracts/Vote.sol\":2262:2561  function createCandidate(string memory name, address candAddress, uint256 partyNum) public isInecExec {... */\n      pop\n      pop\n      pop\n      jump\t// out\n        /* \"contracts/Vote.sol\":1942:2052  function createInecExec(address _account) public onlyOwner{... */\n    tag_105:\n        /* \"@openzeppelin/contracts/access/Ownable.sol\":1094:1107  _checkOwner() */\n      tag_210\n        /* \"@openzeppelin/contracts/access/Ownable.sol\":1094:1105  _checkOwner */\n      tag_171\n        /* \"@openzeppelin/contracts/access/Ownable.sol\":1094:1107  _checkOwner() */\n      jump\t// in\n    tag_210:\n        /* \"contracts/Vote.sol\":2010:2045  grantRole(INEC_EXEC_ROLE, _account) */\n      tag_212\n        /* \"contracts/Vote.sol\":558:580  keccak256(\"INEC_EXEC\") */\n      0x082f6ed76e0352438e6a6e35c77719c3f04bf277fdc8fec7e5ff5f65e001d902\n        /* \"contracts/Vote.sol\":2036:2044  _account */\n      dup3\n        /* \"contracts/Vote.sol\":2010:2019  grantRole */\n      tag_56\n        /* \"contracts/Vote.sol\":2010:2045  grantRole(INEC_EXEC_ROLE, _account) */\n      jump\t// in\n    tag_212:\n        /* \"contracts/Vote.sol\":1942:2052  function createInecExec(address _account) public onlyOwner{... */\n      pop\n      jump\t// out\n        /* \"contracts/Vote.sol\":2686:2872  function regVoter(address _account, uint256 _nin) public {... */\n    tag_109:\n        /* \"contracts/Vote.sol\":2777:2785  _account */\n      dup2\n        /* \"contracts/Vote.sol\":2753:2759  Voters */\n      0x08\n        /* \"contracts/Vote.sol\":2753:2769  Voters[voterNum] */\n      0x00\n        /* \"contracts/Vote.sol\":2760:2768  voterNum */\n      sload(0x04)\n        /* \"contracts/Vote.sol\":2753:2769  Voters[voterNum] */\n      dup2\n      mstore\n      0x20\n      add\n      swap1\n      dup2\n      mstore\n      0x20\n      add\n      0x00\n      keccak256\n        /* \"contracts/Vote.sol\":2753:2774  Voters[voterNum].addr */\n      0x00\n      add\n      0x00\n        /* \"contracts/Vote.sol\":2753:2785  Voters[voterNum].addr = _account */\n      0x0100\n      exp\n      dup2\n      sload\n      dup2\n      0xffffffffffffffffffffffffffffffffffffffff\n      mul\n      not\n      and\n      swap1\n      dup4\n      0xffffffffffffffffffffffffffffffffffffffff\n      and\n      mul\n      or\n      swap1\n      sstore\n      pop\n        /* \"contracts/Vote.sol\":2818:2822  _nin */\n      dup1\n        /* \"contracts/Vote.sol\":2795:2801  Voters */\n      0x08\n        /* \"contracts/Vote.sol\":2795:2811  Voters[voterNum] */\n      0x00\n        /* \"contracts/Vote.sol\":2802:2810  voterNum */\n      sload(0x04)\n        /* \"contracts/Vote.sol\":2795:2811  Voters[voterNum] */\n      dup2\n      mstore\n      0x20\n      add\n      swap1\n      dup2\n      mstore\n      0x20\n      add\n      0x00\n      keccak256\n        /* \"contracts/Vote.sol\":2795:2815  Voters[voterNum].nin */\n      0x01\n      add\n        /* \"contracts/Vote.sol\":2795:2822  Voters[voterNum].nin = _nin */\n      dup2\n      swap1\n      sstore\n      pop\n        /* \"contracts/Vote.sol\":2833:2865  _setupRole(VOTER_ROLE, _account) */\n      tag_214\n        /* \"contracts/Vote.sol\":623:641  keccak256(\"VOTER\") */\n      0x15283fd96aa656c9df35ac2fcb112678a5f24f1ca97e591a97d1d16003dbfc9c\n        /* \"contracts/Vote.sol\":2856:2864  _account */\n      dup4\n        /* \"contracts/Vote.sol\":2833:2843  _setupRole */\n      tag_215\n        /* \"contracts/Vote.sol\":2833:2865  _setupRole(VOTER_ROLE, _account) */\n      jump\t// in\n    tag_214:\n        /* \"contracts/Vote.sol\":2686:2872  function regVoter(address _account, uint256 _nin) public {... */\n      pop\n      pop\n      jump\t// out\n        /* \"@openzeppelin/contracts/access/Ownable.sol\":2081:2279  function transferOwnership(address newOwner) public virtual onlyOwner {... */\n    tag_112:\n        /* \"@openzeppelin/contracts/access/Ownable.sol\":1094:1107  _checkOwner() */\n      tag_217\n        /* \"@openzeppelin/contracts/access/Ownable.sol\":1094:1105  _checkOwner */\n      tag_171\n        /* \"@openzeppelin/contracts/access/Ownable.sol\":1094:1107  _checkOwner() */\n      jump\t// in\n    tag_217:\n        /* \"@openzeppelin/contracts/access/Ownable.sol\":2189:2190  0 */\n      0x00\n        /* \"@openzeppelin/contracts/access/Ownable.sol\":2169:2191  newOwner != address(0) */\n      0xffffffffffffffffffffffffffffffffffffffff\n      and\n        /* \"@openzeppelin/contracts/access/Ownable.sol\":2169:2177  newOwner */\n      dup2\n        /* \"@openzeppelin/contracts/access/Ownable.sol\":2169:2191  newOwner != address(0) */\n      0xffffffffffffffffffffffffffffffffffffffff\n      and\n      eq\n      iszero\n        /* \"@openzeppelin/contracts/access/Ownable.sol\":2161:2234  require(newOwner != address(0), \"Ownable: new owner is the zero address\") */\n      tag_219\n      jumpi\n      mload(0x40)\n      0x08c379a000000000000000000000000000000000000000000000000000000000\n      dup2\n      mstore\n      0x04\n      add\n      tag_220\n      swap1\n      tag_221\n      jump\t// in\n    tag_220:\n      mload(0x40)\n      dup1\n      swap2\n      sub\n      swap1\n      revert\n    tag_219:\n        /* \"@openzeppelin/contracts/access/Ownable.sol\":2244:2272  _transferOwnership(newOwner) */\n      tag_222\n        /* \"@openzeppelin/contracts/access/Ownable.sol\":2263:2271  newOwner */\n      dup2\n        /* \"@openzeppelin/contracts/access/Ownable.sol\":2244:2262  _transferOwnership */\n      tag_174\n        /* \"@openzeppelin/contracts/access/Ownable.sol\":2244:2272  _transferOwnership(newOwner) */\n      jump\t// in\n    tag_222:\n        /* \"@openzeppelin/contracts/access/Ownable.sol\":2081:2279  function transferOwnership(address newOwner) public virtual onlyOwner {... */\n      pop\n      jump\t// out\n        /* \"@openzeppelin/contracts/utils/introspection/ERC165.sol\":829:984  function supportsInterface(bytes4 interfaceId) public view virtual override returns (bool) {... */\n    tag_116:\n        /* \"@openzeppelin/contracts/utils/introspection/ERC165.sol\":914:918  bool */\n      0x00\n        /* \"@openzeppelin/contracts/utils/introspection/ERC165.sol\":952:977  type(IERC165).interfaceId */\n      0x01ffc9a700000000000000000000000000000000000000000000000000000000\n        /* \"@openzeppelin/contracts/utils/introspection/ERC165.sol\":937:977  interfaceId == type(IERC165).interfaceId */\n      not(0xffffffffffffffffffffffffffffffffffffffffffffffffffffffff)\n      and\n        /* \"@openzeppelin/contracts/utils/introspection/ERC165.sol\":937:948  interfaceId */\n      dup3\n        /* \"@openzeppelin/contracts/utils/introspection/ERC165.sol\":937:977  interfaceId == type(IERC165).interfaceId */\n      not(0xffffffffffffffffffffffffffffffffffffffffffffffffffffffff)\n      and\n      eq\n        /* \"@openzeppelin/contracts/utils/introspection/ERC165.sol\":930:977  return interfaceId == type(IERC165).interfaceId */\n      swap1\n      pop\n        /* \"@openzeppelin/contracts/utils/introspection/ERC165.sol\":829:984  function supportsInterface(bytes4 interfaceId) public view virtual override returns (bool) {... */\n      swap2\n      swap1\n      pop\n      jump\t// out\n        /* \"@openzeppelin/contracts/access/AccessControl.sol\":3334:3437  function _checkRole(bytes32 role) internal view virtual {... */\n    tag_132:\n        /* \"@openzeppelin/contracts/access/AccessControl.sol\":3400:3430  _checkRole(role, _msgSender()) */\n      tag_225\n        /* \"@openzeppelin/contracts/access/AccessControl.sol\":3411:3415  role */\n      dup2\n        /* \"@openzeppelin/contracts/access/AccessControl.sol\":3417:3429  _msgSender() */\n      tag_226\n        /* \"@openzeppelin/contracts/access/AccessControl.sol\":3417:3427  _msgSender */\n      tag_145\n        /* \"@openzeppelin/contracts/access/AccessControl.sol\":3417:3429  _msgSender() */\n      jump\t// in\n    tag_226:\n        /* \"@openzeppelin/contracts/access/AccessControl.sol\":3400:3410  _checkRole */\n      tag_227\n        /* \"@openzeppelin/contracts/access/AccessControl.sol\":3400:3430  _checkRole(role, _msgSender()) */\n      jump\t// in\n    tag_225:\n        /* \"@openzeppelin/contracts/access/AccessControl.sol\":3334:3437  function _checkRole(bytes32 role) internal view virtual {... */\n      pop\n      jump\t// out\n        /* \"@openzeppelin/contracts/access/AccessControl.sol\":7474:7707  function _grantRole(bytes32 role, address account) internal virtual {... */\n    tag_135:\n        /* \"@openzeppelin/contracts/access/AccessControl.sol\":7557:7579  hasRole(role, account) */\n      tag_229\n        /* \"@openzeppelin/contracts/access/AccessControl.sol\":7565:7569  role */\n      dup3\n        /* \"@openzeppelin/contracts/access/AccessControl.sol\":7571:7578  account */\n      dup3\n        /* \"@openzeppelin/contracts/access/AccessControl.sol\":7557:7564  hasRole */\n      tag_77\n        /* \"@openzeppelin/contracts/access/AccessControl.sol\":7557:7579  hasRole(role, account) */\n      jump\t// in\n    tag_229:\n        /* \"@openzeppelin/contracts/access/AccessControl.sol\":7552:7701  if (!hasRole(role, account)) {... */\n      tag_230\n      jumpi\n        /* \"@openzeppelin/contracts/access/AccessControl.sol\":7627:7631  true */\n      0x01\n        /* \"@openzeppelin/contracts/access/AccessControl.sol\":7595:7601  _roles */\n      dup1\n        /* \"@openzeppelin/contracts/access/AccessControl.sol\":7595:7607  _roles[role] */\n      0x00\n        /* \"@openzeppelin/contracts/access/AccessControl.sol\":7602:7606  role */\n      dup5\n        /* \"@openzeppelin/contracts/access/AccessControl.sol\":7595:7607  _roles[role] */\n      dup2\n      mstore\n      0x20\n      add\n      swap1\n      dup2\n      mstore\n      0x20\n      add\n      0x00\n      keccak256\n        /* \"@openzeppelin/contracts/access/AccessControl.sol\":7595:7615  _roles[role].members */\n      0x00\n      add\n        /* \"@openzeppelin/contracts/access/AccessControl.sol\":7595:7624  _roles[role].members[account] */\n      0x00\n        /* \"@openzeppelin/contracts/access/AccessControl.sol\":7616:7623  account */\n      dup4\n        /* \"@openzeppelin/contracts/access/AccessControl.sol\":7595:7624  _roles[role].members[account] */\n      0xffffffffffffffffffffffffffffffffffffffff\n      and\n      0xffffffffffffffffffffffffffffffffffffffff\n      and\n      dup2\n      mstore\n      0x20\n      add\n      swap1\n      dup2\n      mstore\n      0x20\n      add\n      0x00\n      keccak256\n      0x00\n        /* \"@openzeppelin/contracts/access/AccessControl.sol\":7595:7631  _roles[role].members[account] = true */\n      0x0100\n      exp\n      dup2\n      sload\n      dup2\n      0xff\n      mul\n      not\n      and\n      swap1\n      dup4\n      iszero\n      iszero\n      mul\n      or\n      swap1\n      sstore\n      pop\n        /* \"@openzeppelin/contracts/access/AccessControl.sol\":7677:7689  _msgSender() */\n      tag_231\n        /* \"@openzeppelin/contracts/access/AccessControl.sol\":7677:7687  _msgSender */\n      tag_145\n        /* \"@openzeppelin/contracts/access/AccessControl.sol\":7677:7689  _msgSender() */\n      jump\t// in\n    tag_231:\n        /* \"@openzeppelin/contracts/access/AccessControl.sol\":7650:7690  RoleGranted(role, account, _msgSender()) */\n      0xffffffffffffffffffffffffffffffffffffffff\n      and\n        /* \"@openzeppelin/contracts/access/AccessControl.sol\":7668:7675  account */\n      dup2\n        /* \"@openzeppelin/contracts/access/AccessControl.sol\":7650:7690  RoleGranted(role, account, _msgSender()) */\n      0xffffffffffffffffffffffffffffffffffffffff\n      and\n        /* \"@openzeppelin/contracts/access/AccessControl.sol\":7662:7666  role */\n      dup4\n        /* \"@openzeppelin/contracts/access/AccessControl.sol\":7650:7690  RoleGranted(role, account, _msgSender()) */\n      0x2f8788117e7eff1d82e926ec794901d17c78024a50270940304540a733656f0d\n      mload(0x40)\n      mload(0x40)\n      dup1\n      swap2\n      sub\n      swap1\n      log4\n        /* \"@openzeppelin/contracts/access/AccessControl.sol\":7552:7701  if (!hasRole(role, account)) {... */\n    tag_230:\n        /* \"@openzeppelin/contracts/access/AccessControl.sol\":7474:7707  function _grantRole(bytes32 role, address account) internal virtual {... */\n      pop\n      pop\n      jump\t// out\n        /* \"@openzeppelin/contracts/utils/Context.sol\":640:736  function _msgSender() internal view virtual returns (address) {... */\n    tag_145:\n        /* \"@openzeppelin/contracts/utils/Context.sol\":693:700  address */\n      0x00\n        /* \"@openzeppelin/contracts/utils/Context.sol\":719:729  msg.sender */\n      caller\n        /* \"@openzeppelin/contracts/utils/Context.sol\":712:729  return msg.sender */\n      swap1\n      pop\n        /* \"@openzeppelin/contracts/utils/Context.sol\":640:736  function _msgSender() internal view virtual returns (address) {... */\n      swap1\n      jump\t// out\n        /* \"@openzeppelin/contracts/access/AccessControl.sol\":7878:8112  function _revokeRole(bytes32 role, address account) internal virtual {... */\n    tag_150:\n        /* \"@openzeppelin/contracts/access/AccessControl.sol\":7961:7983  hasRole(role, account) */\n      tag_234\n        /* \"@openzeppelin/contracts/access/AccessControl.sol\":7969:7973  role */\n      dup3\n        /* \"@openzeppelin/contracts/access/AccessControl.sol\":7975:7982  account */\n      dup3\n        /* \"@openzeppelin/contracts/access/AccessControl.sol\":7961:7968  hasRole */\n      tag_77\n        /* \"@openzeppelin/contracts/access/AccessControl.sol\":7961:7983  hasRole(role, account) */\n      jump\t// in\n    tag_234:\n        /* \"@openzeppelin/contracts/access/AccessControl.sol\":7957:8106  if (hasRole(role, account)) {... */\n      iszero\n      tag_235\n      jumpi\n        /* \"@openzeppelin/contracts/access/AccessControl.sol\":8031:8036  false */\n      0x00\n        /* \"@openzeppelin/contracts/access/AccessControl.sol\":7999:8005  _roles */\n      0x01\n        /* \"@openzeppelin/contracts/access/AccessControl.sol\":7999:8011  _roles[role] */\n      0x00\n        /* \"@openzeppelin/contracts/access/AccessControl.sol\":8006:8010  role */\n      dup5\n        /* \"@openzeppelin/contracts/access/AccessControl.sol\":7999:8011  _roles[role] */\n      dup2\n      mstore\n      0x20\n      add\n      swap1\n      dup2\n      mstore\n      0x20\n      add\n      0x00\n      keccak256\n        /* \"@openzeppelin/contracts/access/AccessControl.sol\":7999:8019  _roles[role].members */\n      0x00\n      add\n        /* \"@openzeppelin/contracts/access/AccessControl.sol\":7999:8028  _roles[role].members[account] */\n      0x00\n        /* \"@openzeppelin/contracts/access/AccessControl.sol\":8020:8027  account */\n      dup4\n        /* \"@openzeppelin/contracts/access/AccessControl.sol\":7999:8028  _roles[role].members[account] */\n      0xffffffffffffffffffffffffffffffffffffffff\n      and\n      0xffffffffffffffffffffffffffffffffffffffff\n      and\n      dup2\n      mstore\n      0x20\n      add\n      swap1\n      dup2\n      mstore\n      0x20\n      add\n      0x00\n      keccak256\n      0x00\n        /* \"@openzeppelin/contracts/access/AccessControl.sol\":7999:8036  _roles[role].members[account] = false */\n      0x0100\n      exp\n      dup2\n      sload\n      dup2\n      0xff\n      mul\n      not\n      and\n      swap1\n      dup4\n      iszero\n      iszero\n      mul\n      or\n      swap1\n      sstore\n      pop\n        /* \"@openzeppelin/contracts/access/AccessControl.sol\":8082:8094  _msgSender() */\n      tag_236\n        /* \"@openzeppelin/contracts/access/AccessControl.sol\":8082:8092  _msgSender */\n      tag_145\n        /* \"@openzeppelin/contracts/access/AccessControl.sol\":8082:8094  _msgSender() */\n      jump\t// in\n    tag_236:\n        /* \"@openzeppelin/contracts/access/AccessControl.sol\":8055:8095  RoleRevoked(role, account, _msgSender()) */\n      0xffffffffffffffffffffffffffffffffffffffff\n      and\n        /* \"@openzeppelin/contracts/access/AccessControl.sol\":8073:8080  account */\n      dup2\n        /* \"@openzeppelin/contracts/access/AccessControl.sol\":8055:8095  RoleRevoked(role, account, _msgSender()) */\n      0xffffffffffffffffffffffffffffffffffffffff\n      and\n        /* \"@openzeppelin/contracts/access/AccessControl.sol\":8067:8071  role */\n      dup4\n        /* \"@openzeppelin/contracts/access/AccessControl.sol\":8055:8095  RoleRevoked(role, account, _msgSender()) */\n      0xf6391f5c32d9c69d2a47ea670b442974b53935d1edc7fd64eb21e047a839171b\n      mload(0x40)\n      mload(0x40)\n      dup1\n      swap2\n      sub\n      swap1\n      log4\n        /* \"@openzeppelin/contracts/access/AccessControl.sol\":7957:8106  if (hasRole(role, account)) {... */\n    tag_235:\n        /* \"@openzeppelin/contracts/access/AccessControl.sol\":7878:8112  function _revokeRole(bytes32 role, address account) internal virtual {... */\n      pop\n      pop\n      jump\t// out\n        /* \"@openzeppelin/contracts/access/Ownable.sol\":1359:1489  function _checkOwner() internal view virtual {... */\n    tag_171:\n        /* \"@openzeppelin/contracts/access/Ownable.sol\":1433:1445  _msgSender() */\n      tag_238\n        /* \"@openzeppelin/contracts/access/Ownable.sol\":1433:1443  _msgSender */\n      tag_145\n        /* \"@openzeppelin/contracts/access/Ownable.sol\":1433:1445  _msgSender() */\n      jump\t// in\n    tag_238:\n        /* \"@openzeppelin/contracts/access/Ownable.sol\":1422:1445  owner() == _msgSender() */\n      0xffffffffffffffffffffffffffffffffffffffff\n      and\n        /* \"@openzeppelin/contracts/access/Ownable.sol\":1422:1429  owner() */\n      tag_239\n        /* \"@openzeppelin/contracts/access/Ownable.sol\":1422:1427  owner */\n      tag_72\n        /* \"@openzeppelin/contracts/access/Ownable.sol\":1422:1429  owner() */\n      jump\t// in\n    tag_239:\n        /* \"@openzeppelin/contracts/access/Ownable.sol\":1422:1445  owner() == _msgSender() */\n      0xffffffffffffffffffffffffffffffffffffffff\n      and\n      eq\n        /* \"@openzeppelin/contracts/access/Ownable.sol\":1414:1482  require(owner() == _msgSender(), \"Ownable: caller is not the owner\") */\n      tag_240\n      jumpi\n      mload(0x40)\n      0x08c379a000000000000000000000000000000000000000000000000000000000\n      dup2\n      mstore\n      0x04\n      add\n      tag_241\n      swap1\n      tag_242\n      jump\t// in\n    tag_241:\n      mload(0x40)\n      dup1\n      swap2\n      sub\n      swap1\n      revert\n    tag_240:\n        /* \"@openzeppelin/contracts/access/Ownable.sol\":1359:1489  function _checkOwner() internal view virtual {... */\n      jump\t// out\n        /* \"@openzeppelin/contracts/access/Ownable.sol\":2433:2620  function _transferOwnership(address newOwner) internal virtual {... */\n    tag_174:\n        /* \"@openzeppelin/contracts/access/Ownable.sol\":2506:2522  address oldOwner */\n      0x00\n        /* \"@openzeppelin/contracts/access/Ownable.sol\":2525:2531  _owner */\n      dup1\n      0x00\n      swap1\n      sload\n      swap1\n      0x0100\n      exp\n      swap1\n      div\n      0xffffffffffffffffffffffffffffffffffffffff\n      and\n        /* \"@openzeppelin/contracts/access/Ownable.sol\":2506:2531  address oldOwner = _owner */\n      swap1\n      pop\n        /* \"@openzeppelin/contracts/access/Ownable.sol\":2550:2558  newOwner */\n      dup2\n        /* \"@openzeppelin/contracts/access/Ownable.sol\":2541:2547  _owner */\n      0x00\n      dup1\n        /* \"@openzeppelin/contracts/access/Ownable.sol\":2541:2558  _owner = newOwner */\n      0x0100\n      exp\n      dup2\n      sload\n      dup2\n      0xffffffffffffffffffffffffffffffffffffffff\n      mul\n      not\n      and\n      swap1\n      dup4\n      0xffffffffffffffffffffffffffffffffffffffff\n      and\n      mul\n      or\n      swap1\n      sstore\n      pop\n        /* \"@openzeppelin/contracts/access/Ownable.sol\":2604:2612  newOwner */\n      dup2\n        /* \"@openzeppelin/contracts/access/Ownable.sol\":2573:2613  OwnershipTransferred(oldOwner, newOwner) */\n      0xffffffffffffffffffffffffffffffffffffffff\n      and\n        /* \"@openzeppelin/contracts/access/Ownable.sol\":2594:2602  oldOwner */\n      dup2\n        /* \"@openzeppelin/contracts/access/Ownable.sol\":2573:2613  OwnershipTransferred(oldOwner, newOwner) */\n      0xffffffffffffffffffffffffffffffffffffffff\n      and\n      0x8be0079c531659141344cd1fd0a4f28419497f9722a3daafe3b4186f6b6457e0\n      mload(0x40)\n      mload(0x40)\n      dup1\n      swap2\n      sub\n      swap1\n      log3\n        /* \"@openzeppelin/contracts/access/Ownable.sol\":2496:2620  {... */\n      pop\n        /* \"@openzeppelin/contracts/access/Ownable.sol\":2433:2620  function _transferOwnership(address newOwner) internal virtual {... */\n      pop\n      jump\t// out\n        /* \"@openzeppelin/contracts/access/AccessControl.sol\":6824:6934  function _setupRole(bytes32 role, address account) internal virtual {... */\n    tag_215:\n        /* \"@openzeppelin/contracts/access/AccessControl.sol\":6902:6927  _grantRole(role, account) */\n      tag_245\n        /* \"@openzeppelin/contracts/access/AccessControl.sol\":6913:6917  role */\n      dup3\n        /* \"@openzeppelin/contracts/access/AccessControl.sol\":6919:6926  account */\n      dup3\n        /* \"@openzeppelin/contracts/access/AccessControl.sol\":6902:6912  _grantRole */\n      tag_135\n        /* \"@openzeppelin/contracts/access/AccessControl.sol\":6902:6927  _grantRole(role, account) */\n      jump\t// in\n    tag_245:\n        /* \"@openzeppelin/contracts/access/AccessControl.sol\":6824:6934  function _setupRole(bytes32 role, address account) internal virtual {... */\n      pop\n      pop\n      jump\t// out\n        /* \"@openzeppelin/contracts/access/AccessControl.sol\":3718:4210  function _checkRole(bytes32 role, address account) internal view virtual {... */\n    tag_227:\n        /* \"@openzeppelin/contracts/access/AccessControl.sol\":3806:3828  hasRole(role, account) */\n      tag_247\n        /* \"@openzeppelin/contracts/access/AccessControl.sol\":3814:3818  role */\n      dup3\n        /* \"@openzeppelin/contracts/access/AccessControl.sol\":3820:3827  account */\n      dup3\n        /* \"@openzeppelin/contracts/access/AccessControl.sol\":3806:3813  hasRole */\n      tag_77\n        /* \"@openzeppelin/contracts/access/AccessControl.sol\":3806:3828  hasRole(role, account) */\n      jump\t// in\n    tag_247:\n        /* \"@openzeppelin/contracts/access/AccessControl.sol\":3801:4204  if (!hasRole(role, account)) {... */\n      tag_248\n      jumpi\n        /* \"@openzeppelin/contracts/access/AccessControl.sol\":3989:4030  Strings.toHexString(uint160(account), 20) */\n      tag_249\n        /* \"@openzeppelin/contracts/access/AccessControl.sol\":4017:4024  account */\n      dup2\n        /* \"@openzeppelin/contracts/access/AccessControl.sol\":3989:4030  Strings.toHexString(uint160(account), 20) */\n      0xffffffffffffffffffffffffffffffffffffffff\n      and\n        /* \"@openzeppelin/contracts/access/AccessControl.sol\":4027:4029  20 */\n      0x14\n        /* \"@openzeppelin/contracts/access/AccessControl.sol\":3989:4008  Strings.toHexString */\n      tag_250\n        /* \"@openzeppelin/contracts/access/AccessControl.sol\":3989:4030  Strings.toHexString(uint160(account), 20) */\n      jump\t// in\n    tag_249:\n        /* \"@openzeppelin/contracts/access/AccessControl.sol\":4101:4139  Strings.toHexString(uint256(role), 32) */\n      tag_251\n        /* \"@openzeppelin/contracts/access/AccessControl.sol\":4129:4133  role */\n      dup4\n        /* \"@openzeppelin/contracts/access/AccessControl.sol\":4121:4134  uint256(role) */\n      0x00\n      shr\n        /* \"@openzeppelin/contracts/access/AccessControl.sol\":4136:4138  32 */\n      0x20\n        /* \"@openzeppelin/contracts/access/AccessControl.sol\":4101:4120  Strings.toHexString */\n      tag_250\n        /* \"@openzeppelin/contracts/access/AccessControl.sol\":4101:4139  Strings.toHexString(uint256(role), 32) */\n      jump\t// in\n    tag_251:\n        /* \"@openzeppelin/contracts/access/AccessControl.sol\":3896:4161  abi.encodePacked(... */\n      add(0x20, mload(0x40))\n      tag_252\n      swap3\n      swap2\n      swap1\n      tag_253\n      jump\t// in\n    tag_252:\n      mload(0x40)\n      0x20\n      dup2\n      dup4\n      sub\n      sub\n      dup2\n      mstore\n      swap1\n      0x40\n      mstore\n        /* \"@openzeppelin/contracts/access/AccessControl.sol\":3844:4193  revert(... */\n      mload(0x40)\n      0x08c379a000000000000000000000000000000000000000000000000000000000\n      dup2\n      mstore\n      0x04\n      add\n      tag_254\n      swap2\n      swap1\n      tag_61\n      jump\t// in\n    tag_254:\n      mload(0x40)\n      dup1\n      swap2\n      sub\n      swap1\n      revert\n        /* \"@openzeppelin/contracts/access/AccessControl.sol\":3801:4204  if (!hasRole(role, account)) {... */\n    tag_248:\n        /* \"@openzeppelin/contracts/access/AccessControl.sol\":3718:4210  function _checkRole(bytes32 role, address account) internal view virtual {... */\n      pop\n      pop\n      jump\t// out\n        /* \"@openzeppelin/contracts/utils/Strings.sol\":1652:2093  function toHexString(uint256 value, uint256 length) internal pure returns (string memory) {... */\n    tag_250:\n        /* \"@openzeppelin/contracts/utils/Strings.sol\":1727:1740  string memory */\n      0x60\n        /* \"@openzeppelin/contracts/utils/Strings.sol\":1752:1771  bytes memory buffer */\n      0x00\n        /* \"@openzeppelin/contracts/utils/Strings.sol\":1797:1798  2 */\n      0x02\n        /* \"@openzeppelin/contracts/utils/Strings.sol\":1788:1794  length */\n      dup4\n        /* \"@openzeppelin/contracts/utils/Strings.sol\":1784:1785  2 */\n      0x02\n        /* \"@openzeppelin/contracts/utils/Strings.sol\":1784:1794  2 * length */\n      tag_256\n      swap2\n      swap1\n      tag_257\n      jump\t// in\n    tag_256:\n        /* \"@openzeppelin/contracts/utils/Strings.sol\":1784:1798  2 * length + 2 */\n      tag_258\n      swap2\n      swap1\n      tag_259\n      jump\t// in\n    tag_258:\n        /* \"@openzeppelin/contracts/utils/Strings.sol\":1774:1799  new bytes(2 * length + 2) */\n      0xffffffffffffffff\n      dup2\n      gt\n      iszero\n      tag_260\n      jumpi\n      tag_261\n      tag_262\n      jump\t// in\n    tag_261:\n    tag_260:\n      mload(0x40)\n      swap1\n      dup1\n      dup3\n      mstore\n      dup1\n      0x1f\n      add\n      not(0x1f)\n      and\n      0x20\n      add\n      dup3\n      add\n      0x40\n      mstore\n      dup1\n      iszero\n      tag_263\n      jumpi\n      dup2\n      0x20\n      add\n      0x01\n      dup3\n      mul\n      dup1\n      calldatasize\n      dup4\n      calldatacopy\n      dup1\n      dup3\n      add\n      swap2\n      pop\n      pop\n      swap1\n      pop\n    tag_263:\n      pop\n        /* \"@openzeppelin/contracts/utils/Strings.sol\":1752:1799  bytes memory buffer = new bytes(2 * length + 2) */\n      swap1\n      pop\n        /* \"@openzeppelin/contracts/utils/Strings.sol\":1809:1824  buffer[0] = \"0\" */\n      0x3000000000000000000000000000000000000000000000000000000000000000\n        /* \"@openzeppelin/contracts/utils/Strings.sol\":1809:1815  buffer */\n      dup2\n        /* \"@openzeppelin/contracts/utils/Strings.sol\":1816:1817  0 */\n      0x00\n        /* \"@openzeppelin/contracts/utils/Strings.sol\":1809:1818  buffer[0] */\n      dup2\n      mload\n      dup2\n      lt\n      tag_264\n      jumpi\n      tag_265\n      tag_162\n      jump\t// in\n    tag_265:\n    tag_264:\n      0x20\n      add\n      add\n        /* \"@openzeppelin/contracts/utils/Strings.sol\":1809:1824  buffer[0] = \"0\" */\n      swap1\n      not(0xffffffffffffffffffffffffffffffffffffffffffffffffffffffffffffff)\n      and\n      swap1\n      dup2\n      0x00\n      byte\n      swap1\n      mstore8\n      pop\n        /* \"@openzeppelin/contracts/utils/Strings.sol\":1834:1849  buffer[1] = \"x\" */\n      0x7800000000000000000000000000000000000000000000000000000000000000\n        /* \"@openzeppelin/contracts/utils/Strings.sol\":1834:1840  buffer */\n      dup2\n        /* \"@openzeppelin/contracts/utils/Strings.sol\":1841:1842  1 */\n      0x01\n        /* \"@openzeppelin/contracts/utils/Strings.sol\":1834:1843  buffer[1] */\n      dup2\n      mload\n      dup2\n      lt\n      tag_266\n      jumpi\n      tag_267\n      tag_162\n      jump\t// in\n    tag_267:\n    tag_266:\n      0x20\n      add\n      add\n        /* \"@openzeppelin/contracts/utils/Strings.sol\":1834:1849  buffer[1] = \"x\" */\n      swap1\n      not(0xffffffffffffffffffffffffffffffffffffffffffffffffffffffffffffff)\n      and\n      swap1\n      dup2\n      0x00\n      byte\n      swap1\n      mstore8\n      pop\n        /* \"@openzeppelin/contracts/utils/Strings.sol\":1864:1873  uint256 i */\n      0x00\n        /* \"@openzeppelin/contracts/utils/Strings.sol\":1889:1890  1 */\n      0x01\n        /* \"@openzeppelin/contracts/utils/Strings.sol\":1880:1886  length */\n      dup5\n        /* \"@openzeppelin/contracts/utils/Strings.sol\":1876:1877  2 */\n      0x02\n        /* \"@openzeppelin/contracts/utils/Strings.sol\":1876:1886  2 * length */\n      tag_271\n      swap2\n      swap1\n      tag_257\n      jump\t// in\n    tag_271:\n        /* \"@openzeppelin/contracts/utils/Strings.sol\":1876:1890  2 * length + 1 */\n      tag_272\n      swap2\n      swap1\n      tag_259\n      jump\t// in\n    tag_272:\n        /* \"@openzeppelin/contracts/utils/Strings.sol\":1864:1890  uint256 i = 2 * length + 1 */\n      swap1\n      pop\n        /* \"@openzeppelin/contracts/utils/Strings.sol\":1859:1991  for (uint256 i = 2 * length + 1; i > 1; --i) {... */\n    tag_268:\n        /* \"@openzeppelin/contracts/utils/Strings.sol\":1896:1897  1 */\n      0x01\n        /* \"@openzeppelin/contracts/utils/Strings.sol\":1892:1893  i */\n      dup2\n        /* \"@openzeppelin/contracts/utils/Strings.sol\":1892:1897  i > 1 */\n      gt\n        /* \"@openzeppelin/contracts/utils/Strings.sol\":1859:1991  for (uint256 i = 2 * length + 1; i > 1; --i) {... */\n      iszero\n      tag_269\n      jumpi\n        /* \"@openzeppelin/contracts/utils/Strings.sol\":1930:1942  _HEX_SYMBOLS */\n      0x3031323334353637383961626364656600000000000000000000000000000000\n        /* \"@openzeppelin/contracts/utils/Strings.sol\":1951:1954  0xf */\n      0x0f\n        /* \"@openzeppelin/contracts/utils/Strings.sol\":1943:1948  value */\n      dup7\n        /* \"@openzeppelin/contracts/utils/Strings.sol\":1943:1954  value & 0xf */\n      and\n        /* \"@openzeppelin/contracts/utils/Strings.sol\":1930:1955  _HEX_SYMBOLS[value & 0xf] */\n      0x10\n      dup2\n      lt\n      tag_273\n      jumpi\n      tag_274\n      tag_162\n      jump\t// in\n    tag_274:\n    tag_273:\n      byte\n      0xf8\n      shl\n        /* \"@openzeppelin/contracts/utils/Strings.sol\":1918:1924  buffer */\n      dup3\n        /* \"@openzeppelin/contracts/utils/Strings.sol\":1925:1926  i */\n      dup3\n        /* \"@openzeppelin/contracts/utils/Strings.sol\":1918:1927  buffer[i] */\n      dup2\n      mload\n      dup2\n      lt\n      tag_275\n      jumpi\n      tag_276\n      tag_162\n      jump\t// in\n    tag_276:\n    tag_275:\n      0x20\n      add\n      add\n        /* \"@openzeppelin/contracts/utils/Strings.sol\":1918:1955  buffer[i] = _HEX_SYMBOLS[value & 0xf] */\n      swap1\n      not(0xffffffffffffffffffffffffffffffffffffffffffffffffffffffffffffff)\n      and\n      swap1\n      dup2\n      0x00\n      byte\n      swap1\n      mstore8\n      pop\n        /* \"@openzeppelin/contracts/utils/Strings.sol\":1979:1980  4 */\n      0x04\n        /* \"@openzeppelin/contracts/utils/Strings.sol\":1969:1980  value >>= 4 */\n      dup6\n      swap1\n      shr\n      swap5\n      pop\n        /* \"@openzeppelin/contracts/utils/Strings.sol\":1899:1902  --i */\n      dup1\n      tag_277\n      swap1\n      tag_278\n      jump\t// in\n    tag_277:\n      swap1\n      pop\n        /* \"@openzeppelin/contracts/utils/Strings.sol\":1859:1991  for (uint256 i = 2 * length + 1; i > 1; --i) {... */\n      jump(tag_268)\n    tag_269:\n      pop\n        /* \"@openzeppelin/contracts/utils/Strings.sol\":2017:2018  0 */\n      0x00\n        /* \"@openzeppelin/contracts/utils/Strings.sol\":2008:2013  value */\n      dup5\n        /* \"@openzeppelin/contracts/utils/Strings.sol\":2008:2018  value == 0 */\n      eq\n        /* \"@openzeppelin/contracts/utils/Strings.sol\":2000:2055  require(value == 0, \"Strings: hex length insufficient\") */\n      tag_279\n      jumpi\n      mload(0x40)\n      0x08c379a000000000000000000000000000000000000000000000000000000000\n      dup2\n      mstore\n      0x04\n      add\n      tag_280\n      swap1\n      tag_281\n      jump\t// in\n    tag_280:\n      mload(0x40)\n      dup1\n      swap2\n      sub\n      swap1\n      revert\n    tag_279:\n        /* \"@openzeppelin/contracts/utils/Strings.sol\":2079:2085  buffer */\n      dup1\n        /* \"@openzeppelin/contracts/utils/Strings.sol\":2065:2086  return string(buffer) */\n      swap2\n      pop\n      pop\n        /* \"@openzeppelin/contracts/utils/Strings.sol\":1652:2093  function toHexString(uint256 value, uint256 length) internal pure returns (string memory) {... */\n      swap3\n      swap2\n      pop\n      pop\n      jump\t// out\n    tag_178:\n      mload(0x40)\n      dup1\n      0x60\n      add\n      0x40\n      mstore\n      dup1\n      0x60\n      dup2\n      mstore\n      0x20\n      add\n      and(0xffffffffffffffffffffffffffffffffffffffff, 0x00)\n      dup2\n      mstore\n      0x20\n      add\n      0x60\n      dup2\n      mstore\n      pop\n      swap1\n      jump\t// out\n    tag_201:\n      dup3\n      dup1\n      sload\n      tag_282\n      swap1\n      tag_119\n      jump\t// in\n    tag_282:\n      swap1\n      0x00\n      mstore\n      keccak256(0x00, 0x20)\n      swap1\n      0x1f\n      add\n      0x20\n      swap1\n      div\n      dup2\n      add\n      swap3\n      dup3\n      tag_284\n      jumpi\n      0x00\n      dup6\n      sstore\n      jump(tag_283)\n    tag_284:\n      dup3\n      0x1f\n      lt\n      tag_285\n      jumpi\n      dup1\n      mload\n      not(0xff)\n      and\n      dup4\n      dup1\n      add\n      or\n      dup6\n      sstore\n      jump(tag_283)\n    tag_285:\n      dup3\n      dup1\n      add\n      0x01\n      add\n      dup6\n      sstore\n      dup3\n      iszero\n      tag_283\n      jumpi\n      swap2\n      dup3\n      add\n    tag_286:\n      dup3\n      dup2\n      gt\n      iszero\n      tag_287\n      jumpi\n      dup3\n      mload\n      dup3\n      sstore\n      swap2\n      0x20\n      add\n      swap2\n      swap1\n      0x01\n      add\n      swap1\n      jump(tag_286)\n    tag_287:\n    tag_283:\n      pop\n      swap1\n      pop\n      tag_288\n      swap2\n      swap1\n      tag_289\n      jump\t// in\n    tag_288:\n      pop\n      swap1\n      jump\t// out\n    tag_207:\n      dup3\n      dup1\n      sload\n      tag_290\n      swap1\n      tag_119\n      jump\t// in\n    tag_290:\n      swap1\n      0x00\n      mstore\n      keccak256(0x00, 0x20)\n      swap1\n      0x1f\n      add\n      0x20\n      swap1\n      div\n      dup2\n      add\n      swap3\n      dup3\n      tag_292\n      jumpi\n      0x00\n      dup6\n      sstore\n      jump(tag_291)\n    tag_292:\n      dup3\n      0x1f\n      lt\n      tag_293\n      jumpi\n      dup1\n      sload\n      dup6\n      sstore\n      jump(tag_291)\n    tag_293:\n      dup3\n      dup1\n      add\n      0x01\n      add\n      dup6\n      sstore\n      dup3\n      iszero\n      tag_291\n      jumpi\n      0x00\n      mstore\n      keccak256(0x00, 0x20)\n      swap2\n      0x1f\n      add\n      0x20\n      swap1\n      div\n      dup3\n      add\n    tag_294:\n      dup3\n      dup2\n      gt\n      iszero\n      tag_295\n      jumpi\n      dup3\n      sload\n      dup3\n      sstore\n      swap2\n      0x01\n      add\n      swap2\n      swap1\n      0x01\n      add\n      swap1\n      jump(tag_294)\n    tag_295:\n    tag_291:\n      pop\n      swap1\n      pop\n      tag_296\n      swap2\n      swap1\n      tag_289\n      jump\t// in\n    tag_296:\n      pop\n      swap1\n      jump\t// out\n    tag_289:\n    tag_297:\n      dup1\n      dup3\n      gt\n      iszero\n      tag_298\n      jumpi\n      0x00\n      dup2\n      0x00\n      swap1\n      sstore\n      pop\n      0x01\n      add\n      jump(tag_297)\n    tag_298:\n      pop\n      swap1\n      jump\t// out\n        /* \"#utility.yul\":24:746   */\n    tag_300:\n        /* \"#utility.yul\":120:125   */\n      0x00\n        /* \"#utility.yul\":145:226   */\n      tag_302\n        /* \"#utility.yul\":161:225   */\n      tag_303\n        /* \"#utility.yul\":218:224   */\n      dup5\n        /* \"#utility.yul\":161:225   */\n      tag_304\n      jump\t// in\n    tag_303:\n        /* \"#utility.yul\":145:226   */\n      tag_305\n      jump\t// in\n    tag_302:\n        /* \"#utility.yul\":136:226   */\n      swap1\n      pop\n        /* \"#utility.yul\":246:251   */\n      dup1\n        /* \"#utility.yul\":275:281   */\n      dup4\n        /* \"#utility.yul\":268:273   */\n      dup3\n        /* \"#utility.yul\":261:282   */\n      mstore\n        /* \"#utility.yul\":309:313   */\n      0x20\n        /* \"#utility.yul\":302:307   */\n      dup3\n        /* \"#utility.yul\":298:314   */\n      add\n        /* \"#utility.yul\":291:314   */\n      swap1\n      pop\n        /* \"#utility.yul\":335:341   */\n      dup3\n        /* \"#utility.yul\":385:388   */\n      dup6\n        /* \"#utility.yul\":377:381   */\n      0x20\n        /* \"#utility.yul\":369:375   */\n      dup7\n        /* \"#utility.yul\":365:382   */\n      mul\n        /* \"#utility.yul\":360:363   */\n      dup3\n        /* \"#utility.yul\":356:383   */\n      add\n        /* \"#utility.yul\":353:389   */\n      gt\n        /* \"#utility.yul\":350:493   */\n      iszero\n      tag_306\n      jumpi\n        /* \"#utility.yul\":404:483   */\n      tag_307\n      tag_308\n      jump\t// in\n    tag_307:\n        /* \"#utility.yul\":350:493   */\n    tag_306:\n        /* \"#utility.yul\":517:518   */\n      0x00\n        /* \"#utility.yul\":502:740   */\n    tag_309:\n        /* \"#utility.yul\":527:533   */\n      dup6\n        /* \"#utility.yul\":524:525   */\n      dup2\n        /* \"#utility.yul\":521:534   */\n      lt\n        /* \"#utility.yul\":502:740   */\n      iszero\n      tag_311\n      jumpi\n        /* \"#utility.yul\":595:598   */\n      dup2\n        /* \"#utility.yul\":624:661   */\n      tag_312\n        /* \"#utility.yul\":657:660   */\n      dup9\n        /* \"#utility.yul\":645:655   */\n      dup3\n        /* \"#utility.yul\":624:661   */\n      tag_313\n      jump\t// in\n    tag_312:\n        /* \"#utility.yul\":619:622   */\n      dup5\n        /* \"#utility.yul\":612:662   */\n      mstore\n        /* \"#utility.yul\":691:695   */\n      0x20\n        /* \"#utility.yul\":686:689   */\n      dup5\n        /* \"#utility.yul\":682:696   */\n      add\n        /* \"#utility.yul\":675:696   */\n      swap4\n      pop\n        /* \"#utility.yul\":725:729   */\n      0x20\n        /* \"#utility.yul\":720:723   */\n      dup4\n        /* \"#utility.yul\":716:730   */\n      add\n        /* \"#utility.yul\":709:730   */\n      swap3\n      pop\n        /* \"#utility.yul\":562:740   */\n      pop\n        /* \"#utility.yul\":549:550   */\n      0x01\n        /* \"#utility.yul\":546:547   */\n      dup2\n        /* \"#utility.yul\":542:551   */\n      add\n        /* \"#utility.yul\":537:551   */\n      swap1\n      pop\n        /* \"#utility.yul\":502:740   */\n      jump(tag_309)\n    tag_311:\n        /* \"#utility.yul\":506:520   */\n      pop\n        /* \"#utility.yul\":126:746   */\n      pop\n      pop\n        /* \"#utility.yul\":24:746   */\n      swap4\n      swap3\n      pop\n      pop\n      pop\n      jump\t// out\n        /* \"#utility.yul\":752:1164   */\n    tag_314:\n        /* \"#utility.yul\":830:835   */\n      0x00\n        /* \"#utility.yul\":855:921   */\n      tag_316\n        /* \"#utility.yul\":871:920   */\n      tag_317\n        /* \"#utility.yul\":913:919   */\n      dup5\n        /* \"#utility.yul\":871:920   */\n      tag_318\n      jump\t// in\n    tag_317:\n        /* \"#utility.yul\":855:921   */\n      tag_305\n      jump\t// in\n    tag_316:\n        /* \"#utility.yul\":846:921   */\n      swap1\n      pop\n        /* \"#utility.yul\":944:950   */\n      dup3\n        /* \"#utility.yul\":937:942   */\n      dup2\n        /* \"#utility.yul\":930:951   */\n      mstore\n        /* \"#utility.yul\":982:986   */\n      0x20\n        /* \"#utility.yul\":975:980   */\n      dup2\n        /* \"#utility.yul\":971:987   */\n      add\n        /* \"#utility.yul\":1020:1023   */\n      dup5\n        /* \"#utility.yul\":1011:1017   */\n      dup5\n        /* \"#utility.yul\":1006:1009   */\n      dup5\n        /* \"#utility.yul\":1002:1018   */\n      add\n        /* \"#utility.yul\":999:1024   */\n      gt\n        /* \"#utility.yul\":996:1108   */\n      iszero\n      tag_319\n      jumpi\n        /* \"#utility.yul\":1027:1106   */\n      tag_320\n      tag_321\n      jump\t// in\n    tag_320:\n        /* \"#utility.yul\":996:1108   */\n    tag_319:\n        /* \"#utility.yul\":1117:1158   */\n      tag_322\n        /* \"#utility.yul\":1151:1157   */\n      dup5\n        /* \"#utility.yul\":1146:1149   */\n      dup3\n        /* \"#utility.yul\":1141:1144   */\n      dup6\n        /* \"#utility.yul\":1117:1158   */\n      tag_323\n      jump\t// in\n    tag_322:\n        /* \"#utility.yul\":836:1164   */\n      pop\n        /* \"#utility.yul\":752:1164   */\n      swap4\n      swap3\n      pop\n      pop\n      pop\n      jump\t// out\n        /* \"#utility.yul\":1170:1309   */\n    tag_313:\n        /* \"#utility.yul\":1216:1221   */\n      0x00\n        /* \"#utility.yul\":1254:1260   */\n      dup2\n        /* \"#utility.yul\":1241:1261   */\n      calldataload\n        /* \"#utility.yul\":1232:1261   */\n      swap1\n      pop\n        /* \"#utility.yul\":1270:1303   */\n      tag_325\n        /* \"#utility.yul\":1297:1302   */\n      dup2\n        /* \"#utility.yul\":1270:1303   */\n      tag_326\n      jump\t// in\n    tag_325:\n        /* \"#utility.yul\":1170:1309   */\n      swap3\n      swap2\n      pop\n      pop\n      jump\t// out\n        /* \"#utility.yul\":1332:1702   */\n    tag_327:\n        /* \"#utility.yul\":1403:1408   */\n      0x00\n        /* \"#utility.yul\":1452:1455   */\n      dup3\n        /* \"#utility.yul\":1445:1449   */\n      0x1f\n        /* \"#utility.yul\":1437:1443   */\n      dup4\n        /* \"#utility.yul\":1433:1450   */\n      add\n        /* \"#utility.yul\":1429:1456   */\n      slt\n        /* \"#utility.yul\":1419:1541   */\n      tag_329\n      jumpi\n        /* \"#utility.yul\":1460:1539   */\n      tag_330\n      tag_331\n      jump\t// in\n    tag_330:\n        /* \"#utility.yul\":1419:1541   */\n    tag_329:\n        /* \"#utility.yul\":1577:1583   */\n      dup2\n        /* \"#utility.yul\":1564:1584   */\n      calldataload\n        /* \"#utility.yul\":1602:1696   */\n      tag_332\n        /* \"#utility.yul\":1692:1695   */\n      dup5\n        /* \"#utility.yul\":1684:1690   */\n      dup3\n        /* \"#utility.yul\":1677:1681   */\n      0x20\n        /* \"#utility.yul\":1669:1675   */\n      dup7\n        /* \"#utility.yul\":1665:1682   */\n      add\n        /* \"#utility.yul\":1602:1696   */\n      tag_300\n      jump\t// in\n    tag_332:\n        /* \"#utility.yul\":1593:1696   */\n      swap2\n      pop\n        /* \"#utility.yul\":1409:1702   */\n      pop\n        /* \"#utility.yul\":1332:1702   */\n      swap3\n      swap2\n      pop\n      pop\n      jump\t// out\n        /* \"#utility.yul\":1708:1847   */\n    tag_333:\n        /* \"#utility.yul\":1754:1759   */\n      0x00\n        /* \"#utility.yul\":1792:1798   */\n      dup2\n        /* \"#utility.yul\":1779:1799   */\n      calldataload\n        /* \"#utility.yul\":1770:1799   */\n      swap1\n      pop\n        /* \"#utility.yul\":1808:1841   */\n      tag_335\n        /* \"#utility.yul\":1835:1840   */\n      dup2\n        /* \"#utility.yul\":1808:1841   */\n      tag_336\n      jump\t// in\n    tag_335:\n        /* \"#utility.yul\":1708:1847   */\n      swap3\n      swap2\n      pop\n      pop\n      jump\t// out\n        /* \"#utility.yul\":1853:1990   */\n    tag_337:\n        /* \"#utility.yul\":1898:1903   */\n      0x00\n        /* \"#utility.yul\":1936:1942   */\n      dup2\n        /* \"#utility.yul\":1923:1943   */\n      calldataload\n        /* \"#utility.yul\":1914:1943   */\n      swap1\n      pop\n        /* \"#utility.yul\":1952:1984   */\n      tag_339\n        /* \"#utility.yul\":1978:1983   */\n      dup2\n        /* \"#utility.yul\":1952:1984   */\n      tag_340\n      jump\t// in\n    tag_339:\n        /* \"#utility.yul\":1853:1990   */\n      swap3\n      swap2\n      pop\n      pop\n      jump\t// out\n        /* \"#utility.yul\":2010:2350   */\n    tag_341:\n        /* \"#utility.yul\":2066:2071   */\n      0x00\n        /* \"#utility.yul\":2115:2118   */\n      dup3\n        /* \"#utility.yul\":2108:2112   */\n      0x1f\n        /* \"#utility.yul\":2100:2106   */\n      dup4\n        /* \"#utility.yul\":2096:2113   */\n      add\n        /* \"#utility.yul\":2092:2119   */\n      slt\n        /* \"#utility.yul\":2082:2204   */\n      tag_343\n      jumpi\n        /* \"#utility.yul\":2123:2202   */\n      tag_344\n      tag_331\n      jump\t// in\n    tag_344:\n        /* \"#utility.yul\":2082:2204   */\n    tag_343:\n        /* \"#utility.yul\":2240:2246   */\n      dup2\n        /* \"#utility.yul\":2227:2247   */\n      calldataload\n        /* \"#utility.yul\":2265:2344   */\n      tag_345\n        /* \"#utility.yul\":2340:2343   */\n      dup5\n        /* \"#utility.yul\":2332:2338   */\n      dup3\n        /* \"#utility.yul\":2325:2329   */\n      0x20\n        /* \"#utility.yul\":2317:2323   */\n      dup7\n        /* \"#utility.yul\":2313:2330   */\n      add\n        /* \"#utility.yul\":2265:2344   */\n      tag_314\n      jump\t// in\n    tag_345:\n        /* \"#utility.yul\":2256:2344   */\n      swap2\n      pop\n        /* \"#utility.yul\":2072:2350   */\n      pop\n        /* \"#utility.yul\":2010:2350   */\n      swap3\n      swap2\n      pop\n      pop\n      jump\t// out\n        /* \"#utility.yul\":2356:2495   */\n    tag_346:\n        /* \"#utility.yul\":2402:2407   */\n      0x00\n        /* \"#utility.yul\":2440:2446   */\n      dup2\n        /* \"#utility.yul\":2427:2447   */\n      calldataload\n        /* \"#utility.yul\":2418:2447   */\n      swap1\n      pop\n        /* \"#utility.yul\":2456:2489   */\n      tag_348\n        /* \"#utility.yul\":2483:2488   */\n      dup2\n        /* \"#utility.yul\":2456:2489   */\n      tag_349\n      jump\t// in\n    tag_348:\n        /* \"#utility.yul\":2356:2495   */\n      swap3\n      swap2\n      pop\n      pop\n      jump\t// out\n        /* \"#utility.yul\":2501:2830   */\n    tag_104:\n        /* \"#utility.yul\":2560:2566   */\n      0x00\n        /* \"#utility.yul\":2609:2611   */\n      0x20\n        /* \"#utility.yul\":2597:2606   */\n      dup3\n        /* \"#utility.yul\":2588:2595   */\n      dup5\n        /* \"#utility.yul\":2584:2607   */\n      sub\n        /* \"#utility.yul\":2580:2612   */\n      slt\n        /* \"#utility.yul\":2577:2696   */\n      iszero\n      tag_351\n      jumpi\n        /* \"#utility.yul\":2615:2694   */\n      tag_352\n      tag_353\n      jump\t// in\n    tag_352:\n        /* \"#utility.yul\":2577:2696   */\n    tag_351:\n        /* \"#utility.yul\":2735:2736   */\n      0x00\n        /* \"#utility.yul\":2760:2813   */\n      tag_354\n        /* \"#utility.yul\":2805:2812   */\n      dup5\n        /* \"#utility.yul\":2796:2802   */\n      dup3\n        /* \"#utility.yul\":2785:2794   */\n      dup6\n        /* \"#utility.yul\":2781:2803   */\n      add\n        /* \"#utility.yul\":2760:2813   */\n      tag_313\n      jump\t// in\n    tag_354:\n        /* \"#utility.yul\":2750:2813   */\n      swap2\n      pop\n        /* \"#utility.yul\":2706:2823   */\n      pop\n        /* \"#utility.yul\":2501:2830   */\n      swap3\n      swap2\n      pop\n      pop\n      jump\t// out\n        /* \"#utility.yul\":2836:3310   */\n    tag_108:\n        /* \"#utility.yul\":2904:2910   */\n      0x00\n        /* \"#utility.yul\":2912:2918   */\n      dup1\n        /* \"#utility.yul\":2961:2963   */\n      0x40\n        /* \"#utility.yul\":2949:2958   */\n      dup4\n        /* \"#utility.yul\":2940:2947   */\n      dup6\n        /* \"#utility.yul\":2936:2959   */\n      sub\n        /* \"#utility.yul\":2932:2964   */\n      slt\n        /* \"#utility.yul\":2929:3048   */\n      iszero\n      tag_356\n      jumpi\n        /* \"#utility.yul\":2967:3046   */\n      tag_357\n      tag_353\n      jump\t// in\n    tag_357:\n        /* \"#utility.yul\":2929:3048   */\n    tag_356:\n        /* \"#utility.yul\":3087:3088   */\n      0x00\n        /* \"#utility.yul\":3112:3165   */\n      tag_358\n        /* \"#utility.yul\":3157:3164   */\n      dup6\n        /* \"#utility.yul\":3148:3154   */\n      dup3\n        /* \"#utility.yul\":3137:3146   */\n      dup7\n        /* \"#utility.yul\":3133:3155   */\n      add\n        /* \"#utility.yul\":3112:3165   */\n      tag_313\n      jump\t// in\n    tag_358:\n        /* \"#utility.yul\":3102:3165   */\n      swap3\n      pop\n        /* \"#utility.yul\":3058:3175   */\n      pop\n        /* \"#utility.yul\":3214:3216   */\n      0x20\n        /* \"#utility.yul\":3240:3293   */\n      tag_359\n        /* \"#utility.yul\":3285:3292   */\n      dup6\n        /* \"#utility.yul\":3276:3282   */\n      dup3\n        /* \"#utility.yul\":3265:3274   */\n      dup7\n        /* \"#utility.yul\":3261:3283   */\n      add\n        /* \"#utility.yul\":3240:3293   */\n      tag_346\n      jump\t// in\n    tag_359:\n        /* \"#utility.yul\":3230:3293   */\n      swap2\n      pop\n        /* \"#utility.yul\":3185:3303   */\n      pop\n        /* \"#utility.yul\":2836:3310   */\n      swap3\n      pop\n      swap3\n      swap1\n      pop\n      jump\t// out\n        /* \"#utility.yul\":3316:4145   */\n    tag_67:\n        /* \"#utility.yul\":3418:3424   */\n      0x00\n        /* \"#utility.yul\":3426:3432   */\n      dup1\n        /* \"#utility.yul\":3434:3440   */\n      0x00\n        /* \"#utility.yul\":3483:3485   */\n      0x60\n        /* \"#utility.yul\":3471:3480   */\n      dup5\n        /* \"#utility.yul\":3462:3469   */\n      dup7\n        /* \"#utility.yul\":3458:3481   */\n      sub\n        /* \"#utility.yul\":3454:3486   */\n      slt\n        /* \"#utility.yul\":3451:3570   */\n      iszero\n      tag_361\n      jumpi\n        /* \"#utility.yul\":3489:3568   */\n      tag_362\n      tag_353\n      jump\t// in\n    tag_362:\n        /* \"#utility.yul\":3451:3570   */\n    tag_361:\n        /* \"#utility.yul\":3637:3638   */\n      0x00\n        /* \"#utility.yul\":3626:3635   */\n      dup5\n        /* \"#utility.yul\":3622:3639   */\n      add\n        /* \"#utility.yul\":3609:3640   */\n      calldataload\n        /* \"#utility.yul\":3667:3685   */\n      0xffffffffffffffff\n        /* \"#utility.yul\":3659:3665   */\n      dup2\n        /* \"#utility.yul\":3656:3686   */\n      gt\n        /* \"#utility.yul\":3653:3770   */\n      iszero\n      tag_363\n      jumpi\n        /* \"#utility.yul\":3689:3768   */\n      tag_364\n      tag_365\n      jump\t// in\n    tag_364:\n        /* \"#utility.yul\":3653:3770   */\n    tag_363:\n        /* \"#utility.yul\":3794:3872   */\n      tag_366\n        /* \"#utility.yul\":3864:3871   */\n      dup7\n        /* \"#utility.yul\":3855:3861   */\n      dup3\n        /* \"#utility.yul\":3844:3853   */\n      dup8\n        /* \"#utility.yul\":3840:3862   */\n      add\n        /* \"#utility.yul\":3794:3872   */\n      tag_327\n      jump\t// in\n    tag_366:\n        /* \"#utility.yul\":3784:3872   */\n      swap4\n      pop\n        /* \"#utility.yul\":3580:3882   */\n      pop\n        /* \"#utility.yul\":3921:3923   */\n      0x20\n        /* \"#utility.yul\":3947:4000   */\n      tag_367\n        /* \"#utility.yul\":3992:3999   */\n      dup7\n        /* \"#utility.yul\":3983:3989   */\n      dup3\n        /* \"#utility.yul\":3972:3981   */\n      dup8\n        /* \"#utility.yul\":3968:3990   */\n      add\n        /* \"#utility.yul\":3947:4000   */\n      tag_346\n      jump\t// in\n    tag_367:\n        /* \"#utility.yul\":3937:4000   */\n      swap3\n      pop\n        /* \"#utility.yul\":3892:4010   */\n      pop\n        /* \"#utility.yul\":4049:4051   */\n      0x40\n        /* \"#utility.yul\":4075:4128   */\n      tag_368\n        /* \"#utility.yul\":4120:4127   */\n      dup7\n        /* \"#utility.yul\":4111:4117   */\n      dup3\n        /* \"#utility.yul\":4100:4109   */\n      dup8\n        /* \"#utility.yul\":4096:4118   */\n      add\n        /* \"#utility.yul\":4075:4128   */\n      tag_346\n      jump\t// in\n    tag_368:\n        /* \"#utility.yul\":4065:4128   */\n      swap2\n      pop\n        /* \"#utility.yul\":4020:4138   */\n      pop\n        /* \"#utility.yul\":3316:4145   */\n      swap3\n      pop\n      swap3\n      pop\n      swap3\n      jump\t// out\n        /* \"#utility.yul\":4151:4480   */\n    tag_41:\n        /* \"#utility.yul\":4210:4216   */\n      0x00\n        /* \"#utility.yul\":4259:4261   */\n      0x20\n        /* \"#utility.yul\":4247:4256   */\n      dup3\n        /* \"#utility.yul\":4238:4245   */\n      dup5\n        /* \"#utility.yul\":4234:4257   */\n      sub\n        /* \"#utility.yul\":4230:4262   */\n      slt\n        /* \"#utility.yul\":4227:4346   */\n      iszero\n      tag_370\n      jumpi\n        /* \"#utility.yul\":4265:4344   */\n      tag_371\n      tag_353\n      jump\t// in\n    tag_371:\n        /* \"#utility.yul\":4227:4346   */\n    tag_370:\n        /* \"#utility.yul\":4385:4386   */\n      0x00\n        /* \"#utility.yul\":4410:4463   */\n      tag_372\n        /* \"#utility.yul\":4455:4462   */\n      dup5\n        /* \"#utility.yul\":4446:4452   */\n      dup3\n        /* \"#utility.yul\":4435:4444   */\n      dup6\n        /* \"#utility.yul\":4431:4453   */\n      add\n        /* \"#utility.yul\":4410:4463   */\n      tag_333\n      jump\t// in\n    tag_372:\n        /* \"#utility.yul\":4400:4463   */\n      swap2\n      pop\n        /* \"#utility.yul\":4356:4473   */\n      pop\n        /* \"#utility.yul\":4151:4480   */\n      swap3\n      swap2\n      pop\n      pop\n      jump\t// out\n        /* \"#utility.yul\":4486:4960   */\n    tag_55:\n        /* \"#utility.yul\":4554:4560   */\n      0x00\n        /* \"#utility.yul\":4562:4568   */\n      dup1\n        /* \"#utility.yul\":4611:4613   */\n      0x40\n        /* \"#utility.yul\":4599:4608   */\n      dup4\n        /* \"#utility.yul\":4590:4597   */\n      dup6\n        /* \"#utility.yul\":4586:4609   */\n      sub\n        /* \"#utility.yul\":4582:4614   */\n      slt\n        /* \"#utility.yul\":4579:4698   */\n      iszero\n      tag_374\n      jumpi\n        /* \"#utility.yul\":4617:4696   */\n      tag_375\n      tag_353\n      jump\t// in\n    tag_375:\n        /* \"#utility.yul\":4579:4698   */\n    tag_374:\n        /* \"#utility.yul\":4737:4738   */\n      0x00\n        /* \"#utility.yul\":4762:4815   */\n      tag_376\n        /* \"#utility.yul\":4807:4814   */\n      dup6\n        /* \"#utility.yul\":4798:4804   */\n      dup3\n        /* \"#utility.yul\":4787:4796   */\n      dup7\n        /* \"#utility.yul\":4783:4805   */\n      add\n        /* \"#utility.yul\":4762:4815   */\n      tag_333\n      jump\t// in\n    tag_376:\n        /* \"#utility.yul\":4752:4815   */\n      swap3\n      pop\n        /* \"#utility.yul\":4708:4825   */\n      pop\n        /* \"#utility.yul\":4864:4866   */\n      0x20\n        /* \"#utility.yul\":4890:4943   */\n      tag_377\n        /* \"#utility.yul\":4935:4942   */\n      dup6\n        /* \"#utility.yul\":4926:4932   */\n      dup3\n        /* \"#utility.yul\":4915:4924   */\n      dup7\n        /* \"#utility.yul\":4911:4933   */\n      add\n        /* \"#utility.yul\":4890:4943   */\n      tag_313\n      jump\t// in\n    tag_377:\n        /* \"#utility.yul\":4880:4943   */\n      swap2\n      pop\n        /* \"#utility.yul\":4835:4953   */\n      pop\n        /* \"#utility.yul\":4486:4960   */\n      swap3\n      pop\n      swap3\n      swap1\n      pop\n      jump\t// out\n        /* \"#utility.yul\":4966:5293   */\n    tag_29:\n        /* \"#utility.yul\":5024:5030   */\n      0x00\n        /* \"#utility.yul\":5073:5075   */\n      0x20\n        /* \"#utility.yul\":5061:5070   */\n      dup3\n        /* \"#utility.yul\":5052:5059   */\n      dup5\n        /* \"#utility.yul\":5048:5071   */\n      sub\n        /* \"#utility.yul\":5044:5076   */\n      slt\n        /* \"#utility.yul\":5041:5160   */\n      iszero\n      tag_379\n      jumpi\n        /* \"#utility.yul\":5079:5158   */\n      tag_380\n      tag_353\n      jump\t// in\n    tag_380:\n        /* \"#utility.yul\":5041:5160   */\n    tag_379:\n        /* \"#utility.yul\":5199:5200   */\n      0x00\n        /* \"#utility.yul\":5224:5276   */\n      tag_381\n        /* \"#utility.yul\":5268:5275   */\n      dup5\n        /* \"#utility.yul\":5259:5265   */\n      dup3\n        /* \"#utility.yul\":5248:5257   */\n      dup6\n        /* \"#utility.yul\":5244:5266   */\n      add\n        /* \"#utility.yul\":5224:5276   */\n      tag_337\n      jump\t// in\n    tag_381:\n        /* \"#utility.yul\":5214:5276   */\n      swap2\n      pop\n        /* \"#utility.yul\":5170:5286   */\n      pop\n        /* \"#utility.yul\":4966:5293   */\n      swap3\n      swap2\n      pop\n      pop\n      jump\t// out\n        /* \"#utility.yul\":5299:6098   */\n    tag_100:\n        /* \"#utility.yul\":5386:5392   */\n      0x00\n        /* \"#utility.yul\":5394:5400   */\n      dup1\n        /* \"#utility.yul\":5402:5408   */\n      0x00\n        /* \"#utility.yul\":5451:5453   */\n      0x60\n        /* \"#utility.yul\":5439:5448   */\n      dup5\n        /* \"#utility.yul\":5430:5437   */\n      dup7\n        /* \"#utility.yul\":5426:5449   */\n      sub\n        /* \"#utility.yul\":5422:5454   */\n      slt\n        /* \"#utility.yul\":5419:5538   */\n      iszero\n      tag_383\n      jumpi\n        /* \"#utility.yul\":5457:5536   */\n      tag_384\n      tag_353\n      jump\t// in\n    tag_384:\n        /* \"#utility.yul\":5419:5538   */\n    tag_383:\n        /* \"#utility.yul\":5605:5606   */\n      0x00\n        /* \"#utility.yul\":5594:5603   */\n      dup5\n        /* \"#utility.yul\":5590:5607   */\n      add\n        /* \"#utility.yul\":5577:5608   */\n      calldataload\n        /* \"#utility.yul\":5635:5653   */\n      0xffffffffffffffff\n        /* \"#utility.yul\":5627:5633   */\n      dup2\n        /* \"#utility.yul\":5624:5654   */\n      gt\n        /* \"#utility.yul\":5621:5738   */\n      iszero\n      tag_385\n      jumpi\n        /* \"#utility.yul\":5657:5736   */\n      tag_386\n      tag_365\n      jump\t// in\n    tag_386:\n        /* \"#utility.yul\":5621:5738   */\n    tag_385:\n        /* \"#utility.yul\":5762:5825   */\n      tag_387\n        /* \"#utility.yul\":5817:5824   */\n      dup7\n        /* \"#utility.yul\":5808:5814   */\n      dup3\n        /* \"#utility.yul\":5797:5806   */\n      dup8\n        /* \"#utility.yul\":5793:5815   */\n      add\n        /* \"#utility.yul\":5762:5825   */\n      tag_341\n      jump\t// in\n    tag_387:\n        /* \"#utility.yul\":5752:5825   */\n      swap4\n      pop\n        /* \"#utility.yul\":5548:5835   */\n      pop\n        /* \"#utility.yul\":5874:5876   */\n      0x20\n        /* \"#utility.yul\":5900:5953   */\n      tag_388\n        /* \"#utility.yul\":5945:5952   */\n      dup7\n        /* \"#utility.yul\":5936:5942   */\n      dup3\n        /* \"#utility.yul\":5925:5934   */\n      dup8\n        /* \"#utility.yul\":5921:5943   */\n      add\n        /* \"#utility.yul\":5900:5953   */\n      tag_313\n      jump\t// in\n    tag_388:\n        /* \"#utility.yul\":5890:5953   */\n      swap3\n      pop\n        /* \"#utility.yul\":5845:5963   */\n      pop\n        /* \"#utility.yul\":6002:6004   */\n      0x40\n        /* \"#utility.yul\":6028:6081   */\n      tag_389\n        /* \"#utility.yul\":6073:6080   */\n      dup7\n        /* \"#utility.yul\":6064:6070   */\n      dup3\n        /* \"#utility.yul\":6053:6062   */\n      dup8\n        /* \"#utility.yul\":6049:6071   */\n      add\n        /* \"#utility.yul\":6028:6081   */\n      tag_346\n      jump\t// in\n    tag_389:\n        /* \"#utility.yul\":6018:6081   */\n      swap2\n      pop\n        /* \"#utility.yul\":5973:6091   */\n      pop\n        /* \"#utility.yul\":5299:6098   */\n      swap3\n      pop\n      swap3\n      pop\n      swap3\n      jump\t// out\n        /* \"#utility.yul\":6104:6433   */\n    tag_35:\n        /* \"#utility.yul\":6163:6169   */\n      0x00\n        /* \"#utility.yul\":6212:6214   */\n      0x20\n        /* \"#utility.yul\":6200:6209   */\n      dup3\n        /* \"#utility.yul\":6191:6198   */\n      dup5\n        /* \"#utility.yul\":6187:6210   */\n      sub\n        /* \"#utility.yul\":6183:6215   */\n      slt\n        /* \"#utility.yul\":6180:6299   */\n      iszero\n      tag_391\n      jumpi\n        /* \"#utility.yul\":6218:6297   */\n      tag_392\n      tag_353\n      jump\t// in\n    tag_392:\n        /* \"#utility.yul\":6180:6299   */\n    tag_391:\n        /* \"#utility.yul\":6338:6339   */\n      0x00\n        /* \"#utility.yul\":6363:6416   */\n      tag_393\n        /* \"#utility.yul\":6408:6415   */\n      dup5\n        /* \"#utility.yul\":6399:6405   */\n      dup3\n        /* \"#utility.yul\":6388:6397   */\n      dup6\n        /* \"#utility.yul\":6384:6406   */\n      add\n        /* \"#utility.yul\":6363:6416   */\n      tag_346\n      jump\t// in\n    tag_393:\n        /* \"#utility.yul\":6353:6416   */\n      swap2\n      pop\n        /* \"#utility.yul\":6309:6426   */\n      pop\n        /* \"#utility.yul\":6104:6433   */\n      swap3\n      swap2\n      pop\n      pop\n      jump\t// out\n        /* \"#utility.yul\":6439:6547   */\n    tag_394:\n        /* \"#utility.yul\":6516:6540   */\n      tag_396\n        /* \"#utility.yul\":6534:6539   */\n      dup2\n        /* \"#utility.yul\":6516:6540   */\n      tag_397\n      jump\t// in\n    tag_396:\n        /* \"#utility.yul\":6511:6514   */\n      dup3\n        /* \"#utility.yul\":6504:6541   */\n      mstore\n        /* \"#utility.yul\":6439:6547   */\n      pop\n      pop\n      jump\t// out\n        /* \"#utility.yul\":6553:6671   */\n    tag_398:\n        /* \"#utility.yul\":6640:6664   */\n      tag_400\n        /* \"#utility.yul\":6658:6663   */\n      dup2\n        /* \"#utility.yul\":6640:6664   */\n      tag_397\n      jump\t// in\n    tag_400:\n        /* \"#utility.yul\":6635:6638   */\n      dup3\n        /* \"#utility.yul\":6628:6665   */\n      mstore\n        /* \"#utility.yul\":6553:6671   */\n      pop\n      pop\n      jump\t// out\n        /* \"#utility.yul\":6677:6786   */\n    tag_401:\n        /* \"#utility.yul\":6758:6779   */\n      tag_403\n        /* \"#utility.yul\":6773:6778   */\n      dup2\n        /* \"#utility.yul\":6758:6779   */\n      tag_404\n      jump\t// in\n    tag_403:\n        /* \"#utility.yul\":6753:6756   */\n      dup3\n        /* \"#utility.yul\":6746:6780   */\n      mstore\n        /* \"#utility.yul\":6677:6786   */\n      pop\n      pop\n      jump\t// out\n        /* \"#utility.yul\":6792:6910   */\n    tag_405:\n        /* \"#utility.yul\":6879:6903   */\n      tag_407\n        /* \"#utility.yul\":6897:6902   */\n      dup2\n        /* \"#utility.yul\":6879:6903   */\n      tag_408\n      jump\t// in\n    tag_407:\n        /* \"#utility.yul\":6874:6877   */\n      dup3\n        /* \"#utility.yul\":6867:6904   */\n      mstore\n        /* \"#utility.yul\":6792:6910   */\n      pop\n      pop\n      jump\t// out\n        /* \"#utility.yul\":6916:7260   */\n    tag_409:\n        /* \"#utility.yul\":6994:6997   */\n      0x00\n        /* \"#utility.yul\":7022:7061   */\n      tag_411\n        /* \"#utility.yul\":7055:7060   */\n      dup3\n        /* \"#utility.yul\":7022:7061   */\n      tag_412\n      jump\t// in\n    tag_411:\n        /* \"#utility.yul\":7077:7138   */\n      tag_413\n        /* \"#utility.yul\":7131:7137   */\n      dup2\n        /* \"#utility.yul\":7126:7129   */\n      dup6\n        /* \"#utility.yul\":7077:7138   */\n      tag_414\n      jump\t// in\n    tag_413:\n        /* \"#utility.yul\":7070:7138   */\n      swap4\n      pop\n        /* \"#utility.yul\":7147:7199   */\n      tag_415\n        /* \"#utility.yul\":7192:7198   */\n      dup2\n        /* \"#utility.yul\":7187:7190   */\n      dup6\n        /* \"#utility.yul\":7180:7184   */\n      0x20\n        /* \"#utility.yul\":7173:7178   */\n      dup7\n        /* \"#utility.yul\":7169:7185   */\n      add\n        /* \"#utility.yul\":7147:7199   */\n      tag_416\n      jump\t// in\n    tag_415:\n        /* \"#utility.yul\":7224:7253   */\n      tag_417\n        /* \"#utility.yul\":7246:7252   */\n      dup2\n        /* \"#utility.yul\":7224:7253   */\n      tag_418\n      jump\t// in\n    tag_417:\n        /* \"#utility.yul\":7219:7222   */\n      dup5\n        /* \"#utility.yul\":7215:7254   */\n      add\n        /* \"#utility.yul\":7208:7254   */\n      swap2\n      pop\n        /* \"#utility.yul\":6998:7260   */\n      pop\n        /* \"#utility.yul\":6916:7260   */\n      swap3\n      swap2\n      pop\n      pop\n      jump\t// out\n        /* \"#utility.yul\":7266:7630   */\n    tag_419:\n        /* \"#utility.yul\":7354:7357   */\n      0x00\n        /* \"#utility.yul\":7382:7421   */\n      tag_421\n        /* \"#utility.yul\":7415:7420   */\n      dup3\n        /* \"#utility.yul\":7382:7421   */\n      tag_412\n      jump\t// in\n    tag_421:\n        /* \"#utility.yul\":7437:7508   */\n      tag_422\n        /* \"#utility.yul\":7501:7507   */\n      dup2\n        /* \"#utility.yul\":7496:7499   */\n      dup6\n        /* \"#utility.yul\":7437:7508   */\n      tag_423\n      jump\t// in\n    tag_422:\n        /* \"#utility.yul\":7430:7508   */\n      swap4\n      pop\n        /* \"#utility.yul\":7517:7569   */\n      tag_424\n        /* \"#utility.yul\":7562:7568   */\n      dup2\n        /* \"#utility.yul\":7557:7560   */\n      dup6\n        /* \"#utility.yul\":7550:7554   */\n      0x20\n        /* \"#utility.yul\":7543:7548   */\n      dup7\n        /* \"#utility.yul\":7539:7555   */\n      add\n        /* \"#utility.yul\":7517:7569   */\n      tag_416\n      jump\t// in\n    tag_424:\n        /* \"#utility.yul\":7594:7623   */\n      tag_425\n        /* \"#utility.yul\":7616:7622   */\n      dup2\n        /* \"#utility.yul\":7594:7623   */\n      tag_418\n      jump\t// in\n    tag_425:\n        /* \"#utility.yul\":7589:7592   */\n      dup5\n        /* \"#utility.yul\":7585:7624   */\n      add\n        /* \"#utility.yul\":7578:7624   */\n      swap2\n      pop\n        /* \"#utility.yul\":7358:7630   */\n      pop\n        /* \"#utility.yul\":7266:7630   */\n      swap3\n      swap2\n      pop\n      pop\n      jump\t// out\n        /* \"#utility.yul\":7636:8013   */\n    tag_426:\n        /* \"#utility.yul\":7742:7745   */\n      0x00\n        /* \"#utility.yul\":7770:7809   */\n      tag_428\n        /* \"#utility.yul\":7803:7808   */\n      dup3\n        /* \"#utility.yul\":7770:7809   */\n      tag_412\n      jump\t// in\n    tag_428:\n        /* \"#utility.yul\":7825:7914   */\n      tag_429\n        /* \"#utility.yul\":7907:7913   */\n      dup2\n        /* \"#utility.yul\":7902:7905   */\n      dup6\n        /* \"#utility.yul\":7825:7914   */\n      tag_430\n      jump\t// in\n    tag_429:\n        /* \"#utility.yul\":7818:7914   */\n      swap4\n      pop\n        /* \"#utility.yul\":7923:7975   */\n      tag_431\n        /* \"#utility.yul\":7968:7974   */\n      dup2\n        /* \"#utility.yul\":7963:7966   */\n      dup6\n        /* \"#utility.yul\":7956:7960   */\n      0x20\n        /* \"#utility.yul\":7949:7954   */\n      dup7\n        /* \"#utility.yul\":7945:7961   */\n      add\n        /* \"#utility.yul\":7923:7975   */\n      tag_416\n      jump\t// in\n    tag_431:\n        /* \"#utility.yul\":8000:8006   */\n      dup1\n        /* \"#utility.yul\":7995:7998   */\n      dup5\n        /* \"#utility.yul\":7991:8007   */\n      add\n        /* \"#utility.yul\":7984:8007   */\n      swap2\n      pop\n        /* \"#utility.yul\":7746:8013   */\n      pop\n        /* \"#utility.yul\":7636:8013   */\n      swap3\n      swap2\n      pop\n      pop\n      jump\t// out\n        /* \"#utility.yul\":8019:8385   */\n    tag_432:\n        /* \"#utility.yul\":8161:8164   */\n      0x00\n        /* \"#utility.yul\":8182:8249   */\n      tag_434\n        /* \"#utility.yul\":8246:8248   */\n      0x20\n        /* \"#utility.yul\":8241:8244   */\n      dup4\n        /* \"#utility.yul\":8182:8249   */\n      tag_423\n      jump\t// in\n    tag_434:\n        /* \"#utility.yul\":8175:8249   */\n      swap2\n      pop\n        /* \"#utility.yul\":8258:8351   */\n      tag_435\n        /* \"#utility.yul\":8347:8350   */\n      dup3\n        /* \"#utility.yul\":8258:8351   */\n      tag_436\n      jump\t// in\n    tag_435:\n        /* \"#utility.yul\":8376:8378   */\n      0x20\n        /* \"#utility.yul\":8371:8374   */\n      dup3\n        /* \"#utility.yul\":8367:8379   */\n      add\n        /* \"#utility.yul\":8360:8379   */\n      swap1\n      pop\n        /* \"#utility.yul\":8019:8385   */\n      swap2\n      swap1\n      pop\n      jump\t// out\n        /* \"#utility.yul\":8391:8757   */\n    tag_437:\n        /* \"#utility.yul\":8533:8536   */\n      0x00\n        /* \"#utility.yul\":8554:8621   */\n      tag_439\n        /* \"#utility.yul\":8618:8620   */\n      0x26\n        /* \"#utility.yul\":8613:8616   */\n      dup4\n        /* \"#utility.yul\":8554:8621   */\n      tag_423\n      jump\t// in\n    tag_439:\n        /* \"#utility.yul\":8547:8621   */\n      swap2\n      pop\n        /* \"#utility.yul\":8630:8723   */\n      tag_440\n        /* \"#utility.yul\":8719:8722   */\n      dup3\n        /* \"#utility.yul\":8630:8723   */\n      tag_441\n      jump\t// in\n    tag_440:\n        /* \"#utility.yul\":8748:8750   */\n      0x40\n        /* \"#utility.yul\":8743:8746   */\n      dup3\n        /* \"#utility.yul\":8739:8751   */\n      add\n        /* \"#utility.yul\":8732:8751   */\n      swap1\n      pop\n        /* \"#utility.yul\":8391:8757   */\n      swap2\n      swap1\n      pop\n      jump\t// out\n        /* \"#utility.yul\":8763:9129   */\n    tag_442:\n        /* \"#utility.yul\":8905:8908   */\n      0x00\n        /* \"#utility.yul\":8926:8993   */\n      tag_444\n        /* \"#utility.yul\":8990:8992   */\n      0x1f\n        /* \"#utility.yul\":8985:8988   */\n      dup4\n        /* \"#utility.yul\":8926:8993   */\n      tag_423\n      jump\t// in\n    tag_444:\n        /* \"#utility.yul\":8919:8993   */\n      swap2\n      pop\n        /* \"#utility.yul\":9002:9095   */\n      tag_445\n        /* \"#utility.yul\":9091:9094   */\n      dup3\n        /* \"#utility.yul\":9002:9095   */\n      tag_446\n      jump\t// in\n    tag_445:\n        /* \"#utility.yul\":9120:9122   */\n      0x20\n        /* \"#utility.yul\":9115:9118   */\n      dup3\n        /* \"#utility.yul\":9111:9123   */\n      add\n        /* \"#utility.yul\":9104:9123   */\n      swap1\n      pop\n        /* \"#utility.yul\":8763:9129   */\n      swap2\n      swap1\n      pop\n      jump\t// out\n        /* \"#utility.yul\":9135:9501   */\n    tag_447:\n        /* \"#utility.yul\":9277:9280   */\n      0x00\n        /* \"#utility.yul\":9298:9365   */\n      tag_449\n        /* \"#utility.yul\":9362:9364   */\n      0x20\n        /* \"#utility.yul\":9357:9360   */\n      dup4\n        /* \"#utility.yul\":9298:9365   */\n      tag_423\n      jump\t// in\n    tag_449:\n        /* \"#utility.yul\":9291:9365   */\n      swap2\n      pop\n        /* \"#utility.yul\":9374:9467   */\n      tag_450\n        /* \"#utility.yul\":9463:9466   */\n      dup3\n        /* \"#utility.yul\":9374:9467   */\n      tag_451\n      jump\t// in\n    tag_450:\n        /* \"#utility.yul\":9492:9494   */\n      0x20\n        /* \"#utility.yul\":9487:9490   */\n      dup3\n        /* \"#utility.yul\":9483:9495   */\n      add\n        /* \"#utility.yul\":9476:9495   */\n      swap1\n      pop\n        /* \"#utility.yul\":9135:9501   */\n      swap2\n      swap1\n      pop\n      jump\t// out\n        /* \"#utility.yul\":9507:9909   */\n    tag_452:\n        /* \"#utility.yul\":9667:9670   */\n      0x00\n        /* \"#utility.yul\":9688:9773   */\n      tag_454\n        /* \"#utility.yul\":9770:9772   */\n      0x17\n        /* \"#utility.yul\":9765:9768   */\n      dup4\n        /* \"#utility.yul\":9688:9773   */\n      tag_430\n      jump\t// in\n    tag_454:\n        /* \"#utility.yul\":9681:9773   */\n      swap2\n      pop\n        /* \"#utility.yul\":9782:9875   */\n      tag_455\n        /* \"#utility.yul\":9871:9874   */\n      dup3\n        /* \"#utility.yul\":9782:9875   */\n      tag_456\n      jump\t// in\n    tag_455:\n        /* \"#utility.yul\":9900:9902   */\n      0x17\n        /* \"#utility.yul\":9895:9898   */\n      dup3\n        /* \"#utility.yul\":9891:9903   */\n      add\n        /* \"#utility.yul\":9884:9903   */\n      swap1\n      pop\n        /* \"#utility.yul\":9507:9909   */\n      swap2\n      swap1\n      pop\n      jump\t// out\n        /* \"#utility.yul\":9915:10317   */\n    tag_457:\n        /* \"#utility.yul\":10075:10078   */\n      0x00\n        /* \"#utility.yul\":10096:10181   */\n      tag_459\n        /* \"#utility.yul\":10178:10180   */\n      0x11\n        /* \"#utility.yul\":10173:10176   */\n      dup4\n        /* \"#utility.yul\":10096:10181   */\n      tag_430\n      jump\t// in\n    tag_459:\n        /* \"#utility.yul\":10089:10181   */\n      swap2\n      pop\n        /* \"#utility.yul\":10190:10283   */\n      tag_460\n        /* \"#utility.yul\":10279:10282   */\n      dup3\n        /* \"#utility.yul\":10190:10283   */\n      tag_461\n      jump\t// in\n    tag_460:\n        /* \"#utility.yul\":10308:10310   */\n      0x11\n        /* \"#utility.yul\":10303:10306   */\n      dup3\n        /* \"#utility.yul\":10299:10311   */\n      add\n        /* \"#utility.yul\":10292:10311   */\n      swap1\n      pop\n        /* \"#utility.yul\":9915:10317   */\n      swap2\n      swap1\n      pop\n      jump\t// out\n        /* \"#utility.yul\":10323:10689   */\n    tag_462:\n        /* \"#utility.yul\":10465:10468   */\n      0x00\n        /* \"#utility.yul\":10486:10553   */\n      tag_464\n        /* \"#utility.yul\":10550:10552   */\n      0x2f\n        /* \"#utility.yul\":10545:10548   */\n      dup4\n        /* \"#utility.yul\":10486:10553   */\n      tag_423\n      jump\t// in\n    tag_464:\n        /* \"#utility.yul\":10479:10553   */\n      swap2\n      pop\n        /* \"#utility.yul\":10562:10655   */\n      tag_465\n        /* \"#utility.yul\":10651:10654   */\n      dup3\n        /* \"#utility.yul\":10562:10655   */\n      tag_466\n      jump\t// in\n    tag_465:\n        /* \"#utility.yul\":10680:10682   */\n      0x40\n        /* \"#utility.yul\":10675:10678   */\n      dup3\n        /* \"#utility.yul\":10671:10683   */\n      add\n        /* \"#utility.yul\":10664:10683   */\n      swap1\n      pop\n        /* \"#utility.yul\":10323:10689   */\n      swap2\n      swap1\n      pop\n      jump\t// out\n        /* \"#utility.yul\":10749:11603   */\n    tag_467:\n        /* \"#utility.yul\":10870:10873   */\n      0x00\n        /* \"#utility.yul\":10906:10910   */\n      0x60\n        /* \"#utility.yul\":10901:10904   */\n      dup4\n        /* \"#utility.yul\":10897:10911   */\n      add\n        /* \"#utility.yul\":10993:10997   */\n      0x00\n        /* \"#utility.yul\":10986:10991   */\n      dup4\n        /* \"#utility.yul\":10982:10998   */\n      add\n        /* \"#utility.yul\":10976:10999   */\n      mload\n        /* \"#utility.yul\":11046:11049   */\n      dup5\n        /* \"#utility.yul\":11040:11044   */\n      dup3\n        /* \"#utility.yul\":11036:11050   */\n      sub\n        /* \"#utility.yul\":11029:11033   */\n      0x00\n        /* \"#utility.yul\":11024:11027   */\n      dup7\n        /* \"#utility.yul\":11020:11034   */\n      add\n        /* \"#utility.yul\":11013:11051   */\n      mstore\n        /* \"#utility.yul\":11072:11145   */\n      tag_469\n        /* \"#utility.yul\":11140:11144   */\n      dup3\n        /* \"#utility.yul\":11126:11138   */\n      dup3\n        /* \"#utility.yul\":11072:11145   */\n      tag_409\n      jump\t// in\n    tag_469:\n        /* \"#utility.yul\":11064:11145   */\n      swap2\n      pop\n        /* \"#utility.yul\":10921:11156   */\n      pop\n        /* \"#utility.yul\":11238:11242   */\n      0x20\n        /* \"#utility.yul\":11231:11236   */\n      dup4\n        /* \"#utility.yul\":11227:11243   */\n      add\n        /* \"#utility.yul\":11221:11244   */\n      mload\n        /* \"#utility.yul\":11257:11320   */\n      tag_470\n        /* \"#utility.yul\":11314:11318   */\n      0x20\n        /* \"#utility.yul\":11309:11312   */\n      dup7\n        /* \"#utility.yul\":11305:11319   */\n      add\n        /* \"#utility.yul\":11291:11303   */\n      dup3\n        /* \"#utility.yul\":11257:11320   */\n      tag_394\n      jump\t// in\n    tag_470:\n        /* \"#utility.yul\":11166:11330   */\n      pop\n        /* \"#utility.yul\":11413:11417   */\n      0x40\n        /* \"#utility.yul\":11406:11411   */\n      dup4\n        /* \"#utility.yul\":11402:11418   */\n      add\n        /* \"#utility.yul\":11396:11419   */\n      mload\n        /* \"#utility.yul\":11466:11469   */\n      dup5\n        /* \"#utility.yul\":11460:11464   */\n      dup3\n        /* \"#utility.yul\":11456:11470   */\n      sub\n        /* \"#utility.yul\":11449:11453   */\n      0x40\n        /* \"#utility.yul\":11444:11447   */\n      dup7\n        /* \"#utility.yul\":11440:11454   */\n      add\n        /* \"#utility.yul\":11433:11471   */\n      mstore\n        /* \"#utility.yul\":11492:11565   */\n      tag_471\n        /* \"#utility.yul\":11560:11564   */\n      dup3\n        /* \"#utility.yul\":11546:11558   */\n      dup3\n        /* \"#utility.yul\":11492:11565   */\n      tag_409\n      jump\t// in\n    tag_471:\n        /* \"#utility.yul\":11484:11565   */\n      swap2\n      pop\n        /* \"#utility.yul\":11340:11576   */\n      pop\n        /* \"#utility.yul\":11593:11597   */\n      dup1\n        /* \"#utility.yul\":11586:11597   */\n      swap2\n      pop\n        /* \"#utility.yul\":10875:11603   */\n      pop\n        /* \"#utility.yul\":10749:11603   */\n      swap3\n      swap2\n      pop\n      pop\n      jump\t// out\n        /* \"#utility.yul\":11609:11727   */\n    tag_472:\n        /* \"#utility.yul\":11696:11720   */\n      tag_474\n        /* \"#utility.yul\":11714:11719   */\n      dup2\n        /* \"#utility.yul\":11696:11720   */\n      tag_475\n      jump\t// in\n    tag_474:\n        /* \"#utility.yul\":11691:11694   */\n      dup3\n        /* \"#utility.yul\":11684:11721   */\n      mstore\n        /* \"#utility.yul\":11609:11727   */\n      pop\n      pop\n      jump\t// out\n        /* \"#utility.yul\":11733:12700   */\n    tag_253:\n        /* \"#utility.yul\":12115:12118   */\n      0x00\n        /* \"#utility.yul\":12137:12285   */\n      tag_477\n        /* \"#utility.yul\":12281:12284   */\n      dup3\n        /* \"#utility.yul\":12137:12285   */\n      tag_452\n      jump\t// in\n    tag_477:\n        /* \"#utility.yul\":12130:12285   */\n      swap2\n      pop\n        /* \"#utility.yul\":12302:12397   */\n      tag_478\n        /* \"#utility.yul\":12393:12396   */\n      dup3\n        /* \"#utility.yul\":12384:12390   */\n      dup6\n        /* \"#utility.yul\":12302:12397   */\n      tag_426\n      jump\t// in\n    tag_478:\n        /* \"#utility.yul\":12295:12397   */\n      swap2\n      pop\n        /* \"#utility.yul\":12414:12562   */\n      tag_479\n        /* \"#utility.yul\":12558:12561   */\n      dup3\n        /* \"#utility.yul\":12414:12562   */\n      tag_457\n      jump\t// in\n    tag_479:\n        /* \"#utility.yul\":12407:12562   */\n      swap2\n      pop\n        /* \"#utility.yul\":12579:12674   */\n      tag_480\n        /* \"#utility.yul\":12670:12673   */\n      dup3\n        /* \"#utility.yul\":12661:12667   */\n      dup5\n        /* \"#utility.yul\":12579:12674   */\n      tag_426\n      jump\t// in\n    tag_480:\n        /* \"#utility.yul\":12572:12674   */\n      swap2\n      pop\n        /* \"#utility.yul\":12691:12694   */\n      dup2\n        /* \"#utility.yul\":12684:12694   */\n      swap1\n      pop\n        /* \"#utility.yul\":11733:12700   */\n      swap4\n      swap3\n      pop\n      pop\n      pop\n      jump\t// out\n        /* \"#utility.yul\":12706:12928   */\n    tag_74:\n        /* \"#utility.yul\":12799:12803   */\n      0x00\n        /* \"#utility.yul\":12837:12839   */\n      0x20\n        /* \"#utility.yul\":12826:12835   */\n      dup3\n        /* \"#utility.yul\":12822:12840   */\n      add\n        /* \"#utility.yul\":12814:12840   */\n      swap1\n      pop\n        /* \"#utility.yul\":12850:12921   */\n      tag_482\n        /* \"#utility.yul\":12918:12919   */\n      0x00\n        /* \"#utility.yul\":12907:12916   */\n      dup4\n        /* \"#utility.yul\":12903:12920   */\n      add\n        /* \"#utility.yul\":12894:12900   */\n      dup5\n        /* \"#utility.yul\":12850:12921   */\n      tag_398\n      jump\t// in\n    tag_482:\n        /* \"#utility.yul\":12706:12928   */\n      swap3\n      swap2\n      pop\n      pop\n      jump\t// out\n        /* \"#utility.yul\":12934:13475   */\n    tag_83:\n        /* \"#utility.yul\":13105:13109   */\n      0x00\n        /* \"#utility.yul\":13143:13146   */\n      0x80\n        /* \"#utility.yul\":13132:13141   */\n      dup3\n        /* \"#utility.yul\":13128:13147   */\n      add\n        /* \"#utility.yul\":13120:13147   */\n      swap1\n      pop\n        /* \"#utility.yul\":13157:13228   */\n      tag_484\n        /* \"#utility.yul\":13225:13226   */\n      0x00\n        /* \"#utility.yul\":13214:13223   */\n      dup4\n        /* \"#utility.yul\":13210:13227   */\n      add\n        /* \"#utility.yul\":13201:13207   */\n      dup8\n        /* \"#utility.yul\":13157:13228   */\n      tag_398\n      jump\t// in\n    tag_484:\n        /* \"#utility.yul\":13238:13310   */\n      tag_485\n        /* \"#utility.yul\":13306:13308   */\n      0x20\n        /* \"#utility.yul\":13295:13304   */\n      dup4\n        /* \"#utility.yul\":13291:13309   */\n      add\n        /* \"#utility.yul\":13282:13288   */\n      dup7\n        /* \"#utility.yul\":13238:13310   */\n      tag_472\n      jump\t// in\n    tag_485:\n        /* \"#utility.yul\":13320:13392   */\n      tag_486\n        /* \"#utility.yul\":13388:13390   */\n      0x40\n        /* \"#utility.yul\":13377:13386   */\n      dup4\n        /* \"#utility.yul\":13373:13391   */\n      add\n        /* \"#utility.yul\":13364:13370   */\n      dup6\n        /* \"#utility.yul\":13320:13392   */\n      tag_472\n      jump\t// in\n    tag_486:\n        /* \"#utility.yul\":13402:13468   */\n      tag_487\n        /* \"#utility.yul\":13464:13466   */\n      0x60\n        /* \"#utility.yul\":13453:13462   */\n      dup4\n        /* \"#utility.yul\":13449:13467   */\n      add\n        /* \"#utility.yul\":13440:13446   */\n      dup5\n        /* \"#utility.yul\":13402:13468   */\n      tag_401\n      jump\t// in\n    tag_487:\n        /* \"#utility.yul\":12934:13475   */\n      swap6\n      swap5\n      pop\n      pop\n      pop\n      pop\n      pop\n      jump\t// out\n        /* \"#utility.yul\":13481:13691   */\n    tag_32:\n        /* \"#utility.yul\":13568:13572   */\n      0x00\n        /* \"#utility.yul\":13606:13608   */\n      0x20\n        /* \"#utility.yul\":13595:13604   */\n      dup3\n        /* \"#utility.yul\":13591:13609   */\n      add\n        /* \"#utility.yul\":13583:13609   */\n      swap1\n      pop\n        /* \"#utility.yul\":13619:13684   */\n      tag_489\n        /* \"#utility.yul\":13681:13682   */\n      0x00\n        /* \"#utility.yul\":13670:13679   */\n      dup4\n        /* \"#utility.yul\":13666:13683   */\n      add\n        /* \"#utility.yul\":13657:13663   */\n      dup5\n        /* \"#utility.yul\":13619:13684   */\n      tag_401\n      jump\t// in\n    tag_489:\n        /* \"#utility.yul\":13481:13691   */\n      swap3\n      swap2\n      pop\n      pop\n      jump\t// out\n        /* \"#utility.yul\":13697:13919   */\n    tag_44:\n        /* \"#utility.yul\":13790:13794   */\n      0x00\n        /* \"#utility.yul\":13828:13830   */\n      0x20\n        /* \"#utility.yul\":13817:13826   */\n      dup3\n        /* \"#utility.yul\":13813:13831   */\n      add\n        /* \"#utility.yul\":13805:13831   */\n      swap1\n      pop\n        /* \"#utility.yul\":13841:13912   */\n      tag_491\n        /* \"#utility.yul\":13909:13910   */\n      0x00\n        /* \"#utility.yul\":13898:13907   */\n      dup4\n        /* \"#utility.yul\":13894:13911   */\n      add\n        /* \"#utility.yul\":13885:13891   */\n      dup5\n        /* \"#utility.yul\":13841:13912   */\n      tag_405\n      jump\t// in\n    tag_491:\n        /* \"#utility.yul\":13697:13919   */\n      swap3\n      swap2\n      pop\n      pop\n      jump\t// out\n        /* \"#utility.yul\":13925:14238   */\n    tag_61:\n        /* \"#utility.yul\":14038:14042   */\n      0x00\n        /* \"#utility.yul\":14076:14078   */\n      0x20\n        /* \"#utility.yul\":14065:14074   */\n      dup3\n        /* \"#utility.yul\":14061:14079   */\n      add\n        /* \"#utility.yul\":14053:14079   */\n      swap1\n      pop\n        /* \"#utility.yul\":14125:14134   */\n      dup2\n        /* \"#utility.yul\":14119:14123   */\n      dup2\n        /* \"#utility.yul\":14115:14135   */\n      sub\n        /* \"#utility.yul\":14111:14112   */\n      0x00\n        /* \"#utility.yul\":14100:14109   */\n      dup4\n        /* \"#utility.yul\":14096:14113   */\n      add\n        /* \"#utility.yul\":14089:14136   */\n      mstore\n        /* \"#utility.yul\":14153:14231   */\n      tag_493\n        /* \"#utility.yul\":14226:14230   */\n      dup2\n        /* \"#utility.yul\":14217:14223   */\n      dup5\n        /* \"#utility.yul\":14153:14231   */\n      tag_419\n      jump\t// in\n    tag_493:\n        /* \"#utility.yul\":14145:14231   */\n      swap1\n      pop\n        /* \"#utility.yul\":13925:14238   */\n      swap3\n      swap2\n      pop\n      pop\n      jump\t// out\n        /* \"#utility.yul\":14244:14868   */\n    tag_49:\n        /* \"#utility.yul\":14433:14437   */\n      0x00\n        /* \"#utility.yul\":14471:14473   */\n      0x60\n        /* \"#utility.yul\":14460:14469   */\n      dup3\n        /* \"#utility.yul\":14456:14474   */\n      add\n        /* \"#utility.yul\":14448:14474   */\n      swap1\n      pop\n        /* \"#utility.yul\":14520:14529   */\n      dup2\n        /* \"#utility.yul\":14514:14518   */\n      dup2\n        /* \"#utility.yul\":14510:14530   */\n      sub\n        /* \"#utility.yul\":14506:14507   */\n      0x00\n        /* \"#utility.yul\":14495:14504   */\n      dup4\n        /* \"#utility.yul\":14491:14508   */\n      add\n        /* \"#utility.yul\":14484:14531   */\n      mstore\n        /* \"#utility.yul\":14548:14626   */\n      tag_495\n        /* \"#utility.yul\":14621:14625   */\n      dup2\n        /* \"#utility.yul\":14612:14618   */\n      dup7\n        /* \"#utility.yul\":14548:14626   */\n      tag_419\n      jump\t// in\n    tag_495:\n        /* \"#utility.yul\":14540:14626   */\n      swap1\n      pop\n        /* \"#utility.yul\":14636:14708   */\n      tag_496\n        /* \"#utility.yul\":14704:14706   */\n      0x20\n        /* \"#utility.yul\":14693:14702   */\n      dup4\n        /* \"#utility.yul\":14689:14707   */\n      add\n        /* \"#utility.yul\":14680:14686   */\n      dup6\n        /* \"#utility.yul\":14636:14708   */\n      tag_398\n      jump\t// in\n    tag_496:\n        /* \"#utility.yul\":14755:14764   */\n      dup2\n        /* \"#utility.yul\":14749:14753   */\n      dup2\n        /* \"#utility.yul\":14745:14765   */\n      sub\n        /* \"#utility.yul\":14740:14742   */\n      0x40\n        /* \"#utility.yul\":14729:14738   */\n      dup4\n        /* \"#utility.yul\":14725:14743   */\n      add\n        /* \"#utility.yul\":14718:14766   */\n      mstore\n        /* \"#utility.yul\":14783:14861   */\n      tag_497\n        /* \"#utility.yul\":14856:14860   */\n      dup2\n        /* \"#utility.yul\":14847:14853   */\n      dup5\n        /* \"#utility.yul\":14783:14861   */\n      tag_419\n      jump\t// in\n    tag_497:\n        /* \"#utility.yul\":14775:14861   */\n      swap1\n      pop\n        /* \"#utility.yul\":14244:14868   */\n      swap5\n      swap4\n      pop\n      pop\n      pop\n      pop\n      jump\t// out\n        /* \"#utility.yul\":14874:15293   */\n    tag_281:\n        /* \"#utility.yul\":15040:15044   */\n      0x00\n        /* \"#utility.yul\":15078:15080   */\n      0x20\n        /* \"#utility.yul\":15067:15076   */\n      dup3\n        /* \"#utility.yul\":15063:15081   */\n      add\n        /* \"#utility.yul\":15055:15081   */\n      swap1\n      pop\n        /* \"#utility.yul\":15127:15136   */\n      dup2\n        /* \"#utility.yul\":15121:15125   */\n      dup2\n        /* \"#utility.yul\":15117:15137   */\n      sub\n        /* \"#utility.yul\":15113:15114   */\n      0x00\n        /* \"#utility.yul\":15102:15111   */\n      dup4\n        /* \"#utility.yul\":15098:15115   */\n      add\n        /* \"#utility.yul\":15091:15138   */\n      mstore\n        /* \"#utility.yul\":15155:15286   */\n      tag_499\n        /* \"#utility.yul\":15281:15285   */\n      dup2\n        /* \"#utility.yul\":15155:15286   */\n      tag_432\n      jump\t// in\n    tag_499:\n        /* \"#utility.yul\":15147:15286   */\n      swap1\n      pop\n        /* \"#utility.yul\":14874:15293   */\n      swap2\n      swap1\n      pop\n      jump\t// out\n        /* \"#utility.yul\":15299:15718   */\n    tag_221:\n        /* \"#utility.yul\":15465:15469   */\n      0x00\n        /* \"#utility.yul\":15503:15505   */\n      0x20\n        /* \"#utility.yul\":15492:15501   */\n      dup3\n        /* \"#utility.yul\":15488:15506   */\n      add\n        /* \"#utility.yul\":15480:15506   */\n      swap1\n      pop\n        /* \"#utility.yul\":15552:15561   */\n      dup2\n        /* \"#utility.yul\":15546:15550   */\n      dup2\n        /* \"#utility.yul\":15542:15562   */\n      sub\n        /* \"#utility.yul\":15538:15539   */\n      0x00\n        /* \"#utility.yul\":15527:15536   */\n      dup4\n        /* \"#utility.yul\":15523:15540   */\n      add\n        /* \"#utility.yul\":15516:15563   */\n      mstore\n        /* \"#utility.yul\":15580:15711   */\n      tag_501\n        /* \"#utility.yul\":15706:15710   */\n      dup2\n        /* \"#utility.yul\":15580:15711   */\n      tag_437\n      jump\t// in\n    tag_501:\n        /* \"#utility.yul\":15572:15711   */\n      swap1\n      pop\n        /* \"#utility.yul\":15299:15718   */\n      swap2\n      swap1\n      pop\n      jump\t// out\n        /* \"#utility.yul\":15724:16143   */\n    tag_155:\n        /* \"#utility.yul\":15890:15894   */\n      0x00\n        /* \"#utility.yul\":15928:15930   */\n      0x20\n        /* \"#utility.yul\":15917:15926   */\n      dup3\n        /* \"#utility.yul\":15913:15931   */\n      add\n        /* \"#utility.yul\":15905:15931   */\n      swap1\n      pop\n        /* \"#utility.yul\":15977:15986   */\n      dup2\n        /* \"#utility.yul\":15971:15975   */\n      dup2\n        /* \"#utility.yul\":15967:15987   */\n      sub\n        /* \"#utility.yul\":15963:15964   */\n      0x00\n        /* \"#utility.yul\":15952:15961   */\n      dup4\n        /* \"#utility.yul\":15948:15965   */\n      add\n        /* \"#utility.yul\":15941:15988   */\n      mstore\n        /* \"#utility.yul\":16005:16136   */\n      tag_503\n        /* \"#utility.yul\":16131:16135   */\n      dup2\n        /* \"#utility.yul\":16005:16136   */\n      tag_442\n      jump\t// in\n    tag_503:\n        /* \"#utility.yul\":15997:16136   */\n      swap1\n      pop\n        /* \"#utility.yul\":15724:16143   */\n      swap2\n      swap1\n      pop\n      jump\t// out\n        /* \"#utility.yul\":16149:16568   */\n    tag_242:\n        /* \"#utility.yul\":16315:16319   */\n      0x00\n        /* \"#utility.yul\":16353:16355   */\n      0x20\n        /* \"#utility.yul\":16342:16351   */\n      dup3\n        /* \"#utility.yul\":16338:16356   */\n      add\n        /* \"#utility.yul\":16330:16356   */\n      swap1\n      pop\n        /* \"#utility.yul\":16402:16411   */\n      dup2\n        /* \"#utility.yul\":16396:16400   */\n      dup2\n        /* \"#utility.yul\":16392:16412   */\n      sub\n        /* \"#utility.yul\":16388:16389   */\n      0x00\n        /* \"#utility.yul\":16377:16386   */\n      dup4\n        /* \"#utility.yul\":16373:16390   */\n      add\n        /* \"#utility.yul\":16366:16413   */\n      mstore\n        /* \"#utility.yul\":16430:16561   */\n      tag_505\n        /* \"#utility.yul\":16556:16560   */\n      dup2\n        /* \"#utility.yul\":16430:16561   */\n      tag_447\n      jump\t// in\n    tag_505:\n        /* \"#utility.yul\":16422:16561   */\n      swap1\n      pop\n        /* \"#utility.yul\":16149:16568   */\n      swap2\n      swap1\n      pop\n      jump\t// out\n        /* \"#utility.yul\":16574:16993   */\n    tag_148:\n        /* \"#utility.yul\":16740:16744   */\n      0x00\n        /* \"#utility.yul\":16778:16780   */\n      0x20\n        /* \"#utility.yul\":16767:16776   */\n      dup3\n        /* \"#utility.yul\":16763:16781   */\n      add\n        /* \"#utility.yul\":16755:16781   */\n      swap1\n      pop\n        /* \"#utility.yul\":16827:16836   */\n      dup2\n        /* \"#utility.yul\":16821:16825   */\n      dup2\n        /* \"#utility.yul\":16817:16837   */\n      sub\n        /* \"#utility.yul\":16813:16814   */\n      0x00\n        /* \"#utility.yul\":16802:16811   */\n      dup4\n        /* \"#utility.yul\":16798:16815   */\n      add\n        /* \"#utility.yul\":16791:16838   */\n      mstore\n        /* \"#utility.yul\":16855:16986   */\n      tag_507\n        /* \"#utility.yul\":16981:16985   */\n      dup2\n        /* \"#utility.yul\":16855:16986   */\n      tag_462\n      jump\t// in\n    tag_507:\n        /* \"#utility.yul\":16847:16986   */\n      swap1\n      pop\n        /* \"#utility.yul\":16574:16993   */\n      swap2\n      swap1\n      pop\n      jump\t// out\n        /* \"#utility.yul\":16999:17376   */\n    tag_88:\n        /* \"#utility.yul\":17144:17148   */\n      0x00\n        /* \"#utility.yul\":17182:17184   */\n      0x20\n        /* \"#utility.yul\":17171:17180   */\n      dup3\n        /* \"#utility.yul\":17167:17185   */\n      add\n        /* \"#utility.yul\":17159:17185   */\n      swap1\n      pop\n        /* \"#utility.yul\":17231:17240   */\n      dup2\n        /* \"#utility.yul\":17225:17229   */\n      dup2\n        /* \"#utility.yul\":17221:17241   */\n      sub\n        /* \"#utility.yul\":17217:17218   */\n      0x00\n        /* \"#utility.yul\":17206:17215   */\n      dup4\n        /* \"#utility.yul\":17202:17219   */\n      add\n        /* \"#utility.yul\":17195:17242   */\n      mstore\n        /* \"#utility.yul\":17259:17369   */\n      tag_509\n        /* \"#utility.yul\":17364:17368   */\n      dup2\n        /* \"#utility.yul\":17355:17361   */\n      dup5\n        /* \"#utility.yul\":17259:17369   */\n      tag_467\n      jump\t// in\n    tag_509:\n        /* \"#utility.yul\":17251:17369   */\n      swap1\n      pop\n        /* \"#utility.yul\":16999:17376   */\n      swap3\n      swap2\n      pop\n      pop\n      jump\t// out\n        /* \"#utility.yul\":17382:17812   */\n    tag_38:\n        /* \"#utility.yul\":17525:17529   */\n      0x00\n        /* \"#utility.yul\":17563:17565   */\n      0x60\n        /* \"#utility.yul\":17552:17561   */\n      dup3\n        /* \"#utility.yul\":17548:17566   */\n      add\n        /* \"#utility.yul\":17540:17566   */\n      swap1\n      pop\n        /* \"#utility.yul\":17576:17647   */\n      tag_511\n        /* \"#utility.yul\":17644:17645   */\n      0x00\n        /* \"#utility.yul\":17633:17642   */\n      dup4\n        /* \"#utility.yul\":17629:17646   */\n      add\n        /* \"#utility.yul\":17620:17626   */\n      dup7\n        /* \"#utility.yul\":17576:17647   */\n      tag_472\n      jump\t// in\n    tag_511:\n        /* \"#utility.yul\":17657:17729   */\n      tag_512\n        /* \"#utility.yul\":17725:17727   */\n      0x20\n        /* \"#utility.yul\":17714:17723   */\n      dup4\n        /* \"#utility.yul\":17710:17728   */\n      add\n        /* \"#utility.yul\":17701:17707   */\n      dup6\n        /* \"#utility.yul\":17657:17729   */\n      tag_472\n      jump\t// in\n    tag_512:\n        /* \"#utility.yul\":17739:17805   */\n      tag_513\n        /* \"#utility.yul\":17801:17803   */\n      0x40\n        /* \"#utility.yul\":17790:17799   */\n      dup4\n        /* \"#utility.yul\":17786:17804   */\n      add\n        /* \"#utility.yul\":17777:17783   */\n      dup5\n        /* \"#utility.yul\":17739:17805   */\n      tag_401\n      jump\t// in\n    tag_513:\n        /* \"#utility.yul\":17382:17812   */\n      swap5\n      swap4\n      pop\n      pop\n      pop\n      pop\n      jump\t// out\n        /* \"#utility.yul\":17818:17947   */\n    tag_305:\n        /* \"#utility.yul\":17852:17858   */\n      0x00\n        /* \"#utility.yul\":17879:17899   */\n      tag_515\n      tag_516\n      jump\t// in\n    tag_515:\n        /* \"#utility.yul\":17869:17899   */\n      swap1\n      pop\n        /* \"#utility.yul\":17908:17941   */\n      tag_517\n        /* \"#utility.yul\":17936:17940   */\n      dup3\n        /* \"#utility.yul\":17928:17934   */\n      dup3\n        /* \"#utility.yul\":17908:17941   */\n      tag_518\n      jump\t// in\n    tag_517:\n        /* \"#utility.yul\":17818:17947   */\n      swap2\n      swap1\n      pop\n      jump\t// out\n        /* \"#utility.yul\":17953:18028   */\n    tag_516:\n        /* \"#utility.yul\":17986:17992   */\n      0x00\n        /* \"#utility.yul\":18019:18021   */\n      0x40\n        /* \"#utility.yul\":18013:18022   */\n      mload\n        /* \"#utility.yul\":18003:18022   */\n      swap1\n      pop\n        /* \"#utility.yul\":17953:18028   */\n      swap1\n      jump\t// out\n        /* \"#utility.yul\":18034:18345   */\n    tag_304:\n        /* \"#utility.yul\":18111:18115   */\n      0x00\n        /* \"#utility.yul\":18201:18219   */\n      0xffffffffffffffff\n        /* \"#utility.yul\":18193:18199   */\n      dup3\n        /* \"#utility.yul\":18190:18220   */\n      gt\n        /* \"#utility.yul\":18187:18243   */\n      iszero\n      tag_521\n      jumpi\n        /* \"#utility.yul\":18223:18241   */\n      tag_522\n      tag_262\n      jump\t// in\n    tag_522:\n        /* \"#utility.yul\":18187:18243   */\n    tag_521:\n        /* \"#utility.yul\":18273:18277   */\n      0x20\n        /* \"#utility.yul\":18265:18271   */\n      dup3\n        /* \"#utility.yul\":18261:18278   */\n      mul\n        /* \"#utility.yul\":18253:18278   */\n      swap1\n      pop\n        /* \"#utility.yul\":18333:18337   */\n      0x20\n        /* \"#utility.yul\":18327:18331   */\n      dup2\n        /* \"#utility.yul\":18323:18338   */\n      add\n        /* \"#utility.yul\":18315:18338   */\n      swap1\n      pop\n        /* \"#utility.yul\":18034:18345   */\n      swap2\n      swap1\n      pop\n      jump\t// out\n        /* \"#utility.yul\":18351:18659   */\n    tag_318:\n        /* \"#utility.yul\":18413:18417   */\n      0x00\n        /* \"#utility.yul\":18503:18521   */\n      0xffffffffffffffff\n        /* \"#utility.yul\":18495:18501   */\n      dup3\n        /* \"#utility.yul\":18492:18522   */\n      gt\n        /* \"#utility.yul\":18489:18545   */\n      iszero\n      tag_524\n      jumpi\n        /* \"#utility.yul\":18525:18543   */\n      tag_525\n      tag_262\n      jump\t// in\n    tag_525:\n        /* \"#utility.yul\":18489:18545   */\n    tag_524:\n        /* \"#utility.yul\":18563:18592   */\n      tag_526\n        /* \"#utility.yul\":18585:18591   */\n      dup3\n        /* \"#utility.yul\":18563:18592   */\n      tag_418\n      jump\t// in\n    tag_526:\n        /* \"#utility.yul\":18555:18592   */\n      swap1\n      pop\n        /* \"#utility.yul\":18647:18651   */\n      0x20\n        /* \"#utility.yul\":18641:18645   */\n      dup2\n        /* \"#utility.yul\":18637:18652   */\n      add\n        /* \"#utility.yul\":18629:18652   */\n      swap1\n      pop\n        /* \"#utility.yul\":18351:18659   */\n      swap2\n      swap1\n      pop\n      jump\t// out\n        /* \"#utility.yul\":18665:18764   */\n    tag_412:\n        /* \"#utility.yul\":18717:18723   */\n      0x00\n        /* \"#utility.yul\":18751:18756   */\n      dup2\n        /* \"#utility.yul\":18745:18757   */\n      mload\n        /* \"#utility.yul\":18735:18757   */\n      swap1\n      pop\n        /* \"#utility.yul\":18665:18764   */\n      swap2\n      swap1\n      pop\n      jump\t// out\n        /* \"#utility.yul\":18770:18929   */\n    tag_414:\n        /* \"#utility.yul\":18844:18855   */\n      0x00\n        /* \"#utility.yul\":18878:18884   */\n      dup3\n        /* \"#utility.yul\":18873:18876   */\n      dup3\n        /* \"#utility.yul\":18866:18885   */\n      mstore\n        /* \"#utility.yul\":18918:18922   */\n      0x20\n        /* \"#utility.yul\":18913:18916   */\n      dup3\n        /* \"#utility.yul\":18909:18923   */\n      add\n        /* \"#utility.yul\":18894:18923   */\n      swap1\n      pop\n        /* \"#utility.yul\":18770:18929   */\n      swap3\n      swap2\n      pop\n      pop\n      jump\t// out\n        /* \"#utility.yul\":18935:19104   */\n    tag_423:\n        /* \"#utility.yul\":19019:19030   */\n      0x00\n        /* \"#utility.yul\":19053:19059   */\n      dup3\n        /* \"#utility.yul\":19048:19051   */\n      dup3\n        /* \"#utility.yul\":19041:19060   */\n      mstore\n        /* \"#utility.yul\":19093:19097   */\n      0x20\n        /* \"#utility.yul\":19088:19091   */\n      dup3\n        /* \"#utility.yul\":19084:19098   */\n      add\n        /* \"#utility.yul\":19069:19098   */\n      swap1\n      pop\n        /* \"#utility.yul\":18935:19104   */\n      swap3\n      swap2\n      pop\n      pop\n      jump\t// out\n        /* \"#utility.yul\":19110:19258   */\n    tag_430:\n        /* \"#utility.yul\":19212:19223   */\n      0x00\n        /* \"#utility.yul\":19249:19252   */\n      dup2\n        /* \"#utility.yul\":19234:19252   */\n      swap1\n      pop\n        /* \"#utility.yul\":19110:19258   */\n      swap3\n      swap2\n      pop\n      pop\n      jump\t// out\n        /* \"#utility.yul\":19264:19569   */\n    tag_259:\n        /* \"#utility.yul\":19304:19307   */\n      0x00\n        /* \"#utility.yul\":19323:19343   */\n      tag_532\n        /* \"#utility.yul\":19341:19342   */\n      dup3\n        /* \"#utility.yul\":19323:19343   */\n      tag_475\n      jump\t// in\n    tag_532:\n        /* \"#utility.yul\":19318:19343   */\n      swap2\n      pop\n        /* \"#utility.yul\":19357:19377   */\n      tag_533\n        /* \"#utility.yul\":19375:19376   */\n      dup4\n        /* \"#utility.yul\":19357:19377   */\n      tag_475\n      jump\t// in\n    tag_533:\n        /* \"#utility.yul\":19352:19377   */\n      swap3\n      pop\n        /* \"#utility.yul\":19511:19512   */\n      dup3\n        /* \"#utility.yul\":19443:19509   */\n      0xffffffffffffffffffffffffffffffffffffffffffffffffffffffffffffffff\n        /* \"#utility.yul\":19439:19513   */\n      sub\n        /* \"#utility.yul\":19436:19437   */\n      dup3\n        /* \"#utility.yul\":19433:19514   */\n      gt\n        /* \"#utility.yul\":19430:19537   */\n      iszero\n      tag_534\n      jumpi\n        /* \"#utility.yul\":19517:19535   */\n      tag_535\n      tag_536\n      jump\t// in\n    tag_535:\n        /* \"#utility.yul\":19430:19537   */\n    tag_534:\n        /* \"#utility.yul\":19561:19562   */\n      dup3\n        /* \"#utility.yul\":19558:19559   */\n      dup3\n        /* \"#utility.yul\":19554:19563   */\n      add\n        /* \"#utility.yul\":19547:19563   */\n      swap1\n      pop\n        /* \"#utility.yul\":19264:19569   */\n      swap3\n      swap2\n      pop\n      pop\n      jump\t// out\n        /* \"#utility.yul\":19575:19923   */\n    tag_257:\n        /* \"#utility.yul\":19615:19622   */\n      0x00\n        /* \"#utility.yul\":19638:19658   */\n      tag_538\n        /* \"#utility.yul\":19656:19657   */\n      dup3\n        /* \"#utility.yul\":19638:19658   */\n      tag_475\n      jump\t// in\n    tag_538:\n        /* \"#utility.yul\":19633:19658   */\n      swap2\n      pop\n        /* \"#utility.yul\":19672:19692   */\n      tag_539\n        /* \"#utility.yul\":19690:19691   */\n      dup4\n        /* \"#utility.yul\":19672:19692   */\n      tag_475\n      jump\t// in\n    tag_539:\n        /* \"#utility.yul\":19667:19692   */\n      swap3\n      pop\n        /* \"#utility.yul\":19860:19861   */\n      dup2\n        /* \"#utility.yul\":19792:19858   */\n      0xffffffffffffffffffffffffffffffffffffffffffffffffffffffffffffffff\n        /* \"#utility.yul\":19788:19862   */\n      div\n        /* \"#utility.yul\":19785:19786   */\n      dup4\n        /* \"#utility.yul\":19782:19863   */\n      gt\n        /* \"#utility.yul\":19777:19778   */\n      dup3\n        /* \"#utility.yul\":19770:19779   */\n      iszero\n        /* \"#utility.yul\":19763:19780   */\n      iszero\n        /* \"#utility.yul\":19759:19864   */\n      and\n        /* \"#utility.yul\":19756:19887   */\n      iszero\n      tag_540\n      jumpi\n        /* \"#utility.yul\":19867:19885   */\n      tag_541\n      tag_536\n      jump\t// in\n    tag_541:\n        /* \"#utility.yul\":19756:19887   */\n    tag_540:\n        /* \"#utility.yul\":19915:19916   */\n      dup3\n        /* \"#utility.yul\":19912:19913   */\n      dup3\n        /* \"#utility.yul\":19908:19917   */\n      mul\n        /* \"#utility.yul\":19897:19917   */\n      swap1\n      pop\n        /* \"#utility.yul\":19575:19923   */\n      swap3\n      swap2\n      pop\n      pop\n      jump\t// out\n        /* \"#utility.yul\":19929:20025   */\n    tag_397:\n        /* \"#utility.yul\":19966:19973   */\n      0x00\n        /* \"#utility.yul\":19995:20019   */\n      tag_543\n        /* \"#utility.yul\":20013:20018   */\n      dup3\n        /* \"#utility.yul\":19995:20019   */\n      tag_544\n      jump\t// in\n    tag_543:\n        /* \"#utility.yul\":19984:20019   */\n      swap1\n      pop\n        /* \"#utility.yul\":19929:20025   */\n      swap2\n      swap1\n      pop\n      jump\t// out\n        /* \"#utility.yul\":20031:20121   */\n    tag_404:\n        /* \"#utility.yul\":20065:20072   */\n      0x00\n        /* \"#utility.yul\":20108:20113   */\n      dup2\n        /* \"#utility.yul\":20101:20114   */\n      iszero\n        /* \"#utility.yul\":20094:20115   */\n      iszero\n        /* \"#utility.yul\":20083:20115   */\n      swap1\n      pop\n        /* \"#utility.yul\":20031:20121   */\n      swap2\n      swap1\n      pop\n      jump\t// out\n        /* \"#utility.yul\":20127:20204   */\n    tag_408:\n        /* \"#utility.yul\":20164:20171   */\n      0x00\n        /* \"#utility.yul\":20193:20198   */\n      dup2\n        /* \"#utility.yul\":20182:20198   */\n      swap1\n      pop\n        /* \"#utility.yul\":20127:20204   */\n      swap2\n      swap1\n      pop\n      jump\t// out\n        /* \"#utility.yul\":20210:20359   */\n    tag_547:\n        /* \"#utility.yul\":20246:20253   */\n      0x00\n        /* \"#utility.yul\":20286:20352   */\n      0xffffffff00000000000000000000000000000000000000000000000000000000\n        /* \"#utility.yul\":20279:20284   */\n      dup3\n        /* \"#utility.yul\":20275:20353   */\n      and\n        /* \"#utility.yul\":20264:20353   */\n      swap1\n      pop\n        /* \"#utility.yul\":20210:20359   */\n      swap2\n      swap1\n      pop\n      jump\t// out\n        /* \"#utility.yul\":20365:20491   */\n    tag_544:\n        /* \"#utility.yul\":20402:20409   */\n      0x00\n        /* \"#utility.yul\":20442:20484   */\n      0xffffffffffffffffffffffffffffffffffffffff\n        /* \"#utility.yul\":20435:20440   */\n      dup3\n        /* \"#utility.yul\":20431:20485   */\n      and\n        /* \"#utility.yul\":20420:20485   */\n      swap1\n      pop\n        /* \"#utility.yul\":20365:20491   */\n      swap2\n      swap1\n      pop\n      jump\t// out\n        /* \"#utility.yul\":20497:20574   */\n    tag_475:\n        /* \"#utility.yul\":20534:20541   */\n      0x00\n        /* \"#utility.yul\":20563:20568   */\n      dup2\n        /* \"#utility.yul\":20552:20568   */\n      swap1\n      pop\n        /* \"#utility.yul\":20497:20574   */\n      swap2\n      swap1\n      pop\n      jump\t// out\n        /* \"#utility.yul\":20580:20734   */\n    tag_323:\n        /* \"#utility.yul\":20664:20670   */\n      dup3\n        /* \"#utility.yul\":20659:20662   */\n      dup2\n        /* \"#utility.yul\":20654:20657   */\n      dup4\n        /* \"#utility.yul\":20641:20671   */\n      calldatacopy\n        /* \"#utility.yul\":20726:20727   */\n      0x00\n        /* \"#utility.yul\":20717:20723   */\n      dup4\n        /* \"#utility.yul\":20712:20715   */\n      dup4\n        /* \"#utility.yul\":20708:20724   */\n      add\n        /* \"#utility.yul\":20701:20728   */\n      mstore\n        /* \"#utility.yul\":20580:20734   */\n      pop\n      pop\n      pop\n      jump\t// out\n        /* \"#utility.yul\":20740:21047   */\n    tag_416:\n        /* \"#utility.yul\":20808:20809   */\n      0x00\n        /* \"#utility.yul\":20818:20931   */\n    tag_553:\n        /* \"#utility.yul\":20832:20838   */\n      dup4\n        /* \"#utility.yul\":20829:20830   */\n      dup2\n        /* \"#utility.yul\":20826:20839   */\n      lt\n        /* \"#utility.yul\":20818:20931   */\n      iszero\n      tag_555\n      jumpi\n        /* \"#utility.yul\":20917:20918   */\n      dup1\n        /* \"#utility.yul\":20912:20915   */\n      dup3\n        /* \"#utility.yul\":20908:20919   */\n      add\n        /* \"#utility.yul\":20902:20920   */\n      mload\n        /* \"#utility.yul\":20898:20899   */\n      dup2\n        /* \"#utility.yul\":20893:20896   */\n      dup5\n        /* \"#utility.yul\":20889:20900   */\n      add\n        /* \"#utility.yul\":20882:20921   */\n      mstore\n        /* \"#utility.yul\":20854:20856   */\n      0x20\n        /* \"#utility.yul\":20851:20852   */\n      dup2\n        /* \"#utility.yul\":20847:20857   */\n      add\n        /* \"#utility.yul\":20842:20857   */\n      swap1\n      pop\n        /* \"#utility.yul\":20818:20931   */\n      jump(tag_553)\n    tag_555:\n        /* \"#utility.yul\":20949:20955   */\n      dup4\n        /* \"#utility.yul\":20946:20947   */\n      dup2\n        /* \"#utility.yul\":20943:20956   */\n      gt\n        /* \"#utility.yul\":20940:21041   */\n      iszero\n      tag_556\n      jumpi\n        /* \"#utility.yul\":21029:21030   */\n      0x00\n        /* \"#utility.yul\":21020:21026   */\n      dup5\n        /* \"#utility.yul\":21015:21018   */\n      dup5\n        /* \"#utility.yul\":21011:21027   */\n      add\n        /* \"#utility.yul\":21004:21031   */\n      mstore\n        /* \"#utility.yul\":20940:21041   */\n    tag_556:\n        /* \"#utility.yul\":20789:21047   */\n      pop\n        /* \"#utility.yul\":20740:21047   */\n      pop\n      pop\n      pop\n      jump\t// out\n        /* \"#utility.yul\":21053:21224   */\n    tag_278:\n        /* \"#utility.yul\":21092:21095   */\n      0x00\n        /* \"#utility.yul\":21115:21139   */\n      tag_558\n        /* \"#utility.yul\":21133:21138   */\n      dup3\n        /* \"#utility.yul\":21115:21139   */\n      tag_475\n      jump\t// in\n    tag_558:\n        /* \"#utility.yul\":21106:21139   */\n      swap2\n      pop\n        /* \"#utility.yul\":21161:21165   */\n      0x00\n        /* \"#utility.yul\":21154:21159   */\n      dup3\n        /* \"#utility.yul\":21151:21166   */\n      eq\n        /* \"#utility.yul\":21148:21189   */\n      iszero\n      tag_559\n      jumpi\n        /* \"#utility.yul\":21169:21187   */\n      tag_560\n      tag_536\n      jump\t// in\n    tag_560:\n        /* \"#utility.yul\":21148:21189   */\n    tag_559:\n        /* \"#utility.yul\":21216:21217   */\n      0x01\n        /* \"#utility.yul\":21209:21214   */\n      dup3\n        /* \"#utility.yul\":21205:21218   */\n      sub\n        /* \"#utility.yul\":21198:21218   */\n      swap1\n      pop\n        /* \"#utility.yul\":21053:21224   */\n      swap2\n      swap1\n      pop\n      jump\t// out\n        /* \"#utility.yul\":21230:21550   */\n    tag_119:\n        /* \"#utility.yul\":21274:21280   */\n      0x00\n        /* \"#utility.yul\":21311:21312   */\n      0x02\n        /* \"#utility.yul\":21305:21309   */\n      dup3\n        /* \"#utility.yul\":21301:21313   */\n      div\n        /* \"#utility.yul\":21291:21313   */\n      swap1\n      pop\n        /* \"#utility.yul\":21358:21359   */\n      0x01\n        /* \"#utility.yul\":21352:21356   */\n      dup3\n        /* \"#utility.yul\":21348:21360   */\n      and\n        /* \"#utility.yul\":21379:21397   */\n      dup1\n        /* \"#utility.yul\":21369:21450   */\n      tag_562\n      jumpi\n        /* \"#utility.yul\":21435:21439   */\n      0x7f\n        /* \"#utility.yul\":21427:21433   */\n      dup3\n        /* \"#utility.yul\":21423:21440   */\n      and\n        /* \"#utility.yul\":21413:21440   */\n      swap2\n      pop\n        /* \"#utility.yul\":21369:21450   */\n    tag_562:\n        /* \"#utility.yul\":21497:21499   */\n      0x20\n        /* \"#utility.yul\":21489:21495   */\n      dup3\n        /* \"#utility.yul\":21486:21500   */\n      lt\n        /* \"#utility.yul\":21466:21484   */\n      dup2\n        /* \"#utility.yul\":21463:21501   */\n      eq\n        /* \"#utility.yul\":21460:21544   */\n      iszero\n      tag_563\n      jumpi\n        /* \"#utility.yul\":21516:21534   */\n      tag_564\n      tag_565\n      jump\t// in\n    tag_564:\n        /* \"#utility.yul\":21460:21544   */\n    tag_563:\n        /* \"#utility.yul\":21281:21550   */\n      pop\n        /* \"#utility.yul\":21230:21550   */\n      swap2\n      swap1\n      pop\n      jump\t// out\n        /* \"#utility.yul\":21556:21837   */\n    tag_518:\n        /* \"#utility.yul\":21639:21666   */\n      tag_567\n        /* \"#utility.yul\":21661:21665   */\n      dup3\n        /* \"#utility.yul\":21639:21666   */\n      tag_418\n      jump\t// in\n    tag_567:\n        /* \"#utility.yul\":21631:21637   */\n      dup2\n        /* \"#utility.yul\":21627:21667   */\n      add\n        /* \"#utility.yul\":21769:21775   */\n      dup2\n        /* \"#utility.yul\":21757:21767   */\n      dup2\n        /* \"#utility.yul\":21754:21776   */\n      lt\n        /* \"#utility.yul\":21733:21751   */\n      0xffffffffffffffff\n        /* \"#utility.yul\":21721:21731   */\n      dup3\n        /* \"#utility.yul\":21718:21752   */\n      gt\n        /* \"#utility.yul\":21715:21777   */\n      or\n        /* \"#utility.yul\":21712:21800   */\n      iszero\n      tag_568\n      jumpi\n        /* \"#utility.yul\":21780:21798   */\n      tag_569\n      tag_262\n      jump\t// in\n    tag_569:\n        /* \"#utility.yul\":21712:21800   */\n    tag_568:\n        /* \"#utility.yul\":21820:21830   */\n      dup1\n        /* \"#utility.yul\":21816:21818   */\n      0x40\n        /* \"#utility.yul\":21809:21831   */\n      mstore\n        /* \"#utility.yul\":21599:21837   */\n      pop\n        /* \"#utility.yul\":21556:21837   */\n      pop\n      pop\n      jump\t// out\n        /* \"#utility.yul\":21843:22076   */\n    tag_167:\n        /* \"#utility.yul\":21882:21885   */\n      0x00\n        /* \"#utility.yul\":21905:21929   */\n      tag_571\n        /* \"#utility.yul\":21923:21928   */\n      dup3\n        /* \"#utility.yul\":21905:21929   */\n      tag_475\n      jump\t// in\n    tag_571:\n        /* \"#utility.yul\":21896:21929   */\n      swap2\n      pop\n        /* \"#utility.yul\":21951:22017   */\n      0xffffffffffffffffffffffffffffffffffffffffffffffffffffffffffffffff\n        /* \"#utility.yul\":21944:21949   */\n      dup3\n        /* \"#utility.yul\":21941:22018   */\n      eq\n        /* \"#utility.yul\":21938:22041   */\n      iszero\n      tag_572\n      jumpi\n        /* \"#utility.yul\":22021:22039   */\n      tag_573\n      tag_536\n      jump\t// in\n    tag_573:\n        /* \"#utility.yul\":21938:22041   */\n    tag_572:\n        /* \"#utility.yul\":22068:22069   */\n      0x01\n        /* \"#utility.yul\":22061:22066   */\n      dup3\n        /* \"#utility.yul\":22057:22070   */\n      add\n        /* \"#utility.yul\":22050:22070   */\n      swap1\n      pop\n        /* \"#utility.yul\":21843:22076   */\n      swap2\n      swap1\n      pop\n      jump\t// out\n        /* \"#utility.yul\":22082:22262   */\n    tag_536:\n        /* \"#utility.yul\":22130:22207   */\n      0x4e487b7100000000000000000000000000000000000000000000000000000000\n        /* \"#utility.yul\":22127:22128   */\n      0x00\n        /* \"#utility.yul\":22120:22208   */\n      mstore\n        /* \"#utility.yul\":22227:22231   */\n      0x11\n        /* \"#utility.yul\":22224:22225   */\n      0x04\n        /* \"#utility.yul\":22217:22232   */\n      mstore\n        /* \"#utility.yul\":22251:22255   */\n      0x24\n        /* \"#utility.yul\":22248:22249   */\n      0x00\n        /* \"#utility.yul\":22241:22256   */\n      revert\n        /* \"#utility.yul\":22268:22448   */\n    tag_565:\n        /* \"#utility.yul\":22316:22393   */\n      0x4e487b7100000000000000000000000000000000000000000000000000000000\n        /* \"#utility.yul\":22313:22314   */\n      0x00\n        /* \"#utility.yul\":22306:22394   */\n      mstore\n        /* \"#utility.yul\":22413:22417   */\n      0x22\n        /* \"#utility.yul\":22410:22411   */\n      0x04\n        /* \"#utility.yul\":22403:22418   */\n      mstore\n        /* \"#utility.yul\":22437:22441   */\n      0x24\n        /* \"#utility.yul\":22434:22435   */\n      0x00\n        /* \"#utility.yul\":22427:22442   */\n      revert\n        /* \"#utility.yul\":22454:22634   */\n    tag_162:\n        /* \"#utility.yul\":22502:22579   */\n      0x4e487b7100000000000000000000000000000000000000000000000000000000\n        /* \"#utility.yul\":22499:22500   */\n      0x00\n        /* \"#utility.yul\":22492:22580   */\n      mstore\n        /* \"#utility.yul\":22599:22603   */\n      0x32\n        /* \"#utility.yul\":22596:22597   */\n      0x04\n        /* \"#utility.yul\":22589:22604   */\n      mstore\n        /* \"#utility.yul\":22623:22627   */\n      0x24\n        /* \"#utility.yul\":22620:22621   */\n      0x00\n        /* \"#utility.yul\":22613:22628   */\n      revert\n        /* \"#utility.yul\":22640:22820   */\n    tag_262:\n        /* \"#utility.yul\":22688:22765   */\n      0x4e487b7100000000000000000000000000000000000000000000000000000000\n        /* \"#utility.yul\":22685:22686   */\n      0x00\n        /* \"#utility.yul\":22678:22766   */\n      mstore\n        /* \"#utility.yul\":22785:22789   */\n      0x41\n        /* \"#utility.yul\":22782:22783   */\n      0x04\n        /* \"#utility.yul\":22775:22790   */\n      mstore\n        /* \"#utility.yul\":22809:22813   */\n      0x24\n        /* \"#utility.yul\":22806:22807   */\n      0x00\n        /* \"#utility.yul\":22799:22814   */\n      revert\n        /* \"#utility.yul\":22826:22943   */\n    tag_331:\n        /* \"#utility.yul\":22935:22936   */\n      0x00\n        /* \"#utility.yul\":22932:22933   */\n      dup1\n        /* \"#utility.yul\":22925:22937   */\n      revert\n        /* \"#utility.yul\":22949:23066   */\n    tag_308:\n        /* \"#utility.yul\":23058:23059   */\n      0x00\n        /* \"#utility.yul\":23055:23056   */\n      dup1\n        /* \"#utility.yul\":23048:23060   */\n      revert\n        /* \"#utility.yul\":23072:23189   */\n    tag_321:\n        /* \"#utility.yul\":23181:23182   */\n      0x00\n        /* \"#utility.yul\":23178:23179   */\n      dup1\n        /* \"#utility.yul\":23171:23183   */\n      revert\n        /* \"#utility.yul\":23195:23312   */\n    tag_365:\n        /* \"#utility.yul\":23304:23305   */\n      0x00\n        /* \"#utility.yul\":23301:23302   */\n      dup1\n        /* \"#utility.yul\":23294:23306   */\n      revert\n        /* \"#utility.yul\":23318:23435   */\n    tag_353:\n        /* \"#utility.yul\":23427:23428   */\n      0x00\n        /* \"#utility.yul\":23424:23425   */\n      dup1\n        /* \"#utility.yul\":23417:23429   */\n      revert\n        /* \"#utility.yul\":23441:23543   */\n    tag_418:\n        /* \"#utility.yul\":23482:23488   */\n      0x00\n        /* \"#utility.yul\":23533:23535   */\n      0x1f\n        /* \"#utility.yul\":23529:23536   */\n      not\n        /* \"#utility.yul\":23524:23526   */\n      0x1f\n        /* \"#utility.yul\":23517:23522   */\n      dup4\n        /* \"#utility.yul\":23513:23527   */\n      add\n        /* \"#utility.yul\":23509:23537   */\n      and\n        /* \"#utility.yul\":23499:23537   */\n      swap1\n      pop\n        /* \"#utility.yul\":23441:23543   */\n      swap2\n      swap1\n      pop\n      jump\t// out\n        /* \"#utility.yul\":23549:23731   */\n    tag_436:\n        /* \"#utility.yul\":23689:23723   */\n      0x537472696e67733a20686578206c656e67746820696e73756666696369656e74\n        /* \"#utility.yul\":23685:23686   */\n      0x00\n        /* \"#utility.yul\":23677:23683   */\n      dup3\n        /* \"#utility.yul\":23673:23687   */\n      add\n        /* \"#utility.yul\":23666:23724   */\n      mstore\n        /* \"#utility.yul\":23549:23731   */\n      pop\n      jump\t// out\n        /* \"#utility.yul\":23737:23962   */\n    tag_441:\n        /* \"#utility.yul\":23877:23911   */\n      0x4f776e61626c653a206e6577206f776e657220697320746865207a65726f2061\n        /* \"#utility.yul\":23873:23874   */\n      0x00\n        /* \"#utility.yul\":23865:23871   */\n      dup3\n        /* \"#utility.yul\":23861:23875   */\n      add\n        /* \"#utility.yul\":23854:23912   */\n      mstore\n        /* \"#utility.yul\":23946:23954   */\n      0x6464726573730000000000000000000000000000000000000000000000000000\n        /* \"#utility.yul\":23941:23943   */\n      0x20\n        /* \"#utility.yul\":23933:23939   */\n      dup3\n        /* \"#utility.yul\":23929:23944   */\n      add\n        /* \"#utility.yul\":23922:23955   */\n      mstore\n        /* \"#utility.yul\":23737:23962   */\n      pop\n      jump\t// out\n        /* \"#utility.yul\":23968:24149   */\n    tag_446:\n        /* \"#utility.yul\":24108:24141   */\n      0x43616c6c6572206973206e6f7420616e20494e45432065786563757469766500\n        /* \"#utility.yul\":24104:24105   */\n      0x00\n        /* \"#utility.yul\":24096:24102   */\n      dup3\n        /* \"#utility.yul\":24092:24106   */\n      add\n        /* \"#utility.yul\":24085:24142   */\n      mstore\n        /* \"#utility.yul\":23968:24149   */\n      pop\n      jump\t// out\n        /* \"#utility.yul\":24155:24337   */\n    tag_451:\n        /* \"#utility.yul\":24295:24329   */\n      0x4f776e61626c653a2063616c6c6572206973206e6f7420746865206f776e6572\n        /* \"#utility.yul\":24291:24292   */\n      0x00\n        /* \"#utility.yul\":24283:24289   */\n      dup3\n        /* \"#utility.yul\":24279:24293   */\n      add\n        /* \"#utility.yul\":24272:24330   */\n      mstore\n        /* \"#utility.yul\":24155:24337   */\n      pop\n      jump\t// out\n        /* \"#utility.yul\":24343:24516   */\n    tag_456:\n        /* \"#utility.yul\":24483:24508   */\n      0x416363657373436f6e74726f6c3a206163636f756e7420000000000000000000\n        /* \"#utility.yul\":24479:24480   */\n      0x00\n        /* \"#utility.yul\":24471:24477   */\n      dup3\n        /* \"#utility.yul\":24467:24481   */\n      add\n        /* \"#utility.yul\":24460:24509   */\n      mstore\n        /* \"#utility.yul\":24343:24516   */\n      pop\n      jump\t// out\n        /* \"#utility.yul\":24522:24689   */\n    tag_461:\n        /* \"#utility.yul\":24662:24681   */\n      0x206973206d697373696e6720726f6c6520000000000000000000000000000000\n        /* \"#utility.yul\":24658:24659   */\n      0x00\n        /* \"#utility.yul\":24650:24656   */\n      dup3\n        /* \"#utility.yul\":24646:24660   */\n      add\n        /* \"#utility.yul\":24639:24682   */\n      mstore\n        /* \"#utility.yul\":24522:24689   */\n      pop\n      jump\t// out\n        /* \"#utility.yul\":24695:24929   */\n    tag_466:\n        /* \"#utility.yul\":24835:24869   */\n      0x416363657373436f6e74726f6c3a2063616e206f6e6c792072656e6f756e6365\n        /* \"#utility.yul\":24831:24832   */\n      0x00\n        /* \"#utility.yul\":24823:24829   */\n      dup3\n        /* \"#utility.yul\":24819:24833   */\n      add\n        /* \"#utility.yul\":24812:24870   */\n      mstore\n        /* \"#utility.yul\":24904:24921   */\n      0x20726f6c657320666f722073656c660000000000000000000000000000000000\n        /* \"#utility.yul\":24899:24901   */\n      0x20\n        /* \"#utility.yul\":24891:24897   */\n      dup3\n        /* \"#utility.yul\":24887:24902   */\n      add\n        /* \"#utility.yul\":24880:24922   */\n      mstore\n        /* \"#utility.yul\":24695:24929   */\n      pop\n      jump\t// out\n        /* \"#utility.yul\":24935:25057   */\n    tag_326:\n        /* \"#utility.yul\":25008:25032   */\n      tag_592\n        /* \"#utility.yul\":25026:25031   */\n      dup2\n        /* \"#utility.yul\":25008:25032   */\n      tag_397\n      jump\t// in\n    tag_592:\n        /* \"#utility.yul\":25001:25006   */\n      dup2\n        /* \"#utility.yul\":24998:25033   */\n      eq\n        /* \"#utility.yul\":24988:25051   */\n      tag_593\n      jumpi\n        /* \"#utility.yul\":25047:25048   */\n      0x00\n        /* \"#utility.yul\":25044:25045   */\n      dup1\n        /* \"#utility.yul\":25037:25049   */\n      revert\n        /* \"#utility.yul\":24988:25051   */\n    tag_593:\n        /* \"#utility.yul\":24935:25057   */\n      pop\n      jump\t// out\n        /* \"#utility.yul\":25063:25185   */\n    tag_336:\n        /* \"#utility.yul\":25136:25160   */\n      tag_595\n        /* \"#utility.yul\":25154:25159   */\n      dup2\n        /* \"#utility.yul\":25136:25160   */\n      tag_408\n      jump\t// in\n    tag_595:\n        /* \"#utility.yul\":25129:25134   */\n      dup2\n        /* \"#utility.yul\":25126:25161   */\n      eq\n        /* \"#utility.yul\":25116:25179   */\n      tag_596\n      jumpi\n        /* \"#utility.yul\":25175:25176   */\n      0x00\n        /* \"#utility.yul\":25172:25173   */\n      dup1\n        /* \"#utility.yul\":25165:25177   */\n      revert\n        /* \"#utility.yul\":25116:25179   */\n    tag_596:\n        /* \"#utility.yul\":25063:25185   */\n      pop\n      jump\t// out\n        /* \"#utility.yul\":25191:25311   */\n    tag_340:\n        /* \"#utility.yul\":25263:25286   */\n      tag_598\n        /* \"#utility.yul\":25280:25285   */\n      dup2\n        /* \"#utility.yul\":25263:25286   */\n      tag_547\n      jump\t// in\n    tag_598:\n        /* \"#utility.yul\":25256:25261   */\n      dup2\n        /* \"#utility.yul\":25253:25287   */\n      eq\n        /* \"#utility.yul\":25243:25305   */\n      tag_599\n      jumpi\n        /* \"#utility.yul\":25301:25302   */\n      0x00\n        /* \"#utility.yul\":25298:25299   */\n      dup1\n        /* \"#utility.yul\":25291:25303   */\n      revert\n        /* \"#utility.yul\":25243:25305   */\n    tag_599:\n        /* \"#utility.yul\":25191:25311   */\n      pop\n      jump\t// out\n        /* \"#utility.yul\":25317:25439   */\n    tag_349:\n        /* \"#utility.yul\":25390:25414   */\n      tag_601\n        /* \"#utility.yul\":25408:25413   */\n      dup2\n        /* \"#utility.yul\":25390:25414   */\n      tag_475\n      jump\t// in\n    tag_601:\n        /* \"#utility.yul\":25383:25388   */\n      dup2\n        /* \"#utility.yul\":25380:25415   */\n      eq\n        /* \"#utility.yul\":25370:25433   */\n      tag_602\n      jumpi\n        /* \"#utility.yul\":25429:25430   */\n      0x00\n        /* \"#utility.yul\":25426:25427   */\n      dup1\n        /* \"#utility.yul\":25419:25431   */\n      revert\n        /* \"#utility.yul\":25370:25433   */\n    tag_602:\n        /* \"#utility.yul\":25317:25439   */\n      pop\n      jump\t// out\n\n    auxdata: 0xa26469706673582212204aad81e6114e372c61387f4c45d8f29dfb0642d112c624a72679cb7e82d5d9cf64736f6c63430008070033\n}\n",
				"bytecode": {
					"linkReferences": {},
					"object": "608060405260405180608001604052806040518060400160405280600381526020017f415043000000000000000000000000000000000000000000000000000000000081525081526020016040518060400160405280600381526020017f504450000000000000000000000000000000000000000000000000000000000081525081526020016040518060400160405280600281526020017f4c5000000000000000000000000000000000000000000000000000000000000081525081526020016040518060400160405280600481526020017f4e4e50500000000000000000000000000000000000000000000000000000000081525081525060069060046200010b92919062000393565b503480156200011957600080fd5b506200013a6200012e6200015560201b60201c565b6200015d60201b60201c565b6200014f6000801b336200022160201b60201c565b6200057d565b600033905090565b60008060009054906101000a900473ffffffffffffffffffffffffffffffffffffffff169050816000806101000a81548173ffffffffffffffffffffffffffffffffffffffff021916908373ffffffffffffffffffffffffffffffffffffffff1602179055508173ffffffffffffffffffffffffffffffffffffffff168173ffffffffffffffffffffffffffffffffffffffff167f8be0079c531659141344cd1fd0a4f28419497f9722a3daafe3b4186f6b6457e060405160405180910390a35050565b6200023382826200023760201b60201c565b5050565b6200024982826200032860201b60201c565b6200032457600180600084815260200190815260200160002060000160008373ffffffffffffffffffffffffffffffffffffffff1673ffffffffffffffffffffffffffffffffffffffff16815260200190815260200160002060006101000a81548160ff021916908315150217905550620002c96200015560201b60201c565b73ffffffffffffffffffffffffffffffffffffffff168173ffffffffffffffffffffffffffffffffffffffff16837f2f8788117e7eff1d82e926ec794901d17c78024a50270940304540a733656f0d60405160405180910390a45b5050565b60006001600084815260200190815260200160002060000160008373ffffffffffffffffffffffffffffffffffffffff1673ffffffffffffffffffffffffffffffffffffffff16815260200190815260200160002060009054906101000a900460ff16905092915050565b828054828255906000526020600020908101928215620003e7579160200282015b82811115620003e6578251829080519060200190620003d5929190620003fa565b5091602001919060010190620003b4565b5b509050620003f691906200048b565b5090565b828054620004089062000518565b90600052602060002090601f0160209004810192826200042c576000855562000478565b82601f106200044757805160ff191683800117855562000478565b8280016001018555821562000478579182015b82811115620004775782518255916020019190600101906200045a565b5b509050620004879190620004b3565b5090565b5b80821115620004af5760008181620004a59190620004d2565b506001016200048c565b5090565b5b80821115620004ce576000816000905550600101620004b4565b5090565b508054620004e09062000518565b6000825580601f10620004f4575062000515565b601f016020900490600052602060002090810190620005149190620004b3565b5b50565b600060028204905060018216806200053157607f821691505b602082108114156200054857620005476200054e565b5b50919050565b7f4e487b7100000000000000000000000000000000000000000000000000000000600052602260045260246000fd5b6124fd806200058d6000396000f3fe608060405234801561001057600080fd5b50600436106101375760003560e01c80638da5cb5b116100b8578063a94015c81161007c578063a94015c81461037b578063d547741f14610399578063d59d2a58146103b5578063dfd8459e146103d1578063ef49f4aa146103ed578063f2fde38b1461040957610137565b80638da5cb5b146102ac57806391d14854146102ca5780639c35d98b146102fa5780639e5f03491461032d578063a217fddf1461035d57610137565b80632f2ff15d116100ff5780632f2ff15d1461021e578063314fd68f1461023a57806336568abe1461026a5780634f05dba814610286578063715018a6146102a257610137565b806301ffc9a71461013c5780631e9598e21461016c578063248a9ca31461019e578063290e9212146101ce5780632e0d37bb14610200575b600080fd5b610156600480360381019061015191906119e7565b610425565b6040516101639190611d84565b60405180910390f35b61018660048036038101906101819190611a83565b61049f565b60405161019593929190611ee3565b60405180910390f35b6101b860048036038101906101b3919061197a565b6104d6565b6040516101c59190611d9f565b60405180910390f35b6101e860048036038101906101e39190611a83565b6104f6565b6040516101f793929190611ddc565b60405180910390f35b610208610650565b6040516102159190611d9f565b60405180910390f35b610238600480360381019061023391906119a7565b610674565b005b610254600480360381019061024f9190611a83565b610695565b6040516102619190611dba565b60405180910390f35b610284600480360381019061027f91906119a7565b610741565b005b6102a0600480360381019061029b919061190b565b6107c4565b005b6102aa6109b9565b005b6102b46109cd565b6040516102c19190611d24565b60405180910390f35b6102e460048036038101906102df91906119a7565b6109f6565b6040516102f19190611d84565b60405180910390f35b610314600480360381019061030f9190611a83565b610a61565b6040516103249493929190611d3f565b60405180910390f35b61034760048036038101906103429190611a83565b610abe565b6040516103549190611ec1565b60405180910390f35b610365610c65565b6040516103729190611d9f565b60405180910390f35b610383610c6c565b6040516103909190611d9f565b60405180910390f35b6103b360048036038101906103ae91906119a7565b610c90565b005b6103cf60048036038101906103ca9190611a14565b610cb1565b005b6103eb60048036038101906103e6919061189e565b610e09565b005b610407600480360381019061040291906118cb565b610e3e565b005b610423600480360381019061041e919061189e565b610ee0565b005b60007f7965db0b000000000000000000000000000000000000000000000000000000007bffffffffffffffffffffffffffffffffffffffffffffffffffffffff1916827bffffffffffffffffffffffffffffffffffffffffffffffffffffffff19161480610498575061049782610f64565b5b9050919050565b60096020528060005260406000206000915090508060020154908060030154908060040160009054906101000a900460ff16905083565b600060016000838152602001908152602001600020600101549050919050565b60076020528060005260406000206000915090508060000180546105199061216e565b80601f01602080910402602001604051908101604052809291908181526020018280546105459061216e565b80156105925780601f1061056757610100808354040283529160200191610592565b820191906000526020600020905b81548152906001019060200180831161057557829003601f168201915b5050505050908060010160009054906101000a900473ffffffffffffffffffffffffffffffffffffffff16908060020180546105cd9061216e565b80601f01602080910402602001604051908101604052809291908181526020018280546105f99061216e565b80156106465780601f1061061b57610100808354040283529160200191610646565b820191906000526020600020905b81548152906001019060200180831161062957829003601f168201915b5050505050905083565b7f082f6ed76e0352438e6a6e35c77719c3f04bf277fdc8fec7e5ff5f65e001d90281565b61067d826104d6565b61068681610fce565b6106908383610fe2565b505050565b600681815481106106a557600080fd5b9060005260206000200160009150905080546106c09061216e565b80601f01602080910402602001604051908101604052809291908181526020018280546106ec9061216e565b80156107395780601f1061070e57610100808354040283529160200191610739565b820191906000526020600020905b81548152906001019060200180831161071c57829003601f168201915b505050505081565b6107496110c2565b73ffffffffffffffffffffffffffffffffffffffff168173ffffffffffffffffffffffffffffffffffffffff16146107b6576040517f08c379a00000000000000000000000000000000000000000000000000000000081526004016107ad90611ea1565b60405180910390fd5b6107c082826110ca565b5050565b6107ee7f082f6ed76e0352438e6a6e35c77719c3f04bf277fdc8fec7e5ff5f65e001d902336109f6565b61082d576040517f08c379a000000000000000000000000000000000000000000000000000000000815260040161082490611e61565b60405180910390fd5b8160096000600554815260200190815260200160002060020181905550806009600060055481526020019081526020016000206003018190555060005b835181101561099b5760096000600554815260200190815260200160002060000184828151811061089e5761089d612278565b5b60200260200101519080600181540180825580915050600190039060005260206000200160009091909190916101000a81548173ffffffffffffffffffffffffffffffffffffffff021916908373ffffffffffffffffffffffffffffffffffffffff16021790555083818151811061091957610918612278565b5b6020026020010151600960006005548152602001908152602001600020600101600083815260200190815260200160002060006101000a81548173ffffffffffffffffffffffffffffffffffffffff021916908373ffffffffffffffffffffffffffffffffffffffff1602179055508080610993906121d1565b91505061086a565b50600560008154809291906109af906121d1565b9190505550505050565b6109c16111ac565b6109cb600061122a565b565b60008060009054906101000a900473ffffffffffffffffffffffffffffffffffffffff16905090565b60006001600084815260200190815260200160002060000160008373ffffffffffffffffffffffffffffffffffffffff1673ffffffffffffffffffffffffffffffffffffffff16815260200190815260200160002060009054906101000a900460ff16905092915050565b60086020528060005260406000206000915090508060000160009054906101000a900473ffffffffffffffffffffffffffffffffffffffff16908060010154908060020154908060030160009054906101000a900460ff16905084565b610ac66115d5565b60076000838152602001908152602001600020604051806060016040529081600082018054610af49061216e565b80601f0160208091040260200160405190810160405280929190818152602001828054610b209061216e565b8015610b6d5780601f10610b4257610100808354040283529160200191610b6d565b820191906000526020600020905b815481529060010190602001808311610b5057829003601f168201915b505050505081526020016001820160009054906101000a900473ffffffffffffffffffffffffffffffffffffffff1673ffffffffffffffffffffffffffffffffffffffff1673ffffffffffffffffffffffffffffffffffffffff168152602001600282018054610bdc9061216e565b80601f0160208091040260200160405190810160405280929190818152602001828054610c089061216e565b8015610c555780601f10610c2a57610100808354040283529160200191610c55565b820191906000526020600020905b815481529060010190602001808311610c3857829003601f168201915b5050505050815250509050919050565b6000801b81565b7f15283fd96aa656c9df35ac2fcb112678a5f24f1ca97e591a97d1d16003dbfc9c81565b610c99826104d6565b610ca281610fce565b610cac83836110ca565b505050565b610cdb7f082f6ed76e0352438e6a6e35c77719c3f04bf277fdc8fec7e5ff5f65e001d902336109f6565b610d1a576040517f08c379a0000000000000000000000000000000000000000000000000000000008152600401610d1190611e61565b60405180910390fd5b826007600060035481526020019081526020016000206000019080519060200190610d4692919061160c565b508160076000600354815260200190815260200160002060010160006101000a81548173ffffffffffffffffffffffffffffffffffffffff021916908373ffffffffffffffffffffffffffffffffffffffff16021790555060068181548110610db257610db1612278565b5b90600052602060002001600760006003548152602001908152602001600020600201908054610de09061216e565b610deb929190611692565b5060036000815480929190610dff906121d1565b9190505550505050565b610e116111ac565b610e3b7f082f6ed76e0352438e6a6e35c77719c3f04bf277fdc8fec7e5ff5f65e001d90282610674565b50565b8160086000600454815260200190815260200160002060000160006101000a81548173ffffffffffffffffffffffffffffffffffffffff021916908373ffffffffffffffffffffffffffffffffffffffff1602179055508060086000600454815260200190815260200160002060010181905550610edc7f15283fd96aa656c9df35ac2fcb112678a5f24f1ca97e591a97d1d16003dbfc9c836112ee565b5050565b610ee86111ac565b600073ffffffffffffffffffffffffffffffffffffffff168173ffffffffffffffffffffffffffffffffffffffff161415610f58576040517f08c379a0000000000000000000000000000000000000000000000000000000008152600401610f4f90611e41565b60405180910390fd5b610f618161122a565b50565b60007f01ffc9a7000000000000000000000000000000000000000000000000000000007bffffffffffffffffffffffffffffffffffffffffffffffffffffffff1916827bffffffffffffffffffffffffffffffffffffffffffffffffffffffff1916149050919050565b610fdf81610fda6110c2565b6112fc565b50565b610fec82826109f6565b6110be57600180600084815260200190815260200160002060000160008373ffffffffffffffffffffffffffffffffffffffff1673ffffffffffffffffffffffffffffffffffffffff16815260200190815260200160002060006101000a81548160ff0219169083151502179055506110636110c2565b73ffffffffffffffffffffffffffffffffffffffff168173ffffffffffffffffffffffffffffffffffffffff16837f2f8788117e7eff1d82e926ec794901d17c78024a50270940304540a733656f0d60405160405180910390a45b5050565b600033905090565b6110d482826109f6565b156111a85760006001600084815260200190815260200160002060000160008373ffffffffffffffffffffffffffffffffffffffff1673ffffffffffffffffffffffffffffffffffffffff16815260200190815260200160002060006101000a81548160ff02191690831515021790555061114d6110c2565b73ffffffffffffffffffffffffffffffffffffffff168173ffffffffffffffffffffffffffffffffffffffff16837ff6391f5c32d9c69d2a47ea670b442974b53935d1edc7fd64eb21e047a839171b60405160405180910390a45b5050565b6111b46110c2565b73ffffffffffffffffffffffffffffffffffffffff166111d26109cd565b73ffffffffffffffffffffffffffffffffffffffff1614611228576040517f08c379a000000000000000000000000000000000000000000000000000000000815260040161121f90611e81565b60405180910390fd5b565b60008060009054906101000a900473ffffffffffffffffffffffffffffffffffffffff169050816000806101000a81548173ffffffffffffffffffffffffffffffffffffffff021916908373ffffffffffffffffffffffffffffffffffffffff1602179055508173ffffffffffffffffffffffffffffffffffffffff168173ffffffffffffffffffffffffffffffffffffffff167f8be0079c531659141344cd1fd0a4f28419497f9722a3daafe3b4186f6b6457e060405160405180910390a35050565b6112f88282610fe2565b5050565b61130682826109f6565b6113955761132b8173ffffffffffffffffffffffffffffffffffffffff166014611399565b6113398360001c6020611399565b60405160200161134a929190611cea565b6040516020818303038152906040526040517f08c379a000000000000000000000000000000000000000000000000000000000815260040161138c9190611dba565b60405180910390fd5b5050565b6060600060028360026113ac919061202a565b6113b69190611fd4565b67ffffffffffffffff8111156113cf576113ce6122a7565b5b6040519080825280601f01601f1916602001820160405280156114015781602001600182028036833780820191505090505b5090507f30000000000000000000000000000000000000000000000000000000000000008160008151811061143957611438612278565b5b60200101907effffffffffffffffffffffffffffffffffffffffffffffffffffffffffffff1916908160001a9053507f78000000000000000000000000000000000000000000000000000000000000008160018151811061149d5761149c612278565b5b60200101907effffffffffffffffffffffffffffffffffffffffffffffffffffffffffffff1916908160001a905350600060018460026114dd919061202a565b6114e79190611fd4565b90505b6001811115611587577f3031323334353637383961626364656600000000000000000000000000000000600f86166010811061152957611528612278565b5b1a60f81b8282815181106115405761153f612278565b5b60200101907effffffffffffffffffffffffffffffffffffffffffffffffffffffffffffff1916908160001a905350600485901c94508061158090612144565b90506114ea565b50600084146115cb576040517f08c379a00000000000000000000000000000000000000000000000000000000081526004016115c290611e21565b60405180910390fd5b8091505092915050565b604051806060016040528060608152602001600073ffffffffffffffffffffffffffffffffffffffff168152602001606081525090565b8280546116189061216e565b90600052602060002090601f01602090048101928261163a5760008555611681565b82601f1061165357805160ff1916838001178555611681565b82800160010185558215611681579182015b82811115611680578251825591602001919060010190611665565b5b50905061168e919061171f565b5090565b82805461169e9061216e565b90600052602060002090601f0160209004810192826116c0576000855561170e565b82601f106116d1578054855561170e565b8280016001018555821561170e57600052602060002091601f016020900482015b8281111561170d5782548255916001019190600101906116f2565b5b50905061171b919061171f565b5090565b5b80821115611738576000816000905550600101611720565b5090565b600061174f61174a84611f3f565b611f1a565b90508083825260208201905082856020860282011115611772576117716122db565b5b60005b858110156117a2578161178888826117ee565b845260208401935060208301925050600181019050611775565b5050509392505050565b60006117bf6117ba84611f6b565b611f1a565b9050828152602081018484840111156117db576117da6122e0565b5b6117e6848285612102565b509392505050565b6000813590506117fd8161246b565b92915050565b600082601f830112611818576118176122d6565b5b813561182884826020860161173c565b91505092915050565b60008135905061184081612482565b92915050565b60008135905061185581612499565b92915050565b600082601f8301126118705761186f6122d6565b5b81356118808482602086016117ac565b91505092915050565b600081359050611898816124b0565b92915050565b6000602082840312156118b4576118b36122ea565b5b60006118c2848285016117ee565b91505092915050565b600080604083850312156118e2576118e16122ea565b5b60006118f0858286016117ee565b925050602061190185828601611889565b9150509250929050565b600080600060608486031215611924576119236122ea565b5b600084013567ffffffffffffffff811115611942576119416122e5565b5b61194e86828701611803565b935050602061195f86828701611889565b925050604061197086828701611889565b9150509250925092565b6000602082840312156119905761198f6122ea565b5b600061199e84828501611831565b91505092915050565b600080604083850312156119be576119bd6122ea565b5b60006119cc85828601611831565b92505060206119dd858286016117ee565b9150509250929050565b6000602082840312156119fd576119fc6122ea565b5b6000611a0b84828501611846565b91505092915050565b600080600060608486031215611a2d57611a2c6122ea565b5b600084013567ffffffffffffffff811115611a4b57611a4a6122e5565b5b611a578682870161185b565b9350506020611a68868287016117ee565b9250506040611a7986828701611889565b9150509250925092565b600060208284031215611a9957611a986122ea565b5b6000611aa784828501611889565b91505092915050565b611ab981612084565b82525050565b611ac881612084565b82525050565b611ad781612096565b82525050565b611ae6816120a2565b82525050565b6000611af782611f9c565b611b018185611fa7565b9350611b11818560208601612111565b611b1a816122ef565b840191505092915050565b6000611b3082611f9c565b611b3a8185611fb8565b9350611b4a818560208601612111565b611b53816122ef565b840191505092915050565b6000611b6982611f9c565b611b738185611fc9565b9350611b83818560208601612111565b80840191505092915050565b6000611b9c602083611fb8565b9150611ba782612300565b602082019050919050565b6000611bbf602683611fb8565b9150611bca82612329565b604082019050919050565b6000611be2601f83611fb8565b9150611bed82612378565b602082019050919050565b6000611c05602083611fb8565b9150611c10826123a1565b602082019050919050565b6000611c28601783611fc9565b9150611c33826123ca565b601782019050919050565b6000611c4b601183611fc9565b9150611c56826123f3565b601182019050919050565b6000611c6e602f83611fb8565b9150611c798261241c565b604082019050919050565b60006060830160008301518482036000860152611ca18282611aec565b9150506020830151611cb66020860182611ab0565b5060408301518482036040860152611cce8282611aec565b9150508091505092915050565b611ce4816120f8565b82525050565b6000611cf582611c1b565b9150611d018285611b5e565b9150611d0c82611c3e565b9150611d188284611b5e565b91508190509392505050565b6000602082019050611d396000830184611abf565b92915050565b6000608082019050611d546000830187611abf565b611d616020830186611cdb565b611d6e6040830185611cdb565b611d7b6060830184611ace565b95945050505050565b6000602082019050611d996000830184611ace565b92915050565b6000602082019050611db46000830184611add565b92915050565b60006020820190508181036000830152611dd48184611b25565b905092915050565b60006060820190508181036000830152611df68186611b25565b9050611e056020830185611abf565b8181036040830152611e178184611b25565b9050949350505050565b60006020820190508181036000830152611e3a81611b8f565b9050919050565b60006020820190508181036000830152611e5a81611bb2565b9050919050565b60006020820190508181036000830152611e7a81611bd5565b9050919050565b60006020820190508181036000830152611e9a81611bf8565b9050919050565b60006020820190508181036000830152611eba81611c61565b9050919050565b60006020820190508181036000830152611edb8184611c84565b905092915050565b6000606082019050611ef86000830186611cdb565b611f056020830185611cdb565b611f126040830184611ace565b949350505050565b6000611f24611f35565b9050611f3082826121a0565b919050565b6000604051905090565b600067ffffffffffffffff821115611f5a57611f596122a7565b5b602082029050602081019050919050565b600067ffffffffffffffff821115611f8657611f856122a7565b5b611f8f826122ef565b9050602081019050919050565b600081519050919050565b600082825260208201905092915050565b600082825260208201905092915050565b600081905092915050565b6000611fdf826120f8565b9150611fea836120f8565b9250827fffffffffffffffffffffffffffffffffffffffffffffffffffffffffffffffff0382111561201f5761201e61221a565b5b828201905092915050565b6000612035826120f8565b9150612040836120f8565b9250817fffffffffffffffffffffffffffffffffffffffffffffffffffffffffffffffff04831182151516156120795761207861221a565b5b828202905092915050565b600061208f826120d8565b9050919050565b60008115159050919050565b6000819050919050565b60007fffffffff0000000000000000000000000000000000000000000000000000000082169050919050565b600073ffffffffffffffffffffffffffffffffffffffff82169050919050565b6000819050919050565b82818337600083830152505050565b60005b8381101561212f578082015181840152602081019050612114565b8381111561213e576000848401525b50505050565b600061214f826120f8565b915060008214156121635761216261221a565b5b600182039050919050565b6000600282049050600182168061218657607f821691505b6020821081141561219a57612199612249565b5b50919050565b6121a9826122ef565b810181811067ffffffffffffffff821117156121c8576121c76122a7565b5b80604052505050565b60006121dc826120f8565b91507fffffffffffffffffffffffffffffffffffffffffffffffffffffffffffffffff82141561220f5761220e61221a565b5b600182019050919050565b7f4e487b7100000000000000000000000000000000000000000000000000000000600052601160045260246000fd5b7f4e487b7100000000000000000000000000000000000000000000000000000000600052602260045260246000fd5b7f4e487b7100000000000000000000000000000000000000000000000000000000600052603260045260246000fd5b7f4e487b7100000000000000000000000000000000000000000000000000000000600052604160045260246000fd5b600080fd5b600080fd5b600080fd5b600080fd5b600080fd5b6000601f19601f8301169050919050565b7f537472696e67733a20686578206c656e67746820696e73756666696369656e74600082015250565b7f4f776e61626c653a206e6577206f776e657220697320746865207a65726f206160008201527f6464726573730000000000000000000000000000000000000000000000000000602082015250565b7f43616c6c6572206973206e6f7420616e20494e45432065786563757469766500600082015250565b7f4f776e61626c653a2063616c6c6572206973206e6f7420746865206f776e6572600082015250565b7f416363657373436f6e74726f6c3a206163636f756e7420000000000000000000600082015250565b7f206973206d697373696e6720726f6c6520000000000000000000000000000000600082015250565b7f416363657373436f6e74726f6c3a2063616e206f6e6c792072656e6f756e636560008201527f20726f6c657320666f722073656c660000000000000000000000000000000000602082015250565b61247481612084565b811461247f57600080fd5b50565b61248b816120a2565b811461249657600080fd5b50565b6124a2816120ac565b81146124ad57600080fd5b50565b6124b9816120f8565b81146124c457600080fd5b5056fea26469706673582212204aad81e6114e372c61387f4c45d8f29dfb0642d112c624a72679cb7e82d5d9cf64736f6c63430008070033",
					"opcodes": "PUSH1 0x80 PUSH1 0x40 MSTORE PUSH1 0x40 MLOAD DUP1 PUSH1 0x80 ADD PUSH1 0x40 MSTORE DUP1 PUSH1 0x40 MLOAD DUP1 PUSH1 0x40 ADD PUSH1 0x40 MSTORE DUP1 PUSH1 0x3 DUP2 MSTORE PUSH1 0x20 ADD PUSH32 0x4150430000000000000000000000000000000000000000000000000000000000 DUP2 MSTORE POP DUP2 MSTORE PUSH1 0x20 ADD PUSH1 0x40 MLOAD DUP1 PUSH1 0x40 ADD PUSH1 0x40 MSTORE DUP1 PUSH1 0x3 DUP2 MSTORE PUSH1 0x20 ADD PUSH32 0x5044500000000000000000000000000000000000000000000000000000000000 DUP2 MSTORE POP DUP2 MSTORE PUSH1 0x20 ADD PUSH1 0x40 MLOAD DUP1 PUSH1 0x40 ADD PUSH1 0x40 MSTORE DUP1 PUSH1 0x2 DUP2 MSTORE PUSH1 0x20 ADD PUSH32 0x4C50000000000000000000000000000000000000000000000000000000000000 DUP2 MSTORE POP DUP2 MSTORE PUSH1 0x20 ADD PUSH1 0x40 MLOAD DUP1 PUSH1 0x40 ADD PUSH1 0x40 MSTORE DUP1 PUSH1 0x4 DUP2 MSTORE PUSH1 0x20 ADD PUSH32 0x4E4E505000000000000000000000000000000000000000000000000000000000 DUP2 MSTORE POP DUP2 MSTORE POP PUSH1 0x6 SWAP1 PUSH1 0x4 PUSH3 0x10B SWAP3 SWAP2 SWAP1 PUSH3 0x393 JUMP JUMPDEST POP CALLVALUE DUP1 ISZERO PUSH3 0x119 JUMPI PUSH1 0x0 DUP1 REVERT JUMPDEST POP PUSH3 0x13A PUSH3 0x12E PUSH3 0x155 PUSH1 0x20 SHL PUSH1 0x20 SHR JUMP JUMPDEST PUSH3 0x15D PUSH1 0x20 SHL PUSH1 0x20 SHR JUMP JUMPDEST PUSH3 0x14F PUSH1 0x0 DUP1 SHL CALLER PUSH3 0x221 PUSH1 0x20 SHL PUSH1 0x20 SHR JUMP JUMPDEST PUSH3 0x57D JUMP JUMPDEST PUSH1 0x0 CALLER SWAP1 POP SWAP1 JUMP JUMPDEST PUSH1 0x0 DUP1 PUSH1 0x0 SWAP1 SLOAD SWAP1 PUSH2 0x100 EXP SWAP1 DIV PUSH20 0xFFFFFFFFFFFFFFFFFFFFFFFFFFFFFFFFFFFFFFFF AND SWAP1 POP DUP2 PUSH1 0x0 DUP1 PUSH2 0x100 EXP DUP2 SLOAD DUP2 PUSH20 0xFFFFFFFFFFFFFFFFFFFFFFFFFFFFFFFFFFFFFFFF MUL NOT AND SWAP1 DUP4 PUSH20 0xFFFFFFFFFFFFFFFFFFFFFFFFFFFFFFFFFFFFFFFF AND MUL OR SWAP1 SSTORE POP DUP2 PUSH20 0xFFFFFFFFFFFFFFFFFFFFFFFFFFFFFFFFFFFFFFFF AND DUP2 PUSH20 0xFFFFFFFFFFFFFFFFFFFFFFFFFFFFFFFFFFFFFFFF AND PUSH32 0x8BE0079C531659141344CD1FD0A4F28419497F9722A3DAAFE3B4186F6B6457E0 PUSH1 0x40 MLOAD PUSH1 0x40 MLOAD DUP1 SWAP2 SUB SWAP1 LOG3 POP POP JUMP JUMPDEST PUSH3 0x233 DUP3 DUP3 PUSH3 0x237 PUSH1 0x20 SHL PUSH1 0x20 SHR JUMP JUMPDEST POP POP JUMP JUMPDEST PUSH3 0x249 DUP3 DUP3 PUSH3 0x328 PUSH1 0x20 SHL PUSH1 0x20 SHR JUMP JUMPDEST PUSH3 0x324 JUMPI PUSH1 0x1 DUP1 PUSH1 0x0 DUP5 DUP2 MSTORE PUSH1 0x20 ADD SWAP1 DUP2 MSTORE PUSH1 0x20 ADD PUSH1 0x0 KECCAK256 PUSH1 0x0 ADD PUSH1 0x0 DUP4 PUSH20 0xFFFFFFFFFFFFFFFFFFFFFFFFFFFFFFFFFFFFFFFF AND PUSH20 0xFFFFFFFFFFFFFFFFFFFFFFFFFFFFFFFFFFFFFFFF AND DUP2 MSTORE PUSH1 0x20 ADD SWAP1 DUP2 MSTORE PUSH1 0x20 ADD PUSH1 0x0 KECCAK256 PUSH1 0x0 PUSH2 0x100 EXP DUP2 SLOAD DUP2 PUSH1 0xFF MUL NOT AND SWAP1 DUP4 ISZERO ISZERO MUL OR SWAP1 SSTORE POP PUSH3 0x2C9 PUSH3 0x155 PUSH1 0x20 SHL PUSH1 0x20 SHR JUMP JUMPDEST PUSH20 0xFFFFFFFFFFFFFFFFFFFFFFFFFFFFFFFFFFFFFFFF AND DUP2 PUSH20 0xFFFFFFFFFFFFFFFFFFFFFFFFFFFFFFFFFFFFFFFF AND DUP4 PUSH32 0x2F8788117E7EFF1D82E926EC794901D17C78024A50270940304540A733656F0D PUSH1 0x40 MLOAD PUSH1 0x40 MLOAD DUP1 SWAP2 SUB SWAP1 LOG4 JUMPDEST POP POP JUMP JUMPDEST PUSH1 0x0 PUSH1 0x1 PUSH1 0x0 DUP5 DUP2 MSTORE PUSH1 0x20 ADD SWAP1 DUP2 MSTORE PUSH1 0x20 ADD PUSH1 0x0 KECCAK256 PUSH1 0x0 ADD PUSH1 0x0 DUP4 PUSH20 0xFFFFFFFFFFFFFFFFFFFFFFFFFFFFFFFFFFFFFFFF AND PUSH20 0xFFFFFFFFFFFFFFFFFFFFFFFFFFFFFFFFFFFFFFFF AND DUP2 MSTORE PUSH1 0x20 ADD SWAP1 DUP2 MSTORE PUSH1 0x20 ADD PUSH1 0x0 KECCAK256 PUSH1 0x0 SWAP1 SLOAD SWAP1 PUSH2 0x100 EXP SWAP1 DIV PUSH1 0xFF AND SWAP1 POP SWAP3 SWAP2 POP POP JUMP JUMPDEST DUP3 DUP1 SLOAD DUP3 DUP3 SSTORE SWAP1 PUSH1 0x0 MSTORE PUSH1 0x20 PUSH1 0x0 KECCAK256 SWAP1 DUP2 ADD SWAP3 DUP3 ISZERO PUSH3 0x3E7 JUMPI SWAP2 PUSH1 0x20 MUL DUP3 ADD JUMPDEST DUP3 DUP2 GT ISZERO PUSH3 0x3E6 JUMPI DUP3 MLOAD DUP3 SWAP1 DUP1 MLOAD SWAP1 PUSH1 0x20 ADD SWAP1 PUSH3 0x3D5 SWAP3 SWAP2 SWAP1 PUSH3 0x3FA JUMP JUMPDEST POP SWAP2 PUSH1 0x20 ADD SWAP2 SWAP1 PUSH1 0x1 ADD SWAP1 PUSH3 0x3B4 JUMP JUMPDEST JUMPDEST POP SWAP1 POP PUSH3 0x3F6 SWAP2 SWAP1 PUSH3 0x48B JUMP JUMPDEST POP SWAP1 JUMP JUMPDEST DUP3 DUP1 SLOAD PUSH3 0x408 SWAP1 PUSH3 0x518 JUMP JUMPDEST SWAP1 PUSH1 0x0 MSTORE PUSH1 0x20 PUSH1 0x0 KECCAK256 SWAP1 PUSH1 0x1F ADD PUSH1 0x20 SWAP1 DIV DUP2 ADD SWAP3 DUP3 PUSH3 0x42C JUMPI PUSH1 0x0 DUP6 SSTORE PUSH3 0x478 JUMP JUMPDEST DUP3 PUSH1 0x1F LT PUSH3 0x447 JUMPI DUP1 MLOAD PUSH1 0xFF NOT AND DUP4 DUP1 ADD OR DUP6 SSTORE PUSH3 0x478 JUMP JUMPDEST DUP3 DUP1 ADD PUSH1 0x1 ADD DUP6 SSTORE DUP3 ISZERO PUSH3 0x478 JUMPI SWAP2 DUP3 ADD JUMPDEST DUP3 DUP2 GT ISZERO PUSH3 0x477 JUMPI DUP3 MLOAD DUP3 SSTORE SWAP2 PUSH1 0x20 ADD SWAP2 SWAP1 PUSH1 0x1 ADD SWAP1 PUSH3 0x45A JUMP JUMPDEST JUMPDEST POP SWAP1 POP PUSH3 0x487 SWAP2 SWAP1 PUSH3 0x4B3 JUMP JUMPDEST POP SWAP1 JUMP JUMPDEST JUMPDEST DUP1 DUP3 GT ISZERO PUSH3 0x4AF JUMPI PUSH1 0x0 DUP2 DUP2 PUSH3 0x4A5 SWAP2 SWAP1 PUSH3 0x4D2 JUMP JUMPDEST POP PUSH1 0x1 ADD PUSH3 0x48C JUMP JUMPDEST POP SWAP1 JUMP JUMPDEST JUMPDEST DUP1 DUP3 GT ISZERO PUSH3 0x4CE JUMPI PUSH1 0x0 DUP2 PUSH1 0x0 SWAP1 SSTORE POP PUSH1 0x1 ADD PUSH3 0x4B4 JUMP JUMPDEST POP SWAP1 JUMP JUMPDEST POP DUP1 SLOAD PUSH3 0x4E0 SWAP1 PUSH3 0x518 JUMP JUMPDEST PUSH1 0x0 DUP3 SSTORE DUP1 PUSH1 0x1F LT PUSH3 0x4F4 JUMPI POP PUSH3 0x515 JUMP JUMPDEST PUSH1 0x1F ADD PUSH1 0x20 SWAP1 DIV SWAP1 PUSH1 0x0 MSTORE PUSH1 0x20 PUSH1 0x0 KECCAK256 SWAP1 DUP2 ADD SWAP1 PUSH3 0x514 SWAP2 SWAP1 PUSH3 0x4B3 JUMP JUMPDEST JUMPDEST POP JUMP JUMPDEST PUSH1 0x0 PUSH1 0x2 DUP3 DIV SWAP1 POP PUSH1 0x1 DUP3 AND DUP1 PUSH3 0x531 JUMPI PUSH1 0x7F DUP3 AND SWAP2 POP JUMPDEST PUSH1 0x20 DUP3 LT DUP2 EQ ISZERO PUSH3 0x548 JUMPI PUSH3 0x547 PUSH3 0x54E JUMP JUMPDEST JUMPDEST POP SWAP2 SWAP1 POP JUMP JUMPDEST PUSH32 0x4E487B7100000000000000000000000000000000000000000000000000000000 PUSH1 0x0 MSTORE PUSH1 0x22 PUSH1 0x4 MSTORE PUSH1 0x24 PUSH1 0x0 REVERT JUMPDEST PUSH2 0x24FD DUP1 PUSH3 0x58D PUSH1 0x0 CODECOPY PUSH1 0x0 RETURN INVALID PUSH1 0x80 PUSH1 0x40 MSTORE CALLVALUE DUP1 ISZERO PUSH2 0x10 JUMPI PUSH1 0x0 DUP1 REVERT JUMPDEST POP PUSH1 0x4 CALLDATASIZE LT PUSH2 0x137 JUMPI PUSH1 0x0 CALLDATALOAD PUSH1 0xE0 SHR DUP1 PUSH4 0x8DA5CB5B GT PUSH2 0xB8 JUMPI DUP1 PUSH4 0xA94015C8 GT PUSH2 0x7C JUMPI DUP1 PUSH4 0xA94015C8 EQ PUSH2 0x37B JUMPI DUP1 PUSH4 0xD547741F EQ PUSH2 0x399 JUMPI DUP1 PUSH4 0xD59D2A58 EQ PUSH2 0x3B5 JUMPI DUP1 PUSH4 0xDFD8459E EQ PUSH2 0x3D1 JUMPI DUP1 PUSH4 0xEF49F4AA EQ PUSH2 0x3ED JUMPI DUP1 PUSH4 0xF2FDE38B EQ PUSH2 0x409 JUMPI PUSH2 0x137 JUMP JUMPDEST DUP1 PUSH4 0x8DA5CB5B EQ PUSH2 0x2AC JUMPI DUP1 PUSH4 0x91D14854 EQ PUSH2 0x2CA JUMPI DUP1 PUSH4 0x9C35D98B EQ PUSH2 0x2FA JUMPI DUP1 PUSH4 0x9E5F0349 EQ PUSH2 0x32D JUMPI DUP1 PUSH4 0xA217FDDF EQ PUSH2 0x35D JUMPI PUSH2 0x137 JUMP JUMPDEST DUP1 PUSH4 0x2F2FF15D GT PUSH2 0xFF JUMPI DUP1 PUSH4 0x2F2FF15D EQ PUSH2 0x21E JUMPI DUP1 PUSH4 0x314FD68F EQ PUSH2 0x23A JUMPI DUP1 PUSH4 0x36568ABE EQ PUSH2 0x26A JUMPI DUP1 PUSH4 0x4F05DBA8 EQ PUSH2 0x286 JUMPI DUP1 PUSH4 0x715018A6 EQ PUSH2 0x2A2 JUMPI PUSH2 0x137 JUMP JUMPDEST DUP1 PUSH4 0x1FFC9A7 EQ PUSH2 0x13C JUMPI DUP1 PUSH4 0x1E9598E2 EQ PUSH2 0x16C JUMPI DUP1 PUSH4 0x248A9CA3 EQ PUSH2 0x19E JUMPI DUP1 PUSH4 0x290E9212 EQ PUSH2 0x1CE JUMPI DUP1 PUSH4 0x2E0D37BB EQ PUSH2 0x200 JUMPI JUMPDEST PUSH1 0x0 DUP1 REVERT JUMPDEST PUSH2 0x156 PUSH1 0x4 DUP1 CALLDATASIZE SUB DUP2 ADD SWAP1 PUSH2 0x151 SWAP2 SWAP1 PUSH2 0x19E7 JUMP JUMPDEST PUSH2 0x425 JUMP JUMPDEST PUSH1 0x40 MLOAD PUSH2 0x163 SWAP2 SWAP1 PUSH2 0x1D84 JUMP JUMPDEST PUSH1 0x40 MLOAD DUP1 SWAP2 SUB SWAP1 RETURN JUMPDEST PUSH2 0x186 PUSH1 0x4 DUP1 CALLDATASIZE SUB DUP2 ADD SWAP1 PUSH2 0x181 SWAP2 SWAP1 PUSH2 0x1A83 JUMP JUMPDEST PUSH2 0x49F JUMP JUMPDEST PUSH1 0x40 MLOAD PUSH2 0x195 SWAP4 SWAP3 SWAP2 SWAP1 PUSH2 0x1EE3 JUMP JUMPDEST PUSH1 0x40 MLOAD DUP1 SWAP2 SUB SWAP1 RETURN JUMPDEST PUSH2 0x1B8 PUSH1 0x4 DUP1 CALLDATASIZE SUB DUP2 ADD SWAP1 PUSH2 0x1B3 SWAP2 SWAP1 PUSH2 0x197A JUMP JUMPDEST PUSH2 0x4D6 JUMP JUMPDEST PUSH1 0x40 MLOAD PUSH2 0x1C5 SWAP2 SWAP1 PUSH2 0x1D9F JUMP JUMPDEST PUSH1 0x40 MLOAD DUP1 SWAP2 SUB SWAP1 RETURN JUMPDEST PUSH2 0x1E8 PUSH1 0x4 DUP1 CALLDATASIZE SUB DUP2 ADD SWAP1 PUSH2 0x1E3 SWAP2 SWAP1 PUSH2 0x1A83 JUMP JUMPDEST PUSH2 0x4F6 JUMP JUMPDEST PUSH1 0x40 MLOAD PUSH2 0x1F7 SWAP4 SWAP3 SWAP2 SWAP1 PUSH2 0x1DDC JUMP JUMPDEST PUSH1 0x40 MLOAD DUP1 SWAP2 SUB SWAP1 RETURN JUMPDEST PUSH2 0x208 PUSH2 0x650 JUMP JUMPDEST PUSH1 0x40 MLOAD PUSH2 0x215 SWAP2 SWAP1 PUSH2 0x1D9F JUMP JUMPDEST PUSH1 0x40 MLOAD DUP1 SWAP2 SUB SWAP1 RETURN JUMPDEST PUSH2 0x238 PUSH1 0x4 DUP1 CALLDATASIZE SUB DUP2 ADD SWAP1 PUSH2 0x233 SWAP2 SWAP1 PUSH2 0x19A7 JUMP JUMPDEST PUSH2 0x674 JUMP JUMPDEST STOP JUMPDEST PUSH2 0x254 PUSH1 0x4 DUP1 CALLDATASIZE SUB DUP2 ADD SWAP1 PUSH2 0x24F SWAP2 SWAP1 PUSH2 0x1A83 JUMP JUMPDEST PUSH2 0x695 JUMP JUMPDEST PUSH1 0x40 MLOAD PUSH2 0x261 SWAP2 SWAP1 PUSH2 0x1DBA JUMP JUMPDEST PUSH1 0x40 MLOAD DUP1 SWAP2 SUB SWAP1 RETURN JUMPDEST PUSH2 0x284 PUSH1 0x4 DUP1 CALLDATASIZE SUB DUP2 ADD SWAP1 PUSH2 0x27F SWAP2 SWAP1 PUSH2 0x19A7 JUMP JUMPDEST PUSH2 0x741 JUMP JUMPDEST STOP JUMPDEST PUSH2 0x2A0 PUSH1 0x4 DUP1 CALLDATASIZE SUB DUP2 ADD SWAP1 PUSH2 0x29B SWAP2 SWAP1 PUSH2 0x190B JUMP JUMPDEST PUSH2 0x7C4 JUMP JUMPDEST STOP JUMPDEST PUSH2 0x2AA PUSH2 0x9B9 JUMP JUMPDEST STOP JUMPDEST PUSH2 0x2B4 PUSH2 0x9CD JUMP JUMPDEST PUSH1 0x40 MLOAD PUSH2 0x2C1 SWAP2 SWAP1 PUSH2 0x1D24 JUMP JUMPDEST PUSH1 0x40 MLOAD DUP1 SWAP2 SUB SWAP1 RETURN JUMPDEST PUSH2 0x2E4 PUSH1 0x4 DUP1 CALLDATASIZE SUB DUP2 ADD SWAP1 PUSH2 0x2DF SWAP2 SWAP1 PUSH2 0x19A7 JUMP JUMPDEST PUSH2 0x9F6 JUMP JUMPDEST PUSH1 0x40 MLOAD PUSH2 0x2F1 SWAP2 SWAP1 PUSH2 0x1D84 JUMP JUMPDEST PUSH1 0x40 MLOAD DUP1 SWAP2 SUB SWAP1 RETURN JUMPDEST PUSH2 0x314 PUSH1 0x4 DUP1 CALLDATASIZE SUB DUP2 ADD SWAP1 PUSH2 0x30F SWAP2 SWAP1 PUSH2 0x1A83 JUMP JUMPDEST PUSH2 0xA61 JUMP JUMPDEST PUSH1 0x40 MLOAD PUSH2 0x324 SWAP5 SWAP4 SWAP3 SWAP2 SWAP1 PUSH2 0x1D3F JUMP JUMPDEST PUSH1 0x40 MLOAD DUP1 SWAP2 SUB SWAP1 RETURN JUMPDEST PUSH2 0x347 PUSH1 0x4 DUP1 CALLDATASIZE SUB DUP2 ADD SWAP1 PUSH2 0x342 SWAP2 SWAP1 PUSH2 0x1A83 JUMP JUMPDEST PUSH2 0xABE JUMP JUMPDEST PUSH1 0x40 MLOAD PUSH2 0x354 SWAP2 SWAP1 PUSH2 0x1EC1 JUMP JUMPDEST PUSH1 0x40 MLOAD DUP1 SWAP2 SUB SWAP1 RETURN JUMPDEST PUSH2 0x365 PUSH2 0xC65 JUMP JUMPDEST PUSH1 0x40 MLOAD PUSH2 0x372 SWAP2 SWAP1 PUSH2 0x1D9F JUMP JUMPDEST PUSH1 0x40 MLOAD DUP1 SWAP2 SUB SWAP1 RETURN JUMPDEST PUSH2 0x383 PUSH2 0xC6C JUMP JUMPDEST PUSH1 0x40 MLOAD PUSH2 0x390 SWAP2 SWAP1 PUSH2 0x1D9F JUMP JUMPDEST PUSH1 0x40 MLOAD DUP1 SWAP2 SUB SWAP1 RETURN JUMPDEST PUSH2 0x3B3 PUSH1 0x4 DUP1 CALLDATASIZE SUB DUP2 ADD SWAP1 PUSH2 0x3AE SWAP2 SWAP1 PUSH2 0x19A7 JUMP JUMPDEST PUSH2 0xC90 JUMP JUMPDEST STOP JUMPDEST PUSH2 0x3CF PUSH1 0x4 DUP1 CALLDATASIZE SUB DUP2 ADD SWAP1 PUSH2 0x3CA SWAP2 SWAP1 PUSH2 0x1A14 JUMP JUMPDEST PUSH2 0xCB1 JUMP JUMPDEST STOP JUMPDEST PUSH2 0x3EB PUSH1 0x4 DUP1 CALLDATASIZE SUB DUP2 ADD SWAP1 PUSH2 0x3E6 SWAP2 SWAP1 PUSH2 0x189E JUMP JUMPDEST PUSH2 0xE09 JUMP JUMPDEST STOP JUMPDEST PUSH2 0x407 PUSH1 0x4 DUP1 CALLDATASIZE SUB DUP2 ADD SWAP1 PUSH2 0x402 SWAP2 SWAP1 PUSH2 0x18CB JUMP JUMPDEST PUSH2 0xE3E JUMP JUMPDEST STOP JUMPDEST PUSH2 0x423 PUSH1 0x4 DUP1 CALLDATASIZE SUB DUP2 ADD SWAP1 PUSH2 0x41E SWAP2 SWAP1 PUSH2 0x189E JUMP JUMPDEST PUSH2 0xEE0 JUMP JUMPDEST STOP JUMPDEST PUSH1 0x0 PUSH32 0x7965DB0B00000000000000000000000000000000000000000000000000000000 PUSH28 0xFFFFFFFFFFFFFFFFFFFFFFFFFFFFFFFFFFFFFFFFFFFFFFFFFFFFFFFF NOT AND DUP3 PUSH28 0xFFFFFFFFFFFFFFFFFFFFFFFFFFFFFFFFFFFFFFFFFFFFFFFFFFFFFFFF NOT AND EQ DUP1 PUSH2 0x498 JUMPI POP PUSH2 0x497 DUP3 PUSH2 0xF64 JUMP JUMPDEST JUMPDEST SWAP1 POP SWAP2 SWAP1 POP JUMP JUMPDEST PUSH1 0x9 PUSH1 0x20 MSTORE DUP1 PUSH1 0x0 MSTORE PUSH1 0x40 PUSH1 0x0 KECCAK256 PUSH1 0x0 SWAP2 POP SWAP1 POP DUP1 PUSH1 0x2 ADD SLOAD SWAP1 DUP1 PUSH1 0x3 ADD SLOAD SWAP1 DUP1 PUSH1 0x4 ADD PUSH1 0x0 SWAP1 SLOAD SWAP1 PUSH2 0x100 EXP SWAP1 DIV PUSH1 0xFF AND SWAP1 POP DUP4 JUMP JUMPDEST PUSH1 0x0 PUSH1 0x1 PUSH1 0x0 DUP4 DUP2 MSTORE PUSH1 0x20 ADD SWAP1 DUP2 MSTORE PUSH1 0x20 ADD PUSH1 0x0 KECCAK256 PUSH1 0x1 ADD SLOAD SWAP1 POP SWAP2 SWAP1 POP JUMP JUMPDEST PUSH1 0x7 PUSH1 0x20 MSTORE DUP1 PUSH1 0x0 MSTORE PUSH1 0x40 PUSH1 0x0 KECCAK256 PUSH1 0x0 SWAP2 POP SWAP1 POP DUP1 PUSH1 0x0 ADD DUP1 SLOAD PUSH2 0x519 SWAP1 PUSH2 0x216E JUMP JUMPDEST DUP1 PUSH1 0x1F ADD PUSH1 0x20 DUP1 SWAP2 DIV MUL PUSH1 0x20 ADD PUSH1 0x40 MLOAD SWAP1 DUP2 ADD PUSH1 0x40 MSTORE DUP1 SWAP3 SWAP2 SWAP1 DUP2 DUP2 MSTORE PUSH1 0x20 ADD DUP3 DUP1 SLOAD PUSH2 0x545 SWAP1 PUSH2 0x216E JUMP JUMPDEST DUP1 ISZERO PUSH2 0x592 JUMPI DUP1 PUSH1 0x1F LT PUSH2 0x567 JUMPI PUSH2 0x100 DUP1 DUP4 SLOAD DIV MUL DUP4 MSTORE SWAP2 PUSH1 0x20 ADD SWAP2 PUSH2 0x592 JUMP JUMPDEST DUP3 ADD SWAP2 SWAP1 PUSH1 0x0 MSTORE PUSH1 0x20 PUSH1 0x0 KECCAK256 SWAP1 JUMPDEST DUP2 SLOAD DUP2 MSTORE SWAP1 PUSH1 0x1 ADD SWAP1 PUSH1 0x20 ADD DUP1 DUP4 GT PUSH2 0x575 JUMPI DUP3 SWAP1 SUB PUSH1 0x1F AND DUP3 ADD SWAP2 JUMPDEST POP POP POP POP POP SWAP1 DUP1 PUSH1 0x1 ADD PUSH1 0x0 SWAP1 SLOAD SWAP1 PUSH2 0x100 EXP SWAP1 DIV PUSH20 0xFFFFFFFFFFFFFFFFFFFFFFFFFFFFFFFFFFFFFFFF AND SWAP1 DUP1 PUSH1 0x2 ADD DUP1 SLOAD PUSH2 0x5CD SWAP1 PUSH2 0x216E JUMP JUMPDEST DUP1 PUSH1 0x1F ADD PUSH1 0x20 DUP1 SWAP2 DIV MUL PUSH1 0x20 ADD PUSH1 0x40 MLOAD SWAP1 DUP2 ADD PUSH1 0x40 MSTORE DUP1 SWAP3 SWAP2 SWAP1 DUP2 DUP2 MSTORE PUSH1 0x20 ADD DUP3 DUP1 SLOAD PUSH2 0x5F9 SWAP1 PUSH2 0x216E JUMP JUMPDEST DUP1 ISZERO PUSH2 0x646 JUMPI DUP1 PUSH1 0x1F LT PUSH2 0x61B JUMPI PUSH2 0x100 DUP1 DUP4 SLOAD DIV MUL DUP4 MSTORE SWAP2 PUSH1 0x20 ADD SWAP2 PUSH2 0x646 JUMP JUMPDEST DUP3 ADD SWAP2 SWAP1 PUSH1 0x0 MSTORE PUSH1 0x20 PUSH1 0x0 KECCAK256 SWAP1 JUMPDEST DUP2 SLOAD DUP2 MSTORE SWAP1 PUSH1 0x1 ADD SWAP1 PUSH1 0x20 ADD DUP1 DUP4 GT PUSH2 0x629 JUMPI DUP3 SWAP1 SUB PUSH1 0x1F AND DUP3 ADD SWAP2 JUMPDEST POP POP POP POP POP SWAP1 POP DUP4 JUMP JUMPDEST PUSH32 0x82F6ED76E0352438E6A6E35C77719C3F04BF277FDC8FEC7E5FF5F65E001D902 DUP2 JUMP JUMPDEST PUSH2 0x67D DUP3 PUSH2 0x4D6 JUMP JUMPDEST PUSH2 0x686 DUP2 PUSH2 0xFCE JUMP JUMPDEST PUSH2 0x690 DUP4 DUP4 PUSH2 0xFE2 JUMP JUMPDEST POP POP POP JUMP JUMPDEST PUSH1 0x6 DUP2 DUP2 SLOAD DUP2 LT PUSH2 0x6A5 JUMPI PUSH1 0x0 DUP1 REVERT JUMPDEST SWAP1 PUSH1 0x0 MSTORE PUSH1 0x20 PUSH1 0x0 KECCAK256 ADD PUSH1 0x0 SWAP2 POP SWAP1 POP DUP1 SLOAD PUSH2 0x6C0 SWAP1 PUSH2 0x216E JUMP JUMPDEST DUP1 PUSH1 0x1F ADD PUSH1 0x20 DUP1 SWAP2 DIV MUL PUSH1 0x20 ADD PUSH1 0x40 MLOAD SWAP1 DUP2 ADD PUSH1 0x40 MSTORE DUP1 SWAP3 SWAP2 SWAP1 DUP2 DUP2 MSTORE PUSH1 0x20 ADD DUP3 DUP1 SLOAD PUSH2 0x6EC SWAP1 PUSH2 0x216E JUMP JUMPDEST DUP1 ISZERO PUSH2 0x739 JUMPI DUP1 PUSH1 0x1F LT PUSH2 0x70E JUMPI PUSH2 0x100 DUP1 DUP4 SLOAD DIV MUL DUP4 MSTORE SWAP2 PUSH1 0x20 ADD SWAP2 PUSH2 0x739 JUMP JUMPDEST DUP3 ADD SWAP2 SWAP1 PUSH1 0x0 MSTORE PUSH1 0x20 PUSH1 0x0 KECCAK256 SWAP1 JUMPDEST DUP2 SLOAD DUP2 MSTORE SWAP1 PUSH1 0x1 ADD SWAP1 PUSH1 0x20 ADD DUP1 DUP4 GT PUSH2 0x71C JUMPI DUP3 SWAP1 SUB PUSH1 0x1F AND DUP3 ADD SWAP2 JUMPDEST POP POP POP POP POP DUP2 JUMP JUMPDEST PUSH2 0x749 PUSH2 0x10C2 JUMP JUMPDEST PUSH20 0xFFFFFFFFFFFFFFFFFFFFFFFFFFFFFFFFFFFFFFFF AND DUP2 PUSH20 0xFFFFFFFFFFFFFFFFFFFFFFFFFFFFFFFFFFFFFFFF AND EQ PUSH2 0x7B6 JUMPI PUSH1 0x40 MLOAD PUSH32 0x8C379A000000000000000000000000000000000000000000000000000000000 DUP2 MSTORE PUSH1 0x4 ADD PUSH2 0x7AD SWAP1 PUSH2 0x1EA1 JUMP JUMPDEST PUSH1 0x40 MLOAD DUP1 SWAP2 SUB SWAP1 REVERT JUMPDEST PUSH2 0x7C0 DUP3 DUP3 PUSH2 0x10CA JUMP JUMPDEST POP POP JUMP JUMPDEST PUSH2 0x7EE PUSH32 0x82F6ED76E0352438E6A6E35C77719C3F04BF277FDC8FEC7E5FF5F65E001D902 CALLER PUSH2 0x9F6 JUMP JUMPDEST PUSH2 0x82D JUMPI PUSH1 0x40 MLOAD PUSH32 0x8C379A000000000000000000000000000000000000000000000000000000000 DUP2 MSTORE PUSH1 0x4 ADD PUSH2 0x824 SWAP1 PUSH2 0x1E61 JUMP JUMPDEST PUSH1 0x40 MLOAD DUP1 SWAP2 SUB SWAP1 REVERT JUMPDEST DUP2 PUSH1 0x9 PUSH1 0x0 PUSH1 0x5 SLOAD DUP2 MSTORE PUSH1 0x20 ADD SWAP1 DUP2 MSTORE PUSH1 0x20 ADD PUSH1 0x0 KECCAK256 PUSH1 0x2 ADD DUP2 SWAP1 SSTORE POP DUP1 PUSH1 0x9 PUSH1 0x0 PUSH1 0x5 SLOAD DUP2 MSTORE PUSH1 0x20 ADD SWAP1 DUP2 MSTORE PUSH1 0x20 ADD PUSH1 0x0 KECCAK256 PUSH1 0x3 ADD DUP2 SWAP1 SSTORE POP PUSH1 0x0 JUMPDEST DUP4 MLOAD DUP2 LT ISZERO PUSH2 0x99B JUMPI PUSH1 0x9 PUSH1 0x0 PUSH1 0x5 SLOAD DUP2 MSTORE PUSH1 0x20 ADD SWAP1 DUP2 MSTORE PUSH1 0x20 ADD PUSH1 0x0 KECCAK256 PUSH1 0x0 ADD DUP5 DUP3 DUP2 MLOAD DUP2 LT PUSH2 0x89E JUMPI PUSH2 0x89D PUSH2 0x2278 JUMP JUMPDEST JUMPDEST PUSH1 0x20 MUL PUSH1 0x20 ADD ADD MLOAD SWAP1 DUP1 PUSH1 0x1 DUP2 SLOAD ADD DUP1 DUP3 SSTORE DUP1 SWAP2 POP POP PUSH1 0x1 SWAP1 SUB SWAP1 PUSH1 0x0 MSTORE PUSH1 0x20 PUSH1 0x0 KECCAK256 ADD PUSH1 0x0 SWAP1 SWAP2 SWAP1 SWAP2 SWAP1 SWAP2 PUSH2 0x100 EXP DUP2 SLOAD DUP2 PUSH20 0xFFFFFFFFFFFFFFFFFFFFFFFFFFFFFFFFFFFFFFFF MUL NOT AND SWAP1 DUP4 PUSH20 0xFFFFFFFFFFFFFFFFFFFFFFFFFFFFFFFFFFFFFFFF AND MUL OR SWAP1 SSTORE POP DUP4 DUP2 DUP2 MLOAD DUP2 LT PUSH2 0x919 JUMPI PUSH2 0x918 PUSH2 0x2278 JUMP JUMPDEST JUMPDEST PUSH1 0x20 MUL PUSH1 0x20 ADD ADD MLOAD PUSH1 0x9 PUSH1 0x0 PUSH1 0x5 SLOAD DUP2 MSTORE PUSH1 0x20 ADD SWAP1 DUP2 MSTORE PUSH1 0x20 ADD PUSH1 0x0 KECCAK256 PUSH1 0x1 ADD PUSH1 0x0 DUP4 DUP2 MSTORE PUSH1 0x20 ADD SWAP1 DUP2 MSTORE PUSH1 0x20 ADD PUSH1 0x0 KECCAK256 PUSH1 0x0 PUSH2 0x100 EXP DUP2 SLOAD DUP2 PUSH20 0xFFFFFFFFFFFFFFFFFFFFFFFFFFFFFFFFFFFFFFFF MUL NOT AND SWAP1 DUP4 PUSH20 0xFFFFFFFFFFFFFFFFFFFFFFFFFFFFFFFFFFFFFFFF AND MUL OR SWAP1 SSTORE POP DUP1 DUP1 PUSH2 0x993 SWAP1 PUSH2 0x21D1 JUMP JUMPDEST SWAP2 POP POP PUSH2 0x86A JUMP JUMPDEST POP PUSH1 0x5 PUSH1 0x0 DUP2 SLOAD DUP1 SWAP3 SWAP2 SWAP1 PUSH2 0x9AF SWAP1 PUSH2 0x21D1 JUMP JUMPDEST SWAP2 SWAP1 POP SSTORE POP POP POP POP JUMP JUMPDEST PUSH2 0x9C1 PUSH2 0x11AC JUMP JUMPDEST PUSH2 0x9CB PUSH1 0x0 PUSH2 0x122A JUMP JUMPDEST JUMP JUMPDEST PUSH1 0x0 DUP1 PUSH1 0x0 SWAP1 SLOAD SWAP1 PUSH2 0x100 EXP SWAP1 DIV PUSH20 0xFFFFFFFFFFFFFFFFFFFFFFFFFFFFFFFFFFFFFFFF AND SWAP1 POP SWAP1 JUMP JUMPDEST PUSH1 0x0 PUSH1 0x1 PUSH1 0x0 DUP5 DUP2 MSTORE PUSH1 0x20 ADD SWAP1 DUP2 MSTORE PUSH1 0x20 ADD PUSH1 0x0 KECCAK256 PUSH1 0x0 ADD PUSH1 0x0 DUP4 PUSH20 0xFFFFFFFFFFFFFFFFFFFFFFFFFFFFFFFFFFFFFFFF AND PUSH20 0xFFFFFFFFFFFFFFFFFFFFFFFFFFFFFFFFFFFFFFFF AND DUP2 MSTORE PUSH1 0x20 ADD SWAP1 DUP2 MSTORE PUSH1 0x20 ADD PUSH1 0x0 KECCAK256 PUSH1 0x0 SWAP1 SLOAD SWAP1 PUSH2 0x100 EXP SWAP1 DIV PUSH1 0xFF AND SWAP1 POP SWAP3 SWAP2 POP POP JUMP JUMPDEST PUSH1 0x8 PUSH1 0x20 MSTORE DUP1 PUSH1 0x0 MSTORE PUSH1 0x40 PUSH1 0x0 KECCAK256 PUSH1 0x0 SWAP2 POP SWAP1 POP DUP1 PUSH1 0x0 ADD PUSH1 0x0 SWAP1 SLOAD SWAP1 PUSH2 0x100 EXP SWAP1 DIV PUSH20 0xFFFFFFFFFFFFFFFFFFFFFFFFFFFFFFFFFFFFFFFF AND SWAP1 DUP1 PUSH1 0x1 ADD SLOAD SWAP1 DUP1 PUSH1 0x2 ADD SLOAD SWAP1 DUP1 PUSH1 0x3 ADD PUSH1 0x0 SWAP1 SLOAD SWAP1 PUSH2 0x100 EXP SWAP1 DIV PUSH1 0xFF AND SWAP1 POP DUP5 JUMP JUMPDEST PUSH2 0xAC6 PUSH2 0x15D5 JUMP JUMPDEST PUSH1 0x7 PUSH1 0x0 DUP4 DUP2 MSTORE PUSH1 0x20 ADD SWAP1 DUP2 MSTORE PUSH1 0x20 ADD PUSH1 0x0 KECCAK256 PUSH1 0x40 MLOAD DUP1 PUSH1 0x60 ADD PUSH1 0x40 MSTORE SWAP1 DUP2 PUSH1 0x0 DUP3 ADD DUP1 SLOAD PUSH2 0xAF4 SWAP1 PUSH2 0x216E JUMP JUMPDEST DUP1 PUSH1 0x1F ADD PUSH1 0x20 DUP1 SWAP2 DIV MUL PUSH1 0x20 ADD PUSH1 0x40 MLOAD SWAP1 DUP2 ADD PUSH1 0x40 MSTORE DUP1 SWAP3 SWAP2 SWAP1 DUP2 DUP2 MSTORE PUSH1 0x20 ADD DUP3 DUP1 SLOAD PUSH2 0xB20 SWAP1 PUSH2 0x216E JUMP JUMPDEST DUP1 ISZERO PUSH2 0xB6D JUMPI DUP1 PUSH1 0x1F LT PUSH2 0xB42 JUMPI PUSH2 0x100 DUP1 DUP4 SLOAD DIV MUL DUP4 MSTORE SWAP2 PUSH1 0x20 ADD SWAP2 PUSH2 0xB6D JUMP JUMPDEST DUP3 ADD SWAP2 SWAP1 PUSH1 0x0 MSTORE PUSH1 0x20 PUSH1 0x0 KECCAK256 SWAP1 JUMPDEST DUP2 SLOAD DUP2 MSTORE SWAP1 PUSH1 0x1 ADD SWAP1 PUSH1 0x20 ADD DUP1 DUP4 GT PUSH2 0xB50 JUMPI DUP3 SWAP1 SUB PUSH1 0x1F AND DUP3 ADD SWAP2 JUMPDEST POP POP POP POP POP DUP2 MSTORE PUSH1 0x20 ADD PUSH1 0x1 DUP3 ADD PUSH1 0x0 SWAP1 SLOAD SWAP1 PUSH2 0x100 EXP SWAP1 DIV PUSH20 0xFFFFFFFFFFFFFFFFFFFFFFFFFFFFFFFFFFFFFFFF AND PUSH20 0xFFFFFFFFFFFFFFFFFFFFFFFFFFFFFFFFFFFFFFFF AND PUSH20 0xFFFFFFFFFFFFFFFFFFFFFFFFFFFFFFFFFFFFFFFF AND DUP2 MSTORE PUSH1 0x20 ADD PUSH1 0x2 DUP3 ADD DUP1 SLOAD PUSH2 0xBDC SWAP1 PUSH2 0x216E JUMP JUMPDEST DUP1 PUSH1 0x1F ADD PUSH1 0x20 DUP1 SWAP2 DIV MUL PUSH1 0x20 ADD PUSH1 0x40 MLOAD SWAP1 DUP2 ADD PUSH1 0x40 MSTORE DUP1 SWAP3 SWAP2 SWAP1 DUP2 DUP2 MSTORE PUSH1 0x20 ADD DUP3 DUP1 SLOAD PUSH2 0xC08 SWAP1 PUSH2 0x216E JUMP JUMPDEST DUP1 ISZERO PUSH2 0xC55 JUMPI DUP1 PUSH1 0x1F LT PUSH2 0xC2A JUMPI PUSH2 0x100 DUP1 DUP4 SLOAD DIV MUL DUP4 MSTORE SWAP2 PUSH1 0x20 ADD SWAP2 PUSH2 0xC55 JUMP JUMPDEST DUP3 ADD SWAP2 SWAP1 PUSH1 0x0 MSTORE PUSH1 0x20 PUSH1 0x0 KECCAK256 SWAP1 JUMPDEST DUP2 SLOAD DUP2 MSTORE SWAP1 PUSH1 0x1 ADD SWAP1 PUSH1 0x20 ADD DUP1 DUP4 GT PUSH2 0xC38 JUMPI DUP3 SWAP1 SUB PUSH1 0x1F AND DUP3 ADD SWAP2 JUMPDEST POP POP POP POP POP DUP2 MSTORE POP POP SWAP1 POP SWAP2 SWAP1 POP JUMP JUMPDEST PUSH1 0x0 DUP1 SHL DUP2 JUMP JUMPDEST PUSH32 0x15283FD96AA656C9DF35AC2FCB112678A5F24F1CA97E591A97D1D16003DBFC9C DUP2 JUMP JUMPDEST PUSH2 0xC99 DUP3 PUSH2 0x4D6 JUMP JUMPDEST PUSH2 0xCA2 DUP2 PUSH2 0xFCE JUMP JUMPDEST PUSH2 0xCAC DUP4 DUP4 PUSH2 0x10CA JUMP JUMPDEST POP POP POP JUMP JUMPDEST PUSH2 0xCDB PUSH32 0x82F6ED76E0352438E6A6E35C77719C3F04BF277FDC8FEC7E5FF5F65E001D902 CALLER PUSH2 0x9F6 JUMP JUMPDEST PUSH2 0xD1A JUMPI PUSH1 0x40 MLOAD PUSH32 0x8C379A000000000000000000000000000000000000000000000000000000000 DUP2 MSTORE PUSH1 0x4 ADD PUSH2 0xD11 SWAP1 PUSH2 0x1E61 JUMP JUMPDEST PUSH1 0x40 MLOAD DUP1 SWAP2 SUB SWAP1 REVERT JUMPDEST DUP3 PUSH1 0x7 PUSH1 0x0 PUSH1 0x3 SLOAD DUP2 MSTORE PUSH1 0x20 ADD SWAP1 DUP2 MSTORE PUSH1 0x20 ADD PUSH1 0x0 KECCAK256 PUSH1 0x0 ADD SWAP1 DUP1 MLOAD SWAP1 PUSH1 0x20 ADD SWAP1 PUSH2 0xD46 SWAP3 SWAP2 SWAP1 PUSH2 0x160C JUMP JUMPDEST POP DUP2 PUSH1 0x7 PUSH1 0x0 PUSH1 0x3 SLOAD DUP2 MSTORE PUSH1 0x20 ADD SWAP1 DUP2 MSTORE PUSH1 0x20 ADD PUSH1 0x0 KECCAK256 PUSH1 0x1 ADD PUSH1 0x0 PUSH2 0x100 EXP DUP2 SLOAD DUP2 PUSH20 0xFFFFFFFFFFFFFFFFFFFFFFFFFFFFFFFFFFFFFFFF MUL NOT AND SWAP1 DUP4 PUSH20 0xFFFFFFFFFFFFFFFFFFFFFFFFFFFFFFFFFFFFFFFF AND MUL OR SWAP1 SSTORE POP PUSH1 0x6 DUP2 DUP2 SLOAD DUP2 LT PUSH2 0xDB2 JUMPI PUSH2 0xDB1 PUSH2 0x2278 JUMP JUMPDEST JUMPDEST SWAP1 PUSH1 0x0 MSTORE PUSH1 0x20 PUSH1 0x0 KECCAK256 ADD PUSH1 0x7 PUSH1 0x0 PUSH1 0x3 SLOAD DUP2 MSTORE PUSH1 0x20 ADD SWAP1 DUP2 MSTORE PUSH1 0x20 ADD PUSH1 0x0 KECCAK256 PUSH1 0x2 ADD SWAP1 DUP1 SLOAD PUSH2 0xDE0 SWAP1 PUSH2 0x216E JUMP JUMPDEST PUSH2 0xDEB SWAP3 SWAP2 SWAP1 PUSH2 0x1692 JUMP JUMPDEST POP PUSH1 0x3 PUSH1 0x0 DUP2 SLOAD DUP1 SWAP3 SWAP2 SWAP1 PUSH2 0xDFF SWAP1 PUSH2 0x21D1 JUMP JUMPDEST SWAP2 SWAP1 POP SSTORE POP POP POP POP JUMP JUMPDEST PUSH2 0xE11 PUSH2 0x11AC JUMP JUMPDEST PUSH2 0xE3B PUSH32 0x82F6ED76E0352438E6A6E35C77719C3F04BF277FDC8FEC7E5FF5F65E001D902 DUP3 PUSH2 0x674 JUMP JUMPDEST POP JUMP JUMPDEST DUP2 PUSH1 0x8 PUSH1 0x0 PUSH1 0x4 SLOAD DUP2 MSTORE PUSH1 0x20 ADD SWAP1 DUP2 MSTORE PUSH1 0x20 ADD PUSH1 0x0 KECCAK256 PUSH1 0x0 ADD PUSH1 0x0 PUSH2 0x100 EXP DUP2 SLOAD DUP2 PUSH20 0xFFFFFFFFFFFFFFFFFFFFFFFFFFFFFFFFFFFFFFFF MUL NOT AND SWAP1 DUP4 PUSH20 0xFFFFFFFFFFFFFFFFFFFFFFFFFFFFFFFFFFFFFFFF AND MUL OR SWAP1 SSTORE POP DUP1 PUSH1 0x8 PUSH1 0x0 PUSH1 0x4 SLOAD DUP2 MSTORE PUSH1 0x20 ADD SWAP1 DUP2 MSTORE PUSH1 0x20 ADD PUSH1 0x0 KECCAK256 PUSH1 0x1 ADD DUP2 SWAP1 SSTORE POP PUSH2 0xEDC PUSH32 0x15283FD96AA656C9DF35AC2FCB112678A5F24F1CA97E591A97D1D16003DBFC9C DUP4 PUSH2 0x12EE JUMP JUMPDEST POP POP JUMP JUMPDEST PUSH2 0xEE8 PUSH2 0x11AC JUMP JUMPDEST PUSH1 0x0 PUSH20 0xFFFFFFFFFFFFFFFFFFFFFFFFFFFFFFFFFFFFFFFF AND DUP2 PUSH20 0xFFFFFFFFFFFFFFFFFFFFFFFFFFFFFFFFFFFFFFFF AND EQ ISZERO PUSH2 0xF58 JUMPI PUSH1 0x40 MLOAD PUSH32 0x8C379A000000000000000000000000000000000000000000000000000000000 DUP2 MSTORE PUSH1 0x4 ADD PUSH2 0xF4F SWAP1 PUSH2 0x1E41 JUMP JUMPDEST PUSH1 0x40 MLOAD DUP1 SWAP2 SUB SWAP1 REVERT JUMPDEST PUSH2 0xF61 DUP2 PUSH2 0x122A JUMP JUMPDEST POP JUMP JUMPDEST PUSH1 0x0 PUSH32 0x1FFC9A700000000000000000000000000000000000000000000000000000000 PUSH28 0xFFFFFFFFFFFFFFFFFFFFFFFFFFFFFFFFFFFFFFFFFFFFFFFFFFFFFFFF NOT AND DUP3 PUSH28 0xFFFFFFFFFFFFFFFFFFFFFFFFFFFFFFFFFFFFFFFFFFFFFFFFFFFFFFFF NOT AND EQ SWAP1 POP SWAP2 SWAP1 POP JUMP JUMPDEST PUSH2 0xFDF DUP2 PUSH2 0xFDA PUSH2 0x10C2 JUMP JUMPDEST PUSH2 0x12FC JUMP JUMPDEST POP JUMP JUMPDEST PUSH2 0xFEC DUP3 DUP3 PUSH2 0x9F6 JUMP JUMPDEST PUSH2 0x10BE JUMPI PUSH1 0x1 DUP1 PUSH1 0x0 DUP5 DUP2 MSTORE PUSH1 0x20 ADD SWAP1 DUP2 MSTORE PUSH1 0x20 ADD PUSH1 0x0 KECCAK256 PUSH1 0x0 ADD PUSH1 0x0 DUP4 PUSH20 0xFFFFFFFFFFFFFFFFFFFFFFFFFFFFFFFFFFFFFFFF AND PUSH20 0xFFFFFFFFFFFFFFFFFFFFFFFFFFFFFFFFFFFFFFFF AND DUP2 MSTORE PUSH1 0x20 ADD SWAP1 DUP2 MSTORE PUSH1 0x20 ADD PUSH1 0x0 KECCAK256 PUSH1 0x0 PUSH2 0x100 EXP DUP2 SLOAD DUP2 PUSH1 0xFF MUL NOT AND SWAP1 DUP4 ISZERO ISZERO MUL OR SWAP1 SSTORE POP PUSH2 0x1063 PUSH2 0x10C2 JUMP JUMPDEST PUSH20 0xFFFFFFFFFFFFFFFFFFFFFFFFFFFFFFFFFFFFFFFF AND DUP2 PUSH20 0xFFFFFFFFFFFFFFFFFFFFFFFFFFFFFFFFFFFFFFFF AND DUP4 PUSH32 0x2F8788117E7EFF1D82E926EC794901D17C78024A50270940304540A733656F0D PUSH1 0x40 MLOAD PUSH1 0x40 MLOAD DUP1 SWAP2 SUB SWAP1 LOG4 JUMPDEST POP POP JUMP JUMPDEST PUSH1 0x0 CALLER SWAP1 POP SWAP1 JUMP JUMPDEST PUSH2 0x10D4 DUP3 DUP3 PUSH2 0x9F6 JUMP JUMPDEST ISZERO PUSH2 0x11A8 JUMPI PUSH1 0x0 PUSH1 0x1 PUSH1 0x0 DUP5 DUP2 MSTORE PUSH1 0x20 ADD SWAP1 DUP2 MSTORE PUSH1 0x20 ADD PUSH1 0x0 KECCAK256 PUSH1 0x0 ADD PUSH1 0x0 DUP4 PUSH20 0xFFFFFFFFFFFFFFFFFFFFFFFFFFFFFFFFFFFFFFFF AND PUSH20 0xFFFFFFFFFFFFFFFFFFFFFFFFFFFFFFFFFFFFFFFF AND DUP2 MSTORE PUSH1 0x20 ADD SWAP1 DUP2 MSTORE PUSH1 0x20 ADD PUSH1 0x0 KECCAK256 PUSH1 0x0 PUSH2 0x100 EXP DUP2 SLOAD DUP2 PUSH1 0xFF MUL NOT AND SWAP1 DUP4 ISZERO ISZERO MUL OR SWAP1 SSTORE POP PUSH2 0x114D PUSH2 0x10C2 JUMP JUMPDEST PUSH20 0xFFFFFFFFFFFFFFFFFFFFFFFFFFFFFFFFFFFFFFFF AND DUP2 PUSH20 0xFFFFFFFFFFFFFFFFFFFFFFFFFFFFFFFFFFFFFFFF AND DUP4 PUSH32 0xF6391F5C32D9C69D2A47EA670B442974B53935D1EDC7FD64EB21E047A839171B PUSH1 0x40 MLOAD PUSH1 0x40 MLOAD DUP1 SWAP2 SUB SWAP1 LOG4 JUMPDEST POP POP JUMP JUMPDEST PUSH2 0x11B4 PUSH2 0x10C2 JUMP JUMPDEST PUSH20 0xFFFFFFFFFFFFFFFFFFFFFFFFFFFFFFFFFFFFFFFF AND PUSH2 0x11D2 PUSH2 0x9CD JUMP JUMPDEST PUSH20 0xFFFFFFFFFFFFFFFFFFFFFFFFFFFFFFFFFFFFFFFF AND EQ PUSH2 0x1228 JUMPI PUSH1 0x40 MLOAD PUSH32 0x8C379A000000000000000000000000000000000000000000000000000000000 DUP2 MSTORE PUSH1 0x4 ADD PUSH2 0x121F SWAP1 PUSH2 0x1E81 JUMP JUMPDEST PUSH1 0x40 MLOAD DUP1 SWAP2 SUB SWAP1 REVERT JUMPDEST JUMP JUMPDEST PUSH1 0x0 DUP1 PUSH1 0x0 SWAP1 SLOAD SWAP1 PUSH2 0x100 EXP SWAP1 DIV PUSH20 0xFFFFFFFFFFFFFFFFFFFFFFFFFFFFFFFFFFFFFFFF AND SWAP1 POP DUP2 PUSH1 0x0 DUP1 PUSH2 0x100 EXP DUP2 SLOAD DUP2 PUSH20 0xFFFFFFFFFFFFFFFFFFFFFFFFFFFFFFFFFFFFFFFF MUL NOT AND SWAP1 DUP4 PUSH20 0xFFFFFFFFFFFFFFFFFFFFFFFFFFFFFFFFFFFFFFFF AND MUL OR SWAP1 SSTORE POP DUP2 PUSH20 0xFFFFFFFFFFFFFFFFFFFFFFFFFFFFFFFFFFFFFFFF AND DUP2 PUSH20 0xFFFFFFFFFFFFFFFFFFFFFFFFFFFFFFFFFFFFFFFF AND PUSH32 0x8BE0079C531659141344CD1FD0A4F28419497F9722A3DAAFE3B4186F6B6457E0 PUSH1 0x40 MLOAD PUSH1 0x40 MLOAD DUP1 SWAP2 SUB SWAP1 LOG3 POP POP JUMP JUMPDEST PUSH2 0x12F8 DUP3 DUP3 PUSH2 0xFE2 JUMP JUMPDEST POP POP JUMP JUMPDEST PUSH2 0x1306 DUP3 DUP3 PUSH2 0x9F6 JUMP JUMPDEST PUSH2 0x1395 JUMPI PUSH2 0x132B DUP2 PUSH20 0xFFFFFFFFFFFFFFFFFFFFFFFFFFFFFFFFFFFFFFFF AND PUSH1 0x14 PUSH2 0x1399 JUMP JUMPDEST PUSH2 0x1339 DUP4 PUSH1 0x0 SHR PUSH1 0x20 PUSH2 0x1399 JUMP JUMPDEST PUSH1 0x40 MLOAD PUSH1 0x20 ADD PUSH2 0x134A SWAP3 SWAP2 SWAP1 PUSH2 0x1CEA JUMP JUMPDEST PUSH1 0x40 MLOAD PUSH1 0x20 DUP2 DUP4 SUB SUB DUP2 MSTORE SWAP1 PUSH1 0x40 MSTORE PUSH1 0x40 MLOAD PUSH32 0x8C379A000000000000000000000000000000000000000000000000000000000 DUP2 MSTORE PUSH1 0x4 ADD PUSH2 0x138C SWAP2 SWAP1 PUSH2 0x1DBA JUMP JUMPDEST PUSH1 0x40 MLOAD DUP1 SWAP2 SUB SWAP1 REVERT JUMPDEST POP POP JUMP JUMPDEST PUSH1 0x60 PUSH1 0x0 PUSH1 0x2 DUP4 PUSH1 0x2 PUSH2 0x13AC SWAP2 SWAP1 PUSH2 0x202A JUMP JUMPDEST PUSH2 0x13B6 SWAP2 SWAP1 PUSH2 0x1FD4 JUMP JUMPDEST PUSH8 0xFFFFFFFFFFFFFFFF DUP2 GT ISZERO PUSH2 0x13CF JUMPI PUSH2 0x13CE PUSH2 0x22A7 JUMP JUMPDEST JUMPDEST PUSH1 0x40 MLOAD SWAP1 DUP1 DUP3 MSTORE DUP1 PUSH1 0x1F ADD PUSH1 0x1F NOT AND PUSH1 0x20 ADD DUP3 ADD PUSH1 0x40 MSTORE DUP1 ISZERO PUSH2 0x1401 JUMPI DUP2 PUSH1 0x20 ADD PUSH1 0x1 DUP3 MUL DUP1 CALLDATASIZE DUP4 CALLDATACOPY DUP1 DUP3 ADD SWAP2 POP POP SWAP1 POP JUMPDEST POP SWAP1 POP PUSH32 0x3000000000000000000000000000000000000000000000000000000000000000 DUP2 PUSH1 0x0 DUP2 MLOAD DUP2 LT PUSH2 0x1439 JUMPI PUSH2 0x1438 PUSH2 0x2278 JUMP JUMPDEST JUMPDEST PUSH1 0x20 ADD ADD SWAP1 PUSH31 0xFFFFFFFFFFFFFFFFFFFFFFFFFFFFFFFFFFFFFFFFFFFFFFFFFFFFFFFFFFFFFF NOT AND SWAP1 DUP2 PUSH1 0x0 BYTE SWAP1 MSTORE8 POP PUSH32 0x7800000000000000000000000000000000000000000000000000000000000000 DUP2 PUSH1 0x1 DUP2 MLOAD DUP2 LT PUSH2 0x149D JUMPI PUSH2 0x149C PUSH2 0x2278 JUMP JUMPDEST JUMPDEST PUSH1 0x20 ADD ADD SWAP1 PUSH31 0xFFFFFFFFFFFFFFFFFFFFFFFFFFFFFFFFFFFFFFFFFFFFFFFFFFFFFFFFFFFFFF NOT AND SWAP1 DUP2 PUSH1 0x0 BYTE SWAP1 MSTORE8 POP PUSH1 0x0 PUSH1 0x1 DUP5 PUSH1 0x2 PUSH2 0x14DD SWAP2 SWAP1 PUSH2 0x202A JUMP JUMPDEST PUSH2 0x14E7 SWAP2 SWAP1 PUSH2 0x1FD4 JUMP JUMPDEST SWAP1 POP JUMPDEST PUSH1 0x1 DUP2 GT ISZERO PUSH2 0x1587 JUMPI PUSH32 0x3031323334353637383961626364656600000000000000000000000000000000 PUSH1 0xF DUP7 AND PUSH1 0x10 DUP2 LT PUSH2 0x1529 JUMPI PUSH2 0x1528 PUSH2 0x2278 JUMP JUMPDEST JUMPDEST BYTE PUSH1 0xF8 SHL DUP3 DUP3 DUP2 MLOAD DUP2 LT PUSH2 0x1540 JUMPI PUSH2 0x153F PUSH2 0x2278 JUMP JUMPDEST JUMPDEST PUSH1 0x20 ADD ADD SWAP1 PUSH31 0xFFFFFFFFFFFFFFFFFFFFFFFFFFFFFFFFFFFFFFFFFFFFFFFFFFFFFFFFFFFFFF NOT AND SWAP1 DUP2 PUSH1 0x0 BYTE SWAP1 MSTORE8 POP PUSH1 0x4 DUP6 SWAP1 SHR SWAP5 POP DUP1 PUSH2 0x1580 SWAP1 PUSH2 0x2144 JUMP JUMPDEST SWAP1 POP PUSH2 0x14EA JUMP JUMPDEST POP PUSH1 0x0 DUP5 EQ PUSH2 0x15CB JUMPI PUSH1 0x40 MLOAD PUSH32 0x8C379A000000000000000000000000000000000000000000000000000000000 DUP2 MSTORE PUSH1 0x4 ADD PUSH2 0x15C2 SWAP1 PUSH2 0x1E21 JUMP JUMPDEST PUSH1 0x40 MLOAD DUP1 SWAP2 SUB SWAP1 REVERT JUMPDEST DUP1 SWAP2 POP POP SWAP3 SWAP2 POP POP JUMP JUMPDEST PUSH1 0x40 MLOAD DUP1 PUSH1 0x60 ADD PUSH1 0x40 MSTORE DUP1 PUSH1 0x60 DUP2 MSTORE PUSH1 0x20 ADD PUSH1 0x0 PUSH20 0xFFFFFFFFFFFFFFFFFFFFFFFFFFFFFFFFFFFFFFFF AND DUP2 MSTORE PUSH1 0x20 ADD PUSH1 0x60 DUP2 MSTORE POP SWAP1 JUMP JUMPDEST DUP3 DUP1 SLOAD PUSH2 0x1618 SWAP1 PUSH2 0x216E JUMP JUMPDEST SWAP1 PUSH1 0x0 MSTORE PUSH1 0x20 PUSH1 0x0 KECCAK256 SWAP1 PUSH1 0x1F ADD PUSH1 0x20 SWAP1 DIV DUP2 ADD SWAP3 DUP3 PUSH2 0x163A JUMPI PUSH1 0x0 DUP6 SSTORE PUSH2 0x1681 JUMP JUMPDEST DUP3 PUSH1 0x1F LT PUSH2 0x1653 JUMPI DUP1 MLOAD PUSH1 0xFF NOT AND DUP4 DUP1 ADD OR DUP6 SSTORE PUSH2 0x1681 JUMP JUMPDEST DUP3 DUP1 ADD PUSH1 0x1 ADD DUP6 SSTORE DUP3 ISZERO PUSH2 0x1681 JUMPI SWAP2 DUP3 ADD JUMPDEST DUP3 DUP2 GT ISZERO PUSH2 0x1680 JUMPI DUP3 MLOAD DUP3 SSTORE SWAP2 PUSH1 0x20 ADD SWAP2 SWAP1 PUSH1 0x1 ADD SWAP1 PUSH2 0x1665 JUMP JUMPDEST JUMPDEST POP SWAP1 POP PUSH2 0x168E SWAP2 SWAP1 PUSH2 0x171F JUMP JUMPDEST POP SWAP1 JUMP JUMPDEST DUP3 DUP1 SLOAD PUSH2 0x169E SWAP1 PUSH2 0x216E JUMP JUMPDEST SWAP1 PUSH1 0x0 MSTORE PUSH1 0x20 PUSH1 0x0 KECCAK256 SWAP1 PUSH1 0x1F ADD PUSH1 0x20 SWAP1 DIV DUP2 ADD SWAP3 DUP3 PUSH2 0x16C0 JUMPI PUSH1 0x0 DUP6 SSTORE PUSH2 0x170E JUMP JUMPDEST DUP3 PUSH1 0x1F LT PUSH2 0x16D1 JUMPI DUP1 SLOAD DUP6 SSTORE PUSH2 0x170E JUMP JUMPDEST DUP3 DUP1 ADD PUSH1 0x1 ADD DUP6 SSTORE DUP3 ISZERO PUSH2 0x170E JUMPI PUSH1 0x0 MSTORE PUSH1 0x20 PUSH1 0x0 KECCAK256 SWAP2 PUSH1 0x1F ADD PUSH1 0x20 SWAP1 DIV DUP3 ADD JUMPDEST DUP3 DUP2 GT ISZERO PUSH2 0x170D JUMPI DUP3 SLOAD DUP3 SSTORE SWAP2 PUSH1 0x1 ADD SWAP2 SWAP1 PUSH1 0x1 ADD SWAP1 PUSH2 0x16F2 JUMP JUMPDEST JUMPDEST POP SWAP1 POP PUSH2 0x171B SWAP2 SWAP1 PUSH2 0x171F JUMP JUMPDEST POP SWAP1 JUMP JUMPDEST JUMPDEST DUP1 DUP3 GT ISZERO PUSH2 0x1738 JUMPI PUSH1 0x0 DUP2 PUSH1 0x0 SWAP1 SSTORE POP PUSH1 0x1 ADD PUSH2 0x1720 JUMP JUMPDEST POP SWAP1 JUMP JUMPDEST PUSH1 0x0 PUSH2 0x174F PUSH2 0x174A DUP5 PUSH2 0x1F3F JUMP JUMPDEST PUSH2 0x1F1A JUMP JUMPDEST SWAP1 POP DUP1 DUP4 DUP3 MSTORE PUSH1 0x20 DUP3 ADD SWAP1 POP DUP3 DUP6 PUSH1 0x20 DUP7 MUL DUP3 ADD GT ISZERO PUSH2 0x1772 JUMPI PUSH2 0x1771 PUSH2 0x22DB JUMP JUMPDEST JUMPDEST PUSH1 0x0 JUMPDEST DUP6 DUP2 LT ISZERO PUSH2 0x17A2 JUMPI DUP2 PUSH2 0x1788 DUP9 DUP3 PUSH2 0x17EE JUMP JUMPDEST DUP5 MSTORE PUSH1 0x20 DUP5 ADD SWAP4 POP PUSH1 0x20 DUP4 ADD SWAP3 POP POP PUSH1 0x1 DUP2 ADD SWAP1 POP PUSH2 0x1775 JUMP JUMPDEST POP POP POP SWAP4 SWAP3 POP POP POP JUMP JUMPDEST PUSH1 0x0 PUSH2 0x17BF PUSH2 0x17BA DUP5 PUSH2 0x1F6B JUMP JUMPDEST PUSH2 0x1F1A JUMP JUMPDEST SWAP1 POP DUP3 DUP2 MSTORE PUSH1 0x20 DUP2 ADD DUP5 DUP5 DUP5 ADD GT ISZERO PUSH2 0x17DB JUMPI PUSH2 0x17DA PUSH2 0x22E0 JUMP JUMPDEST JUMPDEST PUSH2 0x17E6 DUP5 DUP3 DUP6 PUSH2 0x2102 JUMP JUMPDEST POP SWAP4 SWAP3 POP POP POP JUMP JUMPDEST PUSH1 0x0 DUP2 CALLDATALOAD SWAP1 POP PUSH2 0x17FD DUP2 PUSH2 0x246B JUMP JUMPDEST SWAP3 SWAP2 POP POP JUMP JUMPDEST PUSH1 0x0 DUP3 PUSH1 0x1F DUP4 ADD SLT PUSH2 0x1818 JUMPI PUSH2 0x1817 PUSH2 0x22D6 JUMP JUMPDEST JUMPDEST DUP2 CALLDATALOAD PUSH2 0x1828 DUP5 DUP3 PUSH1 0x20 DUP7 ADD PUSH2 0x173C JUMP JUMPDEST SWAP2 POP POP SWAP3 SWAP2 POP POP JUMP JUMPDEST PUSH1 0x0 DUP2 CALLDATALOAD SWAP1 POP PUSH2 0x1840 DUP2 PUSH2 0x2482 JUMP JUMPDEST SWAP3 SWAP2 POP POP JUMP JUMPDEST PUSH1 0x0 DUP2 CALLDATALOAD SWAP1 POP PUSH2 0x1855 DUP2 PUSH2 0x2499 JUMP JUMPDEST SWAP3 SWAP2 POP POP JUMP JUMPDEST PUSH1 0x0 DUP3 PUSH1 0x1F DUP4 ADD SLT PUSH2 0x1870 JUMPI PUSH2 0x186F PUSH2 0x22D6 JUMP JUMPDEST JUMPDEST DUP2 CALLDATALOAD PUSH2 0x1880 DUP5 DUP3 PUSH1 0x20 DUP7 ADD PUSH2 0x17AC JUMP JUMPDEST SWAP2 POP POP SWAP3 SWAP2 POP POP JUMP JUMPDEST PUSH1 0x0 DUP2 CALLDATALOAD SWAP1 POP PUSH2 0x1898 DUP2 PUSH2 0x24B0 JUMP JUMPDEST SWAP3 SWAP2 POP POP JUMP JUMPDEST PUSH1 0x0 PUSH1 0x20 DUP3 DUP5 SUB SLT ISZERO PUSH2 0x18B4 JUMPI PUSH2 0x18B3 PUSH2 0x22EA JUMP JUMPDEST JUMPDEST PUSH1 0x0 PUSH2 0x18C2 DUP5 DUP3 DUP6 ADD PUSH2 0x17EE JUMP JUMPDEST SWAP2 POP POP SWAP3 SWAP2 POP POP JUMP JUMPDEST PUSH1 0x0 DUP1 PUSH1 0x40 DUP4 DUP6 SUB SLT ISZERO PUSH2 0x18E2 JUMPI PUSH2 0x18E1 PUSH2 0x22EA JUMP JUMPDEST JUMPDEST PUSH1 0x0 PUSH2 0x18F0 DUP6 DUP3 DUP7 ADD PUSH2 0x17EE JUMP JUMPDEST SWAP3 POP POP PUSH1 0x20 PUSH2 0x1901 DUP6 DUP3 DUP7 ADD PUSH2 0x1889 JUMP JUMPDEST SWAP2 POP POP SWAP3 POP SWAP3 SWAP1 POP JUMP JUMPDEST PUSH1 0x0 DUP1 PUSH1 0x0 PUSH1 0x60 DUP5 DUP7 SUB SLT ISZERO PUSH2 0x1924 JUMPI PUSH2 0x1923 PUSH2 0x22EA JUMP JUMPDEST JUMPDEST PUSH1 0x0 DUP5 ADD CALLDATALOAD PUSH8 0xFFFFFFFFFFFFFFFF DUP2 GT ISZERO PUSH2 0x1942 JUMPI PUSH2 0x1941 PUSH2 0x22E5 JUMP JUMPDEST JUMPDEST PUSH2 0x194E DUP7 DUP3 DUP8 ADD PUSH2 0x1803 JUMP JUMPDEST SWAP4 POP POP PUSH1 0x20 PUSH2 0x195F DUP7 DUP3 DUP8 ADD PUSH2 0x1889 JUMP JUMPDEST SWAP3 POP POP PUSH1 0x40 PUSH2 0x1970 DUP7 DUP3 DUP8 ADD PUSH2 0x1889 JUMP JUMPDEST SWAP2 POP POP SWAP3 POP SWAP3 POP SWAP3 JUMP JUMPDEST PUSH1 0x0 PUSH1 0x20 DUP3 DUP5 SUB SLT ISZERO PUSH2 0x1990 JUMPI PUSH2 0x198F PUSH2 0x22EA JUMP JUMPDEST JUMPDEST PUSH1 0x0 PUSH2 0x199E DUP5 DUP3 DUP6 ADD PUSH2 0x1831 JUMP JUMPDEST SWAP2 POP POP SWAP3 SWAP2 POP POP JUMP JUMPDEST PUSH1 0x0 DUP1 PUSH1 0x40 DUP4 DUP6 SUB SLT ISZERO PUSH2 0x19BE JUMPI PUSH2 0x19BD PUSH2 0x22EA JUMP JUMPDEST JUMPDEST PUSH1 0x0 PUSH2 0x19CC DUP6 DUP3 DUP7 ADD PUSH2 0x1831 JUMP JUMPDEST SWAP3 POP POP PUSH1 0x20 PUSH2 0x19DD DUP6 DUP3 DUP7 ADD PUSH2 0x17EE JUMP JUMPDEST SWAP2 POP POP SWAP3 POP SWAP3 SWAP1 POP JUMP JUMPDEST PUSH1 0x0 PUSH1 0x20 DUP3 DUP5 SUB SLT ISZERO PUSH2 0x19FD JUMPI PUSH2 0x19FC PUSH2 0x22EA JUMP JUMPDEST JUMPDEST PUSH1 0x0 PUSH2 0x1A0B DUP5 DUP3 DUP6 ADD PUSH2 0x1846 JUMP JUMPDEST SWAP2 POP POP SWAP3 SWAP2 POP POP JUMP JUMPDEST PUSH1 0x0 DUP1 PUSH1 0x0 PUSH1 0x60 DUP5 DUP7 SUB SLT ISZERO PUSH2 0x1A2D JUMPI PUSH2 0x1A2C PUSH2 0x22EA JUMP JUMPDEST JUMPDEST PUSH1 0x0 DUP5 ADD CALLDATALOAD PUSH8 0xFFFFFFFFFFFFFFFF DUP2 GT ISZERO PUSH2 0x1A4B JUMPI PUSH2 0x1A4A PUSH2 0x22E5 JUMP JUMPDEST JUMPDEST PUSH2 0x1A57 DUP7 DUP3 DUP8 ADD PUSH2 0x185B JUMP JUMPDEST SWAP4 POP POP PUSH1 0x20 PUSH2 0x1A68 DUP7 DUP3 DUP8 ADD PUSH2 0x17EE JUMP JUMPDEST SWAP3 POP POP PUSH1 0x40 PUSH2 0x1A79 DUP7 DUP3 DUP8 ADD PUSH2 0x1889 JUMP JUMPDEST SWAP2 POP POP SWAP3 POP SWAP3 POP SWAP3 JUMP JUMPDEST PUSH1 0x0 PUSH1 0x20 DUP3 DUP5 SUB SLT ISZERO PUSH2 0x1A99 JUMPI PUSH2 0x1A98 PUSH2 0x22EA JUMP JUMPDEST JUMPDEST PUSH1 0x0 PUSH2 0x1AA7 DUP5 DUP3 DUP6 ADD PUSH2 0x1889 JUMP JUMPDEST SWAP2 POP POP SWAP3 SWAP2 POP POP JUMP JUMPDEST PUSH2 0x1AB9 DUP2 PUSH2 0x2084 JUMP JUMPDEST DUP3 MSTORE POP POP JUMP JUMPDEST PUSH2 0x1AC8 DUP2 PUSH2 0x2084 JUMP JUMPDEST DUP3 MSTORE POP POP JUMP JUMPDEST PUSH2 0x1AD7 DUP2 PUSH2 0x2096 JUMP JUMPDEST DUP3 MSTORE POP POP JUMP JUMPDEST PUSH2 0x1AE6 DUP2 PUSH2 0x20A2 JUMP JUMPDEST DUP3 MSTORE POP POP JUMP JUMPDEST PUSH1 0x0 PUSH2 0x1AF7 DUP3 PUSH2 0x1F9C JUMP JUMPDEST PUSH2 0x1B01 DUP2 DUP6 PUSH2 0x1FA7 JUMP JUMPDEST SWAP4 POP PUSH2 0x1B11 DUP2 DUP6 PUSH1 0x20 DUP7 ADD PUSH2 0x2111 JUMP JUMPDEST PUSH2 0x1B1A DUP2 PUSH2 0x22EF JUMP JUMPDEST DUP5 ADD SWAP2 POP POP SWAP3 SWAP2 POP POP JUMP JUMPDEST PUSH1 0x0 PUSH2 0x1B30 DUP3 PUSH2 0x1F9C JUMP JUMPDEST PUSH2 0x1B3A DUP2 DUP6 PUSH2 0x1FB8 JUMP JUMPDEST SWAP4 POP PUSH2 0x1B4A DUP2 DUP6 PUSH1 0x20 DUP7 ADD PUSH2 0x2111 JUMP JUMPDEST PUSH2 0x1B53 DUP2 PUSH2 0x22EF JUMP JUMPDEST DUP5 ADD SWAP2 POP POP SWAP3 SWAP2 POP POP JUMP JUMPDEST PUSH1 0x0 PUSH2 0x1B69 DUP3 PUSH2 0x1F9C JUMP JUMPDEST PUSH2 0x1B73 DUP2 DUP6 PUSH2 0x1FC9 JUMP JUMPDEST SWAP4 POP PUSH2 0x1B83 DUP2 DUP6 PUSH1 0x20 DUP7 ADD PUSH2 0x2111 JUMP JUMPDEST DUP1 DUP5 ADD SWAP2 POP POP SWAP3 SWAP2 POP POP JUMP JUMPDEST PUSH1 0x0 PUSH2 0x1B9C PUSH1 0x20 DUP4 PUSH2 0x1FB8 JUMP JUMPDEST SWAP2 POP PUSH2 0x1BA7 DUP3 PUSH2 0x2300 JUMP JUMPDEST PUSH1 0x20 DUP3 ADD SWAP1 POP SWAP2 SWAP1 POP JUMP JUMPDEST PUSH1 0x0 PUSH2 0x1BBF PUSH1 0x26 DUP4 PUSH2 0x1FB8 JUMP JUMPDEST SWAP2 POP PUSH2 0x1BCA DUP3 PUSH2 0x2329 JUMP JUMPDEST PUSH1 0x40 DUP3 ADD SWAP1 POP SWAP2 SWAP1 POP JUMP JUMPDEST PUSH1 0x0 PUSH2 0x1BE2 PUSH1 0x1F DUP4 PUSH2 0x1FB8 JUMP JUMPDEST SWAP2 POP PUSH2 0x1BED DUP3 PUSH2 0x2378 JUMP JUMPDEST PUSH1 0x20 DUP3 ADD SWAP1 POP SWAP2 SWAP1 POP JUMP JUMPDEST PUSH1 0x0 PUSH2 0x1C05 PUSH1 0x20 DUP4 PUSH2 0x1FB8 JUMP JUMPDEST SWAP2 POP PUSH2 0x1C10 DUP3 PUSH2 0x23A1 JUMP JUMPDEST PUSH1 0x20 DUP3 ADD SWAP1 POP SWAP2 SWAP1 POP JUMP JUMPDEST PUSH1 0x0 PUSH2 0x1C28 PUSH1 0x17 DUP4 PUSH2 0x1FC9 JUMP JUMPDEST SWAP2 POP PUSH2 0x1C33 DUP3 PUSH2 0x23CA JUMP JUMPDEST PUSH1 0x17 DUP3 ADD SWAP1 POP SWAP2 SWAP1 POP JUMP JUMPDEST PUSH1 0x0 PUSH2 0x1C4B PUSH1 0x11 DUP4 PUSH2 0x1FC9 JUMP JUMPDEST SWAP2 POP PUSH2 0x1C56 DUP3 PUSH2 0x23F3 JUMP JUMPDEST PUSH1 0x11 DUP3 ADD SWAP1 POP SWAP2 SWAP1 POP JUMP JUMPDEST PUSH1 0x0 PUSH2 0x1C6E PUSH1 0x2F DUP4 PUSH2 0x1FB8 JUMP JUMPDEST SWAP2 POP PUSH2 0x1C79 DUP3 PUSH2 0x241C JUMP JUMPDEST PUSH1 0x40 DUP3 ADD SWAP1 POP SWAP2 SWAP1 POP JUMP JUMPDEST PUSH1 0x0 PUSH1 0x60 DUP4 ADD PUSH1 0x0 DUP4 ADD MLOAD DUP5 DUP3 SUB PUSH1 0x0 DUP7 ADD MSTORE PUSH2 0x1CA1 DUP3 DUP3 PUSH2 0x1AEC JUMP JUMPDEST SWAP2 POP POP PUSH1 0x20 DUP4 ADD MLOAD PUSH2 0x1CB6 PUSH1 0x20 DUP7 ADD DUP3 PUSH2 0x1AB0 JUMP JUMPDEST POP PUSH1 0x40 DUP4 ADD MLOAD DUP5 DUP3 SUB PUSH1 0x40 DUP7 ADD MSTORE PUSH2 0x1CCE DUP3 DUP3 PUSH2 0x1AEC JUMP JUMPDEST SWAP2 POP POP DUP1 SWAP2 POP POP SWAP3 SWAP2 POP POP JUMP JUMPDEST PUSH2 0x1CE4 DUP2 PUSH2 0x20F8 JUMP JUMPDEST DUP3 MSTORE POP POP JUMP JUMPDEST PUSH1 0x0 PUSH2 0x1CF5 DUP3 PUSH2 0x1C1B JUMP JUMPDEST SWAP2 POP PUSH2 0x1D01 DUP3 DUP6 PUSH2 0x1B5E JUMP JUMPDEST SWAP2 POP PUSH2 0x1D0C DUP3 PUSH2 0x1C3E JUMP JUMPDEST SWAP2 POP PUSH2 0x1D18 DUP3 DUP5 PUSH2 0x1B5E JUMP JUMPDEST SWAP2 POP DUP2 SWAP1 POP SWAP4 SWAP3 POP POP POP JUMP JUMPDEST PUSH1 0x0 PUSH1 0x20 DUP3 ADD SWAP1 POP PUSH2 0x1D39 PUSH1 0x0 DUP4 ADD DUP5 PUSH2 0x1ABF JUMP JUMPDEST SWAP3 SWAP2 POP POP JUMP JUMPDEST PUSH1 0x0 PUSH1 0x80 DUP3 ADD SWAP1 POP PUSH2 0x1D54 PUSH1 0x0 DUP4 ADD DUP8 PUSH2 0x1ABF JUMP JUMPDEST PUSH2 0x1D61 PUSH1 0x20 DUP4 ADD DUP7 PUSH2 0x1CDB JUMP JUMPDEST PUSH2 0x1D6E PUSH1 0x40 DUP4 ADD DUP6 PUSH2 0x1CDB JUMP JUMPDEST PUSH2 0x1D7B PUSH1 0x60 DUP4 ADD DUP5 PUSH2 0x1ACE JUMP JUMPDEST SWAP6 SWAP5 POP POP POP POP POP JUMP JUMPDEST PUSH1 0x0 PUSH1 0x20 DUP3 ADD SWAP1 POP PUSH2 0x1D99 PUSH1 0x0 DUP4 ADD DUP5 PUSH2 0x1ACE JUMP JUMPDEST SWAP3 SWAP2 POP POP JUMP JUMPDEST PUSH1 0x0 PUSH1 0x20 DUP3 ADD SWAP1 POP PUSH2 0x1DB4 PUSH1 0x0 DUP4 ADD DUP5 PUSH2 0x1ADD JUMP JUMPDEST SWAP3 SWAP2 POP POP JUMP JUMPDEST PUSH1 0x0 PUSH1 0x20 DUP3 ADD SWAP1 POP DUP2 DUP2 SUB PUSH1 0x0 DUP4 ADD MSTORE PUSH2 0x1DD4 DUP2 DUP5 PUSH2 0x1B25 JUMP JUMPDEST SWAP1 POP SWAP3 SWAP2 POP POP JUMP JUMPDEST PUSH1 0x0 PUSH1 0x60 DUP3 ADD SWAP1 POP DUP2 DUP2 SUB PUSH1 0x0 DUP4 ADD MSTORE PUSH2 0x1DF6 DUP2 DUP7 PUSH2 0x1B25 JUMP JUMPDEST SWAP1 POP PUSH2 0x1E05 PUSH1 0x20 DUP4 ADD DUP6 PUSH2 0x1ABF JUMP JUMPDEST DUP2 DUP2 SUB PUSH1 0x40 DUP4 ADD MSTORE PUSH2 0x1E17 DUP2 DUP5 PUSH2 0x1B25 JUMP JUMPDEST SWAP1 POP SWAP5 SWAP4 POP POP POP POP JUMP JUMPDEST PUSH1 0x0 PUSH1 0x20 DUP3 ADD SWAP1 POP DUP2 DUP2 SUB PUSH1 0x0 DUP4 ADD MSTORE PUSH2 0x1E3A DUP2 PUSH2 0x1B8F JUMP JUMPDEST SWAP1 POP SWAP2 SWAP1 POP JUMP JUMPDEST PUSH1 0x0 PUSH1 0x20 DUP3 ADD SWAP1 POP DUP2 DUP2 SUB PUSH1 0x0 DUP4 ADD MSTORE PUSH2 0x1E5A DUP2 PUSH2 0x1BB2 JUMP JUMPDEST SWAP1 POP SWAP2 SWAP1 POP JUMP JUMPDEST PUSH1 0x0 PUSH1 0x20 DUP3 ADD SWAP1 POP DUP2 DUP2 SUB PUSH1 0x0 DUP4 ADD MSTORE PUSH2 0x1E7A DUP2 PUSH2 0x1BD5 JUMP JUMPDEST SWAP1 POP SWAP2 SWAP1 POP JUMP JUMPDEST PUSH1 0x0 PUSH1 0x20 DUP3 ADD SWAP1 POP DUP2 DUP2 SUB PUSH1 0x0 DUP4 ADD MSTORE PUSH2 0x1E9A DUP2 PUSH2 0x1BF8 JUMP JUMPDEST SWAP1 POP SWAP2 SWAP1 POP JUMP JUMPDEST PUSH1 0x0 PUSH1 0x20 DUP3 ADD SWAP1 POP DUP2 DUP2 SUB PUSH1 0x0 DUP4 ADD MSTORE PUSH2 0x1EBA DUP2 PUSH2 0x1C61 JUMP JUMPDEST SWAP1 POP SWAP2 SWAP1 POP JUMP JUMPDEST PUSH1 0x0 PUSH1 0x20 DUP3 ADD SWAP1 POP DUP2 DUP2 SUB PUSH1 0x0 DUP4 ADD MSTORE PUSH2 0x1EDB DUP2 DUP5 PUSH2 0x1C84 JUMP JUMPDEST SWAP1 POP SWAP3 SWAP2 POP POP JUMP JUMPDEST PUSH1 0x0 PUSH1 0x60 DUP3 ADD SWAP1 POP PUSH2 0x1EF8 PUSH1 0x0 DUP4 ADD DUP7 PUSH2 0x1CDB JUMP JUMPDEST PUSH2 0x1F05 PUSH1 0x20 DUP4 ADD DUP6 PUSH2 0x1CDB JUMP JUMPDEST PUSH2 0x1F12 PUSH1 0x40 DUP4 ADD DUP5 PUSH2 0x1ACE JUMP JUMPDEST SWAP5 SWAP4 POP POP POP POP JUMP JUMPDEST PUSH1 0x0 PUSH2 0x1F24 PUSH2 0x1F35 JUMP JUMPDEST SWAP1 POP PUSH2 0x1F30 DUP3 DUP3 PUSH2 0x21A0 JUMP JUMPDEST SWAP2 SWAP1 POP JUMP JUMPDEST PUSH1 0x0 PUSH1 0x40 MLOAD SWAP1 POP SWAP1 JUMP JUMPDEST PUSH1 0x0 PUSH8 0xFFFFFFFFFFFFFFFF DUP3 GT ISZERO PUSH2 0x1F5A JUMPI PUSH2 0x1F59 PUSH2 0x22A7 JUMP JUMPDEST JUMPDEST PUSH1 0x20 DUP3 MUL SWAP1 POP PUSH1 0x20 DUP2 ADD SWAP1 POP SWAP2 SWAP1 POP JUMP JUMPDEST PUSH1 0x0 PUSH8 0xFFFFFFFFFFFFFFFF DUP3 GT ISZERO PUSH2 0x1F86 JUMPI PUSH2 0x1F85 PUSH2 0x22A7 JUMP JUMPDEST JUMPDEST PUSH2 0x1F8F DUP3 PUSH2 0x22EF JUMP JUMPDEST SWAP1 POP PUSH1 0x20 DUP2 ADD SWAP1 POP SWAP2 SWAP1 POP JUMP JUMPDEST PUSH1 0x0 DUP2 MLOAD SWAP1 POP SWAP2 SWAP1 POP JUMP JUMPDEST PUSH1 0x0 DUP3 DUP3 MSTORE PUSH1 0x20 DUP3 ADD SWAP1 POP SWAP3 SWAP2 POP POP JUMP JUMPDEST PUSH1 0x0 DUP3 DUP3 MSTORE PUSH1 0x20 DUP3 ADD SWAP1 POP SWAP3 SWAP2 POP POP JUMP JUMPDEST PUSH1 0x0 DUP2 SWAP1 POP SWAP3 SWAP2 POP POP JUMP JUMPDEST PUSH1 0x0 PUSH2 0x1FDF DUP3 PUSH2 0x20F8 JUMP JUMPDEST SWAP2 POP PUSH2 0x1FEA DUP4 PUSH2 0x20F8 JUMP JUMPDEST SWAP3 POP DUP3 PUSH32 0xFFFFFFFFFFFFFFFFFFFFFFFFFFFFFFFFFFFFFFFFFFFFFFFFFFFFFFFFFFFFFFFF SUB DUP3 GT ISZERO PUSH2 0x201F JUMPI PUSH2 0x201E PUSH2 0x221A JUMP JUMPDEST JUMPDEST DUP3 DUP3 ADD SWAP1 POP SWAP3 SWAP2 POP POP JUMP JUMPDEST PUSH1 0x0 PUSH2 0x2035 DUP3 PUSH2 0x20F8 JUMP JUMPDEST SWAP2 POP PUSH2 0x2040 DUP4 PUSH2 0x20F8 JUMP JUMPDEST SWAP3 POP DUP2 PUSH32 0xFFFFFFFFFFFFFFFFFFFFFFFFFFFFFFFFFFFFFFFFFFFFFFFFFFFFFFFFFFFFFFFF DIV DUP4 GT DUP3 ISZERO ISZERO AND ISZERO PUSH2 0x2079 JUMPI PUSH2 0x2078 PUSH2 0x221A JUMP JUMPDEST JUMPDEST DUP3 DUP3 MUL SWAP1 POP SWAP3 SWAP2 POP POP JUMP JUMPDEST PUSH1 0x0 PUSH2 0x208F DUP3 PUSH2 0x20D8 JUMP JUMPDEST SWAP1 POP SWAP2 SWAP1 POP JUMP JUMPDEST PUSH1 0x0 DUP2 ISZERO ISZERO SWAP1 POP SWAP2 SWAP1 POP JUMP JUMPDEST PUSH1 0x0 DUP2 SWAP1 POP SWAP2 SWAP1 POP JUMP JUMPDEST PUSH1 0x0 PUSH32 0xFFFFFFFF00000000000000000000000000000000000000000000000000000000 DUP3 AND SWAP1 POP SWAP2 SWAP1 POP JUMP JUMPDEST PUSH1 0x0 PUSH20 0xFFFFFFFFFFFFFFFFFFFFFFFFFFFFFFFFFFFFFFFF DUP3 AND SWAP1 POP SWAP2 SWAP1 POP JUMP JUMPDEST PUSH1 0x0 DUP2 SWAP1 POP SWAP2 SWAP1 POP JUMP JUMPDEST DUP3 DUP2 DUP4 CALLDATACOPY PUSH1 0x0 DUP4 DUP4 ADD MSTORE POP POP POP JUMP JUMPDEST PUSH1 0x0 JUMPDEST DUP4 DUP2 LT ISZERO PUSH2 0x212F JUMPI DUP1 DUP3 ADD MLOAD DUP2 DUP5 ADD MSTORE PUSH1 0x20 DUP2 ADD SWAP1 POP PUSH2 0x2114 JUMP JUMPDEST DUP4 DUP2 GT ISZERO PUSH2 0x213E JUMPI PUSH1 0x0 DUP5 DUP5 ADD MSTORE JUMPDEST POP POP POP POP JUMP JUMPDEST PUSH1 0x0 PUSH2 0x214F DUP3 PUSH2 0x20F8 JUMP JUMPDEST SWAP2 POP PUSH1 0x0 DUP3 EQ ISZERO PUSH2 0x2163 JUMPI PUSH2 0x2162 PUSH2 0x221A JUMP JUMPDEST JUMPDEST PUSH1 0x1 DUP3 SUB SWAP1 POP SWAP2 SWAP1 POP JUMP JUMPDEST PUSH1 0x0 PUSH1 0x2 DUP3 DIV SWAP1 POP PUSH1 0x1 DUP3 AND DUP1 PUSH2 0x2186 JUMPI PUSH1 0x7F DUP3 AND SWAP2 POP JUMPDEST PUSH1 0x20 DUP3 LT DUP2 EQ ISZERO PUSH2 0x219A JUMPI PUSH2 0x2199 PUSH2 0x2249 JUMP JUMPDEST JUMPDEST POP SWAP2 SWAP1 POP JUMP JUMPDEST PUSH2 0x21A9 DUP3 PUSH2 0x22EF JUMP JUMPDEST DUP2 ADD DUP2 DUP2 LT PUSH8 0xFFFFFFFFFFFFFFFF DUP3 GT OR ISZERO PUSH2 0x21C8 JUMPI PUSH2 0x21C7 PUSH2 0x22A7 JUMP JUMPDEST JUMPDEST DUP1 PUSH1 0x40 MSTORE POP POP POP JUMP JUMPDEST PUSH1 0x0 PUSH2 0x21DC DUP3 PUSH2 0x20F8 JUMP JUMPDEST SWAP2 POP PUSH32 0xFFFFFFFFFFFFFFFFFFFFFFFFFFFFFFFFFFFFFFFFFFFFFFFFFFFFFFFFFFFFFFFF DUP3 EQ ISZERO PUSH2 0x220F JUMPI PUSH2 0x220E PUSH2 0x221A JUMP JUMPDEST JUMPDEST PUSH1 0x1 DUP3 ADD SWAP1 POP SWAP2 SWAP1 POP JUMP JUMPDEST PUSH32 0x4E487B7100000000000000000000000000000000000000000000000000000000 PUSH1 0x0 MSTORE PUSH1 0x11 PUSH1 0x4 MSTORE PUSH1 0x24 PUSH1 0x0 REVERT JUMPDEST PUSH32 0x4E487B7100000000000000000000000000000000000000000000000000000000 PUSH1 0x0 MSTORE PUSH1 0x22 PUSH1 0x4 MSTORE PUSH1 0x24 PUSH1 0x0 REVERT JUMPDEST PUSH32 0x4E487B7100000000000000000000000000000000000000000000000000000000 PUSH1 0x0 MSTORE PUSH1 0x32 PUSH1 0x4 MSTORE PUSH1 0x24 PUSH1 0x0 REVERT JUMPDEST PUSH32 0x4E487B7100000000000000000000000000000000000000000000000000000000 PUSH1 0x0 MSTORE PUSH1 0x41 PUSH1 0x4 MSTORE PUSH1 0x24 PUSH1 0x0 REVERT JUMPDEST PUSH1 0x0 DUP1 REVERT JUMPDEST PUSH1 0x0 DUP1 REVERT JUMPDEST PUSH1 0x0 DUP1 REVERT JUMPDEST PUSH1 0x0 DUP1 REVERT JUMPDEST PUSH1 0x0 DUP1 REVERT JUMPDEST PUSH1 0x0 PUSH1 0x1F NOT PUSH1 0x1F DUP4 ADD AND SWAP1 POP SWAP2 SWAP1 POP JUMP JUMPDEST PUSH32 0x537472696E67733A20686578206C656E67746820696E73756666696369656E74 PUSH1 0x0 DUP3 ADD MSTORE POP JUMP JUMPDEST PUSH32 0x4F776E61626C653A206E6577206F776E657220697320746865207A65726F2061 PUSH1 0x0 DUP3 ADD MSTORE PUSH32 0x6464726573730000000000000000000000000000000000000000000000000000 PUSH1 0x20 DUP3 ADD MSTORE POP JUMP JUMPDEST PUSH32 0x43616C6C6572206973206E6F7420616E20494E45432065786563757469766500 PUSH1 0x0 DUP3 ADD MSTORE POP JUMP JUMPDEST PUSH32 0x4F776E61626C653A2063616C6C6572206973206E6F7420746865206F776E6572 PUSH1 0x0 DUP3 ADD MSTORE POP JUMP JUMPDEST PUSH32 0x416363657373436F6E74726F6C3A206163636F756E7420000000000000000000 PUSH1 0x0 DUP3 ADD MSTORE POP JUMP JUMPDEST PUSH32 0x206973206D697373696E6720726F6C6520000000000000000000000000000000 PUSH1 0x0 DUP3 ADD MSTORE POP JUMP JUMPDEST PUSH32 0x416363657373436F6E74726F6C3A2063616E206F6E6C792072656E6F756E6365 PUSH1 0x0 DUP3 ADD MSTORE PUSH32 0x20726F6C657320666F722073656C660000000000000000000000000000000000 PUSH1 0x20 DUP3 ADD MSTORE POP JUMP JUMPDEST PUSH2 0x2474 DUP2 PUSH2 0x2084 JUMP JUMPDEST DUP2 EQ PUSH2 0x247F JUMPI PUSH1 0x0 DUP1 REVERT JUMPDEST POP JUMP JUMPDEST PUSH2 0x248B DUP2 PUSH2 0x20A2 JUMP JUMPDEST DUP2 EQ PUSH2 0x2496 JUMPI PUSH1 0x0 DUP1 REVERT JUMPDEST POP JUMP JUMPDEST PUSH2 0x24A2 DUP2 PUSH2 0x20AC JUMP JUMPDEST DUP2 EQ PUSH2 0x24AD JUMPI PUSH1 0x0 DUP1 REVERT JUMPDEST POP JUMP JUMPDEST PUSH2 0x24B9 DUP2 PUSH2 0x20F8 JUMP JUMPDEST DUP2 EQ PUSH2 0x24C4 JUMPI PUSH1 0x0 DUP1 REVERT JUMPDEST POP JUMP INVALID LOG2 PUSH5 0x6970667358 0x22 SLT KECCAK256 0x4A 0xAD DUP2 0xE6 GT 0x4E CALLDATACOPY 0x2C PUSH2 0x387F 0x4C GASLIMIT 0xD8 CALLCODE SWAP14 0xFB MOD TIMESTAMP 0xD1 SLT 0xC6 0x24 0xA7 0x26 PUSH26 0xCB7E82D5D9CF64736F6C63430008070033000000000000000000 "
				},
				"gasEstimates": {
					"creation": {
						"codeDepositCost": "1893800",
						"executionCost": "infinite",
						"totalCost": "infinite"
					},
					"external": {
						"Candidates(uint256)": "infinite",
						"DEFAULT_ADMIN_ROLE()": "446",
						"Elections(uint256)": "infinite",
						"INEC_EXEC_ROLE()": "441",
						"VOTER_ROLE()": "351",
						"Voters(uint256)": "infinite",
						"createCandidate(string,address,uint256)": "infinite",
						"createElection(address[],uint256,uint256)": "infinite",
						"createInecExec(address)": "infinite",
						"getRoleAdmin(bytes32)": "infinite",
						"grantRole(bytes32,address)": "infinite",
						"hasRole(bytes32,address)": "3185",
						"owner()": "2545",
						"party(uint256)": "infinite",
						"regVoter(address,uint256)": "80328",
						"renounceOwnership()": "30509",
						"renounceRole(bytes32,address)": "infinite",
						"retrieveCandidate(uint256)": "infinite",
						"revokeRole(bytes32,address)": "infinite",
						"supportsInterface(bytes4)": "751",
						"transferOwnership(address)": "30879"
					}
				},
				"methodIdentifiers": {
					"Candidates(uint256)": "290e9212",
					"DEFAULT_ADMIN_ROLE()": "a217fddf",
					"Elections(uint256)": "1e9598e2",
					"INEC_EXEC_ROLE()": "2e0d37bb",
					"VOTER_ROLE()": "a94015c8",
					"Voters(uint256)": "9c35d98b",
					"createCandidate(string,address,uint256)": "d59d2a58",
					"createElection(address[],uint256,uint256)": "4f05dba8",
					"createInecExec(address)": "dfd8459e",
					"getRoleAdmin(bytes32)": "248a9ca3",
					"grantRole(bytes32,address)": "2f2ff15d",
					"hasRole(bytes32,address)": "91d14854",
					"owner()": "8da5cb5b",
					"party(uint256)": "314fd68f",
					"regVoter(address,uint256)": "ef49f4aa",
					"renounceOwnership()": "715018a6",
					"renounceRole(bytes32,address)": "36568abe",
					"retrieveCandidate(uint256)": "9e5f0349",
					"revokeRole(bytes32,address)": "d547741f",
					"supportsInterface(bytes4)": "01ffc9a7",
					"transferOwnership(address)": "f2fde38b"
				}
			},
			"storageLayout": {
				"storage": [
					{
						"astId": 400,
						"contract": "contracts/Vote.sol:Vote",
						"label": "_owner",
						"offset": 0,
						"slot": "0",
						"type": "t_address"
					},
					{
						"astId": 24,
						"contract": "contracts/Vote.sol:Vote",
						"label": "_roles",
						"offset": 0,
						"slot": "1",
						"type": "t_mapping(t_bytes32,t_struct(RoleData)19_storage)"
					},
					{
						"astId": 800,
						"contract": "contracts/Vote.sol:Vote",
						"label": "voteFee",
						"offset": 0,
						"slot": "2",
						"type": "t_uint256"
					},
					{
						"astId": 802,
						"contract": "contracts/Vote.sol:Vote",
						"label": "candidateNum",
						"offset": 0,
						"slot": "3",
						"type": "t_uint256"
					},
					{
						"astId": 804,
						"contract": "contracts/Vote.sol:Vote",
						"label": "voterNum",
						"offset": 0,
						"slot": "4",
						"type": "t_uint256"
					},
					{
						"astId": 806,
						"contract": "contracts/Vote.sol:Vote",
						"label": "electionNum",
						"offset": 0,
						"slot": "5",
						"type": "t_uint256"
					},
					{
						"astId": 814,
						"contract": "contracts/Vote.sol:Vote",
						"label": "party",
						"offset": 0,
						"slot": "6",
						"type": "t_array(t_string_storage)dyn_storage"
					},
					{
						"astId": 859,
						"contract": "contracts/Vote.sol:Vote",
						"label": "Candidates",
						"offset": 0,
						"slot": "7",
						"type": "t_mapping(t_uint256,t_struct(candidate)831_storage)"
					},
					{
						"astId": 864,
						"contract": "contracts/Vote.sol:Vote",
						"label": "Voters",
						"offset": 0,
						"slot": "8",
						"type": "t_mapping(t_uint256,t_struct(voter)840_storage)"
					},
					{
						"astId": 869,
						"contract": "contracts/Vote.sol:Vote",
						"label": "Elections",
						"offset": 0,
						"slot": "9",
						"type": "t_mapping(t_uint256,t_struct(election)854_storage)"
					}
				],
				"types": {
					"t_address": {
						"encoding": "inplace",
						"label": "address",
						"numberOfBytes": "20"
					},
					"t_array(t_address)dyn_storage": {
						"base": "t_address",
						"encoding": "dynamic_array",
						"label": "address[]",
						"numberOfBytes": "32"
					},
					"t_array(t_string_storage)dyn_storage": {
						"base": "t_string_storage",
						"encoding": "dynamic_array",
						"label": "string[]",
						"numberOfBytes": "32"
					},
					"t_bool": {
						"encoding": "inplace",
						"label": "bool",
						"numberOfBytes": "1"
					},
					"t_bytes32": {
						"encoding": "inplace",
						"label": "bytes32",
						"numberOfBytes": "32"
					},
					"t_mapping(t_address,t_bool)": {
						"encoding": "mapping",
						"key": "t_address",
						"label": "mapping(address => bool)",
						"numberOfBytes": "32",
						"value": "t_bool"
					},
					"t_mapping(t_bytes32,t_struct(RoleData)19_storage)": {
						"encoding": "mapping",
						"key": "t_bytes32",
						"label": "mapping(bytes32 => struct AccessControl.RoleData)",
						"numberOfBytes": "32",
						"value": "t_struct(RoleData)19_storage"
					},
					"t_mapping(t_uint256,t_address)": {
						"encoding": "mapping",
						"key": "t_uint256",
						"label": "mapping(uint256 => address)",
						"numberOfBytes": "32",
						"value": "t_address"
					},
					"t_mapping(t_uint256,t_struct(candidate)831_storage)": {
						"encoding": "mapping",
						"key": "t_uint256",
						"label": "mapping(uint256 => struct Vote.candidate)",
						"numberOfBytes": "32",
						"value": "t_struct(candidate)831_storage"
					},
					"t_mapping(t_uint256,t_struct(election)854_storage)": {
						"encoding": "mapping",
						"key": "t_uint256",
						"label": "mapping(uint256 => struct Vote.election)",
						"numberOfBytes": "32",
						"value": "t_struct(election)854_storage"
					},
					"t_mapping(t_uint256,t_struct(voter)840_storage)": {
						"encoding": "mapping",
						"key": "t_uint256",
						"label": "mapping(uint256 => struct Vote.voter)",
						"numberOfBytes": "32",
						"value": "t_struct(voter)840_storage"
					},
					"t_string_storage": {
						"encoding": "bytes",
						"label": "string",
						"numberOfBytes": "32"
					},
					"t_struct(RoleData)19_storage": {
						"encoding": "inplace",
						"label": "struct AccessControl.RoleData",
						"members": [
							{
								"astId": 16,
								"contract": "contracts/Vote.sol:Vote",
								"label": "members",
								"offset": 0,
								"slot": "0",
								"type": "t_mapping(t_address,t_bool)"
							},
							{
								"astId": 18,
								"contract": "contracts/Vote.sol:Vote",
								"label": "adminRole",
								"offset": 0,
								"slot": "1",
								"type": "t_bytes32"
							}
						],
						"numberOfBytes": "64"
					},
					"t_struct(candidate)831_storage": {
						"encoding": "inplace",
						"label": "struct Vote.candidate",
						"members": [
							{
								"astId": 826,
								"contract": "contracts/Vote.sol:Vote",
								"label": "name",
								"offset": 0,
								"slot": "0",
								"type": "t_string_storage"
							},
							{
								"astId": 828,
								"contract": "contracts/Vote.sol:Vote",
								"label": "addr",
								"offset": 0,
								"slot": "1",
								"type": "t_address"
							},
							{
								"astId": 830,
								"contract": "contracts/Vote.sol:Vote",
								"label": "party",
								"offset": 0,
								"slot": "2",
								"type": "t_string_storage"
							}
						],
						"numberOfBytes": "96"
					},
					"t_struct(election)854_storage": {
						"encoding": "inplace",
						"label": "struct Vote.election",
						"members": [
							{
								"astId": 843,
								"contract": "contracts/Vote.sol:Vote",
								"label": "candidate",
								"offset": 0,
								"slot": "0",
								"type": "t_array(t_address)dyn_storage"
							},
							{
								"astId": 847,
								"contract": "contracts/Vote.sol:Vote",
								"label": "candidateVote",
								"offset": 0,
								"slot": "1",
								"type": "t_mapping(t_uint256,t_address)"
							},
							{
								"astId": 849,
								"contract": "contracts/Vote.sol:Vote",
								"label": "start",
								"offset": 0,
								"slot": "2",
								"type": "t_uint256"
							},
							{
								"astId": 851,
								"contract": "contracts/Vote.sol:Vote",
								"label": "duration",
								"offset": 0,
								"slot": "3",
								"type": "t_uint256"
							},
							{
								"astId": 853,
								"contract": "contracts/Vote.sol:Vote",
								"label": "hasEnded",
								"offset": 0,
								"slot": "4",
								"type": "t_bool"
							}
						],
						"numberOfBytes": "160"
					},
					"t_struct(voter)840_storage": {
						"encoding": "inplace",
						"label": "struct Vote.voter",
						"members": [
							{
								"astId": 833,
								"contract": "contracts/Vote.sol:Vote",
								"label": "addr",
								"offset": 0,
								"slot": "0",
								"type": "t_address"
							},
							{
								"astId": 835,
								"contract": "contracts/Vote.sol:Vote",
								"label": "nin",
								"offset": 0,
								"slot": "1",
								"type": "t_uint256"
							},
							{
								"astId": 837,
								"contract": "contracts/Vote.sol:Vote",
								"label": "partyNum",
								"offset": 0,
								"slot": "2",
								"type": "t_uint256"
							},
							{
								"astId": 839,
								"contract": "contracts/Vote.sol:Vote",
								"label": "hasVoted",
								"offset": 0,
								"slot": "3",
								"type": "t_bool"
							}
						],
						"numberOfBytes": "128"
					},
					"t_uint256": {
						"encoding": "inplace",
						"label": "uint256",
						"numberOfBytes": "32"
					}
				}
			},
			"userdoc": {
				"kind": "user",
				"methods": {},
				"version": 1
			}
		}
	}
}