{
	"contracts/Vote.sol": {
		"Vote": {
			"abi": [
				{
					"inputs": [],
					"stateMutability": "nonpayable",
					"type": "constructor"
				},
				{
					"anonymous": false,
					"inputs": [
						{
							"indexed": true,
							"internalType": "address",
							"name": "previousOwner",
							"type": "address"
						},
						{
							"indexed": true,
							"internalType": "address",
							"name": "newOwner",
							"type": "address"
						}
					],
					"name": "OwnershipTransferred",
					"type": "event"
				},
				{
					"anonymous": false,
					"inputs": [
						{
							"indexed": true,
							"internalType": "bytes32",
							"name": "role",
							"type": "bytes32"
						},
						{
							"indexed": true,
							"internalType": "bytes32",
							"name": "previousAdminRole",
							"type": "bytes32"
						},
						{
							"indexed": true,
							"internalType": "bytes32",
							"name": "newAdminRole",
							"type": "bytes32"
						}
					],
					"name": "RoleAdminChanged",
					"type": "event"
				},
				{
					"anonymous": false,
					"inputs": [
						{
							"indexed": true,
							"internalType": "bytes32",
							"name": "role",
							"type": "bytes32"
						},
						{
							"indexed": true,
							"internalType": "address",
							"name": "account",
							"type": "address"
						},
						{
							"indexed": true,
							"internalType": "address",
							"name": "sender",
							"type": "address"
						}
					],
					"name": "RoleGranted",
					"type": "event"
				},
				{
					"anonymous": false,
					"inputs": [
						{
							"indexed": true,
							"internalType": "bytes32",
							"name": "role",
							"type": "bytes32"
						},
						{
							"indexed": true,
							"internalType": "address",
							"name": "account",
							"type": "address"
						},
						{
							"indexed": true,
							"internalType": "address",
							"name": "sender",
							"type": "address"
						}
					],
					"name": "RoleRevoked",
					"type": "event"
				},
				{
					"inputs": [
						{
							"internalType": "uint256",
							"name": "",
							"type": "uint256"
						}
					],
					"name": "Candidates",
					"outputs": [
						{
							"internalType": "string",
							"name": "name",
							"type": "string"
						},
						{
							"internalType": "address",
							"name": "addr",
							"type": "address"
						},
						{
							"internalType": "string",
							"name": "party",
							"type": "string"
						}
					],
					"stateMutability": "view",
					"type": "function"
				},
				{
					"inputs": [],
					"name": "DEFAULT_ADMIN_ROLE",
					"outputs": [
						{
							"internalType": "bytes32",
							"name": "",
							"type": "bytes32"
						}
					],
					"stateMutability": "view",
					"type": "function"
				},
				{
					"inputs": [],
					"name": "INEC_EXEC_ROLE",
					"outputs": [
						{
							"internalType": "bytes32",
							"name": "",
							"type": "bytes32"
						}
					],
					"stateMutability": "view",
					"type": "function"
				},
				{
					"inputs": [],
					"name": "VOTER_ROLE",
					"outputs": [
						{
							"internalType": "bytes32",
							"name": "",
							"type": "bytes32"
						}
					],
					"stateMutability": "view",
					"type": "function"
				},
				{
					"inputs": [
						{
							"internalType": "uint256",
							"name": "",
							"type": "uint256"
						}
					],
					"name": "Voters",
					"outputs": [
						{
							"internalType": "address",
							"name": "addr",
							"type": "address"
						},
						{
							"internalType": "uint256",
							"name": "nin",
							"type": "uint256"
						},
						{
							"internalType": "uint256",
							"name": "partyNum",
							"type": "uint256"
						},
						{
							"internalType": "bool",
							"name": "hasVoted",
							"type": "bool"
						}
					],
					"stateMutability": "view",
					"type": "function"
				},
				{
					"inputs": [
						{
							"internalType": "uint256",
							"name": "partyID",
							"type": "uint256"
						},
						{
							"internalType": "uint256",
							"name": "electionID",
							"type": "uint256"
						}
					],
					"name": "Voting",
					"outputs": [],
					"stateMutability": "nonpayable",
					"type": "function"
				},
				{
					"inputs": [
						{
							"internalType": "string",
							"name": "name",
							"type": "string"
						},
						{
							"internalType": "address",
							"name": "candAddress",
							"type": "address"
						},
						{
							"internalType": "uint256",
							"name": "partyNum",
							"type": "uint256"
						}
					],
					"name": "createCandidate",
					"outputs": [],
					"stateMutability": "nonpayable",
					"type": "function"
				},
				{
					"inputs": [
						{
							"internalType": "address[]",
							"name": "_candidateNum",
							"type": "address[]"
						},
						{
							"internalType": "uint256",
							"name": "_date",
							"type": "uint256"
						},
						{
							"internalType": "uint256",
							"name": "_duration",
							"type": "uint256"
						}
					],
					"name": "createElection",
					"outputs": [],
					"stateMutability": "nonpayable",
					"type": "function"
				},
				{
					"inputs": [
						{
							"internalType": "address",
							"name": "_account",
							"type": "address"
						}
					],
					"name": "createInecExec",
					"outputs": [],
					"stateMutability": "nonpayable",
					"type": "function"
				},
				{
					"inputs": [
						{
							"internalType": "uint256",
							"name": "num",
							"type": "uint256"
						}
					],
					"name": "getElection",
					"outputs": [
						{
							"components": [
								{
									"internalType": "address[]",
									"name": "candidate",
									"type": "address[]"
								},
								{
									"internalType": "uint256[]",
									"name": "candidateVote",
									"type": "uint256[]"
								},
								{
									"internalType": "uint256",
									"name": "start",
									"type": "uint256"
								},
								{
									"internalType": "uint256",
									"name": "duration",
									"type": "uint256"
								},
								{
									"internalType": "bool",
									"name": "hasEnded",
									"type": "bool"
								}
							],
							"internalType": "struct Vote.election",
							"name": "",
							"type": "tuple"
						}
					],
					"stateMutability": "view",
					"type": "function"
				},
				{
					"inputs": [
						{
							"internalType": "bytes32",
							"name": "role",
							"type": "bytes32"
						}
					],
					"name": "getRoleAdmin",
					"outputs": [
						{
							"internalType": "bytes32",
							"name": "",
							"type": "bytes32"
						}
					],
					"stateMutability": "view",
					"type": "function"
				},
				{
					"inputs": [
						{
							"internalType": "bytes32",
							"name": "role",
							"type": "bytes32"
						},
						{
							"internalType": "address",
							"name": "account",
							"type": "address"
						}
					],
					"name": "grantRole",
					"outputs": [],
					"stateMutability": "nonpayable",
					"type": "function"
				},
				{
					"inputs": [
						{
							"internalType": "bytes32",
							"name": "role",
							"type": "bytes32"
						},
						{
							"internalType": "address",
							"name": "account",
							"type": "address"
						}
					],
					"name": "hasRole",
					"outputs": [
						{
							"internalType": "bool",
							"name": "",
							"type": "bool"
						}
					],
					"stateMutability": "view",
					"type": "function"
				},
				{
					"inputs": [],
					"name": "owner",
					"outputs": [
						{
							"internalType": "address",
							"name": "",
							"type": "address"
						}
					],
					"stateMutability": "view",
					"type": "function"
				},
				{
					"inputs": [
						{
							"internalType": "uint256",
							"name": "",
							"type": "uint256"
						}
					],
					"name": "party",
					"outputs": [
						{
							"internalType": "string",
							"name": "",
							"type": "string"
						}
					],
					"stateMutability": "view",
					"type": "function"
				},
				{
					"inputs": [
						{
							"internalType": "uint256",
							"name": "_nin",
							"type": "uint256"
						}
					],
					"name": "regVoter",
					"outputs": [],
					"stateMutability": "nonpayable",
					"type": "function"
				},
				{
					"inputs": [],
					"name": "renounceOwnership",
					"outputs": [],
					"stateMutability": "nonpayable",
					"type": "function"
				},
				{
					"inputs": [
						{
							"internalType": "bytes32",
							"name": "role",
							"type": "bytes32"
						},
						{
							"internalType": "address",
							"name": "account",
							"type": "address"
						}
					],
					"name": "renounceRole",
					"outputs": [],
					"stateMutability": "nonpayable",
					"type": "function"
				},
				{
					"inputs": [
						{
							"internalType": "uint256",
							"name": "num",
							"type": "uint256"
						}
					],
					"name": "retrieveCandidate",
					"outputs": [
						{
							"components": [
								{
									"internalType": "string",
									"name": "name",
									"type": "string"
								},
								{
									"internalType": "address",
									"name": "addr",
									"type": "address"
								},
								{
									"internalType": "string",
									"name": "party",
									"type": "string"
								}
							],
							"internalType": "struct Vote.candidate",
							"name": "",
							"type": "tuple"
						}
					],
					"stateMutability": "view",
					"type": "function"
				},
				{
					"inputs": [
						{
							"internalType": "bytes32",
							"name": "role",
							"type": "bytes32"
						},
						{
							"internalType": "address",
							"name": "account",
							"type": "address"
						}
					],
					"name": "revokeRole",
					"outputs": [],
					"stateMutability": "nonpayable",
					"type": "function"
				},
				{
					"inputs": [
						{
							"internalType": "bytes4",
							"name": "interfaceId",
							"type": "bytes4"
						}
					],
					"name": "supportsInterface",
					"outputs": [
						{
							"internalType": "bool",
							"name": "",
							"type": "bool"
						}
					],
					"stateMutability": "view",
					"type": "function"
				},
				{
					"inputs": [
						{
							"internalType": "address",
							"name": "newOwner",
							"type": "address"
						}
					],
					"name": "transferOwnership",
					"outputs": [],
					"stateMutability": "nonpayable",
					"type": "function"
				}
			],
			"devdoc": {
				"custom:dev-run-script": "./scripts/deploy_with_ethers.ts",
				"details": "Store & retrieve value in a variable",
				"kind": "dev",
				"methods": {
					"createCandidate(string,address,uint256)": {
						"details": "Store value in variable",
						"params": {
							"candAddress": "value for candidate Address",
							"name": "value for candidate name",
							"partyNum": "value for candidate party"
						}
					},
					"createElection(address[],uint256,uint256)": {
						"details": "registers a voter",
						"params": {
							"_candidateNum": "is an arrat of candidates, _nin is the voters identifier'"
						}
					},
					"createInecExec(address)": {
						"details": "Grant INEC executive role to an address ",
						"params": {
							"_account": "value for the role'"
						}
					},
					"getElection(uint256)": {
						"details": "Return value ",
						"returns": {
							"_0": "value of 'struct'"
						}
					},
					"getRoleAdmin(bytes32)": {
						"details": "Returns the admin role that controls `role`. See {grantRole} and {revokeRole}. To change a role's admin, use {_setRoleAdmin}."
					},
					"grantRole(bytes32,address)": {
						"details": "Grants `role` to `account`. If `account` had not been already granted `role`, emits a {RoleGranted} event. Requirements: - the caller must have ``role``'s admin role. May emit a {RoleGranted} event."
					},
					"hasRole(bytes32,address)": {
						"details": "Returns `true` if `account` has been granted `role`."
					},
					"owner()": {
						"details": "Returns the address of the current owner."
					},
					"regVoter(uint256)": {
						"details": "registers a voter",
						"params": {
							"_nin": "is the voters identifier'"
						}
					},
					"renounceOwnership()": {
						"details": "Leaves the contract without owner. It will not be possible to call `onlyOwner` functions anymore. Can only be called by the current owner. NOTE: Renouncing ownership will leave the contract without an owner, thereby removing any functionality that is only available to the owner."
					},
					"renounceRole(bytes32,address)": {
						"details": "Revokes `role` from the calling account. Roles are often managed via {grantRole} and {revokeRole}: this function's purpose is to provide a mechanism for accounts to lose their privileges if they are compromised (such as when a trusted device is misplaced). If the calling account had been revoked `role`, emits a {RoleRevoked} event. Requirements: - the caller must be `account`. May emit a {RoleRevoked} event."
					},
					"retrieveCandidate(uint256)": {
						"details": "Return value ",
						"returns": {
							"_0": "value of 'struct'"
						}
					},
					"revokeRole(bytes32,address)": {
						"details": "Revokes `role` from `account`. If `account` had been granted `role`, emits a {RoleRevoked} event. Requirements: - the caller must have ``role``'s admin role. May emit a {RoleRevoked} event."
					},
					"supportsInterface(bytes4)": {
						"details": "See {IERC165-supportsInterface}."
					},
					"transferOwnership(address)": {
						"details": "Transfers ownership of the contract to a new account (`newOwner`). Can only be called by the current owner."
					}
				},
				"title": "Storage",
				"version": 1
			},
			"evm": {
				"assembly": "    /* \"contracts/Vote.sol\":311:3967  contract Vote is Ownable, AccessControl {... */\n  mstore(0x40, 0x80)\n    /* \"contracts/Vote.sol\":457:510  string [] public party = [\"APC\", \"PDP\", \"LP\", \"NNPP\"] */\n  mload(0x40)\n  dup1\n  0x80\n  add\n  0x40\n  mstore\n  dup1\n  mload(0x40)\n  dup1\n  0x40\n  add\n  0x40\n  mstore\n  dup1\n  0x03\n  dup2\n  mstore\n  0x20\n  add\n  0x4150430000000000000000000000000000000000000000000000000000000000\n  dup2\n  mstore\n  pop\n  dup2\n  mstore\n  0x20\n  add\n  mload(0x40)\n  dup1\n  0x40\n  add\n  0x40\n  mstore\n  dup1\n  0x03\n  dup2\n  mstore\n  0x20\n  add\n  0x5044500000000000000000000000000000000000000000000000000000000000\n  dup2\n  mstore\n  pop\n  dup2\n  mstore\n  0x20\n  add\n  mload(0x40)\n  dup1\n  0x40\n  add\n  0x40\n  mstore\n  dup1\n  0x02\n  dup2\n  mstore\n  0x20\n  add\n  0x4c50000000000000000000000000000000000000000000000000000000000000\n  dup2\n  mstore\n  pop\n  dup2\n  mstore\n  0x20\n  add\n  mload(0x40)\n  dup1\n  0x40\n  add\n  0x40\n  mstore\n  dup1\n  0x04\n  dup2\n  mstore\n  0x20\n  add\n  0x4e4e505000000000000000000000000000000000000000000000000000000000\n  dup2\n  mstore\n  pop\n  dup2\n  mstore\n  pop\n  0x06\n  swap1\n  0x04\n  tag_1\n  swap3\n  swap2\n  swap1\n  tag_2\n  jump\t// in\ntag_1:\n  pop\n    /* \"contracts/Vote.sol\":1735:1928  constructor() {... */\n  callvalue\n  dup1\n  iszero\n  tag_3\n  jumpi\n  0x00\n  dup1\n  revert\ntag_3:\n  pop\n    /* \"@openzeppelin/contracts/access/Ownable.sol\":936:968  _transferOwnership(_msgSender()) */\n  tag_7\n    /* \"@openzeppelin/contracts/access/Ownable.sol\":955:967  _msgSender() */\n  tag_8\n    /* \"@openzeppelin/contracts/access/Ownable.sol\":955:965  _msgSender */\n  shl(0x20, tag_9)\n    /* \"@openzeppelin/contracts/access/Ownable.sol\":955:967  _msgSender() */\n  0x20\n  shr\n  jump\t// in\ntag_8:\n    /* \"@openzeppelin/contracts/access/Ownable.sol\":936:954  _transferOwnership */\n  shl(0x20, tag_10)\n    /* \"@openzeppelin/contracts/access/Ownable.sol\":936:968  _transferOwnership(_msgSender()) */\n  0x20\n  shr\n  jump\t// in\ntag_7:\n    /* \"contracts/Vote.sol\":1879:1921  _setupRole(DEFAULT_ADMIN_ROLE, msg.sender) */\n  tag_12\n    /* \"@openzeppelin/contracts/access/AccessControl.sol\":2072:2076  0x00 */\n  0x00\n    /* \"contracts/Vote.sol\":1890:1908  DEFAULT_ADMIN_ROLE */\n  dup1\n  shl\n    /* \"contracts/Vote.sol\":1910:1920  msg.sender */\n  caller\n    /* \"contracts/Vote.sol\":1879:1889  _setupRole */\n  shl(0x20, tag_13)\n    /* \"contracts/Vote.sol\":1879:1921  _setupRole(DEFAULT_ADMIN_ROLE, msg.sender) */\n  0x20\n  shr\n  jump\t// in\ntag_12:\n    /* \"contracts/Vote.sol\":311:3967  contract Vote is Ownable, AccessControl {... */\n  jump(tag_14)\n    /* \"@openzeppelin/contracts/utils/Context.sol\":640:736  function _msgSender() internal view virtual returns (address) {... */\ntag_9:\n    /* \"@openzeppelin/contracts/utils/Context.sol\":693:700  address */\n  0x00\n    /* \"@openzeppelin/contracts/utils/Context.sol\":719:729  msg.sender */\n  caller\n    /* \"@openzeppelin/contracts/utils/Context.sol\":712:729  return msg.sender */\n  swap1\n  pop\n    /* \"@openzeppelin/contracts/utils/Context.sol\":640:736  function _msgSender() internal view virtual returns (address) {... */\n  swap1\n  jump\t// out\n    /* \"@openzeppelin/contracts/access/Ownable.sol\":2433:2620  function _transferOwnership(address newOwner) internal virtual {... */\ntag_10:\n    /* \"@openzeppelin/contracts/access/Ownable.sol\":2506:2522  address oldOwner */\n  0x00\n    /* \"@openzeppelin/contracts/access/Ownable.sol\":2525:2531  _owner */\n  dup1\n  0x00\n  swap1\n  sload\n  swap1\n  0x0100\n  exp\n  swap1\n  div\n  0xffffffffffffffffffffffffffffffffffffffff\n  and\n    /* \"@openzeppelin/contracts/access/Ownable.sol\":2506:2531  address oldOwner = _owner */\n  swap1\n  pop\n    /* \"@openzeppelin/contracts/access/Ownable.sol\":2550:2558  newOwner */\n  dup2\n    /* \"@openzeppelin/contracts/access/Ownable.sol\":2541:2547  _owner */\n  0x00\n  dup1\n    /* \"@openzeppelin/contracts/access/Ownable.sol\":2541:2558  _owner = newOwner */\n  0x0100\n  exp\n  dup2\n  sload\n  dup2\n  0xffffffffffffffffffffffffffffffffffffffff\n  mul\n  not\n  and\n  swap1\n  dup4\n  0xffffffffffffffffffffffffffffffffffffffff\n  and\n  mul\n  or\n  swap1\n  sstore\n  pop\n    /* \"@openzeppelin/contracts/access/Ownable.sol\":2604:2612  newOwner */\n  dup2\n    /* \"@openzeppelin/contracts/access/Ownable.sol\":2573:2613  OwnershipTransferred(oldOwner, newOwner) */\n  0xffffffffffffffffffffffffffffffffffffffff\n  and\n    /* \"@openzeppelin/contracts/access/Ownable.sol\":2594:2602  oldOwner */\n  dup2\n    /* \"@openzeppelin/contracts/access/Ownable.sol\":2573:2613  OwnershipTransferred(oldOwner, newOwner) */\n  0xffffffffffffffffffffffffffffffffffffffff\n  and\n  0x8be0079c531659141344cd1fd0a4f28419497f9722a3daafe3b4186f6b6457e0\n  mload(0x40)\n  mload(0x40)\n  dup1\n  swap2\n  sub\n  swap1\n  log3\n    /* \"@openzeppelin/contracts/access/Ownable.sol\":2496:2620  {... */\n  pop\n    /* \"@openzeppelin/contracts/access/Ownable.sol\":2433:2620  function _transferOwnership(address newOwner) internal virtual {... */\n  pop\n  jump\t// out\n    /* \"@openzeppelin/contracts/access/AccessControl.sol\":6824:6934  function _setupRole(bytes32 role, address account) internal virtual {... */\ntag_13:\n    /* \"@openzeppelin/contracts/access/AccessControl.sol\":6902:6927  _grantRole(role, account) */\n  tag_18\n    /* \"@openzeppelin/contracts/access/AccessControl.sol\":6913:6917  role */\n  dup3\n    /* \"@openzeppelin/contracts/access/AccessControl.sol\":6919:6926  account */\n  dup3\n    /* \"@openzeppelin/contracts/access/AccessControl.sol\":6902:6912  _grantRole */\n  shl(0x20, tag_19)\n    /* \"@openzeppelin/contracts/access/AccessControl.sol\":6902:6927  _grantRole(role, account) */\n  0x20\n  shr\n  jump\t// in\ntag_18:\n    /* \"@openzeppelin/contracts/access/AccessControl.sol\":6824:6934  function _setupRole(bytes32 role, address account) internal virtual {... */\n  pop\n  pop\n  jump\t// out\n    /* \"@openzeppelin/contracts/access/AccessControl.sol\":7474:7707  function _grantRole(bytes32 role, address account) internal virtual {... */\ntag_19:\n    /* \"@openzeppelin/contracts/access/AccessControl.sol\":7557:7579  hasRole(role, account) */\n  tag_21\n    /* \"@openzeppelin/contracts/access/AccessControl.sol\":7565:7569  role */\n  dup3\n    /* \"@openzeppelin/contracts/access/AccessControl.sol\":7571:7578  account */\n  dup3\n    /* \"@openzeppelin/contracts/access/AccessControl.sol\":7557:7564  hasRole */\n  shl(0x20, tag_22)\n    /* \"@openzeppelin/contracts/access/AccessControl.sol\":7557:7579  hasRole(role, account) */\n  0x20\n  shr\n  jump\t// in\ntag_21:\n    /* \"@openzeppelin/contracts/access/AccessControl.sol\":7552:7701  if (!hasRole(role, account)) {... */\n  tag_23\n  jumpi\n    /* \"@openzeppelin/contracts/access/AccessControl.sol\":7627:7631  true */\n  0x01\n    /* \"@openzeppelin/contracts/access/AccessControl.sol\":7595:7601  _roles */\n  dup1\n    /* \"@openzeppelin/contracts/access/AccessControl.sol\":7595:7607  _roles[role] */\n  0x00\n    /* \"@openzeppelin/contracts/access/AccessControl.sol\":7602:7606  role */\n  dup5\n    /* \"@openzeppelin/contracts/access/AccessControl.sol\":7595:7607  _roles[role] */\n  dup2\n  mstore\n  0x20\n  add\n  swap1\n  dup2\n  mstore\n  0x20\n  add\n  0x00\n  keccak256\n    /* \"@openzeppelin/contracts/access/AccessControl.sol\":7595:7615  _roles[role].members */\n  0x00\n  add\n    /* \"@openzeppelin/contracts/access/AccessControl.sol\":7595:7624  _roles[role].members[account] */\n  0x00\n    /* \"@openzeppelin/contracts/access/AccessControl.sol\":7616:7623  account */\n  dup4\n    /* \"@openzeppelin/contracts/access/AccessControl.sol\":7595:7624  _roles[role].members[account] */\n  0xffffffffffffffffffffffffffffffffffffffff\n  and\n  0xffffffffffffffffffffffffffffffffffffffff\n  and\n  dup2\n  mstore\n  0x20\n  add\n  swap1\n  dup2\n  mstore\n  0x20\n  add\n  0x00\n  keccak256\n  0x00\n    /* \"@openzeppelin/contracts/access/AccessControl.sol\":7595:7631  _roles[role].members[account] = true */\n  0x0100\n  exp\n  dup2\n  sload\n  dup2\n  0xff\n  mul\n  not\n  and\n  swap1\n  dup4\n  iszero\n  iszero\n  mul\n  or\n  swap1\n  sstore\n  pop\n    /* \"@openzeppelin/contracts/access/AccessControl.sol\":7677:7689  _msgSender() */\n  tag_24\n    /* \"@openzeppelin/contracts/access/AccessControl.sol\":7677:7687  _msgSender */\n  shl(0x20, tag_9)\n    /* \"@openzeppelin/contracts/access/AccessControl.sol\":7677:7689  _msgSender() */\n  0x20\n  shr\n  jump\t// in\ntag_24:\n    /* \"@openzeppelin/contracts/access/AccessControl.sol\":7650:7690  RoleGranted(role, account, _msgSender()) */\n  0xffffffffffffffffffffffffffffffffffffffff\n  and\n    /* \"@openzeppelin/contracts/access/AccessControl.sol\":7668:7675  account */\n  dup2\n    /* \"@openzeppelin/contracts/access/AccessControl.sol\":7650:7690  RoleGranted(role, account, _msgSender()) */\n  0xffffffffffffffffffffffffffffffffffffffff\n  and\n    /* \"@openzeppelin/contracts/access/AccessControl.sol\":7662:7666  role */\n  dup4\n    /* \"@openzeppelin/contracts/access/AccessControl.sol\":7650:7690  RoleGranted(role, account, _msgSender()) */\n  0x2f8788117e7eff1d82e926ec794901d17c78024a50270940304540a733656f0d\n  mload(0x40)\n  mload(0x40)\n  dup1\n  swap2\n  sub\n  swap1\n  log4\n    /* \"@openzeppelin/contracts/access/AccessControl.sol\":7552:7701  if (!hasRole(role, account)) {... */\ntag_23:\n    /* \"@openzeppelin/contracts/access/AccessControl.sol\":7474:7707  function _grantRole(bytes32 role, address account) internal virtual {... */\n  pop\n  pop\n  jump\t// out\n    /* \"@openzeppelin/contracts/access/AccessControl.sol\":2895:3040  function hasRole(bytes32 role, address account) public view virtual override returns (bool) {... */\ntag_22:\n    /* \"@openzeppelin/contracts/access/AccessControl.sol\":2981:2985  bool */\n  0x00\n    /* \"@openzeppelin/contracts/access/AccessControl.sol\":3004:3010  _roles */\n  0x01\n    /* \"@openzeppelin/contracts/access/AccessControl.sol\":3004:3016  _roles[role] */\n  0x00\n    /* \"@openzeppelin/contracts/access/AccessControl.sol\":3011:3015  role */\n  dup5\n    /* \"@openzeppelin/contracts/access/AccessControl.sol\":3004:3016  _roles[role] */\n  dup2\n  mstore\n  0x20\n  add\n  swap1\n  dup2\n  mstore\n  0x20\n  add\n  0x00\n  keccak256\n    /* \"@openzeppelin/contracts/access/AccessControl.sol\":3004:3024  _roles[role].members */\n  0x00\n  add\n    /* \"@openzeppelin/contracts/access/AccessControl.sol\":3004:3033  _roles[role].members[account] */\n  0x00\n    /* \"@openzeppelin/contracts/access/AccessControl.sol\":3025:3032  account */\n  dup4\n    /* \"@openzeppelin/contracts/access/AccessControl.sol\":3004:3033  _roles[role].members[account] */\n  0xffffffffffffffffffffffffffffffffffffffff\n  and\n  0xffffffffffffffffffffffffffffffffffffffff\n  and\n  dup2\n  mstore\n  0x20\n  add\n  swap1\n  dup2\n  mstore\n  0x20\n  add\n  0x00\n  keccak256\n  0x00\n  swap1\n  sload\n  swap1\n  0x0100\n  exp\n  swap1\n  div\n  0xff\n  and\n    /* \"@openzeppelin/contracts/access/AccessControl.sol\":2997:3033  return _roles[role].members[account] */\n  swap1\n  pop\n    /* \"@openzeppelin/contracts/access/AccessControl.sol\":2895:3040  function hasRole(bytes32 role, address account) public view virtual override returns (bool) {... */\n  swap3\n  swap2\n  pop\n  pop\n  jump\t// out\n    /* \"contracts/Vote.sol\":311:3967  contract Vote is Ownable, AccessControl {... */\ntag_2:\n  dup3\n  dup1\n  sload\n  dup3\n  dup3\n  sstore\n  swap1\n  0x00\n  mstore\n  keccak256(0x00, 0x20)\n  swap1\n  dup2\n  add\n  swap3\n  dup3\n  iszero\n  tag_26\n  jumpi\n  swap2\n  0x20\n  mul\n  dup3\n  add\ntag_27:\n  dup3\n  dup2\n  gt\n  iszero\n  tag_28\n  jumpi\n  dup3\n  mload\n  dup3\n  swap1\n  dup1\n  mload\n  swap1\n  0x20\n  add\n  swap1\n  tag_29\n  swap3\n  swap2\n  swap1\n  tag_30\n  jump\t// in\ntag_29:\n  pop\n  swap2\n  0x20\n  add\n  swap2\n  swap1\n  0x01\n  add\n  swap1\n  jump(tag_27)\ntag_28:\ntag_26:\n  pop\n  swap1\n  pop\n  tag_31\n  swap2\n  swap1\n  tag_32\n  jump\t// in\ntag_31:\n  pop\n  swap1\n  jump\t// out\ntag_30:\n  dup3\n  dup1\n  sload\n  tag_33\n  swap1\n  tag_34\n  jump\t// in\ntag_33:\n  swap1\n  0x00\n  mstore\n  keccak256(0x00, 0x20)\n  swap1\n  0x1f\n  add\n  0x20\n  swap1\n  div\n  dup2\n  add\n  swap3\n  dup3\n  tag_36\n  jumpi\n  0x00\n  dup6\n  sstore\n  jump(tag_35)\ntag_36:\n  dup3\n  0x1f\n  lt\n  tag_37\n  jumpi\n  dup1\n  mload\n  not(0xff)\n  and\n  dup4\n  dup1\n  add\n  or\n  dup6\n  sstore\n  jump(tag_35)\ntag_37:\n  dup3\n  dup1\n  add\n  0x01\n  add\n  dup6\n  sstore\n  dup3\n  iszero\n  tag_35\n  jumpi\n  swap2\n  dup3\n  add\ntag_38:\n  dup3\n  dup2\n  gt\n  iszero\n  tag_39\n  jumpi\n  dup3\n  mload\n  dup3\n  sstore\n  swap2\n  0x20\n  add\n  swap2\n  swap1\n  0x01\n  add\n  swap1\n  jump(tag_38)\ntag_39:\ntag_35:\n  pop\n  swap1\n  pop\n  tag_40\n  swap2\n  swap1\n  tag_41\n  jump\t// in\ntag_40:\n  pop\n  swap1\n  jump\t// out\ntag_32:\ntag_42:\n  dup1\n  dup3\n  gt\n  iszero\n  tag_43\n  jumpi\n  0x00\n  dup2\n  dup2\n  tag_44\n  swap2\n  swap1\n  tag_45\n  jump\t// in\ntag_44:\n  pop\n  0x01\n  add\n  jump(tag_42)\ntag_43:\n  pop\n  swap1\n  jump\t// out\ntag_41:\ntag_46:\n  dup1\n  dup3\n  gt\n  iszero\n  tag_47\n  jumpi\n  0x00\n  dup2\n  0x00\n  swap1\n  sstore\n  pop\n  0x01\n  add\n  jump(tag_46)\ntag_47:\n  pop\n  swap1\n  jump\t// out\ntag_45:\n  pop\n  dup1\n  sload\n  tag_48\n  swap1\n  tag_34\n  jump\t// in\ntag_48:\n  0x00\n  dup3\n  sstore\n  dup1\n  0x1f\n  lt\n  tag_50\n  jumpi\n  pop\n  jump(tag_49)\ntag_50:\n  0x1f\n  add\n  0x20\n  swap1\n  div\n  swap1\n  0x00\n  mstore\n  keccak256(0x00, 0x20)\n  swap1\n  dup2\n  add\n  swap1\n  tag_51\n  swap2\n  swap1\n  tag_41\n  jump\t// in\ntag_51:\ntag_49:\n  pop\n  jump\t// out\n    /* \"#utility.yul\":7:327   */\ntag_34:\n    /* \"#utility.yul\":51:57   */\n  0x00\n    /* \"#utility.yul\":88:89   */\n  0x02\n    /* \"#utility.yul\":82:86   */\n  dup3\n    /* \"#utility.yul\":78:90   */\n  div\n    /* \"#utility.yul\":68:90   */\n  swap1\n  pop\n    /* \"#utility.yul\":135:136   */\n  0x01\n    /* \"#utility.yul\":129:133   */\n  dup3\n    /* \"#utility.yul\":125:137   */\n  and\n    /* \"#utility.yul\":156:174   */\n  dup1\n    /* \"#utility.yul\":146:227   */\n  tag_54\n  jumpi\n    /* \"#utility.yul\":212:216   */\n  0x7f\n    /* \"#utility.yul\":204:210   */\n  dup3\n    /* \"#utility.yul\":200:217   */\n  and\n    /* \"#utility.yul\":190:217   */\n  swap2\n  pop\n    /* \"#utility.yul\":146:227   */\ntag_54:\n    /* \"#utility.yul\":274:276   */\n  0x20\n    /* \"#utility.yul\":266:272   */\n  dup3\n    /* \"#utility.yul\":263:277   */\n  lt\n    /* \"#utility.yul\":243:261   */\n  dup2\n    /* \"#utility.yul\":240:278   */\n  eq\n    /* \"#utility.yul\":237:321   */\n  iszero\n  tag_55\n  jumpi\n    /* \"#utility.yul\":293:311   */\n  tag_56\n  tag_57\n  jump\t// in\ntag_56:\n    /* \"#utility.yul\":237:321   */\ntag_55:\n    /* \"#utility.yul\":58:327   */\n  pop\n    /* \"#utility.yul\":7:327   */\n  swap2\n  swap1\n  pop\n  jump\t// out\n    /* \"#utility.yul\":333:513   */\ntag_57:\n    /* \"#utility.yul\":381:458   */\n  0x4e487b7100000000000000000000000000000000000000000000000000000000\n    /* \"#utility.yul\":378:379   */\n  0x00\n    /* \"#utility.yul\":371:459   */\n  mstore\n    /* \"#utility.yul\":478:482   */\n  0x22\n    /* \"#utility.yul\":475:476   */\n  0x04\n    /* \"#utility.yul\":468:483   */\n  mstore\n    /* \"#utility.yul\":502:506   */\n  0x24\n    /* \"#utility.yul\":499:500   */\n  0x00\n    /* \"#utility.yul\":492:507   */\n  revert\n    /* \"contracts/Vote.sol\":311:3967  contract Vote is Ownable, AccessControl {... */\ntag_14:\n  dataSize(sub_0)\n  dup1\n  dataOffset(sub_0)\n  0x00\n  codecopy\n  0x00\n  return\nstop\n\nsub_0: assembly {\n        /* \"contracts/Vote.sol\":311:3967  contract Vote is Ownable, AccessControl {... */\n      mstore(0x40, 0x80)\n      callvalue\n      dup1\n      iszero\n      tag_1\n      jumpi\n      0x00\n      dup1\n      revert\n    tag_1:\n      pop\n      jumpi(tag_2, lt(calldatasize, 0x04))\n      shr(0xe0, calldataload(0x00))\n      dup1\n      0x91d14854\n      gt\n      tag_25\n      jumpi\n      dup1\n      0xa94015c8\n      gt\n      tag_26\n      jumpi\n      dup1\n      0xa94015c8\n      eq\n      tag_19\n      jumpi\n      dup1\n      0xd547741f\n      eq\n      tag_20\n      jumpi\n      dup1\n      0xd59d2a58\n      eq\n      tag_21\n      jumpi\n      dup1\n      0xd9d55ba0\n      eq\n      tag_22\n      jumpi\n      dup1\n      0xdfd8459e\n      eq\n      tag_23\n      jumpi\n      dup1\n      0xf2fde38b\n      eq\n      tag_24\n      jumpi\n      jump(tag_2)\n    tag_26:\n      dup1\n      0x91d14854\n      eq\n      tag_14\n      jumpi\n      dup1\n      0x9c35d98b\n      eq\n      tag_15\n      jumpi\n      dup1\n      0x9d710777\n      eq\n      tag_16\n      jumpi\n      dup1\n      0x9e5f0349\n      eq\n      tag_17\n      jumpi\n      dup1\n      0xa217fddf\n      eq\n      tag_18\n      jumpi\n      jump(tag_2)\n    tag_25:\n      dup1\n      0x314fd68f\n      gt\n      tag_27\n      jumpi\n      dup1\n      0x314fd68f\n      eq\n      tag_8\n      jumpi\n      dup1\n      0x36568abe\n      eq\n      tag_9\n      jumpi\n      dup1\n      0x3ec9ae35\n      eq\n      tag_10\n      jumpi\n      dup1\n      0x4f05dba8\n      eq\n      tag_11\n      jumpi\n      dup1\n      0x715018a6\n      eq\n      tag_12\n      jumpi\n      dup1\n      0x8da5cb5b\n      eq\n      tag_13\n      jumpi\n      jump(tag_2)\n    tag_27:\n      dup1\n      0x01ffc9a7\n      eq\n      tag_3\n      jumpi\n      dup1\n      0x248a9ca3\n      eq\n      tag_4\n      jumpi\n      dup1\n      0x290e9212\n      eq\n      tag_5\n      jumpi\n      dup1\n      0x2e0d37bb\n      eq\n      tag_6\n      jumpi\n      dup1\n      0x2f2ff15d\n      eq\n      tag_7\n      jumpi\n    tag_2:\n      0x00\n      dup1\n      revert\n        /* \"@openzeppelin/contracts/access/AccessControl.sol\":2606:2808  function supportsInterface(bytes4 interfaceId) public view virtual override returns (bool) {... */\n    tag_3:\n      tag_28\n      0x04\n      dup1\n      calldatasize\n      sub\n      dup2\n      add\n      swap1\n      tag_29\n      swap2\n      swap1\n      tag_30\n      jump\t// in\n    tag_29:\n      tag_31\n      jump\t// in\n    tag_28:\n      mload(0x40)\n      tag_32\n      swap2\n      swap1\n      tag_33\n      jump\t// in\n    tag_32:\n      mload(0x40)\n      dup1\n      swap2\n      sub\n      swap1\n      return\n        /* \"@openzeppelin/contracts/access/AccessControl.sol\":4391:4520  function getRoleAdmin(bytes32 role) public view virtual override returns (bytes32) {... */\n    tag_4:\n      tag_34\n      0x04\n      dup1\n      calldatasize\n      sub\n      dup2\n      add\n      swap1\n      tag_35\n      swap2\n      swap1\n      tag_36\n      jump\t// in\n    tag_35:\n      tag_37\n      jump\t// in\n    tag_34:\n      mload(0x40)\n      tag_38\n      swap2\n      swap1\n      tag_39\n      jump\t// in\n    tag_38:\n      mload(0x40)\n      dup1\n      swap2\n      sub\n      swap1\n      return\n        /* \"contracts/Vote.sol\":1102:1149  mapping(uint256 => candidate) public Candidates */\n    tag_5:\n      tag_40\n      0x04\n      dup1\n      calldatasize\n      sub\n      dup2\n      add\n      swap1\n      tag_41\n      swap2\n      swap1\n      tag_42\n      jump\t// in\n    tag_41:\n      tag_43\n      jump\t// in\n    tag_40:\n      mload(0x40)\n      tag_44\n      swap4\n      swap3\n      swap2\n      swap1\n      tag_45\n      jump\t// in\n    tag_44:\n      mload(0x40)\n      dup1\n      swap2\n      sub\n      swap1\n      return\n        /* \"contracts/Vote.sol\":517:580  bytes32 public constant INEC_EXEC_ROLE = keccak256(\"INEC_EXEC\") */\n    tag_6:\n      tag_46\n      tag_47\n      jump\t// in\n    tag_46:\n      mload(0x40)\n      tag_48\n      swap2\n      swap1\n      tag_39\n      jump\t// in\n    tag_48:\n      mload(0x40)\n      dup1\n      swap2\n      sub\n      swap1\n      return\n        /* \"@openzeppelin/contracts/access/AccessControl.sol\":4816:4961  function grantRole(bytes32 role, address account) public virtual override onlyRole(getRoleAdmin(role)) {... */\n    tag_7:\n      tag_49\n      0x04\n      dup1\n      calldatasize\n      sub\n      dup2\n      add\n      swap1\n      tag_50\n      swap2\n      swap1\n      tag_51\n      jump\t// in\n    tag_50:\n      tag_52\n      jump\t// in\n    tag_49:\n      stop\n        /* \"contracts/Vote.sol\":457:510  string [] public party = [\"APC\", \"PDP\", \"LP\", \"NNPP\"] */\n    tag_8:\n      tag_53\n      0x04\n      dup1\n      calldatasize\n      sub\n      dup2\n      add\n      swap1\n      tag_54\n      swap2\n      swap1\n      tag_42\n      jump\t// in\n    tag_54:\n      tag_55\n      jump\t// in\n    tag_53:\n      mload(0x40)\n      tag_56\n      swap2\n      swap1\n      tag_57\n      jump\t// in\n    tag_56:\n      mload(0x40)\n      dup1\n      swap2\n      sub\n      swap1\n      return\n        /* \"@openzeppelin/contracts/access/AccessControl.sol\":5925:6139  function renounceRole(bytes32 role, address account) public virtual override {... */\n    tag_9:\n      tag_58\n      0x04\n      dup1\n      calldatasize\n      sub\n      dup2\n      add\n      swap1\n      tag_59\n      swap2\n      swap1\n      tag_51\n      jump\t// in\n    tag_59:\n      tag_60\n      jump\t// in\n    tag_58:\n      stop\n        /* \"contracts/Vote.sol\":3448:3571  function Voting(uint256 partyID, uint256 electionID) public {... */\n    tag_10:\n      tag_61\n      0x04\n      dup1\n      calldatasize\n      sub\n      dup2\n      add\n      swap1\n      tag_62\n      swap2\n      swap1\n      tag_63\n      jump\t// in\n    tag_62:\n      tag_64\n      jump\t// in\n    tag_61:\n      stop\n        /* \"contracts/Vote.sol\":3073:3442  function createElection(address[] memory _candidateNum, uint256 _date, uint256 _duration) public isInecExec {... */\n    tag_11:\n      tag_65\n      0x04\n      dup1\n      calldatasize\n      sub\n      dup2\n      add\n      swap1\n      tag_66\n      swap2\n      swap1\n      tag_67\n      jump\t// in\n    tag_66:\n      tag_68\n      jump\t// in\n    tag_65:\n      stop\n        /* \"@openzeppelin/contracts/access/Ownable.sol\":1831:1932  function renounceOwnership() public virtual onlyOwner {... */\n    tag_12:\n      tag_69\n      tag_70\n      jump\t// in\n    tag_69:\n      stop\n        /* \"@openzeppelin/contracts/access/Ownable.sol\":1201:1286  function owner() public view virtual returns (address) {... */\n    tag_13:\n      tag_71\n      tag_72\n      jump\t// in\n    tag_71:\n      mload(0x40)\n      tag_73\n      swap2\n      swap1\n      tag_74\n      jump\t// in\n    tag_73:\n      mload(0x40)\n      dup1\n      swap2\n      sub\n      swap1\n      return\n        /* \"@openzeppelin/contracts/access/AccessControl.sol\":2895:3040  function hasRole(bytes32 role, address account) public view virtual override returns (bool) {... */\n    tag_14:\n      tag_75\n      0x04\n      dup1\n      calldatasize\n      sub\n      dup2\n      add\n      swap1\n      tag_76\n      swap2\n      swap1\n      tag_51\n      jump\t// in\n    tag_76:\n      tag_77\n      jump\t// in\n    tag_75:\n      mload(0x40)\n      tag_78\n      swap2\n      swap1\n      tag_33\n      jump\t// in\n    tag_78:\n      mload(0x40)\n      dup1\n      swap2\n      sub\n      swap1\n      return\n        /* \"contracts/Vote.sol\":1224:1263  mapping(uint256 => voter) public Voters */\n    tag_15:\n      tag_79\n      0x04\n      dup1\n      calldatasize\n      sub\n      dup2\n      add\n      swap1\n      tag_80\n      swap2\n      swap1\n      tag_42\n      jump\t// in\n    tag_80:\n      tag_81\n      jump\t// in\n    tag_79:\n      mload(0x40)\n      tag_82\n      swap5\n      swap4\n      swap3\n      swap2\n      swap1\n      tag_83\n      jump\t// in\n    tag_82:\n      mload(0x40)\n      dup1\n      swap2\n      sub\n      swap1\n      return\n        /* \"contracts/Vote.sol\":3851:3960  function getElection(uint256 num) public view returns (election memory){... */\n    tag_16:\n      tag_84\n      0x04\n      dup1\n      calldatasize\n      sub\n      dup2\n      add\n      swap1\n      tag_85\n      swap2\n      swap1\n      tag_42\n      jump\t// in\n    tag_85:\n      tag_86\n      jump\t// in\n    tag_84:\n      mload(0x40)\n      tag_87\n      swap2\n      swap1\n      tag_88\n      jump\t// in\n    tag_87:\n      mload(0x40)\n      dup1\n      swap2\n      sub\n      swap1\n      return\n        /* \"contracts/Vote.sol\":3653:3770  function retrieveCandidate(uint256 num) public view returns (candidate memory){... */\n    tag_17:\n      tag_89\n      0x04\n      dup1\n      calldatasize\n      sub\n      dup2\n      add\n      swap1\n      tag_90\n      swap2\n      swap1\n      tag_42\n      jump\t// in\n    tag_90:\n      tag_91\n      jump\t// in\n    tag_89:\n      mload(0x40)\n      tag_92\n      swap2\n      swap1\n      tag_93\n      jump\t// in\n    tag_92:\n      mload(0x40)\n      dup1\n      swap2\n      sub\n      swap1\n      return\n        /* \"@openzeppelin/contracts/access/AccessControl.sol\":2027:2076  bytes32 public constant DEFAULT_ADMIN_ROLE = 0x00 */\n    tag_18:\n      tag_94\n      tag_95\n      jump\t// in\n    tag_94:\n      mload(0x40)\n      tag_96\n      swap2\n      swap1\n      tag_39\n      jump\t// in\n    tag_96:\n      mload(0x40)\n      dup1\n      swap2\n      sub\n      swap1\n      return\n        /* \"contracts/Vote.sol\":586:641  bytes32 public constant VOTER_ROLE = keccak256(\"VOTER\") */\n    tag_19:\n      tag_97\n      tag_98\n      jump\t// in\n    tag_97:\n      mload(0x40)\n      tag_99\n      swap2\n      swap1\n      tag_39\n      jump\t// in\n    tag_99:\n      mload(0x40)\n      dup1\n      swap2\n      sub\n      swap1\n      return\n        /* \"@openzeppelin/contracts/access/AccessControl.sol\":5241:5388  function revokeRole(bytes32 role, address account) public virtual override onlyRole(getRoleAdmin(role)) {... */\n    tag_20:\n      tag_100\n      0x04\n      dup1\n      calldatasize\n      sub\n      dup2\n      add\n      swap1\n      tag_101\n      swap2\n      swap1\n      tag_51\n      jump\t// in\n    tag_101:\n      tag_102\n      jump\t// in\n    tag_100:\n      stop\n        /* \"contracts/Vote.sol\":2366:2665  function createCandidate(string memory name, address candAddress, uint256 partyNum) public isInecExec {... */\n    tag_21:\n      tag_103\n      0x04\n      dup1\n      calldatasize\n      sub\n      dup2\n      add\n      swap1\n      tag_104\n      swap2\n      swap1\n      tag_105\n      jump\t// in\n    tag_104:\n      tag_106\n      jump\t// in\n    tag_103:\n      stop\n        /* \"contracts/Vote.sol\":2763:2935  function regVoter(uint256 _nin) public {... */\n    tag_22:\n      tag_107\n      0x04\n      dup1\n      calldatasize\n      sub\n      dup2\n      add\n      swap1\n      tag_108\n      swap2\n      swap1\n      tag_42\n      jump\t// in\n    tag_108:\n      tag_109\n      jump\t// in\n    tag_107:\n      stop\n        /* \"contracts/Vote.sol\":2046:2156  function createInecExec(address _account) public onlyOwner{... */\n    tag_23:\n      tag_110\n      0x04\n      dup1\n      calldatasize\n      sub\n      dup2\n      add\n      swap1\n      tag_111\n      swap2\n      swap1\n      tag_112\n      jump\t// in\n    tag_111:\n      tag_113\n      jump\t// in\n    tag_110:\n      stop\n        /* \"@openzeppelin/contracts/access/Ownable.sol\":2081:2279  function transferOwnership(address newOwner) public virtual onlyOwner {... */\n    tag_24:\n      tag_114\n      0x04\n      dup1\n      calldatasize\n      sub\n      dup2\n      add\n      swap1\n      tag_115\n      swap2\n      swap1\n      tag_112\n      jump\t// in\n    tag_115:\n      tag_116\n      jump\t// in\n    tag_114:\n      stop\n        /* \"@openzeppelin/contracts/access/AccessControl.sol\":2606:2808  function supportsInterface(bytes4 interfaceId) public view virtual override returns (bool) {... */\n    tag_31:\n        /* \"@openzeppelin/contracts/access/AccessControl.sol\":2691:2695  bool */\n      0x00\n        /* \"@openzeppelin/contracts/access/AccessControl.sol\":2729:2761  type(IAccessControl).interfaceId */\n      0x7965db0b00000000000000000000000000000000000000000000000000000000\n        /* \"@openzeppelin/contracts/access/AccessControl.sol\":2714:2761  interfaceId == type(IAccessControl).interfaceId */\n      not(0xffffffffffffffffffffffffffffffffffffffffffffffffffffffff)\n      and\n        /* \"@openzeppelin/contracts/access/AccessControl.sol\":2714:2725  interfaceId */\n      dup3\n        /* \"@openzeppelin/contracts/access/AccessControl.sol\":2714:2761  interfaceId == type(IAccessControl).interfaceId */\n      not(0xffffffffffffffffffffffffffffffffffffffffffffffffffffffff)\n      and\n      eq\n        /* \"@openzeppelin/contracts/access/AccessControl.sol\":2714:2801  interfaceId == type(IAccessControl).interfaceId || super.supportsInterface(interfaceId) */\n      dup1\n      tag_118\n      jumpi\n      pop\n        /* \"@openzeppelin/contracts/access/AccessControl.sol\":2765:2801  super.supportsInterface(interfaceId) */\n      tag_119\n        /* \"@openzeppelin/contracts/access/AccessControl.sol\":2789:2800  interfaceId */\n      dup3\n        /* \"@openzeppelin/contracts/access/AccessControl.sol\":2765:2788  super.supportsInterface */\n      tag_120\n        /* \"@openzeppelin/contracts/access/AccessControl.sol\":2765:2801  super.supportsInterface(interfaceId) */\n      jump\t// in\n    tag_119:\n        /* \"@openzeppelin/contracts/access/AccessControl.sol\":2714:2801  interfaceId == type(IAccessControl).interfaceId || super.supportsInterface(interfaceId) */\n    tag_118:\n        /* \"@openzeppelin/contracts/access/AccessControl.sol\":2707:2801  return interfaceId == type(IAccessControl).interfaceId || super.supportsInterface(interfaceId) */\n      swap1\n      pop\n        /* \"@openzeppelin/contracts/access/AccessControl.sol\":2606:2808  function supportsInterface(bytes4 interfaceId) public view virtual override returns (bool) {... */\n      swap2\n      swap1\n      pop\n      jump\t// out\n        /* \"@openzeppelin/contracts/access/AccessControl.sol\":4391:4520  function getRoleAdmin(bytes32 role) public view virtual override returns (bytes32) {... */\n    tag_37:\n        /* \"@openzeppelin/contracts/access/AccessControl.sol\":4465:4472  bytes32 */\n      0x00\n        /* \"@openzeppelin/contracts/access/AccessControl.sol\":4491:4497  _roles */\n      0x01\n        /* \"@openzeppelin/contracts/access/AccessControl.sol\":4491:4503  _roles[role] */\n      0x00\n        /* \"@openzeppelin/contracts/access/AccessControl.sol\":4498:4502  role */\n      dup4\n        /* \"@openzeppelin/contracts/access/AccessControl.sol\":4491:4503  _roles[role] */\n      dup2\n      mstore\n      0x20\n      add\n      swap1\n      dup2\n      mstore\n      0x20\n      add\n      0x00\n      keccak256\n        /* \"@openzeppelin/contracts/access/AccessControl.sol\":4491:4513  _roles[role].adminRole */\n      0x01\n      add\n      sload\n        /* \"@openzeppelin/contracts/access/AccessControl.sol\":4484:4513  return _roles[role].adminRole */\n      swap1\n      pop\n        /* \"@openzeppelin/contracts/access/AccessControl.sol\":4391:4520  function getRoleAdmin(bytes32 role) public view virtual override returns (bytes32) {... */\n      swap2\n      swap1\n      pop\n      jump\t// out\n        /* \"contracts/Vote.sol\":1102:1149  mapping(uint256 => candidate) public Candidates */\n    tag_43:\n      mstore(0x20, 0x07)\n      dup1\n      0x00\n      mstore\n      keccak256(0x00, 0x40)\n      0x00\n      swap2\n      pop\n      swap1\n      pop\n      dup1\n      0x00\n      add\n      dup1\n      sload\n      tag_122\n      swap1\n      tag_123\n      jump\t// in\n    tag_122:\n      dup1\n      0x1f\n      add\n      0x20\n      dup1\n      swap2\n      div\n      mul\n      0x20\n      add\n      mload(0x40)\n      swap1\n      dup2\n      add\n      0x40\n      mstore\n      dup1\n      swap3\n      swap2\n      swap1\n      dup2\n      dup2\n      mstore\n      0x20\n      add\n      dup3\n      dup1\n      sload\n      tag_124\n      swap1\n      tag_123\n      jump\t// in\n    tag_124:\n      dup1\n      iszero\n      tag_125\n      jumpi\n      dup1\n      0x1f\n      lt\n      tag_126\n      jumpi\n      0x0100\n      dup1\n      dup4\n      sload\n      div\n      mul\n      dup4\n      mstore\n      swap2\n      0x20\n      add\n      swap2\n      jump(tag_125)\n    tag_126:\n      dup3\n      add\n      swap2\n      swap1\n      0x00\n      mstore\n      keccak256(0x00, 0x20)\n      swap1\n    tag_127:\n      dup2\n      sload\n      dup2\n      mstore\n      swap1\n      0x01\n      add\n      swap1\n      0x20\n      add\n      dup1\n      dup4\n      gt\n      tag_127\n      jumpi\n      dup3\n      swap1\n      sub\n      0x1f\n      and\n      dup3\n      add\n      swap2\n    tag_125:\n      pop\n      pop\n      pop\n      pop\n      pop\n      swap1\n      dup1\n      0x01\n      add\n      0x00\n      swap1\n      sload\n      swap1\n      0x0100\n      exp\n      swap1\n      div\n      0xffffffffffffffffffffffffffffffffffffffff\n      and\n      swap1\n      dup1\n      0x02\n      add\n      dup1\n      sload\n      tag_128\n      swap1\n      tag_123\n      jump\t// in\n    tag_128:\n      dup1\n      0x1f\n      add\n      0x20\n      dup1\n      swap2\n      div\n      mul\n      0x20\n      add\n      mload(0x40)\n      swap1\n      dup2\n      add\n      0x40\n      mstore\n      dup1\n      swap3\n      swap2\n      swap1\n      dup2\n      dup2\n      mstore\n      0x20\n      add\n      dup3\n      dup1\n      sload\n      tag_129\n      swap1\n      tag_123\n      jump\t// in\n    tag_129:\n      dup1\n      iszero\n      tag_130\n      jumpi\n      dup1\n      0x1f\n      lt\n      tag_131\n      jumpi\n      0x0100\n      dup1\n      dup4\n      sload\n      div\n      mul\n      dup4\n      mstore\n      swap2\n      0x20\n      add\n      swap2\n      jump(tag_130)\n    tag_131:\n      dup3\n      add\n      swap2\n      swap1\n      0x00\n      mstore\n      keccak256(0x00, 0x20)\n      swap1\n    tag_132:\n      dup2\n      sload\n      dup2\n      mstore\n      swap1\n      0x01\n      add\n      swap1\n      0x20\n      add\n      dup1\n      dup4\n      gt\n      tag_132\n      jumpi\n      dup3\n      swap1\n      sub\n      0x1f\n      and\n      dup3\n      add\n      swap2\n    tag_130:\n      pop\n      pop\n      pop\n      pop\n      pop\n      swap1\n      pop\n      dup4\n      jump\t// out\n        /* \"contracts/Vote.sol\":517:580  bytes32 public constant INEC_EXEC_ROLE = keccak256(\"INEC_EXEC\") */\n    tag_47:\n        /* \"contracts/Vote.sol\":558:580  keccak256(\"INEC_EXEC\") */\n      0x082f6ed76e0352438e6a6e35c77719c3f04bf277fdc8fec7e5ff5f65e001d902\n        /* \"contracts/Vote.sol\":517:580  bytes32 public constant INEC_EXEC_ROLE = keccak256(\"INEC_EXEC\") */\n      dup2\n      jump\t// out\n        /* \"@openzeppelin/contracts/access/AccessControl.sol\":4816:4961  function grantRole(bytes32 role, address account) public virtual override onlyRole(getRoleAdmin(role)) {... */\n    tag_52:\n        /* \"@openzeppelin/contracts/access/AccessControl.sol\":4899:4917  getRoleAdmin(role) */\n      tag_133\n        /* \"@openzeppelin/contracts/access/AccessControl.sol\":4912:4916  role */\n      dup3\n        /* \"@openzeppelin/contracts/access/AccessControl.sol\":4899:4911  getRoleAdmin */\n      tag_37\n        /* \"@openzeppelin/contracts/access/AccessControl.sol\":4899:4917  getRoleAdmin(role) */\n      jump\t// in\n    tag_133:\n        /* \"@openzeppelin/contracts/access/AccessControl.sol\":2505:2521  _checkRole(role) */\n      tag_135\n        /* \"@openzeppelin/contracts/access/AccessControl.sol\":2516:2520  role */\n      dup2\n        /* \"@openzeppelin/contracts/access/AccessControl.sol\":2505:2515  _checkRole */\n      tag_136\n        /* \"@openzeppelin/contracts/access/AccessControl.sol\":2505:2521  _checkRole(role) */\n      jump\t// in\n    tag_135:\n        /* \"@openzeppelin/contracts/access/AccessControl.sol\":4929:4954  _grantRole(role, account) */\n      tag_138\n        /* \"@openzeppelin/contracts/access/AccessControl.sol\":4940:4944  role */\n      dup4\n        /* \"@openzeppelin/contracts/access/AccessControl.sol\":4946:4953  account */\n      dup4\n        /* \"@openzeppelin/contracts/access/AccessControl.sol\":4929:4939  _grantRole */\n      tag_139\n        /* \"@openzeppelin/contracts/access/AccessControl.sol\":4929:4954  _grantRole(role, account) */\n      jump\t// in\n    tag_138:\n        /* \"@openzeppelin/contracts/access/AccessControl.sol\":4816:4961  function grantRole(bytes32 role, address account) public virtual override onlyRole(getRoleAdmin(role)) {... */\n      pop\n      pop\n      pop\n      jump\t// out\n        /* \"contracts/Vote.sol\":457:510  string [] public party = [\"APC\", \"PDP\", \"LP\", \"NNPP\"] */\n    tag_55:\n      0x06\n      dup2\n      dup2\n      sload\n      dup2\n      lt\n      tag_140\n      jumpi\n      0x00\n      dup1\n      revert\n    tag_140:\n      swap1\n      0x00\n      mstore\n      keccak256(0x00, 0x20)\n      add\n      0x00\n      swap2\n      pop\n      swap1\n      pop\n      dup1\n      sload\n      tag_142\n      swap1\n      tag_123\n      jump\t// in\n    tag_142:\n      dup1\n      0x1f\n      add\n      0x20\n      dup1\n      swap2\n      div\n      mul\n      0x20\n      add\n      mload(0x40)\n      swap1\n      dup2\n      add\n      0x40\n      mstore\n      dup1\n      swap3\n      swap2\n      swap1\n      dup2\n      dup2\n      mstore\n      0x20\n      add\n      dup3\n      dup1\n      sload\n      tag_143\n      swap1\n      tag_123\n      jump\t// in\n    tag_143:\n      dup1\n      iszero\n      tag_144\n      jumpi\n      dup1\n      0x1f\n      lt\n      tag_145\n      jumpi\n      0x0100\n      dup1\n      dup4\n      sload\n      div\n      mul\n      dup4\n      mstore\n      swap2\n      0x20\n      add\n      swap2\n      jump(tag_144)\n    tag_145:\n      dup3\n      add\n      swap2\n      swap1\n      0x00\n      mstore\n      keccak256(0x00, 0x20)\n      swap1\n    tag_146:\n      dup2\n      sload\n      dup2\n      mstore\n      swap1\n      0x01\n      add\n      swap1\n      0x20\n      add\n      dup1\n      dup4\n      gt\n      tag_146\n      jumpi\n      dup3\n      swap1\n      sub\n      0x1f\n      and\n      dup3\n      add\n      swap2\n    tag_144:\n      pop\n      pop\n      pop\n      pop\n      pop\n      dup2\n      jump\t// out\n        /* \"@openzeppelin/contracts/access/AccessControl.sol\":5925:6139  function renounceRole(bytes32 role, address account) public virtual override {... */\n    tag_60:\n        /* \"@openzeppelin/contracts/access/AccessControl.sol\":6031:6043  _msgSender() */\n      tag_148\n        /* \"@openzeppelin/contracts/access/AccessControl.sol\":6031:6041  _msgSender */\n      tag_149\n        /* \"@openzeppelin/contracts/access/AccessControl.sol\":6031:6043  _msgSender() */\n      jump\t// in\n    tag_148:\n        /* \"@openzeppelin/contracts/access/AccessControl.sol\":6020:6043  account == _msgSender() */\n      0xffffffffffffffffffffffffffffffffffffffff\n      and\n        /* \"@openzeppelin/contracts/access/AccessControl.sol\":6020:6027  account */\n      dup2\n        /* \"@openzeppelin/contracts/access/AccessControl.sol\":6020:6043  account == _msgSender() */\n      0xffffffffffffffffffffffffffffffffffffffff\n      and\n      eq\n        /* \"@openzeppelin/contracts/access/AccessControl.sol\":6012:6095  require(account == _msgSender(), \"AccessControl: can only renounce roles for self\") */\n      tag_150\n      jumpi\n      mload(0x40)\n      0x08c379a000000000000000000000000000000000000000000000000000000000\n      dup2\n      mstore\n      0x04\n      add\n      tag_151\n      swap1\n      tag_152\n      jump\t// in\n    tag_151:\n      mload(0x40)\n      dup1\n      swap2\n      sub\n      swap1\n      revert\n    tag_150:\n        /* \"@openzeppelin/contracts/access/AccessControl.sol\":6106:6132  _revokeRole(role, account) */\n      tag_153\n        /* \"@openzeppelin/contracts/access/AccessControl.sol\":6118:6122  role */\n      dup3\n        /* \"@openzeppelin/contracts/access/AccessControl.sol\":6124:6131  account */\n      dup3\n        /* \"@openzeppelin/contracts/access/AccessControl.sol\":6106:6117  _revokeRole */\n      tag_154\n        /* \"@openzeppelin/contracts/access/AccessControl.sol\":6106:6132  _revokeRole(role, account) */\n      jump\t// in\n    tag_153:\n        /* \"@openzeppelin/contracts/access/AccessControl.sol\":5925:6139  function renounceRole(bytes32 role, address account) public virtual override {... */\n      pop\n      pop\n      jump\t// out\n        /* \"contracts/Vote.sol\":3448:3571  function Voting(uint256 partyID, uint256 electionID) public {... */\n    tag_64:\n        /* \"contracts/Vote.sol\":3518:3527  Elections */\n      0x09\n        /* \"contracts/Vote.sol\":3518:3539  Elections[electionID] */\n      0x00\n        /* \"contracts/Vote.sol\":3528:3538  electionID */\n      dup3\n        /* \"contracts/Vote.sol\":3518:3539  Elections[electionID] */\n      dup2\n      mstore\n      0x20\n      add\n      swap1\n      dup2\n      mstore\n      0x20\n      add\n      0x00\n      keccak256\n        /* \"contracts/Vote.sol\":3518:3553  Elections[electionID].candidateVote */\n      0x01\n      add\n        /* \"contracts/Vote.sol\":3554:3561  partyID */\n      dup3\n        /* \"contracts/Vote.sol\":3518:3562  Elections[electionID].candidateVote[partyID] */\n      dup2\n      sload\n      dup2\n      lt\n      tag_156\n      jumpi\n      tag_157\n      tag_158\n      jump\t// in\n    tag_157:\n    tag_156:\n      swap1\n      0x00\n      mstore\n      keccak256(0x00, 0x20)\n      add\n      0x00\n        /* \"contracts/Vote.sol\":3518:3564  Elections[electionID].candidateVote[partyID]++ */\n      dup2\n      sload\n      dup1\n      swap3\n      swap2\n      swap1\n      tag_160\n      swap1\n      tag_161\n      jump\t// in\n    tag_160:\n      swap2\n      swap1\n      pop\n      sstore\n      pop\n        /* \"contracts/Vote.sol\":3448:3571  function Voting(uint256 partyID, uint256 electionID) public {... */\n      pop\n      pop\n      jump\t// out\n        /* \"contracts/Vote.sol\":3073:3442  function createElection(address[] memory _candidateNum, uint256 _date, uint256 _duration) public isInecExec {... */\n    tag_68:\n        /* \"contracts/Vote.sol\":1520:1555  hasRole(INEC_EXEC_ROLE, msg.sender) */\n      tag_163\n        /* \"contracts/Vote.sol\":558:580  keccak256(\"INEC_EXEC\") */\n      0x082f6ed76e0352438e6a6e35c77719c3f04bf277fdc8fec7e5ff5f65e001d902\n        /* \"contracts/Vote.sol\":1544:1554  msg.sender */\n      caller\n        /* \"contracts/Vote.sol\":1520:1527  hasRole */\n      tag_77\n        /* \"contracts/Vote.sol\":1520:1555  hasRole(INEC_EXEC_ROLE, msg.sender) */\n      jump\t// in\n    tag_163:\n        /* \"contracts/Vote.sol\":1512:1591  require(hasRole(INEC_EXEC_ROLE, msg.sender), \"Caller is not an INEC executive\") */\n      tag_164\n      jumpi\n      mload(0x40)\n      0x08c379a000000000000000000000000000000000000000000000000000000000\n      dup2\n      mstore\n      0x04\n      add\n      tag_165\n      swap1\n      tag_166\n      jump\t// in\n    tag_165:\n      mload(0x40)\n      dup1\n      swap2\n      sub\n      swap1\n      revert\n    tag_164:\n        /* \"contracts/Vote.sol\":3221:3226  _date */\n      dup2\n        /* \"contracts/Vote.sol\":3190:3199  Elections */\n      0x09\n        /* \"contracts/Vote.sol\":3190:3212  Elections[electionNum] */\n      0x00\n        /* \"contracts/Vote.sol\":3200:3211  electionNum */\n      sload(0x05)\n        /* \"contracts/Vote.sol\":3190:3212  Elections[electionNum] */\n      dup2\n      mstore\n      0x20\n      add\n      swap1\n      dup2\n      mstore\n      0x20\n      add\n      0x00\n      keccak256\n        /* \"contracts/Vote.sol\":3190:3218  Elections[electionNum].start */\n      0x02\n      add\n        /* \"contracts/Vote.sol\":3190:3226  Elections[electionNum].start = _date */\n      dup2\n      swap1\n      sstore\n      pop\n        /* \"contracts/Vote.sol\":3269:3278  _duration */\n      dup1\n        /* \"contracts/Vote.sol\":3235:3244  Elections */\n      0x09\n        /* \"contracts/Vote.sol\":3235:3257  Elections[electionNum] */\n      0x00\n        /* \"contracts/Vote.sol\":3245:3256  electionNum */\n      sload(0x05)\n        /* \"contracts/Vote.sol\":3235:3257  Elections[electionNum] */\n      dup2\n      mstore\n      0x20\n      add\n      swap1\n      dup2\n      mstore\n      0x20\n      add\n      0x00\n      keccak256\n        /* \"contracts/Vote.sol\":3235:3266  Elections[electionNum].duration */\n      0x03\n      add\n        /* \"contracts/Vote.sol\":3235:3278  Elections[electionNum].duration = _duration */\n      dup2\n      swap1\n      sstore\n      pop\n        /* \"contracts/Vote.sol\":3292:3298  uint i */\n      0x00\n        /* \"contracts/Vote.sol\":3288:3412  for(uint i = 0; i < _candidateNum.length; i++){... */\n    tag_168:\n        /* \"contracts/Vote.sol\":3308:3321  _candidateNum */\n      dup4\n        /* \"contracts/Vote.sol\":3308:3328  _candidateNum.length */\n      mload\n        /* \"contracts/Vote.sol\":3304:3305  i */\n      dup2\n        /* \"contracts/Vote.sol\":3304:3328  i < _candidateNum.length */\n      lt\n        /* \"contracts/Vote.sol\":3288:3412  for(uint i = 0; i < _candidateNum.length; i++){... */\n      iszero\n      tag_169\n      jumpi\n        /* \"contracts/Vote.sol\":3347:3356  Elections */\n      0x09\n        /* \"contracts/Vote.sol\":3347:3369  Elections[electionNum] */\n      0x00\n        /* \"contracts/Vote.sol\":3357:3368  electionNum */\n      sload(0x05)\n        /* \"contracts/Vote.sol\":3347:3369  Elections[electionNum] */\n      dup2\n      mstore\n      0x20\n      add\n      swap1\n      dup2\n      mstore\n      0x20\n      add\n      0x00\n      keccak256\n        /* \"contracts/Vote.sol\":3347:3379  Elections[electionNum].candidate */\n      0x00\n      add\n        /* \"contracts/Vote.sol\":3385:3398  _candidateNum */\n      dup5\n        /* \"contracts/Vote.sol\":3399:3400  i */\n      dup3\n        /* \"contracts/Vote.sol\":3385:3401  _candidateNum[i] */\n      dup2\n      mload\n      dup2\n      lt\n      tag_171\n      jumpi\n      tag_172\n      tag_158\n      jump\t// in\n    tag_172:\n    tag_171:\n      0x20\n      mul\n      0x20\n      add\n      add\n      mload\n        /* \"contracts/Vote.sol\":3347:3402  Elections[electionNum].candidate.push(_candidateNum[i]) */\n      swap1\n      dup1\n      0x01\n      dup2\n      sload\n      add\n      dup1\n      dup3\n      sstore\n      dup1\n      swap2\n      pop\n      pop\n      0x01\n      swap1\n      sub\n      swap1\n      0x00\n      mstore\n      keccak256(0x00, 0x20)\n      add\n      0x00\n      swap1\n      swap2\n      swap1\n      swap2\n      swap1\n      swap2\n      0x0100\n      exp\n      dup2\n      sload\n      dup2\n      0xffffffffffffffffffffffffffffffffffffffff\n      mul\n      not\n      and\n      swap1\n      dup4\n      0xffffffffffffffffffffffffffffffffffffffff\n      and\n      mul\n      or\n      swap1\n      sstore\n      pop\n        /* \"contracts/Vote.sol\":3330:3333  i++ */\n      dup1\n      dup1\n      tag_174\n      swap1\n      tag_161\n      jump\t// in\n    tag_174:\n      swap2\n      pop\n      pop\n        /* \"contracts/Vote.sol\":3288:3412  for(uint i = 0; i < _candidateNum.length; i++){... */\n      jump(tag_168)\n    tag_169:\n      pop\n        /* \"contracts/Vote.sol\":3421:3432  electionNum */\n      0x05\n      0x00\n        /* \"contracts/Vote.sol\":3421:3435  electionNum ++ */\n      dup2\n      sload\n      dup1\n      swap3\n      swap2\n      swap1\n      tag_175\n      swap1\n      tag_161\n      jump\t// in\n    tag_175:\n      swap2\n      swap1\n      pop\n      sstore\n      pop\n        /* \"contracts/Vote.sol\":3073:3442  function createElection(address[] memory _candidateNum, uint256 _date, uint256 _duration) public isInecExec {... */\n      pop\n      pop\n      pop\n      jump\t// out\n        /* \"@openzeppelin/contracts/access/Ownable.sol\":1831:1932  function renounceOwnership() public virtual onlyOwner {... */\n    tag_70:\n        /* \"@openzeppelin/contracts/access/Ownable.sol\":1094:1107  _checkOwner() */\n      tag_177\n        /* \"@openzeppelin/contracts/access/Ownable.sol\":1094:1105  _checkOwner */\n      tag_178\n        /* \"@openzeppelin/contracts/access/Ownable.sol\":1094:1107  _checkOwner() */\n      jump\t// in\n    tag_177:\n        /* \"@openzeppelin/contracts/access/Ownable.sol\":1895:1925  _transferOwnership(address(0)) */\n      tag_180\n        /* \"@openzeppelin/contracts/access/Ownable.sol\":1922:1923  0 */\n      0x00\n        /* \"@openzeppelin/contracts/access/Ownable.sol\":1895:1913  _transferOwnership */\n      tag_181\n        /* \"@openzeppelin/contracts/access/Ownable.sol\":1895:1925  _transferOwnership(address(0)) */\n      jump\t// in\n    tag_180:\n        /* \"@openzeppelin/contracts/access/Ownable.sol\":1831:1932  function renounceOwnership() public virtual onlyOwner {... */\n      jump\t// out\n        /* \"@openzeppelin/contracts/access/Ownable.sol\":1201:1286  function owner() public view virtual returns (address) {... */\n    tag_72:\n        /* \"@openzeppelin/contracts/access/Ownable.sol\":1247:1254  address */\n      0x00\n        /* \"@openzeppelin/contracts/access/Ownable.sol\":1273:1279  _owner */\n      dup1\n      0x00\n      swap1\n      sload\n      swap1\n      0x0100\n      exp\n      swap1\n      div\n      0xffffffffffffffffffffffffffffffffffffffff\n      and\n        /* \"@openzeppelin/contracts/access/Ownable.sol\":1266:1279  return _owner */\n      swap1\n      pop\n        /* \"@openzeppelin/contracts/access/Ownable.sol\":1201:1286  function owner() public view virtual returns (address) {... */\n      swap1\n      jump\t// out\n        /* \"@openzeppelin/contracts/access/AccessControl.sol\":2895:3040  function hasRole(bytes32 role, address account) public view virtual override returns (bool) {... */\n    tag_77:\n        /* \"@openzeppelin/contracts/access/AccessControl.sol\":2981:2985  bool */\n      0x00\n        /* \"@openzeppelin/contracts/access/AccessControl.sol\":3004:3010  _roles */\n      0x01\n        /* \"@openzeppelin/contracts/access/AccessControl.sol\":3004:3016  _roles[role] */\n      0x00\n        /* \"@openzeppelin/contracts/access/AccessControl.sol\":3011:3015  role */\n      dup5\n        /* \"@openzeppelin/contracts/access/AccessControl.sol\":3004:3016  _roles[role] */\n      dup2\n      mstore\n      0x20\n      add\n      swap1\n      dup2\n      mstore\n      0x20\n      add\n      0x00\n      keccak256\n        /* \"@openzeppelin/contracts/access/AccessControl.sol\":3004:3024  _roles[role].members */\n      0x00\n      add\n        /* \"@openzeppelin/contracts/access/AccessControl.sol\":3004:3033  _roles[role].members[account] */\n      0x00\n        /* \"@openzeppelin/contracts/access/AccessControl.sol\":3025:3032  account */\n      dup4\n        /* \"@openzeppelin/contracts/access/AccessControl.sol\":3004:3033  _roles[role].members[account] */\n      0xffffffffffffffffffffffffffffffffffffffff\n      and\n      0xffffffffffffffffffffffffffffffffffffffff\n      and\n      dup2\n      mstore\n      0x20\n      add\n      swap1\n      dup2\n      mstore\n      0x20\n      add\n      0x00\n      keccak256\n      0x00\n      swap1\n      sload\n      swap1\n      0x0100\n      exp\n      swap1\n      div\n      0xff\n      and\n        /* \"@openzeppelin/contracts/access/AccessControl.sol\":2997:3033  return _roles[role].members[account] */\n      swap1\n      pop\n        /* \"@openzeppelin/contracts/access/AccessControl.sol\":2895:3040  function hasRole(bytes32 role, address account) public view virtual override returns (bool) {... */\n      swap3\n      swap2\n      pop\n      pop\n      jump\t// out\n        /* \"contracts/Vote.sol\":1224:1263  mapping(uint256 => voter) public Voters */\n    tag_81:\n      mstore(0x20, 0x08)\n      dup1\n      0x00\n      mstore\n      keccak256(0x00, 0x40)\n      0x00\n      swap2\n      pop\n      swap1\n      pop\n      dup1\n      0x00\n      add\n      0x00\n      swap1\n      sload\n      swap1\n      0x0100\n      exp\n      swap1\n      div\n      0xffffffffffffffffffffffffffffffffffffffff\n      and\n      swap1\n      dup1\n      0x01\n      add\n      sload\n      swap1\n      dup1\n      0x02\n      add\n      sload\n      swap1\n      dup1\n      0x03\n      add\n      0x00\n      swap1\n      sload\n      swap1\n      0x0100\n      exp\n      swap1\n      div\n      0xff\n      and\n      swap1\n      pop\n      dup5\n      jump\t// out\n        /* \"contracts/Vote.sol\":3851:3960  function getElection(uint256 num) public view returns (election memory){... */\n    tag_86:\n        /* \"contracts/Vote.sol\":3906:3921  election memory */\n      tag_184\n      tag_185\n      jump\t// in\n    tag_184:\n        /* \"contracts/Vote.sol\":3939:3948  Elections */\n      0x09\n        /* \"contracts/Vote.sol\":3939:3953  Elections[num] */\n      0x00\n        /* \"contracts/Vote.sol\":3949:3952  num */\n      dup4\n        /* \"contracts/Vote.sol\":3939:3953  Elections[num] */\n      dup2\n      mstore\n      0x20\n      add\n      swap1\n      dup2\n      mstore\n      0x20\n      add\n      0x00\n      keccak256\n        /* \"contracts/Vote.sol\":3932:3953  return Elections[num] */\n      mload(0x40)\n      dup1\n      0xa0\n      add\n      0x40\n      mstore\n      swap1\n      dup2\n      0x00\n      dup3\n      add\n      dup1\n      sload\n      dup1\n      0x20\n      mul\n      0x20\n      add\n      mload(0x40)\n      swap1\n      dup2\n      add\n      0x40\n      mstore\n      dup1\n      swap3\n      swap2\n      swap1\n      dup2\n      dup2\n      mstore\n      0x20\n      add\n      dup3\n      dup1\n      sload\n      dup1\n      iszero\n      tag_187\n      jumpi\n      0x20\n      mul\n      dup3\n      add\n      swap2\n      swap1\n      0x00\n      mstore\n      keccak256(0x00, 0x20)\n      swap1\n    tag_188:\n      dup2\n      0x00\n      swap1\n      sload\n      swap1\n      0x0100\n      exp\n      swap1\n      div\n      0xffffffffffffffffffffffffffffffffffffffff\n      and\n      0xffffffffffffffffffffffffffffffffffffffff\n      and\n      dup2\n      mstore\n      0x20\n      add\n      swap1\n      0x01\n      add\n      swap1\n      dup1\n      dup4\n      gt\n      tag_188\n      jumpi\n    tag_187:\n      pop\n      pop\n      pop\n      pop\n      pop\n      dup2\n      mstore\n      0x20\n      add\n      0x01\n      dup3\n      add\n      dup1\n      sload\n      dup1\n      0x20\n      mul\n      0x20\n      add\n      mload(0x40)\n      swap1\n      dup2\n      add\n      0x40\n      mstore\n      dup1\n      swap3\n      swap2\n      swap1\n      dup2\n      dup2\n      mstore\n      0x20\n      add\n      dup3\n      dup1\n      sload\n      dup1\n      iszero\n      tag_189\n      jumpi\n      0x20\n      mul\n      dup3\n      add\n      swap2\n      swap1\n      0x00\n      mstore\n      keccak256(0x00, 0x20)\n      swap1\n    tag_190:\n      dup2\n      sload\n      dup2\n      mstore\n      0x20\n      add\n      swap1\n      0x01\n      add\n      swap1\n      dup1\n      dup4\n      gt\n      tag_190\n      jumpi\n    tag_189:\n      pop\n      pop\n      pop\n      pop\n      pop\n      dup2\n      mstore\n      0x20\n      add\n      0x02\n      dup3\n      add\n      sload\n      dup2\n      mstore\n      0x20\n      add\n      0x03\n      dup3\n      add\n      sload\n      dup2\n      mstore\n      0x20\n      add\n      0x04\n      dup3\n      add\n      0x00\n      swap1\n      sload\n      swap1\n      0x0100\n      exp\n      swap1\n      div\n      0xff\n      and\n      iszero\n      iszero\n      iszero\n      iszero\n      dup2\n      mstore\n      pop\n      pop\n      swap1\n      pop\n        /* \"contracts/Vote.sol\":3851:3960  function getElection(uint256 num) public view returns (election memory){... */\n      swap2\n      swap1\n      pop\n      jump\t// out\n        /* \"contracts/Vote.sol\":3653:3770  function retrieveCandidate(uint256 num) public view returns (candidate memory){... */\n    tag_91:\n        /* \"contracts/Vote.sol\":3714:3730  candidate memory */\n      tag_191\n      tag_192\n      jump\t// in\n    tag_191:\n        /* \"contracts/Vote.sol\":3748:3758  Candidates */\n      0x07\n        /* \"contracts/Vote.sol\":3748:3763  Candidates[num] */\n      0x00\n        /* \"contracts/Vote.sol\":3759:3762  num */\n      dup4\n        /* \"contracts/Vote.sol\":3748:3763  Candidates[num] */\n      dup2\n      mstore\n      0x20\n      add\n      swap1\n      dup2\n      mstore\n      0x20\n      add\n      0x00\n      keccak256\n        /* \"contracts/Vote.sol\":3741:3763  return Candidates[num] */\n      mload(0x40)\n      dup1\n      0x60\n      add\n      0x40\n      mstore\n      swap1\n      dup2\n      0x00\n      dup3\n      add\n      dup1\n      sload\n      tag_194\n      swap1\n      tag_123\n      jump\t// in\n    tag_194:\n      dup1\n      0x1f\n      add\n      0x20\n      dup1\n      swap2\n      div\n      mul\n      0x20\n      add\n      mload(0x40)\n      swap1\n      dup2\n      add\n      0x40\n      mstore\n      dup1\n      swap3\n      swap2\n      swap1\n      dup2\n      dup2\n      mstore\n      0x20\n      add\n      dup3\n      dup1\n      sload\n      tag_195\n      swap1\n      tag_123\n      jump\t// in\n    tag_195:\n      dup1\n      iszero\n      tag_196\n      jumpi\n      dup1\n      0x1f\n      lt\n      tag_197\n      jumpi\n      0x0100\n      dup1\n      dup4\n      sload\n      div\n      mul\n      dup4\n      mstore\n      swap2\n      0x20\n      add\n      swap2\n      jump(tag_196)\n    tag_197:\n      dup3\n      add\n      swap2\n      swap1\n      0x00\n      mstore\n      keccak256(0x00, 0x20)\n      swap1\n    tag_198:\n      dup2\n      sload\n      dup2\n      mstore\n      swap1\n      0x01\n      add\n      swap1\n      0x20\n      add\n      dup1\n      dup4\n      gt\n      tag_198\n      jumpi\n      dup3\n      swap1\n      sub\n      0x1f\n      and\n      dup3\n      add\n      swap2\n    tag_196:\n      pop\n      pop\n      pop\n      pop\n      pop\n      dup2\n      mstore\n      0x20\n      add\n      0x01\n      dup3\n      add\n      0x00\n      swap1\n      sload\n      swap1\n      0x0100\n      exp\n      swap1\n      div\n      0xffffffffffffffffffffffffffffffffffffffff\n      and\n      0xffffffffffffffffffffffffffffffffffffffff\n      and\n      0xffffffffffffffffffffffffffffffffffffffff\n      and\n      dup2\n      mstore\n      0x20\n      add\n      0x02\n      dup3\n      add\n      dup1\n      sload\n      tag_199\n      swap1\n      tag_123\n      jump\t// in\n    tag_199:\n      dup1\n      0x1f\n      add\n      0x20\n      dup1\n      swap2\n      div\n      mul\n      0x20\n      add\n      mload(0x40)\n      swap1\n      dup2\n      add\n      0x40\n      mstore\n      dup1\n      swap3\n      swap2\n      swap1\n      dup2\n      dup2\n      mstore\n      0x20\n      add\n      dup3\n      dup1\n      sload\n      tag_200\n      swap1\n      tag_123\n      jump\t// in\n    tag_200:\n      dup1\n      iszero\n      tag_201\n      jumpi\n      dup1\n      0x1f\n      lt\n      tag_202\n      jumpi\n      0x0100\n      dup1\n      dup4\n      sload\n      div\n      mul\n      dup4\n      mstore\n      swap2\n      0x20\n      add\n      swap2\n      jump(tag_201)\n    tag_202:\n      dup3\n      add\n      swap2\n      swap1\n      0x00\n      mstore\n      keccak256(0x00, 0x20)\n      swap1\n    tag_203:\n      dup2\n      sload\n      dup2\n      mstore\n      swap1\n      0x01\n      add\n      swap1\n      0x20\n      add\n      dup1\n      dup4\n      gt\n      tag_203\n      jumpi\n      dup3\n      swap1\n      sub\n      0x1f\n      and\n      dup3\n      add\n      swap2\n    tag_201:\n      pop\n      pop\n      pop\n      pop\n      pop\n      dup2\n      mstore\n      pop\n      pop\n      swap1\n      pop\n        /* \"contracts/Vote.sol\":3653:3770  function retrieveCandidate(uint256 num) public view returns (candidate memory){... */\n      swap2\n      swap1\n      pop\n      jump\t// out\n        /* \"@openzeppelin/contracts/access/AccessControl.sol\":2027:2076  bytes32 public constant DEFAULT_ADMIN_ROLE = 0x00 */\n    tag_95:\n        /* \"@openzeppelin/contracts/access/AccessControl.sol\":2072:2076  0x00 */\n      0x00\n        /* \"@openzeppelin/contracts/access/AccessControl.sol\":2027:2076  bytes32 public constant DEFAULT_ADMIN_ROLE = 0x00 */\n      dup1\n      shl\n      dup2\n      jump\t// out\n        /* \"contracts/Vote.sol\":586:641  bytes32 public constant VOTER_ROLE = keccak256(\"VOTER\") */\n    tag_98:\n        /* \"contracts/Vote.sol\":623:641  keccak256(\"VOTER\") */\n      0x15283fd96aa656c9df35ac2fcb112678a5f24f1ca97e591a97d1d16003dbfc9c\n        /* \"contracts/Vote.sol\":586:641  bytes32 public constant VOTER_ROLE = keccak256(\"VOTER\") */\n      dup2\n      jump\t// out\n        /* \"@openzeppelin/contracts/access/AccessControl.sol\":5241:5388  function revokeRole(bytes32 role, address account) public virtual override onlyRole(getRoleAdmin(role)) {... */\n    tag_102:\n        /* \"@openzeppelin/contracts/access/AccessControl.sol\":5325:5343  getRoleAdmin(role) */\n      tag_204\n        /* \"@openzeppelin/contracts/access/AccessControl.sol\":5338:5342  role */\n      dup3\n        /* \"@openzeppelin/contracts/access/AccessControl.sol\":5325:5337  getRoleAdmin */\n      tag_37\n        /* \"@openzeppelin/contracts/access/AccessControl.sol\":5325:5343  getRoleAdmin(role) */\n      jump\t// in\n    tag_204:\n        /* \"@openzeppelin/contracts/access/AccessControl.sol\":2505:2521  _checkRole(role) */\n      tag_206\n        /* \"@openzeppelin/contracts/access/AccessControl.sol\":2516:2520  role */\n      dup2\n        /* \"@openzeppelin/contracts/access/AccessControl.sol\":2505:2515  _checkRole */\n      tag_136\n        /* \"@openzeppelin/contracts/access/AccessControl.sol\":2505:2521  _checkRole(role) */\n      jump\t// in\n    tag_206:\n        /* \"@openzeppelin/contracts/access/AccessControl.sol\":5355:5381  _revokeRole(role, account) */\n      tag_208\n        /* \"@openzeppelin/contracts/access/AccessControl.sol\":5367:5371  role */\n      dup4\n        /* \"@openzeppelin/contracts/access/AccessControl.sol\":5373:5380  account */\n      dup4\n        /* \"@openzeppelin/contracts/access/AccessControl.sol\":5355:5366  _revokeRole */\n      tag_154\n        /* \"@openzeppelin/contracts/access/AccessControl.sol\":5355:5381  _revokeRole(role, account) */\n      jump\t// in\n    tag_208:\n        /* \"@openzeppelin/contracts/access/AccessControl.sol\":5241:5388  function revokeRole(bytes32 role, address account) public virtual override onlyRole(getRoleAdmin(role)) {... */\n      pop\n      pop\n      pop\n      jump\t// out\n        /* \"contracts/Vote.sol\":2366:2665  function createCandidate(string memory name, address candAddress, uint256 partyNum) public isInecExec {... */\n    tag_106:\n        /* \"contracts/Vote.sol\":1520:1555  hasRole(INEC_EXEC_ROLE, msg.sender) */\n      tag_210\n        /* \"contracts/Vote.sol\":558:580  keccak256(\"INEC_EXEC\") */\n      0x082f6ed76e0352438e6a6e35c77719c3f04bf277fdc8fec7e5ff5f65e001d902\n        /* \"contracts/Vote.sol\":1544:1554  msg.sender */\n      caller\n        /* \"contracts/Vote.sol\":1520:1527  hasRole */\n      tag_77\n        /* \"contracts/Vote.sol\":1520:1555  hasRole(INEC_EXEC_ROLE, msg.sender) */\n      jump\t// in\n    tag_210:\n        /* \"contracts/Vote.sol\":1512:1591  require(hasRole(INEC_EXEC_ROLE, msg.sender), \"Caller is not an INEC executive\") */\n      tag_211\n      jumpi\n      mload(0x40)\n      0x08c379a000000000000000000000000000000000000000000000000000000000\n      dup2\n      mstore\n      0x04\n      add\n      tag_212\n      swap1\n      tag_166\n      jump\t// in\n    tag_212:\n      mload(0x40)\n      dup1\n      swap2\n      sub\n      swap1\n      revert\n    tag_211:\n        /* \"contracts/Vote.sol\":2510:2514  name */\n      dup3\n        /* \"contracts/Vote.sol\":2478:2488  Candidates */\n      0x07\n        /* \"contracts/Vote.sol\":2478:2502  Candidates[candidateNum] */\n      0x00\n        /* \"contracts/Vote.sol\":2489:2501  candidateNum */\n      sload(0x03)\n        /* \"contracts/Vote.sol\":2478:2502  Candidates[candidateNum] */\n      dup2\n      mstore\n      0x20\n      add\n      swap1\n      dup2\n      mstore\n      0x20\n      add\n      0x00\n      keccak256\n        /* \"contracts/Vote.sol\":2478:2507  Candidates[candidateNum].name */\n      0x00\n      add\n        /* \"contracts/Vote.sol\":2478:2514  Candidates[candidateNum].name = name */\n      swap1\n      dup1\n      mload\n      swap1\n      0x20\n      add\n      swap1\n      tag_214\n      swap3\n      swap2\n      swap1\n      tag_215\n      jump\t// in\n    tag_214:\n      pop\n        /* \"contracts/Vote.sol\":2556:2567  candAddress */\n      dup2\n        /* \"contracts/Vote.sol\":2524:2534  Candidates */\n      0x07\n        /* \"contracts/Vote.sol\":2524:2548  Candidates[candidateNum] */\n      0x00\n        /* \"contracts/Vote.sol\":2535:2547  candidateNum */\n      sload(0x03)\n        /* \"contracts/Vote.sol\":2524:2548  Candidates[candidateNum] */\n      dup2\n      mstore\n      0x20\n      add\n      swap1\n      dup2\n      mstore\n      0x20\n      add\n      0x00\n      keccak256\n        /* \"contracts/Vote.sol\":2524:2553  Candidates[candidateNum].addr */\n      0x01\n      add\n      0x00\n        /* \"contracts/Vote.sol\":2524:2567  Candidates[candidateNum].addr = candAddress */\n      0x0100\n      exp\n      dup2\n      sload\n      dup2\n      0xffffffffffffffffffffffffffffffffffffffff\n      mul\n      not\n      and\n      swap1\n      dup4\n      0xffffffffffffffffffffffffffffffffffffffff\n      and\n      mul\n      or\n      swap1\n      sstore\n      pop\n        /* \"contracts/Vote.sol\":2610:2615  party */\n      0x06\n        /* \"contracts/Vote.sol\":2616:2624  partyNum */\n      dup2\n        /* \"contracts/Vote.sol\":2610:2625  party[partyNum] */\n      dup2\n      sload\n      dup2\n      lt\n      tag_216\n      jumpi\n      tag_217\n      tag_158\n      jump\t// in\n    tag_217:\n    tag_216:\n      swap1\n      0x00\n      mstore\n      keccak256(0x00, 0x20)\n      add\n        /* \"contracts/Vote.sol\":2577:2587  Candidates */\n      0x07\n        /* \"contracts/Vote.sol\":2577:2601  Candidates[candidateNum] */\n      0x00\n        /* \"contracts/Vote.sol\":2588:2600  candidateNum */\n      sload(0x03)\n        /* \"contracts/Vote.sol\":2577:2601  Candidates[candidateNum] */\n      dup2\n      mstore\n      0x20\n      add\n      swap1\n      dup2\n      mstore\n      0x20\n      add\n      0x00\n      keccak256\n        /* \"contracts/Vote.sol\":2577:2607  Candidates[candidateNum].party */\n      0x02\n      add\n        /* \"contracts/Vote.sol\":2577:2625  Candidates[candidateNum].party = party[partyNum] */\n      swap1\n      dup1\n      sload\n      tag_219\n      swap1\n      tag_123\n      jump\t// in\n    tag_219:\n      tag_220\n      swap3\n      swap2\n      swap1\n      tag_221\n      jump\t// in\n    tag_220:\n      pop\n        /* \"contracts/Vote.sol\":2637:2649  candidateNum */\n      0x03\n      0x00\n        /* \"contracts/Vote.sol\":2637:2652  candidateNum ++ */\n      dup2\n      sload\n      dup1\n      swap3\n      swap2\n      swap1\n      tag_222\n      swap1\n      tag_161\n      jump\t// in\n    tag_222:\n      swap2\n      swap1\n      pop\n      sstore\n      pop\n        /* \"contracts/Vote.sol\":2366:2665  function createCandidate(string memory name, address candAddress, uint256 partyNum) public isInecExec {... */\n      pop\n      pop\n      pop\n      jump\t// out\n        /* \"contracts/Vote.sol\":2763:2935  function regVoter(uint256 _nin) public {... */\n    tag_109:\n        /* \"contracts/Vote.sol\":2836:2846  msg.sender */\n      caller\n        /* \"contracts/Vote.sol\":2812:2818  Voters */\n      0x08\n        /* \"contracts/Vote.sol\":2812:2828  Voters[voterNum] */\n      0x00\n        /* \"contracts/Vote.sol\":2819:2827  voterNum */\n      sload(0x04)\n        /* \"contracts/Vote.sol\":2812:2828  Voters[voterNum] */\n      dup2\n      mstore\n      0x20\n      add\n      swap1\n      dup2\n      mstore\n      0x20\n      add\n      0x00\n      keccak256\n        /* \"contracts/Vote.sol\":2812:2833  Voters[voterNum].addr */\n      0x00\n      add\n      0x00\n        /* \"contracts/Vote.sol\":2812:2846  Voters[voterNum].addr = msg.sender */\n      0x0100\n      exp\n      dup2\n      sload\n      dup2\n      0xffffffffffffffffffffffffffffffffffffffff\n      mul\n      not\n      and\n      swap1\n      dup4\n      0xffffffffffffffffffffffffffffffffffffffff\n      and\n      mul\n      or\n      swap1\n      sstore\n      pop\n        /* \"contracts/Vote.sol\":2879:2883  _nin */\n      dup1\n        /* \"contracts/Vote.sol\":2856:2862  Voters */\n      0x08\n        /* \"contracts/Vote.sol\":2856:2872  Voters[voterNum] */\n      0x00\n        /* \"contracts/Vote.sol\":2863:2871  voterNum */\n      sload(0x04)\n        /* \"contracts/Vote.sol\":2856:2872  Voters[voterNum] */\n      dup2\n      mstore\n      0x20\n      add\n      swap1\n      dup2\n      mstore\n      0x20\n      add\n      0x00\n      keccak256\n        /* \"contracts/Vote.sol\":2856:2876  Voters[voterNum].nin */\n      0x01\n      add\n        /* \"contracts/Vote.sol\":2856:2883  Voters[voterNum].nin = _nin */\n      dup2\n      swap1\n      sstore\n      pop\n        /* \"contracts/Vote.sol\":2894:2928  _setupRole(VOTER_ROLE, msg.sender) */\n      tag_224\n        /* \"contracts/Vote.sol\":623:641  keccak256(\"VOTER\") */\n      0x15283fd96aa656c9df35ac2fcb112678a5f24f1ca97e591a97d1d16003dbfc9c\n        /* \"contracts/Vote.sol\":2917:2927  msg.sender */\n      caller\n        /* \"contracts/Vote.sol\":2894:2904  _setupRole */\n      tag_225\n        /* \"contracts/Vote.sol\":2894:2928  _setupRole(VOTER_ROLE, msg.sender) */\n      jump\t// in\n    tag_224:\n        /* \"contracts/Vote.sol\":2763:2935  function regVoter(uint256 _nin) public {... */\n      pop\n      jump\t// out\n        /* \"contracts/Vote.sol\":2046:2156  function createInecExec(address _account) public onlyOwner{... */\n    tag_113:\n        /* \"@openzeppelin/contracts/access/Ownable.sol\":1094:1107  _checkOwner() */\n      tag_227\n        /* \"@openzeppelin/contracts/access/Ownable.sol\":1094:1105  _checkOwner */\n      tag_178\n        /* \"@openzeppelin/contracts/access/Ownable.sol\":1094:1107  _checkOwner() */\n      jump\t// in\n    tag_227:\n        /* \"contracts/Vote.sol\":2114:2149  grantRole(INEC_EXEC_ROLE, _account) */\n      tag_229\n        /* \"contracts/Vote.sol\":558:580  keccak256(\"INEC_EXEC\") */\n      0x082f6ed76e0352438e6a6e35c77719c3f04bf277fdc8fec7e5ff5f65e001d902\n        /* \"contracts/Vote.sol\":2140:2148  _account */\n      dup3\n        /* \"contracts/Vote.sol\":2114:2123  grantRole */\n      tag_52\n        /* \"contracts/Vote.sol\":2114:2149  grantRole(INEC_EXEC_ROLE, _account) */\n      jump\t// in\n    tag_229:\n        /* \"contracts/Vote.sol\":2046:2156  function createInecExec(address _account) public onlyOwner{... */\n      pop\n      jump\t// out\n        /* \"@openzeppelin/contracts/access/Ownable.sol\":2081:2279  function transferOwnership(address newOwner) public virtual onlyOwner {... */\n    tag_116:\n        /* \"@openzeppelin/contracts/access/Ownable.sol\":1094:1107  _checkOwner() */\n      tag_231\n        /* \"@openzeppelin/contracts/access/Ownable.sol\":1094:1105  _checkOwner */\n      tag_178\n        /* \"@openzeppelin/contracts/access/Ownable.sol\":1094:1107  _checkOwner() */\n      jump\t// in\n    tag_231:\n        /* \"@openzeppelin/contracts/access/Ownable.sol\":2189:2190  0 */\n      0x00\n        /* \"@openzeppelin/contracts/access/Ownable.sol\":2169:2191  newOwner != address(0) */\n      0xffffffffffffffffffffffffffffffffffffffff\n      and\n        /* \"@openzeppelin/contracts/access/Ownable.sol\":2169:2177  newOwner */\n      dup2\n        /* \"@openzeppelin/contracts/access/Ownable.sol\":2169:2191  newOwner != address(0) */\n      0xffffffffffffffffffffffffffffffffffffffff\n      and\n      eq\n      iszero\n        /* \"@openzeppelin/contracts/access/Ownable.sol\":2161:2234  require(newOwner != address(0), \"Ownable: new owner is the zero address\") */\n      tag_233\n      jumpi\n      mload(0x40)\n      0x08c379a000000000000000000000000000000000000000000000000000000000\n      dup2\n      mstore\n      0x04\n      add\n      tag_234\n      swap1\n      tag_235\n      jump\t// in\n    tag_234:\n      mload(0x40)\n      dup1\n      swap2\n      sub\n      swap1\n      revert\n    tag_233:\n        /* \"@openzeppelin/contracts/access/Ownable.sol\":2244:2272  _transferOwnership(newOwner) */\n      tag_236\n        /* \"@openzeppelin/contracts/access/Ownable.sol\":2263:2271  newOwner */\n      dup2\n        /* \"@openzeppelin/contracts/access/Ownable.sol\":2244:2262  _transferOwnership */\n      tag_181\n        /* \"@openzeppelin/contracts/access/Ownable.sol\":2244:2272  _transferOwnership(newOwner) */\n      jump\t// in\n    tag_236:\n        /* \"@openzeppelin/contracts/access/Ownable.sol\":2081:2279  function transferOwnership(address newOwner) public virtual onlyOwner {... */\n      pop\n      jump\t// out\n        /* \"@openzeppelin/contracts/utils/introspection/ERC165.sol\":829:984  function supportsInterface(bytes4 interfaceId) public view virtual override returns (bool) {... */\n    tag_120:\n        /* \"@openzeppelin/contracts/utils/introspection/ERC165.sol\":914:918  bool */\n      0x00\n        /* \"@openzeppelin/contracts/utils/introspection/ERC165.sol\":952:977  type(IERC165).interfaceId */\n      0x01ffc9a700000000000000000000000000000000000000000000000000000000\n        /* \"@openzeppelin/contracts/utils/introspection/ERC165.sol\":937:977  interfaceId == type(IERC165).interfaceId */\n      not(0xffffffffffffffffffffffffffffffffffffffffffffffffffffffff)\n      and\n        /* \"@openzeppelin/contracts/utils/introspection/ERC165.sol\":937:948  interfaceId */\n      dup3\n        /* \"@openzeppelin/contracts/utils/introspection/ERC165.sol\":937:977  interfaceId == type(IERC165).interfaceId */\n      not(0xffffffffffffffffffffffffffffffffffffffffffffffffffffffff)\n      and\n      eq\n        /* \"@openzeppelin/contracts/utils/introspection/ERC165.sol\":930:977  return interfaceId == type(IERC165).interfaceId */\n      swap1\n      pop\n        /* \"@openzeppelin/contracts/utils/introspection/ERC165.sol\":829:984  function supportsInterface(bytes4 interfaceId) public view virtual override returns (bool) {... */\n      swap2\n      swap1\n      pop\n      jump\t// out\n        /* \"@openzeppelin/contracts/access/AccessControl.sol\":3334:3437  function _checkRole(bytes32 role) internal view virtual {... */\n    tag_136:\n        /* \"@openzeppelin/contracts/access/AccessControl.sol\":3400:3430  _checkRole(role, _msgSender()) */\n      tag_239\n        /* \"@openzeppelin/contracts/access/AccessControl.sol\":3411:3415  role */\n      dup2\n        /* \"@openzeppelin/contracts/access/AccessControl.sol\":3417:3429  _msgSender() */\n      tag_240\n        /* \"@openzeppelin/contracts/access/AccessControl.sol\":3417:3427  _msgSender */\n      tag_149\n        /* \"@openzeppelin/contracts/access/AccessControl.sol\":3417:3429  _msgSender() */\n      jump\t// in\n    tag_240:\n        /* \"@openzeppelin/contracts/access/AccessControl.sol\":3400:3410  _checkRole */\n      tag_241\n        /* \"@openzeppelin/contracts/access/AccessControl.sol\":3400:3430  _checkRole(role, _msgSender()) */\n      jump\t// in\n    tag_239:\n        /* \"@openzeppelin/contracts/access/AccessControl.sol\":3334:3437  function _checkRole(bytes32 role) internal view virtual {... */\n      pop\n      jump\t// out\n        /* \"@openzeppelin/contracts/access/AccessControl.sol\":7474:7707  function _grantRole(bytes32 role, address account) internal virtual {... */\n    tag_139:\n        /* \"@openzeppelin/contracts/access/AccessControl.sol\":7557:7579  hasRole(role, account) */\n      tag_243\n        /* \"@openzeppelin/contracts/access/AccessControl.sol\":7565:7569  role */\n      dup3\n        /* \"@openzeppelin/contracts/access/AccessControl.sol\":7571:7578  account */\n      dup3\n        /* \"@openzeppelin/contracts/access/AccessControl.sol\":7557:7564  hasRole */\n      tag_77\n        /* \"@openzeppelin/contracts/access/AccessControl.sol\":7557:7579  hasRole(role, account) */\n      jump\t// in\n    tag_243:\n        /* \"@openzeppelin/contracts/access/AccessControl.sol\":7552:7701  if (!hasRole(role, account)) {... */\n      tag_244\n      jumpi\n        /* \"@openzeppelin/contracts/access/AccessControl.sol\":7627:7631  true */\n      0x01\n        /* \"@openzeppelin/contracts/access/AccessControl.sol\":7595:7601  _roles */\n      dup1\n        /* \"@openzeppelin/contracts/access/AccessControl.sol\":7595:7607  _roles[role] */\n      0x00\n        /* \"@openzeppelin/contracts/access/AccessControl.sol\":7602:7606  role */\n      dup5\n        /* \"@openzeppelin/contracts/access/AccessControl.sol\":7595:7607  _roles[role] */\n      dup2\n      mstore\n      0x20\n      add\n      swap1\n      dup2\n      mstore\n      0x20\n      add\n      0x00\n      keccak256\n        /* \"@openzeppelin/contracts/access/AccessControl.sol\":7595:7615  _roles[role].members */\n      0x00\n      add\n        /* \"@openzeppelin/contracts/access/AccessControl.sol\":7595:7624  _roles[role].members[account] */\n      0x00\n        /* \"@openzeppelin/contracts/access/AccessControl.sol\":7616:7623  account */\n      dup4\n        /* \"@openzeppelin/contracts/access/AccessControl.sol\":7595:7624  _roles[role].members[account] */\n      0xffffffffffffffffffffffffffffffffffffffff\n      and\n      0xffffffffffffffffffffffffffffffffffffffff\n      and\n      dup2\n      mstore\n      0x20\n      add\n      swap1\n      dup2\n      mstore\n      0x20\n      add\n      0x00\n      keccak256\n      0x00\n        /* \"@openzeppelin/contracts/access/AccessControl.sol\":7595:7631  _roles[role].members[account] = true */\n      0x0100\n      exp\n      dup2\n      sload\n      dup2\n      0xff\n      mul\n      not\n      and\n      swap1\n      dup4\n      iszero\n      iszero\n      mul\n      or\n      swap1\n      sstore\n      pop\n        /* \"@openzeppelin/contracts/access/AccessControl.sol\":7677:7689  _msgSender() */\n      tag_245\n        /* \"@openzeppelin/contracts/access/AccessControl.sol\":7677:7687  _msgSender */\n      tag_149\n        /* \"@openzeppelin/contracts/access/AccessControl.sol\":7677:7689  _msgSender() */\n      jump\t// in\n    tag_245:\n        /* \"@openzeppelin/contracts/access/AccessControl.sol\":7650:7690  RoleGranted(role, account, _msgSender()) */\n      0xffffffffffffffffffffffffffffffffffffffff\n      and\n        /* \"@openzeppelin/contracts/access/AccessControl.sol\":7668:7675  account */\n      dup2\n        /* \"@openzeppelin/contracts/access/AccessControl.sol\":7650:7690  RoleGranted(role, account, _msgSender()) */\n      0xffffffffffffffffffffffffffffffffffffffff\n      and\n        /* \"@openzeppelin/contracts/access/AccessControl.sol\":7662:7666  role */\n      dup4\n        /* \"@openzeppelin/contracts/access/AccessControl.sol\":7650:7690  RoleGranted(role, account, _msgSender()) */\n      0x2f8788117e7eff1d82e926ec794901d17c78024a50270940304540a733656f0d\n      mload(0x40)\n      mload(0x40)\n      dup1\n      swap2\n      sub\n      swap1\n      log4\n        /* \"@openzeppelin/contracts/access/AccessControl.sol\":7552:7701  if (!hasRole(role, account)) {... */\n    tag_244:\n        /* \"@openzeppelin/contracts/access/AccessControl.sol\":7474:7707  function _grantRole(bytes32 role, address account) internal virtual {... */\n      pop\n      pop\n      jump\t// out\n        /* \"@openzeppelin/contracts/utils/Context.sol\":640:736  function _msgSender() internal view virtual returns (address) {... */\n    tag_149:\n        /* \"@openzeppelin/contracts/utils/Context.sol\":693:700  address */\n      0x00\n        /* \"@openzeppelin/contracts/utils/Context.sol\":719:729  msg.sender */\n      caller\n        /* \"@openzeppelin/contracts/utils/Context.sol\":712:729  return msg.sender */\n      swap1\n      pop\n        /* \"@openzeppelin/contracts/utils/Context.sol\":640:736  function _msgSender() internal view virtual returns (address) {... */\n      swap1\n      jump\t// out\n        /* \"@openzeppelin/contracts/access/AccessControl.sol\":7878:8112  function _revokeRole(bytes32 role, address account) internal virtual {... */\n    tag_154:\n        /* \"@openzeppelin/contracts/access/AccessControl.sol\":7961:7983  hasRole(role, account) */\n      tag_248\n        /* \"@openzeppelin/contracts/access/AccessControl.sol\":7969:7973  role */\n      dup3\n        /* \"@openzeppelin/contracts/access/AccessControl.sol\":7975:7982  account */\n      dup3\n        /* \"@openzeppelin/contracts/access/AccessControl.sol\":7961:7968  hasRole */\n      tag_77\n        /* \"@openzeppelin/contracts/access/AccessControl.sol\":7961:7983  hasRole(role, account) */\n      jump\t// in\n    tag_248:\n        /* \"@openzeppelin/contracts/access/AccessControl.sol\":7957:8106  if (hasRole(role, account)) {... */\n      iszero\n      tag_249\n      jumpi\n        /* \"@openzeppelin/contracts/access/AccessControl.sol\":8031:8036  false */\n      0x00\n        /* \"@openzeppelin/contracts/access/AccessControl.sol\":7999:8005  _roles */\n      0x01\n        /* \"@openzeppelin/contracts/access/AccessControl.sol\":7999:8011  _roles[role] */\n      0x00\n        /* \"@openzeppelin/contracts/access/AccessControl.sol\":8006:8010  role */\n      dup5\n        /* \"@openzeppelin/contracts/access/AccessControl.sol\":7999:8011  _roles[role] */\n      dup2\n      mstore\n      0x20\n      add\n      swap1\n      dup2\n      mstore\n      0x20\n      add\n      0x00\n      keccak256\n        /* \"@openzeppelin/contracts/access/AccessControl.sol\":7999:8019  _roles[role].members */\n      0x00\n      add\n        /* \"@openzeppelin/contracts/access/AccessControl.sol\":7999:8028  _roles[role].members[account] */\n      0x00\n        /* \"@openzeppelin/contracts/access/AccessControl.sol\":8020:8027  account */\n      dup4\n        /* \"@openzeppelin/contracts/access/AccessControl.sol\":7999:8028  _roles[role].members[account] */\n      0xffffffffffffffffffffffffffffffffffffffff\n      and\n      0xffffffffffffffffffffffffffffffffffffffff\n      and\n      dup2\n      mstore\n      0x20\n      add\n      swap1\n      dup2\n      mstore\n      0x20\n      add\n      0x00\n      keccak256\n      0x00\n        /* \"@openzeppelin/contracts/access/AccessControl.sol\":7999:8036  _roles[role].members[account] = false */\n      0x0100\n      exp\n      dup2\n      sload\n      dup2\n      0xff\n      mul\n      not\n      and\n      swap1\n      dup4\n      iszero\n      iszero\n      mul\n      or\n      swap1\n      sstore\n      pop\n        /* \"@openzeppelin/contracts/access/AccessControl.sol\":8082:8094  _msgSender() */\n      tag_250\n        /* \"@openzeppelin/contracts/access/AccessControl.sol\":8082:8092  _msgSender */\n      tag_149\n        /* \"@openzeppelin/contracts/access/AccessControl.sol\":8082:8094  _msgSender() */\n      jump\t// in\n    tag_250:\n        /* \"@openzeppelin/contracts/access/AccessControl.sol\":8055:8095  RoleRevoked(role, account, _msgSender()) */\n      0xffffffffffffffffffffffffffffffffffffffff\n      and\n        /* \"@openzeppelin/contracts/access/AccessControl.sol\":8073:8080  account */\n      dup2\n        /* \"@openzeppelin/contracts/access/AccessControl.sol\":8055:8095  RoleRevoked(role, account, _msgSender()) */\n      0xffffffffffffffffffffffffffffffffffffffff\n      and\n        /* \"@openzeppelin/contracts/access/AccessControl.sol\":8067:8071  role */\n      dup4\n        /* \"@openzeppelin/contracts/access/AccessControl.sol\":8055:8095  RoleRevoked(role, account, _msgSender()) */\n      0xf6391f5c32d9c69d2a47ea670b442974b53935d1edc7fd64eb21e047a839171b\n      mload(0x40)\n      mload(0x40)\n      dup1\n      swap2\n      sub\n      swap1\n      log4\n        /* \"@openzeppelin/contracts/access/AccessControl.sol\":7957:8106  if (hasRole(role, account)) {... */\n    tag_249:\n        /* \"@openzeppelin/contracts/access/AccessControl.sol\":7878:8112  function _revokeRole(bytes32 role, address account) internal virtual {... */\n      pop\n      pop\n      jump\t// out\n        /* \"@openzeppelin/contracts/access/Ownable.sol\":1359:1489  function _checkOwner() internal view virtual {... */\n    tag_178:\n        /* \"@openzeppelin/contracts/access/Ownable.sol\":1433:1445  _msgSender() */\n      tag_252\n        /* \"@openzeppelin/contracts/access/Ownable.sol\":1433:1443  _msgSender */\n      tag_149\n        /* \"@openzeppelin/contracts/access/Ownable.sol\":1433:1445  _msgSender() */\n      jump\t// in\n    tag_252:\n        /* \"@openzeppelin/contracts/access/Ownable.sol\":1422:1445  owner() == _msgSender() */\n      0xffffffffffffffffffffffffffffffffffffffff\n      and\n        /* \"@openzeppelin/contracts/access/Ownable.sol\":1422:1429  owner() */\n      tag_253\n        /* \"@openzeppelin/contracts/access/Ownable.sol\":1422:1427  owner */\n      tag_72\n        /* \"@openzeppelin/contracts/access/Ownable.sol\":1422:1429  owner() */\n      jump\t// in\n    tag_253:\n        /* \"@openzeppelin/contracts/access/Ownable.sol\":1422:1445  owner() == _msgSender() */\n      0xffffffffffffffffffffffffffffffffffffffff\n      and\n      eq\n        /* \"@openzeppelin/contracts/access/Ownable.sol\":1414:1482  require(owner() == _msgSender(), \"Ownable: caller is not the owner\") */\n      tag_254\n      jumpi\n      mload(0x40)\n      0x08c379a000000000000000000000000000000000000000000000000000000000\n      dup2\n      mstore\n      0x04\n      add\n      tag_255\n      swap1\n      tag_256\n      jump\t// in\n    tag_255:\n      mload(0x40)\n      dup1\n      swap2\n      sub\n      swap1\n      revert\n    tag_254:\n        /* \"@openzeppelin/contracts/access/Ownable.sol\":1359:1489  function _checkOwner() internal view virtual {... */\n      jump\t// out\n        /* \"@openzeppelin/contracts/access/Ownable.sol\":2433:2620  function _transferOwnership(address newOwner) internal virtual {... */\n    tag_181:\n        /* \"@openzeppelin/contracts/access/Ownable.sol\":2506:2522  address oldOwner */\n      0x00\n        /* \"@openzeppelin/contracts/access/Ownable.sol\":2525:2531  _owner */\n      dup1\n      0x00\n      swap1\n      sload\n      swap1\n      0x0100\n      exp\n      swap1\n      div\n      0xffffffffffffffffffffffffffffffffffffffff\n      and\n        /* \"@openzeppelin/contracts/access/Ownable.sol\":2506:2531  address oldOwner = _owner */\n      swap1\n      pop\n        /* \"@openzeppelin/contracts/access/Ownable.sol\":2550:2558  newOwner */\n      dup2\n        /* \"@openzeppelin/contracts/access/Ownable.sol\":2541:2547  _owner */\n      0x00\n      dup1\n        /* \"@openzeppelin/contracts/access/Ownable.sol\":2541:2558  _owner = newOwner */\n      0x0100\n      exp\n      dup2\n      sload\n      dup2\n      0xffffffffffffffffffffffffffffffffffffffff\n      mul\n      not\n      and\n      swap1\n      dup4\n      0xffffffffffffffffffffffffffffffffffffffff\n      and\n      mul\n      or\n      swap1\n      sstore\n      pop\n        /* \"@openzeppelin/contracts/access/Ownable.sol\":2604:2612  newOwner */\n      dup2\n        /* \"@openzeppelin/contracts/access/Ownable.sol\":2573:2613  OwnershipTransferred(oldOwner, newOwner) */\n      0xffffffffffffffffffffffffffffffffffffffff\n      and\n        /* \"@openzeppelin/contracts/access/Ownable.sol\":2594:2602  oldOwner */\n      dup2\n        /* \"@openzeppelin/contracts/access/Ownable.sol\":2573:2613  OwnershipTransferred(oldOwner, newOwner) */\n      0xffffffffffffffffffffffffffffffffffffffff\n      and\n      0x8be0079c531659141344cd1fd0a4f28419497f9722a3daafe3b4186f6b6457e0\n      mload(0x40)\n      mload(0x40)\n      dup1\n      swap2\n      sub\n      swap1\n      log3\n        /* \"@openzeppelin/contracts/access/Ownable.sol\":2496:2620  {... */\n      pop\n        /* \"@openzeppelin/contracts/access/Ownable.sol\":2433:2620  function _transferOwnership(address newOwner) internal virtual {... */\n      pop\n      jump\t// out\n        /* \"@openzeppelin/contracts/access/AccessControl.sol\":6824:6934  function _setupRole(bytes32 role, address account) internal virtual {... */\n    tag_225:\n        /* \"@openzeppelin/contracts/access/AccessControl.sol\":6902:6927  _grantRole(role, account) */\n      tag_259\n        /* \"@openzeppelin/contracts/access/AccessControl.sol\":6913:6917  role */\n      dup3\n        /* \"@openzeppelin/contracts/access/AccessControl.sol\":6919:6926  account */\n      dup3\n        /* \"@openzeppelin/contracts/access/AccessControl.sol\":6902:6912  _grantRole */\n      tag_139\n        /* \"@openzeppelin/contracts/access/AccessControl.sol\":6902:6927  _grantRole(role, account) */\n      jump\t// in\n    tag_259:\n        /* \"@openzeppelin/contracts/access/AccessControl.sol\":6824:6934  function _setupRole(bytes32 role, address account) internal virtual {... */\n      pop\n      pop\n      jump\t// out\n        /* \"@openzeppelin/contracts/access/AccessControl.sol\":3718:4210  function _checkRole(bytes32 role, address account) internal view virtual {... */\n    tag_241:\n        /* \"@openzeppelin/contracts/access/AccessControl.sol\":3806:3828  hasRole(role, account) */\n      tag_261\n        /* \"@openzeppelin/contracts/access/AccessControl.sol\":3814:3818  role */\n      dup3\n        /* \"@openzeppelin/contracts/access/AccessControl.sol\":3820:3827  account */\n      dup3\n        /* \"@openzeppelin/contracts/access/AccessControl.sol\":3806:3813  hasRole */\n      tag_77\n        /* \"@openzeppelin/contracts/access/AccessControl.sol\":3806:3828  hasRole(role, account) */\n      jump\t// in\n    tag_261:\n        /* \"@openzeppelin/contracts/access/AccessControl.sol\":3801:4204  if (!hasRole(role, account)) {... */\n      tag_262\n      jumpi\n        /* \"@openzeppelin/contracts/access/AccessControl.sol\":3989:4030  Strings.toHexString(uint160(account), 20) */\n      tag_263\n        /* \"@openzeppelin/contracts/access/AccessControl.sol\":4017:4024  account */\n      dup2\n        /* \"@openzeppelin/contracts/access/AccessControl.sol\":3989:4030  Strings.toHexString(uint160(account), 20) */\n      0xffffffffffffffffffffffffffffffffffffffff\n      and\n        /* \"@openzeppelin/contracts/access/AccessControl.sol\":4027:4029  20 */\n      0x14\n        /* \"@openzeppelin/contracts/access/AccessControl.sol\":3989:4008  Strings.toHexString */\n      tag_264\n        /* \"@openzeppelin/contracts/access/AccessControl.sol\":3989:4030  Strings.toHexString(uint160(account), 20) */\n      jump\t// in\n    tag_263:\n        /* \"@openzeppelin/contracts/access/AccessControl.sol\":4101:4139  Strings.toHexString(uint256(role), 32) */\n      tag_265\n        /* \"@openzeppelin/contracts/access/AccessControl.sol\":4129:4133  role */\n      dup4\n        /* \"@openzeppelin/contracts/access/AccessControl.sol\":4121:4134  uint256(role) */\n      0x00\n      shr\n        /* \"@openzeppelin/contracts/access/AccessControl.sol\":4136:4138  32 */\n      0x20\n        /* \"@openzeppelin/contracts/access/AccessControl.sol\":4101:4120  Strings.toHexString */\n      tag_264\n        /* \"@openzeppelin/contracts/access/AccessControl.sol\":4101:4139  Strings.toHexString(uint256(role), 32) */\n      jump\t// in\n    tag_265:\n        /* \"@openzeppelin/contracts/access/AccessControl.sol\":3896:4161  abi.encodePacked(... */\n      add(0x20, mload(0x40))\n      tag_266\n      swap3\n      swap2\n      swap1\n      tag_267\n      jump\t// in\n    tag_266:\n      mload(0x40)\n      0x20\n      dup2\n      dup4\n      sub\n      sub\n      dup2\n      mstore\n      swap1\n      0x40\n      mstore\n        /* \"@openzeppelin/contracts/access/AccessControl.sol\":3844:4193  revert(... */\n      mload(0x40)\n      0x08c379a000000000000000000000000000000000000000000000000000000000\n      dup2\n      mstore\n      0x04\n      add\n      tag_268\n      swap2\n      swap1\n      tag_57\n      jump\t// in\n    tag_268:\n      mload(0x40)\n      dup1\n      swap2\n      sub\n      swap1\n      revert\n        /* \"@openzeppelin/contracts/access/AccessControl.sol\":3801:4204  if (!hasRole(role, account)) {... */\n    tag_262:\n        /* \"@openzeppelin/contracts/access/AccessControl.sol\":3718:4210  function _checkRole(bytes32 role, address account) internal view virtual {... */\n      pop\n      pop\n      jump\t// out\n        /* \"@openzeppelin/contracts/utils/Strings.sol\":1652:2093  function toHexString(uint256 value, uint256 length) internal pure returns (string memory) {... */\n    tag_264:\n        /* \"@openzeppelin/contracts/utils/Strings.sol\":1727:1740  string memory */\n      0x60\n        /* \"@openzeppelin/contracts/utils/Strings.sol\":1752:1771  bytes memory buffer */\n      0x00\n        /* \"@openzeppelin/contracts/utils/Strings.sol\":1797:1798  2 */\n      0x02\n        /* \"@openzeppelin/contracts/utils/Strings.sol\":1788:1794  length */\n      dup4\n        /* \"@openzeppelin/contracts/utils/Strings.sol\":1784:1785  2 */\n      0x02\n        /* \"@openzeppelin/contracts/utils/Strings.sol\":1784:1794  2 * length */\n      tag_270\n      swap2\n      swap1\n      tag_271\n      jump\t// in\n    tag_270:\n        /* \"@openzeppelin/contracts/utils/Strings.sol\":1784:1798  2 * length + 2 */\n      tag_272\n      swap2\n      swap1\n      tag_273\n      jump\t// in\n    tag_272:\n        /* \"@openzeppelin/contracts/utils/Strings.sol\":1774:1799  new bytes(2 * length + 2) */\n      0xffffffffffffffff\n      dup2\n      gt\n      iszero\n      tag_274\n      jumpi\n      tag_275\n      tag_276\n      jump\t// in\n    tag_275:\n    tag_274:\n      mload(0x40)\n      swap1\n      dup1\n      dup3\n      mstore\n      dup1\n      0x1f\n      add\n      not(0x1f)\n      and\n      0x20\n      add\n      dup3\n      add\n      0x40\n      mstore\n      dup1\n      iszero\n      tag_277\n      jumpi\n      dup2\n      0x20\n      add\n      0x01\n      dup3\n      mul\n      dup1\n      calldatasize\n      dup4\n      calldatacopy\n      dup1\n      dup3\n      add\n      swap2\n      pop\n      pop\n      swap1\n      pop\n    tag_277:\n      pop\n        /* \"@openzeppelin/contracts/utils/Strings.sol\":1752:1799  bytes memory buffer = new bytes(2 * length + 2) */\n      swap1\n      pop\n        /* \"@openzeppelin/contracts/utils/Strings.sol\":1809:1824  buffer[0] = \"0\" */\n      0x3000000000000000000000000000000000000000000000000000000000000000\n        /* \"@openzeppelin/contracts/utils/Strings.sol\":1809:1815  buffer */\n      dup2\n        /* \"@openzeppelin/contracts/utils/Strings.sol\":1816:1817  0 */\n      0x00\n        /* \"@openzeppelin/contracts/utils/Strings.sol\":1809:1818  buffer[0] */\n      dup2\n      mload\n      dup2\n      lt\n      tag_278\n      jumpi\n      tag_279\n      tag_158\n      jump\t// in\n    tag_279:\n    tag_278:\n      0x20\n      add\n      add\n        /* \"@openzeppelin/contracts/utils/Strings.sol\":1809:1824  buffer[0] = \"0\" */\n      swap1\n      not(0xffffffffffffffffffffffffffffffffffffffffffffffffffffffffffffff)\n      and\n      swap1\n      dup2\n      0x00\n      byte\n      swap1\n      mstore8\n      pop\n        /* \"@openzeppelin/contracts/utils/Strings.sol\":1834:1849  buffer[1] = \"x\" */\n      0x7800000000000000000000000000000000000000000000000000000000000000\n        /* \"@openzeppelin/contracts/utils/Strings.sol\":1834:1840  buffer */\n      dup2\n        /* \"@openzeppelin/contracts/utils/Strings.sol\":1841:1842  1 */\n      0x01\n        /* \"@openzeppelin/contracts/utils/Strings.sol\":1834:1843  buffer[1] */\n      dup2\n      mload\n      dup2\n      lt\n      tag_280\n      jumpi\n      tag_281\n      tag_158\n      jump\t// in\n    tag_281:\n    tag_280:\n      0x20\n      add\n      add\n        /* \"@openzeppelin/contracts/utils/Strings.sol\":1834:1849  buffer[1] = \"x\" */\n      swap1\n      not(0xffffffffffffffffffffffffffffffffffffffffffffffffffffffffffffff)\n      and\n      swap1\n      dup2\n      0x00\n      byte\n      swap1\n      mstore8\n      pop\n        /* \"@openzeppelin/contracts/utils/Strings.sol\":1864:1873  uint256 i */\n      0x00\n        /* \"@openzeppelin/contracts/utils/Strings.sol\":1889:1890  1 */\n      0x01\n        /* \"@openzeppelin/contracts/utils/Strings.sol\":1880:1886  length */\n      dup5\n        /* \"@openzeppelin/contracts/utils/Strings.sol\":1876:1877  2 */\n      0x02\n        /* \"@openzeppelin/contracts/utils/Strings.sol\":1876:1886  2 * length */\n      tag_285\n      swap2\n      swap1\n      tag_271\n      jump\t// in\n    tag_285:\n        /* \"@openzeppelin/contracts/utils/Strings.sol\":1876:1890  2 * length + 1 */\n      tag_286\n      swap2\n      swap1\n      tag_273\n      jump\t// in\n    tag_286:\n        /* \"@openzeppelin/contracts/utils/Strings.sol\":1864:1890  uint256 i = 2 * length + 1 */\n      swap1\n      pop\n        /* \"@openzeppelin/contracts/utils/Strings.sol\":1859:1991  for (uint256 i = 2 * length + 1; i > 1; --i) {... */\n    tag_282:\n        /* \"@openzeppelin/contracts/utils/Strings.sol\":1896:1897  1 */\n      0x01\n        /* \"@openzeppelin/contracts/utils/Strings.sol\":1892:1893  i */\n      dup2\n        /* \"@openzeppelin/contracts/utils/Strings.sol\":1892:1897  i > 1 */\n      gt\n        /* \"@openzeppelin/contracts/utils/Strings.sol\":1859:1991  for (uint256 i = 2 * length + 1; i > 1; --i) {... */\n      iszero\n      tag_283\n      jumpi\n        /* \"@openzeppelin/contracts/utils/Strings.sol\":1930:1942  _HEX_SYMBOLS */\n      0x3031323334353637383961626364656600000000000000000000000000000000\n        /* \"@openzeppelin/contracts/utils/Strings.sol\":1951:1954  0xf */\n      0x0f\n        /* \"@openzeppelin/contracts/utils/Strings.sol\":1943:1948  value */\n      dup7\n        /* \"@openzeppelin/contracts/utils/Strings.sol\":1943:1954  value & 0xf */\n      and\n        /* \"@openzeppelin/contracts/utils/Strings.sol\":1930:1955  _HEX_SYMBOLS[value & 0xf] */\n      0x10\n      dup2\n      lt\n      tag_287\n      jumpi\n      tag_288\n      tag_158\n      jump\t// in\n    tag_288:\n    tag_287:\n      byte\n      0xf8\n      shl\n        /* \"@openzeppelin/contracts/utils/Strings.sol\":1918:1924  buffer */\n      dup3\n        /* \"@openzeppelin/contracts/utils/Strings.sol\":1925:1926  i */\n      dup3\n        /* \"@openzeppelin/contracts/utils/Strings.sol\":1918:1927  buffer[i] */\n      dup2\n      mload\n      dup2\n      lt\n      tag_289\n      jumpi\n      tag_290\n      tag_158\n      jump\t// in\n    tag_290:\n    tag_289:\n      0x20\n      add\n      add\n        /* \"@openzeppelin/contracts/utils/Strings.sol\":1918:1955  buffer[i] = _HEX_SYMBOLS[value & 0xf] */\n      swap1\n      not(0xffffffffffffffffffffffffffffffffffffffffffffffffffffffffffffff)\n      and\n      swap1\n      dup2\n      0x00\n      byte\n      swap1\n      mstore8\n      pop\n        /* \"@openzeppelin/contracts/utils/Strings.sol\":1979:1980  4 */\n      0x04\n        /* \"@openzeppelin/contracts/utils/Strings.sol\":1969:1980  value >>= 4 */\n      dup6\n      swap1\n      shr\n      swap5\n      pop\n        /* \"@openzeppelin/contracts/utils/Strings.sol\":1899:1902  --i */\n      dup1\n      tag_291\n      swap1\n      tag_292\n      jump\t// in\n    tag_291:\n      swap1\n      pop\n        /* \"@openzeppelin/contracts/utils/Strings.sol\":1859:1991  for (uint256 i = 2 * length + 1; i > 1; --i) {... */\n      jump(tag_282)\n    tag_283:\n      pop\n        /* \"@openzeppelin/contracts/utils/Strings.sol\":2017:2018  0 */\n      0x00\n        /* \"@openzeppelin/contracts/utils/Strings.sol\":2008:2013  value */\n      dup5\n        /* \"@openzeppelin/contracts/utils/Strings.sol\":2008:2018  value == 0 */\n      eq\n        /* \"@openzeppelin/contracts/utils/Strings.sol\":2000:2055  require(value == 0, \"Strings: hex length insufficient\") */\n      tag_293\n      jumpi\n      mload(0x40)\n      0x08c379a000000000000000000000000000000000000000000000000000000000\n      dup2\n      mstore\n      0x04\n      add\n      tag_294\n      swap1\n      tag_295\n      jump\t// in\n    tag_294:\n      mload(0x40)\n      dup1\n      swap2\n      sub\n      swap1\n      revert\n    tag_293:\n        /* \"@openzeppelin/contracts/utils/Strings.sol\":2079:2085  buffer */\n      dup1\n        /* \"@openzeppelin/contracts/utils/Strings.sol\":2065:2086  return string(buffer) */\n      swap2\n      pop\n      pop\n        /* \"@openzeppelin/contracts/utils/Strings.sol\":1652:2093  function toHexString(uint256 value, uint256 length) internal pure returns (string memory) {... */\n      swap3\n      swap2\n      pop\n      pop\n      jump\t// out\n    tag_185:\n      mload(0x40)\n      dup1\n      0xa0\n      add\n      0x40\n      mstore\n      dup1\n      0x60\n      dup2\n      mstore\n      0x20\n      add\n      0x60\n      dup2\n      mstore\n      0x20\n      add\n      0x00\n      dup2\n      mstore\n      0x20\n      add\n      0x00\n      dup2\n      mstore\n      0x20\n      add\n      iszero(iszero(0x00))\n      dup2\n      mstore\n      pop\n      swap1\n      jump\t// out\n    tag_192:\n      mload(0x40)\n      dup1\n      0x60\n      add\n      0x40\n      mstore\n      dup1\n      0x60\n      dup2\n      mstore\n      0x20\n      add\n      and(0xffffffffffffffffffffffffffffffffffffffff, 0x00)\n      dup2\n      mstore\n      0x20\n      add\n      0x60\n      dup2\n      mstore\n      pop\n      swap1\n      jump\t// out\n    tag_215:\n      dup3\n      dup1\n      sload\n      tag_296\n      swap1\n      tag_123\n      jump\t// in\n    tag_296:\n      swap1\n      0x00\n      mstore\n      keccak256(0x00, 0x20)\n      swap1\n      0x1f\n      add\n      0x20\n      swap1\n      div\n      dup2\n      add\n      swap3\n      dup3\n      tag_298\n      jumpi\n      0x00\n      dup6\n      sstore\n      jump(tag_297)\n    tag_298:\n      dup3\n      0x1f\n      lt\n      tag_299\n      jumpi\n      dup1\n      mload\n      not(0xff)\n      and\n      dup4\n      dup1\n      add\n      or\n      dup6\n      sstore\n      jump(tag_297)\n    tag_299:\n      dup3\n      dup1\n      add\n      0x01\n      add\n      dup6\n      sstore\n      dup3\n      iszero\n      tag_297\n      jumpi\n      swap2\n      dup3\n      add\n    tag_300:\n      dup3\n      dup2\n      gt\n      iszero\n      tag_301\n      jumpi\n      dup3\n      mload\n      dup3\n      sstore\n      swap2\n      0x20\n      add\n      swap2\n      swap1\n      0x01\n      add\n      swap1\n      jump(tag_300)\n    tag_301:\n    tag_297:\n      pop\n      swap1\n      pop\n      tag_302\n      swap2\n      swap1\n      tag_303\n      jump\t// in\n    tag_302:\n      pop\n      swap1\n      jump\t// out\n    tag_221:\n      dup3\n      dup1\n      sload\n      tag_304\n      swap1\n      tag_123\n      jump\t// in\n    tag_304:\n      swap1\n      0x00\n      mstore\n      keccak256(0x00, 0x20)\n      swap1\n      0x1f\n      add\n      0x20\n      swap1\n      div\n      dup2\n      add\n      swap3\n      dup3\n      tag_306\n      jumpi\n      0x00\n      dup6\n      sstore\n      jump(tag_305)\n    tag_306:\n      dup3\n      0x1f\n      lt\n      tag_307\n      jumpi\n      dup1\n      sload\n      dup6\n      sstore\n      jump(tag_305)\n    tag_307:\n      dup3\n      dup1\n      add\n      0x01\n      add\n      dup6\n      sstore\n      dup3\n      iszero\n      tag_305\n      jumpi\n      0x00\n      mstore\n      keccak256(0x00, 0x20)\n      swap2\n      0x1f\n      add\n      0x20\n      swap1\n      div\n      dup3\n      add\n    tag_308:\n      dup3\n      dup2\n      gt\n      iszero\n      tag_309\n      jumpi\n      dup3\n      sload\n      dup3\n      sstore\n      swap2\n      0x01\n      add\n      swap2\n      swap1\n      0x01\n      add\n      swap1\n      jump(tag_308)\n    tag_309:\n    tag_305:\n      pop\n      swap1\n      pop\n      tag_310\n      swap2\n      swap1\n      tag_303\n      jump\t// in\n    tag_310:\n      pop\n      swap1\n      jump\t// out\n    tag_303:\n    tag_311:\n      dup1\n      dup3\n      gt\n      iszero\n      tag_312\n      jumpi\n      0x00\n      dup2\n      0x00\n      swap1\n      sstore\n      pop\n      0x01\n      add\n      jump(tag_311)\n    tag_312:\n      pop\n      swap1\n      jump\t// out\n        /* \"#utility.yul\":24:746   */\n    tag_314:\n        /* \"#utility.yul\":120:125   */\n      0x00\n        /* \"#utility.yul\":145:226   */\n      tag_316\n        /* \"#utility.yul\":161:225   */\n      tag_317\n        /* \"#utility.yul\":218:224   */\n      dup5\n        /* \"#utility.yul\":161:225   */\n      tag_318\n      jump\t// in\n    tag_317:\n        /* \"#utility.yul\":145:226   */\n      tag_319\n      jump\t// in\n    tag_316:\n        /* \"#utility.yul\":136:226   */\n      swap1\n      pop\n        /* \"#utility.yul\":246:251   */\n      dup1\n        /* \"#utility.yul\":275:281   */\n      dup4\n        /* \"#utility.yul\":268:273   */\n      dup3\n        /* \"#utility.yul\":261:282   */\n      mstore\n        /* \"#utility.yul\":309:313   */\n      0x20\n        /* \"#utility.yul\":302:307   */\n      dup3\n        /* \"#utility.yul\":298:314   */\n      add\n        /* \"#utility.yul\":291:314   */\n      swap1\n      pop\n        /* \"#utility.yul\":335:341   */\n      dup3\n        /* \"#utility.yul\":385:388   */\n      dup6\n        /* \"#utility.yul\":377:381   */\n      0x20\n        /* \"#utility.yul\":369:375   */\n      dup7\n        /* \"#utility.yul\":365:382   */\n      mul\n        /* \"#utility.yul\":360:363   */\n      dup3\n        /* \"#utility.yul\":356:383   */\n      add\n        /* \"#utility.yul\":353:389   */\n      gt\n        /* \"#utility.yul\":350:493   */\n      iszero\n      tag_320\n      jumpi\n        /* \"#utility.yul\":404:483   */\n      tag_321\n      tag_322\n      jump\t// in\n    tag_321:\n        /* \"#utility.yul\":350:493   */\n    tag_320:\n        /* \"#utility.yul\":517:518   */\n      0x00\n        /* \"#utility.yul\":502:740   */\n    tag_323:\n        /* \"#utility.yul\":527:533   */\n      dup6\n        /* \"#utility.yul\":524:525   */\n      dup2\n        /* \"#utility.yul\":521:534   */\n      lt\n        /* \"#utility.yul\":502:740   */\n      iszero\n      tag_325\n      jumpi\n        /* \"#utility.yul\":595:598   */\n      dup2\n        /* \"#utility.yul\":624:661   */\n      tag_326\n        /* \"#utility.yul\":657:660   */\n      dup9\n        /* \"#utility.yul\":645:655   */\n      dup3\n        /* \"#utility.yul\":624:661   */\n      tag_327\n      jump\t// in\n    tag_326:\n        /* \"#utility.yul\":619:622   */\n      dup5\n        /* \"#utility.yul\":612:662   */\n      mstore\n        /* \"#utility.yul\":691:695   */\n      0x20\n        /* \"#utility.yul\":686:689   */\n      dup5\n        /* \"#utility.yul\":682:696   */\n      add\n        /* \"#utility.yul\":675:696   */\n      swap4\n      pop\n        /* \"#utility.yul\":725:729   */\n      0x20\n        /* \"#utility.yul\":720:723   */\n      dup4\n        /* \"#utility.yul\":716:730   */\n      add\n        /* \"#utility.yul\":709:730   */\n      swap3\n      pop\n        /* \"#utility.yul\":562:740   */\n      pop\n        /* \"#utility.yul\":549:550   */\n      0x01\n        /* \"#utility.yul\":546:547   */\n      dup2\n        /* \"#utility.yul\":542:551   */\n      add\n        /* \"#utility.yul\":537:551   */\n      swap1\n      pop\n        /* \"#utility.yul\":502:740   */\n      jump(tag_323)\n    tag_325:\n        /* \"#utility.yul\":506:520   */\n      pop\n        /* \"#utility.yul\":126:746   */\n      pop\n      pop\n        /* \"#utility.yul\":24:746   */\n      swap4\n      swap3\n      pop\n      pop\n      pop\n      jump\t// out\n        /* \"#utility.yul\":752:1164   */\n    tag_328:\n        /* \"#utility.yul\":830:835   */\n      0x00\n        /* \"#utility.yul\":855:921   */\n      tag_330\n        /* \"#utility.yul\":871:920   */\n      tag_331\n        /* \"#utility.yul\":913:919   */\n      dup5\n        /* \"#utility.yul\":871:920   */\n      tag_332\n      jump\t// in\n    tag_331:\n        /* \"#utility.yul\":855:921   */\n      tag_319\n      jump\t// in\n    tag_330:\n        /* \"#utility.yul\":846:921   */\n      swap1\n      pop\n        /* \"#utility.yul\":944:950   */\n      dup3\n        /* \"#utility.yul\":937:942   */\n      dup2\n        /* \"#utility.yul\":930:951   */\n      mstore\n        /* \"#utility.yul\":982:986   */\n      0x20\n        /* \"#utility.yul\":975:980   */\n      dup2\n        /* \"#utility.yul\":971:987   */\n      add\n        /* \"#utility.yul\":1020:1023   */\n      dup5\n        /* \"#utility.yul\":1011:1017   */\n      dup5\n        /* \"#utility.yul\":1006:1009   */\n      dup5\n        /* \"#utility.yul\":1002:1018   */\n      add\n        /* \"#utility.yul\":999:1024   */\n      gt\n        /* \"#utility.yul\":996:1108   */\n      iszero\n      tag_333\n      jumpi\n        /* \"#utility.yul\":1027:1106   */\n      tag_334\n      tag_335\n      jump\t// in\n    tag_334:\n        /* \"#utility.yul\":996:1108   */\n    tag_333:\n        /* \"#utility.yul\":1117:1158   */\n      tag_336\n        /* \"#utility.yul\":1151:1157   */\n      dup5\n        /* \"#utility.yul\":1146:1149   */\n      dup3\n        /* \"#utility.yul\":1141:1144   */\n      dup6\n        /* \"#utility.yul\":1117:1158   */\n      tag_337\n      jump\t// in\n    tag_336:\n        /* \"#utility.yul\":836:1164   */\n      pop\n        /* \"#utility.yul\":752:1164   */\n      swap4\n      swap3\n      pop\n      pop\n      pop\n      jump\t// out\n        /* \"#utility.yul\":1170:1309   */\n    tag_327:\n        /* \"#utility.yul\":1216:1221   */\n      0x00\n        /* \"#utility.yul\":1254:1260   */\n      dup2\n        /* \"#utility.yul\":1241:1261   */\n      calldataload\n        /* \"#utility.yul\":1232:1261   */\n      swap1\n      pop\n        /* \"#utility.yul\":1270:1303   */\n      tag_339\n        /* \"#utility.yul\":1297:1302   */\n      dup2\n        /* \"#utility.yul\":1270:1303   */\n      tag_340\n      jump\t// in\n    tag_339:\n        /* \"#utility.yul\":1170:1309   */\n      swap3\n      swap2\n      pop\n      pop\n      jump\t// out\n        /* \"#utility.yul\":1332:1702   */\n    tag_341:\n        /* \"#utility.yul\":1403:1408   */\n      0x00\n        /* \"#utility.yul\":1452:1455   */\n      dup3\n        /* \"#utility.yul\":1445:1449   */\n      0x1f\n        /* \"#utility.yul\":1437:1443   */\n      dup4\n        /* \"#utility.yul\":1433:1450   */\n      add\n        /* \"#utility.yul\":1429:1456   */\n      slt\n        /* \"#utility.yul\":1419:1541   */\n      tag_343\n      jumpi\n        /* \"#utility.yul\":1460:1539   */\n      tag_344\n      tag_345\n      jump\t// in\n    tag_344:\n        /* \"#utility.yul\":1419:1541   */\n    tag_343:\n        /* \"#utility.yul\":1577:1583   */\n      dup2\n        /* \"#utility.yul\":1564:1584   */\n      calldataload\n        /* \"#utility.yul\":1602:1696   */\n      tag_346\n        /* \"#utility.yul\":1692:1695   */\n      dup5\n        /* \"#utility.yul\":1684:1690   */\n      dup3\n        /* \"#utility.yul\":1677:1681   */\n      0x20\n        /* \"#utility.yul\":1669:1675   */\n      dup7\n        /* \"#utility.yul\":1665:1682   */\n      add\n        /* \"#utility.yul\":1602:1696   */\n      tag_314\n      jump\t// in\n    tag_346:\n        /* \"#utility.yul\":1593:1696   */\n      swap2\n      pop\n        /* \"#utility.yul\":1409:1702   */\n      pop\n        /* \"#utility.yul\":1332:1702   */\n      swap3\n      swap2\n      pop\n      pop\n      jump\t// out\n        /* \"#utility.yul\":1708:1847   */\n    tag_347:\n        /* \"#utility.yul\":1754:1759   */\n      0x00\n        /* \"#utility.yul\":1792:1798   */\n      dup2\n        /* \"#utility.yul\":1779:1799   */\n      calldataload\n        /* \"#utility.yul\":1770:1799   */\n      swap1\n      pop\n        /* \"#utility.yul\":1808:1841   */\n      tag_349\n        /* \"#utility.yul\":1835:1840   */\n      dup2\n        /* \"#utility.yul\":1808:1841   */\n      tag_350\n      jump\t// in\n    tag_349:\n        /* \"#utility.yul\":1708:1847   */\n      swap3\n      swap2\n      pop\n      pop\n      jump\t// out\n        /* \"#utility.yul\":1853:1990   */\n    tag_351:\n        /* \"#utility.yul\":1898:1903   */\n      0x00\n        /* \"#utility.yul\":1936:1942   */\n      dup2\n        /* \"#utility.yul\":1923:1943   */\n      calldataload\n        /* \"#utility.yul\":1914:1943   */\n      swap1\n      pop\n        /* \"#utility.yul\":1952:1984   */\n      tag_353\n        /* \"#utility.yul\":1978:1983   */\n      dup2\n        /* \"#utility.yul\":1952:1984   */\n      tag_354\n      jump\t// in\n    tag_353:\n        /* \"#utility.yul\":1853:1990   */\n      swap3\n      swap2\n      pop\n      pop\n      jump\t// out\n        /* \"#utility.yul\":2010:2350   */\n    tag_355:\n        /* \"#utility.yul\":2066:2071   */\n      0x00\n        /* \"#utility.yul\":2115:2118   */\n      dup3\n        /* \"#utility.yul\":2108:2112   */\n      0x1f\n        /* \"#utility.yul\":2100:2106   */\n      dup4\n        /* \"#utility.yul\":2096:2113   */\n      add\n        /* \"#utility.yul\":2092:2119   */\n      slt\n        /* \"#utility.yul\":2082:2204   */\n      tag_357\n      jumpi\n        /* \"#utility.yul\":2123:2202   */\n      tag_358\n      tag_345\n      jump\t// in\n    tag_358:\n        /* \"#utility.yul\":2082:2204   */\n    tag_357:\n        /* \"#utility.yul\":2240:2246   */\n      dup2\n        /* \"#utility.yul\":2227:2247   */\n      calldataload\n        /* \"#utility.yul\":2265:2344   */\n      tag_359\n        /* \"#utility.yul\":2340:2343   */\n      dup5\n        /* \"#utility.yul\":2332:2338   */\n      dup3\n        /* \"#utility.yul\":2325:2329   */\n      0x20\n        /* \"#utility.yul\":2317:2323   */\n      dup7\n        /* \"#utility.yul\":2313:2330   */\n      add\n        /* \"#utility.yul\":2265:2344   */\n      tag_328\n      jump\t// in\n    tag_359:\n        /* \"#utility.yul\":2256:2344   */\n      swap2\n      pop\n        /* \"#utility.yul\":2072:2350   */\n      pop\n        /* \"#utility.yul\":2010:2350   */\n      swap3\n      swap2\n      pop\n      pop\n      jump\t// out\n        /* \"#utility.yul\":2356:2495   */\n    tag_360:\n        /* \"#utility.yul\":2402:2407   */\n      0x00\n        /* \"#utility.yul\":2440:2446   */\n      dup2\n        /* \"#utility.yul\":2427:2447   */\n      calldataload\n        /* \"#utility.yul\":2418:2447   */\n      swap1\n      pop\n        /* \"#utility.yul\":2456:2489   */\n      tag_362\n        /* \"#utility.yul\":2483:2488   */\n      dup2\n        /* \"#utility.yul\":2456:2489   */\n      tag_363\n      jump\t// in\n    tag_362:\n        /* \"#utility.yul\":2356:2495   */\n      swap3\n      swap2\n      pop\n      pop\n      jump\t// out\n        /* \"#utility.yul\":2501:2830   */\n    tag_112:\n        /* \"#utility.yul\":2560:2566   */\n      0x00\n        /* \"#utility.yul\":2609:2611   */\n      0x20\n        /* \"#utility.yul\":2597:2606   */\n      dup3\n        /* \"#utility.yul\":2588:2595   */\n      dup5\n        /* \"#utility.yul\":2584:2607   */\n      sub\n        /* \"#utility.yul\":2580:2612   */\n      slt\n        /* \"#utility.yul\":2577:2696   */\n      iszero\n      tag_365\n      jumpi\n        /* \"#utility.yul\":2615:2694   */\n      tag_366\n      tag_367\n      jump\t// in\n    tag_366:\n        /* \"#utility.yul\":2577:2696   */\n    tag_365:\n        /* \"#utility.yul\":2735:2736   */\n      0x00\n        /* \"#utility.yul\":2760:2813   */\n      tag_368\n        /* \"#utility.yul\":2805:2812   */\n      dup5\n        /* \"#utility.yul\":2796:2802   */\n      dup3\n        /* \"#utility.yul\":2785:2794   */\n      dup6\n        /* \"#utility.yul\":2781:2803   */\n      add\n        /* \"#utility.yul\":2760:2813   */\n      tag_327\n      jump\t// in\n    tag_368:\n        /* \"#utility.yul\":2750:2813   */\n      swap2\n      pop\n        /* \"#utility.yul\":2706:2823   */\n      pop\n        /* \"#utility.yul\":2501:2830   */\n      swap3\n      swap2\n      pop\n      pop\n      jump\t// out\n        /* \"#utility.yul\":2836:3665   */\n    tag_67:\n        /* \"#utility.yul\":2938:2944   */\n      0x00\n        /* \"#utility.yul\":2946:2952   */\n      dup1\n        /* \"#utility.yul\":2954:2960   */\n      0x00\n        /* \"#utility.yul\":3003:3005   */\n      0x60\n        /* \"#utility.yul\":2991:3000   */\n      dup5\n        /* \"#utility.yul\":2982:2989   */\n      dup7\n        /* \"#utility.yul\":2978:3001   */\n      sub\n        /* \"#utility.yul\":2974:3006   */\n      slt\n        /* \"#utility.yul\":2971:3090   */\n      iszero\n      tag_370\n      jumpi\n        /* \"#utility.yul\":3009:3088   */\n      tag_371\n      tag_367\n      jump\t// in\n    tag_371:\n        /* \"#utility.yul\":2971:3090   */\n    tag_370:\n        /* \"#utility.yul\":3157:3158   */\n      0x00\n        /* \"#utility.yul\":3146:3155   */\n      dup5\n        /* \"#utility.yul\":3142:3159   */\n      add\n        /* \"#utility.yul\":3129:3160   */\n      calldataload\n        /* \"#utility.yul\":3187:3205   */\n      0xffffffffffffffff\n        /* \"#utility.yul\":3179:3185   */\n      dup2\n        /* \"#utility.yul\":3176:3206   */\n      gt\n        /* \"#utility.yul\":3173:3290   */\n      iszero\n      tag_372\n      jumpi\n        /* \"#utility.yul\":3209:3288   */\n      tag_373\n      tag_374\n      jump\t// in\n    tag_373:\n        /* \"#utility.yul\":3173:3290   */\n    tag_372:\n        /* \"#utility.yul\":3314:3392   */\n      tag_375\n        /* \"#utility.yul\":3384:3391   */\n      dup7\n        /* \"#utility.yul\":3375:3381   */\n      dup3\n        /* \"#utility.yul\":3364:3373   */\n      dup8\n        /* \"#utility.yul\":3360:3382   */\n      add\n        /* \"#utility.yul\":3314:3392   */\n      tag_341\n      jump\t// in\n    tag_375:\n        /* \"#utility.yul\":3304:3392   */\n      swap4\n      pop\n        /* \"#utility.yul\":3100:3402   */\n      pop\n        /* \"#utility.yul\":3441:3443   */\n      0x20\n        /* \"#utility.yul\":3467:3520   */\n      tag_376\n        /* \"#utility.yul\":3512:3519   */\n      dup7\n        /* \"#utility.yul\":3503:3509   */\n      dup3\n        /* \"#utility.yul\":3492:3501   */\n      dup8\n        /* \"#utility.yul\":3488:3510   */\n      add\n        /* \"#utility.yul\":3467:3520   */\n      tag_360\n      jump\t// in\n    tag_376:\n        /* \"#utility.yul\":3457:3520   */\n      swap3\n      pop\n        /* \"#utility.yul\":3412:3530   */\n      pop\n        /* \"#utility.yul\":3569:3571   */\n      0x40\n        /* \"#utility.yul\":3595:3648   */\n      tag_377\n        /* \"#utility.yul\":3640:3647   */\n      dup7\n        /* \"#utility.yul\":3631:3637   */\n      dup3\n        /* \"#utility.yul\":3620:3629   */\n      dup8\n        /* \"#utility.yul\":3616:3638   */\n      add\n        /* \"#utility.yul\":3595:3648   */\n      tag_360\n      jump\t// in\n    tag_377:\n        /* \"#utility.yul\":3585:3648   */\n      swap2\n      pop\n        /* \"#utility.yul\":3540:3658   */\n      pop\n        /* \"#utility.yul\":2836:3665   */\n      swap3\n      pop\n      swap3\n      pop\n      swap3\n      jump\t// out\n        /* \"#utility.yul\":3671:4000   */\n    tag_36:\n        /* \"#utility.yul\":3730:3736   */\n      0x00\n        /* \"#utility.yul\":3779:3781   */\n      0x20\n        /* \"#utility.yul\":3767:3776   */\n      dup3\n        /* \"#utility.yul\":3758:3765   */\n      dup5\n        /* \"#utility.yul\":3754:3777   */\n      sub\n        /* \"#utility.yul\":3750:3782   */\n      slt\n        /* \"#utility.yul\":3747:3866   */\n      iszero\n      tag_379\n      jumpi\n        /* \"#utility.yul\":3785:3864   */\n      tag_380\n      tag_367\n      jump\t// in\n    tag_380:\n        /* \"#utility.yul\":3747:3866   */\n    tag_379:\n        /* \"#utility.yul\":3905:3906   */\n      0x00\n        /* \"#utility.yul\":3930:3983   */\n      tag_381\n        /* \"#utility.yul\":3975:3982   */\n      dup5\n        /* \"#utility.yul\":3966:3972   */\n      dup3\n        /* \"#utility.yul\":3955:3964   */\n      dup6\n        /* \"#utility.yul\":3951:3973   */\n      add\n        /* \"#utility.yul\":3930:3983   */\n      tag_347\n      jump\t// in\n    tag_381:\n        /* \"#utility.yul\":3920:3983   */\n      swap2\n      pop\n        /* \"#utility.yul\":3876:3993   */\n      pop\n        /* \"#utility.yul\":3671:4000   */\n      swap3\n      swap2\n      pop\n      pop\n      jump\t// out\n        /* \"#utility.yul\":4006:4480   */\n    tag_51:\n        /* \"#utility.yul\":4074:4080   */\n      0x00\n        /* \"#utility.yul\":4082:4088   */\n      dup1\n        /* \"#utility.yul\":4131:4133   */\n      0x40\n        /* \"#utility.yul\":4119:4128   */\n      dup4\n        /* \"#utility.yul\":4110:4117   */\n      dup6\n        /* \"#utility.yul\":4106:4129   */\n      sub\n        /* \"#utility.yul\":4102:4134   */\n      slt\n        /* \"#utility.yul\":4099:4218   */\n      iszero\n      tag_383\n      jumpi\n        /* \"#utility.yul\":4137:4216   */\n      tag_384\n      tag_367\n      jump\t// in\n    tag_384:\n        /* \"#utility.yul\":4099:4218   */\n    tag_383:\n        /* \"#utility.yul\":4257:4258   */\n      0x00\n        /* \"#utility.yul\":4282:4335   */\n      tag_385\n        /* \"#utility.yul\":4327:4334   */\n      dup6\n        /* \"#utility.yul\":4318:4324   */\n      dup3\n        /* \"#utility.yul\":4307:4316   */\n      dup7\n        /* \"#utility.yul\":4303:4325   */\n      add\n        /* \"#utility.yul\":4282:4335   */\n      tag_347\n      jump\t// in\n    tag_385:\n        /* \"#utility.yul\":4272:4335   */\n      swap3\n      pop\n        /* \"#utility.yul\":4228:4345   */\n      pop\n        /* \"#utility.yul\":4384:4386   */\n      0x20\n        /* \"#utility.yul\":4410:4463   */\n      tag_386\n        /* \"#utility.yul\":4455:4462   */\n      dup6\n        /* \"#utility.yul\":4446:4452   */\n      dup3\n        /* \"#utility.yul\":4435:4444   */\n      dup7\n        /* \"#utility.yul\":4431:4453   */\n      add\n        /* \"#utility.yul\":4410:4463   */\n      tag_327\n      jump\t// in\n    tag_386:\n        /* \"#utility.yul\":4400:4463   */\n      swap2\n      pop\n        /* \"#utility.yul\":4355:4473   */\n      pop\n        /* \"#utility.yul\":4006:4480   */\n      swap3\n      pop\n      swap3\n      swap1\n      pop\n      jump\t// out\n        /* \"#utility.yul\":4486:4813   */\n    tag_30:\n        /* \"#utility.yul\":4544:4550   */\n      0x00\n        /* \"#utility.yul\":4593:4595   */\n      0x20\n        /* \"#utility.yul\":4581:4590   */\n      dup3\n        /* \"#utility.yul\":4572:4579   */\n      dup5\n        /* \"#utility.yul\":4568:4591   */\n      sub\n        /* \"#utility.yul\":4564:4596   */\n      slt\n        /* \"#utility.yul\":4561:4680   */\n      iszero\n      tag_388\n      jumpi\n        /* \"#utility.yul\":4599:4678   */\n      tag_389\n      tag_367\n      jump\t// in\n    tag_389:\n        /* \"#utility.yul\":4561:4680   */\n    tag_388:\n        /* \"#utility.yul\":4719:4720   */\n      0x00\n        /* \"#utility.yul\":4744:4796   */\n      tag_390\n        /* \"#utility.yul\":4788:4795   */\n      dup5\n        /* \"#utility.yul\":4779:4785   */\n      dup3\n        /* \"#utility.yul\":4768:4777   */\n      dup6\n        /* \"#utility.yul\":4764:4786   */\n      add\n        /* \"#utility.yul\":4744:4796   */\n      tag_351\n      jump\t// in\n    tag_390:\n        /* \"#utility.yul\":4734:4796   */\n      swap2\n      pop\n        /* \"#utility.yul\":4690:4806   */\n      pop\n        /* \"#utility.yul\":4486:4813   */\n      swap3\n      swap2\n      pop\n      pop\n      jump\t// out\n        /* \"#utility.yul\":4819:5618   */\n    tag_105:\n        /* \"#utility.yul\":4906:4912   */\n      0x00\n        /* \"#utility.yul\":4914:4920   */\n      dup1\n        /* \"#utility.yul\":4922:4928   */\n      0x00\n        /* \"#utility.yul\":4971:4973   */\n      0x60\n        /* \"#utility.yul\":4959:4968   */\n      dup5\n        /* \"#utility.yul\":4950:4957   */\n      dup7\n        /* \"#utility.yul\":4946:4969   */\n      sub\n        /* \"#utility.yul\":4942:4974   */\n      slt\n        /* \"#utility.yul\":4939:5058   */\n      iszero\n      tag_392\n      jumpi\n        /* \"#utility.yul\":4977:5056   */\n      tag_393\n      tag_367\n      jump\t// in\n    tag_393:\n        /* \"#utility.yul\":4939:5058   */\n    tag_392:\n        /* \"#utility.yul\":5125:5126   */\n      0x00\n        /* \"#utility.yul\":5114:5123   */\n      dup5\n        /* \"#utility.yul\":5110:5127   */\n      add\n        /* \"#utility.yul\":5097:5128   */\n      calldataload\n        /* \"#utility.yul\":5155:5173   */\n      0xffffffffffffffff\n        /* \"#utility.yul\":5147:5153   */\n      dup2\n        /* \"#utility.yul\":5144:5174   */\n      gt\n        /* \"#utility.yul\":5141:5258   */\n      iszero\n      tag_394\n      jumpi\n        /* \"#utility.yul\":5177:5256   */\n      tag_395\n      tag_374\n      jump\t// in\n    tag_395:\n        /* \"#utility.yul\":5141:5258   */\n    tag_394:\n        /* \"#utility.yul\":5282:5345   */\n      tag_396\n        /* \"#utility.yul\":5337:5344   */\n      dup7\n        /* \"#utility.yul\":5328:5334   */\n      dup3\n        /* \"#utility.yul\":5317:5326   */\n      dup8\n        /* \"#utility.yul\":5313:5335   */\n      add\n        /* \"#utility.yul\":5282:5345   */\n      tag_355\n      jump\t// in\n    tag_396:\n        /* \"#utility.yul\":5272:5345   */\n      swap4\n      pop\n        /* \"#utility.yul\":5068:5355   */\n      pop\n        /* \"#utility.yul\":5394:5396   */\n      0x20\n        /* \"#utility.yul\":5420:5473   */\n      tag_397\n        /* \"#utility.yul\":5465:5472   */\n      dup7\n        /* \"#utility.yul\":5456:5462   */\n      dup3\n        /* \"#utility.yul\":5445:5454   */\n      dup8\n        /* \"#utility.yul\":5441:5463   */\n      add\n        /* \"#utility.yul\":5420:5473   */\n      tag_327\n      jump\t// in\n    tag_397:\n        /* \"#utility.yul\":5410:5473   */\n      swap3\n      pop\n        /* \"#utility.yul\":5365:5483   */\n      pop\n        /* \"#utility.yul\":5522:5524   */\n      0x40\n        /* \"#utility.yul\":5548:5601   */\n      tag_398\n        /* \"#utility.yul\":5593:5600   */\n      dup7\n        /* \"#utility.yul\":5584:5590   */\n      dup3\n        /* \"#utility.yul\":5573:5582   */\n      dup8\n        /* \"#utility.yul\":5569:5591   */\n      add\n        /* \"#utility.yul\":5548:5601   */\n      tag_360\n      jump\t// in\n    tag_398:\n        /* \"#utility.yul\":5538:5601   */\n      swap2\n      pop\n        /* \"#utility.yul\":5493:5611   */\n      pop\n        /* \"#utility.yul\":4819:5618   */\n      swap3\n      pop\n      swap3\n      pop\n      swap3\n      jump\t// out\n        /* \"#utility.yul\":5624:5953   */\n    tag_42:\n        /* \"#utility.yul\":5683:5689   */\n      0x00\n        /* \"#utility.yul\":5732:5734   */\n      0x20\n        /* \"#utility.yul\":5720:5729   */\n      dup3\n        /* \"#utility.yul\":5711:5718   */\n      dup5\n        /* \"#utility.yul\":5707:5730   */\n      sub\n        /* \"#utility.yul\":5703:5735   */\n      slt\n        /* \"#utility.yul\":5700:5819   */\n      iszero\n      tag_400\n      jumpi\n        /* \"#utility.yul\":5738:5817   */\n      tag_401\n      tag_367\n      jump\t// in\n    tag_401:\n        /* \"#utility.yul\":5700:5819   */\n    tag_400:\n        /* \"#utility.yul\":5858:5859   */\n      0x00\n        /* \"#utility.yul\":5883:5936   */\n      tag_402\n        /* \"#utility.yul\":5928:5935   */\n      dup5\n        /* \"#utility.yul\":5919:5925   */\n      dup3\n        /* \"#utility.yul\":5908:5917   */\n      dup6\n        /* \"#utility.yul\":5904:5926   */\n      add\n        /* \"#utility.yul\":5883:5936   */\n      tag_360\n      jump\t// in\n    tag_402:\n        /* \"#utility.yul\":5873:5936   */\n      swap2\n      pop\n        /* \"#utility.yul\":5829:5946   */\n      pop\n        /* \"#utility.yul\":5624:5953   */\n      swap3\n      swap2\n      pop\n      pop\n      jump\t// out\n        /* \"#utility.yul\":5959:6433   */\n    tag_63:\n        /* \"#utility.yul\":6027:6033   */\n      0x00\n        /* \"#utility.yul\":6035:6041   */\n      dup1\n        /* \"#utility.yul\":6084:6086   */\n      0x40\n        /* \"#utility.yul\":6072:6081   */\n      dup4\n        /* \"#utility.yul\":6063:6070   */\n      dup6\n        /* \"#utility.yul\":6059:6082   */\n      sub\n        /* \"#utility.yul\":6055:6087   */\n      slt\n        /* \"#utility.yul\":6052:6171   */\n      iszero\n      tag_404\n      jumpi\n        /* \"#utility.yul\":6090:6169   */\n      tag_405\n      tag_367\n      jump\t// in\n    tag_405:\n        /* \"#utility.yul\":6052:6171   */\n    tag_404:\n        /* \"#utility.yul\":6210:6211   */\n      0x00\n        /* \"#utility.yul\":6235:6288   */\n      tag_406\n        /* \"#utility.yul\":6280:6287   */\n      dup6\n        /* \"#utility.yul\":6271:6277   */\n      dup3\n        /* \"#utility.yul\":6260:6269   */\n      dup7\n        /* \"#utility.yul\":6256:6278   */\n      add\n        /* \"#utility.yul\":6235:6288   */\n      tag_360\n      jump\t// in\n    tag_406:\n        /* \"#utility.yul\":6225:6288   */\n      swap3\n      pop\n        /* \"#utility.yul\":6181:6298   */\n      pop\n        /* \"#utility.yul\":6337:6339   */\n      0x20\n        /* \"#utility.yul\":6363:6416   */\n      tag_407\n        /* \"#utility.yul\":6408:6415   */\n      dup6\n        /* \"#utility.yul\":6399:6405   */\n      dup3\n        /* \"#utility.yul\":6388:6397   */\n      dup7\n        /* \"#utility.yul\":6384:6406   */\n      add\n        /* \"#utility.yul\":6363:6416   */\n      tag_360\n      jump\t// in\n    tag_407:\n        /* \"#utility.yul\":6353:6416   */\n      swap2\n      pop\n        /* \"#utility.yul\":6308:6426   */\n      pop\n        /* \"#utility.yul\":5959:6433   */\n      swap3\n      pop\n      swap3\n      swap1\n      pop\n      jump\t// out\n        /* \"#utility.yul\":6439:6618   */\n    tag_408:\n        /* \"#utility.yul\":6508:6518   */\n      0x00\n        /* \"#utility.yul\":6529:6575   */\n      tag_410\n        /* \"#utility.yul\":6571:6574   */\n      dup4\n        /* \"#utility.yul\":6563:6569   */\n      dup4\n        /* \"#utility.yul\":6529:6575   */\n      tag_411\n      jump\t// in\n    tag_410:\n        /* \"#utility.yul\":6607:6611   */\n      0x20\n        /* \"#utility.yul\":6602:6605   */\n      dup4\n        /* \"#utility.yul\":6598:6612   */\n      add\n        /* \"#utility.yul\":6584:6612   */\n      swap1\n      pop\n        /* \"#utility.yul\":6439:6618   */\n      swap3\n      swap2\n      pop\n      pop\n      jump\t// out\n        /* \"#utility.yul\":6624:6803   */\n    tag_412:\n        /* \"#utility.yul\":6693:6703   */\n      0x00\n        /* \"#utility.yul\":6714:6760   */\n      tag_414\n        /* \"#utility.yul\":6756:6759   */\n      dup4\n        /* \"#utility.yul\":6748:6754   */\n      dup4\n        /* \"#utility.yul\":6714:6760   */\n      tag_415\n      jump\t// in\n    tag_414:\n        /* \"#utility.yul\":6792:6796   */\n      0x20\n        /* \"#utility.yul\":6787:6790   */\n      dup4\n        /* \"#utility.yul\":6783:6797   */\n      add\n        /* \"#utility.yul\":6769:6797   */\n      swap1\n      pop\n        /* \"#utility.yul\":6624:6803   */\n      swap3\n      swap2\n      pop\n      pop\n      jump\t// out\n        /* \"#utility.yul\":6809:6917   */\n    tag_411:\n        /* \"#utility.yul\":6886:6910   */\n      tag_417\n        /* \"#utility.yul\":6904:6909   */\n      dup2\n        /* \"#utility.yul\":6886:6910   */\n      tag_418\n      jump\t// in\n    tag_417:\n        /* \"#utility.yul\":6881:6884   */\n      dup3\n        /* \"#utility.yul\":6874:6911   */\n      mstore\n        /* \"#utility.yul\":6809:6917   */\n      pop\n      pop\n      jump\t// out\n        /* \"#utility.yul\":6923:7041   */\n    tag_419:\n        /* \"#utility.yul\":7010:7034   */\n      tag_421\n        /* \"#utility.yul\":7028:7033   */\n      dup2\n        /* \"#utility.yul\":7010:7034   */\n      tag_418\n      jump\t// in\n    tag_421:\n        /* \"#utility.yul\":7005:7008   */\n      dup3\n        /* \"#utility.yul\":6998:7035   */\n      mstore\n        /* \"#utility.yul\":6923:7041   */\n      pop\n      pop\n      jump\t// out\n        /* \"#utility.yul\":7077:7789   */\n    tag_422:\n        /* \"#utility.yul\":7186:7189   */\n      0x00\n        /* \"#utility.yul\":7215:7269   */\n      tag_424\n        /* \"#utility.yul\":7263:7268   */\n      dup3\n        /* \"#utility.yul\":7215:7269   */\n      tag_425\n      jump\t// in\n    tag_424:\n        /* \"#utility.yul\":7285:7361   */\n      tag_426\n        /* \"#utility.yul\":7354:7360   */\n      dup2\n        /* \"#utility.yul\":7349:7352   */\n      dup6\n        /* \"#utility.yul\":7285:7361   */\n      tag_427\n      jump\t// in\n    tag_426:\n        /* \"#utility.yul\":7278:7361   */\n      swap4\n      pop\n        /* \"#utility.yul\":7385:7441   */\n      tag_428\n        /* \"#utility.yul\":7435:7440   */\n      dup4\n        /* \"#utility.yul\":7385:7441   */\n      tag_429\n      jump\t// in\n    tag_428:\n        /* \"#utility.yul\":7464:7471   */\n      dup1\n        /* \"#utility.yul\":7495:7496   */\n      0x00\n        /* \"#utility.yul\":7480:7764   */\n    tag_430:\n        /* \"#utility.yul\":7505:7511   */\n      dup4\n        /* \"#utility.yul\":7502:7503   */\n      dup2\n        /* \"#utility.yul\":7499:7512   */\n      lt\n        /* \"#utility.yul\":7480:7764   */\n      iszero\n      tag_432\n      jumpi\n        /* \"#utility.yul\":7581:7587   */\n      dup2\n        /* \"#utility.yul\":7575:7588   */\n      mload\n        /* \"#utility.yul\":7608:7671   */\n      tag_433\n        /* \"#utility.yul\":7667:7670   */\n      dup9\n        /* \"#utility.yul\":7652:7665   */\n      dup3\n        /* \"#utility.yul\":7608:7671   */\n      tag_408\n      jump\t// in\n    tag_433:\n        /* \"#utility.yul\":7601:7671   */\n      swap8\n      pop\n        /* \"#utility.yul\":7694:7754   */\n      tag_434\n        /* \"#utility.yul\":7747:7753   */\n      dup4\n        /* \"#utility.yul\":7694:7754   */\n      tag_435\n      jump\t// in\n    tag_434:\n        /* \"#utility.yul\":7684:7754   */\n      swap3\n      pop\n        /* \"#utility.yul\":7540:7764   */\n      pop\n        /* \"#utility.yul\":7527:7528   */\n      0x01\n        /* \"#utility.yul\":7524:7525   */\n      dup2\n        /* \"#utility.yul\":7520:7529   */\n      add\n        /* \"#utility.yul\":7515:7529   */\n      swap1\n      pop\n        /* \"#utility.yul\":7480:7764   */\n      jump(tag_430)\n    tag_432:\n        /* \"#utility.yul\":7484:7498   */\n      pop\n        /* \"#utility.yul\":7780:7783   */\n      dup6\n        /* \"#utility.yul\":7773:7783   */\n      swap4\n      pop\n        /* \"#utility.yul\":7191:7789   */\n      pop\n      pop\n      pop\n        /* \"#utility.yul\":7077:7789   */\n      swap3\n      swap2\n      pop\n      pop\n      jump\t// out\n        /* \"#utility.yul\":7825:8537   */\n    tag_436:\n        /* \"#utility.yul\":7934:7937   */\n      0x00\n        /* \"#utility.yul\":7963:8017   */\n      tag_438\n        /* \"#utility.yul\":8011:8016   */\n      dup3\n        /* \"#utility.yul\":7963:8017   */\n      tag_439\n      jump\t// in\n    tag_438:\n        /* \"#utility.yul\":8033:8109   */\n      tag_440\n        /* \"#utility.yul\":8102:8108   */\n      dup2\n        /* \"#utility.yul\":8097:8100   */\n      dup6\n        /* \"#utility.yul\":8033:8109   */\n      tag_441\n      jump\t// in\n    tag_440:\n        /* \"#utility.yul\":8026:8109   */\n      swap4\n      pop\n        /* \"#utility.yul\":8133:8189   */\n      tag_442\n        /* \"#utility.yul\":8183:8188   */\n      dup4\n        /* \"#utility.yul\":8133:8189   */\n      tag_443\n      jump\t// in\n    tag_442:\n        /* \"#utility.yul\":8212:8219   */\n      dup1\n        /* \"#utility.yul\":8243:8244   */\n      0x00\n        /* \"#utility.yul\":8228:8512   */\n    tag_444:\n        /* \"#utility.yul\":8253:8259   */\n      dup4\n        /* \"#utility.yul\":8250:8251   */\n      dup2\n        /* \"#utility.yul\":8247:8260   */\n      lt\n        /* \"#utility.yul\":8228:8512   */\n      iszero\n      tag_446\n      jumpi\n        /* \"#utility.yul\":8329:8335   */\n      dup2\n        /* \"#utility.yul\":8323:8336   */\n      mload\n        /* \"#utility.yul\":8356:8419   */\n      tag_447\n        /* \"#utility.yul\":8415:8418   */\n      dup9\n        /* \"#utility.yul\":8400:8413   */\n      dup3\n        /* \"#utility.yul\":8356:8419   */\n      tag_412\n      jump\t// in\n    tag_447:\n        /* \"#utility.yul\":8349:8419   */\n      swap8\n      pop\n        /* \"#utility.yul\":8442:8502   */\n      tag_448\n        /* \"#utility.yul\":8495:8501   */\n      dup4\n        /* \"#utility.yul\":8442:8502   */\n      tag_449\n      jump\t// in\n    tag_448:\n        /* \"#utility.yul\":8432:8502   */\n      swap3\n      pop\n        /* \"#utility.yul\":8288:8512   */\n      pop\n        /* \"#utility.yul\":8275:8276   */\n      0x01\n        /* \"#utility.yul\":8272:8273   */\n      dup2\n        /* \"#utility.yul\":8268:8277   */\n      add\n        /* \"#utility.yul\":8263:8277   */\n      swap1\n      pop\n        /* \"#utility.yul\":8228:8512   */\n      jump(tag_444)\n    tag_446:\n        /* \"#utility.yul\":8232:8246   */\n      pop\n        /* \"#utility.yul\":8528:8531   */\n      dup6\n        /* \"#utility.yul\":8521:8531   */\n      swap4\n      pop\n        /* \"#utility.yul\":7939:8537   */\n      pop\n      pop\n      pop\n        /* \"#utility.yul\":7825:8537   */\n      swap3\n      swap2\n      pop\n      pop\n      jump\t// out\n        /* \"#utility.yul\":8543:8642   */\n    tag_450:\n        /* \"#utility.yul\":8614:8635   */\n      tag_452\n        /* \"#utility.yul\":8629:8634   */\n      dup2\n        /* \"#utility.yul\":8614:8635   */\n      tag_453\n      jump\t// in\n    tag_452:\n        /* \"#utility.yul\":8609:8612   */\n      dup3\n        /* \"#utility.yul\":8602:8636   */\n      mstore\n        /* \"#utility.yul\":8543:8642   */\n      pop\n      pop\n      jump\t// out\n        /* \"#utility.yul\":8648:8757   */\n    tag_454:\n        /* \"#utility.yul\":8729:8750   */\n      tag_456\n        /* \"#utility.yul\":8744:8749   */\n      dup2\n        /* \"#utility.yul\":8729:8750   */\n      tag_453\n      jump\t// in\n    tag_456:\n        /* \"#utility.yul\":8724:8727   */\n      dup3\n        /* \"#utility.yul\":8717:8751   */\n      mstore\n        /* \"#utility.yul\":8648:8757   */\n      pop\n      pop\n      jump\t// out\n        /* \"#utility.yul\":8763:8881   */\n    tag_457:\n        /* \"#utility.yul\":8850:8874   */\n      tag_459\n        /* \"#utility.yul\":8868:8873   */\n      dup2\n        /* \"#utility.yul\":8850:8874   */\n      tag_460\n      jump\t// in\n    tag_459:\n        /* \"#utility.yul\":8845:8848   */\n      dup3\n        /* \"#utility.yul\":8838:8875   */\n      mstore\n        /* \"#utility.yul\":8763:8881   */\n      pop\n      pop\n      jump\t// out\n        /* \"#utility.yul\":8887:9231   */\n    tag_461:\n        /* \"#utility.yul\":8965:8968   */\n      0x00\n        /* \"#utility.yul\":8993:9032   */\n      tag_463\n        /* \"#utility.yul\":9026:9031   */\n      dup3\n        /* \"#utility.yul\":8993:9032   */\n      tag_464\n      jump\t// in\n    tag_463:\n        /* \"#utility.yul\":9048:9109   */\n      tag_465\n        /* \"#utility.yul\":9102:9108   */\n      dup2\n        /* \"#utility.yul\":9097:9100   */\n      dup6\n        /* \"#utility.yul\":9048:9109   */\n      tag_466\n      jump\t// in\n    tag_465:\n        /* \"#utility.yul\":9041:9109   */\n      swap4\n      pop\n        /* \"#utility.yul\":9118:9170   */\n      tag_467\n        /* \"#utility.yul\":9163:9169   */\n      dup2\n        /* \"#utility.yul\":9158:9161   */\n      dup6\n        /* \"#utility.yul\":9151:9155   */\n      0x20\n        /* \"#utility.yul\":9144:9149   */\n      dup7\n        /* \"#utility.yul\":9140:9156   */\n      add\n        /* \"#utility.yul\":9118:9170   */\n      tag_468\n      jump\t// in\n    tag_467:\n        /* \"#utility.yul\":9195:9224   */\n      tag_469\n        /* \"#utility.yul\":9217:9223   */\n      dup2\n        /* \"#utility.yul\":9195:9224   */\n      tag_470\n      jump\t// in\n    tag_469:\n        /* \"#utility.yul\":9190:9193   */\n      dup5\n        /* \"#utility.yul\":9186:9225   */\n      add\n        /* \"#utility.yul\":9179:9225   */\n      swap2\n      pop\n        /* \"#utility.yul\":8969:9231   */\n      pop\n        /* \"#utility.yul\":8887:9231   */\n      swap3\n      swap2\n      pop\n      pop\n      jump\t// out\n        /* \"#utility.yul\":9237:9601   */\n    tag_471:\n        /* \"#utility.yul\":9325:9328   */\n      0x00\n        /* \"#utility.yul\":9353:9392   */\n      tag_473\n        /* \"#utility.yul\":9386:9391   */\n      dup3\n        /* \"#utility.yul\":9353:9392   */\n      tag_464\n      jump\t// in\n    tag_473:\n        /* \"#utility.yul\":9408:9479   */\n      tag_474\n        /* \"#utility.yul\":9472:9478   */\n      dup2\n        /* \"#utility.yul\":9467:9470   */\n      dup6\n        /* \"#utility.yul\":9408:9479   */\n      tag_475\n      jump\t// in\n    tag_474:\n        /* \"#utility.yul\":9401:9479   */\n      swap4\n      pop\n        /* \"#utility.yul\":9488:9540   */\n      tag_476\n        /* \"#utility.yul\":9533:9539   */\n      dup2\n        /* \"#utility.yul\":9528:9531   */\n      dup6\n        /* \"#utility.yul\":9521:9525   */\n      0x20\n        /* \"#utility.yul\":9514:9519   */\n      dup7\n        /* \"#utility.yul\":9510:9526   */\n      add\n        /* \"#utility.yul\":9488:9540   */\n      tag_468\n      jump\t// in\n    tag_476:\n        /* \"#utility.yul\":9565:9594   */\n      tag_477\n        /* \"#utility.yul\":9587:9593   */\n      dup2\n        /* \"#utility.yul\":9565:9594   */\n      tag_470\n      jump\t// in\n    tag_477:\n        /* \"#utility.yul\":9560:9563   */\n      dup5\n        /* \"#utility.yul\":9556:9595   */\n      add\n        /* \"#utility.yul\":9549:9595   */\n      swap2\n      pop\n        /* \"#utility.yul\":9329:9601   */\n      pop\n        /* \"#utility.yul\":9237:9601   */\n      swap3\n      swap2\n      pop\n      pop\n      jump\t// out\n        /* \"#utility.yul\":9607:9984   */\n    tag_478:\n        /* \"#utility.yul\":9713:9716   */\n      0x00\n        /* \"#utility.yul\":9741:9780   */\n      tag_480\n        /* \"#utility.yul\":9774:9779   */\n      dup3\n        /* \"#utility.yul\":9741:9780   */\n      tag_464\n      jump\t// in\n    tag_480:\n        /* \"#utility.yul\":9796:9885   */\n      tag_481\n        /* \"#utility.yul\":9878:9884   */\n      dup2\n        /* \"#utility.yul\":9873:9876   */\n      dup6\n        /* \"#utility.yul\":9796:9885   */\n      tag_482\n      jump\t// in\n    tag_481:\n        /* \"#utility.yul\":9789:9885   */\n      swap4\n      pop\n        /* \"#utility.yul\":9894:9946   */\n      tag_483\n        /* \"#utility.yul\":9939:9945   */\n      dup2\n        /* \"#utility.yul\":9934:9937   */\n      dup6\n        /* \"#utility.yul\":9927:9931   */\n      0x20\n        /* \"#utility.yul\":9920:9925   */\n      dup7\n        /* \"#utility.yul\":9916:9932   */\n      add\n        /* \"#utility.yul\":9894:9946   */\n      tag_468\n      jump\t// in\n    tag_483:\n        /* \"#utility.yul\":9971:9977   */\n      dup1\n        /* \"#utility.yul\":9966:9969   */\n      dup5\n        /* \"#utility.yul\":9962:9978   */\n      add\n        /* \"#utility.yul\":9955:9978   */\n      swap2\n      pop\n        /* \"#utility.yul\":9717:9984   */\n      pop\n        /* \"#utility.yul\":9607:9984   */\n      swap3\n      swap2\n      pop\n      pop\n      jump\t// out\n        /* \"#utility.yul\":9990:10356   */\n    tag_484:\n        /* \"#utility.yul\":10132:10135   */\n      0x00\n        /* \"#utility.yul\":10153:10220   */\n      tag_486\n        /* \"#utility.yul\":10217:10219   */\n      0x20\n        /* \"#utility.yul\":10212:10215   */\n      dup4\n        /* \"#utility.yul\":10153:10220   */\n      tag_475\n      jump\t// in\n    tag_486:\n        /* \"#utility.yul\":10146:10220   */\n      swap2\n      pop\n        /* \"#utility.yul\":10229:10322   */\n      tag_487\n        /* \"#utility.yul\":10318:10321   */\n      dup3\n        /* \"#utility.yul\":10229:10322   */\n      tag_488\n      jump\t// in\n    tag_487:\n        /* \"#utility.yul\":10347:10349   */\n      0x20\n        /* \"#utility.yul\":10342:10345   */\n      dup3\n        /* \"#utility.yul\":10338:10350   */\n      add\n        /* \"#utility.yul\":10331:10350   */\n      swap1\n      pop\n        /* \"#utility.yul\":9990:10356   */\n      swap2\n      swap1\n      pop\n      jump\t// out\n        /* \"#utility.yul\":10362:10728   */\n    tag_489:\n        /* \"#utility.yul\":10504:10507   */\n      0x00\n        /* \"#utility.yul\":10525:10592   */\n      tag_491\n        /* \"#utility.yul\":10589:10591   */\n      0x26\n        /* \"#utility.yul\":10584:10587   */\n      dup4\n        /* \"#utility.yul\":10525:10592   */\n      tag_475\n      jump\t// in\n    tag_491:\n        /* \"#utility.yul\":10518:10592   */\n      swap2\n      pop\n        /* \"#utility.yul\":10601:10694   */\n      tag_492\n        /* \"#utility.yul\":10690:10693   */\n      dup3\n        /* \"#utility.yul\":10601:10694   */\n      tag_493\n      jump\t// in\n    tag_492:\n        /* \"#utility.yul\":10719:10721   */\n      0x40\n        /* \"#utility.yul\":10714:10717   */\n      dup3\n        /* \"#utility.yul\":10710:10722   */\n      add\n        /* \"#utility.yul\":10703:10722   */\n      swap1\n      pop\n        /* \"#utility.yul\":10362:10728   */\n      swap2\n      swap1\n      pop\n      jump\t// out\n        /* \"#utility.yul\":10734:11100   */\n    tag_494:\n        /* \"#utility.yul\":10876:10879   */\n      0x00\n        /* \"#utility.yul\":10897:10964   */\n      tag_496\n        /* \"#utility.yul\":10961:10963   */\n      0x1f\n        /* \"#utility.yul\":10956:10959   */\n      dup4\n        /* \"#utility.yul\":10897:10964   */\n      tag_475\n      jump\t// in\n    tag_496:\n        /* \"#utility.yul\":10890:10964   */\n      swap2\n      pop\n        /* \"#utility.yul\":10973:11066   */\n      tag_497\n        /* \"#utility.yul\":11062:11065   */\n      dup3\n        /* \"#utility.yul\":10973:11066   */\n      tag_498\n      jump\t// in\n    tag_497:\n        /* \"#utility.yul\":11091:11093   */\n      0x20\n        /* \"#utility.yul\":11086:11089   */\n      dup3\n        /* \"#utility.yul\":11082:11094   */\n      add\n        /* \"#utility.yul\":11075:11094   */\n      swap1\n      pop\n        /* \"#utility.yul\":10734:11100   */\n      swap2\n      swap1\n      pop\n      jump\t// out\n        /* \"#utility.yul\":11106:11472   */\n    tag_499:\n        /* \"#utility.yul\":11248:11251   */\n      0x00\n        /* \"#utility.yul\":11269:11336   */\n      tag_501\n        /* \"#utility.yul\":11333:11335   */\n      0x20\n        /* \"#utility.yul\":11328:11331   */\n      dup4\n        /* \"#utility.yul\":11269:11336   */\n      tag_475\n      jump\t// in\n    tag_501:\n        /* \"#utility.yul\":11262:11336   */\n      swap2\n      pop\n        /* \"#utility.yul\":11345:11438   */\n      tag_502\n        /* \"#utility.yul\":11434:11437   */\n      dup3\n        /* \"#utility.yul\":11345:11438   */\n      tag_503\n      jump\t// in\n    tag_502:\n        /* \"#utility.yul\":11463:11465   */\n      0x20\n        /* \"#utility.yul\":11458:11461   */\n      dup3\n        /* \"#utility.yul\":11454:11466   */\n      add\n        /* \"#utility.yul\":11447:11466   */\n      swap1\n      pop\n        /* \"#utility.yul\":11106:11472   */\n      swap2\n      swap1\n      pop\n      jump\t// out\n        /* \"#utility.yul\":11478:11880   */\n    tag_504:\n        /* \"#utility.yul\":11638:11641   */\n      0x00\n        /* \"#utility.yul\":11659:11744   */\n      tag_506\n        /* \"#utility.yul\":11741:11743   */\n      0x17\n        /* \"#utility.yul\":11736:11739   */\n      dup4\n        /* \"#utility.yul\":11659:11744   */\n      tag_482\n      jump\t// in\n    tag_506:\n        /* \"#utility.yul\":11652:11744   */\n      swap2\n      pop\n        /* \"#utility.yul\":11753:11846   */\n      tag_507\n        /* \"#utility.yul\":11842:11845   */\n      dup3\n        /* \"#utility.yul\":11753:11846   */\n      tag_508\n      jump\t// in\n    tag_507:\n        /* \"#utility.yul\":11871:11873   */\n      0x17\n        /* \"#utility.yul\":11866:11869   */\n      dup3\n        /* \"#utility.yul\":11862:11874   */\n      add\n        /* \"#utility.yul\":11855:11874   */\n      swap1\n      pop\n        /* \"#utility.yul\":11478:11880   */\n      swap2\n      swap1\n      pop\n      jump\t// out\n        /* \"#utility.yul\":11886:12288   */\n    tag_509:\n        /* \"#utility.yul\":12046:12049   */\n      0x00\n        /* \"#utility.yul\":12067:12152   */\n      tag_511\n        /* \"#utility.yul\":12149:12151   */\n      0x11\n        /* \"#utility.yul\":12144:12147   */\n      dup4\n        /* \"#utility.yul\":12067:12152   */\n      tag_482\n      jump\t// in\n    tag_511:\n        /* \"#utility.yul\":12060:12152   */\n      swap2\n      pop\n        /* \"#utility.yul\":12161:12254   */\n      tag_512\n        /* \"#utility.yul\":12250:12253   */\n      dup3\n        /* \"#utility.yul\":12161:12254   */\n      tag_513\n      jump\t// in\n    tag_512:\n        /* \"#utility.yul\":12279:12281   */\n      0x11\n        /* \"#utility.yul\":12274:12277   */\n      dup3\n        /* \"#utility.yul\":12270:12282   */\n      add\n        /* \"#utility.yul\":12263:12282   */\n      swap1\n      pop\n        /* \"#utility.yul\":11886:12288   */\n      swap2\n      swap1\n      pop\n      jump\t// out\n        /* \"#utility.yul\":12294:12660   */\n    tag_514:\n        /* \"#utility.yul\":12436:12439   */\n      0x00\n        /* \"#utility.yul\":12457:12524   */\n      tag_516\n        /* \"#utility.yul\":12521:12523   */\n      0x2f\n        /* \"#utility.yul\":12516:12519   */\n      dup4\n        /* \"#utility.yul\":12457:12524   */\n      tag_475\n      jump\t// in\n    tag_516:\n        /* \"#utility.yul\":12450:12524   */\n      swap2\n      pop\n        /* \"#utility.yul\":12533:12626   */\n      tag_517\n        /* \"#utility.yul\":12622:12625   */\n      dup3\n        /* \"#utility.yul\":12533:12626   */\n      tag_518\n      jump\t// in\n    tag_517:\n        /* \"#utility.yul\":12651:12653   */\n      0x40\n        /* \"#utility.yul\":12646:12649   */\n      dup3\n        /* \"#utility.yul\":12642:12654   */\n      add\n        /* \"#utility.yul\":12635:12654   */\n      swap1\n      pop\n        /* \"#utility.yul\":12294:12660   */\n      swap2\n      swap1\n      pop\n      jump\t// out\n        /* \"#utility.yul\":12720:13574   */\n    tag_519:\n        /* \"#utility.yul\":12841:12844   */\n      0x00\n        /* \"#utility.yul\":12877:12881   */\n      0x60\n        /* \"#utility.yul\":12872:12875   */\n      dup4\n        /* \"#utility.yul\":12868:12882   */\n      add\n        /* \"#utility.yul\":12964:12968   */\n      0x00\n        /* \"#utility.yul\":12957:12962   */\n      dup4\n        /* \"#utility.yul\":12953:12969   */\n      add\n        /* \"#utility.yul\":12947:12970   */\n      mload\n        /* \"#utility.yul\":13017:13020   */\n      dup5\n        /* \"#utility.yul\":13011:13015   */\n      dup3\n        /* \"#utility.yul\":13007:13021   */\n      sub\n        /* \"#utility.yul\":13000:13004   */\n      0x00\n        /* \"#utility.yul\":12995:12998   */\n      dup7\n        /* \"#utility.yul\":12991:13005   */\n      add\n        /* \"#utility.yul\":12984:13022   */\n      mstore\n        /* \"#utility.yul\":13043:13116   */\n      tag_521\n        /* \"#utility.yul\":13111:13115   */\n      dup3\n        /* \"#utility.yul\":13097:13109   */\n      dup3\n        /* \"#utility.yul\":13043:13116   */\n      tag_461\n      jump\t// in\n    tag_521:\n        /* \"#utility.yul\":13035:13116   */\n      swap2\n      pop\n        /* \"#utility.yul\":12892:13127   */\n      pop\n        /* \"#utility.yul\":13209:13213   */\n      0x20\n        /* \"#utility.yul\":13202:13207   */\n      dup4\n        /* \"#utility.yul\":13198:13214   */\n      add\n        /* \"#utility.yul\":13192:13215   */\n      mload\n        /* \"#utility.yul\":13228:13291   */\n      tag_522\n        /* \"#utility.yul\":13285:13289   */\n      0x20\n        /* \"#utility.yul\":13280:13283   */\n      dup7\n        /* \"#utility.yul\":13276:13290   */\n      add\n        /* \"#utility.yul\":13262:13274   */\n      dup3\n        /* \"#utility.yul\":13228:13291   */\n      tag_411\n      jump\t// in\n    tag_522:\n        /* \"#utility.yul\":13137:13301   */\n      pop\n        /* \"#utility.yul\":13384:13388   */\n      0x40\n        /* \"#utility.yul\":13377:13382   */\n      dup4\n        /* \"#utility.yul\":13373:13389   */\n      add\n        /* \"#utility.yul\":13367:13390   */\n      mload\n        /* \"#utility.yul\":13437:13440   */\n      dup5\n        /* \"#utility.yul\":13431:13435   */\n      dup3\n        /* \"#utility.yul\":13427:13441   */\n      sub\n        /* \"#utility.yul\":13420:13424   */\n      0x40\n        /* \"#utility.yul\":13415:13418   */\n      dup7\n        /* \"#utility.yul\":13411:13425   */\n      add\n        /* \"#utility.yul\":13404:13442   */\n      mstore\n        /* \"#utility.yul\":13463:13536   */\n      tag_523\n        /* \"#utility.yul\":13531:13535   */\n      dup3\n        /* \"#utility.yul\":13517:13529   */\n      dup3\n        /* \"#utility.yul\":13463:13536   */\n      tag_461\n      jump\t// in\n    tag_523:\n        /* \"#utility.yul\":13455:13536   */\n      swap2\n      pop\n        /* \"#utility.yul\":13311:13547   */\n      pop\n        /* \"#utility.yul\":13564:13568   */\n      dup1\n        /* \"#utility.yul\":13557:13568   */\n      swap2\n      pop\n        /* \"#utility.yul\":12846:13574   */\n      pop\n        /* \"#utility.yul\":12720:13574   */\n      swap3\n      swap2\n      pop\n      pop\n      jump\t// out\n        /* \"#utility.yul\":13632:14908   */\n    tag_524:\n        /* \"#utility.yul\":13751:13754   */\n      0x00\n        /* \"#utility.yul\":13787:13791   */\n      0xa0\n        /* \"#utility.yul\":13782:13785   */\n      dup4\n        /* \"#utility.yul\":13778:13792   */\n      add\n        /* \"#utility.yul\":13879:13883   */\n      0x00\n        /* \"#utility.yul\":13872:13877   */\n      dup4\n        /* \"#utility.yul\":13868:13884   */\n      add\n        /* \"#utility.yul\":13862:13885   */\n      mload\n        /* \"#utility.yul\":13932:13935   */\n      dup5\n        /* \"#utility.yul\":13926:13930   */\n      dup3\n        /* \"#utility.yul\":13922:13936   */\n      sub\n        /* \"#utility.yul\":13915:13919   */\n      0x00\n        /* \"#utility.yul\":13910:13913   */\n      dup7\n        /* \"#utility.yul\":13906:13920   */\n      add\n        /* \"#utility.yul\":13899:13937   */\n      mstore\n        /* \"#utility.yul\":13958:14061   */\n      tag_526\n        /* \"#utility.yul\":14056:14060   */\n      dup3\n        /* \"#utility.yul\":14042:14054   */\n      dup3\n        /* \"#utility.yul\":13958:14061   */\n      tag_422\n      jump\t// in\n    tag_526:\n        /* \"#utility.yul\":13950:14061   */\n      swap2\n      pop\n        /* \"#utility.yul\":13802:14072   */\n      pop\n        /* \"#utility.yul\":14163:14167   */\n      0x20\n        /* \"#utility.yul\":14156:14161   */\n      dup4\n        /* \"#utility.yul\":14152:14168   */\n      add\n        /* \"#utility.yul\":14146:14169   */\n      mload\n        /* \"#utility.yul\":14216:14219   */\n      dup5\n        /* \"#utility.yul\":14210:14214   */\n      dup3\n        /* \"#utility.yul\":14206:14220   */\n      sub\n        /* \"#utility.yul\":14199:14203   */\n      0x20\n        /* \"#utility.yul\":14194:14197   */\n      dup7\n        /* \"#utility.yul\":14190:14204   */\n      add\n        /* \"#utility.yul\":14183:14221   */\n      mstore\n        /* \"#utility.yul\":14242:14345   */\n      tag_527\n        /* \"#utility.yul\":14340:14344   */\n      dup3\n        /* \"#utility.yul\":14326:14338   */\n      dup3\n        /* \"#utility.yul\":14242:14345   */\n      tag_436\n      jump\t// in\n    tag_527:\n        /* \"#utility.yul\":14234:14345   */\n      swap2\n      pop\n        /* \"#utility.yul\":14082:14356   */\n      pop\n        /* \"#utility.yul\":14439:14443   */\n      0x40\n        /* \"#utility.yul\":14432:14437   */\n      dup4\n        /* \"#utility.yul\":14428:14444   */\n      add\n        /* \"#utility.yul\":14422:14445   */\n      mload\n        /* \"#utility.yul\":14458:14521   */\n      tag_528\n        /* \"#utility.yul\":14515:14519   */\n      0x40\n        /* \"#utility.yul\":14510:14513   */\n      dup7\n        /* \"#utility.yul\":14506:14520   */\n      add\n        /* \"#utility.yul\":14492:14504   */\n      dup3\n        /* \"#utility.yul\":14458:14521   */\n      tag_415\n      jump\t// in\n    tag_528:\n        /* \"#utility.yul\":14366:14531   */\n      pop\n        /* \"#utility.yul\":14617:14621   */\n      0x60\n        /* \"#utility.yul\":14610:14615   */\n      dup4\n        /* \"#utility.yul\":14606:14622   */\n      add\n        /* \"#utility.yul\":14600:14623   */\n      mload\n        /* \"#utility.yul\":14636:14699   */\n      tag_529\n        /* \"#utility.yul\":14693:14697   */\n      0x60\n        /* \"#utility.yul\":14688:14691   */\n      dup7\n        /* \"#utility.yul\":14684:14698   */\n      add\n        /* \"#utility.yul\":14670:14682   */\n      dup3\n        /* \"#utility.yul\":14636:14699   */\n      tag_415\n      jump\t// in\n    tag_529:\n        /* \"#utility.yul\":14541:14709   */\n      pop\n        /* \"#utility.yul\":14795:14799   */\n      0x80\n        /* \"#utility.yul\":14788:14793   */\n      dup4\n        /* \"#utility.yul\":14784:14800   */\n      add\n        /* \"#utility.yul\":14778:14801   */\n      mload\n        /* \"#utility.yul\":14814:14871   */\n      tag_530\n        /* \"#utility.yul\":14865:14869   */\n      0x80\n        /* \"#utility.yul\":14860:14863   */\n      dup7\n        /* \"#utility.yul\":14856:14870   */\n      add\n        /* \"#utility.yul\":14842:14854   */\n      dup3\n        /* \"#utility.yul\":14814:14871   */\n      tag_450\n      jump\t// in\n    tag_530:\n        /* \"#utility.yul\":14719:14881   */\n      pop\n        /* \"#utility.yul\":14898:14902   */\n      dup1\n        /* \"#utility.yul\":14891:14902   */\n      swap2\n      pop\n        /* \"#utility.yul\":13756:14908   */\n      pop\n        /* \"#utility.yul\":13632:14908   */\n      swap3\n      swap2\n      pop\n      pop\n      jump\t// out\n        /* \"#utility.yul\":14914:15022   */\n    tag_415:\n        /* \"#utility.yul\":14991:15015   */\n      tag_532\n        /* \"#utility.yul\":15009:15014   */\n      dup2\n        /* \"#utility.yul\":14991:15015   */\n      tag_533\n      jump\t// in\n    tag_532:\n        /* \"#utility.yul\":14986:14989   */\n      dup3\n        /* \"#utility.yul\":14979:15016   */\n      mstore\n        /* \"#utility.yul\":14914:15022   */\n      pop\n      pop\n      jump\t// out\n        /* \"#utility.yul\":15028:15146   */\n    tag_534:\n        /* \"#utility.yul\":15115:15139   */\n      tag_536\n        /* \"#utility.yul\":15133:15138   */\n      dup2\n        /* \"#utility.yul\":15115:15139   */\n      tag_533\n      jump\t// in\n    tag_536:\n        /* \"#utility.yul\":15110:15113   */\n      dup3\n        /* \"#utility.yul\":15103:15140   */\n      mstore\n        /* \"#utility.yul\":15028:15146   */\n      pop\n      pop\n      jump\t// out\n        /* \"#utility.yul\":15152:16119   */\n    tag_267:\n        /* \"#utility.yul\":15534:15537   */\n      0x00\n        /* \"#utility.yul\":15556:15704   */\n      tag_538\n        /* \"#utility.yul\":15700:15703   */\n      dup3\n        /* \"#utility.yul\":15556:15704   */\n      tag_504\n      jump\t// in\n    tag_538:\n        /* \"#utility.yul\":15549:15704   */\n      swap2\n      pop\n        /* \"#utility.yul\":15721:15816   */\n      tag_539\n        /* \"#utility.yul\":15812:15815   */\n      dup3\n        /* \"#utility.yul\":15803:15809   */\n      dup6\n        /* \"#utility.yul\":15721:15816   */\n      tag_478\n      jump\t// in\n    tag_539:\n        /* \"#utility.yul\":15714:15816   */\n      swap2\n      pop\n        /* \"#utility.yul\":15833:15981   */\n      tag_540\n        /* \"#utility.yul\":15977:15980   */\n      dup3\n        /* \"#utility.yul\":15833:15981   */\n      tag_509\n      jump\t// in\n    tag_540:\n        /* \"#utility.yul\":15826:15981   */\n      swap2\n      pop\n        /* \"#utility.yul\":15998:16093   */\n      tag_541\n        /* \"#utility.yul\":16089:16092   */\n      dup3\n        /* \"#utility.yul\":16080:16086   */\n      dup5\n        /* \"#utility.yul\":15998:16093   */\n      tag_478\n      jump\t// in\n    tag_541:\n        /* \"#utility.yul\":15991:16093   */\n      swap2\n      pop\n        /* \"#utility.yul\":16110:16113   */\n      dup2\n        /* \"#utility.yul\":16103:16113   */\n      swap1\n      pop\n        /* \"#utility.yul\":15152:16119   */\n      swap4\n      swap3\n      pop\n      pop\n      pop\n      jump\t// out\n        /* \"#utility.yul\":16125:16347   */\n    tag_74:\n        /* \"#utility.yul\":16218:16222   */\n      0x00\n        /* \"#utility.yul\":16256:16258   */\n      0x20\n        /* \"#utility.yul\":16245:16254   */\n      dup3\n        /* \"#utility.yul\":16241:16259   */\n      add\n        /* \"#utility.yul\":16233:16259   */\n      swap1\n      pop\n        /* \"#utility.yul\":16269:16340   */\n      tag_543\n        /* \"#utility.yul\":16337:16338   */\n      0x00\n        /* \"#utility.yul\":16326:16335   */\n      dup4\n        /* \"#utility.yul\":16322:16339   */\n      add\n        /* \"#utility.yul\":16313:16319   */\n      dup5\n        /* \"#utility.yul\":16269:16340   */\n      tag_419\n      jump\t// in\n    tag_543:\n        /* \"#utility.yul\":16125:16347   */\n      swap3\n      swap2\n      pop\n      pop\n      jump\t// out\n        /* \"#utility.yul\":16353:16894   */\n    tag_83:\n        /* \"#utility.yul\":16524:16528   */\n      0x00\n        /* \"#utility.yul\":16562:16565   */\n      0x80\n        /* \"#utility.yul\":16551:16560   */\n      dup3\n        /* \"#utility.yul\":16547:16566   */\n      add\n        /* \"#utility.yul\":16539:16566   */\n      swap1\n      pop\n        /* \"#utility.yul\":16576:16647   */\n      tag_545\n        /* \"#utility.yul\":16644:16645   */\n      0x00\n        /* \"#utility.yul\":16633:16642   */\n      dup4\n        /* \"#utility.yul\":16629:16646   */\n      add\n        /* \"#utility.yul\":16620:16626   */\n      dup8\n        /* \"#utility.yul\":16576:16647   */\n      tag_419\n      jump\t// in\n    tag_545:\n        /* \"#utility.yul\":16657:16729   */\n      tag_546\n        /* \"#utility.yul\":16725:16727   */\n      0x20\n        /* \"#utility.yul\":16714:16723   */\n      dup4\n        /* \"#utility.yul\":16710:16728   */\n      add\n        /* \"#utility.yul\":16701:16707   */\n      dup7\n        /* \"#utility.yul\":16657:16729   */\n      tag_534\n      jump\t// in\n    tag_546:\n        /* \"#utility.yul\":16739:16811   */\n      tag_547\n        /* \"#utility.yul\":16807:16809   */\n      0x40\n        /* \"#utility.yul\":16796:16805   */\n      dup4\n        /* \"#utility.yul\":16792:16810   */\n      add\n        /* \"#utility.yul\":16783:16789   */\n      dup6\n        /* \"#utility.yul\":16739:16811   */\n      tag_534\n      jump\t// in\n    tag_547:\n        /* \"#utility.yul\":16821:16887   */\n      tag_548\n        /* \"#utility.yul\":16883:16885   */\n      0x60\n        /* \"#utility.yul\":16872:16881   */\n      dup4\n        /* \"#utility.yul\":16868:16886   */\n      add\n        /* \"#utility.yul\":16859:16865   */\n      dup5\n        /* \"#utility.yul\":16821:16887   */\n      tag_454\n      jump\t// in\n    tag_548:\n        /* \"#utility.yul\":16353:16894   */\n      swap6\n      swap5\n      pop\n      pop\n      pop\n      pop\n      pop\n      jump\t// out\n        /* \"#utility.yul\":16900:17110   */\n    tag_33:\n        /* \"#utility.yul\":16987:16991   */\n      0x00\n        /* \"#utility.yul\":17025:17027   */\n      0x20\n        /* \"#utility.yul\":17014:17023   */\n      dup3\n        /* \"#utility.yul\":17010:17028   */\n      add\n        /* \"#utility.yul\":17002:17028   */\n      swap1\n      pop\n        /* \"#utility.yul\":17038:17103   */\n      tag_550\n        /* \"#utility.yul\":17100:17101   */\n      0x00\n        /* \"#utility.yul\":17089:17098   */\n      dup4\n        /* \"#utility.yul\":17085:17102   */\n      add\n        /* \"#utility.yul\":17076:17082   */\n      dup5\n        /* \"#utility.yul\":17038:17103   */\n      tag_454\n      jump\t// in\n    tag_550:\n        /* \"#utility.yul\":16900:17110   */\n      swap3\n      swap2\n      pop\n      pop\n      jump\t// out\n        /* \"#utility.yul\":17116:17338   */\n    tag_39:\n        /* \"#utility.yul\":17209:17213   */\n      0x00\n        /* \"#utility.yul\":17247:17249   */\n      0x20\n        /* \"#utility.yul\":17236:17245   */\n      dup3\n        /* \"#utility.yul\":17232:17250   */\n      add\n        /* \"#utility.yul\":17224:17250   */\n      swap1\n      pop\n        /* \"#utility.yul\":17260:17331   */\n      tag_552\n        /* \"#utility.yul\":17328:17329   */\n      0x00\n        /* \"#utility.yul\":17317:17326   */\n      dup4\n        /* \"#utility.yul\":17313:17330   */\n      add\n        /* \"#utility.yul\":17304:17310   */\n      dup5\n        /* \"#utility.yul\":17260:17331   */\n      tag_457\n      jump\t// in\n    tag_552:\n        /* \"#utility.yul\":17116:17338   */\n      swap3\n      swap2\n      pop\n      pop\n      jump\t// out\n        /* \"#utility.yul\":17344:17657   */\n    tag_57:\n        /* \"#utility.yul\":17457:17461   */\n      0x00\n        /* \"#utility.yul\":17495:17497   */\n      0x20\n        /* \"#utility.yul\":17484:17493   */\n      dup3\n        /* \"#utility.yul\":17480:17498   */\n      add\n        /* \"#utility.yul\":17472:17498   */\n      swap1\n      pop\n        /* \"#utility.yul\":17544:17553   */\n      dup2\n        /* \"#utility.yul\":17538:17542   */\n      dup2\n        /* \"#utility.yul\":17534:17554   */\n      sub\n        /* \"#utility.yul\":17530:17531   */\n      0x00\n        /* \"#utility.yul\":17519:17528   */\n      dup4\n        /* \"#utility.yul\":17515:17532   */\n      add\n        /* \"#utility.yul\":17508:17555   */\n      mstore\n        /* \"#utility.yul\":17572:17650   */\n      tag_554\n        /* \"#utility.yul\":17645:17649   */\n      dup2\n        /* \"#utility.yul\":17636:17642   */\n      dup5\n        /* \"#utility.yul\":17572:17650   */\n      tag_471\n      jump\t// in\n    tag_554:\n        /* \"#utility.yul\":17564:17650   */\n      swap1\n      pop\n        /* \"#utility.yul\":17344:17657   */\n      swap3\n      swap2\n      pop\n      pop\n      jump\t// out\n        /* \"#utility.yul\":17663:18287   */\n    tag_45:\n        /* \"#utility.yul\":17852:17856   */\n      0x00\n        /* \"#utility.yul\":17890:17892   */\n      0x60\n        /* \"#utility.yul\":17879:17888   */\n      dup3\n        /* \"#utility.yul\":17875:17893   */\n      add\n        /* \"#utility.yul\":17867:17893   */\n      swap1\n      pop\n        /* \"#utility.yul\":17939:17948   */\n      dup2\n        /* \"#utility.yul\":17933:17937   */\n      dup2\n        /* \"#utility.yul\":17929:17949   */\n      sub\n        /* \"#utility.yul\":17925:17926   */\n      0x00\n        /* \"#utility.yul\":17914:17923   */\n      dup4\n        /* \"#utility.yul\":17910:17927   */\n      add\n        /* \"#utility.yul\":17903:17950   */\n      mstore\n        /* \"#utility.yul\":17967:18045   */\n      tag_556\n        /* \"#utility.yul\":18040:18044   */\n      dup2\n        /* \"#utility.yul\":18031:18037   */\n      dup7\n        /* \"#utility.yul\":17967:18045   */\n      tag_471\n      jump\t// in\n    tag_556:\n        /* \"#utility.yul\":17959:18045   */\n      swap1\n      pop\n        /* \"#utility.yul\":18055:18127   */\n      tag_557\n        /* \"#utility.yul\":18123:18125   */\n      0x20\n        /* \"#utility.yul\":18112:18121   */\n      dup4\n        /* \"#utility.yul\":18108:18126   */\n      add\n        /* \"#utility.yul\":18099:18105   */\n      dup6\n        /* \"#utility.yul\":18055:18127   */\n      tag_419\n      jump\t// in\n    tag_557:\n        /* \"#utility.yul\":18174:18183   */\n      dup2\n        /* \"#utility.yul\":18168:18172   */\n      dup2\n        /* \"#utility.yul\":18164:18184   */\n      sub\n        /* \"#utility.yul\":18159:18161   */\n      0x40\n        /* \"#utility.yul\":18148:18157   */\n      dup4\n        /* \"#utility.yul\":18144:18162   */\n      add\n        /* \"#utility.yul\":18137:18185   */\n      mstore\n        /* \"#utility.yul\":18202:18280   */\n      tag_558\n        /* \"#utility.yul\":18275:18279   */\n      dup2\n        /* \"#utility.yul\":18266:18272   */\n      dup5\n        /* \"#utility.yul\":18202:18280   */\n      tag_471\n      jump\t// in\n    tag_558:\n        /* \"#utility.yul\":18194:18280   */\n      swap1\n      pop\n        /* \"#utility.yul\":17663:18287   */\n      swap5\n      swap4\n      pop\n      pop\n      pop\n      pop\n      jump\t// out\n        /* \"#utility.yul\":18293:18712   */\n    tag_295:\n        /* \"#utility.yul\":18459:18463   */\n      0x00\n        /* \"#utility.yul\":18497:18499   */\n      0x20\n        /* \"#utility.yul\":18486:18495   */\n      dup3\n        /* \"#utility.yul\":18482:18500   */\n      add\n        /* \"#utility.yul\":18474:18500   */\n      swap1\n      pop\n        /* \"#utility.yul\":18546:18555   */\n      dup2\n        /* \"#utility.yul\":18540:18544   */\n      dup2\n        /* \"#utility.yul\":18536:18556   */\n      sub\n        /* \"#utility.yul\":18532:18533   */\n      0x00\n        /* \"#utility.yul\":18521:18530   */\n      dup4\n        /* \"#utility.yul\":18517:18534   */\n      add\n        /* \"#utility.yul\":18510:18557   */\n      mstore\n        /* \"#utility.yul\":18574:18705   */\n      tag_560\n        /* \"#utility.yul\":18700:18704   */\n      dup2\n        /* \"#utility.yul\":18574:18705   */\n      tag_484\n      jump\t// in\n    tag_560:\n        /* \"#utility.yul\":18566:18705   */\n      swap1\n      pop\n        /* \"#utility.yul\":18293:18712   */\n      swap2\n      swap1\n      pop\n      jump\t// out\n        /* \"#utility.yul\":18718:19137   */\n    tag_235:\n        /* \"#utility.yul\":18884:18888   */\n      0x00\n        /* \"#utility.yul\":18922:18924   */\n      0x20\n        /* \"#utility.yul\":18911:18920   */\n      dup3\n        /* \"#utility.yul\":18907:18925   */\n      add\n        /* \"#utility.yul\":18899:18925   */\n      swap1\n      pop\n        /* \"#utility.yul\":18971:18980   */\n      dup2\n        /* \"#utility.yul\":18965:18969   */\n      dup2\n        /* \"#utility.yul\":18961:18981   */\n      sub\n        /* \"#utility.yul\":18957:18958   */\n      0x00\n        /* \"#utility.yul\":18946:18955   */\n      dup4\n        /* \"#utility.yul\":18942:18959   */\n      add\n        /* \"#utility.yul\":18935:18982   */\n      mstore\n        /* \"#utility.yul\":18999:19130   */\n      tag_562\n        /* \"#utility.yul\":19125:19129   */\n      dup2\n        /* \"#utility.yul\":18999:19130   */\n      tag_489\n      jump\t// in\n    tag_562:\n        /* \"#utility.yul\":18991:19130   */\n      swap1\n      pop\n        /* \"#utility.yul\":18718:19137   */\n      swap2\n      swap1\n      pop\n      jump\t// out\n        /* \"#utility.yul\":19143:19562   */\n    tag_166:\n        /* \"#utility.yul\":19309:19313   */\n      0x00\n        /* \"#utility.yul\":19347:19349   */\n      0x20\n        /* \"#utility.yul\":19336:19345   */\n      dup3\n        /* \"#utility.yul\":19332:19350   */\n      add\n        /* \"#utility.yul\":19324:19350   */\n      swap1\n      pop\n        /* \"#utility.yul\":19396:19405   */\n      dup2\n        /* \"#utility.yul\":19390:19394   */\n      dup2\n        /* \"#utility.yul\":19386:19406   */\n      sub\n        /* \"#utility.yul\":19382:19383   */\n      0x00\n        /* \"#utility.yul\":19371:19380   */\n      dup4\n        /* \"#utility.yul\":19367:19384   */\n      add\n        /* \"#utility.yul\":19360:19407   */\n      mstore\n        /* \"#utility.yul\":19424:19555   */\n      tag_564\n        /* \"#utility.yul\":19550:19554   */\n      dup2\n        /* \"#utility.yul\":19424:19555   */\n      tag_494\n      jump\t// in\n    tag_564:\n        /* \"#utility.yul\":19416:19555   */\n      swap1\n      pop\n        /* \"#utility.yul\":19143:19562   */\n      swap2\n      swap1\n      pop\n      jump\t// out\n        /* \"#utility.yul\":19568:19987   */\n    tag_256:\n        /* \"#utility.yul\":19734:19738   */\n      0x00\n        /* \"#utility.yul\":19772:19774   */\n      0x20\n        /* \"#utility.yul\":19761:19770   */\n      dup3\n        /* \"#utility.yul\":19757:19775   */\n      add\n        /* \"#utility.yul\":19749:19775   */\n      swap1\n      pop\n        /* \"#utility.yul\":19821:19830   */\n      dup2\n        /* \"#utility.yul\":19815:19819   */\n      dup2\n        /* \"#utility.yul\":19811:19831   */\n      sub\n        /* \"#utility.yul\":19807:19808   */\n      0x00\n        /* \"#utility.yul\":19796:19805   */\n      dup4\n        /* \"#utility.yul\":19792:19809   */\n      add\n        /* \"#utility.yul\":19785:19832   */\n      mstore\n        /* \"#utility.yul\":19849:19980   */\n      tag_566\n        /* \"#utility.yul\":19975:19979   */\n      dup2\n        /* \"#utility.yul\":19849:19980   */\n      tag_499\n      jump\t// in\n    tag_566:\n        /* \"#utility.yul\":19841:19980   */\n      swap1\n      pop\n        /* \"#utility.yul\":19568:19987   */\n      swap2\n      swap1\n      pop\n      jump\t// out\n        /* \"#utility.yul\":19993:20412   */\n    tag_152:\n        /* \"#utility.yul\":20159:20163   */\n      0x00\n        /* \"#utility.yul\":20197:20199   */\n      0x20\n        /* \"#utility.yul\":20186:20195   */\n      dup3\n        /* \"#utility.yul\":20182:20200   */\n      add\n        /* \"#utility.yul\":20174:20200   */\n      swap1\n      pop\n        /* \"#utility.yul\":20246:20255   */\n      dup2\n        /* \"#utility.yul\":20240:20244   */\n      dup2\n        /* \"#utility.yul\":20236:20256   */\n      sub\n        /* \"#utility.yul\":20232:20233   */\n      0x00\n        /* \"#utility.yul\":20221:20230   */\n      dup4\n        /* \"#utility.yul\":20217:20234   */\n      add\n        /* \"#utility.yul\":20210:20257   */\n      mstore\n        /* \"#utility.yul\":20274:20405   */\n      tag_568\n        /* \"#utility.yul\":20400:20404   */\n      dup2\n        /* \"#utility.yul\":20274:20405   */\n      tag_514\n      jump\t// in\n    tag_568:\n        /* \"#utility.yul\":20266:20405   */\n      swap1\n      pop\n        /* \"#utility.yul\":19993:20412   */\n      swap2\n      swap1\n      pop\n      jump\t// out\n        /* \"#utility.yul\":20418:20795   */\n    tag_93:\n        /* \"#utility.yul\":20563:20567   */\n      0x00\n        /* \"#utility.yul\":20601:20603   */\n      0x20\n        /* \"#utility.yul\":20590:20599   */\n      dup3\n        /* \"#utility.yul\":20586:20604   */\n      add\n        /* \"#utility.yul\":20578:20604   */\n      swap1\n      pop\n        /* \"#utility.yul\":20650:20659   */\n      dup2\n        /* \"#utility.yul\":20644:20648   */\n      dup2\n        /* \"#utility.yul\":20640:20660   */\n      sub\n        /* \"#utility.yul\":20636:20637   */\n      0x00\n        /* \"#utility.yul\":20625:20634   */\n      dup4\n        /* \"#utility.yul\":20621:20638   */\n      add\n        /* \"#utility.yul\":20614:20661   */\n      mstore\n        /* \"#utility.yul\":20678:20788   */\n      tag_570\n        /* \"#utility.yul\":20783:20787   */\n      dup2\n        /* \"#utility.yul\":20774:20780   */\n      dup5\n        /* \"#utility.yul\":20678:20788   */\n      tag_519\n      jump\t// in\n    tag_570:\n        /* \"#utility.yul\":20670:20788   */\n      swap1\n      pop\n        /* \"#utility.yul\":20418:20795   */\n      swap3\n      swap2\n      pop\n      pop\n      jump\t// out\n        /* \"#utility.yul\":20801:21174   */\n    tag_88:\n        /* \"#utility.yul\":20944:20948   */\n      0x00\n        /* \"#utility.yul\":20982:20984   */\n      0x20\n        /* \"#utility.yul\":20971:20980   */\n      dup3\n        /* \"#utility.yul\":20967:20985   */\n      add\n        /* \"#utility.yul\":20959:20985   */\n      swap1\n      pop\n        /* \"#utility.yul\":21031:21040   */\n      dup2\n        /* \"#utility.yul\":21025:21029   */\n      dup2\n        /* \"#utility.yul\":21021:21041   */\n      sub\n        /* \"#utility.yul\":21017:21018   */\n      0x00\n        /* \"#utility.yul\":21006:21015   */\n      dup4\n        /* \"#utility.yul\":21002:21019   */\n      add\n        /* \"#utility.yul\":20995:21042   */\n      mstore\n        /* \"#utility.yul\":21059:21167   */\n      tag_572\n        /* \"#utility.yul\":21162:21166   */\n      dup2\n        /* \"#utility.yul\":21153:21159   */\n      dup5\n        /* \"#utility.yul\":21059:21167   */\n      tag_524\n      jump\t// in\n    tag_572:\n        /* \"#utility.yul\":21051:21167   */\n      swap1\n      pop\n        /* \"#utility.yul\":20801:21174   */\n      swap3\n      swap2\n      pop\n      pop\n      jump\t// out\n        /* \"#utility.yul\":21180:21309   */\n    tag_319:\n        /* \"#utility.yul\":21214:21220   */\n      0x00\n        /* \"#utility.yul\":21241:21261   */\n      tag_574\n      tag_575\n      jump\t// in\n    tag_574:\n        /* \"#utility.yul\":21231:21261   */\n      swap1\n      pop\n        /* \"#utility.yul\":21270:21303   */\n      tag_576\n        /* \"#utility.yul\":21298:21302   */\n      dup3\n        /* \"#utility.yul\":21290:21296   */\n      dup3\n        /* \"#utility.yul\":21270:21303   */\n      tag_577\n      jump\t// in\n    tag_576:\n        /* \"#utility.yul\":21180:21309   */\n      swap2\n      swap1\n      pop\n      jump\t// out\n        /* \"#utility.yul\":21315:21390   */\n    tag_575:\n        /* \"#utility.yul\":21348:21354   */\n      0x00\n        /* \"#utility.yul\":21381:21383   */\n      0x40\n        /* \"#utility.yul\":21375:21384   */\n      mload\n        /* \"#utility.yul\":21365:21384   */\n      swap1\n      pop\n        /* \"#utility.yul\":21315:21390   */\n      swap1\n      jump\t// out\n        /* \"#utility.yul\":21396:21707   */\n    tag_318:\n        /* \"#utility.yul\":21473:21477   */\n      0x00\n        /* \"#utility.yul\":21563:21581   */\n      0xffffffffffffffff\n        /* \"#utility.yul\":21555:21561   */\n      dup3\n        /* \"#utility.yul\":21552:21582   */\n      gt\n        /* \"#utility.yul\":21549:21605   */\n      iszero\n      tag_580\n      jumpi\n        /* \"#utility.yul\":21585:21603   */\n      tag_581\n      tag_276\n      jump\t// in\n    tag_581:\n        /* \"#utility.yul\":21549:21605   */\n    tag_580:\n        /* \"#utility.yul\":21635:21639   */\n      0x20\n        /* \"#utility.yul\":21627:21633   */\n      dup3\n        /* \"#utility.yul\":21623:21640   */\n      mul\n        /* \"#utility.yul\":21615:21640   */\n      swap1\n      pop\n        /* \"#utility.yul\":21695:21699   */\n      0x20\n        /* \"#utility.yul\":21689:21693   */\n      dup2\n        /* \"#utility.yul\":21685:21700   */\n      add\n        /* \"#utility.yul\":21677:21700   */\n      swap1\n      pop\n        /* \"#utility.yul\":21396:21707   */\n      swap2\n      swap1\n      pop\n      jump\t// out\n        /* \"#utility.yul\":21713:22021   */\n    tag_332:\n        /* \"#utility.yul\":21775:21779   */\n      0x00\n        /* \"#utility.yul\":21865:21883   */\n      0xffffffffffffffff\n        /* \"#utility.yul\":21857:21863   */\n      dup3\n        /* \"#utility.yul\":21854:21884   */\n      gt\n        /* \"#utility.yul\":21851:21907   */\n      iszero\n      tag_583\n      jumpi\n        /* \"#utility.yul\":21887:21905   */\n      tag_584\n      tag_276\n      jump\t// in\n    tag_584:\n        /* \"#utility.yul\":21851:21907   */\n    tag_583:\n        /* \"#utility.yul\":21925:21954   */\n      tag_585\n        /* \"#utility.yul\":21947:21953   */\n      dup3\n        /* \"#utility.yul\":21925:21954   */\n      tag_470\n      jump\t// in\n    tag_585:\n        /* \"#utility.yul\":21917:21954   */\n      swap1\n      pop\n        /* \"#utility.yul\":22009:22013   */\n      0x20\n        /* \"#utility.yul\":22003:22007   */\n      dup2\n        /* \"#utility.yul\":21999:22014   */\n      add\n        /* \"#utility.yul\":21991:22014   */\n      swap1\n      pop\n        /* \"#utility.yul\":21713:22021   */\n      swap2\n      swap1\n      pop\n      jump\t// out\n        /* \"#utility.yul\":22027:22159   */\n    tag_429:\n        /* \"#utility.yul\":22094:22098   */\n      0x00\n        /* \"#utility.yul\":22117:22120   */\n      dup2\n        /* \"#utility.yul\":22109:22120   */\n      swap1\n      pop\n        /* \"#utility.yul\":22147:22151   */\n      0x20\n        /* \"#utility.yul\":22142:22145   */\n      dup3\n        /* \"#utility.yul\":22138:22152   */\n      add\n        /* \"#utility.yul\":22130:22152   */\n      swap1\n      pop\n        /* \"#utility.yul\":22027:22159   */\n      swap2\n      swap1\n      pop\n      jump\t// out\n        /* \"#utility.yul\":22165:22297   */\n    tag_443:\n        /* \"#utility.yul\":22232:22236   */\n      0x00\n        /* \"#utility.yul\":22255:22258   */\n      dup2\n        /* \"#utility.yul\":22247:22258   */\n      swap1\n      pop\n        /* \"#utility.yul\":22285:22289   */\n      0x20\n        /* \"#utility.yul\":22280:22283   */\n      dup3\n        /* \"#utility.yul\":22276:22290   */\n      add\n        /* \"#utility.yul\":22268:22290   */\n      swap1\n      pop\n        /* \"#utility.yul\":22165:22297   */\n      swap2\n      swap1\n      pop\n      jump\t// out\n        /* \"#utility.yul\":22303:22417   */\n    tag_425:\n        /* \"#utility.yul\":22370:22376   */\n      0x00\n        /* \"#utility.yul\":22404:22409   */\n      dup2\n        /* \"#utility.yul\":22398:22410   */\n      mload\n        /* \"#utility.yul\":22388:22410   */\n      swap1\n      pop\n        /* \"#utility.yul\":22303:22417   */\n      swap2\n      swap1\n      pop\n      jump\t// out\n        /* \"#utility.yul\":22423:22537   */\n    tag_439:\n        /* \"#utility.yul\":22490:22496   */\n      0x00\n        /* \"#utility.yul\":22524:22529   */\n      dup2\n        /* \"#utility.yul\":22518:22530   */\n      mload\n        /* \"#utility.yul\":22508:22530   */\n      swap1\n      pop\n        /* \"#utility.yul\":22423:22537   */\n      swap2\n      swap1\n      pop\n      jump\t// out\n        /* \"#utility.yul\":22543:22642   */\n    tag_464:\n        /* \"#utility.yul\":22595:22601   */\n      0x00\n        /* \"#utility.yul\":22629:22634   */\n      dup2\n        /* \"#utility.yul\":22623:22635   */\n      mload\n        /* \"#utility.yul\":22613:22635   */\n      swap1\n      pop\n        /* \"#utility.yul\":22543:22642   */\n      swap2\n      swap1\n      pop\n      jump\t// out\n        /* \"#utility.yul\":22648:22761   */\n    tag_435:\n        /* \"#utility.yul\":22718:22722   */\n      0x00\n        /* \"#utility.yul\":22750:22754   */\n      0x20\n        /* \"#utility.yul\":22745:22748   */\n      dup3\n        /* \"#utility.yul\":22741:22755   */\n      add\n        /* \"#utility.yul\":22733:22755   */\n      swap1\n      pop\n        /* \"#utility.yul\":22648:22761   */\n      swap2\n      swap1\n      pop\n      jump\t// out\n        /* \"#utility.yul\":22767:22880   */\n    tag_449:\n        /* \"#utility.yul\":22837:22841   */\n      0x00\n        /* \"#utility.yul\":22869:22873   */\n      0x20\n        /* \"#utility.yul\":22864:22867   */\n      dup3\n        /* \"#utility.yul\":22860:22874   */\n      add\n        /* \"#utility.yul\":22852:22874   */\n      swap1\n      pop\n        /* \"#utility.yul\":22767:22880   */\n      swap2\n      swap1\n      pop\n      jump\t// out\n        /* \"#utility.yul\":22886:23060   */\n    tag_427:\n        /* \"#utility.yul\":22975:22986   */\n      0x00\n        /* \"#utility.yul\":23009:23015   */\n      dup3\n        /* \"#utility.yul\":23004:23007   */\n      dup3\n        /* \"#utility.yul\":22997:23016   */\n      mstore\n        /* \"#utility.yul\":23049:23053   */\n      0x20\n        /* \"#utility.yul\":23044:23047   */\n      dup3\n        /* \"#utility.yul\":23040:23054   */\n      add\n        /* \"#utility.yul\":23025:23054   */\n      swap1\n      pop\n        /* \"#utility.yul\":22886:23060   */\n      swap3\n      swap2\n      pop\n      pop\n      jump\t// out\n        /* \"#utility.yul\":23066:23240   */\n    tag_441:\n        /* \"#utility.yul\":23155:23166   */\n      0x00\n        /* \"#utility.yul\":23189:23195   */\n      dup3\n        /* \"#utility.yul\":23184:23187   */\n      dup3\n        /* \"#utility.yul\":23177:23196   */\n      mstore\n        /* \"#utility.yul\":23229:23233   */\n      0x20\n        /* \"#utility.yul\":23224:23227   */\n      dup3\n        /* \"#utility.yul\":23220:23234   */\n      add\n        /* \"#utility.yul\":23205:23234   */\n      swap1\n      pop\n        /* \"#utility.yul\":23066:23240   */\n      swap3\n      swap2\n      pop\n      pop\n      jump\t// out\n        /* \"#utility.yul\":23246:23405   */\n    tag_466:\n        /* \"#utility.yul\":23320:23331   */\n      0x00\n        /* \"#utility.yul\":23354:23360   */\n      dup3\n        /* \"#utility.yul\":23349:23352   */\n      dup3\n        /* \"#utility.yul\":23342:23361   */\n      mstore\n        /* \"#utility.yul\":23394:23398   */\n      0x20\n        /* \"#utility.yul\":23389:23392   */\n      dup3\n        /* \"#utility.yul\":23385:23399   */\n      add\n        /* \"#utility.yul\":23370:23399   */\n      swap1\n      pop\n        /* \"#utility.yul\":23246:23405   */\n      swap3\n      swap2\n      pop\n      pop\n      jump\t// out\n        /* \"#utility.yul\":23411:23580   */\n    tag_475:\n        /* \"#utility.yul\":23495:23506   */\n      0x00\n        /* \"#utility.yul\":23529:23535   */\n      dup3\n        /* \"#utility.yul\":23524:23527   */\n      dup3\n        /* \"#utility.yul\":23517:23536   */\n      mstore\n        /* \"#utility.yul\":23569:23573   */\n      0x20\n        /* \"#utility.yul\":23564:23567   */\n      dup3\n        /* \"#utility.yul\":23560:23574   */\n      add\n        /* \"#utility.yul\":23545:23574   */\n      swap1\n      pop\n        /* \"#utility.yul\":23411:23580   */\n      swap3\n      swap2\n      pop\n      pop\n      jump\t// out\n        /* \"#utility.yul\":23586:23734   */\n    tag_482:\n        /* \"#utility.yul\":23688:23699   */\n      0x00\n        /* \"#utility.yul\":23725:23728   */\n      dup2\n        /* \"#utility.yul\":23710:23728   */\n      swap1\n      pop\n        /* \"#utility.yul\":23586:23734   */\n      swap3\n      swap2\n      pop\n      pop\n      jump\t// out\n        /* \"#utility.yul\":23740:24045   */\n    tag_273:\n        /* \"#utility.yul\":23780:23783   */\n      0x00\n        /* \"#utility.yul\":23799:23819   */\n      tag_599\n        /* \"#utility.yul\":23817:23818   */\n      dup3\n        /* \"#utility.yul\":23799:23819   */\n      tag_533\n      jump\t// in\n    tag_599:\n        /* \"#utility.yul\":23794:23819   */\n      swap2\n      pop\n        /* \"#utility.yul\":23833:23853   */\n      tag_600\n        /* \"#utility.yul\":23851:23852   */\n      dup4\n        /* \"#utility.yul\":23833:23853   */\n      tag_533\n      jump\t// in\n    tag_600:\n        /* \"#utility.yul\":23828:23853   */\n      swap3\n      pop\n        /* \"#utility.yul\":23987:23988   */\n      dup3\n        /* \"#utility.yul\":23919:23985   */\n      0xffffffffffffffffffffffffffffffffffffffffffffffffffffffffffffffff\n        /* \"#utility.yul\":23915:23989   */\n      sub\n        /* \"#utility.yul\":23912:23913   */\n      dup3\n        /* \"#utility.yul\":23909:23990   */\n      gt\n        /* \"#utility.yul\":23906:24013   */\n      iszero\n      tag_601\n      jumpi\n        /* \"#utility.yul\":23993:24011   */\n      tag_602\n      tag_603\n      jump\t// in\n    tag_602:\n        /* \"#utility.yul\":23906:24013   */\n    tag_601:\n        /* \"#utility.yul\":24037:24038   */\n      dup3\n        /* \"#utility.yul\":24034:24035   */\n      dup3\n        /* \"#utility.yul\":24030:24039   */\n      add\n        /* \"#utility.yul\":24023:24039   */\n      swap1\n      pop\n        /* \"#utility.yul\":23740:24045   */\n      swap3\n      swap2\n      pop\n      pop\n      jump\t// out\n        /* \"#utility.yul\":24051:24399   */\n    tag_271:\n        /* \"#utility.yul\":24091:24098   */\n      0x00\n        /* \"#utility.yul\":24114:24134   */\n      tag_605\n        /* \"#utility.yul\":24132:24133   */\n      dup3\n        /* \"#utility.yul\":24114:24134   */\n      tag_533\n      jump\t// in\n    tag_605:\n        /* \"#utility.yul\":24109:24134   */\n      swap2\n      pop\n        /* \"#utility.yul\":24148:24168   */\n      tag_606\n        /* \"#utility.yul\":24166:24167   */\n      dup4\n        /* \"#utility.yul\":24148:24168   */\n      tag_533\n      jump\t// in\n    tag_606:\n        /* \"#utility.yul\":24143:24168   */\n      swap3\n      pop\n        /* \"#utility.yul\":24336:24337   */\n      dup2\n        /* \"#utility.yul\":24268:24334   */\n      0xffffffffffffffffffffffffffffffffffffffffffffffffffffffffffffffff\n        /* \"#utility.yul\":24264:24338   */\n      div\n        /* \"#utility.yul\":24261:24262   */\n      dup4\n        /* \"#utility.yul\":24258:24339   */\n      gt\n        /* \"#utility.yul\":24253:24254   */\n      dup3\n        /* \"#utility.yul\":24246:24255   */\n      iszero\n        /* \"#utility.yul\":24239:24256   */\n      iszero\n        /* \"#utility.yul\":24235:24340   */\n      and\n        /* \"#utility.yul\":24232:24363   */\n      iszero\n      tag_607\n      jumpi\n        /* \"#utility.yul\":24343:24361   */\n      tag_608\n      tag_603\n      jump\t// in\n    tag_608:\n        /* \"#utility.yul\":24232:24363   */\n    tag_607:\n        /* \"#utility.yul\":24391:24392   */\n      dup3\n        /* \"#utility.yul\":24388:24389   */\n      dup3\n        /* \"#utility.yul\":24384:24393   */\n      mul\n        /* \"#utility.yul\":24373:24393   */\n      swap1\n      pop\n        /* \"#utility.yul\":24051:24399   */\n      swap3\n      swap2\n      pop\n      pop\n      jump\t// out\n        /* \"#utility.yul\":24405:24501   */\n    tag_418:\n        /* \"#utility.yul\":24442:24449   */\n      0x00\n        /* \"#utility.yul\":24471:24495   */\n      tag_610\n        /* \"#utility.yul\":24489:24494   */\n      dup3\n        /* \"#utility.yul\":24471:24495   */\n      tag_611\n      jump\t// in\n    tag_610:\n        /* \"#utility.yul\":24460:24495   */\n      swap1\n      pop\n        /* \"#utility.yul\":24405:24501   */\n      swap2\n      swap1\n      pop\n      jump\t// out\n        /* \"#utility.yul\":24507:24597   */\n    tag_453:\n        /* \"#utility.yul\":24541:24548   */\n      0x00\n        /* \"#utility.yul\":24584:24589   */\n      dup2\n        /* \"#utility.yul\":24577:24590   */\n      iszero\n        /* \"#utility.yul\":24570:24591   */\n      iszero\n        /* \"#utility.yul\":24559:24591   */\n      swap1\n      pop\n        /* \"#utility.yul\":24507:24597   */\n      swap2\n      swap1\n      pop\n      jump\t// out\n        /* \"#utility.yul\":24603:24680   */\n    tag_460:\n        /* \"#utility.yul\":24640:24647   */\n      0x00\n        /* \"#utility.yul\":24669:24674   */\n      dup2\n        /* \"#utility.yul\":24658:24674   */\n      swap1\n      pop\n        /* \"#utility.yul\":24603:24680   */\n      swap2\n      swap1\n      pop\n      jump\t// out\n        /* \"#utility.yul\":24686:24835   */\n    tag_614:\n        /* \"#utility.yul\":24722:24729   */\n      0x00\n        /* \"#utility.yul\":24762:24828   */\n      0xffffffff00000000000000000000000000000000000000000000000000000000\n        /* \"#utility.yul\":24755:24760   */\n      dup3\n        /* \"#utility.yul\":24751:24829   */\n      and\n        /* \"#utility.yul\":24740:24829   */\n      swap1\n      pop\n        /* \"#utility.yul\":24686:24835   */\n      swap2\n      swap1\n      pop\n      jump\t// out\n        /* \"#utility.yul\":24841:24967   */\n    tag_611:\n        /* \"#utility.yul\":24878:24885   */\n      0x00\n        /* \"#utility.yul\":24918:24960   */\n      0xffffffffffffffffffffffffffffffffffffffff\n        /* \"#utility.yul\":24911:24916   */\n      dup3\n        /* \"#utility.yul\":24907:24961   */\n      and\n        /* \"#utility.yul\":24896:24961   */\n      swap1\n      pop\n        /* \"#utility.yul\":24841:24967   */\n      swap2\n      swap1\n      pop\n      jump\t// out\n        /* \"#utility.yul\":24973:25050   */\n    tag_533:\n        /* \"#utility.yul\":25010:25017   */\n      0x00\n        /* \"#utility.yul\":25039:25044   */\n      dup2\n        /* \"#utility.yul\":25028:25044   */\n      swap1\n      pop\n        /* \"#utility.yul\":24973:25050   */\n      swap2\n      swap1\n      pop\n      jump\t// out\n        /* \"#utility.yul\":25056:25210   */\n    tag_337:\n        /* \"#utility.yul\":25140:25146   */\n      dup3\n        /* \"#utility.yul\":25135:25138   */\n      dup2\n        /* \"#utility.yul\":25130:25133   */\n      dup4\n        /* \"#utility.yul\":25117:25147   */\n      calldatacopy\n        /* \"#utility.yul\":25202:25203   */\n      0x00\n        /* \"#utility.yul\":25193:25199   */\n      dup4\n        /* \"#utility.yul\":25188:25191   */\n      dup4\n        /* \"#utility.yul\":25184:25200   */\n      add\n        /* \"#utility.yul\":25177:25204   */\n      mstore\n        /* \"#utility.yul\":25056:25210   */\n      pop\n      pop\n      pop\n      jump\t// out\n        /* \"#utility.yul\":25216:25523   */\n    tag_468:\n        /* \"#utility.yul\":25284:25285   */\n      0x00\n        /* \"#utility.yul\":25294:25407   */\n    tag_620:\n        /* \"#utility.yul\":25308:25314   */\n      dup4\n        /* \"#utility.yul\":25305:25306   */\n      dup2\n        /* \"#utility.yul\":25302:25315   */\n      lt\n        /* \"#utility.yul\":25294:25407   */\n      iszero\n      tag_622\n      jumpi\n        /* \"#utility.yul\":25393:25394   */\n      dup1\n        /* \"#utility.yul\":25388:25391   */\n      dup3\n        /* \"#utility.yul\":25384:25395   */\n      add\n        /* \"#utility.yul\":25378:25396   */\n      mload\n        /* \"#utility.yul\":25374:25375   */\n      dup2\n        /* \"#utility.yul\":25369:25372   */\n      dup5\n        /* \"#utility.yul\":25365:25376   */\n      add\n        /* \"#utility.yul\":25358:25397   */\n      mstore\n        /* \"#utility.yul\":25330:25332   */\n      0x20\n        /* \"#utility.yul\":25327:25328   */\n      dup2\n        /* \"#utility.yul\":25323:25333   */\n      add\n        /* \"#utility.yul\":25318:25333   */\n      swap1\n      pop\n        /* \"#utility.yul\":25294:25407   */\n      jump(tag_620)\n    tag_622:\n        /* \"#utility.yul\":25425:25431   */\n      dup4\n        /* \"#utility.yul\":25422:25423   */\n      dup2\n        /* \"#utility.yul\":25419:25432   */\n      gt\n        /* \"#utility.yul\":25416:25517   */\n      iszero\n      tag_623\n      jumpi\n        /* \"#utility.yul\":25505:25506   */\n      0x00\n        /* \"#utility.yul\":25496:25502   */\n      dup5\n        /* \"#utility.yul\":25491:25494   */\n      dup5\n        /* \"#utility.yul\":25487:25503   */\n      add\n        /* \"#utility.yul\":25480:25507   */\n      mstore\n        /* \"#utility.yul\":25416:25517   */\n    tag_623:\n        /* \"#utility.yul\":25265:25523   */\n      pop\n        /* \"#utility.yul\":25216:25523   */\n      pop\n      pop\n      pop\n      jump\t// out\n        /* \"#utility.yul\":25529:25700   */\n    tag_292:\n        /* \"#utility.yul\":25568:25571   */\n      0x00\n        /* \"#utility.yul\":25591:25615   */\n      tag_625\n        /* \"#utility.yul\":25609:25614   */\n      dup3\n        /* \"#utility.yul\":25591:25615   */\n      tag_533\n      jump\t// in\n    tag_625:\n        /* \"#utility.yul\":25582:25615   */\n      swap2\n      pop\n        /* \"#utility.yul\":25637:25641   */\n      0x00\n        /* \"#utility.yul\":25630:25635   */\n      dup3\n        /* \"#utility.yul\":25627:25642   */\n      eq\n        /* \"#utility.yul\":25624:25665   */\n      iszero\n      tag_626\n      jumpi\n        /* \"#utility.yul\":25645:25663   */\n      tag_627\n      tag_603\n      jump\t// in\n    tag_627:\n        /* \"#utility.yul\":25624:25665   */\n    tag_626:\n        /* \"#utility.yul\":25692:25693   */\n      0x01\n        /* \"#utility.yul\":25685:25690   */\n      dup3\n        /* \"#utility.yul\":25681:25694   */\n      sub\n        /* \"#utility.yul\":25674:25694   */\n      swap1\n      pop\n        /* \"#utility.yul\":25529:25700   */\n      swap2\n      swap1\n      pop\n      jump\t// out\n        /* \"#utility.yul\":25706:26026   */\n    tag_123:\n        /* \"#utility.yul\":25750:25756   */\n      0x00\n        /* \"#utility.yul\":25787:25788   */\n      0x02\n        /* \"#utility.yul\":25781:25785   */\n      dup3\n        /* \"#utility.yul\":25777:25789   */\n      div\n        /* \"#utility.yul\":25767:25789   */\n      swap1\n      pop\n        /* \"#utility.yul\":25834:25835   */\n      0x01\n        /* \"#utility.yul\":25828:25832   */\n      dup3\n        /* \"#utility.yul\":25824:25836   */\n      and\n        /* \"#utility.yul\":25855:25873   */\n      dup1\n        /* \"#utility.yul\":25845:25926   */\n      tag_629\n      jumpi\n        /* \"#utility.yul\":25911:25915   */\n      0x7f\n        /* \"#utility.yul\":25903:25909   */\n      dup3\n        /* \"#utility.yul\":25899:25916   */\n      and\n        /* \"#utility.yul\":25889:25916   */\n      swap2\n      pop\n        /* \"#utility.yul\":25845:25926   */\n    tag_629:\n        /* \"#utility.yul\":25973:25975   */\n      0x20\n        /* \"#utility.yul\":25965:25971   */\n      dup3\n        /* \"#utility.yul\":25962:25976   */\n      lt\n        /* \"#utility.yul\":25942:25960   */\n      dup2\n        /* \"#utility.yul\":25939:25977   */\n      eq\n        /* \"#utility.yul\":25936:26020   */\n      iszero\n      tag_630\n      jumpi\n        /* \"#utility.yul\":25992:26010   */\n      tag_631\n      tag_632\n      jump\t// in\n    tag_631:\n        /* \"#utility.yul\":25936:26020   */\n    tag_630:\n        /* \"#utility.yul\":25757:26026   */\n      pop\n        /* \"#utility.yul\":25706:26026   */\n      swap2\n      swap1\n      pop\n      jump\t// out\n        /* \"#utility.yul\":26032:26313   */\n    tag_577:\n        /* \"#utility.yul\":26115:26142   */\n      tag_634\n        /* \"#utility.yul\":26137:26141   */\n      dup3\n        /* \"#utility.yul\":26115:26142   */\n      tag_470\n      jump\t// in\n    tag_634:\n        /* \"#utility.yul\":26107:26113   */\n      dup2\n        /* \"#utility.yul\":26103:26143   */\n      add\n        /* \"#utility.yul\":26245:26251   */\n      dup2\n        /* \"#utility.yul\":26233:26243   */\n      dup2\n        /* \"#utility.yul\":26230:26252   */\n      lt\n        /* \"#utility.yul\":26209:26227   */\n      0xffffffffffffffff\n        /* \"#utility.yul\":26197:26207   */\n      dup3\n        /* \"#utility.yul\":26194:26228   */\n      gt\n        /* \"#utility.yul\":26191:26253   */\n      or\n        /* \"#utility.yul\":26188:26276   */\n      iszero\n      tag_635\n      jumpi\n        /* \"#utility.yul\":26256:26274   */\n      tag_636\n      tag_276\n      jump\t// in\n    tag_636:\n        /* \"#utility.yul\":26188:26276   */\n    tag_635:\n        /* \"#utility.yul\":26296:26306   */\n      dup1\n        /* \"#utility.yul\":26292:26294   */\n      0x40\n        /* \"#utility.yul\":26285:26307   */\n      mstore\n        /* \"#utility.yul\":26075:26313   */\n      pop\n        /* \"#utility.yul\":26032:26313   */\n      pop\n      pop\n      jump\t// out\n        /* \"#utility.yul\":26319:26552   */\n    tag_161:\n        /* \"#utility.yul\":26358:26361   */\n      0x00\n        /* \"#utility.yul\":26381:26405   */\n      tag_638\n        /* \"#utility.yul\":26399:26404   */\n      dup3\n        /* \"#utility.yul\":26381:26405   */\n      tag_533\n      jump\t// in\n    tag_638:\n        /* \"#utility.yul\":26372:26405   */\n      swap2\n      pop\n        /* \"#utility.yul\":26427:26493   */\n      0xffffffffffffffffffffffffffffffffffffffffffffffffffffffffffffffff\n        /* \"#utility.yul\":26420:26425   */\n      dup3\n        /* \"#utility.yul\":26417:26494   */\n      eq\n        /* \"#utility.yul\":26414:26517   */\n      iszero\n      tag_639\n      jumpi\n        /* \"#utility.yul\":26497:26515   */\n      tag_640\n      tag_603\n      jump\t// in\n    tag_640:\n        /* \"#utility.yul\":26414:26517   */\n    tag_639:\n        /* \"#utility.yul\":26544:26545   */\n      0x01\n        /* \"#utility.yul\":26537:26542   */\n      dup3\n        /* \"#utility.yul\":26533:26546   */\n      add\n        /* \"#utility.yul\":26526:26546   */\n      swap1\n      pop\n        /* \"#utility.yul\":26319:26552   */\n      swap2\n      swap1\n      pop\n      jump\t// out\n        /* \"#utility.yul\":26558:26738   */\n    tag_603:\n        /* \"#utility.yul\":26606:26683   */\n      0x4e487b7100000000000000000000000000000000000000000000000000000000\n        /* \"#utility.yul\":26603:26604   */\n      0x00\n        /* \"#utility.yul\":26596:26684   */\n      mstore\n        /* \"#utility.yul\":26703:26707   */\n      0x11\n        /* \"#utility.yul\":26700:26701   */\n      0x04\n        /* \"#utility.yul\":26693:26708   */\n      mstore\n        /* \"#utility.yul\":26727:26731   */\n      0x24\n        /* \"#utility.yul\":26724:26725   */\n      0x00\n        /* \"#utility.yul\":26717:26732   */\n      revert\n        /* \"#utility.yul\":26744:26924   */\n    tag_632:\n        /* \"#utility.yul\":26792:26869   */\n      0x4e487b7100000000000000000000000000000000000000000000000000000000\n        /* \"#utility.yul\":26789:26790   */\n      0x00\n        /* \"#utility.yul\":26782:26870   */\n      mstore\n        /* \"#utility.yul\":26889:26893   */\n      0x22\n        /* \"#utility.yul\":26886:26887   */\n      0x04\n        /* \"#utility.yul\":26879:26894   */\n      mstore\n        /* \"#utility.yul\":26913:26917   */\n      0x24\n        /* \"#utility.yul\":26910:26911   */\n      0x00\n        /* \"#utility.yul\":26903:26918   */\n      revert\n        /* \"#utility.yul\":26930:27110   */\n    tag_158:\n        /* \"#utility.yul\":26978:27055   */\n      0x4e487b7100000000000000000000000000000000000000000000000000000000\n        /* \"#utility.yul\":26975:26976   */\n      0x00\n        /* \"#utility.yul\":26968:27056   */\n      mstore\n        /* \"#utility.yul\":27075:27079   */\n      0x32\n        /* \"#utility.yul\":27072:27073   */\n      0x04\n        /* \"#utility.yul\":27065:27080   */\n      mstore\n        /* \"#utility.yul\":27099:27103   */\n      0x24\n        /* \"#utility.yul\":27096:27097   */\n      0x00\n        /* \"#utility.yul\":27089:27104   */\n      revert\n        /* \"#utility.yul\":27116:27296   */\n    tag_276:\n        /* \"#utility.yul\":27164:27241   */\n      0x4e487b7100000000000000000000000000000000000000000000000000000000\n        /* \"#utility.yul\":27161:27162   */\n      0x00\n        /* \"#utility.yul\":27154:27242   */\n      mstore\n        /* \"#utility.yul\":27261:27265   */\n      0x41\n        /* \"#utility.yul\":27258:27259   */\n      0x04\n        /* \"#utility.yul\":27251:27266   */\n      mstore\n        /* \"#utility.yul\":27285:27289   */\n      0x24\n        /* \"#utility.yul\":27282:27283   */\n      0x00\n        /* \"#utility.yul\":27275:27290   */\n      revert\n        /* \"#utility.yul\":27302:27419   */\n    tag_345:\n        /* \"#utility.yul\":27411:27412   */\n      0x00\n        /* \"#utility.yul\":27408:27409   */\n      dup1\n        /* \"#utility.yul\":27401:27413   */\n      revert\n        /* \"#utility.yul\":27425:27542   */\n    tag_322:\n        /* \"#utility.yul\":27534:27535   */\n      0x00\n        /* \"#utility.yul\":27531:27532   */\n      dup1\n        /* \"#utility.yul\":27524:27536   */\n      revert\n        /* \"#utility.yul\":27548:27665   */\n    tag_335:\n        /* \"#utility.yul\":27657:27658   */\n      0x00\n        /* \"#utility.yul\":27654:27655   */\n      dup1\n        /* \"#utility.yul\":27647:27659   */\n      revert\n        /* \"#utility.yul\":27671:27788   */\n    tag_374:\n        /* \"#utility.yul\":27780:27781   */\n      0x00\n        /* \"#utility.yul\":27777:27778   */\n      dup1\n        /* \"#utility.yul\":27770:27782   */\n      revert\n        /* \"#utility.yul\":27794:27911   */\n    tag_367:\n        /* \"#utility.yul\":27903:27904   */\n      0x00\n        /* \"#utility.yul\":27900:27901   */\n      dup1\n        /* \"#utility.yul\":27893:27905   */\n      revert\n        /* \"#utility.yul\":27917:28019   */\n    tag_470:\n        /* \"#utility.yul\":27958:27964   */\n      0x00\n        /* \"#utility.yul\":28009:28011   */\n      0x1f\n        /* \"#utility.yul\":28005:28012   */\n      not\n        /* \"#utility.yul\":28000:28002   */\n      0x1f\n        /* \"#utility.yul\":27993:27998   */\n      dup4\n        /* \"#utility.yul\":27989:28003   */\n      add\n        /* \"#utility.yul\":27985:28013   */\n      and\n        /* \"#utility.yul\":27975:28013   */\n      swap1\n      pop\n        /* \"#utility.yul\":27917:28019   */\n      swap2\n      swap1\n      pop\n      jump\t// out\n        /* \"#utility.yul\":28025:28207   */\n    tag_488:\n        /* \"#utility.yul\":28165:28199   */\n      0x537472696e67733a20686578206c656e67746820696e73756666696369656e74\n        /* \"#utility.yul\":28161:28162   */\n      0x00\n        /* \"#utility.yul\":28153:28159   */\n      dup3\n        /* \"#utility.yul\":28149:28163   */\n      add\n        /* \"#utility.yul\":28142:28200   */\n      mstore\n        /* \"#utility.yul\":28025:28207   */\n      pop\n      jump\t// out\n        /* \"#utility.yul\":28213:28438   */\n    tag_493:\n        /* \"#utility.yul\":28353:28387   */\n      0x4f776e61626c653a206e6577206f776e657220697320746865207a65726f2061\n        /* \"#utility.yul\":28349:28350   */\n      0x00\n        /* \"#utility.yul\":28341:28347   */\n      dup3\n        /* \"#utility.yul\":28337:28351   */\n      add\n        /* \"#utility.yul\":28330:28388   */\n      mstore\n        /* \"#utility.yul\":28422:28430   */\n      0x6464726573730000000000000000000000000000000000000000000000000000\n        /* \"#utility.yul\":28417:28419   */\n      0x20\n        /* \"#utility.yul\":28409:28415   */\n      dup3\n        /* \"#utility.yul\":28405:28420   */\n      add\n        /* \"#utility.yul\":28398:28431   */\n      mstore\n        /* \"#utility.yul\":28213:28438   */\n      pop\n      jump\t// out\n        /* \"#utility.yul\":28444:28625   */\n    tag_498:\n        /* \"#utility.yul\":28584:28617   */\n      0x43616c6c6572206973206e6f7420616e20494e45432065786563757469766500\n        /* \"#utility.yul\":28580:28581   */\n      0x00\n        /* \"#utility.yul\":28572:28578   */\n      dup3\n        /* \"#utility.yul\":28568:28582   */\n      add\n        /* \"#utility.yul\":28561:28618   */\n      mstore\n        /* \"#utility.yul\":28444:28625   */\n      pop\n      jump\t// out\n        /* \"#utility.yul\":28631:28813   */\n    tag_503:\n        /* \"#utility.yul\":28771:28805   */\n      0x4f776e61626c653a2063616c6c6572206973206e6f7420746865206f776e6572\n        /* \"#utility.yul\":28767:28768   */\n      0x00\n        /* \"#utility.yul\":28759:28765   */\n      dup3\n        /* \"#utility.yul\":28755:28769   */\n      add\n        /* \"#utility.yul\":28748:28806   */\n      mstore\n        /* \"#utility.yul\":28631:28813   */\n      pop\n      jump\t// out\n        /* \"#utility.yul\":28819:28992   */\n    tag_508:\n        /* \"#utility.yul\":28959:28984   */\n      0x416363657373436f6e74726f6c3a206163636f756e7420000000000000000000\n        /* \"#utility.yul\":28955:28956   */\n      0x00\n        /* \"#utility.yul\":28947:28953   */\n      dup3\n        /* \"#utility.yul\":28943:28957   */\n      add\n        /* \"#utility.yul\":28936:28985   */\n      mstore\n        /* \"#utility.yul\":28819:28992   */\n      pop\n      jump\t// out\n        /* \"#utility.yul\":28998:29165   */\n    tag_513:\n        /* \"#utility.yul\":29138:29157   */\n      0x206973206d697373696e6720726f6c6520000000000000000000000000000000\n        /* \"#utility.yul\":29134:29135   */\n      0x00\n        /* \"#utility.yul\":29126:29132   */\n      dup3\n        /* \"#utility.yul\":29122:29136   */\n      add\n        /* \"#utility.yul\":29115:29158   */\n      mstore\n        /* \"#utility.yul\":28998:29165   */\n      pop\n      jump\t// out\n        /* \"#utility.yul\":29171:29405   */\n    tag_518:\n        /* \"#utility.yul\":29311:29345   */\n      0x416363657373436f6e74726f6c3a2063616e206f6e6c792072656e6f756e6365\n        /* \"#utility.yul\":29307:29308   */\n      0x00\n        /* \"#utility.yul\":29299:29305   */\n      dup3\n        /* \"#utility.yul\":29295:29309   */\n      add\n        /* \"#utility.yul\":29288:29346   */\n      mstore\n        /* \"#utility.yul\":29380:29397   */\n      0x20726f6c657320666f722073656c660000000000000000000000000000000000\n        /* \"#utility.yul\":29375:29377   */\n      0x20\n        /* \"#utility.yul\":29367:29373   */\n      dup3\n        /* \"#utility.yul\":29363:29378   */\n      add\n        /* \"#utility.yul\":29356:29398   */\n      mstore\n        /* \"#utility.yul\":29171:29405   */\n      pop\n      jump\t// out\n        /* \"#utility.yul\":29411:29533   */\n    tag_340:\n        /* \"#utility.yul\":29484:29508   */\n      tag_659\n        /* \"#utility.yul\":29502:29507   */\n      dup2\n        /* \"#utility.yul\":29484:29508   */\n      tag_418\n      jump\t// in\n    tag_659:\n        /* \"#utility.yul\":29477:29482   */\n      dup2\n        /* \"#utility.yul\":29474:29509   */\n      eq\n        /* \"#utility.yul\":29464:29527   */\n      tag_660\n      jumpi\n        /* \"#utility.yul\":29523:29524   */\n      0x00\n        /* \"#utility.yul\":29520:29521   */\n      dup1\n        /* \"#utility.yul\":29513:29525   */\n      revert\n        /* \"#utility.yul\":29464:29527   */\n    tag_660:\n        /* \"#utility.yul\":29411:29533   */\n      pop\n      jump\t// out\n        /* \"#utility.yul\":29539:29661   */\n    tag_350:\n        /* \"#utility.yul\":29612:29636   */\n      tag_662\n        /* \"#utility.yul\":29630:29635   */\n      dup2\n        /* \"#utility.yul\":29612:29636   */\n      tag_460\n      jump\t// in\n    tag_662:\n        /* \"#utility.yul\":29605:29610   */\n      dup2\n        /* \"#utility.yul\":29602:29637   */\n      eq\n        /* \"#utility.yul\":29592:29655   */\n      tag_663\n      jumpi\n        /* \"#utility.yul\":29651:29652   */\n      0x00\n        /* \"#utility.yul\":29648:29649   */\n      dup1\n        /* \"#utility.yul\":29641:29653   */\n      revert\n        /* \"#utility.yul\":29592:29655   */\n    tag_663:\n        /* \"#utility.yul\":29539:29661   */\n      pop\n      jump\t// out\n        /* \"#utility.yul\":29667:29787   */\n    tag_354:\n        /* \"#utility.yul\":29739:29762   */\n      tag_665\n        /* \"#utility.yul\":29756:29761   */\n      dup2\n        /* \"#utility.yul\":29739:29762   */\n      tag_614\n      jump\t// in\n    tag_665:\n        /* \"#utility.yul\":29732:29737   */\n      dup2\n        /* \"#utility.yul\":29729:29763   */\n      eq\n        /* \"#utility.yul\":29719:29781   */\n      tag_666\n      jumpi\n        /* \"#utility.yul\":29777:29778   */\n      0x00\n        /* \"#utility.yul\":29774:29775   */\n      dup1\n        /* \"#utility.yul\":29767:29779   */\n      revert\n        /* \"#utility.yul\":29719:29781   */\n    tag_666:\n        /* \"#utility.yul\":29667:29787   */\n      pop\n      jump\t// out\n        /* \"#utility.yul\":29793:29915   */\n    tag_363:\n        /* \"#utility.yul\":29866:29890   */\n      tag_668\n        /* \"#utility.yul\":29884:29889   */\n      dup2\n        /* \"#utility.yul\":29866:29890   */\n      tag_533\n      jump\t// in\n    tag_668:\n        /* \"#utility.yul\":29859:29864   */\n      dup2\n        /* \"#utility.yul\":29856:29891   */\n      eq\n        /* \"#utility.yul\":29846:29909   */\n      tag_669\n      jumpi\n        /* \"#utility.yul\":29905:29906   */\n      0x00\n        /* \"#utility.yul\":29902:29903   */\n      dup1\n        /* \"#utility.yul\":29895:29907   */\n      revert\n        /* \"#utility.yul\":29846:29909   */\n    tag_669:\n        /* \"#utility.yul\":29793:29915   */\n      pop\n      jump\t// out\n\n    auxdata: 0xa2646970667358221220d616408db344dc7bff8f8113cc0e7858f45af030de3d4650b2b02bc6b31d909364736f6c63430008070033\n}\n",
				"bytecode": {
					"linkReferences": {},
					"object": "608060405260405180608001604052806040518060400160405280600381526020017f415043000000000000000000000000000000000000000000000000000000000081525081526020016040518060400160405280600381526020017f504450000000000000000000000000000000000000000000000000000000000081525081526020016040518060400160405280600281526020017f4c5000000000000000000000000000000000000000000000000000000000000081525081526020016040518060400160405280600481526020017f4e4e50500000000000000000000000000000000000000000000000000000000081525081525060069060046200010b92919062000393565b503480156200011957600080fd5b506200013a6200012e6200015560201b60201c565b6200015d60201b60201c565b6200014f6000801b336200022160201b60201c565b6200057d565b600033905090565b60008060009054906101000a900473ffffffffffffffffffffffffffffffffffffffff169050816000806101000a81548173ffffffffffffffffffffffffffffffffffffffff021916908373ffffffffffffffffffffffffffffffffffffffff1602179055508173ffffffffffffffffffffffffffffffffffffffff168173ffffffffffffffffffffffffffffffffffffffff167f8be0079c531659141344cd1fd0a4f28419497f9722a3daafe3b4186f6b6457e060405160405180910390a35050565b6200023382826200023760201b60201c565b5050565b6200024982826200032860201b60201c565b6200032457600180600084815260200190815260200160002060000160008373ffffffffffffffffffffffffffffffffffffffff1673ffffffffffffffffffffffffffffffffffffffff16815260200190815260200160002060006101000a81548160ff021916908315150217905550620002c96200015560201b60201c565b73ffffffffffffffffffffffffffffffffffffffff168173ffffffffffffffffffffffffffffffffffffffff16837f2f8788117e7eff1d82e926ec794901d17c78024a50270940304540a733656f0d60405160405180910390a45b5050565b60006001600084815260200190815260200160002060000160008373ffffffffffffffffffffffffffffffffffffffff1673ffffffffffffffffffffffffffffffffffffffff16815260200190815260200160002060009054906101000a900460ff16905092915050565b828054828255906000526020600020908101928215620003e7579160200282015b82811115620003e6578251829080519060200190620003d5929190620003fa565b5091602001919060010190620003b4565b5b509050620003f691906200048b565b5090565b828054620004089062000518565b90600052602060002090601f0160209004810192826200042c576000855562000478565b82601f106200044757805160ff191683800117855562000478565b8280016001018555821562000478579182015b82811115620004775782518255916020019190600101906200045a565b5b509050620004879190620004b3565b5090565b5b80821115620004af5760008181620004a59190620004d2565b506001016200048c565b5090565b5b80821115620004ce576000816000905550600101620004b4565b5090565b508054620004e09062000518565b6000825580601f10620004f4575062000515565b601f016020900490600052602060002090810190620005149190620004b3565b5b50565b600060028204905060018216806200053157607f821691505b602082108114156200054857620005476200054e565b5b50919050565b7f4e487b7100000000000000000000000000000000000000000000000000000000600052602260045260246000fd5b61280b806200058d6000396000f3fe608060405234801561001057600080fd5b50600436106101425760003560e01c806391d14854116100b8578063a94015c81161007c578063a94015c8146103a0578063d547741f146103be578063d59d2a58146103da578063d9d55ba0146103f6578063dfd8459e14610412578063f2fde38b1461042e57610142565b806391d14854146102bf5780639c35d98b146102ef5780639d710777146103225780639e5f034914610352578063a217fddf1461038257610142565b8063314fd68f1161010a578063314fd68f1461021357806336568abe146102435780633ec9ae351461025f5780634f05dba81461027b578063715018a6146102975780638da5cb5b146102a157610142565b806301ffc9a714610147578063248a9ca314610177578063290e9212146101a75780632e0d37bb146101d95780632f2ff15d146101f7575b600080fd5b610161600480360381019061015c9190611ad1565b61044a565b60405161016e9190612035565b60405180910390f35b610191600480360381019061018c9190611a64565b6104c4565b60405161019e9190612050565b60405180910390f35b6101c160048036038101906101bc9190611b6d565b6104e4565b6040516101d09392919061208d565b60405180910390f35b6101e161063e565b6040516101ee9190612050565b60405180910390f35b610211600480360381019061020c9190611a91565b610662565b005b61022d60048036038101906102289190611b6d565b610683565b60405161023a919061206b565b60405180910390f35b61025d60048036038101906102589190611a91565b61072f565b005b61027960048036038101906102749190611b9a565b6107b2565b005b610295600480360381019061029091906119f5565b6107fe565b005b61029f610971565b005b6102a9610985565b6040516102b69190611fd5565b60405180910390f35b6102d960048036038101906102d49190611a91565b6109ae565b6040516102e69190612035565b60405180910390f35b61030960048036038101906103049190611b6d565b610a19565b6040516103199493929190611ff0565b60405180910390f35b61033c60048036038101906103379190611b6d565b610a76565b6040516103499190612194565b60405180910390f35b61036c60048036038101906103679190611b6d565b610bb8565b6040516103799190612172565b60405180910390f35b61038a610d5f565b6040516103979190612050565b60405180910390f35b6103a8610d66565b6040516103b59190612050565b60405180910390f35b6103d860048036038101906103d39190611a91565b610d8a565b005b6103f460048036038101906103ef9190611afe565b610dab565b005b610410600480360381019061040b9190611b6d565b610f03565b005b61042c600480360381019061042791906119c8565b610fa4565b005b610448600480360381019061044391906119c8565b610fd9565b005b60007f7965db0b000000000000000000000000000000000000000000000000000000007bffffffffffffffffffffffffffffffffffffffffffffffffffffffff1916827bffffffffffffffffffffffffffffffffffffffffffffffffffffffff191614806104bd57506104bc8261105d565b5b9050919050565b600060016000838152602001908152602001600020600101549050919050565b60076020528060005260406000206000915090508060000180546105079061247c565b80601f01602080910402602001604051908101604052809291908181526020018280546105339061247c565b80156105805780601f1061055557610100808354040283529160200191610580565b820191906000526020600020905b81548152906001019060200180831161056357829003601f168201915b5050505050908060010160009054906101000a900473ffffffffffffffffffffffffffffffffffffffff16908060020180546105bb9061247c565b80601f01602080910402602001604051908101604052809291908181526020018280546105e79061247c565b80156106345780601f1061060957610100808354040283529160200191610634565b820191906000526020600020905b81548152906001019060200180831161061757829003601f168201915b5050505050905083565b7f082f6ed76e0352438e6a6e35c77719c3f04bf277fdc8fec7e5ff5f65e001d90281565b61066b826104c4565b610674816110c7565b61067e83836110db565b505050565b6006818154811061069357600080fd5b9060005260206000200160009150905080546106ae9061247c565b80601f01602080910402602001604051908101604052809291908181526020018280546106da9061247c565b80156107275780601f106106fc57610100808354040283529160200191610727565b820191906000526020600020905b81548152906001019060200180831161070a57829003601f168201915b505050505081565b6107376111bb565b73ffffffffffffffffffffffffffffffffffffffff168173ffffffffffffffffffffffffffffffffffffffff16146107a4576040517f08c379a000000000000000000000000000000000000000000000000000000000815260040161079b90612152565b60405180910390fd5b6107ae82826111c3565b5050565b6009600082815260200190815260200160002060010182815481106107da576107d9612586565b5b9060005260206000200160008154809291906107f5906124df565b91905055505050565b6108287f082f6ed76e0352438e6a6e35c77719c3f04bf277fdc8fec7e5ff5f65e001d902336109ae565b610867576040517f08c379a000000000000000000000000000000000000000000000000000000000815260040161085e90612112565b60405180910390fd5b8160096000600554815260200190815260200160002060020181905550806009600060055481526020019081526020016000206003018190555060005b8351811015610953576009600060055481526020019081526020016000206000018482815181106108d8576108d7612586565b5b60200260200101519080600181540180825580915050600190039060005260206000200160009091909190916101000a81548173ffffffffffffffffffffffffffffffffffffffff021916908373ffffffffffffffffffffffffffffffffffffffff160217905550808061094b906124df565b9150506108a4565b5060056000815480929190610967906124df565b9190505550505050565b6109796112a5565b6109836000611323565b565b60008060009054906101000a900473ffffffffffffffffffffffffffffffffffffffff16905090565b60006001600084815260200190815260200160002060000160008373ffffffffffffffffffffffffffffffffffffffff1673ffffffffffffffffffffffffffffffffffffffff16815260200190815260200160002060009054906101000a900460ff16905092915050565b60086020528060005260406000206000915090508060000160009054906101000a900473ffffffffffffffffffffffffffffffffffffffff16908060010154908060020154908060030160009054906101000a900460ff16905084565b610a7e6116ce565b600960008381526020019081526020016000206040518060a001604052908160008201805480602002602001604051908101604052809291908181526020018280548015610b2157602002820191906000526020600020905b8160009054906101000a900473ffffffffffffffffffffffffffffffffffffffff1673ffffffffffffffffffffffffffffffffffffffff1681526020019060010190808311610ad7575b5050505050815260200160018201805480602002602001604051908101604052809291908181526020018280548015610b7957602002820191906000526020600020905b815481526020019060010190808311610b65575b5050505050815260200160028201548152602001600382015481526020016004820160009054906101000a900460ff1615151515815250509050919050565b610bc06116ff565b60076000838152602001908152602001600020604051806060016040529081600082018054610bee9061247c565b80601f0160208091040260200160405190810160405280929190818152602001828054610c1a9061247c565b8015610c675780601f10610c3c57610100808354040283529160200191610c67565b820191906000526020600020905b815481529060010190602001808311610c4a57829003601f168201915b505050505081526020016001820160009054906101000a900473ffffffffffffffffffffffffffffffffffffffff1673ffffffffffffffffffffffffffffffffffffffff1673ffffffffffffffffffffffffffffffffffffffff168152602001600282018054610cd69061247c565b80601f0160208091040260200160405190810160405280929190818152602001828054610d029061247c565b8015610d4f5780601f10610d2457610100808354040283529160200191610d4f565b820191906000526020600020905b815481529060010190602001808311610d3257829003601f168201915b5050505050815250509050919050565b6000801b81565b7f15283fd96aa656c9df35ac2fcb112678a5f24f1ca97e591a97d1d16003dbfc9c81565b610d93826104c4565b610d9c816110c7565b610da683836111c3565b505050565b610dd57f082f6ed76e0352438e6a6e35c77719c3f04bf277fdc8fec7e5ff5f65e001d902336109ae565b610e14576040517f08c379a0000000000000000000000000000000000000000000000000000000008152600401610e0b90612112565b60405180910390fd5b826007600060035481526020019081526020016000206000019080519060200190610e40929190611736565b508160076000600354815260200190815260200160002060010160006101000a81548173ffffffffffffffffffffffffffffffffffffffff021916908373ffffffffffffffffffffffffffffffffffffffff16021790555060068181548110610eac57610eab612586565b5b90600052602060002001600760006003548152602001908152602001600020600201908054610eda9061247c565b610ee59291906117bc565b5060036000815480929190610ef9906124df565b9190505550505050565b3360086000600454815260200190815260200160002060000160006101000a81548173ffffffffffffffffffffffffffffffffffffffff021916908373ffffffffffffffffffffffffffffffffffffffff1602179055508060086000600454815260200190815260200160002060010181905550610fa17f15283fd96aa656c9df35ac2fcb112678a5f24f1ca97e591a97d1d16003dbfc9c336113e7565b50565b610fac6112a5565b610fd67f082f6ed76e0352438e6a6e35c77719c3f04bf277fdc8fec7e5ff5f65e001d90282610662565b50565b610fe16112a5565b600073ffffffffffffffffffffffffffffffffffffffff168173ffffffffffffffffffffffffffffffffffffffff161415611051576040517f08c379a0000000000000000000000000000000000000000000000000000000008152600401611048906120f2565b60405180910390fd5b61105a81611323565b50565b60007f01ffc9a7000000000000000000000000000000000000000000000000000000007bffffffffffffffffffffffffffffffffffffffffffffffffffffffff1916827bffffffffffffffffffffffffffffffffffffffffffffffffffffffff1916149050919050565b6110d8816110d36111bb565b6113f5565b50565b6110e582826109ae565b6111b757600180600084815260200190815260200160002060000160008373ffffffffffffffffffffffffffffffffffffffff1673ffffffffffffffffffffffffffffffffffffffff16815260200190815260200160002060006101000a81548160ff02191690831515021790555061115c6111bb565b73ffffffffffffffffffffffffffffffffffffffff168173ffffffffffffffffffffffffffffffffffffffff16837f2f8788117e7eff1d82e926ec794901d17c78024a50270940304540a733656f0d60405160405180910390a45b5050565b600033905090565b6111cd82826109ae565b156112a15760006001600084815260200190815260200160002060000160008373ffffffffffffffffffffffffffffffffffffffff1673ffffffffffffffffffffffffffffffffffffffff16815260200190815260200160002060006101000a81548160ff0219169083151502179055506112466111bb565b73ffffffffffffffffffffffffffffffffffffffff168173ffffffffffffffffffffffffffffffffffffffff16837ff6391f5c32d9c69d2a47ea670b442974b53935d1edc7fd64eb21e047a839171b60405160405180910390a45b5050565b6112ad6111bb565b73ffffffffffffffffffffffffffffffffffffffff166112cb610985565b73ffffffffffffffffffffffffffffffffffffffff1614611321576040517f08c379a000000000000000000000000000000000000000000000000000000000815260040161131890612132565b60405180910390fd5b565b60008060009054906101000a900473ffffffffffffffffffffffffffffffffffffffff169050816000806101000a81548173ffffffffffffffffffffffffffffffffffffffff021916908373ffffffffffffffffffffffffffffffffffffffff1602179055508173ffffffffffffffffffffffffffffffffffffffff168173ffffffffffffffffffffffffffffffffffffffff167f8be0079c531659141344cd1fd0a4f28419497f9722a3daafe3b4186f6b6457e060405160405180910390a35050565b6113f182826110db565b5050565b6113ff82826109ae565b61148e576114248173ffffffffffffffffffffffffffffffffffffffff166014611492565b6114328360001c6020611492565b604051602001611443929190611f9b565b6040516020818303038152906040526040517f08c379a0000000000000000000000000000000000000000000000000000000008152600401611485919061206b565b60405180910390fd5b5050565b6060600060028360026114a59190612338565b6114af91906122e2565b67ffffffffffffffff8111156114c8576114c76125b5565b5b6040519080825280601f01601f1916602001820160405280156114fa5781602001600182028036833780820191505090505b5090507f30000000000000000000000000000000000000000000000000000000000000008160008151811061153257611531612586565b5b60200101907effffffffffffffffffffffffffffffffffffffffffffffffffffffffffffff1916908160001a9053507f78000000000000000000000000000000000000000000000000000000000000008160018151811061159657611595612586565b5b60200101907effffffffffffffffffffffffffffffffffffffffffffffffffffffffffffff1916908160001a905350600060018460026115d69190612338565b6115e091906122e2565b90505b6001811115611680577f3031323334353637383961626364656600000000000000000000000000000000600f86166010811061162257611621612586565b5b1a60f81b82828151811061163957611638612586565b5b60200101907effffffffffffffffffffffffffffffffffffffffffffffffffffffffffffff1916908160001a905350600485901c94508061167990612452565b90506115e3565b50600084146116c4576040517f08c379a00000000000000000000000000000000000000000000000000000000081526004016116bb906120d2565b60405180910390fd5b8091505092915050565b6040518060a00160405280606081526020016060815260200160008152602001600081526020016000151581525090565b604051806060016040528060608152602001600073ffffffffffffffffffffffffffffffffffffffff168152602001606081525090565b8280546117429061247c565b90600052602060002090601f01602090048101928261176457600085556117ab565b82601f1061177d57805160ff19168380011785556117ab565b828001600101855582156117ab579182015b828111156117aa57825182559160200191906001019061178f565b5b5090506117b89190611849565b5090565b8280546117c89061247c565b90600052602060002090601f0160209004810192826117ea5760008555611838565b82601f106117fb5780548555611838565b8280016001018555821561183857600052602060002091601f016020900482015b8281111561183757825482559160010191906001019061181c565b5b5090506118459190611849565b5090565b5b8082111561186257600081600090555060010161184a565b5090565b6000611879611874846121db565b6121b6565b9050808382526020820190508285602086028201111561189c5761189b6125e9565b5b60005b858110156118cc57816118b28882611918565b84526020840193506020830192505060018101905061189f565b5050509392505050565b60006118e96118e484612207565b6121b6565b905082815260208101848484011115611905576119046125ee565b5b611910848285612410565b509392505050565b60008135905061192781612779565b92915050565b600082601f830112611942576119416125e4565b5b8135611952848260208601611866565b91505092915050565b60008135905061196a81612790565b92915050565b60008135905061197f816127a7565b92915050565b600082601f83011261199a576119996125e4565b5b81356119aa8482602086016118d6565b91505092915050565b6000813590506119c2816127be565b92915050565b6000602082840312156119de576119dd6125f8565b5b60006119ec84828501611918565b91505092915050565b600080600060608486031215611a0e57611a0d6125f8565b5b600084013567ffffffffffffffff811115611a2c57611a2b6125f3565b5b611a388682870161192d565b9350506020611a49868287016119b3565b9250506040611a5a868287016119b3565b9150509250925092565b600060208284031215611a7a57611a796125f8565b5b6000611a888482850161195b565b91505092915050565b60008060408385031215611aa857611aa76125f8565b5b6000611ab68582860161195b565b9250506020611ac785828601611918565b9150509250929050565b600060208284031215611ae757611ae66125f8565b5b6000611af584828501611970565b91505092915050565b600080600060608486031215611b1757611b166125f8565b5b600084013567ffffffffffffffff811115611b3557611b346125f3565b5b611b4186828701611985565b9350506020611b5286828701611918565b9250506040611b63868287016119b3565b9150509250925092565b600060208284031215611b8357611b826125f8565b5b6000611b91848285016119b3565b91505092915050565b60008060408385031215611bb157611bb06125f8565b5b6000611bbf858286016119b3565b9250506020611bd0858286016119b3565b9150509250929050565b6000611be68383611c0a565b60208301905092915050565b6000611bfe8383611f7d565b60208301905092915050565b611c1381612392565b82525050565b611c2281612392565b82525050565b6000611c3382612258565b611c3d8185612293565b9350611c4883612238565b8060005b83811015611c79578151611c608882611bda565b9750611c6b83612279565b925050600181019050611c4c565b5085935050505092915050565b6000611c9182612263565b611c9b81856122a4565b9350611ca683612248565b8060005b83811015611cd7578151611cbe8882611bf2565b9750611cc983612286565b925050600181019050611caa565b5085935050505092915050565b611ced816123a4565b82525050565b611cfc816123a4565b82525050565b611d0b816123b0565b82525050565b6000611d1c8261226e565b611d2681856122b5565b9350611d3681856020860161241f565b611d3f816125fd565b840191505092915050565b6000611d558261226e565b611d5f81856122c6565b9350611d6f81856020860161241f565b611d78816125fd565b840191505092915050565b6000611d8e8261226e565b611d9881856122d7565b9350611da881856020860161241f565b80840191505092915050565b6000611dc16020836122c6565b9150611dcc8261260e565b602082019050919050565b6000611de46026836122c6565b9150611def82612637565b604082019050919050565b6000611e07601f836122c6565b9150611e1282612686565b602082019050919050565b6000611e2a6020836122c6565b9150611e35826126af565b602082019050919050565b6000611e4d6017836122d7565b9150611e58826126d8565b601782019050919050565b6000611e706011836122d7565b9150611e7b82612701565b601182019050919050565b6000611e93602f836122c6565b9150611e9e8261272a565b604082019050919050565b60006060830160008301518482036000860152611ec68282611d11565b9150506020830151611edb6020860182611c0a565b5060408301518482036040860152611ef38282611d11565b9150508091505092915050565b600060a0830160008301518482036000860152611f1d8282611c28565b91505060208301518482036020860152611f378282611c86565b9150506040830151611f4c6040860182611f7d565b506060830151611f5f6060860182611f7d565b506080830151611f726080860182611ce4565b508091505092915050565b611f8681612406565b82525050565b611f9581612406565b82525050565b6000611fa682611e40565b9150611fb28285611d83565b9150611fbd82611e63565b9150611fc98284611d83565b91508190509392505050565b6000602082019050611fea6000830184611c19565b92915050565b60006080820190506120056000830187611c19565b6120126020830186611f8c565b61201f6040830185611f8c565b61202c6060830184611cf3565b95945050505050565b600060208201905061204a6000830184611cf3565b92915050565b60006020820190506120656000830184611d02565b92915050565b600060208201905081810360008301526120858184611d4a565b905092915050565b600060608201905081810360008301526120a78186611d4a565b90506120b66020830185611c19565b81810360408301526120c88184611d4a565b9050949350505050565b600060208201905081810360008301526120eb81611db4565b9050919050565b6000602082019050818103600083015261210b81611dd7565b9050919050565b6000602082019050818103600083015261212b81611dfa565b9050919050565b6000602082019050818103600083015261214b81611e1d565b9050919050565b6000602082019050818103600083015261216b81611e86565b9050919050565b6000602082019050818103600083015261218c8184611ea9565b905092915050565b600060208201905081810360008301526121ae8184611f00565b905092915050565b60006121c06121d1565b90506121cc82826124ae565b919050565b6000604051905090565b600067ffffffffffffffff8211156121f6576121f56125b5565b5b602082029050602081019050919050565b600067ffffffffffffffff821115612222576122216125b5565b5b61222b826125fd565b9050602081019050919050565b6000819050602082019050919050565b6000819050602082019050919050565b600081519050919050565b600081519050919050565b600081519050919050565b6000602082019050919050565b6000602082019050919050565b600082825260208201905092915050565b600082825260208201905092915050565b600082825260208201905092915050565b600082825260208201905092915050565b600081905092915050565b60006122ed82612406565b91506122f883612406565b9250827fffffffffffffffffffffffffffffffffffffffffffffffffffffffffffffffff0382111561232d5761232c612528565b5b828201905092915050565b600061234382612406565b915061234e83612406565b9250817fffffffffffffffffffffffffffffffffffffffffffffffffffffffffffffffff048311821515161561238757612386612528565b5b828202905092915050565b600061239d826123e6565b9050919050565b60008115159050919050565b6000819050919050565b60007fffffffff0000000000000000000000000000000000000000000000000000000082169050919050565b600073ffffffffffffffffffffffffffffffffffffffff82169050919050565b6000819050919050565b82818337600083830152505050565b60005b8381101561243d578082015181840152602081019050612422565b8381111561244c576000848401525b50505050565b600061245d82612406565b9150600082141561247157612470612528565b5b600182039050919050565b6000600282049050600182168061249457607f821691505b602082108114156124a8576124a7612557565b5b50919050565b6124b7826125fd565b810181811067ffffffffffffffff821117156124d6576124d56125b5565b5b80604052505050565b60006124ea82612406565b91507fffffffffffffffffffffffffffffffffffffffffffffffffffffffffffffffff82141561251d5761251c612528565b5b600182019050919050565b7f4e487b7100000000000000000000000000000000000000000000000000000000600052601160045260246000fd5b7f4e487b7100000000000000000000000000000000000000000000000000000000600052602260045260246000fd5b7f4e487b7100000000000000000000000000000000000000000000000000000000600052603260045260246000fd5b7f4e487b7100000000000000000000000000000000000000000000000000000000600052604160045260246000fd5b600080fd5b600080fd5b600080fd5b600080fd5b600080fd5b6000601f19601f8301169050919050565b7f537472696e67733a20686578206c656e67746820696e73756666696369656e74600082015250565b7f4f776e61626c653a206e6577206f776e657220697320746865207a65726f206160008201527f6464726573730000000000000000000000000000000000000000000000000000602082015250565b7f43616c6c6572206973206e6f7420616e20494e45432065786563757469766500600082015250565b7f4f776e61626c653a2063616c6c6572206973206e6f7420746865206f776e6572600082015250565b7f416363657373436f6e74726f6c3a206163636f756e7420000000000000000000600082015250565b7f206973206d697373696e6720726f6c6520000000000000000000000000000000600082015250565b7f416363657373436f6e74726f6c3a2063616e206f6e6c792072656e6f756e636560008201527f20726f6c657320666f722073656c660000000000000000000000000000000000602082015250565b61278281612392565b811461278d57600080fd5b50565b612799816123b0565b81146127a457600080fd5b50565b6127b0816123ba565b81146127bb57600080fd5b50565b6127c781612406565b81146127d257600080fd5b5056fea2646970667358221220d616408db344dc7bff8f8113cc0e7858f45af030de3d4650b2b02bc6b31d909364736f6c63430008070033",
					"opcodes": "PUSH1 0x80 PUSH1 0x40 MSTORE PUSH1 0x40 MLOAD DUP1 PUSH1 0x80 ADD PUSH1 0x40 MSTORE DUP1 PUSH1 0x40 MLOAD DUP1 PUSH1 0x40 ADD PUSH1 0x40 MSTORE DUP1 PUSH1 0x3 DUP2 MSTORE PUSH1 0x20 ADD PUSH32 0x4150430000000000000000000000000000000000000000000000000000000000 DUP2 MSTORE POP DUP2 MSTORE PUSH1 0x20 ADD PUSH1 0x40 MLOAD DUP1 PUSH1 0x40 ADD PUSH1 0x40 MSTORE DUP1 PUSH1 0x3 DUP2 MSTORE PUSH1 0x20 ADD PUSH32 0x5044500000000000000000000000000000000000000000000000000000000000 DUP2 MSTORE POP DUP2 MSTORE PUSH1 0x20 ADD PUSH1 0x40 MLOAD DUP1 PUSH1 0x40 ADD PUSH1 0x40 MSTORE DUP1 PUSH1 0x2 DUP2 MSTORE PUSH1 0x20 ADD PUSH32 0x4C50000000000000000000000000000000000000000000000000000000000000 DUP2 MSTORE POP DUP2 MSTORE PUSH1 0x20 ADD PUSH1 0x40 MLOAD DUP1 PUSH1 0x40 ADD PUSH1 0x40 MSTORE DUP1 PUSH1 0x4 DUP2 MSTORE PUSH1 0x20 ADD PUSH32 0x4E4E505000000000000000000000000000000000000000000000000000000000 DUP2 MSTORE POP DUP2 MSTORE POP PUSH1 0x6 SWAP1 PUSH1 0x4 PUSH3 0x10B SWAP3 SWAP2 SWAP1 PUSH3 0x393 JUMP JUMPDEST POP CALLVALUE DUP1 ISZERO PUSH3 0x119 JUMPI PUSH1 0x0 DUP1 REVERT JUMPDEST POP PUSH3 0x13A PUSH3 0x12E PUSH3 0x155 PUSH1 0x20 SHL PUSH1 0x20 SHR JUMP JUMPDEST PUSH3 0x15D PUSH1 0x20 SHL PUSH1 0x20 SHR JUMP JUMPDEST PUSH3 0x14F PUSH1 0x0 DUP1 SHL CALLER PUSH3 0x221 PUSH1 0x20 SHL PUSH1 0x20 SHR JUMP JUMPDEST PUSH3 0x57D JUMP JUMPDEST PUSH1 0x0 CALLER SWAP1 POP SWAP1 JUMP JUMPDEST PUSH1 0x0 DUP1 PUSH1 0x0 SWAP1 SLOAD SWAP1 PUSH2 0x100 EXP SWAP1 DIV PUSH20 0xFFFFFFFFFFFFFFFFFFFFFFFFFFFFFFFFFFFFFFFF AND SWAP1 POP DUP2 PUSH1 0x0 DUP1 PUSH2 0x100 EXP DUP2 SLOAD DUP2 PUSH20 0xFFFFFFFFFFFFFFFFFFFFFFFFFFFFFFFFFFFFFFFF MUL NOT AND SWAP1 DUP4 PUSH20 0xFFFFFFFFFFFFFFFFFFFFFFFFFFFFFFFFFFFFFFFF AND MUL OR SWAP1 SSTORE POP DUP2 PUSH20 0xFFFFFFFFFFFFFFFFFFFFFFFFFFFFFFFFFFFFFFFF AND DUP2 PUSH20 0xFFFFFFFFFFFFFFFFFFFFFFFFFFFFFFFFFFFFFFFF AND PUSH32 0x8BE0079C531659141344CD1FD0A4F28419497F9722A3DAAFE3B4186F6B6457E0 PUSH1 0x40 MLOAD PUSH1 0x40 MLOAD DUP1 SWAP2 SUB SWAP1 LOG3 POP POP JUMP JUMPDEST PUSH3 0x233 DUP3 DUP3 PUSH3 0x237 PUSH1 0x20 SHL PUSH1 0x20 SHR JUMP JUMPDEST POP POP JUMP JUMPDEST PUSH3 0x249 DUP3 DUP3 PUSH3 0x328 PUSH1 0x20 SHL PUSH1 0x20 SHR JUMP JUMPDEST PUSH3 0x324 JUMPI PUSH1 0x1 DUP1 PUSH1 0x0 DUP5 DUP2 MSTORE PUSH1 0x20 ADD SWAP1 DUP2 MSTORE PUSH1 0x20 ADD PUSH1 0x0 KECCAK256 PUSH1 0x0 ADD PUSH1 0x0 DUP4 PUSH20 0xFFFFFFFFFFFFFFFFFFFFFFFFFFFFFFFFFFFFFFFF AND PUSH20 0xFFFFFFFFFFFFFFFFFFFFFFFFFFFFFFFFFFFFFFFF AND DUP2 MSTORE PUSH1 0x20 ADD SWAP1 DUP2 MSTORE PUSH1 0x20 ADD PUSH1 0x0 KECCAK256 PUSH1 0x0 PUSH2 0x100 EXP DUP2 SLOAD DUP2 PUSH1 0xFF MUL NOT AND SWAP1 DUP4 ISZERO ISZERO MUL OR SWAP1 SSTORE POP PUSH3 0x2C9 PUSH3 0x155 PUSH1 0x20 SHL PUSH1 0x20 SHR JUMP JUMPDEST PUSH20 0xFFFFFFFFFFFFFFFFFFFFFFFFFFFFFFFFFFFFFFFF AND DUP2 PUSH20 0xFFFFFFFFFFFFFFFFFFFFFFFFFFFFFFFFFFFFFFFF AND DUP4 PUSH32 0x2F8788117E7EFF1D82E926EC794901D17C78024A50270940304540A733656F0D PUSH1 0x40 MLOAD PUSH1 0x40 MLOAD DUP1 SWAP2 SUB SWAP1 LOG4 JUMPDEST POP POP JUMP JUMPDEST PUSH1 0x0 PUSH1 0x1 PUSH1 0x0 DUP5 DUP2 MSTORE PUSH1 0x20 ADD SWAP1 DUP2 MSTORE PUSH1 0x20 ADD PUSH1 0x0 KECCAK256 PUSH1 0x0 ADD PUSH1 0x0 DUP4 PUSH20 0xFFFFFFFFFFFFFFFFFFFFFFFFFFFFFFFFFFFFFFFF AND PUSH20 0xFFFFFFFFFFFFFFFFFFFFFFFFFFFFFFFFFFFFFFFF AND DUP2 MSTORE PUSH1 0x20 ADD SWAP1 DUP2 MSTORE PUSH1 0x20 ADD PUSH1 0x0 KECCAK256 PUSH1 0x0 SWAP1 SLOAD SWAP1 PUSH2 0x100 EXP SWAP1 DIV PUSH1 0xFF AND SWAP1 POP SWAP3 SWAP2 POP POP JUMP JUMPDEST DUP3 DUP1 SLOAD DUP3 DUP3 SSTORE SWAP1 PUSH1 0x0 MSTORE PUSH1 0x20 PUSH1 0x0 KECCAK256 SWAP1 DUP2 ADD SWAP3 DUP3 ISZERO PUSH3 0x3E7 JUMPI SWAP2 PUSH1 0x20 MUL DUP3 ADD JUMPDEST DUP3 DUP2 GT ISZERO PUSH3 0x3E6 JUMPI DUP3 MLOAD DUP3 SWAP1 DUP1 MLOAD SWAP1 PUSH1 0x20 ADD SWAP1 PUSH3 0x3D5 SWAP3 SWAP2 SWAP1 PUSH3 0x3FA JUMP JUMPDEST POP SWAP2 PUSH1 0x20 ADD SWAP2 SWAP1 PUSH1 0x1 ADD SWAP1 PUSH3 0x3B4 JUMP JUMPDEST JUMPDEST POP SWAP1 POP PUSH3 0x3F6 SWAP2 SWAP1 PUSH3 0x48B JUMP JUMPDEST POP SWAP1 JUMP JUMPDEST DUP3 DUP1 SLOAD PUSH3 0x408 SWAP1 PUSH3 0x518 JUMP JUMPDEST SWAP1 PUSH1 0x0 MSTORE PUSH1 0x20 PUSH1 0x0 KECCAK256 SWAP1 PUSH1 0x1F ADD PUSH1 0x20 SWAP1 DIV DUP2 ADD SWAP3 DUP3 PUSH3 0x42C JUMPI PUSH1 0x0 DUP6 SSTORE PUSH3 0x478 JUMP JUMPDEST DUP3 PUSH1 0x1F LT PUSH3 0x447 JUMPI DUP1 MLOAD PUSH1 0xFF NOT AND DUP4 DUP1 ADD OR DUP6 SSTORE PUSH3 0x478 JUMP JUMPDEST DUP3 DUP1 ADD PUSH1 0x1 ADD DUP6 SSTORE DUP3 ISZERO PUSH3 0x478 JUMPI SWAP2 DUP3 ADD JUMPDEST DUP3 DUP2 GT ISZERO PUSH3 0x477 JUMPI DUP3 MLOAD DUP3 SSTORE SWAP2 PUSH1 0x20 ADD SWAP2 SWAP1 PUSH1 0x1 ADD SWAP1 PUSH3 0x45A JUMP JUMPDEST JUMPDEST POP SWAP1 POP PUSH3 0x487 SWAP2 SWAP1 PUSH3 0x4B3 JUMP JUMPDEST POP SWAP1 JUMP JUMPDEST JUMPDEST DUP1 DUP3 GT ISZERO PUSH3 0x4AF JUMPI PUSH1 0x0 DUP2 DUP2 PUSH3 0x4A5 SWAP2 SWAP1 PUSH3 0x4D2 JUMP JUMPDEST POP PUSH1 0x1 ADD PUSH3 0x48C JUMP JUMPDEST POP SWAP1 JUMP JUMPDEST JUMPDEST DUP1 DUP3 GT ISZERO PUSH3 0x4CE JUMPI PUSH1 0x0 DUP2 PUSH1 0x0 SWAP1 SSTORE POP PUSH1 0x1 ADD PUSH3 0x4B4 JUMP JUMPDEST POP SWAP1 JUMP JUMPDEST POP DUP1 SLOAD PUSH3 0x4E0 SWAP1 PUSH3 0x518 JUMP JUMPDEST PUSH1 0x0 DUP3 SSTORE DUP1 PUSH1 0x1F LT PUSH3 0x4F4 JUMPI POP PUSH3 0x515 JUMP JUMPDEST PUSH1 0x1F ADD PUSH1 0x20 SWAP1 DIV SWAP1 PUSH1 0x0 MSTORE PUSH1 0x20 PUSH1 0x0 KECCAK256 SWAP1 DUP2 ADD SWAP1 PUSH3 0x514 SWAP2 SWAP1 PUSH3 0x4B3 JUMP JUMPDEST JUMPDEST POP JUMP JUMPDEST PUSH1 0x0 PUSH1 0x2 DUP3 DIV SWAP1 POP PUSH1 0x1 DUP3 AND DUP1 PUSH3 0x531 JUMPI PUSH1 0x7F DUP3 AND SWAP2 POP JUMPDEST PUSH1 0x20 DUP3 LT DUP2 EQ ISZERO PUSH3 0x548 JUMPI PUSH3 0x547 PUSH3 0x54E JUMP JUMPDEST JUMPDEST POP SWAP2 SWAP1 POP JUMP JUMPDEST PUSH32 0x4E487B7100000000000000000000000000000000000000000000000000000000 PUSH1 0x0 MSTORE PUSH1 0x22 PUSH1 0x4 MSTORE PUSH1 0x24 PUSH1 0x0 REVERT JUMPDEST PUSH2 0x280B DUP1 PUSH3 0x58D PUSH1 0x0 CODECOPY PUSH1 0x0 RETURN INVALID PUSH1 0x80 PUSH1 0x40 MSTORE CALLVALUE DUP1 ISZERO PUSH2 0x10 JUMPI PUSH1 0x0 DUP1 REVERT JUMPDEST POP PUSH1 0x4 CALLDATASIZE LT PUSH2 0x142 JUMPI PUSH1 0x0 CALLDATALOAD PUSH1 0xE0 SHR DUP1 PUSH4 0x91D14854 GT PUSH2 0xB8 JUMPI DUP1 PUSH4 0xA94015C8 GT PUSH2 0x7C JUMPI DUP1 PUSH4 0xA94015C8 EQ PUSH2 0x3A0 JUMPI DUP1 PUSH4 0xD547741F EQ PUSH2 0x3BE JUMPI DUP1 PUSH4 0xD59D2A58 EQ PUSH2 0x3DA JUMPI DUP1 PUSH4 0xD9D55BA0 EQ PUSH2 0x3F6 JUMPI DUP1 PUSH4 0xDFD8459E EQ PUSH2 0x412 JUMPI DUP1 PUSH4 0xF2FDE38B EQ PUSH2 0x42E JUMPI PUSH2 0x142 JUMP JUMPDEST DUP1 PUSH4 0x91D14854 EQ PUSH2 0x2BF JUMPI DUP1 PUSH4 0x9C35D98B EQ PUSH2 0x2EF JUMPI DUP1 PUSH4 0x9D710777 EQ PUSH2 0x322 JUMPI DUP1 PUSH4 0x9E5F0349 EQ PUSH2 0x352 JUMPI DUP1 PUSH4 0xA217FDDF EQ PUSH2 0x382 JUMPI PUSH2 0x142 JUMP JUMPDEST DUP1 PUSH4 0x314FD68F GT PUSH2 0x10A JUMPI DUP1 PUSH4 0x314FD68F EQ PUSH2 0x213 JUMPI DUP1 PUSH4 0x36568ABE EQ PUSH2 0x243 JUMPI DUP1 PUSH4 0x3EC9AE35 EQ PUSH2 0x25F JUMPI DUP1 PUSH4 0x4F05DBA8 EQ PUSH2 0x27B JUMPI DUP1 PUSH4 0x715018A6 EQ PUSH2 0x297 JUMPI DUP1 PUSH4 0x8DA5CB5B EQ PUSH2 0x2A1 JUMPI PUSH2 0x142 JUMP JUMPDEST DUP1 PUSH4 0x1FFC9A7 EQ PUSH2 0x147 JUMPI DUP1 PUSH4 0x248A9CA3 EQ PUSH2 0x177 JUMPI DUP1 PUSH4 0x290E9212 EQ PUSH2 0x1A7 JUMPI DUP1 PUSH4 0x2E0D37BB EQ PUSH2 0x1D9 JUMPI DUP1 PUSH4 0x2F2FF15D EQ PUSH2 0x1F7 JUMPI JUMPDEST PUSH1 0x0 DUP1 REVERT JUMPDEST PUSH2 0x161 PUSH1 0x4 DUP1 CALLDATASIZE SUB DUP2 ADD SWAP1 PUSH2 0x15C SWAP2 SWAP1 PUSH2 0x1AD1 JUMP JUMPDEST PUSH2 0x44A JUMP JUMPDEST PUSH1 0x40 MLOAD PUSH2 0x16E SWAP2 SWAP1 PUSH2 0x2035 JUMP JUMPDEST PUSH1 0x40 MLOAD DUP1 SWAP2 SUB SWAP1 RETURN JUMPDEST PUSH2 0x191 PUSH1 0x4 DUP1 CALLDATASIZE SUB DUP2 ADD SWAP1 PUSH2 0x18C SWAP2 SWAP1 PUSH2 0x1A64 JUMP JUMPDEST PUSH2 0x4C4 JUMP JUMPDEST PUSH1 0x40 MLOAD PUSH2 0x19E SWAP2 SWAP1 PUSH2 0x2050 JUMP JUMPDEST PUSH1 0x40 MLOAD DUP1 SWAP2 SUB SWAP1 RETURN JUMPDEST PUSH2 0x1C1 PUSH1 0x4 DUP1 CALLDATASIZE SUB DUP2 ADD SWAP1 PUSH2 0x1BC SWAP2 SWAP1 PUSH2 0x1B6D JUMP JUMPDEST PUSH2 0x4E4 JUMP JUMPDEST PUSH1 0x40 MLOAD PUSH2 0x1D0 SWAP4 SWAP3 SWAP2 SWAP1 PUSH2 0x208D JUMP JUMPDEST PUSH1 0x40 MLOAD DUP1 SWAP2 SUB SWAP1 RETURN JUMPDEST PUSH2 0x1E1 PUSH2 0x63E JUMP JUMPDEST PUSH1 0x40 MLOAD PUSH2 0x1EE SWAP2 SWAP1 PUSH2 0x2050 JUMP JUMPDEST PUSH1 0x40 MLOAD DUP1 SWAP2 SUB SWAP1 RETURN JUMPDEST PUSH2 0x211 PUSH1 0x4 DUP1 CALLDATASIZE SUB DUP2 ADD SWAP1 PUSH2 0x20C SWAP2 SWAP1 PUSH2 0x1A91 JUMP JUMPDEST PUSH2 0x662 JUMP JUMPDEST STOP JUMPDEST PUSH2 0x22D PUSH1 0x4 DUP1 CALLDATASIZE SUB DUP2 ADD SWAP1 PUSH2 0x228 SWAP2 SWAP1 PUSH2 0x1B6D JUMP JUMPDEST PUSH2 0x683 JUMP JUMPDEST PUSH1 0x40 MLOAD PUSH2 0x23A SWAP2 SWAP1 PUSH2 0x206B JUMP JUMPDEST PUSH1 0x40 MLOAD DUP1 SWAP2 SUB SWAP1 RETURN JUMPDEST PUSH2 0x25D PUSH1 0x4 DUP1 CALLDATASIZE SUB DUP2 ADD SWAP1 PUSH2 0x258 SWAP2 SWAP1 PUSH2 0x1A91 JUMP JUMPDEST PUSH2 0x72F JUMP JUMPDEST STOP JUMPDEST PUSH2 0x279 PUSH1 0x4 DUP1 CALLDATASIZE SUB DUP2 ADD SWAP1 PUSH2 0x274 SWAP2 SWAP1 PUSH2 0x1B9A JUMP JUMPDEST PUSH2 0x7B2 JUMP JUMPDEST STOP JUMPDEST PUSH2 0x295 PUSH1 0x4 DUP1 CALLDATASIZE SUB DUP2 ADD SWAP1 PUSH2 0x290 SWAP2 SWAP1 PUSH2 0x19F5 JUMP JUMPDEST PUSH2 0x7FE JUMP JUMPDEST STOP JUMPDEST PUSH2 0x29F PUSH2 0x971 JUMP JUMPDEST STOP JUMPDEST PUSH2 0x2A9 PUSH2 0x985 JUMP JUMPDEST PUSH1 0x40 MLOAD PUSH2 0x2B6 SWAP2 SWAP1 PUSH2 0x1FD5 JUMP JUMPDEST PUSH1 0x40 MLOAD DUP1 SWAP2 SUB SWAP1 RETURN JUMPDEST PUSH2 0x2D9 PUSH1 0x4 DUP1 CALLDATASIZE SUB DUP2 ADD SWAP1 PUSH2 0x2D4 SWAP2 SWAP1 PUSH2 0x1A91 JUMP JUMPDEST PUSH2 0x9AE JUMP JUMPDEST PUSH1 0x40 MLOAD PUSH2 0x2E6 SWAP2 SWAP1 PUSH2 0x2035 JUMP JUMPDEST PUSH1 0x40 MLOAD DUP1 SWAP2 SUB SWAP1 RETURN JUMPDEST PUSH2 0x309 PUSH1 0x4 DUP1 CALLDATASIZE SUB DUP2 ADD SWAP1 PUSH2 0x304 SWAP2 SWAP1 PUSH2 0x1B6D JUMP JUMPDEST PUSH2 0xA19 JUMP JUMPDEST PUSH1 0x40 MLOAD PUSH2 0x319 SWAP5 SWAP4 SWAP3 SWAP2 SWAP1 PUSH2 0x1FF0 JUMP JUMPDEST PUSH1 0x40 MLOAD DUP1 SWAP2 SUB SWAP1 RETURN JUMPDEST PUSH2 0x33C PUSH1 0x4 DUP1 CALLDATASIZE SUB DUP2 ADD SWAP1 PUSH2 0x337 SWAP2 SWAP1 PUSH2 0x1B6D JUMP JUMPDEST PUSH2 0xA76 JUMP JUMPDEST PUSH1 0x40 MLOAD PUSH2 0x349 SWAP2 SWAP1 PUSH2 0x2194 JUMP JUMPDEST PUSH1 0x40 MLOAD DUP1 SWAP2 SUB SWAP1 RETURN JUMPDEST PUSH2 0x36C PUSH1 0x4 DUP1 CALLDATASIZE SUB DUP2 ADD SWAP1 PUSH2 0x367 SWAP2 SWAP1 PUSH2 0x1B6D JUMP JUMPDEST PUSH2 0xBB8 JUMP JUMPDEST PUSH1 0x40 MLOAD PUSH2 0x379 SWAP2 SWAP1 PUSH2 0x2172 JUMP JUMPDEST PUSH1 0x40 MLOAD DUP1 SWAP2 SUB SWAP1 RETURN JUMPDEST PUSH2 0x38A PUSH2 0xD5F JUMP JUMPDEST PUSH1 0x40 MLOAD PUSH2 0x397 SWAP2 SWAP1 PUSH2 0x2050 JUMP JUMPDEST PUSH1 0x40 MLOAD DUP1 SWAP2 SUB SWAP1 RETURN JUMPDEST PUSH2 0x3A8 PUSH2 0xD66 JUMP JUMPDEST PUSH1 0x40 MLOAD PUSH2 0x3B5 SWAP2 SWAP1 PUSH2 0x2050 JUMP JUMPDEST PUSH1 0x40 MLOAD DUP1 SWAP2 SUB SWAP1 RETURN JUMPDEST PUSH2 0x3D8 PUSH1 0x4 DUP1 CALLDATASIZE SUB DUP2 ADD SWAP1 PUSH2 0x3D3 SWAP2 SWAP1 PUSH2 0x1A91 JUMP JUMPDEST PUSH2 0xD8A JUMP JUMPDEST STOP JUMPDEST PUSH2 0x3F4 PUSH1 0x4 DUP1 CALLDATASIZE SUB DUP2 ADD SWAP1 PUSH2 0x3EF SWAP2 SWAP1 PUSH2 0x1AFE JUMP JUMPDEST PUSH2 0xDAB JUMP JUMPDEST STOP JUMPDEST PUSH2 0x410 PUSH1 0x4 DUP1 CALLDATASIZE SUB DUP2 ADD SWAP1 PUSH2 0x40B SWAP2 SWAP1 PUSH2 0x1B6D JUMP JUMPDEST PUSH2 0xF03 JUMP JUMPDEST STOP JUMPDEST PUSH2 0x42C PUSH1 0x4 DUP1 CALLDATASIZE SUB DUP2 ADD SWAP1 PUSH2 0x427 SWAP2 SWAP1 PUSH2 0x19C8 JUMP JUMPDEST PUSH2 0xFA4 JUMP JUMPDEST STOP JUMPDEST PUSH2 0x448 PUSH1 0x4 DUP1 CALLDATASIZE SUB DUP2 ADD SWAP1 PUSH2 0x443 SWAP2 SWAP1 PUSH2 0x19C8 JUMP JUMPDEST PUSH2 0xFD9 JUMP JUMPDEST STOP JUMPDEST PUSH1 0x0 PUSH32 0x7965DB0B00000000000000000000000000000000000000000000000000000000 PUSH28 0xFFFFFFFFFFFFFFFFFFFFFFFFFFFFFFFFFFFFFFFFFFFFFFFFFFFFFFFF NOT AND DUP3 PUSH28 0xFFFFFFFFFFFFFFFFFFFFFFFFFFFFFFFFFFFFFFFFFFFFFFFFFFFFFFFF NOT AND EQ DUP1 PUSH2 0x4BD JUMPI POP PUSH2 0x4BC DUP3 PUSH2 0x105D JUMP JUMPDEST JUMPDEST SWAP1 POP SWAP2 SWAP1 POP JUMP JUMPDEST PUSH1 0x0 PUSH1 0x1 PUSH1 0x0 DUP4 DUP2 MSTORE PUSH1 0x20 ADD SWAP1 DUP2 MSTORE PUSH1 0x20 ADD PUSH1 0x0 KECCAK256 PUSH1 0x1 ADD SLOAD SWAP1 POP SWAP2 SWAP1 POP JUMP JUMPDEST PUSH1 0x7 PUSH1 0x20 MSTORE DUP1 PUSH1 0x0 MSTORE PUSH1 0x40 PUSH1 0x0 KECCAK256 PUSH1 0x0 SWAP2 POP SWAP1 POP DUP1 PUSH1 0x0 ADD DUP1 SLOAD PUSH2 0x507 SWAP1 PUSH2 0x247C JUMP JUMPDEST DUP1 PUSH1 0x1F ADD PUSH1 0x20 DUP1 SWAP2 DIV MUL PUSH1 0x20 ADD PUSH1 0x40 MLOAD SWAP1 DUP2 ADD PUSH1 0x40 MSTORE DUP1 SWAP3 SWAP2 SWAP1 DUP2 DUP2 MSTORE PUSH1 0x20 ADD DUP3 DUP1 SLOAD PUSH2 0x533 SWAP1 PUSH2 0x247C JUMP JUMPDEST DUP1 ISZERO PUSH2 0x580 JUMPI DUP1 PUSH1 0x1F LT PUSH2 0x555 JUMPI PUSH2 0x100 DUP1 DUP4 SLOAD DIV MUL DUP4 MSTORE SWAP2 PUSH1 0x20 ADD SWAP2 PUSH2 0x580 JUMP JUMPDEST DUP3 ADD SWAP2 SWAP1 PUSH1 0x0 MSTORE PUSH1 0x20 PUSH1 0x0 KECCAK256 SWAP1 JUMPDEST DUP2 SLOAD DUP2 MSTORE SWAP1 PUSH1 0x1 ADD SWAP1 PUSH1 0x20 ADD DUP1 DUP4 GT PUSH2 0x563 JUMPI DUP3 SWAP1 SUB PUSH1 0x1F AND DUP3 ADD SWAP2 JUMPDEST POP POP POP POP POP SWAP1 DUP1 PUSH1 0x1 ADD PUSH1 0x0 SWAP1 SLOAD SWAP1 PUSH2 0x100 EXP SWAP1 DIV PUSH20 0xFFFFFFFFFFFFFFFFFFFFFFFFFFFFFFFFFFFFFFFF AND SWAP1 DUP1 PUSH1 0x2 ADD DUP1 SLOAD PUSH2 0x5BB SWAP1 PUSH2 0x247C JUMP JUMPDEST DUP1 PUSH1 0x1F ADD PUSH1 0x20 DUP1 SWAP2 DIV MUL PUSH1 0x20 ADD PUSH1 0x40 MLOAD SWAP1 DUP2 ADD PUSH1 0x40 MSTORE DUP1 SWAP3 SWAP2 SWAP1 DUP2 DUP2 MSTORE PUSH1 0x20 ADD DUP3 DUP1 SLOAD PUSH2 0x5E7 SWAP1 PUSH2 0x247C JUMP JUMPDEST DUP1 ISZERO PUSH2 0x634 JUMPI DUP1 PUSH1 0x1F LT PUSH2 0x609 JUMPI PUSH2 0x100 DUP1 DUP4 SLOAD DIV MUL DUP4 MSTORE SWAP2 PUSH1 0x20 ADD SWAP2 PUSH2 0x634 JUMP JUMPDEST DUP3 ADD SWAP2 SWAP1 PUSH1 0x0 MSTORE PUSH1 0x20 PUSH1 0x0 KECCAK256 SWAP1 JUMPDEST DUP2 SLOAD DUP2 MSTORE SWAP1 PUSH1 0x1 ADD SWAP1 PUSH1 0x20 ADD DUP1 DUP4 GT PUSH2 0x617 JUMPI DUP3 SWAP1 SUB PUSH1 0x1F AND DUP3 ADD SWAP2 JUMPDEST POP POP POP POP POP SWAP1 POP DUP4 JUMP JUMPDEST PUSH32 0x82F6ED76E0352438E6A6E35C77719C3F04BF277FDC8FEC7E5FF5F65E001D902 DUP2 JUMP JUMPDEST PUSH2 0x66B DUP3 PUSH2 0x4C4 JUMP JUMPDEST PUSH2 0x674 DUP2 PUSH2 0x10C7 JUMP JUMPDEST PUSH2 0x67E DUP4 DUP4 PUSH2 0x10DB JUMP JUMPDEST POP POP POP JUMP JUMPDEST PUSH1 0x6 DUP2 DUP2 SLOAD DUP2 LT PUSH2 0x693 JUMPI PUSH1 0x0 DUP1 REVERT JUMPDEST SWAP1 PUSH1 0x0 MSTORE PUSH1 0x20 PUSH1 0x0 KECCAK256 ADD PUSH1 0x0 SWAP2 POP SWAP1 POP DUP1 SLOAD PUSH2 0x6AE SWAP1 PUSH2 0x247C JUMP JUMPDEST DUP1 PUSH1 0x1F ADD PUSH1 0x20 DUP1 SWAP2 DIV MUL PUSH1 0x20 ADD PUSH1 0x40 MLOAD SWAP1 DUP2 ADD PUSH1 0x40 MSTORE DUP1 SWAP3 SWAP2 SWAP1 DUP2 DUP2 MSTORE PUSH1 0x20 ADD DUP3 DUP1 SLOAD PUSH2 0x6DA SWAP1 PUSH2 0x247C JUMP JUMPDEST DUP1 ISZERO PUSH2 0x727 JUMPI DUP1 PUSH1 0x1F LT PUSH2 0x6FC JUMPI PUSH2 0x100 DUP1 DUP4 SLOAD DIV MUL DUP4 MSTORE SWAP2 PUSH1 0x20 ADD SWAP2 PUSH2 0x727 JUMP JUMPDEST DUP3 ADD SWAP2 SWAP1 PUSH1 0x0 MSTORE PUSH1 0x20 PUSH1 0x0 KECCAK256 SWAP1 JUMPDEST DUP2 SLOAD DUP2 MSTORE SWAP1 PUSH1 0x1 ADD SWAP1 PUSH1 0x20 ADD DUP1 DUP4 GT PUSH2 0x70A JUMPI DUP3 SWAP1 SUB PUSH1 0x1F AND DUP3 ADD SWAP2 JUMPDEST POP POP POP POP POP DUP2 JUMP JUMPDEST PUSH2 0x737 PUSH2 0x11BB JUMP JUMPDEST PUSH20 0xFFFFFFFFFFFFFFFFFFFFFFFFFFFFFFFFFFFFFFFF AND DUP2 PUSH20 0xFFFFFFFFFFFFFFFFFFFFFFFFFFFFFFFFFFFFFFFF AND EQ PUSH2 0x7A4 JUMPI PUSH1 0x40 MLOAD PUSH32 0x8C379A000000000000000000000000000000000000000000000000000000000 DUP2 MSTORE PUSH1 0x4 ADD PUSH2 0x79B SWAP1 PUSH2 0x2152 JUMP JUMPDEST PUSH1 0x40 MLOAD DUP1 SWAP2 SUB SWAP1 REVERT JUMPDEST PUSH2 0x7AE DUP3 DUP3 PUSH2 0x11C3 JUMP JUMPDEST POP POP JUMP JUMPDEST PUSH1 0x9 PUSH1 0x0 DUP3 DUP2 MSTORE PUSH1 0x20 ADD SWAP1 DUP2 MSTORE PUSH1 0x20 ADD PUSH1 0x0 KECCAK256 PUSH1 0x1 ADD DUP3 DUP2 SLOAD DUP2 LT PUSH2 0x7DA JUMPI PUSH2 0x7D9 PUSH2 0x2586 JUMP JUMPDEST JUMPDEST SWAP1 PUSH1 0x0 MSTORE PUSH1 0x20 PUSH1 0x0 KECCAK256 ADD PUSH1 0x0 DUP2 SLOAD DUP1 SWAP3 SWAP2 SWAP1 PUSH2 0x7F5 SWAP1 PUSH2 0x24DF JUMP JUMPDEST SWAP2 SWAP1 POP SSTORE POP POP POP JUMP JUMPDEST PUSH2 0x828 PUSH32 0x82F6ED76E0352438E6A6E35C77719C3F04BF277FDC8FEC7E5FF5F65E001D902 CALLER PUSH2 0x9AE JUMP JUMPDEST PUSH2 0x867 JUMPI PUSH1 0x40 MLOAD PUSH32 0x8C379A000000000000000000000000000000000000000000000000000000000 DUP2 MSTORE PUSH1 0x4 ADD PUSH2 0x85E SWAP1 PUSH2 0x2112 JUMP JUMPDEST PUSH1 0x40 MLOAD DUP1 SWAP2 SUB SWAP1 REVERT JUMPDEST DUP2 PUSH1 0x9 PUSH1 0x0 PUSH1 0x5 SLOAD DUP2 MSTORE PUSH1 0x20 ADD SWAP1 DUP2 MSTORE PUSH1 0x20 ADD PUSH1 0x0 KECCAK256 PUSH1 0x2 ADD DUP2 SWAP1 SSTORE POP DUP1 PUSH1 0x9 PUSH1 0x0 PUSH1 0x5 SLOAD DUP2 MSTORE PUSH1 0x20 ADD SWAP1 DUP2 MSTORE PUSH1 0x20 ADD PUSH1 0x0 KECCAK256 PUSH1 0x3 ADD DUP2 SWAP1 SSTORE POP PUSH1 0x0 JUMPDEST DUP4 MLOAD DUP2 LT ISZERO PUSH2 0x953 JUMPI PUSH1 0x9 PUSH1 0x0 PUSH1 0x5 SLOAD DUP2 MSTORE PUSH1 0x20 ADD SWAP1 DUP2 MSTORE PUSH1 0x20 ADD PUSH1 0x0 KECCAK256 PUSH1 0x0 ADD DUP5 DUP3 DUP2 MLOAD DUP2 LT PUSH2 0x8D8 JUMPI PUSH2 0x8D7 PUSH2 0x2586 JUMP JUMPDEST JUMPDEST PUSH1 0x20 MUL PUSH1 0x20 ADD ADD MLOAD SWAP1 DUP1 PUSH1 0x1 DUP2 SLOAD ADD DUP1 DUP3 SSTORE DUP1 SWAP2 POP POP PUSH1 0x1 SWAP1 SUB SWAP1 PUSH1 0x0 MSTORE PUSH1 0x20 PUSH1 0x0 KECCAK256 ADD PUSH1 0x0 SWAP1 SWAP2 SWAP1 SWAP2 SWAP1 SWAP2 PUSH2 0x100 EXP DUP2 SLOAD DUP2 PUSH20 0xFFFFFFFFFFFFFFFFFFFFFFFFFFFFFFFFFFFFFFFF MUL NOT AND SWAP1 DUP4 PUSH20 0xFFFFFFFFFFFFFFFFFFFFFFFFFFFFFFFFFFFFFFFF AND MUL OR SWAP1 SSTORE POP DUP1 DUP1 PUSH2 0x94B SWAP1 PUSH2 0x24DF JUMP JUMPDEST SWAP2 POP POP PUSH2 0x8A4 JUMP JUMPDEST POP PUSH1 0x5 PUSH1 0x0 DUP2 SLOAD DUP1 SWAP3 SWAP2 SWAP1 PUSH2 0x967 SWAP1 PUSH2 0x24DF JUMP JUMPDEST SWAP2 SWAP1 POP SSTORE POP POP POP POP JUMP JUMPDEST PUSH2 0x979 PUSH2 0x12A5 JUMP JUMPDEST PUSH2 0x983 PUSH1 0x0 PUSH2 0x1323 JUMP JUMPDEST JUMP JUMPDEST PUSH1 0x0 DUP1 PUSH1 0x0 SWAP1 SLOAD SWAP1 PUSH2 0x100 EXP SWAP1 DIV PUSH20 0xFFFFFFFFFFFFFFFFFFFFFFFFFFFFFFFFFFFFFFFF AND SWAP1 POP SWAP1 JUMP JUMPDEST PUSH1 0x0 PUSH1 0x1 PUSH1 0x0 DUP5 DUP2 MSTORE PUSH1 0x20 ADD SWAP1 DUP2 MSTORE PUSH1 0x20 ADD PUSH1 0x0 KECCAK256 PUSH1 0x0 ADD PUSH1 0x0 DUP4 PUSH20 0xFFFFFFFFFFFFFFFFFFFFFFFFFFFFFFFFFFFFFFFF AND PUSH20 0xFFFFFFFFFFFFFFFFFFFFFFFFFFFFFFFFFFFFFFFF AND DUP2 MSTORE PUSH1 0x20 ADD SWAP1 DUP2 MSTORE PUSH1 0x20 ADD PUSH1 0x0 KECCAK256 PUSH1 0x0 SWAP1 SLOAD SWAP1 PUSH2 0x100 EXP SWAP1 DIV PUSH1 0xFF AND SWAP1 POP SWAP3 SWAP2 POP POP JUMP JUMPDEST PUSH1 0x8 PUSH1 0x20 MSTORE DUP1 PUSH1 0x0 MSTORE PUSH1 0x40 PUSH1 0x0 KECCAK256 PUSH1 0x0 SWAP2 POP SWAP1 POP DUP1 PUSH1 0x0 ADD PUSH1 0x0 SWAP1 SLOAD SWAP1 PUSH2 0x100 EXP SWAP1 DIV PUSH20 0xFFFFFFFFFFFFFFFFFFFFFFFFFFFFFFFFFFFFFFFF AND SWAP1 DUP1 PUSH1 0x1 ADD SLOAD SWAP1 DUP1 PUSH1 0x2 ADD SLOAD SWAP1 DUP1 PUSH1 0x3 ADD PUSH1 0x0 SWAP1 SLOAD SWAP1 PUSH2 0x100 EXP SWAP1 DIV PUSH1 0xFF AND SWAP1 POP DUP5 JUMP JUMPDEST PUSH2 0xA7E PUSH2 0x16CE JUMP JUMPDEST PUSH1 0x9 PUSH1 0x0 DUP4 DUP2 MSTORE PUSH1 0x20 ADD SWAP1 DUP2 MSTORE PUSH1 0x20 ADD PUSH1 0x0 KECCAK256 PUSH1 0x40 MLOAD DUP1 PUSH1 0xA0 ADD PUSH1 0x40 MSTORE SWAP1 DUP2 PUSH1 0x0 DUP3 ADD DUP1 SLOAD DUP1 PUSH1 0x20 MUL PUSH1 0x20 ADD PUSH1 0x40 MLOAD SWAP1 DUP2 ADD PUSH1 0x40 MSTORE DUP1 SWAP3 SWAP2 SWAP1 DUP2 DUP2 MSTORE PUSH1 0x20 ADD DUP3 DUP1 SLOAD DUP1 ISZERO PUSH2 0xB21 JUMPI PUSH1 0x20 MUL DUP3 ADD SWAP2 SWAP1 PUSH1 0x0 MSTORE PUSH1 0x20 PUSH1 0x0 KECCAK256 SWAP1 JUMPDEST DUP2 PUSH1 0x0 SWAP1 SLOAD SWAP1 PUSH2 0x100 EXP SWAP1 DIV PUSH20 0xFFFFFFFFFFFFFFFFFFFFFFFFFFFFFFFFFFFFFFFF AND PUSH20 0xFFFFFFFFFFFFFFFFFFFFFFFFFFFFFFFFFFFFFFFF AND DUP2 MSTORE PUSH1 0x20 ADD SWAP1 PUSH1 0x1 ADD SWAP1 DUP1 DUP4 GT PUSH2 0xAD7 JUMPI JUMPDEST POP POP POP POP POP DUP2 MSTORE PUSH1 0x20 ADD PUSH1 0x1 DUP3 ADD DUP1 SLOAD DUP1 PUSH1 0x20 MUL PUSH1 0x20 ADD PUSH1 0x40 MLOAD SWAP1 DUP2 ADD PUSH1 0x40 MSTORE DUP1 SWAP3 SWAP2 SWAP1 DUP2 DUP2 MSTORE PUSH1 0x20 ADD DUP3 DUP1 SLOAD DUP1 ISZERO PUSH2 0xB79 JUMPI PUSH1 0x20 MUL DUP3 ADD SWAP2 SWAP1 PUSH1 0x0 MSTORE PUSH1 0x20 PUSH1 0x0 KECCAK256 SWAP1 JUMPDEST DUP2 SLOAD DUP2 MSTORE PUSH1 0x20 ADD SWAP1 PUSH1 0x1 ADD SWAP1 DUP1 DUP4 GT PUSH2 0xB65 JUMPI JUMPDEST POP POP POP POP POP DUP2 MSTORE PUSH1 0x20 ADD PUSH1 0x2 DUP3 ADD SLOAD DUP2 MSTORE PUSH1 0x20 ADD PUSH1 0x3 DUP3 ADD SLOAD DUP2 MSTORE PUSH1 0x20 ADD PUSH1 0x4 DUP3 ADD PUSH1 0x0 SWAP1 SLOAD SWAP1 PUSH2 0x100 EXP SWAP1 DIV PUSH1 0xFF AND ISZERO ISZERO ISZERO ISZERO DUP2 MSTORE POP POP SWAP1 POP SWAP2 SWAP1 POP JUMP JUMPDEST PUSH2 0xBC0 PUSH2 0x16FF JUMP JUMPDEST PUSH1 0x7 PUSH1 0x0 DUP4 DUP2 MSTORE PUSH1 0x20 ADD SWAP1 DUP2 MSTORE PUSH1 0x20 ADD PUSH1 0x0 KECCAK256 PUSH1 0x40 MLOAD DUP1 PUSH1 0x60 ADD PUSH1 0x40 MSTORE SWAP1 DUP2 PUSH1 0x0 DUP3 ADD DUP1 SLOAD PUSH2 0xBEE SWAP1 PUSH2 0x247C JUMP JUMPDEST DUP1 PUSH1 0x1F ADD PUSH1 0x20 DUP1 SWAP2 DIV MUL PUSH1 0x20 ADD PUSH1 0x40 MLOAD SWAP1 DUP2 ADD PUSH1 0x40 MSTORE DUP1 SWAP3 SWAP2 SWAP1 DUP2 DUP2 MSTORE PUSH1 0x20 ADD DUP3 DUP1 SLOAD PUSH2 0xC1A SWAP1 PUSH2 0x247C JUMP JUMPDEST DUP1 ISZERO PUSH2 0xC67 JUMPI DUP1 PUSH1 0x1F LT PUSH2 0xC3C JUMPI PUSH2 0x100 DUP1 DUP4 SLOAD DIV MUL DUP4 MSTORE SWAP2 PUSH1 0x20 ADD SWAP2 PUSH2 0xC67 JUMP JUMPDEST DUP3 ADD SWAP2 SWAP1 PUSH1 0x0 MSTORE PUSH1 0x20 PUSH1 0x0 KECCAK256 SWAP1 JUMPDEST DUP2 SLOAD DUP2 MSTORE SWAP1 PUSH1 0x1 ADD SWAP1 PUSH1 0x20 ADD DUP1 DUP4 GT PUSH2 0xC4A JUMPI DUP3 SWAP1 SUB PUSH1 0x1F AND DUP3 ADD SWAP2 JUMPDEST POP POP POP POP POP DUP2 MSTORE PUSH1 0x20 ADD PUSH1 0x1 DUP3 ADD PUSH1 0x0 SWAP1 SLOAD SWAP1 PUSH2 0x100 EXP SWAP1 DIV PUSH20 0xFFFFFFFFFFFFFFFFFFFFFFFFFFFFFFFFFFFFFFFF AND PUSH20 0xFFFFFFFFFFFFFFFFFFFFFFFFFFFFFFFFFFFFFFFF AND PUSH20 0xFFFFFFFFFFFFFFFFFFFFFFFFFFFFFFFFFFFFFFFF AND DUP2 MSTORE PUSH1 0x20 ADD PUSH1 0x2 DUP3 ADD DUP1 SLOAD PUSH2 0xCD6 SWAP1 PUSH2 0x247C JUMP JUMPDEST DUP1 PUSH1 0x1F ADD PUSH1 0x20 DUP1 SWAP2 DIV MUL PUSH1 0x20 ADD PUSH1 0x40 MLOAD SWAP1 DUP2 ADD PUSH1 0x40 MSTORE DUP1 SWAP3 SWAP2 SWAP1 DUP2 DUP2 MSTORE PUSH1 0x20 ADD DUP3 DUP1 SLOAD PUSH2 0xD02 SWAP1 PUSH2 0x247C JUMP JUMPDEST DUP1 ISZERO PUSH2 0xD4F JUMPI DUP1 PUSH1 0x1F LT PUSH2 0xD24 JUMPI PUSH2 0x100 DUP1 DUP4 SLOAD DIV MUL DUP4 MSTORE SWAP2 PUSH1 0x20 ADD SWAP2 PUSH2 0xD4F JUMP JUMPDEST DUP3 ADD SWAP2 SWAP1 PUSH1 0x0 MSTORE PUSH1 0x20 PUSH1 0x0 KECCAK256 SWAP1 JUMPDEST DUP2 SLOAD DUP2 MSTORE SWAP1 PUSH1 0x1 ADD SWAP1 PUSH1 0x20 ADD DUP1 DUP4 GT PUSH2 0xD32 JUMPI DUP3 SWAP1 SUB PUSH1 0x1F AND DUP3 ADD SWAP2 JUMPDEST POP POP POP POP POP DUP2 MSTORE POP POP SWAP1 POP SWAP2 SWAP1 POP JUMP JUMPDEST PUSH1 0x0 DUP1 SHL DUP2 JUMP JUMPDEST PUSH32 0x15283FD96AA656C9DF35AC2FCB112678A5F24F1CA97E591A97D1D16003DBFC9C DUP2 JUMP JUMPDEST PUSH2 0xD93 DUP3 PUSH2 0x4C4 JUMP JUMPDEST PUSH2 0xD9C DUP2 PUSH2 0x10C7 JUMP JUMPDEST PUSH2 0xDA6 DUP4 DUP4 PUSH2 0x11C3 JUMP JUMPDEST POP POP POP JUMP JUMPDEST PUSH2 0xDD5 PUSH32 0x82F6ED76E0352438E6A6E35C77719C3F04BF277FDC8FEC7E5FF5F65E001D902 CALLER PUSH2 0x9AE JUMP JUMPDEST PUSH2 0xE14 JUMPI PUSH1 0x40 MLOAD PUSH32 0x8C379A000000000000000000000000000000000000000000000000000000000 DUP2 MSTORE PUSH1 0x4 ADD PUSH2 0xE0B SWAP1 PUSH2 0x2112 JUMP JUMPDEST PUSH1 0x40 MLOAD DUP1 SWAP2 SUB SWAP1 REVERT JUMPDEST DUP3 PUSH1 0x7 PUSH1 0x0 PUSH1 0x3 SLOAD DUP2 MSTORE PUSH1 0x20 ADD SWAP1 DUP2 MSTORE PUSH1 0x20 ADD PUSH1 0x0 KECCAK256 PUSH1 0x0 ADD SWAP1 DUP1 MLOAD SWAP1 PUSH1 0x20 ADD SWAP1 PUSH2 0xE40 SWAP3 SWAP2 SWAP1 PUSH2 0x1736 JUMP JUMPDEST POP DUP2 PUSH1 0x7 PUSH1 0x0 PUSH1 0x3 SLOAD DUP2 MSTORE PUSH1 0x20 ADD SWAP1 DUP2 MSTORE PUSH1 0x20 ADD PUSH1 0x0 KECCAK256 PUSH1 0x1 ADD PUSH1 0x0 PUSH2 0x100 EXP DUP2 SLOAD DUP2 PUSH20 0xFFFFFFFFFFFFFFFFFFFFFFFFFFFFFFFFFFFFFFFF MUL NOT AND SWAP1 DUP4 PUSH20 0xFFFFFFFFFFFFFFFFFFFFFFFFFFFFFFFFFFFFFFFF AND MUL OR SWAP1 SSTORE POP PUSH1 0x6 DUP2 DUP2 SLOAD DUP2 LT PUSH2 0xEAC JUMPI PUSH2 0xEAB PUSH2 0x2586 JUMP JUMPDEST JUMPDEST SWAP1 PUSH1 0x0 MSTORE PUSH1 0x20 PUSH1 0x0 KECCAK256 ADD PUSH1 0x7 PUSH1 0x0 PUSH1 0x3 SLOAD DUP2 MSTORE PUSH1 0x20 ADD SWAP1 DUP2 MSTORE PUSH1 0x20 ADD PUSH1 0x0 KECCAK256 PUSH1 0x2 ADD SWAP1 DUP1 SLOAD PUSH2 0xEDA SWAP1 PUSH2 0x247C JUMP JUMPDEST PUSH2 0xEE5 SWAP3 SWAP2 SWAP1 PUSH2 0x17BC JUMP JUMPDEST POP PUSH1 0x3 PUSH1 0x0 DUP2 SLOAD DUP1 SWAP3 SWAP2 SWAP1 PUSH2 0xEF9 SWAP1 PUSH2 0x24DF JUMP JUMPDEST SWAP2 SWAP1 POP SSTORE POP POP POP POP JUMP JUMPDEST CALLER PUSH1 0x8 PUSH1 0x0 PUSH1 0x4 SLOAD DUP2 MSTORE PUSH1 0x20 ADD SWAP1 DUP2 MSTORE PUSH1 0x20 ADD PUSH1 0x0 KECCAK256 PUSH1 0x0 ADD PUSH1 0x0 PUSH2 0x100 EXP DUP2 SLOAD DUP2 PUSH20 0xFFFFFFFFFFFFFFFFFFFFFFFFFFFFFFFFFFFFFFFF MUL NOT AND SWAP1 DUP4 PUSH20 0xFFFFFFFFFFFFFFFFFFFFFFFFFFFFFFFFFFFFFFFF AND MUL OR SWAP1 SSTORE POP DUP1 PUSH1 0x8 PUSH1 0x0 PUSH1 0x4 SLOAD DUP2 MSTORE PUSH1 0x20 ADD SWAP1 DUP2 MSTORE PUSH1 0x20 ADD PUSH1 0x0 KECCAK256 PUSH1 0x1 ADD DUP2 SWAP1 SSTORE POP PUSH2 0xFA1 PUSH32 0x15283FD96AA656C9DF35AC2FCB112678A5F24F1CA97E591A97D1D16003DBFC9C CALLER PUSH2 0x13E7 JUMP JUMPDEST POP JUMP JUMPDEST PUSH2 0xFAC PUSH2 0x12A5 JUMP JUMPDEST PUSH2 0xFD6 PUSH32 0x82F6ED76E0352438E6A6E35C77719C3F04BF277FDC8FEC7E5FF5F65E001D902 DUP3 PUSH2 0x662 JUMP JUMPDEST POP JUMP JUMPDEST PUSH2 0xFE1 PUSH2 0x12A5 JUMP JUMPDEST PUSH1 0x0 PUSH20 0xFFFFFFFFFFFFFFFFFFFFFFFFFFFFFFFFFFFFFFFF AND DUP2 PUSH20 0xFFFFFFFFFFFFFFFFFFFFFFFFFFFFFFFFFFFFFFFF AND EQ ISZERO PUSH2 0x1051 JUMPI PUSH1 0x40 MLOAD PUSH32 0x8C379A000000000000000000000000000000000000000000000000000000000 DUP2 MSTORE PUSH1 0x4 ADD PUSH2 0x1048 SWAP1 PUSH2 0x20F2 JUMP JUMPDEST PUSH1 0x40 MLOAD DUP1 SWAP2 SUB SWAP1 REVERT JUMPDEST PUSH2 0x105A DUP2 PUSH2 0x1323 JUMP JUMPDEST POP JUMP JUMPDEST PUSH1 0x0 PUSH32 0x1FFC9A700000000000000000000000000000000000000000000000000000000 PUSH28 0xFFFFFFFFFFFFFFFFFFFFFFFFFFFFFFFFFFFFFFFFFFFFFFFFFFFFFFFF NOT AND DUP3 PUSH28 0xFFFFFFFFFFFFFFFFFFFFFFFFFFFFFFFFFFFFFFFFFFFFFFFFFFFFFFFF NOT AND EQ SWAP1 POP SWAP2 SWAP1 POP JUMP JUMPDEST PUSH2 0x10D8 DUP2 PUSH2 0x10D3 PUSH2 0x11BB JUMP JUMPDEST PUSH2 0x13F5 JUMP JUMPDEST POP JUMP JUMPDEST PUSH2 0x10E5 DUP3 DUP3 PUSH2 0x9AE JUMP JUMPDEST PUSH2 0x11B7 JUMPI PUSH1 0x1 DUP1 PUSH1 0x0 DUP5 DUP2 MSTORE PUSH1 0x20 ADD SWAP1 DUP2 MSTORE PUSH1 0x20 ADD PUSH1 0x0 KECCAK256 PUSH1 0x0 ADD PUSH1 0x0 DUP4 PUSH20 0xFFFFFFFFFFFFFFFFFFFFFFFFFFFFFFFFFFFFFFFF AND PUSH20 0xFFFFFFFFFFFFFFFFFFFFFFFFFFFFFFFFFFFFFFFF AND DUP2 MSTORE PUSH1 0x20 ADD SWAP1 DUP2 MSTORE PUSH1 0x20 ADD PUSH1 0x0 KECCAK256 PUSH1 0x0 PUSH2 0x100 EXP DUP2 SLOAD DUP2 PUSH1 0xFF MUL NOT AND SWAP1 DUP4 ISZERO ISZERO MUL OR SWAP1 SSTORE POP PUSH2 0x115C PUSH2 0x11BB JUMP JUMPDEST PUSH20 0xFFFFFFFFFFFFFFFFFFFFFFFFFFFFFFFFFFFFFFFF AND DUP2 PUSH20 0xFFFFFFFFFFFFFFFFFFFFFFFFFFFFFFFFFFFFFFFF AND DUP4 PUSH32 0x2F8788117E7EFF1D82E926EC794901D17C78024A50270940304540A733656F0D PUSH1 0x40 MLOAD PUSH1 0x40 MLOAD DUP1 SWAP2 SUB SWAP1 LOG4 JUMPDEST POP POP JUMP JUMPDEST PUSH1 0x0 CALLER SWAP1 POP SWAP1 JUMP JUMPDEST PUSH2 0x11CD DUP3 DUP3 PUSH2 0x9AE JUMP JUMPDEST ISZERO PUSH2 0x12A1 JUMPI PUSH1 0x0 PUSH1 0x1 PUSH1 0x0 DUP5 DUP2 MSTORE PUSH1 0x20 ADD SWAP1 DUP2 MSTORE PUSH1 0x20 ADD PUSH1 0x0 KECCAK256 PUSH1 0x0 ADD PUSH1 0x0 DUP4 PUSH20 0xFFFFFFFFFFFFFFFFFFFFFFFFFFFFFFFFFFFFFFFF AND PUSH20 0xFFFFFFFFFFFFFFFFFFFFFFFFFFFFFFFFFFFFFFFF AND DUP2 MSTORE PUSH1 0x20 ADD SWAP1 DUP2 MSTORE PUSH1 0x20 ADD PUSH1 0x0 KECCAK256 PUSH1 0x0 PUSH2 0x100 EXP DUP2 SLOAD DUP2 PUSH1 0xFF MUL NOT AND SWAP1 DUP4 ISZERO ISZERO MUL OR SWAP1 SSTORE POP PUSH2 0x1246 PUSH2 0x11BB JUMP JUMPDEST PUSH20 0xFFFFFFFFFFFFFFFFFFFFFFFFFFFFFFFFFFFFFFFF AND DUP2 PUSH20 0xFFFFFFFFFFFFFFFFFFFFFFFFFFFFFFFFFFFFFFFF AND DUP4 PUSH32 0xF6391F5C32D9C69D2A47EA670B442974B53935D1EDC7FD64EB21E047A839171B PUSH1 0x40 MLOAD PUSH1 0x40 MLOAD DUP1 SWAP2 SUB SWAP1 LOG4 JUMPDEST POP POP JUMP JUMPDEST PUSH2 0x12AD PUSH2 0x11BB JUMP JUMPDEST PUSH20 0xFFFFFFFFFFFFFFFFFFFFFFFFFFFFFFFFFFFFFFFF AND PUSH2 0x12CB PUSH2 0x985 JUMP JUMPDEST PUSH20 0xFFFFFFFFFFFFFFFFFFFFFFFFFFFFFFFFFFFFFFFF AND EQ PUSH2 0x1321 JUMPI PUSH1 0x40 MLOAD PUSH32 0x8C379A000000000000000000000000000000000000000000000000000000000 DUP2 MSTORE PUSH1 0x4 ADD PUSH2 0x1318 SWAP1 PUSH2 0x2132 JUMP JUMPDEST PUSH1 0x40 MLOAD DUP1 SWAP2 SUB SWAP1 REVERT JUMPDEST JUMP JUMPDEST PUSH1 0x0 DUP1 PUSH1 0x0 SWAP1 SLOAD SWAP1 PUSH2 0x100 EXP SWAP1 DIV PUSH20 0xFFFFFFFFFFFFFFFFFFFFFFFFFFFFFFFFFFFFFFFF AND SWAP1 POP DUP2 PUSH1 0x0 DUP1 PUSH2 0x100 EXP DUP2 SLOAD DUP2 PUSH20 0xFFFFFFFFFFFFFFFFFFFFFFFFFFFFFFFFFFFFFFFF MUL NOT AND SWAP1 DUP4 PUSH20 0xFFFFFFFFFFFFFFFFFFFFFFFFFFFFFFFFFFFFFFFF AND MUL OR SWAP1 SSTORE POP DUP2 PUSH20 0xFFFFFFFFFFFFFFFFFFFFFFFFFFFFFFFFFFFFFFFF AND DUP2 PUSH20 0xFFFFFFFFFFFFFFFFFFFFFFFFFFFFFFFFFFFFFFFF AND PUSH32 0x8BE0079C531659141344CD1FD0A4F28419497F9722A3DAAFE3B4186F6B6457E0 PUSH1 0x40 MLOAD PUSH1 0x40 MLOAD DUP1 SWAP2 SUB SWAP1 LOG3 POP POP JUMP JUMPDEST PUSH2 0x13F1 DUP3 DUP3 PUSH2 0x10DB JUMP JUMPDEST POP POP JUMP JUMPDEST PUSH2 0x13FF DUP3 DUP3 PUSH2 0x9AE JUMP JUMPDEST PUSH2 0x148E JUMPI PUSH2 0x1424 DUP2 PUSH20 0xFFFFFFFFFFFFFFFFFFFFFFFFFFFFFFFFFFFFFFFF AND PUSH1 0x14 PUSH2 0x1492 JUMP JUMPDEST PUSH2 0x1432 DUP4 PUSH1 0x0 SHR PUSH1 0x20 PUSH2 0x1492 JUMP JUMPDEST PUSH1 0x40 MLOAD PUSH1 0x20 ADD PUSH2 0x1443 SWAP3 SWAP2 SWAP1 PUSH2 0x1F9B JUMP JUMPDEST PUSH1 0x40 MLOAD PUSH1 0x20 DUP2 DUP4 SUB SUB DUP2 MSTORE SWAP1 PUSH1 0x40 MSTORE PUSH1 0x40 MLOAD PUSH32 0x8C379A000000000000000000000000000000000000000000000000000000000 DUP2 MSTORE PUSH1 0x4 ADD PUSH2 0x1485 SWAP2 SWAP1 PUSH2 0x206B JUMP JUMPDEST PUSH1 0x40 MLOAD DUP1 SWAP2 SUB SWAP1 REVERT JUMPDEST POP POP JUMP JUMPDEST PUSH1 0x60 PUSH1 0x0 PUSH1 0x2 DUP4 PUSH1 0x2 PUSH2 0x14A5 SWAP2 SWAP1 PUSH2 0x2338 JUMP JUMPDEST PUSH2 0x14AF SWAP2 SWAP1 PUSH2 0x22E2 JUMP JUMPDEST PUSH8 0xFFFFFFFFFFFFFFFF DUP2 GT ISZERO PUSH2 0x14C8 JUMPI PUSH2 0x14C7 PUSH2 0x25B5 JUMP JUMPDEST JUMPDEST PUSH1 0x40 MLOAD SWAP1 DUP1 DUP3 MSTORE DUP1 PUSH1 0x1F ADD PUSH1 0x1F NOT AND PUSH1 0x20 ADD DUP3 ADD PUSH1 0x40 MSTORE DUP1 ISZERO PUSH2 0x14FA JUMPI DUP2 PUSH1 0x20 ADD PUSH1 0x1 DUP3 MUL DUP1 CALLDATASIZE DUP4 CALLDATACOPY DUP1 DUP3 ADD SWAP2 POP POP SWAP1 POP JUMPDEST POP SWAP1 POP PUSH32 0x3000000000000000000000000000000000000000000000000000000000000000 DUP2 PUSH1 0x0 DUP2 MLOAD DUP2 LT PUSH2 0x1532 JUMPI PUSH2 0x1531 PUSH2 0x2586 JUMP JUMPDEST JUMPDEST PUSH1 0x20 ADD ADD SWAP1 PUSH31 0xFFFFFFFFFFFFFFFFFFFFFFFFFFFFFFFFFFFFFFFFFFFFFFFFFFFFFFFFFFFFFF NOT AND SWAP1 DUP2 PUSH1 0x0 BYTE SWAP1 MSTORE8 POP PUSH32 0x7800000000000000000000000000000000000000000000000000000000000000 DUP2 PUSH1 0x1 DUP2 MLOAD DUP2 LT PUSH2 0x1596 JUMPI PUSH2 0x1595 PUSH2 0x2586 JUMP JUMPDEST JUMPDEST PUSH1 0x20 ADD ADD SWAP1 PUSH31 0xFFFFFFFFFFFFFFFFFFFFFFFFFFFFFFFFFFFFFFFFFFFFFFFFFFFFFFFFFFFFFF NOT AND SWAP1 DUP2 PUSH1 0x0 BYTE SWAP1 MSTORE8 POP PUSH1 0x0 PUSH1 0x1 DUP5 PUSH1 0x2 PUSH2 0x15D6 SWAP2 SWAP1 PUSH2 0x2338 JUMP JUMPDEST PUSH2 0x15E0 SWAP2 SWAP1 PUSH2 0x22E2 JUMP JUMPDEST SWAP1 POP JUMPDEST PUSH1 0x1 DUP2 GT ISZERO PUSH2 0x1680 JUMPI PUSH32 0x3031323334353637383961626364656600000000000000000000000000000000 PUSH1 0xF DUP7 AND PUSH1 0x10 DUP2 LT PUSH2 0x1622 JUMPI PUSH2 0x1621 PUSH2 0x2586 JUMP JUMPDEST JUMPDEST BYTE PUSH1 0xF8 SHL DUP3 DUP3 DUP2 MLOAD DUP2 LT PUSH2 0x1639 JUMPI PUSH2 0x1638 PUSH2 0x2586 JUMP JUMPDEST JUMPDEST PUSH1 0x20 ADD ADD SWAP1 PUSH31 0xFFFFFFFFFFFFFFFFFFFFFFFFFFFFFFFFFFFFFFFFFFFFFFFFFFFFFFFFFFFFFF NOT AND SWAP1 DUP2 PUSH1 0x0 BYTE SWAP1 MSTORE8 POP PUSH1 0x4 DUP6 SWAP1 SHR SWAP5 POP DUP1 PUSH2 0x1679 SWAP1 PUSH2 0x2452 JUMP JUMPDEST SWAP1 POP PUSH2 0x15E3 JUMP JUMPDEST POP PUSH1 0x0 DUP5 EQ PUSH2 0x16C4 JUMPI PUSH1 0x40 MLOAD PUSH32 0x8C379A000000000000000000000000000000000000000000000000000000000 DUP2 MSTORE PUSH1 0x4 ADD PUSH2 0x16BB SWAP1 PUSH2 0x20D2 JUMP JUMPDEST PUSH1 0x40 MLOAD DUP1 SWAP2 SUB SWAP1 REVERT JUMPDEST DUP1 SWAP2 POP POP SWAP3 SWAP2 POP POP JUMP JUMPDEST PUSH1 0x40 MLOAD DUP1 PUSH1 0xA0 ADD PUSH1 0x40 MSTORE DUP1 PUSH1 0x60 DUP2 MSTORE PUSH1 0x20 ADD PUSH1 0x60 DUP2 MSTORE PUSH1 0x20 ADD PUSH1 0x0 DUP2 MSTORE PUSH1 0x20 ADD PUSH1 0x0 DUP2 MSTORE PUSH1 0x20 ADD PUSH1 0x0 ISZERO ISZERO DUP2 MSTORE POP SWAP1 JUMP JUMPDEST PUSH1 0x40 MLOAD DUP1 PUSH1 0x60 ADD PUSH1 0x40 MSTORE DUP1 PUSH1 0x60 DUP2 MSTORE PUSH1 0x20 ADD PUSH1 0x0 PUSH20 0xFFFFFFFFFFFFFFFFFFFFFFFFFFFFFFFFFFFFFFFF AND DUP2 MSTORE PUSH1 0x20 ADD PUSH1 0x60 DUP2 MSTORE POP SWAP1 JUMP JUMPDEST DUP3 DUP1 SLOAD PUSH2 0x1742 SWAP1 PUSH2 0x247C JUMP JUMPDEST SWAP1 PUSH1 0x0 MSTORE PUSH1 0x20 PUSH1 0x0 KECCAK256 SWAP1 PUSH1 0x1F ADD PUSH1 0x20 SWAP1 DIV DUP2 ADD SWAP3 DUP3 PUSH2 0x1764 JUMPI PUSH1 0x0 DUP6 SSTORE PUSH2 0x17AB JUMP JUMPDEST DUP3 PUSH1 0x1F LT PUSH2 0x177D JUMPI DUP1 MLOAD PUSH1 0xFF NOT AND DUP4 DUP1 ADD OR DUP6 SSTORE PUSH2 0x17AB JUMP JUMPDEST DUP3 DUP1 ADD PUSH1 0x1 ADD DUP6 SSTORE DUP3 ISZERO PUSH2 0x17AB JUMPI SWAP2 DUP3 ADD JUMPDEST DUP3 DUP2 GT ISZERO PUSH2 0x17AA JUMPI DUP3 MLOAD DUP3 SSTORE SWAP2 PUSH1 0x20 ADD SWAP2 SWAP1 PUSH1 0x1 ADD SWAP1 PUSH2 0x178F JUMP JUMPDEST JUMPDEST POP SWAP1 POP PUSH2 0x17B8 SWAP2 SWAP1 PUSH2 0x1849 JUMP JUMPDEST POP SWAP1 JUMP JUMPDEST DUP3 DUP1 SLOAD PUSH2 0x17C8 SWAP1 PUSH2 0x247C JUMP JUMPDEST SWAP1 PUSH1 0x0 MSTORE PUSH1 0x20 PUSH1 0x0 KECCAK256 SWAP1 PUSH1 0x1F ADD PUSH1 0x20 SWAP1 DIV DUP2 ADD SWAP3 DUP3 PUSH2 0x17EA JUMPI PUSH1 0x0 DUP6 SSTORE PUSH2 0x1838 JUMP JUMPDEST DUP3 PUSH1 0x1F LT PUSH2 0x17FB JUMPI DUP1 SLOAD DUP6 SSTORE PUSH2 0x1838 JUMP JUMPDEST DUP3 DUP1 ADD PUSH1 0x1 ADD DUP6 SSTORE DUP3 ISZERO PUSH2 0x1838 JUMPI PUSH1 0x0 MSTORE PUSH1 0x20 PUSH1 0x0 KECCAK256 SWAP2 PUSH1 0x1F ADD PUSH1 0x20 SWAP1 DIV DUP3 ADD JUMPDEST DUP3 DUP2 GT ISZERO PUSH2 0x1837 JUMPI DUP3 SLOAD DUP3 SSTORE SWAP2 PUSH1 0x1 ADD SWAP2 SWAP1 PUSH1 0x1 ADD SWAP1 PUSH2 0x181C JUMP JUMPDEST JUMPDEST POP SWAP1 POP PUSH2 0x1845 SWAP2 SWAP1 PUSH2 0x1849 JUMP JUMPDEST POP SWAP1 JUMP JUMPDEST JUMPDEST DUP1 DUP3 GT ISZERO PUSH2 0x1862 JUMPI PUSH1 0x0 DUP2 PUSH1 0x0 SWAP1 SSTORE POP PUSH1 0x1 ADD PUSH2 0x184A JUMP JUMPDEST POP SWAP1 JUMP JUMPDEST PUSH1 0x0 PUSH2 0x1879 PUSH2 0x1874 DUP5 PUSH2 0x21DB JUMP JUMPDEST PUSH2 0x21B6 JUMP JUMPDEST SWAP1 POP DUP1 DUP4 DUP3 MSTORE PUSH1 0x20 DUP3 ADD SWAP1 POP DUP3 DUP6 PUSH1 0x20 DUP7 MUL DUP3 ADD GT ISZERO PUSH2 0x189C JUMPI PUSH2 0x189B PUSH2 0x25E9 JUMP JUMPDEST JUMPDEST PUSH1 0x0 JUMPDEST DUP6 DUP2 LT ISZERO PUSH2 0x18CC JUMPI DUP2 PUSH2 0x18B2 DUP9 DUP3 PUSH2 0x1918 JUMP JUMPDEST DUP5 MSTORE PUSH1 0x20 DUP5 ADD SWAP4 POP PUSH1 0x20 DUP4 ADD SWAP3 POP POP PUSH1 0x1 DUP2 ADD SWAP1 POP PUSH2 0x189F JUMP JUMPDEST POP POP POP SWAP4 SWAP3 POP POP POP JUMP JUMPDEST PUSH1 0x0 PUSH2 0x18E9 PUSH2 0x18E4 DUP5 PUSH2 0x2207 JUMP JUMPDEST PUSH2 0x21B6 JUMP JUMPDEST SWAP1 POP DUP3 DUP2 MSTORE PUSH1 0x20 DUP2 ADD DUP5 DUP5 DUP5 ADD GT ISZERO PUSH2 0x1905 JUMPI PUSH2 0x1904 PUSH2 0x25EE JUMP JUMPDEST JUMPDEST PUSH2 0x1910 DUP5 DUP3 DUP6 PUSH2 0x2410 JUMP JUMPDEST POP SWAP4 SWAP3 POP POP POP JUMP JUMPDEST PUSH1 0x0 DUP2 CALLDATALOAD SWAP1 POP PUSH2 0x1927 DUP2 PUSH2 0x2779 JUMP JUMPDEST SWAP3 SWAP2 POP POP JUMP JUMPDEST PUSH1 0x0 DUP3 PUSH1 0x1F DUP4 ADD SLT PUSH2 0x1942 JUMPI PUSH2 0x1941 PUSH2 0x25E4 JUMP JUMPDEST JUMPDEST DUP2 CALLDATALOAD PUSH2 0x1952 DUP5 DUP3 PUSH1 0x20 DUP7 ADD PUSH2 0x1866 JUMP JUMPDEST SWAP2 POP POP SWAP3 SWAP2 POP POP JUMP JUMPDEST PUSH1 0x0 DUP2 CALLDATALOAD SWAP1 POP PUSH2 0x196A DUP2 PUSH2 0x2790 JUMP JUMPDEST SWAP3 SWAP2 POP POP JUMP JUMPDEST PUSH1 0x0 DUP2 CALLDATALOAD SWAP1 POP PUSH2 0x197F DUP2 PUSH2 0x27A7 JUMP JUMPDEST SWAP3 SWAP2 POP POP JUMP JUMPDEST PUSH1 0x0 DUP3 PUSH1 0x1F DUP4 ADD SLT PUSH2 0x199A JUMPI PUSH2 0x1999 PUSH2 0x25E4 JUMP JUMPDEST JUMPDEST DUP2 CALLDATALOAD PUSH2 0x19AA DUP5 DUP3 PUSH1 0x20 DUP7 ADD PUSH2 0x18D6 JUMP JUMPDEST SWAP2 POP POP SWAP3 SWAP2 POP POP JUMP JUMPDEST PUSH1 0x0 DUP2 CALLDATALOAD SWAP1 POP PUSH2 0x19C2 DUP2 PUSH2 0x27BE JUMP JUMPDEST SWAP3 SWAP2 POP POP JUMP JUMPDEST PUSH1 0x0 PUSH1 0x20 DUP3 DUP5 SUB SLT ISZERO PUSH2 0x19DE JUMPI PUSH2 0x19DD PUSH2 0x25F8 JUMP JUMPDEST JUMPDEST PUSH1 0x0 PUSH2 0x19EC DUP5 DUP3 DUP6 ADD PUSH2 0x1918 JUMP JUMPDEST SWAP2 POP POP SWAP3 SWAP2 POP POP JUMP JUMPDEST PUSH1 0x0 DUP1 PUSH1 0x0 PUSH1 0x60 DUP5 DUP7 SUB SLT ISZERO PUSH2 0x1A0E JUMPI PUSH2 0x1A0D PUSH2 0x25F8 JUMP JUMPDEST JUMPDEST PUSH1 0x0 DUP5 ADD CALLDATALOAD PUSH8 0xFFFFFFFFFFFFFFFF DUP2 GT ISZERO PUSH2 0x1A2C JUMPI PUSH2 0x1A2B PUSH2 0x25F3 JUMP JUMPDEST JUMPDEST PUSH2 0x1A38 DUP7 DUP3 DUP8 ADD PUSH2 0x192D JUMP JUMPDEST SWAP4 POP POP PUSH1 0x20 PUSH2 0x1A49 DUP7 DUP3 DUP8 ADD PUSH2 0x19B3 JUMP JUMPDEST SWAP3 POP POP PUSH1 0x40 PUSH2 0x1A5A DUP7 DUP3 DUP8 ADD PUSH2 0x19B3 JUMP JUMPDEST SWAP2 POP POP SWAP3 POP SWAP3 POP SWAP3 JUMP JUMPDEST PUSH1 0x0 PUSH1 0x20 DUP3 DUP5 SUB SLT ISZERO PUSH2 0x1A7A JUMPI PUSH2 0x1A79 PUSH2 0x25F8 JUMP JUMPDEST JUMPDEST PUSH1 0x0 PUSH2 0x1A88 DUP5 DUP3 DUP6 ADD PUSH2 0x195B JUMP JUMPDEST SWAP2 POP POP SWAP3 SWAP2 POP POP JUMP JUMPDEST PUSH1 0x0 DUP1 PUSH1 0x40 DUP4 DUP6 SUB SLT ISZERO PUSH2 0x1AA8 JUMPI PUSH2 0x1AA7 PUSH2 0x25F8 JUMP JUMPDEST JUMPDEST PUSH1 0x0 PUSH2 0x1AB6 DUP6 DUP3 DUP7 ADD PUSH2 0x195B JUMP JUMPDEST SWAP3 POP POP PUSH1 0x20 PUSH2 0x1AC7 DUP6 DUP3 DUP7 ADD PUSH2 0x1918 JUMP JUMPDEST SWAP2 POP POP SWAP3 POP SWAP3 SWAP1 POP JUMP JUMPDEST PUSH1 0x0 PUSH1 0x20 DUP3 DUP5 SUB SLT ISZERO PUSH2 0x1AE7 JUMPI PUSH2 0x1AE6 PUSH2 0x25F8 JUMP JUMPDEST JUMPDEST PUSH1 0x0 PUSH2 0x1AF5 DUP5 DUP3 DUP6 ADD PUSH2 0x1970 JUMP JUMPDEST SWAP2 POP POP SWAP3 SWAP2 POP POP JUMP JUMPDEST PUSH1 0x0 DUP1 PUSH1 0x0 PUSH1 0x60 DUP5 DUP7 SUB SLT ISZERO PUSH2 0x1B17 JUMPI PUSH2 0x1B16 PUSH2 0x25F8 JUMP JUMPDEST JUMPDEST PUSH1 0x0 DUP5 ADD CALLDATALOAD PUSH8 0xFFFFFFFFFFFFFFFF DUP2 GT ISZERO PUSH2 0x1B35 JUMPI PUSH2 0x1B34 PUSH2 0x25F3 JUMP JUMPDEST JUMPDEST PUSH2 0x1B41 DUP7 DUP3 DUP8 ADD PUSH2 0x1985 JUMP JUMPDEST SWAP4 POP POP PUSH1 0x20 PUSH2 0x1B52 DUP7 DUP3 DUP8 ADD PUSH2 0x1918 JUMP JUMPDEST SWAP3 POP POP PUSH1 0x40 PUSH2 0x1B63 DUP7 DUP3 DUP8 ADD PUSH2 0x19B3 JUMP JUMPDEST SWAP2 POP POP SWAP3 POP SWAP3 POP SWAP3 JUMP JUMPDEST PUSH1 0x0 PUSH1 0x20 DUP3 DUP5 SUB SLT ISZERO PUSH2 0x1B83 JUMPI PUSH2 0x1B82 PUSH2 0x25F8 JUMP JUMPDEST JUMPDEST PUSH1 0x0 PUSH2 0x1B91 DUP5 DUP3 DUP6 ADD PUSH2 0x19B3 JUMP JUMPDEST SWAP2 POP POP SWAP3 SWAP2 POP POP JUMP JUMPDEST PUSH1 0x0 DUP1 PUSH1 0x40 DUP4 DUP6 SUB SLT ISZERO PUSH2 0x1BB1 JUMPI PUSH2 0x1BB0 PUSH2 0x25F8 JUMP JUMPDEST JUMPDEST PUSH1 0x0 PUSH2 0x1BBF DUP6 DUP3 DUP7 ADD PUSH2 0x19B3 JUMP JUMPDEST SWAP3 POP POP PUSH1 0x20 PUSH2 0x1BD0 DUP6 DUP3 DUP7 ADD PUSH2 0x19B3 JUMP JUMPDEST SWAP2 POP POP SWAP3 POP SWAP3 SWAP1 POP JUMP JUMPDEST PUSH1 0x0 PUSH2 0x1BE6 DUP4 DUP4 PUSH2 0x1C0A JUMP JUMPDEST PUSH1 0x20 DUP4 ADD SWAP1 POP SWAP3 SWAP2 POP POP JUMP JUMPDEST PUSH1 0x0 PUSH2 0x1BFE DUP4 DUP4 PUSH2 0x1F7D JUMP JUMPDEST PUSH1 0x20 DUP4 ADD SWAP1 POP SWAP3 SWAP2 POP POP JUMP JUMPDEST PUSH2 0x1C13 DUP2 PUSH2 0x2392 JUMP JUMPDEST DUP3 MSTORE POP POP JUMP JUMPDEST PUSH2 0x1C22 DUP2 PUSH2 0x2392 JUMP JUMPDEST DUP3 MSTORE POP POP JUMP JUMPDEST PUSH1 0x0 PUSH2 0x1C33 DUP3 PUSH2 0x2258 JUMP JUMPDEST PUSH2 0x1C3D DUP2 DUP6 PUSH2 0x2293 JUMP JUMPDEST SWAP4 POP PUSH2 0x1C48 DUP4 PUSH2 0x2238 JUMP JUMPDEST DUP1 PUSH1 0x0 JUMPDEST DUP4 DUP2 LT ISZERO PUSH2 0x1C79 JUMPI DUP2 MLOAD PUSH2 0x1C60 DUP9 DUP3 PUSH2 0x1BDA JUMP JUMPDEST SWAP8 POP PUSH2 0x1C6B DUP4 PUSH2 0x2279 JUMP JUMPDEST SWAP3 POP POP PUSH1 0x1 DUP2 ADD SWAP1 POP PUSH2 0x1C4C JUMP JUMPDEST POP DUP6 SWAP4 POP POP POP POP SWAP3 SWAP2 POP POP JUMP JUMPDEST PUSH1 0x0 PUSH2 0x1C91 DUP3 PUSH2 0x2263 JUMP JUMPDEST PUSH2 0x1C9B DUP2 DUP6 PUSH2 0x22A4 JUMP JUMPDEST SWAP4 POP PUSH2 0x1CA6 DUP4 PUSH2 0x2248 JUMP JUMPDEST DUP1 PUSH1 0x0 JUMPDEST DUP4 DUP2 LT ISZERO PUSH2 0x1CD7 JUMPI DUP2 MLOAD PUSH2 0x1CBE DUP9 DUP3 PUSH2 0x1BF2 JUMP JUMPDEST SWAP8 POP PUSH2 0x1CC9 DUP4 PUSH2 0x2286 JUMP JUMPDEST SWAP3 POP POP PUSH1 0x1 DUP2 ADD SWAP1 POP PUSH2 0x1CAA JUMP JUMPDEST POP DUP6 SWAP4 POP POP POP POP SWAP3 SWAP2 POP POP JUMP JUMPDEST PUSH2 0x1CED DUP2 PUSH2 0x23A4 JUMP JUMPDEST DUP3 MSTORE POP POP JUMP JUMPDEST PUSH2 0x1CFC DUP2 PUSH2 0x23A4 JUMP JUMPDEST DUP3 MSTORE POP POP JUMP JUMPDEST PUSH2 0x1D0B DUP2 PUSH2 0x23B0 JUMP JUMPDEST DUP3 MSTORE POP POP JUMP JUMPDEST PUSH1 0x0 PUSH2 0x1D1C DUP3 PUSH2 0x226E JUMP JUMPDEST PUSH2 0x1D26 DUP2 DUP6 PUSH2 0x22B5 JUMP JUMPDEST SWAP4 POP PUSH2 0x1D36 DUP2 DUP6 PUSH1 0x20 DUP7 ADD PUSH2 0x241F JUMP JUMPDEST PUSH2 0x1D3F DUP2 PUSH2 0x25FD JUMP JUMPDEST DUP5 ADD SWAP2 POP POP SWAP3 SWAP2 POP POP JUMP JUMPDEST PUSH1 0x0 PUSH2 0x1D55 DUP3 PUSH2 0x226E JUMP JUMPDEST PUSH2 0x1D5F DUP2 DUP6 PUSH2 0x22C6 JUMP JUMPDEST SWAP4 POP PUSH2 0x1D6F DUP2 DUP6 PUSH1 0x20 DUP7 ADD PUSH2 0x241F JUMP JUMPDEST PUSH2 0x1D78 DUP2 PUSH2 0x25FD JUMP JUMPDEST DUP5 ADD SWAP2 POP POP SWAP3 SWAP2 POP POP JUMP JUMPDEST PUSH1 0x0 PUSH2 0x1D8E DUP3 PUSH2 0x226E JUMP JUMPDEST PUSH2 0x1D98 DUP2 DUP6 PUSH2 0x22D7 JUMP JUMPDEST SWAP4 POP PUSH2 0x1DA8 DUP2 DUP6 PUSH1 0x20 DUP7 ADD PUSH2 0x241F JUMP JUMPDEST DUP1 DUP5 ADD SWAP2 POP POP SWAP3 SWAP2 POP POP JUMP JUMPDEST PUSH1 0x0 PUSH2 0x1DC1 PUSH1 0x20 DUP4 PUSH2 0x22C6 JUMP JUMPDEST SWAP2 POP PUSH2 0x1DCC DUP3 PUSH2 0x260E JUMP JUMPDEST PUSH1 0x20 DUP3 ADD SWAP1 POP SWAP2 SWAP1 POP JUMP JUMPDEST PUSH1 0x0 PUSH2 0x1DE4 PUSH1 0x26 DUP4 PUSH2 0x22C6 JUMP JUMPDEST SWAP2 POP PUSH2 0x1DEF DUP3 PUSH2 0x2637 JUMP JUMPDEST PUSH1 0x40 DUP3 ADD SWAP1 POP SWAP2 SWAP1 POP JUMP JUMPDEST PUSH1 0x0 PUSH2 0x1E07 PUSH1 0x1F DUP4 PUSH2 0x22C6 JUMP JUMPDEST SWAP2 POP PUSH2 0x1E12 DUP3 PUSH2 0x2686 JUMP JUMPDEST PUSH1 0x20 DUP3 ADD SWAP1 POP SWAP2 SWAP1 POP JUMP JUMPDEST PUSH1 0x0 PUSH2 0x1E2A PUSH1 0x20 DUP4 PUSH2 0x22C6 JUMP JUMPDEST SWAP2 POP PUSH2 0x1E35 DUP3 PUSH2 0x26AF JUMP JUMPDEST PUSH1 0x20 DUP3 ADD SWAP1 POP SWAP2 SWAP1 POP JUMP JUMPDEST PUSH1 0x0 PUSH2 0x1E4D PUSH1 0x17 DUP4 PUSH2 0x22D7 JUMP JUMPDEST SWAP2 POP PUSH2 0x1E58 DUP3 PUSH2 0x26D8 JUMP JUMPDEST PUSH1 0x17 DUP3 ADD SWAP1 POP SWAP2 SWAP1 POP JUMP JUMPDEST PUSH1 0x0 PUSH2 0x1E70 PUSH1 0x11 DUP4 PUSH2 0x22D7 JUMP JUMPDEST SWAP2 POP PUSH2 0x1E7B DUP3 PUSH2 0x2701 JUMP JUMPDEST PUSH1 0x11 DUP3 ADD SWAP1 POP SWAP2 SWAP1 POP JUMP JUMPDEST PUSH1 0x0 PUSH2 0x1E93 PUSH1 0x2F DUP4 PUSH2 0x22C6 JUMP JUMPDEST SWAP2 POP PUSH2 0x1E9E DUP3 PUSH2 0x272A JUMP JUMPDEST PUSH1 0x40 DUP3 ADD SWAP1 POP SWAP2 SWAP1 POP JUMP JUMPDEST PUSH1 0x0 PUSH1 0x60 DUP4 ADD PUSH1 0x0 DUP4 ADD MLOAD DUP5 DUP3 SUB PUSH1 0x0 DUP7 ADD MSTORE PUSH2 0x1EC6 DUP3 DUP3 PUSH2 0x1D11 JUMP JUMPDEST SWAP2 POP POP PUSH1 0x20 DUP4 ADD MLOAD PUSH2 0x1EDB PUSH1 0x20 DUP7 ADD DUP3 PUSH2 0x1C0A JUMP JUMPDEST POP PUSH1 0x40 DUP4 ADD MLOAD DUP5 DUP3 SUB PUSH1 0x40 DUP7 ADD MSTORE PUSH2 0x1EF3 DUP3 DUP3 PUSH2 0x1D11 JUMP JUMPDEST SWAP2 POP POP DUP1 SWAP2 POP POP SWAP3 SWAP2 POP POP JUMP JUMPDEST PUSH1 0x0 PUSH1 0xA0 DUP4 ADD PUSH1 0x0 DUP4 ADD MLOAD DUP5 DUP3 SUB PUSH1 0x0 DUP7 ADD MSTORE PUSH2 0x1F1D DUP3 DUP3 PUSH2 0x1C28 JUMP JUMPDEST SWAP2 POP POP PUSH1 0x20 DUP4 ADD MLOAD DUP5 DUP3 SUB PUSH1 0x20 DUP7 ADD MSTORE PUSH2 0x1F37 DUP3 DUP3 PUSH2 0x1C86 JUMP JUMPDEST SWAP2 POP POP PUSH1 0x40 DUP4 ADD MLOAD PUSH2 0x1F4C PUSH1 0x40 DUP7 ADD DUP3 PUSH2 0x1F7D JUMP JUMPDEST POP PUSH1 0x60 DUP4 ADD MLOAD PUSH2 0x1F5F PUSH1 0x60 DUP7 ADD DUP3 PUSH2 0x1F7D JUMP JUMPDEST POP PUSH1 0x80 DUP4 ADD MLOAD PUSH2 0x1F72 PUSH1 0x80 DUP7 ADD DUP3 PUSH2 0x1CE4 JUMP JUMPDEST POP DUP1 SWAP2 POP POP SWAP3 SWAP2 POP POP JUMP JUMPDEST PUSH2 0x1F86 DUP2 PUSH2 0x2406 JUMP JUMPDEST DUP3 MSTORE POP POP JUMP JUMPDEST PUSH2 0x1F95 DUP2 PUSH2 0x2406 JUMP JUMPDEST DUP3 MSTORE POP POP JUMP JUMPDEST PUSH1 0x0 PUSH2 0x1FA6 DUP3 PUSH2 0x1E40 JUMP JUMPDEST SWAP2 POP PUSH2 0x1FB2 DUP3 DUP6 PUSH2 0x1D83 JUMP JUMPDEST SWAP2 POP PUSH2 0x1FBD DUP3 PUSH2 0x1E63 JUMP JUMPDEST SWAP2 POP PUSH2 0x1FC9 DUP3 DUP5 PUSH2 0x1D83 JUMP JUMPDEST SWAP2 POP DUP2 SWAP1 POP SWAP4 SWAP3 POP POP POP JUMP JUMPDEST PUSH1 0x0 PUSH1 0x20 DUP3 ADD SWAP1 POP PUSH2 0x1FEA PUSH1 0x0 DUP4 ADD DUP5 PUSH2 0x1C19 JUMP JUMPDEST SWAP3 SWAP2 POP POP JUMP JUMPDEST PUSH1 0x0 PUSH1 0x80 DUP3 ADD SWAP1 POP PUSH2 0x2005 PUSH1 0x0 DUP4 ADD DUP8 PUSH2 0x1C19 JUMP JUMPDEST PUSH2 0x2012 PUSH1 0x20 DUP4 ADD DUP7 PUSH2 0x1F8C JUMP JUMPDEST PUSH2 0x201F PUSH1 0x40 DUP4 ADD DUP6 PUSH2 0x1F8C JUMP JUMPDEST PUSH2 0x202C PUSH1 0x60 DUP4 ADD DUP5 PUSH2 0x1CF3 JUMP JUMPDEST SWAP6 SWAP5 POP POP POP POP POP JUMP JUMPDEST PUSH1 0x0 PUSH1 0x20 DUP3 ADD SWAP1 POP PUSH2 0x204A PUSH1 0x0 DUP4 ADD DUP5 PUSH2 0x1CF3 JUMP JUMPDEST SWAP3 SWAP2 POP POP JUMP JUMPDEST PUSH1 0x0 PUSH1 0x20 DUP3 ADD SWAP1 POP PUSH2 0x2065 PUSH1 0x0 DUP4 ADD DUP5 PUSH2 0x1D02 JUMP JUMPDEST SWAP3 SWAP2 POP POP JUMP JUMPDEST PUSH1 0x0 PUSH1 0x20 DUP3 ADD SWAP1 POP DUP2 DUP2 SUB PUSH1 0x0 DUP4 ADD MSTORE PUSH2 0x2085 DUP2 DUP5 PUSH2 0x1D4A JUMP JUMPDEST SWAP1 POP SWAP3 SWAP2 POP POP JUMP JUMPDEST PUSH1 0x0 PUSH1 0x60 DUP3 ADD SWAP1 POP DUP2 DUP2 SUB PUSH1 0x0 DUP4 ADD MSTORE PUSH2 0x20A7 DUP2 DUP7 PUSH2 0x1D4A JUMP JUMPDEST SWAP1 POP PUSH2 0x20B6 PUSH1 0x20 DUP4 ADD DUP6 PUSH2 0x1C19 JUMP JUMPDEST DUP2 DUP2 SUB PUSH1 0x40 DUP4 ADD MSTORE PUSH2 0x20C8 DUP2 DUP5 PUSH2 0x1D4A JUMP JUMPDEST SWAP1 POP SWAP5 SWAP4 POP POP POP POP JUMP JUMPDEST PUSH1 0x0 PUSH1 0x20 DUP3 ADD SWAP1 POP DUP2 DUP2 SUB PUSH1 0x0 DUP4 ADD MSTORE PUSH2 0x20EB DUP2 PUSH2 0x1DB4 JUMP JUMPDEST SWAP1 POP SWAP2 SWAP1 POP JUMP JUMPDEST PUSH1 0x0 PUSH1 0x20 DUP3 ADD SWAP1 POP DUP2 DUP2 SUB PUSH1 0x0 DUP4 ADD MSTORE PUSH2 0x210B DUP2 PUSH2 0x1DD7 JUMP JUMPDEST SWAP1 POP SWAP2 SWAP1 POP JUMP JUMPDEST PUSH1 0x0 PUSH1 0x20 DUP3 ADD SWAP1 POP DUP2 DUP2 SUB PUSH1 0x0 DUP4 ADD MSTORE PUSH2 0x212B DUP2 PUSH2 0x1DFA JUMP JUMPDEST SWAP1 POP SWAP2 SWAP1 POP JUMP JUMPDEST PUSH1 0x0 PUSH1 0x20 DUP3 ADD SWAP1 POP DUP2 DUP2 SUB PUSH1 0x0 DUP4 ADD MSTORE PUSH2 0x214B DUP2 PUSH2 0x1E1D JUMP JUMPDEST SWAP1 POP SWAP2 SWAP1 POP JUMP JUMPDEST PUSH1 0x0 PUSH1 0x20 DUP3 ADD SWAP1 POP DUP2 DUP2 SUB PUSH1 0x0 DUP4 ADD MSTORE PUSH2 0x216B DUP2 PUSH2 0x1E86 JUMP JUMPDEST SWAP1 POP SWAP2 SWAP1 POP JUMP JUMPDEST PUSH1 0x0 PUSH1 0x20 DUP3 ADD SWAP1 POP DUP2 DUP2 SUB PUSH1 0x0 DUP4 ADD MSTORE PUSH2 0x218C DUP2 DUP5 PUSH2 0x1EA9 JUMP JUMPDEST SWAP1 POP SWAP3 SWAP2 POP POP JUMP JUMPDEST PUSH1 0x0 PUSH1 0x20 DUP3 ADD SWAP1 POP DUP2 DUP2 SUB PUSH1 0x0 DUP4 ADD MSTORE PUSH2 0x21AE DUP2 DUP5 PUSH2 0x1F00 JUMP JUMPDEST SWAP1 POP SWAP3 SWAP2 POP POP JUMP JUMPDEST PUSH1 0x0 PUSH2 0x21C0 PUSH2 0x21D1 JUMP JUMPDEST SWAP1 POP PUSH2 0x21CC DUP3 DUP3 PUSH2 0x24AE JUMP JUMPDEST SWAP2 SWAP1 POP JUMP JUMPDEST PUSH1 0x0 PUSH1 0x40 MLOAD SWAP1 POP SWAP1 JUMP JUMPDEST PUSH1 0x0 PUSH8 0xFFFFFFFFFFFFFFFF DUP3 GT ISZERO PUSH2 0x21F6 JUMPI PUSH2 0x21F5 PUSH2 0x25B5 JUMP JUMPDEST JUMPDEST PUSH1 0x20 DUP3 MUL SWAP1 POP PUSH1 0x20 DUP2 ADD SWAP1 POP SWAP2 SWAP1 POP JUMP JUMPDEST PUSH1 0x0 PUSH8 0xFFFFFFFFFFFFFFFF DUP3 GT ISZERO PUSH2 0x2222 JUMPI PUSH2 0x2221 PUSH2 0x25B5 JUMP JUMPDEST JUMPDEST PUSH2 0x222B DUP3 PUSH2 0x25FD JUMP JUMPDEST SWAP1 POP PUSH1 0x20 DUP2 ADD SWAP1 POP SWAP2 SWAP1 POP JUMP JUMPDEST PUSH1 0x0 DUP2 SWAP1 POP PUSH1 0x20 DUP3 ADD SWAP1 POP SWAP2 SWAP1 POP JUMP JUMPDEST PUSH1 0x0 DUP2 SWAP1 POP PUSH1 0x20 DUP3 ADD SWAP1 POP SWAP2 SWAP1 POP JUMP JUMPDEST PUSH1 0x0 DUP2 MLOAD SWAP1 POP SWAP2 SWAP1 POP JUMP JUMPDEST PUSH1 0x0 DUP2 MLOAD SWAP1 POP SWAP2 SWAP1 POP JUMP JUMPDEST PUSH1 0x0 DUP2 MLOAD SWAP1 POP SWAP2 SWAP1 POP JUMP JUMPDEST PUSH1 0x0 PUSH1 0x20 DUP3 ADD SWAP1 POP SWAP2 SWAP1 POP JUMP JUMPDEST PUSH1 0x0 PUSH1 0x20 DUP3 ADD SWAP1 POP SWAP2 SWAP1 POP JUMP JUMPDEST PUSH1 0x0 DUP3 DUP3 MSTORE PUSH1 0x20 DUP3 ADD SWAP1 POP SWAP3 SWAP2 POP POP JUMP JUMPDEST PUSH1 0x0 DUP3 DUP3 MSTORE PUSH1 0x20 DUP3 ADD SWAP1 POP SWAP3 SWAP2 POP POP JUMP JUMPDEST PUSH1 0x0 DUP3 DUP3 MSTORE PUSH1 0x20 DUP3 ADD SWAP1 POP SWAP3 SWAP2 POP POP JUMP JUMPDEST PUSH1 0x0 DUP3 DUP3 MSTORE PUSH1 0x20 DUP3 ADD SWAP1 POP SWAP3 SWAP2 POP POP JUMP JUMPDEST PUSH1 0x0 DUP2 SWAP1 POP SWAP3 SWAP2 POP POP JUMP JUMPDEST PUSH1 0x0 PUSH2 0x22ED DUP3 PUSH2 0x2406 JUMP JUMPDEST SWAP2 POP PUSH2 0x22F8 DUP4 PUSH2 0x2406 JUMP JUMPDEST SWAP3 POP DUP3 PUSH32 0xFFFFFFFFFFFFFFFFFFFFFFFFFFFFFFFFFFFFFFFFFFFFFFFFFFFFFFFFFFFFFFFF SUB DUP3 GT ISZERO PUSH2 0x232D JUMPI PUSH2 0x232C PUSH2 0x2528 JUMP JUMPDEST JUMPDEST DUP3 DUP3 ADD SWAP1 POP SWAP3 SWAP2 POP POP JUMP JUMPDEST PUSH1 0x0 PUSH2 0x2343 DUP3 PUSH2 0x2406 JUMP JUMPDEST SWAP2 POP PUSH2 0x234E DUP4 PUSH2 0x2406 JUMP JUMPDEST SWAP3 POP DUP2 PUSH32 0xFFFFFFFFFFFFFFFFFFFFFFFFFFFFFFFFFFFFFFFFFFFFFFFFFFFFFFFFFFFFFFFF DIV DUP4 GT DUP3 ISZERO ISZERO AND ISZERO PUSH2 0x2387 JUMPI PUSH2 0x2386 PUSH2 0x2528 JUMP JUMPDEST JUMPDEST DUP3 DUP3 MUL SWAP1 POP SWAP3 SWAP2 POP POP JUMP JUMPDEST PUSH1 0x0 PUSH2 0x239D DUP3 PUSH2 0x23E6 JUMP JUMPDEST SWAP1 POP SWAP2 SWAP1 POP JUMP JUMPDEST PUSH1 0x0 DUP2 ISZERO ISZERO SWAP1 POP SWAP2 SWAP1 POP JUMP JUMPDEST PUSH1 0x0 DUP2 SWAP1 POP SWAP2 SWAP1 POP JUMP JUMPDEST PUSH1 0x0 PUSH32 0xFFFFFFFF00000000000000000000000000000000000000000000000000000000 DUP3 AND SWAP1 POP SWAP2 SWAP1 POP JUMP JUMPDEST PUSH1 0x0 PUSH20 0xFFFFFFFFFFFFFFFFFFFFFFFFFFFFFFFFFFFFFFFF DUP3 AND SWAP1 POP SWAP2 SWAP1 POP JUMP JUMPDEST PUSH1 0x0 DUP2 SWAP1 POP SWAP2 SWAP1 POP JUMP JUMPDEST DUP3 DUP2 DUP4 CALLDATACOPY PUSH1 0x0 DUP4 DUP4 ADD MSTORE POP POP POP JUMP JUMPDEST PUSH1 0x0 JUMPDEST DUP4 DUP2 LT ISZERO PUSH2 0x243D JUMPI DUP1 DUP3 ADD MLOAD DUP2 DUP5 ADD MSTORE PUSH1 0x20 DUP2 ADD SWAP1 POP PUSH2 0x2422 JUMP JUMPDEST DUP4 DUP2 GT ISZERO PUSH2 0x244C JUMPI PUSH1 0x0 DUP5 DUP5 ADD MSTORE JUMPDEST POP POP POP POP JUMP JUMPDEST PUSH1 0x0 PUSH2 0x245D DUP3 PUSH2 0x2406 JUMP JUMPDEST SWAP2 POP PUSH1 0x0 DUP3 EQ ISZERO PUSH2 0x2471 JUMPI PUSH2 0x2470 PUSH2 0x2528 JUMP JUMPDEST JUMPDEST PUSH1 0x1 DUP3 SUB SWAP1 POP SWAP2 SWAP1 POP JUMP JUMPDEST PUSH1 0x0 PUSH1 0x2 DUP3 DIV SWAP1 POP PUSH1 0x1 DUP3 AND DUP1 PUSH2 0x2494 JUMPI PUSH1 0x7F DUP3 AND SWAP2 POP JUMPDEST PUSH1 0x20 DUP3 LT DUP2 EQ ISZERO PUSH2 0x24A8 JUMPI PUSH2 0x24A7 PUSH2 0x2557 JUMP JUMPDEST JUMPDEST POP SWAP2 SWAP1 POP JUMP JUMPDEST PUSH2 0x24B7 DUP3 PUSH2 0x25FD JUMP JUMPDEST DUP2 ADD DUP2 DUP2 LT PUSH8 0xFFFFFFFFFFFFFFFF DUP3 GT OR ISZERO PUSH2 0x24D6 JUMPI PUSH2 0x24D5 PUSH2 0x25B5 JUMP JUMPDEST JUMPDEST DUP1 PUSH1 0x40 MSTORE POP POP POP JUMP JUMPDEST PUSH1 0x0 PUSH2 0x24EA DUP3 PUSH2 0x2406 JUMP JUMPDEST SWAP2 POP PUSH32 0xFFFFFFFFFFFFFFFFFFFFFFFFFFFFFFFFFFFFFFFFFFFFFFFFFFFFFFFFFFFFFFFF DUP3 EQ ISZERO PUSH2 0x251D JUMPI PUSH2 0x251C PUSH2 0x2528 JUMP JUMPDEST JUMPDEST PUSH1 0x1 DUP3 ADD SWAP1 POP SWAP2 SWAP1 POP JUMP JUMPDEST PUSH32 0x4E487B7100000000000000000000000000000000000000000000000000000000 PUSH1 0x0 MSTORE PUSH1 0x11 PUSH1 0x4 MSTORE PUSH1 0x24 PUSH1 0x0 REVERT JUMPDEST PUSH32 0x4E487B7100000000000000000000000000000000000000000000000000000000 PUSH1 0x0 MSTORE PUSH1 0x22 PUSH1 0x4 MSTORE PUSH1 0x24 PUSH1 0x0 REVERT JUMPDEST PUSH32 0x4E487B7100000000000000000000000000000000000000000000000000000000 PUSH1 0x0 MSTORE PUSH1 0x32 PUSH1 0x4 MSTORE PUSH1 0x24 PUSH1 0x0 REVERT JUMPDEST PUSH32 0x4E487B7100000000000000000000000000000000000000000000000000000000 PUSH1 0x0 MSTORE PUSH1 0x41 PUSH1 0x4 MSTORE PUSH1 0x24 PUSH1 0x0 REVERT JUMPDEST PUSH1 0x0 DUP1 REVERT JUMPDEST PUSH1 0x0 DUP1 REVERT JUMPDEST PUSH1 0x0 DUP1 REVERT JUMPDEST PUSH1 0x0 DUP1 REVERT JUMPDEST PUSH1 0x0 DUP1 REVERT JUMPDEST PUSH1 0x0 PUSH1 0x1F NOT PUSH1 0x1F DUP4 ADD AND SWAP1 POP SWAP2 SWAP1 POP JUMP JUMPDEST PUSH32 0x537472696E67733A20686578206C656E67746820696E73756666696369656E74 PUSH1 0x0 DUP3 ADD MSTORE POP JUMP JUMPDEST PUSH32 0x4F776E61626C653A206E6577206F776E657220697320746865207A65726F2061 PUSH1 0x0 DUP3 ADD MSTORE PUSH32 0x6464726573730000000000000000000000000000000000000000000000000000 PUSH1 0x20 DUP3 ADD MSTORE POP JUMP JUMPDEST PUSH32 0x43616C6C6572206973206E6F7420616E20494E45432065786563757469766500 PUSH1 0x0 DUP3 ADD MSTORE POP JUMP JUMPDEST PUSH32 0x4F776E61626C653A2063616C6C6572206973206E6F7420746865206F776E6572 PUSH1 0x0 DUP3 ADD MSTORE POP JUMP JUMPDEST PUSH32 0x416363657373436F6E74726F6C3A206163636F756E7420000000000000000000 PUSH1 0x0 DUP3 ADD MSTORE POP JUMP JUMPDEST PUSH32 0x206973206D697373696E6720726F6C6520000000000000000000000000000000 PUSH1 0x0 DUP3 ADD MSTORE POP JUMP JUMPDEST PUSH32 0x416363657373436F6E74726F6C3A2063616E206F6E6C792072656E6F756E6365 PUSH1 0x0 DUP3 ADD MSTORE PUSH32 0x20726F6C657320666F722073656C660000000000000000000000000000000000 PUSH1 0x20 DUP3 ADD MSTORE POP JUMP JUMPDEST PUSH2 0x2782 DUP2 PUSH2 0x2392 JUMP JUMPDEST DUP2 EQ PUSH2 0x278D JUMPI PUSH1 0x0 DUP1 REVERT JUMPDEST POP JUMP JUMPDEST PUSH2 0x2799 DUP2 PUSH2 0x23B0 JUMP JUMPDEST DUP2 EQ PUSH2 0x27A4 JUMPI PUSH1 0x0 DUP1 REVERT JUMPDEST POP JUMP JUMPDEST PUSH2 0x27B0 DUP2 PUSH2 0x23BA JUMP JUMPDEST DUP2 EQ PUSH2 0x27BB JUMPI PUSH1 0x0 DUP1 REVERT JUMPDEST POP JUMP JUMPDEST PUSH2 0x27C7 DUP2 PUSH2 0x2406 JUMP JUMPDEST DUP2 EQ PUSH2 0x27D2 JUMPI PUSH1 0x0 DUP1 REVERT JUMPDEST POP JUMP INVALID LOG2 PUSH5 0x6970667358 0x22 SLT KECCAK256 0xD6 AND BLOCKHASH DUP14 0xB3 DIFFICULTY 0xDC PUSH28 0xFF8F8113CC0E7858F45AF030DE3D4650B2B02BC6B31D909364736F6C PUSH4 0x43000807 STOP CALLER "
				},
				"gasEstimates": {
					"creation": {
						"codeDepositCost": "2050200",
						"executionCost": "infinite",
						"totalCost": "infinite"
					},
					"external": {
						"Candidates(uint256)": "infinite",
						"DEFAULT_ADMIN_ROLE()": "446",
						"INEC_EXEC_ROLE()": "419",
						"VOTER_ROLE()": "351",
						"Voters(uint256)": "infinite",
						"Voting(uint256,uint256)": "infinite",
						"createCandidate(string,address,uint256)": "infinite",
						"createElection(address[],uint256,uint256)": "infinite",
						"createInecExec(address)": "infinite",
						"getElection(uint256)": "infinite",
						"getRoleAdmin(bytes32)": "infinite",
						"grantRole(bytes32,address)": "infinite",
						"hasRole(bytes32,address)": "3163",
						"owner()": "2655",
						"party(uint256)": "infinite",
						"regVoter(uint256)": "80082",
						"renounceOwnership()": "30509",
						"renounceRole(bytes32,address)": "infinite",
						"retrieveCandidate(uint256)": "infinite",
						"revokeRole(bytes32,address)": "infinite",
						"supportsInterface(bytes4)": "751",
						"transferOwnership(address)": "30879"
					}
				},
				"methodIdentifiers": {
					"Candidates(uint256)": "290e9212",
					"DEFAULT_ADMIN_ROLE()": "a217fddf",
					"INEC_EXEC_ROLE()": "2e0d37bb",
					"VOTER_ROLE()": "a94015c8",
					"Voters(uint256)": "9c35d98b",
					"Voting(uint256,uint256)": "3ec9ae35",
					"createCandidate(string,address,uint256)": "d59d2a58",
					"createElection(address[],uint256,uint256)": "4f05dba8",
					"createInecExec(address)": "dfd8459e",
					"getElection(uint256)": "9d710777",
					"getRoleAdmin(bytes32)": "248a9ca3",
					"grantRole(bytes32,address)": "2f2ff15d",
					"hasRole(bytes32,address)": "91d14854",
					"owner()": "8da5cb5b",
					"party(uint256)": "314fd68f",
					"regVoter(uint256)": "d9d55ba0",
					"renounceOwnership()": "715018a6",
					"renounceRole(bytes32,address)": "36568abe",
					"retrieveCandidate(uint256)": "9e5f0349",
					"revokeRole(bytes32,address)": "d547741f",
					"supportsInterface(bytes4)": "01ffc9a7",
					"transferOwnership(address)": "f2fde38b"
				}
			},
			"storageLayout": {
				"storage": [
					{
						"astId": 400,
						"contract": "contracts/Vote.sol:Vote",
						"label": "_owner",
						"offset": 0,
						"slot": "0",
						"type": "t_address"
					},
					{
						"astId": 24,
						"contract": "contracts/Vote.sol:Vote",
						"label": "_roles",
						"offset": 0,
						"slot": "1",
						"type": "t_mapping(t_bytes32,t_struct(RoleData)19_storage)"
					},
					{
						"astId": 800,
						"contract": "contracts/Vote.sol:Vote",
						"label": "voteFee",
						"offset": 0,
						"slot": "2",
						"type": "t_uint256"
					},
					{
						"astId": 802,
						"contract": "contracts/Vote.sol:Vote",
						"label": "candidateNum",
						"offset": 0,
						"slot": "3",
						"type": "t_uint256"
					},
					{
						"astId": 804,
						"contract": "contracts/Vote.sol:Vote",
						"label": "voterNum",
						"offset": 0,
						"slot": "4",
						"type": "t_uint256"
					},
					{
						"astId": 806,
						"contract": "contracts/Vote.sol:Vote",
						"label": "electionNum",
						"offset": 0,
						"slot": "5",
						"type": "t_uint256"
					},
					{
						"astId": 814,
						"contract": "contracts/Vote.sol:Vote",
						"label": "party",
						"offset": 0,
						"slot": "6",
						"type": "t_array(t_string_storage)dyn_storage"
					},
					{
						"astId": 858,
						"contract": "contracts/Vote.sol:Vote",
						"label": "Candidates",
						"offset": 0,
						"slot": "7",
						"type": "t_mapping(t_uint256,t_struct(candidate)831_storage)"
					},
					{
						"astId": 863,
						"contract": "contracts/Vote.sol:Vote",
						"label": "Voters",
						"offset": 0,
						"slot": "8",
						"type": "t_mapping(t_uint256,t_struct(voter)840_storage)"
					},
					{
						"astId": 868,
						"contract": "contracts/Vote.sol:Vote",
						"label": "Elections",
						"offset": 0,
						"slot": "9",
						"type": "t_mapping(t_uint256,t_struct(election)853_storage)"
					}
				],
				"types": {
					"t_address": {
						"encoding": "inplace",
						"label": "address",
						"numberOfBytes": "20"
					},
					"t_array(t_address)dyn_storage": {
						"base": "t_address",
						"encoding": "dynamic_array",
						"label": "address[]",
						"numberOfBytes": "32"
					},
					"t_array(t_string_storage)dyn_storage": {
						"base": "t_string_storage",
						"encoding": "dynamic_array",
						"label": "string[]",
						"numberOfBytes": "32"
					},
					"t_array(t_uint256)dyn_storage": {
						"base": "t_uint256",
						"encoding": "dynamic_array",
						"label": "uint256[]",
						"numberOfBytes": "32"
					},
					"t_bool": {
						"encoding": "inplace",
						"label": "bool",
						"numberOfBytes": "1"
					},
					"t_bytes32": {
						"encoding": "inplace",
						"label": "bytes32",
						"numberOfBytes": "32"
					},
					"t_mapping(t_address,t_bool)": {
						"encoding": "mapping",
						"key": "t_address",
						"label": "mapping(address => bool)",
						"numberOfBytes": "32",
						"value": "t_bool"
					},
					"t_mapping(t_bytes32,t_struct(RoleData)19_storage)": {
						"encoding": "mapping",
						"key": "t_bytes32",
						"label": "mapping(bytes32 => struct AccessControl.RoleData)",
						"numberOfBytes": "32",
						"value": "t_struct(RoleData)19_storage"
					},
					"t_mapping(t_uint256,t_struct(candidate)831_storage)": {
						"encoding": "mapping",
						"key": "t_uint256",
						"label": "mapping(uint256 => struct Vote.candidate)",
						"numberOfBytes": "32",
						"value": "t_struct(candidate)831_storage"
					},
					"t_mapping(t_uint256,t_struct(election)853_storage)": {
						"encoding": "mapping",
						"key": "t_uint256",
						"label": "mapping(uint256 => struct Vote.election)",
						"numberOfBytes": "32",
						"value": "t_struct(election)853_storage"
					},
					"t_mapping(t_uint256,t_struct(voter)840_storage)": {
						"encoding": "mapping",
						"key": "t_uint256",
						"label": "mapping(uint256 => struct Vote.voter)",
						"numberOfBytes": "32",
						"value": "t_struct(voter)840_storage"
					},
					"t_string_storage": {
						"encoding": "bytes",
						"label": "string",
						"numberOfBytes": "32"
					},
					"t_struct(RoleData)19_storage": {
						"encoding": "inplace",
						"label": "struct AccessControl.RoleData",
						"members": [
							{
								"astId": 16,
								"contract": "contracts/Vote.sol:Vote",
								"label": "members",
								"offset": 0,
								"slot": "0",
								"type": "t_mapping(t_address,t_bool)"
							},
							{
								"astId": 18,
								"contract": "contracts/Vote.sol:Vote",
								"label": "adminRole",
								"offset": 0,
								"slot": "1",
								"type": "t_bytes32"
							}
						],
						"numberOfBytes": "64"
					},
					"t_struct(candidate)831_storage": {
						"encoding": "inplace",
						"label": "struct Vote.candidate",
						"members": [
							{
								"astId": 826,
								"contract": "contracts/Vote.sol:Vote",
								"label": "name",
								"offset": 0,
								"slot": "0",
								"type": "t_string_storage"
							},
							{
								"astId": 828,
								"contract": "contracts/Vote.sol:Vote",
								"label": "addr",
								"offset": 0,
								"slot": "1",
								"type": "t_address"
							},
							{
								"astId": 830,
								"contract": "contracts/Vote.sol:Vote",
								"label": "party",
								"offset": 0,
								"slot": "2",
								"type": "t_string_storage"
							}
						],
						"numberOfBytes": "96"
					},
					"t_struct(election)853_storage": {
						"encoding": "inplace",
						"label": "struct Vote.election",
						"members": [
							{
								"astId": 843,
								"contract": "contracts/Vote.sol:Vote",
								"label": "candidate",
								"offset": 0,
								"slot": "0",
								"type": "t_array(t_address)dyn_storage"
							},
							{
								"astId": 846,
								"contract": "contracts/Vote.sol:Vote",
								"label": "candidateVote",
								"offset": 0,
								"slot": "1",
								"type": "t_array(t_uint256)dyn_storage"
							},
							{
								"astId": 848,
								"contract": "contracts/Vote.sol:Vote",
								"label": "start",
								"offset": 0,
								"slot": "2",
								"type": "t_uint256"
							},
							{
								"astId": 850,
								"contract": "contracts/Vote.sol:Vote",
								"label": "duration",
								"offset": 0,
								"slot": "3",
								"type": "t_uint256"
							},
							{
								"astId": 852,
								"contract": "contracts/Vote.sol:Vote",
								"label": "hasEnded",
								"offset": 0,
								"slot": "4",
								"type": "t_bool"
							}
						],
						"numberOfBytes": "160"
					},
					"t_struct(voter)840_storage": {
						"encoding": "inplace",
						"label": "struct Vote.voter",
						"members": [
							{
								"astId": 833,
								"contract": "contracts/Vote.sol:Vote",
								"label": "addr",
								"offset": 0,
								"slot": "0",
								"type": "t_address"
							},
							{
								"astId": 835,
								"contract": "contracts/Vote.sol:Vote",
								"label": "nin",
								"offset": 0,
								"slot": "1",
								"type": "t_uint256"
							},
							{
								"astId": 837,
								"contract": "contracts/Vote.sol:Vote",
								"label": "partyNum",
								"offset": 0,
								"slot": "2",
								"type": "t_uint256"
							},
							{
								"astId": 839,
								"contract": "contracts/Vote.sol:Vote",
								"label": "hasVoted",
								"offset": 0,
								"slot": "3",
								"type": "t_bool"
							}
						],
						"numberOfBytes": "128"
					},
					"t_uint256": {
						"encoding": "inplace",
						"label": "uint256",
						"numberOfBytes": "32"
					}
				}
			},
			"userdoc": {
				"kind": "user",
				"methods": {},
				"version": 1
			}
		}
	}
}